{
	"src/LogisticsTracking.sol": {
		"LogisticsTracking": {
			"abi": [
				{
					"inputs": [],
					"stateMutability": "nonpayable",
					"type": "constructor"
				},
				{
					"anonymous": false,
					"inputs": [
						{
							"indexed": true,
							"internalType": "address",
							"name": "actorAddress",
							"type": "address"
						},
						{
							"indexed": false,
							"internalType": "string",
							"name": "name",
							"type": "string"
						},
						{
							"indexed": false,
							"internalType": "enum LogisticsTracking.ActorRole",
							"name": "role",
							"type": "uint8"
						}
					],
					"name": "ActorRegistered",
					"type": "event"
				},
				{
					"anonymous": false,
					"inputs": [
						{
							"indexed": true,
							"internalType": "uint256",
							"name": "checkpointId",
							"type": "uint256"
						},
						{
							"indexed": true,
							"internalType": "uint256",
							"name": "shipmentId",
							"type": "uint256"
						},
						{
							"indexed": false,
							"internalType": "string",
							"name": "location",
							"type": "string"
						},
						{
							"indexed": false,
							"internalType": "address",
							"name": "actor",
							"type": "address"
						}
					],
					"name": "CheckpointRecorded",
					"type": "event"
				},
				{
					"anonymous": false,
					"inputs": [
						{
							"indexed": true,
							"internalType": "uint256",
							"name": "shipmentId",
							"type": "uint256"
						},
						{
							"indexed": true,
							"internalType": "address",
							"name": "recipient",
							"type": "address"
						},
						{
							"indexed": false,
							"internalType": "uint256",
							"name": "timestamp",
							"type": "uint256"
						}
					],
					"name": "DeliveryConfirmed",
					"type": "event"
				},
				{
					"anonymous": false,
					"inputs": [
						{
							"indexed": true,
							"internalType": "uint256",
							"name": "incidentId",
							"type": "uint256"
						},
						{
							"indexed": true,
							"internalType": "uint256",
							"name": "shipmentId",
							"type": "uint256"
						},
						{
							"indexed": false,
							"internalType": "enum LogisticsTracking.IncidentType",
							"name": "incidentType",
							"type": "uint8"
						}
					],
					"name": "IncidentReported",
					"type": "event"
				},
				{
					"anonymous": false,
					"inputs": [
						{
							"indexed": true,
							"internalType": "uint256",
							"name": "incidentId",
							"type": "uint256"
						}
					],
					"name": "IncidentResolved",
					"type": "event"
				},
				{
					"anonymous": false,
					"inputs": [
						{
							"indexed": true,
							"internalType": "uint256",
							"name": "shipmentId",
							"type": "uint256"
						},
						{
							"indexed": true,
							"internalType": "address",
							"name": "sender",
							"type": "address"
						},
						{
							"indexed": true,
							"internalType": "address",
							"name": "recipient",
							"type": "address"
						},
						{
							"indexed": false,
							"internalType": "string",
							"name": "product",
							"type": "string"
						}
					],
					"name": "ShipmentCreated",
					"type": "event"
				},
				{
					"anonymous": false,
					"inputs": [
						{
							"indexed": true,
							"internalType": "uint256",
							"name": "shipmentId",
							"type": "uint256"
						},
						{
							"indexed": false,
							"internalType": "enum LogisticsTracking.ShipmentStatus",
							"name": "newStatus",
							"type": "uint8"
						}
					],
					"name": "ShipmentStatusChanged",
					"type": "event"
				},
				{
					"inputs": [
						{
							"internalType": "address",
							"name": "",
							"type": "address"
						},
						{
							"internalType": "uint256",
							"name": "",
							"type": "uint256"
						}
					],
					"name": "actorShipments",
					"outputs": [
						{
							"internalType": "uint256",
							"name": "",
							"type": "uint256"
						}
					],
					"stateMutability": "view",
					"type": "function"
				},
				{
					"inputs": [
						{
							"internalType": "address",
							"name": "",
							"type": "address"
						}
					],
					"name": "actors",
					"outputs": [
						{
							"internalType": "address",
							"name": "actorAddress",
							"type": "address"
						},
						{
							"internalType": "string",
							"name": "name",
							"type": "string"
						},
						{
							"internalType": "enum LogisticsTracking.ActorRole",
							"name": "role",
							"type": "uint8"
						},
						{
							"internalType": "string",
							"name": "location",
							"type": "string"
						},
						{
							"internalType": "bool",
							"name": "isActive",
							"type": "bool"
						}
					],
					"stateMutability": "view",
					"type": "function"
				},
				{
					"inputs": [],
					"name": "admin",
					"outputs": [
						{
							"internalType": "address",
							"name": "",
							"type": "address"
						}
					],
					"stateMutability": "view",
					"type": "function"
				},
				{
					"inputs": [
						{
							"internalType": "uint256",
							"name": "_shipmentId",
							"type": "uint256"
						}
					],
					"name": "cancelShipment",
					"outputs": [],
					"stateMutability": "nonpayable",
					"type": "function"
				},
				{
					"inputs": [
						{
							"internalType": "uint256",
							"name": "",
							"type": "uint256"
						}
					],
					"name": "checkpoints",
					"outputs": [
						{
							"internalType": "uint256",
							"name": "id",
							"type": "uint256"
						},
						{
							"internalType": "uint256",
							"name": "shipmentId",
							"type": "uint256"
						},
						{
							"internalType": "address",
							"name": "actor",
							"type": "address"
						},
						{
							"internalType": "string",
							"name": "location",
							"type": "string"
						},
						{
							"internalType": "string",
							"name": "checkpointType",
							"type": "string"
						},
						{
							"internalType": "uint256",
							"name": "timestamp",
							"type": "uint256"
						},
						{
							"internalType": "string",
							"name": "notes",
							"type": "string"
						},
						{
							"internalType": "int256",
							"name": "temperature",
							"type": "int256"
						}
					],
					"stateMutability": "view",
					"type": "function"
				},
				{
					"inputs": [
						{
							"internalType": "uint256",
							"name": "_shipmentId",
							"type": "uint256"
						}
					],
					"name": "confirmDelivery",
					"outputs": [],
					"stateMutability": "nonpayable",
					"type": "function"
				},
				{
					"inputs": [
						{
							"internalType": "address",
							"name": "_recipient",
							"type": "address"
						},
						{
							"internalType": "string",
							"name": "_product",
							"type": "string"
						},
						{
							"internalType": "string",
							"name": "_origin",
							"type": "string"
						},
						{
							"internalType": "string",
							"name": "_destination",
							"type": "string"
						},
						{
							"internalType": "bool",
							"name": "_requiresColdChain",
							"type": "bool"
						}
					],
					"name": "createShipment",
					"outputs": [
						{
							"internalType": "uint256",
							"name": "",
							"type": "uint256"
						}
					],
					"stateMutability": "nonpayable",
					"type": "function"
				},
				{
					"inputs": [
						{
							"internalType": "address",
							"name": "_actorAddress",
							"type": "address"
						}
					],
					"name": "deactivateActor",
					"outputs": [],
					"stateMutability": "nonpayable",
					"type": "function"
				},
				{
					"inputs": [
						{
							"internalType": "address",
							"name": "_actorAddress",
							"type": "address"
						}
					],
					"name": "getActor",
					"outputs": [
						{
							"components": [
								{
									"internalType": "address",
									"name": "actorAddress",
									"type": "address"
								},
								{
									"internalType": "string",
									"name": "name",
									"type": "string"
								},
								{
									"internalType": "enum LogisticsTracking.ActorRole",
									"name": "role",
									"type": "uint8"
								},
								{
									"internalType": "string",
									"name": "location",
									"type": "string"
								},
								{
									"internalType": "bool",
									"name": "isActive",
									"type": "bool"
								}
							],
							"internalType": "struct LogisticsTracking.Actor",
							"name": "",
							"type": "tuple"
						}
					],
					"stateMutability": "view",
					"type": "function"
				},
				{
					"inputs": [
						{
							"internalType": "address",
							"name": "_actor",
							"type": "address"
						}
					],
					"name": "getActorShipments",
					"outputs": [
						{
							"internalType": "uint256[]",
							"name": "",
							"type": "uint256[]"
						}
					],
					"stateMutability": "view",
					"type": "function"
				},
				{
					"inputs": [
						{
							"internalType": "uint256",
							"name": "_id",
							"type": "uint256"
						}
					],
					"name": "getShipment",
					"outputs": [
						{
							"components": [
								{
									"internalType": "uint256",
									"name": "id",
									"type": "uint256"
								},
								{
									"internalType": "address",
									"name": "sender",
									"type": "address"
								},
								{
									"internalType": "address",
									"name": "recipient",
									"type": "address"
								},
								{
									"internalType": "string",
									"name": "product",
									"type": "string"
								},
								{
									"internalType": "string",
									"name": "origin",
									"type": "string"
								},
								{
									"internalType": "string",
									"name": "destination",
									"type": "string"
								},
								{
									"internalType": "uint256",
									"name": "dateCreated",
									"type": "uint256"
								},
								{
									"internalType": "uint256",
									"name": "dateDelivered",
									"type": "uint256"
								},
								{
									"internalType": "enum LogisticsTracking.ShipmentStatus",
									"name": "status",
									"type": "uint8"
								},
								{
									"internalType": "uint256[]",
									"name": "checkpointIds",
									"type": "uint256[]"
								},
								{
									"internalType": "uint256[]",
									"name": "incidentIds",
									"type": "uint256[]"
								},
								{
									"internalType": "bool",
									"name": "requiresColdChain",
									"type": "bool"
								}
							],
							"internalType": "struct LogisticsTracking.Shipment",
							"name": "",
							"type": "tuple"
						}
					],
					"stateMutability": "view",
					"type": "function"
				},
				{
					"inputs": [
						{
							"internalType": "uint256",
							"name": "_id",
							"type": "uint256"
						}
					],
					"name": "getShipmentCheckpoints",
					"outputs": [
						{
							"components": [
								{
									"internalType": "uint256",
									"name": "id",
									"type": "uint256"
								},
								{
									"internalType": "uint256",
									"name": "shipmentId",
									"type": "uint256"
								},
								{
									"internalType": "address",
									"name": "actor",
									"type": "address"
								},
								{
									"internalType": "string",
									"name": "location",
									"type": "string"
								},
								{
									"internalType": "string",
									"name": "checkpointType",
									"type": "string"
								},
								{
									"internalType": "uint256",
									"name": "timestamp",
									"type": "uint256"
								},
								{
									"internalType": "string",
									"name": "notes",
									"type": "string"
								},
								{
									"internalType": "int256",
									"name": "temperature",
									"type": "int256"
								}
							],
							"internalType": "struct LogisticsTracking.Checkpoint[]",
							"name": "",
							"type": "tuple[]"
						}
					],
					"stateMutability": "view",
					"type": "function"
				},
				{
					"inputs": [
						{
							"internalType": "uint256",
							"name": "",
							"type": "uint256"
						}
					],
					"name": "incidents",
					"outputs": [
						{
							"internalType": "uint256",
							"name": "id",
							"type": "uint256"
						},
						{
							"internalType": "uint256",
							"name": "shipmentId",
							"type": "uint256"
						},
						{
							"internalType": "enum LogisticsTracking.IncidentType",
							"name": "incidentType",
							"type": "uint8"
						},
						{
							"internalType": "address",
							"name": "reporter",
							"type": "address"
						},
						{
							"internalType": "string",
							"name": "description",
							"type": "string"
						},
						{
							"internalType": "uint256",
							"name": "timestamp",
							"type": "uint256"
						},
						{
							"internalType": "bool",
							"name": "resolved",
							"type": "bool"
						}
					],
					"stateMutability": "view",
					"type": "function"
				},
				{
					"inputs": [],
					"name": "nextCheckpointId",
					"outputs": [
						{
							"internalType": "uint256",
							"name": "",
							"type": "uint256"
						}
					],
					"stateMutability": "view",
					"type": "function"
				},
				{
					"inputs": [],
					"name": "nextIncidentId",
					"outputs": [
						{
							"internalType": "uint256",
							"name": "",
							"type": "uint256"
						}
					],
					"stateMutability": "view",
					"type": "function"
				},
				{
					"inputs": [],
					"name": "nextShipmentId",
					"outputs": [
						{
							"internalType": "uint256",
							"name": "",
							"type": "uint256"
						}
					],
					"stateMutability": "view",
					"type": "function"
				},
				{
					"inputs": [
						{
							"internalType": "uint256",
							"name": "_shipmentId",
							"type": "uint256"
						},
						{
							"internalType": "string",
							"name": "_location",
							"type": "string"
						},
						{
							"internalType": "string",
							"name": "_checkpointType",
							"type": "string"
						},
						{
							"internalType": "string",
							"name": "_notes",
							"type": "string"
						},
						{
							"internalType": "int256",
							"name": "_temperature",
							"type": "int256"
						}
					],
					"name": "recordCheckpoint",
					"outputs": [
						{
							"internalType": "uint256",
							"name": "",
							"type": "uint256"
						}
					],
					"stateMutability": "nonpayable",
					"type": "function"
				},
				{
					"inputs": [
						{
							"internalType": "string",
							"name": "_name",
							"type": "string"
						},
						{
							"internalType": "enum LogisticsTracking.ActorRole",
							"name": "_role",
							"type": "uint8"
						},
						{
							"internalType": "string",
							"name": "_location",
							"type": "string"
						}
					],
					"name": "registerActor",
					"outputs": [],
					"stateMutability": "nonpayable",
					"type": "function"
				},
				{
					"inputs": [
						{
							"internalType": "uint256",
							"name": "_shipmentId",
							"type": "uint256"
						},
						{
							"internalType": "enum LogisticsTracking.IncidentType",
							"name": "_type",
							"type": "uint8"
						},
						{
							"internalType": "string",
							"name": "_desc",
							"type": "string"
						}
					],
					"name": "reportIncident",
					"outputs": [
						{
							"internalType": "uint256",
							"name": "",
							"type": "uint256"
						}
					],
					"stateMutability": "nonpayable",
					"type": "function"
				},
				{
					"inputs": [
						{
							"internalType": "uint256",
							"name": "_incidentId",
							"type": "uint256"
						}
					],
					"name": "resolveIncident",
					"outputs": [],
					"stateMutability": "nonpayable",
					"type": "function"
				},
				{
					"inputs": [
						{
							"internalType": "uint256",
							"name": "",
							"type": "uint256"
						}
					],
					"name": "shipments",
					"outputs": [
						{
							"internalType": "uint256",
							"name": "id",
							"type": "uint256"
						},
						{
							"internalType": "address",
							"name": "sender",
							"type": "address"
						},
						{
							"internalType": "address",
							"name": "recipient",
							"type": "address"
						},
						{
							"internalType": "string",
							"name": "product",
							"type": "string"
						},
						{
							"internalType": "string",
							"name": "origin",
							"type": "string"
						},
						{
							"internalType": "string",
							"name": "destination",
							"type": "string"
						},
						{
							"internalType": "uint256",
							"name": "dateCreated",
							"type": "uint256"
						},
						{
							"internalType": "uint256",
							"name": "dateDelivered",
							"type": "uint256"
						},
						{
							"internalType": "enum LogisticsTracking.ShipmentStatus",
							"name": "status",
							"type": "uint8"
						},
						{
							"internalType": "bool",
							"name": "requiresColdChain",
							"type": "bool"
						}
					],
					"stateMutability": "view",
					"type": "function"
				},
				{
					"inputs": [
						{
							"internalType": "uint256",
							"name": "_shipmentId",
							"type": "uint256"
						},
						{
							"internalType": "enum LogisticsTracking.ShipmentStatus",
							"name": "_newStatus",
							"type": "uint8"
						}
					],
					"name": "updateShipmentStatus",
					"outputs": [],
					"stateMutability": "nonpayable",
					"type": "function"
				},
				{
					"inputs": [
						{
							"internalType": "uint256",
							"name": "_shipmentId",
							"type": "uint256"
						}
					],
					"name": "verifyTemperatureCompliance",
					"outputs": [
						{
							"internalType": "bool",
							"name": "",
							"type": "bool"
						}
					],
					"stateMutability": "view",
					"type": "function"
				}
			],
			"devdoc": {
				"details": "Sistema de trazabilidad logística con soporte para cadena de frío e incidencias.",
				"kind": "dev",
				"methods": {},
				"title": "LogisticsTracking",
				"version": 1
			},
			"evm": {
				"assembly": "    /* \"src/LogisticsTracking.sol\":185:8839  contract LogisticsTracking {... */\n  mstore(0x40, 0x80)\n    /* \"src/LogisticsTracking.sol\":1629:1630  1 */\n  0x01\n    /* \"src/LogisticsTracking.sol\":1597:1630  uint256 public nextShipmentId = 1 */\n  dup1\n  sstore\n    /* \"src/LogisticsTracking.sol\":1670:1671  1 */\n  0x01\n    /* \"src/LogisticsTracking.sol\":1636:1671  uint256 public nextCheckpointId = 1 */\n  0x02\n  sstore\n    /* \"src/LogisticsTracking.sol\":1709:1710  1 */\n  0x01\n    /* \"src/LogisticsTracking.sol\":1677:1710  uint256 public nextIncidentId = 1 */\n  0x03\n  sstore\n    /* \"src/LogisticsTracking.sol\":3078:3127  constructor() {... */\n  callvalue\n  dup1\n  iszero\n  tag_1\n  jumpi\n  revert(0x00, 0x00)\ntag_1:\n  pop\n    /* \"src/LogisticsTracking.sol\":3110:3120  msg.sender */\n  caller\n    /* \"src/LogisticsTracking.sol\":3102:3107  admin */\n  0x00\n  0x00\n    /* \"src/LogisticsTracking.sol\":3102:3120  admin = msg.sender */\n  0x0100\n  exp\n  dup2\n  sload\n  dup2\n  0xffffffffffffffffffffffffffffffffffffffff\n  mul\n  not\n  and\n  swap1\n  dup4\n  0xffffffffffffffffffffffffffffffffffffffff\n  and\n  mul\n  or\n  swap1\n  sstore\n  pop\n    /* \"src/LogisticsTracking.sol\":185:8839  contract LogisticsTracking {... */\n  dataSize(sub_0)\n  dup1\n  dataOffset(sub_0)\n  0x00\n  codecopy\n  0x00\n  return\nstop\n\nsub_0: assembly {\n        /* \"src/LogisticsTracking.sol\":185:8839  contract LogisticsTracking {... */\n      mstore(0x40, 0x80)\n      callvalue\n      dup1\n      iszero\n      tag_1\n      jumpi\n      revert(0x00, 0x00)\n    tag_1:\n      pop\n      jumpi(tag_2, lt(calldatasize, 0x04))\n      shr(0xe0, calldataload(0x00))\n      dup1\n      0x7faa7bc7\n      gt\n      tag_26\n      jumpi\n      dup1\n      0xc4edcf8b\n      gt\n      tag_27\n      jumpi\n      dup1\n      0xc4edcf8b\n      eq\n      tag_20\n      jumpi\n      dup1\n      0xe570c367\n      eq\n      tag_21\n      jumpi\n      dup1\n      0xeaa66a3c\n      eq\n      tag_22\n      jumpi\n      dup1\n      0xf851a440\n      eq\n      tag_23\n      jumpi\n      dup1\n      0xfc436695\n      eq\n      tag_24\n      jumpi\n      dup1\n      0xfd84cb97\n      eq\n      tag_25\n      jumpi\n      jump(tag_2)\n    tag_27:\n      dup1\n      0x7faa7bc7\n      eq\n      tag_14\n      jumpi\n      dup1\n      0xa113c557\n      eq\n      tag_15\n      jumpi\n      dup1\n      0xa6c6a8f3\n      eq\n      tag_16\n      jumpi\n      dup1\n      0xaf56a428\n      eq\n      tag_17\n      jumpi\n      dup1\n      0xb8a24252\n      eq\n      tag_18\n      jumpi\n      dup1\n      0xb9a3a68c\n      eq\n      tag_19\n      jumpi\n      jump(tag_2)\n    tag_26:\n      dup1\n      0x4138d167\n      gt\n      tag_28\n      jumpi\n      dup1\n      0x4138d167\n      eq\n      tag_8\n      jumpi\n      dup1\n      0x475b6f98\n      eq\n      tag_9\n      jumpi\n      dup1\n      0x4ffe6ae2\n      eq\n      tag_10\n      jumpi\n      dup1\n      0x5f19f4f5\n      eq\n      tag_11\n      jumpi\n      dup1\n      0x72f2f93a\n      eq\n      tag_12\n      jumpi\n      dup1\n      0x7defa920\n      eq\n      tag_13\n      jumpi\n      jump(tag_2)\n    tag_28:\n      dup1\n      0x092b3740\n      eq\n      tag_3\n      jumpi\n      dup1\n      0x0fd19668\n      eq\n      tag_4\n      jumpi\n      dup1\n      0x229ec452\n      eq\n      tag_5\n      jumpi\n      dup1\n      0x2ac08a93\n      eq\n      tag_6\n      jumpi\n      dup1\n      0x33401ee1\n      eq\n      tag_7\n      jumpi\n    tag_2:\n      revert(0x00, 0x00)\n        /* \"src/LogisticsTracking.sol\":7779:7889  function getShipment(uint256 _id) public view returns (Shipment memory) {... */\n    tag_3:\n      tag_29\n      0x04\n      dup1\n      calldatasize\n      sub\n      dup2\n      add\n      swap1\n      tag_30\n      swap2\n      swap1\n      tag_31\n      jump\t// in\n    tag_30:\n      tag_32\n      jump\t// in\n    tag_29:\n      mload(0x40)\n      tag_33\n      swap2\n      swap1\n      tag_34\n      jump\t// in\n    tag_33:\n      mload(0x40)\n      dup1\n      swap2\n      sub\n      swap1\n      return\n        /* \"src/LogisticsTracking.sol\":1677:1710  uint256 public nextIncidentId = 1 */\n    tag_4:\n      tag_35\n      tag_36\n      jump\t// in\n    tag_35:\n      mload(0x40)\n      tag_37\n      swap2\n      swap1\n      tag_38\n      jump\t// in\n    tag_37:\n      mload(0x40)\n      dup1\n      swap2\n      sub\n      swap1\n      return\n        /* \"src/LogisticsTracking.sol\":1636:1671  uint256 public nextCheckpointId = 1 */\n    tag_5:\n      tag_39\n      tag_40\n      jump\t// in\n    tag_39:\n      mload(0x40)\n      tag_41\n      swap2\n      swap1\n      tag_38\n      jump\t// in\n    tag_41:\n      mload(0x40)\n      dup1\n      swap2\n      sub\n      swap1\n      return\n        /* \"src/LogisticsTracking.sol\":1717:1762  mapping(uint256 => Shipment) public shipments */\n    tag_6:\n      tag_42\n      0x04\n      dup1\n      calldatasize\n      sub\n      dup2\n      add\n      swap1\n      tag_43\n      swap2\n      swap1\n      tag_31\n      jump\t// in\n    tag_43:\n      tag_44\n      jump\t// in\n    tag_42:\n      mload(0x40)\n      tag_45\n      swap11\n      swap10\n      swap9\n      swap8\n      swap7\n      swap6\n      swap5\n      swap4\n      swap3\n      swap2\n      swap1\n      tag_46\n      jump\t// in\n    tag_45:\n      mload(0x40)\n      dup1\n      swap2\n      sub\n      swap1\n      return\n        /* \"src/LogisticsTracking.sol\":5960:7038  function recordCheckpoint(... */\n    tag_7:\n      tag_47\n      0x04\n      dup1\n      calldatasize\n      sub\n      dup2\n      add\n      swap1\n      tag_48\n      swap2\n      swap1\n      tag_49\n      jump\t// in\n    tag_48:\n      tag_50\n      jump\t// in\n    tag_47:\n      mload(0x40)\n      tag_51\n      swap2\n      swap1\n      tag_38\n      jump\t// in\n    tag_51:\n      mload(0x40)\n      dup1\n      swap2\n      sub\n      swap1\n      return\n        /* \"src/LogisticsTracking.sol\":3605:3726  function getActor(address _actorAddress) public view returns (Actor memory) {... */\n    tag_8:\n      tag_52\n      0x04\n      dup1\n      calldatasize\n      sub\n      dup2\n      add\n      swap1\n      tag_53\n      swap2\n      swap1\n      tag_54\n      jump\t// in\n    tag_53:\n      tag_55\n      jump\t// in\n    tag_52:\n      mload(0x40)\n      tag_56\n      swap2\n      swap1\n      tag_57\n      jump\t// in\n    tag_56:\n      mload(0x40)\n      dup1\n      swap2\n      sub\n      swap1\n      return\n        /* \"src/LogisticsTracking.sol\":3768:4647  function createShipment(... */\n    tag_9:\n      tag_58\n      0x04\n      dup1\n      calldatasize\n      sub\n      dup2\n      add\n      swap1\n      tag_59\n      swap2\n      swap1\n      tag_60\n      jump\t// in\n    tag_59:\n      tag_61\n      jump\t// in\n    tag_58:\n      mload(0x40)\n      tag_62\n      swap2\n      swap1\n      tag_38\n      jump\t// in\n    tag_62:\n      mload(0x40)\n      dup1\n      swap2\n      sub\n      swap1\n      return\n        /* \"src/LogisticsTracking.sol\":7587:7749  function resolveIncident(uint256 _incidentId) public onlyAdmin {... */\n    tag_10:\n      tag_63\n      0x04\n      dup1\n      calldatasize\n      sub\n      dup2\n      add\n      swap1\n      tag_64\n      swap2\n      swap1\n      tag_31\n      jump\t// in\n    tag_64:\n      tag_65\n      jump\t// in\n    tag_63:\n      stop\n        /* \"src/LogisticsTracking.sol\":7895:8246  function getShipmentCheckpoints(uint256 _id) public view returns (Checkpoint[] memory) {... */\n    tag_11:\n      tag_66\n      0x04\n      dup1\n      calldatasize\n      sub\n      dup2\n      add\n      swap1\n      tag_67\n      swap2\n      swap1\n      tag_31\n      jump\t// in\n    tag_67:\n      tag_68\n      jump\t// in\n    tag_66:\n      mload(0x40)\n      tag_69\n      swap2\n      swap1\n      tag_70\n      jump\t// in\n    tag_69:\n      mload(0x40)\n      dup1\n      swap2\n      sub\n      swap1\n      return\n        /* \"src/LogisticsTracking.sol\":8709:8837  function getActorShipments(address _actor) public view returns (uint256[] memory) {... */\n    tag_12:\n      tag_71\n      0x04\n      dup1\n      calldatasize\n      sub\n      dup2\n      add\n      swap1\n      tag_72\n      swap2\n      swap1\n      tag_54\n      jump\t// in\n    tag_72:\n      tag_73\n      jump\t// in\n    tag_71:\n      mload(0x40)\n      tag_74\n      swap2\n      swap1\n      tag_75\n      jump\t// in\n    tag_74:\n      mload(0x40)\n      dup1\n      swap2\n      sub\n      swap1\n      return\n        /* \"src/LogisticsTracking.sol\":4653:4934  function updateShipmentStatus(uint256 _shipmentId, ShipmentStatus _newStatus) ... */\n    tag_13:\n      tag_76\n      0x04\n      dup1\n      calldatasize\n      sub\n      dup2\n      add\n      swap1\n      tag_77\n      swap2\n      swap1\n      tag_78\n      jump\t// in\n    tag_77:\n      tag_79\n      jump\t// in\n    tag_76:\n      stop\n        /* \"src/LogisticsTracking.sol\":5484:5914  function cancelShipment(uint256 _shipmentId) public shipmentExists(_shipmentId) {... */\n    tag_14:\n      tag_80\n      0x04\n      dup1\n      calldatasize\n      sub\n      dup2\n      add\n      swap1\n      tag_81\n      swap2\n      swap1\n      tag_31\n      jump\t// in\n    tag_81:\n      tag_82\n      jump\t// in\n    tag_80:\n      stop\n        /* \"src/LogisticsTracking.sol\":1919:1970  mapping(address => uint256[]) public actorShipments */\n    tag_15:\n      tag_83\n      0x04\n      dup1\n      calldatasize\n      sub\n      dup2\n      add\n      swap1\n      tag_84\n      swap2\n      swap1\n      tag_85\n      jump\t// in\n    tag_84:\n      tag_86\n      jump\t// in\n    tag_83:\n      mload(0x40)\n      tag_87\n      swap2\n      swap1\n      tag_38\n      jump\t// in\n    tag_87:\n      mload(0x40)\n      dup1\n      swap2\n      sub\n      swap1\n      return\n        /* \"src/LogisticsTracking.sol\":1823:1868  mapping(uint256 => Incident) public incidents */\n    tag_16:\n      tag_88\n      0x04\n      dup1\n      calldatasize\n      sub\n      dup2\n      add\n      swap1\n      tag_89\n      swap2\n      swap1\n      tag_31\n      jump\t// in\n    tag_89:\n      tag_90\n      jump\t// in\n    tag_88:\n      mload(0x40)\n      tag_91\n      swap8\n      swap7\n      swap6\n      swap5\n      swap4\n      swap3\n      swap2\n      swap1\n      tag_92\n      jump\t// in\n    tag_91:\n      mload(0x40)\n      dup1\n      swap2\n      sub\n      swap1\n      return\n        /* \"src/LogisticsTracking.sol\":8252:8703  function verifyTemperatureCompliance(uint256 _shipmentId) public view returns (bool) {... */\n    tag_17:\n      tag_93\n      0x04\n      dup1\n      calldatasize\n      sub\n      dup2\n      add\n      swap1\n      tag_94\n      swap2\n      swap1\n      tag_31\n      jump\t// in\n    tag_94:\n      tag_95\n      jump\t// in\n    tag_93:\n      mload(0x40)\n      tag_96\n      swap2\n      swap1\n      tag_97\n      jump\t// in\n    tag_96:\n      mload(0x40)\n      dup1\n      swap2\n      sub\n      swap1\n      return\n        /* \"src/LogisticsTracking.sol\":1768:1817  mapping(uint256 => Checkpoint) public checkpoints */\n    tag_18:\n      tag_98\n      0x04\n      dup1\n      calldatasize\n      sub\n      dup2\n      add\n      swap1\n      tag_99\n      swap2\n      swap1\n      tag_31\n      jump\t// in\n    tag_99:\n      tag_100\n      jump\t// in\n    tag_98:\n      mload(0x40)\n      tag_101\n      swap9\n      swap8\n      swap7\n      swap6\n      swap5\n      swap4\n      swap3\n      swap2\n      swap1\n      tag_102\n      jump\t// in\n    tag_101:\n      mload(0x40)\n      dup1\n      swap2\n      sub\n      swap1\n      return\n        /* \"src/LogisticsTracking.sol\":1597:1630  uint256 public nextShipmentId = 1 */\n    tag_19:\n      tag_103\n      tag_104\n      jump\t// in\n    tag_103:\n      mload(0x40)\n      tag_105\n      swap2\n      swap1\n      tag_38\n      jump\t// in\n    tag_105:\n      mload(0x40)\n      dup1\n      swap2\n      sub\n      swap1\n      return\n        /* \"src/LogisticsTracking.sol\":3169:3473  function registerActor(string memory _name, ActorRole _role, string memory _location) public {... */\n    tag_20:\n      tag_106\n      0x04\n      dup1\n      calldatasize\n      sub\n      dup2\n      add\n      swap1\n      tag_107\n      swap2\n      swap1\n      tag_108\n      jump\t// in\n    tag_107:\n      tag_109\n      jump\t// in\n    tag_106:\n      stop\n        /* \"src/LogisticsTracking.sol\":7084:7581  function reportIncident(uint256 _shipmentId, IncidentType _type, string memory _desc) ... */\n    tag_21:\n      tag_110\n      0x04\n      dup1\n      calldatasize\n      sub\n      dup2\n      add\n      swap1\n      tag_111\n      swap2\n      swap1\n      tag_112\n      jump\t// in\n    tag_111:\n      tag_113\n      jump\t// in\n    tag_110:\n      mload(0x40)\n      tag_114\n      swap2\n      swap1\n      tag_38\n      jump\t// in\n    tag_114:\n      mload(0x40)\n      dup1\n      swap2\n      sub\n      swap1\n      return\n        /* \"src/LogisticsTracking.sol\":1874:1913  mapping(address => Actor) public actors */\n    tag_22:\n      tag_115\n      0x04\n      dup1\n      calldatasize\n      sub\n      dup2\n      add\n      swap1\n      tag_116\n      swap2\n      swap1\n      tag_54\n      jump\t// in\n    tag_116:\n      tag_117\n      jump\t// in\n    tag_115:\n      mload(0x40)\n      tag_118\n      swap6\n      swap5\n      swap4\n      swap3\n      swap2\n      swap1\n      tag_119\n      jump\t// in\n    tag_118:\n      mload(0x40)\n      dup1\n      swap2\n      sub\n      swap1\n      return\n        /* \"src/LogisticsTracking.sol\":1571:1591  address public admin */\n    tag_23:\n      tag_120\n      tag_121\n      jump\t// in\n    tag_120:\n      mload(0x40)\n      tag_122\n      swap2\n      swap1\n      tag_123\n      jump\t// in\n    tag_122:\n      mload(0x40)\n      dup1\n      swap2\n      sub\n      swap1\n      return\n        /* \"src/LogisticsTracking.sol\":3479:3599  function deactivateActor(address _actorAddress) public onlyAdmin {... */\n    tag_24:\n      tag_124\n      0x04\n      dup1\n      calldatasize\n      sub\n      dup2\n      add\n      swap1\n      tag_125\n      swap2\n      swap1\n      tag_54\n      jump\t// in\n    tag_125:\n      tag_126\n      jump\t// in\n    tag_124:\n      stop\n        /* \"src/LogisticsTracking.sol\":4940:5478  function confirmDelivery(uint256 _shipmentId) public shipmentExists(_shipmentId) {... */\n    tag_25:\n      tag_127\n      0x04\n      dup1\n      calldatasize\n      sub\n      dup2\n      add\n      swap1\n      tag_128\n      swap2\n      swap1\n      tag_31\n      jump\t// in\n    tag_128:\n      tag_129\n      jump\t// in\n    tag_127:\n      stop\n        /* \"src/LogisticsTracking.sol\":7779:7889  function getShipment(uint256 _id) public view returns (Shipment memory) {... */\n    tag_32:\n        /* \"src/LogisticsTracking.sol\":7834:7849  Shipment memory */\n      tag_130\n      tag_131\n      jump\t// in\n    tag_130:\n        /* \"src/LogisticsTracking.sol\":7868:7877  shipments */\n      0x04\n        /* \"src/LogisticsTracking.sol\":7868:7882  shipments[_id] */\n      0x00\n        /* \"src/LogisticsTracking.sol\":7878:7881  _id */\n      dup4\n        /* \"src/LogisticsTracking.sol\":7868:7882  shipments[_id] */\n      dup2\n      mstore\n      0x20\n      add\n      swap1\n      dup2\n      mstore\n      0x20\n      add\n      0x00\n      keccak256\n        /* \"src/LogisticsTracking.sol\":7861:7882  return shipments[_id] */\n      mload(0x40)\n      dup1\n      0x0180\n      add\n      0x40\n      mstore\n      swap1\n      dup2\n      0x00\n      dup3\n      add\n      sload\n      dup2\n      mstore\n      0x20\n      add\n      0x01\n      dup3\n      add\n      0x00\n      swap1\n      sload\n      swap1\n      0x0100\n      exp\n      swap1\n      div\n      0xffffffffffffffffffffffffffffffffffffffff\n      and\n      0xffffffffffffffffffffffffffffffffffffffff\n      and\n      0xffffffffffffffffffffffffffffffffffffffff\n      and\n      dup2\n      mstore\n      0x20\n      add\n      0x02\n      dup3\n      add\n      0x00\n      swap1\n      sload\n      swap1\n      0x0100\n      exp\n      swap1\n      div\n      0xffffffffffffffffffffffffffffffffffffffff\n      and\n      0xffffffffffffffffffffffffffffffffffffffff\n      and\n      0xffffffffffffffffffffffffffffffffffffffff\n      and\n      dup2\n      mstore\n      0x20\n      add\n      0x03\n      dup3\n      add\n      dup1\n      sload\n      tag_133\n      swap1\n      tag_134\n      jump\t// in\n    tag_133:\n      dup1\n      0x1f\n      add\n      0x20\n      dup1\n      swap2\n      div\n      mul\n      0x20\n      add\n      mload(0x40)\n      swap1\n      dup2\n      add\n      0x40\n      mstore\n      dup1\n      swap3\n      swap2\n      swap1\n      dup2\n      dup2\n      mstore\n      0x20\n      add\n      dup3\n      dup1\n      sload\n      tag_135\n      swap1\n      tag_134\n      jump\t// in\n    tag_135:\n      dup1\n      iszero\n      tag_136\n      jumpi\n      dup1\n      0x1f\n      lt\n      tag_137\n      jumpi\n      0x0100\n      dup1\n      dup4\n      sload\n      div\n      mul\n      dup4\n      mstore\n      swap2\n      0x20\n      add\n      swap2\n      jump(tag_136)\n    tag_137:\n      dup3\n      add\n      swap2\n      swap1\n      0x00\n      mstore\n      keccak256(0x00, 0x20)\n      swap1\n    tag_138:\n      dup2\n      sload\n      dup2\n      mstore\n      swap1\n      0x01\n      add\n      swap1\n      0x20\n      add\n      dup1\n      dup4\n      gt\n      tag_138\n      jumpi\n      dup3\n      swap1\n      sub\n      0x1f\n      and\n      dup3\n      add\n      swap2\n    tag_136:\n      pop\n      pop\n      pop\n      pop\n      pop\n      dup2\n      mstore\n      0x20\n      add\n      0x04\n      dup3\n      add\n      dup1\n      sload\n      tag_139\n      swap1\n      tag_134\n      jump\t// in\n    tag_139:\n      dup1\n      0x1f\n      add\n      0x20\n      dup1\n      swap2\n      div\n      mul\n      0x20\n      add\n      mload(0x40)\n      swap1\n      dup2\n      add\n      0x40\n      mstore\n      dup1\n      swap3\n      swap2\n      swap1\n      dup2\n      dup2\n      mstore\n      0x20\n      add\n      dup3\n      dup1\n      sload\n      tag_140\n      swap1\n      tag_134\n      jump\t// in\n    tag_140:\n      dup1\n      iszero\n      tag_141\n      jumpi\n      dup1\n      0x1f\n      lt\n      tag_142\n      jumpi\n      0x0100\n      dup1\n      dup4\n      sload\n      div\n      mul\n      dup4\n      mstore\n      swap2\n      0x20\n      add\n      swap2\n      jump(tag_141)\n    tag_142:\n      dup3\n      add\n      swap2\n      swap1\n      0x00\n      mstore\n      keccak256(0x00, 0x20)\n      swap1\n    tag_143:\n      dup2\n      sload\n      dup2\n      mstore\n      swap1\n      0x01\n      add\n      swap1\n      0x20\n      add\n      dup1\n      dup4\n      gt\n      tag_143\n      jumpi\n      dup3\n      swap1\n      sub\n      0x1f\n      and\n      dup3\n      add\n      swap2\n    tag_141:\n      pop\n      pop\n      pop\n      pop\n      pop\n      dup2\n      mstore\n      0x20\n      add\n      0x05\n      dup3\n      add\n      dup1\n      sload\n      tag_144\n      swap1\n      tag_134\n      jump\t// in\n    tag_144:\n      dup1\n      0x1f\n      add\n      0x20\n      dup1\n      swap2\n      div\n      mul\n      0x20\n      add\n      mload(0x40)\n      swap1\n      dup2\n      add\n      0x40\n      mstore\n      dup1\n      swap3\n      swap2\n      swap1\n      dup2\n      dup2\n      mstore\n      0x20\n      add\n      dup3\n      dup1\n      sload\n      tag_145\n      swap1\n      tag_134\n      jump\t// in\n    tag_145:\n      dup1\n      iszero\n      tag_146\n      jumpi\n      dup1\n      0x1f\n      lt\n      tag_147\n      jumpi\n      0x0100\n      dup1\n      dup4\n      sload\n      div\n      mul\n      dup4\n      mstore\n      swap2\n      0x20\n      add\n      swap2\n      jump(tag_146)\n    tag_147:\n      dup3\n      add\n      swap2\n      swap1\n      0x00\n      mstore\n      keccak256(0x00, 0x20)\n      swap1\n    tag_148:\n      dup2\n      sload\n      dup2\n      mstore\n      swap1\n      0x01\n      add\n      swap1\n      0x20\n      add\n      dup1\n      dup4\n      gt\n      tag_148\n      jumpi\n      dup3\n      swap1\n      sub\n      0x1f\n      and\n      dup3\n      add\n      swap2\n    tag_146:\n      pop\n      pop\n      pop\n      pop\n      pop\n      dup2\n      mstore\n      0x20\n      add\n      0x06\n      dup3\n      add\n      sload\n      dup2\n      mstore\n      0x20\n      add\n      0x07\n      dup3\n      add\n      sload\n      dup2\n      mstore\n      0x20\n      add\n      0x08\n      dup3\n      add\n      0x00\n      swap1\n      sload\n      swap1\n      0x0100\n      exp\n      swap1\n      div\n      0xff\n      and\n      0x06\n      dup2\n      gt\n      iszero\n      tag_149\n      jumpi\n      tag_150\n      tag_151\n      jump\t// in\n    tag_150:\n    tag_149:\n      0x06\n      dup2\n      gt\n      iszero\n      tag_152\n      jumpi\n      tag_153\n      tag_151\n      jump\t// in\n    tag_153:\n    tag_152:\n      dup2\n      mstore\n      0x20\n      add\n      0x09\n      dup3\n      add\n      dup1\n      sload\n      dup1\n      0x20\n      mul\n      0x20\n      add\n      mload(0x40)\n      swap1\n      dup2\n      add\n      0x40\n      mstore\n      dup1\n      swap3\n      swap2\n      swap1\n      dup2\n      dup2\n      mstore\n      0x20\n      add\n      dup3\n      dup1\n      sload\n      dup1\n      iszero\n      tag_154\n      jumpi\n      0x20\n      mul\n      dup3\n      add\n      swap2\n      swap1\n      0x00\n      mstore\n      keccak256(0x00, 0x20)\n      swap1\n    tag_155:\n      dup2\n      sload\n      dup2\n      mstore\n      0x20\n      add\n      swap1\n      0x01\n      add\n      swap1\n      dup1\n      dup4\n      gt\n      tag_155\n      jumpi\n    tag_154:\n      pop\n      pop\n      pop\n      pop\n      pop\n      dup2\n      mstore\n      0x20\n      add\n      0x0a\n      dup3\n      add\n      dup1\n      sload\n      dup1\n      0x20\n      mul\n      0x20\n      add\n      mload(0x40)\n      swap1\n      dup2\n      add\n      0x40\n      mstore\n      dup1\n      swap3\n      swap2\n      swap1\n      dup2\n      dup2\n      mstore\n      0x20\n      add\n      dup3\n      dup1\n      sload\n      dup1\n      iszero\n      tag_156\n      jumpi\n      0x20\n      mul\n      dup3\n      add\n      swap2\n      swap1\n      0x00\n      mstore\n      keccak256(0x00, 0x20)\n      swap1\n    tag_157:\n      dup2\n      sload\n      dup2\n      mstore\n      0x20\n      add\n      swap1\n      0x01\n      add\n      swap1\n      dup1\n      dup4\n      gt\n      tag_157\n      jumpi\n    tag_156:\n      pop\n      pop\n      pop\n      pop\n      pop\n      dup2\n      mstore\n      0x20\n      add\n      0x0b\n      dup3\n      add\n      0x00\n      swap1\n      sload\n      swap1\n      0x0100\n      exp\n      swap1\n      div\n      0xff\n      and\n      iszero\n      iszero\n      iszero\n      iszero\n      dup2\n      mstore\n      pop\n      pop\n      swap1\n      pop\n        /* \"src/LogisticsTracking.sol\":7779:7889  function getShipment(uint256 _id) public view returns (Shipment memory) {... */\n      swap2\n      swap1\n      pop\n      jump\t// out\n        /* \"src/LogisticsTracking.sol\":1677:1710  uint256 public nextIncidentId = 1 */\n    tag_36:\n      sload(0x03)\n      dup2\n      jump\t// out\n        /* \"src/LogisticsTracking.sol\":1636:1671  uint256 public nextCheckpointId = 1 */\n    tag_40:\n      sload(0x02)\n      dup2\n      jump\t// out\n        /* \"src/LogisticsTracking.sol\":1717:1762  mapping(uint256 => Shipment) public shipments */\n    tag_44:\n      mstore(0x20, 0x04)\n      dup1\n      0x00\n      mstore\n      keccak256(0x00, 0x40)\n      0x00\n      swap2\n      pop\n      swap1\n      pop\n      dup1\n      0x00\n      add\n      sload\n      swap1\n      dup1\n      0x01\n      add\n      0x00\n      swap1\n      sload\n      swap1\n      0x0100\n      exp\n      swap1\n      div\n      0xffffffffffffffffffffffffffffffffffffffff\n      and\n      swap1\n      dup1\n      0x02\n      add\n      0x00\n      swap1\n      sload\n      swap1\n      0x0100\n      exp\n      swap1\n      div\n      0xffffffffffffffffffffffffffffffffffffffff\n      and\n      swap1\n      dup1\n      0x03\n      add\n      dup1\n      sload\n      tag_158\n      swap1\n      tag_134\n      jump\t// in\n    tag_158:\n      dup1\n      0x1f\n      add\n      0x20\n      dup1\n      swap2\n      div\n      mul\n      0x20\n      add\n      mload(0x40)\n      swap1\n      dup2\n      add\n      0x40\n      mstore\n      dup1\n      swap3\n      swap2\n      swap1\n      dup2\n      dup2\n      mstore\n      0x20\n      add\n      dup3\n      dup1\n      sload\n      tag_159\n      swap1\n      tag_134\n      jump\t// in\n    tag_159:\n      dup1\n      iszero\n      tag_160\n      jumpi\n      dup1\n      0x1f\n      lt\n      tag_161\n      jumpi\n      0x0100\n      dup1\n      dup4\n      sload\n      div\n      mul\n      dup4\n      mstore\n      swap2\n      0x20\n      add\n      swap2\n      jump(tag_160)\n    tag_161:\n      dup3\n      add\n      swap2\n      swap1\n      0x00\n      mstore\n      keccak256(0x00, 0x20)\n      swap1\n    tag_162:\n      dup2\n      sload\n      dup2\n      mstore\n      swap1\n      0x01\n      add\n      swap1\n      0x20\n      add\n      dup1\n      dup4\n      gt\n      tag_162\n      jumpi\n      dup3\n      swap1\n      sub\n      0x1f\n      and\n      dup3\n      add\n      swap2\n    tag_160:\n      pop\n      pop\n      pop\n      pop\n      pop\n      swap1\n      dup1\n      0x04\n      add\n      dup1\n      sload\n      tag_163\n      swap1\n      tag_134\n      jump\t// in\n    tag_163:\n      dup1\n      0x1f\n      add\n      0x20\n      dup1\n      swap2\n      div\n      mul\n      0x20\n      add\n      mload(0x40)\n      swap1\n      dup2\n      add\n      0x40\n      mstore\n      dup1\n      swap3\n      swap2\n      swap1\n      dup2\n      dup2\n      mstore\n      0x20\n      add\n      dup3\n      dup1\n      sload\n      tag_164\n      swap1\n      tag_134\n      jump\t// in\n    tag_164:\n      dup1\n      iszero\n      tag_165\n      jumpi\n      dup1\n      0x1f\n      lt\n      tag_166\n      jumpi\n      0x0100\n      dup1\n      dup4\n      sload\n      div\n      mul\n      dup4\n      mstore\n      swap2\n      0x20\n      add\n      swap2\n      jump(tag_165)\n    tag_166:\n      dup3\n      add\n      swap2\n      swap1\n      0x00\n      mstore\n      keccak256(0x00, 0x20)\n      swap1\n    tag_167:\n      dup2\n      sload\n      dup2\n      mstore\n      swap1\n      0x01\n      add\n      swap1\n      0x20\n      add\n      dup1\n      dup4\n      gt\n      tag_167\n      jumpi\n      dup3\n      swap1\n      sub\n      0x1f\n      and\n      dup3\n      add\n      swap2\n    tag_165:\n      pop\n      pop\n      pop\n      pop\n      pop\n      swap1\n      dup1\n      0x05\n      add\n      dup1\n      sload\n      tag_168\n      swap1\n      tag_134\n      jump\t// in\n    tag_168:\n      dup1\n      0x1f\n      add\n      0x20\n      dup1\n      swap2\n      div\n      mul\n      0x20\n      add\n      mload(0x40)\n      swap1\n      dup2\n      add\n      0x40\n      mstore\n      dup1\n      swap3\n      swap2\n      swap1\n      dup2\n      dup2\n      mstore\n      0x20\n      add\n      dup3\n      dup1\n      sload\n      tag_169\n      swap1\n      tag_134\n      jump\t// in\n    tag_169:\n      dup1\n      iszero\n      tag_170\n      jumpi\n      dup1\n      0x1f\n      lt\n      tag_171\n      jumpi\n      0x0100\n      dup1\n      dup4\n      sload\n      div\n      mul\n      dup4\n      mstore\n      swap2\n      0x20\n      add\n      swap2\n      jump(tag_170)\n    tag_171:\n      dup3\n      add\n      swap2\n      swap1\n      0x00\n      mstore\n      keccak256(0x00, 0x20)\n      swap1\n    tag_172:\n      dup2\n      sload\n      dup2\n      mstore\n      swap1\n      0x01\n      add\n      swap1\n      0x20\n      add\n      dup1\n      dup4\n      gt\n      tag_172\n      jumpi\n      dup3\n      swap1\n      sub\n      0x1f\n      and\n      dup3\n      add\n      swap2\n    tag_170:\n      pop\n      pop\n      pop\n      pop\n      pop\n      swap1\n      dup1\n      0x06\n      add\n      sload\n      swap1\n      dup1\n      0x07\n      add\n      sload\n      swap1\n      dup1\n      0x08\n      add\n      0x00\n      swap1\n      sload\n      swap1\n      0x0100\n      exp\n      swap1\n      div\n      0xff\n      and\n      swap1\n      dup1\n      0x0b\n      add\n      0x00\n      swap1\n      sload\n      swap1\n      0x0100\n      exp\n      swap1\n      div\n      0xff\n      and\n      swap1\n      pop\n      dup11\n      jump\t// out\n        /* \"src/LogisticsTracking.sol\":5960:7038  function recordCheckpoint(... */\n    tag_50:\n        /* \"src/LogisticsTracking.sol\":6216:6223  uint256 */\n      0x00\n        /* \"src/LogisticsTracking.sol\":2852:2858  actors */\n      0x07\n        /* \"src/LogisticsTracking.sol\":2852:2870  actors[msg.sender] */\n      0x00\n        /* \"src/LogisticsTracking.sol\":2859:2869  msg.sender */\n      caller\n        /* \"src/LogisticsTracking.sol\":2852:2870  actors[msg.sender] */\n      0xffffffffffffffffffffffffffffffffffffffff\n      and\n      0xffffffffffffffffffffffffffffffffffffffff\n      and\n      dup2\n      mstore\n      0x20\n      add\n      swap1\n      dup2\n      mstore\n      0x20\n      add\n      0x00\n      keccak256\n        /* \"src/LogisticsTracking.sol\":2852:2879  actors[msg.sender].isActive */\n      0x04\n      add\n      0x00\n      swap1\n      sload\n      swap1\n      0x0100\n      exp\n      swap1\n      div\n      0xff\n      and\n        /* \"src/LogisticsTracking.sol\":2844:2916  require(actors[msg.sender].isActive, \"Actor not registered or inactive\") */\n      tag_174\n      jumpi\n      mload(0x40)\n      0x08c379a000000000000000000000000000000000000000000000000000000000\n      dup2\n      mstore\n      0x04\n      add\n      tag_175\n      swap1\n      tag_176\n      jump\t// in\n    tag_175:\n      mload(0x40)\n      dup1\n      swap2\n      sub\n      swap1\n      revert\n    tag_174:\n        /* \"src/LogisticsTracking.sol\":6194:6205  _shipmentId */\n      dup6\n        /* \"src/LogisticsTracking.sol\":3001:3002  0 */\n      0x00\n        /* \"src/LogisticsTracking.sol\":2995:2998  _id */\n      dup2\n        /* \"src/LogisticsTracking.sol\":2995:3002  _id > 0 */\n      gt\n        /* \"src/LogisticsTracking.sol\":2995:3026  _id > 0 && _id < nextShipmentId */\n      dup1\n      iszero\n      tag_178\n      jumpi\n      pop\n        /* \"src/LogisticsTracking.sol\":3012:3026  nextShipmentId */\n      sload(0x01)\n        /* \"src/LogisticsTracking.sol\":3006:3009  _id */\n      dup2\n        /* \"src/LogisticsTracking.sol\":3006:3026  _id < nextShipmentId */\n      lt\n        /* \"src/LogisticsTracking.sol\":2995:3026  _id > 0 && _id < nextShipmentId */\n    tag_178:\n        /* \"src/LogisticsTracking.sol\":2987:3054  require(_id > 0 && _id < nextShipmentId, \"Shipment does not exist\") */\n      tag_179\n      jumpi\n      mload(0x40)\n      0x08c379a000000000000000000000000000000000000000000000000000000000\n      dup2\n      mstore\n      0x04\n      add\n      tag_180\n      swap1\n      tag_181\n      jump\t// in\n    tag_180:\n      mload(0x40)\n      dup1\n      swap2\n      sub\n      swap1\n      revert\n    tag_179:\n        /* \"src/LogisticsTracking.sol\":6235:6247  uint256 cpId */\n      0x00\n        /* \"src/LogisticsTracking.sol\":6250:6266  nextCheckpointId */\n      0x02\n      0x00\n        /* \"src/LogisticsTracking.sol\":6250:6268  nextCheckpointId++ */\n      dup2\n      sload\n      dup1\n      swap3\n      swap2\n      swap1\n      tag_183\n      swap1\n      tag_184\n      jump\t// in\n    tag_183:\n      swap2\n      swap1\n      pop\n      sstore\n        /* \"src/LogisticsTracking.sol\":6235:6268  uint256 cpId = nextCheckpointId++ */\n      swap1\n      pop\n        /* \"src/LogisticsTracking.sol\":6307:6603  Checkpoint({... */\n      mload(0x40)\n      dup1\n      0x0100\n      add\n      0x40\n      mstore\n      dup1\n        /* \"src/LogisticsTracking.sol\":6336:6340  cpId */\n      dup3\n        /* \"src/LogisticsTracking.sol\":6307:6603  Checkpoint({... */\n      dup2\n      mstore\n      0x20\n      add\n        /* \"src/LogisticsTracking.sol\":6366:6377  _shipmentId */\n      dup10\n        /* \"src/LogisticsTracking.sol\":6307:6603  Checkpoint({... */\n      dup2\n      mstore\n      0x20\n      add\n        /* \"src/LogisticsTracking.sol\":6398:6408  msg.sender */\n      caller\n        /* \"src/LogisticsTracking.sol\":6307:6603  Checkpoint({... */\n      0xffffffffffffffffffffffffffffffffffffffff\n      and\n      dup2\n      mstore\n      0x20\n      add\n        /* \"src/LogisticsTracking.sol\":6432:6441  _location */\n      dup9\n        /* \"src/LogisticsTracking.sol\":6307:6603  Checkpoint({... */\n      dup2\n      mstore\n      0x20\n      add\n        /* \"src/LogisticsTracking.sol\":6471:6486  _checkpointType */\n      dup8\n        /* \"src/LogisticsTracking.sol\":6307:6603  Checkpoint({... */\n      dup2\n      mstore\n      0x20\n      add\n        /* \"src/LogisticsTracking.sol\":6511:6526  block.timestamp */\n      timestamp\n        /* \"src/LogisticsTracking.sol\":6307:6603  Checkpoint({... */\n      dup2\n      mstore\n      0x20\n      add\n        /* \"src/LogisticsTracking.sol\":6547:6553  _notes */\n      dup7\n        /* \"src/LogisticsTracking.sol\":6307:6603  Checkpoint({... */\n      dup2\n      mstore\n      0x20\n      add\n        /* \"src/LogisticsTracking.sol\":6580:6592  _temperature */\n      dup6\n        /* \"src/LogisticsTracking.sol\":6307:6603  Checkpoint({... */\n      dup2\n      mstore\n      pop\n        /* \"src/LogisticsTracking.sol\":6287:6298  checkpoints */\n      0x05\n        /* \"src/LogisticsTracking.sol\":6287:6304  checkpoints[cpId] */\n      0x00\n        /* \"src/LogisticsTracking.sol\":6299:6303  cpId */\n      dup4\n        /* \"src/LogisticsTracking.sol\":6287:6304  checkpoints[cpId] */\n      dup2\n      mstore\n      0x20\n      add\n      swap1\n      dup2\n      mstore\n      0x20\n      add\n      0x00\n      keccak256\n        /* \"src/LogisticsTracking.sol\":6287:6603  checkpoints[cpId] = Checkpoint({... */\n      0x00\n      dup3\n      add\n      mload\n      dup2\n      0x00\n      add\n      sstore\n      0x20\n      dup3\n      add\n      mload\n      dup2\n      0x01\n      add\n      sstore\n      0x40\n      dup3\n      add\n      mload\n      dup2\n      0x02\n      add\n      exp(0x0100, 0x00)\n      dup2\n      sload\n      dup2\n      0xffffffffffffffffffffffffffffffffffffffff\n      mul\n      not\n      and\n      swap1\n      dup4\n      0xffffffffffffffffffffffffffffffffffffffff\n      and\n      mul\n      or\n      swap1\n      sstore\n      pop\n      0x60\n      dup3\n      add\n      mload\n      dup2\n      0x03\n      add\n      swap1\n      dup2\n      tag_185\n      swap2\n      swap1\n      tag_186\n      jump\t// in\n    tag_185:\n      pop\n      0x80\n      dup3\n      add\n      mload\n      dup2\n      0x04\n      add\n      swap1\n      dup2\n      tag_187\n      swap2\n      swap1\n      tag_186\n      jump\t// in\n    tag_187:\n      pop\n      0xa0\n      dup3\n      add\n      mload\n      dup2\n      0x05\n      add\n      sstore\n      0xc0\n      dup3\n      add\n      mload\n      dup2\n      0x06\n      add\n      swap1\n      dup2\n      tag_188\n      swap2\n      swap1\n      tag_186\n      jump\t// in\n    tag_188:\n      pop\n      0xe0\n      dup3\n      add\n      mload\n      dup2\n      0x07\n      add\n      sstore\n      swap1\n      pop\n      pop\n        /* \"src/LogisticsTracking.sol\":6614:6623  shipments */\n      0x04\n        /* \"src/LogisticsTracking.sol\":6614:6636  shipments[_shipmentId] */\n      0x00\n        /* \"src/LogisticsTracking.sol\":6624:6635  _shipmentId */\n      dup10\n        /* \"src/LogisticsTracking.sol\":6614:6636  shipments[_shipmentId] */\n      dup2\n      mstore\n      0x20\n      add\n      swap1\n      dup2\n      mstore\n      0x20\n      add\n      0x00\n      keccak256\n        /* \"src/LogisticsTracking.sol\":6614:6650  shipments[_shipmentId].checkpointIds */\n      0x09\n      add\n        /* \"src/LogisticsTracking.sol\":6656:6660  cpId */\n      dup2\n        /* \"src/LogisticsTracking.sol\":6614:6661  shipments[_shipmentId].checkpointIds.push(cpId) */\n      swap1\n      dup1\n      0x01\n      dup2\n      sload\n      add\n      dup1\n      dup3\n      sstore\n      dup1\n      swap2\n      pop\n      pop\n      0x01\n      swap1\n      sub\n      swap1\n      0x00\n      mstore\n      keccak256(0x00, 0x20)\n      add\n      0x00\n      swap1\n      swap2\n      swap1\n      swap2\n      swap1\n      swap2\n      pop\n      sstore\n        /* \"src/LogisticsTracking.sol\":6741:6750  shipments */\n      0x04\n        /* \"src/LogisticsTracking.sol\":6741:6763  shipments[_shipmentId] */\n      0x00\n        /* \"src/LogisticsTracking.sol\":6751:6762  _shipmentId */\n      dup10\n        /* \"src/LogisticsTracking.sol\":6741:6763  shipments[_shipmentId] */\n      dup2\n      mstore\n      0x20\n      add\n      swap1\n      dup2\n      mstore\n      0x20\n      add\n      0x00\n      keccak256\n        /* \"src/LogisticsTracking.sol\":6741:6781  shipments[_shipmentId].requiresColdChain */\n      0x0b\n      add\n      0x00\n      swap1\n      sload\n      swap1\n      0x0100\n      exp\n      swap1\n      div\n      0xff\n      and\n        /* \"src/LogisticsTracking.sol\":6741:6825  shipments[_shipmentId].requiresColdChain && (_temperature > 80 || _temperature < 20) */\n      dup1\n      iszero\n      tag_190\n      jumpi\n      pop\n        /* \"src/LogisticsTracking.sol\":6801:6803  80 */\n      0x50\n        /* \"src/LogisticsTracking.sol\":6786:6798  _temperature */\n      dup5\n        /* \"src/LogisticsTracking.sol\":6786:6803  _temperature > 80 */\n      sgt\n        /* \"src/LogisticsTracking.sol\":6786:6824  _temperature > 80 || _temperature < 20 */\n      dup1\n      tag_191\n      jumpi\n      pop\n        /* \"src/LogisticsTracking.sol\":6822:6824  20 */\n      0x14\n        /* \"src/LogisticsTracking.sol\":6807:6819  _temperature */\n      dup5\n        /* \"src/LogisticsTracking.sol\":6807:6824  _temperature < 20 */\n      slt\n        /* \"src/LogisticsTracking.sol\":6786:6824  _temperature > 80 || _temperature < 20 */\n    tag_191:\n        /* \"src/LogisticsTracking.sol\":6741:6825  shipments[_shipmentId].requiresColdChain && (_temperature > 80 || _temperature < 20) */\n    tag_190:\n        /* \"src/LogisticsTracking.sol\":6737:6935  if (shipments[_shipmentId].requiresColdChain && (_temperature > 80 || _temperature < 20)) {... */\n      iszero\n      tag_192\n      jumpi\n        /* \"src/LogisticsTracking.sol\":6841:6924  reportIncident(_shipmentId, IncidentType.TempViolation, \"Temperature out of range\") */\n      tag_193\n        /* \"src/LogisticsTracking.sol\":6856:6867  _shipmentId */\n      dup9\n        /* \"src/LogisticsTracking.sol\":6869:6895  IncidentType.TempViolation */\n      0x03\n        /* \"src/LogisticsTracking.sol\":6841:6924  reportIncident(_shipmentId, IncidentType.TempViolation, \"Temperature out of range\") */\n      mload(0x40)\n      dup1\n      0x40\n      add\n      0x40\n      mstore\n      dup1\n      0x18\n      dup2\n      mstore\n      0x20\n      add\n      0x54656d7065726174757265206f7574206f662072616e67650000000000000000\n      dup2\n      mstore\n      pop\n        /* \"src/LogisticsTracking.sol\":6841:6855  reportIncident */\n      tag_113\n        /* \"src/LogisticsTracking.sol\":6841:6924  reportIncident(_shipmentId, IncidentType.TempViolation, \"Temperature out of range\") */\n      jump\t// in\n    tag_193:\n      pop\n        /* \"src/LogisticsTracking.sol\":6737:6935  if (shipments[_shipmentId].requiresColdChain && (_temperature > 80 || _temperature < 20)) {... */\n    tag_192:\n        /* \"src/LogisticsTracking.sol\":6975:6986  _shipmentId */\n      dup8\n        /* \"src/LogisticsTracking.sol\":6969:6973  cpId */\n      dup2\n        /* \"src/LogisticsTracking.sol\":6950:7010  CheckpointRecorded(cpId, _shipmentId, _location, msg.sender) */\n      0x866de744a1d30941b1bccb4355cfb9dacfa65296f3ab651a0d4dce76bf988a71\n        /* \"src/LogisticsTracking.sol\":6988:6997  _location */\n      dup10\n        /* \"src/LogisticsTracking.sol\":6999:7009  msg.sender */\n      caller\n        /* \"src/LogisticsTracking.sol\":6950:7010  CheckpointRecorded(cpId, _shipmentId, _location, msg.sender) */\n      mload(0x40)\n      tag_194\n      swap3\n      swap2\n      swap1\n      tag_195\n      jump\t// in\n    tag_194:\n      mload(0x40)\n      dup1\n      swap2\n      sub\n      swap1\n      log3\n        /* \"src/LogisticsTracking.sol\":7027:7031  cpId */\n      dup1\n        /* \"src/LogisticsTracking.sol\":7020:7031  return cpId */\n      swap3\n      pop\n      pop\n        /* \"src/LogisticsTracking.sol\":2926:2927  _ */\n      pop\n        /* \"src/LogisticsTracking.sol\":5960:7038  function recordCheckpoint(... */\n      swap6\n      swap5\n      pop\n      pop\n      pop\n      pop\n      pop\n      jump\t// out\n        /* \"src/LogisticsTracking.sol\":3605:3726  function getActor(address _actorAddress) public view returns (Actor memory) {... */\n    tag_55:\n        /* \"src/LogisticsTracking.sol\":3667:3679  Actor memory */\n      tag_196\n      tag_197\n      jump\t// in\n    tag_196:\n        /* \"src/LogisticsTracking.sol\":3698:3704  actors */\n      0x07\n        /* \"src/LogisticsTracking.sol\":3698:3719  actors[_actorAddress] */\n      0x00\n        /* \"src/LogisticsTracking.sol\":3705:3718  _actorAddress */\n      dup4\n        /* \"src/LogisticsTracking.sol\":3698:3719  actors[_actorAddress] */\n      0xffffffffffffffffffffffffffffffffffffffff\n      and\n      0xffffffffffffffffffffffffffffffffffffffff\n      and\n      dup2\n      mstore\n      0x20\n      add\n      swap1\n      dup2\n      mstore\n      0x20\n      add\n      0x00\n      keccak256\n        /* \"src/LogisticsTracking.sol\":3691:3719  return actors[_actorAddress] */\n      mload(0x40)\n      dup1\n      0xa0\n      add\n      0x40\n      mstore\n      swap1\n      dup2\n      0x00\n      dup3\n      add\n      0x00\n      swap1\n      sload\n      swap1\n      0x0100\n      exp\n      swap1\n      div\n      0xffffffffffffffffffffffffffffffffffffffff\n      and\n      0xffffffffffffffffffffffffffffffffffffffff\n      and\n      0xffffffffffffffffffffffffffffffffffffffff\n      and\n      dup2\n      mstore\n      0x20\n      add\n      0x01\n      dup3\n      add\n      dup1\n      sload\n      tag_199\n      swap1\n      tag_134\n      jump\t// in\n    tag_199:\n      dup1\n      0x1f\n      add\n      0x20\n      dup1\n      swap2\n      div\n      mul\n      0x20\n      add\n      mload(0x40)\n      swap1\n      dup2\n      add\n      0x40\n      mstore\n      dup1\n      swap3\n      swap2\n      swap1\n      dup2\n      dup2\n      mstore\n      0x20\n      add\n      dup3\n      dup1\n      sload\n      tag_200\n      swap1\n      tag_134\n      jump\t// in\n    tag_200:\n      dup1\n      iszero\n      tag_201\n      jumpi\n      dup1\n      0x1f\n      lt\n      tag_202\n      jumpi\n      0x0100\n      dup1\n      dup4\n      sload\n      div\n      mul\n      dup4\n      mstore\n      swap2\n      0x20\n      add\n      swap2\n      jump(tag_201)\n    tag_202:\n      dup3\n      add\n      swap2\n      swap1\n      0x00\n      mstore\n      keccak256(0x00, 0x20)\n      swap1\n    tag_203:\n      dup2\n      sload\n      dup2\n      mstore\n      swap1\n      0x01\n      add\n      swap1\n      0x20\n      add\n      dup1\n      dup4\n      gt\n      tag_203\n      jumpi\n      dup3\n      swap1\n      sub\n      0x1f\n      and\n      dup3\n      add\n      swap2\n    tag_201:\n      pop\n      pop\n      pop\n      pop\n      pop\n      dup2\n      mstore\n      0x20\n      add\n      0x02\n      dup3\n      add\n      0x00\n      swap1\n      sload\n      swap1\n      0x0100\n      exp\n      swap1\n      div\n      0xff\n      and\n      0x05\n      dup2\n      gt\n      iszero\n      tag_204\n      jumpi\n      tag_205\n      tag_151\n      jump\t// in\n    tag_205:\n    tag_204:\n      0x05\n      dup2\n      gt\n      iszero\n      tag_206\n      jumpi\n      tag_207\n      tag_151\n      jump\t// in\n    tag_207:\n    tag_206:\n      dup2\n      mstore\n      0x20\n      add\n      0x03\n      dup3\n      add\n      dup1\n      sload\n      tag_208\n      swap1\n      tag_134\n      jump\t// in\n    tag_208:\n      dup1\n      0x1f\n      add\n      0x20\n      dup1\n      swap2\n      div\n      mul\n      0x20\n      add\n      mload(0x40)\n      swap1\n      dup2\n      add\n      0x40\n      mstore\n      dup1\n      swap3\n      swap2\n      swap1\n      dup2\n      dup2\n      mstore\n      0x20\n      add\n      dup3\n      dup1\n      sload\n      tag_209\n      swap1\n      tag_134\n      jump\t// in\n    tag_209:\n      dup1\n      iszero\n      tag_210\n      jumpi\n      dup1\n      0x1f\n      lt\n      tag_211\n      jumpi\n      0x0100\n      dup1\n      dup4\n      sload\n      div\n      mul\n      dup4\n      mstore\n      swap2\n      0x20\n      add\n      swap2\n      jump(tag_210)\n    tag_211:\n      dup3\n      add\n      swap2\n      swap1\n      0x00\n      mstore\n      keccak256(0x00, 0x20)\n      swap1\n    tag_212:\n      dup2\n      sload\n      dup2\n      mstore\n      swap1\n      0x01\n      add\n      swap1\n      0x20\n      add\n      dup1\n      dup4\n      gt\n      tag_212\n      jumpi\n      dup3\n      swap1\n      sub\n      0x1f\n      and\n      dup3\n      add\n      swap2\n    tag_210:\n      pop\n      pop\n      pop\n      pop\n      pop\n      dup2\n      mstore\n      0x20\n      add\n      0x04\n      dup3\n      add\n      0x00\n      swap1\n      sload\n      swap1\n      0x0100\n      exp\n      swap1\n      div\n      0xff\n      and\n      iszero\n      iszero\n      iszero\n      iszero\n      dup2\n      mstore\n      pop\n      pop\n      swap1\n      pop\n        /* \"src/LogisticsTracking.sol\":3605:3726  function getActor(address _actorAddress) public view returns (Actor memory) {... */\n      swap2\n      swap1\n      pop\n      jump\t// out\n        /* \"src/LogisticsTracking.sol\":3768:4647  function createShipment(... */\n    tag_61:\n        /* \"src/LogisticsTracking.sol\":3994:4001  uint256 */\n      0x00\n        /* \"src/LogisticsTracking.sol\":2852:2858  actors */\n      0x07\n        /* \"src/LogisticsTracking.sol\":2852:2870  actors[msg.sender] */\n      0x00\n        /* \"src/LogisticsTracking.sol\":2859:2869  msg.sender */\n      caller\n        /* \"src/LogisticsTracking.sol\":2852:2870  actors[msg.sender] */\n      0xffffffffffffffffffffffffffffffffffffffff\n      and\n      0xffffffffffffffffffffffffffffffffffffffff\n      and\n      dup2\n      mstore\n      0x20\n      add\n      swap1\n      dup2\n      mstore\n      0x20\n      add\n      0x00\n      keccak256\n        /* \"src/LogisticsTracking.sol\":2852:2879  actors[msg.sender].isActive */\n      0x04\n      add\n      0x00\n      swap1\n      sload\n      swap1\n      0x0100\n      exp\n      swap1\n      div\n      0xff\n      and\n        /* \"src/LogisticsTracking.sol\":2844:2916  require(actors[msg.sender].isActive, \"Actor not registered or inactive\") */\n      tag_214\n      jumpi\n      mload(0x40)\n      0x08c379a000000000000000000000000000000000000000000000000000000000\n      dup2\n      mstore\n      0x04\n      add\n      tag_215\n      swap1\n      tag_176\n      jump\t// in\n    tag_215:\n      mload(0x40)\n      dup1\n      swap2\n      sub\n      swap1\n      revert\n    tag_214:\n        /* \"src/LogisticsTracking.sol\":4048:4064  ActorRole.Sender */\n      0x01\n        /* \"src/LogisticsTracking.sol\":4021:4064  actors[msg.sender].role == ActorRole.Sender */\n      0x05\n      dup2\n      gt\n      iszero\n      tag_217\n      jumpi\n      tag_218\n      tag_151\n      jump\t// in\n    tag_218:\n    tag_217:\n        /* \"src/LogisticsTracking.sol\":4021:4027  actors */\n      0x07\n        /* \"src/LogisticsTracking.sol\":4021:4039  actors[msg.sender] */\n      0x00\n        /* \"src/LogisticsTracking.sol\":4028:4038  msg.sender */\n      caller\n        /* \"src/LogisticsTracking.sol\":4021:4039  actors[msg.sender] */\n      0xffffffffffffffffffffffffffffffffffffffff\n      and\n      0xffffffffffffffffffffffffffffffffffffffff\n      and\n      dup2\n      mstore\n      0x20\n      add\n      swap1\n      dup2\n      mstore\n      0x20\n      add\n      0x00\n      keccak256\n        /* \"src/LogisticsTracking.sol\":4021:4044  actors[msg.sender].role */\n      0x02\n      add\n      0x00\n      swap1\n      sload\n      swap1\n      0x0100\n      exp\n      swap1\n      div\n      0xff\n      and\n        /* \"src/LogisticsTracking.sol\":4021:4064  actors[msg.sender].role == ActorRole.Sender */\n      0x05\n      dup2\n      gt\n      iszero\n      tag_219\n      jumpi\n      tag_220\n      tag_151\n      jump\t// in\n    tag_220:\n    tag_219:\n      eq\n        /* \"src/LogisticsTracking.sol\":4013:4092  require(actors[msg.sender].role == ActorRole.Sender, \"Only Senders can create\") */\n      tag_221\n      jumpi\n      mload(0x40)\n      0x08c379a000000000000000000000000000000000000000000000000000000000\n      dup2\n      mstore\n      0x04\n      add\n      tag_222\n      swap1\n      tag_223\n      jump\t// in\n    tag_222:\n      mload(0x40)\n      dup1\n      swap2\n      sub\n      swap1\n      revert\n    tag_221:\n        /* \"src/LogisticsTracking.sol\":4111:4121  uint256 id */\n      0x00\n        /* \"src/LogisticsTracking.sol\":4124:4138  nextShipmentId */\n      0x01\n      0x00\n        /* \"src/LogisticsTracking.sol\":4124:4140  nextShipmentId++ */\n      dup2\n      sload\n      dup1\n      swap3\n      swap2\n      swap1\n      tag_224\n      swap1\n      tag_184\n      jump\t// in\n    tag_224:\n      swap2\n      swap1\n      pop\n      sstore\n        /* \"src/LogisticsTracking.sol\":4111:4140  uint256 id = nextShipmentId++ */\n      swap1\n      pop\n        /* \"src/LogisticsTracking.sol\":4150:4168  Shipment storage s */\n      0x00\n        /* \"src/LogisticsTracking.sol\":4171:4180  shipments */\n      0x04\n        /* \"src/LogisticsTracking.sol\":4171:4184  shipments[id] */\n      0x00\n        /* \"src/LogisticsTracking.sol\":4181:4183  id */\n      dup4\n        /* \"src/LogisticsTracking.sol\":4171:4184  shipments[id] */\n      dup2\n      mstore\n      0x20\n      add\n      swap1\n      dup2\n      mstore\n      0x20\n      add\n      0x00\n      keccak256\n        /* \"src/LogisticsTracking.sol\":4150:4184  Shipment storage s = shipments[id] */\n      swap1\n      pop\n        /* \"src/LogisticsTracking.sol\":4201:4203  id */\n      dup2\n        /* \"src/LogisticsTracking.sol\":4194:4195  s */\n      dup2\n        /* \"src/LogisticsTracking.sol\":4194:4198  s.id */\n      0x00\n      add\n        /* \"src/LogisticsTracking.sol\":4194:4203  s.id = id */\n      dup2\n      swap1\n      sstore\n      pop\n        /* \"src/LogisticsTracking.sol\":4224:4234  msg.sender */\n      caller\n        /* \"src/LogisticsTracking.sol\":4213:4214  s */\n      dup2\n        /* \"src/LogisticsTracking.sol\":4213:4221  s.sender */\n      0x01\n      add\n      0x00\n        /* \"src/LogisticsTracking.sol\":4213:4234  s.sender = msg.sender */\n      0x0100\n      exp\n      dup2\n      sload\n      dup2\n      0xffffffffffffffffffffffffffffffffffffffff\n      mul\n      not\n      and\n      swap1\n      dup4\n      0xffffffffffffffffffffffffffffffffffffffff\n      and\n      mul\n      or\n      swap1\n      sstore\n      pop\n        /* \"src/LogisticsTracking.sol\":4258:4268  _recipient */\n      dup8\n        /* \"src/LogisticsTracking.sol\":4244:4245  s */\n      dup2\n        /* \"src/LogisticsTracking.sol\":4244:4255  s.recipient */\n      0x02\n      add\n      0x00\n        /* \"src/LogisticsTracking.sol\":4244:4268  s.recipient = _recipient */\n      0x0100\n      exp\n      dup2\n      sload\n      dup2\n      0xffffffffffffffffffffffffffffffffffffffff\n      mul\n      not\n      and\n      swap1\n      dup4\n      0xffffffffffffffffffffffffffffffffffffffff\n      and\n      mul\n      or\n      swap1\n      sstore\n      pop\n        /* \"src/LogisticsTracking.sol\":4290:4298  _product */\n      dup7\n        /* \"src/LogisticsTracking.sol\":4278:4279  s */\n      dup2\n        /* \"src/LogisticsTracking.sol\":4278:4287  s.product */\n      0x03\n      add\n        /* \"src/LogisticsTracking.sol\":4278:4298  s.product = _product */\n      swap1\n      dup2\n      tag_225\n      swap2\n      swap1\n      tag_186\n      jump\t// in\n    tag_225:\n      pop\n        /* \"src/LogisticsTracking.sol\":4319:4326  _origin */\n      dup6\n        /* \"src/LogisticsTracking.sol\":4308:4309  s */\n      dup2\n        /* \"src/LogisticsTracking.sol\":4308:4316  s.origin */\n      0x04\n      add\n        /* \"src/LogisticsTracking.sol\":4308:4326  s.origin = _origin */\n      swap1\n      dup2\n      tag_226\n      swap2\n      swap1\n      tag_186\n      jump\t// in\n    tag_226:\n      pop\n        /* \"src/LogisticsTracking.sol\":4352:4364  _destination */\n      dup5\n        /* \"src/LogisticsTracking.sol\":4336:4337  s */\n      dup2\n        /* \"src/LogisticsTracking.sol\":4336:4349  s.destination */\n      0x05\n      add\n        /* \"src/LogisticsTracking.sol\":4336:4364  s.destination = _destination */\n      swap1\n      dup2\n      tag_227\n      swap2\n      swap1\n      tag_186\n      jump\t// in\n    tag_227:\n      pop\n        /* \"src/LogisticsTracking.sol\":4390:4405  block.timestamp */\n      timestamp\n        /* \"src/LogisticsTracking.sol\":4374:4375  s */\n      dup2\n        /* \"src/LogisticsTracking.sol\":4374:4387  s.dateCreated */\n      0x06\n      add\n        /* \"src/LogisticsTracking.sol\":4374:4405  s.dateCreated = block.timestamp */\n      dup2\n      swap1\n      sstore\n      pop\n        /* \"src/LogisticsTracking.sol\":4426:4448  ShipmentStatus.Created */\n      0x00\n        /* \"src/LogisticsTracking.sol\":4415:4416  s */\n      dup2\n        /* \"src/LogisticsTracking.sol\":4415:4423  s.status */\n      0x08\n      add\n      0x00\n        /* \"src/LogisticsTracking.sol\":4415:4448  s.status = ShipmentStatus.Created */\n      0x0100\n      exp\n      dup2\n      sload\n      dup2\n      0xff\n      mul\n      not\n      and\n      swap1\n      dup4\n      0x06\n      dup2\n      gt\n      iszero\n      tag_228\n      jumpi\n      tag_229\n      tag_151\n      jump\t// in\n    tag_229:\n    tag_228:\n      mul\n      or\n      swap1\n      sstore\n      pop\n        /* \"src/LogisticsTracking.sol\":4480:4498  _requiresColdChain */\n      dup4\n        /* \"src/LogisticsTracking.sol\":4458:4459  s */\n      dup2\n        /* \"src/LogisticsTracking.sol\":4458:4477  s.requiresColdChain */\n      0x0b\n      add\n      0x00\n        /* \"src/LogisticsTracking.sol\":4458:4498  s.requiresColdChain = _requiresColdChain */\n      0x0100\n      exp\n      dup2\n      sload\n      dup2\n      0xff\n      mul\n      not\n      and\n      swap1\n      dup4\n      iszero\n      iszero\n      mul\n      or\n      swap1\n      sstore\n      pop\n        /* \"src/LogisticsTracking.sol\":4509:4523  actorShipments */\n      0x08\n        /* \"src/LogisticsTracking.sol\":4509:4535  actorShipments[msg.sender] */\n      0x00\n        /* \"src/LogisticsTracking.sol\":4524:4534  msg.sender */\n      caller\n        /* \"src/LogisticsTracking.sol\":4509:4535  actorShipments[msg.sender] */\n      0xffffffffffffffffffffffffffffffffffffffff\n      and\n      0xffffffffffffffffffffffffffffffffffffffff\n      and\n      dup2\n      mstore\n      0x20\n      add\n      swap1\n      dup2\n      mstore\n      0x20\n      add\n      0x00\n      keccak256\n        /* \"src/LogisticsTracking.sol\":4541:4543  id */\n      dup3\n        /* \"src/LogisticsTracking.sol\":4509:4544  actorShipments[msg.sender].push(id) */\n      swap1\n      dup1\n      0x01\n      dup2\n      sload\n      add\n      dup1\n      dup3\n      sstore\n      dup1\n      swap2\n      pop\n      pop\n      0x01\n      swap1\n      sub\n      swap1\n      0x00\n      mstore\n      keccak256(0x00, 0x20)\n      add\n      0x00\n      swap1\n      swap2\n      swap1\n      swap2\n      swap1\n      swap2\n      pop\n      sstore\n        /* \"src/LogisticsTracking.sol\":4600:4610  _recipient */\n      dup8\n        /* \"src/LogisticsTracking.sol\":4568:4621  ShipmentCreated(id, msg.sender, _recipient, _product) */\n      0xffffffffffffffffffffffffffffffffffffffff\n      and\n        /* \"src/LogisticsTracking.sol\":4588:4598  msg.sender */\n      caller\n        /* \"src/LogisticsTracking.sol\":4568:4621  ShipmentCreated(id, msg.sender, _recipient, _product) */\n      0xffffffffffffffffffffffffffffffffffffffff\n      and\n        /* \"src/LogisticsTracking.sol\":4584:4586  id */\n      dup4\n        /* \"src/LogisticsTracking.sol\":4568:4621  ShipmentCreated(id, msg.sender, _recipient, _product) */\n      0x8fb6b855d6cbdf201f2fcaadbf8c38d36168ff7d2ca865cb2599abcd5a060e8f\n        /* \"src/LogisticsTracking.sol\":4612:4620  _product */\n      dup11\n        /* \"src/LogisticsTracking.sol\":4568:4621  ShipmentCreated(id, msg.sender, _recipient, _product) */\n      mload(0x40)\n      tag_231\n      swap2\n      swap1\n      tag_232\n      jump\t// in\n    tag_231:\n      mload(0x40)\n      dup1\n      swap2\n      sub\n      swap1\n      log4\n        /* \"src/LogisticsTracking.sol\":4638:4640  id */\n      dup2\n        /* \"src/LogisticsTracking.sol\":4631:4640  return id */\n      swap3\n      pop\n      pop\n      pop\n        /* \"src/LogisticsTracking.sol\":3768:4647  function createShipment(... */\n      swap6\n      swap5\n      pop\n      pop\n      pop\n      pop\n      pop\n      jump\t// out\n        /* \"src/LogisticsTracking.sol\":7587:7749  function resolveIncident(uint256 _incidentId) public onlyAdmin {... */\n    tag_65:\n        /* \"src/LogisticsTracking.sol\":2763:2768  admin */\n      0x00\n      0x00\n      swap1\n      sload\n      swap1\n      0x0100\n      exp\n      swap1\n      div\n      0xffffffffffffffffffffffffffffffffffffffff\n      and\n        /* \"src/LogisticsTracking.sol\":2749:2768  msg.sender == admin */\n      0xffffffffffffffffffffffffffffffffffffffff\n      and\n        /* \"src/LogisticsTracking.sol\":2749:2759  msg.sender */\n      caller\n        /* \"src/LogisticsTracking.sol\":2749:2768  msg.sender == admin */\n      0xffffffffffffffffffffffffffffffffffffffff\n      and\n      eq\n        /* \"src/LogisticsTracking.sol\":2741:2783  require(msg.sender == admin, \"Only admin\") */\n      tag_234\n      jumpi\n      mload(0x40)\n      0x08c379a000000000000000000000000000000000000000000000000000000000\n      dup2\n      mstore\n      0x04\n      add\n      tag_235\n      swap1\n      tag_236\n      jump\t// in\n    tag_235:\n      mload(0x40)\n      dup1\n      swap2\n      sub\n      swap1\n      revert\n    tag_234:\n        /* \"src/LogisticsTracking.sol\":7694:7698  true */\n      0x01\n        /* \"src/LogisticsTracking.sol\":7660:7669  incidents */\n      0x06\n        /* \"src/LogisticsTracking.sol\":7660:7682  incidents[_incidentId] */\n      0x00\n        /* \"src/LogisticsTracking.sol\":7670:7681  _incidentId */\n      dup4\n        /* \"src/LogisticsTracking.sol\":7660:7682  incidents[_incidentId] */\n      dup2\n      mstore\n      0x20\n      add\n      swap1\n      dup2\n      mstore\n      0x20\n      add\n      0x00\n      keccak256\n        /* \"src/LogisticsTracking.sol\":7660:7691  incidents[_incidentId].resolved */\n      0x05\n      add\n      0x00\n        /* \"src/LogisticsTracking.sol\":7660:7698  incidents[_incidentId].resolved = true */\n      0x0100\n      exp\n      dup2\n      sload\n      dup2\n      0xff\n      mul\n      not\n      and\n      swap1\n      dup4\n      iszero\n      iszero\n      mul\n      or\n      swap1\n      sstore\n      pop\n        /* \"src/LogisticsTracking.sol\":7730:7741  _incidentId */\n      dup1\n        /* \"src/LogisticsTracking.sol\":7713:7742  IncidentResolved(_incidentId) */\n      0xf83ae0ade2d9004bc0030405bdd3336f9d9b97530bcf44cce99ce02c95641b77\n      mload(0x40)\n      mload(0x40)\n      dup1\n      swap2\n      sub\n      swap1\n      log2\n        /* \"src/LogisticsTracking.sol\":7587:7749  function resolveIncident(uint256 _incidentId) public onlyAdmin {... */\n      pop\n      jump\t// out\n        /* \"src/LogisticsTracking.sol\":7895:8246  function getShipmentCheckpoints(uint256 _id) public view returns (Checkpoint[] memory) {... */\n    tag_68:\n        /* \"src/LogisticsTracking.sol\":7961:7980  Checkpoint[] memory */\n      0x60\n        /* \"src/LogisticsTracking.sol\":7992:8012  uint256[] memory ids */\n      0x00\n        /* \"src/LogisticsTracking.sol\":8015:8024  shipments */\n      0x04\n        /* \"src/LogisticsTracking.sol\":8015:8029  shipments[_id] */\n      0x00\n        /* \"src/LogisticsTracking.sol\":8025:8028  _id */\n      dup5\n        /* \"src/LogisticsTracking.sol\":8015:8029  shipments[_id] */\n      dup2\n      mstore\n      0x20\n      add\n      swap1\n      dup2\n      mstore\n      0x20\n      add\n      0x00\n      keccak256\n        /* \"src/LogisticsTracking.sol\":8015:8043  shipments[_id].checkpointIds */\n      0x09\n      add\n        /* \"src/LogisticsTracking.sol\":7992:8043  uint256[] memory ids = shipments[_id].checkpointIds */\n      dup1\n      sload\n      dup1\n      0x20\n      mul\n      0x20\n      add\n      mload(0x40)\n      swap1\n      dup2\n      add\n      0x40\n      mstore\n      dup1\n      swap3\n      swap2\n      swap1\n      dup2\n      dup2\n      mstore\n      0x20\n      add\n      dup3\n      dup1\n      sload\n      dup1\n      iszero\n      tag_239\n      jumpi\n      0x20\n      mul\n      dup3\n      add\n      swap2\n      swap1\n      0x00\n      mstore\n      keccak256(0x00, 0x20)\n      swap1\n    tag_240:\n      dup2\n      sload\n      dup2\n      mstore\n      0x20\n      add\n      swap1\n      0x01\n      add\n      swap1\n      dup1\n      dup4\n      gt\n      tag_240\n      jumpi\n    tag_239:\n      pop\n      pop\n      pop\n      pop\n      pop\n      swap1\n      pop\n        /* \"src/LogisticsTracking.sol\":8053:8080  Checkpoint[] memory results */\n      0x00\n        /* \"src/LogisticsTracking.sol\":8100:8103  ids */\n      dup2\n        /* \"src/LogisticsTracking.sol\":8100:8110  ids.length */\n      mload\n        /* \"src/LogisticsTracking.sol\":8083:8111  new Checkpoint[](ids.length) */\n      0xffffffffffffffff\n      dup2\n      gt\n      iszero\n      tag_241\n      jumpi\n      tag_242\n      tag_243\n      jump\t// in\n    tag_242:\n    tag_241:\n      mload(0x40)\n      swap1\n      dup1\n      dup3\n      mstore\n      dup1\n      0x20\n      mul\n      0x20\n      add\n      dup3\n      add\n      0x40\n      mstore\n      dup1\n      iszero\n      tag_244\n      jumpi\n      dup2\n      0x20\n      add\n    tag_245:\n      tag_246\n      tag_247\n      jump\t// in\n    tag_246:\n      dup2\n      mstore\n      0x20\n      add\n      swap1\n      0x01\n      swap1\n      sub\n      swap1\n      dup2\n      tag_245\n      jumpi\n      swap1\n      pop\n    tag_244:\n      pop\n        /* \"src/LogisticsTracking.sol\":8053:8111  Checkpoint[] memory results = new Checkpoint[](ids.length) */\n      swap1\n      pop\n        /* \"src/LogisticsTracking.sol\":8126:8132  uint i */\n      0x00\n        /* \"src/LogisticsTracking.sol\":8135:8136  0 */\n      0x00\n        /* \"src/LogisticsTracking.sol\":8126:8136  uint i = 0 */\n      swap1\n      pop\n        /* \"src/LogisticsTracking.sol\":8121:8216  for (uint i = 0; i < ids.length; i++) {... */\n    tag_248:\n        /* \"src/LogisticsTracking.sol\":8142:8145  ids */\n      dup3\n        /* \"src/LogisticsTracking.sol\":8142:8152  ids.length */\n      mload\n        /* \"src/LogisticsTracking.sol\":8138:8139  i */\n      dup2\n        /* \"src/LogisticsTracking.sol\":8138:8152  i < ids.length */\n      lt\n        /* \"src/LogisticsTracking.sol\":8121:8216  for (uint i = 0; i < ids.length; i++) {... */\n      iszero\n      tag_249\n      jumpi\n        /* \"src/LogisticsTracking.sol\":8186:8197  checkpoints */\n      0x05\n        /* \"src/LogisticsTracking.sol\":8186:8205  checkpoints[ids[i]] */\n      0x00\n        /* \"src/LogisticsTracking.sol\":8198:8201  ids */\n      dup5\n        /* \"src/LogisticsTracking.sol\":8202:8203  i */\n      dup4\n        /* \"src/LogisticsTracking.sol\":8198:8204  ids[i] */\n      dup2\n      mload\n      dup2\n      lt\n      tag_251\n      jumpi\n      tag_252\n      tag_253\n      jump\t// in\n    tag_252:\n    tag_251:\n      0x20\n      mul\n      0x20\n      add\n      add\n      mload\n        /* \"src/LogisticsTracking.sol\":8186:8205  checkpoints[ids[i]] */\n      dup2\n      mstore\n      0x20\n      add\n      swap1\n      dup2\n      mstore\n      0x20\n      add\n      0x00\n      keccak256\n        /* \"src/LogisticsTracking.sol\":8173:8205  results[i] = checkpoints[ids[i]] */\n      mload(0x40)\n      dup1\n      0x0100\n      add\n      0x40\n      mstore\n      swap1\n      dup2\n      0x00\n      dup3\n      add\n      sload\n      dup2\n      mstore\n      0x20\n      add\n      0x01\n      dup3\n      add\n      sload\n      dup2\n      mstore\n      0x20\n      add\n      0x02\n      dup3\n      add\n      0x00\n      swap1\n      sload\n      swap1\n      0x0100\n      exp\n      swap1\n      div\n      0xffffffffffffffffffffffffffffffffffffffff\n      and\n      0xffffffffffffffffffffffffffffffffffffffff\n      and\n      0xffffffffffffffffffffffffffffffffffffffff\n      and\n      dup2\n      mstore\n      0x20\n      add\n      0x03\n      dup3\n      add\n      dup1\n      sload\n      tag_254\n      swap1\n      tag_134\n      jump\t// in\n    tag_254:\n      dup1\n      0x1f\n      add\n      0x20\n      dup1\n      swap2\n      div\n      mul\n      0x20\n      add\n      mload(0x40)\n      swap1\n      dup2\n      add\n      0x40\n      mstore\n      dup1\n      swap3\n      swap2\n      swap1\n      dup2\n      dup2\n      mstore\n      0x20\n      add\n      dup3\n      dup1\n      sload\n      tag_255\n      swap1\n      tag_134\n      jump\t// in\n    tag_255:\n      dup1\n      iszero\n      tag_256\n      jumpi\n      dup1\n      0x1f\n      lt\n      tag_257\n      jumpi\n      0x0100\n      dup1\n      dup4\n      sload\n      div\n      mul\n      dup4\n      mstore\n      swap2\n      0x20\n      add\n      swap2\n      jump(tag_256)\n    tag_257:\n      dup3\n      add\n      swap2\n      swap1\n      0x00\n      mstore\n      keccak256(0x00, 0x20)\n      swap1\n    tag_258:\n      dup2\n      sload\n      dup2\n      mstore\n      swap1\n      0x01\n      add\n      swap1\n      0x20\n      add\n      dup1\n      dup4\n      gt\n      tag_258\n      jumpi\n      dup3\n      swap1\n      sub\n      0x1f\n      and\n      dup3\n      add\n      swap2\n    tag_256:\n      pop\n      pop\n      pop\n      pop\n      pop\n      dup2\n      mstore\n      0x20\n      add\n      0x04\n      dup3\n      add\n      dup1\n      sload\n      tag_259\n      swap1\n      tag_134\n      jump\t// in\n    tag_259:\n      dup1\n      0x1f\n      add\n      0x20\n      dup1\n      swap2\n      div\n      mul\n      0x20\n      add\n      mload(0x40)\n      swap1\n      dup2\n      add\n      0x40\n      mstore\n      dup1\n      swap3\n      swap2\n      swap1\n      dup2\n      dup2\n      mstore\n      0x20\n      add\n      dup3\n      dup1\n      sload\n      tag_260\n      swap1\n      tag_134\n      jump\t// in\n    tag_260:\n      dup1\n      iszero\n      tag_261\n      jumpi\n      dup1\n      0x1f\n      lt\n      tag_262\n      jumpi\n      0x0100\n      dup1\n      dup4\n      sload\n      div\n      mul\n      dup4\n      mstore\n      swap2\n      0x20\n      add\n      swap2\n      jump(tag_261)\n    tag_262:\n      dup3\n      add\n      swap2\n      swap1\n      0x00\n      mstore\n      keccak256(0x00, 0x20)\n      swap1\n    tag_263:\n      dup2\n      sload\n      dup2\n      mstore\n      swap1\n      0x01\n      add\n      swap1\n      0x20\n      add\n      dup1\n      dup4\n      gt\n      tag_263\n      jumpi\n      dup3\n      swap1\n      sub\n      0x1f\n      and\n      dup3\n      add\n      swap2\n    tag_261:\n      pop\n      pop\n      pop\n      pop\n      pop\n      dup2\n      mstore\n      0x20\n      add\n      0x05\n      dup3\n      add\n      sload\n      dup2\n      mstore\n      0x20\n      add\n      0x06\n      dup3\n      add\n      dup1\n      sload\n      tag_264\n      swap1\n      tag_134\n      jump\t// in\n    tag_264:\n      dup1\n      0x1f\n      add\n      0x20\n      dup1\n      swap2\n      div\n      mul\n      0x20\n      add\n      mload(0x40)\n      swap1\n      dup2\n      add\n      0x40\n      mstore\n      dup1\n      swap3\n      swap2\n      swap1\n      dup2\n      dup2\n      mstore\n      0x20\n      add\n      dup3\n      dup1\n      sload\n      tag_265\n      swap1\n      tag_134\n      jump\t// in\n    tag_265:\n      dup1\n      iszero\n      tag_266\n      jumpi\n      dup1\n      0x1f\n      lt\n      tag_267\n      jumpi\n      0x0100\n      dup1\n      dup4\n      sload\n      div\n      mul\n      dup4\n      mstore\n      swap2\n      0x20\n      add\n      swap2\n      jump(tag_266)\n    tag_267:\n      dup3\n      add\n      swap2\n      swap1\n      0x00\n      mstore\n      keccak256(0x00, 0x20)\n      swap1\n    tag_268:\n      dup2\n      sload\n      dup2\n      mstore\n      swap1\n      0x01\n      add\n      swap1\n      0x20\n      add\n      dup1\n      dup4\n      gt\n      tag_268\n      jumpi\n      dup3\n      swap1\n      sub\n      0x1f\n      and\n      dup3\n      add\n      swap2\n    tag_266:\n      pop\n      pop\n      pop\n      pop\n      pop\n      dup2\n      mstore\n      0x20\n      add\n      0x07\n      dup3\n      add\n      sload\n      dup2\n      mstore\n      pop\n      pop\n        /* \"src/LogisticsTracking.sol\":8173:8180  results */\n      dup3\n        /* \"src/LogisticsTracking.sol\":8181:8182  i */\n      dup3\n        /* \"src/LogisticsTracking.sol\":8173:8183  results[i] */\n      dup2\n      mload\n      dup2\n      lt\n      tag_269\n      jumpi\n      tag_270\n      tag_253\n      jump\t// in\n    tag_270:\n    tag_269:\n      0x20\n      mul\n      0x20\n      add\n      add\n        /* \"src/LogisticsTracking.sol\":8173:8205  results[i] = checkpoints[ids[i]] */\n      dup2\n      swap1\n      mstore\n      pop\n        /* \"src/LogisticsTracking.sol\":8154:8157  i++ */\n      dup1\n      dup1\n      0x01\n      add\n      swap2\n      pop\n      pop\n        /* \"src/LogisticsTracking.sol\":8121:8216  for (uint i = 0; i < ids.length; i++) {... */\n      jump(tag_248)\n    tag_249:\n      pop\n        /* \"src/LogisticsTracking.sol\":8232:8239  results */\n      dup1\n        /* \"src/LogisticsTracking.sol\":8225:8239  return results */\n      swap3\n      pop\n      pop\n      pop\n        /* \"src/LogisticsTracking.sol\":7895:8246  function getShipmentCheckpoints(uint256 _id) public view returns (Checkpoint[] memory) {... */\n      swap2\n      swap1\n      pop\n      jump\t// out\n        /* \"src/LogisticsTracking.sol\":8709:8837  function getActorShipments(address _actor) public view returns (uint256[] memory) {... */\n    tag_73:\n        /* \"src/LogisticsTracking.sol\":8773:8789  uint256[] memory */\n      0x60\n        /* \"src/LogisticsTracking.sol\":8808:8822  actorShipments */\n      0x08\n        /* \"src/LogisticsTracking.sol\":8808:8830  actorShipments[_actor] */\n      0x00\n        /* \"src/LogisticsTracking.sol\":8823:8829  _actor */\n      dup4\n        /* \"src/LogisticsTracking.sol\":8808:8830  actorShipments[_actor] */\n      0xffffffffffffffffffffffffffffffffffffffff\n      and\n      0xffffffffffffffffffffffffffffffffffffffff\n      and\n      dup2\n      mstore\n      0x20\n      add\n      swap1\n      dup2\n      mstore\n      0x20\n      add\n      0x00\n      keccak256\n        /* \"src/LogisticsTracking.sol\":8801:8830  return actorShipments[_actor] */\n      dup1\n      sload\n      dup1\n      0x20\n      mul\n      0x20\n      add\n      mload(0x40)\n      swap1\n      dup2\n      add\n      0x40\n      mstore\n      dup1\n      swap3\n      swap2\n      swap1\n      dup2\n      dup2\n      mstore\n      0x20\n      add\n      dup3\n      dup1\n      sload\n      dup1\n      iszero\n      tag_272\n      jumpi\n      0x20\n      mul\n      dup3\n      add\n      swap2\n      swap1\n      0x00\n      mstore\n      keccak256(0x00, 0x20)\n      swap1\n    tag_273:\n      dup2\n      sload\n      dup2\n      mstore\n      0x20\n      add\n      swap1\n      0x01\n      add\n      swap1\n      dup1\n      dup4\n      gt\n      tag_273\n      jumpi\n    tag_272:\n      pop\n      pop\n      pop\n      pop\n      pop\n      swap1\n      pop\n        /* \"src/LogisticsTracking.sol\":8709:8837  function getActorShipments(address _actor) public view returns (uint256[] memory) {... */\n      swap2\n      swap1\n      pop\n      jump\t// out\n        /* \"src/LogisticsTracking.sol\":4653:4934  function updateShipmentStatus(uint256 _shipmentId, ShipmentStatus _newStatus) ... */\n    tag_79:\n        /* \"src/LogisticsTracking.sol\":2852:2858  actors */\n      0x07\n        /* \"src/LogisticsTracking.sol\":2852:2870  actors[msg.sender] */\n      0x00\n        /* \"src/LogisticsTracking.sol\":2859:2869  msg.sender */\n      caller\n        /* \"src/LogisticsTracking.sol\":2852:2870  actors[msg.sender] */\n      0xffffffffffffffffffffffffffffffffffffffff\n      and\n      0xffffffffffffffffffffffffffffffffffffffff\n      and\n      dup2\n      mstore\n      0x20\n      add\n      swap1\n      dup2\n      mstore\n      0x20\n      add\n      0x00\n      keccak256\n        /* \"src/LogisticsTracking.sol\":2852:2879  actors[msg.sender].isActive */\n      0x04\n      add\n      0x00\n      swap1\n      sload\n      swap1\n      0x0100\n      exp\n      swap1\n      div\n      0xff\n      and\n        /* \"src/LogisticsTracking.sol\":2844:2916  require(actors[msg.sender].isActive, \"Actor not registered or inactive\") */\n      tag_275\n      jumpi\n      mload(0x40)\n      0x08c379a000000000000000000000000000000000000000000000000000000000\n      dup2\n      mstore\n      0x04\n      add\n      tag_276\n      swap1\n      tag_176\n      jump\t// in\n    tag_276:\n      mload(0x40)\n      dup1\n      swap2\n      sub\n      swap1\n      revert\n    tag_275:\n        /* \"src/LogisticsTracking.sol\":4796:4807  _shipmentId */\n      dup2\n        /* \"src/LogisticsTracking.sol\":3001:3002  0 */\n      0x00\n        /* \"src/LogisticsTracking.sol\":2995:2998  _id */\n      dup2\n        /* \"src/LogisticsTracking.sol\":2995:3002  _id > 0 */\n      gt\n        /* \"src/LogisticsTracking.sol\":2995:3026  _id > 0 && _id < nextShipmentId */\n      dup1\n      iszero\n      tag_278\n      jumpi\n      pop\n        /* \"src/LogisticsTracking.sol\":3012:3026  nextShipmentId */\n      sload(0x01)\n        /* \"src/LogisticsTracking.sol\":3006:3009  _id */\n      dup2\n        /* \"src/LogisticsTracking.sol\":3006:3026  _id < nextShipmentId */\n      lt\n        /* \"src/LogisticsTracking.sol\":2995:3026  _id > 0 && _id < nextShipmentId */\n    tag_278:\n        /* \"src/LogisticsTracking.sol\":2987:3054  require(_id > 0 && _id < nextShipmentId, \"Shipment does not exist\") */\n      tag_279\n      jumpi\n      mload(0x40)\n      0x08c379a000000000000000000000000000000000000000000000000000000000\n      dup2\n      mstore\n      0x04\n      add\n      tag_280\n      swap1\n      tag_181\n      jump\t// in\n    tag_280:\n      mload(0x40)\n      dup1\n      swap2\n      sub\n      swap1\n      revert\n    tag_279:\n        /* \"src/LogisticsTracking.sol\":4856:4866  _newStatus */\n      dup2\n        /* \"src/LogisticsTracking.sol\":4824:4833  shipments */\n      0x04\n        /* \"src/LogisticsTracking.sol\":4824:4846  shipments[_shipmentId] */\n      0x00\n        /* \"src/LogisticsTracking.sol\":4834:4845  _shipmentId */\n      dup6\n        /* \"src/LogisticsTracking.sol\":4824:4846  shipments[_shipmentId] */\n      dup2\n      mstore\n      0x20\n      add\n      swap1\n      dup2\n      mstore\n      0x20\n      add\n      0x00\n      keccak256\n        /* \"src/LogisticsTracking.sol\":4824:4853  shipments[_shipmentId].status */\n      0x08\n      add\n      0x00\n        /* \"src/LogisticsTracking.sol\":4824:4866  shipments[_shipmentId].status = _newStatus */\n      0x0100\n      exp\n      dup2\n      sload\n      dup2\n      0xff\n      mul\n      not\n      and\n      swap1\n      dup4\n      0x06\n      dup2\n      gt\n      iszero\n      tag_282\n      jumpi\n      tag_283\n      tag_151\n      jump\t// in\n    tag_283:\n    tag_282:\n      mul\n      or\n      swap1\n      sstore\n      pop\n        /* \"src/LogisticsTracking.sol\":4903:4914  _shipmentId */\n      dup3\n        /* \"src/LogisticsTracking.sol\":4881:4927  ShipmentStatusChanged(_shipmentId, _newStatus) */\n      0x7c1c93f72f29b8a1fc6fc85eed990d133b1ffac80c962b521abb12f38f2ff9af\n        /* \"src/LogisticsTracking.sol\":4916:4926  _newStatus */\n      dup4\n        /* \"src/LogisticsTracking.sol\":4881:4927  ShipmentStatusChanged(_shipmentId, _newStatus) */\n      mload(0x40)\n      tag_284\n      swap2\n      swap1\n      tag_285\n      jump\t// in\n    tag_284:\n      mload(0x40)\n      dup1\n      swap2\n      sub\n      swap1\n      log2\n        /* \"src/LogisticsTracking.sol\":2926:2927  _ */\n      pop\n        /* \"src/LogisticsTracking.sol\":4653:4934  function updateShipmentStatus(uint256 _shipmentId, ShipmentStatus _newStatus) ... */\n      pop\n      pop\n      jump\t// out\n        /* \"src/LogisticsTracking.sol\":5484:5914  function cancelShipment(uint256 _shipmentId) public shipmentExists(_shipmentId) {... */\n    tag_82:\n        /* \"src/LogisticsTracking.sol\":5551:5562  _shipmentId */\n      dup1\n        /* \"src/LogisticsTracking.sol\":3001:3002  0 */\n      0x00\n        /* \"src/LogisticsTracking.sol\":2995:2998  _id */\n      dup2\n        /* \"src/LogisticsTracking.sol\":2995:3002  _id > 0 */\n      gt\n        /* \"src/LogisticsTracking.sol\":2995:3026  _id > 0 && _id < nextShipmentId */\n      dup1\n      iszero\n      tag_287\n      jumpi\n      pop\n        /* \"src/LogisticsTracking.sol\":3012:3026  nextShipmentId */\n      sload(0x01)\n        /* \"src/LogisticsTracking.sol\":3006:3009  _id */\n      dup2\n        /* \"src/LogisticsTracking.sol\":3006:3026  _id < nextShipmentId */\n      lt\n        /* \"src/LogisticsTracking.sol\":2995:3026  _id > 0 && _id < nextShipmentId */\n    tag_287:\n        /* \"src/LogisticsTracking.sol\":2987:3054  require(_id > 0 && _id < nextShipmentId, \"Shipment does not exist\") */\n      tag_288\n      jumpi\n      mload(0x40)\n      0x08c379a000000000000000000000000000000000000000000000000000000000\n      dup2\n      mstore\n      0x04\n      add\n      tag_289\n      swap1\n      tag_181\n      jump\t// in\n    tag_289:\n      mload(0x40)\n      dup1\n      swap2\n      sub\n      swap1\n      revert\n    tag_288:\n        /* \"src/LogisticsTracking.sol\":5596:5605  shipments */\n      0x04\n        /* \"src/LogisticsTracking.sol\":5596:5618  shipments[_shipmentId] */\n      0x00\n        /* \"src/LogisticsTracking.sol\":5606:5617  _shipmentId */\n      dup4\n        /* \"src/LogisticsTracking.sol\":5596:5618  shipments[_shipmentId] */\n      dup2\n      mstore\n      0x20\n      add\n      swap1\n      dup2\n      mstore\n      0x20\n      add\n      0x00\n      keccak256\n        /* \"src/LogisticsTracking.sol\":5596:5625  shipments[_shipmentId].sender */\n      0x01\n      add\n      0x00\n      swap1\n      sload\n      swap1\n      0x0100\n      exp\n      swap1\n      div\n      0xffffffffffffffffffffffffffffffffffffffff\n      and\n        /* \"src/LogisticsTracking.sol\":5582:5625  msg.sender == shipments[_shipmentId].sender */\n      0xffffffffffffffffffffffffffffffffffffffff\n      and\n        /* \"src/LogisticsTracking.sol\":5582:5592  msg.sender */\n      caller\n        /* \"src/LogisticsTracking.sol\":5582:5625  msg.sender == shipments[_shipmentId].sender */\n      0xffffffffffffffffffffffffffffffffffffffff\n      and\n      eq\n        /* \"src/LogisticsTracking.sol\":5574:5652  require(msg.sender == shipments[_shipmentId].sender, \"Only sender can cancel\") */\n      tag_291\n      jumpi\n      mload(0x40)\n      0x08c379a000000000000000000000000000000000000000000000000000000000\n      dup2\n      mstore\n      0x04\n      add\n      tag_292\n      swap1\n      tag_293\n      jump\t// in\n    tag_292:\n      mload(0x40)\n      dup1\n      swap2\n      sub\n      swap1\n      revert\n    tag_291:\n        /* \"src/LogisticsTracking.sol\":5703:5725  ShipmentStatus.Created */\n      0x00\n        /* \"src/LogisticsTracking.sol\":5670:5725  shipments[_shipmentId].status == ShipmentStatus.Created */\n      0x06\n      dup2\n      gt\n      iszero\n      tag_294\n      jumpi\n      tag_295\n      tag_151\n      jump\t// in\n    tag_295:\n    tag_294:\n        /* \"src/LogisticsTracking.sol\":5670:5679  shipments */\n      0x04\n        /* \"src/LogisticsTracking.sol\":5670:5692  shipments[_shipmentId] */\n      0x00\n        /* \"src/LogisticsTracking.sol\":5680:5691  _shipmentId */\n      dup5\n        /* \"src/LogisticsTracking.sol\":5670:5692  shipments[_shipmentId] */\n      dup2\n      mstore\n      0x20\n      add\n      swap1\n      dup2\n      mstore\n      0x20\n      add\n      0x00\n      keccak256\n        /* \"src/LogisticsTracking.sol\":5670:5699  shipments[_shipmentId].status */\n      0x08\n      add\n      0x00\n      swap1\n      sload\n      swap1\n      0x0100\n      exp\n      swap1\n      div\n      0xff\n      and\n        /* \"src/LogisticsTracking.sol\":5670:5725  shipments[_shipmentId].status == ShipmentStatus.Created */\n      0x06\n      dup2\n      gt\n      iszero\n      tag_296\n      jumpi\n      tag_297\n      tag_151\n      jump\t// in\n    tag_297:\n    tag_296:\n      eq\n        /* \"src/LogisticsTracking.sol\":5662:5757  require(shipments[_shipmentId].status == ShipmentStatus.Created, \"Cannot cancel after transit\") */\n      tag_298\n      jumpi\n      mload(0x40)\n      0x08c379a000000000000000000000000000000000000000000000000000000000\n      dup2\n      mstore\n      0x04\n      add\n      tag_299\n      swap1\n      tag_300\n      jump\t// in\n    tag_299:\n      mload(0x40)\n      dup1\n      swap2\n      sub\n      swap1\n      revert\n    tag_298:\n        /* \"src/LogisticsTracking.sol\":5808:5832  ShipmentStatus.Cancelled */\n      0x06\n        /* \"src/LogisticsTracking.sol\":5776:5785  shipments */\n      0x04\n        /* \"src/LogisticsTracking.sol\":5776:5798  shipments[_shipmentId] */\n      0x00\n        /* \"src/LogisticsTracking.sol\":5786:5797  _shipmentId */\n      dup5\n        /* \"src/LogisticsTracking.sol\":5776:5798  shipments[_shipmentId] */\n      dup2\n      mstore\n      0x20\n      add\n      swap1\n      dup2\n      mstore\n      0x20\n      add\n      0x00\n      keccak256\n        /* \"src/LogisticsTracking.sol\":5776:5805  shipments[_shipmentId].status */\n      0x08\n      add\n      0x00\n        /* \"src/LogisticsTracking.sol\":5776:5832  shipments[_shipmentId].status = ShipmentStatus.Cancelled */\n      0x0100\n      exp\n      dup2\n      sload\n      dup2\n      0xff\n      mul\n      not\n      and\n      swap1\n      dup4\n      0x06\n      dup2\n      gt\n      iszero\n      tag_301\n      jumpi\n      tag_302\n      tag_151\n      jump\t// in\n    tag_302:\n    tag_301:\n      mul\n      or\n      swap1\n      sstore\n      pop\n        /* \"src/LogisticsTracking.sol\":5869:5880  _shipmentId */\n      dup2\n        /* \"src/LogisticsTracking.sol\":5847:5907  ShipmentStatusChanged(_shipmentId, ShipmentStatus.Cancelled) */\n      0x7c1c93f72f29b8a1fc6fc85eed990d133b1ffac80c962b521abb12f38f2ff9af\n        /* \"src/LogisticsTracking.sol\":5882:5906  ShipmentStatus.Cancelled */\n      0x06\n        /* \"src/LogisticsTracking.sol\":5847:5907  ShipmentStatusChanged(_shipmentId, ShipmentStatus.Cancelled) */\n      mload(0x40)\n      tag_303\n      swap2\n      swap1\n      tag_285\n      jump\t// in\n    tag_303:\n      mload(0x40)\n      dup1\n      swap2\n      sub\n      swap1\n      log2\n        /* \"src/LogisticsTracking.sol\":5484:5914  function cancelShipment(uint256 _shipmentId) public shipmentExists(_shipmentId) {... */\n      pop\n      pop\n      jump\t// out\n        /* \"src/LogisticsTracking.sol\":1919:1970  mapping(address => uint256[]) public actorShipments */\n    tag_86:\n      mstore(0x20, 0x08)\n      dup2\n      0x00\n      mstore\n      keccak256(0x00, 0x40)\n      dup2\n      dup2\n      sload\n      dup2\n      lt\n      tag_304\n      jumpi\n      0x00\n      dup1\n      revert\n    tag_304:\n      swap1\n      0x00\n      mstore\n      keccak256(0x00, 0x20)\n      add\n      0x00\n      swap2\n      pop\n      swap2\n      pop\n      pop\n      sload\n      dup2\n      jump\t// out\n        /* \"src/LogisticsTracking.sol\":1823:1868  mapping(uint256 => Incident) public incidents */\n    tag_90:\n      mstore(0x20, 0x06)\n      dup1\n      0x00\n      mstore\n      keccak256(0x00, 0x40)\n      0x00\n      swap2\n      pop\n      swap1\n      pop\n      dup1\n      0x00\n      add\n      sload\n      swap1\n      dup1\n      0x01\n      add\n      sload\n      swap1\n      dup1\n      0x02\n      add\n      0x00\n      swap1\n      sload\n      swap1\n      0x0100\n      exp\n      swap1\n      div\n      0xff\n      and\n      swap1\n      dup1\n      0x02\n      add\n      0x01\n      swap1\n      sload\n      swap1\n      0x0100\n      exp\n      swap1\n      div\n      0xffffffffffffffffffffffffffffffffffffffff\n      and\n      swap1\n      dup1\n      0x03\n      add\n      dup1\n      sload\n      tag_306\n      swap1\n      tag_134\n      jump\t// in\n    tag_306:\n      dup1\n      0x1f\n      add\n      0x20\n      dup1\n      swap2\n      div\n      mul\n      0x20\n      add\n      mload(0x40)\n      swap1\n      dup2\n      add\n      0x40\n      mstore\n      dup1\n      swap3\n      swap2\n      swap1\n      dup2\n      dup2\n      mstore\n      0x20\n      add\n      dup3\n      dup1\n      sload\n      tag_307\n      swap1\n      tag_134\n      jump\t// in\n    tag_307:\n      dup1\n      iszero\n      tag_308\n      jumpi\n      dup1\n      0x1f\n      lt\n      tag_309\n      jumpi\n      0x0100\n      dup1\n      dup4\n      sload\n      div\n      mul\n      dup4\n      mstore\n      swap2\n      0x20\n      add\n      swap2\n      jump(tag_308)\n    tag_309:\n      dup3\n      add\n      swap2\n      swap1\n      0x00\n      mstore\n      keccak256(0x00, 0x20)\n      swap1\n    tag_310:\n      dup2\n      sload\n      dup2\n      mstore\n      swap1\n      0x01\n      add\n      swap1\n      0x20\n      add\n      dup1\n      dup4\n      gt\n      tag_310\n      jumpi\n      dup3\n      swap1\n      sub\n      0x1f\n      and\n      dup3\n      add\n      swap2\n    tag_308:\n      pop\n      pop\n      pop\n      pop\n      pop\n      swap1\n      dup1\n      0x04\n      add\n      sload\n      swap1\n      dup1\n      0x05\n      add\n      0x00\n      swap1\n      sload\n      swap1\n      0x0100\n      exp\n      swap1\n      div\n      0xff\n      and\n      swap1\n      pop\n      dup8\n      jump\t// out\n        /* \"src/LogisticsTracking.sol\":8252:8703  function verifyTemperatureCompliance(uint256 _shipmentId) public view returns (bool) {... */\n    tag_95:\n        /* \"src/LogisticsTracking.sol\":8331:8335  bool */\n      0x00\n        /* \"src/LogisticsTracking.sol\":8347:8365  Shipment storage s */\n      0x00\n        /* \"src/LogisticsTracking.sol\":8368:8377  shipments */\n      0x04\n        /* \"src/LogisticsTracking.sol\":8368:8390  shipments[_shipmentId] */\n      0x00\n        /* \"src/LogisticsTracking.sol\":8378:8389  _shipmentId */\n      dup5\n        /* \"src/LogisticsTracking.sol\":8368:8390  shipments[_shipmentId] */\n      dup2\n      mstore\n      0x20\n      add\n      swap1\n      dup2\n      mstore\n      0x20\n      add\n      0x00\n      keccak256\n        /* \"src/LogisticsTracking.sol\":8347:8390  Shipment storage s = shipments[_shipmentId] */\n      swap1\n      pop\n        /* \"src/LogisticsTracking.sol\":8405:8406  s */\n      dup1\n        /* \"src/LogisticsTracking.sol\":8405:8424  s.requiresColdChain */\n      0x0b\n      add\n      0x00\n      swap1\n      sload\n      swap1\n      0x0100\n      exp\n      swap1\n      div\n      0xff\n      and\n        /* \"src/LogisticsTracking.sol\":8400:8437  if (!s.requiresColdChain) return true */\n      tag_312\n      jumpi\n        /* \"src/LogisticsTracking.sol\":8433:8437  true */\n      0x01\n        /* \"src/LogisticsTracking.sol\":8426:8437  return true */\n      swap2\n      pop\n      pop\n      jump(tag_311)\n        /* \"src/LogisticsTracking.sol\":8400:8437  if (!s.requiresColdChain) return true */\n    tag_312:\n        /* \"src/LogisticsTracking.sol\":8461:8467  uint i */\n      0x00\n        /* \"src/LogisticsTracking.sol\":8470:8471  0 */\n      0x00\n        /* \"src/LogisticsTracking.sol\":8461:8471  uint i = 0 */\n      swap1\n      pop\n        /* \"src/LogisticsTracking.sol\":8456:8676  for (uint i = 0; i < s.checkpointIds.length; i++) {... */\n    tag_313:\n        /* \"src/LogisticsTracking.sol\":8477:8478  s */\n      dup2\n        /* \"src/LogisticsTracking.sol\":8477:8492  s.checkpointIds */\n      0x09\n      add\n        /* \"src/LogisticsTracking.sol\":8477:8499  s.checkpointIds.length */\n      dup1\n      sload\n      swap1\n      pop\n        /* \"src/LogisticsTracking.sol\":8473:8474  i */\n      dup2\n        /* \"src/LogisticsTracking.sol\":8473:8499  i < s.checkpointIds.length */\n      lt\n        /* \"src/LogisticsTracking.sol\":8456:8676  for (uint i = 0; i < s.checkpointIds.length; i++) {... */\n      iszero\n      tag_314\n      jumpi\n        /* \"src/LogisticsTracking.sol\":8520:8531  int256 temp */\n      0x00\n        /* \"src/LogisticsTracking.sol\":8534:8545  checkpoints */\n      0x05\n        /* \"src/LogisticsTracking.sol\":8534:8565  checkpoints[s.checkpointIds[i]] */\n      0x00\n        /* \"src/LogisticsTracking.sol\":8546:8547  s */\n      dup5\n        /* \"src/LogisticsTracking.sol\":8546:8561  s.checkpointIds */\n      0x09\n      add\n        /* \"src/LogisticsTracking.sol\":8562:8563  i */\n      dup5\n        /* \"src/LogisticsTracking.sol\":8546:8564  s.checkpointIds[i] */\n      dup2\n      sload\n      dup2\n      lt\n      tag_316\n      jumpi\n      tag_317\n      tag_253\n      jump\t// in\n    tag_317:\n    tag_316:\n      swap1\n      0x00\n      mstore\n      keccak256(0x00, 0x20)\n      add\n      sload\n        /* \"src/LogisticsTracking.sol\":8534:8565  checkpoints[s.checkpointIds[i]] */\n      dup2\n      mstore\n      0x20\n      add\n      swap1\n      dup2\n      mstore\n      0x20\n      add\n      0x00\n      keccak256\n        /* \"src/LogisticsTracking.sol\":8534:8577  checkpoints[s.checkpointIds[i]].temperature */\n      0x07\n      add\n      sload\n        /* \"src/LogisticsTracking.sol\":8520:8577  int256 temp = checkpoints[s.checkpointIds[i]].temperature */\n      swap1\n      pop\n        /* \"src/LogisticsTracking.sol\":8602:8604  80 */\n      0x50\n        /* \"src/LogisticsTracking.sol\":8595:8599  temp */\n      dup2\n        /* \"src/LogisticsTracking.sol\":8595:8604  temp > 80 */\n      sgt\n        /* \"src/LogisticsTracking.sol\":8595:8617  temp > 80 || temp < 20 */\n      dup1\n      tag_319\n      jumpi\n      pop\n        /* \"src/LogisticsTracking.sol\":8615:8617  20 */\n      0x14\n        /* \"src/LogisticsTracking.sol\":8608:8612  temp */\n      dup2\n        /* \"src/LogisticsTracking.sol\":8608:8617  temp < 20 */\n      slt\n        /* \"src/LogisticsTracking.sol\":8595:8617  temp > 80 || temp < 20 */\n    tag_319:\n        /* \"src/LogisticsTracking.sol\":8591:8631  if (temp > 80 || temp < 20) return false */\n      iszero\n      tag_320\n      jumpi\n        /* \"src/LogisticsTracking.sol\":8626:8631  false */\n      0x00\n        /* \"src/LogisticsTracking.sol\":8619:8631  return false */\n      swap4\n      pop\n      pop\n      pop\n      pop\n      jump(tag_311)\n        /* \"src/LogisticsTracking.sol\":8591:8631  if (temp > 80 || temp < 20) return false */\n    tag_320:\n        /* \"src/LogisticsTracking.sol\":8506:8676  {... */\n      pop\n        /* \"src/LogisticsTracking.sol\":8501:8504  i++ */\n      dup1\n      dup1\n      0x01\n      add\n      swap2\n      pop\n      pop\n        /* \"src/LogisticsTracking.sol\":8456:8676  for (uint i = 0; i < s.checkpointIds.length; i++) {... */\n      jump(tag_313)\n    tag_314:\n      pop\n        /* \"src/LogisticsTracking.sol\":8692:8696  true */\n      0x01\n        /* \"src/LogisticsTracking.sol\":8685:8696  return true */\n      swap2\n      pop\n      pop\n        /* \"src/LogisticsTracking.sol\":8252:8703  function verifyTemperatureCompliance(uint256 _shipmentId) public view returns (bool) {... */\n    tag_311:\n      swap2\n      swap1\n      pop\n      jump\t// out\n        /* \"src/LogisticsTracking.sol\":1768:1817  mapping(uint256 => Checkpoint) public checkpoints */\n    tag_100:\n      mstore(0x20, 0x05)\n      dup1\n      0x00\n      mstore\n      keccak256(0x00, 0x40)\n      0x00\n      swap2\n      pop\n      swap1\n      pop\n      dup1\n      0x00\n      add\n      sload\n      swap1\n      dup1\n      0x01\n      add\n      sload\n      swap1\n      dup1\n      0x02\n      add\n      0x00\n      swap1\n      sload\n      swap1\n      0x0100\n      exp\n      swap1\n      div\n      0xffffffffffffffffffffffffffffffffffffffff\n      and\n      swap1\n      dup1\n      0x03\n      add\n      dup1\n      sload\n      tag_321\n      swap1\n      tag_134\n      jump\t// in\n    tag_321:\n      dup1\n      0x1f\n      add\n      0x20\n      dup1\n      swap2\n      div\n      mul\n      0x20\n      add\n      mload(0x40)\n      swap1\n      dup2\n      add\n      0x40\n      mstore\n      dup1\n      swap3\n      swap2\n      swap1\n      dup2\n      dup2\n      mstore\n      0x20\n      add\n      dup3\n      dup1\n      sload\n      tag_322\n      swap1\n      tag_134\n      jump\t// in\n    tag_322:\n      dup1\n      iszero\n      tag_323\n      jumpi\n      dup1\n      0x1f\n      lt\n      tag_324\n      jumpi\n      0x0100\n      dup1\n      dup4\n      sload\n      div\n      mul\n      dup4\n      mstore\n      swap2\n      0x20\n      add\n      swap2\n      jump(tag_323)\n    tag_324:\n      dup3\n      add\n      swap2\n      swap1\n      0x00\n      mstore\n      keccak256(0x00, 0x20)\n      swap1\n    tag_325:\n      dup2\n      sload\n      dup2\n      mstore\n      swap1\n      0x01\n      add\n      swap1\n      0x20\n      add\n      dup1\n      dup4\n      gt\n      tag_325\n      jumpi\n      dup3\n      swap1\n      sub\n      0x1f\n      and\n      dup3\n      add\n      swap2\n    tag_323:\n      pop\n      pop\n      pop\n      pop\n      pop\n      swap1\n      dup1\n      0x04\n      add\n      dup1\n      sload\n      tag_326\n      swap1\n      tag_134\n      jump\t// in\n    tag_326:\n      dup1\n      0x1f\n      add\n      0x20\n      dup1\n      swap2\n      div\n      mul\n      0x20\n      add\n      mload(0x40)\n      swap1\n      dup2\n      add\n      0x40\n      mstore\n      dup1\n      swap3\n      swap2\n      swap1\n      dup2\n      dup2\n      mstore\n      0x20\n      add\n      dup3\n      dup1\n      sload\n      tag_327\n      swap1\n      tag_134\n      jump\t// in\n    tag_327:\n      dup1\n      iszero\n      tag_328\n      jumpi\n      dup1\n      0x1f\n      lt\n      tag_329\n      jumpi\n      0x0100\n      dup1\n      dup4\n      sload\n      div\n      mul\n      dup4\n      mstore\n      swap2\n      0x20\n      add\n      swap2\n      jump(tag_328)\n    tag_329:\n      dup3\n      add\n      swap2\n      swap1\n      0x00\n      mstore\n      keccak256(0x00, 0x20)\n      swap1\n    tag_330:\n      dup2\n      sload\n      dup2\n      mstore\n      swap1\n      0x01\n      add\n      swap1\n      0x20\n      add\n      dup1\n      dup4\n      gt\n      tag_330\n      jumpi\n      dup3\n      swap1\n      sub\n      0x1f\n      and\n      dup3\n      add\n      swap2\n    tag_328:\n      pop\n      pop\n      pop\n      pop\n      pop\n      swap1\n      dup1\n      0x05\n      add\n      sload\n      swap1\n      dup1\n      0x06\n      add\n      dup1\n      sload\n      tag_331\n      swap1\n      tag_134\n      jump\t// in\n    tag_331:\n      dup1\n      0x1f\n      add\n      0x20\n      dup1\n      swap2\n      div\n      mul\n      0x20\n      add\n      mload(0x40)\n      swap1\n      dup2\n      add\n      0x40\n      mstore\n      dup1\n      swap3\n      swap2\n      swap1\n      dup2\n      dup2\n      mstore\n      0x20\n      add\n      dup3\n      dup1\n      sload\n      tag_332\n      swap1\n      tag_134\n      jump\t// in\n    tag_332:\n      dup1\n      iszero\n      tag_333\n      jumpi\n      dup1\n      0x1f\n      lt\n      tag_334\n      jumpi\n      0x0100\n      dup1\n      dup4\n      sload\n      div\n      mul\n      dup4\n      mstore\n      swap2\n      0x20\n      add\n      swap2\n      jump(tag_333)\n    tag_334:\n      dup3\n      add\n      swap2\n      swap1\n      0x00\n      mstore\n      keccak256(0x00, 0x20)\n      swap1\n    tag_335:\n      dup2\n      sload\n      dup2\n      mstore\n      swap1\n      0x01\n      add\n      swap1\n      0x20\n      add\n      dup1\n      dup4\n      gt\n      tag_335\n      jumpi\n      dup3\n      swap1\n      sub\n      0x1f\n      and\n      dup3\n      add\n      swap2\n    tag_333:\n      pop\n      pop\n      pop\n      pop\n      pop\n      swap1\n      dup1\n      0x07\n      add\n      sload\n      swap1\n      pop\n      dup9\n      jump\t// out\n        /* \"src/LogisticsTracking.sol\":1597:1630  uint256 public nextShipmentId = 1 */\n    tag_104:\n      sload(0x01)\n      dup2\n      jump\t// out\n        /* \"src/LogisticsTracking.sol\":3169:3473  function registerActor(string memory _name, ActorRole _role, string memory _location) public {... */\n    tag_109:\n        /* \"src/LogisticsTracking.sol\":3281:3287  actors */\n      0x07\n        /* \"src/LogisticsTracking.sol\":3281:3299  actors[msg.sender] */\n      0x00\n        /* \"src/LogisticsTracking.sol\":3288:3298  msg.sender */\n      caller\n        /* \"src/LogisticsTracking.sol\":3281:3299  actors[msg.sender] */\n      0xffffffffffffffffffffffffffffffffffffffff\n      and\n      0xffffffffffffffffffffffffffffffffffffffff\n      and\n      dup2\n      mstore\n      0x20\n      add\n      swap1\n      dup2\n      mstore\n      0x20\n      add\n      0x00\n      keccak256\n        /* \"src/LogisticsTracking.sol\":3281:3308  actors[msg.sender].isActive */\n      0x04\n      add\n      0x00\n      swap1\n      sload\n      swap1\n      0x0100\n      exp\n      swap1\n      div\n      0xff\n      and\n        /* \"src/LogisticsTracking.sol\":3280:3308  !actors[msg.sender].isActive */\n      iszero\n        /* \"src/LogisticsTracking.sol\":3272:3331  require(!actors[msg.sender].isActive, \"Already registered\") */\n      tag_337\n      jumpi\n      mload(0x40)\n      0x08c379a000000000000000000000000000000000000000000000000000000000\n      dup2\n      mstore\n      0x04\n      add\n      tag_338\n      swap1\n      tag_339\n      jump\t// in\n    tag_338:\n      mload(0x40)\n      dup1\n      swap2\n      sub\n      swap1\n      revert\n    tag_337:\n        /* \"src/LogisticsTracking.sol\":3362:3410  Actor(msg.sender, _name, _role, _location, true) */\n      mload(0x40)\n      dup1\n      0xa0\n      add\n      0x40\n      mstore\n      dup1\n        /* \"src/LogisticsTracking.sol\":3368:3378  msg.sender */\n      caller\n        /* \"src/LogisticsTracking.sol\":3362:3410  Actor(msg.sender, _name, _role, _location, true) */\n      0xffffffffffffffffffffffffffffffffffffffff\n      and\n      dup2\n      mstore\n      0x20\n      add\n        /* \"src/LogisticsTracking.sol\":3380:3385  _name */\n      dup5\n        /* \"src/LogisticsTracking.sol\":3362:3410  Actor(msg.sender, _name, _role, _location, true) */\n      dup2\n      mstore\n      0x20\n      add\n        /* \"src/LogisticsTracking.sol\":3387:3392  _role */\n      dup4\n        /* \"src/LogisticsTracking.sol\":3362:3410  Actor(msg.sender, _name, _role, _location, true) */\n      0x05\n      dup2\n      gt\n      iszero\n      tag_340\n      jumpi\n      tag_341\n      tag_151\n      jump\t// in\n    tag_341:\n    tag_340:\n      dup2\n      mstore\n      0x20\n      add\n        /* \"src/LogisticsTracking.sol\":3394:3403  _location */\n      dup3\n        /* \"src/LogisticsTracking.sol\":3362:3410  Actor(msg.sender, _name, _role, _location, true) */\n      dup2\n      mstore\n      0x20\n      add\n        /* \"src/LogisticsTracking.sol\":3405:3409  true */\n      0x01\n        /* \"src/LogisticsTracking.sol\":3362:3410  Actor(msg.sender, _name, _role, _location, true) */\n      iszero\n      iszero\n      dup2\n      mstore\n      pop\n        /* \"src/LogisticsTracking.sol\":3341:3347  actors */\n      0x07\n        /* \"src/LogisticsTracking.sol\":3341:3359  actors[msg.sender] */\n      0x00\n        /* \"src/LogisticsTracking.sol\":3348:3358  msg.sender */\n      caller\n        /* \"src/LogisticsTracking.sol\":3341:3359  actors[msg.sender] */\n      0xffffffffffffffffffffffffffffffffffffffff\n      and\n      0xffffffffffffffffffffffffffffffffffffffff\n      and\n      dup2\n      mstore\n      0x20\n      add\n      swap1\n      dup2\n      mstore\n      0x20\n      add\n      0x00\n      keccak256\n        /* \"src/LogisticsTracking.sol\":3341:3410  actors[msg.sender] = Actor(msg.sender, _name, _role, _location, true) */\n      0x00\n      dup3\n      add\n      mload\n      dup2\n      0x00\n      add\n      exp(0x0100, 0x00)\n      dup2\n      sload\n      dup2\n      0xffffffffffffffffffffffffffffffffffffffff\n      mul\n      not\n      and\n      swap1\n      dup4\n      0xffffffffffffffffffffffffffffffffffffffff\n      and\n      mul\n      or\n      swap1\n      sstore\n      pop\n      0x20\n      dup3\n      add\n      mload\n      dup2\n      0x01\n      add\n      swap1\n      dup2\n      tag_342\n      swap2\n      swap1\n      tag_186\n      jump\t// in\n    tag_342:\n      pop\n      0x40\n      dup3\n      add\n      mload\n      dup2\n      0x02\n      add\n      exp(0x0100, 0x00)\n      dup2\n      sload\n      dup2\n      0xff\n      mul\n      not\n      and\n      swap1\n      dup4\n      0x05\n      dup2\n      gt\n      iszero\n      tag_343\n      jumpi\n      tag_344\n      tag_151\n      jump\t// in\n    tag_344:\n    tag_343:\n      mul\n      or\n      swap1\n      sstore\n      pop\n      0x60\n      dup3\n      add\n      mload\n      dup2\n      0x03\n      add\n      swap1\n      dup2\n      tag_345\n      swap2\n      swap1\n      tag_186\n      jump\t// in\n    tag_345:\n      pop\n      0x80\n      dup3\n      add\n      mload\n      dup2\n      0x04\n      add\n      exp(0x0100, 0x00)\n      dup2\n      sload\n      dup2\n      0xff\n      mul\n      not\n      and\n      swap1\n      dup4\n      iszero\n      iszero\n      mul\n      or\n      swap1\n      sstore\n      pop\n      swap1\n      pop\n      pop\n        /* \"src/LogisticsTracking.sol\":3441:3451  msg.sender */\n      caller\n        /* \"src/LogisticsTracking.sol\":3425:3466  ActorRegistered(msg.sender, _name, _role) */\n      0xffffffffffffffffffffffffffffffffffffffff\n      and\n      0xc9a31de765abe70445345802bee3c96554ca063ab257e3888d498accb859fabc\n        /* \"src/LogisticsTracking.sol\":3453:3458  _name */\n      dup5\n        /* \"src/LogisticsTracking.sol\":3460:3465  _role */\n      dup5\n        /* \"src/LogisticsTracking.sol\":3425:3466  ActorRegistered(msg.sender, _name, _role) */\n      mload(0x40)\n      tag_346\n      swap3\n      swap2\n      swap1\n      tag_347\n      jump\t// in\n    tag_346:\n      mload(0x40)\n      dup1\n      swap2\n      sub\n      swap1\n      log2\n        /* \"src/LogisticsTracking.sol\":3169:3473  function registerActor(string memory _name, ActorRole _role, string memory _location) public {... */\n      pop\n      pop\n      pop\n      jump\t// out\n        /* \"src/LogisticsTracking.sol\":7084:7581  function reportIncident(uint256 _shipmentId, IncidentType _type, string memory _desc) ... */\n    tag_113:\n        /* \"src/LogisticsTracking.sol\":7266:7273  uint256 */\n      0x00\n        /* \"src/LogisticsTracking.sol\":2852:2858  actors */\n      0x07\n        /* \"src/LogisticsTracking.sol\":2852:2870  actors[msg.sender] */\n      0x00\n        /* \"src/LogisticsTracking.sol\":2859:2869  msg.sender */\n      caller\n        /* \"src/LogisticsTracking.sol\":2852:2870  actors[msg.sender] */\n      0xffffffffffffffffffffffffffffffffffffffff\n      and\n      0xffffffffffffffffffffffffffffffffffffffff\n      and\n      dup2\n      mstore\n      0x20\n      add\n      swap1\n      dup2\n      mstore\n      0x20\n      add\n      0x00\n      keccak256\n        /* \"src/LogisticsTracking.sol\":2852:2879  actors[msg.sender].isActive */\n      0x04\n      add\n      0x00\n      swap1\n      sload\n      swap1\n      0x0100\n      exp\n      swap1\n      div\n      0xff\n      and\n        /* \"src/LogisticsTracking.sol\":2844:2916  require(actors[msg.sender].isActive, \"Actor not registered or inactive\") */\n      tag_349\n      jumpi\n      mload(0x40)\n      0x08c379a000000000000000000000000000000000000000000000000000000000\n      dup2\n      mstore\n      0x04\n      add\n      tag_350\n      swap1\n      tag_176\n      jump\t// in\n    tag_350:\n      mload(0x40)\n      dup1\n      swap2\n      sub\n      swap1\n      revert\n    tag_349:\n        /* \"src/LogisticsTracking.sol\":7235:7246  _shipmentId */\n      dup4\n        /* \"src/LogisticsTracking.sol\":3001:3002  0 */\n      0x00\n        /* \"src/LogisticsTracking.sol\":2995:2998  _id */\n      dup2\n        /* \"src/LogisticsTracking.sol\":2995:3002  _id > 0 */\n      gt\n        /* \"src/LogisticsTracking.sol\":2995:3026  _id > 0 && _id < nextShipmentId */\n      dup1\n      iszero\n      tag_352\n      jumpi\n      pop\n        /* \"src/LogisticsTracking.sol\":3012:3026  nextShipmentId */\n      sload(0x01)\n        /* \"src/LogisticsTracking.sol\":3006:3009  _id */\n      dup2\n        /* \"src/LogisticsTracking.sol\":3006:3026  _id < nextShipmentId */\n      lt\n        /* \"src/LogisticsTracking.sol\":2995:3026  _id > 0 && _id < nextShipmentId */\n    tag_352:\n        /* \"src/LogisticsTracking.sol\":2987:3054  require(_id > 0 && _id < nextShipmentId, \"Shipment does not exist\") */\n      tag_353\n      jumpi\n      mload(0x40)\n      0x08c379a000000000000000000000000000000000000000000000000000000000\n      dup2\n      mstore\n      0x04\n      add\n      tag_354\n      swap1\n      tag_181\n      jump\t// in\n    tag_354:\n      mload(0x40)\n      dup1\n      swap2\n      sub\n      swap1\n      revert\n    tag_353:\n        /* \"src/LogisticsTracking.sol\":7290:7303  uint256 incId */\n      0x00\n        /* \"src/LogisticsTracking.sol\":7306:7320  nextIncidentId */\n      0x03\n      0x00\n        /* \"src/LogisticsTracking.sol\":7306:7322  nextIncidentId++ */\n      dup2\n      sload\n      dup1\n      swap3\n      swap2\n      swap1\n      tag_356\n      swap1\n      tag_184\n      jump\t// in\n    tag_356:\n      swap2\n      swap1\n      pop\n      sstore\n        /* \"src/LogisticsTracking.sol\":7290:7322  uint256 incId = nextIncidentId++ */\n      swap1\n      pop\n        /* \"src/LogisticsTracking.sol\":7351:7429  Incident(incId, _shipmentId, _type, msg.sender, _desc, block.timestamp, false) */\n      mload(0x40)\n      dup1\n      0xe0\n      add\n      0x40\n      mstore\n      dup1\n        /* \"src/LogisticsTracking.sol\":7360:7365  incId */\n      dup3\n        /* \"src/LogisticsTracking.sol\":7351:7429  Incident(incId, _shipmentId, _type, msg.sender, _desc, block.timestamp, false) */\n      dup2\n      mstore\n      0x20\n      add\n        /* \"src/LogisticsTracking.sol\":7367:7378  _shipmentId */\n      dup8\n        /* \"src/LogisticsTracking.sol\":7351:7429  Incident(incId, _shipmentId, _type, msg.sender, _desc, block.timestamp, false) */\n      dup2\n      mstore\n      0x20\n      add\n        /* \"src/LogisticsTracking.sol\":7380:7385  _type */\n      dup7\n        /* \"src/LogisticsTracking.sol\":7351:7429  Incident(incId, _shipmentId, _type, msg.sender, _desc, block.timestamp, false) */\n      0x04\n      dup2\n      gt\n      iszero\n      tag_357\n      jumpi\n      tag_358\n      tag_151\n      jump\t// in\n    tag_358:\n    tag_357:\n      dup2\n      mstore\n      0x20\n      add\n        /* \"src/LogisticsTracking.sol\":7387:7397  msg.sender */\n      caller\n        /* \"src/LogisticsTracking.sol\":7351:7429  Incident(incId, _shipmentId, _type, msg.sender, _desc, block.timestamp, false) */\n      0xffffffffffffffffffffffffffffffffffffffff\n      and\n      dup2\n      mstore\n      0x20\n      add\n        /* \"src/LogisticsTracking.sol\":7399:7404  _desc */\n      dup6\n        /* \"src/LogisticsTracking.sol\":7351:7429  Incident(incId, _shipmentId, _type, msg.sender, _desc, block.timestamp, false) */\n      dup2\n      mstore\n      0x20\n      add\n        /* \"src/LogisticsTracking.sol\":7406:7421  block.timestamp */\n      timestamp\n        /* \"src/LogisticsTracking.sol\":7351:7429  Incident(incId, _shipmentId, _type, msg.sender, _desc, block.timestamp, false) */\n      dup2\n      mstore\n      0x20\n      add\n        /* \"src/LogisticsTracking.sol\":7423:7428  false */\n      0x00\n        /* \"src/LogisticsTracking.sol\":7351:7429  Incident(incId, _shipmentId, _type, msg.sender, _desc, block.timestamp, false) */\n      iszero\n      iszero\n      dup2\n      mstore\n      pop\n        /* \"src/LogisticsTracking.sol\":7332:7341  incidents */\n      0x06\n        /* \"src/LogisticsTracking.sol\":7332:7348  incidents[incId] */\n      0x00\n        /* \"src/LogisticsTracking.sol\":7342:7347  incId */\n      dup4\n        /* \"src/LogisticsTracking.sol\":7332:7348  incidents[incId] */\n      dup2\n      mstore\n      0x20\n      add\n      swap1\n      dup2\n      mstore\n      0x20\n      add\n      0x00\n      keccak256\n        /* \"src/LogisticsTracking.sol\":7332:7429  incidents[incId] = Incident(incId, _shipmentId, _type, msg.sender, _desc, block.timestamp, false) */\n      0x00\n      dup3\n      add\n      mload\n      dup2\n      0x00\n      add\n      sstore\n      0x20\n      dup3\n      add\n      mload\n      dup2\n      0x01\n      add\n      sstore\n      0x40\n      dup3\n      add\n      mload\n      dup2\n      0x02\n      add\n      exp(0x0100, 0x00)\n      dup2\n      sload\n      dup2\n      0xff\n      mul\n      not\n      and\n      swap1\n      dup4\n      0x04\n      dup2\n      gt\n      iszero\n      tag_359\n      jumpi\n      tag_360\n      tag_151\n      jump\t// in\n    tag_360:\n    tag_359:\n      mul\n      or\n      swap1\n      sstore\n      pop\n      0x60\n      dup3\n      add\n      mload\n      dup2\n      0x02\n      add\n      exp(0x0100, 0x01)\n      dup2\n      sload\n      dup2\n      0xffffffffffffffffffffffffffffffffffffffff\n      mul\n      not\n      and\n      swap1\n      dup4\n      0xffffffffffffffffffffffffffffffffffffffff\n      and\n      mul\n      or\n      swap1\n      sstore\n      pop\n      0x80\n      dup3\n      add\n      mload\n      dup2\n      0x03\n      add\n      swap1\n      dup2\n      tag_361\n      swap2\n      swap1\n      tag_186\n      jump\t// in\n    tag_361:\n      pop\n      0xa0\n      dup3\n      add\n      mload\n      dup2\n      0x04\n      add\n      sstore\n      0xc0\n      dup3\n      add\n      mload\n      dup2\n      0x05\n      add\n      exp(0x0100, 0x00)\n      dup2\n      sload\n      dup2\n      0xff\n      mul\n      not\n      and\n      swap1\n      dup4\n      iszero\n      iszero\n      mul\n      or\n      swap1\n      sstore\n      pop\n      swap1\n      pop\n      pop\n        /* \"src/LogisticsTracking.sol\":7439:7448  shipments */\n      0x04\n        /* \"src/LogisticsTracking.sol\":7439:7461  shipments[_shipmentId] */\n      0x00\n        /* \"src/LogisticsTracking.sol\":7449:7460  _shipmentId */\n      dup8\n        /* \"src/LogisticsTracking.sol\":7439:7461  shipments[_shipmentId] */\n      dup2\n      mstore\n      0x20\n      add\n      swap1\n      dup2\n      mstore\n      0x20\n      add\n      0x00\n      keccak256\n        /* \"src/LogisticsTracking.sol\":7439:7473  shipments[_shipmentId].incidentIds */\n      0x0a\n      add\n        /* \"src/LogisticsTracking.sol\":7479:7484  incId */\n      dup2\n        /* \"src/LogisticsTracking.sol\":7439:7485  shipments[_shipmentId].incidentIds.push(incId) */\n      swap1\n      dup1\n      0x01\n      dup2\n      sload\n      add\n      dup1\n      dup3\n      sstore\n      dup1\n      swap2\n      pop\n      pop\n      0x01\n      swap1\n      sub\n      swap1\n      0x00\n      mstore\n      keccak256(0x00, 0x20)\n      add\n      0x00\n      swap1\n      swap2\n      swap1\n      swap2\n      swap1\n      swap2\n      pop\n      sstore\n        /* \"src/LogisticsTracking.sol\":7533:7544  _shipmentId */\n      dup6\n        /* \"src/LogisticsTracking.sol\":7526:7531  incId */\n      dup2\n        /* \"src/LogisticsTracking.sol\":7509:7552  IncidentReported(incId, _shipmentId, _type) */\n      0xc2c9d0fa5caecea68b9ec6aca764014b01764f779d8a510f0d0d6796b76b7c83\n        /* \"src/LogisticsTracking.sol\":7546:7551  _type */\n      dup8\n        /* \"src/LogisticsTracking.sol\":7509:7552  IncidentReported(incId, _shipmentId, _type) */\n      mload(0x40)\n      tag_363\n      swap2\n      swap1\n      tag_364\n      jump\t// in\n    tag_363:\n      mload(0x40)\n      dup1\n      swap2\n      sub\n      swap1\n      log3\n        /* \"src/LogisticsTracking.sol\":7569:7574  incId */\n      dup1\n        /* \"src/LogisticsTracking.sol\":7562:7574  return incId */\n      swap3\n      pop\n      pop\n        /* \"src/LogisticsTracking.sol\":2926:2927  _ */\n      pop\n        /* \"src/LogisticsTracking.sol\":7084:7581  function reportIncident(uint256 _shipmentId, IncidentType _type, string memory _desc) ... */\n      swap4\n      swap3\n      pop\n      pop\n      pop\n      jump\t// out\n        /* \"src/LogisticsTracking.sol\":1874:1913  mapping(address => Actor) public actors */\n    tag_117:\n      mstore(0x20, 0x07)\n      dup1\n      0x00\n      mstore\n      keccak256(0x00, 0x40)\n      0x00\n      swap2\n      pop\n      swap1\n      pop\n      dup1\n      0x00\n      add\n      0x00\n      swap1\n      sload\n      swap1\n      0x0100\n      exp\n      swap1\n      div\n      0xffffffffffffffffffffffffffffffffffffffff\n      and\n      swap1\n      dup1\n      0x01\n      add\n      dup1\n      sload\n      tag_365\n      swap1\n      tag_134\n      jump\t// in\n    tag_365:\n      dup1\n      0x1f\n      add\n      0x20\n      dup1\n      swap2\n      div\n      mul\n      0x20\n      add\n      mload(0x40)\n      swap1\n      dup2\n      add\n      0x40\n      mstore\n      dup1\n      swap3\n      swap2\n      swap1\n      dup2\n      dup2\n      mstore\n      0x20\n      add\n      dup3\n      dup1\n      sload\n      tag_366\n      swap1\n      tag_134\n      jump\t// in\n    tag_366:\n      dup1\n      iszero\n      tag_367\n      jumpi\n      dup1\n      0x1f\n      lt\n      tag_368\n      jumpi\n      0x0100\n      dup1\n      dup4\n      sload\n      div\n      mul\n      dup4\n      mstore\n      swap2\n      0x20\n      add\n      swap2\n      jump(tag_367)\n    tag_368:\n      dup3\n      add\n      swap2\n      swap1\n      0x00\n      mstore\n      keccak256(0x00, 0x20)\n      swap1\n    tag_369:\n      dup2\n      sload\n      dup2\n      mstore\n      swap1\n      0x01\n      add\n      swap1\n      0x20\n      add\n      dup1\n      dup4\n      gt\n      tag_369\n      jumpi\n      dup3\n      swap1\n      sub\n      0x1f\n      and\n      dup3\n      add\n      swap2\n    tag_367:\n      pop\n      pop\n      pop\n      pop\n      pop\n      swap1\n      dup1\n      0x02\n      add\n      0x00\n      swap1\n      sload\n      swap1\n      0x0100\n      exp\n      swap1\n      div\n      0xff\n      and\n      swap1\n      dup1\n      0x03\n      add\n      dup1\n      sload\n      tag_370\n      swap1\n      tag_134\n      jump\t// in\n    tag_370:\n      dup1\n      0x1f\n      add\n      0x20\n      dup1\n      swap2\n      div\n      mul\n      0x20\n      add\n      mload(0x40)\n      swap1\n      dup2\n      add\n      0x40\n      mstore\n      dup1\n      swap3\n      swap2\n      swap1\n      dup2\n      dup2\n      mstore\n      0x20\n      add\n      dup3\n      dup1\n      sload\n      tag_371\n      swap1\n      tag_134\n      jump\t// in\n    tag_371:\n      dup1\n      iszero\n      tag_372\n      jumpi\n      dup1\n      0x1f\n      lt\n      tag_373\n      jumpi\n      0x0100\n      dup1\n      dup4\n      sload\n      div\n      mul\n      dup4\n      mstore\n      swap2\n      0x20\n      add\n      swap2\n      jump(tag_372)\n    tag_373:\n      dup3\n      add\n      swap2\n      swap1\n      0x00\n      mstore\n      keccak256(0x00, 0x20)\n      swap1\n    tag_374:\n      dup2\n      sload\n      dup2\n      mstore\n      swap1\n      0x01\n      add\n      swap1\n      0x20\n      add\n      dup1\n      dup4\n      gt\n      tag_374\n      jumpi\n      dup3\n      swap1\n      sub\n      0x1f\n      and\n      dup3\n      add\n      swap2\n    tag_372:\n      pop\n      pop\n      pop\n      pop\n      pop\n      swap1\n      dup1\n      0x04\n      add\n      0x00\n      swap1\n      sload\n      swap1\n      0x0100\n      exp\n      swap1\n      div\n      0xff\n      and\n      swap1\n      pop\n      dup6\n      jump\t// out\n        /* \"src/LogisticsTracking.sol\":1571:1591  address public admin */\n    tag_121:\n      0x00\n      0x00\n      swap1\n      sload\n      swap1\n      0x0100\n      exp\n      swap1\n      div\n      0xffffffffffffffffffffffffffffffffffffffff\n      and\n      dup2\n      jump\t// out\n        /* \"src/LogisticsTracking.sol\":3479:3599  function deactivateActor(address _actorAddress) public onlyAdmin {... */\n    tag_126:\n        /* \"src/LogisticsTracking.sol\":2763:2768  admin */\n      0x00\n      0x00\n      swap1\n      sload\n      swap1\n      0x0100\n      exp\n      swap1\n      div\n      0xffffffffffffffffffffffffffffffffffffffff\n      and\n        /* \"src/LogisticsTracking.sol\":2749:2768  msg.sender == admin */\n      0xffffffffffffffffffffffffffffffffffffffff\n      and\n        /* \"src/LogisticsTracking.sol\":2749:2759  msg.sender */\n      caller\n        /* \"src/LogisticsTracking.sol\":2749:2768  msg.sender == admin */\n      0xffffffffffffffffffffffffffffffffffffffff\n      and\n      eq\n        /* \"src/LogisticsTracking.sol\":2741:2783  require(msg.sender == admin, \"Only admin\") */\n      tag_376\n      jumpi\n      mload(0x40)\n      0x08c379a000000000000000000000000000000000000000000000000000000000\n      dup2\n      mstore\n      0x04\n      add\n      tag_377\n      swap1\n      tag_236\n      jump\t// in\n    tag_377:\n      mload(0x40)\n      dup1\n      swap2\n      sub\n      swap1\n      revert\n    tag_376:\n        /* \"src/LogisticsTracking.sol\":3587:3592  false */\n      0x00\n        /* \"src/LogisticsTracking.sol\":3554:3560  actors */\n      0x07\n        /* \"src/LogisticsTracking.sol\":3554:3575  actors[_actorAddress] */\n      0x00\n        /* \"src/LogisticsTracking.sol\":3561:3574  _actorAddress */\n      dup4\n        /* \"src/LogisticsTracking.sol\":3554:3575  actors[_actorAddress] */\n      0xffffffffffffffffffffffffffffffffffffffff\n      and\n      0xffffffffffffffffffffffffffffffffffffffff\n      and\n      dup2\n      mstore\n      0x20\n      add\n      swap1\n      dup2\n      mstore\n      0x20\n      add\n      0x00\n      keccak256\n        /* \"src/LogisticsTracking.sol\":3554:3584  actors[_actorAddress].isActive */\n      0x04\n      add\n      0x00\n        /* \"src/LogisticsTracking.sol\":3554:3592  actors[_actorAddress].isActive = false */\n      0x0100\n      exp\n      dup2\n      sload\n      dup2\n      0xff\n      mul\n      not\n      and\n      swap1\n      dup4\n      iszero\n      iszero\n      mul\n      or\n      swap1\n      sstore\n      pop\n        /* \"src/LogisticsTracking.sol\":3479:3599  function deactivateActor(address _actorAddress) public onlyAdmin {... */\n      pop\n      jump\t// out\n        /* \"src/LogisticsTracking.sol\":4940:5478  function confirmDelivery(uint256 _shipmentId) public shipmentExists(_shipmentId) {... */\n    tag_129:\n        /* \"src/LogisticsTracking.sol\":5008:5019  _shipmentId */\n      dup1\n        /* \"src/LogisticsTracking.sol\":3001:3002  0 */\n      0x00\n        /* \"src/LogisticsTracking.sol\":2995:2998  _id */\n      dup2\n        /* \"src/LogisticsTracking.sol\":2995:3002  _id > 0 */\n      gt\n        /* \"src/LogisticsTracking.sol\":2995:3026  _id > 0 && _id < nextShipmentId */\n      dup1\n      iszero\n      tag_380\n      jumpi\n      pop\n        /* \"src/LogisticsTracking.sol\":3012:3026  nextShipmentId */\n      sload(0x01)\n        /* \"src/LogisticsTracking.sol\":3006:3009  _id */\n      dup2\n        /* \"src/LogisticsTracking.sol\":3006:3026  _id < nextShipmentId */\n      lt\n        /* \"src/LogisticsTracking.sol\":2995:3026  _id > 0 && _id < nextShipmentId */\n    tag_380:\n        /* \"src/LogisticsTracking.sol\":2987:3054  require(_id > 0 && _id < nextShipmentId, \"Shipment does not exist\") */\n      tag_381\n      jumpi\n      mload(0x40)\n      0x08c379a000000000000000000000000000000000000000000000000000000000\n      dup2\n      mstore\n      0x04\n      add\n      tag_382\n      swap1\n      tag_181\n      jump\t// in\n    tag_382:\n      mload(0x40)\n      dup1\n      swap2\n      sub\n      swap1\n      revert\n    tag_381:\n        /* \"src/LogisticsTracking.sol\":5031:5049  Shipment storage s */\n      0x00\n        /* \"src/LogisticsTracking.sol\":5052:5061  shipments */\n      0x04\n        /* \"src/LogisticsTracking.sol\":5052:5074  shipments[_shipmentId] */\n      0x00\n        /* \"src/LogisticsTracking.sol\":5062:5073  _shipmentId */\n      dup5\n        /* \"src/LogisticsTracking.sol\":5052:5074  shipments[_shipmentId] */\n      dup2\n      mstore\n      0x20\n      add\n      swap1\n      dup2\n      mstore\n      0x20\n      add\n      0x00\n      keccak256\n        /* \"src/LogisticsTracking.sol\":5031:5074  Shipment storage s = shipments[_shipmentId] */\n      swap1\n      pop\n        /* \"src/LogisticsTracking.sol\":5106:5107  s */\n      dup1\n        /* \"src/LogisticsTracking.sol\":5106:5117  s.recipient */\n      0x02\n      add\n      0x00\n      swap1\n      sload\n      swap1\n      0x0100\n      exp\n      swap1\n      div\n      0xffffffffffffffffffffffffffffffffffffffff\n      and\n        /* \"src/LogisticsTracking.sol\":5092:5117  msg.sender == s.recipient */\n      0xffffffffffffffffffffffffffffffffffffffff\n      and\n        /* \"src/LogisticsTracking.sol\":5092:5102  msg.sender */\n      caller\n        /* \"src/LogisticsTracking.sol\":5092:5117  msg.sender == s.recipient */\n      0xffffffffffffffffffffffffffffffffffffffff\n      and\n      eq\n        /* \"src/LogisticsTracking.sol\":5084:5148  require(msg.sender == s.recipient, \"Only recipient can confirm\") */\n      tag_384\n      jumpi\n      mload(0x40)\n      0x08c379a000000000000000000000000000000000000000000000000000000000\n      dup2\n      mstore\n      0x04\n      add\n      tag_385\n      swap1\n      tag_386\n      jump\t// in\n    tag_385:\n      mload(0x40)\n      dup1\n      swap2\n      sub\n      swap1\n      revert\n    tag_384:\n        /* \"src/LogisticsTracking.sol\":5178:5202  ShipmentStatus.Delivered */\n      0x04\n        /* \"src/LogisticsTracking.sol\":5166:5202  s.status != ShipmentStatus.Delivered */\n      0x06\n      dup2\n      gt\n      iszero\n      tag_387\n      jumpi\n      tag_388\n      tag_151\n      jump\t// in\n    tag_388:\n    tag_387:\n        /* \"src/LogisticsTracking.sol\":5166:5167  s */\n      dup2\n        /* \"src/LogisticsTracking.sol\":5166:5174  s.status */\n      0x08\n      add\n      0x00\n      swap1\n      sload\n      swap1\n      0x0100\n      exp\n      swap1\n      div\n      0xff\n      and\n        /* \"src/LogisticsTracking.sol\":5166:5202  s.status != ShipmentStatus.Delivered */\n      0x06\n      dup2\n      gt\n      iszero\n      tag_389\n      jumpi\n      tag_390\n      tag_151\n      jump\t// in\n    tag_390:\n    tag_389:\n      sub\n        /* \"src/LogisticsTracking.sol\":5158:5224  require(s.status != ShipmentStatus.Delivered, \"Already delivered\") */\n      tag_391\n      jumpi\n      mload(0x40)\n      0x08c379a000000000000000000000000000000000000000000000000000000000\n      dup2\n      mstore\n      0x04\n      add\n      tag_392\n      swap1\n      tag_393\n      jump\t// in\n    tag_392:\n      mload(0x40)\n      dup1\n      swap2\n      sub\n      swap1\n      revert\n    tag_391:\n        /* \"src/LogisticsTracking.sol\":5246:5270  ShipmentStatus.Delivered */\n      0x04\n        /* \"src/LogisticsTracking.sol\":5235:5236  s */\n      dup2\n        /* \"src/LogisticsTracking.sol\":5235:5243  s.status */\n      0x08\n      add\n      0x00\n        /* \"src/LogisticsTracking.sol\":5235:5270  s.status = ShipmentStatus.Delivered */\n      0x0100\n      exp\n      dup2\n      sload\n      dup2\n      0xff\n      mul\n      not\n      and\n      swap1\n      dup4\n      0x06\n      dup2\n      gt\n      iszero\n      tag_394\n      jumpi\n      tag_395\n      tag_151\n      jump\t// in\n    tag_395:\n    tag_394:\n      mul\n      or\n      swap1\n      sstore\n      pop\n        /* \"src/LogisticsTracking.sol\":5298:5313  block.timestamp */\n      timestamp\n        /* \"src/LogisticsTracking.sol\":5280:5281  s */\n      dup2\n        /* \"src/LogisticsTracking.sol\":5280:5295  s.dateDelivered */\n      0x07\n      add\n        /* \"src/LogisticsTracking.sol\":5280:5313  s.dateDelivered = block.timestamp */\n      dup2\n      swap1\n      sstore\n      pop\n        /* \"src/LogisticsTracking.sol\":5368:5378  msg.sender */\n      caller\n        /* \"src/LogisticsTracking.sol\":5337:5396  DeliveryConfirmed(_shipmentId, msg.sender, block.timestamp) */\n      0xffffffffffffffffffffffffffffffffffffffff\n      and\n        /* \"src/LogisticsTracking.sol\":5355:5366  _shipmentId */\n      dup4\n        /* \"src/LogisticsTracking.sol\":5337:5396  DeliveryConfirmed(_shipmentId, msg.sender, block.timestamp) */\n      0x2f4a952729db32131cb3d658cc231127e0ce7e50f83508ece9a49c985f2384d0\n        /* \"src/LogisticsTracking.sol\":5380:5395  block.timestamp */\n      timestamp\n        /* \"src/LogisticsTracking.sol\":5337:5396  DeliveryConfirmed(_shipmentId, msg.sender, block.timestamp) */\n      mload(0x40)\n      tag_396\n      swap2\n      swap1\n      tag_38\n      jump\t// in\n    tag_396:\n      mload(0x40)\n      dup1\n      swap2\n      sub\n      swap1\n      log3\n        /* \"src/LogisticsTracking.sol\":5433:5444  _shipmentId */\n      dup3\n        /* \"src/LogisticsTracking.sol\":5411:5471  ShipmentStatusChanged(_shipmentId, ShipmentStatus.Delivered) */\n      0x7c1c93f72f29b8a1fc6fc85eed990d133b1ffac80c962b521abb12f38f2ff9af\n        /* \"src/LogisticsTracking.sol\":5446:5470  ShipmentStatus.Delivered */\n      0x04\n        /* \"src/LogisticsTracking.sol\":5411:5471  ShipmentStatusChanged(_shipmentId, ShipmentStatus.Delivered) */\n      mload(0x40)\n      tag_397\n      swap2\n      swap1\n      tag_285\n      jump\t// in\n    tag_397:\n      mload(0x40)\n      dup1\n      swap2\n      sub\n      swap1\n      log2\n        /* \"src/LogisticsTracking.sol\":5021:5478  {... */\n      pop\n        /* \"src/LogisticsTracking.sol\":4940:5478  function confirmDelivery(uint256 _shipmentId) public shipmentExists(_shipmentId) {... */\n      pop\n      pop\n      jump\t// out\n    tag_131:\n      mload(0x40)\n      dup1\n      0x0180\n      add\n      0x40\n      mstore\n      dup1\n      0x00\n      dup2\n      mstore\n      0x20\n      add\n      and(0xffffffffffffffffffffffffffffffffffffffff, 0x00)\n      dup2\n      mstore\n      0x20\n      add\n      and(0xffffffffffffffffffffffffffffffffffffffff, 0x00)\n      dup2\n      mstore\n      0x20\n      add\n      0x60\n      dup2\n      mstore\n      0x20\n      add\n      0x60\n      dup2\n      mstore\n      0x20\n      add\n      0x60\n      dup2\n      mstore\n      0x20\n      add\n      0x00\n      dup2\n      mstore\n      0x20\n      add\n      0x00\n      dup2\n      mstore\n      0x20\n      add\n      0x00\n      0x06\n      dup2\n      gt\n      iszero\n      tag_398\n      jumpi\n      tag_399\n      tag_151\n      jump\t// in\n    tag_399:\n    tag_398:\n      dup2\n      mstore\n      0x20\n      add\n      0x60\n      dup2\n      mstore\n      0x20\n      add\n      0x60\n      dup2\n      mstore\n      0x20\n      add\n      iszero(iszero(0x00))\n      dup2\n      mstore\n      pop\n      swap1\n      jump\t// out\n    tag_197:\n      mload(0x40)\n      dup1\n      0xa0\n      add\n      0x40\n      mstore\n      dup1\n      and(0xffffffffffffffffffffffffffffffffffffffff, 0x00)\n      dup2\n      mstore\n      0x20\n      add\n      0x60\n      dup2\n      mstore\n      0x20\n      add\n      0x00\n      0x05\n      dup2\n      gt\n      iszero\n      tag_400\n      jumpi\n      tag_401\n      tag_151\n      jump\t// in\n    tag_401:\n    tag_400:\n      dup2\n      mstore\n      0x20\n      add\n      0x60\n      dup2\n      mstore\n      0x20\n      add\n      iszero(iszero(0x00))\n      dup2\n      mstore\n      pop\n      swap1\n      jump\t// out\n    tag_247:\n      mload(0x40)\n      dup1\n      0x0100\n      add\n      0x40\n      mstore\n      dup1\n      0x00\n      dup2\n      mstore\n      0x20\n      add\n      0x00\n      dup2\n      mstore\n      0x20\n      add\n      and(0xffffffffffffffffffffffffffffffffffffffff, 0x00)\n      dup2\n      mstore\n      0x20\n      add\n      0x60\n      dup2\n      mstore\n      0x20\n      add\n      0x60\n      dup2\n      mstore\n      0x20\n      add\n      0x00\n      dup2\n      mstore\n      0x20\n      add\n      0x60\n      dup2\n      mstore\n      0x20\n      add\n      0x00\n      dup2\n      mstore\n      pop\n      swap1\n      jump\t// out\n        /* \"#utility.yul\":7:82   */\n    tag_402:\n        /* \"#utility.yul\":40:46   */\n      0x00\n        /* \"#utility.yul\":73:75   */\n      0x40\n        /* \"#utility.yul\":67:76   */\n      mload\n        /* \"#utility.yul\":57:76   */\n      swap1\n      pop\n        /* \"#utility.yul\":7:82   */\n      swap1\n      jump\t// out\n        /* \"#utility.yul\":88:205   */\n    tag_403:\n        /* \"#utility.yul\":197:198   */\n      0x00\n        /* \"#utility.yul\":194:195   */\n      0x00\n        /* \"#utility.yul\":187:199   */\n      revert\n        /* \"#utility.yul\":211:328   */\n    tag_404:\n        /* \"#utility.yul\":320:321   */\n      0x00\n        /* \"#utility.yul\":317:318   */\n      0x00\n        /* \"#utility.yul\":310:322   */\n      revert\n        /* \"#utility.yul\":334:411   */\n    tag_405:\n        /* \"#utility.yul\":371:378   */\n      0x00\n        /* \"#utility.yul\":400:405   */\n      dup2\n        /* \"#utility.yul\":389:405   */\n      swap1\n      pop\n        /* \"#utility.yul\":334:411   */\n      swap2\n      swap1\n      pop\n      jump\t// out\n        /* \"#utility.yul\":417:539   */\n    tag_406:\n        /* \"#utility.yul\":490:514   */\n      tag_519\n        /* \"#utility.yul\":508:513   */\n      dup2\n        /* \"#utility.yul\":490:514   */\n      tag_405\n      jump\t// in\n    tag_519:\n        /* \"#utility.yul\":483:488   */\n      dup2\n        /* \"#utility.yul\":480:515   */\n      eq\n        /* \"#utility.yul\":470:533   */\n      tag_520\n      jumpi\n        /* \"#utility.yul\":529:530   */\n      0x00\n        /* \"#utility.yul\":526:527   */\n      0x00\n        /* \"#utility.yul\":519:531   */\n      revert\n        /* \"#utility.yul\":470:533   */\n    tag_520:\n        /* \"#utility.yul\":417:539   */\n      pop\n      jump\t// out\n        /* \"#utility.yul\":545:684   */\n    tag_407:\n        /* \"#utility.yul\":591:596   */\n      0x00\n        /* \"#utility.yul\":629:635   */\n      dup2\n        /* \"#utility.yul\":616:636   */\n      calldataload\n        /* \"#utility.yul\":607:636   */\n      swap1\n      pop\n        /* \"#utility.yul\":645:678   */\n      tag_522\n        /* \"#utility.yul\":672:677   */\n      dup2\n        /* \"#utility.yul\":645:678   */\n      tag_406\n      jump\t// in\n    tag_522:\n        /* \"#utility.yul\":545:684   */\n      swap3\n      swap2\n      pop\n      pop\n      jump\t// out\n        /* \"#utility.yul\":690:1019   */\n    tag_31:\n        /* \"#utility.yul\":749:755   */\n      0x00\n        /* \"#utility.yul\":798:800   */\n      0x20\n        /* \"#utility.yul\":786:795   */\n      dup3\n        /* \"#utility.yul\":777:784   */\n      dup5\n        /* \"#utility.yul\":773:796   */\n      sub\n        /* \"#utility.yul\":769:801   */\n      slt\n        /* \"#utility.yul\":766:885   */\n      iszero\n      tag_524\n      jumpi\n        /* \"#utility.yul\":804:883   */\n      tag_525\n      tag_403\n      jump\t// in\n    tag_525:\n        /* \"#utility.yul\":766:885   */\n    tag_524:\n        /* \"#utility.yul\":924:925   */\n      0x00\n        /* \"#utility.yul\":949:1002   */\n      tag_526\n        /* \"#utility.yul\":994:1001   */\n      dup5\n        /* \"#utility.yul\":985:991   */\n      dup3\n        /* \"#utility.yul\":974:983   */\n      dup6\n        /* \"#utility.yul\":970:992   */\n      add\n        /* \"#utility.yul\":949:1002   */\n      tag_407\n      jump\t// in\n    tag_526:\n        /* \"#utility.yul\":939:1002   */\n      swap2\n      pop\n        /* \"#utility.yul\":895:1012   */\n      pop\n        /* \"#utility.yul\":690:1019   */\n      swap3\n      swap2\n      pop\n      pop\n      jump\t// out\n        /* \"#utility.yul\":1025:1133   */\n    tag_408:\n        /* \"#utility.yul\":1102:1126   */\n      tag_528\n        /* \"#utility.yul\":1120:1125   */\n      dup2\n        /* \"#utility.yul\":1102:1126   */\n      tag_405\n      jump\t// in\n    tag_528:\n        /* \"#utility.yul\":1097:1100   */\n      dup3\n        /* \"#utility.yul\":1090:1127   */\n      mstore\n        /* \"#utility.yul\":1025:1133   */\n      pop\n      pop\n      jump\t// out\n        /* \"#utility.yul\":1139:1265   */\n    tag_409:\n        /* \"#utility.yul\":1176:1183   */\n      0x00\n        /* \"#utility.yul\":1216:1258   */\n      0xffffffffffffffffffffffffffffffffffffffff\n        /* \"#utility.yul\":1209:1214   */\n      dup3\n        /* \"#utility.yul\":1205:1259   */\n      and\n        /* \"#utility.yul\":1194:1259   */\n      swap1\n      pop\n        /* \"#utility.yul\":1139:1265   */\n      swap2\n      swap1\n      pop\n      jump\t// out\n        /* \"#utility.yul\":1271:1367   */\n    tag_410:\n        /* \"#utility.yul\":1308:1315   */\n      0x00\n        /* \"#utility.yul\":1337:1361   */\n      tag_531\n        /* \"#utility.yul\":1355:1360   */\n      dup3\n        /* \"#utility.yul\":1337:1361   */\n      tag_409\n      jump\t// in\n    tag_531:\n        /* \"#utility.yul\":1326:1361   */\n      swap1\n      pop\n        /* \"#utility.yul\":1271:1367   */\n      swap2\n      swap1\n      pop\n      jump\t// out\n        /* \"#utility.yul\":1373:1481   */\n    tag_411:\n        /* \"#utility.yul\":1450:1474   */\n      tag_533\n        /* \"#utility.yul\":1468:1473   */\n      dup2\n        /* \"#utility.yul\":1450:1474   */\n      tag_410\n      jump\t// in\n    tag_533:\n        /* \"#utility.yul\":1445:1448   */\n      dup3\n        /* \"#utility.yul\":1438:1475   */\n      mstore\n        /* \"#utility.yul\":1373:1481   */\n      pop\n      pop\n      jump\t// out\n        /* \"#utility.yul\":1487:1586   */\n    tag_412:\n        /* \"#utility.yul\":1539:1545   */\n      0x00\n        /* \"#utility.yul\":1573:1578   */\n      dup2\n        /* \"#utility.yul\":1567:1579   */\n      mload\n        /* \"#utility.yul\":1557:1579   */\n      swap1\n      pop\n        /* \"#utility.yul\":1487:1586   */\n      swap2\n      swap1\n      pop\n      jump\t// out\n        /* \"#utility.yul\":1592:1751   */\n    tag_413:\n        /* \"#utility.yul\":1666:1677   */\n      0x00\n        /* \"#utility.yul\":1700:1706   */\n      dup3\n        /* \"#utility.yul\":1695:1698   */\n      dup3\n        /* \"#utility.yul\":1688:1707   */\n      mstore\n        /* \"#utility.yul\":1740:1744   */\n      0x20\n        /* \"#utility.yul\":1735:1738   */\n      dup3\n        /* \"#utility.yul\":1731:1745   */\n      add\n        /* \"#utility.yul\":1716:1745   */\n      swap1\n      pop\n        /* \"#utility.yul\":1592:1751   */\n      swap3\n      swap2\n      pop\n      pop\n      jump\t// out\n        /* \"#utility.yul\":1757:1896   */\n    tag_414:\n        /* \"#utility.yul\":1846:1852   */\n      dup3\n        /* \"#utility.yul\":1841:1844   */\n      dup2\n        /* \"#utility.yul\":1836:1839   */\n      dup4\n        /* \"#utility.yul\":1830:1853   */\n      mcopy\n        /* \"#utility.yul\":1887:1888   */\n      0x00\n        /* \"#utility.yul\":1878:1884   */\n      dup4\n        /* \"#utility.yul\":1873:1876   */\n      dup4\n        /* \"#utility.yul\":1869:1885   */\n      add\n        /* \"#utility.yul\":1862:1889   */\n      mstore\n        /* \"#utility.yul\":1757:1896   */\n      pop\n      pop\n      pop\n      jump\t// out\n        /* \"#utility.yul\":1902:2004   */\n    tag_415:\n        /* \"#utility.yul\":1943:1949   */\n      0x00\n        /* \"#utility.yul\":1994:1996   */\n      0x1f\n        /* \"#utility.yul\":1990:1997   */\n      not\n        /* \"#utility.yul\":1985:1987   */\n      0x1f\n        /* \"#utility.yul\":1978:1983   */\n      dup4\n        /* \"#utility.yul\":1974:1988   */\n      add\n        /* \"#utility.yul\":1970:1998   */\n      and\n        /* \"#utility.yul\":1960:1998   */\n      swap1\n      pop\n        /* \"#utility.yul\":1902:2004   */\n      swap2\n      swap1\n      pop\n      jump\t// out\n        /* \"#utility.yul\":2010:2367   */\n    tag_416:\n        /* \"#utility.yul\":2088:2091   */\n      0x00\n        /* \"#utility.yul\":2116:2155   */\n      tag_539\n        /* \"#utility.yul\":2149:2154   */\n      dup3\n        /* \"#utility.yul\":2116:2155   */\n      tag_412\n      jump\t// in\n    tag_539:\n        /* \"#utility.yul\":2171:2232   */\n      tag_540\n        /* \"#utility.yul\":2225:2231   */\n      dup2\n        /* \"#utility.yul\":2220:2223   */\n      dup6\n        /* \"#utility.yul\":2171:2232   */\n      tag_413\n      jump\t// in\n    tag_540:\n        /* \"#utility.yul\":2164:2232   */\n      swap4\n      pop\n        /* \"#utility.yul\":2241:2306   */\n      tag_541\n        /* \"#utility.yul\":2299:2305   */\n      dup2\n        /* \"#utility.yul\":2294:2297   */\n      dup6\n        /* \"#utility.yul\":2287:2291   */\n      0x20\n        /* \"#utility.yul\":2280:2285   */\n      dup7\n        /* \"#utility.yul\":2276:2292   */\n      add\n        /* \"#utility.yul\":2241:2306   */\n      tag_414\n      jump\t// in\n    tag_541:\n        /* \"#utility.yul\":2331:2360   */\n      tag_542\n        /* \"#utility.yul\":2353:2359   */\n      dup2\n        /* \"#utility.yul\":2331:2360   */\n      tag_415\n      jump\t// in\n    tag_542:\n        /* \"#utility.yul\":2326:2329   */\n      dup5\n        /* \"#utility.yul\":2322:2361   */\n      add\n        /* \"#utility.yul\":2315:2361   */\n      swap2\n      pop\n        /* \"#utility.yul\":2092:2367   */\n      pop\n        /* \"#utility.yul\":2010:2367   */\n      swap3\n      swap2\n      pop\n      pop\n      jump\t// out\n        /* \"#utility.yul\":2373:2553   */\n    tag_151:\n        /* \"#utility.yul\":2421:2498   */\n      0x4e487b7100000000000000000000000000000000000000000000000000000000\n        /* \"#utility.yul\":2418:2419   */\n      0x00\n        /* \"#utility.yul\":2411:2499   */\n      mstore\n        /* \"#utility.yul\":2518:2522   */\n      0x21\n        /* \"#utility.yul\":2515:2516   */\n      0x04\n        /* \"#utility.yul\":2508:2523   */\n      mstore\n        /* \"#utility.yul\":2542:2546   */\n      0x24\n        /* \"#utility.yul\":2539:2540   */\n      0x00\n        /* \"#utility.yul\":2532:2547   */\n      revert\n        /* \"#utility.yul\":2559:2681   */\n    tag_417:\n        /* \"#utility.yul\":2649:2650   */\n      0x07\n        /* \"#utility.yul\":2642:2647   */\n      dup2\n        /* \"#utility.yul\":2639:2651   */\n      lt\n        /* \"#utility.yul\":2629:2675   */\n      tag_545\n      jumpi\n        /* \"#utility.yul\":2655:2673   */\n      tag_546\n      tag_151\n      jump\t// in\n    tag_546:\n        /* \"#utility.yul\":2629:2675   */\n    tag_545:\n        /* \"#utility.yul\":2559:2681   */\n      pop\n      jump\t// out\n        /* \"#utility.yul\":2687:2832   */\n    tag_418:\n        /* \"#utility.yul\":2741:2748   */\n      0x00\n        /* \"#utility.yul\":2770:2775   */\n      dup2\n        /* \"#utility.yul\":2759:2775   */\n      swap1\n      pop\n        /* \"#utility.yul\":2776:2826   */\n      tag_548\n        /* \"#utility.yul\":2820:2825   */\n      dup3\n        /* \"#utility.yul\":2776:2826   */\n      tag_417\n      jump\t// in\n    tag_548:\n        /* \"#utility.yul\":2687:2832   */\n      swap2\n      swap1\n      pop\n      jump\t// out\n        /* \"#utility.yul\":2838:2983   */\n    tag_419:\n        /* \"#utility.yul\":2903:2912   */\n      0x00\n        /* \"#utility.yul\":2936:2977   */\n      tag_550\n        /* \"#utility.yul\":2971:2976   */\n      dup3\n        /* \"#utility.yul\":2936:2977   */\n      tag_418\n      jump\t// in\n    tag_550:\n        /* \"#utility.yul\":2923:2977   */\n      swap1\n      pop\n        /* \"#utility.yul\":2838:2983   */\n      swap2\n      swap1\n      pop\n      jump\t// out\n        /* \"#utility.yul\":2989:3140   */\n    tag_420:\n        /* \"#utility.yul\":3081:3133   */\n      tag_552\n        /* \"#utility.yul\":3127:3132   */\n      dup2\n        /* \"#utility.yul\":3081:3133   */\n      tag_419\n      jump\t// in\n    tag_552:\n        /* \"#utility.yul\":3076:3079   */\n      dup3\n        /* \"#utility.yul\":3069:3134   */\n      mstore\n        /* \"#utility.yul\":2989:3140   */\n      pop\n      pop\n      jump\t// out\n        /* \"#utility.yul\":3146:3260   */\n    tag_421:\n        /* \"#utility.yul\":3213:3219   */\n      0x00\n        /* \"#utility.yul\":3247:3252   */\n      dup2\n        /* \"#utility.yul\":3241:3253   */\n      mload\n        /* \"#utility.yul\":3231:3253   */\n      swap1\n      pop\n        /* \"#utility.yul\":3146:3260   */\n      swap2\n      swap1\n      pop\n      jump\t// out\n        /* \"#utility.yul\":3266:3440   */\n    tag_422:\n        /* \"#utility.yul\":3355:3366   */\n      0x00\n        /* \"#utility.yul\":3389:3395   */\n      dup3\n        /* \"#utility.yul\":3384:3387   */\n      dup3\n        /* \"#utility.yul\":3377:3396   */\n      mstore\n        /* \"#utility.yul\":3429:3433   */\n      0x20\n        /* \"#utility.yul\":3424:3427   */\n      dup3\n        /* \"#utility.yul\":3420:3434   */\n      add\n        /* \"#utility.yul\":3405:3434   */\n      swap1\n      pop\n        /* \"#utility.yul\":3266:3440   */\n      swap3\n      swap2\n      pop\n      pop\n      jump\t// out\n        /* \"#utility.yul\":3446:3578   */\n    tag_423:\n        /* \"#utility.yul\":3513:3517   */\n      0x00\n        /* \"#utility.yul\":3536:3539   */\n      dup2\n        /* \"#utility.yul\":3528:3539   */\n      swap1\n      pop\n        /* \"#utility.yul\":3566:3570   */\n      0x20\n        /* \"#utility.yul\":3561:3564   */\n      dup3\n        /* \"#utility.yul\":3557:3571   */\n      add\n        /* \"#utility.yul\":3549:3571   */\n      swap1\n      pop\n        /* \"#utility.yul\":3446:3578   */\n      swap2\n      swap1\n      pop\n      jump\t// out\n        /* \"#utility.yul\":3584:3763   */\n    tag_424:\n        /* \"#utility.yul\":3653:3663   */\n      0x00\n        /* \"#utility.yul\":3674:3720   */\n      tag_557\n        /* \"#utility.yul\":3716:3719   */\n      dup4\n        /* \"#utility.yul\":3708:3714   */\n      dup4\n        /* \"#utility.yul\":3674:3720   */\n      tag_408\n      jump\t// in\n    tag_557:\n        /* \"#utility.yul\":3752:3756   */\n      0x20\n        /* \"#utility.yul\":3747:3750   */\n      dup4\n        /* \"#utility.yul\":3743:3757   */\n      add\n        /* \"#utility.yul\":3729:3757   */\n      swap1\n      pop\n        /* \"#utility.yul\":3584:3763   */\n      swap3\n      swap2\n      pop\n      pop\n      jump\t// out\n        /* \"#utility.yul\":3769:3882   */\n    tag_425:\n        /* \"#utility.yul\":3839:3843   */\n      0x00\n        /* \"#utility.yul\":3871:3875   */\n      0x20\n        /* \"#utility.yul\":3866:3869   */\n      dup3\n        /* \"#utility.yul\":3862:3876   */\n      add\n        /* \"#utility.yul\":3854:3876   */\n      swap1\n      pop\n        /* \"#utility.yul\":3769:3882   */\n      swap2\n      swap1\n      pop\n      jump\t// out\n        /* \"#utility.yul\":3918:4630   */\n    tag_426:\n        /* \"#utility.yul\":4027:4030   */\n      0x00\n        /* \"#utility.yul\":4056:4110   */\n      tag_560\n        /* \"#utility.yul\":4104:4109   */\n      dup3\n        /* \"#utility.yul\":4056:4110   */\n      tag_421\n      jump\t// in\n    tag_560:\n        /* \"#utility.yul\":4126:4202   */\n      tag_561\n        /* \"#utility.yul\":4195:4201   */\n      dup2\n        /* \"#utility.yul\":4190:4193   */\n      dup6\n        /* \"#utility.yul\":4126:4202   */\n      tag_422\n      jump\t// in\n    tag_561:\n        /* \"#utility.yul\":4119:4202   */\n      swap4\n      pop\n        /* \"#utility.yul\":4226:4282   */\n      tag_562\n        /* \"#utility.yul\":4276:4281   */\n      dup4\n        /* \"#utility.yul\":4226:4282   */\n      tag_423\n      jump\t// in\n    tag_562:\n        /* \"#utility.yul\":4305:4312   */\n      dup1\n        /* \"#utility.yul\":4336:4337   */\n      0x00\n        /* \"#utility.yul\":4321:4605   */\n    tag_563:\n        /* \"#utility.yul\":4346:4352   */\n      dup4\n        /* \"#utility.yul\":4343:4344   */\n      dup2\n        /* \"#utility.yul\":4340:4353   */\n      lt\n        /* \"#utility.yul\":4321:4605   */\n      iszero\n      tag_565\n      jumpi\n        /* \"#utility.yul\":4422:4428   */\n      dup2\n        /* \"#utility.yul\":4416:4429   */\n      mload\n        /* \"#utility.yul\":4449:4512   */\n      tag_566\n        /* \"#utility.yul\":4508:4511   */\n      dup9\n        /* \"#utility.yul\":4493:4506   */\n      dup3\n        /* \"#utility.yul\":4449:4512   */\n      tag_424\n      jump\t// in\n    tag_566:\n        /* \"#utility.yul\":4442:4512   */\n      swap8\n      pop\n        /* \"#utility.yul\":4535:4595   */\n      tag_567\n        /* \"#utility.yul\":4588:4594   */\n      dup4\n        /* \"#utility.yul\":4535:4595   */\n      tag_425\n      jump\t// in\n    tag_567:\n        /* \"#utility.yul\":4525:4595   */\n      swap3\n      pop\n        /* \"#utility.yul\":4381:4605   */\n      pop\n        /* \"#utility.yul\":4368:4369   */\n      0x01\n        /* \"#utility.yul\":4365:4366   */\n      dup2\n        /* \"#utility.yul\":4361:4370   */\n      add\n        /* \"#utility.yul\":4356:4370   */\n      swap1\n      pop\n        /* \"#utility.yul\":4321:4605   */\n      jump(tag_563)\n    tag_565:\n        /* \"#utility.yul\":4325:4339   */\n      pop\n        /* \"#utility.yul\":4621:4624   */\n      dup6\n        /* \"#utility.yul\":4614:4624   */\n      swap4\n      pop\n        /* \"#utility.yul\":4032:4630   */\n      pop\n      pop\n      pop\n        /* \"#utility.yul\":3918:4630   */\n      swap3\n      swap2\n      pop\n      pop\n      jump\t// out\n        /* \"#utility.yul\":4636:4726   */\n    tag_427:\n        /* \"#utility.yul\":4670:4677   */\n      0x00\n        /* \"#utility.yul\":4713:4718   */\n      dup2\n        /* \"#utility.yul\":4706:4719   */\n      iszero\n        /* \"#utility.yul\":4699:4720   */\n      iszero\n        /* \"#utility.yul\":4688:4720   */\n      swap1\n      pop\n        /* \"#utility.yul\":4636:4726   */\n      swap2\n      swap1\n      pop\n      jump\t// out\n        /* \"#utility.yul\":4732:4831   */\n    tag_428:\n        /* \"#utility.yul\":4803:4824   */\n      tag_570\n        /* \"#utility.yul\":4818:4823   */\n      dup2\n        /* \"#utility.yul\":4803:4824   */\n      tag_427\n      jump\t// in\n    tag_570:\n        /* \"#utility.yul\":4798:4801   */\n      dup3\n        /* \"#utility.yul\":4791:4825   */\n      mstore\n        /* \"#utility.yul\":4732:4831   */\n      pop\n      pop\n      jump\t// out\n        /* \"#utility.yul\":4915:7694   */\n    tag_429:\n        /* \"#utility.yul\":5032:5035   */\n      0x00\n        /* \"#utility.yul\":5068:5074   */\n      0x0180\n        /* \"#utility.yul\":5063:5066   */\n      dup4\n        /* \"#utility.yul\":5059:5075   */\n      add\n        /* \"#utility.yul\":5155:5159   */\n      0x00\n        /* \"#utility.yul\":5148:5153   */\n      dup4\n        /* \"#utility.yul\":5144:5160   */\n      add\n        /* \"#utility.yul\":5138:5161   */\n      mload\n        /* \"#utility.yul\":5174:5237   */\n      tag_572\n        /* \"#utility.yul\":5231:5235   */\n      0x00\n        /* \"#utility.yul\":5226:5229   */\n      dup7\n        /* \"#utility.yul\":5222:5236   */\n      add\n        /* \"#utility.yul\":5208:5220   */\n      dup3\n        /* \"#utility.yul\":5174:5237   */\n      tag_408\n      jump\t// in\n    tag_572:\n        /* \"#utility.yul\":5085:5247   */\n      pop\n        /* \"#utility.yul\":5331:5335   */\n      0x20\n        /* \"#utility.yul\":5324:5329   */\n      dup4\n        /* \"#utility.yul\":5320:5336   */\n      add\n        /* \"#utility.yul\":5314:5337   */\n      mload\n        /* \"#utility.yul\":5350:5413   */\n      tag_573\n        /* \"#utility.yul\":5407:5411   */\n      0x20\n        /* \"#utility.yul\":5402:5405   */\n      dup7\n        /* \"#utility.yul\":5398:5412   */\n      add\n        /* \"#utility.yul\":5384:5396   */\n      dup3\n        /* \"#utility.yul\":5350:5413   */\n      tag_411\n      jump\t// in\n    tag_573:\n        /* \"#utility.yul\":5257:5423   */\n      pop\n        /* \"#utility.yul\":5510:5514   */\n      0x40\n        /* \"#utility.yul\":5503:5508   */\n      dup4\n        /* \"#utility.yul\":5499:5515   */\n      add\n        /* \"#utility.yul\":5493:5516   */\n      mload\n        /* \"#utility.yul\":5529:5592   */\n      tag_574\n        /* \"#utility.yul\":5586:5590   */\n      0x40\n        /* \"#utility.yul\":5581:5584   */\n      dup7\n        /* \"#utility.yul\":5577:5591   */\n      add\n        /* \"#utility.yul\":5563:5575   */\n      dup3\n        /* \"#utility.yul\":5529:5592   */\n      tag_411\n      jump\t// in\n    tag_574:\n        /* \"#utility.yul\":5433:5602   */\n      pop\n        /* \"#utility.yul\":5687:5691   */\n      0x60\n        /* \"#utility.yul\":5680:5685   */\n      dup4\n        /* \"#utility.yul\":5676:5692   */\n      add\n        /* \"#utility.yul\":5670:5693   */\n      mload\n        /* \"#utility.yul\":5740:5743   */\n      dup5\n        /* \"#utility.yul\":5734:5738   */\n      dup3\n        /* \"#utility.yul\":5730:5744   */\n      sub\n        /* \"#utility.yul\":5723:5727   */\n      0x60\n        /* \"#utility.yul\":5718:5721   */\n      dup7\n        /* \"#utility.yul\":5714:5728   */\n      add\n        /* \"#utility.yul\":5707:5745   */\n      mstore\n        /* \"#utility.yul\":5766:5839   */\n      tag_575\n        /* \"#utility.yul\":5834:5838   */\n      dup3\n        /* \"#utility.yul\":5820:5832   */\n      dup3\n        /* \"#utility.yul\":5766:5839   */\n      tag_416\n      jump\t// in\n    tag_575:\n        /* \"#utility.yul\":5758:5839   */\n      swap2\n      pop\n        /* \"#utility.yul\":5612:5850   */\n      pop\n        /* \"#utility.yul\":5934:5938   */\n      0x80\n        /* \"#utility.yul\":5927:5932   */\n      dup4\n        /* \"#utility.yul\":5923:5939   */\n      add\n        /* \"#utility.yul\":5917:5940   */\n      mload\n        /* \"#utility.yul\":5987:5990   */\n      dup5\n        /* \"#utility.yul\":5981:5985   */\n      dup3\n        /* \"#utility.yul\":5977:5991   */\n      sub\n        /* \"#utility.yul\":5970:5974   */\n      0x80\n        /* \"#utility.yul\":5965:5968   */\n      dup7\n        /* \"#utility.yul\":5961:5975   */\n      add\n        /* \"#utility.yul\":5954:5992   */\n      mstore\n        /* \"#utility.yul\":6013:6086   */\n      tag_576\n        /* \"#utility.yul\":6081:6085   */\n      dup3\n        /* \"#utility.yul\":6067:6079   */\n      dup3\n        /* \"#utility.yul\":6013:6086   */\n      tag_416\n      jump\t// in\n    tag_576:\n        /* \"#utility.yul\":6005:6086   */\n      swap2\n      pop\n        /* \"#utility.yul\":5860:6097   */\n      pop\n        /* \"#utility.yul\":6186:6190   */\n      0xa0\n        /* \"#utility.yul\":6179:6184   */\n      dup4\n        /* \"#utility.yul\":6175:6191   */\n      add\n        /* \"#utility.yul\":6169:6192   */\n      mload\n        /* \"#utility.yul\":6239:6242   */\n      dup5\n        /* \"#utility.yul\":6233:6237   */\n      dup3\n        /* \"#utility.yul\":6229:6243   */\n      sub\n        /* \"#utility.yul\":6222:6226   */\n      0xa0\n        /* \"#utility.yul\":6217:6220   */\n      dup7\n        /* \"#utility.yul\":6213:6227   */\n      add\n        /* \"#utility.yul\":6206:6244   */\n      mstore\n        /* \"#utility.yul\":6265:6338   */\n      tag_577\n        /* \"#utility.yul\":6333:6337   */\n      dup3\n        /* \"#utility.yul\":6319:6331   */\n      dup3\n        /* \"#utility.yul\":6265:6338   */\n      tag_416\n      jump\t// in\n    tag_577:\n        /* \"#utility.yul\":6257:6338   */\n      swap2\n      pop\n        /* \"#utility.yul\":6107:6349   */\n      pop\n        /* \"#utility.yul\":6438:6442   */\n      0xc0\n        /* \"#utility.yul\":6431:6436   */\n      dup4\n        /* \"#utility.yul\":6427:6443   */\n      add\n        /* \"#utility.yul\":6421:6444   */\n      mload\n        /* \"#utility.yul\":6457:6520   */\n      tag_578\n        /* \"#utility.yul\":6514:6518   */\n      0xc0\n        /* \"#utility.yul\":6509:6512   */\n      dup7\n        /* \"#utility.yul\":6505:6519   */\n      add\n        /* \"#utility.yul\":6491:6503   */\n      dup3\n        /* \"#utility.yul\":6457:6520   */\n      tag_408\n      jump\t// in\n    tag_578:\n        /* \"#utility.yul\":6359:6530   */\n      pop\n        /* \"#utility.yul\":6621:6625   */\n      0xe0\n        /* \"#utility.yul\":6614:6619   */\n      dup4\n        /* \"#utility.yul\":6610:6626   */\n      add\n        /* \"#utility.yul\":6604:6627   */\n      mload\n        /* \"#utility.yul\":6640:6703   */\n      tag_579\n        /* \"#utility.yul\":6697:6701   */\n      0xe0\n        /* \"#utility.yul\":6692:6695   */\n      dup7\n        /* \"#utility.yul\":6688:6702   */\n      add\n        /* \"#utility.yul\":6674:6686   */\n      dup3\n        /* \"#utility.yul\":6640:6703   */\n      tag_408\n      jump\t// in\n    tag_579:\n        /* \"#utility.yul\":6540:6713   */\n      pop\n        /* \"#utility.yul\":6797:6803   */\n      0x0100\n        /* \"#utility.yul\":6790:6795   */\n      dup4\n        /* \"#utility.yul\":6786:6804   */\n      add\n        /* \"#utility.yul\":6780:6805   */\n      mload\n        /* \"#utility.yul\":6818:6898   */\n      tag_580\n        /* \"#utility.yul\":6890:6896   */\n      0x0100\n        /* \"#utility.yul\":6885:6888   */\n      dup7\n        /* \"#utility.yul\":6881:6897   */\n      add\n        /* \"#utility.yul\":6867:6879   */\n      dup3\n        /* \"#utility.yul\":6818:6898   */\n      tag_420\n      jump\t// in\n    tag_580:\n        /* \"#utility.yul\":6723:6908   */\n      pop\n        /* \"#utility.yul\":6999:7005   */\n      0x0120\n        /* \"#utility.yul\":6992:6997   */\n      dup4\n        /* \"#utility.yul\":6988:7006   */\n      add\n        /* \"#utility.yul\":6982:7007   */\n      mload\n        /* \"#utility.yul\":7056:7059   */\n      dup5\n        /* \"#utility.yul\":7050:7054   */\n      dup3\n        /* \"#utility.yul\":7046:7060   */\n      sub\n        /* \"#utility.yul\":7037:7043   */\n      0x0120\n        /* \"#utility.yul\":7032:7035   */\n      dup7\n        /* \"#utility.yul\":7028:7044   */\n      add\n        /* \"#utility.yul\":7021:7061   */\n      mstore\n        /* \"#utility.yul\":7082:7185   */\n      tag_581\n        /* \"#utility.yul\":7180:7184   */\n      dup3\n        /* \"#utility.yul\":7166:7178   */\n      dup3\n        /* \"#utility.yul\":7082:7185   */\n      tag_426\n      jump\t// in\n    tag_581:\n        /* \"#utility.yul\":7074:7185   */\n      swap2\n      pop\n        /* \"#utility.yul\":6918:7196   */\n      pop\n        /* \"#utility.yul\":7285:7291   */\n      0x0140\n        /* \"#utility.yul\":7278:7283   */\n      dup4\n        /* \"#utility.yul\":7274:7292   */\n      add\n        /* \"#utility.yul\":7268:7293   */\n      mload\n        /* \"#utility.yul\":7342:7345   */\n      dup5\n        /* \"#utility.yul\":7336:7340   */\n      dup3\n        /* \"#utility.yul\":7332:7346   */\n      sub\n        /* \"#utility.yul\":7323:7329   */\n      0x0140\n        /* \"#utility.yul\":7318:7321   */\n      dup7\n        /* \"#utility.yul\":7314:7330   */\n      add\n        /* \"#utility.yul\":7307:7347   */\n      mstore\n        /* \"#utility.yul\":7368:7471   */\n      tag_582\n        /* \"#utility.yul\":7466:7470   */\n      dup3\n        /* \"#utility.yul\":7452:7464   */\n      dup3\n        /* \"#utility.yul\":7368:7471   */\n      tag_426\n      jump\t// in\n    tag_582:\n        /* \"#utility.yul\":7360:7471   */\n      swap2\n      pop\n        /* \"#utility.yul\":7206:7482   */\n      pop\n        /* \"#utility.yul\":7577:7583   */\n      0x0160\n        /* \"#utility.yul\":7570:7575   */\n      dup4\n        /* \"#utility.yul\":7566:7584   */\n      add\n        /* \"#utility.yul\":7560:7585   */\n      mload\n        /* \"#utility.yul\":7598:7657   */\n      tag_583\n        /* \"#utility.yul\":7649:7655   */\n      0x0160\n        /* \"#utility.yul\":7644:7647   */\n      dup7\n        /* \"#utility.yul\":7640:7656   */\n      add\n        /* \"#utility.yul\":7626:7638   */\n      dup3\n        /* \"#utility.yul\":7598:7657   */\n      tag_428\n      jump\t// in\n    tag_583:\n        /* \"#utility.yul\":7492:7667   */\n      pop\n        /* \"#utility.yul\":7684:7688   */\n      dup1\n        /* \"#utility.yul\":7677:7688   */\n      swap2\n      pop\n        /* \"#utility.yul\":5037:7694   */\n      pop\n        /* \"#utility.yul\":4915:7694   */\n      swap3\n      swap2\n      pop\n      pop\n      jump\t// out\n        /* \"#utility.yul\":7700:8069   */\n    tag_34:\n        /* \"#utility.yul\":7841:7845   */\n      0x00\n        /* \"#utility.yul\":7879:7881   */\n      0x20\n        /* \"#utility.yul\":7868:7877   */\n      dup3\n        /* \"#utility.yul\":7864:7882   */\n      add\n        /* \"#utility.yul\":7856:7882   */\n      swap1\n      pop\n        /* \"#utility.yul\":7928:7937   */\n      dup2\n        /* \"#utility.yul\":7922:7926   */\n      dup2\n        /* \"#utility.yul\":7918:7938   */\n      sub\n        /* \"#utility.yul\":7914:7915   */\n      0x00\n        /* \"#utility.yul\":7903:7912   */\n      dup4\n        /* \"#utility.yul\":7899:7916   */\n      add\n        /* \"#utility.yul\":7892:7939   */\n      mstore\n        /* \"#utility.yul\":7956:8062   */\n      tag_585\n        /* \"#utility.yul\":8057:8061   */\n      dup2\n        /* \"#utility.yul\":8048:8054   */\n      dup5\n        /* \"#utility.yul\":7956:8062   */\n      tag_429\n      jump\t// in\n    tag_585:\n        /* \"#utility.yul\":7948:8062   */\n      swap1\n      pop\n        /* \"#utility.yul\":7700:8069   */\n      swap3\n      swap2\n      pop\n      pop\n      jump\t// out\n        /* \"#utility.yul\":8075:8193   */\n    tag_430:\n        /* \"#utility.yul\":8162:8186   */\n      tag_587\n        /* \"#utility.yul\":8180:8185   */\n      dup2\n        /* \"#utility.yul\":8162:8186   */\n      tag_405\n      jump\t// in\n    tag_587:\n        /* \"#utility.yul\":8157:8160   */\n      dup3\n        /* \"#utility.yul\":8150:8187   */\n      mstore\n        /* \"#utility.yul\":8075:8193   */\n      pop\n      pop\n      jump\t// out\n        /* \"#utility.yul\":8199:8421   */\n    tag_38:\n        /* \"#utility.yul\":8292:8296   */\n      0x00\n        /* \"#utility.yul\":8330:8332   */\n      0x20\n        /* \"#utility.yul\":8319:8328   */\n      dup3\n        /* \"#utility.yul\":8315:8333   */\n      add\n        /* \"#utility.yul\":8307:8333   */\n      swap1\n      pop\n        /* \"#utility.yul\":8343:8414   */\n      tag_589\n        /* \"#utility.yul\":8411:8412   */\n      0x00\n        /* \"#utility.yul\":8400:8409   */\n      dup4\n        /* \"#utility.yul\":8396:8413   */\n      add\n        /* \"#utility.yul\":8387:8393   */\n      dup5\n        /* \"#utility.yul\":8343:8414   */\n      tag_430\n      jump\t// in\n    tag_589:\n        /* \"#utility.yul\":8199:8421   */\n      swap3\n      swap2\n      pop\n      pop\n      jump\t// out\n        /* \"#utility.yul\":8427:8545   */\n    tag_431:\n        /* \"#utility.yul\":8514:8538   */\n      tag_591\n        /* \"#utility.yul\":8532:8537   */\n      dup2\n        /* \"#utility.yul\":8514:8538   */\n      tag_410\n      jump\t// in\n    tag_591:\n        /* \"#utility.yul\":8509:8512   */\n      dup3\n        /* \"#utility.yul\":8502:8539   */\n      mstore\n        /* \"#utility.yul\":8427:8545   */\n      pop\n      pop\n      jump\t// out\n        /* \"#utility.yul\":8551:8720   */\n    tag_432:\n        /* \"#utility.yul\":8635:8646   */\n      0x00\n        /* \"#utility.yul\":8669:8675   */\n      dup3\n        /* \"#utility.yul\":8664:8667   */\n      dup3\n        /* \"#utility.yul\":8657:8676   */\n      mstore\n        /* \"#utility.yul\":8709:8713   */\n      0x20\n        /* \"#utility.yul\":8704:8707   */\n      dup3\n        /* \"#utility.yul\":8700:8714   */\n      add\n        /* \"#utility.yul\":8685:8714   */\n      swap1\n      pop\n        /* \"#utility.yul\":8551:8720   */\n      swap3\n      swap2\n      pop\n      pop\n      jump\t// out\n        /* \"#utility.yul\":8726:9103   */\n    tag_433:\n        /* \"#utility.yul\":8814:8817   */\n      0x00\n        /* \"#utility.yul\":8842:8881   */\n      tag_594\n        /* \"#utility.yul\":8875:8880   */\n      dup3\n        /* \"#utility.yul\":8842:8881   */\n      tag_412\n      jump\t// in\n    tag_594:\n        /* \"#utility.yul\":8897:8968   */\n      tag_595\n        /* \"#utility.yul\":8961:8967   */\n      dup2\n        /* \"#utility.yul\":8956:8959   */\n      dup6\n        /* \"#utility.yul\":8897:8968   */\n      tag_432\n      jump\t// in\n    tag_595:\n        /* \"#utility.yul\":8890:8968   */\n      swap4\n      pop\n        /* \"#utility.yul\":8977:9042   */\n      tag_596\n        /* \"#utility.yul\":9035:9041   */\n      dup2\n        /* \"#utility.yul\":9030:9033   */\n      dup6\n        /* \"#utility.yul\":9023:9027   */\n      0x20\n        /* \"#utility.yul\":9016:9021   */\n      dup7\n        /* \"#utility.yul\":9012:9028   */\n      add\n        /* \"#utility.yul\":8977:9042   */\n      tag_414\n      jump\t// in\n    tag_596:\n        /* \"#utility.yul\":9067:9096   */\n      tag_597\n        /* \"#utility.yul\":9089:9095   */\n      dup2\n        /* \"#utility.yul\":9067:9096   */\n      tag_415\n      jump\t// in\n    tag_597:\n        /* \"#utility.yul\":9062:9065   */\n      dup5\n        /* \"#utility.yul\":9058:9097   */\n      add\n        /* \"#utility.yul\":9051:9097   */\n      swap2\n      pop\n        /* \"#utility.yul\":8818:9103   */\n      pop\n        /* \"#utility.yul\":8726:9103   */\n      swap3\n      swap2\n      pop\n      pop\n      jump\t// out\n        /* \"#utility.yul\":9109:9270   */\n    tag_434:\n        /* \"#utility.yul\":9211:9263   */\n      tag_599\n        /* \"#utility.yul\":9257:9262   */\n      dup2\n        /* \"#utility.yul\":9211:9263   */\n      tag_419\n      jump\t// in\n    tag_599:\n        /* \"#utility.yul\":9206:9209   */\n      dup3\n        /* \"#utility.yul\":9199:9264   */\n      mstore\n        /* \"#utility.yul\":9109:9270   */\n      pop\n      pop\n      jump\t// out\n        /* \"#utility.yul\":9276:9385   */\n    tag_435:\n        /* \"#utility.yul\":9357:9378   */\n      tag_601\n        /* \"#utility.yul\":9372:9377   */\n      dup2\n        /* \"#utility.yul\":9357:9378   */\n      tag_427\n      jump\t// in\n    tag_601:\n        /* \"#utility.yul\":9352:9355   */\n      dup3\n        /* \"#utility.yul\":9345:9379   */\n      mstore\n        /* \"#utility.yul\":9276:9385   */\n      pop\n      pop\n      jump\t// out\n        /* \"#utility.yul\":9391:10901   */\n    tag_46:\n        /* \"#utility.yul\":9805:9809   */\n      0x00\n        /* \"#utility.yul\":9843:9846   */\n      0x0140\n        /* \"#utility.yul\":9832:9841   */\n      dup3\n        /* \"#utility.yul\":9828:9847   */\n      add\n        /* \"#utility.yul\":9820:9847   */\n      swap1\n      pop\n        /* \"#utility.yul\":9857:9928   */\n      tag_603\n        /* \"#utility.yul\":9925:9926   */\n      0x00\n        /* \"#utility.yul\":9914:9923   */\n      dup4\n        /* \"#utility.yul\":9910:9927   */\n      add\n        /* \"#utility.yul\":9901:9907   */\n      dup14\n        /* \"#utility.yul\":9857:9928   */\n      tag_430\n      jump\t// in\n    tag_603:\n        /* \"#utility.yul\":9938:10010   */\n      tag_604\n        /* \"#utility.yul\":10006:10008   */\n      0x20\n        /* \"#utility.yul\":9995:10004   */\n      dup4\n        /* \"#utility.yul\":9991:10009   */\n      add\n        /* \"#utility.yul\":9982:9988   */\n      dup13\n        /* \"#utility.yul\":9938:10010   */\n      tag_431\n      jump\t// in\n    tag_604:\n        /* \"#utility.yul\":10020:10092   */\n      tag_605\n        /* \"#utility.yul\":10088:10090   */\n      0x40\n        /* \"#utility.yul\":10077:10086   */\n      dup4\n        /* \"#utility.yul\":10073:10091   */\n      add\n        /* \"#utility.yul\":10064:10070   */\n      dup12\n        /* \"#utility.yul\":10020:10092   */\n      tag_431\n      jump\t// in\n    tag_605:\n        /* \"#utility.yul\":10139:10148   */\n      dup2\n        /* \"#utility.yul\":10133:10137   */\n      dup2\n        /* \"#utility.yul\":10129:10149   */\n      sub\n        /* \"#utility.yul\":10124:10126   */\n      0x60\n        /* \"#utility.yul\":10113:10122   */\n      dup4\n        /* \"#utility.yul\":10109:10127   */\n      add\n        /* \"#utility.yul\":10102:10150   */\n      mstore\n        /* \"#utility.yul\":10167:10245   */\n      tag_606\n        /* \"#utility.yul\":10240:10244   */\n      dup2\n        /* \"#utility.yul\":10231:10237   */\n      dup11\n        /* \"#utility.yul\":10167:10245   */\n      tag_433\n      jump\t// in\n    tag_606:\n        /* \"#utility.yul\":10159:10245   */\n      swap1\n      pop\n        /* \"#utility.yul\":10293:10302   */\n      dup2\n        /* \"#utility.yul\":10287:10291   */\n      dup2\n        /* \"#utility.yul\":10283:10303   */\n      sub\n        /* \"#utility.yul\":10277:10280   */\n      0x80\n        /* \"#utility.yul\":10266:10275   */\n      dup4\n        /* \"#utility.yul\":10262:10281   */\n      add\n        /* \"#utility.yul\":10255:10304   */\n      mstore\n        /* \"#utility.yul\":10321:10399   */\n      tag_607\n        /* \"#utility.yul\":10394:10398   */\n      dup2\n        /* \"#utility.yul\":10385:10391   */\n      dup10\n        /* \"#utility.yul\":10321:10399   */\n      tag_433\n      jump\t// in\n    tag_607:\n        /* \"#utility.yul\":10313:10399   */\n      swap1\n      pop\n        /* \"#utility.yul\":10447:10456   */\n      dup2\n        /* \"#utility.yul\":10441:10445   */\n      dup2\n        /* \"#utility.yul\":10437:10457   */\n      sub\n        /* \"#utility.yul\":10431:10434   */\n      0xa0\n        /* \"#utility.yul\":10420:10429   */\n      dup4\n        /* \"#utility.yul\":10416:10435   */\n      add\n        /* \"#utility.yul\":10409:10458   */\n      mstore\n        /* \"#utility.yul\":10475:10553   */\n      tag_608\n        /* \"#utility.yul\":10548:10552   */\n      dup2\n        /* \"#utility.yul\":10539:10545   */\n      dup9\n        /* \"#utility.yul\":10475:10553   */\n      tag_433\n      jump\t// in\n    tag_608:\n        /* \"#utility.yul\":10467:10553   */\n      swap1\n      pop\n        /* \"#utility.yul\":10563:10636   */\n      tag_609\n        /* \"#utility.yul\":10631:10634   */\n      0xc0\n        /* \"#utility.yul\":10620:10629   */\n      dup4\n        /* \"#utility.yul\":10616:10635   */\n      add\n        /* \"#utility.yul\":10607:10613   */\n      dup8\n        /* \"#utility.yul\":10563:10636   */\n      tag_430\n      jump\t// in\n    tag_609:\n        /* \"#utility.yul\":10646:10719   */\n      tag_610\n        /* \"#utility.yul\":10714:10717   */\n      0xe0\n        /* \"#utility.yul\":10703:10712   */\n      dup4\n        /* \"#utility.yul\":10699:10718   */\n      add\n        /* \"#utility.yul\":10690:10696   */\n      dup7\n        /* \"#utility.yul\":10646:10719   */\n      tag_430\n      jump\t// in\n    tag_610:\n        /* \"#utility.yul\":10729:10817   */\n      tag_611\n        /* \"#utility.yul\":10812:10815   */\n      0x0100\n        /* \"#utility.yul\":10801:10810   */\n      dup4\n        /* \"#utility.yul\":10797:10816   */\n      add\n        /* \"#utility.yul\":10788:10794   */\n      dup6\n        /* \"#utility.yul\":10729:10817   */\n      tag_434\n      jump\t// in\n    tag_611:\n        /* \"#utility.yul\":10827:10894   */\n      tag_612\n        /* \"#utility.yul\":10889:10892   */\n      0x0120\n        /* \"#utility.yul\":10878:10887   */\n      dup4\n        /* \"#utility.yul\":10874:10893   */\n      add\n        /* \"#utility.yul\":10865:10871   */\n      dup5\n        /* \"#utility.yul\":10827:10894   */\n      tag_435\n      jump\t// in\n    tag_612:\n        /* \"#utility.yul\":9391:10901   */\n      swap12\n      swap11\n      pop\n      pop\n      pop\n      pop\n      pop\n      pop\n      pop\n      pop\n      pop\n      pop\n      pop\n      jump\t// out\n        /* \"#utility.yul\":10907:11024   */\n    tag_436:\n        /* \"#utility.yul\":11016:11017   */\n      0x00\n        /* \"#utility.yul\":11013:11014   */\n      0x00\n        /* \"#utility.yul\":11006:11018   */\n      revert\n        /* \"#utility.yul\":11030:11147   */\n    tag_437:\n        /* \"#utility.yul\":11139:11140   */\n      0x00\n        /* \"#utility.yul\":11136:11137   */\n      0x00\n        /* \"#utility.yul\":11129:11141   */\n      revert\n        /* \"#utility.yul\":11153:11333   */\n    tag_243:\n        /* \"#utility.yul\":11201:11278   */\n      0x4e487b7100000000000000000000000000000000000000000000000000000000\n        /* \"#utility.yul\":11198:11199   */\n      0x00\n        /* \"#utility.yul\":11191:11279   */\n      mstore\n        /* \"#utility.yul\":11298:11302   */\n      0x41\n        /* \"#utility.yul\":11295:11296   */\n      0x04\n        /* \"#utility.yul\":11288:11303   */\n      mstore\n        /* \"#utility.yul\":11322:11326   */\n      0x24\n        /* \"#utility.yul\":11319:11320   */\n      0x00\n        /* \"#utility.yul\":11312:11327   */\n      revert\n        /* \"#utility.yul\":11339:11620   */\n    tag_438:\n        /* \"#utility.yul\":11422:11449   */\n      tag_617\n        /* \"#utility.yul\":11444:11448   */\n      dup3\n        /* \"#utility.yul\":11422:11449   */\n      tag_415\n      jump\t// in\n    tag_617:\n        /* \"#utility.yul\":11414:11420   */\n      dup2\n        /* \"#utility.yul\":11410:11450   */\n      add\n        /* \"#utility.yul\":11552:11558   */\n      dup2\n        /* \"#utility.yul\":11540:11550   */\n      dup2\n        /* \"#utility.yul\":11537:11559   */\n      lt\n        /* \"#utility.yul\":11516:11534   */\n      0xffffffffffffffff\n        /* \"#utility.yul\":11504:11514   */\n      dup3\n        /* \"#utility.yul\":11501:11535   */\n      gt\n        /* \"#utility.yul\":11498:11560   */\n      or\n        /* \"#utility.yul\":11495:11583   */\n      iszero\n      tag_618\n      jumpi\n        /* \"#utility.yul\":11563:11581   */\n      tag_619\n      tag_243\n      jump\t// in\n    tag_619:\n        /* \"#utility.yul\":11495:11583   */\n    tag_618:\n        /* \"#utility.yul\":11603:11613   */\n      dup1\n        /* \"#utility.yul\":11599:11601   */\n      0x40\n        /* \"#utility.yul\":11592:11614   */\n      mstore\n        /* \"#utility.yul\":11382:11620   */\n      pop\n        /* \"#utility.yul\":11339:11620   */\n      pop\n      pop\n      jump\t// out\n        /* \"#utility.yul\":11626:11755   */\n    tag_439:\n        /* \"#utility.yul\":11660:11666   */\n      0x00\n        /* \"#utility.yul\":11687:11707   */\n      tag_621\n      tag_402\n      jump\t// in\n    tag_621:\n        /* \"#utility.yul\":11677:11707   */\n      swap1\n      pop\n        /* \"#utility.yul\":11716:11749   */\n      tag_622\n        /* \"#utility.yul\":11744:11748   */\n      dup3\n        /* \"#utility.yul\":11736:11742   */\n      dup3\n        /* \"#utility.yul\":11716:11749   */\n      tag_438\n      jump\t// in\n    tag_622:\n        /* \"#utility.yul\":11626:11755   */\n      swap2\n      swap1\n      pop\n      jump\t// out\n        /* \"#utility.yul\":11761:12069   */\n    tag_440:\n        /* \"#utility.yul\":11823:11827   */\n      0x00\n        /* \"#utility.yul\":11913:11931   */\n      0xffffffffffffffff\n        /* \"#utility.yul\":11905:11911   */\n      dup3\n        /* \"#utility.yul\":11902:11932   */\n      gt\n        /* \"#utility.yul\":11899:11955   */\n      iszero\n      tag_624\n      jumpi\n        /* \"#utility.yul\":11935:11953   */\n      tag_625\n      tag_243\n      jump\t// in\n    tag_625:\n        /* \"#utility.yul\":11899:11955   */\n    tag_624:\n        /* \"#utility.yul\":11973:12002   */\n      tag_626\n        /* \"#utility.yul\":11995:12001   */\n      dup3\n        /* \"#utility.yul\":11973:12002   */\n      tag_415\n      jump\t// in\n    tag_626:\n        /* \"#utility.yul\":11965:12002   */\n      swap1\n      pop\n        /* \"#utility.yul\":12057:12061   */\n      0x20\n        /* \"#utility.yul\":12051:12055   */\n      dup2\n        /* \"#utility.yul\":12047:12062   */\n      add\n        /* \"#utility.yul\":12039:12062   */\n      swap1\n      pop\n        /* \"#utility.yul\":11761:12069   */\n      swap2\n      swap1\n      pop\n      jump\t// out\n        /* \"#utility.yul\":12075:12223   */\n    tag_441:\n        /* \"#utility.yul\":12173:12179   */\n      dup3\n        /* \"#utility.yul\":12168:12171   */\n      dup2\n        /* \"#utility.yul\":12163:12166   */\n      dup4\n        /* \"#utility.yul\":12150:12180   */\n      calldatacopy\n        /* \"#utility.yul\":12214:12215   */\n      0x00\n        /* \"#utility.yul\":12205:12211   */\n      dup4\n        /* \"#utility.yul\":12200:12203   */\n      dup4\n        /* \"#utility.yul\":12196:12212   */\n      add\n        /* \"#utility.yul\":12189:12216   */\n      mstore\n        /* \"#utility.yul\":12075:12223   */\n      pop\n      pop\n      pop\n      jump\t// out\n        /* \"#utility.yul\":12229:12654   */\n    tag_442:\n        /* \"#utility.yul\":12307:12312   */\n      0x00\n        /* \"#utility.yul\":12332:12398   */\n      tag_629\n        /* \"#utility.yul\":12348:12397   */\n      tag_630\n        /* \"#utility.yul\":12390:12396   */\n      dup5\n        /* \"#utility.yul\":12348:12397   */\n      tag_440\n      jump\t// in\n    tag_630:\n        /* \"#utility.yul\":12332:12398   */\n      tag_439\n      jump\t// in\n    tag_629:\n        /* \"#utility.yul\":12323:12398   */\n      swap1\n      pop\n        /* \"#utility.yul\":12421:12427   */\n      dup3\n        /* \"#utility.yul\":12414:12419   */\n      dup2\n        /* \"#utility.yul\":12407:12428   */\n      mstore\n        /* \"#utility.yul\":12459:12463   */\n      0x20\n        /* \"#utility.yul\":12452:12457   */\n      dup2\n        /* \"#utility.yul\":12448:12464   */\n      add\n        /* \"#utility.yul\":12497:12500   */\n      dup5\n        /* \"#utility.yul\":12488:12494   */\n      dup5\n        /* \"#utility.yul\":12483:12486   */\n      dup5\n        /* \"#utility.yul\":12479:12495   */\n      add\n        /* \"#utility.yul\":12476:12501   */\n      gt\n        /* \"#utility.yul\":12473:12585   */\n      iszero\n      tag_631\n      jumpi\n        /* \"#utility.yul\":12504:12583   */\n      tag_632\n      tag_437\n      jump\t// in\n    tag_632:\n        /* \"#utility.yul\":12473:12585   */\n    tag_631:\n        /* \"#utility.yul\":12594:12648   */\n      tag_633\n        /* \"#utility.yul\":12641:12647   */\n      dup5\n        /* \"#utility.yul\":12636:12639   */\n      dup3\n        /* \"#utility.yul\":12631:12634   */\n      dup6\n        /* \"#utility.yul\":12594:12648   */\n      tag_441\n      jump\t// in\n    tag_633:\n        /* \"#utility.yul\":12313:12654   */\n      pop\n        /* \"#utility.yul\":12229:12654   */\n      swap4\n      swap3\n      pop\n      pop\n      pop\n      jump\t// out\n        /* \"#utility.yul\":12674:13014   */\n    tag_443:\n        /* \"#utility.yul\":12730:12735   */\n      0x00\n        /* \"#utility.yul\":12779:12782   */\n      dup3\n        /* \"#utility.yul\":12772:12776   */\n      0x1f\n        /* \"#utility.yul\":12764:12770   */\n      dup4\n        /* \"#utility.yul\":12760:12777   */\n      add\n        /* \"#utility.yul\":12756:12783   */\n      slt\n        /* \"#utility.yul\":12746:12868   */\n      tag_635\n      jumpi\n        /* \"#utility.yul\":12787:12866   */\n      tag_636\n      tag_436\n      jump\t// in\n    tag_636:\n        /* \"#utility.yul\":12746:12868   */\n    tag_635:\n        /* \"#utility.yul\":12904:12910   */\n      dup2\n        /* \"#utility.yul\":12891:12911   */\n      calldataload\n        /* \"#utility.yul\":12929:13008   */\n      tag_637\n        /* \"#utility.yul\":13004:13007   */\n      dup5\n        /* \"#utility.yul\":12996:13002   */\n      dup3\n        /* \"#utility.yul\":12989:12993   */\n      0x20\n        /* \"#utility.yul\":12981:12987   */\n      dup7\n        /* \"#utility.yul\":12977:12994   */\n      add\n        /* \"#utility.yul\":12929:13008   */\n      tag_442\n      jump\t// in\n    tag_637:\n        /* \"#utility.yul\":12920:13008   */\n      swap2\n      pop\n        /* \"#utility.yul\":12736:13014   */\n      pop\n        /* \"#utility.yul\":12674:13014   */\n      swap3\n      swap2\n      pop\n      pop\n      jump\t// out\n        /* \"#utility.yul\":13020:13096   */\n    tag_444:\n        /* \"#utility.yul\":13056:13063   */\n      0x00\n        /* \"#utility.yul\":13085:13090   */\n      dup2\n        /* \"#utility.yul\":13074:13090   */\n      swap1\n      pop\n        /* \"#utility.yul\":13020:13096   */\n      swap2\n      swap1\n      pop\n      jump\t// out\n        /* \"#utility.yul\":13102:13222   */\n    tag_445:\n        /* \"#utility.yul\":13174:13197   */\n      tag_640\n        /* \"#utility.yul\":13191:13196   */\n      dup2\n        /* \"#utility.yul\":13174:13197   */\n      tag_444\n      jump\t// in\n    tag_640:\n        /* \"#utility.yul\":13167:13172   */\n      dup2\n        /* \"#utility.yul\":13164:13198   */\n      eq\n        /* \"#utility.yul\":13154:13216   */\n      tag_641\n      jumpi\n        /* \"#utility.yul\":13212:13213   */\n      0x00\n        /* \"#utility.yul\":13209:13210   */\n      0x00\n        /* \"#utility.yul\":13202:13214   */\n      revert\n        /* \"#utility.yul\":13154:13216   */\n    tag_641:\n        /* \"#utility.yul\":13102:13222   */\n      pop\n      jump\t// out\n        /* \"#utility.yul\":13228:13365   */\n    tag_446:\n        /* \"#utility.yul\":13273:13278   */\n      0x00\n        /* \"#utility.yul\":13311:13317   */\n      dup2\n        /* \"#utility.yul\":13298:13318   */\n      calldataload\n        /* \"#utility.yul\":13289:13318   */\n      swap1\n      pop\n        /* \"#utility.yul\":13327:13359   */\n      tag_643\n        /* \"#utility.yul\":13353:13358   */\n      dup2\n        /* \"#utility.yul\":13327:13359   */\n      tag_445\n      jump\t// in\n    tag_643:\n        /* \"#utility.yul\":13228:13365   */\n      swap3\n      swap2\n      pop\n      pop\n      jump\t// out\n        /* \"#utility.yul\":13371:14820   */\n    tag_49:\n        /* \"#utility.yul\":13495:13501   */\n      0x00\n        /* \"#utility.yul\":13503:13509   */\n      0x00\n        /* \"#utility.yul\":13511:13517   */\n      0x00\n        /* \"#utility.yul\":13519:13525   */\n      0x00\n        /* \"#utility.yul\":13527:13533   */\n      0x00\n        /* \"#utility.yul\":13576:13579   */\n      0xa0\n        /* \"#utility.yul\":13564:13573   */\n      dup7\n        /* \"#utility.yul\":13555:13562   */\n      dup9\n        /* \"#utility.yul\":13551:13574   */\n      sub\n        /* \"#utility.yul\":13547:13580   */\n      slt\n        /* \"#utility.yul\":13544:13664   */\n      iszero\n      tag_645\n      jumpi\n        /* \"#utility.yul\":13583:13662   */\n      tag_646\n      tag_403\n      jump\t// in\n    tag_646:\n        /* \"#utility.yul\":13544:13664   */\n    tag_645:\n        /* \"#utility.yul\":13703:13704   */\n      0x00\n        /* \"#utility.yul\":13728:13781   */\n      tag_647\n        /* \"#utility.yul\":13773:13780   */\n      dup9\n        /* \"#utility.yul\":13764:13770   */\n      dup3\n        /* \"#utility.yul\":13753:13762   */\n      dup10\n        /* \"#utility.yul\":13749:13771   */\n      add\n        /* \"#utility.yul\":13728:13781   */\n      tag_407\n      jump\t// in\n    tag_647:\n        /* \"#utility.yul\":13718:13781   */\n      swap6\n      pop\n        /* \"#utility.yul\":13674:13791   */\n      pop\n        /* \"#utility.yul\":13858:13860   */\n      0x20\n        /* \"#utility.yul\":13847:13856   */\n      dup7\n        /* \"#utility.yul\":13843:13861   */\n      add\n        /* \"#utility.yul\":13830:13862   */\n      calldataload\n        /* \"#utility.yul\":13889:13907   */\n      0xffffffffffffffff\n        /* \"#utility.yul\":13881:13887   */\n      dup2\n        /* \"#utility.yul\":13878:13908   */\n      gt\n        /* \"#utility.yul\":13875:13992   */\n      iszero\n      tag_648\n      jumpi\n        /* \"#utility.yul\":13911:13990   */\n      tag_649\n      tag_404\n      jump\t// in\n    tag_649:\n        /* \"#utility.yul\":13875:13992   */\n    tag_648:\n        /* \"#utility.yul\":14016:14079   */\n      tag_650\n        /* \"#utility.yul\":14071:14078   */\n      dup9\n        /* \"#utility.yul\":14062:14068   */\n      dup3\n        /* \"#utility.yul\":14051:14060   */\n      dup10\n        /* \"#utility.yul\":14047:14069   */\n      add\n        /* \"#utility.yul\":14016:14079   */\n      tag_443\n      jump\t// in\n    tag_650:\n        /* \"#utility.yul\":14006:14079   */\n      swap5\n      pop\n        /* \"#utility.yul\":13801:14089   */\n      pop\n        /* \"#utility.yul\":14156:14158   */\n      0x40\n        /* \"#utility.yul\":14145:14154   */\n      dup7\n        /* \"#utility.yul\":14141:14159   */\n      add\n        /* \"#utility.yul\":14128:14160   */\n      calldataload\n        /* \"#utility.yul\":14187:14205   */\n      0xffffffffffffffff\n        /* \"#utility.yul\":14179:14185   */\n      dup2\n        /* \"#utility.yul\":14176:14206   */\n      gt\n        /* \"#utility.yul\":14173:14290   */\n      iszero\n      tag_651\n      jumpi\n        /* \"#utility.yul\":14209:14288   */\n      tag_652\n      tag_404\n      jump\t// in\n    tag_652:\n        /* \"#utility.yul\":14173:14290   */\n    tag_651:\n        /* \"#utility.yul\":14314:14377   */\n      tag_653\n        /* \"#utility.yul\":14369:14376   */\n      dup9\n        /* \"#utility.yul\":14360:14366   */\n      dup3\n        /* \"#utility.yul\":14349:14358   */\n      dup10\n        /* \"#utility.yul\":14345:14367   */\n      add\n        /* \"#utility.yul\":14314:14377   */\n      tag_443\n      jump\t// in\n    tag_653:\n        /* \"#utility.yul\":14304:14377   */\n      swap4\n      pop\n        /* \"#utility.yul\":14099:14387   */\n      pop\n        /* \"#utility.yul\":14454:14456   */\n      0x60\n        /* \"#utility.yul\":14443:14452   */\n      dup7\n        /* \"#utility.yul\":14439:14457   */\n      add\n        /* \"#utility.yul\":14426:14458   */\n      calldataload\n        /* \"#utility.yul\":14485:14503   */\n      0xffffffffffffffff\n        /* \"#utility.yul\":14477:14483   */\n      dup2\n        /* \"#utility.yul\":14474:14504   */\n      gt\n        /* \"#utility.yul\":14471:14588   */\n      iszero\n      tag_654\n      jumpi\n        /* \"#utility.yul\":14507:14586   */\n      tag_655\n      tag_404\n      jump\t// in\n    tag_655:\n        /* \"#utility.yul\":14471:14588   */\n    tag_654:\n        /* \"#utility.yul\":14612:14675   */\n      tag_656\n        /* \"#utility.yul\":14667:14674   */\n      dup9\n        /* \"#utility.yul\":14658:14664   */\n      dup3\n        /* \"#utility.yul\":14647:14656   */\n      dup10\n        /* \"#utility.yul\":14643:14665   */\n      add\n        /* \"#utility.yul\":14612:14675   */\n      tag_443\n      jump\t// in\n    tag_656:\n        /* \"#utility.yul\":14602:14675   */\n      swap3\n      pop\n        /* \"#utility.yul\":14397:14685   */\n      pop\n        /* \"#utility.yul\":14724:14727   */\n      0x80\n        /* \"#utility.yul\":14751:14803   */\n      tag_657\n        /* \"#utility.yul\":14795:14802   */\n      dup9\n        /* \"#utility.yul\":14786:14792   */\n      dup3\n        /* \"#utility.yul\":14775:14784   */\n      dup10\n        /* \"#utility.yul\":14771:14793   */\n      add\n        /* \"#utility.yul\":14751:14803   */\n      tag_446\n      jump\t// in\n    tag_657:\n        /* \"#utility.yul\":14741:14803   */\n      swap2\n      pop\n        /* \"#utility.yul\":14695:14813   */\n      pop\n        /* \"#utility.yul\":13371:14820   */\n      swap3\n      swap6\n      pop\n      swap3\n      swap6\n      swap1\n      swap4\n      pop\n      jump\t// out\n        /* \"#utility.yul\":14826:14948   */\n    tag_447:\n        /* \"#utility.yul\":14899:14923   */\n      tag_659\n        /* \"#utility.yul\":14917:14922   */\n      dup2\n        /* \"#utility.yul\":14899:14923   */\n      tag_410\n      jump\t// in\n    tag_659:\n        /* \"#utility.yul\":14892:14897   */\n      dup2\n        /* \"#utility.yul\":14889:14924   */\n      eq\n        /* \"#utility.yul\":14879:14942   */\n      tag_660\n      jumpi\n        /* \"#utility.yul\":14938:14939   */\n      0x00\n        /* \"#utility.yul\":14935:14936   */\n      0x00\n        /* \"#utility.yul\":14928:14940   */\n      revert\n        /* \"#utility.yul\":14879:14942   */\n    tag_660:\n        /* \"#utility.yul\":14826:14948   */\n      pop\n      jump\t// out\n        /* \"#utility.yul\":14954:15093   */\n    tag_448:\n        /* \"#utility.yul\":15000:15005   */\n      0x00\n        /* \"#utility.yul\":15038:15044   */\n      dup2\n        /* \"#utility.yul\":15025:15045   */\n      calldataload\n        /* \"#utility.yul\":15016:15045   */\n      swap1\n      pop\n        /* \"#utility.yul\":15054:15087   */\n      tag_662\n        /* \"#utility.yul\":15081:15086   */\n      dup2\n        /* \"#utility.yul\":15054:15087   */\n      tag_447\n      jump\t// in\n    tag_662:\n        /* \"#utility.yul\":14954:15093   */\n      swap3\n      swap2\n      pop\n      pop\n      jump\t// out\n        /* \"#utility.yul\":15099:15428   */\n    tag_54:\n        /* \"#utility.yul\":15158:15164   */\n      0x00\n        /* \"#utility.yul\":15207:15209   */\n      0x20\n        /* \"#utility.yul\":15195:15204   */\n      dup3\n        /* \"#utility.yul\":15186:15193   */\n      dup5\n        /* \"#utility.yul\":15182:15205   */\n      sub\n        /* \"#utility.yul\":15178:15210   */\n      slt\n        /* \"#utility.yul\":15175:15294   */\n      iszero\n      tag_664\n      jumpi\n        /* \"#utility.yul\":15213:15292   */\n      tag_665\n      tag_403\n      jump\t// in\n    tag_665:\n        /* \"#utility.yul\":15175:15294   */\n    tag_664:\n        /* \"#utility.yul\":15333:15334   */\n      0x00\n        /* \"#utility.yul\":15358:15411   */\n      tag_666\n        /* \"#utility.yul\":15403:15410   */\n      dup5\n        /* \"#utility.yul\":15394:15400   */\n      dup3\n        /* \"#utility.yul\":15383:15392   */\n      dup6\n        /* \"#utility.yul\":15379:15401   */\n      add\n        /* \"#utility.yul\":15358:15411   */\n      tag_448\n      jump\t// in\n    tag_666:\n        /* \"#utility.yul\":15348:15411   */\n      swap2\n      pop\n        /* \"#utility.yul\":15304:15421   */\n      pop\n        /* \"#utility.yul\":15099:15428   */\n      swap3\n      swap2\n      pop\n      pop\n      jump\t// out\n        /* \"#utility.yul\":15434:15551   */\n    tag_449:\n        /* \"#utility.yul\":15519:15520   */\n      0x06\n        /* \"#utility.yul\":15512:15517   */\n      dup2\n        /* \"#utility.yul\":15509:15521   */\n      lt\n        /* \"#utility.yul\":15499:15545   */\n      tag_668\n      jumpi\n        /* \"#utility.yul\":15525:15543   */\n      tag_669\n      tag_151\n      jump\t// in\n    tag_669:\n        /* \"#utility.yul\":15499:15545   */\n    tag_668:\n        /* \"#utility.yul\":15434:15551   */\n      pop\n      jump\t// out\n        /* \"#utility.yul\":15557:15692   */\n    tag_450:\n        /* \"#utility.yul\":15606:15613   */\n      0x00\n        /* \"#utility.yul\":15635:15640   */\n      dup2\n        /* \"#utility.yul\":15624:15640   */\n      swap1\n      pop\n        /* \"#utility.yul\":15641:15686   */\n      tag_671\n        /* \"#utility.yul\":15680:15685   */\n      dup3\n        /* \"#utility.yul\":15641:15686   */\n      tag_449\n      jump\t// in\n    tag_671:\n        /* \"#utility.yul\":15557:15692   */\n      swap2\n      swap1\n      pop\n      jump\t// out\n        /* \"#utility.yul\":15698:15833   */\n    tag_451:\n        /* \"#utility.yul\":15758:15767   */\n      0x00\n        /* \"#utility.yul\":15791:15827   */\n      tag_673\n        /* \"#utility.yul\":15821:15826   */\n      dup3\n        /* \"#utility.yul\":15791:15827   */\n      tag_450\n      jump\t// in\n    tag_673:\n        /* \"#utility.yul\":15778:15827   */\n      swap1\n      pop\n        /* \"#utility.yul\":15698:15833   */\n      swap2\n      swap1\n      pop\n      jump\t// out\n        /* \"#utility.yul\":15839:15980   */\n    tag_452:\n        /* \"#utility.yul\":15926:15973   */\n      tag_675\n        /* \"#utility.yul\":15967:15972   */\n      dup2\n        /* \"#utility.yul\":15926:15973   */\n      tag_451\n      jump\t// in\n    tag_675:\n        /* \"#utility.yul\":15921:15924   */\n      dup3\n        /* \"#utility.yul\":15914:15974   */\n      mstore\n        /* \"#utility.yul\":15839:15980   */\n      pop\n      pop\n      jump\t// out\n        /* \"#utility.yul\":16058:17269   */\n    tag_453:\n        /* \"#utility.yul\":16169:16172   */\n      0x00\n        /* \"#utility.yul\":16205:16209   */\n      0xa0\n        /* \"#utility.yul\":16200:16203   */\n      dup4\n        /* \"#utility.yul\":16196:16210   */\n      add\n        /* \"#utility.yul\":16300:16304   */\n      0x00\n        /* \"#utility.yul\":16293:16298   */\n      dup4\n        /* \"#utility.yul\":16289:16305   */\n      add\n        /* \"#utility.yul\":16283:16306   */\n      mload\n        /* \"#utility.yul\":16319:16382   */\n      tag_677\n        /* \"#utility.yul\":16376:16380   */\n      0x00\n        /* \"#utility.yul\":16371:16374   */\n      dup7\n        /* \"#utility.yul\":16367:16381   */\n      add\n        /* \"#utility.yul\":16353:16365   */\n      dup3\n        /* \"#utility.yul\":16319:16382   */\n      tag_411\n      jump\t// in\n    tag_677:\n        /* \"#utility.yul\":16220:16392   */\n      pop\n        /* \"#utility.yul\":16474:16478   */\n      0x20\n        /* \"#utility.yul\":16467:16472   */\n      dup4\n        /* \"#utility.yul\":16463:16479   */\n      add\n        /* \"#utility.yul\":16457:16480   */\n      mload\n        /* \"#utility.yul\":16527:16530   */\n      dup5\n        /* \"#utility.yul\":16521:16525   */\n      dup3\n        /* \"#utility.yul\":16517:16531   */\n      sub\n        /* \"#utility.yul\":16510:16514   */\n      0x20\n        /* \"#utility.yul\":16505:16508   */\n      dup7\n        /* \"#utility.yul\":16501:16515   */\n      add\n        /* \"#utility.yul\":16494:16532   */\n      mstore\n        /* \"#utility.yul\":16553:16626   */\n      tag_678\n        /* \"#utility.yul\":16621:16625   */\n      dup3\n        /* \"#utility.yul\":16607:16619   */\n      dup3\n        /* \"#utility.yul\":16553:16626   */\n      tag_416\n      jump\t// in\n    tag_678:\n        /* \"#utility.yul\":16545:16626   */\n      swap2\n      pop\n        /* \"#utility.yul\":16402:16637   */\n      pop\n        /* \"#utility.yul\":16719:16723   */\n      0x40\n        /* \"#utility.yul\":16712:16717   */\n      dup4\n        /* \"#utility.yul\":16708:16724   */\n      add\n        /* \"#utility.yul\":16702:16725   */\n      mload\n        /* \"#utility.yul\":16738:16811   */\n      tag_679\n        /* \"#utility.yul\":16805:16809   */\n      0x40\n        /* \"#utility.yul\":16800:16803   */\n      dup7\n        /* \"#utility.yul\":16796:16810   */\n      add\n        /* \"#utility.yul\":16782:16794   */\n      dup3\n        /* \"#utility.yul\":16738:16811   */\n      tag_452\n      jump\t// in\n    tag_679:\n        /* \"#utility.yul\":16647:16821   */\n      pop\n        /* \"#utility.yul\":16907:16911   */\n      0x60\n        /* \"#utility.yul\":16900:16905   */\n      dup4\n        /* \"#utility.yul\":16896:16912   */\n      add\n        /* \"#utility.yul\":16890:16913   */\n      mload\n        /* \"#utility.yul\":16960:16963   */\n      dup5\n        /* \"#utility.yul\":16954:16958   */\n      dup3\n        /* \"#utility.yul\":16950:16964   */\n      sub\n        /* \"#utility.yul\":16943:16947   */\n      0x60\n        /* \"#utility.yul\":16938:16941   */\n      dup7\n        /* \"#utility.yul\":16934:16948   */\n      add\n        /* \"#utility.yul\":16927:16965   */\n      mstore\n        /* \"#utility.yul\":16986:17059   */\n      tag_680\n        /* \"#utility.yul\":17054:17058   */\n      dup3\n        /* \"#utility.yul\":17040:17052   */\n      dup3\n        /* \"#utility.yul\":16986:17059   */\n      tag_416\n      jump\t// in\n    tag_680:\n        /* \"#utility.yul\":16978:17059   */\n      swap2\n      pop\n        /* \"#utility.yul\":16831:17070   */\n      pop\n        /* \"#utility.yul\":17156:17160   */\n      0x80\n        /* \"#utility.yul\":17149:17154   */\n      dup4\n        /* \"#utility.yul\":17145:17161   */\n      add\n        /* \"#utility.yul\":17139:17162   */\n      mload\n        /* \"#utility.yul\":17175:17232   */\n      tag_681\n        /* \"#utility.yul\":17226:17230   */\n      0x80\n        /* \"#utility.yul\":17221:17224   */\n      dup7\n        /* \"#utility.yul\":17217:17231   */\n      add\n        /* \"#utility.yul\":17203:17215   */\n      dup3\n        /* \"#utility.yul\":17175:17232   */\n      tag_428\n      jump\t// in\n    tag_681:\n        /* \"#utility.yul\":17080:17242   */\n      pop\n        /* \"#utility.yul\":17259:17263   */\n      dup1\n        /* \"#utility.yul\":17252:17263   */\n      swap2\n      pop\n        /* \"#utility.yul\":16174:17269   */\n      pop\n        /* \"#utility.yul\":16058:17269   */\n      swap3\n      swap2\n      pop\n      pop\n      jump\t// out\n        /* \"#utility.yul\":17275:17632   */\n    tag_57:\n        /* \"#utility.yul\":17410:17414   */\n      0x00\n        /* \"#utility.yul\":17448:17450   */\n      0x20\n        /* \"#utility.yul\":17437:17446   */\n      dup3\n        /* \"#utility.yul\":17433:17451   */\n      add\n        /* \"#utility.yul\":17425:17451   */\n      swap1\n      pop\n        /* \"#utility.yul\":17497:17506   */\n      dup2\n        /* \"#utility.yul\":17491:17495   */\n      dup2\n        /* \"#utility.yul\":17487:17507   */\n      sub\n        /* \"#utility.yul\":17483:17484   */\n      0x00\n        /* \"#utility.yul\":17472:17481   */\n      dup4\n        /* \"#utility.yul\":17468:17485   */\n      add\n        /* \"#utility.yul\":17461:17508   */\n      mstore\n        /* \"#utility.yul\":17525:17625   */\n      tag_683\n        /* \"#utility.yul\":17620:17624   */\n      dup2\n        /* \"#utility.yul\":17611:17617   */\n      dup5\n        /* \"#utility.yul\":17525:17625   */\n      tag_453\n      jump\t// in\n    tag_683:\n        /* \"#utility.yul\":17517:17625   */\n      swap1\n      pop\n        /* \"#utility.yul\":17275:17632   */\n      swap3\n      swap2\n      pop\n      pop\n      jump\t// out\n        /* \"#utility.yul\":17638:17754   */\n    tag_454:\n        /* \"#utility.yul\":17708:17729   */\n      tag_685\n        /* \"#utility.yul\":17723:17728   */\n      dup2\n        /* \"#utility.yul\":17708:17729   */\n      tag_427\n      jump\t// in\n    tag_685:\n        /* \"#utility.yul\":17701:17706   */\n      dup2\n        /* \"#utility.yul\":17698:17730   */\n      eq\n        /* \"#utility.yul\":17688:17748   */\n      tag_686\n      jumpi\n        /* \"#utility.yul\":17744:17745   */\n      0x00\n        /* \"#utility.yul\":17741:17742   */\n      0x00\n        /* \"#utility.yul\":17734:17746   */\n      revert\n        /* \"#utility.yul\":17688:17748   */\n    tag_686:\n        /* \"#utility.yul\":17638:17754   */\n      pop\n      jump\t// out\n        /* \"#utility.yul\":17760:17893   */\n    tag_455:\n        /* \"#utility.yul\":17803:17808   */\n      0x00\n        /* \"#utility.yul\":17841:17847   */\n      dup2\n        /* \"#utility.yul\":17828:17848   */\n      calldataload\n        /* \"#utility.yul\":17819:17848   */\n      swap1\n      pop\n        /* \"#utility.yul\":17857:17887   */\n      tag_688\n        /* \"#utility.yul\":17881:17886   */\n      dup2\n        /* \"#utility.yul\":17857:17887   */\n      tag_454\n      jump\t// in\n    tag_688:\n        /* \"#utility.yul\":17760:17893   */\n      swap3\n      swap2\n      pop\n      pop\n      jump\t// out\n        /* \"#utility.yul\":17899:19344   */\n    tag_60:\n        /* \"#utility.yul\":18021:18027   */\n      0x00\n        /* \"#utility.yul\":18029:18035   */\n      0x00\n        /* \"#utility.yul\":18037:18043   */\n      0x00\n        /* \"#utility.yul\":18045:18051   */\n      0x00\n        /* \"#utility.yul\":18053:18059   */\n      0x00\n        /* \"#utility.yul\":18102:18105   */\n      0xa0\n        /* \"#utility.yul\":18090:18099   */\n      dup7\n        /* \"#utility.yul\":18081:18088   */\n      dup9\n        /* \"#utility.yul\":18077:18100   */\n      sub\n        /* \"#utility.yul\":18073:18106   */\n      slt\n        /* \"#utility.yul\":18070:18190   */\n      iszero\n      tag_690\n      jumpi\n        /* \"#utility.yul\":18109:18188   */\n      tag_691\n      tag_403\n      jump\t// in\n    tag_691:\n        /* \"#utility.yul\":18070:18190   */\n    tag_690:\n        /* \"#utility.yul\":18229:18230   */\n      0x00\n        /* \"#utility.yul\":18254:18307   */\n      tag_692\n        /* \"#utility.yul\":18299:18306   */\n      dup9\n        /* \"#utility.yul\":18290:18296   */\n      dup3\n        /* \"#utility.yul\":18279:18288   */\n      dup10\n        /* \"#utility.yul\":18275:18297   */\n      add\n        /* \"#utility.yul\":18254:18307   */\n      tag_448\n      jump\t// in\n    tag_692:\n        /* \"#utility.yul\":18244:18307   */\n      swap6\n      pop\n        /* \"#utility.yul\":18200:18317   */\n      pop\n        /* \"#utility.yul\":18384:18386   */\n      0x20\n        /* \"#utility.yul\":18373:18382   */\n      dup7\n        /* \"#utility.yul\":18369:18387   */\n      add\n        /* \"#utility.yul\":18356:18388   */\n      calldataload\n        /* \"#utility.yul\":18415:18433   */\n      0xffffffffffffffff\n        /* \"#utility.yul\":18407:18413   */\n      dup2\n        /* \"#utility.yul\":18404:18434   */\n      gt\n        /* \"#utility.yul\":18401:18518   */\n      iszero\n      tag_693\n      jumpi\n        /* \"#utility.yul\":18437:18516   */\n      tag_694\n      tag_404\n      jump\t// in\n    tag_694:\n        /* \"#utility.yul\":18401:18518   */\n    tag_693:\n        /* \"#utility.yul\":18542:18605   */\n      tag_695\n        /* \"#utility.yul\":18597:18604   */\n      dup9\n        /* \"#utility.yul\":18588:18594   */\n      dup3\n        /* \"#utility.yul\":18577:18586   */\n      dup10\n        /* \"#utility.yul\":18573:18595   */\n      add\n        /* \"#utility.yul\":18542:18605   */\n      tag_443\n      jump\t// in\n    tag_695:\n        /* \"#utility.yul\":18532:18605   */\n      swap5\n      pop\n        /* \"#utility.yul\":18327:18615   */\n      pop\n        /* \"#utility.yul\":18682:18684   */\n      0x40\n        /* \"#utility.yul\":18671:18680   */\n      dup7\n        /* \"#utility.yul\":18667:18685   */\n      add\n        /* \"#utility.yul\":18654:18686   */\n      calldataload\n        /* \"#utility.yul\":18713:18731   */\n      0xffffffffffffffff\n        /* \"#utility.yul\":18705:18711   */\n      dup2\n        /* \"#utility.yul\":18702:18732   */\n      gt\n        /* \"#utility.yul\":18699:18816   */\n      iszero\n      tag_696\n      jumpi\n        /* \"#utility.yul\":18735:18814   */\n      tag_697\n      tag_404\n      jump\t// in\n    tag_697:\n        /* \"#utility.yul\":18699:18816   */\n    tag_696:\n        /* \"#utility.yul\":18840:18903   */\n      tag_698\n        /* \"#utility.yul\":18895:18902   */\n      dup9\n        /* \"#utility.yul\":18886:18892   */\n      dup3\n        /* \"#utility.yul\":18875:18884   */\n      dup10\n        /* \"#utility.yul\":18871:18893   */\n      add\n        /* \"#utility.yul\":18840:18903   */\n      tag_443\n      jump\t// in\n    tag_698:\n        /* \"#utility.yul\":18830:18903   */\n      swap4\n      pop\n        /* \"#utility.yul\":18625:18913   */\n      pop\n        /* \"#utility.yul\":18980:18982   */\n      0x60\n        /* \"#utility.yul\":18969:18978   */\n      dup7\n        /* \"#utility.yul\":18965:18983   */\n      add\n        /* \"#utility.yul\":18952:18984   */\n      calldataload\n        /* \"#utility.yul\":19011:19029   */\n      0xffffffffffffffff\n        /* \"#utility.yul\":19003:19009   */\n      dup2\n        /* \"#utility.yul\":19000:19030   */\n      gt\n        /* \"#utility.yul\":18997:19114   */\n      iszero\n      tag_699\n      jumpi\n        /* \"#utility.yul\":19033:19112   */\n      tag_700\n      tag_404\n      jump\t// in\n    tag_700:\n        /* \"#utility.yul\":18997:19114   */\n    tag_699:\n        /* \"#utility.yul\":19138:19201   */\n      tag_701\n        /* \"#utility.yul\":19193:19200   */\n      dup9\n        /* \"#utility.yul\":19184:19190   */\n      dup3\n        /* \"#utility.yul\":19173:19182   */\n      dup10\n        /* \"#utility.yul\":19169:19191   */\n      add\n        /* \"#utility.yul\":19138:19201   */\n      tag_443\n      jump\t// in\n    tag_701:\n        /* \"#utility.yul\":19128:19201   */\n      swap3\n      pop\n        /* \"#utility.yul\":18923:19211   */\n      pop\n        /* \"#utility.yul\":19250:19253   */\n      0x80\n        /* \"#utility.yul\":19277:19327   */\n      tag_702\n        /* \"#utility.yul\":19319:19326   */\n      dup9\n        /* \"#utility.yul\":19310:19316   */\n      dup3\n        /* \"#utility.yul\":19299:19308   */\n      dup10\n        /* \"#utility.yul\":19295:19317   */\n      add\n        /* \"#utility.yul\":19277:19327   */\n      tag_455\n      jump\t// in\n    tag_702:\n        /* \"#utility.yul\":19267:19327   */\n      swap2\n      pop\n        /* \"#utility.yul\":19221:19337   */\n      pop\n        /* \"#utility.yul\":17899:19344   */\n      swap3\n      swap6\n      pop\n      swap3\n      swap6\n      swap1\n      swap4\n      pop\n      jump\t// out\n        /* \"#utility.yul\":19350:19490   */\n    tag_456:\n        /* \"#utility.yul\":19443:19449   */\n      0x00\n        /* \"#utility.yul\":19477:19482   */\n      dup2\n        /* \"#utility.yul\":19471:19483   */\n      mload\n        /* \"#utility.yul\":19461:19483   */\n      swap1\n      pop\n        /* \"#utility.yul\":19350:19490   */\n      swap2\n      swap1\n      pop\n      jump\t// out\n        /* \"#utility.yul\":19496:19706   */\n    tag_457:\n        /* \"#utility.yul\":19621:19632   */\n      0x00\n        /* \"#utility.yul\":19655:19661   */\n      dup3\n        /* \"#utility.yul\":19650:19653   */\n      dup3\n        /* \"#utility.yul\":19643:19662   */\n      mstore\n        /* \"#utility.yul\":19695:19699   */\n      0x20\n        /* \"#utility.yul\":19690:19693   */\n      dup3\n        /* \"#utility.yul\":19686:19700   */\n      add\n        /* \"#utility.yul\":19671:19700   */\n      swap1\n      pop\n        /* \"#utility.yul\":19496:19706   */\n      swap3\n      swap2\n      pop\n      pop\n      jump\t// out\n        /* \"#utility.yul\":19712:19870   */\n    tag_458:\n        /* \"#utility.yul\":19805:19809   */\n      0x00\n        /* \"#utility.yul\":19828:19831   */\n      dup2\n        /* \"#utility.yul\":19820:19831   */\n      swap1\n      pop\n        /* \"#utility.yul\":19858:19862   */\n      0x20\n        /* \"#utility.yul\":19853:19856   */\n      dup3\n        /* \"#utility.yul\":19849:19863   */\n      add\n        /* \"#utility.yul\":19841:19863   */\n      swap1\n      pop\n        /* \"#utility.yul\":19712:19870   */\n      swap2\n      swap1\n      pop\n      jump\t// out\n        /* \"#utility.yul\":19876:19981   */\n    tag_459:\n        /* \"#utility.yul\":19951:19974   */\n      tag_707\n        /* \"#utility.yul\":19968:19973   */\n      dup2\n        /* \"#utility.yul\":19951:19974   */\n      tag_444\n      jump\t// in\n    tag_707:\n        /* \"#utility.yul\":19946:19949   */\n      dup3\n        /* \"#utility.yul\":19939:19975   */\n      mstore\n        /* \"#utility.yul\":19876:19981   */\n      pop\n      pop\n      jump\t// out\n        /* \"#utility.yul\":20069:21885   */\n    tag_460:\n        /* \"#utility.yul\":20180:20183   */\n      0x00\n        /* \"#utility.yul\":20216:20222   */\n      0x0100\n        /* \"#utility.yul\":20211:20214   */\n      dup4\n        /* \"#utility.yul\":20207:20223   */\n      add\n        /* \"#utility.yul\":20303:20307   */\n      0x00\n        /* \"#utility.yul\":20296:20301   */\n      dup4\n        /* \"#utility.yul\":20292:20308   */\n      add\n        /* \"#utility.yul\":20286:20309   */\n      mload\n        /* \"#utility.yul\":20322:20385   */\n      tag_709\n        /* \"#utility.yul\":20379:20383   */\n      0x00\n        /* \"#utility.yul\":20374:20377   */\n      dup7\n        /* \"#utility.yul\":20370:20384   */\n      add\n        /* \"#utility.yul\":20356:20368   */\n      dup3\n        /* \"#utility.yul\":20322:20385   */\n      tag_408\n      jump\t// in\n    tag_709:\n        /* \"#utility.yul\":20233:20395   */\n      pop\n        /* \"#utility.yul\":20483:20487   */\n      0x20\n        /* \"#utility.yul\":20476:20481   */\n      dup4\n        /* \"#utility.yul\":20472:20488   */\n      add\n        /* \"#utility.yul\":20466:20489   */\n      mload\n        /* \"#utility.yul\":20502:20565   */\n      tag_710\n        /* \"#utility.yul\":20559:20563   */\n      0x20\n        /* \"#utility.yul\":20554:20557   */\n      dup7\n        /* \"#utility.yul\":20550:20564   */\n      add\n        /* \"#utility.yul\":20536:20548   */\n      dup3\n        /* \"#utility.yul\":20502:20565   */\n      tag_408\n      jump\t// in\n    tag_710:\n        /* \"#utility.yul\":20405:20575   */\n      pop\n        /* \"#utility.yul\":20658:20662   */\n      0x40\n        /* \"#utility.yul\":20651:20656   */\n      dup4\n        /* \"#utility.yul\":20647:20663   */\n      add\n        /* \"#utility.yul\":20641:20664   */\n      mload\n        /* \"#utility.yul\":20677:20740   */\n      tag_711\n        /* \"#utility.yul\":20734:20738   */\n      0x40\n        /* \"#utility.yul\":20729:20732   */\n      dup7\n        /* \"#utility.yul\":20725:20739   */\n      add\n        /* \"#utility.yul\":20711:20723   */\n      dup3\n        /* \"#utility.yul\":20677:20740   */\n      tag_411\n      jump\t// in\n    tag_711:\n        /* \"#utility.yul\":20585:20750   */\n      pop\n        /* \"#utility.yul\":20836:20840   */\n      0x60\n        /* \"#utility.yul\":20829:20834   */\n      dup4\n        /* \"#utility.yul\":20825:20841   */\n      add\n        /* \"#utility.yul\":20819:20842   */\n      mload\n        /* \"#utility.yul\":20889:20892   */\n      dup5\n        /* \"#utility.yul\":20883:20887   */\n      dup3\n        /* \"#utility.yul\":20879:20893   */\n      sub\n        /* \"#utility.yul\":20872:20876   */\n      0x60\n        /* \"#utility.yul\":20867:20870   */\n      dup7\n        /* \"#utility.yul\":20863:20877   */\n      add\n        /* \"#utility.yul\":20856:20894   */\n      mstore\n        /* \"#utility.yul\":20915:20988   */\n      tag_712\n        /* \"#utility.yul\":20983:20987   */\n      dup3\n        /* \"#utility.yul\":20969:20981   */\n      dup3\n        /* \"#utility.yul\":20915:20988   */\n      tag_416\n      jump\t// in\n    tag_712:\n        /* \"#utility.yul\":20907:20988   */\n      swap2\n      pop\n        /* \"#utility.yul\":20760:20999   */\n      pop\n        /* \"#utility.yul\":21091:21095   */\n      0x80\n        /* \"#utility.yul\":21084:21089   */\n      dup4\n        /* \"#utility.yul\":21080:21096   */\n      add\n        /* \"#utility.yul\":21074:21097   */\n      mload\n        /* \"#utility.yul\":21144:21147   */\n      dup5\n        /* \"#utility.yul\":21138:21142   */\n      dup3\n        /* \"#utility.yul\":21134:21148   */\n      sub\n        /* \"#utility.yul\":21127:21131   */\n      0x80\n        /* \"#utility.yul\":21122:21125   */\n      dup7\n        /* \"#utility.yul\":21118:21132   */\n      add\n        /* \"#utility.yul\":21111:21149   */\n      mstore\n        /* \"#utility.yul\":21170:21243   */\n      tag_713\n        /* \"#utility.yul\":21238:21242   */\n      dup3\n        /* \"#utility.yul\":21224:21236   */\n      dup3\n        /* \"#utility.yul\":21170:21243   */\n      tag_416\n      jump\t// in\n    tag_713:\n        /* \"#utility.yul\":21162:21243   */\n      swap2\n      pop\n        /* \"#utility.yul\":21009:21254   */\n      pop\n        /* \"#utility.yul\":21341:21345   */\n      0xa0\n        /* \"#utility.yul\":21334:21339   */\n      dup4\n        /* \"#utility.yul\":21330:21346   */\n      add\n        /* \"#utility.yul\":21324:21347   */\n      mload\n        /* \"#utility.yul\":21360:21423   */\n      tag_714\n        /* \"#utility.yul\":21417:21421   */\n      0xa0\n        /* \"#utility.yul\":21412:21415   */\n      dup7\n        /* \"#utility.yul\":21408:21422   */\n      add\n        /* \"#utility.yul\":21394:21406   */\n      dup3\n        /* \"#utility.yul\":21360:21423   */\n      tag_408\n      jump\t// in\n    tag_714:\n        /* \"#utility.yul\":21264:21433   */\n      pop\n        /* \"#utility.yul\":21516:21520   */\n      0xc0\n        /* \"#utility.yul\":21509:21514   */\n      dup4\n        /* \"#utility.yul\":21505:21521   */\n      add\n        /* \"#utility.yul\":21499:21522   */\n      mload\n        /* \"#utility.yul\":21569:21572   */\n      dup5\n        /* \"#utility.yul\":21563:21567   */\n      dup3\n        /* \"#utility.yul\":21559:21573   */\n      sub\n        /* \"#utility.yul\":21552:21556   */\n      0xc0\n        /* \"#utility.yul\":21547:21550   */\n      dup7\n        /* \"#utility.yul\":21543:21557   */\n      add\n        /* \"#utility.yul\":21536:21574   */\n      mstore\n        /* \"#utility.yul\":21595:21668   */\n      tag_715\n        /* \"#utility.yul\":21663:21667   */\n      dup3\n        /* \"#utility.yul\":21649:21661   */\n      dup3\n        /* \"#utility.yul\":21595:21668   */\n      tag_416\n      jump\t// in\n    tag_715:\n        /* \"#utility.yul\":21587:21668   */\n      swap2\n      pop\n        /* \"#utility.yul\":21443:21679   */\n      pop\n        /* \"#utility.yul\":21768:21772   */\n      0xe0\n        /* \"#utility.yul\":21761:21766   */\n      dup4\n        /* \"#utility.yul\":21757:21773   */\n      add\n        /* \"#utility.yul\":21751:21774   */\n      mload\n        /* \"#utility.yul\":21787:21848   */\n      tag_716\n        /* \"#utility.yul\":21842:21846   */\n      0xe0\n        /* \"#utility.yul\":21837:21840   */\n      dup7\n        /* \"#utility.yul\":21833:21847   */\n      add\n        /* \"#utility.yul\":21819:21831   */\n      dup3\n        /* \"#utility.yul\":21787:21848   */\n      tag_459\n      jump\t// in\n    tag_716:\n        /* \"#utility.yul\":21689:21858   */\n      pop\n        /* \"#utility.yul\":21875:21879   */\n      dup1\n        /* \"#utility.yul\":21868:21879   */\n      swap2\n      pop\n        /* \"#utility.yul\":20185:21885   */\n      pop\n        /* \"#utility.yul\":20069:21885   */\n      swap3\n      swap2\n      pop\n      pop\n      jump\t// out\n        /* \"#utility.yul\":21891:22151   */\n    tag_461:\n        /* \"#utility.yul\":22012:22022   */\n      0x00\n        /* \"#utility.yul\":22047:22145   */\n      tag_718\n        /* \"#utility.yul\":22141:22144   */\n      dup4\n        /* \"#utility.yul\":22133:22139   */\n      dup4\n        /* \"#utility.yul\":22047:22145   */\n      tag_460\n      jump\t// in\n    tag_718:\n        /* \"#utility.yul\":22033:22145   */\n      swap1\n      pop\n        /* \"#utility.yul\":21891:22151   */\n      swap3\n      swap2\n      pop\n      pop\n      jump\t// out\n        /* \"#utility.yul\":22157:22296   */\n    tag_462:\n        /* \"#utility.yul\":22253:22257   */\n      0x00\n        /* \"#utility.yul\":22285:22289   */\n      0x20\n        /* \"#utility.yul\":22280:22283   */\n      dup3\n        /* \"#utility.yul\":22276:22290   */\n      add\n        /* \"#utility.yul\":22268:22290   */\n      swap1\n      pop\n        /* \"#utility.yul\":22157:22296   */\n      swap2\n      swap1\n      pop\n      jump\t// out\n        /* \"#utility.yul\":22388:23507   */\n    tag_463:\n        /* \"#utility.yul\":22559:22562   */\n      0x00\n        /* \"#utility.yul\":22588:22668   */\n      tag_721\n        /* \"#utility.yul\":22662:22667   */\n      dup3\n        /* \"#utility.yul\":22588:22668   */\n      tag_456\n      jump\t// in\n    tag_721:\n        /* \"#utility.yul\":22684:22796   */\n      tag_722\n        /* \"#utility.yul\":22789:22795   */\n      dup2\n        /* \"#utility.yul\":22784:22787   */\n      dup6\n        /* \"#utility.yul\":22684:22796   */\n      tag_457\n      jump\t// in\n    tag_722:\n        /* \"#utility.yul\":22677:22796   */\n      swap4\n      pop\n        /* \"#utility.yul\":22822:22825   */\n      dup4\n        /* \"#utility.yul\":22867:22871   */\n      0x20\n        /* \"#utility.yul\":22859:22865   */\n      dup3\n        /* \"#utility.yul\":22855:22872   */\n      mul\n        /* \"#utility.yul\":22850:22853   */\n      dup6\n        /* \"#utility.yul\":22846:22873   */\n      add\n        /* \"#utility.yul\":22897:22979   */\n      tag_723\n        /* \"#utility.yul\":22973:22978   */\n      dup6\n        /* \"#utility.yul\":22897:22979   */\n      tag_458\n      jump\t// in\n    tag_723:\n        /* \"#utility.yul\":23002:23009   */\n      dup1\n        /* \"#utility.yul\":23033:23034   */\n      0x00\n        /* \"#utility.yul\":23018:23462   */\n    tag_724:\n        /* \"#utility.yul\":23043:23049   */\n      dup6\n        /* \"#utility.yul\":23040:23041   */\n      dup2\n        /* \"#utility.yul\":23037:23050   */\n      lt\n        /* \"#utility.yul\":23018:23462   */\n      iszero\n      tag_726\n      jumpi\n        /* \"#utility.yul\":23114:23123   */\n      dup5\n        /* \"#utility.yul\":23108:23112   */\n      dup5\n        /* \"#utility.yul\":23104:23124   */\n      sub\n        /* \"#utility.yul\":23099:23102   */\n      dup10\n        /* \"#utility.yul\":23092:23125   */\n      mstore\n        /* \"#utility.yul\":23165:23171   */\n      dup2\n        /* \"#utility.yul\":23159:23172   */\n      mload\n        /* \"#utility.yul\":23193:23309   */\n      tag_727\n        /* \"#utility.yul\":23304:23308   */\n      dup6\n        /* \"#utility.yul\":23289:23302   */\n      dup3\n        /* \"#utility.yul\":23193:23309   */\n      tag_461\n      jump\t// in\n    tag_727:\n        /* \"#utility.yul\":23185:23309   */\n      swap5\n      pop\n        /* \"#utility.yul\":23332:23418   */\n      tag_728\n        /* \"#utility.yul\":23411:23417   */\n      dup4\n        /* \"#utility.yul\":23332:23418   */\n      tag_462\n      jump\t// in\n    tag_728:\n        /* \"#utility.yul\":23322:23418   */\n      swap3\n      pop\n        /* \"#utility.yul\":23447:23451   */\n      0x20\n        /* \"#utility.yul\":23442:23445   */\n      dup11\n        /* \"#utility.yul\":23438:23452   */\n      add\n        /* \"#utility.yul\":23431:23452   */\n      swap10\n      pop\n        /* \"#utility.yul\":23078:23462   */\n      pop\n        /* \"#utility.yul\":23065:23066   */\n      0x01\n        /* \"#utility.yul\":23062:23063   */\n      dup2\n        /* \"#utility.yul\":23058:23067   */\n      add\n        /* \"#utility.yul\":23053:23067   */\n      swap1\n      pop\n        /* \"#utility.yul\":23018:23462   */\n      jump(tag_724)\n    tag_726:\n        /* \"#utility.yul\":23022:23036   */\n      pop\n        /* \"#utility.yul\":23478:23482   */\n      dup3\n        /* \"#utility.yul\":23471:23482   */\n      swap8\n      pop\n        /* \"#utility.yul\":23498:23501   */\n      dup8\n        /* \"#utility.yul\":23491:23501   */\n      swap6\n      pop\n        /* \"#utility.yul\":22564:23507   */\n      pop\n      pop\n      pop\n      pop\n      pop\n        /* \"#utility.yul\":22388:23507   */\n      swap3\n      swap2\n      pop\n      pop\n      jump\t// out\n        /* \"#utility.yul\":23513:23990   */\n    tag_70:\n        /* \"#utility.yul\":23708:23712   */\n      0x00\n        /* \"#utility.yul\":23746:23748   */\n      0x20\n        /* \"#utility.yul\":23735:23744   */\n      dup3\n        /* \"#utility.yul\":23731:23749   */\n      add\n        /* \"#utility.yul\":23723:23749   */\n      swap1\n      pop\n        /* \"#utility.yul\":23795:23804   */\n      dup2\n        /* \"#utility.yul\":23789:23793   */\n      dup2\n        /* \"#utility.yul\":23785:23805   */\n      sub\n        /* \"#utility.yul\":23781:23782   */\n      0x00\n        /* \"#utility.yul\":23770:23779   */\n      dup4\n        /* \"#utility.yul\":23766:23783   */\n      add\n        /* \"#utility.yul\":23759:23806   */\n      mstore\n        /* \"#utility.yul\":23823:23983   */\n      tag_730\n        /* \"#utility.yul\":23978:23982   */\n      dup2\n        /* \"#utility.yul\":23969:23975   */\n      dup5\n        /* \"#utility.yul\":23823:23983   */\n      tag_463\n      jump\t// in\n    tag_730:\n        /* \"#utility.yul\":23815:23983   */\n      swap1\n      pop\n        /* \"#utility.yul\":23513:23990   */\n      swap3\n      swap2\n      pop\n      pop\n      jump\t// out\n        /* \"#utility.yul\":23996:24180   */\n    tag_464:\n        /* \"#utility.yul\":24095:24106   */\n      0x00\n        /* \"#utility.yul\":24129:24135   */\n      dup3\n        /* \"#utility.yul\":24124:24127   */\n      dup3\n        /* \"#utility.yul\":24117:24136   */\n      mstore\n        /* \"#utility.yul\":24169:24173   */\n      0x20\n        /* \"#utility.yul\":24164:24167   */\n      dup3\n        /* \"#utility.yul\":24160:24174   */\n      add\n        /* \"#utility.yul\":24145:24174   */\n      swap1\n      pop\n        /* \"#utility.yul\":23996:24180   */\n      swap3\n      swap2\n      pop\n      pop\n      jump\t// out\n        /* \"#utility.yul\":24216:24948   */\n    tag_465:\n        /* \"#utility.yul\":24335:24338   */\n      0x00\n        /* \"#utility.yul\":24364:24418   */\n      tag_733\n        /* \"#utility.yul\":24412:24417   */\n      dup3\n        /* \"#utility.yul\":24364:24418   */\n      tag_421\n      jump\t// in\n    tag_733:\n        /* \"#utility.yul\":24434:24520   */\n      tag_734\n        /* \"#utility.yul\":24513:24519   */\n      dup2\n        /* \"#utility.yul\":24508:24511   */\n      dup6\n        /* \"#utility.yul\":24434:24520   */\n      tag_464\n      jump\t// in\n    tag_734:\n        /* \"#utility.yul\":24427:24520   */\n      swap4\n      pop\n        /* \"#utility.yul\":24544:24600   */\n      tag_735\n        /* \"#utility.yul\":24594:24599   */\n      dup4\n        /* \"#utility.yul\":24544:24600   */\n      tag_423\n      jump\t// in\n    tag_735:\n        /* \"#utility.yul\":24623:24630   */\n      dup1\n        /* \"#utility.yul\":24654:24655   */\n      0x00\n        /* \"#utility.yul\":24639:24923   */\n    tag_736:\n        /* \"#utility.yul\":24664:24670   */\n      dup4\n        /* \"#utility.yul\":24661:24662   */\n      dup2\n        /* \"#utility.yul\":24658:24671   */\n      lt\n        /* \"#utility.yul\":24639:24923   */\n      iszero\n      tag_738\n      jumpi\n        /* \"#utility.yul\":24740:24746   */\n      dup2\n        /* \"#utility.yul\":24734:24747   */\n      mload\n        /* \"#utility.yul\":24767:24830   */\n      tag_739\n        /* \"#utility.yul\":24826:24829   */\n      dup9\n        /* \"#utility.yul\":24811:24824   */\n      dup3\n        /* \"#utility.yul\":24767:24830   */\n      tag_424\n      jump\t// in\n    tag_739:\n        /* \"#utility.yul\":24760:24830   */\n      swap8\n      pop\n        /* \"#utility.yul\":24853:24913   */\n      tag_740\n        /* \"#utility.yul\":24906:24912   */\n      dup4\n        /* \"#utility.yul\":24853:24913   */\n      tag_425\n      jump\t// in\n    tag_740:\n        /* \"#utility.yul\":24843:24913   */\n      swap3\n      pop\n        /* \"#utility.yul\":24699:24923   */\n      pop\n        /* \"#utility.yul\":24686:24687   */\n      0x01\n        /* \"#utility.yul\":24683:24684   */\n      dup2\n        /* \"#utility.yul\":24679:24688   */\n      add\n        /* \"#utility.yul\":24674:24688   */\n      swap1\n      pop\n        /* \"#utility.yul\":24639:24923   */\n      jump(tag_736)\n    tag_738:\n        /* \"#utility.yul\":24643:24657   */\n      pop\n        /* \"#utility.yul\":24939:24942   */\n      dup6\n        /* \"#utility.yul\":24932:24942   */\n      swap4\n      pop\n        /* \"#utility.yul\":24340:24948   */\n      pop\n      pop\n      pop\n        /* \"#utility.yul\":24216:24948   */\n      swap3\n      swap2\n      pop\n      pop\n      jump\t// out\n        /* \"#utility.yul\":24954:25327   */\n    tag_75:\n        /* \"#utility.yul\":25097:25101   */\n      0x00\n        /* \"#utility.yul\":25135:25137   */\n      0x20\n        /* \"#utility.yul\":25124:25133   */\n      dup3\n        /* \"#utility.yul\":25120:25138   */\n      add\n        /* \"#utility.yul\":25112:25138   */\n      swap1\n      pop\n        /* \"#utility.yul\":25184:25193   */\n      dup2\n        /* \"#utility.yul\":25178:25182   */\n      dup2\n        /* \"#utility.yul\":25174:25194   */\n      sub\n        /* \"#utility.yul\":25170:25171   */\n      0x00\n        /* \"#utility.yul\":25159:25168   */\n      dup4\n        /* \"#utility.yul\":25155:25172   */\n      add\n        /* \"#utility.yul\":25148:25195   */\n      mstore\n        /* \"#utility.yul\":25212:25320   */\n      tag_742\n        /* \"#utility.yul\":25315:25319   */\n      dup2\n        /* \"#utility.yul\":25306:25312   */\n      dup5\n        /* \"#utility.yul\":25212:25320   */\n      tag_465\n      jump\t// in\n    tag_742:\n        /* \"#utility.yul\":25204:25320   */\n      swap1\n      pop\n        /* \"#utility.yul\":24954:25327   */\n      swap3\n      swap2\n      pop\n      pop\n      jump\t// out\n        /* \"#utility.yul\":25333:25449   */\n    tag_466:\n        /* \"#utility.yul\":25423:25424   */\n      0x07\n        /* \"#utility.yul\":25416:25421   */\n      dup2\n        /* \"#utility.yul\":25413:25425   */\n      lt\n        /* \"#utility.yul\":25403:25443   */\n      tag_744\n      jumpi\n        /* \"#utility.yul\":25439:25440   */\n      0x00\n        /* \"#utility.yul\":25436:25437   */\n      0x00\n        /* \"#utility.yul\":25429:25441   */\n      revert\n        /* \"#utility.yul\":25403:25443   */\n    tag_744:\n        /* \"#utility.yul\":25333:25449   */\n      pop\n      jump\t// out\n        /* \"#utility.yul\":25455:25628   */\n    tag_467:\n        /* \"#utility.yul\":25518:25523   */\n      0x00\n        /* \"#utility.yul\":25556:25562   */\n      dup2\n        /* \"#utility.yul\":25543:25563   */\n      calldataload\n        /* \"#utility.yul\":25534:25563   */\n      swap1\n      pop\n        /* \"#utility.yul\":25572:25622   */\n      tag_746\n        /* \"#utility.yul\":25616:25621   */\n      dup2\n        /* \"#utility.yul\":25572:25622   */\n      tag_466\n      jump\t// in\n    tag_746:\n        /* \"#utility.yul\":25455:25628   */\n      swap3\n      swap2\n      pop\n      pop\n      jump\t// out\n        /* \"#utility.yul\":25634:26142   */\n    tag_78:\n        /* \"#utility.yul\":25719:25725   */\n      0x00\n        /* \"#utility.yul\":25727:25733   */\n      0x00\n        /* \"#utility.yul\":25776:25778   */\n      0x40\n        /* \"#utility.yul\":25764:25773   */\n      dup4\n        /* \"#utility.yul\":25755:25762   */\n      dup6\n        /* \"#utility.yul\":25751:25774   */\n      sub\n        /* \"#utility.yul\":25747:25779   */\n      slt\n        /* \"#utility.yul\":25744:25863   */\n      iszero\n      tag_748\n      jumpi\n        /* \"#utility.yul\":25782:25861   */\n      tag_749\n      tag_403\n      jump\t// in\n    tag_749:\n        /* \"#utility.yul\":25744:25863   */\n    tag_748:\n        /* \"#utility.yul\":25902:25903   */\n      0x00\n        /* \"#utility.yul\":25927:25980   */\n      tag_750\n        /* \"#utility.yul\":25972:25979   */\n      dup6\n        /* \"#utility.yul\":25963:25969   */\n      dup3\n        /* \"#utility.yul\":25952:25961   */\n      dup7\n        /* \"#utility.yul\":25948:25970   */\n      add\n        /* \"#utility.yul\":25927:25980   */\n      tag_407\n      jump\t// in\n    tag_750:\n        /* \"#utility.yul\":25917:25980   */\n      swap3\n      pop\n        /* \"#utility.yul\":25873:25990   */\n      pop\n        /* \"#utility.yul\":26029:26031   */\n      0x20\n        /* \"#utility.yul\":26055:26125   */\n      tag_751\n        /* \"#utility.yul\":26117:26124   */\n      dup6\n        /* \"#utility.yul\":26108:26114   */\n      dup3\n        /* \"#utility.yul\":26097:26106   */\n      dup7\n        /* \"#utility.yul\":26093:26115   */\n      add\n        /* \"#utility.yul\":26055:26125   */\n      tag_467\n      jump\t// in\n    tag_751:\n        /* \"#utility.yul\":26045:26125   */\n      swap2\n      pop\n        /* \"#utility.yul\":26000:26135   */\n      pop\n        /* \"#utility.yul\":25634:26142   */\n      swap3\n      pop\n      swap3\n      swap1\n      pop\n      jump\t// out\n        /* \"#utility.yul\":26148:26622   */\n    tag_85:\n        /* \"#utility.yul\":26216:26222   */\n      0x00\n        /* \"#utility.yul\":26224:26230   */\n      0x00\n        /* \"#utility.yul\":26273:26275   */\n      0x40\n        /* \"#utility.yul\":26261:26270   */\n      dup4\n        /* \"#utility.yul\":26252:26259   */\n      dup6\n        /* \"#utility.yul\":26248:26271   */\n      sub\n        /* \"#utility.yul\":26244:26276   */\n      slt\n        /* \"#utility.yul\":26241:26360   */\n      iszero\n      tag_753\n      jumpi\n        /* \"#utility.yul\":26279:26358   */\n      tag_754\n      tag_403\n      jump\t// in\n    tag_754:\n        /* \"#utility.yul\":26241:26360   */\n    tag_753:\n        /* \"#utility.yul\":26399:26400   */\n      0x00\n        /* \"#utility.yul\":26424:26477   */\n      tag_755\n        /* \"#utility.yul\":26469:26476   */\n      dup6\n        /* \"#utility.yul\":26460:26466   */\n      dup3\n        /* \"#utility.yul\":26449:26458   */\n      dup7\n        /* \"#utility.yul\":26445:26467   */\n      add\n        /* \"#utility.yul\":26424:26477   */\n      tag_448\n      jump\t// in\n    tag_755:\n        /* \"#utility.yul\":26414:26477   */\n      swap3\n      pop\n        /* \"#utility.yul\":26370:26487   */\n      pop\n        /* \"#utility.yul\":26526:26528   */\n      0x20\n        /* \"#utility.yul\":26552:26605   */\n      tag_756\n        /* \"#utility.yul\":26597:26604   */\n      dup6\n        /* \"#utility.yul\":26588:26594   */\n      dup3\n        /* \"#utility.yul\":26577:26586   */\n      dup7\n        /* \"#utility.yul\":26573:26595   */\n      add\n        /* \"#utility.yul\":26552:26605   */\n      tag_407\n      jump\t// in\n    tag_756:\n        /* \"#utility.yul\":26542:26605   */\n      swap2\n      pop\n        /* \"#utility.yul\":26497:26615   */\n      pop\n        /* \"#utility.yul\":26148:26622   */\n      swap3\n      pop\n      swap3\n      swap1\n      pop\n      jump\t// out\n        /* \"#utility.yul\":26628:26748   */\n    tag_468:\n        /* \"#utility.yul\":26716:26717   */\n      0x05\n        /* \"#utility.yul\":26709:26714   */\n      dup2\n        /* \"#utility.yul\":26706:26718   */\n      lt\n        /* \"#utility.yul\":26696:26742   */\n      tag_758\n      jumpi\n        /* \"#utility.yul\":26722:26740   */\n      tag_759\n      tag_151\n      jump\t// in\n    tag_759:\n        /* \"#utility.yul\":26696:26742   */\n    tag_758:\n        /* \"#utility.yul\":26628:26748   */\n      pop\n      jump\t// out\n        /* \"#utility.yul\":26754:26895   */\n    tag_469:\n        /* \"#utility.yul\":26806:26813   */\n      0x00\n        /* \"#utility.yul\":26835:26840   */\n      dup2\n        /* \"#utility.yul\":26824:26840   */\n      swap1\n      pop\n        /* \"#utility.yul\":26841:26889   */\n      tag_761\n        /* \"#utility.yul\":26883:26888   */\n      dup3\n        /* \"#utility.yul\":26841:26889   */\n      tag_468\n      jump\t// in\n    tag_761:\n        /* \"#utility.yul\":26754:26895   */\n      swap2\n      swap1\n      pop\n      jump\t// out\n        /* \"#utility.yul\":26901:27042   */\n    tag_470:\n        /* \"#utility.yul\":26964:26973   */\n      0x00\n        /* \"#utility.yul\":26997:27036   */\n      tag_763\n        /* \"#utility.yul\":27030:27035   */\n      dup3\n        /* \"#utility.yul\":26997:27036   */\n      tag_469\n      jump\t// in\n    tag_763:\n        /* \"#utility.yul\":26984:27036   */\n      swap1\n      pop\n        /* \"#utility.yul\":26901:27042   */\n      swap2\n      swap1\n      pop\n      jump\t// out\n        /* \"#utility.yul\":27048:27205   */\n    tag_471:\n        /* \"#utility.yul\":27148:27198   */\n      tag_765\n        /* \"#utility.yul\":27192:27197   */\n      dup2\n        /* \"#utility.yul\":27148:27198   */\n      tag_470\n      jump\t// in\n    tag_765:\n        /* \"#utility.yul\":27143:27146   */\n      dup3\n        /* \"#utility.yul\":27136:27199   */\n      mstore\n        /* \"#utility.yul\":27048:27205   */\n      pop\n      pop\n      jump\t// out\n        /* \"#utility.yul\":27211:28202   */\n    tag_92:\n        /* \"#utility.yul\":27499:27503   */\n      0x00\n        /* \"#utility.yul\":27537:27540   */\n      0xe0\n        /* \"#utility.yul\":27526:27535   */\n      dup3\n        /* \"#utility.yul\":27522:27541   */\n      add\n        /* \"#utility.yul\":27514:27541   */\n      swap1\n      pop\n        /* \"#utility.yul\":27551:27622   */\n      tag_767\n        /* \"#utility.yul\":27619:27620   */\n      0x00\n        /* \"#utility.yul\":27608:27617   */\n      dup4\n        /* \"#utility.yul\":27604:27621   */\n      add\n        /* \"#utility.yul\":27595:27601   */\n      dup11\n        /* \"#utility.yul\":27551:27622   */\n      tag_430\n      jump\t// in\n    tag_767:\n        /* \"#utility.yul\":27632:27704   */\n      tag_768\n        /* \"#utility.yul\":27700:27702   */\n      0x20\n        /* \"#utility.yul\":27689:27698   */\n      dup4\n        /* \"#utility.yul\":27685:27703   */\n      add\n        /* \"#utility.yul\":27676:27682   */\n      dup10\n        /* \"#utility.yul\":27632:27704   */\n      tag_430\n      jump\t// in\n    tag_768:\n        /* \"#utility.yul\":27714:27799   */\n      tag_769\n        /* \"#utility.yul\":27795:27797   */\n      0x40\n        /* \"#utility.yul\":27784:27793   */\n      dup4\n        /* \"#utility.yul\":27780:27798   */\n      add\n        /* \"#utility.yul\":27771:27777   */\n      dup9\n        /* \"#utility.yul\":27714:27799   */\n      tag_471\n      jump\t// in\n    tag_769:\n        /* \"#utility.yul\":27809:27881   */\n      tag_770\n        /* \"#utility.yul\":27877:27879   */\n      0x60\n        /* \"#utility.yul\":27866:27875   */\n      dup4\n        /* \"#utility.yul\":27862:27880   */\n      add\n        /* \"#utility.yul\":27853:27859   */\n      dup8\n        /* \"#utility.yul\":27809:27881   */\n      tag_431\n      jump\t// in\n    tag_770:\n        /* \"#utility.yul\":27929:27938   */\n      dup2\n        /* \"#utility.yul\":27923:27927   */\n      dup2\n        /* \"#utility.yul\":27919:27939   */\n      sub\n        /* \"#utility.yul\":27913:27916   */\n      0x80\n        /* \"#utility.yul\":27902:27911   */\n      dup4\n        /* \"#utility.yul\":27898:27917   */\n      add\n        /* \"#utility.yul\":27891:27940   */\n      mstore\n        /* \"#utility.yul\":27957:28035   */\n      tag_771\n        /* \"#utility.yul\":28030:28034   */\n      dup2\n        /* \"#utility.yul\":28021:28027   */\n      dup7\n        /* \"#utility.yul\":27957:28035   */\n      tag_433\n      jump\t// in\n    tag_771:\n        /* \"#utility.yul\":27949:28035   */\n      swap1\n      pop\n        /* \"#utility.yul\":28045:28118   */\n      tag_772\n        /* \"#utility.yul\":28113:28116   */\n      0xa0\n        /* \"#utility.yul\":28102:28111   */\n      dup4\n        /* \"#utility.yul\":28098:28117   */\n      add\n        /* \"#utility.yul\":28089:28095   */\n      dup6\n        /* \"#utility.yul\":28045:28118   */\n      tag_430\n      jump\t// in\n    tag_772:\n        /* \"#utility.yul\":28128:28195   */\n      tag_773\n        /* \"#utility.yul\":28190:28193   */\n      0xc0\n        /* \"#utility.yul\":28179:28188   */\n      dup4\n        /* \"#utility.yul\":28175:28194   */\n      add\n        /* \"#utility.yul\":28166:28172   */\n      dup5\n        /* \"#utility.yul\":28128:28195   */\n      tag_435\n      jump\t// in\n    tag_773:\n        /* \"#utility.yul\":27211:28202   */\n      swap9\n      swap8\n      pop\n      pop\n      pop\n      pop\n      pop\n      pop\n      pop\n      pop\n      jump\t// out\n        /* \"#utility.yul\":28208:28418   */\n    tag_97:\n        /* \"#utility.yul\":28295:28299   */\n      0x00\n        /* \"#utility.yul\":28333:28335   */\n      0x20\n        /* \"#utility.yul\":28322:28331   */\n      dup3\n        /* \"#utility.yul\":28318:28336   */\n      add\n        /* \"#utility.yul\":28310:28336   */\n      swap1\n      pop\n        /* \"#utility.yul\":28346:28411   */\n      tag_775\n        /* \"#utility.yul\":28408:28409   */\n      0x00\n        /* \"#utility.yul\":28397:28406   */\n      dup4\n        /* \"#utility.yul\":28393:28410   */\n      add\n        /* \"#utility.yul\":28384:28390   */\n      dup5\n        /* \"#utility.yul\":28346:28411   */\n      tag_435\n      jump\t// in\n    tag_775:\n        /* \"#utility.yul\":28208:28418   */\n      swap3\n      swap2\n      pop\n      pop\n      jump\t// out\n        /* \"#utility.yul\":28424:28539   */\n    tag_472:\n        /* \"#utility.yul\":28509:28532   */\n      tag_777\n        /* \"#utility.yul\":28526:28531   */\n      dup2\n        /* \"#utility.yul\":28509:28532   */\n      tag_444\n      jump\t// in\n    tag_777:\n        /* \"#utility.yul\":28504:28507   */\n      dup3\n        /* \"#utility.yul\":28497:28533   */\n      mstore\n        /* \"#utility.yul\":28424:28539   */\n      pop\n      pop\n      jump\t// out\n        /* \"#utility.yul\":28545:29811   */\n    tag_102:\n        /* \"#utility.yul\":28892:28896   */\n      0x00\n        /* \"#utility.yul\":28930:28933   */\n      0x0100\n        /* \"#utility.yul\":28919:28928   */\n      dup3\n        /* \"#utility.yul\":28915:28934   */\n      add\n        /* \"#utility.yul\":28907:28934   */\n      swap1\n      pop\n        /* \"#utility.yul\":28944:29015   */\n      tag_779\n        /* \"#utility.yul\":29012:29013   */\n      0x00\n        /* \"#utility.yul\":29001:29010   */\n      dup4\n        /* \"#utility.yul\":28997:29014   */\n      add\n        /* \"#utility.yul\":28988:28994   */\n      dup12\n        /* \"#utility.yul\":28944:29015   */\n      tag_430\n      jump\t// in\n    tag_779:\n        /* \"#utility.yul\":29025:29097   */\n      tag_780\n        /* \"#utility.yul\":29093:29095   */\n      0x20\n        /* \"#utility.yul\":29082:29091   */\n      dup4\n        /* \"#utility.yul\":29078:29096   */\n      add\n        /* \"#utility.yul\":29069:29075   */\n      dup11\n        /* \"#utility.yul\":29025:29097   */\n      tag_430\n      jump\t// in\n    tag_780:\n        /* \"#utility.yul\":29107:29179   */\n      tag_781\n        /* \"#utility.yul\":29175:29177   */\n      0x40\n        /* \"#utility.yul\":29164:29173   */\n      dup4\n        /* \"#utility.yul\":29160:29178   */\n      add\n        /* \"#utility.yul\":29151:29157   */\n      dup10\n        /* \"#utility.yul\":29107:29179   */\n      tag_431\n      jump\t// in\n    tag_781:\n        /* \"#utility.yul\":29226:29235   */\n      dup2\n        /* \"#utility.yul\":29220:29224   */\n      dup2\n        /* \"#utility.yul\":29216:29236   */\n      sub\n        /* \"#utility.yul\":29211:29213   */\n      0x60\n        /* \"#utility.yul\":29200:29209   */\n      dup4\n        /* \"#utility.yul\":29196:29214   */\n      add\n        /* \"#utility.yul\":29189:29237   */\n      mstore\n        /* \"#utility.yul\":29254:29332   */\n      tag_782\n        /* \"#utility.yul\":29327:29331   */\n      dup2\n        /* \"#utility.yul\":29318:29324   */\n      dup9\n        /* \"#utility.yul\":29254:29332   */\n      tag_433\n      jump\t// in\n    tag_782:\n        /* \"#utility.yul\":29246:29332   */\n      swap1\n      pop\n        /* \"#utility.yul\":29380:29389   */\n      dup2\n        /* \"#utility.yul\":29374:29378   */\n      dup2\n        /* \"#utility.yul\":29370:29390   */\n      sub\n        /* \"#utility.yul\":29364:29367   */\n      0x80\n        /* \"#utility.yul\":29353:29362   */\n      dup4\n        /* \"#utility.yul\":29349:29368   */\n      add\n        /* \"#utility.yul\":29342:29391   */\n      mstore\n        /* \"#utility.yul\":29408:29486   */\n      tag_783\n        /* \"#utility.yul\":29481:29485   */\n      dup2\n        /* \"#utility.yul\":29472:29478   */\n      dup8\n        /* \"#utility.yul\":29408:29486   */\n      tag_433\n      jump\t// in\n    tag_783:\n        /* \"#utility.yul\":29400:29486   */\n      swap1\n      pop\n        /* \"#utility.yul\":29496:29569   */\n      tag_784\n        /* \"#utility.yul\":29564:29567   */\n      0xa0\n        /* \"#utility.yul\":29553:29562   */\n      dup4\n        /* \"#utility.yul\":29549:29568   */\n      add\n        /* \"#utility.yul\":29540:29546   */\n      dup7\n        /* \"#utility.yul\":29496:29569   */\n      tag_430\n      jump\t// in\n    tag_784:\n        /* \"#utility.yul\":29617:29626   */\n      dup2\n        /* \"#utility.yul\":29611:29615   */\n      dup2\n        /* \"#utility.yul\":29607:29627   */\n      sub\n        /* \"#utility.yul\":29601:29604   */\n      0xc0\n        /* \"#utility.yul\":29590:29599   */\n      dup4\n        /* \"#utility.yul\":29586:29605   */\n      add\n        /* \"#utility.yul\":29579:29628   */\n      mstore\n        /* \"#utility.yul\":29645:29723   */\n      tag_785\n        /* \"#utility.yul\":29718:29722   */\n      dup2\n        /* \"#utility.yul\":29709:29715   */\n      dup6\n        /* \"#utility.yul\":29645:29723   */\n      tag_433\n      jump\t// in\n    tag_785:\n        /* \"#utility.yul\":29637:29723   */\n      swap1\n      pop\n        /* \"#utility.yul\":29733:29804   */\n      tag_786\n        /* \"#utility.yul\":29799:29802   */\n      0xe0\n        /* \"#utility.yul\":29788:29797   */\n      dup4\n        /* \"#utility.yul\":29784:29803   */\n      add\n        /* \"#utility.yul\":29775:29781   */\n      dup5\n        /* \"#utility.yul\":29733:29804   */\n      tag_472\n      jump\t// in\n    tag_786:\n        /* \"#utility.yul\":28545:29811   */\n      swap10\n      swap9\n      pop\n      pop\n      pop\n      pop\n      pop\n      pop\n      pop\n      pop\n      pop\n      jump\t// out\n        /* \"#utility.yul\":29817:29928   */\n    tag_473:\n        /* \"#utility.yul\":29902:29903   */\n      0x06\n        /* \"#utility.yul\":29895:29900   */\n      dup2\n        /* \"#utility.yul\":29892:29904   */\n      lt\n        /* \"#utility.yul\":29882:29922   */\n      tag_788\n      jumpi\n        /* \"#utility.yul\":29918:29919   */\n      0x00\n        /* \"#utility.yul\":29915:29916   */\n      0x00\n        /* \"#utility.yul\":29908:29920   */\n      revert\n        /* \"#utility.yul\":29882:29922   */\n    tag_788:\n        /* \"#utility.yul\":29817:29928   */\n      pop\n      jump\t// out\n        /* \"#utility.yul\":29934:30097   */\n    tag_474:\n        /* \"#utility.yul\":29992:29997   */\n      0x00\n        /* \"#utility.yul\":30030:30036   */\n      dup2\n        /* \"#utility.yul\":30017:30037   */\n      calldataload\n        /* \"#utility.yul\":30008:30037   */\n      swap1\n      pop\n        /* \"#utility.yul\":30046:30091   */\n      tag_790\n        /* \"#utility.yul\":30085:30090   */\n      dup2\n        /* \"#utility.yul\":30046:30091   */\n      tag_473\n      jump\t// in\n    tag_790:\n        /* \"#utility.yul\":29934:30097   */\n      swap3\n      swap2\n      pop\n      pop\n      jump\t// out\n        /* \"#utility.yul\":30103:31106   */\n    tag_108:\n        /* \"#utility.yul\":30212:30218   */\n      0x00\n        /* \"#utility.yul\":30220:30226   */\n      0x00\n        /* \"#utility.yul\":30228:30234   */\n      0x00\n        /* \"#utility.yul\":30277:30279   */\n      0x60\n        /* \"#utility.yul\":30265:30274   */\n      dup5\n        /* \"#utility.yul\":30256:30263   */\n      dup7\n        /* \"#utility.yul\":30252:30275   */\n      sub\n        /* \"#utility.yul\":30248:30280   */\n      slt\n        /* \"#utility.yul\":30245:30364   */\n      iszero\n      tag_792\n      jumpi\n        /* \"#utility.yul\":30283:30362   */\n      tag_793\n      tag_403\n      jump\t// in\n    tag_793:\n        /* \"#utility.yul\":30245:30364   */\n    tag_792:\n        /* \"#utility.yul\":30431:30432   */\n      0x00\n        /* \"#utility.yul\":30420:30429   */\n      dup5\n        /* \"#utility.yul\":30416:30433   */\n      add\n        /* \"#utility.yul\":30403:30434   */\n      calldataload\n        /* \"#utility.yul\":30461:30479   */\n      0xffffffffffffffff\n        /* \"#utility.yul\":30453:30459   */\n      dup2\n        /* \"#utility.yul\":30450:30480   */\n      gt\n        /* \"#utility.yul\":30447:30564   */\n      iszero\n      tag_794\n      jumpi\n        /* \"#utility.yul\":30483:30562   */\n      tag_795\n      tag_404\n      jump\t// in\n    tag_795:\n        /* \"#utility.yul\":30447:30564   */\n    tag_794:\n        /* \"#utility.yul\":30588:30651   */\n      tag_796\n        /* \"#utility.yul\":30643:30650   */\n      dup7\n        /* \"#utility.yul\":30634:30640   */\n      dup3\n        /* \"#utility.yul\":30623:30632   */\n      dup8\n        /* \"#utility.yul\":30619:30641   */\n      add\n        /* \"#utility.yul\":30588:30651   */\n      tag_443\n      jump\t// in\n    tag_796:\n        /* \"#utility.yul\":30578:30651   */\n      swap4\n      pop\n        /* \"#utility.yul\":30374:30661   */\n      pop\n        /* \"#utility.yul\":30700:30702   */\n      0x20\n        /* \"#utility.yul\":30726:30791   */\n      tag_797\n        /* \"#utility.yul\":30783:30790   */\n      dup7\n        /* \"#utility.yul\":30774:30780   */\n      dup3\n        /* \"#utility.yul\":30763:30772   */\n      dup8\n        /* \"#utility.yul\":30759:30781   */\n      add\n        /* \"#utility.yul\":30726:30791   */\n      tag_474\n      jump\t// in\n    tag_797:\n        /* \"#utility.yul\":30716:30791   */\n      swap3\n      pop\n        /* \"#utility.yul\":30671:30801   */\n      pop\n        /* \"#utility.yul\":30868:30870   */\n      0x40\n        /* \"#utility.yul\":30857:30866   */\n      dup5\n        /* \"#utility.yul\":30853:30871   */\n      add\n        /* \"#utility.yul\":30840:30872   */\n      calldataload\n        /* \"#utility.yul\":30899:30917   */\n      0xffffffffffffffff\n        /* \"#utility.yul\":30891:30897   */\n      dup2\n        /* \"#utility.yul\":30888:30918   */\n      gt\n        /* \"#utility.yul\":30885:31002   */\n      iszero\n      tag_798\n      jumpi\n        /* \"#utility.yul\":30921:31000   */\n      tag_799\n      tag_404\n      jump\t// in\n    tag_799:\n        /* \"#utility.yul\":30885:31002   */\n    tag_798:\n        /* \"#utility.yul\":31026:31089   */\n      tag_800\n        /* \"#utility.yul\":31081:31088   */\n      dup7\n        /* \"#utility.yul\":31072:31078   */\n      dup3\n        /* \"#utility.yul\":31061:31070   */\n      dup8\n        /* \"#utility.yul\":31057:31079   */\n      add\n        /* \"#utility.yul\":31026:31089   */\n      tag_443\n      jump\t// in\n    tag_800:\n        /* \"#utility.yul\":31016:31089   */\n      swap2\n      pop\n        /* \"#utility.yul\":30811:31099   */\n      pop\n        /* \"#utility.yul\":30103:31106   */\n      swap3\n      pop\n      swap3\n      pop\n      swap3\n      jump\t// out\n        /* \"#utility.yul\":31112:31226   */\n    tag_475:\n        /* \"#utility.yul\":31200:31201   */\n      0x05\n        /* \"#utility.yul\":31193:31198   */\n      dup2\n        /* \"#utility.yul\":31190:31202   */\n      lt\n        /* \"#utility.yul\":31180:31220   */\n      tag_802\n      jumpi\n        /* \"#utility.yul\":31216:31217   */\n      0x00\n        /* \"#utility.yul\":31213:31214   */\n      0x00\n        /* \"#utility.yul\":31206:31218   */\n      revert\n        /* \"#utility.yul\":31180:31220   */\n    tag_802:\n        /* \"#utility.yul\":31112:31226   */\n      pop\n      jump\t// out\n        /* \"#utility.yul\":31232:31401   */\n    tag_476:\n        /* \"#utility.yul\":31293:31298   */\n      0x00\n        /* \"#utility.yul\":31331:31337   */\n      dup2\n        /* \"#utility.yul\":31318:31338   */\n      calldataload\n        /* \"#utility.yul\":31309:31338   */\n      swap1\n      pop\n        /* \"#utility.yul\":31347:31395   */\n      tag_804\n        /* \"#utility.yul\":31389:31394   */\n      dup2\n        /* \"#utility.yul\":31347:31395   */\n      tag_475\n      jump\t// in\n    tag_804:\n        /* \"#utility.yul\":31232:31401   */\n      swap3\n      swap2\n      pop\n      pop\n      jump\t// out\n        /* \"#utility.yul\":31407:32236   */\n    tag_112:\n        /* \"#utility.yul\":31509:31515   */\n      0x00\n        /* \"#utility.yul\":31517:31523   */\n      0x00\n        /* \"#utility.yul\":31525:31531   */\n      0x00\n        /* \"#utility.yul\":31574:31576   */\n      0x60\n        /* \"#utility.yul\":31562:31571   */\n      dup5\n        /* \"#utility.yul\":31553:31560   */\n      dup7\n        /* \"#utility.yul\":31549:31572   */\n      sub\n        /* \"#utility.yul\":31545:31577   */\n      slt\n        /* \"#utility.yul\":31542:31661   */\n      iszero\n      tag_806\n      jumpi\n        /* \"#utility.yul\":31580:31659   */\n      tag_807\n      tag_403\n      jump\t// in\n    tag_807:\n        /* \"#utility.yul\":31542:31661   */\n    tag_806:\n        /* \"#utility.yul\":31700:31701   */\n      0x00\n        /* \"#utility.yul\":31725:31778   */\n      tag_808\n        /* \"#utility.yul\":31770:31777   */\n      dup7\n        /* \"#utility.yul\":31761:31767   */\n      dup3\n        /* \"#utility.yul\":31750:31759   */\n      dup8\n        /* \"#utility.yul\":31746:31768   */\n      add\n        /* \"#utility.yul\":31725:31778   */\n      tag_407\n      jump\t// in\n    tag_808:\n        /* \"#utility.yul\":31715:31778   */\n      swap4\n      pop\n        /* \"#utility.yul\":31671:31788   */\n      pop\n        /* \"#utility.yul\":31827:31829   */\n      0x20\n        /* \"#utility.yul\":31853:31921   */\n      tag_809\n        /* \"#utility.yul\":31913:31920   */\n      dup7\n        /* \"#utility.yul\":31904:31910   */\n      dup3\n        /* \"#utility.yul\":31893:31902   */\n      dup8\n        /* \"#utility.yul\":31889:31911   */\n      add\n        /* \"#utility.yul\":31853:31921   */\n      tag_476\n      jump\t// in\n    tag_809:\n        /* \"#utility.yul\":31843:31921   */\n      swap3\n      pop\n        /* \"#utility.yul\":31798:31931   */\n      pop\n        /* \"#utility.yul\":31998:32000   */\n      0x40\n        /* \"#utility.yul\":31987:31996   */\n      dup5\n        /* \"#utility.yul\":31983:32001   */\n      add\n        /* \"#utility.yul\":31970:32002   */\n      calldataload\n        /* \"#utility.yul\":32029:32047   */\n      0xffffffffffffffff\n        /* \"#utility.yul\":32021:32027   */\n      dup2\n        /* \"#utility.yul\":32018:32048   */\n      gt\n        /* \"#utility.yul\":32015:32132   */\n      iszero\n      tag_810\n      jumpi\n        /* \"#utility.yul\":32051:32130   */\n      tag_811\n      tag_404\n      jump\t// in\n    tag_811:\n        /* \"#utility.yul\":32015:32132   */\n    tag_810:\n        /* \"#utility.yul\":32156:32219   */\n      tag_812\n        /* \"#utility.yul\":32211:32218   */\n      dup7\n        /* \"#utility.yul\":32202:32208   */\n      dup3\n        /* \"#utility.yul\":32191:32200   */\n      dup8\n        /* \"#utility.yul\":32187:32209   */\n      add\n        /* \"#utility.yul\":32156:32219   */\n      tag_443\n      jump\t// in\n    tag_812:\n        /* \"#utility.yul\":32146:32219   */\n      swap2\n      pop\n        /* \"#utility.yul\":31941:32229   */\n      pop\n        /* \"#utility.yul\":31407:32236   */\n      swap3\n      pop\n      swap3\n      pop\n      swap3\n      jump\t// out\n        /* \"#utility.yul\":32242:32393   */\n    tag_477:\n        /* \"#utility.yul\":32339:32386   */\n      tag_814\n        /* \"#utility.yul\":32380:32385   */\n      dup2\n        /* \"#utility.yul\":32339:32386   */\n      tag_451\n      jump\t// in\n    tag_814:\n        /* \"#utility.yul\":32334:32337   */\n      dup3\n        /* \"#utility.yul\":32327:32387   */\n      mstore\n        /* \"#utility.yul\":32242:32393   */\n      pop\n      pop\n      jump\t// out\n        /* \"#utility.yul\":32399:33253   */\n    tag_119:\n        /* \"#utility.yul\":32648:32652   */\n      0x00\n        /* \"#utility.yul\":32686:32689   */\n      0xa0\n        /* \"#utility.yul\":32675:32684   */\n      dup3\n        /* \"#utility.yul\":32671:32690   */\n      add\n        /* \"#utility.yul\":32663:32690   */\n      swap1\n      pop\n        /* \"#utility.yul\":32700:32771   */\n      tag_816\n        /* \"#utility.yul\":32768:32769   */\n      0x00\n        /* \"#utility.yul\":32757:32766   */\n      dup4\n        /* \"#utility.yul\":32753:32770   */\n      add\n        /* \"#utility.yul\":32744:32750   */\n      dup9\n        /* \"#utility.yul\":32700:32771   */\n      tag_431\n      jump\t// in\n    tag_816:\n        /* \"#utility.yul\":32818:32827   */\n      dup2\n        /* \"#utility.yul\":32812:32816   */\n      dup2\n        /* \"#utility.yul\":32808:32828   */\n      sub\n        /* \"#utility.yul\":32803:32805   */\n      0x20\n        /* \"#utility.yul\":32792:32801   */\n      dup4\n        /* \"#utility.yul\":32788:32806   */\n      add\n        /* \"#utility.yul\":32781:32829   */\n      mstore\n        /* \"#utility.yul\":32846:32924   */\n      tag_817\n        /* \"#utility.yul\":32919:32923   */\n      dup2\n        /* \"#utility.yul\":32910:32916   */\n      dup8\n        /* \"#utility.yul\":32846:32924   */\n      tag_433\n      jump\t// in\n    tag_817:\n        /* \"#utility.yul\":32838:32924   */\n      swap1\n      pop\n        /* \"#utility.yul\":32934:33016   */\n      tag_818\n        /* \"#utility.yul\":33012:33014   */\n      0x40\n        /* \"#utility.yul\":33001:33010   */\n      dup4\n        /* \"#utility.yul\":32997:33015   */\n      add\n        /* \"#utility.yul\":32988:32994   */\n      dup7\n        /* \"#utility.yul\":32934:33016   */\n      tag_477\n      jump\t// in\n    tag_818:\n        /* \"#utility.yul\":33063:33072   */\n      dup2\n        /* \"#utility.yul\":33057:33061   */\n      dup2\n        /* \"#utility.yul\":33053:33073   */\n      sub\n        /* \"#utility.yul\":33048:33050   */\n      0x60\n        /* \"#utility.yul\":33037:33046   */\n      dup4\n        /* \"#utility.yul\":33033:33051   */\n      add\n        /* \"#utility.yul\":33026:33074   */\n      mstore\n        /* \"#utility.yul\":33091:33169   */\n      tag_819\n        /* \"#utility.yul\":33164:33168   */\n      dup2\n        /* \"#utility.yul\":33155:33161   */\n      dup6\n        /* \"#utility.yul\":33091:33169   */\n      tag_433\n      jump\t// in\n    tag_819:\n        /* \"#utility.yul\":33083:33169   */\n      swap1\n      pop\n        /* \"#utility.yul\":33179:33246   */\n      tag_820\n        /* \"#utility.yul\":33241:33244   */\n      0x80\n        /* \"#utility.yul\":33230:33239   */\n      dup4\n        /* \"#utility.yul\":33226:33245   */\n      add\n        /* \"#utility.yul\":33217:33223   */\n      dup5\n        /* \"#utility.yul\":33179:33246   */\n      tag_435\n      jump\t// in\n    tag_820:\n        /* \"#utility.yul\":32399:33253   */\n      swap7\n      swap6\n      pop\n      pop\n      pop\n      pop\n      pop\n      pop\n      jump\t// out\n        /* \"#utility.yul\":33259:33481   */\n    tag_123:\n        /* \"#utility.yul\":33352:33356   */\n      0x00\n        /* \"#utility.yul\":33390:33392   */\n      0x20\n        /* \"#utility.yul\":33379:33388   */\n      dup3\n        /* \"#utility.yul\":33375:33393   */\n      add\n        /* \"#utility.yul\":33367:33393   */\n      swap1\n      pop\n        /* \"#utility.yul\":33403:33474   */\n      tag_822\n        /* \"#utility.yul\":33471:33472   */\n      0x00\n        /* \"#utility.yul\":33460:33469   */\n      dup4\n        /* \"#utility.yul\":33456:33473   */\n      add\n        /* \"#utility.yul\":33447:33453   */\n      dup5\n        /* \"#utility.yul\":33403:33474   */\n      tag_431\n      jump\t// in\n    tag_822:\n        /* \"#utility.yul\":33259:33481   */\n      swap3\n      swap2\n      pop\n      pop\n      jump\t// out\n        /* \"#utility.yul\":33487:33667   */\n    tag_478:\n        /* \"#utility.yul\":33535:33612   */\n      0x4e487b7100000000000000000000000000000000000000000000000000000000\n        /* \"#utility.yul\":33532:33533   */\n      0x00\n        /* \"#utility.yul\":33525:33613   */\n      mstore\n        /* \"#utility.yul\":33632:33636   */\n      0x22\n        /* \"#utility.yul\":33629:33630   */\n      0x04\n        /* \"#utility.yul\":33622:33637   */\n      mstore\n        /* \"#utility.yul\":33656:33660   */\n      0x24\n        /* \"#utility.yul\":33653:33654   */\n      0x00\n        /* \"#utility.yul\":33646:33661   */\n      revert\n        /* \"#utility.yul\":33673:33993   */\n    tag_134:\n        /* \"#utility.yul\":33717:33723   */\n      0x00\n        /* \"#utility.yul\":33754:33755   */\n      0x02\n        /* \"#utility.yul\":33748:33752   */\n      dup3\n        /* \"#utility.yul\":33744:33756   */\n      div\n        /* \"#utility.yul\":33734:33756   */\n      swap1\n      pop\n        /* \"#utility.yul\":33801:33802   */\n      0x01\n        /* \"#utility.yul\":33795:33799   */\n      dup3\n        /* \"#utility.yul\":33791:33803   */\n      and\n        /* \"#utility.yul\":33822:33840   */\n      dup1\n        /* \"#utility.yul\":33812:33893   */\n      tag_825\n      jumpi\n        /* \"#utility.yul\":33878:33882   */\n      0x7f\n        /* \"#utility.yul\":33870:33876   */\n      dup3\n        /* \"#utility.yul\":33866:33883   */\n      and\n        /* \"#utility.yul\":33856:33883   */\n      swap2\n      pop\n        /* \"#utility.yul\":33812:33893   */\n    tag_825:\n        /* \"#utility.yul\":33940:33942   */\n      0x20\n        /* \"#utility.yul\":33932:33938   */\n      dup3\n        /* \"#utility.yul\":33929:33943   */\n      lt\n        /* \"#utility.yul\":33909:33927   */\n      dup2\n        /* \"#utility.yul\":33906:33944   */\n      sub\n        /* \"#utility.yul\":33903:33987   */\n      tag_826\n      jumpi\n        /* \"#utility.yul\":33959:33977   */\n      tag_827\n      tag_478\n      jump\t// in\n    tag_827:\n        /* \"#utility.yul\":33903:33987   */\n    tag_826:\n        /* \"#utility.yul\":33724:33993   */\n      pop\n        /* \"#utility.yul\":33673:33993   */\n      swap2\n      swap1\n      pop\n      jump\t// out\n        /* \"#utility.yul\":33999:34181   */\n    tag_479:\n        /* \"#utility.yul\":34139:34173   */\n      0x4163746f72206e6f742072656769737465726564206f7220696e616374697665\n        /* \"#utility.yul\":34135:34136   */\n      0x00\n        /* \"#utility.yul\":34127:34133   */\n      dup3\n        /* \"#utility.yul\":34123:34137   */\n      add\n        /* \"#utility.yul\":34116:34174   */\n      mstore\n        /* \"#utility.yul\":33999:34181   */\n      pop\n      jump\t// out\n        /* \"#utility.yul\":34187:34553   */\n    tag_480:\n        /* \"#utility.yul\":34329:34332   */\n      0x00\n        /* \"#utility.yul\":34350:34417   */\n      tag_830\n        /* \"#utility.yul\":34414:34416   */\n      0x20\n        /* \"#utility.yul\":34409:34412   */\n      dup4\n        /* \"#utility.yul\":34350:34417   */\n      tag_432\n      jump\t// in\n    tag_830:\n        /* \"#utility.yul\":34343:34417   */\n      swap2\n      pop\n        /* \"#utility.yul\":34426:34519   */\n      tag_831\n        /* \"#utility.yul\":34515:34518   */\n      dup3\n        /* \"#utility.yul\":34426:34519   */\n      tag_479\n      jump\t// in\n    tag_831:\n        /* \"#utility.yul\":34544:34546   */\n      0x20\n        /* \"#utility.yul\":34539:34542   */\n      dup3\n        /* \"#utility.yul\":34535:34547   */\n      add\n        /* \"#utility.yul\":34528:34547   */\n      swap1\n      pop\n        /* \"#utility.yul\":34187:34553   */\n      swap2\n      swap1\n      pop\n      jump\t// out\n        /* \"#utility.yul\":34559:34978   */\n    tag_176:\n        /* \"#utility.yul\":34725:34729   */\n      0x00\n        /* \"#utility.yul\":34763:34765   */\n      0x20\n        /* \"#utility.yul\":34752:34761   */\n      dup3\n        /* \"#utility.yul\":34748:34766   */\n      add\n        /* \"#utility.yul\":34740:34766   */\n      swap1\n      pop\n        /* \"#utility.yul\":34812:34821   */\n      dup2\n        /* \"#utility.yul\":34806:34810   */\n      dup2\n        /* \"#utility.yul\":34802:34822   */\n      sub\n        /* \"#utility.yul\":34798:34799   */\n      0x00\n        /* \"#utility.yul\":34787:34796   */\n      dup4\n        /* \"#utility.yul\":34783:34800   */\n      add\n        /* \"#utility.yul\":34776:34823   */\n      mstore\n        /* \"#utility.yul\":34840:34971   */\n      tag_833\n        /* \"#utility.yul\":34966:34970   */\n      dup2\n        /* \"#utility.yul\":34840:34971   */\n      tag_480\n      jump\t// in\n    tag_833:\n        /* \"#utility.yul\":34832:34971   */\n      swap1\n      pop\n        /* \"#utility.yul\":34559:34978   */\n      swap2\n      swap1\n      pop\n      jump\t// out\n        /* \"#utility.yul\":34984:35157   */\n    tag_481:\n        /* \"#utility.yul\":35124:35149   */\n      0x536869706d656e7420646f6573206e6f74206578697374000000000000000000\n        /* \"#utility.yul\":35120:35121   */\n      0x00\n        /* \"#utility.yul\":35112:35118   */\n      dup3\n        /* \"#utility.yul\":35108:35122   */\n      add\n        /* \"#utility.yul\":35101:35150   */\n      mstore\n        /* \"#utility.yul\":34984:35157   */\n      pop\n      jump\t// out\n        /* \"#utility.yul\":35163:35529   */\n    tag_482:\n        /* \"#utility.yul\":35305:35308   */\n      0x00\n        /* \"#utility.yul\":35326:35393   */\n      tag_836\n        /* \"#utility.yul\":35390:35392   */\n      0x17\n        /* \"#utility.yul\":35385:35388   */\n      dup4\n        /* \"#utility.yul\":35326:35393   */\n      tag_432\n      jump\t// in\n    tag_836:\n        /* \"#utility.yul\":35319:35393   */\n      swap2\n      pop\n        /* \"#utility.yul\":35402:35495   */\n      tag_837\n        /* \"#utility.yul\":35491:35494   */\n      dup3\n        /* \"#utility.yul\":35402:35495   */\n      tag_481\n      jump\t// in\n    tag_837:\n        /* \"#utility.yul\":35520:35522   */\n      0x20\n        /* \"#utility.yul\":35515:35518   */\n      dup3\n        /* \"#utility.yul\":35511:35523   */\n      add\n        /* \"#utility.yul\":35504:35523   */\n      swap1\n      pop\n        /* \"#utility.yul\":35163:35529   */\n      swap2\n      swap1\n      pop\n      jump\t// out\n        /* \"#utility.yul\":35535:35954   */\n    tag_181:\n        /* \"#utility.yul\":35701:35705   */\n      0x00\n        /* \"#utility.yul\":35739:35741   */\n      0x20\n        /* \"#utility.yul\":35728:35737   */\n      dup3\n        /* \"#utility.yul\":35724:35742   */\n      add\n        /* \"#utility.yul\":35716:35742   */\n      swap1\n      pop\n        /* \"#utility.yul\":35788:35797   */\n      dup2\n        /* \"#utility.yul\":35782:35786   */\n      dup2\n        /* \"#utility.yul\":35778:35798   */\n      sub\n        /* \"#utility.yul\":35774:35775   */\n      0x00\n        /* \"#utility.yul\":35763:35772   */\n      dup4\n        /* \"#utility.yul\":35759:35776   */\n      add\n        /* \"#utility.yul\":35752:35799   */\n      mstore\n        /* \"#utility.yul\":35816:35947   */\n      tag_839\n        /* \"#utility.yul\":35942:35946   */\n      dup2\n        /* \"#utility.yul\":35816:35947   */\n      tag_482\n      jump\t// in\n    tag_839:\n        /* \"#utility.yul\":35808:35947   */\n      swap1\n      pop\n        /* \"#utility.yul\":35535:35954   */\n      swap2\n      swap1\n      pop\n      jump\t// out\n        /* \"#utility.yul\":35960:36140   */\n    tag_483:\n        /* \"#utility.yul\":36008:36085   */\n      0x4e487b7100000000000000000000000000000000000000000000000000000000\n        /* \"#utility.yul\":36005:36006   */\n      0x00\n        /* \"#utility.yul\":35998:36086   */\n      mstore\n        /* \"#utility.yul\":36105:36109   */\n      0x11\n        /* \"#utility.yul\":36102:36103   */\n      0x04\n        /* \"#utility.yul\":36095:36110   */\n      mstore\n        /* \"#utility.yul\":36129:36133   */\n      0x24\n        /* \"#utility.yul\":36126:36127   */\n      0x00\n        /* \"#utility.yul\":36119:36134   */\n      revert\n        /* \"#utility.yul\":36146:36379   */\n    tag_184:\n        /* \"#utility.yul\":36185:36188   */\n      0x00\n        /* \"#utility.yul\":36208:36232   */\n      tag_842\n        /* \"#utility.yul\":36226:36231   */\n      dup3\n        /* \"#utility.yul\":36208:36232   */\n      tag_405\n      jump\t// in\n    tag_842:\n        /* \"#utility.yul\":36199:36232   */\n      swap2\n      pop\n        /* \"#utility.yul\":36254:36320   */\n      0xffffffffffffffffffffffffffffffffffffffffffffffffffffffffffffffff\n        /* \"#utility.yul\":36247:36252   */\n      dup3\n        /* \"#utility.yul\":36244:36321   */\n      sub\n        /* \"#utility.yul\":36241:36344   */\n      tag_843\n      jumpi\n        /* \"#utility.yul\":36324:36342   */\n      tag_844\n      tag_483\n      jump\t// in\n    tag_844:\n        /* \"#utility.yul\":36241:36344   */\n    tag_843:\n        /* \"#utility.yul\":36371:36372   */\n      0x01\n        /* \"#utility.yul\":36364:36369   */\n      dup3\n        /* \"#utility.yul\":36360:36373   */\n      add\n        /* \"#utility.yul\":36353:36373   */\n      swap1\n      pop\n        /* \"#utility.yul\":36146:36379   */\n      swap2\n      swap1\n      pop\n      jump\t// out\n        /* \"#utility.yul\":36385:36526   */\n    tag_484:\n        /* \"#utility.yul\":36434:36438   */\n      0x00\n        /* \"#utility.yul\":36457:36460   */\n      dup2\n        /* \"#utility.yul\":36449:36460   */\n      swap1\n      pop\n        /* \"#utility.yul\":36480:36483   */\n      dup2\n        /* \"#utility.yul\":36477:36478   */\n      0x00\n        /* \"#utility.yul\":36470:36484   */\n      mstore\n        /* \"#utility.yul\":36514:36518   */\n      0x20\n        /* \"#utility.yul\":36511:36512   */\n      0x00\n        /* \"#utility.yul\":36501:36519   */\n      keccak256\n        /* \"#utility.yul\":36493:36519   */\n      swap1\n      pop\n        /* \"#utility.yul\":36385:36526   */\n      swap2\n      swap1\n      pop\n      jump\t// out\n        /* \"#utility.yul\":36532:36625   */\n    tag_485:\n        /* \"#utility.yul\":36569:36575   */\n      0x00\n        /* \"#utility.yul\":36616:36618   */\n      0x20\n        /* \"#utility.yul\":36611:36613   */\n      0x1f\n        /* \"#utility.yul\":36604:36609   */\n      dup4\n        /* \"#utility.yul\":36600:36614   */\n      add\n        /* \"#utility.yul\":36596:36619   */\n      div\n        /* \"#utility.yul\":36586:36619   */\n      swap1\n      pop\n        /* \"#utility.yul\":36532:36625   */\n      swap2\n      swap1\n      pop\n      jump\t// out\n        /* \"#utility.yul\":36631:36738   */\n    tag_486:\n        /* \"#utility.yul\":36675:36683   */\n      0x00\n        /* \"#utility.yul\":36725:36730   */\n      dup3\n        /* \"#utility.yul\":36719:36723   */\n      dup3\n        /* \"#utility.yul\":36715:36731   */\n      shl\n        /* \"#utility.yul\":36694:36731   */\n      swap1\n      pop\n        /* \"#utility.yul\":36631:36738   */\n      swap3\n      swap2\n      pop\n      pop\n      jump\t// out\n        /* \"#utility.yul\":36744:37137   */\n    tag_487:\n        /* \"#utility.yul\":36813:36819   */\n      0x00\n        /* \"#utility.yul\":36863:36864   */\n      0x08\n        /* \"#utility.yul\":36851:36861   */\n      dup4\n        /* \"#utility.yul\":36847:36865   */\n      mul\n        /* \"#utility.yul\":36886:36983   */\n      tag_849\n        /* \"#utility.yul\":36916:36982   */\n      0xffffffffffffffffffffffffffffffffffffffffffffffffffffffffffffffff\n        /* \"#utility.yul\":36905:36914   */\n      dup3\n        /* \"#utility.yul\":36886:36983   */\n      tag_486\n      jump\t// in\n    tag_849:\n        /* \"#utility.yul\":37004:37043   */\n      tag_850\n        /* \"#utility.yul\":37034:37042   */\n      dup7\n        /* \"#utility.yul\":37023:37032   */\n      dup4\n        /* \"#utility.yul\":37004:37043   */\n      tag_486\n      jump\t// in\n    tag_850:\n        /* \"#utility.yul\":36992:37043   */\n      swap6\n      pop\n        /* \"#utility.yul\":37076:37080   */\n      dup1\n        /* \"#utility.yul\":37072:37081   */\n      not\n        /* \"#utility.yul\":37065:37070   */\n      dup5\n        /* \"#utility.yul\":37061:37082   */\n      and\n        /* \"#utility.yul\":37052:37082   */\n      swap4\n      pop\n        /* \"#utility.yul\":37125:37129   */\n      dup1\n        /* \"#utility.yul\":37115:37123   */\n      dup7\n        /* \"#utility.yul\":37111:37130   */\n      and\n        /* \"#utility.yul\":37104:37109   */\n      dup5\n        /* \"#utility.yul\":37101:37131   */\n      or\n        /* \"#utility.yul\":37091:37131   */\n      swap3\n      pop\n        /* \"#utility.yul\":36820:37137   */\n      pop\n      pop\n        /* \"#utility.yul\":36744:37137   */\n      swap4\n      swap3\n      pop\n      pop\n      pop\n      jump\t// out\n        /* \"#utility.yul\":37143:37203   */\n    tag_488:\n        /* \"#utility.yul\":37171:37174   */\n      0x00\n        /* \"#utility.yul\":37192:37197   */\n      dup2\n        /* \"#utility.yul\":37185:37197   */\n      swap1\n      pop\n        /* \"#utility.yul\":37143:37203   */\n      swap2\n      swap1\n      pop\n      jump\t// out\n        /* \"#utility.yul\":37209:37351   */\n    tag_489:\n        /* \"#utility.yul\":37259:37268   */\n      0x00\n        /* \"#utility.yul\":37292:37345   */\n      tag_853\n        /* \"#utility.yul\":37310:37344   */\n      tag_854\n        /* \"#utility.yul\":37319:37343   */\n      tag_855\n        /* \"#utility.yul\":37337:37342   */\n      dup5\n        /* \"#utility.yul\":37319:37343   */\n      tag_405\n      jump\t// in\n    tag_855:\n        /* \"#utility.yul\":37310:37344   */\n      tag_488\n      jump\t// in\n    tag_854:\n        /* \"#utility.yul\":37292:37345   */\n      tag_405\n      jump\t// in\n    tag_853:\n        /* \"#utility.yul\":37279:37345   */\n      swap1\n      pop\n        /* \"#utility.yul\":37209:37351   */\n      swap2\n      swap1\n      pop\n      jump\t// out\n        /* \"#utility.yul\":37357:37432   */\n    tag_490:\n        /* \"#utility.yul\":37400:37403   */\n      0x00\n        /* \"#utility.yul\":37421:37426   */\n      dup2\n        /* \"#utility.yul\":37414:37426   */\n      swap1\n      pop\n        /* \"#utility.yul\":37357:37432   */\n      swap2\n      swap1\n      pop\n      jump\t// out\n        /* \"#utility.yul\":37438:37707   */\n    tag_491:\n        /* \"#utility.yul\":37548:37587   */\n      tag_858\n        /* \"#utility.yul\":37579:37586   */\n      dup4\n        /* \"#utility.yul\":37548:37587   */\n      tag_489\n      jump\t// in\n    tag_858:\n        /* \"#utility.yul\":37609:37700   */\n      tag_859\n        /* \"#utility.yul\":37658:37699   */\n      tag_860\n        /* \"#utility.yul\":37682:37698   */\n      dup3\n        /* \"#utility.yul\":37658:37699   */\n      tag_490\n      jump\t// in\n    tag_860:\n        /* \"#utility.yul\":37650:37656   */\n      dup5\n        /* \"#utility.yul\":37643:37647   */\n      dup5\n        /* \"#utility.yul\":37637:37648   */\n      sload\n        /* \"#utility.yul\":37609:37700   */\n      tag_487\n      jump\t// in\n    tag_859:\n        /* \"#utility.yul\":37603:37607   */\n      dup3\n        /* \"#utility.yul\":37596:37701   */\n      sstore\n        /* \"#utility.yul\":37514:37707   */\n      pop\n        /* \"#utility.yul\":37438:37707   */\n      pop\n      pop\n      pop\n      jump\t// out\n        /* \"#utility.yul\":37713:37786   */\n    tag_492:\n        /* \"#utility.yul\":37758:37761   */\n      0x00\n        /* \"#utility.yul\":37779:37780   */\n      0x00\n        /* \"#utility.yul\":37772:37780   */\n      swap1\n      pop\n        /* \"#utility.yul\":37713:37786   */\n      swap1\n      jump\t// out\n        /* \"#utility.yul\":37792:37981   */\n    tag_493:\n        /* \"#utility.yul\":37869:37901   */\n      tag_863\n      tag_492\n      jump\t// in\n    tag_863:\n        /* \"#utility.yul\":37910:37975   */\n      tag_864\n        /* \"#utility.yul\":37968:37974   */\n      dup2\n        /* \"#utility.yul\":37960:37966   */\n      dup5\n        /* \"#utility.yul\":37954:37958   */\n      dup5\n        /* \"#utility.yul\":37910:37975   */\n      tag_491\n      jump\t// in\n    tag_864:\n        /* \"#utility.yul\":37845:37981   */\n      pop\n        /* \"#utility.yul\":37792:37981   */\n      pop\n      pop\n      jump\t// out\n        /* \"#utility.yul\":37987:38173   */\n    tag_494:\n        /* \"#utility.yul\":38047:38167   */\n    tag_866:\n        /* \"#utility.yul\":38064:38067   */\n      dup2\n        /* \"#utility.yul\":38057:38062   */\n      dup2\n        /* \"#utility.yul\":38054:38068   */\n      lt\n        /* \"#utility.yul\":38047:38167   */\n      iszero\n      tag_868\n      jumpi\n        /* \"#utility.yul\":38118:38157   */\n      tag_869\n        /* \"#utility.yul\":38155:38156   */\n      0x00\n        /* \"#utility.yul\":38148:38153   */\n      dup3\n        /* \"#utility.yul\":38118:38157   */\n      tag_493\n      jump\t// in\n    tag_869:\n        /* \"#utility.yul\":38091:38092   */\n      0x01\n        /* \"#utility.yul\":38084:38089   */\n      dup2\n        /* \"#utility.yul\":38080:38093   */\n      add\n        /* \"#utility.yul\":38071:38093   */\n      swap1\n      pop\n        /* \"#utility.yul\":38047:38167   */\n      jump(tag_866)\n    tag_868:\n        /* \"#utility.yul\":37987:38173   */\n      pop\n      pop\n      jump\t// out\n        /* \"#utility.yul\":38179:38722   */\n    tag_495:\n        /* \"#utility.yul\":38280:38282   */\n      0x1f\n        /* \"#utility.yul\":38275:38278   */\n      dup3\n        /* \"#utility.yul\":38272:38283   */\n      gt\n        /* \"#utility.yul\":38269:38715   */\n      iszero\n      tag_871\n      jumpi\n        /* \"#utility.yul\":38314:38352   */\n      tag_872\n        /* \"#utility.yul\":38346:38351   */\n      dup2\n        /* \"#utility.yul\":38314:38352   */\n      tag_484\n      jump\t// in\n    tag_872:\n        /* \"#utility.yul\":38398:38427   */\n      tag_873\n        /* \"#utility.yul\":38416:38426   */\n      dup5\n        /* \"#utility.yul\":38398:38427   */\n      tag_485\n      jump\t// in\n    tag_873:\n        /* \"#utility.yul\":38388:38396   */\n      dup2\n        /* \"#utility.yul\":38384:38428   */\n      add\n        /* \"#utility.yul\":38581:38583   */\n      0x20\n        /* \"#utility.yul\":38569:38579   */\n      dup6\n        /* \"#utility.yul\":38566:38584   */\n      lt\n        /* \"#utility.yul\":38563:38612   */\n      iszero\n      tag_874\n      jumpi\n        /* \"#utility.yul\":38602:38610   */\n      dup2\n        /* \"#utility.yul\":38587:38610   */\n      swap1\n      pop\n        /* \"#utility.yul\":38563:38612   */\n    tag_874:\n        /* \"#utility.yul\":38625:38705   */\n      tag_875\n        /* \"#utility.yul\":38681:38703   */\n      tag_876\n        /* \"#utility.yul\":38699:38702   */\n      dup6\n        /* \"#utility.yul\":38681:38703   */\n      tag_485\n      jump\t// in\n    tag_876:\n        /* \"#utility.yul\":38671:38679   */\n      dup4\n        /* \"#utility.yul\":38667:38704   */\n      add\n        /* \"#utility.yul\":38654:38665   */\n      dup3\n        /* \"#utility.yul\":38625:38705   */\n      tag_494\n      jump\t// in\n    tag_875:\n        /* \"#utility.yul\":38284:38715   */\n      pop\n      pop\n        /* \"#utility.yul\":38269:38715   */\n    tag_871:\n        /* \"#utility.yul\":38179:38722   */\n      pop\n      pop\n      pop\n      jump\t// out\n        /* \"#utility.yul\":38728:38845   */\n    tag_496:\n        /* \"#utility.yul\":38782:38790   */\n      0x00\n        /* \"#utility.yul\":38832:38837   */\n      dup3\n        /* \"#utility.yul\":38826:38830   */\n      dup3\n        /* \"#utility.yul\":38822:38838   */\n      shr\n        /* \"#utility.yul\":38801:38838   */\n      swap1\n      pop\n        /* \"#utility.yul\":38728:38845   */\n      swap3\n      swap2\n      pop\n      pop\n      jump\t// out\n        /* \"#utility.yul\":38851:39020   */\n    tag_497:\n        /* \"#utility.yul\":38895:38901   */\n      0x00\n        /* \"#utility.yul\":38928:38979   */\n      tag_879\n        /* \"#utility.yul\":38976:38977   */\n      0x00\n        /* \"#utility.yul\":38972:38978   */\n      not\n        /* \"#utility.yul\":38964:38969   */\n      dup5\n        /* \"#utility.yul\":38961:38962   */\n      0x08\n        /* \"#utility.yul\":38957:38970   */\n      mul\n        /* \"#utility.yul\":38928:38979   */\n      tag_496\n      jump\t// in\n    tag_879:\n        /* \"#utility.yul\":38924:38980   */\n      not\n        /* \"#utility.yul\":39009:39013   */\n      dup1\n        /* \"#utility.yul\":39003:39007   */\n      dup4\n        /* \"#utility.yul\":38999:39014   */\n      and\n        /* \"#utility.yul\":38989:39014   */\n      swap2\n      pop\n        /* \"#utility.yul\":38902:39020   */\n      pop\n        /* \"#utility.yul\":38851:39020   */\n      swap3\n      swap2\n      pop\n      pop\n      jump\t// out\n        /* \"#utility.yul\":39025:39320   */\n    tag_498:\n        /* \"#utility.yul\":39101:39105   */\n      0x00\n        /* \"#utility.yul\":39247:39276   */\n      tag_881\n        /* \"#utility.yul\":39272:39275   */\n      dup4\n        /* \"#utility.yul\":39266:39270   */\n      dup4\n        /* \"#utility.yul\":39247:39276   */\n      tag_497\n      jump\t// in\n    tag_881:\n        /* \"#utility.yul\":39239:39276   */\n      swap2\n      pop\n        /* \"#utility.yul\":39309:39312   */\n      dup3\n        /* \"#utility.yul\":39306:39307   */\n      0x02\n        /* \"#utility.yul\":39302:39313   */\n      mul\n        /* \"#utility.yul\":39296:39300   */\n      dup3\n        /* \"#utility.yul\":39293:39314   */\n      or\n        /* \"#utility.yul\":39285:39314   */\n      swap1\n      pop\n        /* \"#utility.yul\":39025:39320   */\n      swap3\n      swap2\n      pop\n      pop\n      jump\t// out\n        /* \"#utility.yul\":39325:40720   */\n    tag_186:\n        /* \"#utility.yul\":39442:39479   */\n      tag_883\n        /* \"#utility.yul\":39475:39478   */\n      dup3\n        /* \"#utility.yul\":39442:39479   */\n      tag_412\n      jump\t// in\n    tag_883:\n        /* \"#utility.yul\":39544:39562   */\n      0xffffffffffffffff\n        /* \"#utility.yul\":39536:39542   */\n      dup2\n        /* \"#utility.yul\":39533:39563   */\n      gt\n        /* \"#utility.yul\":39530:39586   */\n      iszero\n      tag_884\n      jumpi\n        /* \"#utility.yul\":39566:39584   */\n      tag_885\n      tag_243\n      jump\t// in\n    tag_885:\n        /* \"#utility.yul\":39530:39586   */\n    tag_884:\n        /* \"#utility.yul\":39610:39648   */\n      tag_886\n        /* \"#utility.yul\":39642:39646   */\n      dup3\n        /* \"#utility.yul\":39636:39647   */\n      sload\n        /* \"#utility.yul\":39610:39648   */\n      tag_134\n      jump\t// in\n    tag_886:\n        /* \"#utility.yul\":39695:39762   */\n      tag_887\n        /* \"#utility.yul\":39755:39761   */\n      dup3\n        /* \"#utility.yul\":39747:39753   */\n      dup3\n        /* \"#utility.yul\":39741:39745   */\n      dup6\n        /* \"#utility.yul\":39695:39762   */\n      tag_495\n      jump\t// in\n    tag_887:\n        /* \"#utility.yul\":39789:39790   */\n      0x00\n        /* \"#utility.yul\":39813:39817   */\n      0x20\n        /* \"#utility.yul\":39800:39817   */\n      swap1\n      pop\n        /* \"#utility.yul\":39845:39847   */\n      0x1f\n        /* \"#utility.yul\":39837:39843   */\n      dup4\n        /* \"#utility.yul\":39834:39848   */\n      gt\n        /* \"#utility.yul\":39862:39863   */\n      0x01\n        /* \"#utility.yul\":39857:40475   */\n      dup2\n      eq\n      tag_889\n      jumpi\n        /* \"#utility.yul\":40519:40520   */\n      0x00\n        /* \"#utility.yul\":40536:40542   */\n      dup5\n        /* \"#utility.yul\":40533:40610   */\n      iszero\n      tag_890\n      jumpi\n        /* \"#utility.yul\":40585:40594   */\n      dup3\n        /* \"#utility.yul\":40580:40583   */\n      dup8\n        /* \"#utility.yul\":40576:40595   */\n      add\n        /* \"#utility.yul\":40570:40596   */\n      mload\n        /* \"#utility.yul\":40561:40596   */\n      swap1\n      pop\n        /* \"#utility.yul\":40533:40610   */\n    tag_890:\n        /* \"#utility.yul\":40636:40703   */\n      tag_891\n        /* \"#utility.yul\":40696:40702   */\n      dup6\n        /* \"#utility.yul\":40689:40694   */\n      dup3\n        /* \"#utility.yul\":40636:40703   */\n      tag_498\n      jump\t// in\n    tag_891:\n        /* \"#utility.yul\":40630:40634   */\n      dup7\n        /* \"#utility.yul\":40623:40704   */\n      sstore\n        /* \"#utility.yul\":40492:40714   */\n      pop\n        /* \"#utility.yul\":39827:40714   */\n      jump(tag_888)\n        /* \"#utility.yul\":39857:40475   */\n    tag_889:\n        /* \"#utility.yul\":39909:39913   */\n      0x1f\n        /* \"#utility.yul\":39905:39914   */\n      not\n        /* \"#utility.yul\":39897:39903   */\n      dup5\n        /* \"#utility.yul\":39893:39915   */\n      and\n        /* \"#utility.yul\":39943:39980   */\n      tag_892\n        /* \"#utility.yul\":39975:39979   */\n      dup7\n        /* \"#utility.yul\":39943:39980   */\n      tag_484\n      jump\t// in\n    tag_892:\n        /* \"#utility.yul\":40002:40003   */\n      0x00\n        /* \"#utility.yul\":40016:40224   */\n    tag_893:\n        /* \"#utility.yul\":40030:40037   */\n      dup3\n        /* \"#utility.yul\":40027:40028   */\n      dup2\n        /* \"#utility.yul\":40024:40038   */\n      lt\n        /* \"#utility.yul\":40016:40224   */\n      iszero\n      tag_895\n      jumpi\n        /* \"#utility.yul\":40109:40118   */\n      dup5\n        /* \"#utility.yul\":40104:40107   */\n      dup10\n        /* \"#utility.yul\":40100:40119   */\n      add\n        /* \"#utility.yul\":40094:40120   */\n      mload\n        /* \"#utility.yul\":40086:40092   */\n      dup3\n        /* \"#utility.yul\":40079:40121   */\n      sstore\n        /* \"#utility.yul\":40160:40161   */\n      0x01\n        /* \"#utility.yul\":40152:40158   */\n      dup3\n        /* \"#utility.yul\":40148:40162   */\n      add\n        /* \"#utility.yul\":40138:40162   */\n      swap2\n      pop\n        /* \"#utility.yul\":40207:40209   */\n      0x20\n        /* \"#utility.yul\":40196:40205   */\n      dup6\n        /* \"#utility.yul\":40192:40210   */\n      add\n        /* \"#utility.yul\":40179:40210   */\n      swap5\n      pop\n        /* \"#utility.yul\":40053:40057   */\n      0x20\n        /* \"#utility.yul\":40050:40051   */\n      dup2\n        /* \"#utility.yul\":40046:40058   */\n      add\n        /* \"#utility.yul\":40041:40058   */\n      swap1\n      pop\n        /* \"#utility.yul\":40016:40224   */\n      jump(tag_893)\n    tag_895:\n        /* \"#utility.yul\":40252:40258   */\n      dup7\n        /* \"#utility.yul\":40243:40250   */\n      dup4\n        /* \"#utility.yul\":40240:40259   */\n      lt\n        /* \"#utility.yul\":40237:40416   */\n      iszero\n      tag_896\n      jumpi\n        /* \"#utility.yul\":40310:40319   */\n      dup5\n        /* \"#utility.yul\":40305:40308   */\n      dup10\n        /* \"#utility.yul\":40301:40320   */\n      add\n        /* \"#utility.yul\":40295:40321   */\n      mload\n        /* \"#utility.yul\":40353:40401   */\n      tag_897\n        /* \"#utility.yul\":40395:40399   */\n      0x1f\n        /* \"#utility.yul\":40387:40393   */\n      dup10\n        /* \"#utility.yul\":40383:40400   */\n      and\n        /* \"#utility.yul\":40372:40381   */\n      dup3\n        /* \"#utility.yul\":40353:40401   */\n      tag_497\n      jump\t// in\n    tag_897:\n        /* \"#utility.yul\":40345:40351   */\n      dup4\n        /* \"#utility.yul\":40338:40402   */\n      sstore\n        /* \"#utility.yul\":40260:40416   */\n      pop\n        /* \"#utility.yul\":40237:40416   */\n    tag_896:\n        /* \"#utility.yul\":40462:40463   */\n      0x01\n        /* \"#utility.yul\":40458:40459   */\n      0x02\n        /* \"#utility.yul\":40450:40456   */\n      dup9\n        /* \"#utility.yul\":40446:40460   */\n      mul\n        /* \"#utility.yul\":40442:40464   */\n      add\n        /* \"#utility.yul\":40436:40440   */\n      dup9\n        /* \"#utility.yul\":40429:40465   */\n      sstore\n        /* \"#utility.yul\":39864:40475   */\n      pop\n      pop\n      pop\n        /* \"#utility.yul\":39827:40714   */\n    tag_888:\n      pop\n        /* \"#utility.yul\":39417:40720   */\n      pop\n      pop\n      pop\n        /* \"#utility.yul\":39325:40720   */\n      pop\n      pop\n      jump\t// out\n        /* \"#utility.yul\":40726:41149   */\n    tag_195:\n        /* \"#utility.yul\":40867:40871   */\n      0x00\n        /* \"#utility.yul\":40905:40907   */\n      0x40\n        /* \"#utility.yul\":40894:40903   */\n      dup3\n        /* \"#utility.yul\":40890:40908   */\n      add\n        /* \"#utility.yul\":40882:40908   */\n      swap1\n      pop\n        /* \"#utility.yul\":40954:40963   */\n      dup2\n        /* \"#utility.yul\":40948:40952   */\n      dup2\n        /* \"#utility.yul\":40944:40964   */\n      sub\n        /* \"#utility.yul\":40940:40941   */\n      0x00\n        /* \"#utility.yul\":40929:40938   */\n      dup4\n        /* \"#utility.yul\":40925:40942   */\n      add\n        /* \"#utility.yul\":40918:40965   */\n      mstore\n        /* \"#utility.yul\":40982:41060   */\n      tag_899\n        /* \"#utility.yul\":41055:41059   */\n      dup2\n        /* \"#utility.yul\":41046:41052   */\n      dup6\n        /* \"#utility.yul\":40982:41060   */\n      tag_433\n      jump\t// in\n    tag_899:\n        /* \"#utility.yul\":40974:41060   */\n      swap1\n      pop\n        /* \"#utility.yul\":41070:41142   */\n      tag_900\n        /* \"#utility.yul\":41138:41140   */\n      0x20\n        /* \"#utility.yul\":41127:41136   */\n      dup4\n        /* \"#utility.yul\":41123:41141   */\n      add\n        /* \"#utility.yul\":41114:41120   */\n      dup5\n        /* \"#utility.yul\":41070:41142   */\n      tag_431\n      jump\t// in\n    tag_900:\n        /* \"#utility.yul\":40726:41149   */\n      swap4\n      swap3\n      pop\n      pop\n      pop\n      jump\t// out\n        /* \"#utility.yul\":41155:41328   */\n    tag_499:\n        /* \"#utility.yul\":41295:41320   */\n      0x4f6e6c792053656e646572732063616e20637265617465000000000000000000\n        /* \"#utility.yul\":41291:41292   */\n      0x00\n        /* \"#utility.yul\":41283:41289   */\n      dup3\n        /* \"#utility.yul\":41279:41293   */\n      add\n        /* \"#utility.yul\":41272:41321   */\n      mstore\n        /* \"#utility.yul\":41155:41328   */\n      pop\n      jump\t// out\n        /* \"#utility.yul\":41334:41700   */\n    tag_500:\n        /* \"#utility.yul\":41476:41479   */\n      0x00\n        /* \"#utility.yul\":41497:41564   */\n      tag_903\n        /* \"#utility.yul\":41561:41563   */\n      0x17\n        /* \"#utility.yul\":41556:41559   */\n      dup4\n        /* \"#utility.yul\":41497:41564   */\n      tag_432\n      jump\t// in\n    tag_903:\n        /* \"#utility.yul\":41490:41564   */\n      swap2\n      pop\n        /* \"#utility.yul\":41573:41666   */\n      tag_904\n        /* \"#utility.yul\":41662:41665   */\n      dup3\n        /* \"#utility.yul\":41573:41666   */\n      tag_499\n      jump\t// in\n    tag_904:\n        /* \"#utility.yul\":41691:41693   */\n      0x20\n        /* \"#utility.yul\":41686:41689   */\n      dup3\n        /* \"#utility.yul\":41682:41694   */\n      add\n        /* \"#utility.yul\":41675:41694   */\n      swap1\n      pop\n        /* \"#utility.yul\":41334:41700   */\n      swap2\n      swap1\n      pop\n      jump\t// out\n        /* \"#utility.yul\":41706:42125   */\n    tag_223:\n        /* \"#utility.yul\":41872:41876   */\n      0x00\n        /* \"#utility.yul\":41910:41912   */\n      0x20\n        /* \"#utility.yul\":41899:41908   */\n      dup3\n        /* \"#utility.yul\":41895:41913   */\n      add\n        /* \"#utility.yul\":41887:41913   */\n      swap1\n      pop\n        /* \"#utility.yul\":41959:41968   */\n      dup2\n        /* \"#utility.yul\":41953:41957   */\n      dup2\n        /* \"#utility.yul\":41949:41969   */\n      sub\n        /* \"#utility.yul\":41945:41946   */\n      0x00\n        /* \"#utility.yul\":41934:41943   */\n      dup4\n        /* \"#utility.yul\":41930:41947   */\n      add\n        /* \"#utility.yul\":41923:41970   */\n      mstore\n        /* \"#utility.yul\":41987:42118   */\n      tag_906\n        /* \"#utility.yul\":42113:42117   */\n      dup2\n        /* \"#utility.yul\":41987:42118   */\n      tag_500\n      jump\t// in\n    tag_906:\n        /* \"#utility.yul\":41979:42118   */\n      swap1\n      pop\n        /* \"#utility.yul\":41706:42125   */\n      swap2\n      swap1\n      pop\n      jump\t// out\n        /* \"#utility.yul\":42131:42444   */\n    tag_232:\n        /* \"#utility.yul\":42244:42248   */\n      0x00\n        /* \"#utility.yul\":42282:42284   */\n      0x20\n        /* \"#utility.yul\":42271:42280   */\n      dup3\n        /* \"#utility.yul\":42267:42285   */\n      add\n        /* \"#utility.yul\":42259:42285   */\n      swap1\n      pop\n        /* \"#utility.yul\":42331:42340   */\n      dup2\n        /* \"#utility.yul\":42325:42329   */\n      dup2\n        /* \"#utility.yul\":42321:42341   */\n      sub\n        /* \"#utility.yul\":42317:42318   */\n      0x00\n        /* \"#utility.yul\":42306:42315   */\n      dup4\n        /* \"#utility.yul\":42302:42319   */\n      add\n        /* \"#utility.yul\":42295:42342   */\n      mstore\n        /* \"#utility.yul\":42359:42437   */\n      tag_908\n        /* \"#utility.yul\":42432:42436   */\n      dup2\n        /* \"#utility.yul\":42423:42429   */\n      dup5\n        /* \"#utility.yul\":42359:42437   */\n      tag_433\n      jump\t// in\n    tag_908:\n        /* \"#utility.yul\":42351:42437   */\n      swap1\n      pop\n        /* \"#utility.yul\":42131:42444   */\n      swap3\n      swap2\n      pop\n      pop\n      jump\t// out\n        /* \"#utility.yul\":42450:42610   */\n    tag_501:\n        /* \"#utility.yul\":42590:42602   */\n      0x4f6e6c792061646d696e00000000000000000000000000000000000000000000\n        /* \"#utility.yul\":42586:42587   */\n      0x00\n        /* \"#utility.yul\":42578:42584   */\n      dup3\n        /* \"#utility.yul\":42574:42588   */\n      add\n        /* \"#utility.yul\":42567:42603   */\n      mstore\n        /* \"#utility.yul\":42450:42610   */\n      pop\n      jump\t// out\n        /* \"#utility.yul\":42616:42982   */\n    tag_502:\n        /* \"#utility.yul\":42758:42761   */\n      0x00\n        /* \"#utility.yul\":42779:42846   */\n      tag_911\n        /* \"#utility.yul\":42843:42845   */\n      0x0a\n        /* \"#utility.yul\":42838:42841   */\n      dup4\n        /* \"#utility.yul\":42779:42846   */\n      tag_432\n      jump\t// in\n    tag_911:\n        /* \"#utility.yul\":42772:42846   */\n      swap2\n      pop\n        /* \"#utility.yul\":42855:42948   */\n      tag_912\n        /* \"#utility.yul\":42944:42947   */\n      dup3\n        /* \"#utility.yul\":42855:42948   */\n      tag_501\n      jump\t// in\n    tag_912:\n        /* \"#utility.yul\":42973:42975   */\n      0x20\n        /* \"#utility.yul\":42968:42971   */\n      dup3\n        /* \"#utility.yul\":42964:42976   */\n      add\n        /* \"#utility.yul\":42957:42976   */\n      swap1\n      pop\n        /* \"#utility.yul\":42616:42982   */\n      swap2\n      swap1\n      pop\n      jump\t// out\n        /* \"#utility.yul\":42988:43407   */\n    tag_236:\n        /* \"#utility.yul\":43154:43158   */\n      0x00\n        /* \"#utility.yul\":43192:43194   */\n      0x20\n        /* \"#utility.yul\":43181:43190   */\n      dup3\n        /* \"#utility.yul\":43177:43195   */\n      add\n        /* \"#utility.yul\":43169:43195   */\n      swap1\n      pop\n        /* \"#utility.yul\":43241:43250   */\n      dup2\n        /* \"#utility.yul\":43235:43239   */\n      dup2\n        /* \"#utility.yul\":43231:43251   */\n      sub\n        /* \"#utility.yul\":43227:43228   */\n      0x00\n        /* \"#utility.yul\":43216:43225   */\n      dup4\n        /* \"#utility.yul\":43212:43229   */\n      add\n        /* \"#utility.yul\":43205:43252   */\n      mstore\n        /* \"#utility.yul\":43269:43400   */\n      tag_914\n        /* \"#utility.yul\":43395:43399   */\n      dup2\n        /* \"#utility.yul\":43269:43400   */\n      tag_502\n      jump\t// in\n    tag_914:\n        /* \"#utility.yul\":43261:43400   */\n      swap1\n      pop\n        /* \"#utility.yul\":42988:43407   */\n      swap2\n      swap1\n      pop\n      jump\t// out\n        /* \"#utility.yul\":43413:43593   */\n    tag_253:\n        /* \"#utility.yul\":43461:43538   */\n      0x4e487b7100000000000000000000000000000000000000000000000000000000\n        /* \"#utility.yul\":43458:43459   */\n      0x00\n        /* \"#utility.yul\":43451:43539   */\n      mstore\n        /* \"#utility.yul\":43558:43562   */\n      0x32\n        /* \"#utility.yul\":43555:43556   */\n      0x04\n        /* \"#utility.yul\":43548:43563   */\n      mstore\n        /* \"#utility.yul\":43582:43586   */\n      0x24\n        /* \"#utility.yul\":43579:43580   */\n      0x00\n        /* \"#utility.yul\":43572:43587   */\n      revert\n        /* \"#utility.yul\":43599:43851   */\n    tag_285:\n        /* \"#utility.yul\":43707:43711   */\n      0x00\n        /* \"#utility.yul\":43745:43747   */\n      0x20\n        /* \"#utility.yul\":43734:43743   */\n      dup3\n        /* \"#utility.yul\":43730:43748   */\n      add\n        /* \"#utility.yul\":43722:43748   */\n      swap1\n      pop\n        /* \"#utility.yul\":43758:43844   */\n      tag_917\n        /* \"#utility.yul\":43841:43842   */\n      0x00\n        /* \"#utility.yul\":43830:43839   */\n      dup4\n        /* \"#utility.yul\":43826:43843   */\n      add\n        /* \"#utility.yul\":43817:43823   */\n      dup5\n        /* \"#utility.yul\":43758:43844   */\n      tag_434\n      jump\t// in\n    tag_917:\n        /* \"#utility.yul\":43599:43851   */\n      swap3\n      swap2\n      pop\n      pop\n      jump\t// out\n        /* \"#utility.yul\":43857:44029   */\n    tag_503:\n        /* \"#utility.yul\":43997:44021   */\n      0x4f6e6c792073656e6465722063616e2063616e63656c00000000000000000000\n        /* \"#utility.yul\":43993:43994   */\n      0x00\n        /* \"#utility.yul\":43985:43991   */\n      dup3\n        /* \"#utility.yul\":43981:43995   */\n      add\n        /* \"#utility.yul\":43974:44022   */\n      mstore\n        /* \"#utility.yul\":43857:44029   */\n      pop\n      jump\t// out\n        /* \"#utility.yul\":44035:44401   */\n    tag_504:\n        /* \"#utility.yul\":44177:44180   */\n      0x00\n        /* \"#utility.yul\":44198:44265   */\n      tag_920\n        /* \"#utility.yul\":44262:44264   */\n      0x16\n        /* \"#utility.yul\":44257:44260   */\n      dup4\n        /* \"#utility.yul\":44198:44265   */\n      tag_432\n      jump\t// in\n    tag_920:\n        /* \"#utility.yul\":44191:44265   */\n      swap2\n      pop\n        /* \"#utility.yul\":44274:44367   */\n      tag_921\n        /* \"#utility.yul\":44363:44366   */\n      dup3\n        /* \"#utility.yul\":44274:44367   */\n      tag_503\n      jump\t// in\n    tag_921:\n        /* \"#utility.yul\":44392:44394   */\n      0x20\n        /* \"#utility.yul\":44387:44390   */\n      dup3\n        /* \"#utility.yul\":44383:44395   */\n      add\n        /* \"#utility.yul\":44376:44395   */\n      swap1\n      pop\n        /* \"#utility.yul\":44035:44401   */\n      swap2\n      swap1\n      pop\n      jump\t// out\n        /* \"#utility.yul\":44407:44826   */\n    tag_293:\n        /* \"#utility.yul\":44573:44577   */\n      0x00\n        /* \"#utility.yul\":44611:44613   */\n      0x20\n        /* \"#utility.yul\":44600:44609   */\n      dup3\n        /* \"#utility.yul\":44596:44614   */\n      add\n        /* \"#utility.yul\":44588:44614   */\n      swap1\n      pop\n        /* \"#utility.yul\":44660:44669   */\n      dup2\n        /* \"#utility.yul\":44654:44658   */\n      dup2\n        /* \"#utility.yul\":44650:44670   */\n      sub\n        /* \"#utility.yul\":44646:44647   */\n      0x00\n        /* \"#utility.yul\":44635:44644   */\n      dup4\n        /* \"#utility.yul\":44631:44648   */\n      add\n        /* \"#utility.yul\":44624:44671   */\n      mstore\n        /* \"#utility.yul\":44688:44819   */\n      tag_923\n        /* \"#utility.yul\":44814:44818   */\n      dup2\n        /* \"#utility.yul\":44688:44819   */\n      tag_504\n      jump\t// in\n    tag_923:\n        /* \"#utility.yul\":44680:44819   */\n      swap1\n      pop\n        /* \"#utility.yul\":44407:44826   */\n      swap2\n      swap1\n      pop\n      jump\t// out\n        /* \"#utility.yul\":44832:45009   */\n    tag_505:\n        /* \"#utility.yul\":44972:45001   */\n      0x43616e6e6f742063616e63656c206166746572207472616e7369740000000000\n        /* \"#utility.yul\":44968:44969   */\n      0x00\n        /* \"#utility.yul\":44960:44966   */\n      dup3\n        /* \"#utility.yul\":44956:44970   */\n      add\n        /* \"#utility.yul\":44949:45002   */\n      mstore\n        /* \"#utility.yul\":44832:45009   */\n      pop\n      jump\t// out\n        /* \"#utility.yul\":45015:45381   */\n    tag_506:\n        /* \"#utility.yul\":45157:45160   */\n      0x00\n        /* \"#utility.yul\":45178:45245   */\n      tag_926\n        /* \"#utility.yul\":45242:45244   */\n      0x1b\n        /* \"#utility.yul\":45237:45240   */\n      dup4\n        /* \"#utility.yul\":45178:45245   */\n      tag_432\n      jump\t// in\n    tag_926:\n        /* \"#utility.yul\":45171:45245   */\n      swap2\n      pop\n        /* \"#utility.yul\":45254:45347   */\n      tag_927\n        /* \"#utility.yul\":45343:45346   */\n      dup3\n        /* \"#utility.yul\":45254:45347   */\n      tag_505\n      jump\t// in\n    tag_927:\n        /* \"#utility.yul\":45372:45374   */\n      0x20\n        /* \"#utility.yul\":45367:45370   */\n      dup3\n        /* \"#utility.yul\":45363:45375   */\n      add\n        /* \"#utility.yul\":45356:45375   */\n      swap1\n      pop\n        /* \"#utility.yul\":45015:45381   */\n      swap2\n      swap1\n      pop\n      jump\t// out\n        /* \"#utility.yul\":45387:45806   */\n    tag_300:\n        /* \"#utility.yul\":45553:45557   */\n      0x00\n        /* \"#utility.yul\":45591:45593   */\n      0x20\n        /* \"#utility.yul\":45580:45589   */\n      dup3\n        /* \"#utility.yul\":45576:45594   */\n      add\n        /* \"#utility.yul\":45568:45594   */\n      swap1\n      pop\n        /* \"#utility.yul\":45640:45649   */\n      dup2\n        /* \"#utility.yul\":45634:45638   */\n      dup2\n        /* \"#utility.yul\":45630:45650   */\n      sub\n        /* \"#utility.yul\":45626:45627   */\n      0x00\n        /* \"#utility.yul\":45615:45624   */\n      dup4\n        /* \"#utility.yul\":45611:45628   */\n      add\n        /* \"#utility.yul\":45604:45651   */\n      mstore\n        /* \"#utility.yul\":45668:45799   */\n      tag_929\n        /* \"#utility.yul\":45794:45798   */\n      dup2\n        /* \"#utility.yul\":45668:45799   */\n      tag_506\n      jump\t// in\n    tag_929:\n        /* \"#utility.yul\":45660:45799   */\n      swap1\n      pop\n        /* \"#utility.yul\":45387:45806   */\n      swap2\n      swap1\n      pop\n      jump\t// out\n        /* \"#utility.yul\":45812:45980   */\n    tag_507:\n        /* \"#utility.yul\":45952:45972   */\n      0x416c726561647920726567697374657265640000000000000000000000000000\n        /* \"#utility.yul\":45948:45949   */\n      0x00\n        /* \"#utility.yul\":45940:45946   */\n      dup3\n        /* \"#utility.yul\":45936:45950   */\n      add\n        /* \"#utility.yul\":45929:45973   */\n      mstore\n        /* \"#utility.yul\":45812:45980   */\n      pop\n      jump\t// out\n        /* \"#utility.yul\":45986:46352   */\n    tag_508:\n        /* \"#utility.yul\":46128:46131   */\n      0x00\n        /* \"#utility.yul\":46149:46216   */\n      tag_932\n        /* \"#utility.yul\":46213:46215   */\n      0x12\n        /* \"#utility.yul\":46208:46211   */\n      dup4\n        /* \"#utility.yul\":46149:46216   */\n      tag_432\n      jump\t// in\n    tag_932:\n        /* \"#utility.yul\":46142:46216   */\n      swap2\n      pop\n        /* \"#utility.yul\":46225:46318   */\n      tag_933\n        /* \"#utility.yul\":46314:46317   */\n      dup3\n        /* \"#utility.yul\":46225:46318   */\n      tag_507\n      jump\t// in\n    tag_933:\n        /* \"#utility.yul\":46343:46345   */\n      0x20\n        /* \"#utility.yul\":46338:46341   */\n      dup3\n        /* \"#utility.yul\":46334:46346   */\n      add\n        /* \"#utility.yul\":46327:46346   */\n      swap1\n      pop\n        /* \"#utility.yul\":45986:46352   */\n      swap2\n      swap1\n      pop\n      jump\t// out\n        /* \"#utility.yul\":46358:46777   */\n    tag_339:\n        /* \"#utility.yul\":46524:46528   */\n      0x00\n        /* \"#utility.yul\":46562:46564   */\n      0x20\n        /* \"#utility.yul\":46551:46560   */\n      dup3\n        /* \"#utility.yul\":46547:46565   */\n      add\n        /* \"#utility.yul\":46539:46565   */\n      swap1\n      pop\n        /* \"#utility.yul\":46611:46620   */\n      dup2\n        /* \"#utility.yul\":46605:46609   */\n      dup2\n        /* \"#utility.yul\":46601:46621   */\n      sub\n        /* \"#utility.yul\":46597:46598   */\n      0x00\n        /* \"#utility.yul\":46586:46595   */\n      dup4\n        /* \"#utility.yul\":46582:46599   */\n      add\n        /* \"#utility.yul\":46575:46622   */\n      mstore\n        /* \"#utility.yul\":46639:46770   */\n      tag_935\n        /* \"#utility.yul\":46765:46769   */\n      dup2\n        /* \"#utility.yul\":46639:46770   */\n      tag_508\n      jump\t// in\n    tag_935:\n        /* \"#utility.yul\":46631:46770   */\n      swap1\n      pop\n        /* \"#utility.yul\":46358:46777   */\n      swap2\n      swap1\n      pop\n      jump\t// out\n        /* \"#utility.yul\":46783:47226   */\n    tag_347:\n        /* \"#utility.yul\":46934:46938   */\n      0x00\n        /* \"#utility.yul\":46972:46974   */\n      0x40\n        /* \"#utility.yul\":46961:46970   */\n      dup3\n        /* \"#utility.yul\":46957:46975   */\n      add\n        /* \"#utility.yul\":46949:46975   */\n      swap1\n      pop\n        /* \"#utility.yul\":47021:47030   */\n      dup2\n        /* \"#utility.yul\":47015:47019   */\n      dup2\n        /* \"#utility.yul\":47011:47031   */\n      sub\n        /* \"#utility.yul\":47007:47008   */\n      0x00\n        /* \"#utility.yul\":46996:47005   */\n      dup4\n        /* \"#utility.yul\":46992:47009   */\n      add\n        /* \"#utility.yul\":46985:47032   */\n      mstore\n        /* \"#utility.yul\":47049:47127   */\n      tag_937\n        /* \"#utility.yul\":47122:47126   */\n      dup2\n        /* \"#utility.yul\":47113:47119   */\n      dup6\n        /* \"#utility.yul\":47049:47127   */\n      tag_433\n      jump\t// in\n    tag_937:\n        /* \"#utility.yul\":47041:47127   */\n      swap1\n      pop\n        /* \"#utility.yul\":47137:47219   */\n      tag_938\n        /* \"#utility.yul\":47215:47217   */\n      0x20\n        /* \"#utility.yul\":47204:47213   */\n      dup4\n        /* \"#utility.yul\":47200:47218   */\n      add\n        /* \"#utility.yul\":47191:47197   */\n      dup5\n        /* \"#utility.yul\":47137:47219   */\n      tag_477\n      jump\t// in\n    tag_938:\n        /* \"#utility.yul\":46783:47226   */\n      swap4\n      swap3\n      pop\n      pop\n      pop\n      jump\t// out\n        /* \"#utility.yul\":47232:47480   */\n    tag_364:\n        /* \"#utility.yul\":47338:47342   */\n      0x00\n        /* \"#utility.yul\":47376:47378   */\n      0x20\n        /* \"#utility.yul\":47365:47374   */\n      dup3\n        /* \"#utility.yul\":47361:47379   */\n      add\n        /* \"#utility.yul\":47353:47379   */\n      swap1\n      pop\n        /* \"#utility.yul\":47389:47473   */\n      tag_940\n        /* \"#utility.yul\":47470:47471   */\n      0x00\n        /* \"#utility.yul\":47459:47468   */\n      dup4\n        /* \"#utility.yul\":47455:47472   */\n      add\n        /* \"#utility.yul\":47446:47452   */\n      dup5\n        /* \"#utility.yul\":47389:47473   */\n      tag_471\n      jump\t// in\n    tag_940:\n        /* \"#utility.yul\":47232:47480   */\n      swap3\n      swap2\n      pop\n      pop\n      jump\t// out\n        /* \"#utility.yul\":47486:47662   */\n    tag_509:\n        /* \"#utility.yul\":47626:47654   */\n      0x4f6e6c7920726563697069656e742063616e20636f6e6669726d000000000000\n        /* \"#utility.yul\":47622:47623   */\n      0x00\n        /* \"#utility.yul\":47614:47620   */\n      dup3\n        /* \"#utility.yul\":47610:47624   */\n      add\n        /* \"#utility.yul\":47603:47655   */\n      mstore\n        /* \"#utility.yul\":47486:47662   */\n      pop\n      jump\t// out\n        /* \"#utility.yul\":47668:48034   */\n    tag_510:\n        /* \"#utility.yul\":47810:47813   */\n      0x00\n        /* \"#utility.yul\":47831:47898   */\n      tag_943\n        /* \"#utility.yul\":47895:47897   */\n      0x1a\n        /* \"#utility.yul\":47890:47893   */\n      dup4\n        /* \"#utility.yul\":47831:47898   */\n      tag_432\n      jump\t// in\n    tag_943:\n        /* \"#utility.yul\":47824:47898   */\n      swap2\n      pop\n        /* \"#utility.yul\":47907:48000   */\n      tag_944\n        /* \"#utility.yul\":47996:47999   */\n      dup3\n        /* \"#utility.yul\":47907:48000   */\n      tag_509\n      jump\t// in\n    tag_944:\n        /* \"#utility.yul\":48025:48027   */\n      0x20\n        /* \"#utility.yul\":48020:48023   */\n      dup3\n        /* \"#utility.yul\":48016:48028   */\n      add\n        /* \"#utility.yul\":48009:48028   */\n      swap1\n      pop\n        /* \"#utility.yul\":47668:48034   */\n      swap2\n      swap1\n      pop\n      jump\t// out\n        /* \"#utility.yul\":48040:48459   */\n    tag_386:\n        /* \"#utility.yul\":48206:48210   */\n      0x00\n        /* \"#utility.yul\":48244:48246   */\n      0x20\n        /* \"#utility.yul\":48233:48242   */\n      dup3\n        /* \"#utility.yul\":48229:48247   */\n      add\n        /* \"#utility.yul\":48221:48247   */\n      swap1\n      pop\n        /* \"#utility.yul\":48293:48302   */\n      dup2\n        /* \"#utility.yul\":48287:48291   */\n      dup2\n        /* \"#utility.yul\":48283:48303   */\n      sub\n        /* \"#utility.yul\":48279:48280   */\n      0x00\n        /* \"#utility.yul\":48268:48277   */\n      dup4\n        /* \"#utility.yul\":48264:48281   */\n      add\n        /* \"#utility.yul\":48257:48304   */\n      mstore\n        /* \"#utility.yul\":48321:48452   */\n      tag_946\n        /* \"#utility.yul\":48447:48451   */\n      dup2\n        /* \"#utility.yul\":48321:48452   */\n      tag_510\n      jump\t// in\n    tag_946:\n        /* \"#utility.yul\":48313:48452   */\n      swap1\n      pop\n        /* \"#utility.yul\":48040:48459   */\n      swap2\n      swap1\n      pop\n      jump\t// out\n        /* \"#utility.yul\":48465:48632   */\n    tag_511:\n        /* \"#utility.yul\":48605:48624   */\n      0x416c72656164792064656c697665726564000000000000000000000000000000\n        /* \"#utility.yul\":48601:48602   */\n      0x00\n        /* \"#utility.yul\":48593:48599   */\n      dup3\n        /* \"#utility.yul\":48589:48603   */\n      add\n        /* \"#utility.yul\":48582:48625   */\n      mstore\n        /* \"#utility.yul\":48465:48632   */\n      pop\n      jump\t// out\n        /* \"#utility.yul\":48638:49004   */\n    tag_512:\n        /* \"#utility.yul\":48780:48783   */\n      0x00\n        /* \"#utility.yul\":48801:48868   */\n      tag_949\n        /* \"#utility.yul\":48865:48867   */\n      0x11\n        /* \"#utility.yul\":48860:48863   */\n      dup4\n        /* \"#utility.yul\":48801:48868   */\n      tag_432\n      jump\t// in\n    tag_949:\n        /* \"#utility.yul\":48794:48868   */\n      swap2\n      pop\n        /* \"#utility.yul\":48877:48970   */\n      tag_950\n        /* \"#utility.yul\":48966:48969   */\n      dup3\n        /* \"#utility.yul\":48877:48970   */\n      tag_511\n      jump\t// in\n    tag_950:\n        /* \"#utility.yul\":48995:48997   */\n      0x20\n        /* \"#utility.yul\":48990:48993   */\n      dup3\n        /* \"#utility.yul\":48986:48998   */\n      add\n        /* \"#utility.yul\":48979:48998   */\n      swap1\n      pop\n        /* \"#utility.yul\":48638:49004   */\n      swap2\n      swap1\n      pop\n      jump\t// out\n        /* \"#utility.yul\":49010:49429   */\n    tag_393:\n        /* \"#utility.yul\":49176:49180   */\n      0x00\n        /* \"#utility.yul\":49214:49216   */\n      0x20\n        /* \"#utility.yul\":49203:49212   */\n      dup3\n        /* \"#utility.yul\":49199:49217   */\n      add\n        /* \"#utility.yul\":49191:49217   */\n      swap1\n      pop\n        /* \"#utility.yul\":49263:49272   */\n      dup2\n        /* \"#utility.yul\":49257:49261   */\n      dup2\n        /* \"#utility.yul\":49253:49273   */\n      sub\n        /* \"#utility.yul\":49249:49250   */\n      0x00\n        /* \"#utility.yul\":49238:49247   */\n      dup4\n        /* \"#utility.yul\":49234:49251   */\n      add\n        /* \"#utility.yul\":49227:49274   */\n      mstore\n        /* \"#utility.yul\":49291:49422   */\n      tag_952\n        /* \"#utility.yul\":49417:49421   */\n      dup2\n        /* \"#utility.yul\":49291:49422   */\n      tag_512\n      jump\t// in\n    tag_952:\n        /* \"#utility.yul\":49283:49422   */\n      swap1\n      pop\n        /* \"#utility.yul\":49010:49429   */\n      swap2\n      swap1\n      pop\n      jump\t// out\n\n    auxdata: 0xa26469706673582212203cf1b260efcf23577f9fb113801cc08bd729718845bd8a545324f108b142159464736f6c634300081e0033\n}\n",
				"bytecode": {
					"linkReferences": {},
					"object": "60806040526001805560016002556001600355348015601c575f5ffd5b50335f5f6101000a81548173ffffffffffffffffffffffffffffffffffffffff021916908373ffffffffffffffffffffffffffffffffffffffff160217905550614168806100695f395ff3fe608060405234801561000f575f5ffd5b506004361061014b575f3560e01c80637faa7bc7116100c1578063c4edcf8b1161007a578063c4edcf8b14610423578063e570c3671461043f578063eaa66a3c1461046f578063f851a440146104a3578063fc436695146104c1578063fd84cb97146104dd5761014b565b80637faa7bc71461031c578063a113c55714610338578063a6c6a8f314610368578063af56a4281461039e578063b8a24252146103ce578063b9a3a68c146104055761014b565b80634138d167116101135780634138d16714610224578063475b6f98146102545780634ffe6ae2146102845780635f19f4f5146102a057806372f2f93a146102d05780637defa920146103005761014b565b8063092b37401461014f5780630fd196681461017f578063229ec4521461019d5780632ac08a93146101bb57806333401ee1146101f4575b5f5ffd5b61016960048036038101906101649190612a70565b6104f9565b6040516101769190612dab565b60405180910390f35b61018761089c565b6040516101949190612dda565b60405180910390f35b6101a56108a2565b6040516101b29190612dda565b60405180910390f35b6101d560048036038101906101d09190612a70565b6108a8565b6040516101eb9a99989796959493929190612e68565b60405180910390f35b61020e60048036038101906102099190613076565b610ae0565b60405161021b9190612dda565b60405180910390f35b61023e6004803603810190610239919061316b565b610de9565b60405161024b9190613256565b60405180910390f35b61026e600480360381019061026991906132a0565b611008565b60405161027b9190612dda565b60405180910390f35b61029e60048036038101906102999190612a70565b61135b565b005b6102ba60048036038101906102b59190612a70565b611445565b6040516102c791906134f0565b60405180910390f35b6102ea60048036038101906102e5919061316b565b6117aa565b6040516102f7919061357c565b60405180910390f35b61031a600480360381019061031591906135bf565b61183d565b005b61033660048036038101906103319190612a70565b611991565b005b610352600480360381019061034d91906135fd565b611b81565b60405161035f9190612dda565b60405180910390f35b610382600480360381019061037d9190612a70565b611bac565b6040516103959796959493929190613681565b60405180910390f35b6103b860048036038101906103b39190612a70565b611ca8565b6040516103c591906136f5565b60405180910390f35b6103e860048036038101906103e39190612a70565b611d5f565b6040516103fc98979695949392919061371d565b60405180910390f35b61040d611f54565b60405161041a9190612dda565b60405180910390f35b61043d600480360381019061043891906137d1565b611f5a565b005b6104596004803603810190610454919061387c565b61218c565b6040516104669190612dda565b60405180910390f35b6104896004803603810190610484919061316b565b612437565b60405161049a9594939291906138f7565b60405180910390f35b6104ab6125ac565b6040516104b89190613956565b60405180910390f35b6104db60048036038101906104d6919061316b565b6125d0565b005b6104f760048036038101906104f29190612a70565b6126b8565b005b6105016128e6565b60045f8381526020019081526020015f20604051806101800160405290815f8201548152602001600182015f9054906101000a900473ffffffffffffffffffffffffffffffffffffffff1673ffffffffffffffffffffffffffffffffffffffff1673ffffffffffffffffffffffffffffffffffffffff168152602001600282015f9054906101000a900473ffffffffffffffffffffffffffffffffffffffff1673ffffffffffffffffffffffffffffffffffffffff1673ffffffffffffffffffffffffffffffffffffffff1681526020016003820180546105e19061399c565b80601f016020809104026020016040519081016040528092919081815260200182805461060d9061399c565b80156106585780601f1061062f57610100808354040283529160200191610658565b820191905f5260205f20905b81548152906001019060200180831161063b57829003601f168201915b505050505081526020016004820180546106719061399c565b80601f016020809104026020016040519081016040528092919081815260200182805461069d9061399c565b80156106e85780601f106106bf576101008083540402835291602001916106e8565b820191905f5260205f20905b8154815290600101906020018083116106cb57829003601f168201915b505050505081526020016005820180546107019061399c565b80601f016020809104026020016040519081016040528092919081815260200182805461072d9061399c565b80156107785780601f1061074f57610100808354040283529160200191610778565b820191905f5260205f20905b81548152906001019060200180831161075b57829003601f168201915b505050505081526020016006820154815260200160078201548152602001600882015f9054906101000a900460ff1660068111156107b9576107b8612b59565b5b60068111156107cb576107ca612b59565b5b81526020016009820180548060200260200160405190810160405280929190818152602001828054801561081c57602002820191905f5260205f20905b815481526020019060010190808311610808575b50505050508152602001600a820180548060200260200160405190810160405280929190818152602001828054801561087257602002820191905f5260205f20905b81548152602001906001019080831161085e575b50505050508152602001600b82015f9054906101000a900460ff1615151515815250509050919050565b60035481565b60025481565b6004602052805f5260405f205f91509050805f015490806001015f9054906101000a900473ffffffffffffffffffffffffffffffffffffffff1690806002015f9054906101000a900473ffffffffffffffffffffffffffffffffffffffff16908060030180546109179061399c565b80601f01602080910402602001604051908101604052809291908181526020018280546109439061399c565b801561098e5780601f106109655761010080835404028352916020019161098e565b820191905f5260205f20905b81548152906001019060200180831161097157829003601f168201915b5050505050908060040180546109a39061399c565b80601f01602080910402602001604051908101604052809291908181526020018280546109cf9061399c565b8015610a1a5780601f106109f157610100808354040283529160200191610a1a565b820191905f5260205f20905b8154815290600101906020018083116109fd57829003601f168201915b505050505090806005018054610a2f9061399c565b80601f0160208091040260200160405190810160405280929190818152602001828054610a5b9061399c565b8015610aa65780601f10610a7d57610100808354040283529160200191610aa6565b820191905f5260205f20905b815481529060010190602001808311610a8957829003601f168201915b505050505090806006015490806007015490806008015f9054906101000a900460ff169080600b015f9054906101000a900460ff1690508a565b5f60075f3373ffffffffffffffffffffffffffffffffffffffff1673ffffffffffffffffffffffffffffffffffffffff1681526020019081526020015f206004015f9054906101000a900460ff16610b6d576040517f08c379a0000000000000000000000000000000000000000000000000000000008152600401610b6490613a16565b60405180910390fd5b855f81118015610b7e575060015481105b610bbd576040517f08c379a0000000000000000000000000000000000000000000000000000000008152600401610bb490613a7e565b60405180910390fd5b5f60025f815480929190610bd090613ac9565b9190505590506040518061010001604052808281526020018981526020013373ffffffffffffffffffffffffffffffffffffffff1681526020018881526020018781526020014281526020018681526020018581525060055f8381526020019081526020015f205f820151815f0155602082015181600101556040820151816002015f6101000a81548173ffffffffffffffffffffffffffffffffffffffff021916908373ffffffffffffffffffffffffffffffffffffffff1602179055506060820151816003019081610ca49190613cb0565b506080820151816004019081610cba9190613cb0565b5060a0820151816005015560c0820151816006019081610cda9190613cb0565b5060e0820151816007015590505060045f8981526020019081526020015f2060090181908060018154018082558091505060019003905f5260205f20015f909190919091505560045f8981526020019081526020015f20600b015f9054906101000a900460ff168015610d5857506050841380610d575750601484125b5b15610da057610d9e8860036040518060400160405280601881526020017f54656d7065726174757265206f7574206f662072616e6765000000000000000081525061218c565b505b87817f866de744a1d30941b1bccb4355cfb9dacfa65296f3ab651a0d4dce76bf988a718933604051610dd3929190613d7f565b60405180910390a3809250505095945050505050565b610df1612980565b60075f8373ffffffffffffffffffffffffffffffffffffffff1673ffffffffffffffffffffffffffffffffffffffff1681526020019081526020015f206040518060a00160405290815f82015f9054906101000a900473ffffffffffffffffffffffffffffffffffffffff1673ffffffffffffffffffffffffffffffffffffffff1673ffffffffffffffffffffffffffffffffffffffff168152602001600182018054610e9d9061399c565b80601f0160208091040260200160405190810160405280929190818152602001828054610ec99061399c565b8015610f145780601f10610eeb57610100808354040283529160200191610f14565b820191905f5260205f20905b815481529060010190602001808311610ef757829003601f168201915b50505050508152602001600282015f9054906101000a900460ff166005811115610f4157610f40612b59565b5b6005811115610f5357610f52612b59565b5b8152602001600382018054610f679061399c565b80601f0160208091040260200160405190810160405280929190818152602001828054610f939061399c565b8015610fde5780601f10610fb557610100808354040283529160200191610fde565b820191905f5260205f20905b815481529060010190602001808311610fc157829003601f168201915b50505050508152602001600482015f9054906101000a900460ff1615151515815250509050919050565b5f60075f3373ffffffffffffffffffffffffffffffffffffffff1673ffffffffffffffffffffffffffffffffffffffff1681526020019081526020015f206004015f9054906101000a900460ff16611095576040517f08c379a000000000000000000000000000000000000000000000000000000000815260040161108c90613a16565b60405180910390fd5b600160058111156110a9576110a8612b59565b5b60075f3373ffffffffffffffffffffffffffffffffffffffff1673ffffffffffffffffffffffffffffffffffffffff1681526020019081526020015f206002015f9054906101000a900460ff16600581111561110857611107612b59565b5b14611148576040517f08c379a000000000000000000000000000000000000000000000000000000000815260040161113f90613df7565b60405180910390fd5b5f60015f81548092919061115b90613ac9565b9190505590505f60045f8381526020019081526020015f20905081815f018190555033816001015f6101000a81548173ffffffffffffffffffffffffffffffffffffffff021916908373ffffffffffffffffffffffffffffffffffffffff16021790555087816002015f6101000a81548173ffffffffffffffffffffffffffffffffffffffff021916908373ffffffffffffffffffffffffffffffffffffffff160217905550868160030190816112129190613cb0565b50858160040190816112249190613cb0565b50848160050190816112369190613cb0565b504281600601819055505f816008015f6101000a81548160ff0219169083600681111561126657611265612b59565b5b02179055508381600b015f6101000a81548160ff02191690831515021790555060085f3373ffffffffffffffffffffffffffffffffffffffff1673ffffffffffffffffffffffffffffffffffffffff1681526020019081526020015f2082908060018154018082558091505060019003905f5260205f20015f90919091909150558773ffffffffffffffffffffffffffffffffffffffff163373ffffffffffffffffffffffffffffffffffffffff16837f8fb6b855d6cbdf201f2fcaadbf8c38d36168ff7d2ca865cb2599abcd5a060e8f8a6040516113459190613e15565b60405180910390a4819250505095945050505050565b5f5f9054906101000a900473ffffffffffffffffffffffffffffffffffffffff1673ffffffffffffffffffffffffffffffffffffffff163373ffffffffffffffffffffffffffffffffffffffff16146113e9576040517f08c379a00000000000000000000000000000000000000000000000000000000081526004016113e090613e7f565b60405180910390fd5b600160065f8381526020019081526020015f206005015f6101000a81548160ff021916908315150217905550807ff83ae0ade2d9004bc0030405bdd3336f9d9b97530bcf44cce99ce02c95641b7760405160405180910390a250565b60605f60045f8481526020019081526020015f206009018054806020026020016040519081016040528092919081815260200182805480156114a457602002820191905f5260205f20905b815481526020019060010190808311611490575b505050505090505f815167ffffffffffffffff8111156114c7576114c6612f1f565b5b60405190808252806020026020018201604052801561150057816020015b6114ed6129d6565b8152602001906001900390816114e55790505b5090505f5f90505b825181101561179f5760055f84838151811061152757611526613e9d565b5b602002602001015181526020019081526020015f20604051806101000160405290815f820154815260200160018201548152602001600282015f9054906101000a900473ffffffffffffffffffffffffffffffffffffffff1673ffffffffffffffffffffffffffffffffffffffff1673ffffffffffffffffffffffffffffffffffffffff1681526020016003820180546115c09061399c565b80601f01602080910402602001604051908101604052809291908181526020018280546115ec9061399c565b80156116375780601f1061160e57610100808354040283529160200191611637565b820191905f5260205f20905b81548152906001019060200180831161161a57829003601f168201915b505050505081526020016004820180546116509061399c565b80601f016020809104026020016040519081016040528092919081815260200182805461167c9061399c565b80156116c75780601f1061169e576101008083540402835291602001916116c7565b820191905f5260205f20905b8154815290600101906020018083116116aa57829003601f168201915b50505050508152602001600582015481526020016006820180546116ea9061399c565b80601f01602080910402602001604051908101604052809291908181526020018280546117169061399c565b80156117615780601f1061173857610100808354040283529160200191611761565b820191905f5260205f20905b81548152906001019060200180831161174457829003601f168201915b5050505050815260200160078201548152505082828151811061178757611786613e9d565b5b60200260200101819052508080600101915050611508565b508092505050919050565b606060085f8373ffffffffffffffffffffffffffffffffffffffff1673ffffffffffffffffffffffffffffffffffffffff1681526020019081526020015f2080548060200260200160405190810160405280929190818152602001828054801561183157602002820191905f5260205f20905b81548152602001906001019080831161181d575b50505050509050919050565b60075f3373ffffffffffffffffffffffffffffffffffffffff1673ffffffffffffffffffffffffffffffffffffffff1681526020019081526020015f206004015f9054906101000a900460ff166118c9576040517f08c379a00000000000000000000000000000000000000000000000000000000081526004016118c090613a16565b60405180910390fd5b815f811180156118da575060015481105b611919576040517f08c379a000000000000000000000000000000000000000000000000000000000815260040161191090613a7e565b60405180910390fd5b8160045f8581526020019081526020015f206008015f6101000a81548160ff0219169083600681111561194f5761194e612b59565b5b0217905550827f7c1c93f72f29b8a1fc6fc85eed990d133b1ffac80c962b521abb12f38f2ff9af836040516119849190613eca565b60405180910390a2505050565b805f811180156119a2575060015481105b6119e1576040517f08c379a00000000000000000000000000000000000000000000000000000000081526004016119d890613a7e565b60405180910390fd5b60045f8381526020019081526020015f206001015f9054906101000a900473ffffffffffffffffffffffffffffffffffffffff1673ffffffffffffffffffffffffffffffffffffffff163373ffffffffffffffffffffffffffffffffffffffff1614611a82576040517f08c379a0000000000000000000000000000000000000000000000000000000008152600401611a7990613f2d565b60405180910390fd5b5f6006811115611a9557611a94612b59565b5b60045f8481526020019081526020015f206008015f9054906101000a900460ff166006811115611ac857611ac7612b59565b5b14611b08576040517f08c379a0000000000000000000000000000000000000000000000000000000008152600401611aff90613f95565b60405180910390fd5b600660045f8481526020019081526020015f206008015f6101000a81548160ff02191690836006811115611b3f57611b3e612b59565b5b0217905550817f7c1c93f72f29b8a1fc6fc85eed990d133b1ffac80c962b521abb12f38f2ff9af6006604051611b759190613eca565b60405180910390a25050565b6008602052815f5260405f208181548110611b9a575f80fd5b905f5260205f20015f91509150505481565b6006602052805f5260405f205f91509050805f015490806001015490806002015f9054906101000a900460ff16908060020160019054906101000a900473ffffffffffffffffffffffffffffffffffffffff1690806003018054611c0f9061399c565b80601f0160208091040260200160405190810160405280929190818152602001828054611c3b9061399c565b8015611c865780601f10611c5d57610100808354040283529160200191611c86565b820191905f5260205f20905b815481529060010190602001808311611c6957829003601f168201915b505050505090806004015490806005015f9054906101000a900460ff16905087565b5f5f60045f8481526020019081526020015f20905080600b015f9054906101000a900460ff16611cdc576001915050611d5a565b5f5f90505b8160090180549050811015611d53575f60055f846009018481548110611d0a57611d09613e9d565b5b905f5260205f20015481526020019081526020015f206007015490506050811380611d355750601481125b15611d45575f9350505050611d5a565b508080600101915050611ce1565b5060019150505b919050565b6005602052805f5260405f205f91509050805f015490806001015490806002015f9054906101000a900473ffffffffffffffffffffffffffffffffffffffff1690806003018054611daf9061399c565b80601f0160208091040260200160405190810160405280929190818152602001828054611ddb9061399c565b8015611e265780601f10611dfd57610100808354040283529160200191611e26565b820191905f5260205f20905b815481529060010190602001808311611e0957829003601f168201915b505050505090806004018054611e3b9061399c565b80601f0160208091040260200160405190810160405280929190818152602001828054611e679061399c565b8015611eb25780601f10611e8957610100808354040283529160200191611eb2565b820191905f5260205f20905b815481529060010190602001808311611e9557829003601f168201915b505050505090806005015490806006018054611ecd9061399c565b80601f0160208091040260200160405190810160405280929190818152602001828054611ef99061399c565b8015611f445780601f10611f1b57610100808354040283529160200191611f44565b820191905f5260205f20905b815481529060010190602001808311611f2757829003601f168201915b5050505050908060070154905088565b60015481565b60075f3373ffffffffffffffffffffffffffffffffffffffff1673ffffffffffffffffffffffffffffffffffffffff1681526020019081526020015f206004015f9054906101000a900460ff1615611fe7576040517f08c379a0000000000000000000000000000000000000000000000000000000008152600401611fde90613ffd565b60405180910390fd5b6040518060a001604052803373ffffffffffffffffffffffffffffffffffffffff16815260200184815260200183600581111561202757612026612b59565b5b81526020018281526020016001151581525060075f3373ffffffffffffffffffffffffffffffffffffffff1673ffffffffffffffffffffffffffffffffffffffff1681526020019081526020015f205f820151815f015f6101000a81548173ffffffffffffffffffffffffffffffffffffffff021916908373ffffffffffffffffffffffffffffffffffffffff16021790555060208201518160010190816120cf9190613cb0565b506040820151816002015f6101000a81548160ff021916908360058111156120fa576120f9612b59565b5b021790555060608201518160030190816121149190613cb0565b506080820151816004015f6101000a81548160ff0219169083151502179055509050503373ffffffffffffffffffffffffffffffffffffffff167fc9a31de765abe70445345802bee3c96554ca063ab257e3888d498accb859fabc848460405161217f92919061401b565b60405180910390a2505050565b5f60075f3373ffffffffffffffffffffffffffffffffffffffff1673ffffffffffffffffffffffffffffffffffffffff1681526020019081526020015f206004015f9054906101000a900460ff16612219576040517f08c379a000000000000000000000000000000000000000000000000000000000815260040161221090613a16565b60405180910390fd5b835f8111801561222a575060015481105b612269576040517f08c379a000000000000000000000000000000000000000000000000000000000815260040161226090613a7e565b60405180910390fd5b5f60035f81548092919061227c90613ac9565b9190505590506040518060e001604052808281526020018781526020018660048111156122ac576122ab612b59565b5b81526020013373ffffffffffffffffffffffffffffffffffffffff1681526020018581526020014281526020015f151581525060065f8381526020019081526020015f205f820151815f0155602082015181600101556040820151816002015f6101000a81548160ff0219169083600481111561232c5761232b612b59565b5b021790555060608201518160020160016101000a81548173ffffffffffffffffffffffffffffffffffffffff021916908373ffffffffffffffffffffffffffffffffffffffff160217905550608082015181600301908161238d9190613cb0565b5060a0820151816004015560c0820151816005015f6101000a81548160ff02191690831515021790555090505060045f8781526020019081526020015f20600a0181908060018154018082558091505060019003905f5260205f20015f909190919091505585817fc2c9d0fa5caecea68b9ec6aca764014b01764f779d8a510f0d0d6796b76b7c83876040516124239190614049565b60405180910390a380925050509392505050565b6007602052805f5260405f205f91509050805f015f9054906101000a900473ffffffffffffffffffffffffffffffffffffffff169080600101805461247b9061399c565b80601f01602080910402602001604051908101604052809291908181526020018280546124a79061399c565b80156124f25780601f106124c9576101008083540402835291602001916124f2565b820191905f5260205f20905b8154815290600101906020018083116124d557829003601f168201915b505050505090806002015f9054906101000a900460ff16908060030180546125199061399c565b80601f01602080910402602001604051908101604052809291908181526020018280546125459061399c565b80156125905780601f1061256757610100808354040283529160200191612590565b820191905f5260205f20905b81548152906001019060200180831161257357829003601f168201915b505050505090806004015f9054906101000a900460ff16905085565b5f5f9054906101000a900473ffffffffffffffffffffffffffffffffffffffff1681565b5f5f9054906101000a900473ffffffffffffffffffffffffffffffffffffffff1673ffffffffffffffffffffffffffffffffffffffff163373ffffffffffffffffffffffffffffffffffffffff161461265e576040517f08c379a000000000000000000000000000000000000000000000000000000000815260040161265590613e7f565b60405180910390fd5b5f60075f8373ffffffffffffffffffffffffffffffffffffffff1673ffffffffffffffffffffffffffffffffffffffff1681526020019081526020015f206004015f6101000a81548160ff02191690831515021790555050565b805f811180156126c9575060015481105b612708576040517f08c379a00000000000000000000000000000000000000000000000000000000081526004016126ff90613a7e565b60405180910390fd5b5f60045f8481526020019081526020015f209050806002015f9054906101000a900473ffffffffffffffffffffffffffffffffffffffff1673ffffffffffffffffffffffffffffffffffffffff163373ffffffffffffffffffffffffffffffffffffffff16146127ad576040517f08c379a00000000000000000000000000000000000000000000000000000000081526004016127a4906140ac565b60405180910390fd5b600460068111156127c1576127c0612b59565b5b816008015f9054906101000a900460ff1660068111156127e4576127e3612b59565b5b03612824576040517f08c379a000000000000000000000000000000000000000000000000000000000815260040161281b90614114565b60405180910390fd5b6004816008015f6101000a81548160ff0219169083600681111561284b5761284a612b59565b5b02179055504281600701819055503373ffffffffffffffffffffffffffffffffffffffff16837f2f4a952729db32131cb3d658cc231127e0ce7e50f83508ece9a49c985f2384d0426040516128a09190612dda565b60405180910390a3827f7c1c93f72f29b8a1fc6fc85eed990d133b1ffac80c962b521abb12f38f2ff9af60046040516128d99190613eca565b60405180910390a2505050565b6040518061018001604052805f81526020015f73ffffffffffffffffffffffffffffffffffffffff1681526020015f73ffffffffffffffffffffffffffffffffffffffff1681526020016060815260200160608152602001606081526020015f81526020015f81526020015f600681111561296457612963612b59565b5b815260200160608152602001606081526020015f151581525090565b6040518060a001604052805f73ffffffffffffffffffffffffffffffffffffffff168152602001606081526020015f60058111156129c1576129c0612b59565b5b8152602001606081526020015f151581525090565b6040518061010001604052805f81526020015f81526020015f73ffffffffffffffffffffffffffffffffffffffff16815260200160608152602001606081526020015f8152602001606081526020015f81525090565b5f604051905090565b5f5ffd5b5f5ffd5b5f819050919050565b612a4f81612a3d565b8114612a59575f5ffd5b50565b5f81359050612a6a81612a46565b92915050565b5f60208284031215612a8557612a84612a35565b5b5f612a9284828501612a5c565b91505092915050565b612aa481612a3d565b82525050565b5f73ffffffffffffffffffffffffffffffffffffffff82169050919050565b5f612ad382612aaa565b9050919050565b612ae381612ac9565b82525050565b5f81519050919050565b5f82825260208201905092915050565b8281835e5f83830152505050565b5f601f19601f8301169050919050565b5f612b2b82612ae9565b612b358185612af3565b9350612b45818560208601612b03565b612b4e81612b11565b840191505092915050565b7f4e487b71000000000000000000000000000000000000000000000000000000005f52602160045260245ffd5b60078110612b9757612b96612b59565b5b50565b5f819050612ba782612b86565b919050565b5f612bb682612b9a565b9050919050565b612bc681612bac565b82525050565b5f81519050919050565b5f82825260208201905092915050565b5f819050602082019050919050565b5f612c008383612a9b565b60208301905092915050565b5f602082019050919050565b5f612c2282612bcc565b612c2c8185612bd6565b9350612c3783612be6565b805f5b83811015612c67578151612c4e8882612bf5565b9750612c5983612c0c565b925050600181019050612c3a565b5085935050505092915050565b5f8115159050919050565b612c8881612c74565b82525050565b5f61018083015f830151612ca45f860182612a9b565b506020830151612cb76020860182612ada565b506040830151612cca6040860182612ada565b5060608301518482036060860152612ce28282612b21565b91505060808301518482036080860152612cfc8282612b21565b91505060a083015184820360a0860152612d168282612b21565b91505060c0830151612d2b60c0860182612a9b565b5060e0830151612d3e60e0860182612a9b565b50610100830151612d53610100860182612bbd565b50610120830151848203610120860152612d6d8282612c18565b915050610140830151848203610140860152612d898282612c18565b915050610160830151612da0610160860182612c7f565b508091505092915050565b5f6020820190508181035f830152612dc38184612c8e565b905092915050565b612dd481612a3d565b82525050565b5f602082019050612ded5f830184612dcb565b92915050565b612dfc81612ac9565b82525050565b5f82825260208201905092915050565b5f612e1c82612ae9565b612e268185612e02565b9350612e36818560208601612b03565b612e3f81612b11565b840191505092915050565b612e5381612bac565b82525050565b612e6281612c74565b82525050565b5f61014082019050612e7c5f83018d612dcb565b612e89602083018c612df3565b612e96604083018b612df3565b8181036060830152612ea8818a612e12565b90508181036080830152612ebc8189612e12565b905081810360a0830152612ed08188612e12565b9050612edf60c0830187612dcb565b612eec60e0830186612dcb565b612efa610100830185612e4a565b612f08610120830184612e59565b9b9a5050505050505050505050565b5f5ffd5b5f5ffd5b7f4e487b71000000000000000000000000000000000000000000000000000000005f52604160045260245ffd5b612f5582612b11565b810181811067ffffffffffffffff82111715612f7457612f73612f1f565b5b80604052505050565b5f612f86612a2c565b9050612f928282612f4c565b919050565b5f67ffffffffffffffff821115612fb157612fb0612f1f565b5b612fba82612b11565b9050602081019050919050565b828183375f83830152505050565b5f612fe7612fe284612f97565b612f7d565b90508281526020810184848401111561300357613002612f1b565b5b61300e848285612fc7565b509392505050565b5f82601f83011261302a57613029612f17565b5b813561303a848260208601612fd5565b91505092915050565b5f819050919050565b61305581613043565b811461305f575f5ffd5b50565b5f813590506130708161304c565b92915050565b5f5f5f5f5f60a0868803121561308f5761308e612a35565b5b5f61309c88828901612a5c565b955050602086013567ffffffffffffffff8111156130bd576130bc612a39565b5b6130c988828901613016565b945050604086013567ffffffffffffffff8111156130ea576130e9612a39565b5b6130f688828901613016565b935050606086013567ffffffffffffffff81111561311757613116612a39565b5b61312388828901613016565b925050608061313488828901613062565b9150509295509295909350565b61314a81612ac9565b8114613154575f5ffd5b50565b5f8135905061316581613141565b92915050565b5f602082840312156131805761317f612a35565b5b5f61318d84828501613157565b91505092915050565b600681106131a7576131a6612b59565b5b50565b5f8190506131b782613196565b919050565b5f6131c6826131aa565b9050919050565b6131d6816131bc565b82525050565b5f60a083015f8301516131f15f860182612ada565b50602083015184820360208601526132098282612b21565b915050604083015161321e60408601826131cd565b50606083015184820360608601526132368282612b21565b915050608083015161324b6080860182612c7f565b508091505092915050565b5f6020820190508181035f83015261326e81846131dc565b905092915050565b61327f81612c74565b8114613289575f5ffd5b50565b5f8135905061329a81613276565b92915050565b5f5f5f5f5f60a086880312156132b9576132b8612a35565b5b5f6132c688828901613157565b955050602086013567ffffffffffffffff8111156132e7576132e6612a39565b5b6132f388828901613016565b945050604086013567ffffffffffffffff81111561331457613313612a39565b5b61332088828901613016565b935050606086013567ffffffffffffffff81111561334157613340612a39565b5b61334d88828901613016565b925050608061335e8882890161328c565b9150509295509295909350565b5f81519050919050565b5f82825260208201905092915050565b5f819050602082019050919050565b61339d81613043565b82525050565b5f61010083015f8301516133b95f860182612a9b565b5060208301516133cc6020860182612a9b565b5060408301516133df6040860182612ada565b50606083015184820360608601526133f78282612b21565b915050608083015184820360808601526134118282612b21565b91505060a083015161342660a0860182612a9b565b5060c083015184820360c086015261343e8282612b21565b91505060e083015161345360e0860182613394565b508091505092915050565b5f61346983836133a3565b905092915050565b5f602082019050919050565b5f6134878261336b565b6134918185613375565b9350836020820285016134a385613385565b805f5b858110156134de57848403895281516134bf858261345e565b94506134ca83613471565b925060208a019950506001810190506134a6565b50829750879550505050505092915050565b5f6020820190508181035f830152613508818461347d565b905092915050565b5f82825260208201905092915050565b5f61352a82612bcc565b6135348185613510565b935061353f83612be6565b805f5b8381101561356f5781516135568882612bf5565b975061356183612c0c565b925050600181019050613542565b5085935050505092915050565b5f6020820190508181035f8301526135948184613520565b905092915050565b600781106135a8575f5ffd5b50565b5f813590506135b98161359c565b92915050565b5f5f604083850312156135d5576135d4612a35565b5b5f6135e285828601612a5c565b92505060206135f3858286016135ab565b9150509250929050565b5f5f6040838503121561361357613612612a35565b5b5f61362085828601613157565b925050602061363185828601612a5c565b9150509250929050565b6005811061364c5761364b612b59565b5b50565b5f81905061365c8261363b565b919050565b5f61366b8261364f565b9050919050565b61367b81613661565b82525050565b5f60e0820190506136945f83018a612dcb565b6136a16020830189612dcb565b6136ae6040830188613672565b6136bb6060830187612df3565b81810360808301526136cd8186612e12565b90506136dc60a0830185612dcb565b6136e960c0830184612e59565b98975050505050505050565b5f6020820190506137085f830184612e59565b92915050565b61371781613043565b82525050565b5f610100820190506137315f83018b612dcb565b61373e602083018a612dcb565b61374b6040830189612df3565b818103606083015261375d8188612e12565b905081810360808301526137718187612e12565b905061378060a0830186612dcb565b81810360c08301526137928185612e12565b90506137a160e083018461370e565b9998505050505050505050565b600681106137ba575f5ffd5b50565b5f813590506137cb816137ae565b92915050565b5f5f5f606084860312156137e8576137e7612a35565b5b5f84013567ffffffffffffffff81111561380557613804612a39565b5b61381186828701613016565b9350506020613822868287016137bd565b925050604084013567ffffffffffffffff81111561384357613842612a39565b5b61384f86828701613016565b9150509250925092565b60058110613865575f5ffd5b50565b5f8135905061387681613859565b92915050565b5f5f5f6060848603121561389357613892612a35565b5b5f6138a086828701612a5c565b93505060206138b186828701613868565b925050604084013567ffffffffffffffff8111156138d2576138d1612a39565b5b6138de86828701613016565b9150509250925092565b6138f1816131bc565b82525050565b5f60a08201905061390a5f830188612df3565b818103602083015261391c8187612e12565b905061392b60408301866138e8565b818103606083015261393d8185612e12565b905061394c6080830184612e59565b9695505050505050565b5f6020820190506139695f830184612df3565b92915050565b7f4e487b71000000000000000000000000000000000000000000000000000000005f52602260045260245ffd5b5f60028204905060018216806139b357607f821691505b6020821081036139c6576139c561396f565b5b50919050565b7f4163746f72206e6f742072656769737465726564206f7220696e6163746976655f82015250565b5f613a00602083612e02565b9150613a0b826139cc565b602082019050919050565b5f6020820190508181035f830152613a2d816139f4565b9050919050565b7f536869706d656e7420646f6573206e6f742065786973740000000000000000005f82015250565b5f613a68601783612e02565b9150613a7382613a34565b602082019050919050565b5f6020820190508181035f830152613a9581613a5c565b9050919050565b7f4e487b71000000000000000000000000000000000000000000000000000000005f52601160045260245ffd5b5f613ad382612a3d565b91507fffffffffffffffffffffffffffffffffffffffffffffffffffffffffffffffff8203613b0557613b04613a9c565b5b600182019050919050565b5f819050815f5260205f209050919050565b5f6020601f8301049050919050565b5f82821b905092915050565b5f60088302613b6c7fffffffffffffffffffffffffffffffffffffffffffffffffffffffffffffffff82613b31565b613b768683613b31565b95508019841693508086168417925050509392505050565b5f819050919050565b5f613bb1613bac613ba784612a3d565b613b8e565b612a3d565b9050919050565b5f819050919050565b613bca83613b97565b613bde613bd682613bb8565b848454613b3d565b825550505050565b5f5f905090565b613bf5613be6565b613c00818484613bc1565b505050565b5b81811015613c2357613c185f82613bed565b600181019050613c06565b5050565b601f821115613c6857613c3981613b10565b613c4284613b22565b81016020851015613c51578190505b613c65613c5d85613b22565b830182613c05565b50505b505050565b5f82821c905092915050565b5f613c885f1984600802613c6d565b1980831691505092915050565b5f613ca08383613c79565b9150826002028217905092915050565b613cb982612ae9565b67ffffffffffffffff811115613cd257613cd1612f1f565b5b613cdc825461399c565b613ce7828285613c27565b5f60209050601f831160018114613d18575f8415613d06578287015190505b613d108582613c95565b865550613d77565b601f198416613d2686613b10565b5f5b82811015613d4d57848901518255600182019150602085019450602081019050613d28565b86831015613d6a5784890151613d66601f891682613c79565b8355505b6001600288020188555050505b505050505050565b5f6040820190508181035f830152613d978185612e12565b9050613da66020830184612df3565b9392505050565b7f4f6e6c792053656e646572732063616e206372656174650000000000000000005f82015250565b5f613de1601783612e02565b9150613dec82613dad565b602082019050919050565b5f6020820190508181035f830152613e0e81613dd5565b9050919050565b5f6020820190508181035f830152613e2d8184612e12565b905092915050565b7f4f6e6c792061646d696e000000000000000000000000000000000000000000005f82015250565b5f613e69600a83612e02565b9150613e7482613e35565b602082019050919050565b5f6020820190508181035f830152613e9681613e5d565b9050919050565b7f4e487b71000000000000000000000000000000000000000000000000000000005f52603260045260245ffd5b5f602082019050613edd5f830184612e4a565b92915050565b7f4f6e6c792073656e6465722063616e2063616e63656c000000000000000000005f82015250565b5f613f17601683612e02565b9150613f2282613ee3565b602082019050919050565b5f6020820190508181035f830152613f4481613f0b565b9050919050565b7f43616e6e6f742063616e63656c206166746572207472616e73697400000000005f82015250565b5f613f7f601b83612e02565b9150613f8a82613f4b565b602082019050919050565b5f6020820190508181035f830152613fac81613f73565b9050919050565b7f416c7265616479207265676973746572656400000000000000000000000000005f82015250565b5f613fe7601283612e02565b9150613ff282613fb3565b602082019050919050565b5f6020820190508181035f83015261401481613fdb565b9050919050565b5f6040820190508181035f8301526140338185612e12565b905061404260208301846138e8565b9392505050565b5f60208201905061405c5f830184613672565b92915050565b7f4f6e6c7920726563697069656e742063616e20636f6e6669726d0000000000005f82015250565b5f614096601a83612e02565b91506140a182614062565b602082019050919050565b5f6020820190508181035f8301526140c38161408a565b9050919050565b7f416c72656164792064656c6976657265640000000000000000000000000000005f82015250565b5f6140fe601183612e02565b9150614109826140ca565b602082019050919050565b5f6020820190508181035f83015261412b816140f2565b905091905056fea26469706673582212203cf1b260efcf23577f9fb113801cc08bd729718845bd8a545324f108b142159464736f6c634300081e0033",
					"opcodes": "PUSH1 0x80 PUSH1 0x40 MSTORE PUSH1 0x1 DUP1 SSTORE PUSH1 0x1 PUSH1 0x2 SSTORE PUSH1 0x1 PUSH1 0x3 SSTORE CALLVALUE DUP1 ISZERO PUSH1 0x1C JUMPI PUSH0 PUSH0 REVERT JUMPDEST POP CALLER PUSH0 PUSH0 PUSH2 0x100 EXP DUP2 SLOAD DUP2 PUSH20 0xFFFFFFFFFFFFFFFFFFFFFFFFFFFFFFFFFFFFFFFF MUL NOT AND SWAP1 DUP4 PUSH20 0xFFFFFFFFFFFFFFFFFFFFFFFFFFFFFFFFFFFFFFFF AND MUL OR SWAP1 SSTORE POP PUSH2 0x4168 DUP1 PUSH2 0x69 PUSH0 CODECOPY PUSH0 RETURN INVALID PUSH1 0x80 PUSH1 0x40 MSTORE CALLVALUE DUP1 ISZERO PUSH2 0xF JUMPI PUSH0 PUSH0 REVERT JUMPDEST POP PUSH1 0x4 CALLDATASIZE LT PUSH2 0x14B JUMPI PUSH0 CALLDATALOAD PUSH1 0xE0 SHR DUP1 PUSH4 0x7FAA7BC7 GT PUSH2 0xC1 JUMPI DUP1 PUSH4 0xC4EDCF8B GT PUSH2 0x7A JUMPI DUP1 PUSH4 0xC4EDCF8B EQ PUSH2 0x423 JUMPI DUP1 PUSH4 0xE570C367 EQ PUSH2 0x43F JUMPI DUP1 PUSH4 0xEAA66A3C EQ PUSH2 0x46F JUMPI DUP1 PUSH4 0xF851A440 EQ PUSH2 0x4A3 JUMPI DUP1 PUSH4 0xFC436695 EQ PUSH2 0x4C1 JUMPI DUP1 PUSH4 0xFD84CB97 EQ PUSH2 0x4DD JUMPI PUSH2 0x14B JUMP JUMPDEST DUP1 PUSH4 0x7FAA7BC7 EQ PUSH2 0x31C JUMPI DUP1 PUSH4 0xA113C557 EQ PUSH2 0x338 JUMPI DUP1 PUSH4 0xA6C6A8F3 EQ PUSH2 0x368 JUMPI DUP1 PUSH4 0xAF56A428 EQ PUSH2 0x39E JUMPI DUP1 PUSH4 0xB8A24252 EQ PUSH2 0x3CE JUMPI DUP1 PUSH4 0xB9A3A68C EQ PUSH2 0x405 JUMPI PUSH2 0x14B JUMP JUMPDEST DUP1 PUSH4 0x4138D167 GT PUSH2 0x113 JUMPI DUP1 PUSH4 0x4138D167 EQ PUSH2 0x224 JUMPI DUP1 PUSH4 0x475B6F98 EQ PUSH2 0x254 JUMPI DUP1 PUSH4 0x4FFE6AE2 EQ PUSH2 0x284 JUMPI DUP1 PUSH4 0x5F19F4F5 EQ PUSH2 0x2A0 JUMPI DUP1 PUSH4 0x72F2F93A EQ PUSH2 0x2D0 JUMPI DUP1 PUSH4 0x7DEFA920 EQ PUSH2 0x300 JUMPI PUSH2 0x14B JUMP JUMPDEST DUP1 PUSH4 0x92B3740 EQ PUSH2 0x14F JUMPI DUP1 PUSH4 0xFD19668 EQ PUSH2 0x17F JUMPI DUP1 PUSH4 0x229EC452 EQ PUSH2 0x19D JUMPI DUP1 PUSH4 0x2AC08A93 EQ PUSH2 0x1BB JUMPI DUP1 PUSH4 0x33401EE1 EQ PUSH2 0x1F4 JUMPI JUMPDEST PUSH0 PUSH0 REVERT JUMPDEST PUSH2 0x169 PUSH1 0x4 DUP1 CALLDATASIZE SUB DUP2 ADD SWAP1 PUSH2 0x164 SWAP2 SWAP1 PUSH2 0x2A70 JUMP JUMPDEST PUSH2 0x4F9 JUMP JUMPDEST PUSH1 0x40 MLOAD PUSH2 0x176 SWAP2 SWAP1 PUSH2 0x2DAB JUMP JUMPDEST PUSH1 0x40 MLOAD DUP1 SWAP2 SUB SWAP1 RETURN JUMPDEST PUSH2 0x187 PUSH2 0x89C JUMP JUMPDEST PUSH1 0x40 MLOAD PUSH2 0x194 SWAP2 SWAP1 PUSH2 0x2DDA JUMP JUMPDEST PUSH1 0x40 MLOAD DUP1 SWAP2 SUB SWAP1 RETURN JUMPDEST PUSH2 0x1A5 PUSH2 0x8A2 JUMP JUMPDEST PUSH1 0x40 MLOAD PUSH2 0x1B2 SWAP2 SWAP1 PUSH2 0x2DDA JUMP JUMPDEST PUSH1 0x40 MLOAD DUP1 SWAP2 SUB SWAP1 RETURN JUMPDEST PUSH2 0x1D5 PUSH1 0x4 DUP1 CALLDATASIZE SUB DUP2 ADD SWAP1 PUSH2 0x1D0 SWAP2 SWAP1 PUSH2 0x2A70 JUMP JUMPDEST PUSH2 0x8A8 JUMP JUMPDEST PUSH1 0x40 MLOAD PUSH2 0x1EB SWAP11 SWAP10 SWAP9 SWAP8 SWAP7 SWAP6 SWAP5 SWAP4 SWAP3 SWAP2 SWAP1 PUSH2 0x2E68 JUMP JUMPDEST PUSH1 0x40 MLOAD DUP1 SWAP2 SUB SWAP1 RETURN JUMPDEST PUSH2 0x20E PUSH1 0x4 DUP1 CALLDATASIZE SUB DUP2 ADD SWAP1 PUSH2 0x209 SWAP2 SWAP1 PUSH2 0x3076 JUMP JUMPDEST PUSH2 0xAE0 JUMP JUMPDEST PUSH1 0x40 MLOAD PUSH2 0x21B SWAP2 SWAP1 PUSH2 0x2DDA JUMP JUMPDEST PUSH1 0x40 MLOAD DUP1 SWAP2 SUB SWAP1 RETURN JUMPDEST PUSH2 0x23E PUSH1 0x4 DUP1 CALLDATASIZE SUB DUP2 ADD SWAP1 PUSH2 0x239 SWAP2 SWAP1 PUSH2 0x316B JUMP JUMPDEST PUSH2 0xDE9 JUMP JUMPDEST PUSH1 0x40 MLOAD PUSH2 0x24B SWAP2 SWAP1 PUSH2 0x3256 JUMP JUMPDEST PUSH1 0x40 MLOAD DUP1 SWAP2 SUB SWAP1 RETURN JUMPDEST PUSH2 0x26E PUSH1 0x4 DUP1 CALLDATASIZE SUB DUP2 ADD SWAP1 PUSH2 0x269 SWAP2 SWAP1 PUSH2 0x32A0 JUMP JUMPDEST PUSH2 0x1008 JUMP JUMPDEST PUSH1 0x40 MLOAD PUSH2 0x27B SWAP2 SWAP1 PUSH2 0x2DDA JUMP JUMPDEST PUSH1 0x40 MLOAD DUP1 SWAP2 SUB SWAP1 RETURN JUMPDEST PUSH2 0x29E PUSH1 0x4 DUP1 CALLDATASIZE SUB DUP2 ADD SWAP1 PUSH2 0x299 SWAP2 SWAP1 PUSH2 0x2A70 JUMP JUMPDEST PUSH2 0x135B JUMP JUMPDEST STOP JUMPDEST PUSH2 0x2BA PUSH1 0x4 DUP1 CALLDATASIZE SUB DUP2 ADD SWAP1 PUSH2 0x2B5 SWAP2 SWAP1 PUSH2 0x2A70 JUMP JUMPDEST PUSH2 0x1445 JUMP JUMPDEST PUSH1 0x40 MLOAD PUSH2 0x2C7 SWAP2 SWAP1 PUSH2 0x34F0 JUMP JUMPDEST PUSH1 0x40 MLOAD DUP1 SWAP2 SUB SWAP1 RETURN JUMPDEST PUSH2 0x2EA PUSH1 0x4 DUP1 CALLDATASIZE SUB DUP2 ADD SWAP1 PUSH2 0x2E5 SWAP2 SWAP1 PUSH2 0x316B JUMP JUMPDEST PUSH2 0x17AA JUMP JUMPDEST PUSH1 0x40 MLOAD PUSH2 0x2F7 SWAP2 SWAP1 PUSH2 0x357C JUMP JUMPDEST PUSH1 0x40 MLOAD DUP1 SWAP2 SUB SWAP1 RETURN JUMPDEST PUSH2 0x31A PUSH1 0x4 DUP1 CALLDATASIZE SUB DUP2 ADD SWAP1 PUSH2 0x315 SWAP2 SWAP1 PUSH2 0x35BF JUMP JUMPDEST PUSH2 0x183D JUMP JUMPDEST STOP JUMPDEST PUSH2 0x336 PUSH1 0x4 DUP1 CALLDATASIZE SUB DUP2 ADD SWAP1 PUSH2 0x331 SWAP2 SWAP1 PUSH2 0x2A70 JUMP JUMPDEST PUSH2 0x1991 JUMP JUMPDEST STOP JUMPDEST PUSH2 0x352 PUSH1 0x4 DUP1 CALLDATASIZE SUB DUP2 ADD SWAP1 PUSH2 0x34D SWAP2 SWAP1 PUSH2 0x35FD JUMP JUMPDEST PUSH2 0x1B81 JUMP JUMPDEST PUSH1 0x40 MLOAD PUSH2 0x35F SWAP2 SWAP1 PUSH2 0x2DDA JUMP JUMPDEST PUSH1 0x40 MLOAD DUP1 SWAP2 SUB SWAP1 RETURN JUMPDEST PUSH2 0x382 PUSH1 0x4 DUP1 CALLDATASIZE SUB DUP2 ADD SWAP1 PUSH2 0x37D SWAP2 SWAP1 PUSH2 0x2A70 JUMP JUMPDEST PUSH2 0x1BAC JUMP JUMPDEST PUSH1 0x40 MLOAD PUSH2 0x395 SWAP8 SWAP7 SWAP6 SWAP5 SWAP4 SWAP3 SWAP2 SWAP1 PUSH2 0x3681 JUMP JUMPDEST PUSH1 0x40 MLOAD DUP1 SWAP2 SUB SWAP1 RETURN JUMPDEST PUSH2 0x3B8 PUSH1 0x4 DUP1 CALLDATASIZE SUB DUP2 ADD SWAP1 PUSH2 0x3B3 SWAP2 SWAP1 PUSH2 0x2A70 JUMP JUMPDEST PUSH2 0x1CA8 JUMP JUMPDEST PUSH1 0x40 MLOAD PUSH2 0x3C5 SWAP2 SWAP1 PUSH2 0x36F5 JUMP JUMPDEST PUSH1 0x40 MLOAD DUP1 SWAP2 SUB SWAP1 RETURN JUMPDEST PUSH2 0x3E8 PUSH1 0x4 DUP1 CALLDATASIZE SUB DUP2 ADD SWAP1 PUSH2 0x3E3 SWAP2 SWAP1 PUSH2 0x2A70 JUMP JUMPDEST PUSH2 0x1D5F JUMP JUMPDEST PUSH1 0x40 MLOAD PUSH2 0x3FC SWAP9 SWAP8 SWAP7 SWAP6 SWAP5 SWAP4 SWAP3 SWAP2 SWAP1 PUSH2 0x371D JUMP JUMPDEST PUSH1 0x40 MLOAD DUP1 SWAP2 SUB SWAP1 RETURN JUMPDEST PUSH2 0x40D PUSH2 0x1F54 JUMP JUMPDEST PUSH1 0x40 MLOAD PUSH2 0x41A SWAP2 SWAP1 PUSH2 0x2DDA JUMP JUMPDEST PUSH1 0x40 MLOAD DUP1 SWAP2 SUB SWAP1 RETURN JUMPDEST PUSH2 0x43D PUSH1 0x4 DUP1 CALLDATASIZE SUB DUP2 ADD SWAP1 PUSH2 0x438 SWAP2 SWAP1 PUSH2 0x37D1 JUMP JUMPDEST PUSH2 0x1F5A JUMP JUMPDEST STOP JUMPDEST PUSH2 0x459 PUSH1 0x4 DUP1 CALLDATASIZE SUB DUP2 ADD SWAP1 PUSH2 0x454 SWAP2 SWAP1 PUSH2 0x387C JUMP JUMPDEST PUSH2 0x218C JUMP JUMPDEST PUSH1 0x40 MLOAD PUSH2 0x466 SWAP2 SWAP1 PUSH2 0x2DDA JUMP JUMPDEST PUSH1 0x40 MLOAD DUP1 SWAP2 SUB SWAP1 RETURN JUMPDEST PUSH2 0x489 PUSH1 0x4 DUP1 CALLDATASIZE SUB DUP2 ADD SWAP1 PUSH2 0x484 SWAP2 SWAP1 PUSH2 0x316B JUMP JUMPDEST PUSH2 0x2437 JUMP JUMPDEST PUSH1 0x40 MLOAD PUSH2 0x49A SWAP6 SWAP5 SWAP4 SWAP3 SWAP2 SWAP1 PUSH2 0x38F7 JUMP JUMPDEST PUSH1 0x40 MLOAD DUP1 SWAP2 SUB SWAP1 RETURN JUMPDEST PUSH2 0x4AB PUSH2 0x25AC JUMP JUMPDEST PUSH1 0x40 MLOAD PUSH2 0x4B8 SWAP2 SWAP1 PUSH2 0x3956 JUMP JUMPDEST PUSH1 0x40 MLOAD DUP1 SWAP2 SUB SWAP1 RETURN JUMPDEST PUSH2 0x4DB PUSH1 0x4 DUP1 CALLDATASIZE SUB DUP2 ADD SWAP1 PUSH2 0x4D6 SWAP2 SWAP1 PUSH2 0x316B JUMP JUMPDEST PUSH2 0x25D0 JUMP JUMPDEST STOP JUMPDEST PUSH2 0x4F7 PUSH1 0x4 DUP1 CALLDATASIZE SUB DUP2 ADD SWAP1 PUSH2 0x4F2 SWAP2 SWAP1 PUSH2 0x2A70 JUMP JUMPDEST PUSH2 0x26B8 JUMP JUMPDEST STOP JUMPDEST PUSH2 0x501 PUSH2 0x28E6 JUMP JUMPDEST PUSH1 0x4 PUSH0 DUP4 DUP2 MSTORE PUSH1 0x20 ADD SWAP1 DUP2 MSTORE PUSH1 0x20 ADD PUSH0 KECCAK256 PUSH1 0x40 MLOAD DUP1 PUSH2 0x180 ADD PUSH1 0x40 MSTORE SWAP1 DUP2 PUSH0 DUP3 ADD SLOAD DUP2 MSTORE PUSH1 0x20 ADD PUSH1 0x1 DUP3 ADD PUSH0 SWAP1 SLOAD SWAP1 PUSH2 0x100 EXP SWAP1 DIV PUSH20 0xFFFFFFFFFFFFFFFFFFFFFFFFFFFFFFFFFFFFFFFF AND PUSH20 0xFFFFFFFFFFFFFFFFFFFFFFFFFFFFFFFFFFFFFFFF AND PUSH20 0xFFFFFFFFFFFFFFFFFFFFFFFFFFFFFFFFFFFFFFFF AND DUP2 MSTORE PUSH1 0x20 ADD PUSH1 0x2 DUP3 ADD PUSH0 SWAP1 SLOAD SWAP1 PUSH2 0x100 EXP SWAP1 DIV PUSH20 0xFFFFFFFFFFFFFFFFFFFFFFFFFFFFFFFFFFFFFFFF AND PUSH20 0xFFFFFFFFFFFFFFFFFFFFFFFFFFFFFFFFFFFFFFFF AND PUSH20 0xFFFFFFFFFFFFFFFFFFFFFFFFFFFFFFFFFFFFFFFF AND DUP2 MSTORE PUSH1 0x20 ADD PUSH1 0x3 DUP3 ADD DUP1 SLOAD PUSH2 0x5E1 SWAP1 PUSH2 0x399C JUMP JUMPDEST DUP1 PUSH1 0x1F ADD PUSH1 0x20 DUP1 SWAP2 DIV MUL PUSH1 0x20 ADD PUSH1 0x40 MLOAD SWAP1 DUP2 ADD PUSH1 0x40 MSTORE DUP1 SWAP3 SWAP2 SWAP1 DUP2 DUP2 MSTORE PUSH1 0x20 ADD DUP3 DUP1 SLOAD PUSH2 0x60D SWAP1 PUSH2 0x399C JUMP JUMPDEST DUP1 ISZERO PUSH2 0x658 JUMPI DUP1 PUSH1 0x1F LT PUSH2 0x62F JUMPI PUSH2 0x100 DUP1 DUP4 SLOAD DIV MUL DUP4 MSTORE SWAP2 PUSH1 0x20 ADD SWAP2 PUSH2 0x658 JUMP JUMPDEST DUP3 ADD SWAP2 SWAP1 PUSH0 MSTORE PUSH1 0x20 PUSH0 KECCAK256 SWAP1 JUMPDEST DUP2 SLOAD DUP2 MSTORE SWAP1 PUSH1 0x1 ADD SWAP1 PUSH1 0x20 ADD DUP1 DUP4 GT PUSH2 0x63B JUMPI DUP3 SWAP1 SUB PUSH1 0x1F AND DUP3 ADD SWAP2 JUMPDEST POP POP POP POP POP DUP2 MSTORE PUSH1 0x20 ADD PUSH1 0x4 DUP3 ADD DUP1 SLOAD PUSH2 0x671 SWAP1 PUSH2 0x399C JUMP JUMPDEST DUP1 PUSH1 0x1F ADD PUSH1 0x20 DUP1 SWAP2 DIV MUL PUSH1 0x20 ADD PUSH1 0x40 MLOAD SWAP1 DUP2 ADD PUSH1 0x40 MSTORE DUP1 SWAP3 SWAP2 SWAP1 DUP2 DUP2 MSTORE PUSH1 0x20 ADD DUP3 DUP1 SLOAD PUSH2 0x69D SWAP1 PUSH2 0x399C JUMP JUMPDEST DUP1 ISZERO PUSH2 0x6E8 JUMPI DUP1 PUSH1 0x1F LT PUSH2 0x6BF JUMPI PUSH2 0x100 DUP1 DUP4 SLOAD DIV MUL DUP4 MSTORE SWAP2 PUSH1 0x20 ADD SWAP2 PUSH2 0x6E8 JUMP JUMPDEST DUP3 ADD SWAP2 SWAP1 PUSH0 MSTORE PUSH1 0x20 PUSH0 KECCAK256 SWAP1 JUMPDEST DUP2 SLOAD DUP2 MSTORE SWAP1 PUSH1 0x1 ADD SWAP1 PUSH1 0x20 ADD DUP1 DUP4 GT PUSH2 0x6CB JUMPI DUP3 SWAP1 SUB PUSH1 0x1F AND DUP3 ADD SWAP2 JUMPDEST POP POP POP POP POP DUP2 MSTORE PUSH1 0x20 ADD PUSH1 0x5 DUP3 ADD DUP1 SLOAD PUSH2 0x701 SWAP1 PUSH2 0x399C JUMP JUMPDEST DUP1 PUSH1 0x1F ADD PUSH1 0x20 DUP1 SWAP2 DIV MUL PUSH1 0x20 ADD PUSH1 0x40 MLOAD SWAP1 DUP2 ADD PUSH1 0x40 MSTORE DUP1 SWAP3 SWAP2 SWAP1 DUP2 DUP2 MSTORE PUSH1 0x20 ADD DUP3 DUP1 SLOAD PUSH2 0x72D SWAP1 PUSH2 0x399C JUMP JUMPDEST DUP1 ISZERO PUSH2 0x778 JUMPI DUP1 PUSH1 0x1F LT PUSH2 0x74F JUMPI PUSH2 0x100 DUP1 DUP4 SLOAD DIV MUL DUP4 MSTORE SWAP2 PUSH1 0x20 ADD SWAP2 PUSH2 0x778 JUMP JUMPDEST DUP3 ADD SWAP2 SWAP1 PUSH0 MSTORE PUSH1 0x20 PUSH0 KECCAK256 SWAP1 JUMPDEST DUP2 SLOAD DUP2 MSTORE SWAP1 PUSH1 0x1 ADD SWAP1 PUSH1 0x20 ADD DUP1 DUP4 GT PUSH2 0x75B JUMPI DUP3 SWAP1 SUB PUSH1 0x1F AND DUP3 ADD SWAP2 JUMPDEST POP POP POP POP POP DUP2 MSTORE PUSH1 0x20 ADD PUSH1 0x6 DUP3 ADD SLOAD DUP2 MSTORE PUSH1 0x20 ADD PUSH1 0x7 DUP3 ADD SLOAD DUP2 MSTORE PUSH1 0x20 ADD PUSH1 0x8 DUP3 ADD PUSH0 SWAP1 SLOAD SWAP1 PUSH2 0x100 EXP SWAP1 DIV PUSH1 0xFF AND PUSH1 0x6 DUP2 GT ISZERO PUSH2 0x7B9 JUMPI PUSH2 0x7B8 PUSH2 0x2B59 JUMP JUMPDEST JUMPDEST PUSH1 0x6 DUP2 GT ISZERO PUSH2 0x7CB JUMPI PUSH2 0x7CA PUSH2 0x2B59 JUMP JUMPDEST JUMPDEST DUP2 MSTORE PUSH1 0x20 ADD PUSH1 0x9 DUP3 ADD DUP1 SLOAD DUP1 PUSH1 0x20 MUL PUSH1 0x20 ADD PUSH1 0x40 MLOAD SWAP1 DUP2 ADD PUSH1 0x40 MSTORE DUP1 SWAP3 SWAP2 SWAP1 DUP2 DUP2 MSTORE PUSH1 0x20 ADD DUP3 DUP1 SLOAD DUP1 ISZERO PUSH2 0x81C JUMPI PUSH1 0x20 MUL DUP3 ADD SWAP2 SWAP1 PUSH0 MSTORE PUSH1 0x20 PUSH0 KECCAK256 SWAP1 JUMPDEST DUP2 SLOAD DUP2 MSTORE PUSH1 0x20 ADD SWAP1 PUSH1 0x1 ADD SWAP1 DUP1 DUP4 GT PUSH2 0x808 JUMPI JUMPDEST POP POP POP POP POP DUP2 MSTORE PUSH1 0x20 ADD PUSH1 0xA DUP3 ADD DUP1 SLOAD DUP1 PUSH1 0x20 MUL PUSH1 0x20 ADD PUSH1 0x40 MLOAD SWAP1 DUP2 ADD PUSH1 0x40 MSTORE DUP1 SWAP3 SWAP2 SWAP1 DUP2 DUP2 MSTORE PUSH1 0x20 ADD DUP3 DUP1 SLOAD DUP1 ISZERO PUSH2 0x872 JUMPI PUSH1 0x20 MUL DUP3 ADD SWAP2 SWAP1 PUSH0 MSTORE PUSH1 0x20 PUSH0 KECCAK256 SWAP1 JUMPDEST DUP2 SLOAD DUP2 MSTORE PUSH1 0x20 ADD SWAP1 PUSH1 0x1 ADD SWAP1 DUP1 DUP4 GT PUSH2 0x85E JUMPI JUMPDEST POP POP POP POP POP DUP2 MSTORE PUSH1 0x20 ADD PUSH1 0xB DUP3 ADD PUSH0 SWAP1 SLOAD SWAP1 PUSH2 0x100 EXP SWAP1 DIV PUSH1 0xFF AND ISZERO ISZERO ISZERO ISZERO DUP2 MSTORE POP POP SWAP1 POP SWAP2 SWAP1 POP JUMP JUMPDEST PUSH1 0x3 SLOAD DUP2 JUMP JUMPDEST PUSH1 0x2 SLOAD DUP2 JUMP JUMPDEST PUSH1 0x4 PUSH1 0x20 MSTORE DUP1 PUSH0 MSTORE PUSH1 0x40 PUSH0 KECCAK256 PUSH0 SWAP2 POP SWAP1 POP DUP1 PUSH0 ADD SLOAD SWAP1 DUP1 PUSH1 0x1 ADD PUSH0 SWAP1 SLOAD SWAP1 PUSH2 0x100 EXP SWAP1 DIV PUSH20 0xFFFFFFFFFFFFFFFFFFFFFFFFFFFFFFFFFFFFFFFF AND SWAP1 DUP1 PUSH1 0x2 ADD PUSH0 SWAP1 SLOAD SWAP1 PUSH2 0x100 EXP SWAP1 DIV PUSH20 0xFFFFFFFFFFFFFFFFFFFFFFFFFFFFFFFFFFFFFFFF AND SWAP1 DUP1 PUSH1 0x3 ADD DUP1 SLOAD PUSH2 0x917 SWAP1 PUSH2 0x399C JUMP JUMPDEST DUP1 PUSH1 0x1F ADD PUSH1 0x20 DUP1 SWAP2 DIV MUL PUSH1 0x20 ADD PUSH1 0x40 MLOAD SWAP1 DUP2 ADD PUSH1 0x40 MSTORE DUP1 SWAP3 SWAP2 SWAP1 DUP2 DUP2 MSTORE PUSH1 0x20 ADD DUP3 DUP1 SLOAD PUSH2 0x943 SWAP1 PUSH2 0x399C JUMP JUMPDEST DUP1 ISZERO PUSH2 0x98E JUMPI DUP1 PUSH1 0x1F LT PUSH2 0x965 JUMPI PUSH2 0x100 DUP1 DUP4 SLOAD DIV MUL DUP4 MSTORE SWAP2 PUSH1 0x20 ADD SWAP2 PUSH2 0x98E JUMP JUMPDEST DUP3 ADD SWAP2 SWAP1 PUSH0 MSTORE PUSH1 0x20 PUSH0 KECCAK256 SWAP1 JUMPDEST DUP2 SLOAD DUP2 MSTORE SWAP1 PUSH1 0x1 ADD SWAP1 PUSH1 0x20 ADD DUP1 DUP4 GT PUSH2 0x971 JUMPI DUP3 SWAP1 SUB PUSH1 0x1F AND DUP3 ADD SWAP2 JUMPDEST POP POP POP POP POP SWAP1 DUP1 PUSH1 0x4 ADD DUP1 SLOAD PUSH2 0x9A3 SWAP1 PUSH2 0x399C JUMP JUMPDEST DUP1 PUSH1 0x1F ADD PUSH1 0x20 DUP1 SWAP2 DIV MUL PUSH1 0x20 ADD PUSH1 0x40 MLOAD SWAP1 DUP2 ADD PUSH1 0x40 MSTORE DUP1 SWAP3 SWAP2 SWAP1 DUP2 DUP2 MSTORE PUSH1 0x20 ADD DUP3 DUP1 SLOAD PUSH2 0x9CF SWAP1 PUSH2 0x399C JUMP JUMPDEST DUP1 ISZERO PUSH2 0xA1A JUMPI DUP1 PUSH1 0x1F LT PUSH2 0x9F1 JUMPI PUSH2 0x100 DUP1 DUP4 SLOAD DIV MUL DUP4 MSTORE SWAP2 PUSH1 0x20 ADD SWAP2 PUSH2 0xA1A JUMP JUMPDEST DUP3 ADD SWAP2 SWAP1 PUSH0 MSTORE PUSH1 0x20 PUSH0 KECCAK256 SWAP1 JUMPDEST DUP2 SLOAD DUP2 MSTORE SWAP1 PUSH1 0x1 ADD SWAP1 PUSH1 0x20 ADD DUP1 DUP4 GT PUSH2 0x9FD JUMPI DUP3 SWAP1 SUB PUSH1 0x1F AND DUP3 ADD SWAP2 JUMPDEST POP POP POP POP POP SWAP1 DUP1 PUSH1 0x5 ADD DUP1 SLOAD PUSH2 0xA2F SWAP1 PUSH2 0x399C JUMP JUMPDEST DUP1 PUSH1 0x1F ADD PUSH1 0x20 DUP1 SWAP2 DIV MUL PUSH1 0x20 ADD PUSH1 0x40 MLOAD SWAP1 DUP2 ADD PUSH1 0x40 MSTORE DUP1 SWAP3 SWAP2 SWAP1 DUP2 DUP2 MSTORE PUSH1 0x20 ADD DUP3 DUP1 SLOAD PUSH2 0xA5B SWAP1 PUSH2 0x399C JUMP JUMPDEST DUP1 ISZERO PUSH2 0xAA6 JUMPI DUP1 PUSH1 0x1F LT PUSH2 0xA7D JUMPI PUSH2 0x100 DUP1 DUP4 SLOAD DIV MUL DUP4 MSTORE SWAP2 PUSH1 0x20 ADD SWAP2 PUSH2 0xAA6 JUMP JUMPDEST DUP3 ADD SWAP2 SWAP1 PUSH0 MSTORE PUSH1 0x20 PUSH0 KECCAK256 SWAP1 JUMPDEST DUP2 SLOAD DUP2 MSTORE SWAP1 PUSH1 0x1 ADD SWAP1 PUSH1 0x20 ADD DUP1 DUP4 GT PUSH2 0xA89 JUMPI DUP3 SWAP1 SUB PUSH1 0x1F AND DUP3 ADD SWAP2 JUMPDEST POP POP POP POP POP SWAP1 DUP1 PUSH1 0x6 ADD SLOAD SWAP1 DUP1 PUSH1 0x7 ADD SLOAD SWAP1 DUP1 PUSH1 0x8 ADD PUSH0 SWAP1 SLOAD SWAP1 PUSH2 0x100 EXP SWAP1 DIV PUSH1 0xFF AND SWAP1 DUP1 PUSH1 0xB ADD PUSH0 SWAP1 SLOAD SWAP1 PUSH2 0x100 EXP SWAP1 DIV PUSH1 0xFF AND SWAP1 POP DUP11 JUMP JUMPDEST PUSH0 PUSH1 0x7 PUSH0 CALLER PUSH20 0xFFFFFFFFFFFFFFFFFFFFFFFFFFFFFFFFFFFFFFFF AND PUSH20 0xFFFFFFFFFFFFFFFFFFFFFFFFFFFFFFFFFFFFFFFF AND DUP2 MSTORE PUSH1 0x20 ADD SWAP1 DUP2 MSTORE PUSH1 0x20 ADD PUSH0 KECCAK256 PUSH1 0x4 ADD PUSH0 SWAP1 SLOAD SWAP1 PUSH2 0x100 EXP SWAP1 DIV PUSH1 0xFF AND PUSH2 0xB6D JUMPI PUSH1 0x40 MLOAD PUSH32 0x8C379A000000000000000000000000000000000000000000000000000000000 DUP2 MSTORE PUSH1 0x4 ADD PUSH2 0xB64 SWAP1 PUSH2 0x3A16 JUMP JUMPDEST PUSH1 0x40 MLOAD DUP1 SWAP2 SUB SWAP1 REVERT JUMPDEST DUP6 PUSH0 DUP2 GT DUP1 ISZERO PUSH2 0xB7E JUMPI POP PUSH1 0x1 SLOAD DUP2 LT JUMPDEST PUSH2 0xBBD JUMPI PUSH1 0x40 MLOAD PUSH32 0x8C379A000000000000000000000000000000000000000000000000000000000 DUP2 MSTORE PUSH1 0x4 ADD PUSH2 0xBB4 SWAP1 PUSH2 0x3A7E JUMP JUMPDEST PUSH1 0x40 MLOAD DUP1 SWAP2 SUB SWAP1 REVERT JUMPDEST PUSH0 PUSH1 0x2 PUSH0 DUP2 SLOAD DUP1 SWAP3 SWAP2 SWAP1 PUSH2 0xBD0 SWAP1 PUSH2 0x3AC9 JUMP JUMPDEST SWAP2 SWAP1 POP SSTORE SWAP1 POP PUSH1 0x40 MLOAD DUP1 PUSH2 0x100 ADD PUSH1 0x40 MSTORE DUP1 DUP3 DUP2 MSTORE PUSH1 0x20 ADD DUP10 DUP2 MSTORE PUSH1 0x20 ADD CALLER PUSH20 0xFFFFFFFFFFFFFFFFFFFFFFFFFFFFFFFFFFFFFFFF AND DUP2 MSTORE PUSH1 0x20 ADD DUP9 DUP2 MSTORE PUSH1 0x20 ADD DUP8 DUP2 MSTORE PUSH1 0x20 ADD TIMESTAMP DUP2 MSTORE PUSH1 0x20 ADD DUP7 DUP2 MSTORE PUSH1 0x20 ADD DUP6 DUP2 MSTORE POP PUSH1 0x5 PUSH0 DUP4 DUP2 MSTORE PUSH1 0x20 ADD SWAP1 DUP2 MSTORE PUSH1 0x20 ADD PUSH0 KECCAK256 PUSH0 DUP3 ADD MLOAD DUP2 PUSH0 ADD SSTORE PUSH1 0x20 DUP3 ADD MLOAD DUP2 PUSH1 0x1 ADD SSTORE PUSH1 0x40 DUP3 ADD MLOAD DUP2 PUSH1 0x2 ADD PUSH0 PUSH2 0x100 EXP DUP2 SLOAD DUP2 PUSH20 0xFFFFFFFFFFFFFFFFFFFFFFFFFFFFFFFFFFFFFFFF MUL NOT AND SWAP1 DUP4 PUSH20 0xFFFFFFFFFFFFFFFFFFFFFFFFFFFFFFFFFFFFFFFF AND MUL OR SWAP1 SSTORE POP PUSH1 0x60 DUP3 ADD MLOAD DUP2 PUSH1 0x3 ADD SWAP1 DUP2 PUSH2 0xCA4 SWAP2 SWAP1 PUSH2 0x3CB0 JUMP JUMPDEST POP PUSH1 0x80 DUP3 ADD MLOAD DUP2 PUSH1 0x4 ADD SWAP1 DUP2 PUSH2 0xCBA SWAP2 SWAP1 PUSH2 0x3CB0 JUMP JUMPDEST POP PUSH1 0xA0 DUP3 ADD MLOAD DUP2 PUSH1 0x5 ADD SSTORE PUSH1 0xC0 DUP3 ADD MLOAD DUP2 PUSH1 0x6 ADD SWAP1 DUP2 PUSH2 0xCDA SWAP2 SWAP1 PUSH2 0x3CB0 JUMP JUMPDEST POP PUSH1 0xE0 DUP3 ADD MLOAD DUP2 PUSH1 0x7 ADD SSTORE SWAP1 POP POP PUSH1 0x4 PUSH0 DUP10 DUP2 MSTORE PUSH1 0x20 ADD SWAP1 DUP2 MSTORE PUSH1 0x20 ADD PUSH0 KECCAK256 PUSH1 0x9 ADD DUP2 SWAP1 DUP1 PUSH1 0x1 DUP2 SLOAD ADD DUP1 DUP3 SSTORE DUP1 SWAP2 POP POP PUSH1 0x1 SWAP1 SUB SWAP1 PUSH0 MSTORE PUSH1 0x20 PUSH0 KECCAK256 ADD PUSH0 SWAP1 SWAP2 SWAP1 SWAP2 SWAP1 SWAP2 POP SSTORE PUSH1 0x4 PUSH0 DUP10 DUP2 MSTORE PUSH1 0x20 ADD SWAP1 DUP2 MSTORE PUSH1 0x20 ADD PUSH0 KECCAK256 PUSH1 0xB ADD PUSH0 SWAP1 SLOAD SWAP1 PUSH2 0x100 EXP SWAP1 DIV PUSH1 0xFF AND DUP1 ISZERO PUSH2 0xD58 JUMPI POP PUSH1 0x50 DUP5 SGT DUP1 PUSH2 0xD57 JUMPI POP PUSH1 0x14 DUP5 SLT JUMPDEST JUMPDEST ISZERO PUSH2 0xDA0 JUMPI PUSH2 0xD9E DUP9 PUSH1 0x3 PUSH1 0x40 MLOAD DUP1 PUSH1 0x40 ADD PUSH1 0x40 MSTORE DUP1 PUSH1 0x18 DUP2 MSTORE PUSH1 0x20 ADD PUSH32 0x54656D7065726174757265206F7574206F662072616E67650000000000000000 DUP2 MSTORE POP PUSH2 0x218C JUMP JUMPDEST POP JUMPDEST DUP8 DUP2 PUSH32 0x866DE744A1D30941B1BCCB4355CFB9DACFA65296F3AB651A0D4DCE76BF988A71 DUP10 CALLER PUSH1 0x40 MLOAD PUSH2 0xDD3 SWAP3 SWAP2 SWAP1 PUSH2 0x3D7F JUMP JUMPDEST PUSH1 0x40 MLOAD DUP1 SWAP2 SUB SWAP1 LOG3 DUP1 SWAP3 POP POP POP SWAP6 SWAP5 POP POP POP POP POP JUMP JUMPDEST PUSH2 0xDF1 PUSH2 0x2980 JUMP JUMPDEST PUSH1 0x7 PUSH0 DUP4 PUSH20 0xFFFFFFFFFFFFFFFFFFFFFFFFFFFFFFFFFFFFFFFF AND PUSH20 0xFFFFFFFFFFFFFFFFFFFFFFFFFFFFFFFFFFFFFFFF AND DUP2 MSTORE PUSH1 0x20 ADD SWAP1 DUP2 MSTORE PUSH1 0x20 ADD PUSH0 KECCAK256 PUSH1 0x40 MLOAD DUP1 PUSH1 0xA0 ADD PUSH1 0x40 MSTORE SWAP1 DUP2 PUSH0 DUP3 ADD PUSH0 SWAP1 SLOAD SWAP1 PUSH2 0x100 EXP SWAP1 DIV PUSH20 0xFFFFFFFFFFFFFFFFFFFFFFFFFFFFFFFFFFFFFFFF AND PUSH20 0xFFFFFFFFFFFFFFFFFFFFFFFFFFFFFFFFFFFFFFFF AND PUSH20 0xFFFFFFFFFFFFFFFFFFFFFFFFFFFFFFFFFFFFFFFF AND DUP2 MSTORE PUSH1 0x20 ADD PUSH1 0x1 DUP3 ADD DUP1 SLOAD PUSH2 0xE9D SWAP1 PUSH2 0x399C JUMP JUMPDEST DUP1 PUSH1 0x1F ADD PUSH1 0x20 DUP1 SWAP2 DIV MUL PUSH1 0x20 ADD PUSH1 0x40 MLOAD SWAP1 DUP2 ADD PUSH1 0x40 MSTORE DUP1 SWAP3 SWAP2 SWAP1 DUP2 DUP2 MSTORE PUSH1 0x20 ADD DUP3 DUP1 SLOAD PUSH2 0xEC9 SWAP1 PUSH2 0x399C JUMP JUMPDEST DUP1 ISZERO PUSH2 0xF14 JUMPI DUP1 PUSH1 0x1F LT PUSH2 0xEEB JUMPI PUSH2 0x100 DUP1 DUP4 SLOAD DIV MUL DUP4 MSTORE SWAP2 PUSH1 0x20 ADD SWAP2 PUSH2 0xF14 JUMP JUMPDEST DUP3 ADD SWAP2 SWAP1 PUSH0 MSTORE PUSH1 0x20 PUSH0 KECCAK256 SWAP1 JUMPDEST DUP2 SLOAD DUP2 MSTORE SWAP1 PUSH1 0x1 ADD SWAP1 PUSH1 0x20 ADD DUP1 DUP4 GT PUSH2 0xEF7 JUMPI DUP3 SWAP1 SUB PUSH1 0x1F AND DUP3 ADD SWAP2 JUMPDEST POP POP POP POP POP DUP2 MSTORE PUSH1 0x20 ADD PUSH1 0x2 DUP3 ADD PUSH0 SWAP1 SLOAD SWAP1 PUSH2 0x100 EXP SWAP1 DIV PUSH1 0xFF AND PUSH1 0x5 DUP2 GT ISZERO PUSH2 0xF41 JUMPI PUSH2 0xF40 PUSH2 0x2B59 JUMP JUMPDEST JUMPDEST PUSH1 0x5 DUP2 GT ISZERO PUSH2 0xF53 JUMPI PUSH2 0xF52 PUSH2 0x2B59 JUMP JUMPDEST JUMPDEST DUP2 MSTORE PUSH1 0x20 ADD PUSH1 0x3 DUP3 ADD DUP1 SLOAD PUSH2 0xF67 SWAP1 PUSH2 0x399C JUMP JUMPDEST DUP1 PUSH1 0x1F ADD PUSH1 0x20 DUP1 SWAP2 DIV MUL PUSH1 0x20 ADD PUSH1 0x40 MLOAD SWAP1 DUP2 ADD PUSH1 0x40 MSTORE DUP1 SWAP3 SWAP2 SWAP1 DUP2 DUP2 MSTORE PUSH1 0x20 ADD DUP3 DUP1 SLOAD PUSH2 0xF93 SWAP1 PUSH2 0x399C JUMP JUMPDEST DUP1 ISZERO PUSH2 0xFDE JUMPI DUP1 PUSH1 0x1F LT PUSH2 0xFB5 JUMPI PUSH2 0x100 DUP1 DUP4 SLOAD DIV MUL DUP4 MSTORE SWAP2 PUSH1 0x20 ADD SWAP2 PUSH2 0xFDE JUMP JUMPDEST DUP3 ADD SWAP2 SWAP1 PUSH0 MSTORE PUSH1 0x20 PUSH0 KECCAK256 SWAP1 JUMPDEST DUP2 SLOAD DUP2 MSTORE SWAP1 PUSH1 0x1 ADD SWAP1 PUSH1 0x20 ADD DUP1 DUP4 GT PUSH2 0xFC1 JUMPI DUP3 SWAP1 SUB PUSH1 0x1F AND DUP3 ADD SWAP2 JUMPDEST POP POP POP POP POP DUP2 MSTORE PUSH1 0x20 ADD PUSH1 0x4 DUP3 ADD PUSH0 SWAP1 SLOAD SWAP1 PUSH2 0x100 EXP SWAP1 DIV PUSH1 0xFF AND ISZERO ISZERO ISZERO ISZERO DUP2 MSTORE POP POP SWAP1 POP SWAP2 SWAP1 POP JUMP JUMPDEST PUSH0 PUSH1 0x7 PUSH0 CALLER PUSH20 0xFFFFFFFFFFFFFFFFFFFFFFFFFFFFFFFFFFFFFFFF AND PUSH20 0xFFFFFFFFFFFFFFFFFFFFFFFFFFFFFFFFFFFFFFFF AND DUP2 MSTORE PUSH1 0x20 ADD SWAP1 DUP2 MSTORE PUSH1 0x20 ADD PUSH0 KECCAK256 PUSH1 0x4 ADD PUSH0 SWAP1 SLOAD SWAP1 PUSH2 0x100 EXP SWAP1 DIV PUSH1 0xFF AND PUSH2 0x1095 JUMPI PUSH1 0x40 MLOAD PUSH32 0x8C379A000000000000000000000000000000000000000000000000000000000 DUP2 MSTORE PUSH1 0x4 ADD PUSH2 0x108C SWAP1 PUSH2 0x3A16 JUMP JUMPDEST PUSH1 0x40 MLOAD DUP1 SWAP2 SUB SWAP1 REVERT JUMPDEST PUSH1 0x1 PUSH1 0x5 DUP2 GT ISZERO PUSH2 0x10A9 JUMPI PUSH2 0x10A8 PUSH2 0x2B59 JUMP JUMPDEST JUMPDEST PUSH1 0x7 PUSH0 CALLER PUSH20 0xFFFFFFFFFFFFFFFFFFFFFFFFFFFFFFFFFFFFFFFF AND PUSH20 0xFFFFFFFFFFFFFFFFFFFFFFFFFFFFFFFFFFFFFFFF AND DUP2 MSTORE PUSH1 0x20 ADD SWAP1 DUP2 MSTORE PUSH1 0x20 ADD PUSH0 KECCAK256 PUSH1 0x2 ADD PUSH0 SWAP1 SLOAD SWAP1 PUSH2 0x100 EXP SWAP1 DIV PUSH1 0xFF AND PUSH1 0x5 DUP2 GT ISZERO PUSH2 0x1108 JUMPI PUSH2 0x1107 PUSH2 0x2B59 JUMP JUMPDEST JUMPDEST EQ PUSH2 0x1148 JUMPI PUSH1 0x40 MLOAD PUSH32 0x8C379A000000000000000000000000000000000000000000000000000000000 DUP2 MSTORE PUSH1 0x4 ADD PUSH2 0x113F SWAP1 PUSH2 0x3DF7 JUMP JUMPDEST PUSH1 0x40 MLOAD DUP1 SWAP2 SUB SWAP1 REVERT JUMPDEST PUSH0 PUSH1 0x1 PUSH0 DUP2 SLOAD DUP1 SWAP3 SWAP2 SWAP1 PUSH2 0x115B SWAP1 PUSH2 0x3AC9 JUMP JUMPDEST SWAP2 SWAP1 POP SSTORE SWAP1 POP PUSH0 PUSH1 0x4 PUSH0 DUP4 DUP2 MSTORE PUSH1 0x20 ADD SWAP1 DUP2 MSTORE PUSH1 0x20 ADD PUSH0 KECCAK256 SWAP1 POP DUP2 DUP2 PUSH0 ADD DUP2 SWAP1 SSTORE POP CALLER DUP2 PUSH1 0x1 ADD PUSH0 PUSH2 0x100 EXP DUP2 SLOAD DUP2 PUSH20 0xFFFFFFFFFFFFFFFFFFFFFFFFFFFFFFFFFFFFFFFF MUL NOT AND SWAP1 DUP4 PUSH20 0xFFFFFFFFFFFFFFFFFFFFFFFFFFFFFFFFFFFFFFFF AND MUL OR SWAP1 SSTORE POP DUP8 DUP2 PUSH1 0x2 ADD PUSH0 PUSH2 0x100 EXP DUP2 SLOAD DUP2 PUSH20 0xFFFFFFFFFFFFFFFFFFFFFFFFFFFFFFFFFFFFFFFF MUL NOT AND SWAP1 DUP4 PUSH20 0xFFFFFFFFFFFFFFFFFFFFFFFFFFFFFFFFFFFFFFFF AND MUL OR SWAP1 SSTORE POP DUP7 DUP2 PUSH1 0x3 ADD SWAP1 DUP2 PUSH2 0x1212 SWAP2 SWAP1 PUSH2 0x3CB0 JUMP JUMPDEST POP DUP6 DUP2 PUSH1 0x4 ADD SWAP1 DUP2 PUSH2 0x1224 SWAP2 SWAP1 PUSH2 0x3CB0 JUMP JUMPDEST POP DUP5 DUP2 PUSH1 0x5 ADD SWAP1 DUP2 PUSH2 0x1236 SWAP2 SWAP1 PUSH2 0x3CB0 JUMP JUMPDEST POP TIMESTAMP DUP2 PUSH1 0x6 ADD DUP2 SWAP1 SSTORE POP PUSH0 DUP2 PUSH1 0x8 ADD PUSH0 PUSH2 0x100 EXP DUP2 SLOAD DUP2 PUSH1 0xFF MUL NOT AND SWAP1 DUP4 PUSH1 0x6 DUP2 GT ISZERO PUSH2 0x1266 JUMPI PUSH2 0x1265 PUSH2 0x2B59 JUMP JUMPDEST JUMPDEST MUL OR SWAP1 SSTORE POP DUP4 DUP2 PUSH1 0xB ADD PUSH0 PUSH2 0x100 EXP DUP2 SLOAD DUP2 PUSH1 0xFF MUL NOT AND SWAP1 DUP4 ISZERO ISZERO MUL OR SWAP1 SSTORE POP PUSH1 0x8 PUSH0 CALLER PUSH20 0xFFFFFFFFFFFFFFFFFFFFFFFFFFFFFFFFFFFFFFFF AND PUSH20 0xFFFFFFFFFFFFFFFFFFFFFFFFFFFFFFFFFFFFFFFF AND DUP2 MSTORE PUSH1 0x20 ADD SWAP1 DUP2 MSTORE PUSH1 0x20 ADD PUSH0 KECCAK256 DUP3 SWAP1 DUP1 PUSH1 0x1 DUP2 SLOAD ADD DUP1 DUP3 SSTORE DUP1 SWAP2 POP POP PUSH1 0x1 SWAP1 SUB SWAP1 PUSH0 MSTORE PUSH1 0x20 PUSH0 KECCAK256 ADD PUSH0 SWAP1 SWAP2 SWAP1 SWAP2 SWAP1 SWAP2 POP SSTORE DUP8 PUSH20 0xFFFFFFFFFFFFFFFFFFFFFFFFFFFFFFFFFFFFFFFF AND CALLER PUSH20 0xFFFFFFFFFFFFFFFFFFFFFFFFFFFFFFFFFFFFFFFF AND DUP4 PUSH32 0x8FB6B855D6CBDF201F2FCAADBF8C38D36168FF7D2CA865CB2599ABCD5A060E8F DUP11 PUSH1 0x40 MLOAD PUSH2 0x1345 SWAP2 SWAP1 PUSH2 0x3E15 JUMP JUMPDEST PUSH1 0x40 MLOAD DUP1 SWAP2 SUB SWAP1 LOG4 DUP2 SWAP3 POP POP POP SWAP6 SWAP5 POP POP POP POP POP JUMP JUMPDEST PUSH0 PUSH0 SWAP1 SLOAD SWAP1 PUSH2 0x100 EXP SWAP1 DIV PUSH20 0xFFFFFFFFFFFFFFFFFFFFFFFFFFFFFFFFFFFFFFFF AND PUSH20 0xFFFFFFFFFFFFFFFFFFFFFFFFFFFFFFFFFFFFFFFF AND CALLER PUSH20 0xFFFFFFFFFFFFFFFFFFFFFFFFFFFFFFFFFFFFFFFF AND EQ PUSH2 0x13E9 JUMPI PUSH1 0x40 MLOAD PUSH32 0x8C379A000000000000000000000000000000000000000000000000000000000 DUP2 MSTORE PUSH1 0x4 ADD PUSH2 0x13E0 SWAP1 PUSH2 0x3E7F JUMP JUMPDEST PUSH1 0x40 MLOAD DUP1 SWAP2 SUB SWAP1 REVERT JUMPDEST PUSH1 0x1 PUSH1 0x6 PUSH0 DUP4 DUP2 MSTORE PUSH1 0x20 ADD SWAP1 DUP2 MSTORE PUSH1 0x20 ADD PUSH0 KECCAK256 PUSH1 0x5 ADD PUSH0 PUSH2 0x100 EXP DUP2 SLOAD DUP2 PUSH1 0xFF MUL NOT AND SWAP1 DUP4 ISZERO ISZERO MUL OR SWAP1 SSTORE POP DUP1 PUSH32 0xF83AE0ADE2D9004BC0030405BDD3336F9D9B97530BCF44CCE99CE02C95641B77 PUSH1 0x40 MLOAD PUSH1 0x40 MLOAD DUP1 SWAP2 SUB SWAP1 LOG2 POP JUMP JUMPDEST PUSH1 0x60 PUSH0 PUSH1 0x4 PUSH0 DUP5 DUP2 MSTORE PUSH1 0x20 ADD SWAP1 DUP2 MSTORE PUSH1 0x20 ADD PUSH0 KECCAK256 PUSH1 0x9 ADD DUP1 SLOAD DUP1 PUSH1 0x20 MUL PUSH1 0x20 ADD PUSH1 0x40 MLOAD SWAP1 DUP2 ADD PUSH1 0x40 MSTORE DUP1 SWAP3 SWAP2 SWAP1 DUP2 DUP2 MSTORE PUSH1 0x20 ADD DUP3 DUP1 SLOAD DUP1 ISZERO PUSH2 0x14A4 JUMPI PUSH1 0x20 MUL DUP3 ADD SWAP2 SWAP1 PUSH0 MSTORE PUSH1 0x20 PUSH0 KECCAK256 SWAP1 JUMPDEST DUP2 SLOAD DUP2 MSTORE PUSH1 0x20 ADD SWAP1 PUSH1 0x1 ADD SWAP1 DUP1 DUP4 GT PUSH2 0x1490 JUMPI JUMPDEST POP POP POP POP POP SWAP1 POP PUSH0 DUP2 MLOAD PUSH8 0xFFFFFFFFFFFFFFFF DUP2 GT ISZERO PUSH2 0x14C7 JUMPI PUSH2 0x14C6 PUSH2 0x2F1F JUMP JUMPDEST JUMPDEST PUSH1 0x40 MLOAD SWAP1 DUP1 DUP3 MSTORE DUP1 PUSH1 0x20 MUL PUSH1 0x20 ADD DUP3 ADD PUSH1 0x40 MSTORE DUP1 ISZERO PUSH2 0x1500 JUMPI DUP2 PUSH1 0x20 ADD JUMPDEST PUSH2 0x14ED PUSH2 0x29D6 JUMP JUMPDEST DUP2 MSTORE PUSH1 0x20 ADD SWAP1 PUSH1 0x1 SWAP1 SUB SWAP1 DUP2 PUSH2 0x14E5 JUMPI SWAP1 POP JUMPDEST POP SWAP1 POP PUSH0 PUSH0 SWAP1 POP JUMPDEST DUP3 MLOAD DUP2 LT ISZERO PUSH2 0x179F JUMPI PUSH1 0x5 PUSH0 DUP5 DUP4 DUP2 MLOAD DUP2 LT PUSH2 0x1527 JUMPI PUSH2 0x1526 PUSH2 0x3E9D JUMP JUMPDEST JUMPDEST PUSH1 0x20 MUL PUSH1 0x20 ADD ADD MLOAD DUP2 MSTORE PUSH1 0x20 ADD SWAP1 DUP2 MSTORE PUSH1 0x20 ADD PUSH0 KECCAK256 PUSH1 0x40 MLOAD DUP1 PUSH2 0x100 ADD PUSH1 0x40 MSTORE SWAP1 DUP2 PUSH0 DUP3 ADD SLOAD DUP2 MSTORE PUSH1 0x20 ADD PUSH1 0x1 DUP3 ADD SLOAD DUP2 MSTORE PUSH1 0x20 ADD PUSH1 0x2 DUP3 ADD PUSH0 SWAP1 SLOAD SWAP1 PUSH2 0x100 EXP SWAP1 DIV PUSH20 0xFFFFFFFFFFFFFFFFFFFFFFFFFFFFFFFFFFFFFFFF AND PUSH20 0xFFFFFFFFFFFFFFFFFFFFFFFFFFFFFFFFFFFFFFFF AND PUSH20 0xFFFFFFFFFFFFFFFFFFFFFFFFFFFFFFFFFFFFFFFF AND DUP2 MSTORE PUSH1 0x20 ADD PUSH1 0x3 DUP3 ADD DUP1 SLOAD PUSH2 0x15C0 SWAP1 PUSH2 0x399C JUMP JUMPDEST DUP1 PUSH1 0x1F ADD PUSH1 0x20 DUP1 SWAP2 DIV MUL PUSH1 0x20 ADD PUSH1 0x40 MLOAD SWAP1 DUP2 ADD PUSH1 0x40 MSTORE DUP1 SWAP3 SWAP2 SWAP1 DUP2 DUP2 MSTORE PUSH1 0x20 ADD DUP3 DUP1 SLOAD PUSH2 0x15EC SWAP1 PUSH2 0x399C JUMP JUMPDEST DUP1 ISZERO PUSH2 0x1637 JUMPI DUP1 PUSH1 0x1F LT PUSH2 0x160E JUMPI PUSH2 0x100 DUP1 DUP4 SLOAD DIV MUL DUP4 MSTORE SWAP2 PUSH1 0x20 ADD SWAP2 PUSH2 0x1637 JUMP JUMPDEST DUP3 ADD SWAP2 SWAP1 PUSH0 MSTORE PUSH1 0x20 PUSH0 KECCAK256 SWAP1 JUMPDEST DUP2 SLOAD DUP2 MSTORE SWAP1 PUSH1 0x1 ADD SWAP1 PUSH1 0x20 ADD DUP1 DUP4 GT PUSH2 0x161A JUMPI DUP3 SWAP1 SUB PUSH1 0x1F AND DUP3 ADD SWAP2 JUMPDEST POP POP POP POP POP DUP2 MSTORE PUSH1 0x20 ADD PUSH1 0x4 DUP3 ADD DUP1 SLOAD PUSH2 0x1650 SWAP1 PUSH2 0x399C JUMP JUMPDEST DUP1 PUSH1 0x1F ADD PUSH1 0x20 DUP1 SWAP2 DIV MUL PUSH1 0x20 ADD PUSH1 0x40 MLOAD SWAP1 DUP2 ADD PUSH1 0x40 MSTORE DUP1 SWAP3 SWAP2 SWAP1 DUP2 DUP2 MSTORE PUSH1 0x20 ADD DUP3 DUP1 SLOAD PUSH2 0x167C SWAP1 PUSH2 0x399C JUMP JUMPDEST DUP1 ISZERO PUSH2 0x16C7 JUMPI DUP1 PUSH1 0x1F LT PUSH2 0x169E JUMPI PUSH2 0x100 DUP1 DUP4 SLOAD DIV MUL DUP4 MSTORE SWAP2 PUSH1 0x20 ADD SWAP2 PUSH2 0x16C7 JUMP JUMPDEST DUP3 ADD SWAP2 SWAP1 PUSH0 MSTORE PUSH1 0x20 PUSH0 KECCAK256 SWAP1 JUMPDEST DUP2 SLOAD DUP2 MSTORE SWAP1 PUSH1 0x1 ADD SWAP1 PUSH1 0x20 ADD DUP1 DUP4 GT PUSH2 0x16AA JUMPI DUP3 SWAP1 SUB PUSH1 0x1F AND DUP3 ADD SWAP2 JUMPDEST POP POP POP POP POP DUP2 MSTORE PUSH1 0x20 ADD PUSH1 0x5 DUP3 ADD SLOAD DUP2 MSTORE PUSH1 0x20 ADD PUSH1 0x6 DUP3 ADD DUP1 SLOAD PUSH2 0x16EA SWAP1 PUSH2 0x399C JUMP JUMPDEST DUP1 PUSH1 0x1F ADD PUSH1 0x20 DUP1 SWAP2 DIV MUL PUSH1 0x20 ADD PUSH1 0x40 MLOAD SWAP1 DUP2 ADD PUSH1 0x40 MSTORE DUP1 SWAP3 SWAP2 SWAP1 DUP2 DUP2 MSTORE PUSH1 0x20 ADD DUP3 DUP1 SLOAD PUSH2 0x1716 SWAP1 PUSH2 0x399C JUMP JUMPDEST DUP1 ISZERO PUSH2 0x1761 JUMPI DUP1 PUSH1 0x1F LT PUSH2 0x1738 JUMPI PUSH2 0x100 DUP1 DUP4 SLOAD DIV MUL DUP4 MSTORE SWAP2 PUSH1 0x20 ADD SWAP2 PUSH2 0x1761 JUMP JUMPDEST DUP3 ADD SWAP2 SWAP1 PUSH0 MSTORE PUSH1 0x20 PUSH0 KECCAK256 SWAP1 JUMPDEST DUP2 SLOAD DUP2 MSTORE SWAP1 PUSH1 0x1 ADD SWAP1 PUSH1 0x20 ADD DUP1 DUP4 GT PUSH2 0x1744 JUMPI DUP3 SWAP1 SUB PUSH1 0x1F AND DUP3 ADD SWAP2 JUMPDEST POP POP POP POP POP DUP2 MSTORE PUSH1 0x20 ADD PUSH1 0x7 DUP3 ADD SLOAD DUP2 MSTORE POP POP DUP3 DUP3 DUP2 MLOAD DUP2 LT PUSH2 0x1787 JUMPI PUSH2 0x1786 PUSH2 0x3E9D JUMP JUMPDEST JUMPDEST PUSH1 0x20 MUL PUSH1 0x20 ADD ADD DUP2 SWAP1 MSTORE POP DUP1 DUP1 PUSH1 0x1 ADD SWAP2 POP POP PUSH2 0x1508 JUMP JUMPDEST POP DUP1 SWAP3 POP POP POP SWAP2 SWAP1 POP JUMP JUMPDEST PUSH1 0x60 PUSH1 0x8 PUSH0 DUP4 PUSH20 0xFFFFFFFFFFFFFFFFFFFFFFFFFFFFFFFFFFFFFFFF AND PUSH20 0xFFFFFFFFFFFFFFFFFFFFFFFFFFFFFFFFFFFFFFFF AND DUP2 MSTORE PUSH1 0x20 ADD SWAP1 DUP2 MSTORE PUSH1 0x20 ADD PUSH0 KECCAK256 DUP1 SLOAD DUP1 PUSH1 0x20 MUL PUSH1 0x20 ADD PUSH1 0x40 MLOAD SWAP1 DUP2 ADD PUSH1 0x40 MSTORE DUP1 SWAP3 SWAP2 SWAP1 DUP2 DUP2 MSTORE PUSH1 0x20 ADD DUP3 DUP1 SLOAD DUP1 ISZERO PUSH2 0x1831 JUMPI PUSH1 0x20 MUL DUP3 ADD SWAP2 SWAP1 PUSH0 MSTORE PUSH1 0x20 PUSH0 KECCAK256 SWAP1 JUMPDEST DUP2 SLOAD DUP2 MSTORE PUSH1 0x20 ADD SWAP1 PUSH1 0x1 ADD SWAP1 DUP1 DUP4 GT PUSH2 0x181D JUMPI JUMPDEST POP POP POP POP POP SWAP1 POP SWAP2 SWAP1 POP JUMP JUMPDEST PUSH1 0x7 PUSH0 CALLER PUSH20 0xFFFFFFFFFFFFFFFFFFFFFFFFFFFFFFFFFFFFFFFF AND PUSH20 0xFFFFFFFFFFFFFFFFFFFFFFFFFFFFFFFFFFFFFFFF AND DUP2 MSTORE PUSH1 0x20 ADD SWAP1 DUP2 MSTORE PUSH1 0x20 ADD PUSH0 KECCAK256 PUSH1 0x4 ADD PUSH0 SWAP1 SLOAD SWAP1 PUSH2 0x100 EXP SWAP1 DIV PUSH1 0xFF AND PUSH2 0x18C9 JUMPI PUSH1 0x40 MLOAD PUSH32 0x8C379A000000000000000000000000000000000000000000000000000000000 DUP2 MSTORE PUSH1 0x4 ADD PUSH2 0x18C0 SWAP1 PUSH2 0x3A16 JUMP JUMPDEST PUSH1 0x40 MLOAD DUP1 SWAP2 SUB SWAP1 REVERT JUMPDEST DUP2 PUSH0 DUP2 GT DUP1 ISZERO PUSH2 0x18DA JUMPI POP PUSH1 0x1 SLOAD DUP2 LT JUMPDEST PUSH2 0x1919 JUMPI PUSH1 0x40 MLOAD PUSH32 0x8C379A000000000000000000000000000000000000000000000000000000000 DUP2 MSTORE PUSH1 0x4 ADD PUSH2 0x1910 SWAP1 PUSH2 0x3A7E JUMP JUMPDEST PUSH1 0x40 MLOAD DUP1 SWAP2 SUB SWAP1 REVERT JUMPDEST DUP2 PUSH1 0x4 PUSH0 DUP6 DUP2 MSTORE PUSH1 0x20 ADD SWAP1 DUP2 MSTORE PUSH1 0x20 ADD PUSH0 KECCAK256 PUSH1 0x8 ADD PUSH0 PUSH2 0x100 EXP DUP2 SLOAD DUP2 PUSH1 0xFF MUL NOT AND SWAP1 DUP4 PUSH1 0x6 DUP2 GT ISZERO PUSH2 0x194F JUMPI PUSH2 0x194E PUSH2 0x2B59 JUMP JUMPDEST JUMPDEST MUL OR SWAP1 SSTORE POP DUP3 PUSH32 0x7C1C93F72F29B8A1FC6FC85EED990D133B1FFAC80C962B521ABB12F38F2FF9AF DUP4 PUSH1 0x40 MLOAD PUSH2 0x1984 SWAP2 SWAP1 PUSH2 0x3ECA JUMP JUMPDEST PUSH1 0x40 MLOAD DUP1 SWAP2 SUB SWAP1 LOG2 POP POP POP JUMP JUMPDEST DUP1 PUSH0 DUP2 GT DUP1 ISZERO PUSH2 0x19A2 JUMPI POP PUSH1 0x1 SLOAD DUP2 LT JUMPDEST PUSH2 0x19E1 JUMPI PUSH1 0x40 MLOAD PUSH32 0x8C379A000000000000000000000000000000000000000000000000000000000 DUP2 MSTORE PUSH1 0x4 ADD PUSH2 0x19D8 SWAP1 PUSH2 0x3A7E JUMP JUMPDEST PUSH1 0x40 MLOAD DUP1 SWAP2 SUB SWAP1 REVERT JUMPDEST PUSH1 0x4 PUSH0 DUP4 DUP2 MSTORE PUSH1 0x20 ADD SWAP1 DUP2 MSTORE PUSH1 0x20 ADD PUSH0 KECCAK256 PUSH1 0x1 ADD PUSH0 SWAP1 SLOAD SWAP1 PUSH2 0x100 EXP SWAP1 DIV PUSH20 0xFFFFFFFFFFFFFFFFFFFFFFFFFFFFFFFFFFFFFFFF AND PUSH20 0xFFFFFFFFFFFFFFFFFFFFFFFFFFFFFFFFFFFFFFFF AND CALLER PUSH20 0xFFFFFFFFFFFFFFFFFFFFFFFFFFFFFFFFFFFFFFFF AND EQ PUSH2 0x1A82 JUMPI PUSH1 0x40 MLOAD PUSH32 0x8C379A000000000000000000000000000000000000000000000000000000000 DUP2 MSTORE PUSH1 0x4 ADD PUSH2 0x1A79 SWAP1 PUSH2 0x3F2D JUMP JUMPDEST PUSH1 0x40 MLOAD DUP1 SWAP2 SUB SWAP1 REVERT JUMPDEST PUSH0 PUSH1 0x6 DUP2 GT ISZERO PUSH2 0x1A95 JUMPI PUSH2 0x1A94 PUSH2 0x2B59 JUMP JUMPDEST JUMPDEST PUSH1 0x4 PUSH0 DUP5 DUP2 MSTORE PUSH1 0x20 ADD SWAP1 DUP2 MSTORE PUSH1 0x20 ADD PUSH0 KECCAK256 PUSH1 0x8 ADD PUSH0 SWAP1 SLOAD SWAP1 PUSH2 0x100 EXP SWAP1 DIV PUSH1 0xFF AND PUSH1 0x6 DUP2 GT ISZERO PUSH2 0x1AC8 JUMPI PUSH2 0x1AC7 PUSH2 0x2B59 JUMP JUMPDEST JUMPDEST EQ PUSH2 0x1B08 JUMPI PUSH1 0x40 MLOAD PUSH32 0x8C379A000000000000000000000000000000000000000000000000000000000 DUP2 MSTORE PUSH1 0x4 ADD PUSH2 0x1AFF SWAP1 PUSH2 0x3F95 JUMP JUMPDEST PUSH1 0x40 MLOAD DUP1 SWAP2 SUB SWAP1 REVERT JUMPDEST PUSH1 0x6 PUSH1 0x4 PUSH0 DUP5 DUP2 MSTORE PUSH1 0x20 ADD SWAP1 DUP2 MSTORE PUSH1 0x20 ADD PUSH0 KECCAK256 PUSH1 0x8 ADD PUSH0 PUSH2 0x100 EXP DUP2 SLOAD DUP2 PUSH1 0xFF MUL NOT AND SWAP1 DUP4 PUSH1 0x6 DUP2 GT ISZERO PUSH2 0x1B3F JUMPI PUSH2 0x1B3E PUSH2 0x2B59 JUMP JUMPDEST JUMPDEST MUL OR SWAP1 SSTORE POP DUP2 PUSH32 0x7C1C93F72F29B8A1FC6FC85EED990D133B1FFAC80C962B521ABB12F38F2FF9AF PUSH1 0x6 PUSH1 0x40 MLOAD PUSH2 0x1B75 SWAP2 SWAP1 PUSH2 0x3ECA JUMP JUMPDEST PUSH1 0x40 MLOAD DUP1 SWAP2 SUB SWAP1 LOG2 POP POP JUMP JUMPDEST PUSH1 0x8 PUSH1 0x20 MSTORE DUP2 PUSH0 MSTORE PUSH1 0x40 PUSH0 KECCAK256 DUP2 DUP2 SLOAD DUP2 LT PUSH2 0x1B9A JUMPI PUSH0 DUP1 REVERT JUMPDEST SWAP1 PUSH0 MSTORE PUSH1 0x20 PUSH0 KECCAK256 ADD PUSH0 SWAP2 POP SWAP2 POP POP SLOAD DUP2 JUMP JUMPDEST PUSH1 0x6 PUSH1 0x20 MSTORE DUP1 PUSH0 MSTORE PUSH1 0x40 PUSH0 KECCAK256 PUSH0 SWAP2 POP SWAP1 POP DUP1 PUSH0 ADD SLOAD SWAP1 DUP1 PUSH1 0x1 ADD SLOAD SWAP1 DUP1 PUSH1 0x2 ADD PUSH0 SWAP1 SLOAD SWAP1 PUSH2 0x100 EXP SWAP1 DIV PUSH1 0xFF AND SWAP1 DUP1 PUSH1 0x2 ADD PUSH1 0x1 SWAP1 SLOAD SWAP1 PUSH2 0x100 EXP SWAP1 DIV PUSH20 0xFFFFFFFFFFFFFFFFFFFFFFFFFFFFFFFFFFFFFFFF AND SWAP1 DUP1 PUSH1 0x3 ADD DUP1 SLOAD PUSH2 0x1C0F SWAP1 PUSH2 0x399C JUMP JUMPDEST DUP1 PUSH1 0x1F ADD PUSH1 0x20 DUP1 SWAP2 DIV MUL PUSH1 0x20 ADD PUSH1 0x40 MLOAD SWAP1 DUP2 ADD PUSH1 0x40 MSTORE DUP1 SWAP3 SWAP2 SWAP1 DUP2 DUP2 MSTORE PUSH1 0x20 ADD DUP3 DUP1 SLOAD PUSH2 0x1C3B SWAP1 PUSH2 0x399C JUMP JUMPDEST DUP1 ISZERO PUSH2 0x1C86 JUMPI DUP1 PUSH1 0x1F LT PUSH2 0x1C5D JUMPI PUSH2 0x100 DUP1 DUP4 SLOAD DIV MUL DUP4 MSTORE SWAP2 PUSH1 0x20 ADD SWAP2 PUSH2 0x1C86 JUMP JUMPDEST DUP3 ADD SWAP2 SWAP1 PUSH0 MSTORE PUSH1 0x20 PUSH0 KECCAK256 SWAP1 JUMPDEST DUP2 SLOAD DUP2 MSTORE SWAP1 PUSH1 0x1 ADD SWAP1 PUSH1 0x20 ADD DUP1 DUP4 GT PUSH2 0x1C69 JUMPI DUP3 SWAP1 SUB PUSH1 0x1F AND DUP3 ADD SWAP2 JUMPDEST POP POP POP POP POP SWAP1 DUP1 PUSH1 0x4 ADD SLOAD SWAP1 DUP1 PUSH1 0x5 ADD PUSH0 SWAP1 SLOAD SWAP1 PUSH2 0x100 EXP SWAP1 DIV PUSH1 0xFF AND SWAP1 POP DUP8 JUMP JUMPDEST PUSH0 PUSH0 PUSH1 0x4 PUSH0 DUP5 DUP2 MSTORE PUSH1 0x20 ADD SWAP1 DUP2 MSTORE PUSH1 0x20 ADD PUSH0 KECCAK256 SWAP1 POP DUP1 PUSH1 0xB ADD PUSH0 SWAP1 SLOAD SWAP1 PUSH2 0x100 EXP SWAP1 DIV PUSH1 0xFF AND PUSH2 0x1CDC JUMPI PUSH1 0x1 SWAP2 POP POP PUSH2 0x1D5A JUMP JUMPDEST PUSH0 PUSH0 SWAP1 POP JUMPDEST DUP2 PUSH1 0x9 ADD DUP1 SLOAD SWAP1 POP DUP2 LT ISZERO PUSH2 0x1D53 JUMPI PUSH0 PUSH1 0x5 PUSH0 DUP5 PUSH1 0x9 ADD DUP5 DUP2 SLOAD DUP2 LT PUSH2 0x1D0A JUMPI PUSH2 0x1D09 PUSH2 0x3E9D JUMP JUMPDEST JUMPDEST SWAP1 PUSH0 MSTORE PUSH1 0x20 PUSH0 KECCAK256 ADD SLOAD DUP2 MSTORE PUSH1 0x20 ADD SWAP1 DUP2 MSTORE PUSH1 0x20 ADD PUSH0 KECCAK256 PUSH1 0x7 ADD SLOAD SWAP1 POP PUSH1 0x50 DUP2 SGT DUP1 PUSH2 0x1D35 JUMPI POP PUSH1 0x14 DUP2 SLT JUMPDEST ISZERO PUSH2 0x1D45 JUMPI PUSH0 SWAP4 POP POP POP POP PUSH2 0x1D5A JUMP JUMPDEST POP DUP1 DUP1 PUSH1 0x1 ADD SWAP2 POP POP PUSH2 0x1CE1 JUMP JUMPDEST POP PUSH1 0x1 SWAP2 POP POP JUMPDEST SWAP2 SWAP1 POP JUMP JUMPDEST PUSH1 0x5 PUSH1 0x20 MSTORE DUP1 PUSH0 MSTORE PUSH1 0x40 PUSH0 KECCAK256 PUSH0 SWAP2 POP SWAP1 POP DUP1 PUSH0 ADD SLOAD SWAP1 DUP1 PUSH1 0x1 ADD SLOAD SWAP1 DUP1 PUSH1 0x2 ADD PUSH0 SWAP1 SLOAD SWAP1 PUSH2 0x100 EXP SWAP1 DIV PUSH20 0xFFFFFFFFFFFFFFFFFFFFFFFFFFFFFFFFFFFFFFFF AND SWAP1 DUP1 PUSH1 0x3 ADD DUP1 SLOAD PUSH2 0x1DAF SWAP1 PUSH2 0x399C JUMP JUMPDEST DUP1 PUSH1 0x1F ADD PUSH1 0x20 DUP1 SWAP2 DIV MUL PUSH1 0x20 ADD PUSH1 0x40 MLOAD SWAP1 DUP2 ADD PUSH1 0x40 MSTORE DUP1 SWAP3 SWAP2 SWAP1 DUP2 DUP2 MSTORE PUSH1 0x20 ADD DUP3 DUP1 SLOAD PUSH2 0x1DDB SWAP1 PUSH2 0x399C JUMP JUMPDEST DUP1 ISZERO PUSH2 0x1E26 JUMPI DUP1 PUSH1 0x1F LT PUSH2 0x1DFD JUMPI PUSH2 0x100 DUP1 DUP4 SLOAD DIV MUL DUP4 MSTORE SWAP2 PUSH1 0x20 ADD SWAP2 PUSH2 0x1E26 JUMP JUMPDEST DUP3 ADD SWAP2 SWAP1 PUSH0 MSTORE PUSH1 0x20 PUSH0 KECCAK256 SWAP1 JUMPDEST DUP2 SLOAD DUP2 MSTORE SWAP1 PUSH1 0x1 ADD SWAP1 PUSH1 0x20 ADD DUP1 DUP4 GT PUSH2 0x1E09 JUMPI DUP3 SWAP1 SUB PUSH1 0x1F AND DUP3 ADD SWAP2 JUMPDEST POP POP POP POP POP SWAP1 DUP1 PUSH1 0x4 ADD DUP1 SLOAD PUSH2 0x1E3B SWAP1 PUSH2 0x399C JUMP JUMPDEST DUP1 PUSH1 0x1F ADD PUSH1 0x20 DUP1 SWAP2 DIV MUL PUSH1 0x20 ADD PUSH1 0x40 MLOAD SWAP1 DUP2 ADD PUSH1 0x40 MSTORE DUP1 SWAP3 SWAP2 SWAP1 DUP2 DUP2 MSTORE PUSH1 0x20 ADD DUP3 DUP1 SLOAD PUSH2 0x1E67 SWAP1 PUSH2 0x399C JUMP JUMPDEST DUP1 ISZERO PUSH2 0x1EB2 JUMPI DUP1 PUSH1 0x1F LT PUSH2 0x1E89 JUMPI PUSH2 0x100 DUP1 DUP4 SLOAD DIV MUL DUP4 MSTORE SWAP2 PUSH1 0x20 ADD SWAP2 PUSH2 0x1EB2 JUMP JUMPDEST DUP3 ADD SWAP2 SWAP1 PUSH0 MSTORE PUSH1 0x20 PUSH0 KECCAK256 SWAP1 JUMPDEST DUP2 SLOAD DUP2 MSTORE SWAP1 PUSH1 0x1 ADD SWAP1 PUSH1 0x20 ADD DUP1 DUP4 GT PUSH2 0x1E95 JUMPI DUP3 SWAP1 SUB PUSH1 0x1F AND DUP3 ADD SWAP2 JUMPDEST POP POP POP POP POP SWAP1 DUP1 PUSH1 0x5 ADD SLOAD SWAP1 DUP1 PUSH1 0x6 ADD DUP1 SLOAD PUSH2 0x1ECD SWAP1 PUSH2 0x399C JUMP JUMPDEST DUP1 PUSH1 0x1F ADD PUSH1 0x20 DUP1 SWAP2 DIV MUL PUSH1 0x20 ADD PUSH1 0x40 MLOAD SWAP1 DUP2 ADD PUSH1 0x40 MSTORE DUP1 SWAP3 SWAP2 SWAP1 DUP2 DUP2 MSTORE PUSH1 0x20 ADD DUP3 DUP1 SLOAD PUSH2 0x1EF9 SWAP1 PUSH2 0x399C JUMP JUMPDEST DUP1 ISZERO PUSH2 0x1F44 JUMPI DUP1 PUSH1 0x1F LT PUSH2 0x1F1B JUMPI PUSH2 0x100 DUP1 DUP4 SLOAD DIV MUL DUP4 MSTORE SWAP2 PUSH1 0x20 ADD SWAP2 PUSH2 0x1F44 JUMP JUMPDEST DUP3 ADD SWAP2 SWAP1 PUSH0 MSTORE PUSH1 0x20 PUSH0 KECCAK256 SWAP1 JUMPDEST DUP2 SLOAD DUP2 MSTORE SWAP1 PUSH1 0x1 ADD SWAP1 PUSH1 0x20 ADD DUP1 DUP4 GT PUSH2 0x1F27 JUMPI DUP3 SWAP1 SUB PUSH1 0x1F AND DUP3 ADD SWAP2 JUMPDEST POP POP POP POP POP SWAP1 DUP1 PUSH1 0x7 ADD SLOAD SWAP1 POP DUP9 JUMP JUMPDEST PUSH1 0x1 SLOAD DUP2 JUMP JUMPDEST PUSH1 0x7 PUSH0 CALLER PUSH20 0xFFFFFFFFFFFFFFFFFFFFFFFFFFFFFFFFFFFFFFFF AND PUSH20 0xFFFFFFFFFFFFFFFFFFFFFFFFFFFFFFFFFFFFFFFF AND DUP2 MSTORE PUSH1 0x20 ADD SWAP1 DUP2 MSTORE PUSH1 0x20 ADD PUSH0 KECCAK256 PUSH1 0x4 ADD PUSH0 SWAP1 SLOAD SWAP1 PUSH2 0x100 EXP SWAP1 DIV PUSH1 0xFF AND ISZERO PUSH2 0x1FE7 JUMPI PUSH1 0x40 MLOAD PUSH32 0x8C379A000000000000000000000000000000000000000000000000000000000 DUP2 MSTORE PUSH1 0x4 ADD PUSH2 0x1FDE SWAP1 PUSH2 0x3FFD JUMP JUMPDEST PUSH1 0x40 MLOAD DUP1 SWAP2 SUB SWAP1 REVERT JUMPDEST PUSH1 0x40 MLOAD DUP1 PUSH1 0xA0 ADD PUSH1 0x40 MSTORE DUP1 CALLER PUSH20 0xFFFFFFFFFFFFFFFFFFFFFFFFFFFFFFFFFFFFFFFF AND DUP2 MSTORE PUSH1 0x20 ADD DUP5 DUP2 MSTORE PUSH1 0x20 ADD DUP4 PUSH1 0x5 DUP2 GT ISZERO PUSH2 0x2027 JUMPI PUSH2 0x2026 PUSH2 0x2B59 JUMP JUMPDEST JUMPDEST DUP2 MSTORE PUSH1 0x20 ADD DUP3 DUP2 MSTORE PUSH1 0x20 ADD PUSH1 0x1 ISZERO ISZERO DUP2 MSTORE POP PUSH1 0x7 PUSH0 CALLER PUSH20 0xFFFFFFFFFFFFFFFFFFFFFFFFFFFFFFFFFFFFFFFF AND PUSH20 0xFFFFFFFFFFFFFFFFFFFFFFFFFFFFFFFFFFFFFFFF AND DUP2 MSTORE PUSH1 0x20 ADD SWAP1 DUP2 MSTORE PUSH1 0x20 ADD PUSH0 KECCAK256 PUSH0 DUP3 ADD MLOAD DUP2 PUSH0 ADD PUSH0 PUSH2 0x100 EXP DUP2 SLOAD DUP2 PUSH20 0xFFFFFFFFFFFFFFFFFFFFFFFFFFFFFFFFFFFFFFFF MUL NOT AND SWAP1 DUP4 PUSH20 0xFFFFFFFFFFFFFFFFFFFFFFFFFFFFFFFFFFFFFFFF AND MUL OR SWAP1 SSTORE POP PUSH1 0x20 DUP3 ADD MLOAD DUP2 PUSH1 0x1 ADD SWAP1 DUP2 PUSH2 0x20CF SWAP2 SWAP1 PUSH2 0x3CB0 JUMP JUMPDEST POP PUSH1 0x40 DUP3 ADD MLOAD DUP2 PUSH1 0x2 ADD PUSH0 PUSH2 0x100 EXP DUP2 SLOAD DUP2 PUSH1 0xFF MUL NOT AND SWAP1 DUP4 PUSH1 0x5 DUP2 GT ISZERO PUSH2 0x20FA JUMPI PUSH2 0x20F9 PUSH2 0x2B59 JUMP JUMPDEST JUMPDEST MUL OR SWAP1 SSTORE POP PUSH1 0x60 DUP3 ADD MLOAD DUP2 PUSH1 0x3 ADD SWAP1 DUP2 PUSH2 0x2114 SWAP2 SWAP1 PUSH2 0x3CB0 JUMP JUMPDEST POP PUSH1 0x80 DUP3 ADD MLOAD DUP2 PUSH1 0x4 ADD PUSH0 PUSH2 0x100 EXP DUP2 SLOAD DUP2 PUSH1 0xFF MUL NOT AND SWAP1 DUP4 ISZERO ISZERO MUL OR SWAP1 SSTORE POP SWAP1 POP POP CALLER PUSH20 0xFFFFFFFFFFFFFFFFFFFFFFFFFFFFFFFFFFFFFFFF AND PUSH32 0xC9A31DE765ABE70445345802BEE3C96554CA063AB257E3888D498ACCB859FABC DUP5 DUP5 PUSH1 0x40 MLOAD PUSH2 0x217F SWAP3 SWAP2 SWAP1 PUSH2 0x401B JUMP JUMPDEST PUSH1 0x40 MLOAD DUP1 SWAP2 SUB SWAP1 LOG2 POP POP POP JUMP JUMPDEST PUSH0 PUSH1 0x7 PUSH0 CALLER PUSH20 0xFFFFFFFFFFFFFFFFFFFFFFFFFFFFFFFFFFFFFFFF AND PUSH20 0xFFFFFFFFFFFFFFFFFFFFFFFFFFFFFFFFFFFFFFFF AND DUP2 MSTORE PUSH1 0x20 ADD SWAP1 DUP2 MSTORE PUSH1 0x20 ADD PUSH0 KECCAK256 PUSH1 0x4 ADD PUSH0 SWAP1 SLOAD SWAP1 PUSH2 0x100 EXP SWAP1 DIV PUSH1 0xFF AND PUSH2 0x2219 JUMPI PUSH1 0x40 MLOAD PUSH32 0x8C379A000000000000000000000000000000000000000000000000000000000 DUP2 MSTORE PUSH1 0x4 ADD PUSH2 0x2210 SWAP1 PUSH2 0x3A16 JUMP JUMPDEST PUSH1 0x40 MLOAD DUP1 SWAP2 SUB SWAP1 REVERT JUMPDEST DUP4 PUSH0 DUP2 GT DUP1 ISZERO PUSH2 0x222A JUMPI POP PUSH1 0x1 SLOAD DUP2 LT JUMPDEST PUSH2 0x2269 JUMPI PUSH1 0x40 MLOAD PUSH32 0x8C379A000000000000000000000000000000000000000000000000000000000 DUP2 MSTORE PUSH1 0x4 ADD PUSH2 0x2260 SWAP1 PUSH2 0x3A7E JUMP JUMPDEST PUSH1 0x40 MLOAD DUP1 SWAP2 SUB SWAP1 REVERT JUMPDEST PUSH0 PUSH1 0x3 PUSH0 DUP2 SLOAD DUP1 SWAP3 SWAP2 SWAP1 PUSH2 0x227C SWAP1 PUSH2 0x3AC9 JUMP JUMPDEST SWAP2 SWAP1 POP SSTORE SWAP1 POP PUSH1 0x40 MLOAD DUP1 PUSH1 0xE0 ADD PUSH1 0x40 MSTORE DUP1 DUP3 DUP2 MSTORE PUSH1 0x20 ADD DUP8 DUP2 MSTORE PUSH1 0x20 ADD DUP7 PUSH1 0x4 DUP2 GT ISZERO PUSH2 0x22AC JUMPI PUSH2 0x22AB PUSH2 0x2B59 JUMP JUMPDEST JUMPDEST DUP2 MSTORE PUSH1 0x20 ADD CALLER PUSH20 0xFFFFFFFFFFFFFFFFFFFFFFFFFFFFFFFFFFFFFFFF AND DUP2 MSTORE PUSH1 0x20 ADD DUP6 DUP2 MSTORE PUSH1 0x20 ADD TIMESTAMP DUP2 MSTORE PUSH1 0x20 ADD PUSH0 ISZERO ISZERO DUP2 MSTORE POP PUSH1 0x6 PUSH0 DUP4 DUP2 MSTORE PUSH1 0x20 ADD SWAP1 DUP2 MSTORE PUSH1 0x20 ADD PUSH0 KECCAK256 PUSH0 DUP3 ADD MLOAD DUP2 PUSH0 ADD SSTORE PUSH1 0x20 DUP3 ADD MLOAD DUP2 PUSH1 0x1 ADD SSTORE PUSH1 0x40 DUP3 ADD MLOAD DUP2 PUSH1 0x2 ADD PUSH0 PUSH2 0x100 EXP DUP2 SLOAD DUP2 PUSH1 0xFF MUL NOT AND SWAP1 DUP4 PUSH1 0x4 DUP2 GT ISZERO PUSH2 0x232C JUMPI PUSH2 0x232B PUSH2 0x2B59 JUMP JUMPDEST JUMPDEST MUL OR SWAP1 SSTORE POP PUSH1 0x60 DUP3 ADD MLOAD DUP2 PUSH1 0x2 ADD PUSH1 0x1 PUSH2 0x100 EXP DUP2 SLOAD DUP2 PUSH20 0xFFFFFFFFFFFFFFFFFFFFFFFFFFFFFFFFFFFFFFFF MUL NOT AND SWAP1 DUP4 PUSH20 0xFFFFFFFFFFFFFFFFFFFFFFFFFFFFFFFFFFFFFFFF AND MUL OR SWAP1 SSTORE POP PUSH1 0x80 DUP3 ADD MLOAD DUP2 PUSH1 0x3 ADD SWAP1 DUP2 PUSH2 0x238D SWAP2 SWAP1 PUSH2 0x3CB0 JUMP JUMPDEST POP PUSH1 0xA0 DUP3 ADD MLOAD DUP2 PUSH1 0x4 ADD SSTORE PUSH1 0xC0 DUP3 ADD MLOAD DUP2 PUSH1 0x5 ADD PUSH0 PUSH2 0x100 EXP DUP2 SLOAD DUP2 PUSH1 0xFF MUL NOT AND SWAP1 DUP4 ISZERO ISZERO MUL OR SWAP1 SSTORE POP SWAP1 POP POP PUSH1 0x4 PUSH0 DUP8 DUP2 MSTORE PUSH1 0x20 ADD SWAP1 DUP2 MSTORE PUSH1 0x20 ADD PUSH0 KECCAK256 PUSH1 0xA ADD DUP2 SWAP1 DUP1 PUSH1 0x1 DUP2 SLOAD ADD DUP1 DUP3 SSTORE DUP1 SWAP2 POP POP PUSH1 0x1 SWAP1 SUB SWAP1 PUSH0 MSTORE PUSH1 0x20 PUSH0 KECCAK256 ADD PUSH0 SWAP1 SWAP2 SWAP1 SWAP2 SWAP1 SWAP2 POP SSTORE DUP6 DUP2 PUSH32 0xC2C9D0FA5CAECEA68B9EC6ACA764014B01764F779D8A510F0D0D6796B76B7C83 DUP8 PUSH1 0x40 MLOAD PUSH2 0x2423 SWAP2 SWAP1 PUSH2 0x4049 JUMP JUMPDEST PUSH1 0x40 MLOAD DUP1 SWAP2 SUB SWAP1 LOG3 DUP1 SWAP3 POP POP POP SWAP4 SWAP3 POP POP POP JUMP JUMPDEST PUSH1 0x7 PUSH1 0x20 MSTORE DUP1 PUSH0 MSTORE PUSH1 0x40 PUSH0 KECCAK256 PUSH0 SWAP2 POP SWAP1 POP DUP1 PUSH0 ADD PUSH0 SWAP1 SLOAD SWAP1 PUSH2 0x100 EXP SWAP1 DIV PUSH20 0xFFFFFFFFFFFFFFFFFFFFFFFFFFFFFFFFFFFFFFFF AND SWAP1 DUP1 PUSH1 0x1 ADD DUP1 SLOAD PUSH2 0x247B SWAP1 PUSH2 0x399C JUMP JUMPDEST DUP1 PUSH1 0x1F ADD PUSH1 0x20 DUP1 SWAP2 DIV MUL PUSH1 0x20 ADD PUSH1 0x40 MLOAD SWAP1 DUP2 ADD PUSH1 0x40 MSTORE DUP1 SWAP3 SWAP2 SWAP1 DUP2 DUP2 MSTORE PUSH1 0x20 ADD DUP3 DUP1 SLOAD PUSH2 0x24A7 SWAP1 PUSH2 0x399C JUMP JUMPDEST DUP1 ISZERO PUSH2 0x24F2 JUMPI DUP1 PUSH1 0x1F LT PUSH2 0x24C9 JUMPI PUSH2 0x100 DUP1 DUP4 SLOAD DIV MUL DUP4 MSTORE SWAP2 PUSH1 0x20 ADD SWAP2 PUSH2 0x24F2 JUMP JUMPDEST DUP3 ADD SWAP2 SWAP1 PUSH0 MSTORE PUSH1 0x20 PUSH0 KECCAK256 SWAP1 JUMPDEST DUP2 SLOAD DUP2 MSTORE SWAP1 PUSH1 0x1 ADD SWAP1 PUSH1 0x20 ADD DUP1 DUP4 GT PUSH2 0x24D5 JUMPI DUP3 SWAP1 SUB PUSH1 0x1F AND DUP3 ADD SWAP2 JUMPDEST POP POP POP POP POP SWAP1 DUP1 PUSH1 0x2 ADD PUSH0 SWAP1 SLOAD SWAP1 PUSH2 0x100 EXP SWAP1 DIV PUSH1 0xFF AND SWAP1 DUP1 PUSH1 0x3 ADD DUP1 SLOAD PUSH2 0x2519 SWAP1 PUSH2 0x399C JUMP JUMPDEST DUP1 PUSH1 0x1F ADD PUSH1 0x20 DUP1 SWAP2 DIV MUL PUSH1 0x20 ADD PUSH1 0x40 MLOAD SWAP1 DUP2 ADD PUSH1 0x40 MSTORE DUP1 SWAP3 SWAP2 SWAP1 DUP2 DUP2 MSTORE PUSH1 0x20 ADD DUP3 DUP1 SLOAD PUSH2 0x2545 SWAP1 PUSH2 0x399C JUMP JUMPDEST DUP1 ISZERO PUSH2 0x2590 JUMPI DUP1 PUSH1 0x1F LT PUSH2 0x2567 JUMPI PUSH2 0x100 DUP1 DUP4 SLOAD DIV MUL DUP4 MSTORE SWAP2 PUSH1 0x20 ADD SWAP2 PUSH2 0x2590 JUMP JUMPDEST DUP3 ADD SWAP2 SWAP1 PUSH0 MSTORE PUSH1 0x20 PUSH0 KECCAK256 SWAP1 JUMPDEST DUP2 SLOAD DUP2 MSTORE SWAP1 PUSH1 0x1 ADD SWAP1 PUSH1 0x20 ADD DUP1 DUP4 GT PUSH2 0x2573 JUMPI DUP3 SWAP1 SUB PUSH1 0x1F AND DUP3 ADD SWAP2 JUMPDEST POP POP POP POP POP SWAP1 DUP1 PUSH1 0x4 ADD PUSH0 SWAP1 SLOAD SWAP1 PUSH2 0x100 EXP SWAP1 DIV PUSH1 0xFF AND SWAP1 POP DUP6 JUMP JUMPDEST PUSH0 PUSH0 SWAP1 SLOAD SWAP1 PUSH2 0x100 EXP SWAP1 DIV PUSH20 0xFFFFFFFFFFFFFFFFFFFFFFFFFFFFFFFFFFFFFFFF AND DUP2 JUMP JUMPDEST PUSH0 PUSH0 SWAP1 SLOAD SWAP1 PUSH2 0x100 EXP SWAP1 DIV PUSH20 0xFFFFFFFFFFFFFFFFFFFFFFFFFFFFFFFFFFFFFFFF AND PUSH20 0xFFFFFFFFFFFFFFFFFFFFFFFFFFFFFFFFFFFFFFFF AND CALLER PUSH20 0xFFFFFFFFFFFFFFFFFFFFFFFFFFFFFFFFFFFFFFFF AND EQ PUSH2 0x265E JUMPI PUSH1 0x40 MLOAD PUSH32 0x8C379A000000000000000000000000000000000000000000000000000000000 DUP2 MSTORE PUSH1 0x4 ADD PUSH2 0x2655 SWAP1 PUSH2 0x3E7F JUMP JUMPDEST PUSH1 0x40 MLOAD DUP1 SWAP2 SUB SWAP1 REVERT JUMPDEST PUSH0 PUSH1 0x7 PUSH0 DUP4 PUSH20 0xFFFFFFFFFFFFFFFFFFFFFFFFFFFFFFFFFFFFFFFF AND PUSH20 0xFFFFFFFFFFFFFFFFFFFFFFFFFFFFFFFFFFFFFFFF AND DUP2 MSTORE PUSH1 0x20 ADD SWAP1 DUP2 MSTORE PUSH1 0x20 ADD PUSH0 KECCAK256 PUSH1 0x4 ADD PUSH0 PUSH2 0x100 EXP DUP2 SLOAD DUP2 PUSH1 0xFF MUL NOT AND SWAP1 DUP4 ISZERO ISZERO MUL OR SWAP1 SSTORE POP POP JUMP JUMPDEST DUP1 PUSH0 DUP2 GT DUP1 ISZERO PUSH2 0x26C9 JUMPI POP PUSH1 0x1 SLOAD DUP2 LT JUMPDEST PUSH2 0x2708 JUMPI PUSH1 0x40 MLOAD PUSH32 0x8C379A000000000000000000000000000000000000000000000000000000000 DUP2 MSTORE PUSH1 0x4 ADD PUSH2 0x26FF SWAP1 PUSH2 0x3A7E JUMP JUMPDEST PUSH1 0x40 MLOAD DUP1 SWAP2 SUB SWAP1 REVERT JUMPDEST PUSH0 PUSH1 0x4 PUSH0 DUP5 DUP2 MSTORE PUSH1 0x20 ADD SWAP1 DUP2 MSTORE PUSH1 0x20 ADD PUSH0 KECCAK256 SWAP1 POP DUP1 PUSH1 0x2 ADD PUSH0 SWAP1 SLOAD SWAP1 PUSH2 0x100 EXP SWAP1 DIV PUSH20 0xFFFFFFFFFFFFFFFFFFFFFFFFFFFFFFFFFFFFFFFF AND PUSH20 0xFFFFFFFFFFFFFFFFFFFFFFFFFFFFFFFFFFFFFFFF AND CALLER PUSH20 0xFFFFFFFFFFFFFFFFFFFFFFFFFFFFFFFFFFFFFFFF AND EQ PUSH2 0x27AD JUMPI PUSH1 0x40 MLOAD PUSH32 0x8C379A000000000000000000000000000000000000000000000000000000000 DUP2 MSTORE PUSH1 0x4 ADD PUSH2 0x27A4 SWAP1 PUSH2 0x40AC JUMP JUMPDEST PUSH1 0x40 MLOAD DUP1 SWAP2 SUB SWAP1 REVERT JUMPDEST PUSH1 0x4 PUSH1 0x6 DUP2 GT ISZERO PUSH2 0x27C1 JUMPI PUSH2 0x27C0 PUSH2 0x2B59 JUMP JUMPDEST JUMPDEST DUP2 PUSH1 0x8 ADD PUSH0 SWAP1 SLOAD SWAP1 PUSH2 0x100 EXP SWAP1 DIV PUSH1 0xFF AND PUSH1 0x6 DUP2 GT ISZERO PUSH2 0x27E4 JUMPI PUSH2 0x27E3 PUSH2 0x2B59 JUMP JUMPDEST JUMPDEST SUB PUSH2 0x2824 JUMPI PUSH1 0x40 MLOAD PUSH32 0x8C379A000000000000000000000000000000000000000000000000000000000 DUP2 MSTORE PUSH1 0x4 ADD PUSH2 0x281B SWAP1 PUSH2 0x4114 JUMP JUMPDEST PUSH1 0x40 MLOAD DUP1 SWAP2 SUB SWAP1 REVERT JUMPDEST PUSH1 0x4 DUP2 PUSH1 0x8 ADD PUSH0 PUSH2 0x100 EXP DUP2 SLOAD DUP2 PUSH1 0xFF MUL NOT AND SWAP1 DUP4 PUSH1 0x6 DUP2 GT ISZERO PUSH2 0x284B JUMPI PUSH2 0x284A PUSH2 0x2B59 JUMP JUMPDEST JUMPDEST MUL OR SWAP1 SSTORE POP TIMESTAMP DUP2 PUSH1 0x7 ADD DUP2 SWAP1 SSTORE POP CALLER PUSH20 0xFFFFFFFFFFFFFFFFFFFFFFFFFFFFFFFFFFFFFFFF AND DUP4 PUSH32 0x2F4A952729DB32131CB3D658CC231127E0CE7E50F83508ECE9A49C985F2384D0 TIMESTAMP PUSH1 0x40 MLOAD PUSH2 0x28A0 SWAP2 SWAP1 PUSH2 0x2DDA JUMP JUMPDEST PUSH1 0x40 MLOAD DUP1 SWAP2 SUB SWAP1 LOG3 DUP3 PUSH32 0x7C1C93F72F29B8A1FC6FC85EED990D133B1FFAC80C962B521ABB12F38F2FF9AF PUSH1 0x4 PUSH1 0x40 MLOAD PUSH2 0x28D9 SWAP2 SWAP1 PUSH2 0x3ECA JUMP JUMPDEST PUSH1 0x40 MLOAD DUP1 SWAP2 SUB SWAP1 LOG2 POP POP POP JUMP JUMPDEST PUSH1 0x40 MLOAD DUP1 PUSH2 0x180 ADD PUSH1 0x40 MSTORE DUP1 PUSH0 DUP2 MSTORE PUSH1 0x20 ADD PUSH0 PUSH20 0xFFFFFFFFFFFFFFFFFFFFFFFFFFFFFFFFFFFFFFFF AND DUP2 MSTORE PUSH1 0x20 ADD PUSH0 PUSH20 0xFFFFFFFFFFFFFFFFFFFFFFFFFFFFFFFFFFFFFFFF AND DUP2 MSTORE PUSH1 0x20 ADD PUSH1 0x60 DUP2 MSTORE PUSH1 0x20 ADD PUSH1 0x60 DUP2 MSTORE PUSH1 0x20 ADD PUSH1 0x60 DUP2 MSTORE PUSH1 0x20 ADD PUSH0 DUP2 MSTORE PUSH1 0x20 ADD PUSH0 DUP2 MSTORE PUSH1 0x20 ADD PUSH0 PUSH1 0x6 DUP2 GT ISZERO PUSH2 0x2964 JUMPI PUSH2 0x2963 PUSH2 0x2B59 JUMP JUMPDEST JUMPDEST DUP2 MSTORE PUSH1 0x20 ADD PUSH1 0x60 DUP2 MSTORE PUSH1 0x20 ADD PUSH1 0x60 DUP2 MSTORE PUSH1 0x20 ADD PUSH0 ISZERO ISZERO DUP2 MSTORE POP SWAP1 JUMP JUMPDEST PUSH1 0x40 MLOAD DUP1 PUSH1 0xA0 ADD PUSH1 0x40 MSTORE DUP1 PUSH0 PUSH20 0xFFFFFFFFFFFFFFFFFFFFFFFFFFFFFFFFFFFFFFFF AND DUP2 MSTORE PUSH1 0x20 ADD PUSH1 0x60 DUP2 MSTORE PUSH1 0x20 ADD PUSH0 PUSH1 0x5 DUP2 GT ISZERO PUSH2 0x29C1 JUMPI PUSH2 0x29C0 PUSH2 0x2B59 JUMP JUMPDEST JUMPDEST DUP2 MSTORE PUSH1 0x20 ADD PUSH1 0x60 DUP2 MSTORE PUSH1 0x20 ADD PUSH0 ISZERO ISZERO DUP2 MSTORE POP SWAP1 JUMP JUMPDEST PUSH1 0x40 MLOAD DUP1 PUSH2 0x100 ADD PUSH1 0x40 MSTORE DUP1 PUSH0 DUP2 MSTORE PUSH1 0x20 ADD PUSH0 DUP2 MSTORE PUSH1 0x20 ADD PUSH0 PUSH20 0xFFFFFFFFFFFFFFFFFFFFFFFFFFFFFFFFFFFFFFFF AND DUP2 MSTORE PUSH1 0x20 ADD PUSH1 0x60 DUP2 MSTORE PUSH1 0x20 ADD PUSH1 0x60 DUP2 MSTORE PUSH1 0x20 ADD PUSH0 DUP2 MSTORE PUSH1 0x20 ADD PUSH1 0x60 DUP2 MSTORE PUSH1 0x20 ADD PUSH0 DUP2 MSTORE POP SWAP1 JUMP JUMPDEST PUSH0 PUSH1 0x40 MLOAD SWAP1 POP SWAP1 JUMP JUMPDEST PUSH0 PUSH0 REVERT JUMPDEST PUSH0 PUSH0 REVERT JUMPDEST PUSH0 DUP2 SWAP1 POP SWAP2 SWAP1 POP JUMP JUMPDEST PUSH2 0x2A4F DUP2 PUSH2 0x2A3D JUMP JUMPDEST DUP2 EQ PUSH2 0x2A59 JUMPI PUSH0 PUSH0 REVERT JUMPDEST POP JUMP JUMPDEST PUSH0 DUP2 CALLDATALOAD SWAP1 POP PUSH2 0x2A6A DUP2 PUSH2 0x2A46 JUMP JUMPDEST SWAP3 SWAP2 POP POP JUMP JUMPDEST PUSH0 PUSH1 0x20 DUP3 DUP5 SUB SLT ISZERO PUSH2 0x2A85 JUMPI PUSH2 0x2A84 PUSH2 0x2A35 JUMP JUMPDEST JUMPDEST PUSH0 PUSH2 0x2A92 DUP5 DUP3 DUP6 ADD PUSH2 0x2A5C JUMP JUMPDEST SWAP2 POP POP SWAP3 SWAP2 POP POP JUMP JUMPDEST PUSH2 0x2AA4 DUP2 PUSH2 0x2A3D JUMP JUMPDEST DUP3 MSTORE POP POP JUMP JUMPDEST PUSH0 PUSH20 0xFFFFFFFFFFFFFFFFFFFFFFFFFFFFFFFFFFFFFFFF DUP3 AND SWAP1 POP SWAP2 SWAP1 POP JUMP JUMPDEST PUSH0 PUSH2 0x2AD3 DUP3 PUSH2 0x2AAA JUMP JUMPDEST SWAP1 POP SWAP2 SWAP1 POP JUMP JUMPDEST PUSH2 0x2AE3 DUP2 PUSH2 0x2AC9 JUMP JUMPDEST DUP3 MSTORE POP POP JUMP JUMPDEST PUSH0 DUP2 MLOAD SWAP1 POP SWAP2 SWAP1 POP JUMP JUMPDEST PUSH0 DUP3 DUP3 MSTORE PUSH1 0x20 DUP3 ADD SWAP1 POP SWAP3 SWAP2 POP POP JUMP JUMPDEST DUP3 DUP2 DUP4 MCOPY PUSH0 DUP4 DUP4 ADD MSTORE POP POP POP JUMP JUMPDEST PUSH0 PUSH1 0x1F NOT PUSH1 0x1F DUP4 ADD AND SWAP1 POP SWAP2 SWAP1 POP JUMP JUMPDEST PUSH0 PUSH2 0x2B2B DUP3 PUSH2 0x2AE9 JUMP JUMPDEST PUSH2 0x2B35 DUP2 DUP6 PUSH2 0x2AF3 JUMP JUMPDEST SWAP4 POP PUSH2 0x2B45 DUP2 DUP6 PUSH1 0x20 DUP7 ADD PUSH2 0x2B03 JUMP JUMPDEST PUSH2 0x2B4E DUP2 PUSH2 0x2B11 JUMP JUMPDEST DUP5 ADD SWAP2 POP POP SWAP3 SWAP2 POP POP JUMP JUMPDEST PUSH32 0x4E487B7100000000000000000000000000000000000000000000000000000000 PUSH0 MSTORE PUSH1 0x21 PUSH1 0x4 MSTORE PUSH1 0x24 PUSH0 REVERT JUMPDEST PUSH1 0x7 DUP2 LT PUSH2 0x2B97 JUMPI PUSH2 0x2B96 PUSH2 0x2B59 JUMP JUMPDEST JUMPDEST POP JUMP JUMPDEST PUSH0 DUP2 SWAP1 POP PUSH2 0x2BA7 DUP3 PUSH2 0x2B86 JUMP JUMPDEST SWAP2 SWAP1 POP JUMP JUMPDEST PUSH0 PUSH2 0x2BB6 DUP3 PUSH2 0x2B9A JUMP JUMPDEST SWAP1 POP SWAP2 SWAP1 POP JUMP JUMPDEST PUSH2 0x2BC6 DUP2 PUSH2 0x2BAC JUMP JUMPDEST DUP3 MSTORE POP POP JUMP JUMPDEST PUSH0 DUP2 MLOAD SWAP1 POP SWAP2 SWAP1 POP JUMP JUMPDEST PUSH0 DUP3 DUP3 MSTORE PUSH1 0x20 DUP3 ADD SWAP1 POP SWAP3 SWAP2 POP POP JUMP JUMPDEST PUSH0 DUP2 SWAP1 POP PUSH1 0x20 DUP3 ADD SWAP1 POP SWAP2 SWAP1 POP JUMP JUMPDEST PUSH0 PUSH2 0x2C00 DUP4 DUP4 PUSH2 0x2A9B JUMP JUMPDEST PUSH1 0x20 DUP4 ADD SWAP1 POP SWAP3 SWAP2 POP POP JUMP JUMPDEST PUSH0 PUSH1 0x20 DUP3 ADD SWAP1 POP SWAP2 SWAP1 POP JUMP JUMPDEST PUSH0 PUSH2 0x2C22 DUP3 PUSH2 0x2BCC JUMP JUMPDEST PUSH2 0x2C2C DUP2 DUP6 PUSH2 0x2BD6 JUMP JUMPDEST SWAP4 POP PUSH2 0x2C37 DUP4 PUSH2 0x2BE6 JUMP JUMPDEST DUP1 PUSH0 JUMPDEST DUP4 DUP2 LT ISZERO PUSH2 0x2C67 JUMPI DUP2 MLOAD PUSH2 0x2C4E DUP9 DUP3 PUSH2 0x2BF5 JUMP JUMPDEST SWAP8 POP PUSH2 0x2C59 DUP4 PUSH2 0x2C0C JUMP JUMPDEST SWAP3 POP POP PUSH1 0x1 DUP2 ADD SWAP1 POP PUSH2 0x2C3A JUMP JUMPDEST POP DUP6 SWAP4 POP POP POP POP SWAP3 SWAP2 POP POP JUMP JUMPDEST PUSH0 DUP2 ISZERO ISZERO SWAP1 POP SWAP2 SWAP1 POP JUMP JUMPDEST PUSH2 0x2C88 DUP2 PUSH2 0x2C74 JUMP JUMPDEST DUP3 MSTORE POP POP JUMP JUMPDEST PUSH0 PUSH2 0x180 DUP4 ADD PUSH0 DUP4 ADD MLOAD PUSH2 0x2CA4 PUSH0 DUP7 ADD DUP3 PUSH2 0x2A9B JUMP JUMPDEST POP PUSH1 0x20 DUP4 ADD MLOAD PUSH2 0x2CB7 PUSH1 0x20 DUP7 ADD DUP3 PUSH2 0x2ADA JUMP JUMPDEST POP PUSH1 0x40 DUP4 ADD MLOAD PUSH2 0x2CCA PUSH1 0x40 DUP7 ADD DUP3 PUSH2 0x2ADA JUMP JUMPDEST POP PUSH1 0x60 DUP4 ADD MLOAD DUP5 DUP3 SUB PUSH1 0x60 DUP7 ADD MSTORE PUSH2 0x2CE2 DUP3 DUP3 PUSH2 0x2B21 JUMP JUMPDEST SWAP2 POP POP PUSH1 0x80 DUP4 ADD MLOAD DUP5 DUP3 SUB PUSH1 0x80 DUP7 ADD MSTORE PUSH2 0x2CFC DUP3 DUP3 PUSH2 0x2B21 JUMP JUMPDEST SWAP2 POP POP PUSH1 0xA0 DUP4 ADD MLOAD DUP5 DUP3 SUB PUSH1 0xA0 DUP7 ADD MSTORE PUSH2 0x2D16 DUP3 DUP3 PUSH2 0x2B21 JUMP JUMPDEST SWAP2 POP POP PUSH1 0xC0 DUP4 ADD MLOAD PUSH2 0x2D2B PUSH1 0xC0 DUP7 ADD DUP3 PUSH2 0x2A9B JUMP JUMPDEST POP PUSH1 0xE0 DUP4 ADD MLOAD PUSH2 0x2D3E PUSH1 0xE0 DUP7 ADD DUP3 PUSH2 0x2A9B JUMP JUMPDEST POP PUSH2 0x100 DUP4 ADD MLOAD PUSH2 0x2D53 PUSH2 0x100 DUP7 ADD DUP3 PUSH2 0x2BBD JUMP JUMPDEST POP PUSH2 0x120 DUP4 ADD MLOAD DUP5 DUP3 SUB PUSH2 0x120 DUP7 ADD MSTORE PUSH2 0x2D6D DUP3 DUP3 PUSH2 0x2C18 JUMP JUMPDEST SWAP2 POP POP PUSH2 0x140 DUP4 ADD MLOAD DUP5 DUP3 SUB PUSH2 0x140 DUP7 ADD MSTORE PUSH2 0x2D89 DUP3 DUP3 PUSH2 0x2C18 JUMP JUMPDEST SWAP2 POP POP PUSH2 0x160 DUP4 ADD MLOAD PUSH2 0x2DA0 PUSH2 0x160 DUP7 ADD DUP3 PUSH2 0x2C7F JUMP JUMPDEST POP DUP1 SWAP2 POP POP SWAP3 SWAP2 POP POP JUMP JUMPDEST PUSH0 PUSH1 0x20 DUP3 ADD SWAP1 POP DUP2 DUP2 SUB PUSH0 DUP4 ADD MSTORE PUSH2 0x2DC3 DUP2 DUP5 PUSH2 0x2C8E JUMP JUMPDEST SWAP1 POP SWAP3 SWAP2 POP POP JUMP JUMPDEST PUSH2 0x2DD4 DUP2 PUSH2 0x2A3D JUMP JUMPDEST DUP3 MSTORE POP POP JUMP JUMPDEST PUSH0 PUSH1 0x20 DUP3 ADD SWAP1 POP PUSH2 0x2DED PUSH0 DUP4 ADD DUP5 PUSH2 0x2DCB JUMP JUMPDEST SWAP3 SWAP2 POP POP JUMP JUMPDEST PUSH2 0x2DFC DUP2 PUSH2 0x2AC9 JUMP JUMPDEST DUP3 MSTORE POP POP JUMP JUMPDEST PUSH0 DUP3 DUP3 MSTORE PUSH1 0x20 DUP3 ADD SWAP1 POP SWAP3 SWAP2 POP POP JUMP JUMPDEST PUSH0 PUSH2 0x2E1C DUP3 PUSH2 0x2AE9 JUMP JUMPDEST PUSH2 0x2E26 DUP2 DUP6 PUSH2 0x2E02 JUMP JUMPDEST SWAP4 POP PUSH2 0x2E36 DUP2 DUP6 PUSH1 0x20 DUP7 ADD PUSH2 0x2B03 JUMP JUMPDEST PUSH2 0x2E3F DUP2 PUSH2 0x2B11 JUMP JUMPDEST DUP5 ADD SWAP2 POP POP SWAP3 SWAP2 POP POP JUMP JUMPDEST PUSH2 0x2E53 DUP2 PUSH2 0x2BAC JUMP JUMPDEST DUP3 MSTORE POP POP JUMP JUMPDEST PUSH2 0x2E62 DUP2 PUSH2 0x2C74 JUMP JUMPDEST DUP3 MSTORE POP POP JUMP JUMPDEST PUSH0 PUSH2 0x140 DUP3 ADD SWAP1 POP PUSH2 0x2E7C PUSH0 DUP4 ADD DUP14 PUSH2 0x2DCB JUMP JUMPDEST PUSH2 0x2E89 PUSH1 0x20 DUP4 ADD DUP13 PUSH2 0x2DF3 JUMP JUMPDEST PUSH2 0x2E96 PUSH1 0x40 DUP4 ADD DUP12 PUSH2 0x2DF3 JUMP JUMPDEST DUP2 DUP2 SUB PUSH1 0x60 DUP4 ADD MSTORE PUSH2 0x2EA8 DUP2 DUP11 PUSH2 0x2E12 JUMP JUMPDEST SWAP1 POP DUP2 DUP2 SUB PUSH1 0x80 DUP4 ADD MSTORE PUSH2 0x2EBC DUP2 DUP10 PUSH2 0x2E12 JUMP JUMPDEST SWAP1 POP DUP2 DUP2 SUB PUSH1 0xA0 DUP4 ADD MSTORE PUSH2 0x2ED0 DUP2 DUP9 PUSH2 0x2E12 JUMP JUMPDEST SWAP1 POP PUSH2 0x2EDF PUSH1 0xC0 DUP4 ADD DUP8 PUSH2 0x2DCB JUMP JUMPDEST PUSH2 0x2EEC PUSH1 0xE0 DUP4 ADD DUP7 PUSH2 0x2DCB JUMP JUMPDEST PUSH2 0x2EFA PUSH2 0x100 DUP4 ADD DUP6 PUSH2 0x2E4A JUMP JUMPDEST PUSH2 0x2F08 PUSH2 0x120 DUP4 ADD DUP5 PUSH2 0x2E59 JUMP JUMPDEST SWAP12 SWAP11 POP POP POP POP POP POP POP POP POP POP POP JUMP JUMPDEST PUSH0 PUSH0 REVERT JUMPDEST PUSH0 PUSH0 REVERT JUMPDEST PUSH32 0x4E487B7100000000000000000000000000000000000000000000000000000000 PUSH0 MSTORE PUSH1 0x41 PUSH1 0x4 MSTORE PUSH1 0x24 PUSH0 REVERT JUMPDEST PUSH2 0x2F55 DUP3 PUSH2 0x2B11 JUMP JUMPDEST DUP2 ADD DUP2 DUP2 LT PUSH8 0xFFFFFFFFFFFFFFFF DUP3 GT OR ISZERO PUSH2 0x2F74 JUMPI PUSH2 0x2F73 PUSH2 0x2F1F JUMP JUMPDEST JUMPDEST DUP1 PUSH1 0x40 MSTORE POP POP POP JUMP JUMPDEST PUSH0 PUSH2 0x2F86 PUSH2 0x2A2C JUMP JUMPDEST SWAP1 POP PUSH2 0x2F92 DUP3 DUP3 PUSH2 0x2F4C JUMP JUMPDEST SWAP2 SWAP1 POP JUMP JUMPDEST PUSH0 PUSH8 0xFFFFFFFFFFFFFFFF DUP3 GT ISZERO PUSH2 0x2FB1 JUMPI PUSH2 0x2FB0 PUSH2 0x2F1F JUMP JUMPDEST JUMPDEST PUSH2 0x2FBA DUP3 PUSH2 0x2B11 JUMP JUMPDEST SWAP1 POP PUSH1 0x20 DUP2 ADD SWAP1 POP SWAP2 SWAP1 POP JUMP JUMPDEST DUP3 DUP2 DUP4 CALLDATACOPY PUSH0 DUP4 DUP4 ADD MSTORE POP POP POP JUMP JUMPDEST PUSH0 PUSH2 0x2FE7 PUSH2 0x2FE2 DUP5 PUSH2 0x2F97 JUMP JUMPDEST PUSH2 0x2F7D JUMP JUMPDEST SWAP1 POP DUP3 DUP2 MSTORE PUSH1 0x20 DUP2 ADD DUP5 DUP5 DUP5 ADD GT ISZERO PUSH2 0x3003 JUMPI PUSH2 0x3002 PUSH2 0x2F1B JUMP JUMPDEST JUMPDEST PUSH2 0x300E DUP5 DUP3 DUP6 PUSH2 0x2FC7 JUMP JUMPDEST POP SWAP4 SWAP3 POP POP POP JUMP JUMPDEST PUSH0 DUP3 PUSH1 0x1F DUP4 ADD SLT PUSH2 0x302A JUMPI PUSH2 0x3029 PUSH2 0x2F17 JUMP JUMPDEST JUMPDEST DUP2 CALLDATALOAD PUSH2 0x303A DUP5 DUP3 PUSH1 0x20 DUP7 ADD PUSH2 0x2FD5 JUMP JUMPDEST SWAP2 POP POP SWAP3 SWAP2 POP POP JUMP JUMPDEST PUSH0 DUP2 SWAP1 POP SWAP2 SWAP1 POP JUMP JUMPDEST PUSH2 0x3055 DUP2 PUSH2 0x3043 JUMP JUMPDEST DUP2 EQ PUSH2 0x305F JUMPI PUSH0 PUSH0 REVERT JUMPDEST POP JUMP JUMPDEST PUSH0 DUP2 CALLDATALOAD SWAP1 POP PUSH2 0x3070 DUP2 PUSH2 0x304C JUMP JUMPDEST SWAP3 SWAP2 POP POP JUMP JUMPDEST PUSH0 PUSH0 PUSH0 PUSH0 PUSH0 PUSH1 0xA0 DUP7 DUP9 SUB SLT ISZERO PUSH2 0x308F JUMPI PUSH2 0x308E PUSH2 0x2A35 JUMP JUMPDEST JUMPDEST PUSH0 PUSH2 0x309C DUP9 DUP3 DUP10 ADD PUSH2 0x2A5C JUMP JUMPDEST SWAP6 POP POP PUSH1 0x20 DUP7 ADD CALLDATALOAD PUSH8 0xFFFFFFFFFFFFFFFF DUP2 GT ISZERO PUSH2 0x30BD JUMPI PUSH2 0x30BC PUSH2 0x2A39 JUMP JUMPDEST JUMPDEST PUSH2 0x30C9 DUP9 DUP3 DUP10 ADD PUSH2 0x3016 JUMP JUMPDEST SWAP5 POP POP PUSH1 0x40 DUP7 ADD CALLDATALOAD PUSH8 0xFFFFFFFFFFFFFFFF DUP2 GT ISZERO PUSH2 0x30EA JUMPI PUSH2 0x30E9 PUSH2 0x2A39 JUMP JUMPDEST JUMPDEST PUSH2 0x30F6 DUP9 DUP3 DUP10 ADD PUSH2 0x3016 JUMP JUMPDEST SWAP4 POP POP PUSH1 0x60 DUP7 ADD CALLDATALOAD PUSH8 0xFFFFFFFFFFFFFFFF DUP2 GT ISZERO PUSH2 0x3117 JUMPI PUSH2 0x3116 PUSH2 0x2A39 JUMP JUMPDEST JUMPDEST PUSH2 0x3123 DUP9 DUP3 DUP10 ADD PUSH2 0x3016 JUMP JUMPDEST SWAP3 POP POP PUSH1 0x80 PUSH2 0x3134 DUP9 DUP3 DUP10 ADD PUSH2 0x3062 JUMP JUMPDEST SWAP2 POP POP SWAP3 SWAP6 POP SWAP3 SWAP6 SWAP1 SWAP4 POP JUMP JUMPDEST PUSH2 0x314A DUP2 PUSH2 0x2AC9 JUMP JUMPDEST DUP2 EQ PUSH2 0x3154 JUMPI PUSH0 PUSH0 REVERT JUMPDEST POP JUMP JUMPDEST PUSH0 DUP2 CALLDATALOAD SWAP1 POP PUSH2 0x3165 DUP2 PUSH2 0x3141 JUMP JUMPDEST SWAP3 SWAP2 POP POP JUMP JUMPDEST PUSH0 PUSH1 0x20 DUP3 DUP5 SUB SLT ISZERO PUSH2 0x3180 JUMPI PUSH2 0x317F PUSH2 0x2A35 JUMP JUMPDEST JUMPDEST PUSH0 PUSH2 0x318D DUP5 DUP3 DUP6 ADD PUSH2 0x3157 JUMP JUMPDEST SWAP2 POP POP SWAP3 SWAP2 POP POP JUMP JUMPDEST PUSH1 0x6 DUP2 LT PUSH2 0x31A7 JUMPI PUSH2 0x31A6 PUSH2 0x2B59 JUMP JUMPDEST JUMPDEST POP JUMP JUMPDEST PUSH0 DUP2 SWAP1 POP PUSH2 0x31B7 DUP3 PUSH2 0x3196 JUMP JUMPDEST SWAP2 SWAP1 POP JUMP JUMPDEST PUSH0 PUSH2 0x31C6 DUP3 PUSH2 0x31AA JUMP JUMPDEST SWAP1 POP SWAP2 SWAP1 POP JUMP JUMPDEST PUSH2 0x31D6 DUP2 PUSH2 0x31BC JUMP JUMPDEST DUP3 MSTORE POP POP JUMP JUMPDEST PUSH0 PUSH1 0xA0 DUP4 ADD PUSH0 DUP4 ADD MLOAD PUSH2 0x31F1 PUSH0 DUP7 ADD DUP3 PUSH2 0x2ADA JUMP JUMPDEST POP PUSH1 0x20 DUP4 ADD MLOAD DUP5 DUP3 SUB PUSH1 0x20 DUP7 ADD MSTORE PUSH2 0x3209 DUP3 DUP3 PUSH2 0x2B21 JUMP JUMPDEST SWAP2 POP POP PUSH1 0x40 DUP4 ADD MLOAD PUSH2 0x321E PUSH1 0x40 DUP7 ADD DUP3 PUSH2 0x31CD JUMP JUMPDEST POP PUSH1 0x60 DUP4 ADD MLOAD DUP5 DUP3 SUB PUSH1 0x60 DUP7 ADD MSTORE PUSH2 0x3236 DUP3 DUP3 PUSH2 0x2B21 JUMP JUMPDEST SWAP2 POP POP PUSH1 0x80 DUP4 ADD MLOAD PUSH2 0x324B PUSH1 0x80 DUP7 ADD DUP3 PUSH2 0x2C7F JUMP JUMPDEST POP DUP1 SWAP2 POP POP SWAP3 SWAP2 POP POP JUMP JUMPDEST PUSH0 PUSH1 0x20 DUP3 ADD SWAP1 POP DUP2 DUP2 SUB PUSH0 DUP4 ADD MSTORE PUSH2 0x326E DUP2 DUP5 PUSH2 0x31DC JUMP JUMPDEST SWAP1 POP SWAP3 SWAP2 POP POP JUMP JUMPDEST PUSH2 0x327F DUP2 PUSH2 0x2C74 JUMP JUMPDEST DUP2 EQ PUSH2 0x3289 JUMPI PUSH0 PUSH0 REVERT JUMPDEST POP JUMP JUMPDEST PUSH0 DUP2 CALLDATALOAD SWAP1 POP PUSH2 0x329A DUP2 PUSH2 0x3276 JUMP JUMPDEST SWAP3 SWAP2 POP POP JUMP JUMPDEST PUSH0 PUSH0 PUSH0 PUSH0 PUSH0 PUSH1 0xA0 DUP7 DUP9 SUB SLT ISZERO PUSH2 0x32B9 JUMPI PUSH2 0x32B8 PUSH2 0x2A35 JUMP JUMPDEST JUMPDEST PUSH0 PUSH2 0x32C6 DUP9 DUP3 DUP10 ADD PUSH2 0x3157 JUMP JUMPDEST SWAP6 POP POP PUSH1 0x20 DUP7 ADD CALLDATALOAD PUSH8 0xFFFFFFFFFFFFFFFF DUP2 GT ISZERO PUSH2 0x32E7 JUMPI PUSH2 0x32E6 PUSH2 0x2A39 JUMP JUMPDEST JUMPDEST PUSH2 0x32F3 DUP9 DUP3 DUP10 ADD PUSH2 0x3016 JUMP JUMPDEST SWAP5 POP POP PUSH1 0x40 DUP7 ADD CALLDATALOAD PUSH8 0xFFFFFFFFFFFFFFFF DUP2 GT ISZERO PUSH2 0x3314 JUMPI PUSH2 0x3313 PUSH2 0x2A39 JUMP JUMPDEST JUMPDEST PUSH2 0x3320 DUP9 DUP3 DUP10 ADD PUSH2 0x3016 JUMP JUMPDEST SWAP4 POP POP PUSH1 0x60 DUP7 ADD CALLDATALOAD PUSH8 0xFFFFFFFFFFFFFFFF DUP2 GT ISZERO PUSH2 0x3341 JUMPI PUSH2 0x3340 PUSH2 0x2A39 JUMP JUMPDEST JUMPDEST PUSH2 0x334D DUP9 DUP3 DUP10 ADD PUSH2 0x3016 JUMP JUMPDEST SWAP3 POP POP PUSH1 0x80 PUSH2 0x335E DUP9 DUP3 DUP10 ADD PUSH2 0x328C JUMP JUMPDEST SWAP2 POP POP SWAP3 SWAP6 POP SWAP3 SWAP6 SWAP1 SWAP4 POP JUMP JUMPDEST PUSH0 DUP2 MLOAD SWAP1 POP SWAP2 SWAP1 POP JUMP JUMPDEST PUSH0 DUP3 DUP3 MSTORE PUSH1 0x20 DUP3 ADD SWAP1 POP SWAP3 SWAP2 POP POP JUMP JUMPDEST PUSH0 DUP2 SWAP1 POP PUSH1 0x20 DUP3 ADD SWAP1 POP SWAP2 SWAP1 POP JUMP JUMPDEST PUSH2 0x339D DUP2 PUSH2 0x3043 JUMP JUMPDEST DUP3 MSTORE POP POP JUMP JUMPDEST PUSH0 PUSH2 0x100 DUP4 ADD PUSH0 DUP4 ADD MLOAD PUSH2 0x33B9 PUSH0 DUP7 ADD DUP3 PUSH2 0x2A9B JUMP JUMPDEST POP PUSH1 0x20 DUP4 ADD MLOAD PUSH2 0x33CC PUSH1 0x20 DUP7 ADD DUP3 PUSH2 0x2A9B JUMP JUMPDEST POP PUSH1 0x40 DUP4 ADD MLOAD PUSH2 0x33DF PUSH1 0x40 DUP7 ADD DUP3 PUSH2 0x2ADA JUMP JUMPDEST POP PUSH1 0x60 DUP4 ADD MLOAD DUP5 DUP3 SUB PUSH1 0x60 DUP7 ADD MSTORE PUSH2 0x33F7 DUP3 DUP3 PUSH2 0x2B21 JUMP JUMPDEST SWAP2 POP POP PUSH1 0x80 DUP4 ADD MLOAD DUP5 DUP3 SUB PUSH1 0x80 DUP7 ADD MSTORE PUSH2 0x3411 DUP3 DUP3 PUSH2 0x2B21 JUMP JUMPDEST SWAP2 POP POP PUSH1 0xA0 DUP4 ADD MLOAD PUSH2 0x3426 PUSH1 0xA0 DUP7 ADD DUP3 PUSH2 0x2A9B JUMP JUMPDEST POP PUSH1 0xC0 DUP4 ADD MLOAD DUP5 DUP3 SUB PUSH1 0xC0 DUP7 ADD MSTORE PUSH2 0x343E DUP3 DUP3 PUSH2 0x2B21 JUMP JUMPDEST SWAP2 POP POP PUSH1 0xE0 DUP4 ADD MLOAD PUSH2 0x3453 PUSH1 0xE0 DUP7 ADD DUP3 PUSH2 0x3394 JUMP JUMPDEST POP DUP1 SWAP2 POP POP SWAP3 SWAP2 POP POP JUMP JUMPDEST PUSH0 PUSH2 0x3469 DUP4 DUP4 PUSH2 0x33A3 JUMP JUMPDEST SWAP1 POP SWAP3 SWAP2 POP POP JUMP JUMPDEST PUSH0 PUSH1 0x20 DUP3 ADD SWAP1 POP SWAP2 SWAP1 POP JUMP JUMPDEST PUSH0 PUSH2 0x3487 DUP3 PUSH2 0x336B JUMP JUMPDEST PUSH2 0x3491 DUP2 DUP6 PUSH2 0x3375 JUMP JUMPDEST SWAP4 POP DUP4 PUSH1 0x20 DUP3 MUL DUP6 ADD PUSH2 0x34A3 DUP6 PUSH2 0x3385 JUMP JUMPDEST DUP1 PUSH0 JUMPDEST DUP6 DUP2 LT ISZERO PUSH2 0x34DE JUMPI DUP5 DUP5 SUB DUP10 MSTORE DUP2 MLOAD PUSH2 0x34BF DUP6 DUP3 PUSH2 0x345E JUMP JUMPDEST SWAP5 POP PUSH2 0x34CA DUP4 PUSH2 0x3471 JUMP JUMPDEST SWAP3 POP PUSH1 0x20 DUP11 ADD SWAP10 POP POP PUSH1 0x1 DUP2 ADD SWAP1 POP PUSH2 0x34A6 JUMP JUMPDEST POP DUP3 SWAP8 POP DUP8 SWAP6 POP POP POP POP POP POP SWAP3 SWAP2 POP POP JUMP JUMPDEST PUSH0 PUSH1 0x20 DUP3 ADD SWAP1 POP DUP2 DUP2 SUB PUSH0 DUP4 ADD MSTORE PUSH2 0x3508 DUP2 DUP5 PUSH2 0x347D JUMP JUMPDEST SWAP1 POP SWAP3 SWAP2 POP POP JUMP JUMPDEST PUSH0 DUP3 DUP3 MSTORE PUSH1 0x20 DUP3 ADD SWAP1 POP SWAP3 SWAP2 POP POP JUMP JUMPDEST PUSH0 PUSH2 0x352A DUP3 PUSH2 0x2BCC JUMP JUMPDEST PUSH2 0x3534 DUP2 DUP6 PUSH2 0x3510 JUMP JUMPDEST SWAP4 POP PUSH2 0x353F DUP4 PUSH2 0x2BE6 JUMP JUMPDEST DUP1 PUSH0 JUMPDEST DUP4 DUP2 LT ISZERO PUSH2 0x356F JUMPI DUP2 MLOAD PUSH2 0x3556 DUP9 DUP3 PUSH2 0x2BF5 JUMP JUMPDEST SWAP8 POP PUSH2 0x3561 DUP4 PUSH2 0x2C0C JUMP JUMPDEST SWAP3 POP POP PUSH1 0x1 DUP2 ADD SWAP1 POP PUSH2 0x3542 JUMP JUMPDEST POP DUP6 SWAP4 POP POP POP POP SWAP3 SWAP2 POP POP JUMP JUMPDEST PUSH0 PUSH1 0x20 DUP3 ADD SWAP1 POP DUP2 DUP2 SUB PUSH0 DUP4 ADD MSTORE PUSH2 0x3594 DUP2 DUP5 PUSH2 0x3520 JUMP JUMPDEST SWAP1 POP SWAP3 SWAP2 POP POP JUMP JUMPDEST PUSH1 0x7 DUP2 LT PUSH2 0x35A8 JUMPI PUSH0 PUSH0 REVERT JUMPDEST POP JUMP JUMPDEST PUSH0 DUP2 CALLDATALOAD SWAP1 POP PUSH2 0x35B9 DUP2 PUSH2 0x359C JUMP JUMPDEST SWAP3 SWAP2 POP POP JUMP JUMPDEST PUSH0 PUSH0 PUSH1 0x40 DUP4 DUP6 SUB SLT ISZERO PUSH2 0x35D5 JUMPI PUSH2 0x35D4 PUSH2 0x2A35 JUMP JUMPDEST JUMPDEST PUSH0 PUSH2 0x35E2 DUP6 DUP3 DUP7 ADD PUSH2 0x2A5C JUMP JUMPDEST SWAP3 POP POP PUSH1 0x20 PUSH2 0x35F3 DUP6 DUP3 DUP7 ADD PUSH2 0x35AB JUMP JUMPDEST SWAP2 POP POP SWAP3 POP SWAP3 SWAP1 POP JUMP JUMPDEST PUSH0 PUSH0 PUSH1 0x40 DUP4 DUP6 SUB SLT ISZERO PUSH2 0x3613 JUMPI PUSH2 0x3612 PUSH2 0x2A35 JUMP JUMPDEST JUMPDEST PUSH0 PUSH2 0x3620 DUP6 DUP3 DUP7 ADD PUSH2 0x3157 JUMP JUMPDEST SWAP3 POP POP PUSH1 0x20 PUSH2 0x3631 DUP6 DUP3 DUP7 ADD PUSH2 0x2A5C JUMP JUMPDEST SWAP2 POP POP SWAP3 POP SWAP3 SWAP1 POP JUMP JUMPDEST PUSH1 0x5 DUP2 LT PUSH2 0x364C JUMPI PUSH2 0x364B PUSH2 0x2B59 JUMP JUMPDEST JUMPDEST POP JUMP JUMPDEST PUSH0 DUP2 SWAP1 POP PUSH2 0x365C DUP3 PUSH2 0x363B JUMP JUMPDEST SWAP2 SWAP1 POP JUMP JUMPDEST PUSH0 PUSH2 0x366B DUP3 PUSH2 0x364F JUMP JUMPDEST SWAP1 POP SWAP2 SWAP1 POP JUMP JUMPDEST PUSH2 0x367B DUP2 PUSH2 0x3661 JUMP JUMPDEST DUP3 MSTORE POP POP JUMP JUMPDEST PUSH0 PUSH1 0xE0 DUP3 ADD SWAP1 POP PUSH2 0x3694 PUSH0 DUP4 ADD DUP11 PUSH2 0x2DCB JUMP JUMPDEST PUSH2 0x36A1 PUSH1 0x20 DUP4 ADD DUP10 PUSH2 0x2DCB JUMP JUMPDEST PUSH2 0x36AE PUSH1 0x40 DUP4 ADD DUP9 PUSH2 0x3672 JUMP JUMPDEST PUSH2 0x36BB PUSH1 0x60 DUP4 ADD DUP8 PUSH2 0x2DF3 JUMP JUMPDEST DUP2 DUP2 SUB PUSH1 0x80 DUP4 ADD MSTORE PUSH2 0x36CD DUP2 DUP7 PUSH2 0x2E12 JUMP JUMPDEST SWAP1 POP PUSH2 0x36DC PUSH1 0xA0 DUP4 ADD DUP6 PUSH2 0x2DCB JUMP JUMPDEST PUSH2 0x36E9 PUSH1 0xC0 DUP4 ADD DUP5 PUSH2 0x2E59 JUMP JUMPDEST SWAP9 SWAP8 POP POP POP POP POP POP POP POP JUMP JUMPDEST PUSH0 PUSH1 0x20 DUP3 ADD SWAP1 POP PUSH2 0x3708 PUSH0 DUP4 ADD DUP5 PUSH2 0x2E59 JUMP JUMPDEST SWAP3 SWAP2 POP POP JUMP JUMPDEST PUSH2 0x3717 DUP2 PUSH2 0x3043 JUMP JUMPDEST DUP3 MSTORE POP POP JUMP JUMPDEST PUSH0 PUSH2 0x100 DUP3 ADD SWAP1 POP PUSH2 0x3731 PUSH0 DUP4 ADD DUP12 PUSH2 0x2DCB JUMP JUMPDEST PUSH2 0x373E PUSH1 0x20 DUP4 ADD DUP11 PUSH2 0x2DCB JUMP JUMPDEST PUSH2 0x374B PUSH1 0x40 DUP4 ADD DUP10 PUSH2 0x2DF3 JUMP JUMPDEST DUP2 DUP2 SUB PUSH1 0x60 DUP4 ADD MSTORE PUSH2 0x375D DUP2 DUP9 PUSH2 0x2E12 JUMP JUMPDEST SWAP1 POP DUP2 DUP2 SUB PUSH1 0x80 DUP4 ADD MSTORE PUSH2 0x3771 DUP2 DUP8 PUSH2 0x2E12 JUMP JUMPDEST SWAP1 POP PUSH2 0x3780 PUSH1 0xA0 DUP4 ADD DUP7 PUSH2 0x2DCB JUMP JUMPDEST DUP2 DUP2 SUB PUSH1 0xC0 DUP4 ADD MSTORE PUSH2 0x3792 DUP2 DUP6 PUSH2 0x2E12 JUMP JUMPDEST SWAP1 POP PUSH2 0x37A1 PUSH1 0xE0 DUP4 ADD DUP5 PUSH2 0x370E JUMP JUMPDEST SWAP10 SWAP9 POP POP POP POP POP POP POP POP POP JUMP JUMPDEST PUSH1 0x6 DUP2 LT PUSH2 0x37BA JUMPI PUSH0 PUSH0 REVERT JUMPDEST POP JUMP JUMPDEST PUSH0 DUP2 CALLDATALOAD SWAP1 POP PUSH2 0x37CB DUP2 PUSH2 0x37AE JUMP JUMPDEST SWAP3 SWAP2 POP POP JUMP JUMPDEST PUSH0 PUSH0 PUSH0 PUSH1 0x60 DUP5 DUP7 SUB SLT ISZERO PUSH2 0x37E8 JUMPI PUSH2 0x37E7 PUSH2 0x2A35 JUMP JUMPDEST JUMPDEST PUSH0 DUP5 ADD CALLDATALOAD PUSH8 0xFFFFFFFFFFFFFFFF DUP2 GT ISZERO PUSH2 0x3805 JUMPI PUSH2 0x3804 PUSH2 0x2A39 JUMP JUMPDEST JUMPDEST PUSH2 0x3811 DUP7 DUP3 DUP8 ADD PUSH2 0x3016 JUMP JUMPDEST SWAP4 POP POP PUSH1 0x20 PUSH2 0x3822 DUP7 DUP3 DUP8 ADD PUSH2 0x37BD JUMP JUMPDEST SWAP3 POP POP PUSH1 0x40 DUP5 ADD CALLDATALOAD PUSH8 0xFFFFFFFFFFFFFFFF DUP2 GT ISZERO PUSH2 0x3843 JUMPI PUSH2 0x3842 PUSH2 0x2A39 JUMP JUMPDEST JUMPDEST PUSH2 0x384F DUP7 DUP3 DUP8 ADD PUSH2 0x3016 JUMP JUMPDEST SWAP2 POP POP SWAP3 POP SWAP3 POP SWAP3 JUMP JUMPDEST PUSH1 0x5 DUP2 LT PUSH2 0x3865 JUMPI PUSH0 PUSH0 REVERT JUMPDEST POP JUMP JUMPDEST PUSH0 DUP2 CALLDATALOAD SWAP1 POP PUSH2 0x3876 DUP2 PUSH2 0x3859 JUMP JUMPDEST SWAP3 SWAP2 POP POP JUMP JUMPDEST PUSH0 PUSH0 PUSH0 PUSH1 0x60 DUP5 DUP7 SUB SLT ISZERO PUSH2 0x3893 JUMPI PUSH2 0x3892 PUSH2 0x2A35 JUMP JUMPDEST JUMPDEST PUSH0 PUSH2 0x38A0 DUP7 DUP3 DUP8 ADD PUSH2 0x2A5C JUMP JUMPDEST SWAP4 POP POP PUSH1 0x20 PUSH2 0x38B1 DUP7 DUP3 DUP8 ADD PUSH2 0x3868 JUMP JUMPDEST SWAP3 POP POP PUSH1 0x40 DUP5 ADD CALLDATALOAD PUSH8 0xFFFFFFFFFFFFFFFF DUP2 GT ISZERO PUSH2 0x38D2 JUMPI PUSH2 0x38D1 PUSH2 0x2A39 JUMP JUMPDEST JUMPDEST PUSH2 0x38DE DUP7 DUP3 DUP8 ADD PUSH2 0x3016 JUMP JUMPDEST SWAP2 POP POP SWAP3 POP SWAP3 POP SWAP3 JUMP JUMPDEST PUSH2 0x38F1 DUP2 PUSH2 0x31BC JUMP JUMPDEST DUP3 MSTORE POP POP JUMP JUMPDEST PUSH0 PUSH1 0xA0 DUP3 ADD SWAP1 POP PUSH2 0x390A PUSH0 DUP4 ADD DUP9 PUSH2 0x2DF3 JUMP JUMPDEST DUP2 DUP2 SUB PUSH1 0x20 DUP4 ADD MSTORE PUSH2 0x391C DUP2 DUP8 PUSH2 0x2E12 JUMP JUMPDEST SWAP1 POP PUSH2 0x392B PUSH1 0x40 DUP4 ADD DUP7 PUSH2 0x38E8 JUMP JUMPDEST DUP2 DUP2 SUB PUSH1 0x60 DUP4 ADD MSTORE PUSH2 0x393D DUP2 DUP6 PUSH2 0x2E12 JUMP JUMPDEST SWAP1 POP PUSH2 0x394C PUSH1 0x80 DUP4 ADD DUP5 PUSH2 0x2E59 JUMP JUMPDEST SWAP7 SWAP6 POP POP POP POP POP POP JUMP JUMPDEST PUSH0 PUSH1 0x20 DUP3 ADD SWAP1 POP PUSH2 0x3969 PUSH0 DUP4 ADD DUP5 PUSH2 0x2DF3 JUMP JUMPDEST SWAP3 SWAP2 POP POP JUMP JUMPDEST PUSH32 0x4E487B7100000000000000000000000000000000000000000000000000000000 PUSH0 MSTORE PUSH1 0x22 PUSH1 0x4 MSTORE PUSH1 0x24 PUSH0 REVERT JUMPDEST PUSH0 PUSH1 0x2 DUP3 DIV SWAP1 POP PUSH1 0x1 DUP3 AND DUP1 PUSH2 0x39B3 JUMPI PUSH1 0x7F DUP3 AND SWAP2 POP JUMPDEST PUSH1 0x20 DUP3 LT DUP2 SUB PUSH2 0x39C6 JUMPI PUSH2 0x39C5 PUSH2 0x396F JUMP JUMPDEST JUMPDEST POP SWAP2 SWAP1 POP JUMP JUMPDEST PUSH32 0x4163746F72206E6F742072656769737465726564206F7220696E616374697665 PUSH0 DUP3 ADD MSTORE POP JUMP JUMPDEST PUSH0 PUSH2 0x3A00 PUSH1 0x20 DUP4 PUSH2 0x2E02 JUMP JUMPDEST SWAP2 POP PUSH2 0x3A0B DUP3 PUSH2 0x39CC JUMP JUMPDEST PUSH1 0x20 DUP3 ADD SWAP1 POP SWAP2 SWAP1 POP JUMP JUMPDEST PUSH0 PUSH1 0x20 DUP3 ADD SWAP1 POP DUP2 DUP2 SUB PUSH0 DUP4 ADD MSTORE PUSH2 0x3A2D DUP2 PUSH2 0x39F4 JUMP JUMPDEST SWAP1 POP SWAP2 SWAP1 POP JUMP JUMPDEST PUSH32 0x536869706D656E7420646F6573206E6F74206578697374000000000000000000 PUSH0 DUP3 ADD MSTORE POP JUMP JUMPDEST PUSH0 PUSH2 0x3A68 PUSH1 0x17 DUP4 PUSH2 0x2E02 JUMP JUMPDEST SWAP2 POP PUSH2 0x3A73 DUP3 PUSH2 0x3A34 JUMP JUMPDEST PUSH1 0x20 DUP3 ADD SWAP1 POP SWAP2 SWAP1 POP JUMP JUMPDEST PUSH0 PUSH1 0x20 DUP3 ADD SWAP1 POP DUP2 DUP2 SUB PUSH0 DUP4 ADD MSTORE PUSH2 0x3A95 DUP2 PUSH2 0x3A5C JUMP JUMPDEST SWAP1 POP SWAP2 SWAP1 POP JUMP JUMPDEST PUSH32 0x4E487B7100000000000000000000000000000000000000000000000000000000 PUSH0 MSTORE PUSH1 0x11 PUSH1 0x4 MSTORE PUSH1 0x24 PUSH0 REVERT JUMPDEST PUSH0 PUSH2 0x3AD3 DUP3 PUSH2 0x2A3D JUMP JUMPDEST SWAP2 POP PUSH32 0xFFFFFFFFFFFFFFFFFFFFFFFFFFFFFFFFFFFFFFFFFFFFFFFFFFFFFFFFFFFFFFFF DUP3 SUB PUSH2 0x3B05 JUMPI PUSH2 0x3B04 PUSH2 0x3A9C JUMP JUMPDEST JUMPDEST PUSH1 0x1 DUP3 ADD SWAP1 POP SWAP2 SWAP1 POP JUMP JUMPDEST PUSH0 DUP2 SWAP1 POP DUP2 PUSH0 MSTORE PUSH1 0x20 PUSH0 KECCAK256 SWAP1 POP SWAP2 SWAP1 POP JUMP JUMPDEST PUSH0 PUSH1 0x20 PUSH1 0x1F DUP4 ADD DIV SWAP1 POP SWAP2 SWAP1 POP JUMP JUMPDEST PUSH0 DUP3 DUP3 SHL SWAP1 POP SWAP3 SWAP2 POP POP JUMP JUMPDEST PUSH0 PUSH1 0x8 DUP4 MUL PUSH2 0x3B6C PUSH32 0xFFFFFFFFFFFFFFFFFFFFFFFFFFFFFFFFFFFFFFFFFFFFFFFFFFFFFFFFFFFFFFFF DUP3 PUSH2 0x3B31 JUMP JUMPDEST PUSH2 0x3B76 DUP7 DUP4 PUSH2 0x3B31 JUMP JUMPDEST SWAP6 POP DUP1 NOT DUP5 AND SWAP4 POP DUP1 DUP7 AND DUP5 OR SWAP3 POP POP POP SWAP4 SWAP3 POP POP POP JUMP JUMPDEST PUSH0 DUP2 SWAP1 POP SWAP2 SWAP1 POP JUMP JUMPDEST PUSH0 PUSH2 0x3BB1 PUSH2 0x3BAC PUSH2 0x3BA7 DUP5 PUSH2 0x2A3D JUMP JUMPDEST PUSH2 0x3B8E JUMP JUMPDEST PUSH2 0x2A3D JUMP JUMPDEST SWAP1 POP SWAP2 SWAP1 POP JUMP JUMPDEST PUSH0 DUP2 SWAP1 POP SWAP2 SWAP1 POP JUMP JUMPDEST PUSH2 0x3BCA DUP4 PUSH2 0x3B97 JUMP JUMPDEST PUSH2 0x3BDE PUSH2 0x3BD6 DUP3 PUSH2 0x3BB8 JUMP JUMPDEST DUP5 DUP5 SLOAD PUSH2 0x3B3D JUMP JUMPDEST DUP3 SSTORE POP POP POP POP JUMP JUMPDEST PUSH0 PUSH0 SWAP1 POP SWAP1 JUMP JUMPDEST PUSH2 0x3BF5 PUSH2 0x3BE6 JUMP JUMPDEST PUSH2 0x3C00 DUP2 DUP5 DUP5 PUSH2 0x3BC1 JUMP JUMPDEST POP POP POP JUMP JUMPDEST JUMPDEST DUP2 DUP2 LT ISZERO PUSH2 0x3C23 JUMPI PUSH2 0x3C18 PUSH0 DUP3 PUSH2 0x3BED JUMP JUMPDEST PUSH1 0x1 DUP2 ADD SWAP1 POP PUSH2 0x3C06 JUMP JUMPDEST POP POP JUMP JUMPDEST PUSH1 0x1F DUP3 GT ISZERO PUSH2 0x3C68 JUMPI PUSH2 0x3C39 DUP2 PUSH2 0x3B10 JUMP JUMPDEST PUSH2 0x3C42 DUP5 PUSH2 0x3B22 JUMP JUMPDEST DUP2 ADD PUSH1 0x20 DUP6 LT ISZERO PUSH2 0x3C51 JUMPI DUP2 SWAP1 POP JUMPDEST PUSH2 0x3C65 PUSH2 0x3C5D DUP6 PUSH2 0x3B22 JUMP JUMPDEST DUP4 ADD DUP3 PUSH2 0x3C05 JUMP JUMPDEST POP POP JUMPDEST POP POP POP JUMP JUMPDEST PUSH0 DUP3 DUP3 SHR SWAP1 POP SWAP3 SWAP2 POP POP JUMP JUMPDEST PUSH0 PUSH2 0x3C88 PUSH0 NOT DUP5 PUSH1 0x8 MUL PUSH2 0x3C6D JUMP JUMPDEST NOT DUP1 DUP4 AND SWAP2 POP POP SWAP3 SWAP2 POP POP JUMP JUMPDEST PUSH0 PUSH2 0x3CA0 DUP4 DUP4 PUSH2 0x3C79 JUMP JUMPDEST SWAP2 POP DUP3 PUSH1 0x2 MUL DUP3 OR SWAP1 POP SWAP3 SWAP2 POP POP JUMP JUMPDEST PUSH2 0x3CB9 DUP3 PUSH2 0x2AE9 JUMP JUMPDEST PUSH8 0xFFFFFFFFFFFFFFFF DUP2 GT ISZERO PUSH2 0x3CD2 JUMPI PUSH2 0x3CD1 PUSH2 0x2F1F JUMP JUMPDEST JUMPDEST PUSH2 0x3CDC DUP3 SLOAD PUSH2 0x399C JUMP JUMPDEST PUSH2 0x3CE7 DUP3 DUP3 DUP6 PUSH2 0x3C27 JUMP JUMPDEST PUSH0 PUSH1 0x20 SWAP1 POP PUSH1 0x1F DUP4 GT PUSH1 0x1 DUP2 EQ PUSH2 0x3D18 JUMPI PUSH0 DUP5 ISZERO PUSH2 0x3D06 JUMPI DUP3 DUP8 ADD MLOAD SWAP1 POP JUMPDEST PUSH2 0x3D10 DUP6 DUP3 PUSH2 0x3C95 JUMP JUMPDEST DUP7 SSTORE POP PUSH2 0x3D77 JUMP JUMPDEST PUSH1 0x1F NOT DUP5 AND PUSH2 0x3D26 DUP7 PUSH2 0x3B10 JUMP JUMPDEST PUSH0 JUMPDEST DUP3 DUP2 LT ISZERO PUSH2 0x3D4D JUMPI DUP5 DUP10 ADD MLOAD DUP3 SSTORE PUSH1 0x1 DUP3 ADD SWAP2 POP PUSH1 0x20 DUP6 ADD SWAP5 POP PUSH1 0x20 DUP2 ADD SWAP1 POP PUSH2 0x3D28 JUMP JUMPDEST DUP7 DUP4 LT ISZERO PUSH2 0x3D6A JUMPI DUP5 DUP10 ADD MLOAD PUSH2 0x3D66 PUSH1 0x1F DUP10 AND DUP3 PUSH2 0x3C79 JUMP JUMPDEST DUP4 SSTORE POP JUMPDEST PUSH1 0x1 PUSH1 0x2 DUP9 MUL ADD DUP9 SSTORE POP POP POP JUMPDEST POP POP POP POP POP POP JUMP JUMPDEST PUSH0 PUSH1 0x40 DUP3 ADD SWAP1 POP DUP2 DUP2 SUB PUSH0 DUP4 ADD MSTORE PUSH2 0x3D97 DUP2 DUP6 PUSH2 0x2E12 JUMP JUMPDEST SWAP1 POP PUSH2 0x3DA6 PUSH1 0x20 DUP4 ADD DUP5 PUSH2 0x2DF3 JUMP JUMPDEST SWAP4 SWAP3 POP POP POP JUMP JUMPDEST PUSH32 0x4F6E6C792053656E646572732063616E20637265617465000000000000000000 PUSH0 DUP3 ADD MSTORE POP JUMP JUMPDEST PUSH0 PUSH2 0x3DE1 PUSH1 0x17 DUP4 PUSH2 0x2E02 JUMP JUMPDEST SWAP2 POP PUSH2 0x3DEC DUP3 PUSH2 0x3DAD JUMP JUMPDEST PUSH1 0x20 DUP3 ADD SWAP1 POP SWAP2 SWAP1 POP JUMP JUMPDEST PUSH0 PUSH1 0x20 DUP3 ADD SWAP1 POP DUP2 DUP2 SUB PUSH0 DUP4 ADD MSTORE PUSH2 0x3E0E DUP2 PUSH2 0x3DD5 JUMP JUMPDEST SWAP1 POP SWAP2 SWAP1 POP JUMP JUMPDEST PUSH0 PUSH1 0x20 DUP3 ADD SWAP1 POP DUP2 DUP2 SUB PUSH0 DUP4 ADD MSTORE PUSH2 0x3E2D DUP2 DUP5 PUSH2 0x2E12 JUMP JUMPDEST SWAP1 POP SWAP3 SWAP2 POP POP JUMP JUMPDEST PUSH32 0x4F6E6C792061646D696E00000000000000000000000000000000000000000000 PUSH0 DUP3 ADD MSTORE POP JUMP JUMPDEST PUSH0 PUSH2 0x3E69 PUSH1 0xA DUP4 PUSH2 0x2E02 JUMP JUMPDEST SWAP2 POP PUSH2 0x3E74 DUP3 PUSH2 0x3E35 JUMP JUMPDEST PUSH1 0x20 DUP3 ADD SWAP1 POP SWAP2 SWAP1 POP JUMP JUMPDEST PUSH0 PUSH1 0x20 DUP3 ADD SWAP1 POP DUP2 DUP2 SUB PUSH0 DUP4 ADD MSTORE PUSH2 0x3E96 DUP2 PUSH2 0x3E5D JUMP JUMPDEST SWAP1 POP SWAP2 SWAP1 POP JUMP JUMPDEST PUSH32 0x4E487B7100000000000000000000000000000000000000000000000000000000 PUSH0 MSTORE PUSH1 0x32 PUSH1 0x4 MSTORE PUSH1 0x24 PUSH0 REVERT JUMPDEST PUSH0 PUSH1 0x20 DUP3 ADD SWAP1 POP PUSH2 0x3EDD PUSH0 DUP4 ADD DUP5 PUSH2 0x2E4A JUMP JUMPDEST SWAP3 SWAP2 POP POP JUMP JUMPDEST PUSH32 0x4F6E6C792073656E6465722063616E2063616E63656C00000000000000000000 PUSH0 DUP3 ADD MSTORE POP JUMP JUMPDEST PUSH0 PUSH2 0x3F17 PUSH1 0x16 DUP4 PUSH2 0x2E02 JUMP JUMPDEST SWAP2 POP PUSH2 0x3F22 DUP3 PUSH2 0x3EE3 JUMP JUMPDEST PUSH1 0x20 DUP3 ADD SWAP1 POP SWAP2 SWAP1 POP JUMP JUMPDEST PUSH0 PUSH1 0x20 DUP3 ADD SWAP1 POP DUP2 DUP2 SUB PUSH0 DUP4 ADD MSTORE PUSH2 0x3F44 DUP2 PUSH2 0x3F0B JUMP JUMPDEST SWAP1 POP SWAP2 SWAP1 POP JUMP JUMPDEST PUSH32 0x43616E6E6F742063616E63656C206166746572207472616E7369740000000000 PUSH0 DUP3 ADD MSTORE POP JUMP JUMPDEST PUSH0 PUSH2 0x3F7F PUSH1 0x1B DUP4 PUSH2 0x2E02 JUMP JUMPDEST SWAP2 POP PUSH2 0x3F8A DUP3 PUSH2 0x3F4B JUMP JUMPDEST PUSH1 0x20 DUP3 ADD SWAP1 POP SWAP2 SWAP1 POP JUMP JUMPDEST PUSH0 PUSH1 0x20 DUP3 ADD SWAP1 POP DUP2 DUP2 SUB PUSH0 DUP4 ADD MSTORE PUSH2 0x3FAC DUP2 PUSH2 0x3F73 JUMP JUMPDEST SWAP1 POP SWAP2 SWAP1 POP JUMP JUMPDEST PUSH32 0x416C726561647920726567697374657265640000000000000000000000000000 PUSH0 DUP3 ADD MSTORE POP JUMP JUMPDEST PUSH0 PUSH2 0x3FE7 PUSH1 0x12 DUP4 PUSH2 0x2E02 JUMP JUMPDEST SWAP2 POP PUSH2 0x3FF2 DUP3 PUSH2 0x3FB3 JUMP JUMPDEST PUSH1 0x20 DUP3 ADD SWAP1 POP SWAP2 SWAP1 POP JUMP JUMPDEST PUSH0 PUSH1 0x20 DUP3 ADD SWAP1 POP DUP2 DUP2 SUB PUSH0 DUP4 ADD MSTORE PUSH2 0x4014 DUP2 PUSH2 0x3FDB JUMP JUMPDEST SWAP1 POP SWAP2 SWAP1 POP JUMP JUMPDEST PUSH0 PUSH1 0x40 DUP3 ADD SWAP1 POP DUP2 DUP2 SUB PUSH0 DUP4 ADD MSTORE PUSH2 0x4033 DUP2 DUP6 PUSH2 0x2E12 JUMP JUMPDEST SWAP1 POP PUSH2 0x4042 PUSH1 0x20 DUP4 ADD DUP5 PUSH2 0x38E8 JUMP JUMPDEST SWAP4 SWAP3 POP POP POP JUMP JUMPDEST PUSH0 PUSH1 0x20 DUP3 ADD SWAP1 POP PUSH2 0x405C PUSH0 DUP4 ADD DUP5 PUSH2 0x3672 JUMP JUMPDEST SWAP3 SWAP2 POP POP JUMP JUMPDEST PUSH32 0x4F6E6C7920726563697069656E742063616E20636F6E6669726D000000000000 PUSH0 DUP3 ADD MSTORE POP JUMP JUMPDEST PUSH0 PUSH2 0x4096 PUSH1 0x1A DUP4 PUSH2 0x2E02 JUMP JUMPDEST SWAP2 POP PUSH2 0x40A1 DUP3 PUSH2 0x4062 JUMP JUMPDEST PUSH1 0x20 DUP3 ADD SWAP1 POP SWAP2 SWAP1 POP JUMP JUMPDEST PUSH0 PUSH1 0x20 DUP3 ADD SWAP1 POP DUP2 DUP2 SUB PUSH0 DUP4 ADD MSTORE PUSH2 0x40C3 DUP2 PUSH2 0x408A JUMP JUMPDEST SWAP1 POP SWAP2 SWAP1 POP JUMP JUMPDEST PUSH32 0x416C72656164792064656C697665726564000000000000000000000000000000 PUSH0 DUP3 ADD MSTORE POP JUMP JUMPDEST PUSH0 PUSH2 0x40FE PUSH1 0x11 DUP4 PUSH2 0x2E02 JUMP JUMPDEST SWAP2 POP PUSH2 0x4109 DUP3 PUSH2 0x40CA JUMP JUMPDEST PUSH1 0x20 DUP3 ADD SWAP1 POP SWAP2 SWAP1 POP JUMP JUMPDEST PUSH0 PUSH1 0x20 DUP3 ADD SWAP1 POP DUP2 DUP2 SUB PUSH0 DUP4 ADD MSTORE PUSH2 0x412B DUP2 PUSH2 0x40F2 JUMP JUMPDEST SWAP1 POP SWAP2 SWAP1 POP JUMP INVALID LOG2 PUSH5 0x6970667358 0x22 SLT KECCAK256 EXTCODECOPY CALL 0xB2 PUSH1 0xEF 0xCF 0x23 JUMPI PUSH32 0x9FB113801CC08BD729718845BD8A545324F108B142159464736F6C634300081E STOP CALLER "
				},
				"gasEstimates": {
					"creation": {
						"codeDepositCost": "3348800",
						"executionCost": "94311",
						"totalCost": "3443111"
					},
					"external": {
						"actorShipments(address,uint256)": "infinite",
						"actors(address)": "infinite",
						"admin()": "2595",
						"cancelShipment(uint256)": "33152",
						"checkpoints(uint256)": "infinite",
						"confirmDelivery(uint256)": "infinite",
						"createShipment(address,string,string,string,bool)": "infinite",
						"deactivateActor(address)": "27086",
						"getActor(address)": "infinite",
						"getActorShipments(address)": "infinite",
						"getShipment(uint256)": "infinite",
						"getShipmentCheckpoints(uint256)": "infinite",
						"incidents(uint256)": "infinite",
						"nextCheckpointId()": "2493",
						"nextIncidentId()": "2471",
						"nextShipmentId()": "2558",
						"recordCheckpoint(uint256,string,string,string,int256)": "infinite",
						"registerActor(string,uint8,string)": "infinite",
						"reportIncident(uint256,uint8,string)": "infinite",
						"resolveIncident(uint256)": "28139",
						"shipments(uint256)": "infinite",
						"updateShipmentStatus(uint256,uint8)": "31093",
						"verifyTemperatureCompliance(uint256)": "infinite"
					}
				},
				"methodIdentifiers": {
					"actorShipments(address,uint256)": "a113c557",
					"actors(address)": "eaa66a3c",
					"admin()": "f851a440",
					"cancelShipment(uint256)": "7faa7bc7",
					"checkpoints(uint256)": "b8a24252",
					"confirmDelivery(uint256)": "fd84cb97",
					"createShipment(address,string,string,string,bool)": "475b6f98",
					"deactivateActor(address)": "fc436695",
					"getActor(address)": "4138d167",
					"getActorShipments(address)": "72f2f93a",
					"getShipment(uint256)": "092b3740",
					"getShipmentCheckpoints(uint256)": "5f19f4f5",
					"incidents(uint256)": "a6c6a8f3",
					"nextCheckpointId()": "229ec452",
					"nextIncidentId()": "0fd19668",
					"nextShipmentId()": "b9a3a68c",
					"recordCheckpoint(uint256,string,string,string,int256)": "33401ee1",
					"registerActor(string,uint8,string)": "c4edcf8b",
					"reportIncident(uint256,uint8,string)": "e570c367",
					"resolveIncident(uint256)": "4ffe6ae2",
					"shipments(uint256)": "2ac08a93",
					"updateShipmentStatus(uint256,uint8)": "7defa920",
					"verifyTemperatureCompliance(uint256)": "af56a428"
				}
			},
			"storageLayout": {
				"storage": [
					{
						"astId": 98,
						"contract": "src/LogisticsTracking.sol:LogisticsTracking",
						"label": "admin",
						"offset": 0,
						"slot": "0",
						"type": "t_address"
					},
					{
						"astId": 101,
						"contract": "src/LogisticsTracking.sol:LogisticsTracking",
						"label": "nextShipmentId",
						"offset": 0,
						"slot": "1",
						"type": "t_uint256"
					},
					{
						"astId": 104,
						"contract": "src/LogisticsTracking.sol:LogisticsTracking",
						"label": "nextCheckpointId",
						"offset": 0,
						"slot": "2",
						"type": "t_uint256"
					},
					{
						"astId": 107,
						"contract": "src/LogisticsTracking.sol:LogisticsTracking",
						"label": "nextIncidentId",
						"offset": 0,
						"slot": "3",
						"type": "t_uint256"
					},
					{
						"astId": 112,
						"contract": "src/LogisticsTracking.sol:LogisticsTracking",
						"label": "shipments",
						"offset": 0,
						"slot": "4",
						"type": "t_mapping(t_uint256,t_struct(Shipment)63_storage)"
					},
					{
						"astId": 117,
						"contract": "src/LogisticsTracking.sol:LogisticsTracking",
						"label": "checkpoints",
						"offset": 0,
						"slot": "5",
						"type": "t_mapping(t_uint256,t_struct(Checkpoint)80_storage)"
					},
					{
						"astId": 122,
						"contract": "src/LogisticsTracking.sol:LogisticsTracking",
						"label": "incidents",
						"offset": 0,
						"slot": "6",
						"type": "t_mapping(t_uint256,t_struct(Incident)96_storage)"
					},
					{
						"astId": 127,
						"contract": "src/LogisticsTracking.sol:LogisticsTracking",
						"label": "actors",
						"offset": 0,
						"slot": "7",
						"type": "t_mapping(t_address,t_struct(Actor)35_storage)"
					},
					{
						"astId": 132,
						"contract": "src/LogisticsTracking.sol:LogisticsTracking",
						"label": "actorShipments",
						"offset": 0,
						"slot": "8",
						"type": "t_mapping(t_address,t_array(t_uint256)dyn_storage)"
					}
				],
				"types": {
					"t_address": {
						"encoding": "inplace",
						"label": "address",
						"numberOfBytes": "20"
					},
					"t_array(t_uint256)dyn_storage": {
						"base": "t_uint256",
						"encoding": "dynamic_array",
						"label": "uint256[]",
						"numberOfBytes": "32"
					},
					"t_bool": {
						"encoding": "inplace",
						"label": "bool",
						"numberOfBytes": "1"
					},
					"t_enum(ActorRole)17": {
						"encoding": "inplace",
						"label": "enum LogisticsTracking.ActorRole",
						"numberOfBytes": "1"
					},
					"t_enum(IncidentType)23": {
						"encoding": "inplace",
						"label": "enum LogisticsTracking.IncidentType",
						"numberOfBytes": "1"
					},
					"t_enum(ShipmentStatus)10": {
						"encoding": "inplace",
						"label": "enum LogisticsTracking.ShipmentStatus",
						"numberOfBytes": "1"
					},
					"t_int256": {
						"encoding": "inplace",
						"label": "int256",
						"numberOfBytes": "32"
					},
					"t_mapping(t_address,t_array(t_uint256)dyn_storage)": {
						"encoding": "mapping",
						"key": "t_address",
						"label": "mapping(address => uint256[])",
						"numberOfBytes": "32",
						"value": "t_array(t_uint256)dyn_storage"
					},
					"t_mapping(t_address,t_struct(Actor)35_storage)": {
						"encoding": "mapping",
						"key": "t_address",
						"label": "mapping(address => struct LogisticsTracking.Actor)",
						"numberOfBytes": "32",
						"value": "t_struct(Actor)35_storage"
					},
					"t_mapping(t_uint256,t_struct(Checkpoint)80_storage)": {
						"encoding": "mapping",
						"key": "t_uint256",
						"label": "mapping(uint256 => struct LogisticsTracking.Checkpoint)",
						"numberOfBytes": "32",
						"value": "t_struct(Checkpoint)80_storage"
					},
					"t_mapping(t_uint256,t_struct(Incident)96_storage)": {
						"encoding": "mapping",
						"key": "t_uint256",
						"label": "mapping(uint256 => struct LogisticsTracking.Incident)",
						"numberOfBytes": "32",
						"value": "t_struct(Incident)96_storage"
					},
					"t_mapping(t_uint256,t_struct(Shipment)63_storage)": {
						"encoding": "mapping",
						"key": "t_uint256",
						"label": "mapping(uint256 => struct LogisticsTracking.Shipment)",
						"numberOfBytes": "32",
						"value": "t_struct(Shipment)63_storage"
					},
					"t_string_storage": {
						"encoding": "bytes",
						"label": "string",
						"numberOfBytes": "32"
					},
					"t_struct(Actor)35_storage": {
						"encoding": "inplace",
						"label": "struct LogisticsTracking.Actor",
						"members": [
							{
								"astId": 25,
								"contract": "src/LogisticsTracking.sol:LogisticsTracking",
								"label": "actorAddress",
								"offset": 0,
								"slot": "0",
								"type": "t_address"
							},
							{
								"astId": 27,
								"contract": "src/LogisticsTracking.sol:LogisticsTracking",
								"label": "name",
								"offset": 0,
								"slot": "1",
								"type": "t_string_storage"
							},
							{
								"astId": 30,
								"contract": "src/LogisticsTracking.sol:LogisticsTracking",
								"label": "role",
								"offset": 0,
								"slot": "2",
								"type": "t_enum(ActorRole)17"
							},
							{
								"astId": 32,
								"contract": "src/LogisticsTracking.sol:LogisticsTracking",
								"label": "location",
								"offset": 0,
								"slot": "3",
								"type": "t_string_storage"
							},
							{
								"astId": 34,
								"contract": "src/LogisticsTracking.sol:LogisticsTracking",
								"label": "isActive",
								"offset": 0,
								"slot": "4",
								"type": "t_bool"
							}
						],
						"numberOfBytes": "160"
					},
					"t_struct(Checkpoint)80_storage": {
						"encoding": "inplace",
						"label": "struct LogisticsTracking.Checkpoint",
						"members": [
							{
								"astId": 65,
								"contract": "src/LogisticsTracking.sol:LogisticsTracking",
								"label": "id",
								"offset": 0,
								"slot": "0",
								"type": "t_uint256"
							},
							{
								"astId": 67,
								"contract": "src/LogisticsTracking.sol:LogisticsTracking",
								"label": "shipmentId",
								"offset": 0,
								"slot": "1",
								"type": "t_uint256"
							},
							{
								"astId": 69,
								"contract": "src/LogisticsTracking.sol:LogisticsTracking",
								"label": "actor",
								"offset": 0,
								"slot": "2",
								"type": "t_address"
							},
							{
								"astId": 71,
								"contract": "src/LogisticsTracking.sol:LogisticsTracking",
								"label": "location",
								"offset": 0,
								"slot": "3",
								"type": "t_string_storage"
							},
							{
								"astId": 73,
								"contract": "src/LogisticsTracking.sol:LogisticsTracking",
								"label": "checkpointType",
								"offset": 0,
								"slot": "4",
								"type": "t_string_storage"
							},
							{
								"astId": 75,
								"contract": "src/LogisticsTracking.sol:LogisticsTracking",
								"label": "timestamp",
								"offset": 0,
								"slot": "5",
								"type": "t_uint256"
							},
							{
								"astId": 77,
								"contract": "src/LogisticsTracking.sol:LogisticsTracking",
								"label": "notes",
								"offset": 0,
								"slot": "6",
								"type": "t_string_storage"
							},
							{
								"astId": 79,
								"contract": "src/LogisticsTracking.sol:LogisticsTracking",
								"label": "temperature",
								"offset": 0,
								"slot": "7",
								"type": "t_int256"
							}
						],
						"numberOfBytes": "256"
					},
					"t_struct(Incident)96_storage": {
						"encoding": "inplace",
						"label": "struct LogisticsTracking.Incident",
						"members": [
							{
								"astId": 82,
								"contract": "src/LogisticsTracking.sol:LogisticsTracking",
								"label": "id",
								"offset": 0,
								"slot": "0",
								"type": "t_uint256"
							},
							{
								"astId": 84,
								"contract": "src/LogisticsTracking.sol:LogisticsTracking",
								"label": "shipmentId",
								"offset": 0,
								"slot": "1",
								"type": "t_uint256"
							},
							{
								"astId": 87,
								"contract": "src/LogisticsTracking.sol:LogisticsTracking",
								"label": "incidentType",
								"offset": 0,
								"slot": "2",
								"type": "t_enum(IncidentType)23"
							},
							{
								"astId": 89,
								"contract": "src/LogisticsTracking.sol:LogisticsTracking",
								"label": "reporter",
								"offset": 1,
								"slot": "2",
								"type": "t_address"
							},
							{
								"astId": 91,
								"contract": "src/LogisticsTracking.sol:LogisticsTracking",
								"label": "description",
								"offset": 0,
								"slot": "3",
								"type": "t_string_storage"
							},
							{
								"astId": 93,
								"contract": "src/LogisticsTracking.sol:LogisticsTracking",
								"label": "timestamp",
								"offset": 0,
								"slot": "4",
								"type": "t_uint256"
							},
							{
								"astId": 95,
								"contract": "src/LogisticsTracking.sol:LogisticsTracking",
								"label": "resolved",
								"offset": 0,
								"slot": "5",
								"type": "t_bool"
							}
						],
						"numberOfBytes": "192"
					},
					"t_struct(Shipment)63_storage": {
						"encoding": "inplace",
						"label": "struct LogisticsTracking.Shipment",
						"members": [
							{
								"astId": 37,
								"contract": "src/LogisticsTracking.sol:LogisticsTracking",
								"label": "id",
								"offset": 0,
								"slot": "0",
								"type": "t_uint256"
							},
							{
								"astId": 39,
								"contract": "src/LogisticsTracking.sol:LogisticsTracking",
								"label": "sender",
								"offset": 0,
								"slot": "1",
								"type": "t_address"
							},
							{
								"astId": 41,
								"contract": "src/LogisticsTracking.sol:LogisticsTracking",
								"label": "recipient",
								"offset": 0,
								"slot": "2",
								"type": "t_address"
							},
							{
								"astId": 43,
								"contract": "src/LogisticsTracking.sol:LogisticsTracking",
								"label": "product",
								"offset": 0,
								"slot": "3",
								"type": "t_string_storage"
							},
							{
								"astId": 45,
								"contract": "src/LogisticsTracking.sol:LogisticsTracking",
								"label": "origin",
								"offset": 0,
								"slot": "4",
								"type": "t_string_storage"
							},
							{
								"astId": 47,
								"contract": "src/LogisticsTracking.sol:LogisticsTracking",
								"label": "destination",
								"offset": 0,
								"slot": "5",
								"type": "t_string_storage"
							},
							{
								"astId": 49,
								"contract": "src/LogisticsTracking.sol:LogisticsTracking",
								"label": "dateCreated",
								"offset": 0,
								"slot": "6",
								"type": "t_uint256"
							},
							{
								"astId": 51,
								"contract": "src/LogisticsTracking.sol:LogisticsTracking",
								"label": "dateDelivered",
								"offset": 0,
								"slot": "7",
								"type": "t_uint256"
							},
							{
								"astId": 54,
								"contract": "src/LogisticsTracking.sol:LogisticsTracking",
								"label": "status",
								"offset": 0,
								"slot": "8",
								"type": "t_enum(ShipmentStatus)10"
							},
							{
								"astId": 57,
								"contract": "src/LogisticsTracking.sol:LogisticsTracking",
								"label": "checkpointIds",
								"offset": 0,
								"slot": "9",
								"type": "t_array(t_uint256)dyn_storage"
							},
							{
								"astId": 60,
								"contract": "src/LogisticsTracking.sol:LogisticsTracking",
								"label": "incidentIds",
								"offset": 0,
								"slot": "10",
								"type": "t_array(t_uint256)dyn_storage"
							},
							{
								"astId": 62,
								"contract": "src/LogisticsTracking.sol:LogisticsTracking",
								"label": "requiresColdChain",
								"offset": 0,
								"slot": "11",
								"type": "t_bool"
							}
						],
						"numberOfBytes": "384"
					},
					"t_uint256": {
						"encoding": "inplace",
						"label": "uint256",
						"numberOfBytes": "32"
					}
				}
			},
			"userdoc": {
				"kind": "user",
				"methods": {},
				"version": 1
			}
		}
	}
}