{
	"src/LogisticsTracking.sol": {
		"LogisticsTracking": {
			"abi": [
				{
					"inputs": [],
					"stateMutability": "nonpayable",
					"type": "constructor"
				},
				{
					"anonymous": false,
					"inputs": [
						{
							"indexed": true,
							"internalType": "address",
							"name": "actorAddress",
							"type": "address"
						},
						{
							"indexed": false,
							"internalType": "string",
							"name": "name",
							"type": "string"
						},
						{
							"indexed": false,
							"internalType": "enum LogisticsTracking.ActorRole",
							"name": "role",
							"type": "uint8"
						}
					],
					"name": "ActorRegistered",
					"type": "event"
				},
				{
					"anonymous": false,
					"inputs": [
						{
							"indexed": true,
							"internalType": "uint256",
							"name": "checkpointId",
							"type": "uint256"
						},
						{
							"indexed": true,
							"internalType": "uint256",
							"name": "shipmentId",
							"type": "uint256"
						},
						{
							"indexed": false,
							"internalType": "string",
							"name": "location",
							"type": "string"
						},
						{
							"indexed": false,
							"internalType": "address",
							"name": "actor",
							"type": "address"
						}
					],
					"name": "CheckpointRecorded",
					"type": "event"
				},
				{
					"anonymous": false,
					"inputs": [
						{
							"indexed": true,
							"internalType": "uint256",
							"name": "shipmentId",
							"type": "uint256"
						},
						{
							"indexed": true,
							"internalType": "address",
							"name": "recipient",
							"type": "address"
						},
						{
							"indexed": false,
							"internalType": "uint256",
							"name": "timestamp",
							"type": "uint256"
						}
					],
					"name": "DeliveryConfirmed",
					"type": "event"
				},
				{
					"anonymous": false,
					"inputs": [
						{
							"indexed": true,
							"internalType": "uint256",
							"name": "incidentId",
							"type": "uint256"
						},
						{
							"indexed": true,
							"internalType": "uint256",
							"name": "shipmentId",
							"type": "uint256"
						},
						{
							"indexed": false,
							"internalType": "enum LogisticsTracking.IncidentType",
							"name": "incidentType",
							"type": "uint8"
						}
					],
					"name": "IncidentReported",
					"type": "event"
				},
				{
					"anonymous": false,
					"inputs": [
						{
							"indexed": true,
							"internalType": "uint256",
							"name": "incidentId",
							"type": "uint256"
						}
					],
					"name": "IncidentResolved",
					"type": "event"
				},
				{
					"anonymous": false,
					"inputs": [
						{
							"indexed": true,
							"internalType": "uint256",
							"name": "shipmentId",
							"type": "uint256"
						},
						{
							"indexed": true,
							"internalType": "address",
							"name": "sender",
							"type": "address"
						},
						{
							"indexed": true,
							"internalType": "address",
							"name": "recipient",
							"type": "address"
						},
						{
							"indexed": false,
							"internalType": "string",
							"name": "product",
							"type": "string"
						}
					],
					"name": "ShipmentCreated",
					"type": "event"
				},
				{
					"anonymous": false,
					"inputs": [
						{
							"indexed": true,
							"internalType": "uint256",
							"name": "shipmentId",
							"type": "uint256"
						},
						{
							"indexed": false,
							"internalType": "enum LogisticsTracking.ShipmentStatus",
							"name": "newStatus",
							"type": "uint8"
						}
					],
					"name": "ShipmentStatusChanged",
					"type": "event"
				},
				{
					"inputs": [
						{
							"internalType": "address",
							"name": "",
							"type": "address"
						},
						{
							"internalType": "uint256",
							"name": "",
							"type": "uint256"
						}
					],
					"name": "actorShipments",
					"outputs": [
						{
							"internalType": "uint256",
							"name": "",
							"type": "uint256"
						}
					],
					"stateMutability": "view",
					"type": "function"
				},
				{
					"inputs": [
						{
							"internalType": "address",
							"name": "",
							"type": "address"
						}
					],
					"name": "actors",
					"outputs": [
						{
							"internalType": "address",
							"name": "actorAddress",
							"type": "address"
						},
						{
							"internalType": "string",
							"name": "name",
							"type": "string"
						},
						{
							"internalType": "enum LogisticsTracking.ActorRole",
							"name": "role",
							"type": "uint8"
						},
						{
							"internalType": "string",
							"name": "location",
							"type": "string"
						},
						{
							"internalType": "bool",
							"name": "isActive",
							"type": "bool"
						}
					],
					"stateMutability": "view",
					"type": "function"
				},
				{
					"inputs": [],
					"name": "admin",
					"outputs": [
						{
							"internalType": "address",
							"name": "",
							"type": "address"
						}
					],
					"stateMutability": "view",
					"type": "function"
				},
				{
					"inputs": [
						{
							"internalType": "uint256",
							"name": "_shipmentId",
							"type": "uint256"
						}
					],
					"name": "cancelShipment",
					"outputs": [],
					"stateMutability": "nonpayable",
					"type": "function"
				},
				{
					"inputs": [
						{
							"internalType": "uint256",
							"name": "",
							"type": "uint256"
						}
					],
					"name": "checkpoints",
					"outputs": [
						{
							"internalType": "uint256",
							"name": "id",
							"type": "uint256"
						},
						{
							"internalType": "uint256",
							"name": "shipmentId",
							"type": "uint256"
						},
						{
							"internalType": "address",
							"name": "actor",
							"type": "address"
						},
						{
							"internalType": "string",
							"name": "location",
							"type": "string"
						},
						{
							"internalType": "string",
							"name": "checkpointType",
							"type": "string"
						},
						{
							"internalType": "uint256",
							"name": "timestamp",
							"type": "uint256"
						},
						{
							"internalType": "string",
							"name": "notes",
							"type": "string"
						},
						{
							"internalType": "int256",
							"name": "temperature",
							"type": "int256"
						}
					],
					"stateMutability": "view",
					"type": "function"
				},
				{
					"inputs": [
						{
							"internalType": "uint256",
							"name": "_shipmentId",
							"type": "uint256"
						}
					],
					"name": "confirmDelivery",
					"outputs": [],
					"stateMutability": "nonpayable",
					"type": "function"
				},
				{
					"inputs": [
						{
							"internalType": "address",
							"name": "_recipient",
							"type": "address"
						},
						{
							"internalType": "string",
							"name": "_product",
							"type": "string"
						},
						{
							"internalType": "string",
							"name": "_origin",
							"type": "string"
						},
						{
							"internalType": "string",
							"name": "_destination",
							"type": "string"
						},
						{
							"internalType": "bool",
							"name": "_requiresColdChain",
							"type": "bool"
						}
					],
					"name": "createShipment",
					"outputs": [
						{
							"internalType": "uint256",
							"name": "",
							"type": "uint256"
						}
					],
					"stateMutability": "nonpayable",
					"type": "function"
				},
				{
					"inputs": [
						{
							"internalType": "address",
							"name": "_actorAddress",
							"type": "address"
						}
					],
					"name": "deactivateActor",
					"outputs": [],
					"stateMutability": "nonpayable",
					"type": "function"
				},
				{
					"inputs": [
						{
							"internalType": "address",
							"name": "_actorAddress",
							"type": "address"
						}
					],
					"name": "getActor",
					"outputs": [
						{
							"components": [
								{
									"internalType": "address",
									"name": "actorAddress",
									"type": "address"
								},
								{
									"internalType": "string",
									"name": "name",
									"type": "string"
								},
								{
									"internalType": "enum LogisticsTracking.ActorRole",
									"name": "role",
									"type": "uint8"
								},
								{
									"internalType": "string",
									"name": "location",
									"type": "string"
								},
								{
									"internalType": "bool",
									"name": "isActive",
									"type": "bool"
								}
							],
							"internalType": "struct LogisticsTracking.Actor",
							"name": "",
							"type": "tuple"
						}
					],
					"stateMutability": "view",
					"type": "function"
				},
				{
					"inputs": [
						{
							"internalType": "address",
							"name": "_actor",
							"type": "address"
						}
					],
					"name": "getActorShipments",
					"outputs": [
						{
							"internalType": "uint256[]",
							"name": "",
							"type": "uint256[]"
						}
					],
					"stateMutability": "view",
					"type": "function"
				},
				{
					"inputs": [
						{
							"internalType": "uint256",
							"name": "_checkpointId",
							"type": "uint256"
						}
					],
					"name": "getCheckpoint",
					"outputs": [
						{
							"components": [
								{
									"internalType": "uint256",
									"name": "id",
									"type": "uint256"
								},
								{
									"internalType": "uint256",
									"name": "shipmentId",
									"type": "uint256"
								},
								{
									"internalType": "address",
									"name": "actor",
									"type": "address"
								},
								{
									"internalType": "string",
									"name": "location",
									"type": "string"
								},
								{
									"internalType": "string",
									"name": "checkpointType",
									"type": "string"
								},
								{
									"internalType": "uint256",
									"name": "timestamp",
									"type": "uint256"
								},
								{
									"internalType": "string",
									"name": "notes",
									"type": "string"
								},
								{
									"internalType": "int256",
									"name": "temperature",
									"type": "int256"
								}
							],
							"internalType": "struct LogisticsTracking.Checkpoint",
							"name": "",
							"type": "tuple"
						}
					],
					"stateMutability": "view",
					"type": "function"
				},
				{
					"inputs": [
						{
							"internalType": "uint256",
							"name": "_incidentId",
							"type": "uint256"
						}
					],
					"name": "getIncident",
					"outputs": [
						{
							"components": [
								{
									"internalType": "uint256",
									"name": "id",
									"type": "uint256"
								},
								{
									"internalType": "uint256",
									"name": "shipmentId",
									"type": "uint256"
								},
								{
									"internalType": "enum LogisticsTracking.IncidentType",
									"name": "incidentType",
									"type": "uint8"
								},
								{
									"internalType": "address",
									"name": "reporter",
									"type": "address"
								},
								{
									"internalType": "string",
									"name": "description",
									"type": "string"
								},
								{
									"internalType": "uint256",
									"name": "timestamp",
									"type": "uint256"
								},
								{
									"internalType": "bool",
									"name": "resolved",
									"type": "bool"
								}
							],
							"internalType": "struct LogisticsTracking.Incident",
							"name": "",
							"type": "tuple"
						}
					],
					"stateMutability": "view",
					"type": "function"
				},
				{
					"inputs": [
						{
							"internalType": "uint256",
							"name": "_id",
							"type": "uint256"
						}
					],
					"name": "getShipment",
					"outputs": [
						{
							"components": [
								{
									"internalType": "uint256",
									"name": "id",
									"type": "uint256"
								},
								{
									"internalType": "address",
									"name": "sender",
									"type": "address"
								},
								{
									"internalType": "address",
									"name": "recipient",
									"type": "address"
								},
								{
									"internalType": "string",
									"name": "product",
									"type": "string"
								},
								{
									"internalType": "string",
									"name": "origin",
									"type": "string"
								},
								{
									"internalType": "string",
									"name": "destination",
									"type": "string"
								},
								{
									"internalType": "uint256",
									"name": "dateCreated",
									"type": "uint256"
								},
								{
									"internalType": "uint256",
									"name": "dateDelivered",
									"type": "uint256"
								},
								{
									"internalType": "enum LogisticsTracking.ShipmentStatus",
									"name": "status",
									"type": "uint8"
								},
								{
									"internalType": "uint256[]",
									"name": "checkpointIds",
									"type": "uint256[]"
								},
								{
									"internalType": "uint256[]",
									"name": "incidentIds",
									"type": "uint256[]"
								},
								{
									"internalType": "bool",
									"name": "requiresColdChain",
									"type": "bool"
								}
							],
							"internalType": "struct LogisticsTracking.Shipment",
							"name": "",
							"type": "tuple"
						}
					],
					"stateMutability": "view",
					"type": "function"
				},
				{
					"inputs": [
						{
							"internalType": "uint256",
							"name": "_id",
							"type": "uint256"
						}
					],
					"name": "getShipmentCheckpoints",
					"outputs": [
						{
							"components": [
								{
									"internalType": "uint256",
									"name": "id",
									"type": "uint256"
								},
								{
									"internalType": "uint256",
									"name": "shipmentId",
									"type": "uint256"
								},
								{
									"internalType": "address",
									"name": "actor",
									"type": "address"
								},
								{
									"internalType": "string",
									"name": "location",
									"type": "string"
								},
								{
									"internalType": "string",
									"name": "checkpointType",
									"type": "string"
								},
								{
									"internalType": "uint256",
									"name": "timestamp",
									"type": "uint256"
								},
								{
									"internalType": "string",
									"name": "notes",
									"type": "string"
								},
								{
									"internalType": "int256",
									"name": "temperature",
									"type": "int256"
								}
							],
							"internalType": "struct LogisticsTracking.Checkpoint[]",
							"name": "",
							"type": "tuple[]"
						}
					],
					"stateMutability": "view",
					"type": "function"
				},
				{
					"inputs": [
						{
							"internalType": "uint256",
							"name": "_shipmentId",
							"type": "uint256"
						}
					],
					"name": "getShipmentIncidents",
					"outputs": [
						{
							"components": [
								{
									"internalType": "uint256",
									"name": "id",
									"type": "uint256"
								},
								{
									"internalType": "uint256",
									"name": "shipmentId",
									"type": "uint256"
								},
								{
									"internalType": "enum LogisticsTracking.IncidentType",
									"name": "incidentType",
									"type": "uint8"
								},
								{
									"internalType": "address",
									"name": "reporter",
									"type": "address"
								},
								{
									"internalType": "string",
									"name": "description",
									"type": "string"
								},
								{
									"internalType": "uint256",
									"name": "timestamp",
									"type": "uint256"
								},
								{
									"internalType": "bool",
									"name": "resolved",
									"type": "bool"
								}
							],
							"internalType": "struct LogisticsTracking.Incident[]",
							"name": "",
							"type": "tuple[]"
						}
					],
					"stateMutability": "view",
					"type": "function"
				},
				{
					"inputs": [
						{
							"internalType": "uint256",
							"name": "",
							"type": "uint256"
						}
					],
					"name": "incidents",
					"outputs": [
						{
							"internalType": "uint256",
							"name": "id",
							"type": "uint256"
						},
						{
							"internalType": "uint256",
							"name": "shipmentId",
							"type": "uint256"
						},
						{
							"internalType": "enum LogisticsTracking.IncidentType",
							"name": "incidentType",
							"type": "uint8"
						},
						{
							"internalType": "address",
							"name": "reporter",
							"type": "address"
						},
						{
							"internalType": "string",
							"name": "description",
							"type": "string"
						},
						{
							"internalType": "uint256",
							"name": "timestamp",
							"type": "uint256"
						},
						{
							"internalType": "bool",
							"name": "resolved",
							"type": "bool"
						}
					],
					"stateMutability": "view",
					"type": "function"
				},
				{
					"inputs": [
						{
							"internalType": "uint256",
							"name": "incidentId",
							"type": "uint256"
						}
					],
					"name": "isIncidentResolved",
					"outputs": [
						{
							"internalType": "bool",
							"name": "",
							"type": "bool"
						}
					],
					"stateMutability": "view",
					"type": "function"
				},
				{
					"inputs": [],
					"name": "nextCheckpointId",
					"outputs": [
						{
							"internalType": "uint256",
							"name": "",
							"type": "uint256"
						}
					],
					"stateMutability": "view",
					"type": "function"
				},
				{
					"inputs": [],
					"name": "nextIncidentId",
					"outputs": [
						{
							"internalType": "uint256",
							"name": "",
							"type": "uint256"
						}
					],
					"stateMutability": "view",
					"type": "function"
				},
				{
					"inputs": [],
					"name": "nextShipmentId",
					"outputs": [
						{
							"internalType": "uint256",
							"name": "",
							"type": "uint256"
						}
					],
					"stateMutability": "view",
					"type": "function"
				},
				{
					"inputs": [
						{
							"internalType": "uint256",
							"name": "_shipmentId",
							"type": "uint256"
						},
						{
							"internalType": "string",
							"name": "_location",
							"type": "string"
						},
						{
							"internalType": "string",
							"name": "_checkpointType",
							"type": "string"
						},
						{
							"internalType": "string",
							"name": "_notes",
							"type": "string"
						},
						{
							"internalType": "int256",
							"name": "_temperature",
							"type": "int256"
						}
					],
					"name": "recordCheckpoint",
					"outputs": [
						{
							"internalType": "uint256",
							"name": "",
							"type": "uint256"
						}
					],
					"stateMutability": "nonpayable",
					"type": "function"
				},
				{
					"inputs": [
						{
							"internalType": "string",
							"name": "_name",
							"type": "string"
						},
						{
							"internalType": "enum LogisticsTracking.ActorRole",
							"name": "_role",
							"type": "uint8"
						},
						{
							"internalType": "string",
							"name": "_location",
							"type": "string"
						}
					],
					"name": "registerActor",
					"outputs": [],
					"stateMutability": "nonpayable",
					"type": "function"
				},
				{
					"inputs": [
						{
							"internalType": "uint256",
							"name": "_shipmentId",
							"type": "uint256"
						},
						{
							"internalType": "enum LogisticsTracking.IncidentType",
							"name": "_type",
							"type": "uint8"
						},
						{
							"internalType": "string",
							"name": "_desc",
							"type": "string"
						}
					],
					"name": "reportIncident",
					"outputs": [
						{
							"internalType": "uint256",
							"name": "",
							"type": "uint256"
						}
					],
					"stateMutability": "nonpayable",
					"type": "function"
				},
				{
					"inputs": [
						{
							"internalType": "uint256",
							"name": "_incidentId",
							"type": "uint256"
						}
					],
					"name": "resolveIncident",
					"outputs": [],
					"stateMutability": "nonpayable",
					"type": "function"
				},
				{
					"inputs": [
						{
							"internalType": "uint256",
							"name": "",
							"type": "uint256"
						}
					],
					"name": "shipments",
					"outputs": [
						{
							"internalType": "uint256",
							"name": "id",
							"type": "uint256"
						},
						{
							"internalType": "address",
							"name": "sender",
							"type": "address"
						},
						{
							"internalType": "address",
							"name": "recipient",
							"type": "address"
						},
						{
							"internalType": "string",
							"name": "product",
							"type": "string"
						},
						{
							"internalType": "string",
							"name": "origin",
							"type": "string"
						},
						{
							"internalType": "string",
							"name": "destination",
							"type": "string"
						},
						{
							"internalType": "uint256",
							"name": "dateCreated",
							"type": "uint256"
						},
						{
							"internalType": "uint256",
							"name": "dateDelivered",
							"type": "uint256"
						},
						{
							"internalType": "enum LogisticsTracking.ShipmentStatus",
							"name": "status",
							"type": "uint8"
						},
						{
							"internalType": "bool",
							"name": "requiresColdChain",
							"type": "bool"
						}
					],
					"stateMutability": "view",
					"type": "function"
				},
				{
					"inputs": [
						{
							"internalType": "uint256",
							"name": "_shipmentId",
							"type": "uint256"
						},
						{
							"internalType": "enum LogisticsTracking.ShipmentStatus",
							"name": "_newStatus",
							"type": "uint8"
						}
					],
					"name": "updateShipmentStatus",
					"outputs": [],
					"stateMutability": "nonpayable",
					"type": "function"
				},
				{
					"inputs": [
						{
							"internalType": "uint256",
							"name": "_shipmentId",
							"type": "uint256"
						}
					],
					"name": "verifyTemperatureCompliance",
					"outputs": [
						{
							"internalType": "bool",
							"name": "",
							"type": "bool"
						}
					],
					"stateMutability": "view",
					"type": "function"
				}
			],
			"devdoc": {
				"details": "Sistema de trazabilidad logística con soporte para cadena de frío e incidencias.",
				"kind": "dev",
				"methods": {},
				"title": "LogisticsTracking",
				"version": 1
			},
			"evm": {
				"assembly": "    /* \"src/LogisticsTracking.sol\":186:10361  contract LogisticsTracking {... */\n  mstore(0x40, 0x80)\n    /* \"src/LogisticsTracking.sol\":1795:1796  1 */\n  0x01\n    /* \"src/LogisticsTracking.sol\":1763:1796  uint256 public nextShipmentId = 1 */\n  dup1\n  sstore\n    /* \"src/LogisticsTracking.sol\":1836:1837  1 */\n  0x01\n    /* \"src/LogisticsTracking.sol\":1802:1837  uint256 public nextCheckpointId = 1 */\n  0x02\n  sstore\n    /* \"src/LogisticsTracking.sol\":1875:1876  1 */\n  0x01\n    /* \"src/LogisticsTracking.sol\":1843:1876  uint256 public nextIncidentId = 1 */\n  0x03\n  sstore\n    /* \"src/LogisticsTracking.sol\":3507:3556  constructor() {... */\n  callvalue\n  dup1\n  iszero\n  tag_1\n  jumpi\n  revert(0x00, 0x00)\ntag_1:\n  pop\n    /* \"src/LogisticsTracking.sol\":3531:3536  admin */\n  0x00\n    /* \"src/LogisticsTracking.sol\":3531:3549  admin = msg.sender */\n  dup1\n  sload\n  not(sub(shl(0xa0, 0x01), 0x01))\n  and\n    /* \"src/LogisticsTracking.sol\":3539:3549  msg.sender */\n  caller\n    /* \"src/LogisticsTracking.sol\":3531:3549  admin = msg.sender */\n  or\n  swap1\n  sstore\n    /* \"src/LogisticsTracking.sol\":186:10361  contract LogisticsTracking {... */\n  dataSize(sub_0)\n  dup1\n  dataOffset(sub_0)\n  0x00\n  codecopy\n  0x00\n  return\nstop\n\nsub_0: assembly {\n        /* \"src/LogisticsTracking.sol\":186:10361  contract LogisticsTracking {... */\n      mstore(0x40, 0x80)\n      callvalue\n      dup1\n      iszero\n      tag_1\n      jumpi\n      revert(0x00, 0x00)\n    tag_1:\n      pop\n      jumpi(tag_2, lt(calldatasize, 0x04))\n      shr(0xe0, calldataload(0x00))\n      dup1\n      0x7faa7bc7\n      gt\n      tag_30\n      jumpi\n      dup1\n      0xb9a3a68c\n      gt\n      tag_31\n      jumpi\n      dup1\n      0xeaa66a3c\n      gt\n      tag_32\n      jumpi\n      dup1\n      0xeaa66a3c\n      eq\n      tag_26\n      jumpi\n      dup1\n      0xf851a440\n      eq\n      tag_27\n      jumpi\n      dup1\n      0xfc436695\n      eq\n      tag_28\n      jumpi\n      dup1\n      0xfd84cb97\n      eq\n      tag_29\n      jumpi\n      revert(0x00, 0x00)\n    tag_32:\n      dup1\n      0xb9a3a68c\n      eq\n      tag_23\n      jumpi\n      dup1\n      0xc4edcf8b\n      eq\n      tag_24\n      jumpi\n      dup1\n      0xe570c367\n      eq\n      tag_25\n      jumpi\n      revert(0x00, 0x00)\n    tag_31:\n      dup1\n      0xa113c557\n      gt\n      tag_33\n      jumpi\n      dup1\n      0xa113c557\n      eq\n      tag_19\n      jumpi\n      dup1\n      0xa6c6a8f3\n      eq\n      tag_20\n      jumpi\n      dup1\n      0xaf56a428\n      eq\n      tag_21\n      jumpi\n      dup1\n      0xb8a24252\n      eq\n      tag_22\n      jumpi\n      revert(0x00, 0x00)\n    tag_33:\n      dup1\n      0x7faa7bc7\n      eq\n      tag_16\n      jumpi\n      dup1\n      0x925d3478\n      eq\n      tag_17\n      jumpi\n      dup1\n      0x9578615e\n      eq\n      tag_18\n      jumpi\n      revert(0x00, 0x00)\n    tag_30:\n      dup1\n      0x4138d167\n      gt\n      tag_34\n      jumpi\n      dup1\n      0x5f19f4f5\n      gt\n      tag_35\n      jumpi\n      dup1\n      0x5f19f4f5\n      eq\n      tag_12\n      jumpi\n      dup1\n      0x72f2f93a\n      eq\n      tag_13\n      jumpi\n      dup1\n      0x733e28aa\n      eq\n      tag_14\n      jumpi\n      dup1\n      0x7defa920\n      eq\n      tag_15\n      jumpi\n      revert(0x00, 0x00)\n    tag_35:\n      dup1\n      0x4138d167\n      eq\n      tag_9\n      jumpi\n      dup1\n      0x475b6f98\n      eq\n      tag_10\n      jumpi\n      dup1\n      0x4ffe6ae2\n      eq\n      tag_11\n      jumpi\n      revert(0x00, 0x00)\n    tag_34:\n      dup1\n      0x092b3740\n      eq\n      tag_3\n      jumpi\n      dup1\n      0x0fd19668\n      eq\n      tag_4\n      jumpi\n      dup1\n      0x20fc4881\n      eq\n      tag_5\n      jumpi\n      dup1\n      0x229ec452\n      eq\n      tag_6\n      jumpi\n      dup1\n      0x2ac08a93\n      eq\n      tag_7\n      jumpi\n      dup1\n      0x33401ee1\n      eq\n      tag_8\n      jumpi\n    tag_2:\n      revert(0x00, 0x00)\n        /* \"src/LogisticsTracking.sol\":5110:5220  function getShipment(uint256 _id) public view returns (Shipment memory) {... */\n    tag_3:\n      tag_36\n      tag_37\n      calldatasize\n      0x04\n      tag_38\n      jump\t// in\n    tag_37:\n      tag_39\n      jump\t// in\n    tag_36:\n      mload(0x40)\n      tag_40\n      swap2\n      swap1\n      tag_41\n      jump\t// in\n    tag_40:\n      mload(0x40)\n      dup1\n      swap2\n      sub\n      swap1\n      return\n        /* \"src/LogisticsTracking.sol\":1843:1876  uint256 public nextIncidentId = 1 */\n    tag_4:\n      tag_42\n      sload(0x03)\n      dup2\n      jump\n    tag_42:\n      mload(0x40)\n        /* \"#utility.yul\":3423:3448   */\n      swap1\n      dup2\n      mstore\n        /* \"#utility.yul\":3411:3413   */\n      0x20\n        /* \"#utility.yul\":3396:3414   */\n      add\n        /* \"src/LogisticsTracking.sol\":1843:1876  uint256 public nextIncidentId = 1 */\n      tag_40\n        /* \"#utility.yul\":3277:3454   */\n      jump\n        /* \"src/LogisticsTracking.sol\":7576:7813  function getCheckpoint(uint256 _checkpointId) public view returns (Checkpoint memory) {... */\n    tag_5:\n      tag_46\n      tag_47\n      calldatasize\n      0x04\n      tag_38\n      jump\t// in\n    tag_47:\n      tag_48\n      jump\t// in\n    tag_46:\n      mload(0x40)\n      tag_40\n      swap2\n      swap1\n      tag_50\n      jump\t// in\n        /* \"src/LogisticsTracking.sol\":1802:1837  uint256 public nextCheckpointId = 1 */\n    tag_6:\n      tag_42\n      sload(0x02)\n      dup2\n      jump\n        /* \"src/LogisticsTracking.sol\":1883:1928  mapping(uint256 => Shipment) public shipments */\n    tag_7:\n      tag_54\n      tag_55\n      calldatasize\n      0x04\n      tag_38\n      jump\t// in\n    tag_55:\n      tag_56\n      jump\t// in\n    tag_54:\n      mload(0x40)\n      tag_40\n      swap11\n      swap10\n      swap9\n      swap8\n      swap7\n      swap6\n      swap5\n      swap4\n      swap3\n      swap2\n      swap1\n      tag_58\n      jump\t// in\n        /* \"src/LogisticsTracking.sol\":6512:7570  function recordCheckpoint(... */\n    tag_8:\n      tag_42\n      tag_60\n      calldatasize\n      0x04\n      tag_61\n      jump\t// in\n    tag_60:\n      tag_62\n      jump\t// in\n        /* \"src/LogisticsTracking.sol\":3957:4078  function getActor(address _actorAddress) public view returns (Actor memory) {... */\n    tag_9:\n      tag_64\n      tag_65\n      calldatasize\n      0x04\n      tag_66\n      jump\t// in\n    tag_65:\n      tag_67\n      jump\t// in\n    tag_64:\n      mload(0x40)\n      tag_40\n      swap2\n      swap1\n      tag_69\n      jump\t// in\n        /* \"src/LogisticsTracking.sol\":4245:5104  function createShipment(... */\n    tag_10:\n      tag_42\n      tag_71\n      calldatasize\n      0x04\n      tag_72\n      jump\t// in\n    tag_71:\n      tag_73\n      jump\t// in\n        /* \"src/LogisticsTracking.sol\":8786:8948  function resolveIncident(uint256 _incidentId) public onlyAdmin {... */\n    tag_11:\n      tag_75\n      tag_76\n      calldatasize\n      0x04\n      tag_38\n      jump\t// in\n    tag_76:\n      tag_77\n      jump\t// in\n    tag_75:\n      stop\n        /* \"src/LogisticsTracking.sol\":7819:8173  function getShipmentCheckpoints(uint256 _id) public view returns (Checkpoint[] memory) {... */\n    tag_12:\n      tag_78\n      tag_79\n      calldatasize\n      0x04\n      tag_38\n      jump\t// in\n    tag_79:\n      tag_80\n      jump\t// in\n    tag_78:\n      mload(0x40)\n      tag_40\n      swap2\n      swap1\n      tag_82\n      jump\t// in\n        /* \"src/LogisticsTracking.sol\":9644:9772  function getActorShipments(address _actor) public view returns (uint256[] memory) {... */\n    tag_13:\n      tag_83\n      tag_84\n      calldatasize\n      0x04\n      tag_66\n      jump\t// in\n    tag_84:\n      tag_85\n      jump\t// in\n    tag_83:\n      mload(0x40)\n      tag_40\n      swap2\n      swap1\n      tag_87\n      jump\t// in\n        /* \"src/LogisticsTracking.sol\":9179:9602  function getShipmentIncidents(uint256 _shipmentId)... */\n    tag_14:\n      tag_88\n      tag_89\n      calldatasize\n      0x04\n      tag_38\n      jump\t// in\n    tag_89:\n      tag_90\n      jump\t// in\n    tag_88:\n      mload(0x40)\n      tag_40\n      swap2\n      swap1\n      tag_92\n      jump\t// in\n        /* \"src/LogisticsTracking.sol\":5226:5503  function updateShipmentStatus(uint256 _shipmentId, ShipmentStatus _newStatus)... */\n    tag_15:\n      tag_75\n      tag_94\n      calldatasize\n      0x04\n      tag_95\n      jump\t// in\n    tag_94:\n      tag_96\n      jump\t// in\n        /* \"src/LogisticsTracking.sol\":6045:6467  function cancelShipment(uint256 _shipmentId) public shipmentExists(_shipmentId) {... */\n    tag_16:\n      tag_75\n      tag_98\n      calldatasize\n      0x04\n      tag_38\n      jump\t// in\n    tag_98:\n      tag_99\n      jump\t// in\n        /* \"src/LogisticsTracking.sol\":10230:10359  function isIncidentResolved(uint256 incidentId) public view returns (bool) {... */\n    tag_17:\n      tag_100\n      tag_101\n      calldatasize\n      0x04\n      tag_38\n      jump\t// in\n    tag_101:\n        /* \"src/LogisticsTracking.sol\":10299:10303  bool */\n      0x00\n        /* \"src/LogisticsTracking.sol\":10322:10343  incidents[incidentId] */\n      swap1\n      dup2\n      mstore\n        /* \"src/LogisticsTracking.sol\":10322:10331  incidents */\n      0x06\n        /* \"src/LogisticsTracking.sol\":10322:10343  incidents[incidentId] */\n      0x20\n      mstore\n      0x40\n      swap1\n      keccak256\n        /* \"src/LogisticsTracking.sol\":10322:10352  incidents[incidentId].resolved */\n      0x05\n      add\n      sload\n      0xff\n      and\n      swap1\n        /* \"src/LogisticsTracking.sol\":10230:10359  function isIncidentResolved(uint256 incidentId) public view returns (bool) {... */\n      jump\n    tag_100:\n      mload(0x40)\n        /* \"#utility.yul\":13595:13609   */\n      swap1\n      iszero\n        /* \"#utility.yul\":13588:13610   */\n      iszero\n        /* \"#utility.yul\":13570:13611   */\n      dup2\n      mstore\n        /* \"#utility.yul\":13558:13560   */\n      0x20\n        /* \"#utility.yul\":13543:13561   */\n      add\n        /* \"src/LogisticsTracking.sol\":10230:10359  function isIncidentResolved(uint256 incidentId) public view returns (bool) {... */\n      tag_40\n        /* \"#utility.yul\":13430:13617   */\n      jump\n        /* \"src/LogisticsTracking.sol\":8954:9173  function getIncident(uint256 _incidentId) public view returns (Incident memory) {... */\n    tag_18:\n      tag_105\n      tag_106\n      calldatasize\n      0x04\n      tag_38\n      jump\t// in\n    tag_106:\n      tag_107\n      jump\t// in\n    tag_105:\n      mload(0x40)\n      tag_40\n      swap2\n      swap1\n      tag_109\n      jump\t// in\n        /* \"src/LogisticsTracking.sol\":2085:2136  mapping(address => uint256[]) public actorShipments */\n    tag_19:\n      tag_42\n      tag_111\n      calldatasize\n      0x04\n      tag_112\n      jump\t// in\n    tag_111:\n      tag_113\n      jump\t// in\n        /* \"src/LogisticsTracking.sol\":1989:2034  mapping(uint256 => Incident) public incidents */\n    tag_20:\n      tag_115\n      tag_116\n      calldatasize\n      0x04\n      tag_38\n      jump\t// in\n    tag_116:\n      tag_117\n      jump\t// in\n    tag_115:\n      mload(0x40)\n      tag_40\n      swap8\n      swap7\n      swap6\n      swap5\n      swap4\n      swap3\n      swap2\n      swap1\n      tag_119\n      jump\t// in\n        /* \"src/LogisticsTracking.sol\":9778:10224  function verifyTemperatureCompliance(uint256 _shipmentId) public view returns (bool) {... */\n    tag_21:\n      tag_100\n      tag_121\n      calldatasize\n      0x04\n      tag_38\n      jump\t// in\n    tag_121:\n      tag_122\n      jump\t// in\n        /* \"src/LogisticsTracking.sol\":1934:1983  mapping(uint256 => Checkpoint) public checkpoints */\n    tag_22:\n      tag_124\n      tag_125\n      calldatasize\n      0x04\n      tag_38\n      jump\t// in\n    tag_125:\n      tag_126\n      jump\t// in\n    tag_124:\n      mload(0x40)\n      tag_40\n      swap9\n      swap8\n      swap7\n      swap6\n      swap5\n      swap4\n      swap3\n      swap2\n      swap1\n      tag_128\n      jump\t// in\n        /* \"src/LogisticsTracking.sol\":1763:1796  uint256 public nextShipmentId = 1 */\n    tag_23:\n      tag_42\n      sload(0x01)\n      dup2\n      jump\n        /* \"src/LogisticsTracking.sol\":3597:3951  function registerActor(string memory _name, ActorRole _role, string memory _location) public {... */\n    tag_24:\n      tag_75\n      tag_133\n      calldatasize\n      0x04\n      tag_134\n      jump\t// in\n    tag_133:\n      tag_135\n      jump\t// in\n        /* \"src/LogisticsTracking.sol\":8218:8780  function reportIncident(uint256 _shipmentId, IncidentType _type, string memory _desc)... */\n    tag_25:\n      tag_42\n      tag_137\n      calldatasize\n      0x04\n      tag_138\n      jump\t// in\n    tag_137:\n      tag_139\n      jump\t// in\n        /* \"src/LogisticsTracking.sol\":2040:2079  mapping(address => Actor) public actors */\n    tag_26:\n      tag_141\n      tag_142\n      calldatasize\n      0x04\n      tag_66\n      jump\t// in\n    tag_142:\n      tag_143\n      jump\t// in\n    tag_141:\n      mload(0x40)\n      tag_40\n      swap6\n      swap5\n      swap4\n      swap3\n      swap2\n      swap1\n      tag_145\n      jump\t// in\n        /* \"src/LogisticsTracking.sol\":1737:1757  address public admin */\n    tag_27:\n      sload(0x00)\n      tag_146\n      swap1\n      sub(shl(0xa0, 0x01), 0x01)\n      and\n      dup2\n      jump\n    tag_146:\n      mload(0x40)\n      sub(shl(0xa0, 0x01), 0x01)\n        /* \"#utility.yul\":17990:18022   */\n      swap1\n      swap2\n      and\n        /* \"#utility.yul\":17972:18023   */\n      dup2\n      mstore\n        /* \"#utility.yul\":17960:17962   */\n      0x20\n        /* \"#utility.yul\":17945:17963   */\n      add\n        /* \"src/LogisticsTracking.sol\":1737:1757  address public admin */\n      tag_40\n        /* \"#utility.yul\":17826:18029   */\n      jump\n        /* \"src/LogisticsTracking.sol\":4084:4204  function deactivateActor(address _actorAddress) public onlyAdmin {... */\n    tag_28:\n      tag_75\n      tag_151\n      calldatasize\n      0x04\n      tag_66\n      jump\t// in\n    tag_151:\n      tag_152\n      jump\t// in\n        /* \"src/LogisticsTracking.sol\":5509:6039  function confirmDelivery(uint256 _shipmentId) public shipmentExists(_shipmentId) {... */\n    tag_29:\n      tag_75\n      tag_154\n      calldatasize\n      0x04\n      tag_38\n      jump\t// in\n    tag_154:\n      tag_155\n      jump\t// in\n        /* \"src/LogisticsTracking.sol\":5110:5220  function getShipment(uint256 _id) public view returns (Shipment memory) {... */\n    tag_39:\n        /* \"src/LogisticsTracking.sol\":5165:5180  Shipment memory */\n      tag_156\n      tag_157\n      jump\t// in\n    tag_156:\n        /* \"src/LogisticsTracking.sol\":5199:5213  shipments[_id] */\n      0x00\n      dup3\n      dup2\n      mstore\n        /* \"src/LogisticsTracking.sol\":5199:5208  shipments */\n      0x04\n        /* \"src/LogisticsTracking.sol\":5199:5213  shipments[_id] */\n      0x20\n      swap1\n      dup2\n      mstore\n      0x40\n      swap2\n      dup3\n      swap1\n      keccak256\n        /* \"src/LogisticsTracking.sol\":5192:5213  return shipments[_id] */\n      dup3\n      mload\n      0x0180\n      dup2\n      add\n      dup5\n      mstore\n      dup2\n      sload\n      dup2\n      mstore\n      0x01\n      dup3\n      add\n      sload\n      sub(shl(0xa0, 0x01), 0x01)\n      swap1\n      dup2\n      and\n      swap4\n      dup3\n      add\n      swap4\n      swap1\n      swap4\n      mstore\n      0x02\n      dup3\n      add\n      sload\n      swap1\n      swap3\n      and\n      swap3\n      dup3\n      add\n      swap3\n      swap1\n      swap3\n      mstore\n      0x03\n      dup3\n      add\n      dup1\n      sload\n      swap2\n      swap3\n        /* \"src/LogisticsTracking.sol\":5199:5213  shipments[_id] */\n      swap2\n        /* \"src/LogisticsTracking.sol\":5192:5213  return shipments[_id] */\n      0x60\n      dup5\n      add\n      swap2\n      swap1\n      tag_159\n      swap1\n      tag_160\n      jump\t// in\n    tag_159:\n      dup1\n      0x1f\n      add\n      0x20\n      dup1\n      swap2\n      div\n      mul\n      0x20\n      add\n      mload(0x40)\n      swap1\n      dup2\n      add\n      0x40\n      mstore\n      dup1\n      swap3\n      swap2\n      swap1\n      dup2\n      dup2\n      mstore\n      0x20\n      add\n      dup3\n      dup1\n      sload\n      tag_161\n      swap1\n      tag_160\n      jump\t// in\n    tag_161:\n      dup1\n      iszero\n      tag_162\n      jumpi\n      dup1\n      0x1f\n      lt\n      tag_163\n      jumpi\n      0x0100\n      dup1\n      dup4\n      sload\n      div\n      mul\n      dup4\n      mstore\n      swap2\n      0x20\n      add\n      swap2\n      jump(tag_162)\n    tag_163:\n      dup3\n      add\n      swap2\n      swap1\n      0x00\n      mstore\n      keccak256(0x00, 0x20)\n      swap1\n    tag_164:\n      dup2\n      sload\n      dup2\n      mstore\n      swap1\n      0x01\n      add\n      swap1\n      0x20\n      add\n      dup1\n      dup4\n      gt\n      tag_164\n      jumpi\n      dup3\n      swap1\n      sub\n      0x1f\n      and\n      dup3\n      add\n      swap2\n    tag_162:\n      pop\n      pop\n      pop\n      pop\n      pop\n      dup2\n      mstore\n      0x20\n      add\n      0x04\n      dup3\n      add\n      dup1\n      sload\n      tag_165\n      swap1\n      tag_160\n      jump\t// in\n    tag_165:\n      dup1\n      0x1f\n      add\n      0x20\n      dup1\n      swap2\n      div\n      mul\n      0x20\n      add\n      mload(0x40)\n      swap1\n      dup2\n      add\n      0x40\n      mstore\n      dup1\n      swap3\n      swap2\n      swap1\n      dup2\n      dup2\n      mstore\n      0x20\n      add\n      dup3\n      dup1\n      sload\n      tag_166\n      swap1\n      tag_160\n      jump\t// in\n    tag_166:\n      dup1\n      iszero\n      tag_167\n      jumpi\n      dup1\n      0x1f\n      lt\n      tag_168\n      jumpi\n      0x0100\n      dup1\n      dup4\n      sload\n      div\n      mul\n      dup4\n      mstore\n      swap2\n      0x20\n      add\n      swap2\n      jump(tag_167)\n    tag_168:\n      dup3\n      add\n      swap2\n      swap1\n      0x00\n      mstore\n      keccak256(0x00, 0x20)\n      swap1\n    tag_169:\n      dup2\n      sload\n      dup2\n      mstore\n      swap1\n      0x01\n      add\n      swap1\n      0x20\n      add\n      dup1\n      dup4\n      gt\n      tag_169\n      jumpi\n      dup3\n      swap1\n      sub\n      0x1f\n      and\n      dup3\n      add\n      swap2\n    tag_167:\n      pop\n      pop\n      pop\n      pop\n      pop\n      dup2\n      mstore\n      0x20\n      add\n      0x05\n      dup3\n      add\n      dup1\n      sload\n      tag_170\n      swap1\n      tag_160\n      jump\t// in\n    tag_170:\n      dup1\n      0x1f\n      add\n      0x20\n      dup1\n      swap2\n      div\n      mul\n      0x20\n      add\n      mload(0x40)\n      swap1\n      dup2\n      add\n      0x40\n      mstore\n      dup1\n      swap3\n      swap2\n      swap1\n      dup2\n      dup2\n      mstore\n      0x20\n      add\n      dup3\n      dup1\n      sload\n      tag_171\n      swap1\n      tag_160\n      jump\t// in\n    tag_171:\n      dup1\n      iszero\n      tag_172\n      jumpi\n      dup1\n      0x1f\n      lt\n      tag_173\n      jumpi\n      0x0100\n      dup1\n      dup4\n      sload\n      div\n      mul\n      dup4\n      mstore\n      swap2\n      0x20\n      add\n      swap2\n      jump(tag_172)\n    tag_173:\n      dup3\n      add\n      swap2\n      swap1\n      0x00\n      mstore\n      keccak256(0x00, 0x20)\n      swap1\n    tag_174:\n      dup2\n      sload\n      dup2\n      mstore\n      swap1\n      0x01\n      add\n      swap1\n      0x20\n      add\n      dup1\n      dup4\n      gt\n      tag_174\n      jumpi\n      dup3\n      swap1\n      sub\n      0x1f\n      and\n      dup3\n      add\n      swap2\n    tag_172:\n      pop\n      pop\n      pop\n      swap2\n      dup4\n      mstore\n      pop\n      pop\n      0x06\n      dup3\n      dup2\n      add\n      sload\n      0x20\n      dup4\n      add\n      mstore\n      0x07\n      dup4\n      add\n      sload\n      0x40\n      dup4\n      add\n      mstore\n      0x08\n      dup4\n      add\n      sload\n      0x60\n      swap1\n      swap3\n      add\n      swap2\n      0xff\n      and\n      swap1\n      dup2\n      gt\n      iszero\n      tag_176\n      jumpi\n      tag_176\n      tag_177\n      jump\t// in\n    tag_176:\n      0x06\n      dup2\n      gt\n      iszero\n      tag_179\n      jumpi\n      tag_179\n      tag_177\n      jump\t// in\n    tag_179:\n      dup2\n      mstore\n      0x20\n      add\n      0x09\n      dup3\n      add\n      dup1\n      sload\n      dup1\n      0x20\n      mul\n      0x20\n      add\n      mload(0x40)\n      swap1\n      dup2\n      add\n      0x40\n      mstore\n      dup1\n      swap3\n      swap2\n      swap1\n      dup2\n      dup2\n      mstore\n      0x20\n      add\n      dup3\n      dup1\n      sload\n      dup1\n      iszero\n      tag_180\n      jumpi\n      0x20\n      mul\n      dup3\n      add\n      swap2\n      swap1\n      0x00\n      mstore\n      keccak256(0x00, 0x20)\n      swap1\n    tag_181:\n      dup2\n      sload\n      dup2\n      mstore\n      0x20\n      add\n      swap1\n      0x01\n      add\n      swap1\n      dup1\n      dup4\n      gt\n      tag_181\n      jumpi\n    tag_180:\n      pop\n      pop\n      pop\n      pop\n      pop\n      dup2\n      mstore\n      0x20\n      add\n      0x0a\n      dup3\n      add\n      dup1\n      sload\n      dup1\n      0x20\n      mul\n      0x20\n      add\n      mload(0x40)\n      swap1\n      dup2\n      add\n      0x40\n      mstore\n      dup1\n      swap3\n      swap2\n      swap1\n      dup2\n      dup2\n      mstore\n      0x20\n      add\n      dup3\n      dup1\n      sload\n      dup1\n      iszero\n      tag_182\n      jumpi\n      0x20\n      mul\n      dup3\n      add\n      swap2\n      swap1\n      0x00\n      mstore\n      keccak256(0x00, 0x20)\n      swap1\n    tag_183:\n      dup2\n      sload\n      dup2\n      mstore\n      0x20\n      add\n      swap1\n      0x01\n      add\n      swap1\n      dup1\n      dup4\n      gt\n      tag_183\n      jumpi\n    tag_182:\n      pop\n      pop\n      pop\n      swap2\n      dup4\n      mstore\n      pop\n      pop\n      0x0b\n      swap2\n      swap1\n      swap2\n      add\n      sload\n      0xff\n      and\n      iszero\n      iszero\n      0x20\n      swap1\n      swap2\n      add\n      mstore\n      swap3\n        /* \"src/LogisticsTracking.sol\":5110:5220  function getShipment(uint256 _id) public view returns (Shipment memory) {... */\n      swap2\n      pop\n      pop\n      jump\t// out\n        /* \"src/LogisticsTracking.sol\":7576:7813  function getCheckpoint(uint256 _checkpointId) public view returns (Checkpoint memory) {... */\n    tag_48:\n        /* \"src/LogisticsTracking.sol\":7643:7660  Checkpoint memory */\n      tag_184\n      tag_185\n      jump\t// in\n    tag_184:\n        /* \"src/LogisticsTracking.sol\":7696:7697  0 */\n      0x00\n        /* \"src/LogisticsTracking.sol\":7680:7693  _checkpointId */\n      dup3\n        /* \"src/LogisticsTracking.sol\":7680:7697  _checkpointId > 0 */\n      gt\n        /* \"src/LogisticsTracking.sol\":7680:7733  _checkpointId > 0 && _checkpointId < nextCheckpointId */\n      dup1\n      iszero\n      tag_187\n      jumpi\n      pop\n        /* \"src/LogisticsTracking.sol\":7717:7733  nextCheckpointId */\n      sload(0x02)\n        /* \"src/LogisticsTracking.sol\":7701:7714  _checkpointId */\n      dup3\n        /* \"src/LogisticsTracking.sol\":7701:7733  _checkpointId < nextCheckpointId */\n      lt\n        /* \"src/LogisticsTracking.sol\":7680:7733  _checkpointId > 0 && _checkpointId < nextCheckpointId */\n    tag_187:\n        /* \"src/LogisticsTracking.sol\":7672:7763  require(_checkpointId > 0 && _checkpointId < nextCheckpointId, \"Checkpoint does not exist\") */\n      tag_188\n      jumpi\n      mload(0x40)\n      shl(0xe5, 0x461bcd)\n      dup2\n      mstore\n        /* \"#utility.yul\":18621:18623   */\n      0x20\n        /* \"src/LogisticsTracking.sol\":7672:7763  require(_checkpointId > 0 && _checkpointId < nextCheckpointId, \"Checkpoint does not exist\") */\n      0x04\n      dup3\n      add\n        /* \"#utility.yul\":18603:18624   */\n      mstore\n        /* \"#utility.yul\":18660:18662   */\n      0x19\n        /* \"#utility.yul\":18640:18658   */\n      0x24\n      dup3\n      add\n        /* \"#utility.yul\":18633:18663   */\n      mstore\n        /* \"#utility.yul\":18699:18726   */\n      0x436865636b706f696e7420646f6573206e6f7420657869737400000000000000\n        /* \"#utility.yul\":18679:18697   */\n      0x44\n      dup3\n      add\n        /* \"#utility.yul\":18672:18727   */\n      mstore\n        /* \"#utility.yul\":18744:18762   */\n      0x64\n      add\n        /* \"src/LogisticsTracking.sol\":7672:7763  require(_checkpointId > 0 && _checkpointId < nextCheckpointId, \"Checkpoint does not exist\") */\n    tag_189:\n      mload(0x40)\n      dup1\n      swap2\n      sub\n      swap1\n      revert\n    tag_188:\n        /* \"src/LogisticsTracking.sol\":7780:7806  checkpoints[_checkpointId] */\n      0x00\n      dup3\n      dup2\n      mstore\n        /* \"src/LogisticsTracking.sol\":7780:7791  checkpoints */\n      0x05\n        /* \"src/LogisticsTracking.sol\":7780:7806  checkpoints[_checkpointId] */\n      0x20\n      swap1\n      dup2\n      mstore\n      0x40\n      swap2\n      dup3\n      swap1\n      keccak256\n        /* \"src/LogisticsTracking.sol\":7773:7806  return checkpoints[_checkpointId] */\n      dup3\n      mload\n      0x0100\n      dup2\n      add\n      dup5\n      mstore\n      dup2\n      sload\n      dup2\n      mstore\n      0x01\n      dup3\n      add\n      sload\n      swap3\n      dup2\n      add\n      swap3\n      swap1\n      swap3\n      mstore\n      0x02\n      dup2\n      add\n      sload\n      sub(shl(0xa0, 0x01), 0x01)\n      and\n      swap3\n      dup3\n      add\n      swap3\n      swap1\n      swap3\n      mstore\n      0x03\n      dup3\n      add\n      dup1\n      sload\n      swap2\n      swap3\n        /* \"src/LogisticsTracking.sol\":7780:7806  checkpoints[_checkpointId] */\n      swap2\n        /* \"src/LogisticsTracking.sol\":7773:7806  return checkpoints[_checkpointId] */\n      0x60\n      dup5\n      add\n      swap2\n      swap1\n      tag_191\n      swap1\n      tag_160\n      jump\t// in\n    tag_191:\n      dup1\n      0x1f\n      add\n      0x20\n      dup1\n      swap2\n      div\n      mul\n      0x20\n      add\n      mload(0x40)\n      swap1\n      dup2\n      add\n      0x40\n      mstore\n      dup1\n      swap3\n      swap2\n      swap1\n      dup2\n      dup2\n      mstore\n      0x20\n      add\n      dup3\n      dup1\n      sload\n      tag_192\n      swap1\n      tag_160\n      jump\t// in\n    tag_192:\n      dup1\n      iszero\n      tag_193\n      jumpi\n      dup1\n      0x1f\n      lt\n      tag_194\n      jumpi\n      0x0100\n      dup1\n      dup4\n      sload\n      div\n      mul\n      dup4\n      mstore\n      swap2\n      0x20\n      add\n      swap2\n      jump(tag_193)\n    tag_194:\n      dup3\n      add\n      swap2\n      swap1\n      0x00\n      mstore\n      keccak256(0x00, 0x20)\n      swap1\n    tag_195:\n      dup2\n      sload\n      dup2\n      mstore\n      swap1\n      0x01\n      add\n      swap1\n      0x20\n      add\n      dup1\n      dup4\n      gt\n      tag_195\n      jumpi\n      dup3\n      swap1\n      sub\n      0x1f\n      and\n      dup3\n      add\n      swap2\n    tag_193:\n      pop\n      pop\n      pop\n      pop\n      pop\n      dup2\n      mstore\n      0x20\n      add\n      0x04\n      dup3\n      add\n      dup1\n      sload\n      tag_196\n      swap1\n      tag_160\n      jump\t// in\n    tag_196:\n      dup1\n      0x1f\n      add\n      0x20\n      dup1\n      swap2\n      div\n      mul\n      0x20\n      add\n      mload(0x40)\n      swap1\n      dup2\n      add\n      0x40\n      mstore\n      dup1\n      swap3\n      swap2\n      swap1\n      dup2\n      dup2\n      mstore\n      0x20\n      add\n      dup3\n      dup1\n      sload\n      tag_197\n      swap1\n      tag_160\n      jump\t// in\n    tag_197:\n      dup1\n      iszero\n      tag_198\n      jumpi\n      dup1\n      0x1f\n      lt\n      tag_199\n      jumpi\n      0x0100\n      dup1\n      dup4\n      sload\n      div\n      mul\n      dup4\n      mstore\n      swap2\n      0x20\n      add\n      swap2\n      jump(tag_198)\n    tag_199:\n      dup3\n      add\n      swap2\n      swap1\n      0x00\n      mstore\n      keccak256(0x00, 0x20)\n      swap1\n    tag_200:\n      dup2\n      sload\n      dup2\n      mstore\n      swap1\n      0x01\n      add\n      swap1\n      0x20\n      add\n      dup1\n      dup4\n      gt\n      tag_200\n      jumpi\n      dup3\n      swap1\n      sub\n      0x1f\n      and\n      dup3\n      add\n      swap2\n    tag_198:\n      pop\n      pop\n      pop\n      pop\n      pop\n      dup2\n      mstore\n      0x20\n      add\n      0x05\n      dup3\n      add\n      sload\n      dup2\n      mstore\n      0x20\n      add\n      0x06\n      dup3\n      add\n      dup1\n      sload\n      tag_201\n      swap1\n      tag_160\n      jump\t// in\n    tag_201:\n      dup1\n      0x1f\n      add\n      0x20\n      dup1\n      swap2\n      div\n      mul\n      0x20\n      add\n      mload(0x40)\n      swap1\n      dup2\n      add\n      0x40\n      mstore\n      dup1\n      swap3\n      swap2\n      swap1\n      dup2\n      dup2\n      mstore\n      0x20\n      add\n      dup3\n      dup1\n      sload\n      tag_202\n      swap1\n      tag_160\n      jump\t// in\n    tag_202:\n      dup1\n      iszero\n      tag_203\n      jumpi\n      dup1\n      0x1f\n      lt\n      tag_204\n      jumpi\n      0x0100\n      dup1\n      dup4\n      sload\n      div\n      mul\n      dup4\n      mstore\n      swap2\n      0x20\n      add\n      swap2\n      jump(tag_203)\n    tag_204:\n      dup3\n      add\n      swap2\n      swap1\n      0x00\n      mstore\n      keccak256(0x00, 0x20)\n      swap1\n    tag_205:\n      dup2\n      sload\n      dup2\n      mstore\n      swap1\n      0x01\n      add\n      swap1\n      0x20\n      add\n      dup1\n      dup4\n      gt\n      tag_205\n      jumpi\n      dup3\n      swap1\n      sub\n      0x1f\n      and\n      dup3\n      add\n      swap2\n    tag_203:\n      pop\n      pop\n      pop\n      pop\n      pop\n      dup2\n      mstore\n      0x20\n      add\n      0x07\n      dup3\n      add\n      sload\n      dup2\n      mstore\n      pop\n      pop\n      swap1\n      pop\n        /* \"src/LogisticsTracking.sol\":7576:7813  function getCheckpoint(uint256 _checkpointId) public view returns (Checkpoint memory) {... */\n      swap2\n      swap1\n      pop\n      jump\t// out\n        /* \"src/LogisticsTracking.sol\":1883:1928  mapping(uint256 => Shipment) public shipments */\n    tag_56:\n      mstore(0x20, 0x04)\n      0x00\n      swap1\n      dup2\n      mstore\n      0x40\n      swap1\n      keccak256\n      dup1\n      sload\n      0x01\n      dup3\n      add\n      sload\n      0x02\n      dup4\n      add\n      sload\n      0x03\n      dup5\n      add\n      dup1\n      sload\n      swap4\n      swap5\n      sub(shl(0xa0, 0x01), 0x01)\n      swap4\n      dup5\n      and\n      swap5\n      swap4\n      swap1\n      swap3\n      and\n      swap3\n      tag_206\n      swap1\n      tag_160\n      jump\t// in\n    tag_206:\n      dup1\n      0x1f\n      add\n      0x20\n      dup1\n      swap2\n      div\n      mul\n      0x20\n      add\n      mload(0x40)\n      swap1\n      dup2\n      add\n      0x40\n      mstore\n      dup1\n      swap3\n      swap2\n      swap1\n      dup2\n      dup2\n      mstore\n      0x20\n      add\n      dup3\n      dup1\n      sload\n      tag_207\n      swap1\n      tag_160\n      jump\t// in\n    tag_207:\n      dup1\n      iszero\n      tag_208\n      jumpi\n      dup1\n      0x1f\n      lt\n      tag_209\n      jumpi\n      0x0100\n      dup1\n      dup4\n      sload\n      div\n      mul\n      dup4\n      mstore\n      swap2\n      0x20\n      add\n      swap2\n      jump(tag_208)\n    tag_209:\n      dup3\n      add\n      swap2\n      swap1\n      0x00\n      mstore\n      keccak256(0x00, 0x20)\n      swap1\n    tag_210:\n      dup2\n      sload\n      dup2\n      mstore\n      swap1\n      0x01\n      add\n      swap1\n      0x20\n      add\n      dup1\n      dup4\n      gt\n      tag_210\n      jumpi\n      dup3\n      swap1\n      sub\n      0x1f\n      and\n      dup3\n      add\n      swap2\n    tag_208:\n      pop\n      pop\n      pop\n      pop\n      pop\n      swap1\n      dup1\n      0x04\n      add\n      dup1\n      sload\n      tag_211\n      swap1\n      tag_160\n      jump\t// in\n    tag_211:\n      dup1\n      0x1f\n      add\n      0x20\n      dup1\n      swap2\n      div\n      mul\n      0x20\n      add\n      mload(0x40)\n      swap1\n      dup2\n      add\n      0x40\n      mstore\n      dup1\n      swap3\n      swap2\n      swap1\n      dup2\n      dup2\n      mstore\n      0x20\n      add\n      dup3\n      dup1\n      sload\n      tag_212\n      swap1\n      tag_160\n      jump\t// in\n    tag_212:\n      dup1\n      iszero\n      tag_213\n      jumpi\n      dup1\n      0x1f\n      lt\n      tag_214\n      jumpi\n      0x0100\n      dup1\n      dup4\n      sload\n      div\n      mul\n      dup4\n      mstore\n      swap2\n      0x20\n      add\n      swap2\n      jump(tag_213)\n    tag_214:\n      dup3\n      add\n      swap2\n      swap1\n      0x00\n      mstore\n      keccak256(0x00, 0x20)\n      swap1\n    tag_215:\n      dup2\n      sload\n      dup2\n      mstore\n      swap1\n      0x01\n      add\n      swap1\n      0x20\n      add\n      dup1\n      dup4\n      gt\n      tag_215\n      jumpi\n      dup3\n      swap1\n      sub\n      0x1f\n      and\n      dup3\n      add\n      swap2\n    tag_213:\n      pop\n      pop\n      pop\n      pop\n      pop\n      swap1\n      dup1\n      0x05\n      add\n      dup1\n      sload\n      tag_216\n      swap1\n      tag_160\n      jump\t// in\n    tag_216:\n      dup1\n      0x1f\n      add\n      0x20\n      dup1\n      swap2\n      div\n      mul\n      0x20\n      add\n      mload(0x40)\n      swap1\n      dup2\n      add\n      0x40\n      mstore\n      dup1\n      swap3\n      swap2\n      swap1\n      dup2\n      dup2\n      mstore\n      0x20\n      add\n      dup3\n      dup1\n      sload\n      tag_217\n      swap1\n      tag_160\n      jump\t// in\n    tag_217:\n      dup1\n      iszero\n      tag_218\n      jumpi\n      dup1\n      0x1f\n      lt\n      tag_219\n      jumpi\n      0x0100\n      dup1\n      dup4\n      sload\n      div\n      mul\n      dup4\n      mstore\n      swap2\n      0x20\n      add\n      swap2\n      jump(tag_218)\n    tag_219:\n      dup3\n      add\n      swap2\n      swap1\n      0x00\n      mstore\n      keccak256(0x00, 0x20)\n      swap1\n    tag_220:\n      dup2\n      sload\n      dup2\n      mstore\n      swap1\n      0x01\n      add\n      swap1\n      0x20\n      add\n      dup1\n      dup4\n      gt\n      tag_220\n      jumpi\n      dup3\n      swap1\n      sub\n      0x1f\n      and\n      dup3\n      add\n      swap2\n    tag_218:\n      pop\n      pop\n      pop\n      0x06\n      dup5\n      add\n      sload\n      0x07\n      dup6\n      add\n      sload\n      0x08\n      dup7\n      add\n      sload\n      0x0b\n      swap1\n      swap7\n      add\n      sload\n      swap5\n      swap6\n      swap2\n      swap5\n      swap1\n      swap4\n      pop\n      0xff\n      swap2\n      dup3\n      and\n      swap3\n      pop\n      and\n      dup11\n      jump\t// out\n        /* \"src/LogisticsTracking.sol\":6512:7570  function recordCheckpoint(... */\n    tag_62:\n        /* \"src/LogisticsTracking.sol\":6764:6771  uint256 */\n      0x00\n        /* \"src/LogisticsTracking.sol\":3095:3113  _onlyActiveActor() */\n      tag_222\n        /* \"src/LogisticsTracking.sol\":3095:3111  _onlyActiveActor */\n      tag_223\n        /* \"src/LogisticsTracking.sol\":3095:3113  _onlyActiveActor() */\n      jump\t// in\n    tag_222:\n        /* \"src/LogisticsTracking.sol\":6742:6753  _shipmentId */\n      dup6\n        /* \"src/LogisticsTracking.sol\":3321:3341  _shipmentExists(_id) */\n      tag_225\n        /* \"src/LogisticsTracking.sol\":3337:3340  _id */\n      dup2\n        /* \"src/LogisticsTracking.sol\":3321:3336  _shipmentExists */\n      tag_226\n        /* \"src/LogisticsTracking.sol\":3321:3341  _shipmentExists(_id) */\n      jump\t// in\n    tag_225:\n        /* \"src/LogisticsTracking.sol\":6798:6814  nextCheckpointId */\n      0x02\n        /* \"src/LogisticsTracking.sol\":6798:6816  nextCheckpointId++ */\n      dup1\n      sload\n        /* \"src/LogisticsTracking.sol\":6783:6795  uint256 cpId */\n      0x00\n      swap2\n      dup3\n        /* \"src/LogisticsTracking.sol\":6798:6816  nextCheckpointId++ */\n      tag_228\n      dup4\n      tag_229\n      jump\t// in\n    tag_228:\n      swap1\n      swap2\n      sstore\n      pop\n        /* \"src/LogisticsTracking.sol\":6847:7143  Checkpoint({... */\n      0x40\n      dup1\n      mload\n      0x0100\n      dup2\n      add\n      dup3\n      mstore\n      dup3\n      dup2\n      mstore\n      0x20\n      dup1\n      dup3\n      add\n      dup13\n      dup2\n      mstore\n        /* \"src/LogisticsTracking.sol\":6938:6948  msg.sender */\n      caller\n        /* \"src/LogisticsTracking.sol\":6847:7143  Checkpoint({... */\n      dup4\n      dup6\n      add\n      swap1\n      dup2\n      mstore\n      0x60\n      dup5\n      add\n      dup14\n      dup2\n      mstore\n      0x80\n      dup6\n      add\n      dup14\n      swap1\n      mstore\n        /* \"src/LogisticsTracking.sol\":7051:7066  block.timestamp */\n      timestamp\n        /* \"src/LogisticsTracking.sol\":6847:7143  Checkpoint({... */\n      0xa0\n      dup7\n      add\n      mstore\n      0xc0\n      dup6\n      add\n      dup13\n      swap1\n      mstore\n      0xe0\n      dup6\n      add\n      dup12\n      swap1\n      mstore\n      0x00\n        /* \"src/LogisticsTracking.sol\":6827:6844  checkpoints[cpId] */\n      dup8\n      dup2\n      mstore\n        /* \"src/LogisticsTracking.sol\":6827:6838  checkpoints */\n      0x05\n        /* \"src/LogisticsTracking.sol\":6827:6844  checkpoints[cpId] */\n      swap1\n      swap5\n      mstore\n      swap5\n      swap1\n      swap3\n      keccak256\n        /* \"src/LogisticsTracking.sol\":6827:7143  checkpoints[cpId] = Checkpoint({... */\n      dup4\n      mload\n      dup2\n      sstore\n      swap1\n      mload\n      0x01\n      dup3\n      add\n      sstore\n      swap1\n      mload\n      0x02\n      dup3\n      add\n      dup1\n      sload\n      not(sub(shl(0xa0, 0x01), 0x01))\n      and\n      sub(shl(0xa0, 0x01), 0x01)\n      swap1\n      swap3\n      and\n      swap2\n      swap1\n      swap2\n      or\n      swap1\n      sstore\n      swap2\n      mload\n        /* \"src/LogisticsTracking.sol\":6847:7143  Checkpoint({... */\n      swap3\n      swap4\n      pop\n      swap2\n        /* \"src/LogisticsTracking.sol\":6827:7143  checkpoints[cpId] = Checkpoint({... */\n      0x03\n      dup3\n      add\n      swap1\n      tag_230\n      swap1\n      dup3\n      tag_231\n      jump\t// in\n    tag_230:\n      pop\n      0x80\n      dup3\n      add\n      mload\n      0x04\n      dup3\n      add\n      swap1\n      tag_232\n      swap1\n      dup3\n      tag_231\n      jump\t// in\n    tag_232:\n      pop\n      0xa0\n      dup3\n      add\n      mload\n      0x05\n      dup3\n      add\n      sstore\n      0xc0\n      dup3\n      add\n      mload\n      0x06\n      dup3\n      add\n      swap1\n      tag_233\n      swap1\n      dup3\n      tag_231\n      jump\t// in\n    tag_233:\n      pop\n      0xe0\n      swap2\n      swap1\n      swap2\n      add\n      mload\n      0x07\n      swap1\n      swap2\n      add\n      sstore\n        /* \"src/LogisticsTracking.sol\":7154:7176  shipments[_shipmentId] */\n      0x00\n      dup9\n      dup2\n      mstore\n        /* \"src/LogisticsTracking.sol\":7154:7163  shipments */\n      0x04\n        /* \"src/LogisticsTracking.sol\":7154:7176  shipments[_shipmentId] */\n      0x20\n      swap1\n      dup2\n      mstore\n      0x40\n      dup3\n      keccak256\n        /* \"src/LogisticsTracking.sol\":7154:7190  shipments[_shipmentId].checkpointIds */\n      0x09\n      dup2\n      add\n        /* \"src/LogisticsTracking.sol\":7154:7201  shipments[_shipmentId].checkpointIds.push(cpId) */\n      dup1\n      sload\n      0x01\n      dup2\n      add\n      dup3\n      sstore\n      swap1\n      dup5\n      mstore\n      swap2\n      dup4\n      keccak256\n      swap1\n      swap2\n      add\n      dup4\n      swap1\n      sstore\n        /* \"src/LogisticsTracking.sol\":7273:7295  shipments[_shipmentId] */\n      swap1\n      dup10\n      swap1\n      mstore\n        /* \"src/LogisticsTracking.sol\":7273:7313  shipments[_shipmentId].requiresColdChain */\n      0x0b\n      add\n      sload\n      0xff\n      and\n        /* \"src/LogisticsTracking.sol\":7273:7357  shipments[_shipmentId].requiresColdChain && (_temperature > 80 || _temperature < 20) */\n      dup1\n      iszero\n      tag_236\n      jumpi\n      pop\n        /* \"src/LogisticsTracking.sol\":7333:7335  80 */\n      0x50\n        /* \"src/LogisticsTracking.sol\":7318:7330  _temperature */\n      dup5\n        /* \"src/LogisticsTracking.sol\":7318:7335  _temperature > 80 */\n      sgt\n        /* \"src/LogisticsTracking.sol\":7318:7356  _temperature > 80 || _temperature < 20 */\n      dup1\n      tag_236\n      jumpi\n      pop\n        /* \"src/LogisticsTracking.sol\":7354:7356  20 */\n      0x14\n        /* \"src/LogisticsTracking.sol\":7339:7351  _temperature */\n      dup5\n        /* \"src/LogisticsTracking.sol\":7339:7356  _temperature < 20 */\n      slt\n        /* \"src/LogisticsTracking.sol\":7318:7356  _temperature > 80 || _temperature < 20 */\n    tag_236:\n        /* \"src/LogisticsTracking.sol\":7269:7467  if (shipments[_shipmentId].requiresColdChain && (_temperature > 80 || _temperature < 20)) {... */\n      iszero\n      tag_237\n      jumpi\n        /* \"src/LogisticsTracking.sol\":7373:7456  reportIncident(_shipmentId, IncidentType.TempViolation, \"Temperature out of range\") */\n      tag_238\n        /* \"src/LogisticsTracking.sol\":7388:7399  _shipmentId */\n      dup9\n        /* \"src/LogisticsTracking.sol\":7401:7427  IncidentType.TempViolation */\n      0x03\n        /* \"src/LogisticsTracking.sol\":7373:7456  reportIncident(_shipmentId, IncidentType.TempViolation, \"Temperature out of range\") */\n      mload(0x40)\n      dup1\n      0x40\n      add\n      0x40\n      mstore\n      dup1\n      0x18\n      dup2\n      mstore\n      0x20\n      add\n      0x54656d7065726174757265206f7574206f662072616e67650000000000000000\n      dup2\n      mstore\n      pop\n        /* \"src/LogisticsTracking.sol\":7373:7387  reportIncident */\n      tag_139\n        /* \"src/LogisticsTracking.sol\":7373:7456  reportIncident(_shipmentId, IncidentType.TempViolation, \"Temperature out of range\") */\n      jump\t// in\n    tag_238:\n      pop\n        /* \"src/LogisticsTracking.sol\":7269:7467  if (shipments[_shipmentId].requiresColdChain && (_temperature > 80 || _temperature < 20)) {... */\n    tag_237:\n        /* \"src/LogisticsTracking.sol\":7507:7518  _shipmentId */\n      dup8\n        /* \"src/LogisticsTracking.sol\":7501:7505  cpId */\n      dup2\n        /* \"src/LogisticsTracking.sol\":7482:7542  CheckpointRecorded(cpId, _shipmentId, _location, msg.sender) */\n      0x866de744a1d30941b1bccb4355cfb9dacfa65296f3ab651a0d4dce76bf988a71\n        /* \"src/LogisticsTracking.sol\":7520:7529  _location */\n      dup10\n        /* \"src/LogisticsTracking.sol\":7531:7541  msg.sender */\n      caller\n        /* \"src/LogisticsTracking.sol\":7482:7542  CheckpointRecorded(cpId, _shipmentId, _location, msg.sender) */\n      mload(0x40)\n      tag_239\n      swap3\n      swap2\n      swap1\n      tag_240\n      jump\t// in\n    tag_239:\n      mload(0x40)\n      dup1\n      swap2\n      sub\n      swap1\n      log3\n        /* \"src/LogisticsTracking.sol\":7559:7563  cpId */\n      swap8\n        /* \"src/LogisticsTracking.sol\":6512:7570  function recordCheckpoint(... */\n      swap7\n      pop\n      pop\n      pop\n      pop\n      pop\n      pop\n      pop\n      jump\t// out\n        /* \"src/LogisticsTracking.sol\":3957:4078  function getActor(address _actorAddress) public view returns (Actor memory) {... */\n    tag_67:\n        /* \"src/LogisticsTracking.sol\":4019:4031  Actor memory */\n      tag_241\n      0x40\n      dup1\n      mload\n      0xa0\n      dup2\n      add\n      dup3\n      mstore\n      0x00\n      dup1\n      dup3\n      mstore\n      0x60\n      0x20\n      dup4\n      add\n      mstore\n      swap1\n      swap2\n      dup3\n      add\n      swap1\n      dup2\n      mstore\n      0x60\n      0x20\n      dup3\n      add\n      mstore\n      0x00\n      0x40\n      swap1\n      swap2\n      add\n      mstore\n      swap1\n      jump\n    tag_241:\n      sub(shl(0xa0, 0x01), 0x01)\n        /* \"src/LogisticsTracking.sol\":4050:4071  actors[_actorAddress] */\n      dup1\n      dup4\n      and\n      0x00\n      swap1\n      dup2\n      mstore\n        /* \"src/LogisticsTracking.sol\":4050:4056  actors */\n      0x07\n        /* \"src/LogisticsTracking.sol\":4050:4071  actors[_actorAddress] */\n      0x20\n      swap1\n      dup2\n      mstore\n      0x40\n      swap2\n      dup3\n      swap1\n      keccak256\n        /* \"src/LogisticsTracking.sol\":4043:4071  return actors[_actorAddress] */\n      dup3\n      mload\n      0xa0\n      dup2\n      add\n      swap1\n      swap4\n      mstore\n      dup1\n      sload\n      swap1\n      swap4\n      and\n      dup3\n      mstore\n      0x01\n      dup4\n      add\n      dup1\n      sload\n      swap3\n      swap4\n        /* \"src/LogisticsTracking.sol\":4050:4071  actors[_actorAddress] */\n      swap3\n        /* \"src/LogisticsTracking.sol\":4043:4071  return actors[_actorAddress] */\n      swap2\n      dup5\n      add\n      swap2\n      tag_244\n      swap1\n      tag_160\n      jump\t// in\n    tag_244:\n      dup1\n      0x1f\n      add\n      0x20\n      dup1\n      swap2\n      div\n      mul\n      0x20\n      add\n      mload(0x40)\n      swap1\n      dup2\n      add\n      0x40\n      mstore\n      dup1\n      swap3\n      swap2\n      swap1\n      dup2\n      dup2\n      mstore\n      0x20\n      add\n      dup3\n      dup1\n      sload\n      tag_245\n      swap1\n      tag_160\n      jump\t// in\n    tag_245:\n      dup1\n      iszero\n      tag_246\n      jumpi\n      dup1\n      0x1f\n      lt\n      tag_247\n      jumpi\n      0x0100\n      dup1\n      dup4\n      sload\n      div\n      mul\n      dup4\n      mstore\n      swap2\n      0x20\n      add\n      swap2\n      jump(tag_246)\n    tag_247:\n      dup3\n      add\n      swap2\n      swap1\n      0x00\n      mstore\n      keccak256(0x00, 0x20)\n      swap1\n    tag_248:\n      dup2\n      sload\n      dup2\n      mstore\n      swap1\n      0x01\n      add\n      swap1\n      0x20\n      add\n      dup1\n      dup4\n      gt\n      tag_248\n      jumpi\n      dup3\n      swap1\n      sub\n      0x1f\n      and\n      dup3\n      add\n      swap2\n    tag_246:\n      pop\n      pop\n      pop\n      swap2\n      dup4\n      mstore\n      pop\n      pop\n      0x02\n      dup3\n      add\n      sload\n      0x20\n      swap1\n      swap2\n      add\n      swap1\n      0xff\n      and\n      0x05\n      dup2\n      gt\n      iszero\n      tag_250\n      jumpi\n      tag_250\n      tag_177\n      jump\t// in\n    tag_250:\n      0x05\n      dup2\n      gt\n      iszero\n      tag_252\n      jumpi\n      tag_252\n      tag_177\n      jump\t// in\n    tag_252:\n      dup2\n      mstore\n      0x20\n      add\n      0x03\n      dup3\n      add\n      dup1\n      sload\n      tag_253\n      swap1\n      tag_160\n      jump\t// in\n    tag_253:\n      dup1\n      0x1f\n      add\n      0x20\n      dup1\n      swap2\n      div\n      mul\n      0x20\n      add\n      mload(0x40)\n      swap1\n      dup2\n      add\n      0x40\n      mstore\n      dup1\n      swap3\n      swap2\n      swap1\n      dup2\n      dup2\n      mstore\n      0x20\n      add\n      dup3\n      dup1\n      sload\n      tag_254\n      swap1\n      tag_160\n      jump\t// in\n    tag_254:\n      dup1\n      iszero\n      tag_255\n      jumpi\n      dup1\n      0x1f\n      lt\n      tag_256\n      jumpi\n      0x0100\n      dup1\n      dup4\n      sload\n      div\n      mul\n      dup4\n      mstore\n      swap2\n      0x20\n      add\n      swap2\n      jump(tag_255)\n    tag_256:\n      dup3\n      add\n      swap2\n      swap1\n      0x00\n      mstore\n      keccak256(0x00, 0x20)\n      swap1\n    tag_257:\n      dup2\n      sload\n      dup2\n      mstore\n      swap1\n      0x01\n      add\n      swap1\n      0x20\n      add\n      dup1\n      dup4\n      gt\n      tag_257\n      jumpi\n      dup3\n      swap1\n      sub\n      0x1f\n      and\n      dup3\n      add\n      swap2\n    tag_255:\n      pop\n      pop\n      pop\n      swap2\n      dup4\n      mstore\n      pop\n      pop\n      0x04\n      swap2\n      swap1\n      swap2\n      add\n      sload\n      0xff\n      and\n      iszero\n      iszero\n      0x20\n      swap1\n      swap2\n      add\n      mstore\n      swap3\n        /* \"src/LogisticsTracking.sol\":3957:4078  function getActor(address _actorAddress) public view returns (Actor memory) {... */\n      swap2\n      pop\n      pop\n      jump\t// out\n        /* \"src/LogisticsTracking.sol\":4245:5104  function createShipment(... */\n    tag_73:\n        /* \"src/LogisticsTracking.sol\":4467:4474  uint256 */\n      0x00\n        /* \"src/LogisticsTracking.sol\":3095:3113  _onlyActiveActor() */\n      tag_259\n        /* \"src/LogisticsTracking.sol\":3095:3111  _onlyActiveActor */\n      tag_223\n        /* \"src/LogisticsTracking.sol\":3095:3113  _onlyActiveActor() */\n      jump\t// in\n    tag_259:\n        /* \"src/LogisticsTracking.sol\":4521:4537  ActorRole.Sender */\n      0x01\n        /* \"src/LogisticsTracking.sol\":4501:4511  msg.sender */\n      caller\n        /* \"src/LogisticsTracking.sol\":4494:4512  actors[msg.sender] */\n      0x00\n      swap1\n      dup2\n      mstore\n        /* \"src/LogisticsTracking.sol\":4494:4500  actors */\n      0x07\n        /* \"src/LogisticsTracking.sol\":4494:4512  actors[msg.sender] */\n      0x20\n      mstore\n      0x40\n      swap1\n      keccak256\n        /* \"src/LogisticsTracking.sol\":4494:4517  actors[msg.sender].role */\n      0x02\n      add\n      sload\n      0xff\n      and\n        /* \"src/LogisticsTracking.sol\":4494:4537  actors[msg.sender].role == ActorRole.Sender */\n      0x05\n      dup2\n      gt\n      iszero\n      tag_264\n      jumpi\n      tag_264\n      tag_177\n      jump\t// in\n    tag_264:\n      eq\n        /* \"src/LogisticsTracking.sol\":4486:4565  require(actors[msg.sender].role == ActorRole.Sender, \"Only Senders can create\") */\n      tag_265\n      jumpi\n      mload(0x40)\n      shl(0xe5, 0x461bcd)\n      dup2\n      mstore\n        /* \"#utility.yul\":21658:21660   */\n      0x20\n        /* \"src/LogisticsTracking.sol\":4486:4565  require(actors[msg.sender].role == ActorRole.Sender, \"Only Senders can create\") */\n      0x04\n      dup3\n      add\n        /* \"#utility.yul\":21640:21661   */\n      mstore\n        /* \"#utility.yul\":21697:21699   */\n      0x17\n        /* \"#utility.yul\":21677:21695   */\n      0x24\n      dup3\n      add\n        /* \"#utility.yul\":21670:21700   */\n      mstore\n        /* \"#utility.yul\":21736:21761   */\n      0x4f6e6c792053656e646572732063616e20637265617465000000000000000000\n        /* \"#utility.yul\":21716:21734   */\n      0x44\n      dup3\n      add\n        /* \"#utility.yul\":21709:21762   */\n      mstore\n        /* \"#utility.yul\":21779:21797   */\n      0x64\n      add\n        /* \"src/LogisticsTracking.sol\":4486:4565  require(actors[msg.sender].role == ActorRole.Sender, \"Only Senders can create\") */\n      tag_189\n        /* \"#utility.yul\":21456:21803   */\n      jump\n        /* \"src/LogisticsTracking.sol\":4486:4565  require(actors[msg.sender].role == ActorRole.Sender, \"Only Senders can create\") */\n    tag_265:\n        /* \"src/LogisticsTracking.sol\":4589:4603  nextShipmentId */\n      0x01\n        /* \"src/LogisticsTracking.sol\":4589:4605  nextShipmentId++ */\n      dup1\n      sload\n        /* \"src/LogisticsTracking.sol\":4576:4586  uint256 id */\n      0x00\n      swap2\n      dup3\n        /* \"src/LogisticsTracking.sol\":4589:4605  nextShipmentId++ */\n      tag_268\n      dup4\n      tag_229\n      jump\t// in\n    tag_268:\n      swap1\n      swap2\n      sstore\n      pop\n        /* \"src/LogisticsTracking.sol\":4615:4633  Shipment storage s */\n      0x00\n        /* \"src/LogisticsTracking.sol\":4636:4649  shipments[id] */\n      dup2\n      dup2\n      mstore\n        /* \"src/LogisticsTracking.sol\":4636:4645  shipments */\n      0x04\n        /* \"src/LogisticsTracking.sol\":4636:4649  shipments[id] */\n      0x20\n      mstore\n      0x40\n      swap1\n      keccak256\n        /* \"src/LogisticsTracking.sol\":4659:4668  s.id = id */\n      dup2\n      dup2\n      sstore\n        /* \"src/LogisticsTracking.sol\":4678:4686  s.sender */\n      0x01\n      dup2\n      add\n        /* \"src/LogisticsTracking.sol\":4678:4699  s.sender = msg.sender */\n      dup1\n      sload\n        /* \"src/LogisticsTracking.sol\":4689:4699  msg.sender */\n      caller\n      not(sub(shl(0xa0, 0x01), 0x01))\n        /* \"src/LogisticsTracking.sol\":4678:4699  s.sender = msg.sender */\n      swap2\n      dup3\n      and\n      or\n      swap1\n      swap2\n      sstore\n        /* \"src/LogisticsTracking.sol\":4709:4720  s.recipient */\n      0x02\n      dup3\n      add\n        /* \"src/LogisticsTracking.sol\":4709:4733  s.recipient = _recipient */\n      dup1\n      sload\n      swap1\n      swap2\n      and\n      sub(shl(0xa0, 0x01), 0x01)\n      dup12\n      and\n      or\n      swap1\n      sstore\n        /* \"src/LogisticsTracking.sol\":4636:4649  shipments[id] */\n      swap1\n      swap2\n      pop\n        /* \"src/LogisticsTracking.sol\":4743:4752  s.product */\n      0x03\n      dup2\n      add\n        /* \"src/LogisticsTracking.sol\":4743:4763  s.product = _product */\n      tag_269\n        /* \"src/LogisticsTracking.sol\":4755:4763  _product */\n      dup9\n        /* \"src/LogisticsTracking.sol\":4743:4752  s.product */\n      dup3\n        /* \"src/LogisticsTracking.sol\":4743:4763  s.product = _product */\n      tag_231\n      jump\t// in\n    tag_269:\n      pop\n        /* \"src/LogisticsTracking.sol\":4773:4781  s.origin */\n      0x04\n      dup2\n      add\n        /* \"src/LogisticsTracking.sol\":4773:4791  s.origin = _origin */\n      tag_270\n        /* \"src/LogisticsTracking.sol\":4784:4791  _origin */\n      dup8\n        /* \"src/LogisticsTracking.sol\":4773:4781  s.origin */\n      dup3\n        /* \"src/LogisticsTracking.sol\":4773:4791  s.origin = _origin */\n      tag_231\n      jump\t// in\n    tag_270:\n      pop\n        /* \"src/LogisticsTracking.sol\":4801:4814  s.destination */\n      0x05\n      dup2\n      add\n        /* \"src/LogisticsTracking.sol\":4801:4829  s.destination = _destination */\n      tag_271\n        /* \"src/LogisticsTracking.sol\":4817:4829  _destination */\n      dup7\n        /* \"src/LogisticsTracking.sol\":4801:4814  s.destination */\n      dup3\n        /* \"src/LogisticsTracking.sol\":4801:4829  s.destination = _destination */\n      tag_231\n      jump\t// in\n    tag_271:\n      pop\n        /* \"src/LogisticsTracking.sol\":4855:4870  block.timestamp */\n      timestamp\n        /* \"src/LogisticsTracking.sol\":4839:4852  s.dateCreated */\n      0x06\n      dup3\n      add\n        /* \"src/LogisticsTracking.sol\":4839:4870  s.dateCreated = block.timestamp */\n      sstore\n        /* \"src/LogisticsTracking.sol\":4880:4888  s.status */\n      0x08\n      dup2\n      add\n        /* \"src/LogisticsTracking.sol\":4880:4913  s.status = ShipmentStatus.Created */\n      dup1\n      sload\n        /* \"src/LogisticsTracking.sol\":4891:4913  ShipmentStatus.Created */\n      0x00\n      swap2\n        /* \"src/LogisticsTracking.sol\":4880:4888  s.status */\n      swap1\n      not(0xff)\n        /* \"src/LogisticsTracking.sol\":4880:4913  s.status = ShipmentStatus.Created */\n      and\n      0x01\n        /* \"src/LogisticsTracking.sol\":4891:4913  ShipmentStatus.Created */\n      dup4\n        /* \"src/LogisticsTracking.sol\":4880:4913  s.status = ShipmentStatus.Created */\n      mul\n      or\n      swap1\n      sstore\n      pop\n        /* \"src/LogisticsTracking.sol\":4923:4942  s.requiresColdChain */\n      0x0b\n      dup2\n      add\n        /* \"src/LogisticsTracking.sol\":4923:4963  s.requiresColdChain = _requiresColdChain */\n      dup1\n      sload\n      not(0xff)\n      and\n      dup6\n      iszero\n      iszero\n      or\n      swap1\n      sstore\n        /* \"src/LogisticsTracking.sol\":4989:4999  msg.sender */\n      caller\n      0x00\n        /* \"src/LogisticsTracking.sol\":4974:5000  actorShipments[msg.sender] */\n      dup2\n      dup2\n      mstore\n        /* \"src/LogisticsTracking.sol\":4974:4988  actorShipments */\n      0x08\n        /* \"src/LogisticsTracking.sol\":4974:5000  actorShipments[msg.sender] */\n      0x20\n      swap1\n      dup2\n      mstore\n      0x40\n      dup1\n      dup4\n      keccak256\n        /* \"src/LogisticsTracking.sol\":4974:5009  actorShipments[msg.sender].push(id) */\n      dup1\n      sload\n      0x01\n      dup2\n      add\n      dup3\n      sstore\n      swap1\n      dup5\n      mstore\n      swap2\n      swap1\n      swap3\n      keccak256\n      add\n      dup5\n      swap1\n      sstore\n        /* \"src/LogisticsTracking.sol\":5025:5078  ShipmentCreated(id, msg.sender, _recipient, _product) */\n      mload\n      sub(shl(0xa0, 0x01), 0x01)\n      dup11\n      and\n      swap2\n        /* \"src/LogisticsTracking.sol\":4989:4999  msg.sender */\n      swap1\n        /* \"src/LogisticsTracking.sol\":4974:5009  actorShipments[msg.sender].push(id) */\n      dup5\n      swap1\n        /* \"src/LogisticsTracking.sol\":5025:5078  ShipmentCreated(id, msg.sender, _recipient, _product) */\n      0x8fb6b855d6cbdf201f2fcaadbf8c38d36168ff7d2ca865cb2599abcd5a060e8f\n      swap1\n      tag_275\n      swap1\n        /* \"src/LogisticsTracking.sol\":5069:5077  _product */\n      dup13\n      swap1\n        /* \"src/LogisticsTracking.sol\":5025:5078  ShipmentCreated(id, msg.sender, _recipient, _product) */\n      tag_276\n      jump\t// in\n    tag_275:\n      mload(0x40)\n      dup1\n      swap2\n      sub\n      swap1\n      log4\n      pop\n        /* \"src/LogisticsTracking.sol\":5095:5097  id */\n      swap7\n        /* \"src/LogisticsTracking.sol\":4245:5104  function createShipment(... */\n      swap6\n      pop\n      pop\n      pop\n      pop\n      pop\n      pop\n      jump\t// out\n        /* \"src/LogisticsTracking.sol\":8786:8948  function resolveIncident(uint256 _incidentId) public onlyAdmin {... */\n    tag_77:\n        /* \"src/LogisticsTracking.sol\":2921:2933  _onlyAdmin() */\n      tag_278\n        /* \"src/LogisticsTracking.sol\":2921:2931  _onlyAdmin */\n      tag_279\n        /* \"src/LogisticsTracking.sol\":2921:2933  _onlyAdmin() */\n      jump\t// in\n    tag_278:\n        /* \"src/LogisticsTracking.sol\":8859:8881  incidents[_incidentId] */\n      0x00\n      dup2\n      dup2\n      mstore\n        /* \"src/LogisticsTracking.sol\":8859:8868  incidents */\n      0x06\n        /* \"src/LogisticsTracking.sol\":8859:8881  incidents[_incidentId] */\n      0x20\n      mstore\n      0x40\n      dup1\n      dup3\n      keccak256\n        /* \"src/LogisticsTracking.sol\":8859:8890  incidents[_incidentId].resolved */\n      0x05\n      add\n        /* \"src/LogisticsTracking.sol\":8859:8897  incidents[_incidentId].resolved = true */\n      dup1\n      sload\n      not(0xff)\n      and\n        /* \"src/LogisticsTracking.sol\":8893:8897  true */\n      0x01\n        /* \"src/LogisticsTracking.sol\":8859:8897  incidents[_incidentId].resolved = true */\n      or\n      swap1\n      sstore\n        /* \"src/LogisticsTracking.sol\":8912:8941  IncidentResolved(_incidentId) */\n      mload\n        /* \"src/LogisticsTracking.sol\":8869:8880  _incidentId */\n      dup3\n      swap2\n        /* \"src/LogisticsTracking.sol\":8912:8941  IncidentResolved(_incidentId) */\n      0xf83ae0ade2d9004bc0030405bdd3336f9d9b97530bcf44cce99ce02c95641b77\n      swap2\n      log2\n        /* \"src/LogisticsTracking.sol\":8786:8948  function resolveIncident(uint256 _incidentId) public onlyAdmin {... */\n      pop\n      jump\t// out\n        /* \"src/LogisticsTracking.sol\":7819:8173  function getShipmentCheckpoints(uint256 _id) public view returns (Checkpoint[] memory) {... */\n    tag_80:\n        /* \"src/LogisticsTracking.sol\":7916:7936  uint256[] memory ids */\n      0x00\n        /* \"src/LogisticsTracking.sol\":7939:7953  shipments[_id] */\n      dup2\n      dup2\n      mstore\n        /* \"src/LogisticsTracking.sol\":7939:7948  shipments */\n      0x04\n        /* \"src/LogisticsTracking.sol\":7939:7953  shipments[_id] */\n      0x20\n      swap1\n      dup2\n      mstore\n      0x40\n      dup1\n      dup4\n      keccak256\n        /* \"src/LogisticsTracking.sol\":7939:7967  shipments[_id].checkpointIds */\n      0x09\n      add\n        /* \"src/LogisticsTracking.sol\":7916:7967  uint256[] memory ids = shipments[_id].checkpointIds */\n      dup1\n      sload\n      dup3\n      mload\n      dup2\n      dup6\n      mul\n      dup2\n      add\n      dup6\n      add\n      swap1\n      swap4\n      mstore\n      dup1\n      dup4\n      mstore\n        /* \"src/LogisticsTracking.sol\":7885:7904  Checkpoint[] memory */\n      0x60\n      swap5\n        /* \"src/LogisticsTracking.sol\":7916:7936  uint256[] memory ids */\n      swap4\n        /* \"src/LogisticsTracking.sol\":7916:7967  uint256[] memory ids = shipments[_id].checkpointIds */\n      dup4\n      add\n        /* \"src/LogisticsTracking.sol\":7939:7967  shipments[_id].checkpointIds */\n      dup3\n        /* \"src/LogisticsTracking.sol\":7916:7967  uint256[] memory ids = shipments[_id].checkpointIds */\n      dup3\n      dup1\n      iszero\n      tag_282\n      jumpi\n      0x20\n      mul\n      dup3\n      add\n      swap2\n      swap1\n      0x00\n      mstore\n      keccak256(0x00, 0x20)\n      swap1\n    tag_283:\n      dup2\n      sload\n      dup2\n      mstore\n      0x20\n      add\n      swap1\n      0x01\n      add\n      swap1\n      dup1\n      dup4\n      gt\n      tag_283\n      jumpi\n    tag_282:\n      pop\n      pop\n      pop\n      pop\n      pop\n      swap1\n      pop\n        /* \"src/LogisticsTracking.sol\":7977:8004  Checkpoint[] memory results */\n      0x00\n        /* \"src/LogisticsTracking.sol\":8024:8027  ids */\n      dup2\n        /* \"src/LogisticsTracking.sol\":8024:8034  ids.length */\n      mload\n      sub(shl(0x40, 0x01), 0x01)\n        /* \"src/LogisticsTracking.sol\":8007:8035  new Checkpoint[](ids.length) */\n      dup2\n      gt\n      iszero\n      tag_285\n      jumpi\n      tag_285\n      tag_286\n      jump\t// in\n    tag_285:\n      mload(0x40)\n      swap1\n      dup1\n      dup3\n      mstore\n      dup1\n      0x20\n      mul\n      0x20\n      add\n      dup3\n      add\n      0x40\n      mstore\n      dup1\n      iszero\n      tag_287\n      jumpi\n      dup2\n      0x20\n      add\n    tag_288:\n      tag_289\n      tag_185\n      jump\t// in\n    tag_289:\n      dup2\n      mstore\n      0x20\n      add\n      swap1\n      0x01\n      swap1\n      sub\n      swap1\n      dup2\n      tag_288\n      jumpi\n      swap1\n      pop\n    tag_287:\n      pop\n        /* \"src/LogisticsTracking.sol\":7977:8035  Checkpoint[] memory results = new Checkpoint[](ids.length) */\n      swap1\n      pop\n        /* \"src/LogisticsTracking.sol\":8050:8059  uint256 i */\n      0x00\n        /* \"src/LogisticsTracking.sol\":8045:8143  for (uint256 i = 0; i < ids.length; i++) {... */\n    tag_290:\n        /* \"src/LogisticsTracking.sol\":8069:8072  ids */\n      dup3\n        /* \"src/LogisticsTracking.sol\":8069:8079  ids.length */\n      mload\n        /* \"src/LogisticsTracking.sol\":8065:8066  i */\n      dup2\n        /* \"src/LogisticsTracking.sol\":8065:8079  i < ids.length */\n      lt\n        /* \"src/LogisticsTracking.sol\":8045:8143  for (uint256 i = 0; i < ids.length; i++) {... */\n      iszero\n      tag_291\n      jumpi\n        /* \"src/LogisticsTracking.sol\":8113:8124  checkpoints */\n      0x05\n        /* \"src/LogisticsTracking.sol\":8113:8132  checkpoints[ids[i]] */\n      0x00\n        /* \"src/LogisticsTracking.sol\":8125:8128  ids */\n      dup5\n        /* \"src/LogisticsTracking.sol\":8129:8130  i */\n      dup4\n        /* \"src/LogisticsTracking.sol\":8125:8131  ids[i] */\n      dup2\n      mload\n      dup2\n      lt\n      tag_294\n      jumpi\n      tag_294\n      tag_295\n      jump\t// in\n    tag_294:\n      0x20\n      mul\n      0x20\n      add\n      add\n      mload\n        /* \"src/LogisticsTracking.sol\":8113:8132  checkpoints[ids[i]] */\n      dup2\n      mstore\n      0x20\n      add\n      swap1\n      dup2\n      mstore\n      0x20\n      add\n      0x00\n      keccak256\n        /* \"src/LogisticsTracking.sol\":8100:8132  results[i] = checkpoints[ids[i]] */\n      mload(0x40)\n      dup1\n      0x0100\n      add\n      0x40\n      mstore\n      swap1\n      dup2\n      0x00\n      dup3\n      add\n      sload\n      dup2\n      mstore\n      0x20\n      add\n      0x01\n      dup3\n      add\n      sload\n      dup2\n      mstore\n      0x20\n      add\n      0x02\n      dup3\n      add\n      0x00\n      swap1\n      sload\n      swap1\n      0x0100\n      exp\n      swap1\n      div\n      sub(shl(0xa0, 0x01), 0x01)\n      and\n      sub(shl(0xa0, 0x01), 0x01)\n      and\n      sub(shl(0xa0, 0x01), 0x01)\n      and\n      dup2\n      mstore\n      0x20\n      add\n      0x03\n      dup3\n      add\n      dup1\n      sload\n      tag_296\n      swap1\n      tag_160\n      jump\t// in\n    tag_296:\n      dup1\n      0x1f\n      add\n      0x20\n      dup1\n      swap2\n      div\n      mul\n      0x20\n      add\n      mload(0x40)\n      swap1\n      dup2\n      add\n      0x40\n      mstore\n      dup1\n      swap3\n      swap2\n      swap1\n      dup2\n      dup2\n      mstore\n      0x20\n      add\n      dup3\n      dup1\n      sload\n      tag_297\n      swap1\n      tag_160\n      jump\t// in\n    tag_297:\n      dup1\n      iszero\n      tag_298\n      jumpi\n      dup1\n      0x1f\n      lt\n      tag_299\n      jumpi\n      0x0100\n      dup1\n      dup4\n      sload\n      div\n      mul\n      dup4\n      mstore\n      swap2\n      0x20\n      add\n      swap2\n      jump(tag_298)\n    tag_299:\n      dup3\n      add\n      swap2\n      swap1\n      0x00\n      mstore\n      keccak256(0x00, 0x20)\n      swap1\n    tag_300:\n      dup2\n      sload\n      dup2\n      mstore\n      swap1\n      0x01\n      add\n      swap1\n      0x20\n      add\n      dup1\n      dup4\n      gt\n      tag_300\n      jumpi\n      dup3\n      swap1\n      sub\n      0x1f\n      and\n      dup3\n      add\n      swap2\n    tag_298:\n      pop\n      pop\n      pop\n      pop\n      pop\n      dup2\n      mstore\n      0x20\n      add\n      0x04\n      dup3\n      add\n      dup1\n      sload\n      tag_301\n      swap1\n      tag_160\n      jump\t// in\n    tag_301:\n      dup1\n      0x1f\n      add\n      0x20\n      dup1\n      swap2\n      div\n      mul\n      0x20\n      add\n      mload(0x40)\n      swap1\n      dup2\n      add\n      0x40\n      mstore\n      dup1\n      swap3\n      swap2\n      swap1\n      dup2\n      dup2\n      mstore\n      0x20\n      add\n      dup3\n      dup1\n      sload\n      tag_302\n      swap1\n      tag_160\n      jump\t// in\n    tag_302:\n      dup1\n      iszero\n      tag_303\n      jumpi\n      dup1\n      0x1f\n      lt\n      tag_304\n      jumpi\n      0x0100\n      dup1\n      dup4\n      sload\n      div\n      mul\n      dup4\n      mstore\n      swap2\n      0x20\n      add\n      swap2\n      jump(tag_303)\n    tag_304:\n      dup3\n      add\n      swap2\n      swap1\n      0x00\n      mstore\n      keccak256(0x00, 0x20)\n      swap1\n    tag_305:\n      dup2\n      sload\n      dup2\n      mstore\n      swap1\n      0x01\n      add\n      swap1\n      0x20\n      add\n      dup1\n      dup4\n      gt\n      tag_305\n      jumpi\n      dup3\n      swap1\n      sub\n      0x1f\n      and\n      dup3\n      add\n      swap2\n    tag_303:\n      pop\n      pop\n      pop\n      pop\n      pop\n      dup2\n      mstore\n      0x20\n      add\n      0x05\n      dup3\n      add\n      sload\n      dup2\n      mstore\n      0x20\n      add\n      0x06\n      dup3\n      add\n      dup1\n      sload\n      tag_306\n      swap1\n      tag_160\n      jump\t// in\n    tag_306:\n      dup1\n      0x1f\n      add\n      0x20\n      dup1\n      swap2\n      div\n      mul\n      0x20\n      add\n      mload(0x40)\n      swap1\n      dup2\n      add\n      0x40\n      mstore\n      dup1\n      swap3\n      swap2\n      swap1\n      dup2\n      dup2\n      mstore\n      0x20\n      add\n      dup3\n      dup1\n      sload\n      tag_307\n      swap1\n      tag_160\n      jump\t// in\n    tag_307:\n      dup1\n      iszero\n      tag_308\n      jumpi\n      dup1\n      0x1f\n      lt\n      tag_309\n      jumpi\n      0x0100\n      dup1\n      dup4\n      sload\n      div\n      mul\n      dup4\n      mstore\n      swap2\n      0x20\n      add\n      swap2\n      jump(tag_308)\n    tag_309:\n      dup3\n      add\n      swap2\n      swap1\n      0x00\n      mstore\n      keccak256(0x00, 0x20)\n      swap1\n    tag_310:\n      dup2\n      sload\n      dup2\n      mstore\n      swap1\n      0x01\n      add\n      swap1\n      0x20\n      add\n      dup1\n      dup4\n      gt\n      tag_310\n      jumpi\n      dup3\n      swap1\n      sub\n      0x1f\n      and\n      dup3\n      add\n      swap2\n    tag_308:\n      pop\n      pop\n      pop\n      pop\n      pop\n      dup2\n      mstore\n      0x20\n      add\n      0x07\n      dup3\n      add\n      sload\n      dup2\n      mstore\n      pop\n      pop\n        /* \"src/LogisticsTracking.sol\":8100:8107  results */\n      dup3\n        /* \"src/LogisticsTracking.sol\":8108:8109  i */\n      dup3\n        /* \"src/LogisticsTracking.sol\":8100:8110  results[i] */\n      dup2\n      mload\n      dup2\n      lt\n      tag_312\n      jumpi\n      tag_312\n      tag_295\n      jump\t// in\n    tag_312:\n      0x20\n      swap1\n      dup2\n      mul\n      swap2\n      swap1\n      swap2\n      add\n      add\n        /* \"src/LogisticsTracking.sol\":8100:8132  results[i] = checkpoints[ids[i]] */\n      mstore\n        /* \"src/LogisticsTracking.sol\":8081:8084  i++ */\n      0x01\n      add\n        /* \"src/LogisticsTracking.sol\":8045:8143  for (uint256 i = 0; i < ids.length; i++) {... */\n      jump(tag_290)\n    tag_291:\n      pop\n        /* \"src/LogisticsTracking.sol\":8159:8166  results */\n      swap4\n        /* \"src/LogisticsTracking.sol\":7819:8173  function getShipmentCheckpoints(uint256 _id) public view returns (Checkpoint[] memory) {... */\n      swap3\n      pop\n      pop\n      pop\n      jump\t// out\n        /* \"src/LogisticsTracking.sol\":9644:9772  function getActorShipments(address _actor) public view returns (uint256[] memory) {... */\n    tag_85:\n      sub(shl(0xa0, 0x01), 0x01)\n        /* \"src/LogisticsTracking.sol\":9743:9765  actorShipments[_actor] */\n      dup2\n      and\n      0x00\n      swap1\n      dup2\n      mstore\n        /* \"src/LogisticsTracking.sol\":9743:9757  actorShipments */\n      0x08\n        /* \"src/LogisticsTracking.sol\":9743:9765  actorShipments[_actor] */\n      0x20\n      swap1\n      dup2\n      mstore\n      0x40\n      swap2\n      dup3\n      swap1\n      keccak256\n        /* \"src/LogisticsTracking.sol\":9736:9765  return actorShipments[_actor] */\n      dup1\n      sload\n      dup4\n      mload\n      dup2\n      dup5\n      mul\n      dup2\n      add\n      dup5\n      add\n      swap1\n      swap5\n      mstore\n      dup1\n      dup5\n      mstore\n        /* \"src/LogisticsTracking.sol\":9708:9724  uint256[] memory */\n      0x60\n      swap4\n        /* \"src/LogisticsTracking.sol\":9736:9765  return actorShipments[_actor] */\n      swap3\n      dup4\n      add\n        /* \"src/LogisticsTracking.sol\":9743:9765  actorShipments[_actor] */\n      dup3\n        /* \"src/LogisticsTracking.sol\":9736:9765  return actorShipments[_actor] */\n      dup3\n      dup1\n      iszero\n      tag_314\n      jumpi\n      0x20\n      mul\n      dup3\n      add\n      swap2\n      swap1\n      0x00\n      mstore\n      keccak256(0x00, 0x20)\n      swap1\n    tag_315:\n      dup2\n      sload\n      dup2\n      mstore\n      0x20\n      add\n      swap1\n      0x01\n      add\n      swap1\n      dup1\n      dup4\n      gt\n      tag_315\n      jumpi\n    tag_314:\n      pop\n      pop\n      pop\n      pop\n      pop\n      swap1\n      pop\n        /* \"src/LogisticsTracking.sol\":9644:9772  function getActorShipments(address _actor) public view returns (uint256[] memory) {... */\n      swap2\n      swap1\n      pop\n      jump\t// out\n        /* \"src/LogisticsTracking.sol\":9179:9602  function getShipmentIncidents(uint256 _shipmentId)... */\n    tag_90:\n        /* \"src/LogisticsTracking.sol\":9311:9328  Incident[] memory */\n      0x60\n        /* \"src/LogisticsTracking.sol\":9281:9292  _shipmentId */\n      dup2\n        /* \"src/LogisticsTracking.sol\":3321:3341  _shipmentExists(_id) */\n      tag_317\n        /* \"src/LogisticsTracking.sol\":3337:3340  _id */\n      dup2\n        /* \"src/LogisticsTracking.sol\":3321:3336  _shipmentExists */\n      tag_226\n        /* \"src/LogisticsTracking.sol\":3321:3341  _shipmentExists(_id) */\n      jump\t// in\n    tag_317:\n        /* \"src/LogisticsTracking.sol\":9344:9364  uint256[] memory ids */\n      0x00\n        /* \"src/LogisticsTracking.sol\":9367:9389  shipments[_shipmentId] */\n      dup4\n      dup2\n      mstore\n        /* \"src/LogisticsTracking.sol\":9367:9376  shipments */\n      0x04\n        /* \"src/LogisticsTracking.sol\":9367:9389  shipments[_shipmentId] */\n      0x20\n      swap1\n      dup2\n      mstore\n      0x40\n      dup1\n      dup4\n      keccak256\n        /* \"src/LogisticsTracking.sol\":9367:9401  shipments[_shipmentId].incidentIds */\n      0x0a\n      add\n        /* \"src/LogisticsTracking.sol\":9344:9401  uint256[] memory ids = shipments[_shipmentId].incidentIds */\n      dup1\n      sload\n      dup3\n      mload\n      dup2\n      dup6\n      mul\n      dup2\n      add\n      dup6\n      add\n      swap1\n      swap4\n      mstore\n      dup1\n      dup4\n      mstore\n      swap2\n      swap3\n        /* \"src/LogisticsTracking.sol\":9367:9401  shipments[_shipmentId].incidentIds */\n      swap1\n      swap2\n        /* \"src/LogisticsTracking.sol\":9344:9401  uint256[] memory ids = shipments[_shipmentId].incidentIds */\n      swap1\n      dup4\n      add\n        /* \"src/LogisticsTracking.sol\":9367:9401  shipments[_shipmentId].incidentIds */\n      dup3\n        /* \"src/LogisticsTracking.sol\":9344:9401  uint256[] memory ids = shipments[_shipmentId].incidentIds */\n      dup3\n      dup1\n      iszero\n      tag_319\n      jumpi\n      0x20\n      mul\n      dup3\n      add\n      swap2\n      swap1\n      0x00\n      mstore\n      keccak256(0x00, 0x20)\n      swap1\n    tag_320:\n      dup2\n      sload\n      dup2\n      mstore\n      0x20\n      add\n      swap1\n      0x01\n      add\n      swap1\n      dup1\n      dup4\n      gt\n      tag_320\n      jumpi\n    tag_319:\n      pop\n      pop\n      pop\n      pop\n      pop\n      swap1\n      pop\n        /* \"src/LogisticsTracking.sol\":9411:9436  Incident[] memory results */\n      0x00\n        /* \"src/LogisticsTracking.sol\":9454:9457  ids */\n      dup2\n        /* \"src/LogisticsTracking.sol\":9454:9464  ids.length */\n      mload\n      sub(shl(0x40, 0x01), 0x01)\n        /* \"src/LogisticsTracking.sol\":9439:9465  new Incident[](ids.length) */\n      dup2\n      gt\n      iszero\n      tag_322\n      jumpi\n      tag_322\n      tag_286\n      jump\t// in\n    tag_322:\n      mload(0x40)\n      swap1\n      dup1\n      dup3\n      mstore\n      dup1\n      0x20\n      mul\n      0x20\n      add\n      dup3\n      add\n      0x40\n      mstore\n      dup1\n      iszero\n      tag_323\n      jumpi\n      dup2\n      0x20\n      add\n    tag_324:\n      tag_325\n      tag_326\n      jump\t// in\n    tag_325:\n      dup2\n      mstore\n      0x20\n      add\n      swap1\n      0x01\n      swap1\n      sub\n      swap1\n      dup2\n      tag_324\n      jumpi\n      swap1\n      pop\n    tag_323:\n      pop\n        /* \"src/LogisticsTracking.sol\":9411:9465  Incident[] memory results = new Incident[](ids.length) */\n      swap1\n      pop\n        /* \"src/LogisticsTracking.sol\":9481:9490  uint256 i */\n      0x00\n        /* \"src/LogisticsTracking.sol\":9476:9572  for (uint256 i = 0; i < ids.length; i++) {... */\n    tag_327:\n        /* \"src/LogisticsTracking.sol\":9500:9503  ids */\n      dup3\n        /* \"src/LogisticsTracking.sol\":9500:9510  ids.length */\n      mload\n        /* \"src/LogisticsTracking.sol\":9496:9497  i */\n      dup2\n        /* \"src/LogisticsTracking.sol\":9496:9510  i < ids.length */\n      lt\n        /* \"src/LogisticsTracking.sol\":9476:9572  for (uint256 i = 0; i < ids.length; i++) {... */\n      iszero\n      tag_328\n      jumpi\n        /* \"src/LogisticsTracking.sol\":9544:9553  incidents */\n      0x06\n        /* \"src/LogisticsTracking.sol\":9544:9561  incidents[ids[i]] */\n      0x00\n        /* \"src/LogisticsTracking.sol\":9554:9557  ids */\n      dup5\n        /* \"src/LogisticsTracking.sol\":9558:9559  i */\n      dup4\n        /* \"src/LogisticsTracking.sol\":9554:9560  ids[i] */\n      dup2\n      mload\n      dup2\n      lt\n      tag_331\n      jumpi\n      tag_331\n      tag_295\n      jump\t// in\n    tag_331:\n      0x20\n      mul\n      0x20\n      add\n      add\n      mload\n        /* \"src/LogisticsTracking.sol\":9544:9561  incidents[ids[i]] */\n      dup2\n      mstore\n      0x20\n      add\n      swap1\n      dup2\n      mstore\n      0x20\n      add\n      0x00\n      keccak256\n        /* \"src/LogisticsTracking.sol\":9531:9561  results[i] = incidents[ids[i]] */\n      mload(0x40)\n      dup1\n      0xe0\n      add\n      0x40\n      mstore\n      swap1\n      dup2\n      0x00\n      dup3\n      add\n      sload\n      dup2\n      mstore\n      0x20\n      add\n      0x01\n      dup3\n      add\n      sload\n      dup2\n      mstore\n      0x20\n      add\n      0x02\n      dup3\n      add\n      0x00\n      swap1\n      sload\n      swap1\n      0x0100\n      exp\n      swap1\n      div\n      0xff\n      and\n      0x04\n      dup2\n      gt\n      iszero\n      tag_333\n      jumpi\n      tag_333\n      tag_177\n      jump\t// in\n    tag_333:\n      0x04\n      dup2\n      gt\n      iszero\n      tag_335\n      jumpi\n      tag_335\n      tag_177\n      jump\t// in\n    tag_335:\n      dup2\n      mstore\n      0x02\n      dup3\n      add\n      sload\n      0x0100\n      swap1\n      div\n      sub(shl(0xa0, 0x01), 0x01)\n      and\n      0x20\n      dup3\n      add\n      mstore\n      0x03\n      dup3\n      add\n      dup1\n      sload\n      0x40\n      swap1\n      swap3\n      add\n      swap2\n      tag_336\n      swap1\n      tag_160\n      jump\t// in\n    tag_336:\n      dup1\n      0x1f\n      add\n      0x20\n      dup1\n      swap2\n      div\n      mul\n      0x20\n      add\n      mload(0x40)\n      swap1\n      dup2\n      add\n      0x40\n      mstore\n      dup1\n      swap3\n      swap2\n      swap1\n      dup2\n      dup2\n      mstore\n      0x20\n      add\n      dup3\n      dup1\n      sload\n      tag_337\n      swap1\n      tag_160\n      jump\t// in\n    tag_337:\n      dup1\n      iszero\n      tag_338\n      jumpi\n      dup1\n      0x1f\n      lt\n      tag_339\n      jumpi\n      0x0100\n      dup1\n      dup4\n      sload\n      div\n      mul\n      dup4\n      mstore\n      swap2\n      0x20\n      add\n      swap2\n      jump(tag_338)\n    tag_339:\n      dup3\n      add\n      swap2\n      swap1\n      0x00\n      mstore\n      keccak256(0x00, 0x20)\n      swap1\n    tag_340:\n      dup2\n      sload\n      dup2\n      mstore\n      swap1\n      0x01\n      add\n      swap1\n      0x20\n      add\n      dup1\n      dup4\n      gt\n      tag_340\n      jumpi\n      dup3\n      swap1\n      sub\n      0x1f\n      and\n      dup3\n      add\n      swap2\n    tag_338:\n      pop\n      pop\n      pop\n      swap2\n      dup4\n      mstore\n      pop\n      pop\n      0x04\n      dup3\n      add\n      sload\n      0x20\n      dup3\n      add\n      mstore\n      0x05\n      swap1\n      swap2\n      add\n      sload\n      0xff\n      and\n      iszero\n      iszero\n      0x40\n      swap1\n      swap2\n      add\n      mstore\n        /* \"src/LogisticsTracking.sol\":9531:9541  results[i] */\n      dup3\n      mload\n        /* \"src/LogisticsTracking.sol\":9531:9538  results */\n      dup4\n      swap1\n        /* \"src/LogisticsTracking.sol\":9539:9540  i */\n      dup4\n      swap1\n        /* \"src/LogisticsTracking.sol\":9531:9541  results[i] */\n      dup2\n      lt\n      tag_342\n      jumpi\n      tag_342\n      tag_295\n      jump\t// in\n    tag_342:\n      0x20\n      swap1\n      dup2\n      mul\n      swap2\n      swap1\n      swap2\n      add\n      add\n        /* \"src/LogisticsTracking.sol\":9531:9561  results[i] = incidents[ids[i]] */\n      mstore\n        /* \"src/LogisticsTracking.sol\":9512:9515  i++ */\n      0x01\n      add\n        /* \"src/LogisticsTracking.sol\":9476:9572  for (uint256 i = 0; i < ids.length; i++) {... */\n      jump(tag_327)\n    tag_328:\n      pop\n        /* \"src/LogisticsTracking.sol\":9588:9595  results */\n      swap3\n      pop\n      pop\n        /* \"src/LogisticsTracking.sol\":3351:3352  _ */\n    tag_318:\n        /* \"src/LogisticsTracking.sol\":9179:9602  function getShipmentIncidents(uint256 _shipmentId)... */\n      pop\n      swap2\n      swap1\n      pop\n      jump\t// out\n        /* \"src/LogisticsTracking.sol\":5226:5503  function updateShipmentStatus(uint256 _shipmentId, ShipmentStatus _newStatus)... */\n    tag_96:\n        /* \"src/LogisticsTracking.sol\":3095:3113  _onlyActiveActor() */\n      tag_344\n        /* \"src/LogisticsTracking.sol\":3095:3111  _onlyActiveActor */\n      tag_223\n        /* \"src/LogisticsTracking.sol\":3095:3113  _onlyActiveActor() */\n      jump\t// in\n    tag_344:\n        /* \"src/LogisticsTracking.sol\":5366:5377  _shipmentId */\n      dup2\n        /* \"src/LogisticsTracking.sol\":3321:3341  _shipmentExists(_id) */\n      tag_346\n        /* \"src/LogisticsTracking.sol\":3337:3340  _id */\n      dup2\n        /* \"src/LogisticsTracking.sol\":3321:3336  _shipmentExists */\n      tag_226\n        /* \"src/LogisticsTracking.sol\":3321:3341  _shipmentExists(_id) */\n      jump\t// in\n    tag_346:\n        /* \"src/LogisticsTracking.sol\":5393:5415  shipments[_shipmentId] */\n      0x00\n      dup4\n      dup2\n      mstore\n        /* \"src/LogisticsTracking.sol\":5393:5402  shipments */\n      0x04\n        /* \"src/LogisticsTracking.sol\":5393:5415  shipments[_shipmentId] */\n      0x20\n      mstore\n      0x40\n      swap1\n      keccak256\n        /* \"src/LogisticsTracking.sol\":5393:5422  shipments[_shipmentId].status */\n      0x08\n      add\n        /* \"src/LogisticsTracking.sol\":5393:5435  shipments[_shipmentId].status = _newStatus */\n      dup1\n      sload\n        /* \"src/LogisticsTracking.sol\":5425:5435  _newStatus */\n      dup4\n      swap2\n        /* \"src/LogisticsTracking.sol\":5393:5422  shipments[_shipmentId].status */\n      swap1\n      not(0xff)\n        /* \"src/LogisticsTracking.sol\":5393:5435  shipments[_shipmentId].status = _newStatus */\n      and\n      0x01\n        /* \"src/LogisticsTracking.sol\":5425:5435  _newStatus */\n      dup4\n        /* \"src/LogisticsTracking.sol\":5393:5435  shipments[_shipmentId].status = _newStatus */\n      0x06\n      dup2\n      gt\n      iszero\n      tag_349\n      jumpi\n      tag_349\n      tag_177\n      jump\t// in\n    tag_349:\n      mul\n      or\n      swap1\n      sstore\n      pop\n        /* \"src/LogisticsTracking.sol\":5472:5483  _shipmentId */\n      dup3\n        /* \"src/LogisticsTracking.sol\":5450:5496  ShipmentStatusChanged(_shipmentId, _newStatus) */\n      0x7c1c93f72f29b8a1fc6fc85eed990d133b1ffac80c962b521abb12f38f2ff9af\n        /* \"src/LogisticsTracking.sol\":5485:5495  _newStatus */\n      dup4\n        /* \"src/LogisticsTracking.sol\":5450:5496  ShipmentStatusChanged(_shipmentId, _newStatus) */\n      mload(0x40)\n      tag_350\n      swap2\n      swap1\n      tag_351\n      jump\t// in\n    tag_350:\n      mload(0x40)\n      dup1\n      swap2\n      sub\n      swap1\n      log2\n        /* \"src/LogisticsTracking.sol\":3123:3124  _ */\n      pop\n        /* \"src/LogisticsTracking.sol\":5226:5503  function updateShipmentStatus(uint256 _shipmentId, ShipmentStatus _newStatus)... */\n      pop\n      pop\n      jump\t// out\n        /* \"src/LogisticsTracking.sol\":6045:6467  function cancelShipment(uint256 _shipmentId) public shipmentExists(_shipmentId) {... */\n    tag_99:\n        /* \"src/LogisticsTracking.sol\":6112:6123  _shipmentId */\n      dup1\n        /* \"src/LogisticsTracking.sol\":3321:3341  _shipmentExists(_id) */\n      tag_353\n        /* \"src/LogisticsTracking.sol\":3337:3340  _id */\n      dup2\n        /* \"src/LogisticsTracking.sol\":3321:3336  _shipmentExists */\n      tag_226\n        /* \"src/LogisticsTracking.sol\":3321:3341  _shipmentExists(_id) */\n      jump\t// in\n    tag_353:\n        /* \"src/LogisticsTracking.sol\":6157:6179  shipments[_shipmentId] */\n      0x00\n      dup3\n      dup2\n      mstore\n        /* \"src/LogisticsTracking.sol\":6157:6166  shipments */\n      0x04\n        /* \"src/LogisticsTracking.sol\":6157:6179  shipments[_shipmentId] */\n      0x20\n      mstore\n      0x40\n      swap1\n      keccak256\n        /* \"src/LogisticsTracking.sol\":6157:6186  shipments[_shipmentId].sender */\n      0x01\n      add\n      sload\n      sub(shl(0xa0, 0x01), 0x01)\n      and\n        /* \"src/LogisticsTracking.sol\":6143:6153  msg.sender */\n      caller\n        /* \"src/LogisticsTracking.sol\":6143:6186  msg.sender == shipments[_shipmentId].sender */\n      eq\n        /* \"src/LogisticsTracking.sol\":6135:6213  require(msg.sender == shipments[_shipmentId].sender, \"Only sender can cancel\") */\n      tag_355\n      jumpi\n      mload(0x40)\n      shl(0xe5, 0x461bcd)\n      dup2\n      mstore\n        /* \"#utility.yul\":22588:22590   */\n      0x20\n        /* \"src/LogisticsTracking.sol\":6135:6213  require(msg.sender == shipments[_shipmentId].sender, \"Only sender can cancel\") */\n      0x04\n      dup3\n      add\n        /* \"#utility.yul\":22570:22591   */\n      mstore\n        /* \"#utility.yul\":22627:22629   */\n      0x16\n        /* \"#utility.yul\":22607:22625   */\n      0x24\n      dup3\n      add\n        /* \"#utility.yul\":22600:22630   */\n      mstore\n      shl(0x52, 0x13db9b1e481cd95b99195c8818d85b8818d85b98d95b)\n        /* \"#utility.yul\":22646:22664   */\n      0x44\n      dup3\n      add\n        /* \"#utility.yul\":22639:22691   */\n      mstore\n        /* \"#utility.yul\":22708:22726   */\n      0x64\n      add\n        /* \"src/LogisticsTracking.sol\":6135:6213  require(msg.sender == shipments[_shipmentId].sender, \"Only sender can cancel\") */\n      tag_189\n        /* \"#utility.yul\":22386:22732   */\n      jump\n        /* \"src/LogisticsTracking.sol\":6135:6213  require(msg.sender == shipments[_shipmentId].sender, \"Only sender can cancel\") */\n    tag_355:\n        /* \"src/LogisticsTracking.sol\":6264:6286  ShipmentStatus.Created */\n      0x00\n        /* \"src/LogisticsTracking.sol\":6231:6253  shipments[_shipmentId] */\n      dup3\n      dup2\n      mstore\n        /* \"src/LogisticsTracking.sol\":6231:6240  shipments */\n      0x04\n        /* \"src/LogisticsTracking.sol\":6231:6253  shipments[_shipmentId] */\n      0x20\n      mstore\n      0x40\n      dup2\n      keccak256\n        /* \"src/LogisticsTracking.sol\":6231:6260  shipments[_shipmentId].status */\n      0x08\n      add\n      sload\n      0xff\n      and\n        /* \"src/LogisticsTracking.sol\":6231:6286  shipments[_shipmentId].status == ShipmentStatus.Created */\n      0x06\n      dup2\n      gt\n      iszero\n      tag_361\n      jumpi\n      tag_361\n      tag_177\n      jump\t// in\n    tag_361:\n      eq\n        /* \"src/LogisticsTracking.sol\":6223:6318  require(shipments[_shipmentId].status == ShipmentStatus.Created, \"Cannot cancel after transit\") */\n      tag_362\n      jumpi\n      mload(0x40)\n      shl(0xe5, 0x461bcd)\n      dup2\n      mstore\n        /* \"#utility.yul\":22939:22941   */\n      0x20\n        /* \"src/LogisticsTracking.sol\":6223:6318  require(shipments[_shipmentId].status == ShipmentStatus.Created, \"Cannot cancel after transit\") */\n      0x04\n      dup3\n      add\n        /* \"#utility.yul\":22921:22942   */\n      mstore\n        /* \"#utility.yul\":22978:22980   */\n      0x1b\n        /* \"#utility.yul\":22958:22976   */\n      0x24\n      dup3\n      add\n        /* \"#utility.yul\":22951:22981   */\n      mstore\n        /* \"#utility.yul\":23017:23046   */\n      0x43616e6e6f742063616e63656c206166746572207472616e7369740000000000\n        /* \"#utility.yul\":22997:23015   */\n      0x44\n      dup3\n      add\n        /* \"#utility.yul\":22990:23047   */\n      mstore\n        /* \"#utility.yul\":23064:23082   */\n      0x64\n      add\n        /* \"src/LogisticsTracking.sol\":6223:6318  require(shipments[_shipmentId].status == ShipmentStatus.Created, \"Cannot cancel after transit\") */\n      tag_189\n        /* \"#utility.yul\":22737:23088   */\n      jump\n        /* \"src/LogisticsTracking.sol\":6223:6318  require(shipments[_shipmentId].status == ShipmentStatus.Created, \"Cannot cancel after transit\") */\n    tag_362:\n        /* \"src/LogisticsTracking.sol\":6329:6351  shipments[_shipmentId] */\n      0x00\n      dup3\n      dup2\n      mstore\n        /* \"src/LogisticsTracking.sol\":6329:6338  shipments */\n      0x04\n        /* \"src/LogisticsTracking.sol\":6329:6351  shipments[_shipmentId] */\n      0x20\n      mstore\n      0x40\n      swap1\n      keccak256\n        /* \"src/LogisticsTracking.sol\":6329:6358  shipments[_shipmentId].status */\n      0x08\n      add\n        /* \"src/LogisticsTracking.sol\":6329:6385  shipments[_shipmentId].status = ShipmentStatus.Cancelled */\n      dup1\n      sload\n        /* \"src/LogisticsTracking.sol\":6361:6385  ShipmentStatus.Cancelled */\n      0x06\n      swap2\n        /* \"src/LogisticsTracking.sol\":6329:6358  shipments[_shipmentId].status */\n      swap1\n      not(0xff)\n        /* \"src/LogisticsTracking.sol\":6329:6385  shipments[_shipmentId].status = ShipmentStatus.Cancelled */\n      and\n      0x01\n        /* \"src/LogisticsTracking.sol\":6361:6385  ShipmentStatus.Cancelled */\n      dup4\n        /* \"src/LogisticsTracking.sol\":6329:6385  shipments[_shipmentId].status = ShipmentStatus.Cancelled */\n      mul\n      or\n      swap1\n      sstore\n      pop\n        /* \"src/LogisticsTracking.sol\":6422:6433  _shipmentId */\n      dup2\n        /* \"src/LogisticsTracking.sol\":6400:6460  ShipmentStatusChanged(_shipmentId, ShipmentStatus.Cancelled) */\n      0x7c1c93f72f29b8a1fc6fc85eed990d133b1ffac80c962b521abb12f38f2ff9af\n        /* \"src/LogisticsTracking.sol\":6435:6459  ShipmentStatus.Cancelled */\n      0x06\n        /* \"src/LogisticsTracking.sol\":6400:6460  ShipmentStatusChanged(_shipmentId, ShipmentStatus.Cancelled) */\n      mload(0x40)\n      tag_367\n      swap2\n      swap1\n      tag_351\n      jump\t// in\n    tag_367:\n      mload(0x40)\n      dup1\n      swap2\n      sub\n      swap1\n      log2\n        /* \"src/LogisticsTracking.sol\":6045:6467  function cancelShipment(uint256 _shipmentId) public shipmentExists(_shipmentId) {... */\n      pop\n      pop\n      jump\t// out\n        /* \"src/LogisticsTracking.sol\":8954:9173  function getIncident(uint256 _incidentId) public view returns (Incident memory) {... */\n    tag_107:\n        /* \"src/LogisticsTracking.sol\":9017:9032  Incident memory */\n      tag_369\n      tag_326\n      jump\t// in\n    tag_369:\n        /* \"src/LogisticsTracking.sol\":9066:9067  0 */\n      0x00\n        /* \"src/LogisticsTracking.sol\":9052:9063  _incidentId */\n      dup3\n        /* \"src/LogisticsTracking.sol\":9052:9067  _incidentId > 0 */\n      gt\n        /* \"src/LogisticsTracking.sol\":9052:9099  _incidentId > 0 && _incidentId < nextIncidentId */\n      dup1\n      iszero\n      tag_371\n      jumpi\n      pop\n        /* \"src/LogisticsTracking.sol\":9085:9099  nextIncidentId */\n      sload(0x03)\n        /* \"src/LogisticsTracking.sol\":9071:9082  _incidentId */\n      dup3\n        /* \"src/LogisticsTracking.sol\":9071:9099  _incidentId < nextIncidentId */\n      lt\n        /* \"src/LogisticsTracking.sol\":9052:9099  _incidentId > 0 && _incidentId < nextIncidentId */\n    tag_371:\n        /* \"src/LogisticsTracking.sol\":9044:9127  require(_incidentId > 0 && _incidentId < nextIncidentId, \"Incident does not exist\") */\n      tag_372\n      jumpi\n      mload(0x40)\n      shl(0xe5, 0x461bcd)\n      dup2\n      mstore\n        /* \"#utility.yul\":23295:23297   */\n      0x20\n        /* \"src/LogisticsTracking.sol\":9044:9127  require(_incidentId > 0 && _incidentId < nextIncidentId, \"Incident does not exist\") */\n      0x04\n      dup3\n      add\n        /* \"#utility.yul\":23277:23298   */\n      mstore\n        /* \"#utility.yul\":23334:23336   */\n      0x17\n        /* \"#utility.yul\":23314:23332   */\n      0x24\n      dup3\n      add\n        /* \"#utility.yul\":23307:23337   */\n      mstore\n        /* \"#utility.yul\":23373:23398   */\n      0x496e636964656e7420646f6573206e6f74206578697374000000000000000000\n        /* \"#utility.yul\":23353:23371   */\n      0x44\n      dup3\n      add\n        /* \"#utility.yul\":23346:23399   */\n      mstore\n        /* \"#utility.yul\":23416:23434   */\n      0x64\n      add\n        /* \"src/LogisticsTracking.sol\":9044:9127  require(_incidentId > 0 && _incidentId < nextIncidentId, \"Incident does not exist\") */\n      tag_189\n        /* \"#utility.yul\":23093:23440   */\n      jump\n        /* \"src/LogisticsTracking.sol\":9044:9127  require(_incidentId > 0 && _incidentId < nextIncidentId, \"Incident does not exist\") */\n    tag_372:\n        /* \"src/LogisticsTracking.sol\":9144:9166  incidents[_incidentId] */\n      0x00\n      dup3\n      dup2\n      mstore\n        /* \"src/LogisticsTracking.sol\":9144:9153  incidents */\n      0x06\n        /* \"src/LogisticsTracking.sol\":9144:9166  incidents[_incidentId] */\n      0x20\n      swap1\n      dup2\n      mstore\n      0x40\n      swap2\n      dup3\n      swap1\n      keccak256\n        /* \"src/LogisticsTracking.sol\":9137:9166  return incidents[_incidentId] */\n      dup3\n      mload\n      0xe0\n      dup2\n      add\n      dup5\n      mstore\n      dup2\n      sload\n      dup2\n      mstore\n      0x01\n      dup3\n      add\n      sload\n      swap3\n      dup2\n      add\n      swap3\n      swap1\n      swap3\n      mstore\n      0x02\n      dup2\n      add\n      sload\n      swap2\n      swap3\n        /* \"src/LogisticsTracking.sol\":9144:9166  incidents[_incidentId] */\n      swap1\n      swap2\n        /* \"src/LogisticsTracking.sol\":9137:9166  return incidents[_incidentId] */\n      swap1\n      dup4\n      add\n      swap1\n      0xff\n      and\n      0x04\n      dup2\n      gt\n      iszero\n      tag_376\n      jumpi\n      tag_376\n      tag_177\n      jump\t// in\n    tag_376:\n      0x04\n      dup2\n      gt\n      iszero\n      tag_378\n      jumpi\n      tag_378\n      tag_177\n      jump\t// in\n    tag_378:\n      dup2\n      mstore\n      0x02\n      dup3\n      add\n      sload\n      0x0100\n      swap1\n      div\n      sub(shl(0xa0, 0x01), 0x01)\n      and\n      0x20\n      dup3\n      add\n      mstore\n      0x03\n      dup3\n      add\n      dup1\n      sload\n      0x40\n      swap1\n      swap3\n      add\n      swap2\n      tag_379\n      swap1\n      tag_160\n      jump\t// in\n    tag_379:\n      dup1\n      0x1f\n      add\n      0x20\n      dup1\n      swap2\n      div\n      mul\n      0x20\n      add\n      mload(0x40)\n      swap1\n      dup2\n      add\n      0x40\n      mstore\n      dup1\n      swap3\n      swap2\n      swap1\n      dup2\n      dup2\n      mstore\n      0x20\n      add\n      dup3\n      dup1\n      sload\n      tag_380\n      swap1\n      tag_160\n      jump\t// in\n    tag_380:\n      dup1\n      iszero\n      tag_381\n      jumpi\n      dup1\n      0x1f\n      lt\n      tag_382\n      jumpi\n      0x0100\n      dup1\n      dup4\n      sload\n      div\n      mul\n      dup4\n      mstore\n      swap2\n      0x20\n      add\n      swap2\n      jump(tag_381)\n    tag_382:\n      dup3\n      add\n      swap2\n      swap1\n      0x00\n      mstore\n      keccak256(0x00, 0x20)\n      swap1\n    tag_383:\n      dup2\n      sload\n      dup2\n      mstore\n      swap1\n      0x01\n      add\n      swap1\n      0x20\n      add\n      dup1\n      dup4\n      gt\n      tag_383\n      jumpi\n      dup3\n      swap1\n      sub\n      0x1f\n      and\n      dup3\n      add\n      swap2\n    tag_381:\n      pop\n      pop\n      pop\n      swap2\n      dup4\n      mstore\n      pop\n      pop\n      0x04\n      dup3\n      add\n      sload\n      0x20\n      dup3\n      add\n      mstore\n      0x05\n      swap1\n      swap2\n      add\n      sload\n      0xff\n      and\n      iszero\n      iszero\n      0x40\n      swap1\n      swap2\n      add\n      mstore\n      swap3\n        /* \"src/LogisticsTracking.sol\":8954:9173  function getIncident(uint256 _incidentId) public view returns (Incident memory) {... */\n      swap2\n      pop\n      pop\n      jump\t// out\n        /* \"src/LogisticsTracking.sol\":2085:2136  mapping(address => uint256[]) public actorShipments */\n    tag_113:\n      mstore(0x20, 0x08)\n      dup2\n      0x00\n      mstore\n      keccak256(0x00, 0x40)\n      dup2\n      dup2\n      sload\n      dup2\n      lt\n      tag_384\n      jumpi\n      0x00\n      dup1\n      revert\n    tag_384:\n      swap1\n      0x00\n      mstore\n      keccak256(0x00, 0x20)\n      add\n      0x00\n      swap2\n      pop\n      swap2\n      pop\n      pop\n      sload\n      dup2\n      jump\t// out\n        /* \"src/LogisticsTracking.sol\":1989:2034  mapping(uint256 => Incident) public incidents */\n    tag_117:\n      mstore(0x20, 0x06)\n      0x00\n      swap1\n      dup2\n      mstore\n      0x40\n      swap1\n      keccak256\n      dup1\n      sload\n      0x01\n      dup3\n      add\n      sload\n      0x02\n      dup4\n      add\n      sload\n      0x03\n      dup5\n      add\n      dup1\n      sload\n      swap4\n      swap5\n      swap3\n      swap4\n      0xff\n      dup4\n      and\n      swap4\n      0x0100\n      swap1\n      swap4\n      div\n      sub(shl(0xa0, 0x01), 0x01)\n      and\n      swap3\n      swap2\n      swap1\n      tag_386\n      swap1\n      tag_160\n      jump\t// in\n    tag_386:\n      dup1\n      0x1f\n      add\n      0x20\n      dup1\n      swap2\n      div\n      mul\n      0x20\n      add\n      mload(0x40)\n      swap1\n      dup2\n      add\n      0x40\n      mstore\n      dup1\n      swap3\n      swap2\n      swap1\n      dup2\n      dup2\n      mstore\n      0x20\n      add\n      dup3\n      dup1\n      sload\n      tag_387\n      swap1\n      tag_160\n      jump\t// in\n    tag_387:\n      dup1\n      iszero\n      tag_388\n      jumpi\n      dup1\n      0x1f\n      lt\n      tag_389\n      jumpi\n      0x0100\n      dup1\n      dup4\n      sload\n      div\n      mul\n      dup4\n      mstore\n      swap2\n      0x20\n      add\n      swap2\n      jump(tag_388)\n    tag_389:\n      dup3\n      add\n      swap2\n      swap1\n      0x00\n      mstore\n      keccak256(0x00, 0x20)\n      swap1\n    tag_390:\n      dup2\n      sload\n      dup2\n      mstore\n      swap1\n      0x01\n      add\n      swap1\n      0x20\n      add\n      dup1\n      dup4\n      gt\n      tag_390\n      jumpi\n      dup3\n      swap1\n      sub\n      0x1f\n      and\n      dup3\n      add\n      swap2\n    tag_388:\n      pop\n      pop\n      pop\n      pop\n      0x04\n      dup4\n      add\n      sload\n      0x05\n      swap1\n      swap4\n      add\n      sload\n      swap2\n      swap3\n      swap2\n      0xff\n      and\n      swap1\n      pop\n      dup8\n      jump\t// out\n        /* \"src/LogisticsTracking.sol\":9778:10224  function verifyTemperatureCompliance(uint256 _shipmentId) public view returns (bool) {... */\n    tag_122:\n        /* \"src/LogisticsTracking.sol\":9857:9861  bool */\n      0x00\n        /* \"src/LogisticsTracking.sol\":9894:9916  shipments[_shipmentId] */\n      dup2\n      dup2\n      mstore\n        /* \"src/LogisticsTracking.sol\":9894:9903  shipments */\n      0x04\n        /* \"src/LogisticsTracking.sol\":9894:9916  shipments[_shipmentId] */\n      0x20\n      mstore\n      0x40\n      dup2\n      keccak256\n        /* \"src/LogisticsTracking.sol\":9931:9950  s.requiresColdChain */\n      0x0b\n      dup2\n      add\n      sload\n      0xff\n      and\n        /* \"src/LogisticsTracking.sol\":9926:9963  if (!s.requiresColdChain) return true */\n      tag_392\n      jumpi\n      pop\n        /* \"src/LogisticsTracking.sol\":9959:9963  true */\n      0x01\n      swap3\n        /* \"src/LogisticsTracking.sol\":9778:10224  function verifyTemperatureCompliance(uint256 _shipmentId) public view returns (bool) {... */\n      swap2\n      pop\n      pop\n      jump\t// out\n        /* \"src/LogisticsTracking.sol\":9926:9963  if (!s.requiresColdChain) return true */\n    tag_392:\n        /* \"src/LogisticsTracking.sol\":9979:9988  uint256 i */\n      0x00\n        /* \"src/LogisticsTracking.sol\":9974:10197  for (uint256 i = 0; i < s.checkpointIds.length; i++) {... */\n    tag_393:\n        /* \"src/LogisticsTracking.sol\":9998:10013  s.checkpointIds */\n      0x09\n      dup3\n      add\n        /* \"src/LogisticsTracking.sol\":9998:10020  s.checkpointIds.length */\n      sload\n        /* \"src/LogisticsTracking.sol\":9994:10020  i < s.checkpointIds.length */\n      dup2\n      lt\n        /* \"src/LogisticsTracking.sol\":9974:10197  for (uint256 i = 0; i < s.checkpointIds.length; i++) {... */\n      iszero\n      tag_394\n      jumpi\n        /* \"src/LogisticsTracking.sol\":10041:10052  int256 temp */\n      0x00\n        /* \"src/LogisticsTracking.sol\":10055:10066  checkpoints */\n      0x05\n        /* \"src/LogisticsTracking.sol\":10055:10086  checkpoints[s.checkpointIds[i]] */\n      0x00\n        /* \"src/LogisticsTracking.sol\":10067:10068  s */\n      dup5\n        /* \"src/LogisticsTracking.sol\":10067:10082  s.checkpointIds */\n      0x09\n      add\n        /* \"src/LogisticsTracking.sol\":10083:10084  i */\n      dup5\n        /* \"src/LogisticsTracking.sol\":10067:10085  s.checkpointIds[i] */\n      dup2\n      sload\n      dup2\n      lt\n      tag_397\n      jumpi\n      tag_397\n      tag_295\n      jump\t// in\n    tag_397:\n      swap1\n      0x00\n      mstore\n      keccak256(0x00, 0x20)\n      add\n      sload\n        /* \"src/LogisticsTracking.sol\":10055:10086  checkpoints[s.checkpointIds[i]] */\n      dup2\n      mstore\n      0x20\n      add\n      swap1\n      dup2\n      mstore\n      0x20\n      add\n      0x00\n      keccak256\n        /* \"src/LogisticsTracking.sol\":10055:10098  checkpoints[s.checkpointIds[i]].temperature */\n      0x07\n      add\n      sload\n        /* \"src/LogisticsTracking.sol\":10041:10098  int256 temp = checkpoints[s.checkpointIds[i]].temperature */\n      swap1\n      pop\n        /* \"src/LogisticsTracking.sol\":10123:10125  80 */\n      0x50\n        /* \"src/LogisticsTracking.sol\":10116:10120  temp */\n      dup2\n        /* \"src/LogisticsTracking.sol\":10116:10125  temp > 80 */\n      sgt\n        /* \"src/LogisticsTracking.sol\":10116:10138  temp > 80 || temp < 20 */\n      dup1\n      tag_399\n      jumpi\n      pop\n        /* \"src/LogisticsTracking.sol\":10136:10138  20 */\n      0x14\n        /* \"src/LogisticsTracking.sol\":10129:10133  temp */\n      dup2\n        /* \"src/LogisticsTracking.sol\":10129:10138  temp < 20 */\n      slt\n        /* \"src/LogisticsTracking.sol\":10116:10138  temp > 80 || temp < 20 */\n    tag_399:\n        /* \"src/LogisticsTracking.sol\":10112:10152  if (temp > 80 || temp < 20) return false */\n      iszero\n      tag_400\n      jumpi\n      pop\n        /* \"src/LogisticsTracking.sol\":10147:10152  false */\n      0x00\n      swap5\n        /* \"src/LogisticsTracking.sol\":9778:10224  function verifyTemperatureCompliance(uint256 _shipmentId) public view returns (bool) {... */\n      swap4\n      pop\n      pop\n      pop\n      pop\n      jump\t// out\n        /* \"src/LogisticsTracking.sol\":10112:10152  if (temp > 80 || temp < 20) return false */\n    tag_400:\n      pop\n        /* \"src/LogisticsTracking.sol\":10022:10025  i++ */\n      0x01\n      add\n        /* \"src/LogisticsTracking.sol\":9974:10197  for (uint256 i = 0; i < s.checkpointIds.length; i++) {... */\n      jump(tag_393)\n    tag_394:\n      pop\n        /* \"src/LogisticsTracking.sol\":10213:10217  true */\n      0x01\n      swap4\n        /* \"src/LogisticsTracking.sol\":9778:10224  function verifyTemperatureCompliance(uint256 _shipmentId) public view returns (bool) {... */\n      swap3\n      pop\n      pop\n      pop\n      jump\t// out\n        /* \"src/LogisticsTracking.sol\":1934:1983  mapping(uint256 => Checkpoint) public checkpoints */\n    tag_126:\n      mstore(0x20, 0x05)\n      0x00\n      swap1\n      dup2\n      mstore\n      0x40\n      swap1\n      keccak256\n      dup1\n      sload\n      0x01\n      dup3\n      add\n      sload\n      0x02\n      dup4\n      add\n      sload\n      0x03\n      dup5\n      add\n      dup1\n      sload\n      swap4\n      swap5\n      swap3\n      swap4\n      sub(shl(0xa0, 0x01), 0x01)\n      swap1\n      swap3\n      and\n      swap3\n      swap2\n      tag_401\n      swap1\n      tag_160\n      jump\t// in\n    tag_401:\n      dup1\n      0x1f\n      add\n      0x20\n      dup1\n      swap2\n      div\n      mul\n      0x20\n      add\n      mload(0x40)\n      swap1\n      dup2\n      add\n      0x40\n      mstore\n      dup1\n      swap3\n      swap2\n      swap1\n      dup2\n      dup2\n      mstore\n      0x20\n      add\n      dup3\n      dup1\n      sload\n      tag_402\n      swap1\n      tag_160\n      jump\t// in\n    tag_402:\n      dup1\n      iszero\n      tag_403\n      jumpi\n      dup1\n      0x1f\n      lt\n      tag_404\n      jumpi\n      0x0100\n      dup1\n      dup4\n      sload\n      div\n      mul\n      dup4\n      mstore\n      swap2\n      0x20\n      add\n      swap2\n      jump(tag_403)\n    tag_404:\n      dup3\n      add\n      swap2\n      swap1\n      0x00\n      mstore\n      keccak256(0x00, 0x20)\n      swap1\n    tag_405:\n      dup2\n      sload\n      dup2\n      mstore\n      swap1\n      0x01\n      add\n      swap1\n      0x20\n      add\n      dup1\n      dup4\n      gt\n      tag_405\n      jumpi\n      dup3\n      swap1\n      sub\n      0x1f\n      and\n      dup3\n      add\n      swap2\n    tag_403:\n      pop\n      pop\n      pop\n      pop\n      pop\n      swap1\n      dup1\n      0x04\n      add\n      dup1\n      sload\n      tag_406\n      swap1\n      tag_160\n      jump\t// in\n    tag_406:\n      dup1\n      0x1f\n      add\n      0x20\n      dup1\n      swap2\n      div\n      mul\n      0x20\n      add\n      mload(0x40)\n      swap1\n      dup2\n      add\n      0x40\n      mstore\n      dup1\n      swap3\n      swap2\n      swap1\n      dup2\n      dup2\n      mstore\n      0x20\n      add\n      dup3\n      dup1\n      sload\n      tag_407\n      swap1\n      tag_160\n      jump\t// in\n    tag_407:\n      dup1\n      iszero\n      tag_408\n      jumpi\n      dup1\n      0x1f\n      lt\n      tag_409\n      jumpi\n      0x0100\n      dup1\n      dup4\n      sload\n      div\n      mul\n      dup4\n      mstore\n      swap2\n      0x20\n      add\n      swap2\n      jump(tag_408)\n    tag_409:\n      dup3\n      add\n      swap2\n      swap1\n      0x00\n      mstore\n      keccak256(0x00, 0x20)\n      swap1\n    tag_410:\n      dup2\n      sload\n      dup2\n      mstore\n      swap1\n      0x01\n      add\n      swap1\n      0x20\n      add\n      dup1\n      dup4\n      gt\n      tag_410\n      jumpi\n      dup3\n      swap1\n      sub\n      0x1f\n      and\n      dup3\n      add\n      swap2\n    tag_408:\n      pop\n      pop\n      pop\n      pop\n      pop\n      swap1\n      dup1\n      0x05\n      add\n      sload\n      swap1\n      dup1\n      0x06\n      add\n      dup1\n      sload\n      tag_411\n      swap1\n      tag_160\n      jump\t// in\n    tag_411:\n      dup1\n      0x1f\n      add\n      0x20\n      dup1\n      swap2\n      div\n      mul\n      0x20\n      add\n      mload(0x40)\n      swap1\n      dup2\n      add\n      0x40\n      mstore\n      dup1\n      swap3\n      swap2\n      swap1\n      dup2\n      dup2\n      mstore\n      0x20\n      add\n      dup3\n      dup1\n      sload\n      tag_412\n      swap1\n      tag_160\n      jump\t// in\n    tag_412:\n      dup1\n      iszero\n      tag_413\n      jumpi\n      dup1\n      0x1f\n      lt\n      tag_414\n      jumpi\n      0x0100\n      dup1\n      dup4\n      sload\n      div\n      mul\n      dup4\n      mstore\n      swap2\n      0x20\n      add\n      swap2\n      jump(tag_413)\n    tag_414:\n      dup3\n      add\n      swap2\n      swap1\n      0x00\n      mstore\n      keccak256(0x00, 0x20)\n      swap1\n    tag_415:\n      dup2\n      sload\n      dup2\n      mstore\n      swap1\n      0x01\n      add\n      swap1\n      0x20\n      add\n      dup1\n      dup4\n      gt\n      tag_415\n      jumpi\n      dup3\n      swap1\n      sub\n      0x1f\n      and\n      dup3\n      add\n      swap2\n    tag_413:\n      pop\n      pop\n      pop\n      pop\n      pop\n      swap1\n      dup1\n      0x07\n      add\n      sload\n      swap1\n      pop\n      dup9\n      jump\t// out\n        /* \"src/LogisticsTracking.sol\":3597:3951  function registerActor(string memory _name, ActorRole _role, string memory _location) public {... */\n    tag_135:\n        /* \"src/LogisticsTracking.sol\":3716:3726  msg.sender */\n      caller\n        /* \"src/LogisticsTracking.sol\":3709:3727  actors[msg.sender] */\n      0x00\n      swap1\n      dup2\n      mstore\n        /* \"src/LogisticsTracking.sol\":3709:3715  actors */\n      0x07\n        /* \"src/LogisticsTracking.sol\":3709:3727  actors[msg.sender] */\n      0x20\n      mstore\n      0x40\n      swap1\n      keccak256\n        /* \"src/LogisticsTracking.sol\":3709:3736  actors[msg.sender].isActive */\n      0x04\n      add\n      sload\n      0xff\n      and\n        /* \"src/LogisticsTracking.sol\":3708:3736  !actors[msg.sender].isActive */\n      iszero\n        /* \"src/LogisticsTracking.sol\":3700:3759  require(!actors[msg.sender].isActive, \"Already registered\") */\n      tag_417\n      jumpi\n      mload(0x40)\n      shl(0xe5, 0x461bcd)\n      dup2\n      mstore\n        /* \"#utility.yul\":23647:23649   */\n      0x20\n        /* \"src/LogisticsTracking.sol\":3700:3759  require(!actors[msg.sender].isActive, \"Already registered\") */\n      0x04\n      dup3\n      add\n        /* \"#utility.yul\":23629:23650   */\n      mstore\n        /* \"#utility.yul\":23686:23688   */\n      0x12\n        /* \"#utility.yul\":23666:23684   */\n      0x24\n      dup3\n      add\n        /* \"#utility.yul\":23659:23689   */\n      mstore\n      shl(0x72, 0x105b1c9958591e481c9959da5cdd195c9959)\n        /* \"#utility.yul\":23705:23723   */\n      0x44\n      dup3\n      add\n        /* \"#utility.yul\":23698:23746   */\n      mstore\n        /* \"#utility.yul\":23763:23781   */\n      0x64\n      add\n        /* \"src/LogisticsTracking.sol\":3700:3759  require(!actors[msg.sender].isActive, \"Already registered\") */\n      tag_189\n        /* \"#utility.yul\":23445:23787   */\n      jump\n        /* \"src/LogisticsTracking.sol\":3700:3759  require(!actors[msg.sender].isActive, \"Already registered\") */\n    tag_417:\n        /* \"src/LogisticsTracking.sol\":3790:3888  Actor({ actorAddress: msg.sender, name: _name, role: _role, location: _location, isActive: true }) */\n      mload(0x40)\n      dup1\n      0xa0\n      add\n      0x40\n      mstore\n      dup1\n        /* \"src/LogisticsTracking.sol\":3812:3822  msg.sender */\n      caller\n      sub(shl(0xa0, 0x01), 0x01)\n        /* \"src/LogisticsTracking.sol\":3790:3888  Actor({ actorAddress: msg.sender, name: _name, role: _role, location: _location, isActive: true }) */\n      and\n      dup2\n      mstore\n      0x20\n      add\n        /* \"src/LogisticsTracking.sol\":3830:3835  _name */\n      dup5\n        /* \"src/LogisticsTracking.sol\":3790:3888  Actor({ actorAddress: msg.sender, name: _name, role: _role, location: _location, isActive: true }) */\n      dup2\n      mstore\n      0x20\n      add\n        /* \"src/LogisticsTracking.sol\":3843:3848  _role */\n      dup4\n        /* \"src/LogisticsTracking.sol\":3790:3888  Actor({ actorAddress: msg.sender, name: _name, role: _role, location: _location, isActive: true }) */\n      0x05\n      dup2\n      gt\n      iszero\n      tag_421\n      jumpi\n      tag_421\n      tag_177\n      jump\t// in\n    tag_421:\n      dup2\n      mstore\n      0x20\n      dup1\n      dup3\n      add\n      dup5\n      swap1\n      mstore\n        /* \"src/LogisticsTracking.sol\":3881:3885  true */\n      0x01\n        /* \"src/LogisticsTracking.sol\":3790:3888  Actor({ actorAddress: msg.sender, name: _name, role: _role, location: _location, isActive: true }) */\n      0x40\n      swap3\n      dup4\n      add\n      dup2\n      swap1\n      mstore\n        /* \"src/LogisticsTracking.sol\":3776:3786  msg.sender */\n      caller\n      0x00\n        /* \"src/LogisticsTracking.sol\":3769:3787  actors[msg.sender] */\n      swap1\n      dup2\n      mstore\n        /* \"src/LogisticsTracking.sol\":3769:3775  actors */\n      0x07\n        /* \"src/LogisticsTracking.sol\":3769:3787  actors[msg.sender] */\n      dup4\n      mstore\n      swap3\n      swap1\n      swap3\n      keccak256\n        /* \"src/LogisticsTracking.sol\":3769:3888  actors[msg.sender] = Actor({ actorAddress: msg.sender, name: _name, role: _role, location: _location, isActive: true }) */\n      dup4\n      mload\n      dup2\n      sload\n      not(sub(shl(0xa0, 0x01), 0x01))\n      and\n      sub(shl(0xa0, 0x01), 0x01)\n      swap1\n      swap2\n      and\n      or\n      dup2\n      sstore\n      swap1\n      dup4\n      add\n      mload\n        /* \"src/LogisticsTracking.sol\":3769:3787  actors[msg.sender] */\n      swap1\n      swap2\n        /* \"src/LogisticsTracking.sol\":3769:3888  actors[msg.sender] = Actor({ actorAddress: msg.sender, name: _name, role: _role, location: _location, isActive: true }) */\n      dup3\n      add\n      swap1\n      tag_422\n      swap1\n      dup3\n      tag_231\n      jump\t// in\n    tag_422:\n      pop\n      0x40\n      dup3\n      add\n      mload\n      0x02\n      dup3\n      add\n      dup1\n      sload\n      not(0xff)\n      and\n      0x01\n      dup4\n      0x05\n      dup2\n      gt\n      iszero\n      tag_424\n      jumpi\n      tag_424\n      tag_177\n      jump\t// in\n    tag_424:\n      mul\n      or\n      swap1\n      sstore\n      pop\n      0x60\n      dup3\n      add\n      mload\n      0x03\n      dup3\n      add\n      swap1\n      tag_425\n      swap1\n      dup3\n      tag_231\n      jump\t// in\n    tag_425:\n      pop\n      0x80\n      swap2\n      swap1\n      swap2\n      add\n      mload\n      0x04\n      swap1\n      swap2\n      add\n      dup1\n      sload\n      not(0xff)\n      and\n      swap2\n      iszero\n      iszero\n      swap2\n      swap1\n      swap2\n      or\n      swap1\n      sstore\n        /* \"src/LogisticsTracking.sol\":3903:3944  ActorRegistered(msg.sender, _name, _role) */\n      mload(0x40)\n        /* \"src/LogisticsTracking.sol\":3919:3929  msg.sender */\n      caller\n      swap1\n        /* \"src/LogisticsTracking.sol\":3903:3944  ActorRegistered(msg.sender, _name, _role) */\n      0xc9a31de765abe70445345802bee3c96554ca063ab257e3888d498accb859fabc\n      swap1\n      tag_350\n      swap1\n        /* \"src/LogisticsTracking.sol\":3931:3936  _name */\n      dup7\n      swap1\n        /* \"src/LogisticsTracking.sol\":3938:3943  _role */\n      dup7\n      swap1\n        /* \"src/LogisticsTracking.sol\":3903:3944  ActorRegistered(msg.sender, _name, _role) */\n      tag_427\n      jump\t// in\n        /* \"src/LogisticsTracking.sol\":8218:8780  function reportIncident(uint256 _shipmentId, IncidentType _type, string memory _desc)... */\n    tag_139:\n        /* \"src/LogisticsTracking.sol\":8396:8403  uint256 */\n      0x00\n        /* \"src/LogisticsTracking.sol\":3095:3113  _onlyActiveActor() */\n      tag_429\n        /* \"src/LogisticsTracking.sol\":3095:3111  _onlyActiveActor */\n      tag_223\n        /* \"src/LogisticsTracking.sol\":3095:3113  _onlyActiveActor() */\n      jump\t// in\n    tag_429:\n        /* \"src/LogisticsTracking.sol\":8366:8377  _shipmentId */\n      dup4\n        /* \"src/LogisticsTracking.sol\":3321:3341  _shipmentExists(_id) */\n      tag_431\n        /* \"src/LogisticsTracking.sol\":3337:3340  _id */\n      dup2\n        /* \"src/LogisticsTracking.sol\":3321:3336  _shipmentExists */\n      tag_226\n        /* \"src/LogisticsTracking.sol\":3321:3341  _shipmentExists(_id) */\n      jump\t// in\n    tag_431:\n        /* \"src/LogisticsTracking.sol\":8435:8449  nextIncidentId */\n      0x03\n        /* \"src/LogisticsTracking.sol\":8435:8451  nextIncidentId++ */\n      dup1\n      sload\n        /* \"src/LogisticsTracking.sol\":8419:8432  uint256 incId */\n      0x00\n      swap2\n      dup3\n        /* \"src/LogisticsTracking.sol\":8435:8451  nextIncidentId++ */\n      tag_433\n      dup4\n      tag_229\n      jump\t// in\n    tag_433:\n      swap2\n      swap1\n      pop\n      sstore\n        /* \"src/LogisticsTracking.sol\":8419:8451  uint256 incId = nextIncidentId++ */\n      swap1\n      pop\n        /* \"src/LogisticsTracking.sol\":8480:8636  Incident({ id: incId, shipmentId: _shipmentId, incidentType: _type, reporter: msg.sender, description: _desc, timestamp: block.timestamp, resolved: false }) */\n      mload(0x40)\n      dup1\n      0xe0\n      add\n      0x40\n      mstore\n      dup1\n        /* \"src/LogisticsTracking.sol\":8495:8500  incId */\n      dup3\n        /* \"src/LogisticsTracking.sol\":8480:8636  Incident({ id: incId, shipmentId: _shipmentId, incidentType: _type, reporter: msg.sender, description: _desc, timestamp: block.timestamp, resolved: false }) */\n      dup2\n      mstore\n      0x20\n      add\n        /* \"src/LogisticsTracking.sol\":8514:8525  _shipmentId */\n      dup8\n        /* \"src/LogisticsTracking.sol\":8480:8636  Incident({ id: incId, shipmentId: _shipmentId, incidentType: _type, reporter: msg.sender, description: _desc, timestamp: block.timestamp, resolved: false }) */\n      dup2\n      mstore\n      0x20\n      add\n        /* \"src/LogisticsTracking.sol\":8541:8546  _type */\n      dup7\n        /* \"src/LogisticsTracking.sol\":8480:8636  Incident({ id: incId, shipmentId: _shipmentId, incidentType: _type, reporter: msg.sender, description: _desc, timestamp: block.timestamp, resolved: false }) */\n      0x04\n      dup2\n      gt\n      iszero\n      tag_435\n      jumpi\n      tag_435\n      tag_177\n      jump\t// in\n    tag_435:\n      dup2\n      mstore\n      0x20\n      add\n        /* \"src/LogisticsTracking.sol\":8558:8568  msg.sender */\n      caller\n      sub(shl(0xa0, 0x01), 0x01)\n        /* \"src/LogisticsTracking.sol\":8480:8636  Incident({ id: incId, shipmentId: _shipmentId, incidentType: _type, reporter: msg.sender, description: _desc, timestamp: block.timestamp, resolved: false }) */\n      and\n      dup2\n      mstore\n      0x20\n      add\n        /* \"src/LogisticsTracking.sol\":8583:8588  _desc */\n      dup6\n        /* \"src/LogisticsTracking.sol\":8480:8636  Incident({ id: incId, shipmentId: _shipmentId, incidentType: _type, reporter: msg.sender, description: _desc, timestamp: block.timestamp, resolved: false }) */\n      dup2\n      mstore\n      0x20\n      add\n        /* \"src/LogisticsTracking.sol\":8601:8616  block.timestamp */\n      timestamp\n        /* \"src/LogisticsTracking.sol\":8480:8636  Incident({ id: incId, shipmentId: _shipmentId, incidentType: _type, reporter: msg.sender, description: _desc, timestamp: block.timestamp, resolved: false }) */\n      dup2\n      mstore\n      0x20\n      add\n        /* \"src/LogisticsTracking.sol\":8628:8633  false */\n      0x00\n        /* \"src/LogisticsTracking.sol\":8480:8636  Incident({ id: incId, shipmentId: _shipmentId, incidentType: _type, reporter: msg.sender, description: _desc, timestamp: block.timestamp, resolved: false }) */\n      iszero\n      iszero\n      dup2\n      mstore\n      pop\n        /* \"src/LogisticsTracking.sol\":8461:8470  incidents */\n      0x06\n        /* \"src/LogisticsTracking.sol\":8461:8477  incidents[incId] */\n      0x00\n        /* \"src/LogisticsTracking.sol\":8471:8476  incId */\n      dup4\n        /* \"src/LogisticsTracking.sol\":8461:8477  incidents[incId] */\n      dup2\n      mstore\n      0x20\n      add\n      swap1\n      dup2\n      mstore\n      0x20\n      add\n      0x00\n      keccak256\n        /* \"src/LogisticsTracking.sol\":8461:8636  incidents[incId] = Incident({ id: incId, shipmentId: _shipmentId, incidentType: _type, reporter: msg.sender, description: _desc, timestamp: block.timestamp, resolved: false }) */\n      0x00\n      dup3\n      add\n      mload\n      dup2\n      0x00\n      add\n      sstore\n      0x20\n      dup3\n      add\n      mload\n      dup2\n      0x01\n      add\n      sstore\n      0x40\n      dup3\n      add\n      mload\n      dup2\n      0x02\n      add\n      exp(0x0100, 0x00)\n      dup2\n      sload\n      dup2\n      0xff\n      mul\n      not\n      and\n      swap1\n      dup4\n      0x04\n      dup2\n      gt\n      iszero\n      tag_437\n      jumpi\n      tag_437\n      tag_177\n      jump\t// in\n    tag_437:\n      mul\n      or\n      swap1\n      sstore\n      pop\n      0x60\n      dup3\n      add\n      mload\n      0x02\n      dup3\n      add\n      dup1\n      sload\n      sub(shl(0xa0, 0x01), 0x01)\n      swap1\n      swap3\n      and\n      0x0100\n      mul\n      not(sub(shl(0xa8, 0x01), 0x0100))\n      swap1\n      swap3\n      and\n      swap2\n      swap1\n      swap2\n      or\n      swap1\n      sstore\n      0x80\n      dup3\n      add\n      mload\n      0x03\n      dup3\n      add\n      swap1\n      tag_438\n      swap1\n      dup3\n      tag_231\n      jump\t// in\n    tag_438:\n      pop\n      0xa0\n      dup3\n      add\n      mload\n      0x04\n      dup3\n      dup2\n      add\n      swap2\n      swap1\n      swap2\n      sstore\n      0xc0\n      swap1\n      swap3\n      add\n      mload\n      0x05\n      swap1\n      swap2\n      add\n      dup1\n      sload\n      not(0xff)\n      and\n      swap2\n      iszero\n      iszero\n      swap2\n      swap1\n      swap2\n      or\n      swap1\n      sstore\n      0x00\n        /* \"src/LogisticsTracking.sol\":8646:8668  shipments[_shipmentId] */\n      dup8\n      dup2\n      mstore\n      0x20\n      swap2\n      dup3\n      mstore\n      0x40\n      dup1\n      dup3\n      keccak256\n        /* \"src/LogisticsTracking.sol\":8646:8680  shipments[_shipmentId].incidentIds */\n      0x0a\n      add\n        /* \"src/LogisticsTracking.sol\":8646:8692  shipments[_shipmentId].incidentIds.push(incId) */\n      dup1\n      sload\n      0x01\n      dup2\n      add\n      dup3\n      sstore\n      swap1\n      dup4\n      mstore\n      swap3\n      swap1\n      swap2\n      keccak256\n      swap1\n      swap2\n      add\n      dup3\n      swap1\n      sstore\n        /* \"src/LogisticsTracking.sol\":8708:8751  IncidentReported(incId, _shipmentId, _type) */\n      mload\n        /* \"src/LogisticsTracking.sol\":8646:8668  shipments[_shipmentId] */\n      dup7\n      swap1\n        /* \"src/LogisticsTracking.sol\":8646:8692  shipments[_shipmentId].incidentIds.push(incId) */\n      dup3\n      swap1\n        /* \"src/LogisticsTracking.sol\":8708:8751  IncidentReported(incId, _shipmentId, _type) */\n      0xc2c9d0fa5caecea68b9ec6aca764014b01764f779d8a510f0d0d6796b76b7c83\n      swap1\n      tag_440\n      swap1\n        /* \"src/LogisticsTracking.sol\":8745:8750  _type */\n      dup10\n      swap1\n        /* \"src/LogisticsTracking.sol\":8708:8751  IncidentReported(incId, _shipmentId, _type) */\n      tag_441\n      jump\t// in\n    tag_440:\n      mload(0x40)\n      dup1\n      swap2\n      sub\n      swap1\n      log3\n        /* \"src/LogisticsTracking.sol\":8768:8773  incId */\n      swap6\n        /* \"src/LogisticsTracking.sol\":8218:8780  function reportIncident(uint256 _shipmentId, IncidentType _type, string memory _desc)... */\n      swap5\n      pop\n      pop\n      pop\n      pop\n      pop\n      jump\t// out\n        /* \"src/LogisticsTracking.sol\":2040:2079  mapping(address => Actor) public actors */\n    tag_143:\n      mstore(0x20, 0x07)\n      0x00\n      swap1\n      dup2\n      mstore\n      0x40\n      swap1\n      keccak256\n      dup1\n      sload\n      0x01\n      dup3\n      add\n      dup1\n      sload\n      sub(shl(0xa0, 0x01), 0x01)\n      swap1\n      swap3\n      and\n      swap3\n      swap2\n      tag_442\n      swap1\n      tag_160\n      jump\t// in\n    tag_442:\n      dup1\n      0x1f\n      add\n      0x20\n      dup1\n      swap2\n      div\n      mul\n      0x20\n      add\n      mload(0x40)\n      swap1\n      dup2\n      add\n      0x40\n      mstore\n      dup1\n      swap3\n      swap2\n      swap1\n      dup2\n      dup2\n      mstore\n      0x20\n      add\n      dup3\n      dup1\n      sload\n      tag_443\n      swap1\n      tag_160\n      jump\t// in\n    tag_443:\n      dup1\n      iszero\n      tag_444\n      jumpi\n      dup1\n      0x1f\n      lt\n      tag_445\n      jumpi\n      0x0100\n      dup1\n      dup4\n      sload\n      div\n      mul\n      dup4\n      mstore\n      swap2\n      0x20\n      add\n      swap2\n      jump(tag_444)\n    tag_445:\n      dup3\n      add\n      swap2\n      swap1\n      0x00\n      mstore\n      keccak256(0x00, 0x20)\n      swap1\n    tag_446:\n      dup2\n      sload\n      dup2\n      mstore\n      swap1\n      0x01\n      add\n      swap1\n      0x20\n      add\n      dup1\n      dup4\n      gt\n      tag_446\n      jumpi\n      dup3\n      swap1\n      sub\n      0x1f\n      and\n      dup3\n      add\n      swap2\n    tag_444:\n      pop\n      pop\n      pop\n      0x02\n      dup5\n      add\n      sload\n      0x03\n      dup6\n      add\n      dup1\n      sload\n      swap5\n      swap6\n      0xff\n      swap1\n      swap3\n      and\n      swap5\n      swap2\n      swap4\n      pop\n      swap2\n      pop\n      tag_447\n      swap1\n      tag_160\n      jump\t// in\n    tag_447:\n      dup1\n      0x1f\n      add\n      0x20\n      dup1\n      swap2\n      div\n      mul\n      0x20\n      add\n      mload(0x40)\n      swap1\n      dup2\n      add\n      0x40\n      mstore\n      dup1\n      swap3\n      swap2\n      swap1\n      dup2\n      dup2\n      mstore\n      0x20\n      add\n      dup3\n      dup1\n      sload\n      tag_448\n      swap1\n      tag_160\n      jump\t// in\n    tag_448:\n      dup1\n      iszero\n      tag_449\n      jumpi\n      dup1\n      0x1f\n      lt\n      tag_450\n      jumpi\n      0x0100\n      dup1\n      dup4\n      sload\n      div\n      mul\n      dup4\n      mstore\n      swap2\n      0x20\n      add\n      swap2\n      jump(tag_449)\n    tag_450:\n      dup3\n      add\n      swap2\n      swap1\n      0x00\n      mstore\n      keccak256(0x00, 0x20)\n      swap1\n    tag_451:\n      dup2\n      sload\n      dup2\n      mstore\n      swap1\n      0x01\n      add\n      swap1\n      0x20\n      add\n      dup1\n      dup4\n      gt\n      tag_451\n      jumpi\n      dup3\n      swap1\n      sub\n      0x1f\n      and\n      dup3\n      add\n      swap2\n    tag_449:\n      pop\n      pop\n      pop\n      0x04\n      swap1\n      swap4\n      add\n      sload\n      swap2\n      swap3\n      pop\n      pop\n      0xff\n      and\n      dup6\n      jump\t// out\n        /* \"src/LogisticsTracking.sol\":4084:4204  function deactivateActor(address _actorAddress) public onlyAdmin {... */\n    tag_152:\n        /* \"src/LogisticsTracking.sol\":2921:2933  _onlyAdmin() */\n      tag_453\n        /* \"src/LogisticsTracking.sol\":2921:2931  _onlyAdmin */\n      tag_279\n        /* \"src/LogisticsTracking.sol\":2921:2933  _onlyAdmin() */\n      jump\t// in\n    tag_453:\n      sub(shl(0xa0, 0x01), 0x01)\n        /* \"src/LogisticsTracking.sol\":4159:4180  actors[_actorAddress] */\n      and\n        /* \"src/LogisticsTracking.sol\":4192:4197  false */\n      0x00\n        /* \"src/LogisticsTracking.sol\":4159:4180  actors[_actorAddress] */\n      swap1\n      dup2\n      mstore\n        /* \"src/LogisticsTracking.sol\":4159:4165  actors */\n      0x07\n        /* \"src/LogisticsTracking.sol\":4159:4180  actors[_actorAddress] */\n      0x20\n      mstore\n      0x40\n      swap1\n      keccak256\n        /* \"src/LogisticsTracking.sol\":4159:4189  actors[_actorAddress].isActive */\n      0x04\n      add\n        /* \"src/LogisticsTracking.sol\":4159:4197  actors[_actorAddress].isActive = false */\n      dup1\n      sload\n      not(0xff)\n      and\n      swap1\n      sstore\n        /* \"src/LogisticsTracking.sol\":4084:4204  function deactivateActor(address _actorAddress) public onlyAdmin {... */\n      jump\t// out\n        /* \"src/LogisticsTracking.sol\":5509:6039  function confirmDelivery(uint256 _shipmentId) public shipmentExists(_shipmentId) {... */\n    tag_155:\n        /* \"src/LogisticsTracking.sol\":5577:5588  _shipmentId */\n      dup1\n        /* \"src/LogisticsTracking.sol\":3321:3341  _shipmentExists(_id) */\n      tag_456\n        /* \"src/LogisticsTracking.sol\":3337:3340  _id */\n      dup2\n        /* \"src/LogisticsTracking.sol\":3321:3336  _shipmentExists */\n      tag_226\n        /* \"src/LogisticsTracking.sol\":3321:3341  _shipmentExists(_id) */\n      jump\t// in\n    tag_456:\n        /* \"src/LogisticsTracking.sol\":5600:5618  Shipment storage s */\n      0x00\n        /* \"src/LogisticsTracking.sol\":5621:5643  shipments[_shipmentId] */\n      dup3\n      dup2\n      mstore\n        /* \"src/LogisticsTracking.sol\":5621:5630  shipments */\n      0x04\n        /* \"src/LogisticsTracking.sol\":5621:5643  shipments[_shipmentId] */\n      0x20\n      mstore\n      0x40\n      swap1\n      keccak256\n        /* \"src/LogisticsTracking.sol\":5675:5686  s.recipient */\n      0x02\n      dup2\n      add\n      sload\n      sub(shl(0xa0, 0x01), 0x01)\n      and\n        /* \"src/LogisticsTracking.sol\":5661:5671  msg.sender */\n      caller\n        /* \"src/LogisticsTracking.sol\":5661:5686  msg.sender == s.recipient */\n      eq\n        /* \"src/LogisticsTracking.sol\":5653:5717  require(msg.sender == s.recipient, \"Only recipient can confirm\") */\n      tag_458\n      jumpi\n      mload(0x40)\n      shl(0xe5, 0x461bcd)\n      dup2\n      mstore\n        /* \"#utility.yul\":24536:24538   */\n      0x20\n        /* \"src/LogisticsTracking.sol\":5653:5717  require(msg.sender == s.recipient, \"Only recipient can confirm\") */\n      0x04\n      dup3\n      add\n        /* \"#utility.yul\":24518:24539   */\n      mstore\n        /* \"#utility.yul\":24575:24577   */\n      0x1a\n        /* \"#utility.yul\":24555:24573   */\n      0x24\n      dup3\n      add\n        /* \"#utility.yul\":24548:24578   */\n      mstore\n        /* \"#utility.yul\":24614:24642   */\n      0x4f6e6c7920726563697069656e742063616e20636f6e6669726d000000000000\n        /* \"#utility.yul\":24594:24612   */\n      0x44\n      dup3\n      add\n        /* \"#utility.yul\":24587:24643   */\n      mstore\n        /* \"#utility.yul\":24660:24678   */\n      0x64\n      add\n        /* \"src/LogisticsTracking.sol\":5653:5717  require(msg.sender == s.recipient, \"Only recipient can confirm\") */\n      tag_189\n        /* \"#utility.yul\":24334:24684   */\n      jump\n        /* \"src/LogisticsTracking.sol\":5653:5717  require(msg.sender == s.recipient, \"Only recipient can confirm\") */\n    tag_458:\n        /* \"src/LogisticsTracking.sol\":5747:5771  ShipmentStatus.Delivered */\n      0x04\n        /* \"src/LogisticsTracking.sol\":5735:5743  s.status */\n      0x08\n      dup3\n      add\n      sload\n      0xff\n      and\n        /* \"src/LogisticsTracking.sol\":5735:5771  s.status != ShipmentStatus.Delivered */\n      0x06\n      dup2\n      gt\n      iszero\n      tag_464\n      jumpi\n      tag_464\n      tag_177\n      jump\t// in\n    tag_464:\n      sub\n        /* \"src/LogisticsTracking.sol\":5727:5793  require(s.status != ShipmentStatus.Delivered, \"Already delivered\") */\n      tag_465\n      jumpi\n      mload(0x40)\n      shl(0xe5, 0x461bcd)\n      dup2\n      mstore\n        /* \"#utility.yul\":24891:24893   */\n      0x20\n        /* \"src/LogisticsTracking.sol\":5727:5793  require(s.status != ShipmentStatus.Delivered, \"Already delivered\") */\n      0x04\n      dup3\n      add\n        /* \"#utility.yul\":24873:24894   */\n      mstore\n        /* \"#utility.yul\":24930:24932   */\n      0x11\n        /* \"#utility.yul\":24910:24928   */\n      0x24\n      dup3\n      add\n        /* \"#utility.yul\":24903:24933   */\n      mstore\n      shl(0x7a, 0x105b1c9958591e4819195b1a5d995c9959)\n        /* \"#utility.yul\":24949:24967   */\n      0x44\n      dup3\n      add\n        /* \"#utility.yul\":24942:24989   */\n      mstore\n        /* \"#utility.yul\":25006:25024   */\n      0x64\n      add\n        /* \"src/LogisticsTracking.sol\":5727:5793  require(s.status != ShipmentStatus.Delivered, \"Already delivered\") */\n      tag_189\n        /* \"#utility.yul\":24689:25030   */\n      jump\n        /* \"src/LogisticsTracking.sol\":5727:5793  require(s.status != ShipmentStatus.Delivered, \"Already delivered\") */\n    tag_465:\n        /* \"src/LogisticsTracking.sol\":5804:5812  s.status */\n      0x08\n      dup2\n      add\n        /* \"src/LogisticsTracking.sol\":5804:5839  s.status = ShipmentStatus.Delivered */\n      dup1\n      sload\n      not(0xff)\n      and\n        /* \"src/LogisticsTracking.sol\":5815:5839  ShipmentStatus.Delivered */\n      0x04\n        /* \"src/LogisticsTracking.sol\":5804:5839  s.status = ShipmentStatus.Delivered */\n      or\n      swap1\n      sstore\n        /* \"src/LogisticsTracking.sol\":5867:5882  block.timestamp */\n      timestamp\n        /* \"src/LogisticsTracking.sol\":5849:5864  s.dateDelivered */\n      0x07\n      dup3\n      add\n        /* \"src/LogisticsTracking.sol\":5849:5882  s.dateDelivered = block.timestamp */\n      dup2\n      swap1\n      sstore\n        /* \"src/LogisticsTracking.sol\":5898:5957  DeliveryConfirmed(_shipmentId, msg.sender, block.timestamp) */\n      mload(0x40)\n        /* \"#utility.yul\":3423:3448   */\n      swap1\n      dup2\n      mstore\n        /* \"src/LogisticsTracking.sol\":5929:5939  msg.sender */\n      caller\n      swap1\n        /* \"src/LogisticsTracking.sol\":5916:5927  _shipmentId */\n      dup5\n      swap1\n        /* \"src/LogisticsTracking.sol\":5898:5957  DeliveryConfirmed(_shipmentId, msg.sender, block.timestamp) */\n      0x2f4a952729db32131cb3d658cc231127e0ce7e50f83508ece9a49c985f2384d0\n      swap1\n        /* \"#utility.yul\":3411:3413   */\n      0x20\n        /* \"#utility.yul\":3396:3414   */\n      add\n        /* \"src/LogisticsTracking.sol\":5898:5957  DeliveryConfirmed(_shipmentId, msg.sender, block.timestamp) */\n      mload(0x40)\n      dup1\n      swap2\n      sub\n      swap1\n      log3\n        /* \"src/LogisticsTracking.sol\":5994:6005  _shipmentId */\n      dup3\n        /* \"src/LogisticsTracking.sol\":5972:6032  ShipmentStatusChanged(_shipmentId, ShipmentStatus.Delivered) */\n      0x7c1c93f72f29b8a1fc6fc85eed990d133b1ffac80c962b521abb12f38f2ff9af\n        /* \"src/LogisticsTracking.sol\":6007:6031  ShipmentStatus.Delivered */\n      0x04\n        /* \"src/LogisticsTracking.sol\":5972:6032  ShipmentStatusChanged(_shipmentId, ShipmentStatus.Delivered) */\n      mload(0x40)\n      tag_350\n      swap2\n      swap1\n      tag_351\n      jump\t// in\n        /* \"src/LogisticsTracking.sol\":3137:3268  function _onlyActiveActor() internal view {... */\n    tag_223:\n        /* \"src/LogisticsTracking.sol\":3204:3214  msg.sender */\n      caller\n        /* \"src/LogisticsTracking.sol\":3197:3215  actors[msg.sender] */\n      0x00\n      swap1\n      dup2\n      mstore\n        /* \"src/LogisticsTracking.sol\":3197:3203  actors */\n      0x07\n        /* \"src/LogisticsTracking.sol\":3197:3215  actors[msg.sender] */\n      0x20\n      mstore\n      0x40\n      swap1\n      keccak256\n        /* \"src/LogisticsTracking.sol\":3197:3224  actors[msg.sender].isActive */\n      0x04\n      add\n      sload\n      0xff\n      and\n        /* \"src/LogisticsTracking.sol\":3189:3261  require(actors[msg.sender].isActive, \"Actor not registered or inactive\") */\n      tag_473\n      jumpi\n      mload(0x40)\n      shl(0xe5, 0x461bcd)\n      dup2\n      mstore\n        /* \"#utility.yul\":25237:25239   */\n      0x20\n        /* \"src/LogisticsTracking.sol\":3189:3261  require(actors[msg.sender].isActive, \"Actor not registered or inactive\") */\n      0x04\n      dup3\n      add\n        /* \"#utility.yul\":25219:25240   */\n      dup2\n      swap1\n      mstore\n        /* \"#utility.yul\":25256:25274   */\n      0x24\n      dup3\n      add\n        /* \"#utility.yul\":25249:25279   */\n      mstore\n        /* \"#utility.yul\":25315:25349   */\n      0x4163746f72206e6f742072656769737465726564206f7220696e616374697665\n        /* \"#utility.yul\":25295:25313   */\n      0x44\n      dup3\n      add\n        /* \"#utility.yul\":25288:25350   */\n      mstore\n        /* \"#utility.yul\":25367:25385   */\n      0x64\n      add\n        /* \"src/LogisticsTracking.sol\":3189:3261  require(actors[msg.sender].isActive, \"Actor not registered or inactive\") */\n      tag_189\n        /* \"#utility.yul\":25035:25391   */\n      jump\n        /* \"src/LogisticsTracking.sol\":3189:3261  require(actors[msg.sender].isActive, \"Actor not registered or inactive\") */\n    tag_473:\n        /* \"src/LogisticsTracking.sol\":3137:3268  function _onlyActiveActor() internal view {... */\n      jump\t// out\n        /* \"src/LogisticsTracking.sol\":3365:3501  function _shipmentExists(uint256 _id) internal view {... */\n    tag_226:\n        /* \"src/LogisticsTracking.sol\":3441:3442  0 */\n      0x00\n        /* \"src/LogisticsTracking.sol\":3435:3438  _id */\n      dup2\n        /* \"src/LogisticsTracking.sol\":3435:3442  _id > 0 */\n      gt\n        /* \"src/LogisticsTracking.sol\":3435:3466  _id > 0 && _id < nextShipmentId */\n      dup1\n      iszero\n      tag_477\n      jumpi\n      pop\n        /* \"src/LogisticsTracking.sol\":3452:3466  nextShipmentId */\n      sload(0x01)\n        /* \"src/LogisticsTracking.sol\":3446:3449  _id */\n      dup2\n        /* \"src/LogisticsTracking.sol\":3446:3466  _id < nextShipmentId */\n      lt\n        /* \"src/LogisticsTracking.sol\":3435:3466  _id > 0 && _id < nextShipmentId */\n    tag_477:\n        /* \"src/LogisticsTracking.sol\":3427:3494  require(_id > 0 && _id < nextShipmentId, \"Shipment does not exist\") */\n      tag_478\n      jumpi\n      mload(0x40)\n      shl(0xe5, 0x461bcd)\n      dup2\n      mstore\n        /* \"#utility.yul\":25598:25600   */\n      0x20\n        /* \"src/LogisticsTracking.sol\":3427:3494  require(_id > 0 && _id < nextShipmentId, \"Shipment does not exist\") */\n      0x04\n      dup3\n      add\n        /* \"#utility.yul\":25580:25601   */\n      mstore\n        /* \"#utility.yul\":25637:25639   */\n      0x17\n        /* \"#utility.yul\":25617:25635   */\n      0x24\n      dup3\n      add\n        /* \"#utility.yul\":25610:25640   */\n      mstore\n        /* \"#utility.yul\":25676:25701   */\n      0x536869706d656e7420646f6573206e6f74206578697374000000000000000000\n        /* \"#utility.yul\":25656:25674   */\n      0x44\n      dup3\n      add\n        /* \"#utility.yul\":25649:25702   */\n      mstore\n        /* \"#utility.yul\":25719:25737   */\n      0x64\n      add\n        /* \"src/LogisticsTracking.sol\":3427:3494  require(_id > 0 && _id < nextShipmentId, \"Shipment does not exist\") */\n      tag_189\n        /* \"#utility.yul\":25396:25743   */\n      jump\n        /* \"src/LogisticsTracking.sol\":3427:3494  require(_id > 0 && _id < nextShipmentId, \"Shipment does not exist\") */\n    tag_478:\n        /* \"src/LogisticsTracking.sol\":3365:3501  function _shipmentExists(uint256 _id) internal view {... */\n      pop\n      jump\t// out\n        /* \"src/LogisticsTracking.sol\":2957:3052  function _onlyAdmin() internal view {... */\n    tag_279:\n        /* \"src/LogisticsTracking.sol\":3025:3030  admin */\n      and(sub(shl(0xa0, 0x01), 0x01), sload(0x00))\n        /* \"src/LogisticsTracking.sol\":3011:3021  msg.sender */\n      caller\n        /* \"src/LogisticsTracking.sol\":3011:3030  msg.sender == admin */\n      eq\n        /* \"src/LogisticsTracking.sol\":3003:3045  require(msg.sender == admin, \"Only admin\") */\n      tag_473\n      jumpi\n      mload(0x40)\n      shl(0xe5, 0x461bcd)\n      dup2\n      mstore\n        /* \"#utility.yul\":25950:25952   */\n      0x20\n        /* \"src/LogisticsTracking.sol\":3003:3045  require(msg.sender == admin, \"Only admin\") */\n      0x04\n      dup3\n      add\n        /* \"#utility.yul\":25932:25953   */\n      mstore\n        /* \"#utility.yul\":25989:25991   */\n      0x0a\n        /* \"#utility.yul\":25969:25987   */\n      0x24\n      dup3\n      add\n        /* \"#utility.yul\":25962:25992   */\n      mstore\n      shl(0xb1, 0x27b7363c9030b236b4b7)\n        /* \"#utility.yul\":26008:26026   */\n      0x44\n      dup3\n      add\n        /* \"#utility.yul\":26001:26041   */\n      mstore\n        /* \"#utility.yul\":26058:26076   */\n      0x64\n      add\n        /* \"src/LogisticsTracking.sol\":3003:3045  require(msg.sender == admin, \"Only admin\") */\n      tag_189\n        /* \"#utility.yul\":25748:26082   */\n      jump\n    tag_157:\n      mload(0x40)\n      dup1\n      0x0180\n      add\n      0x40\n      mstore\n      dup1\n      0x00\n      dup2\n      mstore\n      0x20\n      add\n      and(sub(shl(0xa0, 0x01), 0x01), 0x00)\n      dup2\n      mstore\n      0x20\n      add\n      and(sub(shl(0xa0, 0x01), 0x01), 0x00)\n      dup2\n      mstore\n      0x20\n      add\n      0x60\n      dup2\n      mstore\n      0x20\n      add\n      0x60\n      dup2\n      mstore\n      0x20\n      add\n      0x60\n      dup2\n      mstore\n      0x20\n      add\n      0x00\n      dup2\n      mstore\n      0x20\n      add\n      0x00\n      dup2\n      mstore\n      0x20\n      add\n      0x00\n      0x06\n      dup2\n      gt\n      iszero\n      tag_486\n      jumpi\n      tag_486\n      tag_177\n      jump\t// in\n    tag_486:\n      dup2\n      mstore\n      0x60\n      0x20\n      dup3\n      add\n      dup2\n      swap1\n      mstore\n      0x40\n      dup3\n      add\n      dup2\n      swap1\n      mstore\n      0x00\n      swap2\n      add\n      mstore\n      swap1\n      jump\t// out\n    tag_185:\n      mload(0x40)\n      dup1\n      0x0100\n      add\n      0x40\n      mstore\n      dup1\n      0x00\n      dup2\n      mstore\n      0x20\n      add\n      0x00\n      dup2\n      mstore\n      0x20\n      add\n      and(sub(shl(0xa0, 0x01), 0x01), 0x00)\n      dup2\n      mstore\n      0x20\n      add\n      0x60\n      dup2\n      mstore\n      0x20\n      add\n      0x60\n      dup2\n      mstore\n      0x20\n      add\n      0x00\n      dup2\n      mstore\n      0x20\n      add\n      0x60\n      dup2\n      mstore\n      0x20\n      add\n      0x00\n      dup2\n      mstore\n      pop\n      swap1\n      jump\t// out\n    tag_326:\n      mload(0x40)\n      dup1\n      0xe0\n      add\n      0x40\n      mstore\n      dup1\n      0x00\n      dup2\n      mstore\n      0x20\n      add\n      0x00\n      dup2\n      mstore\n      0x20\n      add\n      0x00\n      0x04\n      dup2\n      gt\n      iszero\n      tag_490\n      jumpi\n      tag_490\n      tag_177\n      jump\t// in\n    tag_490:\n      dup2\n      mstore\n      0x00\n      0x20\n      dup3\n      add\n      dup2\n      swap1\n      mstore\n      0x60\n      0x40\n      dup4\n      add\n      dup2\n      swap1\n      mstore\n      dup3\n      add\n      dup2\n      swap1\n      mstore\n      0x80\n      swap1\n      swap2\n      add\n      mstore\n      swap1\n      jump\t// out\n        /* \"#utility.yul\":14:240   */\n    tag_38:\n        /* \"#utility.yul\":73:79   */\n      0x00\n        /* \"#utility.yul\":126:128   */\n      0x20\n        /* \"#utility.yul\":114:123   */\n      dup3\n        /* \"#utility.yul\":105:112   */\n      dup5\n        /* \"#utility.yul\":101:124   */\n      sub\n        /* \"#utility.yul\":97:129   */\n      slt\n        /* \"#utility.yul\":94:146   */\n      iszero\n      tag_507\n      jumpi\n        /* \"#utility.yul\":142:143   */\n      0x00\n        /* \"#utility.yul\":139:140   */\n      0x00\n        /* \"#utility.yul\":132:144   */\n      revert\n        /* \"#utility.yul\":94:146   */\n    tag_507:\n      pop\n        /* \"#utility.yul\":187:210   */\n      calldataload\n      swap2\n        /* \"#utility.yul\":14:240   */\n      swap1\n      pop\n      jump\t// out\n        /* \"#utility.yul\":354:643   */\n    tag_492:\n        /* \"#utility.yul\":396:399   */\n      0x00\n        /* \"#utility.yul\":434:439   */\n      dup2\n        /* \"#utility.yul\":428:440   */\n      mload\n        /* \"#utility.yul\":461:467   */\n      dup1\n        /* \"#utility.yul\":456:459   */\n      dup5\n        /* \"#utility.yul\":449:468   */\n      mstore\n        /* \"#utility.yul\":517:523   */\n      dup1\n        /* \"#utility.yul\":510:514   */\n      0x20\n        /* \"#utility.yul\":503:508   */\n      dup5\n        /* \"#utility.yul\":499:515   */\n      add\n        /* \"#utility.yul\":492:496   */\n      0x20\n        /* \"#utility.yul\":487:490   */\n      dup7\n        /* \"#utility.yul\":483:497   */\n      add\n        /* \"#utility.yul\":477:524   */\n      mcopy\n        /* \"#utility.yul\":569:570   */\n      0x00\n        /* \"#utility.yul\":562:566   */\n      0x20\n        /* \"#utility.yul\":553:559   */\n      dup3\n        /* \"#utility.yul\":548:551   */\n      dup7\n        /* \"#utility.yul\":544:560   */\n      add\n        /* \"#utility.yul\":540:567   */\n      add\n        /* \"#utility.yul\":533:571   */\n      mstore\n        /* \"#utility.yul\":632:636   */\n      0x20\n        /* \"#utility.yul\":625:627   */\n      0x1f\n        /* \"#utility.yul\":621:628   */\n      not\n        /* \"#utility.yul\":616:618   */\n      0x1f\n        /* \"#utility.yul\":608:614   */\n      dup4\n        /* \"#utility.yul\":604:619   */\n      add\n        /* \"#utility.yul\":600:629   */\n      and\n        /* \"#utility.yul\":595:598   */\n      dup6\n        /* \"#utility.yul\":591:630   */\n      add\n        /* \"#utility.yul\":587:637   */\n      add\n        /* \"#utility.yul\":580:637   */\n      swap2\n      pop\n      pop\n        /* \"#utility.yul\":354:643   */\n      swap3\n      swap2\n      pop\n      pop\n      jump\t// out\n        /* \"#utility.yul\":648:775   */\n    tag_177:\n        /* \"#utility.yul\":709:719   */\n      0x4e487b71\n        /* \"#utility.yul\":704:707   */\n      0xe0\n        /* \"#utility.yul\":700:720   */\n      shl\n        /* \"#utility.yul\":697:698   */\n      0x00\n        /* \"#utility.yul\":690:721   */\n      mstore\n        /* \"#utility.yul\":740:744   */\n      0x21\n        /* \"#utility.yul\":737:738   */\n      0x04\n        /* \"#utility.yul\":730:745   */\n      mstore\n        /* \"#utility.yul\":764:768   */\n      0x24\n        /* \"#utility.yul\":761:762   */\n      0x00\n        /* \"#utility.yul\":754:769   */\n      revert\n        /* \"#utility.yul\":780:925   */\n    tag_493:\n        /* \"#utility.yul\":866:867   */\n      0x07\n        /* \"#utility.yul\":859:864   */\n      dup2\n        /* \"#utility.yul\":856:868   */\n      lt\n        /* \"#utility.yul\":846:892   */\n      tag_513\n      jumpi\n        /* \"#utility.yul\":872:890   */\n      tag_513\n      tag_177\n      jump\t// in\n    tag_513:\n        /* \"#utility.yul\":901:919   */\n      swap1\n      mstore\n        /* \"#utility.yul\":780:925   */\n      jump\t// out\n        /* \"#utility.yul\":930:1350   */\n    tag_494:\n        /* \"#utility.yul\":983:986   */\n      0x00\n        /* \"#utility.yul\":1021:1026   */\n      dup2\n        /* \"#utility.yul\":1015:1027   */\n      mload\n        /* \"#utility.yul\":1048:1054   */\n      dup1\n        /* \"#utility.yul\":1043:1046   */\n      dup5\n        /* \"#utility.yul\":1036:1055   */\n      mstore\n        /* \"#utility.yul\":1080:1084   */\n      0x20\n        /* \"#utility.yul\":1075:1078   */\n      dup5\n        /* \"#utility.yul\":1071:1085   */\n      add\n        /* \"#utility.yul\":1064:1085   */\n      swap4\n      pop\n        /* \"#utility.yul\":1119:1123   */\n      0x20\n        /* \"#utility.yul\":1112:1117   */\n      dup4\n        /* \"#utility.yul\":1108:1124   */\n      add\n        /* \"#utility.yul\":1142:1143   */\n      0x00\n        /* \"#utility.yul\":1152:1325   */\n    tag_515:\n        /* \"#utility.yul\":1166:1172   */\n      dup3\n        /* \"#utility.yul\":1163:1164   */\n      dup2\n        /* \"#utility.yul\":1160:1173   */\n      lt\n        /* \"#utility.yul\":1152:1325   */\n      iszero\n      tag_517\n      jumpi\n        /* \"#utility.yul\":1227:1240   */\n      dup2\n      mload\n        /* \"#utility.yul\":1215:1241   */\n      dup7\n      mstore\n        /* \"#utility.yul\":1270:1274   */\n      0x20\n        /* \"#utility.yul\":1261:1275   */\n      swap6\n      dup7\n      add\n      swap6\n        /* \"#utility.yul\":1298:1315   */\n      swap1\n      swap2\n      add\n      swap1\n        /* \"#utility.yul\":1188:1189   */\n      0x01\n        /* \"#utility.yul\":1181:1190   */\n      add\n        /* \"#utility.yul\":1152:1325   */\n      jump(tag_515)\n    tag_517:\n      pop\n        /* \"#utility.yul\":1341:1344   */\n      swap4\n      swap5\n        /* \"#utility.yul\":930:1350   */\n      swap4\n      pop\n      pop\n      pop\n      pop\n      jump\t// out\n        /* \"#utility.yul\":1451:3272   */\n    tag_41:\n        /* \"#utility.yul\":1628:1630   */\n      0x20\n        /* \"#utility.yul\":1617:1626   */\n      dup2\n        /* \"#utility.yul\":1610:1631   */\n      mstore\n        /* \"#utility.yul\":1673:1679   */\n      dup2\n        /* \"#utility.yul\":1667:1680   */\n      mload\n        /* \"#utility.yul\":1662:1664   */\n      0x20\n        /* \"#utility.yul\":1651:1660   */\n      dup3\n        /* \"#utility.yul\":1647:1665   */\n      add\n        /* \"#utility.yul\":1640:1681   */\n      mstore\n        /* \"#utility.yul\":1591:1595   */\n      0x00\n        /* \"#utility.yul\":1728:1730   */\n      0x20\n        /* \"#utility.yul\":1720:1726   */\n      dup4\n        /* \"#utility.yul\":1716:1731   */\n      add\n        /* \"#utility.yul\":1710:1732   */\n      mload\n        /* \"#utility.yul\":1741:1793   */\n      tag_520\n        /* \"#utility.yul\":1789:1791   */\n      0x40\n        /* \"#utility.yul\":1778:1787   */\n      dup5\n        /* \"#utility.yul\":1774:1792   */\n      add\n        /* \"#utility.yul\":1760:1772   */\n      dup3\n      sub(shl(0xa0, 0x01), 0x01)\n        /* \"#utility.yul\":311:342   */\n      and\n        /* \"#utility.yul\":299:343   */\n      swap1\n      mstore\n        /* \"#utility.yul\":245:349   */\n      jump\n        /* \"#utility.yul\":1741:1793   */\n    tag_520:\n      pop\n        /* \"#utility.yul\":1842:1844   */\n      0x40\n        /* \"#utility.yul\":1830:1845   */\n      dup4\n      add\n        /* \"#utility.yul\":1824:1846   */\n      mload\n      sub(shl(0xa0, 0x01), 0x01)\n        /* \"#utility.yul\":311:342   */\n      dup2\n      and\n        /* \"#utility.yul\":1905:1907   */\n      0x60\n        /* \"#utility.yul\":1890:1908   */\n      dup5\n      add\n        /* \"#utility.yul\":299:343   */\n      mstore\n        /* \"#utility.yul\":1855:1909   */\n      pop\n        /* \"#utility.yul\":1958:1960   */\n      0x60\n        /* \"#utility.yul\":1950:1956   */\n      dup4\n        /* \"#utility.yul\":1946:1961   */\n      add\n        /* \"#utility.yul\":1940:1962   */\n      mload\n        /* \"#utility.yul\":1999:2005   */\n      0x0180\n        /* \"#utility.yul\":1993:1996   */\n      0x80\n        /* \"#utility.yul\":1982:1991   */\n      dup5\n        /* \"#utility.yul\":1978:1997   */\n      add\n        /* \"#utility.yul\":1971:2006   */\n      mstore\n        /* \"#utility.yul\":2029:2083   */\n      tag_522\n        /* \"#utility.yul\":2078:2081   */\n      0x01a0\n        /* \"#utility.yul\":2067:2076   */\n      dup5\n        /* \"#utility.yul\":2063:2082   */\n      add\n        /* \"#utility.yul\":2047:2061   */\n      dup3\n        /* \"#utility.yul\":2029:2083   */\n      tag_492\n      jump\t// in\n    tag_522:\n        /* \"#utility.yul\":2015:2083   */\n      swap1\n      pop\n        /* \"#utility.yul\":2132:2135   */\n      0x80\n        /* \"#utility.yul\":2124:2130   */\n      dup5\n        /* \"#utility.yul\":2120:2136   */\n      add\n        /* \"#utility.yul\":2114:2137   */\n      mload\n        /* \"#utility.yul\":2206:2208   */\n      0x1f\n        /* \"#utility.yul\":2202:2209   */\n      not\n        /* \"#utility.yul\":2190:2199   */\n      dup5\n        /* \"#utility.yul\":2182:2188   */\n      dup4\n        /* \"#utility.yul\":2178:2200   */\n      sub\n        /* \"#utility.yul\":2174:2210   */\n      add\n        /* \"#utility.yul\":2168:2171   */\n      0xa0\n        /* \"#utility.yul\":2157:2166   */\n      dup6\n        /* \"#utility.yul\":2153:2172   */\n      add\n        /* \"#utility.yul\":2146:2211   */\n      mstore\n        /* \"#utility.yul\":2234:2275   */\n      tag_523\n        /* \"#utility.yul\":2268:2274   */\n      dup3\n        /* \"#utility.yul\":2252:2266   */\n      dup3\n        /* \"#utility.yul\":2234:2275   */\n      tag_492\n      jump\t// in\n    tag_523:\n        /* \"#utility.yul\":2220:2275   */\n      swap2\n      pop\n      pop\n        /* \"#utility.yul\":2324:2327   */\n      0xa0\n        /* \"#utility.yul\":2316:2322   */\n      dup5\n        /* \"#utility.yul\":2312:2328   */\n      add\n        /* \"#utility.yul\":2306:2329   */\n      mload\n        /* \"#utility.yul\":2398:2400   */\n      0x1f\n        /* \"#utility.yul\":2394:2401   */\n      not\n        /* \"#utility.yul\":2382:2391   */\n      dup5\n        /* \"#utility.yul\":2374:2380   */\n      dup4\n        /* \"#utility.yul\":2370:2392   */\n      sub\n        /* \"#utility.yul\":2366:2402   */\n      add\n        /* \"#utility.yul\":2360:2363   */\n      0xc0\n        /* \"#utility.yul\":2349:2358   */\n      dup6\n        /* \"#utility.yul\":2345:2364   */\n      add\n        /* \"#utility.yul\":2338:2403   */\n      mstore\n        /* \"#utility.yul\":2426:2467   */\n      tag_524\n        /* \"#utility.yul\":2460:2466   */\n      dup3\n        /* \"#utility.yul\":2444:2458   */\n      dup3\n        /* \"#utility.yul\":2426:2467   */\n      tag_492\n      jump\t// in\n    tag_524:\n        /* \"#utility.yul\":2412:2467   */\n      swap2\n      pop\n      pop\n        /* \"#utility.yul\":2522:2525   */\n      0xc0\n        /* \"#utility.yul\":2514:2520   */\n      dup5\n        /* \"#utility.yul\":2510:2526   */\n      add\n        /* \"#utility.yul\":2504:2527   */\n      mload\n        /* \"#utility.yul\":2498:2501   */\n      0xe0\n        /* \"#utility.yul\":2487:2496   */\n      dup5\n        /* \"#utility.yul\":2483:2502   */\n      add\n        /* \"#utility.yul\":2476:2528   */\n      mstore\n        /* \"#utility.yul\":2583:2586   */\n      0xe0\n        /* \"#utility.yul\":2575:2581   */\n      dup5\n        /* \"#utility.yul\":2571:2587   */\n      add\n        /* \"#utility.yul\":2565:2588   */\n      mload\n        /* \"#utility.yul\":2559:2562   */\n      0x0100\n        /* \"#utility.yul\":2548:2557   */\n      dup5\n        /* \"#utility.yul\":2544:2563   */\n      add\n        /* \"#utility.yul\":2537:2589   */\n      mstore\n        /* \"#utility.yul\":2638:2641   */\n      0x0100\n        /* \"#utility.yul\":2630:2636   */\n      dup5\n        /* \"#utility.yul\":2626:2642   */\n      add\n        /* \"#utility.yul\":2620:2643   */\n      mload\n        /* \"#utility.yul\":2652:2719   */\n      tag_525\n        /* \"#utility.yul\":2714:2717   */\n      0x0120\n        /* \"#utility.yul\":2703:2712   */\n      dup6\n        /* \"#utility.yul\":2699:2718   */\n      add\n        /* \"#utility.yul\":2683:2697   */\n      dup3\n        /* \"#utility.yul\":2652:2719   */\n      tag_493\n      jump\t// in\n    tag_525:\n      pop\n        /* \"#utility.yul\":2768:2771   */\n      0x0120\n        /* \"#utility.yul\":2756:2772   */\n      dup5\n      add\n        /* \"#utility.yul\":2750:2773   */\n      mload\n        /* \"#utility.yul\":2814:2836   */\n      dup4\n      dup3\n      sub\n      not(0x1f)\n        /* \"#utility.yul\":2810:2846   */\n      add\n        /* \"#utility.yul\":2804:2807   */\n      0x0140\n        /* \"#utility.yul\":2789:2808   */\n      dup6\n      add\n        /* \"#utility.yul\":2782:2847   */\n      mstore\n        /* \"#utility.yul\":2870:2922   */\n      tag_526\n        /* \"#utility.yul\":2818:2824   */\n      dup3\n        /* \"#utility.yul\":2750:2773   */\n      dup3\n        /* \"#utility.yul\":2870:2922   */\n      tag_494\n      jump\t// in\n    tag_526:\n        /* \"#utility.yul\":2856:2922   */\n      swap2\n      pop\n      pop\n        /* \"#utility.yul\":2971:2974   */\n      0x0140\n        /* \"#utility.yul\":2963:2969   */\n      dup5\n        /* \"#utility.yul\":2959:2975   */\n      add\n        /* \"#utility.yul\":2953:2976   */\n      mload\n        /* \"#utility.yul\":3045:3047   */\n      0x1f\n        /* \"#utility.yul\":3041:3048   */\n      not\n        /* \"#utility.yul\":3029:3038   */\n      dup5\n        /* \"#utility.yul\":3021:3027   */\n      dup4\n        /* \"#utility.yul\":3017:3039   */\n      sub\n        /* \"#utility.yul\":3013:3049   */\n      add\n        /* \"#utility.yul\":3007:3010   */\n      0x0160\n        /* \"#utility.yul\":2996:3005   */\n      dup6\n        /* \"#utility.yul\":2992:3011   */\n      add\n        /* \"#utility.yul\":2985:3050   */\n      mstore\n        /* \"#utility.yul\":3073:3125   */\n      tag_527\n        /* \"#utility.yul\":3118:3124   */\n      dup3\n        /* \"#utility.yul\":3102:3116   */\n      dup3\n        /* \"#utility.yul\":3073:3125   */\n      tag_494\n      jump\t// in\n    tag_527:\n        /* \"#utility.yul\":3059:3125   */\n      swap2\n      pop\n      pop\n        /* \"#utility.yul\":3174:3177   */\n      0x0160\n        /* \"#utility.yul\":3166:3172   */\n      dup5\n        /* \"#utility.yul\":3162:3178   */\n      add\n        /* \"#utility.yul\":3156:3179   */\n      mload\n        /* \"#utility.yul\":3188:3243   */\n      tag_291\n        /* \"#utility.yul\":3235:3241   */\n      0x0180\n        /* \"#utility.yul\":3224:3233   */\n      dup6\n        /* \"#utility.yul\":3220:3242   */\n      add\n        /* \"#utility.yul\":3204:3218   */\n      dup3\n        /* \"#utility.yul\":1425:1438   */\n      iszero\n        /* \"#utility.yul\":1418:1439   */\n      iszero\n        /* \"#utility.yul\":1406:1440   */\n      swap1\n      mstore\n        /* \"#utility.yul\":1355:1446   */\n      jump\n        /* \"#utility.yul\":3459:4355   */\n    tag_496:\n        /* \"#utility.yul\":3548:3553   */\n      dup1\n        /* \"#utility.yul\":3542:3554   */\n      mload\n        /* \"#utility.yul\":3537:3540   */\n      dup3\n        /* \"#utility.yul\":3530:3555   */\n      mstore\n        /* \"#utility.yul\":3604:3608   */\n      0x20\n        /* \"#utility.yul\":3597:3602   */\n      dup2\n        /* \"#utility.yul\":3593:3609   */\n      add\n        /* \"#utility.yul\":3587:3610   */\n      mload\n        /* \"#utility.yul\":3580:3584   */\n      0x20\n        /* \"#utility.yul\":3575:3578   */\n      dup4\n        /* \"#utility.yul\":3571:3585   */\n      add\n        /* \"#utility.yul\":3564:3611   */\n      mstore\n        /* \"#utility.yul\":3512:3515   */\n      0x00\n        /* \"#utility.yul\":3657:3661   */\n      0x40\n        /* \"#utility.yul\":3650:3655   */\n      dup3\n        /* \"#utility.yul\":3646:3662   */\n      add\n        /* \"#utility.yul\":3640:3663   */\n      mload\n        /* \"#utility.yul\":3672:3720   */\n      tag_531\n        /* \"#utility.yul\":3714:3718   */\n      0x40\n        /* \"#utility.yul\":3709:3712   */\n      dup6\n        /* \"#utility.yul\":3705:3719   */\n      add\n        /* \"#utility.yul\":3691:3703   */\n      dup3\n      sub(shl(0xa0, 0x01), 0x01)\n        /* \"#utility.yul\":311:342   */\n      and\n        /* \"#utility.yul\":299:343   */\n      swap1\n      mstore\n        /* \"#utility.yul\":245:349   */\n      jump\n        /* \"#utility.yul\":3672:3720   */\n    tag_531:\n      pop\n        /* \"#utility.yul\":3768:3772   */\n      0x60\n        /* \"#utility.yul\":3761:3766   */\n      dup3\n        /* \"#utility.yul\":3757:3773   */\n      add\n        /* \"#utility.yul\":3751:3774   */\n      mload\n        /* \"#utility.yul\":3806:3812   */\n      0x0100\n        /* \"#utility.yul\":3799:3803   */\n      0x60\n        /* \"#utility.yul\":3794:3797   */\n      dup6\n        /* \"#utility.yul\":3790:3804   */\n      add\n        /* \"#utility.yul\":3783:3813   */\n      mstore\n        /* \"#utility.yul\":3834:3885   */\n      tag_532\n        /* \"#utility.yul\":3877:3883   */\n      0x0100\n        /* \"#utility.yul\":3872:3875   */\n      dup6\n        /* \"#utility.yul\":3868:3884   */\n      add\n        /* \"#utility.yul\":3852:3866   */\n      dup3\n        /* \"#utility.yul\":3834:3885   */\n      tag_492\n      jump\t// in\n    tag_532:\n        /* \"#utility.yul\":3822:3885   */\n      swap1\n      pop\n        /* \"#utility.yul\":3933:3937   */\n      0x80\n        /* \"#utility.yul\":3926:3931   */\n      dup4\n        /* \"#utility.yul\":3922:3938   */\n      add\n        /* \"#utility.yul\":3916:3939   */\n      mload\n        /* \"#utility.yul\":3981:3984   */\n      dup5\n        /* \"#utility.yul\":3975:3979   */\n      dup3\n        /* \"#utility.yul\":3971:3985   */\n      sub\n        /* \"#utility.yul\":3964:3968   */\n      0x80\n        /* \"#utility.yul\":3959:3962   */\n      dup7\n        /* \"#utility.yul\":3955:3969   */\n      add\n        /* \"#utility.yul\":3948:3986   */\n      mstore\n        /* \"#utility.yul\":4009:4048   */\n      tag_533\n        /* \"#utility.yul\":4043:4047   */\n      dup3\n        /* \"#utility.yul\":4027:4041   */\n      dup3\n        /* \"#utility.yul\":4009:4048   */\n      tag_492\n      jump\t// in\n    tag_533:\n        /* \"#utility.yul\":3995:4048   */\n      swap2\n      pop\n      pop\n        /* \"#utility.yul\":4097:4101   */\n      0xa0\n        /* \"#utility.yul\":4090:4095   */\n      dup4\n        /* \"#utility.yul\":4086:4102   */\n      add\n        /* \"#utility.yul\":4080:4103   */\n      mload\n        /* \"#utility.yul\":4073:4077   */\n      0xa0\n        /* \"#utility.yul\":4068:4071   */\n      dup6\n        /* \"#utility.yul\":4064:4078   */\n      add\n        /* \"#utility.yul\":4057:4104   */\n      mstore\n        /* \"#utility.yul\":4152:4156   */\n      0xc0\n        /* \"#utility.yul\":4145:4150   */\n      dup4\n        /* \"#utility.yul\":4141:4157   */\n      add\n        /* \"#utility.yul\":4135:4158   */\n      mload\n        /* \"#utility.yul\":4202:4205   */\n      dup5\n        /* \"#utility.yul\":4194:4200   */\n      dup3\n        /* \"#utility.yul\":4190:4206   */\n      sub\n        /* \"#utility.yul\":4183:4187   */\n      0xc0\n        /* \"#utility.yul\":4178:4181   */\n      dup7\n        /* \"#utility.yul\":4174:4188   */\n      add\n        /* \"#utility.yul\":4167:4207   */\n      mstore\n        /* \"#utility.yul\":4230:4271   */\n      tag_534\n        /* \"#utility.yul\":4264:4270   */\n      dup3\n        /* \"#utility.yul\":4248:4262   */\n      dup3\n        /* \"#utility.yul\":4230:4271   */\n      tag_492\n      jump\t// in\n    tag_534:\n        /* \"#utility.yul\":4216:4271   */\n      swap2\n      pop\n      pop\n        /* \"#utility.yul\":4320:4324   */\n      0xe0\n        /* \"#utility.yul\":4313:4318   */\n      dup4\n        /* \"#utility.yul\":4309:4325   */\n      add\n        /* \"#utility.yul\":4303:4326   */\n      mload\n        /* \"#utility.yul\":4296:4300   */\n      0xe0\n        /* \"#utility.yul\":4291:4294   */\n      dup6\n        /* \"#utility.yul\":4287:4301   */\n      add\n        /* \"#utility.yul\":4280:4327   */\n      mstore\n        /* \"#utility.yul\":4343:4349   */\n      dup1\n        /* \"#utility.yul\":4336:4349   */\n      swap2\n      pop\n      pop\n        /* \"#utility.yul\":3459:4355   */\n      swap3\n      swap2\n      pop\n      pop\n      jump\t// out\n        /* \"#utility.yul\":4360:4623   */\n    tag_50:\n        /* \"#utility.yul\":4541:4543   */\n      0x20\n        /* \"#utility.yul\":4530:4539   */\n      dup2\n        /* \"#utility.yul\":4523:4544   */\n      mstore\n        /* \"#utility.yul\":4504:4508   */\n      0x00\n        /* \"#utility.yul\":4561:4617   */\n      tag_536\n        /* \"#utility.yul\":4613:4615   */\n      0x20\n        /* \"#utility.yul\":4602:4611   */\n      dup4\n        /* \"#utility.yul\":4598:4616   */\n      add\n        /* \"#utility.yul\":4590:4596   */\n      dup5\n        /* \"#utility.yul\":4561:4617   */\n      tag_496\n      jump\t// in\n    tag_536:\n        /* \"#utility.yul\":4553:4617   */\n      swap4\n        /* \"#utility.yul\":4360:4623   */\n      swap3\n      pop\n      pop\n      pop\n      jump\t// out\n        /* \"#utility.yul\":4628:5780   */\n    tag_58:\n        /* \"#utility.yul\":5060:5085   */\n      dup11\n      dup2\n      mstore\n      sub(shl(0xa0, 0x01), 0x01)\n        /* \"#utility.yul\":5121:5153   */\n      dup11\n      dup2\n      and\n        /* \"#utility.yul\":5116:5118   */\n      0x20\n        /* \"#utility.yul\":5101:5119   */\n      dup4\n      add\n        /* \"#utility.yul\":5094:5154   */\n      mstore\n        /* \"#utility.yul\":5190:5222   */\n      dup10\n      and\n        /* \"#utility.yul\":5185:5187   */\n      0x40\n        /* \"#utility.yul\":5170:5188   */\n      dup3\n      add\n        /* \"#utility.yul\":5163:5223   */\n      mstore\n        /* \"#utility.yul\":5259:5262   */\n      0x0140\n        /* \"#utility.yul\":5254:5256   */\n      0x60\n        /* \"#utility.yul\":5239:5257   */\n      dup3\n      add\n        /* \"#utility.yul\":5232:5263   */\n      dup2\n      swap1\n      mstore\n      0x00\n      swap1\n        /* \"#utility.yul\":5286:5332   */\n      tag_538\n      swap1\n        /* \"#utility.yul\":5312:5331   */\n      dup4\n      add\n        /* \"#utility.yul\":5304:5310   */\n      dup11\n        /* \"#utility.yul\":5286:5332   */\n      tag_492\n      jump\t// in\n    tag_538:\n        /* \"#utility.yul\":5381:5390   */\n      dup3\n        /* \"#utility.yul\":5373:5379   */\n      dup2\n        /* \"#utility.yul\":5369:5391   */\n      sub\n        /* \"#utility.yul\":5363:5366   */\n      0x80\n        /* \"#utility.yul\":5352:5361   */\n      dup5\n        /* \"#utility.yul\":5348:5367   */\n      add\n        /* \"#utility.yul\":5341:5392   */\n      mstore\n        /* \"#utility.yul\":5415:5448   */\n      tag_539\n        /* \"#utility.yul\":5441:5447   */\n      dup2\n        /* \"#utility.yul\":5433:5439   */\n      dup11\n        /* \"#utility.yul\":5415:5448   */\n      tag_492\n      jump\t// in\n    tag_539:\n        /* \"#utility.yul\":5401:5448   */\n      swap1\n      pop\n        /* \"#utility.yul\":5497:5506   */\n      dup3\n        /* \"#utility.yul\":5489:5495   */\n      dup2\n        /* \"#utility.yul\":5485:5507   */\n      sub\n        /* \"#utility.yul\":5479:5482   */\n      0xa0\n        /* \"#utility.yul\":5468:5477   */\n      dup5\n        /* \"#utility.yul\":5464:5483   */\n      add\n        /* \"#utility.yul\":5457:5508   */\n      mstore\n        /* \"#utility.yul\":5525:5558   */\n      tag_540\n        /* \"#utility.yul\":5551:5557   */\n      dup2\n        /* \"#utility.yul\":5543:5549   */\n      dup10\n        /* \"#utility.yul\":5525:5558   */\n      tag_492\n      jump\t// in\n    tag_540:\n        /* \"#utility.yul\":5517:5558   */\n      swap2\n      pop\n      pop\n        /* \"#utility.yul\":5595:5601   */\n      dup6\n        /* \"#utility.yul\":5589:5592   */\n      0xc0\n        /* \"#utility.yul\":5578:5587   */\n      dup4\n        /* \"#utility.yul\":5574:5593   */\n      add\n        /* \"#utility.yul\":5567:5602   */\n      mstore\n        /* \"#utility.yul\":5639:5645   */\n      dup5\n        /* \"#utility.yul\":5633:5636   */\n      0xe0\n        /* \"#utility.yul\":5622:5631   */\n      dup4\n        /* \"#utility.yul\":5618:5637   */\n      add\n        /* \"#utility.yul\":5611:5646   */\n      mstore\n        /* \"#utility.yul\":5655:5714   */\n      tag_541\n        /* \"#utility.yul\":5709:5712   */\n      0x0100\n        /* \"#utility.yul\":5698:5707   */\n      dup4\n        /* \"#utility.yul\":5694:5713   */\n      add\n        /* \"#utility.yul\":5686:5692   */\n      dup6\n        /* \"#utility.yul\":5655:5714   */\n      tag_493\n      jump\t// in\n    tag_541:\n        /* \"#utility.yul\":5765:5771   */\n      dup3\n        /* \"#utility.yul\":5758:5772   */\n      iszero\n        /* \"#utility.yul\":5751:5773   */\n      iszero\n        /* \"#utility.yul\":5745:5748   */\n      0x0120\n        /* \"#utility.yul\":5734:5743   */\n      dup4\n        /* \"#utility.yul\":5730:5749   */\n      add\n        /* \"#utility.yul\":5723:5774   */\n      mstore\n        /* \"#utility.yul\":4628:5780   */\n      swap12\n      swap11\n      pop\n      pop\n      pop\n      pop\n      pop\n      pop\n      pop\n      pop\n      pop\n      pop\n      pop\n      jump\t// out\n        /* \"#utility.yul\":5785:5912   */\n    tag_286:\n        /* \"#utility.yul\":5846:5856   */\n      0x4e487b71\n        /* \"#utility.yul\":5841:5844   */\n      0xe0\n        /* \"#utility.yul\":5837:5857   */\n      shl\n        /* \"#utility.yul\":5834:5835   */\n      0x00\n        /* \"#utility.yul\":5827:5858   */\n      mstore\n        /* \"#utility.yul\":5877:5881   */\n      0x41\n        /* \"#utility.yul\":5874:5875   */\n      0x04\n        /* \"#utility.yul\":5867:5882   */\n      mstore\n        /* \"#utility.yul\":5901:5905   */\n      0x24\n        /* \"#utility.yul\":5898:5899   */\n      0x00\n        /* \"#utility.yul\":5891:5906   */\n      revert\n        /* \"#utility.yul\":5917:6643   */\n    tag_497:\n        /* \"#utility.yul\":5960:5965   */\n      0x00\n        /* \"#utility.yul\":6013:6016   */\n      dup3\n        /* \"#utility.yul\":6006:6010   */\n      0x1f\n        /* \"#utility.yul\":5998:6004   */\n      dup4\n        /* \"#utility.yul\":5994:6011   */\n      add\n        /* \"#utility.yul\":5990:6017   */\n      slt\n        /* \"#utility.yul\":5980:6035   */\n      tag_544\n      jumpi\n        /* \"#utility.yul\":6031:6032   */\n      0x00\n        /* \"#utility.yul\":6028:6029   */\n      0x00\n        /* \"#utility.yul\":6021:6033   */\n      revert\n        /* \"#utility.yul\":5980:6035   */\n    tag_544:\n        /* \"#utility.yul\":6071:6077   */\n      dup2\n        /* \"#utility.yul\":6058:6078   */\n      calldataload\n      sub(shl(0x40, 0x01), 0x01)\n        /* \"#utility.yul\":6093:6099   */\n      dup2\n        /* \"#utility.yul\":6090:6120   */\n      gt\n        /* \"#utility.yul\":6087:6143   */\n      iszero\n      tag_546\n      jumpi\n        /* \"#utility.yul\":6123:6141   */\n      tag_546\n      tag_286\n      jump\t// in\n    tag_546:\n        /* \"#utility.yul\":6172:6174   */\n      0x40\n        /* \"#utility.yul\":6166:6175   */\n      mload\n        /* \"#utility.yul\":6264:6266   */\n      0x1f\n        /* \"#utility.yul\":6226:6243   */\n      dup3\n      add\n      not(0x1f)\n        /* \"#utility.yul\":6222:6253   */\n      swap1\n      dup2\n      and\n        /* \"#utility.yul\":6255:6257   */\n      0x3f\n        /* \"#utility.yul\":6218:6258   */\n      add\n        /* \"#utility.yul\":6214:6268   */\n      and\n        /* \"#utility.yul\":6202:6269   */\n      dup2\n      add\n      sub(shl(0x40, 0x01), 0x01)\n        /* \"#utility.yul\":6284:6318   */\n      dup2\n      gt\n        /* \"#utility.yul\":6320:6342   */\n      dup3\n      dup3\n      lt\n        /* \"#utility.yul\":6281:6343   */\n      or\n        /* \"#utility.yul\":6278:6366   */\n      iszero\n      tag_548\n      jumpi\n        /* \"#utility.yul\":6346:6364   */\n      tag_548\n      tag_286\n      jump\t// in\n    tag_548:\n        /* \"#utility.yul\":6382:6384   */\n      0x40\n        /* \"#utility.yul\":6375:6397   */\n      mstore\n        /* \"#utility.yul\":6406:6428   */\n      dup2\n      dup2\n      mstore\n        /* \"#utility.yul\":6447:6466   */\n      dup4\n      dup3\n      add\n        /* \"#utility.yul\":6468:6472   */\n      0x20\n        /* \"#utility.yul\":6443:6473   */\n      add\n        /* \"#utility.yul\":6440:6479   */\n      dup6\n      lt\n        /* \"#utility.yul\":6437:6496   */\n      iszero\n      tag_549\n      jumpi\n        /* \"#utility.yul\":6492:6493   */\n      0x00\n        /* \"#utility.yul\":6489:6490   */\n      0x00\n        /* \"#utility.yul\":6482:6494   */\n      revert\n        /* \"#utility.yul\":6437:6496   */\n    tag_549:\n        /* \"#utility.yul\":6556:6562   */\n      dup2\n        /* \"#utility.yul\":6549:6553   */\n      0x20\n        /* \"#utility.yul\":6541:6547   */\n      dup6\n        /* \"#utility.yul\":6537:6554   */\n      add\n        /* \"#utility.yul\":6530:6534   */\n      0x20\n        /* \"#utility.yul\":6522:6528   */\n      dup4\n        /* \"#utility.yul\":6518:6535   */\n      add\n        /* \"#utility.yul\":6505:6563   */\n      calldatacopy\n        /* \"#utility.yul\":6611:6612   */\n      0x00\n        /* \"#utility.yul\":6583:6602   */\n      swap2\n      dup2\n      add\n        /* \"#utility.yul\":6604:6608   */\n      0x20\n        /* \"#utility.yul\":6579:6609   */\n      add\n        /* \"#utility.yul\":6572:6613   */\n      swap2\n      swap1\n      swap2\n      mstore\n        /* \"#utility.yul\":6587:6593   */\n      swap4\n        /* \"#utility.yul\":5917:6643   */\n      swap3\n      pop\n      pop\n      pop\n      jump\t// out\n        /* \"#utility.yul\":6648:7585   */\n    tag_61:\n        /* \"#utility.yul\":6772:6778   */\n      0x00\n        /* \"#utility.yul\":6780:6786   */\n      0x00\n        /* \"#utility.yul\":6788:6794   */\n      0x00\n        /* \"#utility.yul\":6796:6802   */\n      0x00\n        /* \"#utility.yul\":6804:6810   */\n      0x00\n        /* \"#utility.yul\":6857:6860   */\n      0xa0\n        /* \"#utility.yul\":6845:6854   */\n      dup7\n        /* \"#utility.yul\":6836:6843   */\n      dup9\n        /* \"#utility.yul\":6832:6855   */\n      sub\n        /* \"#utility.yul\":6828:6861   */\n      slt\n        /* \"#utility.yul\":6825:6878   */\n      iszero\n      tag_551\n      jumpi\n        /* \"#utility.yul\":6874:6875   */\n      0x00\n        /* \"#utility.yul\":6871:6872   */\n      0x00\n        /* \"#utility.yul\":6864:6876   */\n      revert\n        /* \"#utility.yul\":6825:6878   */\n    tag_551:\n        /* \"#utility.yul\":6919:6942   */\n      dup6\n      calldataload\n      swap5\n      pop\n        /* \"#utility.yul\":7017:7019   */\n      0x20\n        /* \"#utility.yul\":7002:7020   */\n      dup7\n      add\n        /* \"#utility.yul\":6989:7021   */\n      calldataload\n      sub(shl(0x40, 0x01), 0x01)\n        /* \"#utility.yul\":7033:7063   */\n      dup2\n      gt\n        /* \"#utility.yul\":7030:7080   */\n      iszero\n      tag_552\n      jumpi\n        /* \"#utility.yul\":7076:7077   */\n      0x00\n        /* \"#utility.yul\":7073:7074   */\n      0x00\n        /* \"#utility.yul\":7066:7078   */\n      revert\n        /* \"#utility.yul\":7030:7080   */\n    tag_552:\n        /* \"#utility.yul\":7099:7149   */\n      tag_553\n        /* \"#utility.yul\":7141:7148   */\n      dup9\n        /* \"#utility.yul\":7132:7138   */\n      dup3\n        /* \"#utility.yul\":7121:7130   */\n      dup10\n        /* \"#utility.yul\":7117:7139   */\n      add\n        /* \"#utility.yul\":7099:7149   */\n      tag_497\n      jump\t// in\n    tag_553:\n        /* \"#utility.yul\":7089:7149   */\n      swap5\n      pop\n      pop\n        /* \"#utility.yul\":7202:7204   */\n      0x40\n        /* \"#utility.yul\":7191:7200   */\n      dup7\n        /* \"#utility.yul\":7187:7205   */\n      add\n        /* \"#utility.yul\":7174:7206   */\n      calldataload\n      sub(shl(0x40, 0x01), 0x01)\n        /* \"#utility.yul\":7221:7229   */\n      dup2\n        /* \"#utility.yul\":7218:7250   */\n      gt\n        /* \"#utility.yul\":7215:7267   */\n      iszero\n      tag_554\n      jumpi\n        /* \"#utility.yul\":7263:7264   */\n      0x00\n        /* \"#utility.yul\":7260:7261   */\n      0x00\n        /* \"#utility.yul\":7253:7265   */\n      revert\n        /* \"#utility.yul\":7215:7267   */\n    tag_554:\n        /* \"#utility.yul\":7286:7338   */\n      tag_555\n        /* \"#utility.yul\":7330:7337   */\n      dup9\n        /* \"#utility.yul\":7319:7327   */\n      dup3\n        /* \"#utility.yul\":7308:7317   */\n      dup10\n        /* \"#utility.yul\":7304:7328   */\n      add\n        /* \"#utility.yul\":7286:7338   */\n      tag_497\n      jump\t// in\n    tag_555:\n        /* \"#utility.yul\":7276:7338   */\n      swap4\n      pop\n      pop\n        /* \"#utility.yul\":7391:7393   */\n      0x60\n        /* \"#utility.yul\":7380:7389   */\n      dup7\n        /* \"#utility.yul\":7376:7394   */\n      add\n        /* \"#utility.yul\":7363:7395   */\n      calldataload\n      sub(shl(0x40, 0x01), 0x01)\n        /* \"#utility.yul\":7410:7418   */\n      dup2\n        /* \"#utility.yul\":7407:7439   */\n      gt\n        /* \"#utility.yul\":7404:7456   */\n      iszero\n      tag_556\n      jumpi\n        /* \"#utility.yul\":7452:7453   */\n      0x00\n        /* \"#utility.yul\":7449:7450   */\n      0x00\n        /* \"#utility.yul\":7442:7454   */\n      revert\n        /* \"#utility.yul\":7404:7456   */\n    tag_556:\n        /* \"#utility.yul\":7475:7527   */\n      tag_557\n        /* \"#utility.yul\":7519:7526   */\n      dup9\n        /* \"#utility.yul\":7508:7516   */\n      dup3\n        /* \"#utility.yul\":7497:7506   */\n      dup10\n        /* \"#utility.yul\":7493:7517   */\n      add\n        /* \"#utility.yul\":7475:7527   */\n      tag_497\n      jump\t// in\n    tag_557:\n        /* \"#utility.yul\":6648:7585   */\n      swap6\n      swap9\n      swap5\n      swap8\n      pop\n      swap3\n      swap6\n        /* \"#utility.yul\":7574:7577   */\n      0x80\n        /* \"#utility.yul\":7559:7578   */\n      add\n        /* \"#utility.yul\":7546:7579   */\n      calldataload\n      swap4\n        /* \"#utility.yul\":6648:7585   */\n      swap3\n      pop\n      pop\n      pop\n      jump\t// out\n        /* \"#utility.yul\":7590:7763   */\n    tag_498:\n        /* \"#utility.yul\":7658:7678   */\n      dup1\n      calldataload\n      sub(shl(0xa0, 0x01), 0x01)\n        /* \"#utility.yul\":7707:7738   */\n      dup2\n      and\n        /* \"#utility.yul\":7697:7739   */\n      dup2\n      eq\n        /* \"#utility.yul\":7687:7757   */\n      tag_559\n      jumpi\n        /* \"#utility.yul\":7753:7754   */\n      0x00\n        /* \"#utility.yul\":7750:7751   */\n      0x00\n        /* \"#utility.yul\":7743:7755   */\n      revert\n        /* \"#utility.yul\":7687:7757   */\n    tag_559:\n        /* \"#utility.yul\":7590:7763   */\n      swap2\n      swap1\n      pop\n      jump\t// out\n        /* \"#utility.yul\":7768:7954   */\n    tag_66:\n        /* \"#utility.yul\":7827:7833   */\n      0x00\n        /* \"#utility.yul\":7880:7882   */\n      0x20\n        /* \"#utility.yul\":7868:7877   */\n      dup3\n        /* \"#utility.yul\":7859:7866   */\n      dup5\n        /* \"#utility.yul\":7855:7878   */\n      sub\n        /* \"#utility.yul\":7851:7883   */\n      slt\n        /* \"#utility.yul\":7848:7900   */\n      iszero\n      tag_561\n      jumpi\n        /* \"#utility.yul\":7896:7897   */\n      0x00\n        /* \"#utility.yul\":7893:7894   */\n      0x00\n        /* \"#utility.yul\":7886:7898   */\n      revert\n        /* \"#utility.yul\":7848:7900   */\n    tag_561:\n        /* \"#utility.yul\":7919:7948   */\n      tag_536\n        /* \"#utility.yul\":7938:7947   */\n      dup3\n        /* \"#utility.yul\":7919:7948   */\n      tag_498\n      jump\t// in\n        /* \"#utility.yul\":7959:8099   */\n    tag_499:\n        /* \"#utility.yul\":8040:8041   */\n      0x06\n        /* \"#utility.yul\":8033:8038   */\n      dup2\n        /* \"#utility.yul\":8030:8042   */\n      lt\n        /* \"#utility.yul\":8020:8066   */\n      tag_513\n      jumpi\n        /* \"#utility.yul\":8046:8064   */\n      tag_513\n      tag_177\n      jump\t// in\n        /* \"#utility.yul\":8104:8942   */\n    tag_69:\n        /* \"#utility.yul\":8275:8277   */\n      0x20\n        /* \"#utility.yul\":8257:8278   */\n      dup1\n      dup3\n      mstore\n        /* \"#utility.yul\":8318:8331   */\n      dup3\n      mload\n      sub(shl(0xa0, 0x01), 0x01)\n        /* \"#utility.yul\":8314:8353   */\n      and\n        /* \"#utility.yul\":8294:8312   */\n      dup3\n      dup3\n      add\n        /* \"#utility.yul\":8287:8354   */\n      mstore\n        /* \"#utility.yul\":8389:8404   */\n      dup3\n      add\n        /* \"#utility.yul\":8383:8405   */\n      mload\n        /* \"#utility.yul\":8341:8344   */\n      0xa0\n        /* \"#utility.yul\":8436:8438   */\n      0x40\n        /* \"#utility.yul\":8421:8439   */\n      dup4\n      add\n        /* \"#utility.yul\":8414:8446   */\n      mstore\n      0x00\n      swap1\n        /* \"#utility.yul\":8469:8521   */\n      tag_567\n        /* \"#utility.yul\":8516:8519   */\n      0xc0\n        /* \"#utility.yul\":8501:8520   */\n      dup5\n      add\n        /* \"#utility.yul\":8383:8405   */\n      dup3\n        /* \"#utility.yul\":8469:8521   */\n      tag_492\n      jump\t// in\n    tag_567:\n        /* \"#utility.yul\":8455:8521   */\n      swap1\n      pop\n        /* \"#utility.yul\":8570:8572   */\n      0x40\n        /* \"#utility.yul\":8562:8568   */\n      dup5\n        /* \"#utility.yul\":8558:8573   */\n      add\n        /* \"#utility.yul\":8552:8574   */\n      mload\n        /* \"#utility.yul\":8583:8644   */\n      tag_568\n        /* \"#utility.yul\":8640:8642   */\n      0x60\n        /* \"#utility.yul\":8629:8638   */\n      dup6\n        /* \"#utility.yul\":8625:8643   */\n      add\n        /* \"#utility.yul\":8609:8623   */\n      dup3\n        /* \"#utility.yul\":8583:8644   */\n      tag_499\n      jump\t// in\n    tag_568:\n      pop\n        /* \"#utility.yul\":8693:8695   */\n      0x60\n        /* \"#utility.yul\":8681:8696   */\n      dup5\n      add\n        /* \"#utility.yul\":8675:8697   */\n      mload\n        /* \"#utility.yul\":8738:8760   */\n      dup4\n      dup3\n      sub\n      not(0x1f)\n        /* \"#utility.yul\":8734:8770   */\n      add\n        /* \"#utility.yul\":8728:8731   */\n      0x80\n        /* \"#utility.yul\":8713:8732   */\n      dup6\n      add\n        /* \"#utility.yul\":8706:8771   */\n      mstore\n        /* \"#utility.yul\":8794:8835   */\n      tag_569\n        /* \"#utility.yul\":8742:8748   */\n      dup3\n        /* \"#utility.yul\":8675:8697   */\n      dup3\n        /* \"#utility.yul\":8794:8835   */\n      tag_492\n      jump\t// in\n    tag_569:\n        /* \"#utility.yul\":8780:8835   */\n      swap2\n      pop\n      pop\n        /* \"#utility.yul\":8905:8908   */\n      0x80\n        /* \"#utility.yul\":8897:8903   */\n      dup5\n        /* \"#utility.yul\":8893:8909   */\n      add\n        /* \"#utility.yul\":8887:8910   */\n      mload\n        /* \"#utility.yul\":8880:8911   */\n      iszero\n        /* \"#utility.yul\":8873:8912   */\n      iszero\n        /* \"#utility.yul\":8866:8870   */\n      0xa0\n        /* \"#utility.yul\":8855:8864   */\n      dup5\n        /* \"#utility.yul\":8851:8871   */\n      add\n        /* \"#utility.yul\":8844:8913   */\n      mstore\n        /* \"#utility.yul\":8930:8936   */\n      dup1\n        /* \"#utility.yul\":8922:8936   */\n      swap2\n      pop\n      pop\n        /* \"#utility.yul\":8104:8942   */\n      swap3\n      swap2\n      pop\n      pop\n      jump\t// out\n        /* \"#utility.yul\":8947:9938   */\n    tag_72:\n        /* \"#utility.yul\":9069:9075   */\n      0x00\n        /* \"#utility.yul\":9077:9083   */\n      0x00\n        /* \"#utility.yul\":9085:9091   */\n      0x00\n        /* \"#utility.yul\":9093:9099   */\n      0x00\n        /* \"#utility.yul\":9101:9107   */\n      0x00\n        /* \"#utility.yul\":9154:9157   */\n      0xa0\n        /* \"#utility.yul\":9142:9151   */\n      dup7\n        /* \"#utility.yul\":9133:9140   */\n      dup9\n        /* \"#utility.yul\":9129:9152   */\n      sub\n        /* \"#utility.yul\":9125:9158   */\n      slt\n        /* \"#utility.yul\":9122:9175   */\n      iszero\n      tag_571\n      jumpi\n        /* \"#utility.yul\":9171:9172   */\n      0x00\n        /* \"#utility.yul\":9168:9169   */\n      0x00\n        /* \"#utility.yul\":9161:9173   */\n      revert\n        /* \"#utility.yul\":9122:9175   */\n    tag_571:\n        /* \"#utility.yul\":9194:9223   */\n      tag_572\n        /* \"#utility.yul\":9213:9222   */\n      dup7\n        /* \"#utility.yul\":9194:9223   */\n      tag_498\n      jump\t// in\n    tag_572:\n        /* \"#utility.yul\":9184:9223   */\n      swap5\n      pop\n        /* \"#utility.yul\":9274:9276   */\n      0x20\n        /* \"#utility.yul\":9263:9272   */\n      dup7\n        /* \"#utility.yul\":9259:9277   */\n      add\n        /* \"#utility.yul\":9246:9278   */\n      calldataload\n      sub(shl(0x40, 0x01), 0x01)\n        /* \"#utility.yul\":9293:9299   */\n      dup2\n        /* \"#utility.yul\":9290:9320   */\n      gt\n        /* \"#utility.yul\":9287:9337   */\n      iszero\n      tag_573\n      jumpi\n        /* \"#utility.yul\":9333:9334   */\n      0x00\n        /* \"#utility.yul\":9330:9331   */\n      0x00\n        /* \"#utility.yul\":9323:9335   */\n      revert\n        /* \"#utility.yul\":9287:9337   */\n    tag_573:\n        /* \"#utility.yul\":9356:9406   */\n      tag_574\n        /* \"#utility.yul\":9398:9405   */\n      dup9\n        /* \"#utility.yul\":9389:9395   */\n      dup3\n        /* \"#utility.yul\":9378:9387   */\n      dup10\n        /* \"#utility.yul\":9374:9396   */\n      add\n        /* \"#utility.yul\":9356:9406   */\n      tag_497\n      jump\t// in\n    tag_574:\n        /* \"#utility.yul\":9346:9406   */\n      swap5\n      pop\n      pop\n        /* \"#utility.yul\":9459:9461   */\n      0x40\n        /* \"#utility.yul\":9448:9457   */\n      dup7\n        /* \"#utility.yul\":9444:9462   */\n      add\n        /* \"#utility.yul\":9431:9463   */\n      calldataload\n      sub(shl(0x40, 0x01), 0x01)\n        /* \"#utility.yul\":9478:9486   */\n      dup2\n        /* \"#utility.yul\":9475:9507   */\n      gt\n        /* \"#utility.yul\":9472:9524   */\n      iszero\n      tag_575\n      jumpi\n        /* \"#utility.yul\":9520:9521   */\n      0x00\n        /* \"#utility.yul\":9517:9518   */\n      0x00\n        /* \"#utility.yul\":9510:9522   */\n      revert\n        /* \"#utility.yul\":9472:9524   */\n    tag_575:\n        /* \"#utility.yul\":9543:9595   */\n      tag_576\n        /* \"#utility.yul\":9587:9594   */\n      dup9\n        /* \"#utility.yul\":9576:9584   */\n      dup3\n        /* \"#utility.yul\":9565:9574   */\n      dup10\n        /* \"#utility.yul\":9561:9585   */\n      add\n        /* \"#utility.yul\":9543:9595   */\n      tag_497\n      jump\t// in\n    tag_576:\n        /* \"#utility.yul\":9533:9595   */\n      swap4\n      pop\n      pop\n        /* \"#utility.yul\":9648:9650   */\n      0x60\n        /* \"#utility.yul\":9637:9646   */\n      dup7\n        /* \"#utility.yul\":9633:9651   */\n      add\n        /* \"#utility.yul\":9620:9652   */\n      calldataload\n      sub(shl(0x40, 0x01), 0x01)\n        /* \"#utility.yul\":9667:9675   */\n      dup2\n        /* \"#utility.yul\":9664:9696   */\n      gt\n        /* \"#utility.yul\":9661:9713   */\n      iszero\n      tag_577\n      jumpi\n        /* \"#utility.yul\":9709:9710   */\n      0x00\n        /* \"#utility.yul\":9706:9707   */\n      0x00\n        /* \"#utility.yul\":9699:9711   */\n      revert\n        /* \"#utility.yul\":9661:9713   */\n    tag_577:\n        /* \"#utility.yul\":9732:9784   */\n      tag_578\n        /* \"#utility.yul\":9776:9783   */\n      dup9\n        /* \"#utility.yul\":9765:9773   */\n      dup3\n        /* \"#utility.yul\":9754:9763   */\n      dup10\n        /* \"#utility.yul\":9750:9774   */\n      add\n        /* \"#utility.yul\":9732:9784   */\n      tag_497\n      jump\t// in\n    tag_578:\n        /* \"#utility.yul\":9722:9784   */\n      swap3\n      pop\n      pop\n        /* \"#utility.yul\":9834:9837   */\n      0x80\n        /* \"#utility.yul\":9823:9832   */\n      dup7\n        /* \"#utility.yul\":9819:9838   */\n      add\n        /* \"#utility.yul\":9806:9839   */\n      calldataload\n        /* \"#utility.yul\":9882:9887   */\n      dup1\n        /* \"#utility.yul\":9875:9888   */\n      iszero\n        /* \"#utility.yul\":9868:9889   */\n      iszero\n        /* \"#utility.yul\":9861:9866   */\n      dup2\n        /* \"#utility.yul\":9858:9890   */\n      eq\n        /* \"#utility.yul\":9848:9908   */\n      tag_579\n      jumpi\n        /* \"#utility.yul\":9904:9905   */\n      0x00\n        /* \"#utility.yul\":9901:9902   */\n      0x00\n        /* \"#utility.yul\":9894:9906   */\n      revert\n        /* \"#utility.yul\":9848:9908   */\n    tag_579:\n        /* \"#utility.yul\":9927:9932   */\n      dup1\n        /* \"#utility.yul\":9917:9932   */\n      swap2\n      pop\n      pop\n        /* \"#utility.yul\":8947:9938   */\n      swap3\n      swap6\n      pop\n      swap3\n      swap6\n      swap1\n      swap4\n      pop\n      jump\t// out\n        /* \"#utility.yul\":9943:10768   */\n    tag_82:\n        /* \"#utility.yul\":10137:10141   */\n      0x00\n        /* \"#utility.yul\":10185:10187   */\n      0x20\n        /* \"#utility.yul\":10174:10183   */\n      dup3\n        /* \"#utility.yul\":10170:10188   */\n      add\n        /* \"#utility.yul\":10215:10217   */\n      0x20\n        /* \"#utility.yul\":10204:10213   */\n      dup4\n        /* \"#utility.yul\":10197:10218   */\n      mstore\n        /* \"#utility.yul\":10238:10244   */\n      dup1\n        /* \"#utility.yul\":10273:10279   */\n      dup5\n        /* \"#utility.yul\":10267:10280   */\n      mload\n        /* \"#utility.yul\":10304:10310   */\n      dup1\n        /* \"#utility.yul\":10296:10302   */\n      dup4\n        /* \"#utility.yul\":10289:10311   */\n      mstore\n        /* \"#utility.yul\":10342:10344   */\n      0x40\n        /* \"#utility.yul\":10331:10340   */\n      dup6\n        /* \"#utility.yul\":10327:10345   */\n      add\n        /* \"#utility.yul\":10320:10345   */\n      swap2\n      pop\n        /* \"#utility.yul\":10404:10406   */\n      0x40\n        /* \"#utility.yul\":10394:10400   */\n      dup2\n        /* \"#utility.yul\":10391:10392   */\n      0x05\n        /* \"#utility.yul\":10387:10401   */\n      shl\n        /* \"#utility.yul\":10376:10385   */\n      dup7\n        /* \"#utility.yul\":10372:10402   */\n      add\n        /* \"#utility.yul\":10368:10407   */\n      add\n        /* \"#utility.yul\":10354:10407   */\n      swap3\n      pop\n        /* \"#utility.yul\":10442:10444   */\n      0x20\n        /* \"#utility.yul\":10434:10440   */\n      dup7\n        /* \"#utility.yul\":10430:10445   */\n      add\n        /* \"#utility.yul\":10463:10464   */\n      0x00\n        /* \"#utility.yul\":10473:10739   */\n    tag_581:\n        /* \"#utility.yul\":10487:10493   */\n      dup3\n        /* \"#utility.yul\":10484:10485   */\n      dup2\n        /* \"#utility.yul\":10481:10494   */\n      lt\n        /* \"#utility.yul\":10473:10739   */\n      iszero\n      tag_583\n      jumpi\n        /* \"#utility.yul\":10580:10582   */\n      0x3f\n        /* \"#utility.yul\":10576:10583   */\n      not\n        /* \"#utility.yul\":10564:10573   */\n      dup8\n        /* \"#utility.yul\":10556:10562   */\n      dup7\n        /* \"#utility.yul\":10552:10574   */\n      sub\n        /* \"#utility.yul\":10548:10584   */\n      add\n        /* \"#utility.yul\":10543:10546   */\n      dup5\n        /* \"#utility.yul\":10536:10585   */\n      mstore\n        /* \"#utility.yul\":10608:10659   */\n      tag_584\n        /* \"#utility.yul\":10652:10658   */\n      dup6\n        /* \"#utility.yul\":10643:10649   */\n      dup4\n        /* \"#utility.yul\":10637:10650   */\n      mload\n        /* \"#utility.yul\":10608:10659   */\n      tag_496\n      jump\t// in\n    tag_584:\n        /* \"#utility.yul\":10598:10659   */\n      swap5\n      pop\n        /* \"#utility.yul\":10694:10696   */\n      0x20\n        /* \"#utility.yul\":10717:10729   */\n      swap4\n      dup5\n      add\n      swap4\n        /* \"#utility.yul\":10682:10697   */\n      swap2\n      swap1\n      swap2\n      add\n      swap1\n        /* \"#utility.yul\":10509:10510   */\n      0x01\n        /* \"#utility.yul\":10502:10511   */\n      add\n        /* \"#utility.yul\":10473:10739   */\n      jump(tag_581)\n    tag_583:\n      pop\n        /* \"#utility.yul\":10756:10762   */\n      swap3\n      swap7\n        /* \"#utility.yul\":9943:10768   */\n      swap6\n      pop\n      pop\n      pop\n      pop\n      pop\n      pop\n      jump\t// out\n        /* \"#utility.yul\":10773:11384   */\n    tag_87:\n        /* \"#utility.yul\":10963:10965   */\n      0x20\n        /* \"#utility.yul\":10975:10996   */\n      dup1\n      dup3\n      mstore\n        /* \"#utility.yul\":11045:11058   */\n      dup3\n      mload\n        /* \"#utility.yul\":10948:10966   */\n      dup3\n      dup3\n      add\n        /* \"#utility.yul\":11067:11089   */\n      dup2\n      swap1\n      mstore\n        /* \"#utility.yul\":10915:10919   */\n      0x00\n      swap2\n        /* \"#utility.yul\":11146:11161   */\n      dup5\n      add\n      swap1\n        /* \"#utility.yul\":11120:11122   */\n      0x40\n        /* \"#utility.yul\":11105:11123   */\n      dup5\n      add\n      swap1\n        /* \"#utility.yul\":10915:10919   */\n      dup4\n        /* \"#utility.yul\":11189:11358   */\n    tag_586:\n        /* \"#utility.yul\":11203:11209   */\n      dup2\n        /* \"#utility.yul\":11200:11201   */\n      dup2\n        /* \"#utility.yul\":11197:11210   */\n      lt\n        /* \"#utility.yul\":11189:11358   */\n      iszero\n      tag_588\n      jumpi\n        /* \"#utility.yul\":11264:11277   */\n      dup4\n      mload\n        /* \"#utility.yul\":11252:11278   */\n      dup4\n      mstore\n        /* \"#utility.yul\":11307:11309   */\n      0x20\n        /* \"#utility.yul\":11333:11348   */\n      swap4\n      dup5\n      add\n      swap4\n        /* \"#utility.yul\":11298:11310   */\n      swap1\n      swap3\n      add\n      swap2\n        /* \"#utility.yul\":11225:11226   */\n      0x01\n        /* \"#utility.yul\":11218:11227   */\n      add\n        /* \"#utility.yul\":11189:11358   */\n      jump(tag_586)\n    tag_588:\n      pop\n        /* \"#utility.yul\":11375:11378   */\n      swap1\n      swap6\n        /* \"#utility.yul\":10773:11384   */\n      swap5\n      pop\n      pop\n      pop\n      pop\n      pop\n      jump\t// out\n        /* \"#utility.yul\":11389:11532   */\n    tag_500:\n        /* \"#utility.yul\":11473:11474   */\n      0x05\n        /* \"#utility.yul\":11466:11471   */\n      dup2\n        /* \"#utility.yul\":11463:11475   */\n      lt\n        /* \"#utility.yul\":11453:11499   */\n      tag_513\n      jumpi\n        /* \"#utility.yul\":11479:11497   */\n      tag_513\n      tag_177\n      jump\t// in\n        /* \"#utility.yul\":11537:12203   */\n    tag_501:\n        /* \"#utility.yul\":11624:11629   */\n      dup1\n        /* \"#utility.yul\":11618:11630   */\n      mload\n        /* \"#utility.yul\":11613:11616   */\n      dup3\n        /* \"#utility.yul\":11606:11631   */\n      mstore\n        /* \"#utility.yul\":11680:11684   */\n      0x20\n        /* \"#utility.yul\":11673:11678   */\n      dup2\n        /* \"#utility.yul\":11669:11685   */\n      add\n        /* \"#utility.yul\":11663:11686   */\n      mload\n        /* \"#utility.yul\":11656:11660   */\n      0x20\n        /* \"#utility.yul\":11651:11654   */\n      dup4\n        /* \"#utility.yul\":11647:11661   */\n      add\n        /* \"#utility.yul\":11640:11687   */\n      mstore\n        /* \"#utility.yul\":11588:11591   */\n      0x00\n        /* \"#utility.yul\":11733:11737   */\n      0x40\n        /* \"#utility.yul\":11726:11731   */\n      dup3\n        /* \"#utility.yul\":11722:11738   */\n      add\n        /* \"#utility.yul\":11716:11739   */\n      mload\n        /* \"#utility.yul\":11748:11806   */\n      tag_593\n        /* \"#utility.yul\":11800:11804   */\n      0x40\n        /* \"#utility.yul\":11795:11798   */\n      dup6\n        /* \"#utility.yul\":11791:11805   */\n      add\n        /* \"#utility.yul\":11777:11789   */\n      dup3\n        /* \"#utility.yul\":11748:11806   */\n      tag_500\n      jump\t// in\n    tag_593:\n      pop\n        /* \"#utility.yul\":11884:11885   */\n      0x01\n        /* \"#utility.yul\":11880:11881   */\n      dup1\n        /* \"#utility.yul\":11875:11878   */\n      0xa0\n        /* \"#utility.yul\":11871:11882   */\n      shl\n        /* \"#utility.yul\":11867:11886   */\n      sub\n        /* \"#utility.yul\":11859:11863   */\n      0x60\n        /* \"#utility.yul\":11852:11857   */\n      dup4\n        /* \"#utility.yul\":11848:11864   */\n      add\n        /* \"#utility.yul\":11842:11865   */\n      mload\n        /* \"#utility.yul\":11838:11887   */\n      and\n        /* \"#utility.yul\":11831:11835   */\n      0x60\n        /* \"#utility.yul\":11826:11829   */\n      dup5\n        /* \"#utility.yul\":11822:11836   */\n      add\n        /* \"#utility.yul\":11815:11888   */\n      mstore\n        /* \"#utility.yul\":11936:11940   */\n      0x80\n        /* \"#utility.yul\":11929:11934   */\n      dup3\n        /* \"#utility.yul\":11925:11941   */\n      add\n        /* \"#utility.yul\":11919:11942   */\n      mload\n        /* \"#utility.yul\":11974:11978   */\n      0xe0\n        /* \"#utility.yul\":11967:11971   */\n      0x80\n        /* \"#utility.yul\":11962:11965   */\n      dup6\n        /* \"#utility.yul\":11958:11972   */\n      add\n        /* \"#utility.yul\":11951:11979   */\n      mstore\n        /* \"#utility.yul\":12000:12049   */\n      tag_594\n        /* \"#utility.yul\":12043:12047   */\n      0xe0\n        /* \"#utility.yul\":12038:12041   */\n      dup6\n        /* \"#utility.yul\":12034:12048   */\n      add\n        /* \"#utility.yul\":12018:12032   */\n      dup3\n        /* \"#utility.yul\":12000:12049   */\n      tag_492\n      jump\t// in\n    tag_594:\n        /* \"#utility.yul\":11988:12049   */\n      swap1\n      pop\n        /* \"#utility.yul\":12098:12102   */\n      0xa0\n        /* \"#utility.yul\":12091:12096   */\n      dup4\n        /* \"#utility.yul\":12087:12103   */\n      add\n        /* \"#utility.yul\":12081:12104   */\n      mload\n        /* \"#utility.yul\":12074:12078   */\n      0xa0\n        /* \"#utility.yul\":12069:12072   */\n      dup6\n        /* \"#utility.yul\":12065:12079   */\n      add\n        /* \"#utility.yul\":12058:12105   */\n      mstore\n        /* \"#utility.yul\":12168:12172   */\n      0xc0\n        /* \"#utility.yul\":12161:12166   */\n      dup4\n        /* \"#utility.yul\":12157:12173   */\n      add\n        /* \"#utility.yul\":12151:12174   */\n      mload\n        /* \"#utility.yul\":12144:12175   */\n      iszero\n        /* \"#utility.yul\":12137:12176   */\n      iszero\n        /* \"#utility.yul\":12130:12134   */\n      0xc0\n        /* \"#utility.yul\":12125:12128   */\n      dup6\n        /* \"#utility.yul\":12121:12135   */\n      add\n        /* \"#utility.yul\":12114:12177   */\n      mstore\n        /* \"#utility.yul\":12193:12197   */\n      dup1\n        /* \"#utility.yul\":12186:12197   */\n      swap2\n      pop\n      pop\n        /* \"#utility.yul\":11537:12203   */\n      swap3\n      swap2\n      pop\n      pop\n      jump\t// out\n        /* \"#utility.yul\":12208:13027   */\n    tag_92:\n        /* \"#utility.yul\":12398:12402   */\n      0x00\n        /* \"#utility.yul\":12446:12448   */\n      0x20\n        /* \"#utility.yul\":12435:12444   */\n      dup3\n        /* \"#utility.yul\":12431:12449   */\n      add\n        /* \"#utility.yul\":12476:12478   */\n      0x20\n        /* \"#utility.yul\":12465:12474   */\n      dup4\n        /* \"#utility.yul\":12458:12479   */\n      mstore\n        /* \"#utility.yul\":12499:12505   */\n      dup1\n        /* \"#utility.yul\":12534:12540   */\n      dup5\n        /* \"#utility.yul\":12528:12541   */\n      mload\n        /* \"#utility.yul\":12565:12571   */\n      dup1\n        /* \"#utility.yul\":12557:12563   */\n      dup4\n        /* \"#utility.yul\":12550:12572   */\n      mstore\n        /* \"#utility.yul\":12603:12605   */\n      0x40\n        /* \"#utility.yul\":12592:12601   */\n      dup6\n        /* \"#utility.yul\":12588:12606   */\n      add\n        /* \"#utility.yul\":12581:12606   */\n      swap2\n      pop\n        /* \"#utility.yul\":12665:12667   */\n      0x40\n        /* \"#utility.yul\":12655:12661   */\n      dup2\n        /* \"#utility.yul\":12652:12653   */\n      0x05\n        /* \"#utility.yul\":12648:12662   */\n      shl\n        /* \"#utility.yul\":12637:12646   */\n      dup7\n        /* \"#utility.yul\":12633:12663   */\n      add\n        /* \"#utility.yul\":12629:12668   */\n      add\n        /* \"#utility.yul\":12615:12668   */\n      swap3\n      pop\n        /* \"#utility.yul\":12703:12705   */\n      0x20\n        /* \"#utility.yul\":12695:12701   */\n      dup7\n        /* \"#utility.yul\":12691:12706   */\n      add\n        /* \"#utility.yul\":12724:12725   */\n      0x00\n        /* \"#utility.yul\":12734:12998   */\n    tag_596:\n        /* \"#utility.yul\":12748:12754   */\n      dup3\n        /* \"#utility.yul\":12745:12746   */\n      dup2\n        /* \"#utility.yul\":12742:12755   */\n      lt\n        /* \"#utility.yul\":12734:12998   */\n      iszero\n      tag_583\n      jumpi\n        /* \"#utility.yul\":12841:12843   */\n      0x3f\n        /* \"#utility.yul\":12837:12844   */\n      not\n        /* \"#utility.yul\":12825:12834   */\n      dup8\n        /* \"#utility.yul\":12817:12823   */\n      dup7\n        /* \"#utility.yul\":12813:12835   */\n      sub\n        /* \"#utility.yul\":12809:12845   */\n      add\n        /* \"#utility.yul\":12804:12807   */\n      dup5\n        /* \"#utility.yul\":12797:12846   */\n      mstore\n        /* \"#utility.yul\":12869:12918   */\n      tag_599\n        /* \"#utility.yul\":12911:12917   */\n      dup6\n        /* \"#utility.yul\":12902:12908   */\n      dup4\n        /* \"#utility.yul\":12896:12909   */\n      mload\n        /* \"#utility.yul\":12869:12918   */\n      tag_501\n      jump\t// in\n    tag_599:\n        /* \"#utility.yul\":12859:12918   */\n      swap5\n      pop\n        /* \"#utility.yul\":12953:12955   */\n      0x20\n        /* \"#utility.yul\":12976:12988   */\n      swap4\n      dup5\n      add\n      swap4\n        /* \"#utility.yul\":12941:12956   */\n      swap2\n      swap1\n      swap2\n      add\n      swap1\n        /* \"#utility.yul\":12770:12771   */\n      0x01\n        /* \"#utility.yul\":12763:12772   */\n      add\n        /* \"#utility.yul\":12734:12998   */\n      jump(tag_596)\n        /* \"#utility.yul\":13032:13425   */\n    tag_95:\n        /* \"#utility.yul\":13117:13123   */\n      0x00\n        /* \"#utility.yul\":13125:13131   */\n      0x00\n        /* \"#utility.yul\":13178:13180   */\n      0x40\n        /* \"#utility.yul\":13166:13175   */\n      dup4\n        /* \"#utility.yul\":13157:13164   */\n      dup6\n        /* \"#utility.yul\":13153:13176   */\n      sub\n        /* \"#utility.yul\":13149:13181   */\n      slt\n        /* \"#utility.yul\":13146:13198   */\n      iszero\n      tag_601\n      jumpi\n        /* \"#utility.yul\":13194:13195   */\n      0x00\n        /* \"#utility.yul\":13191:13192   */\n      0x00\n        /* \"#utility.yul\":13184:13196   */\n      revert\n        /* \"#utility.yul\":13146:13198   */\n    tag_601:\n        /* \"#utility.yul\":13239:13262   */\n      dup3\n      calldataload\n      swap2\n      pop\n        /* \"#utility.yul\":13338:13340   */\n      0x20\n        /* \"#utility.yul\":13323:13341   */\n      dup4\n      add\n        /* \"#utility.yul\":13310:13342   */\n      calldataload\n        /* \"#utility.yul\":13373:13374   */\n      0x07\n        /* \"#utility.yul\":13361:13375   */\n      dup2\n      lt\n        /* \"#utility.yul\":13351:13393   */\n      tag_602\n      jumpi\n        /* \"#utility.yul\":13389:13390   */\n      0x00\n        /* \"#utility.yul\":13386:13387   */\n      0x00\n        /* \"#utility.yul\":13379:13391   */\n      revert\n        /* \"#utility.yul\":13351:13393   */\n    tag_602:\n        /* \"#utility.yul\":13412:13419   */\n      dup1\n        /* \"#utility.yul\":13402:13419   */\n      swap2\n      pop\n      pop\n        /* \"#utility.yul\":13032:13425   */\n      swap3\n      pop\n      swap3\n      swap1\n      pop\n      jump\t// out\n        /* \"#utility.yul\":13622:13879   */\n    tag_109:\n        /* \"#utility.yul\":13799:13801   */\n      0x20\n        /* \"#utility.yul\":13788:13797   */\n      dup2\n        /* \"#utility.yul\":13781:13802   */\n      mstore\n        /* \"#utility.yul\":13762:13766   */\n      0x00\n        /* \"#utility.yul\":13819:13873   */\n      tag_536\n        /* \"#utility.yul\":13869:13871   */\n      0x20\n        /* \"#utility.yul\":13858:13867   */\n      dup4\n        /* \"#utility.yul\":13854:13872   */\n      add\n        /* \"#utility.yul\":13846:13852   */\n      dup5\n        /* \"#utility.yul\":13819:13873   */\n      tag_501\n      jump\t// in\n        /* \"#utility.yul\":13884:14184   */\n    tag_112:\n        /* \"#utility.yul\":13952:13958   */\n      0x00\n        /* \"#utility.yul\":13960:13966   */\n      0x00\n        /* \"#utility.yul\":14013:14015   */\n      0x40\n        /* \"#utility.yul\":14001:14010   */\n      dup4\n        /* \"#utility.yul\":13992:13999   */\n      dup6\n        /* \"#utility.yul\":13988:14011   */\n      sub\n        /* \"#utility.yul\":13984:14016   */\n      slt\n        /* \"#utility.yul\":13981:14033   */\n      iszero\n      tag_607\n      jumpi\n        /* \"#utility.yul\":14029:14030   */\n      0x00\n        /* \"#utility.yul\":14026:14027   */\n      0x00\n        /* \"#utility.yul\":14019:14031   */\n      revert\n        /* \"#utility.yul\":13981:14033   */\n    tag_607:\n        /* \"#utility.yul\":14052:14081   */\n      tag_608\n        /* \"#utility.yul\":14071:14080   */\n      dup4\n        /* \"#utility.yul\":14052:14081   */\n      tag_498\n      jump\t// in\n    tag_608:\n        /* \"#utility.yul\":14042:14081   */\n      swap5\n        /* \"#utility.yul\":14150:14152   */\n      0x20\n        /* \"#utility.yul\":14135:14153   */\n      swap4\n      swap1\n      swap4\n      add\n        /* \"#utility.yul\":14122:14154   */\n      calldataload\n      swap4\n      pop\n      pop\n      pop\n        /* \"#utility.yul\":13884:14184   */\n      jump\t// out\n        /* \"#utility.yul\":14189:14911   */\n    tag_119:\n        /* \"#utility.yul\":14513:14519   */\n      dup8\n        /* \"#utility.yul\":14502:14511   */\n      dup2\n        /* \"#utility.yul\":14495:14520   */\n      mstore\n        /* \"#utility.yul\":14556:14562   */\n      dup7\n        /* \"#utility.yul\":14551:14553   */\n      0x20\n        /* \"#utility.yul\":14540:14549   */\n      dup3\n        /* \"#utility.yul\":14536:14554   */\n      add\n        /* \"#utility.yul\":14529:14563   */\n      mstore\n        /* \"#utility.yul\":14572:14628   */\n      tag_610\n        /* \"#utility.yul\":14624:14626   */\n      0x40\n        /* \"#utility.yul\":14613:14622   */\n      dup3\n        /* \"#utility.yul\":14609:14627   */\n      add\n        /* \"#utility.yul\":14601:14607   */\n      dup8\n        /* \"#utility.yul\":14572:14628   */\n      tag_500\n      jump\t// in\n    tag_610:\n      sub(shl(0xa0, 0x01), 0x01)\n        /* \"#utility.yul\":14664:14696   */\n      dup6\n      and\n        /* \"#utility.yul\":14659:14661   */\n      0x60\n        /* \"#utility.yul\":14644:14662   */\n      dup3\n      add\n        /* \"#utility.yul\":14637:14697   */\n      mstore\n        /* \"#utility.yul\":14734:14737   */\n      0xe0\n        /* \"#utility.yul\":14728:14731   */\n      0x80\n        /* \"#utility.yul\":14713:14732   */\n      dup3\n      add\n        /* \"#utility.yul\":14706:14738   */\n      dup2\n      swap1\n      mstore\n      0x00\n      swap1\n        /* \"#utility.yul\":14755:14801   */\n      tag_611\n      swap1\n        /* \"#utility.yul\":14781:14800   */\n      dup4\n      add\n        /* \"#utility.yul\":14773:14779   */\n      dup7\n        /* \"#utility.yul\":14755:14801   */\n      tag_492\n      jump\t// in\n    tag_611:\n        /* \"#utility.yul\":14832:14835   */\n      0xa0\n        /* \"#utility.yul\":14817:14836   */\n      dup4\n      add\n        /* \"#utility.yul\":14810:14845   */\n      swap5\n      swap1\n      swap5\n      mstore\n      pop\n        /* \"#utility.yul\":14889:14903   */\n      swap1\n      iszero\n        /* \"#utility.yul\":14882:14904   */\n      iszero\n        /* \"#utility.yul\":14876:14879   */\n      0xc0\n        /* \"#utility.yul\":14861:14880   */\n      swap1\n      swap2\n      add\n        /* \"#utility.yul\":14854:14905   */\n      mstore\n        /* \"#utility.yul\":14747:14801   */\n      swap6\n        /* \"#utility.yul\":14189:14911   */\n      swap5\n      pop\n      pop\n      pop\n      pop\n      pop\n      jump\t// out\n        /* \"#utility.yul\":14916:15847   */\n    tag_128:\n        /* \"#utility.yul\":15299:15305   */\n      dup9\n        /* \"#utility.yul\":15288:15297   */\n      dup2\n        /* \"#utility.yul\":15281:15306   */\n      mstore\n        /* \"#utility.yul\":15342:15348   */\n      dup8\n        /* \"#utility.yul\":15337:15339   */\n      0x20\n        /* \"#utility.yul\":15326:15335   */\n      dup3\n        /* \"#utility.yul\":15322:15340   */\n      add\n        /* \"#utility.yul\":15315:15349   */\n      mstore\n        /* \"#utility.yul\":15414:15415   */\n      0x01\n        /* \"#utility.yul\":15410:15411   */\n      dup1\n        /* \"#utility.yul\":15405:15408   */\n      0xa0\n        /* \"#utility.yul\":15401:15412   */\n      shl\n        /* \"#utility.yul\":15397:15416   */\n      sub\n        /* \"#utility.yul\":15389:15395   */\n      dup8\n        /* \"#utility.yul\":15385:15417   */\n      and\n        /* \"#utility.yul\":15380:15382   */\n      0x40\n        /* \"#utility.yul\":15369:15378   */\n      dup3\n        /* \"#utility.yul\":15365:15383   */\n      add\n        /* \"#utility.yul\":15358:15418   */\n      mstore\n        /* \"#utility.yul\":15454:15457   */\n      0x0100\n        /* \"#utility.yul\":15449:15451   */\n      0x60\n        /* \"#utility.yul\":15438:15447   */\n      dup3\n        /* \"#utility.yul\":15434:15452   */\n      add\n        /* \"#utility.yul\":15427:15458   */\n      mstore\n        /* \"#utility.yul\":15262:15266   */\n      0x00\n        /* \"#utility.yul\":15481:15527   */\n      tag_613\n        /* \"#utility.yul\":15522:15525   */\n      0x0100\n        /* \"#utility.yul\":15511:15520   */\n      dup4\n        /* \"#utility.yul\":15507:15526   */\n      add\n        /* \"#utility.yul\":15499:15505   */\n      dup9\n        /* \"#utility.yul\":15481:15527   */\n      tag_492\n      jump\t// in\n    tag_613:\n        /* \"#utility.yul\":15576:15585   */\n      dup3\n        /* \"#utility.yul\":15568:15574   */\n      dup2\n        /* \"#utility.yul\":15564:15586   */\n      sub\n        /* \"#utility.yul\":15558:15561   */\n      0x80\n        /* \"#utility.yul\":15547:15556   */\n      dup5\n        /* \"#utility.yul\":15543:15562   */\n      add\n        /* \"#utility.yul\":15536:15587   */\n      mstore\n        /* \"#utility.yul\":15610:15643   */\n      tag_614\n        /* \"#utility.yul\":15636:15642   */\n      dup2\n        /* \"#utility.yul\":15628:15634   */\n      dup9\n        /* \"#utility.yul\":15610:15643   */\n      tag_492\n      jump\t// in\n    tag_614:\n        /* \"#utility.yul\":15596:15643   */\n      swap1\n      pop\n        /* \"#utility.yul\":15680:15686   */\n      dup6\n        /* \"#utility.yul\":15674:15677   */\n      0xa0\n        /* \"#utility.yul\":15663:15672   */\n      dup5\n        /* \"#utility.yul\":15659:15678   */\n      add\n        /* \"#utility.yul\":15652:15687   */\n      mstore\n        /* \"#utility.yul\":15736:15745   */\n      dup3\n        /* \"#utility.yul\":15728:15734   */\n      dup2\n        /* \"#utility.yul\":15724:15746   */\n      sub\n        /* \"#utility.yul\":15718:15721   */\n      0xc0\n        /* \"#utility.yul\":15707:15716   */\n      dup5\n        /* \"#utility.yul\":15703:15722   */\n      add\n        /* \"#utility.yul\":15696:15747   */\n      mstore\n        /* \"#utility.yul\":15764:15797   */\n      tag_615\n        /* \"#utility.yul\":15790:15796   */\n      dup2\n        /* \"#utility.yul\":15782:15788   */\n      dup7\n        /* \"#utility.yul\":15764:15797   */\n      tag_492\n      jump\t// in\n    tag_615:\n        /* \"#utility.yul\":15756:15797   */\n      swap2\n      pop\n      pop\n        /* \"#utility.yul\":15834:15840   */\n      dup3\n        /* \"#utility.yul\":15828:15831   */\n      0xe0\n        /* \"#utility.yul\":15817:15826   */\n      dup4\n        /* \"#utility.yul\":15813:15832   */\n      add\n        /* \"#utility.yul\":15806:15841   */\n      mstore\n        /* \"#utility.yul\":14916:15847   */\n      swap10\n      swap9\n      pop\n      pop\n      pop\n      pop\n      pop\n      pop\n      pop\n      pop\n      pop\n      jump\t// out\n        /* \"#utility.yul\":15852:16546   */\n    tag_134:\n        /* \"#utility.yul\":15961:15967   */\n      0x00\n        /* \"#utility.yul\":15969:15975   */\n      0x00\n        /* \"#utility.yul\":15977:15983   */\n      0x00\n        /* \"#utility.yul\":16030:16032   */\n      0x60\n        /* \"#utility.yul\":16018:16027   */\n      dup5\n        /* \"#utility.yul\":16009:16016   */\n      dup7\n        /* \"#utility.yul\":16005:16028   */\n      sub\n        /* \"#utility.yul\":16001:16033   */\n      slt\n        /* \"#utility.yul\":15998:16050   */\n      iszero\n      tag_617\n      jumpi\n        /* \"#utility.yul\":16046:16047   */\n      0x00\n        /* \"#utility.yul\":16043:16044   */\n      0x00\n        /* \"#utility.yul\":16036:16048   */\n      revert\n        /* \"#utility.yul\":15998:16050   */\n    tag_617:\n        /* \"#utility.yul\":16086:16095   */\n      dup4\n        /* \"#utility.yul\":16073:16096   */\n      calldataload\n      sub(shl(0x40, 0x01), 0x01)\n        /* \"#utility.yul\":16111:16117   */\n      dup2\n        /* \"#utility.yul\":16108:16138   */\n      gt\n        /* \"#utility.yul\":16105:16155   */\n      iszero\n      tag_618\n      jumpi\n        /* \"#utility.yul\":16151:16152   */\n      0x00\n        /* \"#utility.yul\":16148:16149   */\n      0x00\n        /* \"#utility.yul\":16141:16153   */\n      revert\n        /* \"#utility.yul\":16105:16155   */\n    tag_618:\n        /* \"#utility.yul\":16174:16224   */\n      tag_619\n        /* \"#utility.yul\":16216:16223   */\n      dup7\n        /* \"#utility.yul\":16207:16213   */\n      dup3\n        /* \"#utility.yul\":16196:16205   */\n      dup8\n        /* \"#utility.yul\":16192:16214   */\n      add\n        /* \"#utility.yul\":16174:16224   */\n      tag_497\n      jump\t// in\n    tag_619:\n        /* \"#utility.yul\":16164:16224   */\n      swap4\n      pop\n      pop\n        /* \"#utility.yul\":16274:16276   */\n      0x20\n        /* \"#utility.yul\":16263:16272   */\n      dup5\n        /* \"#utility.yul\":16259:16277   */\n      add\n        /* \"#utility.yul\":16246:16278   */\n      calldataload\n        /* \"#utility.yul\":16307:16308   */\n      0x06\n        /* \"#utility.yul\":16300:16305   */\n      dup2\n        /* \"#utility.yul\":16297:16309   */\n      lt\n        /* \"#utility.yul\":16287:16327   */\n      tag_620\n      jumpi\n        /* \"#utility.yul\":16323:16324   */\n      0x00\n        /* \"#utility.yul\":16320:16321   */\n      0x00\n        /* \"#utility.yul\":16313:16325   */\n      revert\n        /* \"#utility.yul\":16287:16327   */\n    tag_620:\n        /* \"#utility.yul\":16346:16351   */\n      swap2\n      pop\n        /* \"#utility.yul\":16404:16406   */\n      0x40\n        /* \"#utility.yul\":16389:16407   */\n      dup5\n      add\n        /* \"#utility.yul\":16376:16408   */\n      calldataload\n      sub(shl(0x40, 0x01), 0x01)\n        /* \"#utility.yul\":16420:16452   */\n      dup2\n      gt\n        /* \"#utility.yul\":16417:16469   */\n      iszero\n      tag_621\n      jumpi\n        /* \"#utility.yul\":16465:16466   */\n      0x00\n        /* \"#utility.yul\":16462:16463   */\n      0x00\n        /* \"#utility.yul\":16455:16467   */\n      revert\n        /* \"#utility.yul\":16417:16469   */\n    tag_621:\n        /* \"#utility.yul\":16488:16540   */\n      tag_622\n        /* \"#utility.yul\":16532:16539   */\n      dup7\n        /* \"#utility.yul\":16521:16529   */\n      dup3\n        /* \"#utility.yul\":16510:16519   */\n      dup8\n        /* \"#utility.yul\":16506:16530   */\n      add\n        /* \"#utility.yul\":16488:16540   */\n      tag_497\n      jump\t// in\n    tag_622:\n        /* \"#utility.yul\":16478:16540   */\n      swap2\n      pop\n      pop\n        /* \"#utility.yul\":15852:16546   */\n      swap3\n      pop\n      swap3\n      pop\n      swap3\n      jump\t// out\n        /* \"#utility.yul\":16551:17152   */\n    tag_138:\n        /* \"#utility.yul\":16653:16659   */\n      0x00\n        /* \"#utility.yul\":16661:16667   */\n      0x00\n        /* \"#utility.yul\":16669:16675   */\n      0x00\n        /* \"#utility.yul\":16722:16724   */\n      0x60\n        /* \"#utility.yul\":16710:16719   */\n      dup5\n        /* \"#utility.yul\":16701:16708   */\n      dup7\n        /* \"#utility.yul\":16697:16720   */\n      sub\n        /* \"#utility.yul\":16693:16725   */\n      slt\n        /* \"#utility.yul\":16690:16742   */\n      iszero\n      tag_624\n      jumpi\n        /* \"#utility.yul\":16738:16739   */\n      0x00\n        /* \"#utility.yul\":16735:16736   */\n      0x00\n        /* \"#utility.yul\":16728:16740   */\n      revert\n        /* \"#utility.yul\":16690:16742   */\n    tag_624:\n        /* \"#utility.yul\":16783:16806   */\n      dup4\n      calldataload\n      swap3\n      pop\n        /* \"#utility.yul\":16882:16884   */\n      0x20\n        /* \"#utility.yul\":16867:16885   */\n      dup5\n      add\n        /* \"#utility.yul\":16854:16886   */\n      calldataload\n        /* \"#utility.yul\":16917:16918   */\n      0x05\n        /* \"#utility.yul\":16905:16919   */\n      dup2\n      lt\n        /* \"#utility.yul\":16895:16937   */\n      tag_620\n      jumpi\n        /* \"#utility.yul\":16933:16934   */\n      0x00\n        /* \"#utility.yul\":16930:16931   */\n      0x00\n        /* \"#utility.yul\":16923:16935   */\n      revert\n        /* \"#utility.yul\":17157:17821   */\n    tag_145:\n      sub(shl(0xa0, 0x01), 0x01)\n        /* \"#utility.yul\":17442:17474   */\n      dup7\n      and\n        /* \"#utility.yul\":17424:17475   */\n      dup2\n      mstore\n        /* \"#utility.yul\":17462:17465   */\n      0xa0\n        /* \"#utility.yul\":17506:17508   */\n      0x20\n        /* \"#utility.yul\":17491:17509   */\n      dup3\n      add\n        /* \"#utility.yul\":17484:17515   */\n      dup2\n      swap1\n      mstore\n      0x00\n      swap1\n        /* \"#utility.yul\":17538:17584   */\n      tag_629\n      swap1\n        /* \"#utility.yul\":17564:17583   */\n      dup4\n      add\n        /* \"#utility.yul\":17556:17562   */\n      dup8\n        /* \"#utility.yul\":17538:17584   */\n      tag_492\n      jump\t// in\n    tag_629:\n        /* \"#utility.yul\":17593:17646   */\n      tag_630\n        /* \"#utility.yul\":17642:17644   */\n      0x40\n        /* \"#utility.yul\":17631:17640   */\n      dup5\n        /* \"#utility.yul\":17627:17645   */\n      add\n        /* \"#utility.yul\":17619:17625   */\n      dup8\n        /* \"#utility.yul\":17593:17646   */\n      tag_499\n      jump\t// in\n    tag_630:\n        /* \"#utility.yul\":17694:17703   */\n      dup3\n        /* \"#utility.yul\":17686:17692   */\n      dup2\n        /* \"#utility.yul\":17682:17704   */\n      sub\n        /* \"#utility.yul\":17677:17679   */\n      0x60\n        /* \"#utility.yul\":17666:17675   */\n      dup5\n        /* \"#utility.yul\":17662:17680   */\n      add\n        /* \"#utility.yul\":17655:17705   */\n      mstore\n        /* \"#utility.yul\":17722:17755   */\n      tag_631\n        /* \"#utility.yul\":17748:17754   */\n      dup2\n        /* \"#utility.yul\":17740:17746   */\n      dup7\n        /* \"#utility.yul\":17722:17755   */\n      tag_492\n      jump\t// in\n    tag_631:\n        /* \"#utility.yul\":17714:17755   */\n      swap2\n      pop\n      pop\n        /* \"#utility.yul\":17806:17812   */\n      dup3\n        /* \"#utility.yul\":17799:17813   */\n      iszero\n        /* \"#utility.yul\":17792:17814   */\n      iszero\n        /* \"#utility.yul\":17786:17789   */\n      0x80\n        /* \"#utility.yul\":17775:17784   */\n      dup4\n        /* \"#utility.yul\":17771:17790   */\n      add\n        /* \"#utility.yul\":17764:17815   */\n      mstore\n        /* \"#utility.yul\":17157:17821   */\n      swap7\n      swap6\n      pop\n      pop\n      pop\n      pop\n      pop\n      pop\n      jump\t// out\n        /* \"#utility.yul\":18034:18414   */\n    tag_160:\n        /* \"#utility.yul\":18113:18114   */\n      0x01\n        /* \"#utility.yul\":18109:18121   */\n      dup2\n      dup2\n      shr\n      swap1\n        /* \"#utility.yul\":18156:18168   */\n      dup3\n      and\n      dup1\n        /* \"#utility.yul\":18177:18238   */\n      tag_634\n      jumpi\n        /* \"#utility.yul\":18231:18235   */\n      0x7f\n        /* \"#utility.yul\":18223:18229   */\n      dup3\n        /* \"#utility.yul\":18219:18236   */\n      and\n        /* \"#utility.yul\":18209:18236   */\n      swap2\n      pop\n        /* \"#utility.yul\":18177:18238   */\n    tag_634:\n        /* \"#utility.yul\":18284:18286   */\n      0x20\n        /* \"#utility.yul\":18276:18282   */\n      dup3\n        /* \"#utility.yul\":18273:18287   */\n      lt\n        /* \"#utility.yul\":18253:18271   */\n      dup2\n        /* \"#utility.yul\":18250:18288   */\n      sub\n        /* \"#utility.yul\":18247:18408   */\n      tag_318\n      jumpi\n        /* \"#utility.yul\":18330:18340   */\n      0x4e487b71\n        /* \"#utility.yul\":18325:18328   */\n      0xe0\n        /* \"#utility.yul\":18321:18341   */\n      shl\n        /* \"#utility.yul\":18318:18319   */\n      0x00\n        /* \"#utility.yul\":18311:18342   */\n      mstore\n        /* \"#utility.yul\":18365:18369   */\n      0x22\n        /* \"#utility.yul\":18362:18363   */\n      0x04\n        /* \"#utility.yul\":18355:18370   */\n      mstore\n        /* \"#utility.yul\":18393:18397   */\n      0x24\n        /* \"#utility.yul\":18390:18391   */\n      0x00\n        /* \"#utility.yul\":18383:18398   */\n      revert\n        /* \"#utility.yul\":18773:19005   */\n    tag_229:\n        /* \"#utility.yul\":18812:18815   */\n      0x00\n        /* \"#utility.yul\":18833:18850   */\n      0x01\n      dup3\n      add\n        /* \"#utility.yul\":18830:18970   */\n      tag_638\n      jumpi\n        /* \"#utility.yul\":18892:18902   */\n      0x4e487b71\n        /* \"#utility.yul\":18887:18890   */\n      0xe0\n        /* \"#utility.yul\":18883:18903   */\n      shl\n        /* \"#utility.yul\":18880:18881   */\n      0x00\n        /* \"#utility.yul\":18873:18904   */\n      mstore\n        /* \"#utility.yul\":18927:18931   */\n      0x11\n        /* \"#utility.yul\":18924:18925   */\n      0x04\n        /* \"#utility.yul\":18917:18932   */\n      mstore\n        /* \"#utility.yul\":18955:18959   */\n      0x24\n        /* \"#utility.yul\":18952:18953   */\n      0x00\n        /* \"#utility.yul\":18945:18960   */\n      revert\n        /* \"#utility.yul\":18830:18970   */\n    tag_638:\n      pop\n        /* \"#utility.yul\":18997:18998   */\n      0x01\n        /* \"#utility.yul\":18986:18999   */\n      add\n      swap1\n        /* \"#utility.yul\":18773:19005   */\n      jump\t// out\n        /* \"#utility.yul\":19136:19654   */\n    tag_503:\n        /* \"#utility.yul\":19238:19240   */\n      0x1f\n        /* \"#utility.yul\":19233:19236   */\n      dup3\n        /* \"#utility.yul\":19230:19241   */\n      gt\n        /* \"#utility.yul\":19227:19648   */\n      iszero\n      tag_641\n      jumpi\n        /* \"#utility.yul\":19274:19279   */\n      dup1\n        /* \"#utility.yul\":19271:19272   */\n      0x00\n        /* \"#utility.yul\":19264:19280   */\n      mstore\n        /* \"#utility.yul\":19318:19322   */\n      0x20\n        /* \"#utility.yul\":19315:19316   */\n      0x00\n        /* \"#utility.yul\":19305:19323   */\n      keccak256\n        /* \"#utility.yul\":19388:19390   */\n      0x1f\n        /* \"#utility.yul\":19376:19386   */\n      dup5\n        /* \"#utility.yul\":19372:19391   */\n      add\n        /* \"#utility.yul\":19369:19370   */\n      0x05\n        /* \"#utility.yul\":19365:19392   */\n      shr\n        /* \"#utility.yul\":19359:19363   */\n      dup2\n        /* \"#utility.yul\":19355:19393   */\n      add\n        /* \"#utility.yul\":19424:19428   */\n      0x20\n        /* \"#utility.yul\":19412:19422   */\n      dup6\n        /* \"#utility.yul\":19409:19429   */\n      lt\n        /* \"#utility.yul\":19406:19453   */\n      iszero\n      tag_642\n      jumpi\n      pop\n        /* \"#utility.yul\":19447:19451   */\n      dup1\n        /* \"#utility.yul\":19406:19453   */\n    tag_642:\n        /* \"#utility.yul\":19502:19504   */\n      0x1f\n        /* \"#utility.yul\":19497:19500   */\n      dup5\n        /* \"#utility.yul\":19493:19505   */\n      add\n        /* \"#utility.yul\":19490:19491   */\n      0x05\n        /* \"#utility.yul\":19486:19506   */\n      shr\n        /* \"#utility.yul\":19480:19484   */\n      dup3\n        /* \"#utility.yul\":19476:19507   */\n      add\n        /* \"#utility.yul\":19466:19507   */\n      swap2\n      pop\n        /* \"#utility.yul\":19557:19638   */\n    tag_643:\n        /* \"#utility.yul\":19575:19577   */\n      dup2\n        /* \"#utility.yul\":19568:19573   */\n      dup2\n        /* \"#utility.yul\":19565:19578   */\n      lt\n        /* \"#utility.yul\":19557:19638   */\n      iszero\n      tag_645\n      jumpi\n        /* \"#utility.yul\":19634:19635   */\n      0x00\n        /* \"#utility.yul\":19620:19636   */\n      dup2\n      sstore\n        /* \"#utility.yul\":19601:19602   */\n      0x01\n        /* \"#utility.yul\":19590:19603   */\n      add\n        /* \"#utility.yul\":19557:19638   */\n      jump(tag_643)\n    tag_645:\n        /* \"#utility.yul\":19561:19564   */\n      pop\n      pop\n        /* \"#utility.yul\":19227:19648   */\n    tag_641:\n        /* \"#utility.yul\":19136:19654   */\n      pop\n      pop\n      pop\n      jump\t// out\n        /* \"#utility.yul\":19830:21129   */\n    tag_231:\n        /* \"#utility.yul\":19956:19959   */\n      dup2\n        /* \"#utility.yul\":19950:19960   */\n      mload\n      sub(shl(0x40, 0x01), 0x01)\n        /* \"#utility.yul\":19975:19981   */\n      dup2\n        /* \"#utility.yul\":19972:20002   */\n      gt\n        /* \"#utility.yul\":19969:20025   */\n      iszero\n      tag_649\n      jumpi\n        /* \"#utility.yul\":20005:20023   */\n      tag_649\n      tag_286\n      jump\t// in\n    tag_649:\n        /* \"#utility.yul\":20034:20131   */\n      tag_650\n        /* \"#utility.yul\":20124:20130   */\n      dup2\n        /* \"#utility.yul\":20084:20122   */\n      tag_651\n        /* \"#utility.yul\":20116:20120   */\n      dup5\n        /* \"#utility.yul\":20110:20121   */\n      sload\n        /* \"#utility.yul\":20084:20122   */\n      tag_160\n      jump\t// in\n    tag_651:\n        /* \"#utility.yul\":20078:20082   */\n      dup5\n        /* \"#utility.yul\":20034:20131   */\n      tag_503\n      jump\t// in\n    tag_650:\n        /* \"#utility.yul\":20180:20184   */\n      0x20\n        /* \"#utility.yul\":20211:20213   */\n      0x1f\n        /* \"#utility.yul\":20200:20214   */\n      dup3\n      gt\n        /* \"#utility.yul\":20228:20229   */\n      0x01\n        /* \"#utility.yul\":20223:20872   */\n      dup2\n      eq\n      tag_653\n      jumpi\n        /* \"#utility.yul\":20916:20917   */\n      0x00\n        /* \"#utility.yul\":20933:20939   */\n      dup4\n        /* \"#utility.yul\":20930:21019   */\n      iszero\n      tag_654\n      jumpi\n      pop\n        /* \"#utility.yul\":20985:21004   */\n      dup5\n      dup3\n      add\n        /* \"#utility.yul\":20979:21005   */\n      mload\n        /* \"#utility.yul\":20930:21019   */\n    tag_654:\n      not(0x00)\n        /* \"#utility.yul\":19787:19788   */\n      0x03\n        /* \"#utility.yul\":19783:19794   */\n      dup6\n      swap1\n      shl\n        /* \"#utility.yul\":19779:19803   */\n      shr\n        /* \"#utility.yul\":19775:19804   */\n      not\n        /* \"#utility.yul\":19765:19805   */\n      and\n        /* \"#utility.yul\":19811:19812   */\n      0x01\n        /* \"#utility.yul\":19807:19818   */\n      dup5\n      swap1\n      shl\n        /* \"#utility.yul\":19762:19819   */\n      or\n        /* \"#utility.yul\":21032:21113   */\n      dup5\n      sstore\n        /* \"#utility.yul\":20193:21123   */\n      jump(tag_645)\n        /* \"#utility.yul\":20223:20872   */\n    tag_653:\n        /* \"#utility.yul\":19083:19084   */\n      0x00\n        /* \"#utility.yul\":19076:19090   */\n      dup5\n      dup2\n      mstore\n        /* \"#utility.yul\":19120:19124   */\n      0x20\n        /* \"#utility.yul\":19107:19125   */\n      dup2\n      keccak256\n      not(0x1f)\n        /* \"#utility.yul\":20259:20279   */\n      dup6\n      and\n      swap2\n        /* \"#utility.yul\":20377:20599   */\n    tag_657:\n        /* \"#utility.yul\":20391:20398   */\n      dup3\n        /* \"#utility.yul\":20388:20389   */\n      dup2\n        /* \"#utility.yul\":20385:20399   */\n      lt\n        /* \"#utility.yul\":20377:20599   */\n      iszero\n      tag_659\n      jumpi\n        /* \"#utility.yul\":20473:20492   */\n      dup8\n      dup6\n      add\n        /* \"#utility.yul\":20467:20493   */\n      mload\n        /* \"#utility.yul\":20452:20494   */\n      dup3\n      sstore\n        /* \"#utility.yul\":20580:20584   */\n      0x20\n        /* \"#utility.yul\":20565:20585   */\n      swap5\n      dup6\n      add\n      swap5\n        /* \"#utility.yul\":20533:20534   */\n      0x01\n        /* \"#utility.yul\":20521:20535   */\n      swap1\n      swap3\n      add\n      swap2\n        /* \"#utility.yul\":20407:20419   */\n      add\n        /* \"#utility.yul\":20377:20599   */\n      jump(tag_657)\n    tag_659:\n        /* \"#utility.yul\":20381:20384   */\n      pop\n        /* \"#utility.yul\":20627:20633   */\n      dup5\n        /* \"#utility.yul\":20618:20625   */\n      dup3\n        /* \"#utility.yul\":20615:20634   */\n      lt\n        /* \"#utility.yul\":20612:20813   */\n      iszero\n      tag_660\n      jumpi\n        /* \"#utility.yul\":20688:20707   */\n      dup7\n      dup5\n      add\n        /* \"#utility.yul\":20682:20708   */\n      mload\n      not(0x00)\n        /* \"#utility.yul\":20771:20772   */\n      0x03\n        /* \"#utility.yul\":20767:20781   */\n      dup8\n      swap1\n      shl\n        /* \"#utility.yul\":20783:20786   */\n      0xf8\n        /* \"#utility.yul\":20763:20787   */\n      and\n        /* \"#utility.yul\":20759:20796   */\n      shr\n        /* \"#utility.yul\":20755:20797   */\n      not\n        /* \"#utility.yul\":20740:20798   */\n      and\n        /* \"#utility.yul\":20725:20799   */\n      dup2\n      sstore\n        /* \"#utility.yul\":20612:20813   */\n    tag_660:\n      pop\n      pop\n      pop\n      pop\n        /* \"#utility.yul\":20859:20860   */\n      0x01\n        /* \"#utility.yul\":20843:20857   */\n      swap1\n      dup2\n      shl\n        /* \"#utility.yul\":20839:20861   */\n      add\n        /* \"#utility.yul\":20826:20862   */\n      swap1\n      sstore\n      pop\n        /* \"#utility.yul\":19830:21129   */\n      jump\t// out\n        /* \"#utility.yul\":21134:21451   */\n    tag_240:\n        /* \"#utility.yul\":21311:21313   */\n      0x40\n        /* \"#utility.yul\":21300:21309   */\n      dup2\n        /* \"#utility.yul\":21293:21314   */\n      mstore\n        /* \"#utility.yul\":21274:21278   */\n      0x00\n        /* \"#utility.yul\":21331:21376   */\n      tag_662\n        /* \"#utility.yul\":21372:21374   */\n      0x40\n        /* \"#utility.yul\":21361:21370   */\n      dup4\n        /* \"#utility.yul\":21357:21375   */\n      add\n        /* \"#utility.yul\":21349:21355   */\n      dup6\n        /* \"#utility.yul\":21331:21376   */\n      tag_492\n      jump\t// in\n    tag_662:\n        /* \"#utility.yul\":21323:21376   */\n      swap1\n      pop\n        /* \"#utility.yul\":21441:21442   */\n      0x01\n        /* \"#utility.yul\":21437:21438   */\n      dup1\n        /* \"#utility.yul\":21432:21435   */\n      0xa0\n        /* \"#utility.yul\":21428:21439   */\n      shl\n        /* \"#utility.yul\":21424:21443   */\n      sub\n        /* \"#utility.yul\":21416:21422   */\n      dup4\n        /* \"#utility.yul\":21412:21444   */\n      and\n        /* \"#utility.yul\":21407:21409   */\n      0x20\n        /* \"#utility.yul\":21396:21405   */\n      dup4\n        /* \"#utility.yul\":21392:21410   */\n      add\n        /* \"#utility.yul\":21385:21445   */\n      mstore\n        /* \"#utility.yul\":21134:21451   */\n      swap4\n      swap3\n      pop\n      pop\n      pop\n      jump\t// out\n        /* \"#utility.yul\":21808:22028   */\n    tag_276:\n        /* \"#utility.yul\":21957:21959   */\n      0x20\n        /* \"#utility.yul\":21946:21955   */\n      dup2\n        /* \"#utility.yul\":21939:21960   */\n      mstore\n        /* \"#utility.yul\":21920:21924   */\n      0x00\n        /* \"#utility.yul\":21977:22022   */\n      tag_536\n        /* \"#utility.yul\":22018:22020   */\n      0x20\n        /* \"#utility.yul\":22007:22016   */\n      dup4\n        /* \"#utility.yul\":22003:22021   */\n      add\n        /* \"#utility.yul\":21995:22001   */\n      dup5\n        /* \"#utility.yul\":21977:22022   */\n      tag_492\n      jump\t// in\n        /* \"#utility.yul\":22033:22160   */\n    tag_295:\n        /* \"#utility.yul\":22094:22104   */\n      0x4e487b71\n        /* \"#utility.yul\":22089:22092   */\n      0xe0\n        /* \"#utility.yul\":22085:22105   */\n      shl\n        /* \"#utility.yul\":22082:22083   */\n      0x00\n        /* \"#utility.yul\":22075:22106   */\n      mstore\n        /* \"#utility.yul\":22125:22129   */\n      0x32\n        /* \"#utility.yul\":22122:22123   */\n      0x04\n        /* \"#utility.yul\":22115:22130   */\n      mstore\n        /* \"#utility.yul\":22149:22153   */\n      0x24\n        /* \"#utility.yul\":22146:22147   */\n      0x00\n        /* \"#utility.yul\":22139:22154   */\n      revert\n        /* \"#utility.yul\":22165:22381   */\n    tag_351:\n        /* \"#utility.yul\":22314:22316   */\n      0x20\n        /* \"#utility.yul\":22299:22317   */\n      dup2\n      add\n        /* \"#utility.yul\":22326:22375   */\n      tag_668\n        /* \"#utility.yul\":22303:22312   */\n      dup3\n        /* \"#utility.yul\":22357:22363   */\n      dup5\n        /* \"#utility.yul\":22326:22375   */\n      tag_493\n      jump\t// in\n    tag_668:\n        /* \"#utility.yul\":22165:22381   */\n      swap3\n      swap2\n      pop\n      pop\n      jump\t// out\n        /* \"#utility.yul\":23792:24112   */\n    tag_427:\n        /* \"#utility.yul\":23979:23981   */\n      0x40\n        /* \"#utility.yul\":23968:23977   */\n      dup2\n        /* \"#utility.yul\":23961:23982   */\n      mstore\n        /* \"#utility.yul\":23942:23946   */\n      0x00\n        /* \"#utility.yul\":23999:24044   */\n      tag_674\n        /* \"#utility.yul\":24040:24042   */\n      0x40\n        /* \"#utility.yul\":24029:24038   */\n      dup4\n        /* \"#utility.yul\":24025:24043   */\n      add\n        /* \"#utility.yul\":24017:24023   */\n      dup6\n        /* \"#utility.yul\":23999:24044   */\n      tag_492\n      jump\t// in\n    tag_674:\n        /* \"#utility.yul\":23991:24044   */\n      swap1\n      pop\n        /* \"#utility.yul\":24053:24106   */\n      tag_536\n        /* \"#utility.yul\":24102:24104   */\n      0x20\n        /* \"#utility.yul\":24091:24100   */\n      dup4\n        /* \"#utility.yul\":24087:24105   */\n      add\n        /* \"#utility.yul\":24079:24085   */\n      dup5\n        /* \"#utility.yul\":24053:24106   */\n      tag_499\n      jump\t// in\n        /* \"#utility.yul\":24117:24329   */\n    tag_441:\n        /* \"#utility.yul\":24264:24266   */\n      0x20\n        /* \"#utility.yul\":24249:24267   */\n      dup2\n      add\n        /* \"#utility.yul\":24276:24323   */\n      tag_668\n        /* \"#utility.yul\":24253:24262   */\n      dup3\n        /* \"#utility.yul\":24305:24311   */\n      dup5\n        /* \"#utility.yul\":24276:24323   */\n      tag_500\n      jump\t// in\n\n    auxdata: 0xa264697066735822122078071c8137f3bcc29b496fb3fe569572727bfde1e630f7b6a942ca49652814d064736f6c634300081e0033\n}\n",
				"bytecode": {
					"linkReferences": {},
					"object": "60806040526001805560016002556001600355348015601c575f5ffd5b505f80546001600160a01b0319163317905561315a8061003b5f395ff3fe608060405234801561000f575f5ffd5b50600436106101a1575f3560e01c80637faa7bc7116100f3578063b9a3a68c11610093578063eaa66a3c1161006e578063eaa66a3c1461040f578063f851a44014610433578063fc4366951461045d578063fd84cb9714610470575f5ffd5b8063b9a3a68c146103e0578063c4edcf8b146103e9578063e570c367146103fc575f5ffd5b8063a113c557116100ce578063a113c5571461036d578063a6c6a8f314610380578063af56a428146103a6578063b8a24252146103b9575f5ffd5b80637faa7bc714610305578063925d3478146103185780639578615e1461034d575f5ffd5b80634138d1671161015e5780635f19f4f5116101395780635f19f4f51461029257806372f2f93a146102b2578063733e28aa146102d25780637defa920146102f2575f5ffd5b80634138d1671461024a578063475b6f981461026a5780634ffe6ae21461027d575f5ffd5b8063092b3740146101a55780630fd19668146101ce57806320fc4881146101e5578063229ec452146102055780632ac08a931461020e57806333401ee114610237575b5f5ffd5b6101b86101b33660046125f3565b610483565b6040516101c5919061269a565b60405180910390f35b6101d760035481565b6040519081526020016101c5565b6101f86101f33660046125f3565b610791565b6040516101c59190612847565b6101d760025481565b61022161021c3660046125f3565b610a0c565b6040516101c59a99989796959493929190612860565b6101d761024536600461298a565b610c00565b61025d610258366004612a41565b610dce565b6040516101c59190612a6a565b6101d7610278366004612ae0565b610f9a565b61029061028b3660046125f3565b611137565b005b6102a56102a03660046125f3565b611184565b6040516101c59190612b94565b6102c56102c0366004612a41565b6114a9565b6040516101c59190612bf7565b6102e56102e03660046125f3565b611512565b6040516101c59190612cb8565b610290610300366004612d0f565b611753565b6102906103133660046125f3565b6117d4565b61033d6103263660046125f3565b5f9081526006602052604090206005015460ff1690565b60405190151581526020016101c5565b61036061035b3660046125f3565b611910565b6040516101c59190612d40565b6101d761037b366004612d52565b611a9e565b61039361038e3660046125f3565b611ac9565b6040516101c59796959493929190612d7a565b61033d6103b43660046125f3565b611b9d565b6103cc6103c73660046125f3565b611c33565b6040516101c5989796959493929190612dd1565b6101d760015481565b6102906103f7366004612e41565b611e11565b6101d761040a366004612eb8565b611f77565b61042261041d366004612a41565b612113565b6040516101c5959493929190612edf565b5f54610445906001600160a01b031681565b6040516001600160a01b0390911681526020016101c5565b61029061046b366004612a41565b612263565b61029061047e3660046125f3565b61228e565b61048b6124e4565b5f828152600460209081526040918290208251610180810184528154815260018201546001600160a01b03908116938201939093526002820154909216928201929092526003820180549192916060840191906104e790612f36565b80601f016020809104026020016040519081016040528092919081815260200182805461051390612f36565b801561055e5780601f106105355761010080835404028352916020019161055e565b820191905f5260205f20905b81548152906001019060200180831161054157829003601f168201915b5050505050815260200160048201805461057790612f36565b80601f01602080910402602001604051908101604052809291908181526020018280546105a390612f36565b80156105ee5780601f106105c5576101008083540402835291602001916105ee565b820191905f5260205f20905b8154815290600101906020018083116105d157829003601f168201915b5050505050815260200160058201805461060790612f36565b80601f016020809104026020016040519081016040528092919081815260200182805461063390612f36565b801561067e5780601f106106555761010080835404028352916020019161067e565b820191905f5260205f20905b81548152906001019060200180831161066157829003601f168201915b5050509183525050600682810154602083015260078301546040830152600883015460609092019160ff16908111156106b9576106b9612638565b60068111156106ca576106ca612638565b81526020016009820180548060200260200160405190810160405280929190818152602001828054801561071b57602002820191905f5260205f20905b815481526020019060010190808311610707575b50505050508152602001600a820180548060200260200160405190810160405280929190818152602001828054801561077157602002820191905f5260205f20905b81548152602001906001019080831161075d575b5050509183525050600b919091015460ff16151560209091015292915050565b610799612560565b5f821180156107a9575060025482105b6107fa5760405162461bcd60e51b815260206004820152601960248201527f436865636b706f696e7420646f6573206e6f742065786973740000000000000060448201526064015b60405180910390fd5b5f828152600560209081526040918290208251610100810184528154815260018201549281019290925260028101546001600160a01b03169282019290925260038201805491929160608401919061085190612f36565b80601f016020809104026020016040519081016040528092919081815260200182805461087d90612f36565b80156108c85780601f1061089f576101008083540402835291602001916108c8565b820191905f5260205f20905b8154815290600101906020018083116108ab57829003601f168201915b505050505081526020016004820180546108e190612f36565b80601f016020809104026020016040519081016040528092919081815260200182805461090d90612f36565b80156109585780601f1061092f57610100808354040283529160200191610958565b820191905f5260205f20905b81548152906001019060200180831161093b57829003601f168201915b505050505081526020016005820154815260200160068201805461097b90612f36565b80601f01602080910402602001604051908101604052809291908181526020018280546109a790612f36565b80156109f25780601f106109c9576101008083540402835291602001916109f2565b820191905f5260205f20905b8154815290600101906020018083116109d557829003601f168201915b505050505081526020016007820154815250509050919050565b60046020525f9081526040902080546001820154600283015460038401805493946001600160a01b03938416949390921692610a4790612f36565b80601f0160208091040260200160405190810160405280929190818152602001828054610a7390612f36565b8015610abe5780601f10610a9557610100808354040283529160200191610abe565b820191905f5260205f20905b815481529060010190602001808311610aa157829003601f168201915b505050505090806004018054610ad390612f36565b80601f0160208091040260200160405190810160405280929190818152602001828054610aff90612f36565b8015610b4a5780601f10610b2157610100808354040283529160200191610b4a565b820191905f5260205f20905b815481529060010190602001808311610b2d57829003601f168201915b505050505090806005018054610b5f90612f36565b80601f0160208091040260200160405190810160405280929190818152602001828054610b8b90612f36565b8015610bd65780601f10610bad57610100808354040283529160200191610bd6565b820191905f5260205f20905b815481529060010190602001808311610bb957829003601f168201915b505050600684015460078501546008860154600b909601549495919490935060ff9182169250168a565b5f610c096123dc565b85610c138161243f565b600280545f9182610c2383612f68565b90915550604080516101008101825282815260208082018c815233838501908152606084018d8152608085018d90524260a086015260c085018c905260e085018b90525f878152600590945294909220835181559051600182015590516002820180546001600160a01b0319166001600160a01b039092169190911790559151929350916003820190610cb69082612fd8565b5060808201516004820190610ccb9082612fd8565b5060a0820151600582015560c08201516006820190610cea9082612fd8565b5060e091909101516007909101555f888152600460209081526040822060098101805460018101825590845291832090910183905590899052600b015460ff168015610d4057506050841380610d405750601484125b15610d8857610d868860036040518060400160405280601881526020017f54656d7065726174757265206f7574206f662072616e67650000000000000000815250611f77565b505b87817f866de744a1d30941b1bccb4355cfb9dacfa65296f3ab651a0d4dce76bf988a718933604051610dbb929190613092565b60405180910390a3979650505050505050565b610dfe6040805160a0810182525f8082526060602083015290918201908152606060208201525f60409091015290565b6001600160a01b038083165f90815260076020908152604091829020825160a081019093528054909316825260018301805492939291840191610e4090612f36565b80601f0160208091040260200160405190810160405280929190818152602001828054610e6c90612f36565b8015610eb75780601f10610e8e57610100808354040283529160200191610eb7565b820191905f5260205f20905b815481529060010190602001808311610e9a57829003601f168201915b5050509183525050600282015460209091019060ff166005811115610ede57610ede612638565b6005811115610eef57610eef612638565b8152602001600382018054610f0390612f36565b80601f0160208091040260200160405190810160405280929190818152602001828054610f2f90612f36565b8015610f7a5780601f10610f5157610100808354040283529160200191610f7a565b820191905f5260205f20905b815481529060010190602001808311610f5d57829003601f168201915b50505091835250506004919091015460ff16151560209091015292915050565b5f610fa36123dc565b6001335f9081526007602052604090206002015460ff166005811115610fcb57610fcb612638565b146110185760405162461bcd60e51b815260206004820152601760248201527f4f6e6c792053656e646572732063616e2063726561746500000000000000000060448201526064016107f1565b600180545f918261102883612f68565b909155505f818152600460205260409020818155600181018054336001600160a01b0319918216179091556002820180549091166001600160a01b038b161790559091506003810161107a8882612fd8565b50600481016110898782612fd8565b50600581016110988682612fd8565b504260068201556008810180545f919060ff19166001830217905550600b8101805460ff1916851515179055335f81815260086020908152604080832080546001810182559084529190922001849055516001600160a01b038a16919084907f8fb6b855d6cbdf201f2fcaadbf8c38d36168ff7d2ca865cb2599abcd5a060e8f90611124908c906130bb565b60405180910390a4509695505050505050565b61113f61249e565b5f81815260066020526040808220600501805460ff191660011790555182917ff83ae0ade2d9004bc0030405bdd3336f9d9b97530bcf44cce99ce02c95641b7791a250565b5f8181526004602090815260408083206009018054825181850281018501909352808352606094938301828280156111d957602002820191905f5260205f20905b8154815260200190600101908083116111c5575b505050505090505f81516001600160401b038111156111fa576111fa6128ed565b60405190808252806020026020018201604052801561123357816020015b611220612560565b8152602001906001900390816112185790505b5090505f5b82518110156114a15760055f848381518110611256576112566130cd565b602002602001015181526020019081526020015f20604051806101000160405290815f820154815260200160018201548152602001600282015f9054906101000a90046001600160a01b03166001600160a01b03166001600160a01b031681526020016003820180546112c890612f36565b80601f01602080910402602001604051908101604052809291908181526020018280546112f490612f36565b801561133f5780601f106113165761010080835404028352916020019161133f565b820191905f5260205f20905b81548152906001019060200180831161132257829003601f168201915b5050505050815260200160048201805461135890612f36565b80601f016020809104026020016040519081016040528092919081815260200182805461138490612f36565b80156113cf5780601f106113a6576101008083540402835291602001916113cf565b820191905f5260205f20905b8154815290600101906020018083116113b257829003601f168201915b50505050508152602001600582015481526020016006820180546113f290612f36565b80601f016020809104026020016040519081016040528092919081815260200182805461141e90612f36565b80156114695780601f1061144057610100808354040283529160200191611469565b820191905f5260205f20905b81548152906001019060200180831161144c57829003601f168201915b5050505050815260200160078201548152505082828151811061148e5761148e6130cd565b6020908102919091010152600101611238565b509392505050565b6001600160a01b0381165f9081526008602090815260409182902080548351818402810184019094528084526060939283018282801561150657602002820191905f5260205f20905b8154815260200190600101908083116114f2575b50505050509050919050565b60608161151e8161243f565b5f838152600460209081526040808320600a018054825181850281018501909352808352919290919083018282801561157457602002820191905f5260205f20905b815481526020019060010190808311611560575b505050505090505f81516001600160401b03811115611595576115956128ed565b6040519080825280602002602001820160405280156115ce57816020015b6115bb6125a9565b8152602001906001900390816115b35790505b5090505f5b82518110156117485760065f8483815181106115f1576115f16130cd565b602002602001015181526020019081526020015f206040518060e00160405290815f820154815260200160018201548152602001600282015f9054906101000a900460ff16600481111561164757611647612638565b600481111561165857611658612638565b8152600282015461010090046001600160a01b0316602082015260038201805460409092019161168790612f36565b80601f01602080910402602001604051908101604052809291908181526020018280546116b390612f36565b80156116fe5780601f106116d5576101008083540402835291602001916116fe565b820191905f5260205f20905b8154815290600101906020018083116116e157829003601f168201915b50505091835250506004820154602082015260059091015460ff1615156040909101528251839083908110611735576117356130cd565b60209081029190910101526001016115d3565b509250505b50919050565b61175b6123dc565b816117658161243f565b5f838152600460205260409020600801805483919060ff1916600183600681111561179257611792612638565b0217905550827f7c1c93f72f29b8a1fc6fc85eed990d133b1ffac80c962b521abb12f38f2ff9af836040516117c791906130e1565b60405180910390a2505050565b806117de8161243f565b5f828152600460205260409020600101546001600160a01b0316331461183f5760405162461bcd60e51b815260206004820152601660248201527513db9b1e481cd95b99195c8818d85b8818d85b98d95b60521b60448201526064016107f1565b5f8281526004602052604081206008015460ff16600681111561186457611864612638565b146118b15760405162461bcd60e51b815260206004820152601b60248201527f43616e6e6f742063616e63656c206166746572207472616e736974000000000060448201526064016107f1565b5f82815260046020526040902060080180546006919060ff19166001830217905550817f7c1c93f72f29b8a1fc6fc85eed990d133b1ffac80c962b521abb12f38f2ff9af600660405161190491906130e1565b60405180910390a25050565b6119186125a9565b5f82118015611928575060035482105b6119745760405162461bcd60e51b815260206004820152601760248201527f496e636964656e7420646f6573206e6f7420657869737400000000000000000060448201526064016107f1565b5f82815260066020908152604091829020825160e081018452815481526001820154928101929092526002810154919290919083019060ff1660048111156119be576119be612638565b60048111156119cf576119cf612638565b8152600282015461010090046001600160a01b031660208201526003820180546040909201916119fe90612f36565b80601f0160208091040260200160405190810160405280929190818152602001828054611a2a90612f36565b8015611a755780601f10611a4c57610100808354040283529160200191611a75565b820191905f5260205f20905b815481529060010190602001808311611a5857829003601f168201915b50505091835250506004820154602082015260059091015460ff16151560409091015292915050565b6008602052815f5260405f208181548110611ab7575f80fd5b905f5260205f20015f91509150505481565b60066020525f908152604090208054600182015460028301546003840180549394929360ff8316936101009093046001600160a01b0316929190611b0c90612f36565b80601f0160208091040260200160405190810160405280929190818152602001828054611b3890612f36565b8015611b835780601f10611b5a57610100808354040283529160200191611b83565b820191905f5260205f20905b815481529060010190602001808311611b6657829003601f168201915b50505050600483015460059093015491929160ff16905087565b5f818152600460205260408120600b81015460ff16611bbf5750600192915050565b5f5b6009820154811015611c29575f60055f846009018481548110611be657611be66130cd565b905f5260205f20015481526020019081526020015f206007015490506050811380611c115750601481125b15611c2057505f949350505050565b50600101611bc1565b5060019392505050565b60056020525f90815260409020805460018201546002830154600384018054939492936001600160a01b039092169291611c6c90612f36565b80601f0160208091040260200160405190810160405280929190818152602001828054611c9890612f36565b8015611ce35780601f10611cba57610100808354040283529160200191611ce3565b820191905f5260205f20905b815481529060010190602001808311611cc657829003601f168201915b505050505090806004018054611cf890612f36565b80601f0160208091040260200160405190810160405280929190818152602001828054611d2490612f36565b8015611d6f5780601f10611d4657610100808354040283529160200191611d6f565b820191905f5260205f20905b815481529060010190602001808311611d5257829003601f168201915b505050505090806005015490806006018054611d8a90612f36565b80601f0160208091040260200160405190810160405280929190818152602001828054611db690612f36565b8015611e015780601f10611dd857610100808354040283529160200191611e01565b820191905f5260205f20905b815481529060010190602001808311611de457829003601f168201915b5050505050908060070154905088565b335f9081526007602052604090206004015460ff1615611e685760405162461bcd60e51b8152602060048201526012602482015271105b1c9958591e481c9959da5cdd195c995960721b60448201526064016107f1565b6040518060a00160405280336001600160a01b03168152602001848152602001836005811115611e9a57611e9a612638565b8152602080820184905260016040928301819052335f9081526007835292909220835181546001600160a01b0319166001600160a01b03909116178155908301519091820190611eea9082612fd8565b50604082015160028201805460ff19166001836005811115611f0e57611f0e612638565b021790555060608201516003820190611f279082612fd8565b50608091909101516004909101805460ff191691151591909117905560405133907fc9a31de765abe70445345802bee3c96554ca063ab257e3888d498accb859fabc906117c790869086906130f5565b5f611f806123dc565b83611f8a8161243f565b600380545f9182611f9a83612f68565b9190505590506040518060e00160405280828152602001878152602001866004811115611fc957611fc9612638565b8152602001336001600160a01b031681526020018581526020014281526020015f151581525060065f8381526020019081526020015f205f820151815f0155602082015181600101556040820151816002015f6101000a81548160ff0219169083600481111561203b5761203b612638565b021790555060608201516002820180546001600160a01b0390921661010002610100600160a81b0319909216919091179055608082015160038201906120819082612fd8565b5060a082015160048281019190915560c0909201516005909101805460ff19169115159190911790555f87815260209182526040808220600a0180546001810182559083529290912090910182905551869082907fc2c9d0fa5caecea68b9ec6aca764014b01764f779d8a510f0d0d6796b76b7c8390612102908990613116565b60405180910390a395945050505050565b60076020525f9081526040902080546001820180546001600160a01b03909216929161213e90612f36565b80601f016020809104026020016040519081016040528092919081815260200182805461216a90612f36565b80156121b55780601f1061218c576101008083540402835291602001916121b5565b820191905f5260205f20905b81548152906001019060200180831161219857829003601f168201915b5050506002840154600385018054949560ff9092169491935091506121d990612f36565b80601f016020809104026020016040519081016040528092919081815260200182805461220590612f36565b80156122505780601f1061222757610100808354040283529160200191612250565b820191905f5260205f20905b81548152906001019060200180831161223357829003601f168201915b5050506004909301549192505060ff1685565b61226b61249e565b6001600160a01b03165f908152600760205260409020600401805460ff19169055565b806122988161243f565b5f82815260046020526040902060028101546001600160a01b031633146123015760405162461bcd60e51b815260206004820152601a60248201527f4f6e6c7920726563697069656e742063616e20636f6e6669726d00000000000060448201526064016107f1565b6004600882015460ff16600681111561231c5761231c612638565b0361235d5760405162461bcd60e51b8152602060048201526011602482015270105b1c9958591e4819195b1a5d995c9959607a1b60448201526064016107f1565b60088101805460ff191660041790554260078201819055604051908152339084907f2f4a952729db32131cb3d658cc231127e0ce7e50f83508ece9a49c985f2384d09060200160405180910390a3827f7c1c93f72f29b8a1fc6fc85eed990d133b1ffac80c962b521abb12f38f2ff9af60046040516117c791906130e1565b335f9081526007602052604090206004015460ff1661243d5760405162461bcd60e51b815260206004820181905260248201527f4163746f72206e6f742072656769737465726564206f7220696e61637469766560448201526064016107f1565b565b5f8111801561244f575060015481105b61249b5760405162461bcd60e51b815260206004820152601760248201527f536869706d656e7420646f6573206e6f7420657869737400000000000000000060448201526064016107f1565b50565b5f546001600160a01b0316331461243d5760405162461bcd60e51b815260206004820152600a60248201526927b7363c9030b236b4b760b11b60448201526064016107f1565b6040518061018001604052805f81526020015f6001600160a01b031681526020015f6001600160a01b031681526020016060815260200160608152602001606081526020015f81526020015f81526020015f600681111561254757612547612638565b8152606060208201819052604082018190525f91015290565b6040518061010001604052805f81526020015f81526020015f6001600160a01b0316815260200160608152602001606081526020015f8152602001606081526020015f81525090565b6040518060e001604052805f81526020015f81526020015f60048111156125d2576125d2612638565b81525f60208201819052606060408301819052820181905260809091015290565b5f60208284031215612603575f5ffd5b5035919050565b5f81518084528060208401602086015e5f602082860101526020601f19601f83011685010191505092915050565b634e487b7160e01b5f52602160045260245ffd5b6007811061265c5761265c612638565b9052565b5f8151808452602084019350602083015f5b82811015612690578151865260209586019590910190600101612672565b5093949350505050565b60208152815160208201525f60208301516126c060408401826001600160a01b03169052565b5060408301516001600160a01b038116606084015250606083015161018060808401526126f16101a084018261260a565b90506080840151601f198483030160a085015261270e828261260a565b91505060a0840151601f198483030160c085015261272c828261260a565b91505060c084015160e084015260e084015161010084015261010084015161275861012085018261264c565b50610120840151838203601f19016101408501526127768282612660565b915050610140840151601f19848303016101608501526127968282612660565b9150506101608401516114a161018085018215159052565b80518252602081015160208301525f60408201516127d760408501826001600160a01b03169052565b50606082015161010060608501526127f361010085018261260a565b90506080830151848203608086015261280c828261260a565b91505060a083015160a085015260c083015184820360c0860152612830828261260a565b91505060e083015160e08501528091505092915050565b602081525f61285960208301846127ae565b9392505050565b8a81526001600160a01b038a8116602083015289166040820152610140606082018190525f906128929083018a61260a565b82810360808401526128a4818a61260a565b905082810360a08401526128b8818961260a565b9150508560c08301528460e08301526128d561010083018561264c565b8215156101208301529b9a5050505050505050505050565b634e487b7160e01b5f52604160045260245ffd5b5f82601f830112612910575f5ffd5b81356001600160401b03811115612929576129296128ed565b604051601f8201601f19908116603f011681016001600160401b0381118282101715612957576129576128ed565b60405281815283820160200185101561296e575f5ffd5b816020850160208301375f918101602001919091529392505050565b5f5f5f5f5f60a0868803121561299e575f5ffd5b8535945060208601356001600160401b038111156129ba575f5ffd5b6129c688828901612901565b94505060408601356001600160401b038111156129e1575f5ffd5b6129ed88828901612901565b93505060608601356001600160401b03811115612a08575f5ffd5b612a1488828901612901565b95989497509295608001359392505050565b80356001600160a01b0381168114612a3c575f5ffd5b919050565b5f60208284031215612a51575f5ffd5b61285982612a26565b6006811061265c5761265c612638565b602080825282516001600160a01b03168282015282015160a060408301525f90612a9760c084018261260a565b90506040840151612aab6060850182612a5a565b506060840151838203601f19016080850152612ac7828261260a565b9150506080840151151560a08401528091505092915050565b5f5f5f5f5f60a08688031215612af4575f5ffd5b612afd86612a26565b945060208601356001600160401b03811115612b17575f5ffd5b612b2388828901612901565b94505060408601356001600160401b03811115612b3e575f5ffd5b612b4a88828901612901565b93505060608601356001600160401b03811115612b65575f5ffd5b612b7188828901612901565b92505060808601358015158114612b86575f5ffd5b809150509295509295909350565b5f602082016020835280845180835260408501915060408160051b8601019250602086015f5b82811015612beb57603f19878603018452612bd68583516127ae565b94506020938401939190910190600101612bba565b50929695505050505050565b602080825282518282018190525f918401906040840190835b81811015612c2e578351835260209384019390920191600101612c10565b509095945050505050565b6005811061265c5761265c612638565b80518252602081015160208301525f6040820151612c6a6040850182612c39565b5060018060a01b036060830151166060840152608082015160e06080850152612c9660e085018261260a565b905060a083015160a085015260c0830151151560c08501528091505092915050565b5f602082016020835280845180835260408501915060408160051b8601019250602086015f5b82811015612beb57603f19878603018452612cfa858351612c49565b94506020938401939190910190600101612cde565b5f5f60408385031215612d20575f5ffd5b82359150602083013560078110612d35575f5ffd5b809150509250929050565b602081525f6128596020830184612c49565b5f5f60408385031215612d63575f5ffd5b612d6c83612a26565b946020939093013593505050565b878152866020820152612d906040820187612c39565b6001600160a01b038516606082015260e0608082018190525f90612db69083018661260a565b60a08301949094525090151560c09091015295945050505050565b88815287602082015260018060a01b038716604082015261010060608201525f612dff61010083018861260a565b8281036080840152612e11818861260a565b90508560a084015282810360c0840152612e2b818661260a565b9150508260e08301529998505050505050505050565b5f5f5f60608486031215612e53575f5ffd5b83356001600160401b03811115612e68575f5ffd5b612e7486828701612901565b935050602084013560068110612e88575f5ffd5b915060408401356001600160401b03811115612ea2575f5ffd5b612eae86828701612901565b9150509250925092565b5f5f5f60608486031215612eca575f5ffd5b83359250602084013560058110612e88575f5ffd5b6001600160a01b038616815260a0602082018190525f90612f029083018761260a565b612f0f6040840187612a5a565b8281036060840152612f21818661260a565b91505082151560808301529695505050505050565b600181811c90821680612f4a57607f821691505b60208210810361174d57634e487b7160e01b5f52602260045260245ffd5b5f60018201612f8557634e487b7160e01b5f52601160045260245ffd5b5060010190565b601f821115612fd357805f5260205f20601f840160051c81016020851015612fb15750805b601f840160051c820191505b81811015612fd0575f8155600101612fbd565b50505b505050565b81516001600160401b03811115612ff157612ff16128ed565b61300581612fff8454612f36565b84612f8c565b6020601f821160018114613037575f83156130205750848201515b5f19600385901b1c1916600184901b178455612fd0565b5f84815260208120601f198516915b828110156130665787850151825560209485019460019092019101613046565b508482101561308357868401515f19600387901b60f8161c191681555b50505050600190811b01905550565b604081525f6130a4604083018561260a565b905060018060a01b03831660208301529392505050565b602081525f612859602083018461260a565b634e487b7160e01b5f52603260045260245ffd5b602081016130ef828461264c565b92915050565b604081525f613107604083018561260a565b90506128596020830184612a5a565b602081016130ef8284612c3956fea264697066735822122078071c8137f3bcc29b496fb3fe569572727bfde1e630f7b6a942ca49652814d064736f6c634300081e0033",
					"opcodes": "PUSH1 0x80 PUSH1 0x40 MSTORE PUSH1 0x1 DUP1 SSTORE PUSH1 0x1 PUSH1 0x2 SSTORE PUSH1 0x1 PUSH1 0x3 SSTORE CALLVALUE DUP1 ISZERO PUSH1 0x1C JUMPI PUSH0 PUSH0 REVERT JUMPDEST POP PUSH0 DUP1 SLOAD PUSH1 0x1 PUSH1 0x1 PUSH1 0xA0 SHL SUB NOT AND CALLER OR SWAP1 SSTORE PUSH2 0x315A DUP1 PUSH2 0x3B PUSH0 CODECOPY PUSH0 RETURN INVALID PUSH1 0x80 PUSH1 0x40 MSTORE CALLVALUE DUP1 ISZERO PUSH2 0xF JUMPI PUSH0 PUSH0 REVERT JUMPDEST POP PUSH1 0x4 CALLDATASIZE LT PUSH2 0x1A1 JUMPI PUSH0 CALLDATALOAD PUSH1 0xE0 SHR DUP1 PUSH4 0x7FAA7BC7 GT PUSH2 0xF3 JUMPI DUP1 PUSH4 0xB9A3A68C GT PUSH2 0x93 JUMPI DUP1 PUSH4 0xEAA66A3C GT PUSH2 0x6E JUMPI DUP1 PUSH4 0xEAA66A3C EQ PUSH2 0x40F JUMPI DUP1 PUSH4 0xF851A440 EQ PUSH2 0x433 JUMPI DUP1 PUSH4 0xFC436695 EQ PUSH2 0x45D JUMPI DUP1 PUSH4 0xFD84CB97 EQ PUSH2 0x470 JUMPI PUSH0 PUSH0 REVERT JUMPDEST DUP1 PUSH4 0xB9A3A68C EQ PUSH2 0x3E0 JUMPI DUP1 PUSH4 0xC4EDCF8B EQ PUSH2 0x3E9 JUMPI DUP1 PUSH4 0xE570C367 EQ PUSH2 0x3FC JUMPI PUSH0 PUSH0 REVERT JUMPDEST DUP1 PUSH4 0xA113C557 GT PUSH2 0xCE JUMPI DUP1 PUSH4 0xA113C557 EQ PUSH2 0x36D JUMPI DUP1 PUSH4 0xA6C6A8F3 EQ PUSH2 0x380 JUMPI DUP1 PUSH4 0xAF56A428 EQ PUSH2 0x3A6 JUMPI DUP1 PUSH4 0xB8A24252 EQ PUSH2 0x3B9 JUMPI PUSH0 PUSH0 REVERT JUMPDEST DUP1 PUSH4 0x7FAA7BC7 EQ PUSH2 0x305 JUMPI DUP1 PUSH4 0x925D3478 EQ PUSH2 0x318 JUMPI DUP1 PUSH4 0x9578615E EQ PUSH2 0x34D JUMPI PUSH0 PUSH0 REVERT JUMPDEST DUP1 PUSH4 0x4138D167 GT PUSH2 0x15E JUMPI DUP1 PUSH4 0x5F19F4F5 GT PUSH2 0x139 JUMPI DUP1 PUSH4 0x5F19F4F5 EQ PUSH2 0x292 JUMPI DUP1 PUSH4 0x72F2F93A EQ PUSH2 0x2B2 JUMPI DUP1 PUSH4 0x733E28AA EQ PUSH2 0x2D2 JUMPI DUP1 PUSH4 0x7DEFA920 EQ PUSH2 0x2F2 JUMPI PUSH0 PUSH0 REVERT JUMPDEST DUP1 PUSH4 0x4138D167 EQ PUSH2 0x24A JUMPI DUP1 PUSH4 0x475B6F98 EQ PUSH2 0x26A JUMPI DUP1 PUSH4 0x4FFE6AE2 EQ PUSH2 0x27D JUMPI PUSH0 PUSH0 REVERT JUMPDEST DUP1 PUSH4 0x92B3740 EQ PUSH2 0x1A5 JUMPI DUP1 PUSH4 0xFD19668 EQ PUSH2 0x1CE JUMPI DUP1 PUSH4 0x20FC4881 EQ PUSH2 0x1E5 JUMPI DUP1 PUSH4 0x229EC452 EQ PUSH2 0x205 JUMPI DUP1 PUSH4 0x2AC08A93 EQ PUSH2 0x20E JUMPI DUP1 PUSH4 0x33401EE1 EQ PUSH2 0x237 JUMPI JUMPDEST PUSH0 PUSH0 REVERT JUMPDEST PUSH2 0x1B8 PUSH2 0x1B3 CALLDATASIZE PUSH1 0x4 PUSH2 0x25F3 JUMP JUMPDEST PUSH2 0x483 JUMP JUMPDEST PUSH1 0x40 MLOAD PUSH2 0x1C5 SWAP2 SWAP1 PUSH2 0x269A JUMP JUMPDEST PUSH1 0x40 MLOAD DUP1 SWAP2 SUB SWAP1 RETURN JUMPDEST PUSH2 0x1D7 PUSH1 0x3 SLOAD DUP2 JUMP JUMPDEST PUSH1 0x40 MLOAD SWAP1 DUP2 MSTORE PUSH1 0x20 ADD PUSH2 0x1C5 JUMP JUMPDEST PUSH2 0x1F8 PUSH2 0x1F3 CALLDATASIZE PUSH1 0x4 PUSH2 0x25F3 JUMP JUMPDEST PUSH2 0x791 JUMP JUMPDEST PUSH1 0x40 MLOAD PUSH2 0x1C5 SWAP2 SWAP1 PUSH2 0x2847 JUMP JUMPDEST PUSH2 0x1D7 PUSH1 0x2 SLOAD DUP2 JUMP JUMPDEST PUSH2 0x221 PUSH2 0x21C CALLDATASIZE PUSH1 0x4 PUSH2 0x25F3 JUMP JUMPDEST PUSH2 0xA0C JUMP JUMPDEST PUSH1 0x40 MLOAD PUSH2 0x1C5 SWAP11 SWAP10 SWAP9 SWAP8 SWAP7 SWAP6 SWAP5 SWAP4 SWAP3 SWAP2 SWAP1 PUSH2 0x2860 JUMP JUMPDEST PUSH2 0x1D7 PUSH2 0x245 CALLDATASIZE PUSH1 0x4 PUSH2 0x298A JUMP JUMPDEST PUSH2 0xC00 JUMP JUMPDEST PUSH2 0x25D PUSH2 0x258 CALLDATASIZE PUSH1 0x4 PUSH2 0x2A41 JUMP JUMPDEST PUSH2 0xDCE JUMP JUMPDEST PUSH1 0x40 MLOAD PUSH2 0x1C5 SWAP2 SWAP1 PUSH2 0x2A6A JUMP JUMPDEST PUSH2 0x1D7 PUSH2 0x278 CALLDATASIZE PUSH1 0x4 PUSH2 0x2AE0 JUMP JUMPDEST PUSH2 0xF9A JUMP JUMPDEST PUSH2 0x290 PUSH2 0x28B CALLDATASIZE PUSH1 0x4 PUSH2 0x25F3 JUMP JUMPDEST PUSH2 0x1137 JUMP JUMPDEST STOP JUMPDEST PUSH2 0x2A5 PUSH2 0x2A0 CALLDATASIZE PUSH1 0x4 PUSH2 0x25F3 JUMP JUMPDEST PUSH2 0x1184 JUMP JUMPDEST PUSH1 0x40 MLOAD PUSH2 0x1C5 SWAP2 SWAP1 PUSH2 0x2B94 JUMP JUMPDEST PUSH2 0x2C5 PUSH2 0x2C0 CALLDATASIZE PUSH1 0x4 PUSH2 0x2A41 JUMP JUMPDEST PUSH2 0x14A9 JUMP JUMPDEST PUSH1 0x40 MLOAD PUSH2 0x1C5 SWAP2 SWAP1 PUSH2 0x2BF7 JUMP JUMPDEST PUSH2 0x2E5 PUSH2 0x2E0 CALLDATASIZE PUSH1 0x4 PUSH2 0x25F3 JUMP JUMPDEST PUSH2 0x1512 JUMP JUMPDEST PUSH1 0x40 MLOAD PUSH2 0x1C5 SWAP2 SWAP1 PUSH2 0x2CB8 JUMP JUMPDEST PUSH2 0x290 PUSH2 0x300 CALLDATASIZE PUSH1 0x4 PUSH2 0x2D0F JUMP JUMPDEST PUSH2 0x1753 JUMP JUMPDEST PUSH2 0x290 PUSH2 0x313 CALLDATASIZE PUSH1 0x4 PUSH2 0x25F3 JUMP JUMPDEST PUSH2 0x17D4 JUMP JUMPDEST PUSH2 0x33D PUSH2 0x326 CALLDATASIZE PUSH1 0x4 PUSH2 0x25F3 JUMP JUMPDEST PUSH0 SWAP1 DUP2 MSTORE PUSH1 0x6 PUSH1 0x20 MSTORE PUSH1 0x40 SWAP1 KECCAK256 PUSH1 0x5 ADD SLOAD PUSH1 0xFF AND SWAP1 JUMP JUMPDEST PUSH1 0x40 MLOAD SWAP1 ISZERO ISZERO DUP2 MSTORE PUSH1 0x20 ADD PUSH2 0x1C5 JUMP JUMPDEST PUSH2 0x360 PUSH2 0x35B CALLDATASIZE PUSH1 0x4 PUSH2 0x25F3 JUMP JUMPDEST PUSH2 0x1910 JUMP JUMPDEST PUSH1 0x40 MLOAD PUSH2 0x1C5 SWAP2 SWAP1 PUSH2 0x2D40 JUMP JUMPDEST PUSH2 0x1D7 PUSH2 0x37B CALLDATASIZE PUSH1 0x4 PUSH2 0x2D52 JUMP JUMPDEST PUSH2 0x1A9E JUMP JUMPDEST PUSH2 0x393 PUSH2 0x38E CALLDATASIZE PUSH1 0x4 PUSH2 0x25F3 JUMP JUMPDEST PUSH2 0x1AC9 JUMP JUMPDEST PUSH1 0x40 MLOAD PUSH2 0x1C5 SWAP8 SWAP7 SWAP6 SWAP5 SWAP4 SWAP3 SWAP2 SWAP1 PUSH2 0x2D7A JUMP JUMPDEST PUSH2 0x33D PUSH2 0x3B4 CALLDATASIZE PUSH1 0x4 PUSH2 0x25F3 JUMP JUMPDEST PUSH2 0x1B9D JUMP JUMPDEST PUSH2 0x3CC PUSH2 0x3C7 CALLDATASIZE PUSH1 0x4 PUSH2 0x25F3 JUMP JUMPDEST PUSH2 0x1C33 JUMP JUMPDEST PUSH1 0x40 MLOAD PUSH2 0x1C5 SWAP9 SWAP8 SWAP7 SWAP6 SWAP5 SWAP4 SWAP3 SWAP2 SWAP1 PUSH2 0x2DD1 JUMP JUMPDEST PUSH2 0x1D7 PUSH1 0x1 SLOAD DUP2 JUMP JUMPDEST PUSH2 0x290 PUSH2 0x3F7 CALLDATASIZE PUSH1 0x4 PUSH2 0x2E41 JUMP JUMPDEST PUSH2 0x1E11 JUMP JUMPDEST PUSH2 0x1D7 PUSH2 0x40A CALLDATASIZE PUSH1 0x4 PUSH2 0x2EB8 JUMP JUMPDEST PUSH2 0x1F77 JUMP JUMPDEST PUSH2 0x422 PUSH2 0x41D CALLDATASIZE PUSH1 0x4 PUSH2 0x2A41 JUMP JUMPDEST PUSH2 0x2113 JUMP JUMPDEST PUSH1 0x40 MLOAD PUSH2 0x1C5 SWAP6 SWAP5 SWAP4 SWAP3 SWAP2 SWAP1 PUSH2 0x2EDF JUMP JUMPDEST PUSH0 SLOAD PUSH2 0x445 SWAP1 PUSH1 0x1 PUSH1 0x1 PUSH1 0xA0 SHL SUB AND DUP2 JUMP JUMPDEST PUSH1 0x40 MLOAD PUSH1 0x1 PUSH1 0x1 PUSH1 0xA0 SHL SUB SWAP1 SWAP2 AND DUP2 MSTORE PUSH1 0x20 ADD PUSH2 0x1C5 JUMP JUMPDEST PUSH2 0x290 PUSH2 0x46B CALLDATASIZE PUSH1 0x4 PUSH2 0x2A41 JUMP JUMPDEST PUSH2 0x2263 JUMP JUMPDEST PUSH2 0x290 PUSH2 0x47E CALLDATASIZE PUSH1 0x4 PUSH2 0x25F3 JUMP JUMPDEST PUSH2 0x228E JUMP JUMPDEST PUSH2 0x48B PUSH2 0x24E4 JUMP JUMPDEST PUSH0 DUP3 DUP2 MSTORE PUSH1 0x4 PUSH1 0x20 SWAP1 DUP2 MSTORE PUSH1 0x40 SWAP2 DUP3 SWAP1 KECCAK256 DUP3 MLOAD PUSH2 0x180 DUP2 ADD DUP5 MSTORE DUP2 SLOAD DUP2 MSTORE PUSH1 0x1 DUP3 ADD SLOAD PUSH1 0x1 PUSH1 0x1 PUSH1 0xA0 SHL SUB SWAP1 DUP2 AND SWAP4 DUP3 ADD SWAP4 SWAP1 SWAP4 MSTORE PUSH1 0x2 DUP3 ADD SLOAD SWAP1 SWAP3 AND SWAP3 DUP3 ADD SWAP3 SWAP1 SWAP3 MSTORE PUSH1 0x3 DUP3 ADD DUP1 SLOAD SWAP2 SWAP3 SWAP2 PUSH1 0x60 DUP5 ADD SWAP2 SWAP1 PUSH2 0x4E7 SWAP1 PUSH2 0x2F36 JUMP JUMPDEST DUP1 PUSH1 0x1F ADD PUSH1 0x20 DUP1 SWAP2 DIV MUL PUSH1 0x20 ADD PUSH1 0x40 MLOAD SWAP1 DUP2 ADD PUSH1 0x40 MSTORE DUP1 SWAP3 SWAP2 SWAP1 DUP2 DUP2 MSTORE PUSH1 0x20 ADD DUP3 DUP1 SLOAD PUSH2 0x513 SWAP1 PUSH2 0x2F36 JUMP JUMPDEST DUP1 ISZERO PUSH2 0x55E JUMPI DUP1 PUSH1 0x1F LT PUSH2 0x535 JUMPI PUSH2 0x100 DUP1 DUP4 SLOAD DIV MUL DUP4 MSTORE SWAP2 PUSH1 0x20 ADD SWAP2 PUSH2 0x55E JUMP JUMPDEST DUP3 ADD SWAP2 SWAP1 PUSH0 MSTORE PUSH1 0x20 PUSH0 KECCAK256 SWAP1 JUMPDEST DUP2 SLOAD DUP2 MSTORE SWAP1 PUSH1 0x1 ADD SWAP1 PUSH1 0x20 ADD DUP1 DUP4 GT PUSH2 0x541 JUMPI DUP3 SWAP1 SUB PUSH1 0x1F AND DUP3 ADD SWAP2 JUMPDEST POP POP POP POP POP DUP2 MSTORE PUSH1 0x20 ADD PUSH1 0x4 DUP3 ADD DUP1 SLOAD PUSH2 0x577 SWAP1 PUSH2 0x2F36 JUMP JUMPDEST DUP1 PUSH1 0x1F ADD PUSH1 0x20 DUP1 SWAP2 DIV MUL PUSH1 0x20 ADD PUSH1 0x40 MLOAD SWAP1 DUP2 ADD PUSH1 0x40 MSTORE DUP1 SWAP3 SWAP2 SWAP1 DUP2 DUP2 MSTORE PUSH1 0x20 ADD DUP3 DUP1 SLOAD PUSH2 0x5A3 SWAP1 PUSH2 0x2F36 JUMP JUMPDEST DUP1 ISZERO PUSH2 0x5EE JUMPI DUP1 PUSH1 0x1F LT PUSH2 0x5C5 JUMPI PUSH2 0x100 DUP1 DUP4 SLOAD DIV MUL DUP4 MSTORE SWAP2 PUSH1 0x20 ADD SWAP2 PUSH2 0x5EE JUMP JUMPDEST DUP3 ADD SWAP2 SWAP1 PUSH0 MSTORE PUSH1 0x20 PUSH0 KECCAK256 SWAP1 JUMPDEST DUP2 SLOAD DUP2 MSTORE SWAP1 PUSH1 0x1 ADD SWAP1 PUSH1 0x20 ADD DUP1 DUP4 GT PUSH2 0x5D1 JUMPI DUP3 SWAP1 SUB PUSH1 0x1F AND DUP3 ADD SWAP2 JUMPDEST POP POP POP POP POP DUP2 MSTORE PUSH1 0x20 ADD PUSH1 0x5 DUP3 ADD DUP1 SLOAD PUSH2 0x607 SWAP1 PUSH2 0x2F36 JUMP JUMPDEST DUP1 PUSH1 0x1F ADD PUSH1 0x20 DUP1 SWAP2 DIV MUL PUSH1 0x20 ADD PUSH1 0x40 MLOAD SWAP1 DUP2 ADD PUSH1 0x40 MSTORE DUP1 SWAP3 SWAP2 SWAP1 DUP2 DUP2 MSTORE PUSH1 0x20 ADD DUP3 DUP1 SLOAD PUSH2 0x633 SWAP1 PUSH2 0x2F36 JUMP JUMPDEST DUP1 ISZERO PUSH2 0x67E JUMPI DUP1 PUSH1 0x1F LT PUSH2 0x655 JUMPI PUSH2 0x100 DUP1 DUP4 SLOAD DIV MUL DUP4 MSTORE SWAP2 PUSH1 0x20 ADD SWAP2 PUSH2 0x67E JUMP JUMPDEST DUP3 ADD SWAP2 SWAP1 PUSH0 MSTORE PUSH1 0x20 PUSH0 KECCAK256 SWAP1 JUMPDEST DUP2 SLOAD DUP2 MSTORE SWAP1 PUSH1 0x1 ADD SWAP1 PUSH1 0x20 ADD DUP1 DUP4 GT PUSH2 0x661 JUMPI DUP3 SWAP1 SUB PUSH1 0x1F AND DUP3 ADD SWAP2 JUMPDEST POP POP POP SWAP2 DUP4 MSTORE POP POP PUSH1 0x6 DUP3 DUP2 ADD SLOAD PUSH1 0x20 DUP4 ADD MSTORE PUSH1 0x7 DUP4 ADD SLOAD PUSH1 0x40 DUP4 ADD MSTORE PUSH1 0x8 DUP4 ADD SLOAD PUSH1 0x60 SWAP1 SWAP3 ADD SWAP2 PUSH1 0xFF AND SWAP1 DUP2 GT ISZERO PUSH2 0x6B9 JUMPI PUSH2 0x6B9 PUSH2 0x2638 JUMP JUMPDEST PUSH1 0x6 DUP2 GT ISZERO PUSH2 0x6CA JUMPI PUSH2 0x6CA PUSH2 0x2638 JUMP JUMPDEST DUP2 MSTORE PUSH1 0x20 ADD PUSH1 0x9 DUP3 ADD DUP1 SLOAD DUP1 PUSH1 0x20 MUL PUSH1 0x20 ADD PUSH1 0x40 MLOAD SWAP1 DUP2 ADD PUSH1 0x40 MSTORE DUP1 SWAP3 SWAP2 SWAP1 DUP2 DUP2 MSTORE PUSH1 0x20 ADD DUP3 DUP1 SLOAD DUP1 ISZERO PUSH2 0x71B JUMPI PUSH1 0x20 MUL DUP3 ADD SWAP2 SWAP1 PUSH0 MSTORE PUSH1 0x20 PUSH0 KECCAK256 SWAP1 JUMPDEST DUP2 SLOAD DUP2 MSTORE PUSH1 0x20 ADD SWAP1 PUSH1 0x1 ADD SWAP1 DUP1 DUP4 GT PUSH2 0x707 JUMPI JUMPDEST POP POP POP POP POP DUP2 MSTORE PUSH1 0x20 ADD PUSH1 0xA DUP3 ADD DUP1 SLOAD DUP1 PUSH1 0x20 MUL PUSH1 0x20 ADD PUSH1 0x40 MLOAD SWAP1 DUP2 ADD PUSH1 0x40 MSTORE DUP1 SWAP3 SWAP2 SWAP1 DUP2 DUP2 MSTORE PUSH1 0x20 ADD DUP3 DUP1 SLOAD DUP1 ISZERO PUSH2 0x771 JUMPI PUSH1 0x20 MUL DUP3 ADD SWAP2 SWAP1 PUSH0 MSTORE PUSH1 0x20 PUSH0 KECCAK256 SWAP1 JUMPDEST DUP2 SLOAD DUP2 MSTORE PUSH1 0x20 ADD SWAP1 PUSH1 0x1 ADD SWAP1 DUP1 DUP4 GT PUSH2 0x75D JUMPI JUMPDEST POP POP POP SWAP2 DUP4 MSTORE POP POP PUSH1 0xB SWAP2 SWAP1 SWAP2 ADD SLOAD PUSH1 0xFF AND ISZERO ISZERO PUSH1 0x20 SWAP1 SWAP2 ADD MSTORE SWAP3 SWAP2 POP POP JUMP JUMPDEST PUSH2 0x799 PUSH2 0x2560 JUMP JUMPDEST PUSH0 DUP3 GT DUP1 ISZERO PUSH2 0x7A9 JUMPI POP PUSH1 0x2 SLOAD DUP3 LT JUMPDEST PUSH2 0x7FA JUMPI PUSH1 0x40 MLOAD PUSH3 0x461BCD PUSH1 0xE5 SHL DUP2 MSTORE PUSH1 0x20 PUSH1 0x4 DUP3 ADD MSTORE PUSH1 0x19 PUSH1 0x24 DUP3 ADD MSTORE PUSH32 0x436865636B706F696E7420646F6573206E6F7420657869737400000000000000 PUSH1 0x44 DUP3 ADD MSTORE PUSH1 0x64 ADD JUMPDEST PUSH1 0x40 MLOAD DUP1 SWAP2 SUB SWAP1 REVERT JUMPDEST PUSH0 DUP3 DUP2 MSTORE PUSH1 0x5 PUSH1 0x20 SWAP1 DUP2 MSTORE PUSH1 0x40 SWAP2 DUP3 SWAP1 KECCAK256 DUP3 MLOAD PUSH2 0x100 DUP2 ADD DUP5 MSTORE DUP2 SLOAD DUP2 MSTORE PUSH1 0x1 DUP3 ADD SLOAD SWAP3 DUP2 ADD SWAP3 SWAP1 SWAP3 MSTORE PUSH1 0x2 DUP2 ADD SLOAD PUSH1 0x1 PUSH1 0x1 PUSH1 0xA0 SHL SUB AND SWAP3 DUP3 ADD SWAP3 SWAP1 SWAP3 MSTORE PUSH1 0x3 DUP3 ADD DUP1 SLOAD SWAP2 SWAP3 SWAP2 PUSH1 0x60 DUP5 ADD SWAP2 SWAP1 PUSH2 0x851 SWAP1 PUSH2 0x2F36 JUMP JUMPDEST DUP1 PUSH1 0x1F ADD PUSH1 0x20 DUP1 SWAP2 DIV MUL PUSH1 0x20 ADD PUSH1 0x40 MLOAD SWAP1 DUP2 ADD PUSH1 0x40 MSTORE DUP1 SWAP3 SWAP2 SWAP1 DUP2 DUP2 MSTORE PUSH1 0x20 ADD DUP3 DUP1 SLOAD PUSH2 0x87D SWAP1 PUSH2 0x2F36 JUMP JUMPDEST DUP1 ISZERO PUSH2 0x8C8 JUMPI DUP1 PUSH1 0x1F LT PUSH2 0x89F JUMPI PUSH2 0x100 DUP1 DUP4 SLOAD DIV MUL DUP4 MSTORE SWAP2 PUSH1 0x20 ADD SWAP2 PUSH2 0x8C8 JUMP JUMPDEST DUP3 ADD SWAP2 SWAP1 PUSH0 MSTORE PUSH1 0x20 PUSH0 KECCAK256 SWAP1 JUMPDEST DUP2 SLOAD DUP2 MSTORE SWAP1 PUSH1 0x1 ADD SWAP1 PUSH1 0x20 ADD DUP1 DUP4 GT PUSH2 0x8AB JUMPI DUP3 SWAP1 SUB PUSH1 0x1F AND DUP3 ADD SWAP2 JUMPDEST POP POP POP POP POP DUP2 MSTORE PUSH1 0x20 ADD PUSH1 0x4 DUP3 ADD DUP1 SLOAD PUSH2 0x8E1 SWAP1 PUSH2 0x2F36 JUMP JUMPDEST DUP1 PUSH1 0x1F ADD PUSH1 0x20 DUP1 SWAP2 DIV MUL PUSH1 0x20 ADD PUSH1 0x40 MLOAD SWAP1 DUP2 ADD PUSH1 0x40 MSTORE DUP1 SWAP3 SWAP2 SWAP1 DUP2 DUP2 MSTORE PUSH1 0x20 ADD DUP3 DUP1 SLOAD PUSH2 0x90D SWAP1 PUSH2 0x2F36 JUMP JUMPDEST DUP1 ISZERO PUSH2 0x958 JUMPI DUP1 PUSH1 0x1F LT PUSH2 0x92F JUMPI PUSH2 0x100 DUP1 DUP4 SLOAD DIV MUL DUP4 MSTORE SWAP2 PUSH1 0x20 ADD SWAP2 PUSH2 0x958 JUMP JUMPDEST DUP3 ADD SWAP2 SWAP1 PUSH0 MSTORE PUSH1 0x20 PUSH0 KECCAK256 SWAP1 JUMPDEST DUP2 SLOAD DUP2 MSTORE SWAP1 PUSH1 0x1 ADD SWAP1 PUSH1 0x20 ADD DUP1 DUP4 GT PUSH2 0x93B JUMPI DUP3 SWAP1 SUB PUSH1 0x1F AND DUP3 ADD SWAP2 JUMPDEST POP POP POP POP POP DUP2 MSTORE PUSH1 0x20 ADD PUSH1 0x5 DUP3 ADD SLOAD DUP2 MSTORE PUSH1 0x20 ADD PUSH1 0x6 DUP3 ADD DUP1 SLOAD PUSH2 0x97B SWAP1 PUSH2 0x2F36 JUMP JUMPDEST DUP1 PUSH1 0x1F ADD PUSH1 0x20 DUP1 SWAP2 DIV MUL PUSH1 0x20 ADD PUSH1 0x40 MLOAD SWAP1 DUP2 ADD PUSH1 0x40 MSTORE DUP1 SWAP3 SWAP2 SWAP1 DUP2 DUP2 MSTORE PUSH1 0x20 ADD DUP3 DUP1 SLOAD PUSH2 0x9A7 SWAP1 PUSH2 0x2F36 JUMP JUMPDEST DUP1 ISZERO PUSH2 0x9F2 JUMPI DUP1 PUSH1 0x1F LT PUSH2 0x9C9 JUMPI PUSH2 0x100 DUP1 DUP4 SLOAD DIV MUL DUP4 MSTORE SWAP2 PUSH1 0x20 ADD SWAP2 PUSH2 0x9F2 JUMP JUMPDEST DUP3 ADD SWAP2 SWAP1 PUSH0 MSTORE PUSH1 0x20 PUSH0 KECCAK256 SWAP1 JUMPDEST DUP2 SLOAD DUP2 MSTORE SWAP1 PUSH1 0x1 ADD SWAP1 PUSH1 0x20 ADD DUP1 DUP4 GT PUSH2 0x9D5 JUMPI DUP3 SWAP1 SUB PUSH1 0x1F AND DUP3 ADD SWAP2 JUMPDEST POP POP POP POP POP DUP2 MSTORE PUSH1 0x20 ADD PUSH1 0x7 DUP3 ADD SLOAD DUP2 MSTORE POP POP SWAP1 POP SWAP2 SWAP1 POP JUMP JUMPDEST PUSH1 0x4 PUSH1 0x20 MSTORE PUSH0 SWAP1 DUP2 MSTORE PUSH1 0x40 SWAP1 KECCAK256 DUP1 SLOAD PUSH1 0x1 DUP3 ADD SLOAD PUSH1 0x2 DUP4 ADD SLOAD PUSH1 0x3 DUP5 ADD DUP1 SLOAD SWAP4 SWAP5 PUSH1 0x1 PUSH1 0x1 PUSH1 0xA0 SHL SUB SWAP4 DUP5 AND SWAP5 SWAP4 SWAP1 SWAP3 AND SWAP3 PUSH2 0xA47 SWAP1 PUSH2 0x2F36 JUMP JUMPDEST DUP1 PUSH1 0x1F ADD PUSH1 0x20 DUP1 SWAP2 DIV MUL PUSH1 0x20 ADD PUSH1 0x40 MLOAD SWAP1 DUP2 ADD PUSH1 0x40 MSTORE DUP1 SWAP3 SWAP2 SWAP1 DUP2 DUP2 MSTORE PUSH1 0x20 ADD DUP3 DUP1 SLOAD PUSH2 0xA73 SWAP1 PUSH2 0x2F36 JUMP JUMPDEST DUP1 ISZERO PUSH2 0xABE JUMPI DUP1 PUSH1 0x1F LT PUSH2 0xA95 JUMPI PUSH2 0x100 DUP1 DUP4 SLOAD DIV MUL DUP4 MSTORE SWAP2 PUSH1 0x20 ADD SWAP2 PUSH2 0xABE JUMP JUMPDEST DUP3 ADD SWAP2 SWAP1 PUSH0 MSTORE PUSH1 0x20 PUSH0 KECCAK256 SWAP1 JUMPDEST DUP2 SLOAD DUP2 MSTORE SWAP1 PUSH1 0x1 ADD SWAP1 PUSH1 0x20 ADD DUP1 DUP4 GT PUSH2 0xAA1 JUMPI DUP3 SWAP1 SUB PUSH1 0x1F AND DUP3 ADD SWAP2 JUMPDEST POP POP POP POP POP SWAP1 DUP1 PUSH1 0x4 ADD DUP1 SLOAD PUSH2 0xAD3 SWAP1 PUSH2 0x2F36 JUMP JUMPDEST DUP1 PUSH1 0x1F ADD PUSH1 0x20 DUP1 SWAP2 DIV MUL PUSH1 0x20 ADD PUSH1 0x40 MLOAD SWAP1 DUP2 ADD PUSH1 0x40 MSTORE DUP1 SWAP3 SWAP2 SWAP1 DUP2 DUP2 MSTORE PUSH1 0x20 ADD DUP3 DUP1 SLOAD PUSH2 0xAFF SWAP1 PUSH2 0x2F36 JUMP JUMPDEST DUP1 ISZERO PUSH2 0xB4A JUMPI DUP1 PUSH1 0x1F LT PUSH2 0xB21 JUMPI PUSH2 0x100 DUP1 DUP4 SLOAD DIV MUL DUP4 MSTORE SWAP2 PUSH1 0x20 ADD SWAP2 PUSH2 0xB4A JUMP JUMPDEST DUP3 ADD SWAP2 SWAP1 PUSH0 MSTORE PUSH1 0x20 PUSH0 KECCAK256 SWAP1 JUMPDEST DUP2 SLOAD DUP2 MSTORE SWAP1 PUSH1 0x1 ADD SWAP1 PUSH1 0x20 ADD DUP1 DUP4 GT PUSH2 0xB2D JUMPI DUP3 SWAP1 SUB PUSH1 0x1F AND DUP3 ADD SWAP2 JUMPDEST POP POP POP POP POP SWAP1 DUP1 PUSH1 0x5 ADD DUP1 SLOAD PUSH2 0xB5F SWAP1 PUSH2 0x2F36 JUMP JUMPDEST DUP1 PUSH1 0x1F ADD PUSH1 0x20 DUP1 SWAP2 DIV MUL PUSH1 0x20 ADD PUSH1 0x40 MLOAD SWAP1 DUP2 ADD PUSH1 0x40 MSTORE DUP1 SWAP3 SWAP2 SWAP1 DUP2 DUP2 MSTORE PUSH1 0x20 ADD DUP3 DUP1 SLOAD PUSH2 0xB8B SWAP1 PUSH2 0x2F36 JUMP JUMPDEST DUP1 ISZERO PUSH2 0xBD6 JUMPI DUP1 PUSH1 0x1F LT PUSH2 0xBAD JUMPI PUSH2 0x100 DUP1 DUP4 SLOAD DIV MUL DUP4 MSTORE SWAP2 PUSH1 0x20 ADD SWAP2 PUSH2 0xBD6 JUMP JUMPDEST DUP3 ADD SWAP2 SWAP1 PUSH0 MSTORE PUSH1 0x20 PUSH0 KECCAK256 SWAP1 JUMPDEST DUP2 SLOAD DUP2 MSTORE SWAP1 PUSH1 0x1 ADD SWAP1 PUSH1 0x20 ADD DUP1 DUP4 GT PUSH2 0xBB9 JUMPI DUP3 SWAP1 SUB PUSH1 0x1F AND DUP3 ADD SWAP2 JUMPDEST POP POP POP PUSH1 0x6 DUP5 ADD SLOAD PUSH1 0x7 DUP6 ADD SLOAD PUSH1 0x8 DUP7 ADD SLOAD PUSH1 0xB SWAP1 SWAP7 ADD SLOAD SWAP5 SWAP6 SWAP2 SWAP5 SWAP1 SWAP4 POP PUSH1 0xFF SWAP2 DUP3 AND SWAP3 POP AND DUP11 JUMP JUMPDEST PUSH0 PUSH2 0xC09 PUSH2 0x23DC JUMP JUMPDEST DUP6 PUSH2 0xC13 DUP2 PUSH2 0x243F JUMP JUMPDEST PUSH1 0x2 DUP1 SLOAD PUSH0 SWAP2 DUP3 PUSH2 0xC23 DUP4 PUSH2 0x2F68 JUMP JUMPDEST SWAP1 SWAP2 SSTORE POP PUSH1 0x40 DUP1 MLOAD PUSH2 0x100 DUP2 ADD DUP3 MSTORE DUP3 DUP2 MSTORE PUSH1 0x20 DUP1 DUP3 ADD DUP13 DUP2 MSTORE CALLER DUP4 DUP6 ADD SWAP1 DUP2 MSTORE PUSH1 0x60 DUP5 ADD DUP14 DUP2 MSTORE PUSH1 0x80 DUP6 ADD DUP14 SWAP1 MSTORE TIMESTAMP PUSH1 0xA0 DUP7 ADD MSTORE PUSH1 0xC0 DUP6 ADD DUP13 SWAP1 MSTORE PUSH1 0xE0 DUP6 ADD DUP12 SWAP1 MSTORE PUSH0 DUP8 DUP2 MSTORE PUSH1 0x5 SWAP1 SWAP5 MSTORE SWAP5 SWAP1 SWAP3 KECCAK256 DUP4 MLOAD DUP2 SSTORE SWAP1 MLOAD PUSH1 0x1 DUP3 ADD SSTORE SWAP1 MLOAD PUSH1 0x2 DUP3 ADD DUP1 SLOAD PUSH1 0x1 PUSH1 0x1 PUSH1 0xA0 SHL SUB NOT AND PUSH1 0x1 PUSH1 0x1 PUSH1 0xA0 SHL SUB SWAP1 SWAP3 AND SWAP2 SWAP1 SWAP2 OR SWAP1 SSTORE SWAP2 MLOAD SWAP3 SWAP4 POP SWAP2 PUSH1 0x3 DUP3 ADD SWAP1 PUSH2 0xCB6 SWAP1 DUP3 PUSH2 0x2FD8 JUMP JUMPDEST POP PUSH1 0x80 DUP3 ADD MLOAD PUSH1 0x4 DUP3 ADD SWAP1 PUSH2 0xCCB SWAP1 DUP3 PUSH2 0x2FD8 JUMP JUMPDEST POP PUSH1 0xA0 DUP3 ADD MLOAD PUSH1 0x5 DUP3 ADD SSTORE PUSH1 0xC0 DUP3 ADD MLOAD PUSH1 0x6 DUP3 ADD SWAP1 PUSH2 0xCEA SWAP1 DUP3 PUSH2 0x2FD8 JUMP JUMPDEST POP PUSH1 0xE0 SWAP2 SWAP1 SWAP2 ADD MLOAD PUSH1 0x7 SWAP1 SWAP2 ADD SSTORE PUSH0 DUP9 DUP2 MSTORE PUSH1 0x4 PUSH1 0x20 SWAP1 DUP2 MSTORE PUSH1 0x40 DUP3 KECCAK256 PUSH1 0x9 DUP2 ADD DUP1 SLOAD PUSH1 0x1 DUP2 ADD DUP3 SSTORE SWAP1 DUP5 MSTORE SWAP2 DUP4 KECCAK256 SWAP1 SWAP2 ADD DUP4 SWAP1 SSTORE SWAP1 DUP10 SWAP1 MSTORE PUSH1 0xB ADD SLOAD PUSH1 0xFF AND DUP1 ISZERO PUSH2 0xD40 JUMPI POP PUSH1 0x50 DUP5 SGT DUP1 PUSH2 0xD40 JUMPI POP PUSH1 0x14 DUP5 SLT JUMPDEST ISZERO PUSH2 0xD88 JUMPI PUSH2 0xD86 DUP9 PUSH1 0x3 PUSH1 0x40 MLOAD DUP1 PUSH1 0x40 ADD PUSH1 0x40 MSTORE DUP1 PUSH1 0x18 DUP2 MSTORE PUSH1 0x20 ADD PUSH32 0x54656D7065726174757265206F7574206F662072616E67650000000000000000 DUP2 MSTORE POP PUSH2 0x1F77 JUMP JUMPDEST POP JUMPDEST DUP8 DUP2 PUSH32 0x866DE744A1D30941B1BCCB4355CFB9DACFA65296F3AB651A0D4DCE76BF988A71 DUP10 CALLER PUSH1 0x40 MLOAD PUSH2 0xDBB SWAP3 SWAP2 SWAP1 PUSH2 0x3092 JUMP JUMPDEST PUSH1 0x40 MLOAD DUP1 SWAP2 SUB SWAP1 LOG3 SWAP8 SWAP7 POP POP POP POP POP POP POP JUMP JUMPDEST PUSH2 0xDFE PUSH1 0x40 DUP1 MLOAD PUSH1 0xA0 DUP2 ADD DUP3 MSTORE PUSH0 DUP1 DUP3 MSTORE PUSH1 0x60 PUSH1 0x20 DUP4 ADD MSTORE SWAP1 SWAP2 DUP3 ADD SWAP1 DUP2 MSTORE PUSH1 0x60 PUSH1 0x20 DUP3 ADD MSTORE PUSH0 PUSH1 0x40 SWAP1 SWAP2 ADD MSTORE SWAP1 JUMP JUMPDEST PUSH1 0x1 PUSH1 0x1 PUSH1 0xA0 SHL SUB DUP1 DUP4 AND PUSH0 SWAP1 DUP2 MSTORE PUSH1 0x7 PUSH1 0x20 SWAP1 DUP2 MSTORE PUSH1 0x40 SWAP2 DUP3 SWAP1 KECCAK256 DUP3 MLOAD PUSH1 0xA0 DUP2 ADD SWAP1 SWAP4 MSTORE DUP1 SLOAD SWAP1 SWAP4 AND DUP3 MSTORE PUSH1 0x1 DUP4 ADD DUP1 SLOAD SWAP3 SWAP4 SWAP3 SWAP2 DUP5 ADD SWAP2 PUSH2 0xE40 SWAP1 PUSH2 0x2F36 JUMP JUMPDEST DUP1 PUSH1 0x1F ADD PUSH1 0x20 DUP1 SWAP2 DIV MUL PUSH1 0x20 ADD PUSH1 0x40 MLOAD SWAP1 DUP2 ADD PUSH1 0x40 MSTORE DUP1 SWAP3 SWAP2 SWAP1 DUP2 DUP2 MSTORE PUSH1 0x20 ADD DUP3 DUP1 SLOAD PUSH2 0xE6C SWAP1 PUSH2 0x2F36 JUMP JUMPDEST DUP1 ISZERO PUSH2 0xEB7 JUMPI DUP1 PUSH1 0x1F LT PUSH2 0xE8E JUMPI PUSH2 0x100 DUP1 DUP4 SLOAD DIV MUL DUP4 MSTORE SWAP2 PUSH1 0x20 ADD SWAP2 PUSH2 0xEB7 JUMP JUMPDEST DUP3 ADD SWAP2 SWAP1 PUSH0 MSTORE PUSH1 0x20 PUSH0 KECCAK256 SWAP1 JUMPDEST DUP2 SLOAD DUP2 MSTORE SWAP1 PUSH1 0x1 ADD SWAP1 PUSH1 0x20 ADD DUP1 DUP4 GT PUSH2 0xE9A JUMPI DUP3 SWAP1 SUB PUSH1 0x1F AND DUP3 ADD SWAP2 JUMPDEST POP POP POP SWAP2 DUP4 MSTORE POP POP PUSH1 0x2 DUP3 ADD SLOAD PUSH1 0x20 SWAP1 SWAP2 ADD SWAP1 PUSH1 0xFF AND PUSH1 0x5 DUP2 GT ISZERO PUSH2 0xEDE JUMPI PUSH2 0xEDE PUSH2 0x2638 JUMP JUMPDEST PUSH1 0x5 DUP2 GT ISZERO PUSH2 0xEEF JUMPI PUSH2 0xEEF PUSH2 0x2638 JUMP JUMPDEST DUP2 MSTORE PUSH1 0x20 ADD PUSH1 0x3 DUP3 ADD DUP1 SLOAD PUSH2 0xF03 SWAP1 PUSH2 0x2F36 JUMP JUMPDEST DUP1 PUSH1 0x1F ADD PUSH1 0x20 DUP1 SWAP2 DIV MUL PUSH1 0x20 ADD PUSH1 0x40 MLOAD SWAP1 DUP2 ADD PUSH1 0x40 MSTORE DUP1 SWAP3 SWAP2 SWAP1 DUP2 DUP2 MSTORE PUSH1 0x20 ADD DUP3 DUP1 SLOAD PUSH2 0xF2F SWAP1 PUSH2 0x2F36 JUMP JUMPDEST DUP1 ISZERO PUSH2 0xF7A JUMPI DUP1 PUSH1 0x1F LT PUSH2 0xF51 JUMPI PUSH2 0x100 DUP1 DUP4 SLOAD DIV MUL DUP4 MSTORE SWAP2 PUSH1 0x20 ADD SWAP2 PUSH2 0xF7A JUMP JUMPDEST DUP3 ADD SWAP2 SWAP1 PUSH0 MSTORE PUSH1 0x20 PUSH0 KECCAK256 SWAP1 JUMPDEST DUP2 SLOAD DUP2 MSTORE SWAP1 PUSH1 0x1 ADD SWAP1 PUSH1 0x20 ADD DUP1 DUP4 GT PUSH2 0xF5D JUMPI DUP3 SWAP1 SUB PUSH1 0x1F AND DUP3 ADD SWAP2 JUMPDEST POP POP POP SWAP2 DUP4 MSTORE POP POP PUSH1 0x4 SWAP2 SWAP1 SWAP2 ADD SLOAD PUSH1 0xFF AND ISZERO ISZERO PUSH1 0x20 SWAP1 SWAP2 ADD MSTORE SWAP3 SWAP2 POP POP JUMP JUMPDEST PUSH0 PUSH2 0xFA3 PUSH2 0x23DC JUMP JUMPDEST PUSH1 0x1 CALLER PUSH0 SWAP1 DUP2 MSTORE PUSH1 0x7 PUSH1 0x20 MSTORE PUSH1 0x40 SWAP1 KECCAK256 PUSH1 0x2 ADD SLOAD PUSH1 0xFF AND PUSH1 0x5 DUP2 GT ISZERO PUSH2 0xFCB JUMPI PUSH2 0xFCB PUSH2 0x2638 JUMP JUMPDEST EQ PUSH2 0x1018 JUMPI PUSH1 0x40 MLOAD PUSH3 0x461BCD PUSH1 0xE5 SHL DUP2 MSTORE PUSH1 0x20 PUSH1 0x4 DUP3 ADD MSTORE PUSH1 0x17 PUSH1 0x24 DUP3 ADD MSTORE PUSH32 0x4F6E6C792053656E646572732063616E20637265617465000000000000000000 PUSH1 0x44 DUP3 ADD MSTORE PUSH1 0x64 ADD PUSH2 0x7F1 JUMP JUMPDEST PUSH1 0x1 DUP1 SLOAD PUSH0 SWAP2 DUP3 PUSH2 0x1028 DUP4 PUSH2 0x2F68 JUMP JUMPDEST SWAP1 SWAP2 SSTORE POP PUSH0 DUP2 DUP2 MSTORE PUSH1 0x4 PUSH1 0x20 MSTORE PUSH1 0x40 SWAP1 KECCAK256 DUP2 DUP2 SSTORE PUSH1 0x1 DUP2 ADD DUP1 SLOAD CALLER PUSH1 0x1 PUSH1 0x1 PUSH1 0xA0 SHL SUB NOT SWAP2 DUP3 AND OR SWAP1 SWAP2 SSTORE PUSH1 0x2 DUP3 ADD DUP1 SLOAD SWAP1 SWAP2 AND PUSH1 0x1 PUSH1 0x1 PUSH1 0xA0 SHL SUB DUP12 AND OR SWAP1 SSTORE SWAP1 SWAP2 POP PUSH1 0x3 DUP2 ADD PUSH2 0x107A DUP9 DUP3 PUSH2 0x2FD8 JUMP JUMPDEST POP PUSH1 0x4 DUP2 ADD PUSH2 0x1089 DUP8 DUP3 PUSH2 0x2FD8 JUMP JUMPDEST POP PUSH1 0x5 DUP2 ADD PUSH2 0x1098 DUP7 DUP3 PUSH2 0x2FD8 JUMP JUMPDEST POP TIMESTAMP PUSH1 0x6 DUP3 ADD SSTORE PUSH1 0x8 DUP2 ADD DUP1 SLOAD PUSH0 SWAP2 SWAP1 PUSH1 0xFF NOT AND PUSH1 0x1 DUP4 MUL OR SWAP1 SSTORE POP PUSH1 0xB DUP2 ADD DUP1 SLOAD PUSH1 0xFF NOT AND DUP6 ISZERO ISZERO OR SWAP1 SSTORE CALLER PUSH0 DUP2 DUP2 MSTORE PUSH1 0x8 PUSH1 0x20 SWAP1 DUP2 MSTORE PUSH1 0x40 DUP1 DUP4 KECCAK256 DUP1 SLOAD PUSH1 0x1 DUP2 ADD DUP3 SSTORE SWAP1 DUP5 MSTORE SWAP2 SWAP1 SWAP3 KECCAK256 ADD DUP5 SWAP1 SSTORE MLOAD PUSH1 0x1 PUSH1 0x1 PUSH1 0xA0 SHL SUB DUP11 AND SWAP2 SWAP1 DUP5 SWAP1 PUSH32 0x8FB6B855D6CBDF201F2FCAADBF8C38D36168FF7D2CA865CB2599ABCD5A060E8F SWAP1 PUSH2 0x1124 SWAP1 DUP13 SWAP1 PUSH2 0x30BB JUMP JUMPDEST PUSH1 0x40 MLOAD DUP1 SWAP2 SUB SWAP1 LOG4 POP SWAP7 SWAP6 POP POP POP POP POP POP JUMP JUMPDEST PUSH2 0x113F PUSH2 0x249E JUMP JUMPDEST PUSH0 DUP2 DUP2 MSTORE PUSH1 0x6 PUSH1 0x20 MSTORE PUSH1 0x40 DUP1 DUP3 KECCAK256 PUSH1 0x5 ADD DUP1 SLOAD PUSH1 0xFF NOT AND PUSH1 0x1 OR SWAP1 SSTORE MLOAD DUP3 SWAP2 PUSH32 0xF83AE0ADE2D9004BC0030405BDD3336F9D9B97530BCF44CCE99CE02C95641B77 SWAP2 LOG2 POP JUMP JUMPDEST PUSH0 DUP2 DUP2 MSTORE PUSH1 0x4 PUSH1 0x20 SWAP1 DUP2 MSTORE PUSH1 0x40 DUP1 DUP4 KECCAK256 PUSH1 0x9 ADD DUP1 SLOAD DUP3 MLOAD DUP2 DUP6 MUL DUP2 ADD DUP6 ADD SWAP1 SWAP4 MSTORE DUP1 DUP4 MSTORE PUSH1 0x60 SWAP5 SWAP4 DUP4 ADD DUP3 DUP3 DUP1 ISZERO PUSH2 0x11D9 JUMPI PUSH1 0x20 MUL DUP3 ADD SWAP2 SWAP1 PUSH0 MSTORE PUSH1 0x20 PUSH0 KECCAK256 SWAP1 JUMPDEST DUP2 SLOAD DUP2 MSTORE PUSH1 0x20 ADD SWAP1 PUSH1 0x1 ADD SWAP1 DUP1 DUP4 GT PUSH2 0x11C5 JUMPI JUMPDEST POP POP POP POP POP SWAP1 POP PUSH0 DUP2 MLOAD PUSH1 0x1 PUSH1 0x1 PUSH1 0x40 SHL SUB DUP2 GT ISZERO PUSH2 0x11FA JUMPI PUSH2 0x11FA PUSH2 0x28ED JUMP JUMPDEST PUSH1 0x40 MLOAD SWAP1 DUP1 DUP3 MSTORE DUP1 PUSH1 0x20 MUL PUSH1 0x20 ADD DUP3 ADD PUSH1 0x40 MSTORE DUP1 ISZERO PUSH2 0x1233 JUMPI DUP2 PUSH1 0x20 ADD JUMPDEST PUSH2 0x1220 PUSH2 0x2560 JUMP JUMPDEST DUP2 MSTORE PUSH1 0x20 ADD SWAP1 PUSH1 0x1 SWAP1 SUB SWAP1 DUP2 PUSH2 0x1218 JUMPI SWAP1 POP JUMPDEST POP SWAP1 POP PUSH0 JUMPDEST DUP3 MLOAD DUP2 LT ISZERO PUSH2 0x14A1 JUMPI PUSH1 0x5 PUSH0 DUP5 DUP4 DUP2 MLOAD DUP2 LT PUSH2 0x1256 JUMPI PUSH2 0x1256 PUSH2 0x30CD JUMP JUMPDEST PUSH1 0x20 MUL PUSH1 0x20 ADD ADD MLOAD DUP2 MSTORE PUSH1 0x20 ADD SWAP1 DUP2 MSTORE PUSH1 0x20 ADD PUSH0 KECCAK256 PUSH1 0x40 MLOAD DUP1 PUSH2 0x100 ADD PUSH1 0x40 MSTORE SWAP1 DUP2 PUSH0 DUP3 ADD SLOAD DUP2 MSTORE PUSH1 0x20 ADD PUSH1 0x1 DUP3 ADD SLOAD DUP2 MSTORE PUSH1 0x20 ADD PUSH1 0x2 DUP3 ADD PUSH0 SWAP1 SLOAD SWAP1 PUSH2 0x100 EXP SWAP1 DIV PUSH1 0x1 PUSH1 0x1 PUSH1 0xA0 SHL SUB AND PUSH1 0x1 PUSH1 0x1 PUSH1 0xA0 SHL SUB AND PUSH1 0x1 PUSH1 0x1 PUSH1 0xA0 SHL SUB AND DUP2 MSTORE PUSH1 0x20 ADD PUSH1 0x3 DUP3 ADD DUP1 SLOAD PUSH2 0x12C8 SWAP1 PUSH2 0x2F36 JUMP JUMPDEST DUP1 PUSH1 0x1F ADD PUSH1 0x20 DUP1 SWAP2 DIV MUL PUSH1 0x20 ADD PUSH1 0x40 MLOAD SWAP1 DUP2 ADD PUSH1 0x40 MSTORE DUP1 SWAP3 SWAP2 SWAP1 DUP2 DUP2 MSTORE PUSH1 0x20 ADD DUP3 DUP1 SLOAD PUSH2 0x12F4 SWAP1 PUSH2 0x2F36 JUMP JUMPDEST DUP1 ISZERO PUSH2 0x133F JUMPI DUP1 PUSH1 0x1F LT PUSH2 0x1316 JUMPI PUSH2 0x100 DUP1 DUP4 SLOAD DIV MUL DUP4 MSTORE SWAP2 PUSH1 0x20 ADD SWAP2 PUSH2 0x133F JUMP JUMPDEST DUP3 ADD SWAP2 SWAP1 PUSH0 MSTORE PUSH1 0x20 PUSH0 KECCAK256 SWAP1 JUMPDEST DUP2 SLOAD DUP2 MSTORE SWAP1 PUSH1 0x1 ADD SWAP1 PUSH1 0x20 ADD DUP1 DUP4 GT PUSH2 0x1322 JUMPI DUP3 SWAP1 SUB PUSH1 0x1F AND DUP3 ADD SWAP2 JUMPDEST POP POP POP POP POP DUP2 MSTORE PUSH1 0x20 ADD PUSH1 0x4 DUP3 ADD DUP1 SLOAD PUSH2 0x1358 SWAP1 PUSH2 0x2F36 JUMP JUMPDEST DUP1 PUSH1 0x1F ADD PUSH1 0x20 DUP1 SWAP2 DIV MUL PUSH1 0x20 ADD PUSH1 0x40 MLOAD SWAP1 DUP2 ADD PUSH1 0x40 MSTORE DUP1 SWAP3 SWAP2 SWAP1 DUP2 DUP2 MSTORE PUSH1 0x20 ADD DUP3 DUP1 SLOAD PUSH2 0x1384 SWAP1 PUSH2 0x2F36 JUMP JUMPDEST DUP1 ISZERO PUSH2 0x13CF JUMPI DUP1 PUSH1 0x1F LT PUSH2 0x13A6 JUMPI PUSH2 0x100 DUP1 DUP4 SLOAD DIV MUL DUP4 MSTORE SWAP2 PUSH1 0x20 ADD SWAP2 PUSH2 0x13CF JUMP JUMPDEST DUP3 ADD SWAP2 SWAP1 PUSH0 MSTORE PUSH1 0x20 PUSH0 KECCAK256 SWAP1 JUMPDEST DUP2 SLOAD DUP2 MSTORE SWAP1 PUSH1 0x1 ADD SWAP1 PUSH1 0x20 ADD DUP1 DUP4 GT PUSH2 0x13B2 JUMPI DUP3 SWAP1 SUB PUSH1 0x1F AND DUP3 ADD SWAP2 JUMPDEST POP POP POP POP POP DUP2 MSTORE PUSH1 0x20 ADD PUSH1 0x5 DUP3 ADD SLOAD DUP2 MSTORE PUSH1 0x20 ADD PUSH1 0x6 DUP3 ADD DUP1 SLOAD PUSH2 0x13F2 SWAP1 PUSH2 0x2F36 JUMP JUMPDEST DUP1 PUSH1 0x1F ADD PUSH1 0x20 DUP1 SWAP2 DIV MUL PUSH1 0x20 ADD PUSH1 0x40 MLOAD SWAP1 DUP2 ADD PUSH1 0x40 MSTORE DUP1 SWAP3 SWAP2 SWAP1 DUP2 DUP2 MSTORE PUSH1 0x20 ADD DUP3 DUP1 SLOAD PUSH2 0x141E SWAP1 PUSH2 0x2F36 JUMP JUMPDEST DUP1 ISZERO PUSH2 0x1469 JUMPI DUP1 PUSH1 0x1F LT PUSH2 0x1440 JUMPI PUSH2 0x100 DUP1 DUP4 SLOAD DIV MUL DUP4 MSTORE SWAP2 PUSH1 0x20 ADD SWAP2 PUSH2 0x1469 JUMP JUMPDEST DUP3 ADD SWAP2 SWAP1 PUSH0 MSTORE PUSH1 0x20 PUSH0 KECCAK256 SWAP1 JUMPDEST DUP2 SLOAD DUP2 MSTORE SWAP1 PUSH1 0x1 ADD SWAP1 PUSH1 0x20 ADD DUP1 DUP4 GT PUSH2 0x144C JUMPI DUP3 SWAP1 SUB PUSH1 0x1F AND DUP3 ADD SWAP2 JUMPDEST POP POP POP POP POP DUP2 MSTORE PUSH1 0x20 ADD PUSH1 0x7 DUP3 ADD SLOAD DUP2 MSTORE POP POP DUP3 DUP3 DUP2 MLOAD DUP2 LT PUSH2 0x148E JUMPI PUSH2 0x148E PUSH2 0x30CD JUMP JUMPDEST PUSH1 0x20 SWAP1 DUP2 MUL SWAP2 SWAP1 SWAP2 ADD ADD MSTORE PUSH1 0x1 ADD PUSH2 0x1238 JUMP JUMPDEST POP SWAP4 SWAP3 POP POP POP JUMP JUMPDEST PUSH1 0x1 PUSH1 0x1 PUSH1 0xA0 SHL SUB DUP2 AND PUSH0 SWAP1 DUP2 MSTORE PUSH1 0x8 PUSH1 0x20 SWAP1 DUP2 MSTORE PUSH1 0x40 SWAP2 DUP3 SWAP1 KECCAK256 DUP1 SLOAD DUP4 MLOAD DUP2 DUP5 MUL DUP2 ADD DUP5 ADD SWAP1 SWAP5 MSTORE DUP1 DUP5 MSTORE PUSH1 0x60 SWAP4 SWAP3 DUP4 ADD DUP3 DUP3 DUP1 ISZERO PUSH2 0x1506 JUMPI PUSH1 0x20 MUL DUP3 ADD SWAP2 SWAP1 PUSH0 MSTORE PUSH1 0x20 PUSH0 KECCAK256 SWAP1 JUMPDEST DUP2 SLOAD DUP2 MSTORE PUSH1 0x20 ADD SWAP1 PUSH1 0x1 ADD SWAP1 DUP1 DUP4 GT PUSH2 0x14F2 JUMPI JUMPDEST POP POP POP POP POP SWAP1 POP SWAP2 SWAP1 POP JUMP JUMPDEST PUSH1 0x60 DUP2 PUSH2 0x151E DUP2 PUSH2 0x243F JUMP JUMPDEST PUSH0 DUP4 DUP2 MSTORE PUSH1 0x4 PUSH1 0x20 SWAP1 DUP2 MSTORE PUSH1 0x40 DUP1 DUP4 KECCAK256 PUSH1 0xA ADD DUP1 SLOAD DUP3 MLOAD DUP2 DUP6 MUL DUP2 ADD DUP6 ADD SWAP1 SWAP4 MSTORE DUP1 DUP4 MSTORE SWAP2 SWAP3 SWAP1 SWAP2 SWAP1 DUP4 ADD DUP3 DUP3 DUP1 ISZERO PUSH2 0x1574 JUMPI PUSH1 0x20 MUL DUP3 ADD SWAP2 SWAP1 PUSH0 MSTORE PUSH1 0x20 PUSH0 KECCAK256 SWAP1 JUMPDEST DUP2 SLOAD DUP2 MSTORE PUSH1 0x20 ADD SWAP1 PUSH1 0x1 ADD SWAP1 DUP1 DUP4 GT PUSH2 0x1560 JUMPI JUMPDEST POP POP POP POP POP SWAP1 POP PUSH0 DUP2 MLOAD PUSH1 0x1 PUSH1 0x1 PUSH1 0x40 SHL SUB DUP2 GT ISZERO PUSH2 0x1595 JUMPI PUSH2 0x1595 PUSH2 0x28ED JUMP JUMPDEST PUSH1 0x40 MLOAD SWAP1 DUP1 DUP3 MSTORE DUP1 PUSH1 0x20 MUL PUSH1 0x20 ADD DUP3 ADD PUSH1 0x40 MSTORE DUP1 ISZERO PUSH2 0x15CE JUMPI DUP2 PUSH1 0x20 ADD JUMPDEST PUSH2 0x15BB PUSH2 0x25A9 JUMP JUMPDEST DUP2 MSTORE PUSH1 0x20 ADD SWAP1 PUSH1 0x1 SWAP1 SUB SWAP1 DUP2 PUSH2 0x15B3 JUMPI SWAP1 POP JUMPDEST POP SWAP1 POP PUSH0 JUMPDEST DUP3 MLOAD DUP2 LT ISZERO PUSH2 0x1748 JUMPI PUSH1 0x6 PUSH0 DUP5 DUP4 DUP2 MLOAD DUP2 LT PUSH2 0x15F1 JUMPI PUSH2 0x15F1 PUSH2 0x30CD JUMP JUMPDEST PUSH1 0x20 MUL PUSH1 0x20 ADD ADD MLOAD DUP2 MSTORE PUSH1 0x20 ADD SWAP1 DUP2 MSTORE PUSH1 0x20 ADD PUSH0 KECCAK256 PUSH1 0x40 MLOAD DUP1 PUSH1 0xE0 ADD PUSH1 0x40 MSTORE SWAP1 DUP2 PUSH0 DUP3 ADD SLOAD DUP2 MSTORE PUSH1 0x20 ADD PUSH1 0x1 DUP3 ADD SLOAD DUP2 MSTORE PUSH1 0x20 ADD PUSH1 0x2 DUP3 ADD PUSH0 SWAP1 SLOAD SWAP1 PUSH2 0x100 EXP SWAP1 DIV PUSH1 0xFF AND PUSH1 0x4 DUP2 GT ISZERO PUSH2 0x1647 JUMPI PUSH2 0x1647 PUSH2 0x2638 JUMP JUMPDEST PUSH1 0x4 DUP2 GT ISZERO PUSH2 0x1658 JUMPI PUSH2 0x1658 PUSH2 0x2638 JUMP JUMPDEST DUP2 MSTORE PUSH1 0x2 DUP3 ADD SLOAD PUSH2 0x100 SWAP1 DIV PUSH1 0x1 PUSH1 0x1 PUSH1 0xA0 SHL SUB AND PUSH1 0x20 DUP3 ADD MSTORE PUSH1 0x3 DUP3 ADD DUP1 SLOAD PUSH1 0x40 SWAP1 SWAP3 ADD SWAP2 PUSH2 0x1687 SWAP1 PUSH2 0x2F36 JUMP JUMPDEST DUP1 PUSH1 0x1F ADD PUSH1 0x20 DUP1 SWAP2 DIV MUL PUSH1 0x20 ADD PUSH1 0x40 MLOAD SWAP1 DUP2 ADD PUSH1 0x40 MSTORE DUP1 SWAP3 SWAP2 SWAP1 DUP2 DUP2 MSTORE PUSH1 0x20 ADD DUP3 DUP1 SLOAD PUSH2 0x16B3 SWAP1 PUSH2 0x2F36 JUMP JUMPDEST DUP1 ISZERO PUSH2 0x16FE JUMPI DUP1 PUSH1 0x1F LT PUSH2 0x16D5 JUMPI PUSH2 0x100 DUP1 DUP4 SLOAD DIV MUL DUP4 MSTORE SWAP2 PUSH1 0x20 ADD SWAP2 PUSH2 0x16FE JUMP JUMPDEST DUP3 ADD SWAP2 SWAP1 PUSH0 MSTORE PUSH1 0x20 PUSH0 KECCAK256 SWAP1 JUMPDEST DUP2 SLOAD DUP2 MSTORE SWAP1 PUSH1 0x1 ADD SWAP1 PUSH1 0x20 ADD DUP1 DUP4 GT PUSH2 0x16E1 JUMPI DUP3 SWAP1 SUB PUSH1 0x1F AND DUP3 ADD SWAP2 JUMPDEST POP POP POP SWAP2 DUP4 MSTORE POP POP PUSH1 0x4 DUP3 ADD SLOAD PUSH1 0x20 DUP3 ADD MSTORE PUSH1 0x5 SWAP1 SWAP2 ADD SLOAD PUSH1 0xFF AND ISZERO ISZERO PUSH1 0x40 SWAP1 SWAP2 ADD MSTORE DUP3 MLOAD DUP4 SWAP1 DUP4 SWAP1 DUP2 LT PUSH2 0x1735 JUMPI PUSH2 0x1735 PUSH2 0x30CD JUMP JUMPDEST PUSH1 0x20 SWAP1 DUP2 MUL SWAP2 SWAP1 SWAP2 ADD ADD MSTORE PUSH1 0x1 ADD PUSH2 0x15D3 JUMP JUMPDEST POP SWAP3 POP POP JUMPDEST POP SWAP2 SWAP1 POP JUMP JUMPDEST PUSH2 0x175B PUSH2 0x23DC JUMP JUMPDEST DUP2 PUSH2 0x1765 DUP2 PUSH2 0x243F JUMP JUMPDEST PUSH0 DUP4 DUP2 MSTORE PUSH1 0x4 PUSH1 0x20 MSTORE PUSH1 0x40 SWAP1 KECCAK256 PUSH1 0x8 ADD DUP1 SLOAD DUP4 SWAP2 SWAP1 PUSH1 0xFF NOT AND PUSH1 0x1 DUP4 PUSH1 0x6 DUP2 GT ISZERO PUSH2 0x1792 JUMPI PUSH2 0x1792 PUSH2 0x2638 JUMP JUMPDEST MUL OR SWAP1 SSTORE POP DUP3 PUSH32 0x7C1C93F72F29B8A1FC6FC85EED990D133B1FFAC80C962B521ABB12F38F2FF9AF DUP4 PUSH1 0x40 MLOAD PUSH2 0x17C7 SWAP2 SWAP1 PUSH2 0x30E1 JUMP JUMPDEST PUSH1 0x40 MLOAD DUP1 SWAP2 SUB SWAP1 LOG2 POP POP POP JUMP JUMPDEST DUP1 PUSH2 0x17DE DUP2 PUSH2 0x243F JUMP JUMPDEST PUSH0 DUP3 DUP2 MSTORE PUSH1 0x4 PUSH1 0x20 MSTORE PUSH1 0x40 SWAP1 KECCAK256 PUSH1 0x1 ADD SLOAD PUSH1 0x1 PUSH1 0x1 PUSH1 0xA0 SHL SUB AND CALLER EQ PUSH2 0x183F JUMPI PUSH1 0x40 MLOAD PUSH3 0x461BCD PUSH1 0xE5 SHL DUP2 MSTORE PUSH1 0x20 PUSH1 0x4 DUP3 ADD MSTORE PUSH1 0x16 PUSH1 0x24 DUP3 ADD MSTORE PUSH22 0x13DB9B1E481CD95B99195C8818D85B8818D85B98D95B PUSH1 0x52 SHL PUSH1 0x44 DUP3 ADD MSTORE PUSH1 0x64 ADD PUSH2 0x7F1 JUMP JUMPDEST PUSH0 DUP3 DUP2 MSTORE PUSH1 0x4 PUSH1 0x20 MSTORE PUSH1 0x40 DUP2 KECCAK256 PUSH1 0x8 ADD SLOAD PUSH1 0xFF AND PUSH1 0x6 DUP2 GT ISZERO PUSH2 0x1864 JUMPI PUSH2 0x1864 PUSH2 0x2638 JUMP JUMPDEST EQ PUSH2 0x18B1 JUMPI PUSH1 0x40 MLOAD PUSH3 0x461BCD PUSH1 0xE5 SHL DUP2 MSTORE PUSH1 0x20 PUSH1 0x4 DUP3 ADD MSTORE PUSH1 0x1B PUSH1 0x24 DUP3 ADD MSTORE PUSH32 0x43616E6E6F742063616E63656C206166746572207472616E7369740000000000 PUSH1 0x44 DUP3 ADD MSTORE PUSH1 0x64 ADD PUSH2 0x7F1 JUMP JUMPDEST PUSH0 DUP3 DUP2 MSTORE PUSH1 0x4 PUSH1 0x20 MSTORE PUSH1 0x40 SWAP1 KECCAK256 PUSH1 0x8 ADD DUP1 SLOAD PUSH1 0x6 SWAP2 SWAP1 PUSH1 0xFF NOT AND PUSH1 0x1 DUP4 MUL OR SWAP1 SSTORE POP DUP2 PUSH32 0x7C1C93F72F29B8A1FC6FC85EED990D133B1FFAC80C962B521ABB12F38F2FF9AF PUSH1 0x6 PUSH1 0x40 MLOAD PUSH2 0x1904 SWAP2 SWAP1 PUSH2 0x30E1 JUMP JUMPDEST PUSH1 0x40 MLOAD DUP1 SWAP2 SUB SWAP1 LOG2 POP POP JUMP JUMPDEST PUSH2 0x1918 PUSH2 0x25A9 JUMP JUMPDEST PUSH0 DUP3 GT DUP1 ISZERO PUSH2 0x1928 JUMPI POP PUSH1 0x3 SLOAD DUP3 LT JUMPDEST PUSH2 0x1974 JUMPI PUSH1 0x40 MLOAD PUSH3 0x461BCD PUSH1 0xE5 SHL DUP2 MSTORE PUSH1 0x20 PUSH1 0x4 DUP3 ADD MSTORE PUSH1 0x17 PUSH1 0x24 DUP3 ADD MSTORE PUSH32 0x496E636964656E7420646F6573206E6F74206578697374000000000000000000 PUSH1 0x44 DUP3 ADD MSTORE PUSH1 0x64 ADD PUSH2 0x7F1 JUMP JUMPDEST PUSH0 DUP3 DUP2 MSTORE PUSH1 0x6 PUSH1 0x20 SWAP1 DUP2 MSTORE PUSH1 0x40 SWAP2 DUP3 SWAP1 KECCAK256 DUP3 MLOAD PUSH1 0xE0 DUP2 ADD DUP5 MSTORE DUP2 SLOAD DUP2 MSTORE PUSH1 0x1 DUP3 ADD SLOAD SWAP3 DUP2 ADD SWAP3 SWAP1 SWAP3 MSTORE PUSH1 0x2 DUP2 ADD SLOAD SWAP2 SWAP3 SWAP1 SWAP2 SWAP1 DUP4 ADD SWAP1 PUSH1 0xFF AND PUSH1 0x4 DUP2 GT ISZERO PUSH2 0x19BE JUMPI PUSH2 0x19BE PUSH2 0x2638 JUMP JUMPDEST PUSH1 0x4 DUP2 GT ISZERO PUSH2 0x19CF JUMPI PUSH2 0x19CF PUSH2 0x2638 JUMP JUMPDEST DUP2 MSTORE PUSH1 0x2 DUP3 ADD SLOAD PUSH2 0x100 SWAP1 DIV PUSH1 0x1 PUSH1 0x1 PUSH1 0xA0 SHL SUB AND PUSH1 0x20 DUP3 ADD MSTORE PUSH1 0x3 DUP3 ADD DUP1 SLOAD PUSH1 0x40 SWAP1 SWAP3 ADD SWAP2 PUSH2 0x19FE SWAP1 PUSH2 0x2F36 JUMP JUMPDEST DUP1 PUSH1 0x1F ADD PUSH1 0x20 DUP1 SWAP2 DIV MUL PUSH1 0x20 ADD PUSH1 0x40 MLOAD SWAP1 DUP2 ADD PUSH1 0x40 MSTORE DUP1 SWAP3 SWAP2 SWAP1 DUP2 DUP2 MSTORE PUSH1 0x20 ADD DUP3 DUP1 SLOAD PUSH2 0x1A2A SWAP1 PUSH2 0x2F36 JUMP JUMPDEST DUP1 ISZERO PUSH2 0x1A75 JUMPI DUP1 PUSH1 0x1F LT PUSH2 0x1A4C JUMPI PUSH2 0x100 DUP1 DUP4 SLOAD DIV MUL DUP4 MSTORE SWAP2 PUSH1 0x20 ADD SWAP2 PUSH2 0x1A75 JUMP JUMPDEST DUP3 ADD SWAP2 SWAP1 PUSH0 MSTORE PUSH1 0x20 PUSH0 KECCAK256 SWAP1 JUMPDEST DUP2 SLOAD DUP2 MSTORE SWAP1 PUSH1 0x1 ADD SWAP1 PUSH1 0x20 ADD DUP1 DUP4 GT PUSH2 0x1A58 JUMPI DUP3 SWAP1 SUB PUSH1 0x1F AND DUP3 ADD SWAP2 JUMPDEST POP POP POP SWAP2 DUP4 MSTORE POP POP PUSH1 0x4 DUP3 ADD SLOAD PUSH1 0x20 DUP3 ADD MSTORE PUSH1 0x5 SWAP1 SWAP2 ADD SLOAD PUSH1 0xFF AND ISZERO ISZERO PUSH1 0x40 SWAP1 SWAP2 ADD MSTORE SWAP3 SWAP2 POP POP JUMP JUMPDEST PUSH1 0x8 PUSH1 0x20 MSTORE DUP2 PUSH0 MSTORE PUSH1 0x40 PUSH0 KECCAK256 DUP2 DUP2 SLOAD DUP2 LT PUSH2 0x1AB7 JUMPI PUSH0 DUP1 REVERT JUMPDEST SWAP1 PUSH0 MSTORE PUSH1 0x20 PUSH0 KECCAK256 ADD PUSH0 SWAP2 POP SWAP2 POP POP SLOAD DUP2 JUMP JUMPDEST PUSH1 0x6 PUSH1 0x20 MSTORE PUSH0 SWAP1 DUP2 MSTORE PUSH1 0x40 SWAP1 KECCAK256 DUP1 SLOAD PUSH1 0x1 DUP3 ADD SLOAD PUSH1 0x2 DUP4 ADD SLOAD PUSH1 0x3 DUP5 ADD DUP1 SLOAD SWAP4 SWAP5 SWAP3 SWAP4 PUSH1 0xFF DUP4 AND SWAP4 PUSH2 0x100 SWAP1 SWAP4 DIV PUSH1 0x1 PUSH1 0x1 PUSH1 0xA0 SHL SUB AND SWAP3 SWAP2 SWAP1 PUSH2 0x1B0C SWAP1 PUSH2 0x2F36 JUMP JUMPDEST DUP1 PUSH1 0x1F ADD PUSH1 0x20 DUP1 SWAP2 DIV MUL PUSH1 0x20 ADD PUSH1 0x40 MLOAD SWAP1 DUP2 ADD PUSH1 0x40 MSTORE DUP1 SWAP3 SWAP2 SWAP1 DUP2 DUP2 MSTORE PUSH1 0x20 ADD DUP3 DUP1 SLOAD PUSH2 0x1B38 SWAP1 PUSH2 0x2F36 JUMP JUMPDEST DUP1 ISZERO PUSH2 0x1B83 JUMPI DUP1 PUSH1 0x1F LT PUSH2 0x1B5A JUMPI PUSH2 0x100 DUP1 DUP4 SLOAD DIV MUL DUP4 MSTORE SWAP2 PUSH1 0x20 ADD SWAP2 PUSH2 0x1B83 JUMP JUMPDEST DUP3 ADD SWAP2 SWAP1 PUSH0 MSTORE PUSH1 0x20 PUSH0 KECCAK256 SWAP1 JUMPDEST DUP2 SLOAD DUP2 MSTORE SWAP1 PUSH1 0x1 ADD SWAP1 PUSH1 0x20 ADD DUP1 DUP4 GT PUSH2 0x1B66 JUMPI DUP3 SWAP1 SUB PUSH1 0x1F AND DUP3 ADD SWAP2 JUMPDEST POP POP POP POP PUSH1 0x4 DUP4 ADD SLOAD PUSH1 0x5 SWAP1 SWAP4 ADD SLOAD SWAP2 SWAP3 SWAP2 PUSH1 0xFF AND SWAP1 POP DUP8 JUMP JUMPDEST PUSH0 DUP2 DUP2 MSTORE PUSH1 0x4 PUSH1 0x20 MSTORE PUSH1 0x40 DUP2 KECCAK256 PUSH1 0xB DUP2 ADD SLOAD PUSH1 0xFF AND PUSH2 0x1BBF JUMPI POP PUSH1 0x1 SWAP3 SWAP2 POP POP JUMP JUMPDEST PUSH0 JUMPDEST PUSH1 0x9 DUP3 ADD SLOAD DUP2 LT ISZERO PUSH2 0x1C29 JUMPI PUSH0 PUSH1 0x5 PUSH0 DUP5 PUSH1 0x9 ADD DUP5 DUP2 SLOAD DUP2 LT PUSH2 0x1BE6 JUMPI PUSH2 0x1BE6 PUSH2 0x30CD JUMP JUMPDEST SWAP1 PUSH0 MSTORE PUSH1 0x20 PUSH0 KECCAK256 ADD SLOAD DUP2 MSTORE PUSH1 0x20 ADD SWAP1 DUP2 MSTORE PUSH1 0x20 ADD PUSH0 KECCAK256 PUSH1 0x7 ADD SLOAD SWAP1 POP PUSH1 0x50 DUP2 SGT DUP1 PUSH2 0x1C11 JUMPI POP PUSH1 0x14 DUP2 SLT JUMPDEST ISZERO PUSH2 0x1C20 JUMPI POP PUSH0 SWAP5 SWAP4 POP POP POP POP JUMP JUMPDEST POP PUSH1 0x1 ADD PUSH2 0x1BC1 JUMP JUMPDEST POP PUSH1 0x1 SWAP4 SWAP3 POP POP POP JUMP JUMPDEST PUSH1 0x5 PUSH1 0x20 MSTORE PUSH0 SWAP1 DUP2 MSTORE PUSH1 0x40 SWAP1 KECCAK256 DUP1 SLOAD PUSH1 0x1 DUP3 ADD SLOAD PUSH1 0x2 DUP4 ADD SLOAD PUSH1 0x3 DUP5 ADD DUP1 SLOAD SWAP4 SWAP5 SWAP3 SWAP4 PUSH1 0x1 PUSH1 0x1 PUSH1 0xA0 SHL SUB SWAP1 SWAP3 AND SWAP3 SWAP2 PUSH2 0x1C6C SWAP1 PUSH2 0x2F36 JUMP JUMPDEST DUP1 PUSH1 0x1F ADD PUSH1 0x20 DUP1 SWAP2 DIV MUL PUSH1 0x20 ADD PUSH1 0x40 MLOAD SWAP1 DUP2 ADD PUSH1 0x40 MSTORE DUP1 SWAP3 SWAP2 SWAP1 DUP2 DUP2 MSTORE PUSH1 0x20 ADD DUP3 DUP1 SLOAD PUSH2 0x1C98 SWAP1 PUSH2 0x2F36 JUMP JUMPDEST DUP1 ISZERO PUSH2 0x1CE3 JUMPI DUP1 PUSH1 0x1F LT PUSH2 0x1CBA JUMPI PUSH2 0x100 DUP1 DUP4 SLOAD DIV MUL DUP4 MSTORE SWAP2 PUSH1 0x20 ADD SWAP2 PUSH2 0x1CE3 JUMP JUMPDEST DUP3 ADD SWAP2 SWAP1 PUSH0 MSTORE PUSH1 0x20 PUSH0 KECCAK256 SWAP1 JUMPDEST DUP2 SLOAD DUP2 MSTORE SWAP1 PUSH1 0x1 ADD SWAP1 PUSH1 0x20 ADD DUP1 DUP4 GT PUSH2 0x1CC6 JUMPI DUP3 SWAP1 SUB PUSH1 0x1F AND DUP3 ADD SWAP2 JUMPDEST POP POP POP POP POP SWAP1 DUP1 PUSH1 0x4 ADD DUP1 SLOAD PUSH2 0x1CF8 SWAP1 PUSH2 0x2F36 JUMP JUMPDEST DUP1 PUSH1 0x1F ADD PUSH1 0x20 DUP1 SWAP2 DIV MUL PUSH1 0x20 ADD PUSH1 0x40 MLOAD SWAP1 DUP2 ADD PUSH1 0x40 MSTORE DUP1 SWAP3 SWAP2 SWAP1 DUP2 DUP2 MSTORE PUSH1 0x20 ADD DUP3 DUP1 SLOAD PUSH2 0x1D24 SWAP1 PUSH2 0x2F36 JUMP JUMPDEST DUP1 ISZERO PUSH2 0x1D6F JUMPI DUP1 PUSH1 0x1F LT PUSH2 0x1D46 JUMPI PUSH2 0x100 DUP1 DUP4 SLOAD DIV MUL DUP4 MSTORE SWAP2 PUSH1 0x20 ADD SWAP2 PUSH2 0x1D6F JUMP JUMPDEST DUP3 ADD SWAP2 SWAP1 PUSH0 MSTORE PUSH1 0x20 PUSH0 KECCAK256 SWAP1 JUMPDEST DUP2 SLOAD DUP2 MSTORE SWAP1 PUSH1 0x1 ADD SWAP1 PUSH1 0x20 ADD DUP1 DUP4 GT PUSH2 0x1D52 JUMPI DUP3 SWAP1 SUB PUSH1 0x1F AND DUP3 ADD SWAP2 JUMPDEST POP POP POP POP POP SWAP1 DUP1 PUSH1 0x5 ADD SLOAD SWAP1 DUP1 PUSH1 0x6 ADD DUP1 SLOAD PUSH2 0x1D8A SWAP1 PUSH2 0x2F36 JUMP JUMPDEST DUP1 PUSH1 0x1F ADD PUSH1 0x20 DUP1 SWAP2 DIV MUL PUSH1 0x20 ADD PUSH1 0x40 MLOAD SWAP1 DUP2 ADD PUSH1 0x40 MSTORE DUP1 SWAP3 SWAP2 SWAP1 DUP2 DUP2 MSTORE PUSH1 0x20 ADD DUP3 DUP1 SLOAD PUSH2 0x1DB6 SWAP1 PUSH2 0x2F36 JUMP JUMPDEST DUP1 ISZERO PUSH2 0x1E01 JUMPI DUP1 PUSH1 0x1F LT PUSH2 0x1DD8 JUMPI PUSH2 0x100 DUP1 DUP4 SLOAD DIV MUL DUP4 MSTORE SWAP2 PUSH1 0x20 ADD SWAP2 PUSH2 0x1E01 JUMP JUMPDEST DUP3 ADD SWAP2 SWAP1 PUSH0 MSTORE PUSH1 0x20 PUSH0 KECCAK256 SWAP1 JUMPDEST DUP2 SLOAD DUP2 MSTORE SWAP1 PUSH1 0x1 ADD SWAP1 PUSH1 0x20 ADD DUP1 DUP4 GT PUSH2 0x1DE4 JUMPI DUP3 SWAP1 SUB PUSH1 0x1F AND DUP3 ADD SWAP2 JUMPDEST POP POP POP POP POP SWAP1 DUP1 PUSH1 0x7 ADD SLOAD SWAP1 POP DUP9 JUMP JUMPDEST CALLER PUSH0 SWAP1 DUP2 MSTORE PUSH1 0x7 PUSH1 0x20 MSTORE PUSH1 0x40 SWAP1 KECCAK256 PUSH1 0x4 ADD SLOAD PUSH1 0xFF AND ISZERO PUSH2 0x1E68 JUMPI PUSH1 0x40 MLOAD PUSH3 0x461BCD PUSH1 0xE5 SHL DUP2 MSTORE PUSH1 0x20 PUSH1 0x4 DUP3 ADD MSTORE PUSH1 0x12 PUSH1 0x24 DUP3 ADD MSTORE PUSH18 0x105B1C9958591E481C9959DA5CDD195C9959 PUSH1 0x72 SHL PUSH1 0x44 DUP3 ADD MSTORE PUSH1 0x64 ADD PUSH2 0x7F1 JUMP JUMPDEST PUSH1 0x40 MLOAD DUP1 PUSH1 0xA0 ADD PUSH1 0x40 MSTORE DUP1 CALLER PUSH1 0x1 PUSH1 0x1 PUSH1 0xA0 SHL SUB AND DUP2 MSTORE PUSH1 0x20 ADD DUP5 DUP2 MSTORE PUSH1 0x20 ADD DUP4 PUSH1 0x5 DUP2 GT ISZERO PUSH2 0x1E9A JUMPI PUSH2 0x1E9A PUSH2 0x2638 JUMP JUMPDEST DUP2 MSTORE PUSH1 0x20 DUP1 DUP3 ADD DUP5 SWAP1 MSTORE PUSH1 0x1 PUSH1 0x40 SWAP3 DUP4 ADD DUP2 SWAP1 MSTORE CALLER PUSH0 SWAP1 DUP2 MSTORE PUSH1 0x7 DUP4 MSTORE SWAP3 SWAP1 SWAP3 KECCAK256 DUP4 MLOAD DUP2 SLOAD PUSH1 0x1 PUSH1 0x1 PUSH1 0xA0 SHL SUB NOT AND PUSH1 0x1 PUSH1 0x1 PUSH1 0xA0 SHL SUB SWAP1 SWAP2 AND OR DUP2 SSTORE SWAP1 DUP4 ADD MLOAD SWAP1 SWAP2 DUP3 ADD SWAP1 PUSH2 0x1EEA SWAP1 DUP3 PUSH2 0x2FD8 JUMP JUMPDEST POP PUSH1 0x40 DUP3 ADD MLOAD PUSH1 0x2 DUP3 ADD DUP1 SLOAD PUSH1 0xFF NOT AND PUSH1 0x1 DUP4 PUSH1 0x5 DUP2 GT ISZERO PUSH2 0x1F0E JUMPI PUSH2 0x1F0E PUSH2 0x2638 JUMP JUMPDEST MUL OR SWAP1 SSTORE POP PUSH1 0x60 DUP3 ADD MLOAD PUSH1 0x3 DUP3 ADD SWAP1 PUSH2 0x1F27 SWAP1 DUP3 PUSH2 0x2FD8 JUMP JUMPDEST POP PUSH1 0x80 SWAP2 SWAP1 SWAP2 ADD MLOAD PUSH1 0x4 SWAP1 SWAP2 ADD DUP1 SLOAD PUSH1 0xFF NOT AND SWAP2 ISZERO ISZERO SWAP2 SWAP1 SWAP2 OR SWAP1 SSTORE PUSH1 0x40 MLOAD CALLER SWAP1 PUSH32 0xC9A31DE765ABE70445345802BEE3C96554CA063AB257E3888D498ACCB859FABC SWAP1 PUSH2 0x17C7 SWAP1 DUP7 SWAP1 DUP7 SWAP1 PUSH2 0x30F5 JUMP JUMPDEST PUSH0 PUSH2 0x1F80 PUSH2 0x23DC JUMP JUMPDEST DUP4 PUSH2 0x1F8A DUP2 PUSH2 0x243F JUMP JUMPDEST PUSH1 0x3 DUP1 SLOAD PUSH0 SWAP2 DUP3 PUSH2 0x1F9A DUP4 PUSH2 0x2F68 JUMP JUMPDEST SWAP2 SWAP1 POP SSTORE SWAP1 POP PUSH1 0x40 MLOAD DUP1 PUSH1 0xE0 ADD PUSH1 0x40 MSTORE DUP1 DUP3 DUP2 MSTORE PUSH1 0x20 ADD DUP8 DUP2 MSTORE PUSH1 0x20 ADD DUP7 PUSH1 0x4 DUP2 GT ISZERO PUSH2 0x1FC9 JUMPI PUSH2 0x1FC9 PUSH2 0x2638 JUMP JUMPDEST DUP2 MSTORE PUSH1 0x20 ADD CALLER PUSH1 0x1 PUSH1 0x1 PUSH1 0xA0 SHL SUB AND DUP2 MSTORE PUSH1 0x20 ADD DUP6 DUP2 MSTORE PUSH1 0x20 ADD TIMESTAMP DUP2 MSTORE PUSH1 0x20 ADD PUSH0 ISZERO ISZERO DUP2 MSTORE POP PUSH1 0x6 PUSH0 DUP4 DUP2 MSTORE PUSH1 0x20 ADD SWAP1 DUP2 MSTORE PUSH1 0x20 ADD PUSH0 KECCAK256 PUSH0 DUP3 ADD MLOAD DUP2 PUSH0 ADD SSTORE PUSH1 0x20 DUP3 ADD MLOAD DUP2 PUSH1 0x1 ADD SSTORE PUSH1 0x40 DUP3 ADD MLOAD DUP2 PUSH1 0x2 ADD PUSH0 PUSH2 0x100 EXP DUP2 SLOAD DUP2 PUSH1 0xFF MUL NOT AND SWAP1 DUP4 PUSH1 0x4 DUP2 GT ISZERO PUSH2 0x203B JUMPI PUSH2 0x203B PUSH2 0x2638 JUMP JUMPDEST MUL OR SWAP1 SSTORE POP PUSH1 0x60 DUP3 ADD MLOAD PUSH1 0x2 DUP3 ADD DUP1 SLOAD PUSH1 0x1 PUSH1 0x1 PUSH1 0xA0 SHL SUB SWAP1 SWAP3 AND PUSH2 0x100 MUL PUSH2 0x100 PUSH1 0x1 PUSH1 0xA8 SHL SUB NOT SWAP1 SWAP3 AND SWAP2 SWAP1 SWAP2 OR SWAP1 SSTORE PUSH1 0x80 DUP3 ADD MLOAD PUSH1 0x3 DUP3 ADD SWAP1 PUSH2 0x2081 SWAP1 DUP3 PUSH2 0x2FD8 JUMP JUMPDEST POP PUSH1 0xA0 DUP3 ADD MLOAD PUSH1 0x4 DUP3 DUP2 ADD SWAP2 SWAP1 SWAP2 SSTORE PUSH1 0xC0 SWAP1 SWAP3 ADD MLOAD PUSH1 0x5 SWAP1 SWAP2 ADD DUP1 SLOAD PUSH1 0xFF NOT AND SWAP2 ISZERO ISZERO SWAP2 SWAP1 SWAP2 OR SWAP1 SSTORE PUSH0 DUP8 DUP2 MSTORE PUSH1 0x20 SWAP2 DUP3 MSTORE PUSH1 0x40 DUP1 DUP3 KECCAK256 PUSH1 0xA ADD DUP1 SLOAD PUSH1 0x1 DUP2 ADD DUP3 SSTORE SWAP1 DUP4 MSTORE SWAP3 SWAP1 SWAP2 KECCAK256 SWAP1 SWAP2 ADD DUP3 SWAP1 SSTORE MLOAD DUP7 SWAP1 DUP3 SWAP1 PUSH32 0xC2C9D0FA5CAECEA68B9EC6ACA764014B01764F779D8A510F0D0D6796B76B7C83 SWAP1 PUSH2 0x2102 SWAP1 DUP10 SWAP1 PUSH2 0x3116 JUMP JUMPDEST PUSH1 0x40 MLOAD DUP1 SWAP2 SUB SWAP1 LOG3 SWAP6 SWAP5 POP POP POP POP POP JUMP JUMPDEST PUSH1 0x7 PUSH1 0x20 MSTORE PUSH0 SWAP1 DUP2 MSTORE PUSH1 0x40 SWAP1 KECCAK256 DUP1 SLOAD PUSH1 0x1 DUP3 ADD DUP1 SLOAD PUSH1 0x1 PUSH1 0x1 PUSH1 0xA0 SHL SUB SWAP1 SWAP3 AND SWAP3 SWAP2 PUSH2 0x213E SWAP1 PUSH2 0x2F36 JUMP JUMPDEST DUP1 PUSH1 0x1F ADD PUSH1 0x20 DUP1 SWAP2 DIV MUL PUSH1 0x20 ADD PUSH1 0x40 MLOAD SWAP1 DUP2 ADD PUSH1 0x40 MSTORE DUP1 SWAP3 SWAP2 SWAP1 DUP2 DUP2 MSTORE PUSH1 0x20 ADD DUP3 DUP1 SLOAD PUSH2 0x216A SWAP1 PUSH2 0x2F36 JUMP JUMPDEST DUP1 ISZERO PUSH2 0x21B5 JUMPI DUP1 PUSH1 0x1F LT PUSH2 0x218C JUMPI PUSH2 0x100 DUP1 DUP4 SLOAD DIV MUL DUP4 MSTORE SWAP2 PUSH1 0x20 ADD SWAP2 PUSH2 0x21B5 JUMP JUMPDEST DUP3 ADD SWAP2 SWAP1 PUSH0 MSTORE PUSH1 0x20 PUSH0 KECCAK256 SWAP1 JUMPDEST DUP2 SLOAD DUP2 MSTORE SWAP1 PUSH1 0x1 ADD SWAP1 PUSH1 0x20 ADD DUP1 DUP4 GT PUSH2 0x2198 JUMPI DUP3 SWAP1 SUB PUSH1 0x1F AND DUP3 ADD SWAP2 JUMPDEST POP POP POP PUSH1 0x2 DUP5 ADD SLOAD PUSH1 0x3 DUP6 ADD DUP1 SLOAD SWAP5 SWAP6 PUSH1 0xFF SWAP1 SWAP3 AND SWAP5 SWAP2 SWAP4 POP SWAP2 POP PUSH2 0x21D9 SWAP1 PUSH2 0x2F36 JUMP JUMPDEST DUP1 PUSH1 0x1F ADD PUSH1 0x20 DUP1 SWAP2 DIV MUL PUSH1 0x20 ADD PUSH1 0x40 MLOAD SWAP1 DUP2 ADD PUSH1 0x40 MSTORE DUP1 SWAP3 SWAP2 SWAP1 DUP2 DUP2 MSTORE PUSH1 0x20 ADD DUP3 DUP1 SLOAD PUSH2 0x2205 SWAP1 PUSH2 0x2F36 JUMP JUMPDEST DUP1 ISZERO PUSH2 0x2250 JUMPI DUP1 PUSH1 0x1F LT PUSH2 0x2227 JUMPI PUSH2 0x100 DUP1 DUP4 SLOAD DIV MUL DUP4 MSTORE SWAP2 PUSH1 0x20 ADD SWAP2 PUSH2 0x2250 JUMP JUMPDEST DUP3 ADD SWAP2 SWAP1 PUSH0 MSTORE PUSH1 0x20 PUSH0 KECCAK256 SWAP1 JUMPDEST DUP2 SLOAD DUP2 MSTORE SWAP1 PUSH1 0x1 ADD SWAP1 PUSH1 0x20 ADD DUP1 DUP4 GT PUSH2 0x2233 JUMPI DUP3 SWAP1 SUB PUSH1 0x1F AND DUP3 ADD SWAP2 JUMPDEST POP POP POP PUSH1 0x4 SWAP1 SWAP4 ADD SLOAD SWAP2 SWAP3 POP POP PUSH1 0xFF AND DUP6 JUMP JUMPDEST PUSH2 0x226B PUSH2 0x249E JUMP JUMPDEST PUSH1 0x1 PUSH1 0x1 PUSH1 0xA0 SHL SUB AND PUSH0 SWAP1 DUP2 MSTORE PUSH1 0x7 PUSH1 0x20 MSTORE PUSH1 0x40 SWAP1 KECCAK256 PUSH1 0x4 ADD DUP1 SLOAD PUSH1 0xFF NOT AND SWAP1 SSTORE JUMP JUMPDEST DUP1 PUSH2 0x2298 DUP2 PUSH2 0x243F JUMP JUMPDEST PUSH0 DUP3 DUP2 MSTORE PUSH1 0x4 PUSH1 0x20 MSTORE PUSH1 0x40 SWAP1 KECCAK256 PUSH1 0x2 DUP2 ADD SLOAD PUSH1 0x1 PUSH1 0x1 PUSH1 0xA0 SHL SUB AND CALLER EQ PUSH2 0x2301 JUMPI PUSH1 0x40 MLOAD PUSH3 0x461BCD PUSH1 0xE5 SHL DUP2 MSTORE PUSH1 0x20 PUSH1 0x4 DUP3 ADD MSTORE PUSH1 0x1A PUSH1 0x24 DUP3 ADD MSTORE PUSH32 0x4F6E6C7920726563697069656E742063616E20636F6E6669726D000000000000 PUSH1 0x44 DUP3 ADD MSTORE PUSH1 0x64 ADD PUSH2 0x7F1 JUMP JUMPDEST PUSH1 0x4 PUSH1 0x8 DUP3 ADD SLOAD PUSH1 0xFF AND PUSH1 0x6 DUP2 GT ISZERO PUSH2 0x231C JUMPI PUSH2 0x231C PUSH2 0x2638 JUMP JUMPDEST SUB PUSH2 0x235D JUMPI PUSH1 0x40 MLOAD PUSH3 0x461BCD PUSH1 0xE5 SHL DUP2 MSTORE PUSH1 0x20 PUSH1 0x4 DUP3 ADD MSTORE PUSH1 0x11 PUSH1 0x24 DUP3 ADD MSTORE PUSH17 0x105B1C9958591E4819195B1A5D995C9959 PUSH1 0x7A SHL PUSH1 0x44 DUP3 ADD MSTORE PUSH1 0x64 ADD PUSH2 0x7F1 JUMP JUMPDEST PUSH1 0x8 DUP2 ADD DUP1 SLOAD PUSH1 0xFF NOT AND PUSH1 0x4 OR SWAP1 SSTORE TIMESTAMP PUSH1 0x7 DUP3 ADD DUP2 SWAP1 SSTORE PUSH1 0x40 MLOAD SWAP1 DUP2 MSTORE CALLER SWAP1 DUP5 SWAP1 PUSH32 0x2F4A952729DB32131CB3D658CC231127E0CE7E50F83508ECE9A49C985F2384D0 SWAP1 PUSH1 0x20 ADD PUSH1 0x40 MLOAD DUP1 SWAP2 SUB SWAP1 LOG3 DUP3 PUSH32 0x7C1C93F72F29B8A1FC6FC85EED990D133B1FFAC80C962B521ABB12F38F2FF9AF PUSH1 0x4 PUSH1 0x40 MLOAD PUSH2 0x17C7 SWAP2 SWAP1 PUSH2 0x30E1 JUMP JUMPDEST CALLER PUSH0 SWAP1 DUP2 MSTORE PUSH1 0x7 PUSH1 0x20 MSTORE PUSH1 0x40 SWAP1 KECCAK256 PUSH1 0x4 ADD SLOAD PUSH1 0xFF AND PUSH2 0x243D JUMPI PUSH1 0x40 MLOAD PUSH3 0x461BCD PUSH1 0xE5 SHL DUP2 MSTORE PUSH1 0x20 PUSH1 0x4 DUP3 ADD DUP2 SWAP1 MSTORE PUSH1 0x24 DUP3 ADD MSTORE PUSH32 0x4163746F72206E6F742072656769737465726564206F7220696E616374697665 PUSH1 0x44 DUP3 ADD MSTORE PUSH1 0x64 ADD PUSH2 0x7F1 JUMP JUMPDEST JUMP JUMPDEST PUSH0 DUP2 GT DUP1 ISZERO PUSH2 0x244F JUMPI POP PUSH1 0x1 SLOAD DUP2 LT JUMPDEST PUSH2 0x249B JUMPI PUSH1 0x40 MLOAD PUSH3 0x461BCD PUSH1 0xE5 SHL DUP2 MSTORE PUSH1 0x20 PUSH1 0x4 DUP3 ADD MSTORE PUSH1 0x17 PUSH1 0x24 DUP3 ADD MSTORE PUSH32 0x536869706D656E7420646F6573206E6F74206578697374000000000000000000 PUSH1 0x44 DUP3 ADD MSTORE PUSH1 0x64 ADD PUSH2 0x7F1 JUMP JUMPDEST POP JUMP JUMPDEST PUSH0 SLOAD PUSH1 0x1 PUSH1 0x1 PUSH1 0xA0 SHL SUB AND CALLER EQ PUSH2 0x243D JUMPI PUSH1 0x40 MLOAD PUSH3 0x461BCD PUSH1 0xE5 SHL DUP2 MSTORE PUSH1 0x20 PUSH1 0x4 DUP3 ADD MSTORE PUSH1 0xA PUSH1 0x24 DUP3 ADD MSTORE PUSH10 0x27B7363C9030B236B4B7 PUSH1 0xB1 SHL PUSH1 0x44 DUP3 ADD MSTORE PUSH1 0x64 ADD PUSH2 0x7F1 JUMP JUMPDEST PUSH1 0x40 MLOAD DUP1 PUSH2 0x180 ADD PUSH1 0x40 MSTORE DUP1 PUSH0 DUP2 MSTORE PUSH1 0x20 ADD PUSH0 PUSH1 0x1 PUSH1 0x1 PUSH1 0xA0 SHL SUB AND DUP2 MSTORE PUSH1 0x20 ADD PUSH0 PUSH1 0x1 PUSH1 0x1 PUSH1 0xA0 SHL SUB AND DUP2 MSTORE PUSH1 0x20 ADD PUSH1 0x60 DUP2 MSTORE PUSH1 0x20 ADD PUSH1 0x60 DUP2 MSTORE PUSH1 0x20 ADD PUSH1 0x60 DUP2 MSTORE PUSH1 0x20 ADD PUSH0 DUP2 MSTORE PUSH1 0x20 ADD PUSH0 DUP2 MSTORE PUSH1 0x20 ADD PUSH0 PUSH1 0x6 DUP2 GT ISZERO PUSH2 0x2547 JUMPI PUSH2 0x2547 PUSH2 0x2638 JUMP JUMPDEST DUP2 MSTORE PUSH1 0x60 PUSH1 0x20 DUP3 ADD DUP2 SWAP1 MSTORE PUSH1 0x40 DUP3 ADD DUP2 SWAP1 MSTORE PUSH0 SWAP2 ADD MSTORE SWAP1 JUMP JUMPDEST PUSH1 0x40 MLOAD DUP1 PUSH2 0x100 ADD PUSH1 0x40 MSTORE DUP1 PUSH0 DUP2 MSTORE PUSH1 0x20 ADD PUSH0 DUP2 MSTORE PUSH1 0x20 ADD PUSH0 PUSH1 0x1 PUSH1 0x1 PUSH1 0xA0 SHL SUB AND DUP2 MSTORE PUSH1 0x20 ADD PUSH1 0x60 DUP2 MSTORE PUSH1 0x20 ADD PUSH1 0x60 DUP2 MSTORE PUSH1 0x20 ADD PUSH0 DUP2 MSTORE PUSH1 0x20 ADD PUSH1 0x60 DUP2 MSTORE PUSH1 0x20 ADD PUSH0 DUP2 MSTORE POP SWAP1 JUMP JUMPDEST PUSH1 0x40 MLOAD DUP1 PUSH1 0xE0 ADD PUSH1 0x40 MSTORE DUP1 PUSH0 DUP2 MSTORE PUSH1 0x20 ADD PUSH0 DUP2 MSTORE PUSH1 0x20 ADD PUSH0 PUSH1 0x4 DUP2 GT ISZERO PUSH2 0x25D2 JUMPI PUSH2 0x25D2 PUSH2 0x2638 JUMP JUMPDEST DUP2 MSTORE PUSH0 PUSH1 0x20 DUP3 ADD DUP2 SWAP1 MSTORE PUSH1 0x60 PUSH1 0x40 DUP4 ADD DUP2 SWAP1 MSTORE DUP3 ADD DUP2 SWAP1 MSTORE PUSH1 0x80 SWAP1 SWAP2 ADD MSTORE SWAP1 JUMP JUMPDEST PUSH0 PUSH1 0x20 DUP3 DUP5 SUB SLT ISZERO PUSH2 0x2603 JUMPI PUSH0 PUSH0 REVERT JUMPDEST POP CALLDATALOAD SWAP2 SWAP1 POP JUMP JUMPDEST PUSH0 DUP2 MLOAD DUP1 DUP5 MSTORE DUP1 PUSH1 0x20 DUP5 ADD PUSH1 0x20 DUP7 ADD MCOPY PUSH0 PUSH1 0x20 DUP3 DUP7 ADD ADD MSTORE PUSH1 0x20 PUSH1 0x1F NOT PUSH1 0x1F DUP4 ADD AND DUP6 ADD ADD SWAP2 POP POP SWAP3 SWAP2 POP POP JUMP JUMPDEST PUSH4 0x4E487B71 PUSH1 0xE0 SHL PUSH0 MSTORE PUSH1 0x21 PUSH1 0x4 MSTORE PUSH1 0x24 PUSH0 REVERT JUMPDEST PUSH1 0x7 DUP2 LT PUSH2 0x265C JUMPI PUSH2 0x265C PUSH2 0x2638 JUMP JUMPDEST SWAP1 MSTORE JUMP JUMPDEST PUSH0 DUP2 MLOAD DUP1 DUP5 MSTORE PUSH1 0x20 DUP5 ADD SWAP4 POP PUSH1 0x20 DUP4 ADD PUSH0 JUMPDEST DUP3 DUP2 LT ISZERO PUSH2 0x2690 JUMPI DUP2 MLOAD DUP7 MSTORE PUSH1 0x20 SWAP6 DUP7 ADD SWAP6 SWAP1 SWAP2 ADD SWAP1 PUSH1 0x1 ADD PUSH2 0x2672 JUMP JUMPDEST POP SWAP4 SWAP5 SWAP4 POP POP POP POP JUMP JUMPDEST PUSH1 0x20 DUP2 MSTORE DUP2 MLOAD PUSH1 0x20 DUP3 ADD MSTORE PUSH0 PUSH1 0x20 DUP4 ADD MLOAD PUSH2 0x26C0 PUSH1 0x40 DUP5 ADD DUP3 PUSH1 0x1 PUSH1 0x1 PUSH1 0xA0 SHL SUB AND SWAP1 MSTORE JUMP JUMPDEST POP PUSH1 0x40 DUP4 ADD MLOAD PUSH1 0x1 PUSH1 0x1 PUSH1 0xA0 SHL SUB DUP2 AND PUSH1 0x60 DUP5 ADD MSTORE POP PUSH1 0x60 DUP4 ADD MLOAD PUSH2 0x180 PUSH1 0x80 DUP5 ADD MSTORE PUSH2 0x26F1 PUSH2 0x1A0 DUP5 ADD DUP3 PUSH2 0x260A JUMP JUMPDEST SWAP1 POP PUSH1 0x80 DUP5 ADD MLOAD PUSH1 0x1F NOT DUP5 DUP4 SUB ADD PUSH1 0xA0 DUP6 ADD MSTORE PUSH2 0x270E DUP3 DUP3 PUSH2 0x260A JUMP JUMPDEST SWAP2 POP POP PUSH1 0xA0 DUP5 ADD MLOAD PUSH1 0x1F NOT DUP5 DUP4 SUB ADD PUSH1 0xC0 DUP6 ADD MSTORE PUSH2 0x272C DUP3 DUP3 PUSH2 0x260A JUMP JUMPDEST SWAP2 POP POP PUSH1 0xC0 DUP5 ADD MLOAD PUSH1 0xE0 DUP5 ADD MSTORE PUSH1 0xE0 DUP5 ADD MLOAD PUSH2 0x100 DUP5 ADD MSTORE PUSH2 0x100 DUP5 ADD MLOAD PUSH2 0x2758 PUSH2 0x120 DUP6 ADD DUP3 PUSH2 0x264C JUMP JUMPDEST POP PUSH2 0x120 DUP5 ADD MLOAD DUP4 DUP3 SUB PUSH1 0x1F NOT ADD PUSH2 0x140 DUP6 ADD MSTORE PUSH2 0x2776 DUP3 DUP3 PUSH2 0x2660 JUMP JUMPDEST SWAP2 POP POP PUSH2 0x140 DUP5 ADD MLOAD PUSH1 0x1F NOT DUP5 DUP4 SUB ADD PUSH2 0x160 DUP6 ADD MSTORE PUSH2 0x2796 DUP3 DUP3 PUSH2 0x2660 JUMP JUMPDEST SWAP2 POP POP PUSH2 0x160 DUP5 ADD MLOAD PUSH2 0x14A1 PUSH2 0x180 DUP6 ADD DUP3 ISZERO ISZERO SWAP1 MSTORE JUMP JUMPDEST DUP1 MLOAD DUP3 MSTORE PUSH1 0x20 DUP2 ADD MLOAD PUSH1 0x20 DUP4 ADD MSTORE PUSH0 PUSH1 0x40 DUP3 ADD MLOAD PUSH2 0x27D7 PUSH1 0x40 DUP6 ADD DUP3 PUSH1 0x1 PUSH1 0x1 PUSH1 0xA0 SHL SUB AND SWAP1 MSTORE JUMP JUMPDEST POP PUSH1 0x60 DUP3 ADD MLOAD PUSH2 0x100 PUSH1 0x60 DUP6 ADD MSTORE PUSH2 0x27F3 PUSH2 0x100 DUP6 ADD DUP3 PUSH2 0x260A JUMP JUMPDEST SWAP1 POP PUSH1 0x80 DUP4 ADD MLOAD DUP5 DUP3 SUB PUSH1 0x80 DUP7 ADD MSTORE PUSH2 0x280C DUP3 DUP3 PUSH2 0x260A JUMP JUMPDEST SWAP2 POP POP PUSH1 0xA0 DUP4 ADD MLOAD PUSH1 0xA0 DUP6 ADD MSTORE PUSH1 0xC0 DUP4 ADD MLOAD DUP5 DUP3 SUB PUSH1 0xC0 DUP7 ADD MSTORE PUSH2 0x2830 DUP3 DUP3 PUSH2 0x260A JUMP JUMPDEST SWAP2 POP POP PUSH1 0xE0 DUP4 ADD MLOAD PUSH1 0xE0 DUP6 ADD MSTORE DUP1 SWAP2 POP POP SWAP3 SWAP2 POP POP JUMP JUMPDEST PUSH1 0x20 DUP2 MSTORE PUSH0 PUSH2 0x2859 PUSH1 0x20 DUP4 ADD DUP5 PUSH2 0x27AE JUMP JUMPDEST SWAP4 SWAP3 POP POP POP JUMP JUMPDEST DUP11 DUP2 MSTORE PUSH1 0x1 PUSH1 0x1 PUSH1 0xA0 SHL SUB DUP11 DUP2 AND PUSH1 0x20 DUP4 ADD MSTORE DUP10 AND PUSH1 0x40 DUP3 ADD MSTORE PUSH2 0x140 PUSH1 0x60 DUP3 ADD DUP2 SWAP1 MSTORE PUSH0 SWAP1 PUSH2 0x2892 SWAP1 DUP4 ADD DUP11 PUSH2 0x260A JUMP JUMPDEST DUP3 DUP2 SUB PUSH1 0x80 DUP5 ADD MSTORE PUSH2 0x28A4 DUP2 DUP11 PUSH2 0x260A JUMP JUMPDEST SWAP1 POP DUP3 DUP2 SUB PUSH1 0xA0 DUP5 ADD MSTORE PUSH2 0x28B8 DUP2 DUP10 PUSH2 0x260A JUMP JUMPDEST SWAP2 POP POP DUP6 PUSH1 0xC0 DUP4 ADD MSTORE DUP5 PUSH1 0xE0 DUP4 ADD MSTORE PUSH2 0x28D5 PUSH2 0x100 DUP4 ADD DUP6 PUSH2 0x264C JUMP JUMPDEST DUP3 ISZERO ISZERO PUSH2 0x120 DUP4 ADD MSTORE SWAP12 SWAP11 POP POP POP POP POP POP POP POP POP POP POP JUMP JUMPDEST PUSH4 0x4E487B71 PUSH1 0xE0 SHL PUSH0 MSTORE PUSH1 0x41 PUSH1 0x4 MSTORE PUSH1 0x24 PUSH0 REVERT JUMPDEST PUSH0 DUP3 PUSH1 0x1F DUP4 ADD SLT PUSH2 0x2910 JUMPI PUSH0 PUSH0 REVERT JUMPDEST DUP2 CALLDATALOAD PUSH1 0x1 PUSH1 0x1 PUSH1 0x40 SHL SUB DUP2 GT ISZERO PUSH2 0x2929 JUMPI PUSH2 0x2929 PUSH2 0x28ED JUMP JUMPDEST PUSH1 0x40 MLOAD PUSH1 0x1F DUP3 ADD PUSH1 0x1F NOT SWAP1 DUP2 AND PUSH1 0x3F ADD AND DUP2 ADD PUSH1 0x1 PUSH1 0x1 PUSH1 0x40 SHL SUB DUP2 GT DUP3 DUP3 LT OR ISZERO PUSH2 0x2957 JUMPI PUSH2 0x2957 PUSH2 0x28ED JUMP JUMPDEST PUSH1 0x40 MSTORE DUP2 DUP2 MSTORE DUP4 DUP3 ADD PUSH1 0x20 ADD DUP6 LT ISZERO PUSH2 0x296E JUMPI PUSH0 PUSH0 REVERT JUMPDEST DUP2 PUSH1 0x20 DUP6 ADD PUSH1 0x20 DUP4 ADD CALLDATACOPY PUSH0 SWAP2 DUP2 ADD PUSH1 0x20 ADD SWAP2 SWAP1 SWAP2 MSTORE SWAP4 SWAP3 POP POP POP JUMP JUMPDEST PUSH0 PUSH0 PUSH0 PUSH0 PUSH0 PUSH1 0xA0 DUP7 DUP9 SUB SLT ISZERO PUSH2 0x299E JUMPI PUSH0 PUSH0 REVERT JUMPDEST DUP6 CALLDATALOAD SWAP5 POP PUSH1 0x20 DUP7 ADD CALLDATALOAD PUSH1 0x1 PUSH1 0x1 PUSH1 0x40 SHL SUB DUP2 GT ISZERO PUSH2 0x29BA JUMPI PUSH0 PUSH0 REVERT JUMPDEST PUSH2 0x29C6 DUP9 DUP3 DUP10 ADD PUSH2 0x2901 JUMP JUMPDEST SWAP5 POP POP PUSH1 0x40 DUP7 ADD CALLDATALOAD PUSH1 0x1 PUSH1 0x1 PUSH1 0x40 SHL SUB DUP2 GT ISZERO PUSH2 0x29E1 JUMPI PUSH0 PUSH0 REVERT JUMPDEST PUSH2 0x29ED DUP9 DUP3 DUP10 ADD PUSH2 0x2901 JUMP JUMPDEST SWAP4 POP POP PUSH1 0x60 DUP7 ADD CALLDATALOAD PUSH1 0x1 PUSH1 0x1 PUSH1 0x40 SHL SUB DUP2 GT ISZERO PUSH2 0x2A08 JUMPI PUSH0 PUSH0 REVERT JUMPDEST PUSH2 0x2A14 DUP9 DUP3 DUP10 ADD PUSH2 0x2901 JUMP JUMPDEST SWAP6 SWAP9 SWAP5 SWAP8 POP SWAP3 SWAP6 PUSH1 0x80 ADD CALLDATALOAD SWAP4 SWAP3 POP POP POP JUMP JUMPDEST DUP1 CALLDATALOAD PUSH1 0x1 PUSH1 0x1 PUSH1 0xA0 SHL SUB DUP2 AND DUP2 EQ PUSH2 0x2A3C JUMPI PUSH0 PUSH0 REVERT JUMPDEST SWAP2 SWAP1 POP JUMP JUMPDEST PUSH0 PUSH1 0x20 DUP3 DUP5 SUB SLT ISZERO PUSH2 0x2A51 JUMPI PUSH0 PUSH0 REVERT JUMPDEST PUSH2 0x2859 DUP3 PUSH2 0x2A26 JUMP JUMPDEST PUSH1 0x6 DUP2 LT PUSH2 0x265C JUMPI PUSH2 0x265C PUSH2 0x2638 JUMP JUMPDEST PUSH1 0x20 DUP1 DUP3 MSTORE DUP3 MLOAD PUSH1 0x1 PUSH1 0x1 PUSH1 0xA0 SHL SUB AND DUP3 DUP3 ADD MSTORE DUP3 ADD MLOAD PUSH1 0xA0 PUSH1 0x40 DUP4 ADD MSTORE PUSH0 SWAP1 PUSH2 0x2A97 PUSH1 0xC0 DUP5 ADD DUP3 PUSH2 0x260A JUMP JUMPDEST SWAP1 POP PUSH1 0x40 DUP5 ADD MLOAD PUSH2 0x2AAB PUSH1 0x60 DUP6 ADD DUP3 PUSH2 0x2A5A JUMP JUMPDEST POP PUSH1 0x60 DUP5 ADD MLOAD DUP4 DUP3 SUB PUSH1 0x1F NOT ADD PUSH1 0x80 DUP6 ADD MSTORE PUSH2 0x2AC7 DUP3 DUP3 PUSH2 0x260A JUMP JUMPDEST SWAP2 POP POP PUSH1 0x80 DUP5 ADD MLOAD ISZERO ISZERO PUSH1 0xA0 DUP5 ADD MSTORE DUP1 SWAP2 POP POP SWAP3 SWAP2 POP POP JUMP JUMPDEST PUSH0 PUSH0 PUSH0 PUSH0 PUSH0 PUSH1 0xA0 DUP7 DUP9 SUB SLT ISZERO PUSH2 0x2AF4 JUMPI PUSH0 PUSH0 REVERT JUMPDEST PUSH2 0x2AFD DUP7 PUSH2 0x2A26 JUMP JUMPDEST SWAP5 POP PUSH1 0x20 DUP7 ADD CALLDATALOAD PUSH1 0x1 PUSH1 0x1 PUSH1 0x40 SHL SUB DUP2 GT ISZERO PUSH2 0x2B17 JUMPI PUSH0 PUSH0 REVERT JUMPDEST PUSH2 0x2B23 DUP9 DUP3 DUP10 ADD PUSH2 0x2901 JUMP JUMPDEST SWAP5 POP POP PUSH1 0x40 DUP7 ADD CALLDATALOAD PUSH1 0x1 PUSH1 0x1 PUSH1 0x40 SHL SUB DUP2 GT ISZERO PUSH2 0x2B3E JUMPI PUSH0 PUSH0 REVERT JUMPDEST PUSH2 0x2B4A DUP9 DUP3 DUP10 ADD PUSH2 0x2901 JUMP JUMPDEST SWAP4 POP POP PUSH1 0x60 DUP7 ADD CALLDATALOAD PUSH1 0x1 PUSH1 0x1 PUSH1 0x40 SHL SUB DUP2 GT ISZERO PUSH2 0x2B65 JUMPI PUSH0 PUSH0 REVERT JUMPDEST PUSH2 0x2B71 DUP9 DUP3 DUP10 ADD PUSH2 0x2901 JUMP JUMPDEST SWAP3 POP POP PUSH1 0x80 DUP7 ADD CALLDATALOAD DUP1 ISZERO ISZERO DUP2 EQ PUSH2 0x2B86 JUMPI PUSH0 PUSH0 REVERT JUMPDEST DUP1 SWAP2 POP POP SWAP3 SWAP6 POP SWAP3 SWAP6 SWAP1 SWAP4 POP JUMP JUMPDEST PUSH0 PUSH1 0x20 DUP3 ADD PUSH1 0x20 DUP4 MSTORE DUP1 DUP5 MLOAD DUP1 DUP4 MSTORE PUSH1 0x40 DUP6 ADD SWAP2 POP PUSH1 0x40 DUP2 PUSH1 0x5 SHL DUP7 ADD ADD SWAP3 POP PUSH1 0x20 DUP7 ADD PUSH0 JUMPDEST DUP3 DUP2 LT ISZERO PUSH2 0x2BEB JUMPI PUSH1 0x3F NOT DUP8 DUP7 SUB ADD DUP5 MSTORE PUSH2 0x2BD6 DUP6 DUP4 MLOAD PUSH2 0x27AE JUMP JUMPDEST SWAP5 POP PUSH1 0x20 SWAP4 DUP5 ADD SWAP4 SWAP2 SWAP1 SWAP2 ADD SWAP1 PUSH1 0x1 ADD PUSH2 0x2BBA JUMP JUMPDEST POP SWAP3 SWAP7 SWAP6 POP POP POP POP POP POP JUMP JUMPDEST PUSH1 0x20 DUP1 DUP3 MSTORE DUP3 MLOAD DUP3 DUP3 ADD DUP2 SWAP1 MSTORE PUSH0 SWAP2 DUP5 ADD SWAP1 PUSH1 0x40 DUP5 ADD SWAP1 DUP4 JUMPDEST DUP2 DUP2 LT ISZERO PUSH2 0x2C2E JUMPI DUP4 MLOAD DUP4 MSTORE PUSH1 0x20 SWAP4 DUP5 ADD SWAP4 SWAP1 SWAP3 ADD SWAP2 PUSH1 0x1 ADD PUSH2 0x2C10 JUMP JUMPDEST POP SWAP1 SWAP6 SWAP5 POP POP POP POP POP JUMP JUMPDEST PUSH1 0x5 DUP2 LT PUSH2 0x265C JUMPI PUSH2 0x265C PUSH2 0x2638 JUMP JUMPDEST DUP1 MLOAD DUP3 MSTORE PUSH1 0x20 DUP2 ADD MLOAD PUSH1 0x20 DUP4 ADD MSTORE PUSH0 PUSH1 0x40 DUP3 ADD MLOAD PUSH2 0x2C6A PUSH1 0x40 DUP6 ADD DUP3 PUSH2 0x2C39 JUMP JUMPDEST POP PUSH1 0x1 DUP1 PUSH1 0xA0 SHL SUB PUSH1 0x60 DUP4 ADD MLOAD AND PUSH1 0x60 DUP5 ADD MSTORE PUSH1 0x80 DUP3 ADD MLOAD PUSH1 0xE0 PUSH1 0x80 DUP6 ADD MSTORE PUSH2 0x2C96 PUSH1 0xE0 DUP6 ADD DUP3 PUSH2 0x260A JUMP JUMPDEST SWAP1 POP PUSH1 0xA0 DUP4 ADD MLOAD PUSH1 0xA0 DUP6 ADD MSTORE PUSH1 0xC0 DUP4 ADD MLOAD ISZERO ISZERO PUSH1 0xC0 DUP6 ADD MSTORE DUP1 SWAP2 POP POP SWAP3 SWAP2 POP POP JUMP JUMPDEST PUSH0 PUSH1 0x20 DUP3 ADD PUSH1 0x20 DUP4 MSTORE DUP1 DUP5 MLOAD DUP1 DUP4 MSTORE PUSH1 0x40 DUP6 ADD SWAP2 POP PUSH1 0x40 DUP2 PUSH1 0x5 SHL DUP7 ADD ADD SWAP3 POP PUSH1 0x20 DUP7 ADD PUSH0 JUMPDEST DUP3 DUP2 LT ISZERO PUSH2 0x2BEB JUMPI PUSH1 0x3F NOT DUP8 DUP7 SUB ADD DUP5 MSTORE PUSH2 0x2CFA DUP6 DUP4 MLOAD PUSH2 0x2C49 JUMP JUMPDEST SWAP5 POP PUSH1 0x20 SWAP4 DUP5 ADD SWAP4 SWAP2 SWAP1 SWAP2 ADD SWAP1 PUSH1 0x1 ADD PUSH2 0x2CDE JUMP JUMPDEST PUSH0 PUSH0 PUSH1 0x40 DUP4 DUP6 SUB SLT ISZERO PUSH2 0x2D20 JUMPI PUSH0 PUSH0 REVERT JUMPDEST DUP3 CALLDATALOAD SWAP2 POP PUSH1 0x20 DUP4 ADD CALLDATALOAD PUSH1 0x7 DUP2 LT PUSH2 0x2D35 JUMPI PUSH0 PUSH0 REVERT JUMPDEST DUP1 SWAP2 POP POP SWAP3 POP SWAP3 SWAP1 POP JUMP JUMPDEST PUSH1 0x20 DUP2 MSTORE PUSH0 PUSH2 0x2859 PUSH1 0x20 DUP4 ADD DUP5 PUSH2 0x2C49 JUMP JUMPDEST PUSH0 PUSH0 PUSH1 0x40 DUP4 DUP6 SUB SLT ISZERO PUSH2 0x2D63 JUMPI PUSH0 PUSH0 REVERT JUMPDEST PUSH2 0x2D6C DUP4 PUSH2 0x2A26 JUMP JUMPDEST SWAP5 PUSH1 0x20 SWAP4 SWAP1 SWAP4 ADD CALLDATALOAD SWAP4 POP POP POP JUMP JUMPDEST DUP8 DUP2 MSTORE DUP7 PUSH1 0x20 DUP3 ADD MSTORE PUSH2 0x2D90 PUSH1 0x40 DUP3 ADD DUP8 PUSH2 0x2C39 JUMP JUMPDEST PUSH1 0x1 PUSH1 0x1 PUSH1 0xA0 SHL SUB DUP6 AND PUSH1 0x60 DUP3 ADD MSTORE PUSH1 0xE0 PUSH1 0x80 DUP3 ADD DUP2 SWAP1 MSTORE PUSH0 SWAP1 PUSH2 0x2DB6 SWAP1 DUP4 ADD DUP7 PUSH2 0x260A JUMP JUMPDEST PUSH1 0xA0 DUP4 ADD SWAP5 SWAP1 SWAP5 MSTORE POP SWAP1 ISZERO ISZERO PUSH1 0xC0 SWAP1 SWAP2 ADD MSTORE SWAP6 SWAP5 POP POP POP POP POP JUMP JUMPDEST DUP9 DUP2 MSTORE DUP8 PUSH1 0x20 DUP3 ADD MSTORE PUSH1 0x1 DUP1 PUSH1 0xA0 SHL SUB DUP8 AND PUSH1 0x40 DUP3 ADD MSTORE PUSH2 0x100 PUSH1 0x60 DUP3 ADD MSTORE PUSH0 PUSH2 0x2DFF PUSH2 0x100 DUP4 ADD DUP9 PUSH2 0x260A JUMP JUMPDEST DUP3 DUP2 SUB PUSH1 0x80 DUP5 ADD MSTORE PUSH2 0x2E11 DUP2 DUP9 PUSH2 0x260A JUMP JUMPDEST SWAP1 POP DUP6 PUSH1 0xA0 DUP5 ADD MSTORE DUP3 DUP2 SUB PUSH1 0xC0 DUP5 ADD MSTORE PUSH2 0x2E2B DUP2 DUP7 PUSH2 0x260A JUMP JUMPDEST SWAP2 POP POP DUP3 PUSH1 0xE0 DUP4 ADD MSTORE SWAP10 SWAP9 POP POP POP POP POP POP POP POP POP JUMP JUMPDEST PUSH0 PUSH0 PUSH0 PUSH1 0x60 DUP5 DUP7 SUB SLT ISZERO PUSH2 0x2E53 JUMPI PUSH0 PUSH0 REVERT JUMPDEST DUP4 CALLDATALOAD PUSH1 0x1 PUSH1 0x1 PUSH1 0x40 SHL SUB DUP2 GT ISZERO PUSH2 0x2E68 JUMPI PUSH0 PUSH0 REVERT JUMPDEST PUSH2 0x2E74 DUP7 DUP3 DUP8 ADD PUSH2 0x2901 JUMP JUMPDEST SWAP4 POP POP PUSH1 0x20 DUP5 ADD CALLDATALOAD PUSH1 0x6 DUP2 LT PUSH2 0x2E88 JUMPI PUSH0 PUSH0 REVERT JUMPDEST SWAP2 POP PUSH1 0x40 DUP5 ADD CALLDATALOAD PUSH1 0x1 PUSH1 0x1 PUSH1 0x40 SHL SUB DUP2 GT ISZERO PUSH2 0x2EA2 JUMPI PUSH0 PUSH0 REVERT JUMPDEST PUSH2 0x2EAE DUP7 DUP3 DUP8 ADD PUSH2 0x2901 JUMP JUMPDEST SWAP2 POP POP SWAP3 POP SWAP3 POP SWAP3 JUMP JUMPDEST PUSH0 PUSH0 PUSH0 PUSH1 0x60 DUP5 DUP7 SUB SLT ISZERO PUSH2 0x2ECA JUMPI PUSH0 PUSH0 REVERT JUMPDEST DUP4 CALLDATALOAD SWAP3 POP PUSH1 0x20 DUP5 ADD CALLDATALOAD PUSH1 0x5 DUP2 LT PUSH2 0x2E88 JUMPI PUSH0 PUSH0 REVERT JUMPDEST PUSH1 0x1 PUSH1 0x1 PUSH1 0xA0 SHL SUB DUP7 AND DUP2 MSTORE PUSH1 0xA0 PUSH1 0x20 DUP3 ADD DUP2 SWAP1 MSTORE PUSH0 SWAP1 PUSH2 0x2F02 SWAP1 DUP4 ADD DUP8 PUSH2 0x260A JUMP JUMPDEST PUSH2 0x2F0F PUSH1 0x40 DUP5 ADD DUP8 PUSH2 0x2A5A JUMP JUMPDEST DUP3 DUP2 SUB PUSH1 0x60 DUP5 ADD MSTORE PUSH2 0x2F21 DUP2 DUP7 PUSH2 0x260A JUMP JUMPDEST SWAP2 POP POP DUP3 ISZERO ISZERO PUSH1 0x80 DUP4 ADD MSTORE SWAP7 SWAP6 POP POP POP POP POP POP JUMP JUMPDEST PUSH1 0x1 DUP2 DUP2 SHR SWAP1 DUP3 AND DUP1 PUSH2 0x2F4A JUMPI PUSH1 0x7F DUP3 AND SWAP2 POP JUMPDEST PUSH1 0x20 DUP3 LT DUP2 SUB PUSH2 0x174D JUMPI PUSH4 0x4E487B71 PUSH1 0xE0 SHL PUSH0 MSTORE PUSH1 0x22 PUSH1 0x4 MSTORE PUSH1 0x24 PUSH0 REVERT JUMPDEST PUSH0 PUSH1 0x1 DUP3 ADD PUSH2 0x2F85 JUMPI PUSH4 0x4E487B71 PUSH1 0xE0 SHL PUSH0 MSTORE PUSH1 0x11 PUSH1 0x4 MSTORE PUSH1 0x24 PUSH0 REVERT JUMPDEST POP PUSH1 0x1 ADD SWAP1 JUMP JUMPDEST PUSH1 0x1F DUP3 GT ISZERO PUSH2 0x2FD3 JUMPI DUP1 PUSH0 MSTORE PUSH1 0x20 PUSH0 KECCAK256 PUSH1 0x1F DUP5 ADD PUSH1 0x5 SHR DUP2 ADD PUSH1 0x20 DUP6 LT ISZERO PUSH2 0x2FB1 JUMPI POP DUP1 JUMPDEST PUSH1 0x1F DUP5 ADD PUSH1 0x5 SHR DUP3 ADD SWAP2 POP JUMPDEST DUP2 DUP2 LT ISZERO PUSH2 0x2FD0 JUMPI PUSH0 DUP2 SSTORE PUSH1 0x1 ADD PUSH2 0x2FBD JUMP JUMPDEST POP POP JUMPDEST POP POP POP JUMP JUMPDEST DUP2 MLOAD PUSH1 0x1 PUSH1 0x1 PUSH1 0x40 SHL SUB DUP2 GT ISZERO PUSH2 0x2FF1 JUMPI PUSH2 0x2FF1 PUSH2 0x28ED JUMP JUMPDEST PUSH2 0x3005 DUP2 PUSH2 0x2FFF DUP5 SLOAD PUSH2 0x2F36 JUMP JUMPDEST DUP5 PUSH2 0x2F8C JUMP JUMPDEST PUSH1 0x20 PUSH1 0x1F DUP3 GT PUSH1 0x1 DUP2 EQ PUSH2 0x3037 JUMPI PUSH0 DUP4 ISZERO PUSH2 0x3020 JUMPI POP DUP5 DUP3 ADD MLOAD JUMPDEST PUSH0 NOT PUSH1 0x3 DUP6 SWAP1 SHL SHR NOT AND PUSH1 0x1 DUP5 SWAP1 SHL OR DUP5 SSTORE PUSH2 0x2FD0 JUMP JUMPDEST PUSH0 DUP5 DUP2 MSTORE PUSH1 0x20 DUP2 KECCAK256 PUSH1 0x1F NOT DUP6 AND SWAP2 JUMPDEST DUP3 DUP2 LT ISZERO PUSH2 0x3066 JUMPI DUP8 DUP6 ADD MLOAD DUP3 SSTORE PUSH1 0x20 SWAP5 DUP6 ADD SWAP5 PUSH1 0x1 SWAP1 SWAP3 ADD SWAP2 ADD PUSH2 0x3046 JUMP JUMPDEST POP DUP5 DUP3 LT ISZERO PUSH2 0x3083 JUMPI DUP7 DUP5 ADD MLOAD PUSH0 NOT PUSH1 0x3 DUP8 SWAP1 SHL PUSH1 0xF8 AND SHR NOT AND DUP2 SSTORE JUMPDEST POP POP POP POP PUSH1 0x1 SWAP1 DUP2 SHL ADD SWAP1 SSTORE POP JUMP JUMPDEST PUSH1 0x40 DUP2 MSTORE PUSH0 PUSH2 0x30A4 PUSH1 0x40 DUP4 ADD DUP6 PUSH2 0x260A JUMP JUMPDEST SWAP1 POP PUSH1 0x1 DUP1 PUSH1 0xA0 SHL SUB DUP4 AND PUSH1 0x20 DUP4 ADD MSTORE SWAP4 SWAP3 POP POP POP JUMP JUMPDEST PUSH1 0x20 DUP2 MSTORE PUSH0 PUSH2 0x2859 PUSH1 0x20 DUP4 ADD DUP5 PUSH2 0x260A JUMP JUMPDEST PUSH4 0x4E487B71 PUSH1 0xE0 SHL PUSH0 MSTORE PUSH1 0x32 PUSH1 0x4 MSTORE PUSH1 0x24 PUSH0 REVERT JUMPDEST PUSH1 0x20 DUP2 ADD PUSH2 0x30EF DUP3 DUP5 PUSH2 0x264C JUMP JUMPDEST SWAP3 SWAP2 POP POP JUMP JUMPDEST PUSH1 0x40 DUP2 MSTORE PUSH0 PUSH2 0x3107 PUSH1 0x40 DUP4 ADD DUP6 PUSH2 0x260A JUMP JUMPDEST SWAP1 POP PUSH2 0x2859 PUSH1 0x20 DUP4 ADD DUP5 PUSH2 0x2A5A JUMP JUMPDEST PUSH1 0x20 DUP2 ADD PUSH2 0x30EF DUP3 DUP5 PUSH2 0x2C39 JUMP INVALID LOG2 PUSH5 0x6970667358 0x22 SLT KECCAK256 PUSH25 0x71C8137F3BCC29B496FB3FE569572727BFDE1E630F7B6A942 0xCA BLOBHASH PUSH6 0x2814D064736F PUSH13 0x634300081E0033000000000000 "
				},
				"gasEstimates": {
					"creation": {
						"codeDepositCost": "2526800",
						"executionCost": "93275",
						"totalCost": "2620075"
					},
					"external": {
						"actorShipments(address,uint256)": "4781",
						"actors(address)": "infinite",
						"admin()": "2401",
						"cancelShipment(uint256)": "32730",
						"checkpoints(uint256)": "infinite",
						"confirmDelivery(uint256)": "56582",
						"createShipment(address,string,string,string,bool)": "infinite",
						"deactivateActor(address)": "26858",
						"getActor(address)": "infinite",
						"getActorShipments(address)": "infinite",
						"getCheckpoint(uint256)": "infinite",
						"getIncident(uint256)": "infinite",
						"getShipment(uint256)": "infinite",
						"getShipmentCheckpoints(uint256)": "infinite",
						"getShipmentIncidents(uint256)": "infinite",
						"incidents(uint256)": "infinite",
						"isIncidentResolved(uint256)": "2521",
						"nextCheckpointId()": "2384",
						"nextIncidentId()": "2340",
						"nextShipmentId()": "2339",
						"recordCheckpoint(uint256,string,string,string,int256)": "infinite",
						"registerActor(string,uint8,string)": "infinite",
						"reportIncident(uint256,uint8,string)": "infinite",
						"resolveIncident(uint256)": "27912",
						"shipments(uint256)": "infinite",
						"updateShipmentStatus(uint256,uint8)": "30667",
						"verifyTemperatureCompliance(uint256)": "infinite"
					},
					"internal": {
						"_onlyActiveActor()": "infinite",
						"_onlyAdmin()": "infinite",
						"_shipmentExists(uint256)": "infinite"
					}
				},
				"methodIdentifiers": {
					"actorShipments(address,uint256)": "a113c557",
					"actors(address)": "eaa66a3c",
					"admin()": "f851a440",
					"cancelShipment(uint256)": "7faa7bc7",
					"checkpoints(uint256)": "b8a24252",
					"confirmDelivery(uint256)": "fd84cb97",
					"createShipment(address,string,string,string,bool)": "475b6f98",
					"deactivateActor(address)": "fc436695",
					"getActor(address)": "4138d167",
					"getActorShipments(address)": "72f2f93a",
					"getCheckpoint(uint256)": "20fc4881",
					"getIncident(uint256)": "9578615e",
					"getShipment(uint256)": "092b3740",
					"getShipmentCheckpoints(uint256)": "5f19f4f5",
					"getShipmentIncidents(uint256)": "733e28aa",
					"incidents(uint256)": "a6c6a8f3",
					"isIncidentResolved(uint256)": "925d3478",
					"nextCheckpointId()": "229ec452",
					"nextIncidentId()": "0fd19668",
					"nextShipmentId()": "b9a3a68c",
					"recordCheckpoint(uint256,string,string,string,int256)": "33401ee1",
					"registerActor(string,uint8,string)": "c4edcf8b",
					"reportIncident(uint256,uint8,string)": "e570c367",
					"resolveIncident(uint256)": "4ffe6ae2",
					"shipments(uint256)": "2ac08a93",
					"updateShipmentStatus(uint256,uint8)": "7defa920",
					"verifyTemperatureCompliance(uint256)": "af56a428"
				}
			},
			"storageLayout": {
				"storage": [
					{
						"astId": 98,
						"contract": "src/LogisticsTracking.sol:LogisticsTracking",
						"label": "admin",
						"offset": 0,
						"slot": "0",
						"type": "t_address"
					},
					{
						"astId": 101,
						"contract": "src/LogisticsTracking.sol:LogisticsTracking",
						"label": "nextShipmentId",
						"offset": 0,
						"slot": "1",
						"type": "t_uint256"
					},
					{
						"astId": 104,
						"contract": "src/LogisticsTracking.sol:LogisticsTracking",
						"label": "nextCheckpointId",
						"offset": 0,
						"slot": "2",
						"type": "t_uint256"
					},
					{
						"astId": 107,
						"contract": "src/LogisticsTracking.sol:LogisticsTracking",
						"label": "nextIncidentId",
						"offset": 0,
						"slot": "3",
						"type": "t_uint256"
					},
					{
						"astId": 112,
						"contract": "src/LogisticsTracking.sol:LogisticsTracking",
						"label": "shipments",
						"offset": 0,
						"slot": "4",
						"type": "t_mapping(t_uint256,t_struct(Shipment)63_storage)"
					},
					{
						"astId": 117,
						"contract": "src/LogisticsTracking.sol:LogisticsTracking",
						"label": "checkpoints",
						"offset": 0,
						"slot": "5",
						"type": "t_mapping(t_uint256,t_struct(Checkpoint)80_storage)"
					},
					{
						"astId": 122,
						"contract": "src/LogisticsTracking.sol:LogisticsTracking",
						"label": "incidents",
						"offset": 0,
						"slot": "6",
						"type": "t_mapping(t_uint256,t_struct(Incident)96_storage)"
					},
					{
						"astId": 127,
						"contract": "src/LogisticsTracking.sol:LogisticsTracking",
						"label": "actors",
						"offset": 0,
						"slot": "7",
						"type": "t_mapping(t_address,t_struct(Actor)35_storage)"
					},
					{
						"astId": 132,
						"contract": "src/LogisticsTracking.sol:LogisticsTracking",
						"label": "actorShipments",
						"offset": 0,
						"slot": "8",
						"type": "t_mapping(t_address,t_array(t_uint256)dyn_storage)"
					}
				],
				"types": {
					"t_address": {
						"encoding": "inplace",
						"label": "address",
						"numberOfBytes": "20"
					},
					"t_array(t_uint256)dyn_storage": {
						"base": "t_uint256",
						"encoding": "dynamic_array",
						"label": "uint256[]",
						"numberOfBytes": "32"
					},
					"t_bool": {
						"encoding": "inplace",
						"label": "bool",
						"numberOfBytes": "1"
					},
					"t_enum(ActorRole)17": {
						"encoding": "inplace",
						"label": "enum LogisticsTracking.ActorRole",
						"numberOfBytes": "1"
					},
					"t_enum(IncidentType)23": {
						"encoding": "inplace",
						"label": "enum LogisticsTracking.IncidentType",
						"numberOfBytes": "1"
					},
					"t_enum(ShipmentStatus)10": {
						"encoding": "inplace",
						"label": "enum LogisticsTracking.ShipmentStatus",
						"numberOfBytes": "1"
					},
					"t_int256": {
						"encoding": "inplace",
						"label": "int256",
						"numberOfBytes": "32"
					},
					"t_mapping(t_address,t_array(t_uint256)dyn_storage)": {
						"encoding": "mapping",
						"key": "t_address",
						"label": "mapping(address => uint256[])",
						"numberOfBytes": "32",
						"value": "t_array(t_uint256)dyn_storage"
					},
					"t_mapping(t_address,t_struct(Actor)35_storage)": {
						"encoding": "mapping",
						"key": "t_address",
						"label": "mapping(address => struct LogisticsTracking.Actor)",
						"numberOfBytes": "32",
						"value": "t_struct(Actor)35_storage"
					},
					"t_mapping(t_uint256,t_struct(Checkpoint)80_storage)": {
						"encoding": "mapping",
						"key": "t_uint256",
						"label": "mapping(uint256 => struct LogisticsTracking.Checkpoint)",
						"numberOfBytes": "32",
						"value": "t_struct(Checkpoint)80_storage"
					},
					"t_mapping(t_uint256,t_struct(Incident)96_storage)": {
						"encoding": "mapping",
						"key": "t_uint256",
						"label": "mapping(uint256 => struct LogisticsTracking.Incident)",
						"numberOfBytes": "32",
						"value": "t_struct(Incident)96_storage"
					},
					"t_mapping(t_uint256,t_struct(Shipment)63_storage)": {
						"encoding": "mapping",
						"key": "t_uint256",
						"label": "mapping(uint256 => struct LogisticsTracking.Shipment)",
						"numberOfBytes": "32",
						"value": "t_struct(Shipment)63_storage"
					},
					"t_string_storage": {
						"encoding": "bytes",
						"label": "string",
						"numberOfBytes": "32"
					},
					"t_struct(Actor)35_storage": {
						"encoding": "inplace",
						"label": "struct LogisticsTracking.Actor",
						"members": [
							{
								"astId": 25,
								"contract": "src/LogisticsTracking.sol:LogisticsTracking",
								"label": "actorAddress",
								"offset": 0,
								"slot": "0",
								"type": "t_address"
							},
							{
								"astId": 27,
								"contract": "src/LogisticsTracking.sol:LogisticsTracking",
								"label": "name",
								"offset": 0,
								"slot": "1",
								"type": "t_string_storage"
							},
							{
								"astId": 30,
								"contract": "src/LogisticsTracking.sol:LogisticsTracking",
								"label": "role",
								"offset": 0,
								"slot": "2",
								"type": "t_enum(ActorRole)17"
							},
							{
								"astId": 32,
								"contract": "src/LogisticsTracking.sol:LogisticsTracking",
								"label": "location",
								"offset": 0,
								"slot": "3",
								"type": "t_string_storage"
							},
							{
								"astId": 34,
								"contract": "src/LogisticsTracking.sol:LogisticsTracking",
								"label": "isActive",
								"offset": 0,
								"slot": "4",
								"type": "t_bool"
							}
						],
						"numberOfBytes": "160"
					},
					"t_struct(Checkpoint)80_storage": {
						"encoding": "inplace",
						"label": "struct LogisticsTracking.Checkpoint",
						"members": [
							{
								"astId": 65,
								"contract": "src/LogisticsTracking.sol:LogisticsTracking",
								"label": "id",
								"offset": 0,
								"slot": "0",
								"type": "t_uint256"
							},
							{
								"astId": 67,
								"contract": "src/LogisticsTracking.sol:LogisticsTracking",
								"label": "shipmentId",
								"offset": 0,
								"slot": "1",
								"type": "t_uint256"
							},
							{
								"astId": 69,
								"contract": "src/LogisticsTracking.sol:LogisticsTracking",
								"label": "actor",
								"offset": 0,
								"slot": "2",
								"type": "t_address"
							},
							{
								"astId": 71,
								"contract": "src/LogisticsTracking.sol:LogisticsTracking",
								"label": "location",
								"offset": 0,
								"slot": "3",
								"type": "t_string_storage"
							},
							{
								"astId": 73,
								"contract": "src/LogisticsTracking.sol:LogisticsTracking",
								"label": "checkpointType",
								"offset": 0,
								"slot": "4",
								"type": "t_string_storage"
							},
							{
								"astId": 75,
								"contract": "src/LogisticsTracking.sol:LogisticsTracking",
								"label": "timestamp",
								"offset": 0,
								"slot": "5",
								"type": "t_uint256"
							},
							{
								"astId": 77,
								"contract": "src/LogisticsTracking.sol:LogisticsTracking",
								"label": "notes",
								"offset": 0,
								"slot": "6",
								"type": "t_string_storage"
							},
							{
								"astId": 79,
								"contract": "src/LogisticsTracking.sol:LogisticsTracking",
								"label": "temperature",
								"offset": 0,
								"slot": "7",
								"type": "t_int256"
							}
						],
						"numberOfBytes": "256"
					},
					"t_struct(Incident)96_storage": {
						"encoding": "inplace",
						"label": "struct LogisticsTracking.Incident",
						"members": [
							{
								"astId": 82,
								"contract": "src/LogisticsTracking.sol:LogisticsTracking",
								"label": "id",
								"offset": 0,
								"slot": "0",
								"type": "t_uint256"
							},
							{
								"astId": 84,
								"contract": "src/LogisticsTracking.sol:LogisticsTracking",
								"label": "shipmentId",
								"offset": 0,
								"slot": "1",
								"type": "t_uint256"
							},
							{
								"astId": 87,
								"contract": "src/LogisticsTracking.sol:LogisticsTracking",
								"label": "incidentType",
								"offset": 0,
								"slot": "2",
								"type": "t_enum(IncidentType)23"
							},
							{
								"astId": 89,
								"contract": "src/LogisticsTracking.sol:LogisticsTracking",
								"label": "reporter",
								"offset": 1,
								"slot": "2",
								"type": "t_address"
							},
							{
								"astId": 91,
								"contract": "src/LogisticsTracking.sol:LogisticsTracking",
								"label": "description",
								"offset": 0,
								"slot": "3",
								"type": "t_string_storage"
							},
							{
								"astId": 93,
								"contract": "src/LogisticsTracking.sol:LogisticsTracking",
								"label": "timestamp",
								"offset": 0,
								"slot": "4",
								"type": "t_uint256"
							},
							{
								"astId": 95,
								"contract": "src/LogisticsTracking.sol:LogisticsTracking",
								"label": "resolved",
								"offset": 0,
								"slot": "5",
								"type": "t_bool"
							}
						],
						"numberOfBytes": "192"
					},
					"t_struct(Shipment)63_storage": {
						"encoding": "inplace",
						"label": "struct LogisticsTracking.Shipment",
						"members": [
							{
								"astId": 37,
								"contract": "src/LogisticsTracking.sol:LogisticsTracking",
								"label": "id",
								"offset": 0,
								"slot": "0",
								"type": "t_uint256"
							},
							{
								"astId": 39,
								"contract": "src/LogisticsTracking.sol:LogisticsTracking",
								"label": "sender",
								"offset": 0,
								"slot": "1",
								"type": "t_address"
							},
							{
								"astId": 41,
								"contract": "src/LogisticsTracking.sol:LogisticsTracking",
								"label": "recipient",
								"offset": 0,
								"slot": "2",
								"type": "t_address"
							},
							{
								"astId": 43,
								"contract": "src/LogisticsTracking.sol:LogisticsTracking",
								"label": "product",
								"offset": 0,
								"slot": "3",
								"type": "t_string_storage"
							},
							{
								"astId": 45,
								"contract": "src/LogisticsTracking.sol:LogisticsTracking",
								"label": "origin",
								"offset": 0,
								"slot": "4",
								"type": "t_string_storage"
							},
							{
								"astId": 47,
								"contract": "src/LogisticsTracking.sol:LogisticsTracking",
								"label": "destination",
								"offset": 0,
								"slot": "5",
								"type": "t_string_storage"
							},
							{
								"astId": 49,
								"contract": "src/LogisticsTracking.sol:LogisticsTracking",
								"label": "dateCreated",
								"offset": 0,
								"slot": "6",
								"type": "t_uint256"
							},
							{
								"astId": 51,
								"contract": "src/LogisticsTracking.sol:LogisticsTracking",
								"label": "dateDelivered",
								"offset": 0,
								"slot": "7",
								"type": "t_uint256"
							},
							{
								"astId": 54,
								"contract": "src/LogisticsTracking.sol:LogisticsTracking",
								"label": "status",
								"offset": 0,
								"slot": "8",
								"type": "t_enum(ShipmentStatus)10"
							},
							{
								"astId": 57,
								"contract": "src/LogisticsTracking.sol:LogisticsTracking",
								"label": "checkpointIds",
								"offset": 0,
								"slot": "9",
								"type": "t_array(t_uint256)dyn_storage"
							},
							{
								"astId": 60,
								"contract": "src/LogisticsTracking.sol:LogisticsTracking",
								"label": "incidentIds",
								"offset": 0,
								"slot": "10",
								"type": "t_array(t_uint256)dyn_storage"
							},
							{
								"astId": 62,
								"contract": "src/LogisticsTracking.sol:LogisticsTracking",
								"label": "requiresColdChain",
								"offset": 0,
								"slot": "11",
								"type": "t_bool"
							}
						],
						"numberOfBytes": "384"
					},
					"t_uint256": {
						"encoding": "inplace",
						"label": "uint256",
						"numberOfBytes": "32"
					}
				}
			},
			"userdoc": {
				"kind": "user",
				"methods": {},
				"version": 1
			}
		}
	}
}