{"abi":[{"type":"constructor","inputs":[],"stateMutability":"nonpayable"},{"type":"function","name":"COLD_CHAIN_TEMP_MAX","inputs":[],"outputs":[{"name":"","type":"int256","internalType":"int256"}],"stateMutability":"view"},{"type":"function","name":"COLD_CHAIN_TEMP_MIN","inputs":[],"outputs":[{"name":"","type":"int256","internalType":"int256"}],"stateMutability":"view"},{"type":"function","name":"MAX_CHECKPOINTS_PER_SHIPMENT","inputs":[],"outputs":[{"name":"","type":"uint256","internalType":"uint256"}],"stateMutability":"view"},{"type":"function","name":"MAX_INCIDENTS_PER_SHIPMENT","inputs":[],"outputs":[{"name":"","type":"uint256","internalType":"uint256"}],"stateMutability":"view"},{"type":"function","name":"acceptAdmin","inputs":[],"outputs":[],"stateMutability":"nonpayable"},{"type":"function","name":"admin","inputs":[],"outputs":[{"name":"","type":"address","internalType":"address"}],"stateMutability":"view"},{"type":"function","name":"cancelShipment","inputs":[{"name":"_shipmentId","type":"uint256","internalType":"uint256"}],"outputs":[],"stateMutability":"nonpayable"},{"type":"function","name":"confirmDelivery","inputs":[{"name":"_shipmentId","type":"uint256","internalType":"uint256"}],"outputs":[],"stateMutability":"nonpayable"},{"type":"function","name":"createShipment","inputs":[{"name":"_recipient","type":"address","internalType":"address"},{"name":"_product","type":"string","internalType":"string"},{"name":"_origin","type":"string","internalType":"string"},{"name":"_destination","type":"string","internalType":"string"},{"name":"_requiresColdChain","type":"bool","internalType":"bool"}],"outputs":[{"name":"","type":"uint256","internalType":"uint256"}],"stateMutability":"nonpayable"},{"type":"function","name":"deactivateActor","inputs":[{"name":"_actorAddress","type":"address","internalType":"address"}],"outputs":[],"stateMutability":"nonpayable"},{"type":"function","name":"getActor","inputs":[{"name":"_actorAddress","type":"address","internalType":"address"}],"outputs":[{"name":"","type":"tuple","internalType":"struct LogisticsTracking.Actor","components":[{"name":"actorAddress","type":"address","internalType":"address"},{"name":"name","type":"string","internalType":"string"},{"name":"role","type":"uint8","internalType":"enum LogisticsTracking.ActorRole"},{"name":"location","type":"string","internalType":"string"},{"name":"isActive","type":"bool","internalType":"bool"}]}],"stateMutability":"view"},{"type":"function","name":"getActorShipments","inputs":[{"name":"_actor","type":"address","internalType":"address"}],"outputs":[{"name":"","type":"uint256[]","internalType":"uint256[]"}],"stateMutability":"view"},{"type":"function","name":"getAllShipmentCheckpoints","inputs":[{"name":"_id","type":"uint256","internalType":"uint256"}],"outputs":[{"name":"","type":"tuple[]","internalType":"struct LogisticsTracking.Checkpoint[]","components":[{"name":"id","type":"uint256","internalType":"uint256"},{"name":"shipmentId","type":"uint256","internalType":"uint256"},{"name":"actor","type":"address","internalType":"address"},{"name":"location","type":"string","internalType":"string"},{"name":"checkpointType","type":"uint8","internalType":"enum LogisticsTracking.CheckpointType"},{"name":"timestamp","type":"uint256","internalType":"uint256"},{"name":"notes","type":"string","internalType":"string"},{"name":"temperature","type":"int256","internalType":"int256"}]}],"stateMutability":"view"},{"type":"function","name":"getAllShipmentIncidents","inputs":[{"name":"_shipmentId","type":"uint256","internalType":"uint256"}],"outputs":[{"name":"","type":"tuple[]","internalType":"struct LogisticsTracking.Incident[]","components":[{"name":"id","type":"uint256","internalType":"uint256"},{"name":"shipmentId","type":"uint256","internalType":"uint256"},{"name":"incidentType","type":"uint8","internalType":"enum LogisticsTracking.IncidentType"},{"name":"reporter","type":"address","internalType":"address"},{"name":"description","type":"string","internalType":"string"},{"name":"timestamp","type":"uint256","internalType":"uint256"},{"name":"resolved","type":"bool","internalType":"bool"}]}],"stateMutability":"view"},{"type":"function","name":"getCheckpoint","inputs":[{"name":"_checkpointId","type":"uint256","internalType":"uint256"}],"outputs":[{"name":"","type":"tuple","internalType":"struct LogisticsTracking.Checkpoint","components":[{"name":"id","type":"uint256","internalType":"uint256"},{"name":"shipmentId","type":"uint256","internalType":"uint256"},{"name":"actor","type":"address","internalType":"address"},{"name":"location","type":"string","internalType":"string"},{"name":"checkpointType","type":"uint8","internalType":"enum LogisticsTracking.CheckpointType"},{"name":"timestamp","type":"uint256","internalType":"uint256"},{"name":"notes","type":"string","internalType":"string"},{"name":"temperature","type":"int256","internalType":"int256"}]}],"stateMutability":"view"},{"type":"function","name":"getIncident","inputs":[{"name":"_incidentId","type":"uint256","internalType":"uint256"}],"outputs":[{"name":"","type":"tuple","internalType":"struct LogisticsTracking.Incident","components":[{"name":"id","type":"uint256","internalType":"uint256"},{"name":"shipmentId","type":"uint256","internalType":"uint256"},{"name":"incidentType","type":"uint8","internalType":"enum LogisticsTracking.IncidentType"},{"name":"reporter","type":"address","internalType":"address"},{"name":"description","type":"string","internalType":"string"},{"name":"timestamp","type":"uint256","internalType":"uint256"},{"name":"resolved","type":"bool","internalType":"bool"}]}],"stateMutability":"view"},{"type":"function","name":"getShipment","inputs":[{"name":"_id","type":"uint256","internalType":"uint256"}],"outputs":[{"name":"","type":"tuple","internalType":"struct LogisticsTracking.Shipment","components":[{"name":"id","type":"uint256","internalType":"uint256"},{"name":"sender","type":"address","internalType":"address"},{"name":"recipient","type":"address","internalType":"address"},{"name":"product","type":"string","internalType":"string"},{"name":"origin","type":"string","internalType":"string"},{"name":"destination","type":"string","internalType":"string"},{"name":"dateCreated","type":"uint256","internalType":"uint256"},{"name":"dateDelivered","type":"uint256","internalType":"uint256"},{"name":"status","type":"uint8","internalType":"enum LogisticsTracking.ShipmentStatus"},{"name":"checkpointIds","type":"uint256[]","internalType":"uint256[]"},{"name":"incidentIds","type":"uint256[]","internalType":"uint256[]"},{"name":"requiresColdChain","type":"bool","internalType":"bool"}]}],"stateMutability":"view"},{"type":"function","name":"getShipmentCheckpoints","inputs":[{"name":"_id","type":"uint256","internalType":"uint256"},{"name":"_offset","type":"uint256","internalType":"uint256"},{"name":"_limit","type":"uint256","internalType":"uint256"}],"outputs":[{"name":"","type":"tuple[]","internalType":"struct LogisticsTracking.Checkpoint[]","components":[{"name":"id","type":"uint256","internalType":"uint256"},{"name":"shipmentId","type":"uint256","internalType":"uint256"},{"name":"actor","type":"address","internalType":"address"},{"name":"location","type":"string","internalType":"string"},{"name":"checkpointType","type":"uint8","internalType":"enum LogisticsTracking.CheckpointType"},{"name":"timestamp","type":"uint256","internalType":"uint256"},{"name":"notes","type":"string","internalType":"string"},{"name":"temperature","type":"int256","internalType":"int256"}]}],"stateMutability":"view"},{"type":"function","name":"getShipmentIncidents","inputs":[{"name":"_shipmentId","type":"uint256","internalType":"uint256"},{"name":"_offset","type":"uint256","internalType":"uint256"},{"name":"_limit","type":"uint256","internalType":"uint256"}],"outputs":[{"name":"","type":"tuple[]","internalType":"struct LogisticsTracking.Incident[]","components":[{"name":"id","type":"uint256","internalType":"uint256"},{"name":"shipmentId","type":"uint256","internalType":"uint256"},{"name":"incidentType","type":"uint8","internalType":"enum LogisticsTracking.IncidentType"},{"name":"reporter","type":"address","internalType":"address"},{"name":"description","type":"string","internalType":"string"},{"name":"timestamp","type":"uint256","internalType":"uint256"},{"name":"resolved","type":"bool","internalType":"bool"}]}],"stateMutability":"view"},{"type":"function","name":"isIncidentResolved","inputs":[{"name":"_incidentId","type":"uint256","internalType":"uint256"}],"outputs":[{"name":"","type":"bool","internalType":"bool"}],"stateMutability":"view"},{"type":"function","name":"nextCheckpointId","inputs":[],"outputs":[{"name":"","type":"uint256","internalType":"uint256"}],"stateMutability":"view"},{"type":"function","name":"nextIncidentId","inputs":[],"outputs":[{"name":"","type":"uint256","internalType":"uint256"}],"stateMutability":"view"},{"type":"function","name":"nextShipmentId","inputs":[],"outputs":[{"name":"","type":"uint256","internalType":"uint256"}],"stateMutability":"view"},{"type":"function","name":"pendingAdmin","inputs":[],"outputs":[{"name":"","type":"address","internalType":"address"}],"stateMutability":"view"},{"type":"function","name":"proposeAdmin","inputs":[{"name":"_newAdmin","type":"address","internalType":"address"}],"outputs":[],"stateMutability":"nonpayable"},{"type":"function","name":"reactivateActor","inputs":[{"name":"_actorAddress","type":"address","internalType":"address"}],"outputs":[],"stateMutability":"nonpayable"},{"type":"function","name":"recordCheckpoint","inputs":[{"name":"_shipmentId","type":"uint256","internalType":"uint256"},{"name":"_location","type":"string","internalType":"string"},{"name":"_checkpointType","type":"uint8","internalType":"enum LogisticsTracking.CheckpointType"},{"name":"_notes","type":"string","internalType":"string"},{"name":"_temperature","type":"int256","internalType":"int256"}],"outputs":[{"name":"","type":"uint256","internalType":"uint256"}],"stateMutability":"nonpayable"},{"type":"function","name":"registerActor","inputs":[{"name":"_name","type":"string","internalType":"string"},{"name":"_role","type":"uint8","internalType":"enum LogisticsTracking.ActorRole"},{"name":"_location","type":"string","internalType":"string"},{"name":"_actorAddress","type":"address","internalType":"address"}],"outputs":[],"stateMutability":"nonpayable"},{"type":"function","name":"reportIncident","inputs":[{"name":"_shipmentId","type":"uint256","internalType":"uint256"},{"name":"_type","type":"uint8","internalType":"enum LogisticsTracking.IncidentType"},{"name":"_desc","type":"string","internalType":"string"}],"outputs":[{"name":"","type":"uint256","internalType":"uint256"}],"stateMutability":"nonpayable"},{"type":"function","name":"resolveIncident","inputs":[{"name":"_incidentId","type":"uint256","internalType":"uint256"}],"outputs":[],"stateMutability":"nonpayable"},{"type":"function","name":"updateShipmentStatus","inputs":[{"name":"_shipmentId","type":"uint256","internalType":"uint256"},{"name":"_newStatus","type":"uint8","internalType":"enum LogisticsTracking.ShipmentStatus"}],"outputs":[],"stateMutability":"nonpayable"},{"type":"function","name":"verifyTemperatureCompliance","inputs":[{"name":"_shipmentId","type":"uint256","internalType":"uint256"}],"outputs":[{"name":"","type":"bool","internalType":"bool"}],"stateMutability":"view"},{"type":"event","name":"ActorRegistered","inputs":[{"name":"actorAddress","type":"address","indexed":true,"internalType":"address"},{"name":"name","type":"string","indexed":false,"internalType":"string"},{"name":"role","type":"uint8","indexed":false,"internalType":"enum LogisticsTracking.ActorRole"}],"anonymous":false},{"type":"event","name":"AdminTransferAccepted","inputs":[{"name":"newAdmin","type":"address","indexed":true,"internalType":"address"}],"anonymous":false},{"type":"event","name":"AdminTransferProposed","inputs":[{"name":"proposedAdmin","type":"address","indexed":true,"internalType":"address"}],"anonymous":false},{"type":"event","name":"CheckpointRecorded","inputs":[{"name":"checkpointId","type":"uint256","indexed":true,"internalType":"uint256"},{"name":"shipmentId","type":"uint256","indexed":true,"internalType":"uint256"},{"name":"checkpointType","type":"uint8","indexed":false,"internalType":"enum LogisticsTracking.CheckpointType"},{"name":"actor","type":"address","indexed":false,"internalType":"address"}],"anonymous":false},{"type":"event","name":"DeliveryConfirmed","inputs":[{"name":"shipmentId","type":"uint256","indexed":true,"internalType":"uint256"},{"name":"recipient","type":"address","indexed":true,"internalType":"address"},{"name":"timestamp","type":"uint256","indexed":false,"internalType":"uint256"}],"anonymous":false},{"type":"event","name":"IncidentReported","inputs":[{"name":"incidentId","type":"uint256","indexed":true,"internalType":"uint256"},{"name":"shipmentId","type":"uint256","indexed":true,"internalType":"uint256"},{"name":"incidentType","type":"uint8","indexed":false,"internalType":"enum LogisticsTracking.IncidentType"}],"anonymous":false},{"type":"event","name":"IncidentResolved","inputs":[{"name":"incidentId","type":"uint256","indexed":true,"internalType":"uint256"}],"anonymous":false},{"type":"event","name":"ShipmentCreated","inputs":[{"name":"shipmentId","type":"uint256","indexed":true,"internalType":"uint256"},{"name":"sender","type":"address","indexed":true,"internalType":"address"},{"name":"recipient","type":"address","indexed":true,"internalType":"address"},{"name":"product","type":"string","indexed":false,"internalType":"string"}],"anonymous":false},{"type":"event","name":"ShipmentStatusChanged","inputs":[{"name":"shipmentId","type":"uint256","indexed":true,"internalType":"uint256"},{"name":"newStatus","type":"uint8","indexed":false,"internalType":"enum LogisticsTracking.ShipmentStatus"}],"anonymous":false},{"type":"error","name":"ActorDoesNotExist","inputs":[]},{"type":"error","name":"ActorInactive","inputs":[]},{"type":"error","name":"AlreadyDelivered","inputs":[]},{"type":"error","name":"AlreadyRegisteredAndActive","inputs":[]},{"type":"error","name":"CannotCancelAfterTransit","inputs":[]},{"type":"error","name":"CannotSetDeliveredDirectly","inputs":[]},{"type":"error","name":"CheckpointNotFound","inputs":[{"name":"id","type":"uint256","internalType":"uint256"}]},{"type":"error","name":"IncidentNotFound","inputs":[{"name":"id","type":"uint256","internalType":"uint256"}]},{"type":"error","name":"InvalidAddress","inputs":[]},{"type":"error","name":"InvalidRole","inputs":[]},{"type":"error","name":"MaxCheckpointsReached","inputs":[]},{"type":"error","name":"MaxIncidentsReached","inputs":[]},{"type":"error","name":"NotPendingAdmin","inputs":[]},{"type":"error","name":"OnlyAdmin","inputs":[]},{"type":"error","name":"OnlyCarrierOrHub","inputs":[]},{"type":"error","name":"OnlyRecipientCanConfirm","inputs":[]},{"type":"error","name":"OnlySenderCanCancel","inputs":[]},{"type":"error","name":"OnlySendersCanCreate","inputs":[]},{"type":"error","name":"PaginationOffsetOutOfBounds","inputs":[]},{"type":"error","name":"ShipmentNotFound","inputs":[{"name":"id","type":"uint256","internalType":"uint256"}]}],"bytecode":{"object":"0x6080604052600160025560016003556001600455348015601d575f5ffd5b505f80546001600160a01b03191633179055612ffa8061003c5f395ff3fe608060405234801561000f575f5ffd5b50600436106101e7575f3560e01c806372f2f93a11610109578063a54a6ee41161009e578063e570c3671161006e578063e570c36714610455578063f851a44014610468578063fc4366951461047a578063fd84cb971461048d575f5ffd5b8063a54a6ee41461041f578063af56a42814610427578063b7fa3c2a1461043a578063b9a3a68c1461044d575f5ffd5b80638d70861e116100d95780638d70861e146103a4578063925d3478146103b75780639578615e146103ec5780639b4adf4e1461040c575f5ffd5b806372f2f93a146103565780637b8a20e2146103765780637defa9201461037e5780637faa7bc714610391575f5ffd5b8063267822471161017f578063480162241161014f57806348016224146103085780634ffe6ae21461032857806358dcf85e1461033b57806363f865841461034e575f5ffd5b806326782247146102a2578063305207b0146102cd5780634138d167146102d5578063475b6f98146102f5575f5ffd5b8063147bf6c4116101ba578063147bf6c41461024757806317082ae01461025a57806320fc48811461027a578063229ec4521461029a575f5ffd5b8063092b3740146101eb5780630a7a0b69146102145780630e18b681146102355780630fd196681461023f575b5f5ffd5b6101fe6101f93660046125d7565b6104a0565b60405161020b919061267e565b60405180910390f35b61022761022236600461283b565b6107ae565b60405190815260200161020b565b61023d6109de565b005b600454610227565b61023d6102553660046128db565b610a51565b61026d6102683660046128f4565b610ac9565b60405161020b91906129bf565b61028d6102883660046125d7565b610dc9565b60405161020b9190612a22565b600354610227565b6001546102b5906001600160a01b031681565b6040516001600160a01b03909116815260200161020b565b610227603281565b6102e86102e33660046128db565b610fbb565b60405161020b9190612a44565b610227610303366004612aba565b611187565b61031b6103163660046128f4565b6112f5565b60405161020b9190612be0565b61023d6103363660046125d7565b611563565b61023d6103493660046128db565b6115e0565b61022760c881565b6103696103643660046128db565b611645565b60405161020b9190612c37565b610227605081565b61023d61038c366004612c79565b6116ae565b61023d61039f3660046125d7565b6117d4565b61026d6103b23660046125d7565b6118a0565b6103dc6103c53660046125d7565b5f9081526007602052604090206005015460ff1690565b604051901515815260200161020b565b6103ff6103fa3660046125d7565b611b18565b60405161020b9190612caa565b61031b61041a3660046125d7565b611c7a565b610227601481565b6103dc6104353660046125d7565b611e71565b61023d610448366004612cbc565b611f0a565b600254610227565b610227610463366004612d44565b6120cf565b5f546102b5906001600160a01b031681565b61023d6104883660046128db565b6120f6565b61023d61049b3660046125d7565b612121565b6104a86124d0565b5f828152600560209081526040918290208251610180810184528154815260018201546001600160a01b039081169382019390935260028201549092169282019290925260038201805491929160608401919061050490612d98565b80601f016020809104026020016040519081016040528092919081815260200182805461053090612d98565b801561057b5780601f106105525761010080835404028352916020019161057b565b820191905f5260205f20905b81548152906001019060200180831161055e57829003601f168201915b5050505050815260200160048201805461059490612d98565b80601f01602080910402602001604051908101604052809291908181526020018280546105c090612d98565b801561060b5780601f106105e25761010080835404028352916020019161060b565b820191905f5260205f20905b8154815290600101906020018083116105ee57829003601f168201915b5050505050815260200160058201805461062490612d98565b80601f016020809104026020016040519081016040528092919081815260200182805461065090612d98565b801561069b5780601f106106725761010080835404028352916020019161069b565b820191905f5260205f20905b81548152906001019060200180831161067e57829003601f168201915b5050509183525050600682810154602083015260078301546040830152600883015460609092019160ff16908111156106d6576106d661261c565b60068111156106e7576106e761261c565b81526020016009820180548060200260200160405190810160405280929190818152602001828054801561073857602002820191905f5260205f20905b815481526020019060010190808311610724575b50505050508152602001600a820180548060200260200160405190810160405280929190818152602001828054801561078e57602002820191905f5260205f20905b81548152602001906001019080831161077a575b5050509183525050600b919091015460ff16151560209091015292915050565b5f6107b761221c565b856107c181612250565b5f878152600560205260409020600981015460c8116107f357604051630794e5cf60e31b815260040160405180910390fd5b600380545f918261080383612dde565b9190505590506040518061010001604052808281526020018a8152602001336001600160a01b031681526020018981526020018860048111156108485761084861261c565b81524260208083019190915260408083018a905260609283018990525f85815260068352819020845181559184015160018301558301516002820180546001600160a01b0319166001600160a01b039092169190911790559082015160038201906108b39082612e4d565b506080820151816004015f6101000a81548160ff021916908360048111156108dd576108dd61261c565b021790555060a0820151600582015560c082015160068201906109009082612e4d565b5060e091909101516007909101556009820180546001810182555f918252602090912001819055600b82015460ff168015610945575060508513806109455750601485125b1561098d5761098b8960036040518060400160405280601881526020017f54656d7065726174757265206f7574206f662072616e67650000000000000000815250612283565b505b610997338a61242f565b88817f529e5c9e24a307575814835cf69244181f51bc2ae08b95b8c8459d652a7ee9cf89336040516109ca929190612f0b565b60405180910390a398975050505050505050565b6001546001600160a01b03163314610a095760405163058d9a1b60e01b815260040160405180910390fd5b5f8054336001600160a01b0319918216811783556001805490921690915560405190917f24a7c28d8edc5ccd4ef428ebc1dce34762fe38b7fdcca1f3f20c818f04deb15691a2565b610a596124a6565b6001600160a01b038116610a805760405163e6c4247b60e01b815260040160405180910390fd5b600180546001600160a01b0319166001600160a01b0383169081179091556040517fd3695f12c05bea129b5971fed99014a4efd003a3a8b45d6952b74fbd31d85d8a905f90a250565b5f838152600560205260409020600901805460609190808510610b2057604080515f8082526020820190925290610b16565b610b0361254c565b815260200190600190039081610afb5790505b5092505050610dc2565b5f81610b2c8688612f30565b11610b4057610b3b8587612f30565b610b42565b815b90505f610b4f8783612f49565b6001600160401b03811115610b6657610b66612792565b604051908082528060200260200182016040528015610b9f57816020015b610b8c61254c565b815260200190600190039081610b845790505b509050865b82811015610dbb5760065f868381548110610bc157610bc1612f5c565b905f5260205f20015481526020019081526020015f20604051806101000160405290815f820154815260200160018201548152602001600282015f9054906101000a90046001600160a01b03166001600160a01b03166001600160a01b03168152602001600382018054610c3490612d98565b80601f0160208091040260200160405190810160405280929190818152602001828054610c6090612d98565b8015610cab5780601f10610c8257610100808354040283529160200191610cab565b820191905f5260205f20905b815481529060010190602001808311610c8e57829003601f168201915b505050918352505060048281015460209092019160ff1690811115610cd257610cd261261c565b6004811115610ce357610ce361261c565b815260200160058201548152602001600682018054610d0190612d98565b80601f0160208091040260200160405190810160405280929190818152602001828054610d2d90612d98565b8015610d785780601f10610d4f57610100808354040283529160200191610d78565b820191905f5260205f20905b815481529060010190602001808311610d5b57829003601f168201915b50505050508152602001600782015481525050828983610d989190612f49565b81518110610da857610da8612f5c565b6020908102919091010152600101610ba4565b5093505050505b9392505050565b610dd161254c565b811580610de057506003548210155b15610e065760405163115e4e5560e11b8152600481018390526024015b60405180910390fd5b5f828152600660209081526040918290208251610100810184528154815260018201549281019290925260028101546001600160a01b031692820192909252600382018054919291606084019190610e5d90612d98565b80601f0160208091040260200160405190810160405280929190818152602001828054610e8990612d98565b8015610ed45780601f10610eab57610100808354040283529160200191610ed4565b820191905f5260205f20905b815481529060010190602001808311610eb757829003601f168201915b505050918352505060048281015460209092019160ff1690811115610efb57610efb61261c565b6004811115610f0c57610f0c61261c565b815260200160058201548152602001600682018054610f2a90612d98565b80601f0160208091040260200160405190810160405280929190818152602001828054610f5690612d98565b8015610fa15780601f10610f7857610100808354040283529160200191610fa1565b820191905f5260205f20905b815481529060010190602001808311610f8457829003601f168201915b505050505081526020016007820154815250509050919050565b610feb6040805160a0810182525f8082526060602083015290918201908152606060208201525f60409091015290565b6001600160a01b038083165f90815260086020908152604091829020825160a08101909352805490931682526001830180549293929184019161102d90612d98565b80601f016020809104026020016040519081016040528092919081815260200182805461105990612d98565b80156110a45780601f1061107b576101008083540402835291602001916110a4565b820191905f5260205f20905b81548152906001019060200180831161108757829003601f168201915b5050509183525050600282015460209091019060ff1660058111156110cb576110cb61261c565b60058111156110dc576110dc61261c565b81526020016003820180546110f090612d98565b80601f016020809104026020016040519081016040528092919081815260200182805461111c90612d98565b80156111675780601f1061113e57610100808354040283529160200191611167565b820191905f5260205f20905b81548152906001019060200180831161114a57829003601f168201915b50505091835250506004919091015460ff16151560209091015292915050565b5f61119061221c565b6001335f9081526008602052604090206002015460ff1660058111156111b8576111b861261c565b146111d65760405163f5b4341560e01b815260040160405180910390fd5b600280545f91826111e683612dde565b909155505f818152600560205260409020818155600181018054336001600160a01b0319918216179091556002820180549091166001600160a01b038b16179055909150600381016112388882612e4d565b50600481016112478782612e4d565b50600581016112568682612e4d565b5042600682015560088101805460ff19908116909155600b82018054909116851515179055611285338361242f565b6001600160a01b0388161561129e5761129e888361242f565b876001600160a01b0316336001600160a01b0316837f8fb6b855d6cbdf201f2fcaadbf8c38d36168ff7d2ca865cb2599abcd5a060e8f8a6040516112e29190612f70565b60405180910390a4509695505050505050565b60608361130181612250565b5f858152600560205260409020600a01805480861061135457604080515f808252602082019092529061134a565b61133761258d565b81526020019060019003908161132f5790505b509350505061155b565b5f816113608789612f30565b116113745761136f8688612f30565b611376565b815b90505f6113838883612f49565b6001600160401b0381111561139a5761139a612792565b6040519080825280602002602001820160405280156113d357816020015b6113c061258d565b8152602001906001900390816113b85790505b509050875b828110156115545760075f8683815481106113f5576113f5612f5c565b905f5260205f20015481526020019081526020015f206040518060e00160405290815f820154815260200160018201548152602001600282015f9054906101000a900460ff16600481111561144c5761144c61261c565b600481111561145d5761145d61261c565b8152600282015461010090046001600160a01b0316602082015260038201805460409092019161148c90612d98565b80601f01602080910402602001604051908101604052809291908181526020018280546114b890612d98565b80156115035780601f106114da57610100808354040283529160200191611503565b820191905f5260205f20905b8154815290600101906020018083116114e657829003601f168201915b50505091835250506004820154602082015260059091015460ff161515604090910152826115318b84612f49565b8151811061154157611541612f5c565b60209081029190910101526001016113d8565b5094505050505b509392505050565b61156b6124a6565b80158061157a57506004548110155b1561159b57604051630ae30d3b60e41b815260048101829052602401610dfd565b5f81815260076020526040808220600501805460ff191660011790555182917ff83ae0ade2d9004bc0030405bdd3336f9d9b97530bcf44cce99ce02c95641b7791a250565b6115e86124a6565b6001600160a01b038181165f908152600860205260409020541661161f57604051636f46a36560e01b815260040160405180910390fd5b6001600160a01b03165f908152600860205260409020600401805460ff19166001179055565b6001600160a01b0381165f908152600960209081526040918290208054835181840281018401909452808452606093928301828280156116a257602002820191905f5260205f20905b81548152602001906001019080831161168e575b50505050509050919050565b6116b661221c565b816116c081612250565b335f90815260086020526040902060029081015460ff16908160058111156116ea576116ea61261c565b1415801561170a575060038160058111156117075761170761261c565b14155b156117285760405163ef92a56b60e01b815260040160405180910390fd5b600483600681111561173c5761173c61261c565b0361175a57604051639e96bb6960e01b815260040160405180910390fd5b5f848152600560205260409020600801805484919060ff191660018360068111156117875761178761261c565b0217905550837f7c1c93f72f29b8a1fc6fc85eed990d133b1ffac80c962b521abb12f38f2ff9af846040516117bc9190612f82565b60405180910390a26117ce338561242f565b50505050565b806117de81612250565b5f82815260056020526040902060018101546001600160a01b0316331461181857604051631fbbf51f60e11b815260040160405180910390fd5b5f600882015460ff1660068111156118325761183261261c565b1461185057604051632e1b06c760e21b815260040160405180910390fd5b60088101805460ff1916600690811790915560405184917f7c1c93f72f29b8a1fc6fc85eed990d133b1ffac80c962b521abb12f38f2ff9af916118939190612f82565b60405180910390a2505050565b5f8181526005602052604081206009018054606092906001600160401b038111156118cd576118cd612792565b60405190808252806020026020018201604052801561190657816020015b6118f361254c565b8152602001906001900390816118eb5790505b5090505f5b825481101561155b5760065f84838154811061192957611929612f5c565b905f5260205f20015481526020019081526020015f20604051806101000160405290815f820154815260200160018201548152602001600282015f9054906101000a90046001600160a01b03166001600160a01b03166001600160a01b0316815260200160038201805461199c90612d98565b80601f01602080910402602001604051908101604052809291908181526020018280546119c890612d98565b8015611a135780601f106119ea57610100808354040283529160200191611a13565b820191905f5260205f20905b8154815290600101906020018083116119f657829003601f168201915b505050918352505060048281015460209092019160ff1690811115611a3a57611a3a61261c565b6004811115611a4b57611a4b61261c565b815260200160058201548152602001600682018054611a6990612d98565b80601f0160208091040260200160405190810160405280929190818152602001828054611a9590612d98565b8015611ae05780601f10611ab757610100808354040283529160200191611ae0565b820191905f5260205f20905b815481529060010190602001808311611ac357829003601f168201915b50505050508152602001600782015481525050828281518110611b0557611b05612f5c565b602090810291909101015260010161190b565b611b2061258d565b811580611b2f57506004548210155b15611b5057604051630ae30d3b60e41b815260048101839052602401610dfd565b5f82815260076020908152604091829020825160e081018452815481526001820154928101929092526002810154919290919083019060ff166004811115611b9a57611b9a61261c565b6004811115611bab57611bab61261c565b8152600282015461010090046001600160a01b03166020820152600382018054604090920191611bda90612d98565b80601f0160208091040260200160405190810160405280929190818152602001828054611c0690612d98565b8015611c515780601f10611c2857610100808354040283529160200191611c51565b820191905f5260205f20905b815481529060010190602001808311611c3457829003601f168201915b50505091835250506004820154602082015260059091015460ff16151560409091015292915050565b606081611c8681612250565b5f838152600560205260408120600a0180549091906001600160401b03811115611cb257611cb2612792565b604051908082528060200260200182016040528015611ceb57816020015b611cd861258d565b815260200190600190039081611cd05790505b5090505f5b8254811015611e665760075f848381548110611d0e57611d0e612f5c565b905f5260205f20015481526020019081526020015f206040518060e00160405290815f820154815260200160018201548152602001600282015f9054906101000a900460ff166004811115611d6557611d6561261c565b6004811115611d7657611d7661261c565b8152600282015461010090046001600160a01b03166020820152600382018054604090920191611da590612d98565b80601f0160208091040260200160405190810160405280929190818152602001828054611dd190612d98565b8015611e1c5780601f10611df357610100808354040283529160200191611e1c565b820191905f5260205f20905b815481529060010190602001808311611dff57829003601f168201915b50505091835250506004820154602082015260059091015460ff1615156040909101528251839083908110611e5357611e53612f5c565b6020908102919091010152600101611cf0565b509250505b50919050565b5f818152600560205260408120600b81015460ff16611e935750600192915050565b60098101545f5b81811015611eff575f60065f856009018481548110611ebb57611ebb612f5c565b905f5260205f20015481526020019081526020015f206007015490506050811380611ee65750601481125b15611ef657505f95945050505050565b50600101611e9a565b506001949350505050565b611f126124a6565b6001600160a01b038116611f395760405163e6c4247b60e01b815260040160405180910390fd5b6001600160a01b0381165f9081526008602052604090206004015460ff1615611f7557604051631f289d9f60e21b815260040160405180910390fd5b5f836005811115611f8857611f8861261c565b03611fa657604051636caa20b560e11b815260040160405180910390fd5b6040518060a00160405280826001600160a01b03168152602001858152602001846005811115611fd857611fd861261c565b81526020808201859052600160409283018190526001600160a01b038581165f9081526008845293909320845181546001600160a01b0319169416939093178355908301519082019061202b9082612e4d565b50604082015160028201805460ff1916600183600581111561204f5761204f61261c565b0217905550606082015160038201906120689082612e4d565b50608091909101516004909101805460ff19169115159190911790556040516001600160a01b038216907fc9a31de765abe70445345802bee3c96554ca063ab257e3888d498accb859fabc906120c19087908790612f90565b60405180910390a250505050565b5f6120d861221c565b836120e281612250565b6120ed858585612283565b95945050505050565b6120fe6124a6565b6001600160a01b03165f908152600860205260409020600401805460ff19169055565b8061212b81612250565b5f82815260056020526040902060028101546001600160a01b03163314612164576040516201ec0960e61b815260040160405180910390fd5b6004600882015460ff16600681111561217f5761217f61261c565b0361219d5760405163b9f7965360e01b815260040160405180910390fd5b60088101805460ff191660041790554260078201819055604051908152339084907f2f4a952729db32131cb3d658cc231127e0ce7e50f83508ece9a49c985f2384d09060200160405180910390a3827f7c1c93f72f29b8a1fc6fc85eed990d133b1ffac80c962b521abb12f38f2ff9af60046040516118939190612f82565b335f9081526008602052604090206004015460ff1661224e57604051632a718ceb60e01b815260040160405180910390fd5b565b80158061225f57506002548110155b1561228057604051632139528960e21b815260048101829052602401610dfd565b50565b5f838152600560205260408120600a8101546032116122b55760405163336de9db60e21b815260040160405180910390fd5b600480545f91826122c583612dde565b9190505590506040518060e001604052808281526020018781526020018660048111156122f4576122f461261c565b8152602001336001600160a01b031681526020018581526020014281526020015f151581525060075f8381526020019081526020015f205f820151815f0155602082015181600101556040820151816002015f6101000a81548160ff021916908360048111156123665761236661261c565b021790555060608201516002820180546001600160a01b0390921661010002610100600160a81b0319909216919091179055608082015160038201906123ac9082612e4d565b5060a0820151600482015560c0909101516005909101805460ff1916911515919091179055600a820180546001810182555f918252602090912001819055604051869082907fc2c9d0fa5caecea68b9ec6aca764014b01764f779d8a510f0d0d6796b76b7c839061241e908990612fb1565b60405180910390a395945050505050565b6001600160a01b0382165f908152600a6020908152604080832084845290915290205460ff166124a2576001600160a01b0382165f818152600a602090815260408083208584528252808320805460ff191660019081179091559383526009825282208054938401815582529020018190555b5050565b5f546001600160a01b0316331461224e57604051634755657960e01b815260040160405180910390fd5b6040518061018001604052805f81526020015f6001600160a01b031681526020015f6001600160a01b031681526020016060815260200160608152602001606081526020015f81526020015f81526020015f60068111156125335761253361261c565b8152606060208201819052604082018190525f91015290565b60408051610100810182525f8082526020820181905291810182905260608082015290608082019081526020015f8152602001606081526020015f81525090565b6040518060e001604052805f81526020015f81526020015f60048111156125b6576125b661261c565b81525f60208201819052606060408301819052820181905260809091015290565b5f602082840312156125e7575f5ffd5b5035919050565b5f81518084528060208401602086015e5f602082860101526020601f19601f83011685010191505092915050565b634e487b7160e01b5f52602160045260245ffd5b600781106126405761264061261c565b9052565b5f8151808452602084019350602083015f5b82811015612674578151865260209586019590910190600101612656565b5093949350505050565b60208152815160208201525f60208301516126a460408401826001600160a01b03169052565b5060408301516001600160a01b038116606084015250606083015161018060808401526126d56101a08401826125ee565b90506080840151601f198483030160a08501526126f282826125ee565b91505060a0840151601f198483030160c085015261271082826125ee565b91505060c084015160e084015260e084015161010084015261010084015161273c610120850182612630565b50610120840151838203601f190161014085015261275a8282612644565b915050610140840151601f198483030161016085015261277a8282612644565b91505061016084015161155b61018085018215159052565b634e487b7160e01b5f52604160045260245ffd5b5f82601f8301126127b5575f5ffd5b81356001600160401b038111156127ce576127ce612792565b604051601f8201601f19908116603f011681016001600160401b03811182821017156127fc576127fc612792565b604052818152838201602001851015612813575f5ffd5b816020850160208301375f918101602001919091529392505050565b60058110612280575f5ffd5b5f5f5f5f5f60a0868803121561284f575f5ffd5b8535945060208601356001600160401b0381111561286b575f5ffd5b612877888289016127a6565b94505060408601356128888161282f565b925060608601356001600160401b038111156128a2575f5ffd5b6128ae888289016127a6565b95989497509295608001359392505050565b80356001600160a01b03811681146128d6575f5ffd5b919050565b5f602082840312156128eb575f5ffd5b610dc2826128c0565b5f5f5f60608486031215612906575f5ffd5b505081359360208301359350604090920135919050565b600581106122805761228061261c565b6126408161291d565b805182526020810151602083015260018060a01b0360408201511660408301525f606082015161010060608501526129726101008501826125ee565b90506080830151612986608086018261292d565b5060a083015160a085015260c083015184820360c08601526129a882826125ee565b91505060e083015160e08501528091505092915050565b5f602082016020835280845180835260408501915060408160051b8601019250602086015f5b82811015612a1657603f19878603018452612a01858351612936565b945060209384019391909101906001016129e5565b50929695505050505050565b602081525f610dc26020830184612936565b600681106126405761264061261c565b602080825282516001600160a01b03168282015282015160a060408301525f90612a7160c08401826125ee565b90506040840151612a856060850182612a34565b506060840151838203601f19016080850152612aa182826125ee565b9150506080840151151560a08401528091505092915050565b5f5f5f5f5f60a08688031215612ace575f5ffd5b612ad7866128c0565b945060208601356001600160401b03811115612af1575f5ffd5b612afd888289016127a6565b94505060408601356001600160401b03811115612b18575f5ffd5b612b24888289016127a6565b93505060608601356001600160401b03811115612b3f575f5ffd5b612b4b888289016127a6565b92505060808601358015158114612b60575f5ffd5b809150509295509295909350565b80518252602081015160208301525f6040820151612b8b8161291d565b60408401526060828101516001600160a01b03169084015260808083015160e091850182905290612bbe908501826125ee565b905060a083015160a085015260c0830151151560c08501528091505092915050565b5f602082016020835280845180835260408501915060408160051b8601019250602086015f5b82811015612a1657603f19878603018452612c22858351612b6e565b94506020938401939190910190600101612c06565b602080825282518282018190525f918401906040840190835b81811015612c6e578351835260209384019390920191600101612c50565b509095945050505050565b5f5f60408385031215612c8a575f5ffd5b82359150602083013560078110612c9f575f5ffd5b809150509250929050565b602081525f610dc26020830184612b6e565b5f5f5f5f60808587031215612ccf575f5ffd5b84356001600160401b03811115612ce4575f5ffd5b612cf0878288016127a6565b945050602085013560068110612d04575f5ffd5b925060408501356001600160401b03811115612d1e575f5ffd5b612d2a878288016127a6565b925050612d39606086016128c0565b905092959194509250565b5f5f5f60608486031215612d56575f5ffd5b833592506020840135612d688161282f565b915060408401356001600160401b03811115612d82575f5ffd5b612d8e868287016127a6565b9150509250925092565b600181811c90821680612dac57607f821691505b602082108103611e6b57634e487b7160e01b5f52602260045260245ffd5b634e487b7160e01b5f52601160045260245ffd5b5f60018201612def57612def612dca565b5060010190565b601f821115612e485782821115612e4857805f5260205f20601f840160051c6020851015612e2157505f5b90810190601f840160051c035f5b81811015612e44575f83820155600101612e2f565b5050505b505050565b81516001600160401b03811115612e6657612e66612792565b612e7a81612e748454612d98565b84612df6565b6020601f821160018114612eac575f8315612e955750848201515b5f19600385901b1c1916600184901b178455612f04565b5f84815260208120601f198516915b82811015612edb5787850151825560209485019460019092019101612ebb565b5084821015612ef857868401515f19600387901b60f8161c191681555b505060018360011b0184555b5050505050565b60408101612f188461291d565b9281526001600160a01b039190911660209091015290565b80820180821115612f4357612f43612dca565b92915050565b81810381811115612f4357612f43612dca565b634e487b7160e01b5f52603260045260245ffd5b602081525f610dc260208301846125ee565b60208101612f438284612630565b604081525f612fa260408301856125ee565b9050610dc26020830184612a34565b60208101612fbe8361291d565b9190529056fea2646970667358221220aa617592f82e6e60229f855e3122c3684331ce4698c73b9ec972ca0ead872ccc64736f6c63430008210033","linkReferences":{}},"methodIdentifiers":{"COLD_CHAIN_TEMP_MAX()":"7b8a20e2","COLD_CHAIN_TEMP_MIN()":"a54a6ee4","MAX_CHECKPOINTS_PER_SHIPMENT()":"63f86584","MAX_INCIDENTS_PER_SHIPMENT()":"305207b0","acceptAdmin()":"0e18b681","admin()":"f851a440","cancelShipment(uint256)":"7faa7bc7","confirmDelivery(uint256)":"fd84cb97","createShipment(address,string,string,string,bool)":"475b6f98","deactivateActor(address)":"fc436695","getActor(address)":"4138d167","getActorShipments(address)":"72f2f93a","getAllShipmentCheckpoints(uint256)":"8d70861e","getAllShipmentIncidents(uint256)":"9b4adf4e","getCheckpoint(uint256)":"20fc4881","getIncident(uint256)":"9578615e","getShipment(uint256)":"092b3740","getShipmentCheckpoints(uint256,uint256,uint256)":"17082ae0","getShipmentIncidents(uint256,uint256,uint256)":"48016224","isIncidentResolved(uint256)":"925d3478","nextCheckpointId()":"229ec452","nextIncidentId()":"0fd19668","nextShipmentId()":"b9a3a68c","pendingAdmin()":"26782247","proposeAdmin(address)":"147bf6c4","reactivateActor(address)":"58dcf85e","recordCheckpoint(uint256,string,uint8,string,int256)":"0a7a0b69","registerActor(string,uint8,string,address)":"b7fa3c2a","reportIncident(uint256,uint8,string)":"e570c367","resolveIncident(uint256)":"4ffe6ae2","updateShipmentStatus(uint256,uint8)":"7defa920","verifyTemperatureCompliance(uint256)":"af56a428"},"id":22}