{"abi":[{"type":"constructor","inputs":[],"stateMutability":"nonpayable"},{"type":"function","name":"COLD_CHAIN_TEMP_MAX","inputs":[],"outputs":[{"name":"","type":"int256","internalType":"int256"}],"stateMutability":"view"},{"type":"function","name":"COLD_CHAIN_TEMP_MIN","inputs":[],"outputs":[{"name":"","type":"int256","internalType":"int256"}],"stateMutability":"view"},{"type":"function","name":"MAX_CHECKPOINTS_PER_SHIPMENT","inputs":[],"outputs":[{"name":"","type":"uint256","internalType":"uint256"}],"stateMutability":"view"},{"type":"function","name":"MAX_INCIDENTS_PER_SHIPMENT","inputs":[],"outputs":[{"name":"","type":"uint256","internalType":"uint256"}],"stateMutability":"view"},{"type":"function","name":"TEMPERATURE_NOT_SET","inputs":[],"outputs":[{"name":"","type":"int256","internalType":"int256"}],"stateMutability":"view"},{"type":"function","name":"acceptAdmin","inputs":[],"outputs":[],"stateMutability":"nonpayable"},{"type":"function","name":"admin","inputs":[],"outputs":[{"name":"","type":"address","internalType":"address"}],"stateMutability":"view"},{"type":"function","name":"cancelShipment","inputs":[{"name":"_shipmentId","type":"uint256","internalType":"uint256"}],"outputs":[],"stateMutability":"nonpayable"},{"type":"function","name":"confirmDelivery","inputs":[{"name":"_shipmentId","type":"uint256","internalType":"uint256"}],"outputs":[],"stateMutability":"nonpayable"},{"type":"function","name":"createShipment","inputs":[{"name":"_recipient","type":"address","internalType":"address"},{"name":"_product","type":"string","internalType":"string"},{"name":"_origin","type":"string","internalType":"string"},{"name":"_destination","type":"string","internalType":"string"},{"name":"_requiresColdChain","type":"bool","internalType":"bool"}],"outputs":[{"name":"","type":"uint256","internalType":"uint256"}],"stateMutability":"nonpayable"},{"type":"function","name":"deactivateActor","inputs":[{"name":"_actorAddress","type":"address","internalType":"address"}],"outputs":[],"stateMutability":"nonpayable"},{"type":"function","name":"getActor","inputs":[{"name":"_actorAddress","type":"address","internalType":"address"}],"outputs":[{"name":"","type":"tuple","internalType":"struct LogisticsTracking.Actor","components":[{"name":"actorAddress","type":"address","internalType":"address"},{"name":"name","type":"string","internalType":"string"},{"name":"role","type":"uint8","internalType":"enum LogisticsTracking.ActorRole"},{"name":"location","type":"string","internalType":"string"},{"name":"isActive","type":"bool","internalType":"bool"}]}],"stateMutability":"view"},{"type":"function","name":"getActorShipments","inputs":[{"name":"_actor","type":"address","internalType":"address"}],"outputs":[{"name":"","type":"uint256[]","internalType":"uint256[]"}],"stateMutability":"view"},{"type":"function","name":"getAllShipmentCheckpoints","inputs":[{"name":"_id","type":"uint256","internalType":"uint256"}],"outputs":[{"name":"","type":"tuple[]","internalType":"struct LogisticsTracking.Checkpoint[]","components":[{"name":"id","type":"uint256","internalType":"uint256"},{"name":"shipmentId","type":"uint256","internalType":"uint256"},{"name":"actor","type":"address","internalType":"address"},{"name":"location","type":"string","internalType":"string"},{"name":"checkpointType","type":"uint8","internalType":"enum LogisticsTracking.CheckpointType"},{"name":"timestamp","type":"uint256","internalType":"uint256"},{"name":"notes","type":"string","internalType":"string"},{"name":"temperature","type":"int256","internalType":"int256"}]}],"stateMutability":"view"},{"type":"function","name":"getAllShipmentIncidents","inputs":[{"name":"_shipmentId","type":"uint256","internalType":"uint256"}],"outputs":[{"name":"","type":"tuple[]","internalType":"struct LogisticsTracking.Incident[]","components":[{"name":"id","type":"uint256","internalType":"uint256"},{"name":"shipmentId","type":"uint256","internalType":"uint256"},{"name":"incidentType","type":"uint8","internalType":"enum LogisticsTracking.IncidentType"},{"name":"reporter","type":"address","internalType":"address"},{"name":"description","type":"string","internalType":"string"},{"name":"timestamp","type":"uint256","internalType":"uint256"},{"name":"resolved","type":"bool","internalType":"bool"},{"name":"resolutionNote","type":"string","internalType":"string"}]}],"stateMutability":"view"},{"type":"function","name":"getCheckpoint","inputs":[{"name":"_checkpointId","type":"uint256","internalType":"uint256"}],"outputs":[{"name":"","type":"tuple","internalType":"struct LogisticsTracking.Checkpoint","components":[{"name":"id","type":"uint256","internalType":"uint256"},{"name":"shipmentId","type":"uint256","internalType":"uint256"},{"name":"actor","type":"address","internalType":"address"},{"name":"location","type":"string","internalType":"string"},{"name":"checkpointType","type":"uint8","internalType":"enum LogisticsTracking.CheckpointType"},{"name":"timestamp","type":"uint256","internalType":"uint256"},{"name":"notes","type":"string","internalType":"string"},{"name":"temperature","type":"int256","internalType":"int256"}]}],"stateMutability":"view"},{"type":"function","name":"getIncident","inputs":[{"name":"_incidentId","type":"uint256","internalType":"uint256"}],"outputs":[{"name":"","type":"tuple","internalType":"struct LogisticsTracking.Incident","components":[{"name":"id","type":"uint256","internalType":"uint256"},{"name":"shipmentId","type":"uint256","internalType":"uint256"},{"name":"incidentType","type":"uint8","internalType":"enum LogisticsTracking.IncidentType"},{"name":"reporter","type":"address","internalType":"address"},{"name":"description","type":"string","internalType":"string"},{"name":"timestamp","type":"uint256","internalType":"uint256"},{"name":"resolved","type":"bool","internalType":"bool"},{"name":"resolutionNote","type":"string","internalType":"string"}]}],"stateMutability":"view"},{"type":"function","name":"getShipment","inputs":[{"name":"_id","type":"uint256","internalType":"uint256"}],"outputs":[{"name":"","type":"tuple","internalType":"struct LogisticsTracking.Shipment","components":[{"name":"id","type":"uint256","internalType":"uint256"},{"name":"sender","type":"address","internalType":"address"},{"name":"recipient","type":"address","internalType":"address"},{"name":"product","type":"string","internalType":"string"},{"name":"origin","type":"string","internalType":"string"},{"name":"destination","type":"string","internalType":"string"},{"name":"dateCreated","type":"uint256","internalType":"uint256"},{"name":"dateDelivered","type":"uint256","internalType":"uint256"},{"name":"status","type":"uint8","internalType":"enum LogisticsTracking.ShipmentStatus"},{"name":"checkpointIds","type":"uint256[]","internalType":"uint256[]"},{"name":"incidentIds","type":"uint256[]","internalType":"uint256[]"},{"name":"requiresColdChain","type":"bool","internalType":"bool"}]}],"stateMutability":"view"},{"type":"function","name":"getShipmentCheckpoints","inputs":[{"name":"_id","type":"uint256","internalType":"uint256"},{"name":"_offset","type":"uint256","internalType":"uint256"},{"name":"_limit","type":"uint256","internalType":"uint256"}],"outputs":[{"name":"","type":"tuple[]","internalType":"struct LogisticsTracking.Checkpoint[]","components":[{"name":"id","type":"uint256","internalType":"uint256"},{"name":"shipmentId","type":"uint256","internalType":"uint256"},{"name":"actor","type":"address","internalType":"address"},{"name":"location","type":"string","internalType":"string"},{"name":"checkpointType","type":"uint8","internalType":"enum LogisticsTracking.CheckpointType"},{"name":"timestamp","type":"uint256","internalType":"uint256"},{"name":"notes","type":"string","internalType":"string"},{"name":"temperature","type":"int256","internalType":"int256"}]}],"stateMutability":"view"},{"type":"function","name":"getShipmentIncidents","inputs":[{"name":"_shipmentId","type":"uint256","internalType":"uint256"},{"name":"_offset","type":"uint256","internalType":"uint256"},{"name":"_limit","type":"uint256","internalType":"uint256"}],"outputs":[{"name":"","type":"tuple[]","internalType":"struct LogisticsTracking.Incident[]","components":[{"name":"id","type":"uint256","internalType":"uint256"},{"name":"shipmentId","type":"uint256","internalType":"uint256"},{"name":"incidentType","type":"uint8","internalType":"enum LogisticsTracking.IncidentType"},{"name":"reporter","type":"address","internalType":"address"},{"name":"description","type":"string","internalType":"string"},{"name":"timestamp","type":"uint256","internalType":"uint256"},{"name":"resolved","type":"bool","internalType":"bool"},{"name":"resolutionNote","type":"string","internalType":"string"}]}],"stateMutability":"view"},{"type":"function","name":"isIncidentResolved","inputs":[{"name":"_incidentId","type":"uint256","internalType":"uint256"}],"outputs":[{"name":"","type":"bool","internalType":"bool"}],"stateMutability":"view"},{"type":"function","name":"nextCheckpointId","inputs":[],"outputs":[{"name":"","type":"uint256","internalType":"uint256"}],"stateMutability":"view"},{"type":"function","name":"nextIncidentId","inputs":[],"outputs":[{"name":"","type":"uint256","internalType":"uint256"}],"stateMutability":"view"},{"type":"function","name":"nextShipmentId","inputs":[],"outputs":[{"name":"","type":"uint256","internalType":"uint256"}],"stateMutability":"view"},{"type":"function","name":"pendingAdmin","inputs":[],"outputs":[{"name":"","type":"address","internalType":"address"}],"stateMutability":"view"},{"type":"function","name":"proposeAdmin","inputs":[{"name":"_newAdmin","type":"address","internalType":"address"}],"outputs":[],"stateMutability":"nonpayable"},{"type":"function","name":"reactivateActor","inputs":[{"name":"_actorAddress","type":"address","internalType":"address"}],"outputs":[],"stateMutability":"nonpayable"},{"type":"function","name":"recordCheckpoint","inputs":[{"name":"_shipmentId","type":"uint256","internalType":"uint256"},{"name":"_location","type":"string","internalType":"string"},{"name":"_checkpointType","type":"uint8","internalType":"enum LogisticsTracking.CheckpointType"},{"name":"_notes","type":"string","internalType":"string"},{"name":"_temperature","type":"int256","internalType":"int256"}],"outputs":[{"name":"","type":"uint256","internalType":"uint256"}],"stateMutability":"nonpayable"},{"type":"function","name":"registerActor","inputs":[{"name":"_name","type":"string","internalType":"string"},{"name":"_role","type":"uint8","internalType":"enum LogisticsTracking.ActorRole"},{"name":"_location","type":"string","internalType":"string"},{"name":"_actorAddress","type":"address","internalType":"address"}],"outputs":[],"stateMutability":"nonpayable"},{"type":"function","name":"reportIncident","inputs":[{"name":"_shipmentId","type":"uint256","internalType":"uint256"},{"name":"_type","type":"uint8","internalType":"enum LogisticsTracking.IncidentType"},{"name":"_desc","type":"string","internalType":"string"}],"outputs":[{"name":"","type":"uint256","internalType":"uint256"}],"stateMutability":"nonpayable"},{"type":"function","name":"resolveIncident","inputs":[{"name":"_incidentId","type":"uint256","internalType":"uint256"},{"name":"_resolutionNote","type":"string","internalType":"string"}],"outputs":[],"stateMutability":"nonpayable"},{"type":"function","name":"transferAdmin","inputs":[{"name":"_newAdmin","type":"address","internalType":"address"}],"outputs":[],"stateMutability":"nonpayable"},{"type":"function","name":"updateShipmentStatus","inputs":[{"name":"_shipmentId","type":"uint256","internalType":"uint256"},{"name":"_newStatus","type":"uint8","internalType":"enum LogisticsTracking.ShipmentStatus"}],"outputs":[],"stateMutability":"nonpayable"},{"type":"function","name":"verifyTemperatureCompliance","inputs":[{"name":"_shipmentId","type":"uint256","internalType":"uint256"}],"outputs":[{"name":"","type":"bool","internalType":"bool"}],"stateMutability":"view"},{"type":"event","name":"ActorRegistered","inputs":[{"name":"actorAddress","type":"address","indexed":true,"internalType":"address"},{"name":"name","type":"string","indexed":false,"internalType":"string"},{"name":"role","type":"uint8","indexed":false,"internalType":"enum LogisticsTracking.ActorRole"}],"anonymous":false},{"type":"event","name":"ActorStatusChanged","inputs":[{"name":"actorAddress","type":"address","indexed":true,"internalType":"address"},{"name":"isActive","type":"bool","indexed":false,"internalType":"bool"}],"anonymous":false},{"type":"event","name":"AdminTransferAccepted","inputs":[{"name":"newAdmin","type":"address","indexed":true,"internalType":"address"}],"anonymous":false},{"type":"event","name":"AdminTransferProposed","inputs":[{"name":"proposedAdmin","type":"address","indexed":true,"internalType":"address"}],"anonymous":false},{"type":"event","name":"CheckpointRecorded","inputs":[{"name":"checkpointId","type":"uint256","indexed":true,"internalType":"uint256"},{"name":"shipmentId","type":"uint256","indexed":true,"internalType":"uint256"},{"name":"checkpointType","type":"uint8","indexed":false,"internalType":"enum LogisticsTracking.CheckpointType"},{"name":"actor","type":"address","indexed":false,"internalType":"address"}],"anonymous":false},{"type":"event","name":"DeliveryConfirmed","inputs":[{"name":"shipmentId","type":"uint256","indexed":true,"internalType":"uint256"},{"name":"recipient","type":"address","indexed":true,"internalType":"address"},{"name":"timestamp","type":"uint256","indexed":false,"internalType":"uint256"}],"anonymous":false},{"type":"event","name":"IncidentReported","inputs":[{"name":"incidentId","type":"uint256","indexed":true,"internalType":"uint256"},{"name":"shipmentId","type":"uint256","indexed":true,"internalType":"uint256"},{"name":"incidentType","type":"uint8","indexed":false,"internalType":"enum LogisticsTracking.IncidentType"}],"anonymous":false},{"type":"event","name":"IncidentResolved","inputs":[{"name":"incidentId","type":"uint256","indexed":true,"internalType":"uint256"},{"name":"resolutionNote","type":"string","indexed":false,"internalType":"string"}],"anonymous":false},{"type":"event","name":"ShipmentCreated","inputs":[{"name":"shipmentId","type":"uint256","indexed":true,"internalType":"uint256"},{"name":"sender","type":"address","indexed":true,"internalType":"address"},{"name":"recipient","type":"address","indexed":true,"internalType":"address"},{"name":"product","type":"string","indexed":false,"internalType":"string"}],"anonymous":false},{"type":"event","name":"ShipmentStatusChanged","inputs":[{"name":"shipmentId","type":"uint256","indexed":true,"internalType":"uint256"},{"name":"newStatus","type":"uint8","indexed":false,"internalType":"enum LogisticsTracking.ShipmentStatus"}],"anonymous":false},{"type":"error","name":"ActorDoesNotExist","inputs":[]},{"type":"error","name":"ActorInactive","inputs":[]},{"type":"error","name":"ActorNotAssignedToShipment","inputs":[]},{"type":"error","name":"AlreadyClosedShipment","inputs":[]},{"type":"error","name":"AlreadyDelivered","inputs":[]},{"type":"error","name":"AlreadyRegisteredAndActive","inputs":[]},{"type":"error","name":"CannotCancelAfterTransit","inputs":[]},{"type":"error","name":"CannotSetDeliveredDirectly","inputs":[]},{"type":"error","name":"CheckpointNotFound","inputs":[{"name":"id","type":"uint256","internalType":"uint256"}]},{"type":"error","name":"IncidentNotFound","inputs":[{"name":"id","type":"uint256","internalType":"uint256"}]},{"type":"error","name":"InvalidAddress","inputs":[]},{"type":"error","name":"InvalidRole","inputs":[]},{"type":"error","name":"MaxCheckpointsReached","inputs":[]},{"type":"error","name":"MaxIncidentsReached","inputs":[]},{"type":"error","name":"NotPendingAdmin","inputs":[]},{"type":"error","name":"OnlyAdmin","inputs":[]},{"type":"error","name":"OnlyCarrierOrHub","inputs":[]},{"type":"error","name":"OnlyRecipientCanConfirm","inputs":[]},{"type":"error","name":"OnlySenderCanCancel","inputs":[]},{"type":"error","name":"OnlySendersCanCreate","inputs":[]},{"type":"error","name":"ShipmentNotFound","inputs":[{"name":"id","type":"uint256","internalType":"uint256"}]}],"bytecode":{"object":"0x6080604052600160025560016003556001600455348015601d575f5ffd5b505f80546001600160a01b031916331790556136058061003c5f395ff3fe608060405234801561000f575f5ffd5b50600436106101fd575f3560e01c806372f2f93a116101145780639b4adf4e116100a9578063b9a3a68c11610079578063b9a3a68c14610481578063e570c36714610489578063f851a4401461049c578063fc436695146104ae578063fd84cb97146104c1575f5ffd5b80639b4adf4e14610440578063a54a6ee414610453578063af56a4281461045b578063b7fa3c2a1461046e575f5ffd5b80637faa7bc7116100e45780637faa7bc7146103c55780638d70861e146103d8578063925d3478146103eb5780639578615e14610420575f5ffd5b806372f2f93a1461037757806375829def146103975780637b8a20e2146103aa5780637defa920146103b2575f5ffd5b80632678224711610195578063475b6f9811610165578063475b6f9814610316578063480162241461032957806358dcf85e146103495780635e6b20861461035c57806363f865841461036f575f5ffd5b806326782247146102b85780632bf210dc146102e3578063305207b0146102ee5780634138d167146102f6575f5ffd5b8063147bf6c4116101d0578063147bf6c41461025d57806317082ae01461027057806320fc488114610290578063229ec452146102b0575f5ffd5b8063092b3740146102015780630a7a0b691461022a5780630e18b6811461024b5780630fd1966814610255575b5f5ffd5b61021461020f366004612a67565b6104d4565b6040516102219190612b0e565b60405180910390f35b61023d610238366004612ccb565b6107e2565b604051908152602001610221565b610253610a52565b005b60045461023d565b61025361026b366004612d6b565b610ac5565b61028361027e366004612d84565b610b3d565b6040516102219190612e4f565b6102a361029e366004612a67565b610e46565b6040516102219190612eb2565b60035461023d565b6001546102cb906001600160a01b031681565b6040516001600160a01b039091168152602001610221565b61023d600160ff1b81565b61023d603281565b610309610304366004612d6b565b611038565b6040516102219190612ed4565b61023d610324366004612f4a565b611204565b61033c610337366004612d84565b611372565b604051610221919061308f565b610253610357366004612d6b565b611666565b61025361036a3660046130e6565b611705565b61023d60c881565b61038a610385366004612d6b565b6117a7565b604051610221919061315b565b6102536103a5366004612d6b565b611810565b61023d605081565b6102536103c036600461319d565b611891565b6102536103d3366004612a67565b6119b7565b6102836103e6366004612a67565b611b02565b6104106103f9366004612a67565b5f9081526007602052604090206005015460ff1690565b6040519015158152602001610221565b61043361042e366004612a67565b611d90565b60405161022191906131ce565b61033c61044e366004612a67565b611f87565b61023d601481565b610410610469366004612a67565b612205565b61025361047c3660046131e0565b6122be565b60025461023d565b61023d610497366004613268565b612475565b5f546102cb906001600160a01b031681565b6102536104bc366004612d6b565b6124d6565b6102536104cf366004612a67565b612566565b6104dc61294f565b5f828152600560209081526040918290208251610180810184528154815260018201546001600160a01b0390811693820193909352600282015490921692820192909252600382018054919291606084019190610538906132bc565b80601f0160208091040260200160405190810160405280929190818152602001828054610564906132bc565b80156105af5780601f10610586576101008083540402835291602001916105af565b820191905f5260205f20905b81548152906001019060200180831161059257829003601f168201915b505050505081526020016004820180546105c8906132bc565b80601f01602080910402602001604051908101604052809291908181526020018280546105f4906132bc565b801561063f5780601f106106165761010080835404028352916020019161063f565b820191905f5260205f20905b81548152906001019060200180831161062257829003601f168201915b50505050508152602001600582018054610658906132bc565b80601f0160208091040260200160405190810160405280929190818152602001828054610684906132bc565b80156106cf5780601f106106a6576101008083540402835291602001916106cf565b820191905f5260205f20905b8154815290600101906020018083116106b257829003601f168201915b5050509183525050600682810154602083015260078301546040830152600883015460609092019160ff169081111561070a5761070a612aac565b600681111561071b5761071b612aac565b81526020016009820180548060200260200160405190810160405280929190818152602001828054801561076c57602002820191905f5260205f20905b815481526020019060010190808311610758575b50505050508152602001600a82018054806020026020016040519081016040528092919081815260200182805480156107c257602002820191905f5260205f20905b8154815260200190600101908083116107ae575b5050509183525050600b919091015460ff16151560209091015292915050565b5f6107eb61266f565b856107f5816126a3565b335f908152600a602090815260408083208a845290915290205460ff1661082f5760405163d40c3d2160e01b815260040160405180910390fd5b5f878152600560205260409020600981015460c81161086157604051630794e5cf60e31b815260040160405180910390fd5b600380545f918261087183613302565b9190505590506040518061010001604052808281526020018a8152602001336001600160a01b031681526020018981526020018860048111156108b6576108b6612aac565b81524260208083019190915260408083018a905260609283018990525f85815260068352819020845181559184015160018301558301516002820180546001600160a01b0319166001600160a01b039092169190911790559082015160038201906109219082613371565b506080820151816004015f6101000a81548160ff0219169083600481111561094b5761094b612aac565b021790555060a0820151600582015560c0820151600682019061096e9082613371565b5060e091909101516007909101556009820180546001810182555f918252602090912001819055600b82015460ff1680156109ad5750600160ff1b8514155b80156109c3575060508513806109c35750601485125b15610a0b57610a098960036040518060400160405280601881526020017f54656d7065726174757265206f7574206f662072616e676500000000000000008152506126d6565b505b88817f529e5c9e24a307575814835cf69244181f51bc2ae08b95b8c8459d652a7ee9cf8933604051610a3e92919061342f565b60405180910390a398975050505050505050565b6001546001600160a01b03163314610a7d5760405163058d9a1b60e01b815260040160405180910390fd5b5f8054336001600160a01b0319918216811783556001805490921690915560405190917f24a7c28d8edc5ccd4ef428ebc1dce34762fe38b7fdcca1f3f20c818f04deb15691a2565b610acd6128ae565b6001600160a01b038116610af45760405163e6c4247b60e01b815260040160405180910390fd5b600180546001600160a01b0319166001600160a01b0383169081179091556040517fd3695f12c05bea129b5971fed99014a4efd003a3a8b45d6952b74fbd31d85d8a905f90a250565b606083610b49816126a3565b5f8581526005602052604090206009018054808610610b9c57604080515f8082526020820190925290610b92565b610b7f6129cb565b815260200190600190039081610b775790505b5093505050610e3e565b5f81610ba88789613454565b11610bbc57610bb78688613454565b610bbe565b815b90505f610bcb888361346d565b6001600160401b03811115610be257610be2612c22565b604051908082528060200260200182016040528015610c1b57816020015b610c086129cb565b815260200190600190039081610c005790505b509050875b82811015610e375760065f868381548110610c3d57610c3d613480565b905f5260205f20015481526020019081526020015f20604051806101000160405290815f820154815260200160018201548152602001600282015f9054906101000a90046001600160a01b03166001600160a01b03166001600160a01b03168152602001600382018054610cb0906132bc565b80601f0160208091040260200160405190810160405280929190818152602001828054610cdc906132bc565b8015610d275780601f10610cfe57610100808354040283529160200191610d27565b820191905f5260205f20905b815481529060010190602001808311610d0a57829003601f168201915b505050918352505060048281015460209092019160ff1690811115610d4e57610d4e612aac565b6004811115610d5f57610d5f612aac565b815260200160058201548152602001600682018054610d7d906132bc565b80601f0160208091040260200160405190810160405280929190818152602001828054610da9906132bc565b8015610df45780601f10610dcb57610100808354040283529160200191610df4565b820191905f5260205f20905b815481529060010190602001808311610dd757829003601f168201915b50505050508152602001600782015481525050828a83610e14919061346d565b81518110610e2457610e24613480565b6020908102919091010152600101610c20565b5094505050505b509392505050565b610e4e6129cb565b811580610e5d57506003548210155b15610e835760405163115e4e5560e11b8152600481018390526024015b60405180910390fd5b5f828152600660209081526040918290208251610100810184528154815260018201549281019290925260028101546001600160a01b031692820192909252600382018054919291606084019190610eda906132bc565b80601f0160208091040260200160405190810160405280929190818152602001828054610f06906132bc565b8015610f515780601f10610f2857610100808354040283529160200191610f51565b820191905f5260205f20905b815481529060010190602001808311610f3457829003601f168201915b505050918352505060048281015460209092019160ff1690811115610f7857610f78612aac565b6004811115610f8957610f89612aac565b815260200160058201548152602001600682018054610fa7906132bc565b80601f0160208091040260200160405190810160405280929190818152602001828054610fd3906132bc565b801561101e5780601f10610ff55761010080835404028352916020019161101e565b820191905f5260205f20905b81548152906001019060200180831161100157829003601f168201915b505050505081526020016007820154815250509050919050565b6110686040805160a0810182525f8082526060602083015290918201908152606060208201525f60409091015290565b6001600160a01b038083165f90815260086020908152604091829020825160a0810190935280549093168252600183018054929392918401916110aa906132bc565b80601f01602080910402602001604051908101604052809291908181526020018280546110d6906132bc565b80156111215780601f106110f857610100808354040283529160200191611121565b820191905f5260205f20905b81548152906001019060200180831161110457829003601f168201915b5050509183525050600282015460209091019060ff16600581111561114857611148612aac565b600581111561115957611159612aac565b815260200160038201805461116d906132bc565b80601f0160208091040260200160405190810160405280929190818152602001828054611199906132bc565b80156111e45780601f106111bb576101008083540402835291602001916111e4565b820191905f5260205f20905b8154815290600101906020018083116111c757829003601f168201915b50505091835250506004919091015460ff16151560209091015292915050565b5f61120d61266f565b6001335f9081526008602052604090206002015460ff16600581111561123557611235612aac565b146112535760405163f5b4341560e01b815260040160405180910390fd5b600280545f918261126383613302565b909155505f818152600560205260409020818155600181018054336001600160a01b0319918216179091556002820180549091166001600160a01b038b16179055909150600381016112b58882613371565b50600481016112c48782613371565b50600581016112d38682613371565b5042600682015560088101805460ff19908116909155600b8201805490911685151517905561130233836128d8565b6001600160a01b0388161561131b5761131b88836128d8565b876001600160a01b0316336001600160a01b0316837f8fb6b855d6cbdf201f2fcaadbf8c38d36168ff7d2ca865cb2599abcd5a060e8f8a60405161135f9190613494565b60405180910390a4509695505050505050565b60608361137e816126a3565b5f858152600560205260409020600a0180548086106113d057604080515f8082526020820190925290610b92565b6113b4612a0c565b8152602001906001900390816113ac5790505093505050610e3e565b5f816113dc8789613454565b116113f0576113eb8688613454565b6113f2565b815b90505f6113ff888361346d565b6001600160401b0381111561141657611416612c22565b60405190808252806020026020018201604052801561144f57816020015b61143c612a0c565b8152602001906001900390816114345790505b509050875b82811015610e375760075f86838154811061147157611471613480565b905f5260205f20015481526020019081526020015f20604051806101000160405290815f820154815260200160018201548152602001600282015f9054906101000a900460ff1660048111156114c9576114c9612aac565b60048111156114da576114da612aac565b8152600282015461010090046001600160a01b03166020820152600382018054604090920191611509906132bc565b80601f0160208091040260200160405190810160405280929190818152602001828054611535906132bc565b80156115805780601f1061155757610100808354040283529160200191611580565b820191905f5260205f20905b81548152906001019060200180831161156357829003601f168201915b505050918352505060048201546020820152600582015460ff16151560408201526006820180546060909201916115b6906132bc565b80601f01602080910402602001604051908101604052809291908181526020018280546115e2906132bc565b801561162d5780601f106116045761010080835404028352916020019161162d565b820191905f5260205f20905b81548152906001019060200180831161161057829003601f168201915b505050505081525050828a83611643919061346d565b8151811061165357611653613480565b6020908102919091010152600101611454565b61166e6128ae565b6001600160a01b038181165f90815260086020526040902054166116a557604051636f46a36560e01b815260040160405180910390fd5b6001600160a01b0381165f81815260086020908152604091829020600401805460ff1916600190811790915591519182527f7d434f3bffe7db5f776c1c2b3b22e492788bdfbd071e9aa176f096970ea8893391015b60405180910390a250565b61170d6128ae565b82158061171c57506004548310155b1561173d57604051630ae30d3b60e41b815260048101849052602401610e7a565b5f83815260076020526040902060058101805460ff191660011790556006016117678284836134a6565b50827f0428bfb0046d8263eac6b65dfccaecbcc6ad51c0a25f224d1f936ab94490029b838360405161179a92919061355f565b60405180910390a2505050565b6001600160a01b0381165f9081526009602090815260409182902080548351818402810184019094528084526060939283018282801561180457602002820191905f5260205f20905b8154815260200190600101908083116117f0575b50505050509050919050565b6118186128ae565b6001600160a01b03811661183f5760405163e6c4247b60e01b815260040160405180910390fd5b5f80546001600160a01b0383166001600160a01b0319918216811783556001805490921690915560405190917f24a7c28d8edc5ccd4ef428ebc1dce34762fe38b7fdcca1f3f20c818f04deb15691a250565b61189961266f565b816118a3816126a3565b335f90815260086020526040902060029081015460ff16908160058111156118cd576118cd612aac565b141580156118ed575060038160058111156118ea576118ea612aac565b14155b1561190b5760405163ef92a56b60e01b815260040160405180910390fd5b600483600681111561191f5761191f612aac565b0361193d57604051639e96bb6960e01b815260040160405180910390fd5b5f848152600560205260409020600801805484919060ff1916600183600681111561196a5761196a612aac565b021790555061197933856128d8565b837f7c1c93f72f29b8a1fc6fc85eed990d133b1ffac80c962b521abb12f38f2ff9af846040516119a9919061358d565b60405180910390a250505050565b806119c1816126a3565b5f82815260056020526040902060018101546001600160a01b031633146119fb57604051631fbbf51f60e11b815260040160405180910390fd5b600881015460ff166004816006811115611a1757611a17612aac565b1480611a3457506005816006811115611a3257611a32612aac565b145b80611a5057506006816006811115611a4e57611a4e612aac565b145b15611a6e576040516308b167a560e41b815260040160405180910390fd5b5f816006811115611a8157611a81612aac565b14158015611aa157506002816006811115611a9e57611a9e612aac565b14155b15611abf57604051632e1b06c760e21b815260040160405180910390fd5b60088201805460ff1916600690811790915560405185917f7c1c93f72f29b8a1fc6fc85eed990d133b1ffac80c962b521abb12f38f2ff9af916119a9919061358d565b606081611b0e816126a3565b5f83815260056020526040812060090180549091906001600160401b03811115611b3a57611b3a612c22565b604051908082528060200260200182016040528015611b7357816020015b611b606129cb565b815260200190600190039081611b585790505b5090505f5b8254811015611d855760065f848381548110611b9657611b96613480565b905f5260205f20015481526020019081526020015f20604051806101000160405290815f820154815260200160018201548152602001600282015f9054906101000a90046001600160a01b03166001600160a01b03166001600160a01b03168152602001600382018054611c09906132bc565b80601f0160208091040260200160405190810160405280929190818152602001828054611c35906132bc565b8015611c805780601f10611c5757610100808354040283529160200191611c80565b820191905f5260205f20905b815481529060010190602001808311611c6357829003601f168201915b505050918352505060048281015460209092019160ff1690811115611ca757611ca7612aac565b6004811115611cb857611cb8612aac565b815260200160058201548152602001600682018054611cd6906132bc565b80601f0160208091040260200160405190810160405280929190818152602001828054611d02906132bc565b8015611d4d5780601f10611d2457610100808354040283529160200191611d4d565b820191905f5260205f20905b815481529060010190602001808311611d3057829003601f168201915b50505050508152602001600782015481525050828281518110611d7257611d72613480565b6020908102919091010152600101611b78565b509250505b50919050565b611d98612a0c565b811580611da757506004548210155b15611dc857604051630ae30d3b60e41b815260048101839052602401610e7a565b5f82815260076020908152604091829020825161010081018452815481526001820154928101929092526002810154919290919083019060ff166004811115611e1357611e13612aac565b6004811115611e2457611e24612aac565b8152600282015461010090046001600160a01b03166020820152600382018054604090920191611e53906132bc565b80601f0160208091040260200160405190810160405280929190818152602001828054611e7f906132bc565b8015611eca5780601f10611ea157610100808354040283529160200191611eca565b820191905f5260205f20905b815481529060010190602001808311611ead57829003601f168201915b505050918352505060048201546020820152600582015460ff1615156040820152600682018054606090920191611f00906132bc565b80601f0160208091040260200160405190810160405280929190818152602001828054611f2c906132bc565b8015611f775780601f10611f4e57610100808354040283529160200191611f77565b820191905f5260205f20905b815481529060010190602001808311611f5a57829003601f168201915b5050505050815250509050919050565b606081611f93816126a3565b5f838152600560205260408120600a0180549091906001600160401b03811115611fbf57611fbf612c22565b604051908082528060200260200182016040528015611ff857816020015b611fe5612a0c565b815260200190600190039081611fdd5790505b5090505f5b8254811015611d855760075f84838154811061201b5761201b613480565b905f5260205f20015481526020019081526020015f20604051806101000160405290815f820154815260200160018201548152602001600282015f9054906101000a900460ff16600481111561207357612073612aac565b600481111561208457612084612aac565b8152600282015461010090046001600160a01b031660208201526003820180546040909201916120b3906132bc565b80601f01602080910402602001604051908101604052809291908181526020018280546120df906132bc565b801561212a5780601f106121015761010080835404028352916020019161212a565b820191905f5260205f20905b81548152906001019060200180831161210d57829003601f168201915b505050918352505060048201546020820152600582015460ff1615156040820152600682018054606090920191612160906132bc565b80601f016020809104026020016040519081016040528092919081815260200182805461218c906132bc565b80156121d75780601f106121ae576101008083540402835291602001916121d7565b820191905f5260205f20905b8154815290600101906020018083116121ba57829003601f168201915b5050505050815250508282815181106121f2576121f2613480565b6020908102919091010152600101611ffd565b5f81612210816126a3565b5f838152600560205260409020600b81015460ff16612233576001925050611d8a565b60098101545f5b818110156122b2575f60065f85600901848154811061225b5761225b613480565b905f5260205f20015481526020019081526020015f20600701549050600160ff1b810361228857506122aa565b60508113806122975750601481125b156122a8575f955050505050611d8a565b505b60010161223a565b50600195945050505050565b6122c66128ae565b6001600160a01b0381166122ed5760405163e6c4247b60e01b815260040160405180910390fd5b6001600160a01b0381165f9081526008602052604090206004015460ff161561232957604051631f289d9f60e21b815260040160405180910390fd5b5f83600581111561233c5761233c612aac565b0361235a57604051636caa20b560e11b815260040160405180910390fd5b6040518060a00160405280826001600160a01b0316815260200185815260200184600581111561238c5761238c612aac565b81526020808201859052600160409283018190526001600160a01b038581165f9081526008845293909320845181546001600160a01b031916941693909317835590830151908201906123df9082613371565b50604082015160028201805460ff1916600183600581111561240357612403612aac565b02179055506060820151600382019061241c9082613371565b50608091909101516004909101805460ff19169115159190911790556040516001600160a01b038216907fc9a31de765abe70445345802bee3c96554ca063ab257e3888d498accb859fabc906119a9908790879061359b565b5f61247e61266f565b83612488816126a3565b335f908152600a6020908152604080832088845290915290205460ff166124c25760405163d40c3d2160e01b815260040160405180910390fd5b6124cd8585856126d6565b95945050505050565b6124de6128ae565b6001600160a01b038181165f908152600860205260409020541661251557604051636f46a36560e01b815260040160405180910390fd5b6001600160a01b0381165f818152600860209081526040808320600401805460ff19169055519182527f7d434f3bffe7db5f776c1c2b3b22e492788bdfbd071e9aa176f096970ea8893391016116fa565b80612570816126a3565b5f82815260056020526040902060028101546001600160a01b031633146125a9576040516201ec0960e61b815260040160405180910390fd5b6004600882015460ff1660068111156125c4576125c4612aac565b036125e25760405163b9f7965360e01b815260040160405180910390fd5b60088101805460ff1916600490811790915542600783015560405184917f7c1c93f72f29b8a1fc6fc85eed990d133b1ffac80c962b521abb12f38f2ff9af9161262b919061358d565b60405180910390a2604051428152339084907f2f4a952729db32131cb3d658cc231127e0ce7e50f83508ece9a49c985f2384d09060200160405180910390a3505050565b335f9081526008602052604090206004015460ff166126a157604051632a718ceb60e01b815260040160405180910390fd5b565b8015806126b257506002548110155b156126d357604051632139528960e21b815260048101829052602401610e7a565b50565b5f838152600560205260408120600a8101546032116127085760405163336de9db60e21b815260040160405180910390fd5b600480545f918261271883613302565b91905055905060405180610100016040528082815260200187815260200186600481111561274857612748612aac565b8152602001336001600160a01b031681526020018581526020014281526020015f1515815260200160405180602001604052805f81525081525060075f8381526020019081526020015f205f820151815f0155602082015181600101556040820151816002015f6101000a81548160ff021916908360048111156127ce576127ce612aac565b021790555060608201516002820180546001600160a01b0390921661010002610100600160a81b0319909216919091179055608082015160038201906128149082613371565b5060a0820151600482015560c082015160058201805460ff191691151591909117905560e0820151600682019061284b9082613371565b505050600a820180546001810182555f918252602090912001819055604051869082907fc2c9d0fa5caecea68b9ec6aca764014b01764f779d8a510f0d0d6796b76b7c839061289b9089906135bc565b60405180910390a39150505b9392505050565b5f546001600160a01b031633146126a157604051634755657960e01b815260040160405180910390fd5b6001600160a01b0382165f908152600a6020908152604080832084845290915290205460ff1661294b576001600160a01b0382165f818152600a602090815260408083208584528252808320805460ff191660019081179091559383526009825282208054938401815582529020018190555b5050565b6040518061018001604052805f81526020015f6001600160a01b031681526020015f6001600160a01b031681526020016060815260200160608152602001606081526020015f81526020015f81526020015f60068111156129b2576129b2612aac565b8152606060208201819052604082018190525f91015290565b60408051610100810182525f8082526020820181905291810182905260608082015290608082019081526020015f8152602001606081526020015f81525090565b6040518061010001604052805f81526020015f81526020015f6004811115612a3657612a36612aac565b81526020015f6001600160a01b03168152602001606081526020015f81526020015f15158152602001606081525090565b5f60208284031215612a77575f5ffd5b5035919050565b5f81518084528060208401602086015e5f602082860101526020601f19601f83011685010191505092915050565b634e487b7160e01b5f52602160045260245ffd5b60078110612ad057612ad0612aac565b9052565b5f8151808452602084019350602083015f5b82811015612b04578151865260209586019590910190600101612ae6565b5093949350505050565b60208152815160208201525f6020830151612b3460408401826001600160a01b03169052565b5060408301516001600160a01b03811660608401525060608301516101806080840152612b656101a0840182612a7e565b90506080840151601f198483030160a0850152612b828282612a7e565b91505060a0840151601f198483030160c0850152612ba08282612a7e565b91505060c084015160e084015260e0840151610100840152610100840151612bcc610120850182612ac0565b50610120840151838203601f1901610140850152612bea8282612ad4565b915050610140840151601f1984830301610160850152612c0a8282612ad4565b915050610160840151610e3e61018085018215159052565b634e487b7160e01b5f52604160045260245ffd5b5f82601f830112612c45575f5ffd5b81356001600160401b03811115612c5e57612c5e612c22565b604051601f8201601f19908116603f011681016001600160401b0381118282101715612c8c57612c8c612c22565b604052818152838201602001851015612ca3575f5ffd5b816020850160208301375f918101602001919091529392505050565b600581106126d3575f5ffd5b5f5f5f5f5f60a08688031215612cdf575f5ffd5b8535945060208601356001600160401b03811115612cfb575f5ffd5b612d0788828901612c36565b9450506040860135612d1881612cbf565b925060608601356001600160401b03811115612d32575f5ffd5b612d3e88828901612c36565b95989497509295608001359392505050565b80356001600160a01b0381168114612d66575f5ffd5b919050565b5f60208284031215612d7b575f5ffd5b6128a782612d50565b5f5f5f60608486031215612d96575f5ffd5b505081359360208301359350604090920135919050565b600581106126d3576126d3612aac565b612ad081612dad565b805182526020810151602083015260018060a01b0360408201511660408301525f60608201516101006060850152612e02610100850182612a7e565b90506080830151612e166080860182612dbd565b5060a083015160a085015260c083015184820360c0860152612e388282612a7e565b91505060e083015160e08501528091505092915050565b5f602082016020835280845180835260408501915060408160051b8601019250602086015f5b82811015612ea657603f19878603018452612e91858351612dc6565b94506020938401939190910190600101612e75565b50929695505050505050565b602081525f6128a76020830184612dc6565b60068110612ad057612ad0612aac565b602080825282516001600160a01b03168282015282015160a060408301525f90612f0160c0840182612a7e565b90506040840151612f156060850182612ec4565b506060840151838203601f19016080850152612f318282612a7e565b9150506080840151151560a08401528091505092915050565b5f5f5f5f5f60a08688031215612f5e575f5ffd5b612f6786612d50565b945060208601356001600160401b03811115612f81575f5ffd5b612f8d88828901612c36565b94505060408601356001600160401b03811115612fa8575f5ffd5b612fb488828901612c36565b93505060608601356001600160401b03811115612fcf575f5ffd5b612fdb88828901612c36565b92505060808601358015158114612ff0575f5ffd5b809150509295509295909350565b80518252602081015160208301525f604082015161301b81612dad565b80604085015250606082015161303c60608501826001600160a01b03169052565b5060808201516101006080850152613058610100850182612a7e565b905060a083015160a085015260c083015161307760c086018215159052565b5060e083015184820360e08601526124cd8282612a7e565b5f602082016020835280845180835260408501915060408160051b8601019250602086015f5b82811015612ea657603f198786030184526130d1858351612ffe565b945060209384019391909101906001016130b5565b5f5f5f604084860312156130f8575f5ffd5b8335925060208401356001600160401b03811115613114575f5ffd5b8401601f81018613613124575f5ffd5b80356001600160401b03811115613139575f5ffd5b86602082840101111561314a575f5ffd5b939660209190910195509293505050565b602080825282518282018190525f918401906040840190835b81811015613192578351835260209384019390920191600101613174565b509095945050505050565b5f5f604083850312156131ae575f5ffd5b823591506020830135600781106131c3575f5ffd5b809150509250929050565b602081525f6128a76020830184612ffe565b5f5f5f5f608085870312156131f3575f5ffd5b84356001600160401b03811115613208575f5ffd5b61321487828801612c36565b945050602085013560068110613228575f5ffd5b925060408501356001600160401b03811115613242575f5ffd5b61324e87828801612c36565b92505061325d60608601612d50565b905092959194509250565b5f5f5f6060848603121561327a575f5ffd5b83359250602084013561328c81612cbf565b915060408401356001600160401b038111156132a6575f5ffd5b6132b286828701612c36565b9150509250925092565b600181811c908216806132d057607f821691505b602082108103611d8a57634e487b7160e01b5f52602260045260245ffd5b634e487b7160e01b5f52601160045260245ffd5b5f60018201613313576133136132ee565b5060010190565b601f82111561336c578282111561336c57805f5260205f20601f840160051c602085101561334557505f5b90810190601f840160051c035f5b81811015613368575f83820155600101613353565b5050505b505050565b81516001600160401b0381111561338a5761338a612c22565b61339e8161339884546132bc565b8461331a565b6020601f8211600181146133d0575f83156133b95750848201515b5f19600385901b1c1916600184901b178455613428565b5f84815260208120601f198516915b828110156133ff57878501518255602094850194600190920191016133df565b508482101561341c57868401515f19600387901b60f8161c191681555b505060018360011b0184555b5050505050565b6040810161343c84612dad565b9281526001600160a01b039190911660209091015290565b80820180821115613467576134676132ee565b92915050565b81810381811115613467576134676132ee565b634e487b7160e01b5f52603260045260245ffd5b602081525f6128a76020830184612a7e565b6001600160401b038311156134bd576134bd612c22565b6134d1836134cb83546132bc565b8361331a565b5f601f841160018114613502575f85156134eb5750838201355b5f19600387901b1c1916600186901b178355613428565b5f83815260208120601f198716915b828110156135315786850135825560209485019460019092019101613511565b508682101561354d575f1960f88860031b161c19848701351681555b505060018560011b0183555050505050565b60208152816020820152818360408301375f818301604090810191909152601f909201601f19160101919050565b602081016134678284612ac0565b604081525f6135ad6040830185612a7e565b90506128a76020830184612ec4565b602081016135c983612dad565b9190529056fea264697066735822122029ea7c456f693b7826b28559aab2ce6c17178ce5e4500ebb80e24d2137b4dcc264736f6c63430008210033","linkReferences":{}},"methodIdentifiers":{"COLD_CHAIN_TEMP_MAX()":"7b8a20e2","COLD_CHAIN_TEMP_MIN()":"a54a6ee4","MAX_CHECKPOINTS_PER_SHIPMENT()":"63f86584","MAX_INCIDENTS_PER_SHIPMENT()":"305207b0","TEMPERATURE_NOT_SET()":"2bf210dc","acceptAdmin()":"0e18b681","admin()":"f851a440","cancelShipment(uint256)":"7faa7bc7","confirmDelivery(uint256)":"fd84cb97","createShipment(address,string,string,string,bool)":"475b6f98","deactivateActor(address)":"fc436695","getActor(address)":"4138d167","getActorShipments(address)":"72f2f93a","getAllShipmentCheckpoints(uint256)":"8d70861e","getAllShipmentIncidents(uint256)":"9b4adf4e","getCheckpoint(uint256)":"20fc4881","getIncident(uint256)":"9578615e","getShipment(uint256)":"092b3740","getShipmentCheckpoints(uint256,uint256,uint256)":"17082ae0","getShipmentIncidents(uint256,uint256,uint256)":"48016224","isIncidentResolved(uint256)":"925d3478","nextCheckpointId()":"229ec452","nextIncidentId()":"0fd19668","nextShipmentId()":"b9a3a68c","pendingAdmin()":"26782247","proposeAdmin(address)":"147bf6c4","reactivateActor(address)":"58dcf85e","recordCheckpoint(uint256,string,uint8,string,int256)":"0a7a0b69","registerActor(string,uint8,string,address)":"b7fa3c2a","reportIncident(uint256,uint8,string)":"e570c367","resolveIncident(uint256,string)":"5e6b2086","transferAdmin(address)":"75829def","updateShipmentStatus(uint256,uint8)":"7defa920","verifyTemperatureCompliance(uint256)":"af56a428"},"id":16}