{"abi":[{"type":"constructor","inputs":[],"stateMutability":"nonpayable"},{"type":"function","name":"COLD_CHAIN_TEMP_MAX","inputs":[],"outputs":[{"name":"","type":"int256","internalType":"int256"}],"stateMutability":"view"},{"type":"function","name":"COLD_CHAIN_TEMP_MIN","inputs":[],"outputs":[{"name":"","type":"int256","internalType":"int256"}],"stateMutability":"view"},{"type":"function","name":"MAX_CHECKPOINTS_PER_SHIPMENT","inputs":[],"outputs":[{"name":"","type":"uint256","internalType":"uint256"}],"stateMutability":"view"},{"type":"function","name":"MAX_INCIDENTS_PER_SHIPMENT","inputs":[],"outputs":[{"name":"","type":"uint256","internalType":"uint256"}],"stateMutability":"view"},{"type":"function","name":"TEMPERATURE_NOT_SET","inputs":[],"outputs":[{"name":"","type":"int256","internalType":"int256"}],"stateMutability":"view"},{"type":"function","name":"acceptAdmin","inputs":[],"outputs":[],"stateMutability":"nonpayable"},{"type":"function","name":"admin","inputs":[],"outputs":[{"name":"","type":"address","internalType":"address"}],"stateMutability":"view"},{"type":"function","name":"cancelShipment","inputs":[{"name":"_shipmentId","type":"uint256","internalType":"uint256"}],"outputs":[],"stateMutability":"nonpayable"},{"type":"function","name":"confirmDelivery","inputs":[{"name":"_shipmentId","type":"uint256","internalType":"uint256"}],"outputs":[],"stateMutability":"nonpayable"},{"type":"function","name":"createShipment","inputs":[{"name":"_recipient","type":"address","internalType":"address"},{"name":"_product","type":"string","internalType":"string"},{"name":"_origin","type":"string","internalType":"string"},{"name":"_destination","type":"string","internalType":"string"},{"name":"_requiresColdChain","type":"bool","internalType":"bool"}],"outputs":[{"name":"","type":"uint256","internalType":"uint256"}],"stateMutability":"nonpayable"},{"type":"function","name":"deactivateActor","inputs":[{"name":"_actorAddress","type":"address","internalType":"address"}],"outputs":[],"stateMutability":"nonpayable"},{"type":"function","name":"getActor","inputs":[{"name":"_actorAddress","type":"address","internalType":"address"}],"outputs":[{"name":"","type":"tuple","internalType":"struct LogisticsTracking.Actor","components":[{"name":"actorAddress","type":"address","internalType":"address"},{"name":"name","type":"string","internalType":"string"},{"name":"role","type":"uint8","internalType":"enum LogisticsTracking.ActorRole"},{"name":"location","type":"string","internalType":"string"},{"name":"isActive","type":"bool","internalType":"bool"}]}],"stateMutability":"view"},{"type":"function","name":"getActorShipments","inputs":[{"name":"_actor","type":"address","internalType":"address"}],"outputs":[{"name":"","type":"uint256[]","internalType":"uint256[]"}],"stateMutability":"view"},{"type":"function","name":"getAllShipmentCheckpoints","inputs":[{"name":"_id","type":"uint256","internalType":"uint256"}],"outputs":[{"name":"","type":"tuple[]","internalType":"struct LogisticsTracking.Checkpoint[]","components":[{"name":"id","type":"uint256","internalType":"uint256"},{"name":"shipmentId","type":"uint256","internalType":"uint256"},{"name":"actor","type":"address","internalType":"address"},{"name":"location","type":"string","internalType":"string"},{"name":"checkpointType","type":"uint8","internalType":"enum LogisticsTracking.CheckpointType"},{"name":"timestamp","type":"uint256","internalType":"uint256"},{"name":"notes","type":"string","internalType":"string"},{"name":"temperature","type":"int256","internalType":"int256"}]}],"stateMutability":"view"},{"type":"function","name":"getAllShipmentIncidents","inputs":[{"name":"_shipmentId","type":"uint256","internalType":"uint256"}],"outputs":[{"name":"","type":"tuple[]","internalType":"struct LogisticsTracking.Incident[]","components":[{"name":"id","type":"uint256","internalType":"uint256"},{"name":"shipmentId","type":"uint256","internalType":"uint256"},{"name":"incidentType","type":"uint8","internalType":"enum LogisticsTracking.IncidentType"},{"name":"reporter","type":"address","internalType":"address"},{"name":"description","type":"string","internalType":"string"},{"name":"timestamp","type":"uint256","internalType":"uint256"},{"name":"resolved","type":"bool","internalType":"bool"}]}],"stateMutability":"view"},{"type":"function","name":"getCheckpoint","inputs":[{"name":"_checkpointId","type":"uint256","internalType":"uint256"}],"outputs":[{"name":"","type":"tuple","internalType":"struct LogisticsTracking.Checkpoint","components":[{"name":"id","type":"uint256","internalType":"uint256"},{"name":"shipmentId","type":"uint256","internalType":"uint256"},{"name":"actor","type":"address","internalType":"address"},{"name":"location","type":"string","internalType":"string"},{"name":"checkpointType","type":"uint8","internalType":"enum LogisticsTracking.CheckpointType"},{"name":"timestamp","type":"uint256","internalType":"uint256"},{"name":"notes","type":"string","internalType":"string"},{"name":"temperature","type":"int256","internalType":"int256"}]}],"stateMutability":"view"},{"type":"function","name":"getIncident","inputs":[{"name":"_incidentId","type":"uint256","internalType":"uint256"}],"outputs":[{"name":"","type":"tuple","internalType":"struct LogisticsTracking.Incident","components":[{"name":"id","type":"uint256","internalType":"uint256"},{"name":"shipmentId","type":"uint256","internalType":"uint256"},{"name":"incidentType","type":"uint8","internalType":"enum LogisticsTracking.IncidentType"},{"name":"reporter","type":"address","internalType":"address"},{"name":"description","type":"string","internalType":"string"},{"name":"timestamp","type":"uint256","internalType":"uint256"},{"name":"resolved","type":"bool","internalType":"bool"}]}],"stateMutability":"view"},{"type":"function","name":"getShipment","inputs":[{"name":"_id","type":"uint256","internalType":"uint256"}],"outputs":[{"name":"","type":"tuple","internalType":"struct LogisticsTracking.Shipment","components":[{"name":"id","type":"uint256","internalType":"uint256"},{"name":"sender","type":"address","internalType":"address"},{"name":"recipient","type":"address","internalType":"address"},{"name":"product","type":"string","internalType":"string"},{"name":"origin","type":"string","internalType":"string"},{"name":"destination","type":"string","internalType":"string"},{"name":"dateCreated","type":"uint256","internalType":"uint256"},{"name":"dateDelivered","type":"uint256","internalType":"uint256"},{"name":"status","type":"uint8","internalType":"enum LogisticsTracking.ShipmentStatus"},{"name":"checkpointIds","type":"uint256[]","internalType":"uint256[]"},{"name":"incidentIds","type":"uint256[]","internalType":"uint256[]"},{"name":"requiresColdChain","type":"bool","internalType":"bool"}]}],"stateMutability":"view"},{"type":"function","name":"getShipmentCheckpoints","inputs":[{"name":"_id","type":"uint256","internalType":"uint256"},{"name":"_offset","type":"uint256","internalType":"uint256"},{"name":"_limit","type":"uint256","internalType":"uint256"}],"outputs":[{"name":"","type":"tuple[]","internalType":"struct LogisticsTracking.Checkpoint[]","components":[{"name":"id","type":"uint256","internalType":"uint256"},{"name":"shipmentId","type":"uint256","internalType":"uint256"},{"name":"actor","type":"address","internalType":"address"},{"name":"location","type":"string","internalType":"string"},{"name":"checkpointType","type":"uint8","internalType":"enum LogisticsTracking.CheckpointType"},{"name":"timestamp","type":"uint256","internalType":"uint256"},{"name":"notes","type":"string","internalType":"string"},{"name":"temperature","type":"int256","internalType":"int256"}]}],"stateMutability":"view"},{"type":"function","name":"getShipmentIncidents","inputs":[{"name":"_shipmentId","type":"uint256","internalType":"uint256"},{"name":"_offset","type":"uint256","internalType":"uint256"},{"name":"_limit","type":"uint256","internalType":"uint256"}],"outputs":[{"name":"","type":"tuple[]","internalType":"struct LogisticsTracking.Incident[]","components":[{"name":"id","type":"uint256","internalType":"uint256"},{"name":"shipmentId","type":"uint256","internalType":"uint256"},{"name":"incidentType","type":"uint8","internalType":"enum LogisticsTracking.IncidentType"},{"name":"reporter","type":"address","internalType":"address"},{"name":"description","type":"string","internalType":"string"},{"name":"timestamp","type":"uint256","internalType":"uint256"},{"name":"resolved","type":"bool","internalType":"bool"}]}],"stateMutability":"view"},{"type":"function","name":"isIncidentResolved","inputs":[{"name":"_incidentId","type":"uint256","internalType":"uint256"}],"outputs":[{"name":"","type":"bool","internalType":"bool"}],"stateMutability":"view"},{"type":"function","name":"nextCheckpointId","inputs":[],"outputs":[{"name":"","type":"uint256","internalType":"uint256"}],"stateMutability":"view"},{"type":"function","name":"nextIncidentId","inputs":[],"outputs":[{"name":"","type":"uint256","internalType":"uint256"}],"stateMutability":"view"},{"type":"function","name":"nextShipmentId","inputs":[],"outputs":[{"name":"","type":"uint256","internalType":"uint256"}],"stateMutability":"view"},{"type":"function","name":"pendingAdmin","inputs":[],"outputs":[{"name":"","type":"address","internalType":"address"}],"stateMutability":"view"},{"type":"function","name":"proposeAdmin","inputs":[{"name":"_newAdmin","type":"address","internalType":"address"}],"outputs":[],"stateMutability":"nonpayable"},{"type":"function","name":"reactivateActor","inputs":[{"name":"_actorAddress","type":"address","internalType":"address"}],"outputs":[],"stateMutability":"nonpayable"},{"type":"function","name":"recordCheckpoint","inputs":[{"name":"_shipmentId","type":"uint256","internalType":"uint256"},{"name":"_location","type":"string","internalType":"string"},{"name":"_checkpointType","type":"uint8","internalType":"enum LogisticsTracking.CheckpointType"},{"name":"_notes","type":"string","internalType":"string"},{"name":"_temperature","type":"int256","internalType":"int256"}],"outputs":[{"name":"","type":"uint256","internalType":"uint256"}],"stateMutability":"nonpayable"},{"type":"function","name":"registerActor","inputs":[{"name":"_name","type":"string","internalType":"string"},{"name":"_role","type":"uint8","internalType":"enum LogisticsTracking.ActorRole"},{"name":"_location","type":"string","internalType":"string"},{"name":"_actorAddress","type":"address","internalType":"address"}],"outputs":[],"stateMutability":"nonpayable"},{"type":"function","name":"reportIncident","inputs":[{"name":"_shipmentId","type":"uint256","internalType":"uint256"},{"name":"_type","type":"uint8","internalType":"enum LogisticsTracking.IncidentType"},{"name":"_desc","type":"string","internalType":"string"}],"outputs":[{"name":"","type":"uint256","internalType":"uint256"}],"stateMutability":"nonpayable"},{"type":"function","name":"resolveIncident","inputs":[{"name":"_incidentId","type":"uint256","internalType":"uint256"}],"outputs":[],"stateMutability":"nonpayable"},{"type":"function","name":"transferAdmin","inputs":[{"name":"_newAdmin","type":"address","internalType":"address"}],"outputs":[],"stateMutability":"nonpayable"},{"type":"function","name":"updateShipmentStatus","inputs":[{"name":"_shipmentId","type":"uint256","internalType":"uint256"},{"name":"_newStatus","type":"uint8","internalType":"enum LogisticsTracking.ShipmentStatus"}],"outputs":[],"stateMutability":"nonpayable"},{"type":"function","name":"verifyTemperatureCompliance","inputs":[{"name":"_shipmentId","type":"uint256","internalType":"uint256"}],"outputs":[{"name":"","type":"bool","internalType":"bool"}],"stateMutability":"view"},{"type":"event","name":"ActorRegistered","inputs":[{"name":"actorAddress","type":"address","indexed":true,"internalType":"address"},{"name":"name","type":"string","indexed":false,"internalType":"string"},{"name":"role","type":"uint8","indexed":false,"internalType":"enum LogisticsTracking.ActorRole"}],"anonymous":false},{"type":"event","name":"ActorStatusChanged","inputs":[{"name":"actorAddress","type":"address","indexed":true,"internalType":"address"},{"name":"isActive","type":"bool","indexed":false,"internalType":"bool"}],"anonymous":false},{"type":"event","name":"AdminTransferAccepted","inputs":[{"name":"newAdmin","type":"address","indexed":true,"internalType":"address"}],"anonymous":false},{"type":"event","name":"AdminTransferProposed","inputs":[{"name":"proposedAdmin","type":"address","indexed":true,"internalType":"address"}],"anonymous":false},{"type":"event","name":"CheckpointRecorded","inputs":[{"name":"checkpointId","type":"uint256","indexed":true,"internalType":"uint256"},{"name":"shipmentId","type":"uint256","indexed":true,"internalType":"uint256"},{"name":"checkpointType","type":"uint8","indexed":false,"internalType":"enum LogisticsTracking.CheckpointType"},{"name":"actor","type":"address","indexed":false,"internalType":"address"}],"anonymous":false},{"type":"event","name":"DeliveryConfirmed","inputs":[{"name":"shipmentId","type":"uint256","indexed":true,"internalType":"uint256"},{"name":"recipient","type":"address","indexed":true,"internalType":"address"},{"name":"timestamp","type":"uint256","indexed":false,"internalType":"uint256"}],"anonymous":false},{"type":"event","name":"IncidentReported","inputs":[{"name":"incidentId","type":"uint256","indexed":true,"internalType":"uint256"},{"name":"shipmentId","type":"uint256","indexed":true,"internalType":"uint256"},{"name":"incidentType","type":"uint8","indexed":false,"internalType":"enum LogisticsTracking.IncidentType"}],"anonymous":false},{"type":"event","name":"IncidentResolved","inputs":[{"name":"incidentId","type":"uint256","indexed":true,"internalType":"uint256"}],"anonymous":false},{"type":"event","name":"ShipmentCreated","inputs":[{"name":"shipmentId","type":"uint256","indexed":true,"internalType":"uint256"},{"name":"sender","type":"address","indexed":true,"internalType":"address"},{"name":"recipient","type":"address","indexed":true,"internalType":"address"},{"name":"product","type":"string","indexed":false,"internalType":"string"}],"anonymous":false},{"type":"event","name":"ShipmentStatusChanged","inputs":[{"name":"shipmentId","type":"uint256","indexed":true,"internalType":"uint256"},{"name":"newStatus","type":"uint8","indexed":false,"internalType":"enum LogisticsTracking.ShipmentStatus"}],"anonymous":false},{"type":"error","name":"ActorDoesNotExist","inputs":[]},{"type":"error","name":"ActorInactive","inputs":[]},{"type":"error","name":"ActorNotAssignedToShipment","inputs":[]},{"type":"error","name":"AlreadyClosedShipment","inputs":[]},{"type":"error","name":"AlreadyDelivered","inputs":[]},{"type":"error","name":"AlreadyRegisteredAndActive","inputs":[]},{"type":"error","name":"CannotCancelAfterTransit","inputs":[]},{"type":"error","name":"CannotSetDeliveredDirectly","inputs":[]},{"type":"error","name":"CheckpointNotFound","inputs":[{"name":"id","type":"uint256","internalType":"uint256"}]},{"type":"error","name":"IncidentNotFound","inputs":[{"name":"id","type":"uint256","internalType":"uint256"}]},{"type":"error","name":"InvalidAddress","inputs":[]},{"type":"error","name":"InvalidRole","inputs":[]},{"type":"error","name":"MaxCheckpointsReached","inputs":[]},{"type":"error","name":"MaxIncidentsReached","inputs":[]},{"type":"error","name":"NotPendingAdmin","inputs":[]},{"type":"error","name":"OnlyAdmin","inputs":[]},{"type":"error","name":"OnlyCarrierOrHub","inputs":[]},{"type":"error","name":"OnlyRecipientCanConfirm","inputs":[]},{"type":"error","name":"OnlySenderCanCancel","inputs":[]},{"type":"error","name":"OnlySendersCanCreate","inputs":[]},{"type":"error","name":"ShipmentNotFound","inputs":[{"name":"id","type":"uint256","internalType":"uint256"}]}],"bytecode":{"object":"0x6080604052600160025560016003556001600455348015601d575f5ffd5b505f80546001600160a01b0319163317905561326d8061003c5f395ff3fe608060405234801561000f575f5ffd5b50600436106101fd575f3560e01c806372f2f93a116101145780639b4adf4e116100a9578063b9a3a68c11610079578063b9a3a68c14610481578063e570c36714610489578063f851a4401461049c578063fc436695146104ae578063fd84cb97146104c1575f5ffd5b80639b4adf4e14610440578063a54a6ee414610453578063af56a4281461045b578063b7fa3c2a1461046e575f5ffd5b80637faa7bc7116100e45780637faa7bc7146103c55780638d70861e146103d8578063925d3478146103eb5780639578615e14610420575f5ffd5b806372f2f93a1461037757806375829def146103975780637b8a20e2146103aa5780637defa920146103b2575f5ffd5b80632678224711610195578063475b6f9811610165578063475b6f981461031657806348016224146103295780634ffe6ae21461034957806358dcf85e1461035c57806363f865841461036f575f5ffd5b806326782247146102b85780632bf210dc146102e3578063305207b0146102ee5780634138d167146102f6575f5ffd5b8063147bf6c4116101d0578063147bf6c41461025d57806317082ae01461027057806320fc488114610290578063229ec452146102b0575f5ffd5b8063092b3740146102015780630a7a0b691461022a5780630e18b6811461024b5780630fd1966814610255575b5f5ffd5b61021461020f36600461284a565b6104d4565b60405161022191906128f1565b60405180910390f35b61023d610238366004612aae565b6107e2565b604051908152602001610221565b610253610a52565b005b60045461023d565b61025361026b366004612b4e565b610ac5565b61028361027e366004612b67565b610b3d565b6040516102219190612c32565b6102a361029e36600461284a565b610e46565b6040516102219190612c95565b60035461023d565b6001546102cb906001600160a01b031681565b6040516001600160a01b039091168152602001610221565b61023d600160ff1b81565b61023d603281565b610309610304366004612b4e565b611038565b6040516102219190612cb7565b61023d610324366004612d2d565b611204565b61033c610337366004612b67565b611372565b6040516102219190612e53565b61025361035736600461284a565b6115d0565b61025361036a366004612b4e565b61164d565b61023d60c881565b61038a610385366004612b4e565b6116ec565b6040516102219190612eaa565b6102536103a5366004612b4e565b611755565b61023d605081565b6102536103c0366004612eec565b6117d6565b6102536103d336600461284a565b6118fc565b6102836103e636600461284a565b611a47565b6104106103f936600461284a565b5f9081526007602052604090206005015460ff1690565b6040519015158152602001610221565b61043361042e36600461284a565b611cd5565b6040516102219190612f1d565b61033c61044e36600461284a565b611e37565b61023d601481565b61041061046936600461284a565b612023565b61025361047c366004612f2f565b6120dc565b60025461023d565b61023d610497366004612fb7565b612293565b5f546102cb906001600160a01b031681565b6102536104bc366004612b4e565b6122f4565b6102536104cf36600461284a565b612384565b6104dc612743565b5f828152600560209081526040918290208251610180810184528154815260018201546001600160a01b03908116938201939093526002820154909216928201929092526003820180549192916060840191906105389061300b565b80601f01602080910402602001604051908101604052809291908181526020018280546105649061300b565b80156105af5780601f10610586576101008083540402835291602001916105af565b820191905f5260205f20905b81548152906001019060200180831161059257829003601f168201915b505050505081526020016004820180546105c89061300b565b80601f01602080910402602001604051908101604052809291908181526020018280546105f49061300b565b801561063f5780601f106106165761010080835404028352916020019161063f565b820191905f5260205f20905b81548152906001019060200180831161062257829003601f168201915b505050505081526020016005820180546106589061300b565b80601f01602080910402602001604051908101604052809291908181526020018280546106849061300b565b80156106cf5780601f106106a6576101008083540402835291602001916106cf565b820191905f5260205f20905b8154815290600101906020018083116106b257829003601f168201915b5050509183525050600682810154602083015260078301546040830152600883015460609092019160ff169081111561070a5761070a61288f565b600681111561071b5761071b61288f565b81526020016009820180548060200260200160405190810160405280929190818152602001828054801561076c57602002820191905f5260205f20905b815481526020019060010190808311610758575b50505050508152602001600a82018054806020026020016040519081016040528092919081815260200182805480156107c257602002820191905f5260205f20905b8154815260200190600101908083116107ae575b5050509183525050600b919091015460ff16151560209091015292915050565b5f6107eb61248d565b856107f5816124c1565b335f908152600a602090815260408083208a845290915290205460ff1661082f5760405163d40c3d2160e01b815260040160405180910390fd5b5f878152600560205260409020600981015460c81161086157604051630794e5cf60e31b815260040160405180910390fd5b600380545f918261087183613051565b9190505590506040518061010001604052808281526020018a8152602001336001600160a01b031681526020018981526020018860048111156108b6576108b661288f565b81524260208083019190915260408083018a905260609283018990525f85815260068352819020845181559184015160018301558301516002820180546001600160a01b0319166001600160a01b0390921691909117905590820151600382019061092190826130c0565b506080820151816004015f6101000a81548160ff0219169083600481111561094b5761094b61288f565b021790555060a0820151600582015560c0820151600682019061096e90826130c0565b5060e091909101516007909101556009820180546001810182555f918252602090912001819055600b82015460ff1680156109ad5750600160ff1b8514155b80156109c3575060508513806109c35750601485125b15610a0b57610a098960036040518060400160405280601881526020017f54656d7065726174757265206f7574206f662072616e676500000000000000008152506124f4565b505b88817f529e5c9e24a307575814835cf69244181f51bc2ae08b95b8c8459d652a7ee9cf8933604051610a3e92919061317e565b60405180910390a398975050505050505050565b6001546001600160a01b03163314610a7d5760405163058d9a1b60e01b815260040160405180910390fd5b5f8054336001600160a01b0319918216811783556001805490921690915560405190917f24a7c28d8edc5ccd4ef428ebc1dce34762fe38b7fdcca1f3f20c818f04deb15691a2565b610acd6126a2565b6001600160a01b038116610af45760405163e6c4247b60e01b815260040160405180910390fd5b600180546001600160a01b0319166001600160a01b0383169081179091556040517fd3695f12c05bea129b5971fed99014a4efd003a3a8b45d6952b74fbd31d85d8a905f90a250565b606083610b49816124c1565b5f8581526005602052604090206009018054808610610b9c57604080515f8082526020820190925290610b92565b610b7f6127bf565b815260200190600190039081610b775790505b5093505050610e3e565b5f81610ba887896131a3565b11610bbc57610bb786886131a3565b610bbe565b815b90505f610bcb88836131bc565b6001600160401b03811115610be257610be2612a05565b604051908082528060200260200182016040528015610c1b57816020015b610c086127bf565b815260200190600190039081610c005790505b509050875b82811015610e375760065f868381548110610c3d57610c3d6131cf565b905f5260205f20015481526020019081526020015f20604051806101000160405290815f820154815260200160018201548152602001600282015f9054906101000a90046001600160a01b03166001600160a01b03166001600160a01b03168152602001600382018054610cb09061300b565b80601f0160208091040260200160405190810160405280929190818152602001828054610cdc9061300b565b8015610d275780601f10610cfe57610100808354040283529160200191610d27565b820191905f5260205f20905b815481529060010190602001808311610d0a57829003601f168201915b505050918352505060048281015460209092019160ff1690811115610d4e57610d4e61288f565b6004811115610d5f57610d5f61288f565b815260200160058201548152602001600682018054610d7d9061300b565b80601f0160208091040260200160405190810160405280929190818152602001828054610da99061300b565b8015610df45780601f10610dcb57610100808354040283529160200191610df4565b820191905f5260205f20905b815481529060010190602001808311610dd757829003601f168201915b50505050508152602001600782015481525050828a83610e1491906131bc565b81518110610e2457610e246131cf565b6020908102919091010152600101610c20565b5094505050505b509392505050565b610e4e6127bf565b811580610e5d57506003548210155b15610e835760405163115e4e5560e11b8152600481018390526024015b60405180910390fd5b5f828152600660209081526040918290208251610100810184528154815260018201549281019290925260028101546001600160a01b031692820192909252600382018054919291606084019190610eda9061300b565b80601f0160208091040260200160405190810160405280929190818152602001828054610f069061300b565b8015610f515780601f10610f2857610100808354040283529160200191610f51565b820191905f5260205f20905b815481529060010190602001808311610f3457829003601f168201915b505050918352505060048281015460209092019160ff1690811115610f7857610f7861288f565b6004811115610f8957610f8961288f565b815260200160058201548152602001600682018054610fa79061300b565b80601f0160208091040260200160405190810160405280929190818152602001828054610fd39061300b565b801561101e5780601f10610ff55761010080835404028352916020019161101e565b820191905f5260205f20905b81548152906001019060200180831161100157829003601f168201915b505050505081526020016007820154815250509050919050565b6110686040805160a0810182525f8082526060602083015290918201908152606060208201525f60409091015290565b6001600160a01b038083165f90815260086020908152604091829020825160a0810190935280549093168252600183018054929392918401916110aa9061300b565b80601f01602080910402602001604051908101604052809291908181526020018280546110d69061300b565b80156111215780601f106110f857610100808354040283529160200191611121565b820191905f5260205f20905b81548152906001019060200180831161110457829003601f168201915b5050509183525050600282015460209091019060ff1660058111156111485761114861288f565b60058111156111595761115961288f565b815260200160038201805461116d9061300b565b80601f01602080910402602001604051908101604052809291908181526020018280546111999061300b565b80156111e45780601f106111bb576101008083540402835291602001916111e4565b820191905f5260205f20905b8154815290600101906020018083116111c757829003601f168201915b50505091835250506004919091015460ff16151560209091015292915050565b5f61120d61248d565b6001335f9081526008602052604090206002015460ff1660058111156112355761123561288f565b146112535760405163f5b4341560e01b815260040160405180910390fd5b600280545f918261126383613051565b909155505f818152600560205260409020818155600181018054336001600160a01b0319918216179091556002820180549091166001600160a01b038b16179055909150600381016112b588826130c0565b50600481016112c487826130c0565b50600581016112d386826130c0565b5042600682015560088101805460ff19908116909155600b8201805490911685151517905561130233836126cc565b6001600160a01b0388161561131b5761131b88836126cc565b876001600160a01b0316336001600160a01b0316837f8fb6b855d6cbdf201f2fcaadbf8c38d36168ff7d2ca865cb2599abcd5a060e8f8a60405161135f91906131e3565b60405180910390a4509695505050505050565b60608361137e816124c1565b5f858152600560205260409020600a0180548086106113d057604080515f8082526020820190925290610b92565b6113b4612800565b8152602001906001900390816113ac5790505093505050610e3e565b5f816113dc87896131a3565b116113f0576113eb86886131a3565b6113f2565b815b90505f6113ff88836131bc565b6001600160401b0381111561141657611416612a05565b60405190808252806020026020018201604052801561144f57816020015b61143c612800565b8152602001906001900390816114345790505b509050875b82811015610e375760075f868381548110611471576114716131cf565b905f5260205f20015481526020019081526020015f206040518060e00160405290815f820154815260200160018201548152602001600282015f9054906101000a900460ff1660048111156114c8576114c861288f565b60048111156114d9576114d961288f565b8152600282015461010090046001600160a01b031660208201526003820180546040909201916115089061300b565b80601f01602080910402602001604051908101604052809291908181526020018280546115349061300b565b801561157f5780601f106115565761010080835404028352916020019161157f565b820191905f5260205f20905b81548152906001019060200180831161156257829003601f168201915b50505091835250506004820154602082015260059091015460ff161515604090910152826115ad8b846131bc565b815181106115bd576115bd6131cf565b6020908102919091010152600101611454565b6115d86126a2565b8015806115e757506004548110155b1561160857604051630ae30d3b60e41b815260048101829052602401610e7a565b5f81815260076020526040808220600501805460ff191660011790555182917ff83ae0ade2d9004bc0030405bdd3336f9d9b97530bcf44cce99ce02c95641b7791a250565b6116556126a2565b6001600160a01b038181165f908152600860205260409020541661168c57604051636f46a36560e01b815260040160405180910390fd5b6001600160a01b0381165f81815260086020908152604091829020600401805460ff1916600190811790915591519182527f7d434f3bffe7db5f776c1c2b3b22e492788bdfbd071e9aa176f096970ea8893391015b60405180910390a250565b6001600160a01b0381165f9081526009602090815260409182902080548351818402810184019094528084526060939283018282801561174957602002820191905f5260205f20905b815481526020019060010190808311611735575b50505050509050919050565b61175d6126a2565b6001600160a01b0381166117845760405163e6c4247b60e01b815260040160405180910390fd5b5f80546001600160a01b0383166001600160a01b0319918216811783556001805490921690915560405190917f24a7c28d8edc5ccd4ef428ebc1dce34762fe38b7fdcca1f3f20c818f04deb15691a250565b6117de61248d565b816117e8816124c1565b335f90815260086020526040902060029081015460ff16908160058111156118125761181261288f565b141580156118325750600381600581111561182f5761182f61288f565b14155b156118505760405163ef92a56b60e01b815260040160405180910390fd5b60048360068111156118645761186461288f565b0361188257604051639e96bb6960e01b815260040160405180910390fd5b5f848152600560205260409020600801805484919060ff191660018360068111156118af576118af61288f565b02179055506118be33856126cc565b837f7c1c93f72f29b8a1fc6fc85eed990d133b1ffac80c962b521abb12f38f2ff9af846040516118ee91906131f5565b60405180910390a250505050565b80611906816124c1565b5f82815260056020526040902060018101546001600160a01b0316331461194057604051631fbbf51f60e11b815260040160405180910390fd5b600881015460ff16600481600681111561195c5761195c61288f565b1480611979575060058160068111156119775761197761288f565b145b80611995575060068160068111156119935761199361288f565b145b156119b3576040516308b167a560e41b815260040160405180910390fd5b5f8160068111156119c6576119c661288f565b141580156119e6575060028160068111156119e3576119e361288f565b14155b15611a0457604051632e1b06c760e21b815260040160405180910390fd5b60088201805460ff1916600690811790915560405185917f7c1c93f72f29b8a1fc6fc85eed990d133b1ffac80c962b521abb12f38f2ff9af916118ee91906131f5565b606081611a53816124c1565b5f83815260056020526040812060090180549091906001600160401b03811115611a7f57611a7f612a05565b604051908082528060200260200182016040528015611ab857816020015b611aa56127bf565b815260200190600190039081611a9d5790505b5090505f5b8254811015611cca5760065f848381548110611adb57611adb6131cf565b905f5260205f20015481526020019081526020015f20604051806101000160405290815f820154815260200160018201548152602001600282015f9054906101000a90046001600160a01b03166001600160a01b03166001600160a01b03168152602001600382018054611b4e9061300b565b80601f0160208091040260200160405190810160405280929190818152602001828054611b7a9061300b565b8015611bc55780601f10611b9c57610100808354040283529160200191611bc5565b820191905f5260205f20905b815481529060010190602001808311611ba857829003601f168201915b505050918352505060048281015460209092019160ff1690811115611bec57611bec61288f565b6004811115611bfd57611bfd61288f565b815260200160058201548152602001600682018054611c1b9061300b565b80601f0160208091040260200160405190810160405280929190818152602001828054611c479061300b565b8015611c925780601f10611c6957610100808354040283529160200191611c92565b820191905f5260205f20905b815481529060010190602001808311611c7557829003601f168201915b50505050508152602001600782015481525050828281518110611cb757611cb76131cf565b6020908102919091010152600101611abd565b509250505b50919050565b611cdd612800565b811580611cec57506004548210155b15611d0d57604051630ae30d3b60e41b815260048101839052602401610e7a565b5f82815260076020908152604091829020825160e081018452815481526001820154928101929092526002810154919290919083019060ff166004811115611d5757611d5761288f565b6004811115611d6857611d6861288f565b8152600282015461010090046001600160a01b03166020820152600382018054604090920191611d979061300b565b80601f0160208091040260200160405190810160405280929190818152602001828054611dc39061300b565b8015611e0e5780601f10611de557610100808354040283529160200191611e0e565b820191905f5260205f20905b815481529060010190602001808311611df157829003601f168201915b50505091835250506004820154602082015260059091015460ff16151560409091015292915050565b606081611e43816124c1565b5f838152600560205260408120600a0180549091906001600160401b03811115611e6f57611e6f612a05565b604051908082528060200260200182016040528015611ea857816020015b611e95612800565b815260200190600190039081611e8d5790505b5090505f5b8254811015611cca5760075f848381548110611ecb57611ecb6131cf565b905f5260205f20015481526020019081526020015f206040518060e00160405290815f820154815260200160018201548152602001600282015f9054906101000a900460ff166004811115611f2257611f2261288f565b6004811115611f3357611f3361288f565b8152600282015461010090046001600160a01b03166020820152600382018054604090920191611f629061300b565b80601f0160208091040260200160405190810160405280929190818152602001828054611f8e9061300b565b8015611fd95780601f10611fb057610100808354040283529160200191611fd9565b820191905f5260205f20905b815481529060010190602001808311611fbc57829003601f168201915b50505091835250506004820154602082015260059091015460ff1615156040909101528251839083908110612010576120106131cf565b6020908102919091010152600101611ead565b5f8161202e816124c1565b5f838152600560205260409020600b81015460ff16612051576001925050611ccf565b60098101545f5b818110156120d0575f60065f856009018481548110612079576120796131cf565b905f5260205f20015481526020019081526020015f20600701549050600160ff1b81036120a657506120c8565b60508113806120b55750601481125b156120c6575f955050505050611ccf565b505b600101612058565b50600195945050505050565b6120e46126a2565b6001600160a01b03811661210b5760405163e6c4247b60e01b815260040160405180910390fd5b6001600160a01b0381165f9081526008602052604090206004015460ff161561214757604051631f289d9f60e21b815260040160405180910390fd5b5f83600581111561215a5761215a61288f565b0361217857604051636caa20b560e11b815260040160405180910390fd5b6040518060a00160405280826001600160a01b031681526020018581526020018460058111156121aa576121aa61288f565b81526020808201859052600160409283018190526001600160a01b038581165f9081526008845293909320845181546001600160a01b031916941693909317835590830151908201906121fd90826130c0565b50604082015160028201805460ff191660018360058111156122215761222161288f565b02179055506060820151600382019061223a90826130c0565b50608091909101516004909101805460ff19169115159190911790556040516001600160a01b038216907fc9a31de765abe70445345802bee3c96554ca063ab257e3888d498accb859fabc906118ee9087908790613203565b5f61229c61248d565b836122a6816124c1565b335f908152600a6020908152604080832088845290915290205460ff166122e05760405163d40c3d2160e01b815260040160405180910390fd5b6122eb8585856124f4565b95945050505050565b6122fc6126a2565b6001600160a01b038181165f908152600860205260409020541661233357604051636f46a36560e01b815260040160405180910390fd5b6001600160a01b0381165f818152600860209081526040808320600401805460ff19169055519182527f7d434f3bffe7db5f776c1c2b3b22e492788bdfbd071e9aa176f096970ea8893391016116e1565b8061238e816124c1565b5f82815260056020526040902060028101546001600160a01b031633146123c7576040516201ec0960e61b815260040160405180910390fd5b6004600882015460ff1660068111156123e2576123e261288f565b036124005760405163b9f7965360e01b815260040160405180910390fd5b60088101805460ff1916600490811790915542600783015560405184917f7c1c93f72f29b8a1fc6fc85eed990d133b1ffac80c962b521abb12f38f2ff9af9161244991906131f5565b60405180910390a2604051428152339084907f2f4a952729db32131cb3d658cc231127e0ce7e50f83508ece9a49c985f2384d09060200160405180910390a3505050565b335f9081526008602052604090206004015460ff166124bf57604051632a718ceb60e01b815260040160405180910390fd5b565b8015806124d057506002548110155b156124f157604051632139528960e21b815260048101829052602401610e7a565b50565b5f838152600560205260408120600a8101546032116125265760405163336de9db60e21b815260040160405180910390fd5b600480545f918261253683613051565b9190505590506040518060e001604052808281526020018781526020018660048111156125655761256561288f565b8152602001336001600160a01b031681526020018581526020014281526020015f151581525060075f8381526020019081526020015f205f820151815f0155602082015181600101556040820151816002015f6101000a81548160ff021916908360048111156125d7576125d761288f565b021790555060608201516002820180546001600160a01b0390921661010002610100600160a81b03199092169190911790556080820151600382019061261d90826130c0565b5060a0820151600482015560c0909101516005909101805460ff1916911515919091179055600a820180546001810182555f918252602090912001819055604051869082907fc2c9d0fa5caecea68b9ec6aca764014b01764f779d8a510f0d0d6796b76b7c839061268f908990613224565b60405180910390a39150505b9392505050565b5f546001600160a01b031633146124bf57604051634755657960e01b815260040160405180910390fd5b6001600160a01b0382165f908152600a6020908152604080832084845290915290205460ff1661273f576001600160a01b0382165f818152600a602090815260408083208584528252808320805460ff191660019081179091559383526009825282208054938401815582529020018190555b5050565b6040518061018001604052805f81526020015f6001600160a01b031681526020015f6001600160a01b031681526020016060815260200160608152602001606081526020015f81526020015f81526020015f60068111156127a6576127a661288f565b8152606060208201819052604082018190525f91015290565b60408051610100810182525f8082526020820181905291810182905260608082015290608082019081526020015f8152602001606081526020015f81525090565b6040518060e001604052805f81526020015f81526020015f60048111156128295761282961288f565b81525f60208201819052606060408301819052820181905260809091015290565b5f6020828403121561285a575f5ffd5b5035919050565b5f81518084528060208401602086015e5f602082860101526020601f19601f83011685010191505092915050565b634e487b7160e01b5f52602160045260245ffd5b600781106128b3576128b361288f565b9052565b5f8151808452602084019350602083015f5b828110156128e75781518652602095860195909101906001016128c9565b5093949350505050565b60208152815160208201525f602083015161291760408401826001600160a01b03169052565b5060408301516001600160a01b038116606084015250606083015161018060808401526129486101a0840182612861565b90506080840151601f198483030160a08501526129658282612861565b91505060a0840151601f198483030160c08501526129838282612861565b91505060c084015160e084015260e08401516101008401526101008401516129af6101208501826128a3565b50610120840151838203601f19016101408501526129cd82826128b7565b915050610140840151601f19848303016101608501526129ed82826128b7565b915050610160840151610e3e61018085018215159052565b634e487b7160e01b5f52604160045260245ffd5b5f82601f830112612a28575f5ffd5b81356001600160401b03811115612a4157612a41612a05565b604051601f8201601f19908116603f011681016001600160401b0381118282101715612a6f57612a6f612a05565b604052818152838201602001851015612a86575f5ffd5b816020850160208301375f918101602001919091529392505050565b600581106124f1575f5ffd5b5f5f5f5f5f60a08688031215612ac2575f5ffd5b8535945060208601356001600160401b03811115612ade575f5ffd5b612aea88828901612a19565b9450506040860135612afb81612aa2565b925060608601356001600160401b03811115612b15575f5ffd5b612b2188828901612a19565b95989497509295608001359392505050565b80356001600160a01b0381168114612b49575f5ffd5b919050565b5f60208284031215612b5e575f5ffd5b61269b82612b33565b5f5f5f60608486031215612b79575f5ffd5b505081359360208301359350604090920135919050565b600581106124f1576124f161288f565b6128b381612b90565b805182526020810151602083015260018060a01b0360408201511660408301525f60608201516101006060850152612be5610100850182612861565b90506080830151612bf96080860182612ba0565b5060a083015160a085015260c083015184820360c0860152612c1b8282612861565b91505060e083015160e08501528091505092915050565b5f602082016020835280845180835260408501915060408160051b8601019250602086015f5b82811015612c8957603f19878603018452612c74858351612ba9565b94506020938401939190910190600101612c58565b50929695505050505050565b602081525f61269b6020830184612ba9565b600681106128b3576128b361288f565b602080825282516001600160a01b03168282015282015160a060408301525f90612ce460c0840182612861565b90506040840151612cf86060850182612ca7565b506060840151838203601f19016080850152612d148282612861565b9150506080840151151560a08401528091505092915050565b5f5f5f5f5f60a08688031215612d41575f5ffd5b612d4a86612b33565b945060208601356001600160401b03811115612d64575f5ffd5b612d7088828901612a19565b94505060408601356001600160401b03811115612d8b575f5ffd5b612d9788828901612a19565b93505060608601356001600160401b03811115612db2575f5ffd5b612dbe88828901612a19565b92505060808601358015158114612dd3575f5ffd5b809150509295509295909350565b80518252602081015160208301525f6040820151612dfe81612b90565b60408401526060828101516001600160a01b03169084015260808083015160e091850182905290612e3190850182612861565b905060a083015160a085015260c0830151151560c08501528091505092915050565b5f602082016020835280845180835260408501915060408160051b8601019250602086015f5b82811015612c8957603f19878603018452612e95858351612de1565b94506020938401939190910190600101612e79565b602080825282518282018190525f918401906040840190835b81811015612ee1578351835260209384019390920191600101612ec3565b509095945050505050565b5f5f60408385031215612efd575f5ffd5b82359150602083013560078110612f12575f5ffd5b809150509250929050565b602081525f61269b6020830184612de1565b5f5f5f5f60808587031215612f42575f5ffd5b84356001600160401b03811115612f57575f5ffd5b612f6387828801612a19565b945050602085013560068110612f77575f5ffd5b925060408501356001600160401b03811115612f91575f5ffd5b612f9d87828801612a19565b925050612fac60608601612b33565b905092959194509250565b5f5f5f60608486031215612fc9575f5ffd5b833592506020840135612fdb81612aa2565b915060408401356001600160401b03811115612ff5575f5ffd5b61300186828701612a19565b9150509250925092565b600181811c9082168061301f57607f821691505b602082108103611ccf57634e487b7160e01b5f52602260045260245ffd5b634e487b7160e01b5f52601160045260245ffd5b5f600182016130625761306261303d565b5060010190565b601f8211156130bb57828211156130bb57805f5260205f20601f840160051c602085101561309457505f5b90810190601f840160051c035f5b818110156130b7575f838201556001016130a2565b5050505b505050565b81516001600160401b038111156130d9576130d9612a05565b6130ed816130e7845461300b565b84613069565b6020601f82116001811461311f575f83156131085750848201515b5f19600385901b1c1916600184901b178455613177565b5f84815260208120601f198516915b8281101561314e578785015182556020948501946001909201910161312e565b508482101561316b57868401515f19600387901b60f8161c191681555b505060018360011b0184555b5050505050565b6040810161318b84612b90565b9281526001600160a01b039190911660209091015290565b808201808211156131b6576131b661303d565b92915050565b818103818111156131b6576131b661303d565b634e487b7160e01b5f52603260045260245ffd5b602081525f61269b6020830184612861565b602081016131b682846128a3565b604081525f6132156040830185612861565b905061269b6020830184612ca7565b6020810161323183612b90565b9190529056fea2646970667358221220a583c27df6bca2ba9c59bb8b555fabf08224b8b91980b607a9f967c138f015d464736f6c63430008210033","linkReferences":{}},"methodIdentifiers":{"COLD_CHAIN_TEMP_MAX()":"7b8a20e2","COLD_CHAIN_TEMP_MIN()":"a54a6ee4","MAX_CHECKPOINTS_PER_SHIPMENT()":"63f86584","MAX_INCIDENTS_PER_SHIPMENT()":"305207b0","TEMPERATURE_NOT_SET()":"2bf210dc","acceptAdmin()":"0e18b681","admin()":"f851a440","cancelShipment(uint256)":"7faa7bc7","confirmDelivery(uint256)":"fd84cb97","createShipment(address,string,string,string,bool)":"475b6f98","deactivateActor(address)":"fc436695","getActor(address)":"4138d167","getActorShipments(address)":"72f2f93a","getAllShipmentCheckpoints(uint256)":"8d70861e","getAllShipmentIncidents(uint256)":"9b4adf4e","getCheckpoint(uint256)":"20fc4881","getIncident(uint256)":"9578615e","getShipment(uint256)":"092b3740","getShipmentCheckpoints(uint256,uint256,uint256)":"17082ae0","getShipmentIncidents(uint256,uint256,uint256)":"48016224","isIncidentResolved(uint256)":"925d3478","nextCheckpointId()":"229ec452","nextIncidentId()":"0fd19668","nextShipmentId()":"b9a3a68c","pendingAdmin()":"26782247","proposeAdmin(address)":"147bf6c4","reactivateActor(address)":"58dcf85e","recordCheckpoint(uint256,string,uint8,string,int256)":"0a7a0b69","registerActor(string,uint8,string,address)":"b7fa3c2a","reportIncident(uint256,uint8,string)":"e570c367","resolveIncident(uint256)":"4ffe6ae2","transferAdmin(address)":"75829def","updateShipmentStatus(uint256,uint8)":"7defa920","verifyTemperatureCompliance(uint256)":"af56a428"},"id":16}