{"abi":[{"type":"constructor","inputs":[],"stateMutability":"nonpayable"},{"type":"function","name":"actorShipments","inputs":[{"name":"","type":"address","internalType":"address"},{"name":"","type":"uint256","internalType":"uint256"}],"outputs":[{"name":"","type":"uint256","internalType":"uint256"}],"stateMutability":"view"},{"type":"function","name":"actors","inputs":[{"name":"","type":"address","internalType":"address"}],"outputs":[{"name":"actorAddress","type":"address","internalType":"address"},{"name":"name","type":"string","internalType":"string"},{"name":"role","type":"uint8","internalType":"enum LogisticsTracking.ActorRole"},{"name":"location","type":"string","internalType":"string"},{"name":"isActive","type":"bool","internalType":"bool"}],"stateMutability":"view"},{"type":"function","name":"admin","inputs":[],"outputs":[{"name":"","type":"address","internalType":"address"}],"stateMutability":"view"},{"type":"function","name":"cancelShipment","inputs":[{"name":"_shipmentId","type":"uint256","internalType":"uint256"}],"outputs":[],"stateMutability":"nonpayable"},{"type":"function","name":"checkpoints","inputs":[{"name":"","type":"uint256","internalType":"uint256"}],"outputs":[{"name":"id","type":"uint256","internalType":"uint256"},{"name":"shipmentId","type":"uint256","internalType":"uint256"},{"name":"actor","type":"address","internalType":"address"},{"name":"location","type":"string","internalType":"string"},{"name":"checkpointType","type":"string","internalType":"string"},{"name":"timestamp","type":"uint256","internalType":"uint256"},{"name":"notes","type":"string","internalType":"string"},{"name":"temperature","type":"int256","internalType":"int256"}],"stateMutability":"view"},{"type":"function","name":"confirmDelivery","inputs":[{"name":"_shipmentId","type":"uint256","internalType":"uint256"}],"outputs":[],"stateMutability":"nonpayable"},{"type":"function","name":"createShipment","inputs":[{"name":"_recipient","type":"address","internalType":"address"},{"name":"_product","type":"string","internalType":"string"},{"name":"_origin","type":"string","internalType":"string"},{"name":"_destination","type":"string","internalType":"string"},{"name":"_requiresColdChain","type":"bool","internalType":"bool"}],"outputs":[{"name":"","type":"uint256","internalType":"uint256"}],"stateMutability":"nonpayable"},{"type":"function","name":"deactivateActor","inputs":[{"name":"_actorAddress","type":"address","internalType":"address"}],"outputs":[],"stateMutability":"nonpayable"},{"type":"function","name":"getActor","inputs":[{"name":"_actorAddress","type":"address","internalType":"address"}],"outputs":[{"name":"","type":"tuple","internalType":"struct LogisticsTracking.Actor","components":[{"name":"actorAddress","type":"address","internalType":"address"},{"name":"name","type":"string","internalType":"string"},{"name":"role","type":"uint8","internalType":"enum LogisticsTracking.ActorRole"},{"name":"location","type":"string","internalType":"string"},{"name":"isActive","type":"bool","internalType":"bool"}]}],"stateMutability":"view"},{"type":"function","name":"getActorShipments","inputs":[{"name":"_actor","type":"address","internalType":"address"}],"outputs":[{"name":"","type":"uint256[]","internalType":"uint256[]"}],"stateMutability":"view"},{"type":"function","name":"getCheckpoint","inputs":[{"name":"_checkpointId","type":"uint256","internalType":"uint256"}],"outputs":[{"name":"","type":"tuple","internalType":"struct LogisticsTracking.Checkpoint","components":[{"name":"id","type":"uint256","internalType":"uint256"},{"name":"shipmentId","type":"uint256","internalType":"uint256"},{"name":"actor","type":"address","internalType":"address"},{"name":"location","type":"string","internalType":"string"},{"name":"checkpointType","type":"string","internalType":"string"},{"name":"timestamp","type":"uint256","internalType":"uint256"},{"name":"notes","type":"string","internalType":"string"},{"name":"temperature","type":"int256","internalType":"int256"}]}],"stateMutability":"view"},{"type":"function","name":"getIncident","inputs":[{"name":"_incidentId","type":"uint256","internalType":"uint256"}],"outputs":[{"name":"","type":"tuple","internalType":"struct LogisticsTracking.Incident","components":[{"name":"id","type":"uint256","internalType":"uint256"},{"name":"shipmentId","type":"uint256","internalType":"uint256"},{"name":"incidentType","type":"uint8","internalType":"enum LogisticsTracking.IncidentType"},{"name":"reporter","type":"address","internalType":"address"},{"name":"description","type":"string","internalType":"string"},{"name":"timestamp","type":"uint256","internalType":"uint256"},{"name":"resolved","type":"bool","internalType":"bool"}]}],"stateMutability":"view"},{"type":"function","name":"getShipment","inputs":[{"name":"_id","type":"uint256","internalType":"uint256"}],"outputs":[{"name":"","type":"tuple","internalType":"struct LogisticsTracking.Shipment","components":[{"name":"id","type":"uint256","internalType":"uint256"},{"name":"sender","type":"address","internalType":"address"},{"name":"recipient","type":"address","internalType":"address"},{"name":"product","type":"string","internalType":"string"},{"name":"origin","type":"string","internalType":"string"},{"name":"destination","type":"string","internalType":"string"},{"name":"dateCreated","type":"uint256","internalType":"uint256"},{"name":"dateDelivered","type":"uint256","internalType":"uint256"},{"name":"status","type":"uint8","internalType":"enum LogisticsTracking.ShipmentStatus"},{"name":"checkpointIds","type":"uint256[]","internalType":"uint256[]"},{"name":"incidentIds","type":"uint256[]","internalType":"uint256[]"},{"name":"requiresColdChain","type":"bool","internalType":"bool"}]}],"stateMutability":"view"},{"type":"function","name":"getShipmentCheckpoints","inputs":[{"name":"_id","type":"uint256","internalType":"uint256"}],"outputs":[{"name":"","type":"tuple[]","internalType":"struct LogisticsTracking.Checkpoint[]","components":[{"name":"id","type":"uint256","internalType":"uint256"},{"name":"shipmentId","type":"uint256","internalType":"uint256"},{"name":"actor","type":"address","internalType":"address"},{"name":"location","type":"string","internalType":"string"},{"name":"checkpointType","type":"string","internalType":"string"},{"name":"timestamp","type":"uint256","internalType":"uint256"},{"name":"notes","type":"string","internalType":"string"},{"name":"temperature","type":"int256","internalType":"int256"}]}],"stateMutability":"view"},{"type":"function","name":"getShipmentIncidents","inputs":[{"name":"_shipmentId","type":"uint256","internalType":"uint256"}],"outputs":[{"name":"","type":"tuple[]","internalType":"struct LogisticsTracking.Incident[]","components":[{"name":"id","type":"uint256","internalType":"uint256"},{"name":"shipmentId","type":"uint256","internalType":"uint256"},{"name":"incidentType","type":"uint8","internalType":"enum LogisticsTracking.IncidentType"},{"name":"reporter","type":"address","internalType":"address"},{"name":"description","type":"string","internalType":"string"},{"name":"timestamp","type":"uint256","internalType":"uint256"},{"name":"resolved","type":"bool","internalType":"bool"}]}],"stateMutability":"view"},{"type":"function","name":"incidents","inputs":[{"name":"","type":"uint256","internalType":"uint256"}],"outputs":[{"name":"id","type":"uint256","internalType":"uint256"},{"name":"shipmentId","type":"uint256","internalType":"uint256"},{"name":"incidentType","type":"uint8","internalType":"enum LogisticsTracking.IncidentType"},{"name":"reporter","type":"address","internalType":"address"},{"name":"description","type":"string","internalType":"string"},{"name":"timestamp","type":"uint256","internalType":"uint256"},{"name":"resolved","type":"bool","internalType":"bool"}],"stateMutability":"view"},{"type":"function","name":"isIncidentResolved","inputs":[{"name":"incidentId","type":"uint256","internalType":"uint256"}],"outputs":[{"name":"","type":"bool","internalType":"bool"}],"stateMutability":"view"},{"type":"function","name":"nextCheckpointId","inputs":[],"outputs":[{"name":"","type":"uint256","internalType":"uint256"}],"stateMutability":"view"},{"type":"function","name":"nextIncidentId","inputs":[],"outputs":[{"name":"","type":"uint256","internalType":"uint256"}],"stateMutability":"view"},{"type":"function","name":"nextShipmentId","inputs":[],"outputs":[{"name":"","type":"uint256","internalType":"uint256"}],"stateMutability":"view"},{"type":"function","name":"recordCheckpoint","inputs":[{"name":"_shipmentId","type":"uint256","internalType":"uint256"},{"name":"_location","type":"string","internalType":"string"},{"name":"_checkpointType","type":"string","internalType":"string"},{"name":"_notes","type":"string","internalType":"string"},{"name":"_temperature","type":"int256","internalType":"int256"}],"outputs":[{"name":"","type":"uint256","internalType":"uint256"}],"stateMutability":"nonpayable"},{"type":"function","name":"registerActor","inputs":[{"name":"_name","type":"string","internalType":"string"},{"name":"_role","type":"uint8","internalType":"enum LogisticsTracking.ActorRole"},{"name":"_location","type":"string","internalType":"string"}],"outputs":[],"stateMutability":"nonpayable"},{"type":"function","name":"reportIncident","inputs":[{"name":"_shipmentId","type":"uint256","internalType":"uint256"},{"name":"_type","type":"uint8","internalType":"enum LogisticsTracking.IncidentType"},{"name":"_desc","type":"string","internalType":"string"}],"outputs":[{"name":"","type":"uint256","internalType":"uint256"}],"stateMutability":"nonpayable"},{"type":"function","name":"resolveIncident","inputs":[{"name":"_incidentId","type":"uint256","internalType":"uint256"}],"outputs":[],"stateMutability":"nonpayable"},{"type":"function","name":"shipments","inputs":[{"name":"","type":"uint256","internalType":"uint256"}],"outputs":[{"name":"id","type":"uint256","internalType":"uint256"},{"name":"sender","type":"address","internalType":"address"},{"name":"recipient","type":"address","internalType":"address"},{"name":"product","type":"string","internalType":"string"},{"name":"origin","type":"string","internalType":"string"},{"name":"destination","type":"string","internalType":"string"},{"name":"dateCreated","type":"uint256","internalType":"uint256"},{"name":"dateDelivered","type":"uint256","internalType":"uint256"},{"name":"status","type":"uint8","internalType":"enum LogisticsTracking.ShipmentStatus"},{"name":"requiresColdChain","type":"bool","internalType":"bool"}],"stateMutability":"view"},{"type":"function","name":"updateShipmentStatus","inputs":[{"name":"_shipmentId","type":"uint256","internalType":"uint256"},{"name":"_newStatus","type":"uint8","internalType":"enum LogisticsTracking.ShipmentStatus"}],"outputs":[],"stateMutability":"nonpayable"},{"type":"function","name":"verifyTemperatureCompliance","inputs":[{"name":"_shipmentId","type":"uint256","internalType":"uint256"}],"outputs":[{"name":"","type":"bool","internalType":"bool"}],"stateMutability":"view"},{"type":"event","name":"ActorRegistered","inputs":[{"name":"actorAddress","type":"address","indexed":true,"internalType":"address"},{"name":"name","type":"string","indexed":false,"internalType":"string"},{"name":"role","type":"uint8","indexed":false,"internalType":"enum LogisticsTracking.ActorRole"}],"anonymous":false},{"type":"event","name":"CheckpointRecorded","inputs":[{"name":"checkpointId","type":"uint256","indexed":true,"internalType":"uint256"},{"name":"shipmentId","type":"uint256","indexed":true,"internalType":"uint256"},{"name":"location","type":"string","indexed":false,"internalType":"string"},{"name":"actor","type":"address","indexed":false,"internalType":"address"}],"anonymous":false},{"type":"event","name":"DeliveryConfirmed","inputs":[{"name":"shipmentId","type":"uint256","indexed":true,"internalType":"uint256"},{"name":"recipient","type":"address","indexed":true,"internalType":"address"},{"name":"timestamp","type":"uint256","indexed":false,"internalType":"uint256"}],"anonymous":false},{"type":"event","name":"IncidentReported","inputs":[{"name":"incidentId","type":"uint256","indexed":true,"internalType":"uint256"},{"name":"shipmentId","type":"uint256","indexed":true,"internalType":"uint256"},{"name":"incidentType","type":"uint8","indexed":false,"internalType":"enum LogisticsTracking.IncidentType"}],"anonymous":false},{"type":"event","name":"IncidentResolved","inputs":[{"name":"incidentId","type":"uint256","indexed":true,"internalType":"uint256"}],"anonymous":false},{"type":"event","name":"ShipmentCreated","inputs":[{"name":"shipmentId","type":"uint256","indexed":true,"internalType":"uint256"},{"name":"sender","type":"address","indexed":true,"internalType":"address"},{"name":"recipient","type":"address","indexed":true,"internalType":"address"},{"name":"product","type":"string","indexed":false,"internalType":"string"}],"anonymous":false},{"type":"event","name":"ShipmentStatusChanged","inputs":[{"name":"shipmentId","type":"uint256","indexed":true,"internalType":"uint256"},{"name":"newStatus","type":"uint8","indexed":false,"internalType":"enum LogisticsTracking.ShipmentStatus"}],"anonymous":false}],"bytecode":{"object":"0x60806040526001805560016002556001600355348015601c575f5ffd5b50335f5f6101000a81548173ffffffffffffffffffffffffffffffffffffffff021916908373ffffffffffffffffffffffffffffffffffffffff160217905550614b0e806100695f395ff3fe608060405234801561000f575f5ffd5b50600436106101a7575f3560e01c80637faa7bc7116100f7578063b9a3a68c11610095578063eaa66a3c1161006f578063eaa66a3c1461058b578063f851a440146105bf578063fc436695146105dd578063fd84cb97146105f9576101a7565b8063b9a3a68c14610521578063c4edcf8b1461053f578063e570c3671461055b576101a7565b8063a113c557116100d1578063a113c55714610454578063a6c6a8f314610484578063af56a428146104ba578063b8a24252146104ea576101a7565b80637faa7bc7146103d8578063925d3478146103f45780639578615e14610424576101a7565b80634138d167116101645780635f19f4f51161013e5780635f19f4f51461032c57806372f2f93a1461035c578063733e28aa1461038c5780637defa920146103bc576101a7565b80634138d167146102b0578063475b6f98146102e05780634ffe6ae214610310576101a7565b8063092b3740146101ab5780630fd19668146101db57806320fc4881146101f9578063229ec452146102295780632ac08a931461024757806333401ee114610280575b5f5ffd5b6101c560048036038101906101c0919061301e565b610615565b6040516101d29190613359565b60405180910390f35b6101e36109b8565b6040516101f09190613388565b60405180910390f35b610213600480360381019061020e919061301e565b6109be565b6040516102209190613474565b60405180910390f35b610231610c65565b60405161023e9190613388565b60405180910390f35b610261600480360381019061025c919061301e565b610c6b565b6040516102779a99989796959493929190613509565b60405180910390f35b61029a6004803603810190610295919061370e565b610ea3565b6040516102a79190613388565b60405180910390f35b6102ca60048036038101906102c59190613803565b6110e2565b6040516102d791906138ee565b60405180910390f35b6102fa60048036038101906102f59190613938565b611301565b6040516103079190613388565b60405180910390f35b61032a6004803603810190610325919061301e565b6115d0565b005b6103466004803603810190610341919061301e565b611634565b6040516103539190613b79565b60405180910390f35b61037660048036038101906103719190613803565b611999565b6040516103839190613c05565b60405180910390f35b6103a660048036038101906103a1919061301e565b611a2c565b6040516103b39190613dbf565b60405180910390f35b6103d660048036038101906103d19190613e02565b611cc6565b005b6103f260048036038101906103ed919061301e565b611d50565b005b61040e6004803603810190610409919061301e565b611efa565b60405161041b9190613e40565b60405180910390f35b61043e6004803603810190610439919061301e565b611f23565b60405161044b9190613ef2565b60405180910390f35b61046e60048036038101906104699190613f12565b6120f4565b60405161047b9190613388565b60405180910390f35b61049e6004803603810190610499919061301e565b61211f565b6040516104b19796959493929190613f5f565b60405180910390f35b6104d460048036038101906104cf919061301e565b61221b565b6040516104e19190613e40565b60405180910390f35b61050460048036038101906104ff919061301e565b6122d2565b604051610518989796959493929190613fe2565b60405180910390f35b6105296124c7565b6040516105369190613388565b60405180910390f35b61055960048036038101906105549190614096565b6124cd565b005b61057560048036038101906105709190614141565b6126ff565b6040516105829190613388565b60405180910390f35b6105a560048036038101906105a09190613803565b6128e0565b6040516105b69594939291906141bc565b60405180910390f35b6105c7612a55565b6040516105d4919061421b565b60405180910390f35b6105f760048036038101906105f29190613803565b612a79565b005b610613600480360381019061060e919061301e565b612adb565b005b61061d612e33565b60045f8381526020019081526020015f20604051806101800160405290815f8201548152602001600182015f9054906101000a900473ffffffffffffffffffffffffffffffffffffffff1673ffffffffffffffffffffffffffffffffffffffff1673ffffffffffffffffffffffffffffffffffffffff168152602001600282015f9054906101000a900473ffffffffffffffffffffffffffffffffffffffff1673ffffffffffffffffffffffffffffffffffffffff1673ffffffffffffffffffffffffffffffffffffffff1681526020016003820180546106fd90614261565b80601f016020809104026020016040519081016040528092919081815260200182805461072990614261565b80156107745780601f1061074b57610100808354040283529160200191610774565b820191905f5260205f20905b81548152906001019060200180831161075757829003601f168201915b5050505050815260200160048201805461078d90614261565b80601f01602080910402602001604051908101604052809291908181526020018280546107b990614261565b80156108045780601f106107db57610100808354040283529160200191610804565b820191905f5260205f20905b8154815290600101906020018083116107e757829003601f168201915b5050505050815260200160058201805461081d90614261565b80601f016020809104026020016040519081016040528092919081815260200182805461084990614261565b80156108945780601f1061086b57610100808354040283529160200191610894565b820191905f5260205f20905b81548152906001019060200180831161087757829003601f168201915b505050505081526020016006820154815260200160078201548152602001600882015f9054906101000a900460ff1660068111156108d5576108d4613107565b5b60068111156108e7576108e6613107565b5b81526020016009820180548060200260200160405190810160405280929190818152602001828054801561093857602002820191905f5260205f20905b815481526020019060010190808311610924575b50505050508152602001600a820180548060200260200160405190810160405280929190818152602001828054801561098e57602002820191905f5260205f20905b81548152602001906001019080831161097a575b50505050508152602001600b82015f9054906101000a900460ff1615151515815250509050919050565b60035481565b6109c6612ecd565b5f821180156109d6575060025482105b610a15576040517f08c379a0000000000000000000000000000000000000000000000000000000008152600401610a0c906142db565b60405180910390fd5b60055f8381526020019081526020015f20604051806101000160405290815f820154815260200160018201548152602001600282015f9054906101000a900473ffffffffffffffffffffffffffffffffffffffff1673ffffffffffffffffffffffffffffffffffffffff1673ffffffffffffffffffffffffffffffffffffffff168152602001600382018054610aaa90614261565b80601f0160208091040260200160405190810160405280929190818152602001828054610ad690614261565b8015610b215780601f10610af857610100808354040283529160200191610b21565b820191905f5260205f20905b815481529060010190602001808311610b0457829003601f168201915b50505050508152602001600482018054610b3a90614261565b80601f0160208091040260200160405190810160405280929190818152602001828054610b6690614261565b8015610bb15780601f10610b8857610100808354040283529160200191610bb1565b820191905f5260205f20905b815481529060010190602001808311610b9457829003601f168201915b5050505050815260200160058201548152602001600682018054610bd490614261565b80601f0160208091040260200160405190810160405280929190818152602001828054610c0090614261565b8015610c4b5780601f10610c2257610100808354040283529160200191610c4b565b820191905f5260205f20905b815481529060010190602001808311610c2e57829003601f168201915b505050505081526020016007820154815250509050919050565b60025481565b6004602052805f5260405f205f91509050805f015490806001015f9054906101000a900473ffffffffffffffffffffffffffffffffffffffff1690806002015f9054906101000a900473ffffffffffffffffffffffffffffffffffffffff1690806003018054610cda90614261565b80601f0160208091040260200160405190810160405280929190818152602001828054610d0690614261565b8015610d515780601f10610d2857610100808354040283529160200191610d51565b820191905f5260205f20905b815481529060010190602001808311610d3457829003601f168201915b505050505090806004018054610d6690614261565b80601f0160208091040260200160405190810160405280929190818152602001828054610d9290614261565b8015610ddd5780601f10610db457610100808354040283529160200191610ddd565b820191905f5260205f20905b815481529060010190602001808311610dc057829003601f168201915b505050505090806005018054610df290614261565b80601f0160208091040260200160405190810160405280929190818152602001828054610e1e90614261565b8015610e695780601f10610e4057610100808354040283529160200191610e69565b820191905f5260205f20905b815481529060010190602001808311610e4c57829003601f168201915b505050505090806006015490806007015490806008015f9054906101000a900460ff169080600b015f9054906101000a900460ff1690508a565b5f610eac612cc3565b85610eb681612d51565b5f60025f815480929190610ec990614326565b9190505590506040518061010001604052808281526020018981526020013373ffffffffffffffffffffffffffffffffffffffff1681526020018881526020018781526020014281526020018681526020018581525060055f8381526020019081526020015f205f820151815f0155602082015181600101556040820151816002015f6101000a81548173ffffffffffffffffffffffffffffffffffffffff021916908373ffffffffffffffffffffffffffffffffffffffff1602179055506060820151816003019081610f9d919061451e565b506080820151816004019081610fb3919061451e565b5060a0820151816005015560c0820151816006019081610fd3919061451e565b5060e0820151816007015590505060045f8981526020019081526020015f2060090181908060018154018082558091505060019003905f5260205f20015f909190919091505560045f8981526020019081526020015f20600b015f9054906101000a900460ff168015611051575060508413806110505750601484125b5b15611099576110978860036040518060400160405280601881526020017f54656d7065726174757265206f7574206f662072616e676500000000000000008152506126ff565b505b87817f866de744a1d30941b1bccb4355cfb9dacfa65296f3ab651a0d4dce76bf988a7189336040516110cc9291906145ed565b60405180910390a3809250505095945050505050565b6110ea612f23565b60075f8373ffffffffffffffffffffffffffffffffffffffff1673ffffffffffffffffffffffffffffffffffffffff1681526020019081526020015f206040518060a00160405290815f82015f9054906101000a900473ffffffffffffffffffffffffffffffffffffffff1673ffffffffffffffffffffffffffffffffffffffff1673ffffffffffffffffffffffffffffffffffffffff16815260200160018201805461119690614261565b80601f01602080910402602001604051908101604052809291908181526020018280546111c290614261565b801561120d5780601f106111e45761010080835404028352916020019161120d565b820191905f5260205f20905b8154815290600101906020018083116111f057829003601f168201915b50505050508152602001600282015f9054906101000a900460ff16600581111561123a57611239613107565b5b600581111561124c5761124b613107565b5b815260200160038201805461126090614261565b80601f016020809104026020016040519081016040528092919081815260200182805461128c90614261565b80156112d75780601f106112ae576101008083540402835291602001916112d7565b820191905f5260205f20905b8154815290600101906020018083116112ba57829003601f168201915b50505050508152602001600482015f9054906101000a900460ff1615151515815250509050919050565b5f61130a612cc3565b6001600581111561131e5761131d613107565b5b60075f3373ffffffffffffffffffffffffffffffffffffffff1673ffffffffffffffffffffffffffffffffffffffff1681526020019081526020015f206002015f9054906101000a900460ff16600581111561137d5761137c613107565b5b146113bd576040517f08c379a00000000000000000000000000000000000000000000000000000000081526004016113b490614665565b60405180910390fd5b5f60015f8154809291906113d090614326565b9190505590505f60045f8381526020019081526020015f20905081815f018190555033816001015f6101000a81548173ffffffffffffffffffffffffffffffffffffffff021916908373ffffffffffffffffffffffffffffffffffffffff16021790555087816002015f6101000a81548173ffffffffffffffffffffffffffffffffffffffff021916908373ffffffffffffffffffffffffffffffffffffffff16021790555086816003019081611487919061451e565b5085816004019081611499919061451e565b50848160050190816114ab919061451e565b504281600601819055505f816008015f6101000a81548160ff021916908360068111156114db576114da613107565b5b02179055508381600b015f6101000a81548160ff02191690831515021790555060085f3373ffffffffffffffffffffffffffffffffffffffff1673ffffffffffffffffffffffffffffffffffffffff1681526020019081526020015f2082908060018154018082558091505060019003905f5260205f20015f90919091909150558773ffffffffffffffffffffffffffffffffffffffff163373ffffffffffffffffffffffffffffffffffffffff16837f8fb6b855d6cbdf201f2fcaadbf8c38d36168ff7d2ca865cb2599abcd5a060e8f8a6040516115ba9190614683565b60405180910390a4819250505095945050505050565b6115d8612da3565b600160065f8381526020019081526020015f206005015f6101000a81548160ff021916908315150217905550807ff83ae0ade2d9004bc0030405bdd3336f9d9b97530bcf44cce99ce02c95641b7760405160405180910390a250565b60605f60045f8481526020019081526020015f2060090180548060200260200160405190810160405280929190818152602001828054801561169357602002820191905f5260205f20905b81548152602001906001019080831161167f575b505050505090505f815167ffffffffffffffff8111156116b6576116b56135c0565b5b6040519080825280602002602001820160405280156116ef57816020015b6116dc612ecd565b8152602001906001900390816116d45790505b5090505f5f90505b825181101561198e5760055f848381518110611716576117156146a3565b5b602002602001015181526020019081526020015f20604051806101000160405290815f820154815260200160018201548152602001600282015f9054906101000a900473ffffffffffffffffffffffffffffffffffffffff1673ffffffffffffffffffffffffffffffffffffffff1673ffffffffffffffffffffffffffffffffffffffff1681526020016003820180546117af90614261565b80601f01602080910402602001604051908101604052809291908181526020018280546117db90614261565b80156118265780601f106117fd57610100808354040283529160200191611826565b820191905f5260205f20905b81548152906001019060200180831161180957829003601f168201915b5050505050815260200160048201805461183f90614261565b80601f016020809104026020016040519081016040528092919081815260200182805461186b90614261565b80156118b65780601f1061188d576101008083540402835291602001916118b6565b820191905f5260205f20905b81548152906001019060200180831161189957829003601f168201915b50505050508152602001600582015481526020016006820180546118d990614261565b80601f016020809104026020016040519081016040528092919081815260200182805461190590614261565b80156119505780601f1061192757610100808354040283529160200191611950565b820191905f5260205f20905b81548152906001019060200180831161193357829003601f168201915b50505050508152602001600782015481525050828281518110611976576119756146a3565b5b602002602001018190525080806001019150506116f7565b508092505050919050565b606060085f8373ffffffffffffffffffffffffffffffffffffffff1673ffffffffffffffffffffffffffffffffffffffff1681526020019081526020015f20805480602002602001604051908101604052809291908181526020018280548015611a2057602002820191905f5260205f20905b815481526020019060010190808311611a0c575b50505050509050919050565b606081611a3881612d51565b5f60045f8581526020019081526020015f20600a01805480602002602001604051908101604052809291908181526020018280548015611a9557602002820191905f5260205f20905b815481526020019060010190808311611a81575b505050505090505f815167ffffffffffffffff811115611ab857611ab76135c0565b5b604051908082528060200260200182016040528015611af157816020015b611ade612f79565b815260200190600190039081611ad65790505b5090505f5f90505b8251811015611cba5760065f848381518110611b1857611b176146a3565b5b602002602001015181526020019081526020015f206040518060e00160405290815f820154815260200160018201548152602001600282015f9054906101000a900460ff166004811115611b6f57611b6e613107565b5b6004811115611b8157611b80613107565b5b81526020016002820160019054906101000a900473ffffffffffffffffffffffffffffffffffffffff1673ffffffffffffffffffffffffffffffffffffffff1673ffffffffffffffffffffffffffffffffffffffff168152602001600382018054611beb90614261565b80601f0160208091040260200160405190810160405280929190818152602001828054611c1790614261565b8015611c625780601f10611c3957610100808354040283529160200191611c62565b820191905f5260205f20905b815481529060010190602001808311611c4557829003601f168201915b5050505050815260200160048201548152602001600582015f9054906101000a900460ff161515151581525050828281518110611ca257611ca16146a3565b5b60200260200101819052508080600101915050611af9565b50809350505050919050565b611cce612cc3565b81611cd881612d51565b8160045f8581526020019081526020015f206008015f6101000a81548160ff02191690836006811115611d0e57611d0d613107565b5b0217905550827f7c1c93f72f29b8a1fc6fc85eed990d133b1ffac80c962b521abb12f38f2ff9af83604051611d4391906146d0565b60405180910390a2505050565b80611d5a81612d51565b60045f8381526020019081526020015f206001015f9054906101000a900473ffffffffffffffffffffffffffffffffffffffff1673ffffffffffffffffffffffffffffffffffffffff163373ffffffffffffffffffffffffffffffffffffffff1614611dfb576040517f08c379a0000000000000000000000000000000000000000000000000000000008152600401611df290614733565b60405180910390fd5b5f6006811115611e0e57611e0d613107565b5b60045f8481526020019081526020015f206008015f9054906101000a900460ff166006811115611e4157611e40613107565b5b14611e81576040517f08c379a0000000000000000000000000000000000000000000000000000000008152600401611e789061479b565b60405180910390fd5b600660045f8481526020019081526020015f206008015f6101000a81548160ff02191690836006811115611eb857611eb7613107565b5b0217905550817f7c1c93f72f29b8a1fc6fc85eed990d133b1ffac80c962b521abb12f38f2ff9af6006604051611eee91906146d0565b60405180910390a25050565b5f60065f8381526020019081526020015f206005015f9054906101000a900460ff169050919050565b611f2b612f79565b5f82118015611f3b575060035482105b611f7a576040517f08c379a0000000000000000000000000000000000000000000000000000000008152600401611f7190614803565b60405180910390fd5b60065f8381526020019081526020015f206040518060e00160405290815f820154815260200160018201548152602001600282015f9054906101000a900460ff166004811115611fcd57611fcc613107565b5b6004811115611fdf57611fde613107565b5b81526020016002820160019054906101000a900473ffffffffffffffffffffffffffffffffffffffff1673ffffffffffffffffffffffffffffffffffffffff1673ffffffffffffffffffffffffffffffffffffffff16815260200160038201805461204990614261565b80601f016020809104026020016040519081016040528092919081815260200182805461207590614261565b80156120c05780601f10612097576101008083540402835291602001916120c0565b820191905f5260205f20905b8154815290600101906020018083116120a357829003601f168201915b5050505050815260200160048201548152602001600582015f9054906101000a900460ff1615151515815250509050919050565b6008602052815f5260405f20818154811061210d575f80fd5b905f5260205f20015f91509150505481565b6006602052805f5260405f205f91509050805f015490806001015490806002015f9054906101000a900460ff16908060020160019054906101000a900473ffffffffffffffffffffffffffffffffffffffff169080600301805461218290614261565b80601f01602080910402602001604051908101604052809291908181526020018280546121ae90614261565b80156121f95780601f106121d0576101008083540402835291602001916121f9565b820191905f5260205f20905b8154815290600101906020018083116121dc57829003601f168201915b505050505090806004015490806005015f9054906101000a900460ff16905087565b5f5f60045f8481526020019081526020015f20905080600b015f9054906101000a900460ff1661224f5760019150506122cd565b5f5f90505b81600901805490508110156122c6575f60055f84600901848154811061227d5761227c6146a3565b5b905f5260205f20015481526020019081526020015f2060070154905060508113806122a85750601481125b156122b8575f93505050506122cd565b508080600101915050612254565b5060019150505b919050565b6005602052805f5260405f205f91509050805f015490806001015490806002015f9054906101000a900473ffffffffffffffffffffffffffffffffffffffff169080600301805461232290614261565b80601f016020809104026020016040519081016040528092919081815260200182805461234e90614261565b80156123995780601f1061237057610100808354040283529160200191612399565b820191905f5260205f20905b81548152906001019060200180831161237c57829003601f168201915b5050505050908060040180546123ae90614261565b80601f01602080910402602001604051908101604052809291908181526020018280546123da90614261565b80156124255780601f106123fc57610100808354040283529160200191612425565b820191905f5260205f20905b81548152906001019060200180831161240857829003601f168201915b50505050509080600501549080600601805461244090614261565b80601f016020809104026020016040519081016040528092919081815260200182805461246c90614261565b80156124b75780601f1061248e576101008083540402835291602001916124b7565b820191905f5260205f20905b81548152906001019060200180831161249a57829003601f168201915b5050505050908060070154905088565b60015481565b60075f3373ffffffffffffffffffffffffffffffffffffffff1673ffffffffffffffffffffffffffffffffffffffff1681526020019081526020015f206004015f9054906101000a900460ff161561255a576040517f08c379a00000000000000000000000000000000000000000000000000000000081526004016125519061486b565b60405180910390fd5b6040518060a001604052803373ffffffffffffffffffffffffffffffffffffffff16815260200184815260200183600581111561259a57612599613107565b5b81526020018281526020016001151581525060075f3373ffffffffffffffffffffffffffffffffffffffff1673ffffffffffffffffffffffffffffffffffffffff1681526020019081526020015f205f820151815f015f6101000a81548173ffffffffffffffffffffffffffffffffffffffff021916908373ffffffffffffffffffffffffffffffffffffffff1602179055506020820151816001019081612642919061451e565b506040820151816002015f6101000a81548160ff0219169083600581111561266d5761266c613107565b5b02179055506060820151816003019081612687919061451e565b506080820151816004015f6101000a81548160ff0219169083151502179055509050503373ffffffffffffffffffffffffffffffffffffffff167fc9a31de765abe70445345802bee3c96554ca063ab257e3888d498accb859fabc84846040516126f2929190614889565b60405180910390a2505050565b5f612708612cc3565b8361271281612d51565b5f60035f81548092919061272590614326565b9190505590506040518060e0016040528082815260200187815260200186600481111561275557612754613107565b5b81526020013373ffffffffffffffffffffffffffffffffffffffff1681526020018581526020014281526020015f151581525060065f8381526020019081526020015f205f820151815f0155602082015181600101556040820151816002015f6101000a81548160ff021916908360048111156127d5576127d4613107565b5b021790555060608201518160020160016101000a81548173ffffffffffffffffffffffffffffffffffffffff021916908373ffffffffffffffffffffffffffffffffffffffff1602179055506080820151816003019081612836919061451e565b5060a0820151816004015560c0820151816005015f6101000a81548160ff02191690831515021790555090505060045f8781526020019081526020015f20600a0181908060018154018082558091505060019003905f5260205f20015f909190919091505585817fc2c9d0fa5caecea68b9ec6aca764014b01764f779d8a510f0d0d6796b76b7c83876040516128cc91906148b7565b60405180910390a380925050509392505050565b6007602052805f5260405f205f91509050805f015f9054906101000a900473ffffffffffffffffffffffffffffffffffffffff169080600101805461292490614261565b80601f016020809104026020016040519081016040528092919081815260200182805461295090614261565b801561299b5780601f106129725761010080835404028352916020019161299b565b820191905f5260205f20905b81548152906001019060200180831161297e57829003601f168201915b505050505090806002015f9054906101000a900460ff16908060030180546129c290614261565b80601f01602080910402602001604051908101604052809291908181526020018280546129ee90614261565b8015612a395780601f10612a1057610100808354040283529160200191612a39565b820191905f5260205f20905b815481529060010190602001808311612a1c57829003601f168201915b505050505090806004015f9054906101000a900460ff16905085565b5f5f9054906101000a900473ffffffffffffffffffffffffffffffffffffffff1681565b612a81612da3565b5f60075f8373ffffffffffffffffffffffffffffffffffffffff1673ffffffffffffffffffffffffffffffffffffffff1681526020019081526020015f206004015f6101000a81548160ff02191690831515021790555050565b80612ae581612d51565b5f60045f8481526020019081526020015f209050806002015f9054906101000a900473ffffffffffffffffffffffffffffffffffffffff1673ffffffffffffffffffffffffffffffffffffffff163373ffffffffffffffffffffffffffffffffffffffff1614612b8a576040517f08c379a0000000000000000000000000000000000000000000000000000000008152600401612b819061491a565b60405180910390fd5b60046006811115612b9e57612b9d613107565b5b816008015f9054906101000a900460ff166006811115612bc157612bc0613107565b5b03612c01576040517f08c379a0000000000000000000000000000000000000000000000000000000008152600401612bf890614982565b60405180910390fd5b6004816008015f6101000a81548160ff02191690836006811115612c2857612c27613107565b5b02179055504281600701819055503373ffffffffffffffffffffffffffffffffffffffff16837f2f4a952729db32131cb3d658cc231127e0ce7e50f83508ece9a49c985f2384d042604051612c7d9190613388565b60405180910390a3827f7c1c93f72f29b8a1fc6fc85eed990d133b1ffac80c962b521abb12f38f2ff9af6004604051612cb691906146d0565b60405180910390a2505050565b60075f3373ffffffffffffffffffffffffffffffffffffffff1673ffffffffffffffffffffffffffffffffffffffff1681526020019081526020015f206004015f9054906101000a900460ff16612d4f576040517f08c379a0000000000000000000000000000000000000000000000000000000008152600401612d46906149ea565b60405180910390fd5b565b5f81118015612d61575060015481105b612da0576040517f08c379a0000000000000000000000000000000000000000000000000000000008152600401612d9790614a52565b60405180910390fd5b50565b5f5f9054906101000a900473ffffffffffffffffffffffffffffffffffffffff1673ffffffffffffffffffffffffffffffffffffffff163373ffffffffffffffffffffffffffffffffffffffff1614612e31576040517f08c379a0000000000000000000000000000000000000000000000000000000008152600401612e2890614aba565b60405180910390fd5b565b6040518061018001604052805f81526020015f73ffffffffffffffffffffffffffffffffffffffff1681526020015f73ffffffffffffffffffffffffffffffffffffffff1681526020016060815260200160608152602001606081526020015f81526020015f81526020015f6006811115612eb157612eb0613107565b5b815260200160608152602001606081526020015f151581525090565b6040518061010001604052805f81526020015f81526020015f73ffffffffffffffffffffffffffffffffffffffff16815260200160608152602001606081526020015f8152602001606081526020015f81525090565b6040518060a001604052805f73ffffffffffffffffffffffffffffffffffffffff168152602001606081526020015f6005811115612f6457612f63613107565b5b8152602001606081526020015f151581525090565b6040518060e001604052805f81526020015f81526020015f6004811115612fa357612fa2613107565b5b81526020015f73ffffffffffffffffffffffffffffffffffffffff168152602001606081526020015f81526020015f151581525090565b5f604051905090565b5f5ffd5b5f5ffd5b5f819050919050565b612ffd81612feb565b8114613007575f5ffd5b50565b5f8135905061301881612ff4565b92915050565b5f6020828403121561303357613032612fe3565b5b5f6130408482850161300a565b91505092915050565b61305281612feb565b82525050565b5f73ffffffffffffffffffffffffffffffffffffffff82169050919050565b5f61308182613058565b9050919050565b61309181613077565b82525050565b5f81519050919050565b5f82825260208201905092915050565b8281835e5f83830152505050565b5f601f19601f8301169050919050565b5f6130d982613097565b6130e381856130a1565b93506130f38185602086016130b1565b6130fc816130bf565b840191505092915050565b7f4e487b71000000000000000000000000000000000000000000000000000000005f52602160045260245ffd5b6007811061314557613144613107565b5b50565b5f81905061315582613134565b919050565b5f61316482613148565b9050919050565b6131748161315a565b82525050565b5f81519050919050565b5f82825260208201905092915050565b5f819050602082019050919050565b5f6131ae8383613049565b60208301905092915050565b5f602082019050919050565b5f6131d08261317a565b6131da8185613184565b93506131e583613194565b805f5b838110156132155781516131fc88826131a3565b9750613207836131ba565b9250506001810190506131e8565b5085935050505092915050565b5f8115159050919050565b61323681613222565b82525050565b5f61018083015f8301516132525f860182613049565b5060208301516132656020860182613088565b5060408301516132786040860182613088565b506060830151848203606086015261329082826130cf565b915050608083015184820360808601526132aa82826130cf565b91505060a083015184820360a08601526132c482826130cf565b91505060c08301516132d960c0860182613049565b5060e08301516132ec60e0860182613049565b5061010083015161330161010086018261316b565b5061012083015184820361012086015261331b82826131c6565b91505061014083015184820361014086015261333782826131c6565b91505061016083015161334e61016086018261322d565b508091505092915050565b5f6020820190508181035f830152613371818461323c565b905092915050565b61338281612feb565b82525050565b5f60208201905061339b5f830184613379565b92915050565b5f819050919050565b6133b3816133a1565b82525050565b5f61010083015f8301516133cf5f860182613049565b5060208301516133e26020860182613049565b5060408301516133f56040860182613088565b506060830151848203606086015261340d82826130cf565b9150506080830151848203608086015261342782826130cf565b91505060a083015161343c60a0860182613049565b5060c083015184820360c086015261345482826130cf565b91505060e083015161346960e08601826133aa565b508091505092915050565b5f6020820190508181035f83015261348c81846133b9565b905092915050565b61349d81613077565b82525050565b5f82825260208201905092915050565b5f6134bd82613097565b6134c781856134a3565b93506134d78185602086016130b1565b6134e0816130bf565b840191505092915050565b6134f48161315a565b82525050565b61350381613222565b82525050565b5f6101408201905061351d5f83018d613379565b61352a602083018c613494565b613537604083018b613494565b8181036060830152613549818a6134b3565b9050818103608083015261355d81896134b3565b905081810360a083015261357181886134b3565b905061358060c0830187613379565b61358d60e0830186613379565b61359b6101008301856134eb565b6135a96101208301846134fa565b9b9a5050505050505050505050565b5f5ffd5b5f5ffd5b7f4e487b71000000000000000000000000000000000000000000000000000000005f52604160045260245ffd5b6135f6826130bf565b810181811067ffffffffffffffff82111715613615576136146135c0565b5b80604052505050565b5f613627612fda565b905061363382826135ed565b919050565b5f67ffffffffffffffff821115613652576136516135c0565b5b61365b826130bf565b9050602081019050919050565b828183375f83830152505050565b5f61368861368384613638565b61361e565b9050828152602081018484840111156136a4576136a36135bc565b5b6136af848285613668565b509392505050565b5f82601f8301126136cb576136ca6135b8565b5b81356136db848260208601613676565b91505092915050565b6136ed816133a1565b81146136f7575f5ffd5b50565b5f81359050613708816136e4565b92915050565b5f5f5f5f5f60a0868803121561372757613726612fe3565b5b5f6137348882890161300a565b955050602086013567ffffffffffffffff81111561375557613754612fe7565b5b613761888289016136b7565b945050604086013567ffffffffffffffff81111561378257613781612fe7565b5b61378e888289016136b7565b935050606086013567ffffffffffffffff8111156137af576137ae612fe7565b5b6137bb888289016136b7565b92505060806137cc888289016136fa565b9150509295509295909350565b6137e281613077565b81146137ec575f5ffd5b50565b5f813590506137fd816137d9565b92915050565b5f6020828403121561381857613817612fe3565b5b5f613825848285016137ef565b91505092915050565b6006811061383f5761383e613107565b5b50565b5f81905061384f8261382e565b919050565b5f61385e82613842565b9050919050565b61386e81613854565b82525050565b5f60a083015f8301516138895f860182613088565b50602083015184820360208601526138a182826130cf565b91505060408301516138b66040860182613865565b50606083015184820360608601526138ce82826130cf565b91505060808301516138e3608086018261322d565b508091505092915050565b5f6020820190508181035f8301526139068184613874565b905092915050565b61391781613222565b8114613921575f5ffd5b50565b5f813590506139328161390e565b92915050565b5f5f5f5f5f60a0868803121561395157613950612fe3565b5b5f61395e888289016137ef565b955050602086013567ffffffffffffffff81111561397f5761397e612fe7565b5b61398b888289016136b7565b945050604086013567ffffffffffffffff8111156139ac576139ab612fe7565b5b6139b8888289016136b7565b935050606086013567ffffffffffffffff8111156139d9576139d8612fe7565b5b6139e5888289016136b7565b92505060806139f688828901613924565b9150509295509295909350565b5f81519050919050565b5f82825260208201905092915050565b5f819050602082019050919050565b5f61010083015f830151613a425f860182613049565b506020830151613a556020860182613049565b506040830151613a686040860182613088565b5060608301518482036060860152613a8082826130cf565b91505060808301518482036080860152613a9a82826130cf565b91505060a0830151613aaf60a0860182613049565b5060c083015184820360c0860152613ac782826130cf565b91505060e0830151613adc60e08601826133aa565b508091505092915050565b5f613af28383613a2c565b905092915050565b5f602082019050919050565b5f613b1082613a03565b613b1a8185613a0d565b935083602082028501613b2c85613a1d565b805f5b85811015613b675784840389528151613b488582613ae7565b9450613b5383613afa565b925060208a01995050600181019050613b2f565b50829750879550505050505092915050565b5f6020820190508181035f830152613b918184613b06565b905092915050565b5f82825260208201905092915050565b5f613bb38261317a565b613bbd8185613b99565b9350613bc883613194565b805f5b83811015613bf8578151613bdf88826131a3565b9750613bea836131ba565b925050600181019050613bcb565b5085935050505092915050565b5f6020820190508181035f830152613c1d8184613ba9565b905092915050565b5f81519050919050565b5f82825260208201905092915050565b5f819050602082019050919050565b60058110613c5f57613c5e613107565b5b50565b5f819050613c6f82613c4e565b919050565b5f613c7e82613c62565b9050919050565b613c8e81613c74565b82525050565b5f60e083015f830151613ca95f860182613049565b506020830151613cbc6020860182613049565b506040830151613ccf6040860182613c85565b506060830151613ce26060860182613088565b5060808301518482036080860152613cfa82826130cf565b91505060a0830151613d0f60a0860182613049565b5060c0830151613d2260c086018261322d565b508091505092915050565b5f613d388383613c94565b905092915050565b5f602082019050919050565b5f613d5682613c25565b613d608185613c2f565b935083602082028501613d7285613c3f565b805f5b85811015613dad5784840389528151613d8e8582613d2d565b9450613d9983613d40565b925060208a01995050600181019050613d75565b50829750879550505050505092915050565b5f6020820190508181035f830152613dd78184613d4c565b905092915050565b60078110613deb575f5ffd5b50565b5f81359050613dfc81613ddf565b92915050565b5f5f60408385031215613e1857613e17612fe3565b5b5f613e258582860161300a565b9250506020613e3685828601613dee565b9150509250929050565b5f602082019050613e535f8301846134fa565b92915050565b5f60e083015f830151613e6e5f860182613049565b506020830151613e816020860182613049565b506040830151613e946040860182613c85565b506060830151613ea76060860182613088565b5060808301518482036080860152613ebf82826130cf565b91505060a0830151613ed460a0860182613049565b5060c0830151613ee760c086018261322d565b508091505092915050565b5f6020820190508181035f830152613f0a8184613e59565b905092915050565b5f5f60408385031215613f2857613f27612fe3565b5b5f613f35858286016137ef565b9250506020613f468582860161300a565b9150509250929050565b613f5981613c74565b82525050565b5f60e082019050613f725f83018a613379565b613f7f6020830189613379565b613f8c6040830188613f50565b613f996060830187613494565b8181036080830152613fab81866134b3565b9050613fba60a0830185613379565b613fc760c08301846134fa565b98975050505050505050565b613fdc816133a1565b82525050565b5f61010082019050613ff65f83018b613379565b614003602083018a613379565b6140106040830189613494565b818103606083015261402281886134b3565b9050818103608083015261403681876134b3565b905061404560a0830186613379565b81810360c083015261405781856134b3565b905061406660e0830184613fd3565b9998505050505050505050565b6006811061407f575f5ffd5b50565b5f8135905061409081614073565b92915050565b5f5f5f606084860312156140ad576140ac612fe3565b5b5f84013567ffffffffffffffff8111156140ca576140c9612fe7565b5b6140d6868287016136b7565b93505060206140e786828701614082565b925050604084013567ffffffffffffffff81111561410857614107612fe7565b5b614114868287016136b7565b9150509250925092565b6005811061412a575f5ffd5b50565b5f8135905061413b8161411e565b92915050565b5f5f5f6060848603121561415857614157612fe3565b5b5f6141658682870161300a565b93505060206141768682870161412d565b925050604084013567ffffffffffffffff81111561419757614196612fe7565b5b6141a3868287016136b7565b9150509250925092565b6141b681613854565b82525050565b5f60a0820190506141cf5f830188613494565b81810360208301526141e181876134b3565b90506141f060408301866141ad565b818103606083015261420281856134b3565b905061421160808301846134fa565b9695505050505050565b5f60208201905061422e5f830184613494565b92915050565b7f4e487b71000000000000000000000000000000000000000000000000000000005f52602260045260245ffd5b5f600282049050600182168061427857607f821691505b60208210810361428b5761428a614234565b5b50919050565b7f436865636b706f696e7420646f6573206e6f74206578697374000000000000005f82015250565b5f6142c56019836134a3565b91506142d082614291565b602082019050919050565b5f6020820190508181035f8301526142f2816142b9565b9050919050565b7f4e487b71000000000000000000000000000000000000000000000000000000005f52601160045260245ffd5b5f61433082612feb565b91507fffffffffffffffffffffffffffffffffffffffffffffffffffffffffffffffff8203614362576143616142f9565b5b600182019050919050565b5f819050815f5260205f209050919050565b5f6020601f8301049050919050565b5f82821b905092915050565b5f600883026143c97fffffffffffffffffffffffffffffffffffffffffffffffffffffffffffffffff8261438e565b6143d3868361438e565b95508019841693508086168417925050509392505050565b5f819050919050565b5f61440e61440961440484612feb565b6143eb565b612feb565b9050919050565b5f819050919050565b614427836143f4565b61443b61443382614415565b84845461439a565b825550505050565b5f5f905090565b614452614443565b61445d81848461441e565b505050565b5f5b82811015614483576144785f82840161444a565b600181019050614464565b505050565b601f8211156144d657828211156144d5576144a28161436d565b6144ab8361437f565b6144b48561437f565b60208610156144c1575f90505b8083016144d082840382614462565b505050505b5b505050565b5f82821c905092915050565b5f6144f65f19846008026144db565b1980831691505092915050565b5f61450e83836144e7565b9150826002028217905092915050565b61452782613097565b67ffffffffffffffff8111156145405761453f6135c0565b5b61454a8254614261565b614555828285614488565b5f60209050601f831160018114614586575f8415614574578287015190505b61457e8582614503565b8655506145e5565b601f1984166145948661436d565b5f5b828110156145bb57848901518255600182019150602085019450602081019050614596565b868310156145d857848901516145d4601f8916826144e7565b8355505b6001600288020188555050505b505050505050565b5f6040820190508181035f83015261460581856134b3565b90506146146020830184613494565b9392505050565b7f4f6e6c792053656e646572732063616e206372656174650000000000000000005f82015250565b5f61464f6017836134a3565b915061465a8261461b565b602082019050919050565b5f6020820190508181035f83015261467c81614643565b9050919050565b5f6020820190508181035f83015261469b81846134b3565b905092915050565b7f4e487b71000000000000000000000000000000000000000000000000000000005f52603260045260245ffd5b5f6020820190506146e35f8301846134eb565b92915050565b7f4f6e6c792073656e6465722063616e2063616e63656c000000000000000000005f82015250565b5f61471d6016836134a3565b9150614728826146e9565b602082019050919050565b5f6020820190508181035f83015261474a81614711565b9050919050565b7f43616e6e6f742063616e63656c206166746572207472616e73697400000000005f82015250565b5f614785601b836134a3565b915061479082614751565b602082019050919050565b5f6020820190508181035f8301526147b281614779565b9050919050565b7f496e636964656e7420646f6573206e6f742065786973740000000000000000005f82015250565b5f6147ed6017836134a3565b91506147f8826147b9565b602082019050919050565b5f6020820190508181035f83015261481a816147e1565b9050919050565b7f416c7265616479207265676973746572656400000000000000000000000000005f82015250565b5f6148556012836134a3565b915061486082614821565b602082019050919050565b5f6020820190508181035f83015261488281614849565b9050919050565b5f6040820190508181035f8301526148a181856134b3565b90506148b060208301846141ad565b9392505050565b5f6020820190506148ca5f830184613f50565b92915050565b7f4f6e6c7920726563697069656e742063616e20636f6e6669726d0000000000005f82015250565b5f614904601a836134a3565b915061490f826148d0565b602082019050919050565b5f6020820190508181035f830152614931816148f8565b9050919050565b7f416c72656164792064656c6976657265640000000000000000000000000000005f82015250565b5f61496c6011836134a3565b915061497782614938565b602082019050919050565b5f6020820190508181035f83015261499981614960565b9050919050565b7f4163746f72206e6f742072656769737465726564206f7220696e6163746976655f82015250565b5f6149d46020836134a3565b91506149df826149a0565b602082019050919050565b5f6020820190508181035f830152614a01816149c8565b9050919050565b7f536869706d656e7420646f6573206e6f742065786973740000000000000000005f82015250565b5f614a3c6017836134a3565b9150614a4782614a08565b602082019050919050565b5f6020820190508181035f830152614a6981614a30565b9050919050565b7f4f6e6c792061646d696e000000000000000000000000000000000000000000005f82015250565b5f614aa4600a836134a3565b9150614aaf82614a70565b602082019050919050565b5f6020820190508181035f830152614ad181614a98565b905091905056fea2646970667358221220d6192828a5a437cd7f5db236603080d4d7baaf59d12d84aa5fd48202b497576864736f6c63430008210033","linkReferences":{}},"methodIdentifiers":{"actorShipments(address,uint256)":"a113c557","actors(address)":"eaa66a3c","admin()":"f851a440","cancelShipment(uint256)":"7faa7bc7","checkpoints(uint256)":"b8a24252","confirmDelivery(uint256)":"fd84cb97","createShipment(address,string,string,string,bool)":"475b6f98","deactivateActor(address)":"fc436695","getActor(address)":"4138d167","getActorShipments(address)":"72f2f93a","getCheckpoint(uint256)":"20fc4881","getIncident(uint256)":"9578615e","getShipment(uint256)":"092b3740","getShipmentCheckpoints(uint256)":"5f19f4f5","getShipmentIncidents(uint256)":"733e28aa","incidents(uint256)":"a6c6a8f3","isIncidentResolved(uint256)":"925d3478","nextCheckpointId()":"229ec452","nextIncidentId()":"0fd19668","nextShipmentId()":"b9a3a68c","recordCheckpoint(uint256,string,string,string,int256)":"33401ee1","registerActor(string,uint8,string)":"c4edcf8b","reportIncident(uint256,uint8,string)":"e570c367","resolveIncident(uint256)":"4ffe6ae2","shipments(uint256)":"2ac08a93","updateShipmentStatus(uint256,uint8)":"7defa920","verifyTemperatureCompliance(uint256)":"af56a428"},"id":19}