{"abi":[{"type":"constructor","inputs":[],"stateMutability":"nonpayable"},{"type":"function","name":"COLD_CHAIN_TEMP_MAX","inputs":[],"outputs":[{"name":"","type":"int256","internalType":"int256"}],"stateMutability":"view"},{"type":"function","name":"COLD_CHAIN_TEMP_MIN","inputs":[],"outputs":[{"name":"","type":"int256","internalType":"int256"}],"stateMutability":"view"},{"type":"function","name":"MAX_CHECKPOINTS_PER_SHIPMENT","inputs":[],"outputs":[{"name":"","type":"uint256","internalType":"uint256"}],"stateMutability":"view"},{"type":"function","name":"MAX_INCIDENTS_PER_SHIPMENT","inputs":[],"outputs":[{"name":"","type":"uint256","internalType":"uint256"}],"stateMutability":"view"},{"type":"function","name":"TEMPERATURE_NOT_SET","inputs":[],"outputs":[{"name":"","type":"int256","internalType":"int256"}],"stateMutability":"view"},{"type":"function","name":"acceptAdmin","inputs":[],"outputs":[],"stateMutability":"nonpayable"},{"type":"function","name":"admin","inputs":[],"outputs":[{"name":"","type":"address","internalType":"address"}],"stateMutability":"view"},{"type":"function","name":"cancelShipment","inputs":[{"name":"_shipmentId","type":"uint256","internalType":"uint256"}],"outputs":[],"stateMutability":"nonpayable"},{"type":"function","name":"confirmDelivery","inputs":[{"name":"_shipmentId","type":"uint256","internalType":"uint256"}],"outputs":[],"stateMutability":"nonpayable"},{"type":"function","name":"createShipment","inputs":[{"name":"_recipient","type":"address","internalType":"address"},{"name":"_product","type":"string","internalType":"string"},{"name":"_origin","type":"string","internalType":"string"},{"name":"_destination","type":"string","internalType":"string"},{"name":"_requiresColdChain","type":"bool","internalType":"bool"}],"outputs":[{"name":"","type":"uint256","internalType":"uint256"}],"stateMutability":"nonpayable"},{"type":"function","name":"deactivateActor","inputs":[{"name":"_actorAddress","type":"address","internalType":"address"}],"outputs":[],"stateMutability":"nonpayable"},{"type":"function","name":"getActor","inputs":[{"name":"_actorAddress","type":"address","internalType":"address"}],"outputs":[{"name":"","type":"tuple","internalType":"struct LogisticsTracking.Actor","components":[{"name":"actorAddress","type":"address","internalType":"address"},{"name":"name","type":"string","internalType":"string"},{"name":"role","type":"uint8","internalType":"enum LogisticsTracking.ActorRole"},{"name":"location","type":"string","internalType":"string"},{"name":"isActive","type":"bool","internalType":"bool"}]}],"stateMutability":"view"},{"type":"function","name":"getActorShipments","inputs":[{"name":"_actor","type":"address","internalType":"address"}],"outputs":[{"name":"","type":"uint256[]","internalType":"uint256[]"}],"stateMutability":"view"},{"type":"function","name":"getAllShipmentCheckpoints","inputs":[{"name":"_id","type":"uint256","internalType":"uint256"}],"outputs":[{"name":"","type":"tuple[]","internalType":"struct LogisticsTracking.Checkpoint[]","components":[{"name":"id","type":"uint256","internalType":"uint256"},{"name":"shipmentId","type":"uint256","internalType":"uint256"},{"name":"actor","type":"address","internalType":"address"},{"name":"location","type":"string","internalType":"string"},{"name":"checkpointType","type":"uint8","internalType":"enum LogisticsTracking.CheckpointType"},{"name":"timestamp","type":"uint256","internalType":"uint256"},{"name":"notes","type":"string","internalType":"string"},{"name":"temperature","type":"int256","internalType":"int256"}]}],"stateMutability":"view"},{"type":"function","name":"getAllShipmentIncidents","inputs":[{"name":"_shipmentId","type":"uint256","internalType":"uint256"}],"outputs":[{"name":"","type":"tuple[]","internalType":"struct LogisticsTracking.Incident[]","components":[{"name":"id","type":"uint256","internalType":"uint256"},{"name":"shipmentId","type":"uint256","internalType":"uint256"},{"name":"incidentType","type":"uint8","internalType":"enum LogisticsTracking.IncidentType"},{"name":"reporter","type":"address","internalType":"address"},{"name":"description","type":"string","internalType":"string"},{"name":"timestamp","type":"uint256","internalType":"uint256"},{"name":"resolved","type":"bool","internalType":"bool"}]}],"stateMutability":"view"},{"type":"function","name":"getCheckpoint","inputs":[{"name":"_checkpointId","type":"uint256","internalType":"uint256"}],"outputs":[{"name":"","type":"tuple","internalType":"struct LogisticsTracking.Checkpoint","components":[{"name":"id","type":"uint256","internalType":"uint256"},{"name":"shipmentId","type":"uint256","internalType":"uint256"},{"name":"actor","type":"address","internalType":"address"},{"name":"location","type":"string","internalType":"string"},{"name":"checkpointType","type":"uint8","internalType":"enum LogisticsTracking.CheckpointType"},{"name":"timestamp","type":"uint256","internalType":"uint256"},{"name":"notes","type":"string","internalType":"string"},{"name":"temperature","type":"int256","internalType":"int256"}]}],"stateMutability":"view"},{"type":"function","name":"getIncident","inputs":[{"name":"_incidentId","type":"uint256","internalType":"uint256"}],"outputs":[{"name":"","type":"tuple","internalType":"struct LogisticsTracking.Incident","components":[{"name":"id","type":"uint256","internalType":"uint256"},{"name":"shipmentId","type":"uint256","internalType":"uint256"},{"name":"incidentType","type":"uint8","internalType":"enum LogisticsTracking.IncidentType"},{"name":"reporter","type":"address","internalType":"address"},{"name":"description","type":"string","internalType":"string"},{"name":"timestamp","type":"uint256","internalType":"uint256"},{"name":"resolved","type":"bool","internalType":"bool"}]}],"stateMutability":"view"},{"type":"function","name":"getShipment","inputs":[{"name":"_id","type":"uint256","internalType":"uint256"}],"outputs":[{"name":"","type":"tuple","internalType":"struct LogisticsTracking.Shipment","components":[{"name":"id","type":"uint256","internalType":"uint256"},{"name":"sender","type":"address","internalType":"address"},{"name":"recipient","type":"address","internalType":"address"},{"name":"product","type":"string","internalType":"string"},{"name":"origin","type":"string","internalType":"string"},{"name":"destination","type":"string","internalType":"string"},{"name":"dateCreated","type":"uint256","internalType":"uint256"},{"name":"dateDelivered","type":"uint256","internalType":"uint256"},{"name":"status","type":"uint8","internalType":"enum LogisticsTracking.ShipmentStatus"},{"name":"checkpointIds","type":"uint256[]","internalType":"uint256[]"},{"name":"incidentIds","type":"uint256[]","internalType":"uint256[]"},{"name":"requiresColdChain","type":"bool","internalType":"bool"}]}],"stateMutability":"view"},{"type":"function","name":"getShipmentCheckpoints","inputs":[{"name":"_id","type":"uint256","internalType":"uint256"},{"name":"_offset","type":"uint256","internalType":"uint256"},{"name":"_limit","type":"uint256","internalType":"uint256"}],"outputs":[{"name":"","type":"tuple[]","internalType":"struct LogisticsTracking.Checkpoint[]","components":[{"name":"id","type":"uint256","internalType":"uint256"},{"name":"shipmentId","type":"uint256","internalType":"uint256"},{"name":"actor","type":"address","internalType":"address"},{"name":"location","type":"string","internalType":"string"},{"name":"checkpointType","type":"uint8","internalType":"enum LogisticsTracking.CheckpointType"},{"name":"timestamp","type":"uint256","internalType":"uint256"},{"name":"notes","type":"string","internalType":"string"},{"name":"temperature","type":"int256","internalType":"int256"}]}],"stateMutability":"view"},{"type":"function","name":"getShipmentIncidents","inputs":[{"name":"_shipmentId","type":"uint256","internalType":"uint256"},{"name":"_offset","type":"uint256","internalType":"uint256"},{"name":"_limit","type":"uint256","internalType":"uint256"}],"outputs":[{"name":"","type":"tuple[]","internalType":"struct LogisticsTracking.Incident[]","components":[{"name":"id","type":"uint256","internalType":"uint256"},{"name":"shipmentId","type":"uint256","internalType":"uint256"},{"name":"incidentType","type":"uint8","internalType":"enum LogisticsTracking.IncidentType"},{"name":"reporter","type":"address","internalType":"address"},{"name":"description","type":"string","internalType":"string"},{"name":"timestamp","type":"uint256","internalType":"uint256"},{"name":"resolved","type":"bool","internalType":"bool"}]}],"stateMutability":"view"},{"type":"function","name":"isIncidentResolved","inputs":[{"name":"_incidentId","type":"uint256","internalType":"uint256"}],"outputs":[{"name":"","type":"bool","internalType":"bool"}],"stateMutability":"view"},{"type":"function","name":"nextCheckpointId","inputs":[],"outputs":[{"name":"","type":"uint256","internalType":"uint256"}],"stateMutability":"view"},{"type":"function","name":"nextIncidentId","inputs":[],"outputs":[{"name":"","type":"uint256","internalType":"uint256"}],"stateMutability":"view"},{"type":"function","name":"nextShipmentId","inputs":[],"outputs":[{"name":"","type":"uint256","internalType":"uint256"}],"stateMutability":"view"},{"type":"function","name":"pendingAdmin","inputs":[],"outputs":[{"name":"","type":"address","internalType":"address"}],"stateMutability":"view"},{"type":"function","name":"proposeAdmin","inputs":[{"name":"_newAdmin","type":"address","internalType":"address"}],"outputs":[],"stateMutability":"nonpayable"},{"type":"function","name":"reactivateActor","inputs":[{"name":"_actorAddress","type":"address","internalType":"address"}],"outputs":[],"stateMutability":"nonpayable"},{"type":"function","name":"recordCheckpoint","inputs":[{"name":"_shipmentId","type":"uint256","internalType":"uint256"},{"name":"_location","type":"string","internalType":"string"},{"name":"_checkpointType","type":"uint8","internalType":"enum LogisticsTracking.CheckpointType"},{"name":"_notes","type":"string","internalType":"string"},{"name":"_temperature","type":"int256","internalType":"int256"}],"outputs":[{"name":"","type":"uint256","internalType":"uint256"}],"stateMutability":"nonpayable"},{"type":"function","name":"registerActor","inputs":[{"name":"_name","type":"string","internalType":"string"},{"name":"_role","type":"uint8","internalType":"enum LogisticsTracking.ActorRole"},{"name":"_location","type":"string","internalType":"string"},{"name":"_actorAddress","type":"address","internalType":"address"}],"outputs":[],"stateMutability":"nonpayable"},{"type":"function","name":"reportIncident","inputs":[{"name":"_shipmentId","type":"uint256","internalType":"uint256"},{"name":"_type","type":"uint8","internalType":"enum LogisticsTracking.IncidentType"},{"name":"_desc","type":"string","internalType":"string"}],"outputs":[{"name":"","type":"uint256","internalType":"uint256"}],"stateMutability":"nonpayable"},{"type":"function","name":"resolveIncident","inputs":[{"name":"_incidentId","type":"uint256","internalType":"uint256"}],"outputs":[],"stateMutability":"nonpayable"},{"type":"function","name":"updateShipmentStatus","inputs":[{"name":"_shipmentId","type":"uint256","internalType":"uint256"},{"name":"_newStatus","type":"uint8","internalType":"enum LogisticsTracking.ShipmentStatus"}],"outputs":[],"stateMutability":"nonpayable"},{"type":"function","name":"verifyTemperatureCompliance","inputs":[{"name":"_shipmentId","type":"uint256","internalType":"uint256"}],"outputs":[{"name":"","type":"bool","internalType":"bool"}],"stateMutability":"view"},{"type":"event","name":"ActorRegistered","inputs":[{"name":"actorAddress","type":"address","indexed":true,"internalType":"address"},{"name":"name","type":"string","indexed":false,"internalType":"string"},{"name":"role","type":"uint8","indexed":false,"internalType":"enum LogisticsTracking.ActorRole"}],"anonymous":false},{"type":"event","name":"ActorStatusChanged","inputs":[{"name":"actorAddress","type":"address","indexed":true,"internalType":"address"},{"name":"isActive","type":"bool","indexed":false,"internalType":"bool"}],"anonymous":false},{"type":"event","name":"AdminTransferAccepted","inputs":[{"name":"newAdmin","type":"address","indexed":true,"internalType":"address"}],"anonymous":false},{"type":"event","name":"AdminTransferProposed","inputs":[{"name":"proposedAdmin","type":"address","indexed":true,"internalType":"address"}],"anonymous":false},{"type":"event","name":"CheckpointRecorded","inputs":[{"name":"checkpointId","type":"uint256","indexed":true,"internalType":"uint256"},{"name":"shipmentId","type":"uint256","indexed":true,"internalType":"uint256"},{"name":"checkpointType","type":"uint8","indexed":false,"internalType":"enum LogisticsTracking.CheckpointType"},{"name":"actor","type":"address","indexed":false,"internalType":"address"}],"anonymous":false},{"type":"event","name":"DeliveryConfirmed","inputs":[{"name":"shipmentId","type":"uint256","indexed":true,"internalType":"uint256"},{"name":"recipient","type":"address","indexed":true,"internalType":"address"},{"name":"timestamp","type":"uint256","indexed":false,"internalType":"uint256"}],"anonymous":false},{"type":"event","name":"IncidentReported","inputs":[{"name":"incidentId","type":"uint256","indexed":true,"internalType":"uint256"},{"name":"shipmentId","type":"uint256","indexed":true,"internalType":"uint256"},{"name":"incidentType","type":"uint8","indexed":false,"internalType":"enum LogisticsTracking.IncidentType"}],"anonymous":false},{"type":"event","name":"IncidentResolved","inputs":[{"name":"incidentId","type":"uint256","indexed":true,"internalType":"uint256"}],"anonymous":false},{"type":"event","name":"ShipmentCreated","inputs":[{"name":"shipmentId","type":"uint256","indexed":true,"internalType":"uint256"},{"name":"sender","type":"address","indexed":true,"internalType":"address"},{"name":"recipient","type":"address","indexed":true,"internalType":"address"},{"name":"product","type":"string","indexed":false,"internalType":"string"}],"anonymous":false},{"type":"event","name":"ShipmentStatusChanged","inputs":[{"name":"shipmentId","type":"uint256","indexed":true,"internalType":"uint256"},{"name":"newStatus","type":"uint8","indexed":false,"internalType":"enum LogisticsTracking.ShipmentStatus"}],"anonymous":false},{"type":"error","name":"ActorDoesNotExist","inputs":[]},{"type":"error","name":"ActorInactive","inputs":[]},{"type":"error","name":"ActorNotAssignedToShipment","inputs":[]},{"type":"error","name":"AlreadyClosedShipment","inputs":[]},{"type":"error","name":"AlreadyDelivered","inputs":[]},{"type":"error","name":"AlreadyRegisteredAndActive","inputs":[]},{"type":"error","name":"CannotCancelAfterTransit","inputs":[]},{"type":"error","name":"CannotSetDeliveredDirectly","inputs":[]},{"type":"error","name":"CheckpointNotFound","inputs":[{"name":"id","type":"uint256","internalType":"uint256"}]},{"type":"error","name":"IncidentNotFound","inputs":[{"name":"id","type":"uint256","internalType":"uint256"}]},{"type":"error","name":"InvalidAddress","inputs":[]},{"type":"error","name":"InvalidRole","inputs":[]},{"type":"error","name":"MaxCheckpointsReached","inputs":[]},{"type":"error","name":"MaxIncidentsReached","inputs":[]},{"type":"error","name":"NotPendingAdmin","inputs":[]},{"type":"error","name":"OnlyAdmin","inputs":[]},{"type":"error","name":"OnlyCarrierOrHub","inputs":[]},{"type":"error","name":"OnlyRecipientCanConfirm","inputs":[]},{"type":"error","name":"OnlySenderCanCancel","inputs":[]},{"type":"error","name":"OnlySendersCanCreate","inputs":[]},{"type":"error","name":"ShipmentNotFound","inputs":[{"name":"id","type":"uint256","internalType":"uint256"}]}],"bytecode":{"object":"0x6080604052600160025560016003556001600455348015601d575f5ffd5b505f80546001600160a01b031916331790556131ce8061003c5f395ff3fe608060405234801561000f575f5ffd5b50600436106101f2575f3560e01c806363f86584116101145780639b4adf4e116100a9578063b9a3a68c11610079578063b9a3a68c14610463578063e570c3671461046b578063f851a4401461047e578063fc43669514610490578063fd84cb97146104a3575f5ffd5b80639b4adf4e14610422578063a54a6ee414610435578063af56a4281461043d578063b7fa3c2a14610450575f5ffd5b80637faa7bc7116100e45780637faa7bc7146103a75780638d70861e146103ba578063925d3478146103cd5780639578615e14610402575f5ffd5b806363f865841461036457806372f2f93a1461036c5780637b8a20e21461038c5780637defa92014610394575f5ffd5b8063267822471161018a578063475b6f981161015a578063475b6f981461030b578063480162241461031e5780634ffe6ae21461033e57806358dcf85e14610351575f5ffd5b806326782247146102ad5780632bf210dc146102d8578063305207b0146102e35780634138d167146102eb575f5ffd5b8063147bf6c4116101c5578063147bf6c41461025257806317082ae01461026557806320fc488114610285578063229ec452146102a5575f5ffd5b8063092b3740146101f65780630a7a0b691461021f5780630e18b681146102405780630fd196681461024a575b5f5ffd5b6102096102043660046127ab565b6104b6565b6040516102169190612852565b60405180910390f35b61023261022d366004612a0f565b6107c4565b604051908152602001610216565b610248610a34565b005b600454610232565b610248610260366004612aaf565b610aa7565b610278610273366004612ac8565b610b1f565b6040516102169190612b93565b6102986102933660046127ab565b610e28565b6040516102169190612bf6565b600354610232565b6001546102c0906001600160a01b031681565b6040516001600160a01b039091168152602001610216565b610232600160ff1b81565b610232603281565b6102fe6102f9366004612aaf565b61101a565b6040516102169190612c18565b610232610319366004612c8e565b6111e6565b61033161032c366004612ac8565b611354565b6040516102169190612db4565b61024861034c3660046127ab565b6115b2565b61024861035f366004612aaf565b61162f565b61023260c881565b61037f61037a366004612aaf565b6116ce565b6040516102169190612e0b565b610232605081565b6102486103a2366004612e4d565b611737565b6102486103b53660046127ab565b61185d565b6102786103c83660046127ab565b6119a8565b6103f26103db3660046127ab565b5f9081526007602052604090206005015460ff1690565b6040519015158152602001610216565b6104156104103660046127ab565b611c36565b6040516102169190612e7e565b6103316104303660046127ab565b611d98565b610232601481565b6103f261044b3660046127ab565b611f84565b61024861045e366004612e90565b61203d565b600254610232565b610232610479366004612f18565b6121f4565b5f546102c0906001600160a01b031681565b61024861049e366004612aaf565b612255565b6102486104b13660046127ab565b6122e5565b6104be6126a4565b5f828152600560209081526040918290208251610180810184528154815260018201546001600160a01b039081169382019390935260028201549092169282019290925260038201805491929160608401919061051a90612f6c565b80601f016020809104026020016040519081016040528092919081815260200182805461054690612f6c565b80156105915780601f1061056857610100808354040283529160200191610591565b820191905f5260205f20905b81548152906001019060200180831161057457829003601f168201915b505050505081526020016004820180546105aa90612f6c565b80601f01602080910402602001604051908101604052809291908181526020018280546105d690612f6c565b80156106215780601f106105f857610100808354040283529160200191610621565b820191905f5260205f20905b81548152906001019060200180831161060457829003601f168201915b5050505050815260200160058201805461063a90612f6c565b80601f016020809104026020016040519081016040528092919081815260200182805461066690612f6c565b80156106b15780601f10610688576101008083540402835291602001916106b1565b820191905f5260205f20905b81548152906001019060200180831161069457829003601f168201915b5050509183525050600682810154602083015260078301546040830152600883015460609092019160ff16908111156106ec576106ec6127f0565b60068111156106fd576106fd6127f0565b81526020016009820180548060200260200160405190810160405280929190818152602001828054801561074e57602002820191905f5260205f20905b81548152602001906001019080831161073a575b50505050508152602001600a82018054806020026020016040519081016040528092919081815260200182805480156107a457602002820191905f5260205f20905b815481526020019060010190808311610790575b5050509183525050600b919091015460ff16151560209091015292915050565b5f6107cd6123ee565b856107d781612422565b335f908152600a602090815260408083208a845290915290205460ff166108115760405163d40c3d2160e01b815260040160405180910390fd5b5f878152600560205260409020600981015460c81161084357604051630794e5cf60e31b815260040160405180910390fd5b600380545f918261085383612fb2565b9190505590506040518061010001604052808281526020018a8152602001336001600160a01b03168152602001898152602001886004811115610898576108986127f0565b81524260208083019190915260408083018a905260609283018990525f85815260068352819020845181559184015160018301558301516002820180546001600160a01b0319166001600160a01b039092169190911790559082015160038201906109039082613021565b506080820151816004015f6101000a81548160ff0219169083600481111561092d5761092d6127f0565b021790555060a0820151600582015560c082015160068201906109509082613021565b5060e091909101516007909101556009820180546001810182555f918252602090912001819055600b82015460ff16801561098f5750600160ff1b8514155b80156109a5575060508513806109a55750601485125b156109ed576109eb8960036040518060400160405280601881526020017f54656d7065726174757265206f7574206f662072616e67650000000000000000815250612455565b505b88817f529e5c9e24a307575814835cf69244181f51bc2ae08b95b8c8459d652a7ee9cf8933604051610a209291906130df565b60405180910390a398975050505050505050565b6001546001600160a01b03163314610a5f5760405163058d9a1b60e01b815260040160405180910390fd5b5f8054336001600160a01b0319918216811783556001805490921690915560405190917f24a7c28d8edc5ccd4ef428ebc1dce34762fe38b7fdcca1f3f20c818f04deb15691a2565b610aaf612603565b6001600160a01b038116610ad65760405163e6c4247b60e01b815260040160405180910390fd5b600180546001600160a01b0319166001600160a01b0383169081179091556040517fd3695f12c05bea129b5971fed99014a4efd003a3a8b45d6952b74fbd31d85d8a905f90a250565b606083610b2b81612422565b5f8581526005602052604090206009018054808610610b7e57604080515f8082526020820190925290610b74565b610b61612720565b815260200190600190039081610b595790505b5093505050610e20565b5f81610b8a8789613104565b11610b9e57610b998688613104565b610ba0565b815b90505f610bad888361311d565b6001600160401b03811115610bc457610bc4612966565b604051908082528060200260200182016040528015610bfd57816020015b610bea612720565b815260200190600190039081610be25790505b509050875b82811015610e195760065f868381548110610c1f57610c1f613130565b905f5260205f20015481526020019081526020015f20604051806101000160405290815f820154815260200160018201548152602001600282015f9054906101000a90046001600160a01b03166001600160a01b03166001600160a01b03168152602001600382018054610c9290612f6c565b80601f0160208091040260200160405190810160405280929190818152602001828054610cbe90612f6c565b8015610d095780601f10610ce057610100808354040283529160200191610d09565b820191905f5260205f20905b815481529060010190602001808311610cec57829003601f168201915b505050918352505060048281015460209092019160ff1690811115610d3057610d306127f0565b6004811115610d4157610d416127f0565b815260200160058201548152602001600682018054610d5f90612f6c565b80601f0160208091040260200160405190810160405280929190818152602001828054610d8b90612f6c565b8015610dd65780601f10610dad57610100808354040283529160200191610dd6565b820191905f5260205f20905b815481529060010190602001808311610db957829003601f168201915b50505050508152602001600782015481525050828a83610df6919061311d565b81518110610e0657610e06613130565b6020908102919091010152600101610c02565b5094505050505b509392505050565b610e30612720565b811580610e3f57506003548210155b15610e655760405163115e4e5560e11b8152600481018390526024015b60405180910390fd5b5f828152600660209081526040918290208251610100810184528154815260018201549281019290925260028101546001600160a01b031692820192909252600382018054919291606084019190610ebc90612f6c565b80601f0160208091040260200160405190810160405280929190818152602001828054610ee890612f6c565b8015610f335780601f10610f0a57610100808354040283529160200191610f33565b820191905f5260205f20905b815481529060010190602001808311610f1657829003601f168201915b505050918352505060048281015460209092019160ff1690811115610f5a57610f5a6127f0565b6004811115610f6b57610f6b6127f0565b815260200160058201548152602001600682018054610f8990612f6c565b80601f0160208091040260200160405190810160405280929190818152602001828054610fb590612f6c565b80156110005780601f10610fd757610100808354040283529160200191611000565b820191905f5260205f20905b815481529060010190602001808311610fe357829003601f168201915b505050505081526020016007820154815250509050919050565b61104a6040805160a0810182525f8082526060602083015290918201908152606060208201525f60409091015290565b6001600160a01b038083165f90815260086020908152604091829020825160a08101909352805490931682526001830180549293929184019161108c90612f6c565b80601f01602080910402602001604051908101604052809291908181526020018280546110b890612f6c565b80156111035780601f106110da57610100808354040283529160200191611103565b820191905f5260205f20905b8154815290600101906020018083116110e657829003601f168201915b5050509183525050600282015460209091019060ff16600581111561112a5761112a6127f0565b600581111561113b5761113b6127f0565b815260200160038201805461114f90612f6c565b80601f016020809104026020016040519081016040528092919081815260200182805461117b90612f6c565b80156111c65780601f1061119d576101008083540402835291602001916111c6565b820191905f5260205f20905b8154815290600101906020018083116111a957829003601f168201915b50505091835250506004919091015460ff16151560209091015292915050565b5f6111ef6123ee565b6001335f9081526008602052604090206002015460ff166005811115611217576112176127f0565b146112355760405163f5b4341560e01b815260040160405180910390fd5b600280545f918261124583612fb2565b909155505f818152600560205260409020818155600181018054336001600160a01b0319918216179091556002820180549091166001600160a01b038b16179055909150600381016112978882613021565b50600481016112a68782613021565b50600581016112b58682613021565b5042600682015560088101805460ff19908116909155600b820180549091168515151790556112e4338361262d565b6001600160a01b038816156112fd576112fd888361262d565b876001600160a01b0316336001600160a01b0316837f8fb6b855d6cbdf201f2fcaadbf8c38d36168ff7d2ca865cb2599abcd5a060e8f8a6040516113419190613144565b60405180910390a4509695505050505050565b60608361136081612422565b5f858152600560205260409020600a0180548086106113b257604080515f8082526020820190925290610b74565b611396612761565b81526020019060019003908161138e5790505093505050610e20565b5f816113be8789613104565b116113d2576113cd8688613104565b6113d4565b815b90505f6113e1888361311d565b6001600160401b038111156113f8576113f8612966565b60405190808252806020026020018201604052801561143157816020015b61141e612761565b8152602001906001900390816114165790505b509050875b82811015610e195760075f86838154811061145357611453613130565b905f5260205f20015481526020019081526020015f206040518060e00160405290815f820154815260200160018201548152602001600282015f9054906101000a900460ff1660048111156114aa576114aa6127f0565b60048111156114bb576114bb6127f0565b8152600282015461010090046001600160a01b031660208201526003820180546040909201916114ea90612f6c565b80601f016020809104026020016040519081016040528092919081815260200182805461151690612f6c565b80156115615780601f1061153857610100808354040283529160200191611561565b820191905f5260205f20905b81548152906001019060200180831161154457829003601f168201915b50505091835250506004820154602082015260059091015460ff1615156040909101528261158f8b8461311d565b8151811061159f5761159f613130565b6020908102919091010152600101611436565b6115ba612603565b8015806115c957506004548110155b156115ea57604051630ae30d3b60e41b815260048101829052602401610e5c565b5f81815260076020526040808220600501805460ff191660011790555182917ff83ae0ade2d9004bc0030405bdd3336f9d9b97530bcf44cce99ce02c95641b7791a250565b611637612603565b6001600160a01b038181165f908152600860205260409020541661166e57604051636f46a36560e01b815260040160405180910390fd5b6001600160a01b0381165f81815260086020908152604091829020600401805460ff1916600190811790915591519182527f7d434f3bffe7db5f776c1c2b3b22e492788bdfbd071e9aa176f096970ea8893391015b60405180910390a250565b6001600160a01b0381165f9081526009602090815260409182902080548351818402810184019094528084526060939283018282801561172b57602002820191905f5260205f20905b815481526020019060010190808311611717575b50505050509050919050565b61173f6123ee565b8161174981612422565b335f90815260086020526040902060029081015460ff1690816005811115611773576117736127f0565b1415801561179357506003816005811115611790576117906127f0565b14155b156117b15760405163ef92a56b60e01b815260040160405180910390fd5b60048360068111156117c5576117c56127f0565b036117e357604051639e96bb6960e01b815260040160405180910390fd5b5f848152600560205260409020600801805484919060ff19166001836006811115611810576118106127f0565b021790555061181f338561262d565b837f7c1c93f72f29b8a1fc6fc85eed990d133b1ffac80c962b521abb12f38f2ff9af8460405161184f9190613156565b60405180910390a250505050565b8061186781612422565b5f82815260056020526040902060018101546001600160a01b031633146118a157604051631fbbf51f60e11b815260040160405180910390fd5b600881015460ff1660048160068111156118bd576118bd6127f0565b14806118da575060058160068111156118d8576118d86127f0565b145b806118f6575060068160068111156118f4576118f46127f0565b145b15611914576040516308b167a560e41b815260040160405180910390fd5b5f816006811115611927576119276127f0565b1415801561194757506002816006811115611944576119446127f0565b14155b1561196557604051632e1b06c760e21b815260040160405180910390fd5b60088201805460ff1916600690811790915560405185917f7c1c93f72f29b8a1fc6fc85eed990d133b1ffac80c962b521abb12f38f2ff9af9161184f9190613156565b6060816119b481612422565b5f83815260056020526040812060090180549091906001600160401b038111156119e0576119e0612966565b604051908082528060200260200182016040528015611a1957816020015b611a06612720565b8152602001906001900390816119fe5790505b5090505f5b8254811015611c2b5760065f848381548110611a3c57611a3c613130565b905f5260205f20015481526020019081526020015f20604051806101000160405290815f820154815260200160018201548152602001600282015f9054906101000a90046001600160a01b03166001600160a01b03166001600160a01b03168152602001600382018054611aaf90612f6c565b80601f0160208091040260200160405190810160405280929190818152602001828054611adb90612f6c565b8015611b265780601f10611afd57610100808354040283529160200191611b26565b820191905f5260205f20905b815481529060010190602001808311611b0957829003601f168201915b505050918352505060048281015460209092019160ff1690811115611b4d57611b4d6127f0565b6004811115611b5e57611b5e6127f0565b815260200160058201548152602001600682018054611b7c90612f6c565b80601f0160208091040260200160405190810160405280929190818152602001828054611ba890612f6c565b8015611bf35780601f10611bca57610100808354040283529160200191611bf3565b820191905f5260205f20905b815481529060010190602001808311611bd657829003601f168201915b50505050508152602001600782015481525050828281518110611c1857611c18613130565b6020908102919091010152600101611a1e565b509250505b50919050565b611c3e612761565b811580611c4d57506004548210155b15611c6e57604051630ae30d3b60e41b815260048101839052602401610e5c565b5f82815260076020908152604091829020825160e081018452815481526001820154928101929092526002810154919290919083019060ff166004811115611cb857611cb86127f0565b6004811115611cc957611cc96127f0565b8152600282015461010090046001600160a01b03166020820152600382018054604090920191611cf890612f6c565b80601f0160208091040260200160405190810160405280929190818152602001828054611d2490612f6c565b8015611d6f5780601f10611d4657610100808354040283529160200191611d6f565b820191905f5260205f20905b815481529060010190602001808311611d5257829003601f168201915b50505091835250506004820154602082015260059091015460ff16151560409091015292915050565b606081611da481612422565b5f838152600560205260408120600a0180549091906001600160401b03811115611dd057611dd0612966565b604051908082528060200260200182016040528015611e0957816020015b611df6612761565b815260200190600190039081611dee5790505b5090505f5b8254811015611c2b5760075f848381548110611e2c57611e2c613130565b905f5260205f20015481526020019081526020015f206040518060e00160405290815f820154815260200160018201548152602001600282015f9054906101000a900460ff166004811115611e8357611e836127f0565b6004811115611e9457611e946127f0565b8152600282015461010090046001600160a01b03166020820152600382018054604090920191611ec390612f6c565b80601f0160208091040260200160405190810160405280929190818152602001828054611eef90612f6c565b8015611f3a5780601f10611f1157610100808354040283529160200191611f3a565b820191905f5260205f20905b815481529060010190602001808311611f1d57829003601f168201915b50505091835250506004820154602082015260059091015460ff1615156040909101528251839083908110611f7157611f71613130565b6020908102919091010152600101611e0e565b5f81611f8f81612422565b5f838152600560205260409020600b81015460ff16611fb2576001925050611c30565b60098101545f5b81811015612031575f60065f856009018481548110611fda57611fda613130565b905f5260205f20015481526020019081526020015f20600701549050600160ff1b81036120075750612029565b60508113806120165750601481125b15612027575f955050505050611c30565b505b600101611fb9565b50600195945050505050565b612045612603565b6001600160a01b03811661206c5760405163e6c4247b60e01b815260040160405180910390fd5b6001600160a01b0381165f9081526008602052604090206004015460ff16156120a857604051631f289d9f60e21b815260040160405180910390fd5b5f8360058111156120bb576120bb6127f0565b036120d957604051636caa20b560e11b815260040160405180910390fd5b6040518060a00160405280826001600160a01b0316815260200185815260200184600581111561210b5761210b6127f0565b81526020808201859052600160409283018190526001600160a01b038581165f9081526008845293909320845181546001600160a01b0319169416939093178355908301519082019061215e9082613021565b50604082015160028201805460ff19166001836005811115612182576121826127f0565b02179055506060820151600382019061219b9082613021565b50608091909101516004909101805460ff19169115159190911790556040516001600160a01b038216907fc9a31de765abe70445345802bee3c96554ca063ab257e3888d498accb859fabc9061184f9087908790613164565b5f6121fd6123ee565b8361220781612422565b335f908152600a6020908152604080832088845290915290205460ff166122415760405163d40c3d2160e01b815260040160405180910390fd5b61224c858585612455565b95945050505050565b61225d612603565b6001600160a01b038181165f908152600860205260409020541661229457604051636f46a36560e01b815260040160405180910390fd5b6001600160a01b0381165f818152600860209081526040808320600401805460ff19169055519182527f7d434f3bffe7db5f776c1c2b3b22e492788bdfbd071e9aa176f096970ea8893391016116c3565b806122ef81612422565b5f82815260056020526040902060028101546001600160a01b03163314612328576040516201ec0960e61b815260040160405180910390fd5b6004600882015460ff166006811115612343576123436127f0565b036123615760405163b9f7965360e01b815260040160405180910390fd5b60088101805460ff1916600490811790915542600783015560405184917f7c1c93f72f29b8a1fc6fc85eed990d133b1ffac80c962b521abb12f38f2ff9af916123aa9190613156565b60405180910390a2604051428152339084907f2f4a952729db32131cb3d658cc231127e0ce7e50f83508ece9a49c985f2384d09060200160405180910390a3505050565b335f9081526008602052604090206004015460ff1661242057604051632a718ceb60e01b815260040160405180910390fd5b565b80158061243157506002548110155b1561245257604051632139528960e21b815260048101829052602401610e5c565b50565b5f838152600560205260408120600a8101546032116124875760405163336de9db60e21b815260040160405180910390fd5b600480545f918261249783612fb2565b9190505590506040518060e001604052808281526020018781526020018660048111156124c6576124c66127f0565b8152602001336001600160a01b031681526020018581526020014281526020015f151581525060075f8381526020019081526020015f205f820151815f0155602082015181600101556040820151816002015f6101000a81548160ff02191690836004811115612538576125386127f0565b021790555060608201516002820180546001600160a01b0390921661010002610100600160a81b03199092169190911790556080820151600382019061257e9082613021565b5060a0820151600482015560c0909101516005909101805460ff1916911515919091179055600a820180546001810182555f918252602090912001819055604051869082907fc2c9d0fa5caecea68b9ec6aca764014b01764f779d8a510f0d0d6796b76b7c83906125f0908990613185565b60405180910390a39150505b9392505050565b5f546001600160a01b0316331461242057604051634755657960e01b815260040160405180910390fd5b6001600160a01b0382165f908152600a6020908152604080832084845290915290205460ff166126a0576001600160a01b0382165f818152600a602090815260408083208584528252808320805460ff191660019081179091559383526009825282208054938401815582529020018190555b5050565b6040518061018001604052805f81526020015f6001600160a01b031681526020015f6001600160a01b031681526020016060815260200160608152602001606081526020015f81526020015f81526020015f6006811115612707576127076127f0565b8152606060208201819052604082018190525f91015290565b60408051610100810182525f8082526020820181905291810182905260608082015290608082019081526020015f8152602001606081526020015f81525090565b6040518060e001604052805f81526020015f81526020015f600481111561278a5761278a6127f0565b81525f60208201819052606060408301819052820181905260809091015290565b5f602082840312156127bb575f5ffd5b5035919050565b5f81518084528060208401602086015e5f602082860101526020601f19601f83011685010191505092915050565b634e487b7160e01b5f52602160045260245ffd5b60078110612814576128146127f0565b9052565b5f8151808452602084019350602083015f5b8281101561284857815186526020958601959091019060010161282a565b5093949350505050565b60208152815160208201525f602083015161287860408401826001600160a01b03169052565b5060408301516001600160a01b038116606084015250606083015161018060808401526128a96101a08401826127c2565b90506080840151601f198483030160a08501526128c682826127c2565b91505060a0840151601f198483030160c08501526128e482826127c2565b91505060c084015160e084015260e0840151610100840152610100840151612910610120850182612804565b50610120840151838203601f190161014085015261292e8282612818565b915050610140840151601f198483030161016085015261294e8282612818565b915050610160840151610e2061018085018215159052565b634e487b7160e01b5f52604160045260245ffd5b5f82601f830112612989575f5ffd5b81356001600160401b038111156129a2576129a2612966565b604051601f8201601f19908116603f011681016001600160401b03811182821017156129d0576129d0612966565b6040528181528382016020018510156129e7575f5ffd5b816020850160208301375f918101602001919091529392505050565b60058110612452575f5ffd5b5f5f5f5f5f60a08688031215612a23575f5ffd5b8535945060208601356001600160401b03811115612a3f575f5ffd5b612a4b8882890161297a565b9450506040860135612a5c81612a03565b925060608601356001600160401b03811115612a76575f5ffd5b612a828882890161297a565b95989497509295608001359392505050565b80356001600160a01b0381168114612aaa575f5ffd5b919050565b5f60208284031215612abf575f5ffd5b6125fc82612a94565b5f5f5f60608486031215612ada575f5ffd5b505081359360208301359350604090920135919050565b60058110612452576124526127f0565b61281481612af1565b805182526020810151602083015260018060a01b0360408201511660408301525f60608201516101006060850152612b466101008501826127c2565b90506080830151612b5a6080860182612b01565b5060a083015160a085015260c083015184820360c0860152612b7c82826127c2565b91505060e083015160e08501528091505092915050565b5f602082016020835280845180835260408501915060408160051b8601019250602086015f5b82811015612bea57603f19878603018452612bd5858351612b0a565b94506020938401939190910190600101612bb9565b50929695505050505050565b602081525f6125fc6020830184612b0a565b60068110612814576128146127f0565b602080825282516001600160a01b03168282015282015160a060408301525f90612c4560c08401826127c2565b90506040840151612c596060850182612c08565b506060840151838203601f19016080850152612c7582826127c2565b9150506080840151151560a08401528091505092915050565b5f5f5f5f5f60a08688031215612ca2575f5ffd5b612cab86612a94565b945060208601356001600160401b03811115612cc5575f5ffd5b612cd18882890161297a565b94505060408601356001600160401b03811115612cec575f5ffd5b612cf88882890161297a565b93505060608601356001600160401b03811115612d13575f5ffd5b612d1f8882890161297a565b92505060808601358015158114612d34575f5ffd5b809150509295509295909350565b80518252602081015160208301525f6040820151612d5f81612af1565b60408401526060828101516001600160a01b03169084015260808083015160e091850182905290612d92908501826127c2565b905060a083015160a085015260c0830151151560c08501528091505092915050565b5f602082016020835280845180835260408501915060408160051b8601019250602086015f5b82811015612bea57603f19878603018452612df6858351612d42565b94506020938401939190910190600101612dda565b602080825282518282018190525f918401906040840190835b81811015612e42578351835260209384019390920191600101612e24565b509095945050505050565b5f5f60408385031215612e5e575f5ffd5b82359150602083013560078110612e73575f5ffd5b809150509250929050565b602081525f6125fc6020830184612d42565b5f5f5f5f60808587031215612ea3575f5ffd5b84356001600160401b03811115612eb8575f5ffd5b612ec48782880161297a565b945050602085013560068110612ed8575f5ffd5b925060408501356001600160401b03811115612ef2575f5ffd5b612efe8782880161297a565b925050612f0d60608601612a94565b905092959194509250565b5f5f5f60608486031215612f2a575f5ffd5b833592506020840135612f3c81612a03565b915060408401356001600160401b03811115612f56575f5ffd5b612f628682870161297a565b9150509250925092565b600181811c90821680612f8057607f821691505b602082108103611c3057634e487b7160e01b5f52602260045260245ffd5b634e487b7160e01b5f52601160045260245ffd5b5f60018201612fc357612fc3612f9e565b5060010190565b601f82111561301c578282111561301c57805f5260205f20601f840160051c6020851015612ff557505f5b90810190601f840160051c035f5b81811015613018575f83820155600101613003565b5050505b505050565b81516001600160401b0381111561303a5761303a612966565b61304e816130488454612f6c565b84612fca565b6020601f821160018114613080575f83156130695750848201515b5f19600385901b1c1916600184901b1784556130d8565b5f84815260208120601f198516915b828110156130af578785015182556020948501946001909201910161308f565b50848210156130cc57868401515f19600387901b60f8161c191681555b505060018360011b0184555b5050505050565b604081016130ec84612af1565b9281526001600160a01b039190911660209091015290565b8082018082111561311757613117612f9e565b92915050565b8181038181111561311757613117612f9e565b634e487b7160e01b5f52603260045260245ffd5b602081525f6125fc60208301846127c2565b602081016131178284612804565b604081525f61317660408301856127c2565b90506125fc6020830184612c08565b6020810161319283612af1565b9190529056fea2646970667358221220f523398dd08ed602cdbd02214272a4765c945f546347ac8fd10ce5a43006dee464736f6c63430008210033","linkReferences":{}},"methodIdentifiers":{"COLD_CHAIN_TEMP_MAX()":"7b8a20e2","COLD_CHAIN_TEMP_MIN()":"a54a6ee4","MAX_CHECKPOINTS_PER_SHIPMENT()":"63f86584","MAX_INCIDENTS_PER_SHIPMENT()":"305207b0","TEMPERATURE_NOT_SET()":"2bf210dc","acceptAdmin()":"0e18b681","admin()":"f851a440","cancelShipment(uint256)":"7faa7bc7","confirmDelivery(uint256)":"fd84cb97","createShipment(address,string,string,string,bool)":"475b6f98","deactivateActor(address)":"fc436695","getActor(address)":"4138d167","getActorShipments(address)":"72f2f93a","getAllShipmentCheckpoints(uint256)":"8d70861e","getAllShipmentIncidents(uint256)":"9b4adf4e","getCheckpoint(uint256)":"20fc4881","getIncident(uint256)":"9578615e","getShipment(uint256)":"092b3740","getShipmentCheckpoints(uint256,uint256,uint256)":"17082ae0","getShipmentIncidents(uint256,uint256,uint256)":"48016224","isIncidentResolved(uint256)":"925d3478","nextCheckpointId()":"229ec452","nextIncidentId()":"0fd19668","nextShipmentId()":"b9a3a68c","pendingAdmin()":"26782247","proposeAdmin(address)":"147bf6c4","reactivateActor(address)":"58dcf85e","recordCheckpoint(uint256,string,uint8,string,int256)":"0a7a0b69","registerActor(string,uint8,string,address)":"b7fa3c2a","reportIncident(uint256,uint8,string)":"e570c367","resolveIncident(uint256)":"4ffe6ae2","updateShipmentStatus(uint256,uint8)":"7defa920","verifyTemperatureCompliance(uint256)":"af56a428"},"id":16}