{
	"data": {
		"bytecode": {
			"linkReferences": {},
			"object": "6080604052600160025560016003556001600455348015601d575f5ffd5b50335f5f6101000a81548173ffffffffffffffffffffffffffffffffffffffff021916908373ffffffffffffffffffffffffffffffffffffffff1602179055506150098061006a5f395ff3fe608060405234801561000f575f5ffd5b50600436106101f9575f3560e01c806363f86584116101185780639b4adf4e116100ab578063b9a3a68c1161007a578063b9a3a68c1461060f578063e570c3671461062d578063f851a4401461065d578063fc4366951461067b578063fd84cb9714610697576101f9565b80639b4adf4e14610575578063a54a6ee4146105a5578063af56a428146105c3578063b7fa3c2a146105f3576101f9565b80637faa7bc7116100e75780637faa7bc7146104c95780638d70861e146104e5578063925d3478146105155780639578615e14610545576101f9565b806363f865841461044157806372f2f93a1461045f5780637b8a20e21461048f5780637defa920146104ad576101f9565b80632678224711610190578063475b6f981161015f578063475b6f98146103a957806348016224146103d95780634ffe6ae21461040957806358dcf85e14610425576101f9565b8063267822471461031f5780632bf210dc1461033d578063305207b01461035b5780634138d16714610379576101f9565b8063147bf6c4116101cc578063147bf6c41461028557806317082ae0146102a157806320fc4881146102d1578063229ec45214610301576101f9565b8063092b3740146101fd5780630a7a0b691461022d5780630e18b6811461025d5780630fd1966814610267575b5f5ffd5b61021760048036038101906102129190613ac9565b6106b3565b6040516102249190613e04565b60405180910390f35b61024760048036038101906102429190613fa6565b610a56565b6040516102549190614064565b60405180910390f35b610265610db1565b005b61026f610efb565b60405161027c9190614064565b60405180910390f35b61029f600480360381019061029a91906140a7565b610f04565b005b6102bb60048036038101906102b691906140d2565b610ff7565b6040516102c891906142e6565b60405180910390f35b6102eb60048036038101906102e69190613ac9565b611372565b6040516102f891906143ba565b60405180910390f35b6103096115c6565b6040516103169190614064565b60405180910390f35b6103276115cf565b60405161033491906143e9565b60405180910390f35b6103456115f4565b6040516103529190614411565b60405180910390f35b610363611618565b6040516103709190614064565b60405180910390f35b610393600480360381019061038e91906140a7565b61161d565b6040516103a091906144ea565b60405180910390f35b6103c360048036038101906103be9190614534565b61183c565b6040516103d09190614064565b60405180910390f35b6103f360048036038101906103ee91906140d2565b611ae9565b6040516104009190614799565b60405180910390f35b610423600480360381019061041e9190613ac9565b611de4565b005b61043f600480360381019061043a91906140a7565b611e9a565b005b61044961200f565b6040516104569190614064565b60405180910390f35b610479600480360381019061047491906140a7565b612014565b6040516104869190614825565b60405180910390f35b6104976120a7565b6040516104a49190614411565b60405180910390f35b6104c760048036038101906104c29190614868565b6120ac565b005b6104e360048036038101906104de9190613ac9565b612280565b005b6104ff60048036038101906104fa9190613ac9565b6124f1565b60405161050c91906142e6565b60405180910390f35b61052f600480360381019061052a9190613ac9565b6127c5565b60405161053c91906148b5565b60405180910390f35b61055f600480360381019061055a9190613ac9565b6127ee565b60405161056c9190614967565b60405180910390f35b61058f600480360381019061058a9190613ac9565b6129c2565b60405161059c9190614799565b60405180910390f35b6105ad612c16565b6040516105ba9190614411565b60405180910390f35b6105dd60048036038101906105d89190613ac9565b612c1b565b6040516105ea91906148b5565b60405180910390f35b61060d600480360381019061060891906149aa565b612d11565b005b610617613005565b6040516106249190614064565b60405180910390f35b61064760048036038101906106429190614a69565b61300e565b6040516106549190614064565b60405180910390f35b6106656130c5565b60405161067291906143e9565b60405180910390f35b610695600480360381019061069091906140a7565b6130e9565b005b6106b160048036038101906106ac9190613ac9565b61325c565b005b6106bb6138cd565b60055f8381526020019081526020015f20604051806101800160405290815f8201548152602001600182015f9054906101000a900473ffffffffffffffffffffffffffffffffffffffff1673ffffffffffffffffffffffffffffffffffffffff1673ffffffffffffffffffffffffffffffffffffffff168152602001600282015f9054906101000a900473ffffffffffffffffffffffffffffffffffffffff1673ffffffffffffffffffffffffffffffffffffffff1673ffffffffffffffffffffffffffffffffffffffff16815260200160038201805461079b90614b02565b80601f01602080910402602001604051908101604052809291908181526020018280546107c790614b02565b80156108125780601f106107e957610100808354040283529160200191610812565b820191905f5260205f20905b8154815290600101906020018083116107f557829003601f168201915b5050505050815260200160048201805461082b90614b02565b80601f016020809104026020016040519081016040528092919081815260200182805461085790614b02565b80156108a25780601f10610879576101008083540402835291602001916108a2565b820191905f5260205f20905b81548152906001019060200180831161088557829003601f168201915b505050505081526020016005820180546108bb90614b02565b80601f01602080910402602001604051908101604052809291908181526020018280546108e790614b02565b80156109325780601f1061090957610100808354040283529160200191610932565b820191905f5260205f20905b81548152906001019060200180831161091557829003601f168201915b505050505081526020016006820154815260200160078201548152602001600882015f9054906101000a900460ff16600681111561097357610972613bb2565b5b600681111561098557610984613bb2565b5b8152602001600982018054806020026020016040519081016040528092919081815260200182805480156109d657602002820191905f5260205f20905b8154815260200190600101908083116109c2575b50505050508152602001600a8201805480602002602001604051908101604052809291908181526020018280548015610a2c57602002820191905f5260205f20905b815481526020019060010190808311610a18575b50505050508152602001600b82015f9054906101000a900460ff1615151515815250509050919050565b5f610a5f613431565b85610a69816134b6565b600a5f3373ffffffffffffffffffffffffffffffffffffffff1673ffffffffffffffffffffffffffffffffffffffff1681526020019081526020015f205f8881526020019081526020015f205f9054906101000a900460ff16610af8576040517fd40c3d2100000000000000000000000000000000000000000000000000000000815260040160405180910390fd5b5f60055f8981526020019081526020015f20905060c8816009018054905010610b4d576040517f3ca72e7800000000000000000000000000000000000000000000000000000000815260040160405180910390fd5b5f60035f815480929190610b6090614b5f565b9190505590506040518061010001604052808281526020018a81526020013373ffffffffffffffffffffffffffffffffffffffff168152602001898152602001886004811115610bb357610bb2613bb2565b5b81526020014281526020018781526020018681525060065f8381526020019081526020015f205f820151815f0155602082015181600101556040820151816002015f6101000a81548173ffffffffffffffffffffffffffffffffffffffff021916908373ffffffffffffffffffffffffffffffffffffffff1602179055506060820151816003019081610c469190614d46565b506080820151816004015f6101000a81548160ff02191690836004811115610c7157610c70613bb2565b5b021790555060a0820151816005015560c0820151816006019081610c959190614d46565b5060e082015181600701559050508160090181908060018154018082558091505060019003905f5260205f20015f909190919091505581600b015f9054906101000a900460ff168015610d0857507f80000000000000000000000000000000000000000000000000000000000000008514155b8015610d1f57506050851380610d1e5750601485125b5b15610d6757610d658960036040518060400160405280601881526020017f54656d7065726174757265206f7574206f662072616e6765000000000000000081525061350b565b505b88817f529e5c9e24a307575814835cf69244181f51bc2ae08b95b8c8459d652a7ee9cf8933604051610d9a929190614e24565b60405180910390a380935050505095945050505050565b60015f9054906101000a900473ffffffffffffffffffffffffffffffffffffffff1673ffffffffffffffffffffffffffffffffffffffff163373ffffffffffffffffffffffffffffffffffffffff1614610e37576040517f058d9a1b00000000000000000000000000000000000000000000000000000000815260040160405180910390fd5b335f5f6101000a81548173ffffffffffffffffffffffffffffffffffffffff021916908373ffffffffffffffffffffffffffffffffffffffff1602179055505f60015f6101000a81548173ffffffffffffffffffffffffffffffffffffffff021916908373ffffffffffffffffffffffffffffffffffffffff1602179055503373ffffffffffffffffffffffffffffffffffffffff167f24a7c28d8edc5ccd4ef428ebc1dce34762fe38b7fdcca1f3f20c818f04deb15660405160405180910390a2565b5f600454905090565b610f0c61371f565b5f73ffffffffffffffffffffffffffffffffffffffff168173ffffffffffffffffffffffffffffffffffffffff1603610f71576040517fe6c4247b00000000000000000000000000000000000000000000000000000000815260040160405180910390fd5b8060015f6101000a81548173ffffffffffffffffffffffffffffffffffffffff021916908373ffffffffffffffffffffffffffffffffffffffff1602179055508073ffffffffffffffffffffffffffffffffffffffff167fd3695f12c05bea129b5971fed99014a4efd003a3a8b45d6952b74fbd31d85d8a60405160405180910390a250565b606083611003816134b6565b5f60055f8781526020019081526020015f2060090190505f81805490509050808610611086575f67ffffffffffffffff81111561104357611042613e2c565b5b60405190808252806020026020018201604052801561107c57816020015b611069613967565b8152602001906001900390816110615790505b509350505061136a565b5f8186886110949190614e4b565b116110aa5785876110a59190614e4b565b6110ac565b815b90505f87826110bb9190614e7e565b67ffffffffffffffff8111156110d4576110d3613e2c565b5b60405190808252806020026020018201604052801561110d57816020015b6110fa613967565b8152602001906001900390816110f25790505b5090505f8890505b828110156113615760065f86838154811061113357611132614eb1565b5b905f5260205f20015481526020019081526020015f20604051806101000160405290815f820154815260200160018201548152602001600282015f9054906101000a900473ffffffffffffffffffffffffffffffffffffffff1673ffffffffffffffffffffffffffffffffffffffff1673ffffffffffffffffffffffffffffffffffffffff1681526020016003820180546111cd90614b02565b80601f01602080910402602001604051908101604052809291908181526020018280546111f990614b02565b80156112445780601f1061121b57610100808354040283529160200191611244565b820191905f5260205f20905b81548152906001019060200180831161122757829003601f168201915b50505050508152602001600482015f9054906101000a900460ff16600481111561127157611270613bb2565b5b600481111561128357611282613bb2565b5b8152602001600582015481526020016006820180546112a190614b02565b80601f01602080910402602001604051908101604052809291908181526020018280546112cd90614b02565b80156113185780601f106112ef57610100808354040283529160200191611318565b820191905f5260205f20905b8154815290600101906020018083116112fb57829003601f168201915b50505050508152602001600782015481525050828a836113389190614e7e565b8151811061134957611348614eb1565b5b60200260200101819052508080600101915050611115565b50809550505050505b509392505050565b61137a613967565b5f82148061138a57506003548210155b156113cc57816040517f22bc9caa0000000000000000000000000000000000000000000000000000000081526004016113c39190614064565b60405180910390fd5b60065f8381526020019081526020015f20604051806101000160405290815f820154815260200160018201548152602001600282015f9054906101000a900473ffffffffffffffffffffffffffffffffffffffff1673ffffffffffffffffffffffffffffffffffffffff1673ffffffffffffffffffffffffffffffffffffffff16815260200160038201805461146190614b02565b80601f016020809104026020016040519081016040528092919081815260200182805461148d90614b02565b80156114d85780601f106114af576101008083540402835291602001916114d8565b820191905f5260205f20905b8154815290600101906020018083116114bb57829003601f168201915b50505050508152602001600482015f9054906101000a900460ff16600481111561150557611504613bb2565b5b600481111561151757611516613bb2565b5b81526020016005820154815260200160068201805461153590614b02565b80601f016020809104026020016040519081016040528092919081815260200182805461156190614b02565b80156115ac5780601f10611583576101008083540402835291602001916115ac565b820191905f5260205f20905b81548152906001019060200180831161158f57829003601f168201915b505050505081526020016007820154815250509050919050565b5f600354905090565b60015f9054906101000a900473ffffffffffffffffffffffffffffffffffffffff1681565b7f800000000000000000000000000000000000000000000000000000000000000081565b603281565b6116256139ce565b60085f8373ffffffffffffffffffffffffffffffffffffffff1673ffffffffffffffffffffffffffffffffffffffff1681526020019081526020015f206040518060a00160405290815f82015f9054906101000a900473ffffffffffffffffffffffffffffffffffffffff1673ffffffffffffffffffffffffffffffffffffffff1673ffffffffffffffffffffffffffffffffffffffff1681526020016001820180546116d190614b02565b80601f01602080910402602001604051908101604052809291908181526020018280546116fd90614b02565b80156117485780601f1061171f57610100808354040283529160200191611748565b820191905f5260205f20905b81548152906001019060200180831161172b57829003601f168201915b50505050508152602001600282015f9054906101000a900460ff16600581111561177557611774613bb2565b5b600581111561178757611786613bb2565b5b815260200160038201805461179b90614b02565b80601f01602080910402602001604051908101604052809291908181526020018280546117c790614b02565b80156118125780601f106117e957610100808354040283529160200191611812565b820191905f5260205f20905b8154815290600101906020018083116117f557829003601f168201915b50505050508152602001600482015f9054906101000a900460ff1615151515815250509050919050565b5f611845613431565b6001600581111561185957611858613bb2565b5b60085f3373ffffffffffffffffffffffffffffffffffffffff1673ffffffffffffffffffffffffffffffffffffffff1681526020019081526020015f206002015f9054906101000a900460ff1660058111156118b8576118b7613bb2565b5b146118ef576040517ff5b4341500000000000000000000000000000000000000000000000000000000815260040160405180910390fd5b5f60025f81548092919061190290614b5f565b9190505590505f60055f8381526020019081526020015f20905081815f018190555033816001015f6101000a81548173ffffffffffffffffffffffffffffffffffffffff021916908373ffffffffffffffffffffffffffffffffffffffff16021790555087816002015f6101000a81548173ffffffffffffffffffffffffffffffffffffffff021916908373ffffffffffffffffffffffffffffffffffffffff160217905550868160030190816119b99190614d46565b50858160040190816119cb9190614d46565b50848160050190816119dd9190614d46565b504281600601819055505f816008015f6101000a81548160ff02191690836006811115611a0d57611a0c613bb2565b5b02179055508381600b015f6101000a81548160ff021916908315150217905550611a3733836137a6565b5f73ffffffffffffffffffffffffffffffffffffffff168873ffffffffffffffffffffffffffffffffffffffff1614611a7557611a7488836137a6565b5b8773ffffffffffffffffffffffffffffffffffffffff163373ffffffffffffffffffffffffffffffffffffffff16837f8fb6b855d6cbdf201f2fcaadbf8c38d36168ff7d2ca865cb2599abcd5a060e8f8a604051611ad39190614f26565b60405180910390a4819250505095945050505050565b606083611af5816134b6565b5f60055f8781526020019081526020015f20600a0190505f81805490509050808610611b78575f67ffffffffffffffff811115611b3557611b34613e2c565b5b604051908082528060200260200182016040528015611b6e57816020015b611b5b613a24565b815260200190600190039081611b535790505b5093505050611ddc565b5f818688611b869190614e4b565b11611b9c578587611b979190614e4b565b611b9e565b815b90505f8782611bad9190614e7e565b67ffffffffffffffff811115611bc657611bc5613e2c565b5b604051908082528060200260200182016040528015611bff57816020015b611bec613a24565b815260200190600190039081611be45790505b5090505f8890505b82811015611dd35760075f868381548110611c2557611c24614eb1565b5b905f5260205f20015481526020019081526020015f206040518060e00160405290815f820154815260200160018201548152602001600282015f9054906101000a900460ff166004811115611c7d57611c7c613bb2565b5b6004811115611c8f57611c8e613bb2565b5b81526020016002820160019054906101000a900473ffffffffffffffffffffffffffffffffffffffff1673ffffffffffffffffffffffffffffffffffffffff1673ffffffffffffffffffffffffffffffffffffffff168152602001600382018054611cf990614b02565b80601f0160208091040260200160405190810160405280929190818152602001828054611d2590614b02565b8015611d705780601f10611d4757610100808354040283529160200191611d70565b820191905f5260205f20905b815481529060010190602001808311611d5357829003601f168201915b5050505050815260200160048201548152602001600582015f9054906101000a900460ff161515151581525050828a83611daa9190614e7e565b81518110611dbb57611dba614eb1565b5b60200260200101819052508080600101915050611c07565b50809550505050505b509392505050565b611dec61371f565b5f811480611dfc57506004548110155b15611e3e57806040517fae30d3b0000000000000000000000000000000000000000000000000000000008152600401611e359190614064565b60405180910390fd5b600160075f8381526020019081526020015f206005015f6101000a81548160ff021916908315150217905550807ff83ae0ade2d9004bc0030405bdd3336f9d9b97530bcf44cce99ce02c95641b7760405160405180910390a250565b611ea261371f565b5f73ffffffffffffffffffffffffffffffffffffffff1660085f8373ffffffffffffffffffffffffffffffffffffffff1673ffffffffffffffffffffffffffffffffffffffff1681526020019081526020015f205f015f9054906101000a900473ffffffffffffffffffffffffffffffffffffffff1673ffffffffffffffffffffffffffffffffffffffff1603611f65576040517f6f46a36500000000000000000000000000000000000000000000000000000000815260040160405180910390fd5b600160085f8373ffffffffffffffffffffffffffffffffffffffff1673ffffffffffffffffffffffffffffffffffffffff1681526020019081526020015f206004015f6101000a81548160ff0219169083151502179055508073ffffffffffffffffffffffffffffffffffffffff167f7d434f3bffe7db5f776c1c2b3b22e492788bdfbd071e9aa176f096970ea88933600160405161200491906148b5565b60405180910390a250565b60c881565b606060095f8373ffffffffffffffffffffffffffffffffffffffff1673ffffffffffffffffffffffffffffffffffffffff1681526020019081526020015f2080548060200260200160405190810160405280929190818152602001828054801561209b57602002820191905f5260205f20905b815481526020019060010190808311612087575b50505050509050919050565b605081565b6120b4613431565b816120be816134b6565b5f60085f3373ffffffffffffffffffffffffffffffffffffffff1673ffffffffffffffffffffffffffffffffffffffff1681526020019081526020015f206002015f9054906101000a900460ff1690506002600581111561212257612121613bb2565b5b81600581111561213557612134613bb2565b5b1415801561216857506003600581111561215257612151613bb2565b5b81600581111561216557612164613bb2565b5b14155b1561219f576040517fef92a56b00000000000000000000000000000000000000000000000000000000815260040160405180910390fd5b600460068111156121b3576121b2613bb2565b5b8360068111156121c6576121c5613bb2565b5b036121fd576040517f9e96bb6900000000000000000000000000000000000000000000000000000000815260040160405180910390fd5b8260055f8681526020019081526020015f206008015f6101000a81548160ff0219169083600681111561223357612232613bb2565b5b021790555061224233856137a6565b837f7c1c93f72f29b8a1fc6fc85eed990d133b1ffac80c962b521abb12f38f2ff9af846040516122729190614f55565b60405180910390a250505050565b8061228a816134b6565b5f60055f8481526020019081526020015f209050806001015f9054906101000a900473ffffffffffffffffffffffffffffffffffffffff1673ffffffffffffffffffffffffffffffffffffffff163373ffffffffffffffffffffffffffffffffffffffff1614612326576040517f3f77ea3e00000000000000000000000000000000000000000000000000000000815260040160405180910390fd5b5f816008015f9054906101000a900460ff1690506004600681111561234e5761234d613bb2565b5b81600681111561236157612360613bb2565b5b148061239157506005600681111561237c5761237b613bb2565b5b81600681111561238f5761238e613bb2565b5b145b806123bf57506006808111156123aa576123a9613bb2565b5b8160068111156123bd576123bc613bb2565b5b145b156123f6576040517f8b167a5000000000000000000000000000000000000000000000000000000000815260040160405180910390fd5b5f600681111561240957612408613bb2565b5b81600681111561241c5761241b613bb2565b5b1415801561244f57506002600681111561243957612438613bb2565b5b81600681111561244c5761244b613bb2565b5b14155b15612486576040517fb86c1b1c00000000000000000000000000000000000000000000000000000000815260040160405180910390fd5b6006826008015f6101000a81548160ff021916908360068111156124ad576124ac613bb2565b5b0217905550837f7c1c93f72f29b8a1fc6fc85eed990d133b1ffac80c962b521abb12f38f2ff9af60066040516124e39190614f55565b60405180910390a250505050565b6060816124fd816134b6565b5f60055f8581526020019081526020015f2060090190505f818054905067ffffffffffffffff81111561253357612532613e2c565b5b60405190808252806020026020018201604052801561256c57816020015b612559613967565b8152602001906001900390816125515790505b5090505f5f90505b82805490508110156127b95760065f84838154811061259657612595614eb1565b5b905f5260205f20015481526020019081526020015f20604051806101000160405290815f820154815260200160018201548152602001600282015f9054906101000a900473ffffffffffffffffffffffffffffffffffffffff1673ffffffffffffffffffffffffffffffffffffffff1673ffffffffffffffffffffffffffffffffffffffff16815260200160038201805461263090614b02565b80601f016020809104026020016040519081016040528092919081815260200182805461265c90614b02565b80156126a75780601f1061267e576101008083540402835291602001916126a7565b820191905f5260205f20905b81548152906001019060200180831161268a57829003601f168201915b50505050508152602001600482015f9054906101000a900460ff1660048111156126d4576126d3613bb2565b5b60048111156126e6576126e5613bb2565b5b81526020016005820154815260200160068201805461270490614b02565b80601f016020809104026020016040519081016040528092919081815260200182805461273090614b02565b801561277b5780601f106127525761010080835404028352916020019161277b565b820191905f5260205f20905b81548152906001019060200180831161275e57829003601f168201915b505050505081526020016007820154815250508282815181106127a1576127a0614eb1565b5b60200260200101819052508080600101915050612574565b50809350505050919050565b5f60075f8381526020019081526020015f206005015f9054906101000a900460ff169050919050565b6127f6613a24565b5f82148061280657506004548210155b1561284857816040517fae30d3b000000000000000000000000000000000000000000000000000000000815260040161283f9190614064565b60405180910390fd5b60075f8381526020019081526020015f206040518060e00160405290815f820154815260200160018201548152602001600282015f9054906101000a900460ff16600481111561289b5761289a613bb2565b5b60048111156128ad576128ac613bb2565b5b81526020016002820160019054906101000a900473ffffffffffffffffffffffffffffffffffffffff1673ffffffffffffffffffffffffffffffffffffffff1673ffffffffffffffffffffffffffffffffffffffff16815260200160038201805461291790614b02565b80601f016020809104026020016040519081016040528092919081815260200182805461294390614b02565b801561298e5780601f106129655761010080835404028352916020019161298e565b820191905f5260205f20905b81548152906001019060200180831161297157829003601f168201915b5050505050815260200160048201548152602001600582015f9054906101000a900460ff1615151515815250509050919050565b6060816129ce816134b6565b5f60055f8581526020019081526020015f20600a0190505f818054905067ffffffffffffffff811115612a0457612a03613e2c565b5b604051908082528060200260200182016040528015612a3d57816020015b612a2a613a24565b815260200190600190039081612a225790505b5090505f5f90505b8280549050811015612c0a5760075f848381548110612a6757612a66614eb1565b5b905f5260205f20015481526020019081526020015f206040518060e00160405290815f820154815260200160018201548152602001600282015f9054906101000a900460ff166004811115612abf57612abe613bb2565b5b6004811115612ad157612ad0613bb2565b5b81526020016002820160019054906101000a900473ffffffffffffffffffffffffffffffffffffffff1673ffffffffffffffffffffffffffffffffffffffff1673ffffffffffffffffffffffffffffffffffffffff168152602001600382018054612b3b90614b02565b80601f0160208091040260200160405190810160405280929190818152602001828054612b6790614b02565b8015612bb25780601f10612b8957610100808354040283529160200191612bb2565b820191905f5260205f20905b815481529060010190602001808311612b9557829003601f168201915b5050505050815260200160048201548152602001600582015f9054906101000a900460ff161515151581525050828281518110612bf257612bf1614eb1565b5b60200260200101819052508080600101915050612a45565b50809350505050919050565b601481565b5f81612c26816134b6565b5f60055f8581526020019081526020015f20905080600b015f9054906101000a900460ff16612c59576001925050612d0b565b5f816009018054905090505f5f90505b81811015612d03575f60065f856009018481548110612c8b57612c8a614eb1565b5b905f5260205f20015481526020019081526020015f206007015490507f80000000000000000000000000000000000000000000000000000000000000008103612cd45750612cf6565b6050811380612ce35750601481125b15612cf4575f955050505050612d0b565b505b8080600101915050612c69565b506001935050505b50919050565b612d1961371f565b5f73ffffffffffffffffffffffffffffffffffffffff168173ffffffffffffffffffffffffffffffffffffffff1603612d7e576040517fe6c4247b00000000000000000000000000000000000000000000000000000000815260040160405180910390fd5b60085f8273ffffffffffffffffffffffffffffffffffffffff1673ffffffffffffffffffffffffffffffffffffffff1681526020019081526020015f206004015f9054906101000a900460ff1615612e02576040517f7ca2767c00000000000000000000000000000000000000000000000000000000815260040160405180910390fd5b5f6005811115612e1557612e14613bb2565b5b836005811115612e2857612e27613bb2565b5b03612e5f576040517fd954416a00000000000000000000000000000000000000000000000000000000815260040160405180910390fd5b6040518060a001604052808273ffffffffffffffffffffffffffffffffffffffff168152602001858152602001846005811115612e9f57612e9e613bb2565b5b81526020018381526020016001151581525060085f8373ffffffffffffffffffffffffffffffffffffffff1673ffffffffffffffffffffffffffffffffffffffff1681526020019081526020015f205f820151815f015f6101000a81548173ffffffffffffffffffffffffffffffffffffffff021916908373ffffffffffffffffffffffffffffffffffffffff1602179055506020820151816001019081612f479190614d46565b506040820151816002015f6101000a81548160ff02191690836005811115612f7257612f71613bb2565b5b02179055506060820151816003019081612f8c9190614d46565b506080820151816004015f6101000a81548160ff0219169083151502179055509050508073ffffffffffffffffffffffffffffffffffffffff167fc9a31de765abe70445345802bee3c96554ca063ab257e3888d498accb859fabc8585604051612ff7929190614f7d565b60405180910390a250505050565b5f600254905090565b5f613017613431565b83613021816134b6565b600a5f3373ffffffffffffffffffffffffffffffffffffffff1673ffffffffffffffffffffffffffffffffffffffff1681526020019081526020015f205f8681526020019081526020015f205f9054906101000a900460ff166130b0576040517fd40c3d2100000000000000000000000000000000000000000000000000000000815260040160405180910390fd5b6130bb85858561350b565b9150509392505050565b5f5f9054906101000a900473ffffffffffffffffffffffffffffffffffffffff1681565b6130f161371f565b5f73ffffffffffffffffffffffffffffffffffffffff1660085f8373ffffffffffffffffffffffffffffffffffffffff1673ffffffffffffffffffffffffffffffffffffffff1681526020019081526020015f205f015f9054906101000a900473ffffffffffffffffffffffffffffffffffffffff1673ffffffffffffffffffffffffffffffffffffffff16036131b4576040517f6f46a36500000000000000000000000000000000000000000000000000000000815260040160405180910390fd5b5f60085f8373ffffffffffffffffffffffffffffffffffffffff1673ffffffffffffffffffffffffffffffffffffffff1681526020019081526020015f206004015f6101000a81548160ff0219169083151502179055508073ffffffffffffffffffffffffffffffffffffffff167f7d434f3bffe7db5f776c1c2b3b22e492788bdfbd071e9aa176f096970ea889335f60405161325191906148b5565b60405180910390a250565b80613266816134b6565b5f60055f8481526020019081526020015f209050806002015f9054906101000a900473ffffffffffffffffffffffffffffffffffffffff1673ffffffffffffffffffffffffffffffffffffffff163373ffffffffffffffffffffffffffffffffffffffff1614613301576040517e7b024000000000000000000000000000000000000000000000000000000000815260040160405180910390fd5b6004600681111561331557613314613bb2565b5b816008015f9054906101000a900460ff16600681111561333857613337613bb2565b5b0361336f576040517fb9f7965300000000000000000000000000000000000000000000000000000000815260040160405180910390fd5b6004816008015f6101000a81548160ff0219169083600681111561339657613395613bb2565b5b0217905550428160070181905550827f7c1c93f72f29b8a1fc6fc85eed990d133b1ffac80c962b521abb12f38f2ff9af60046040516133d59190614f55565b60405180910390a23373ffffffffffffffffffffffffffffffffffffffff16837f2f4a952729db32131cb3d658cc231127e0ce7e50f83508ece9a49c985f2384d0426040516134249190614064565b60405180910390a3505050565b60085f3373ffffffffffffffffffffffffffffffffffffffff1673ffffffffffffffffffffffffffffffffffffffff1681526020019081526020015f206004015f9054906101000a900460ff166134b4576040517f2a718ceb00000000000000000000000000000000000000000000000000000000815260040160405180910390fd5b565b5f8114806134c657506002548110155b1561350857806040517f84e54a240000000000000000000000000000000000000000000000000000000081526004016134ff9190614064565b60405180910390fd5b50565b5f5f60055f8681526020019081526020015f209050603281600a018054905010613561576040517fcdb7a76c00000000000000000000000000000000000000000000000000000000815260040160405180910390fd5b5f60045f81548092919061357490614b5f565b9190505590506040518060e001604052808281526020018781526020018660048111156135a4576135a3613bb2565b5b81526020013373ffffffffffffffffffffffffffffffffffffffff1681526020018581526020014281526020015f151581525060075f8381526020019081526020015f205f820151815f0155602082015181600101556040820151816002015f6101000a81548160ff0219169083600481111561362457613623613bb2565b5b021790555060608201518160020160016101000a81548173ffffffffffffffffffffffffffffffffffffffff021916908373ffffffffffffffffffffffffffffffffffffffff16021790555060808201518160030190816136859190614d46565b5060a0820151816004015560c0820151816005015f6101000a81548160ff02191690831515021790555090505081600a0181908060018154018082558091505060019003905f5260205f20015f909190919091505585817fc2c9d0fa5caecea68b9ec6aca764014b01764f779d8a510f0d0d6796b76b7c838760405161370b9190614fba565b60405180910390a380925050509392505050565b5f5f9054906101000a900473ffffffffffffffffffffffffffffffffffffffff1673ffffffffffffffffffffffffffffffffffffffff163373ffffffffffffffffffffffffffffffffffffffff16146137a4576040517f4755657900000000000000000000000000000000000000000000000000000000815260040160405180910390fd5b565b600a5f8373ffffffffffffffffffffffffffffffffffffffff1673ffffffffffffffffffffffffffffffffffffffff1681526020019081526020015f205f8281526020019081526020015f205f9054906101000a900460ff166138c9576001600a5f8473ffffffffffffffffffffffffffffffffffffffff1673ffffffffffffffffffffffffffffffffffffffff1681526020019081526020015f205f8381526020019081526020015f205f6101000a81548160ff02191690831515021790555060095f8373ffffffffffffffffffffffffffffffffffffffff1673ffffffffffffffffffffffffffffffffffffffff1681526020019081526020015f2081908060018154018082558091505060019003905f5260205f20015f90919091909150555b5050565b6040518061018001604052805f81526020015f73ffffffffffffffffffffffffffffffffffffffff1681526020015f73ffffffffffffffffffffffffffffffffffffffff1681526020016060815260200160608152602001606081526020015f81526020015f81526020015f600681111561394b5761394a613bb2565b5b815260200160608152602001606081526020015f151581525090565b6040518061010001604052805f81526020015f81526020015f73ffffffffffffffffffffffffffffffffffffffff168152602001606081526020015f60048111156139b5576139b4613bb2565b5b81526020015f8152602001606081526020015f81525090565b6040518060a001604052805f73ffffffffffffffffffffffffffffffffffffffff168152602001606081526020015f6005811115613a0f57613a0e613bb2565b5b8152602001606081526020015f151581525090565b6040518060e001604052805f81526020015f81526020015f6004811115613a4e57613a4d613bb2565b5b81526020015f73ffffffffffffffffffffffffffffffffffffffff168152602001606081526020015f81526020015f151581525090565b5f604051905090565b5f5ffd5b5f5ffd5b5f819050919050565b613aa881613a96565b8114613ab2575f5ffd5b50565b5f81359050613ac381613a9f565b92915050565b5f60208284031215613ade57613add613a8e565b5b5f613aeb84828501613ab5565b91505092915050565b613afd81613a96565b82525050565b5f73ffffffffffffffffffffffffffffffffffffffff82169050919050565b5f613b2c82613b03565b9050919050565b613b3c81613b22565b82525050565b5f81519050919050565b5f82825260208201905092915050565b8281835e5f83830152505050565b5f601f19601f8301169050919050565b5f613b8482613b42565b613b8e8185613b4c565b9350613b9e818560208601613b5c565b613ba781613b6a565b840191505092915050565b7f4e487b71000000000000000000000000000000000000000000000000000000005f52602160045260245ffd5b60078110613bf057613bef613bb2565b5b50565b5f819050613c0082613bdf565b919050565b5f613c0f82613bf3565b9050919050565b613c1f81613c05565b82525050565b5f81519050919050565b5f82825260208201905092915050565b5f819050602082019050919050565b5f613c598383613af4565b60208301905092915050565b5f602082019050919050565b5f613c7b82613c25565b613c858185613c2f565b9350613c9083613c3f565b805f5b83811015613cc0578151613ca78882613c4e565b9750613cb283613c65565b925050600181019050613c93565b5085935050505092915050565b5f8115159050919050565b613ce181613ccd565b82525050565b5f61018083015f830151613cfd5f860182613af4565b506020830151613d106020860182613b33565b506040830151613d236040860182613b33565b5060608301518482036060860152613d3b8282613b7a565b91505060808301518482036080860152613d558282613b7a565b91505060a083015184820360a0860152613d6f8282613b7a565b91505060c0830151613d8460c0860182613af4565b5060e0830151613d9760e0860182613af4565b50610100830151613dac610100860182613c16565b50610120830151848203610120860152613dc68282613c71565b915050610140830151848203610140860152613de28282613c71565b915050610160830151613df9610160860182613cd8565b508091505092915050565b5f6020820190508181035f830152613e1c8184613ce7565b905092915050565b5f5ffd5b5f5ffd5b7f4e487b71000000000000000000000000000000000000000000000000000000005f52604160045260245ffd5b613e6282613b6a565b810181811067ffffffffffffffff82111715613e8157613e80613e2c565b5b80604052505050565b5f613e93613a85565b9050613e9f8282613e59565b919050565b5f67ffffffffffffffff821115613ebe57613ebd613e2c565b5b613ec782613b6a565b9050602081019050919050565b828183375f83830152505050565b5f613ef4613eef84613ea4565b613e8a565b905082815260208101848484011115613f1057613f0f613e28565b5b613f1b848285613ed4565b509392505050565b5f82601f830112613f3757613f36613e24565b5b8135613f47848260208601613ee2565b91505092915050565b60058110613f5c575f5ffd5b50565b5f81359050613f6d81613f50565b92915050565b5f819050919050565b613f8581613f73565b8114613f8f575f5ffd5b50565b5f81359050613fa081613f7c565b92915050565b5f5f5f5f5f60a08688031215613fbf57613fbe613a8e565b5b5f613fcc88828901613ab5565b955050602086013567ffffffffffffffff811115613fed57613fec613a92565b5b613ff988828901613f23565b945050604061400a88828901613f5f565b935050606086013567ffffffffffffffff81111561402b5761402a613a92565b5b61403788828901613f23565b925050608061404888828901613f92565b9150509295509295909350565b61405e81613a96565b82525050565b5f6020820190506140775f830184614055565b92915050565b61408681613b22565b8114614090575f5ffd5b50565b5f813590506140a18161407d565b92915050565b5f602082840312156140bc576140bb613a8e565b5b5f6140c984828501614093565b91505092915050565b5f5f5f606084860312156140e9576140e8613a8e565b5b5f6140f686828701613ab5565b935050602061410786828701613ab5565b925050604061411886828701613ab5565b9150509250925092565b5f81519050919050565b5f82825260208201905092915050565b5f819050602082019050919050565b6005811061415c5761415b613bb2565b5b50565b5f81905061416c8261414b565b919050565b5f61417b8261415f565b9050919050565b61418b81614171565b82525050565b61419a81613f73565b82525050565b5f61010083015f8301516141b65f860182613af4565b5060208301516141c96020860182613af4565b5060408301516141dc6040860182613b33565b50606083015184820360608601526141f48282613b7a565b91505060808301516142096080860182614182565b5060a083015161421c60a0860182613af4565b5060c083015184820360c08601526142348282613b7a565b91505060e083015161424960e0860182614191565b508091505092915050565b5f61425f83836141a0565b905092915050565b5f602082019050919050565b5f61427d82614122565b614287818561412c565b9350836020820285016142998561413c565b805f5b858110156142d457848403895281516142b58582614254565b94506142c083614267565b925060208a0199505060018101905061429c565b50829750879550505050505092915050565b5f6020820190508181035f8301526142fe8184614273565b905092915050565b5f61010083015f83015161431c5f860182613af4565b50602083015161432f6020860182613af4565b5060408301516143426040860182613b33565b506060830151848203606086015261435a8282613b7a565b915050608083015161436f6080860182614182565b5060a083015161438260a0860182613af4565b5060c083015184820360c086015261439a8282613b7a565b91505060e08301516143af60e0860182614191565b508091505092915050565b5f6020820190508181035f8301526143d28184614306565b905092915050565b6143e381613b22565b82525050565b5f6020820190506143fc5f8301846143da565b92915050565b61440b81613f73565b82525050565b5f6020820190506144245f830184614402565b92915050565b6006811061443b5761443a613bb2565b5b50565b5f81905061444b8261442a565b919050565b5f61445a8261443e565b9050919050565b61446a81614450565b82525050565b5f60a083015f8301516144855f860182613b33565b506020830151848203602086015261449d8282613b7a565b91505060408301516144b26040860182614461565b50606083015184820360608601526144ca8282613b7a565b91505060808301516144df6080860182613cd8565b508091505092915050565b5f6020820190508181035f8301526145028184614470565b905092915050565b61451381613ccd565b811461451d575f5ffd5b50565b5f8135905061452e8161450a565b92915050565b5f5f5f5f5f60a0868803121561454d5761454c613a8e565b5b5f61455a88828901614093565b955050602086013567ffffffffffffffff81111561457b5761457a613a92565b5b61458788828901613f23565b945050604086013567ffffffffffffffff8111156145a8576145a7613a92565b5b6145b488828901613f23565b935050606086013567ffffffffffffffff8111156145d5576145d4613a92565b5b6145e188828901613f23565b92505060806145f288828901614520565b9150509295509295909350565b5f81519050919050565b5f82825260208201905092915050565b5f819050602082019050919050565b6005811061463957614638613bb2565b5b50565b5f81905061464982614628565b919050565b5f6146588261463c565b9050919050565b6146688161464e565b82525050565b5f60e083015f8301516146835f860182613af4565b5060208301516146966020860182613af4565b5060408301516146a9604086018261465f565b5060608301516146bc6060860182613b33565b50608083015184820360808601526146d48282613b7a565b91505060a08301516146e960a0860182613af4565b5060c08301516146fc60c0860182613cd8565b508091505092915050565b5f614712838361466e565b905092915050565b5f602082019050919050565b5f614730826145ff565b61473a8185614609565b93508360208202850161474c85614619565b805f5b8581101561478757848403895281516147688582614707565b94506147738361471a565b925060208a0199505060018101905061474f565b50829750879550505050505092915050565b5f6020820190508181035f8301526147b18184614726565b905092915050565b5f82825260208201905092915050565b5f6147d382613c25565b6147dd81856147b9565b93506147e883613c3f565b805f5b838110156148185781516147ff8882613c4e565b975061480a83613c65565b9250506001810190506147eb565b5085935050505092915050565b5f6020820190508181035f83015261483d81846147c9565b905092915050565b60078110614851575f5ffd5b50565b5f8135905061486281614845565b92915050565b5f5f6040838503121561487e5761487d613a8e565b5b5f61488b85828601613ab5565b925050602061489c85828601614854565b9150509250929050565b6148af81613ccd565b82525050565b5f6020820190506148c85f8301846148a6565b92915050565b5f60e083015f8301516148e35f860182613af4565b5060208301516148f66020860182613af4565b506040830151614909604086018261465f565b50606083015161491c6060860182613b33565b50608083015184820360808601526149348282613b7a565b91505060a083015161494960a0860182613af4565b5060c083015161495c60c0860182613cd8565b508091505092915050565b5f6020820190508181035f83015261497f81846148ce565b905092915050565b60068110614993575f5ffd5b50565b5f813590506149a481614987565b92915050565b5f5f5f5f608085870312156149c2576149c1613a8e565b5b5f85013567ffffffffffffffff8111156149df576149de613a92565b5b6149eb87828801613f23565b94505060206149fc87828801614996565b935050604085013567ffffffffffffffff811115614a1d57614a1c613a92565b5b614a2987828801613f23565b9250506060614a3a87828801614093565b91505092959194509250565b60058110614a52575f5ffd5b50565b5f81359050614a6381614a46565b92915050565b5f5f5f60608486031215614a8057614a7f613a8e565b5b5f614a8d86828701613ab5565b9350506020614a9e86828701614a55565b925050604084013567ffffffffffffffff811115614abf57614abe613a92565b5b614acb86828701613f23565b9150509250925092565b7f4e487b71000000000000000000000000000000000000000000000000000000005f52602260045260245ffd5b5f6002820490506001821680614b1957607f821691505b602082108103614b2c57614b2b614ad5565b5b50919050565b7f4e487b71000000000000000000000000000000000000000000000000000000005f52601160045260245ffd5b5f614b6982613a96565b91507fffffffffffffffffffffffffffffffffffffffffffffffffffffffffffffffff8203614b9b57614b9a614b32565b5b600182019050919050565b5f819050815f5260205f209050919050565b5f6020601f8301049050919050565b5f82821b905092915050565b5f60088302614c027fffffffffffffffffffffffffffffffffffffffffffffffffffffffffffffffff82614bc7565b614c0c8683614bc7565b95508019841693508086168417925050509392505050565b5f819050919050565b5f614c47614c42614c3d84613a96565b614c24565b613a96565b9050919050565b5f819050919050565b614c6083614c2d565b614c74614c6c82614c4e565b848454614bd3565b825550505050565b5f5f905090565b614c8b614c7c565b614c96818484614c57565b505050565b5b81811015614cb957614cae5f82614c83565b600181019050614c9c565b5050565b601f821115614cfe57614ccf81614ba6565b614cd884614bb8565b81016020851015614ce7578190505b614cfb614cf385614bb8565b830182614c9b565b50505b505050565b5f82821c905092915050565b5f614d1e5f1984600802614d03565b1980831691505092915050565b5f614d368383614d0f565b9150826002028217905092915050565b614d4f82613b42565b67ffffffffffffffff811115614d6857614d67613e2c565b5b614d728254614b02565b614d7d828285614cbd565b5f60209050601f831160018114614dae575f8415614d9c578287015190505b614da68582614d2b565b865550614e0d565b601f198416614dbc86614ba6565b5f5b82811015614de357848901518255600182019150602085019450602081019050614dbe565b86831015614e005784890151614dfc601f891682614d0f565b8355505b6001600288020188555050505b505050505050565b614e1e81614171565b82525050565b5f604082019050614e375f830185614e15565b614e4460208301846143da565b9392505050565b5f614e5582613a96565b9150614e6083613a96565b9250828201905080821115614e7857614e77614b32565b5b92915050565b5f614e8882613a96565b9150614e9383613a96565b9250828203905081811115614eab57614eaa614b32565b5b92915050565b7f4e487b71000000000000000000000000000000000000000000000000000000005f52603260045260245ffd5b5f82825260208201905092915050565b5f614ef882613b42565b614f028185614ede565b9350614f12818560208601613b5c565b614f1b81613b6a565b840191505092915050565b5f6020820190508181035f830152614f3e8184614eee565b905092915050565b614f4f81613c05565b82525050565b5f602082019050614f685f830184614f46565b92915050565b614f7781614450565b82525050565b5f6040820190508181035f830152614f958185614eee565b9050614fa46020830184614f6e565b9392505050565b614fb48161464e565b82525050565b5f602082019050614fcd5f830184614fab565b9291505056fea2646970667358221220d723733061ec33d601312cdeb52ef1a96965e527a1d61a003006a428f72eb75b64736f6c634300081e0033",
			"opcodes": "PUSH1 0x80 PUSH1 0x40 MSTORE PUSH1 0x1 PUSH1 0x2 SSTORE PUSH1 0x1 PUSH1 0x3 SSTORE PUSH1 0x1 PUSH1 0x4 SSTORE CALLVALUE DUP1 ISZERO PUSH1 0x1D JUMPI PUSH0 PUSH0 REVERT JUMPDEST POP CALLER PUSH0 PUSH0 PUSH2 0x100 EXP DUP2 SLOAD DUP2 PUSH20 0xFFFFFFFFFFFFFFFFFFFFFFFFFFFFFFFFFFFFFFFF MUL NOT AND SWAP1 DUP4 PUSH20 0xFFFFFFFFFFFFFFFFFFFFFFFFFFFFFFFFFFFFFFFF AND MUL OR SWAP1 SSTORE POP PUSH2 0x5009 DUP1 PUSH2 0x6A PUSH0 CODECOPY PUSH0 RETURN INVALID PUSH1 0x80 PUSH1 0x40 MSTORE CALLVALUE DUP1 ISZERO PUSH2 0xF JUMPI PUSH0 PUSH0 REVERT JUMPDEST POP PUSH1 0x4 CALLDATASIZE LT PUSH2 0x1F9 JUMPI PUSH0 CALLDATALOAD PUSH1 0xE0 SHR DUP1 PUSH4 0x63F86584 GT PUSH2 0x118 JUMPI DUP1 PUSH4 0x9B4ADF4E GT PUSH2 0xAB JUMPI DUP1 PUSH4 0xB9A3A68C GT PUSH2 0x7A JUMPI DUP1 PUSH4 0xB9A3A68C EQ PUSH2 0x60F JUMPI DUP1 PUSH4 0xE570C367 EQ PUSH2 0x62D JUMPI DUP1 PUSH4 0xF851A440 EQ PUSH2 0x65D JUMPI DUP1 PUSH4 0xFC436695 EQ PUSH2 0x67B JUMPI DUP1 PUSH4 0xFD84CB97 EQ PUSH2 0x697 JUMPI PUSH2 0x1F9 JUMP JUMPDEST DUP1 PUSH4 0x9B4ADF4E EQ PUSH2 0x575 JUMPI DUP1 PUSH4 0xA54A6EE4 EQ PUSH2 0x5A5 JUMPI DUP1 PUSH4 0xAF56A428 EQ PUSH2 0x5C3 JUMPI DUP1 PUSH4 0xB7FA3C2A EQ PUSH2 0x5F3 JUMPI PUSH2 0x1F9 JUMP JUMPDEST DUP1 PUSH4 0x7FAA7BC7 GT PUSH2 0xE7 JUMPI DUP1 PUSH4 0x7FAA7BC7 EQ PUSH2 0x4C9 JUMPI DUP1 PUSH4 0x8D70861E EQ PUSH2 0x4E5 JUMPI DUP1 PUSH4 0x925D3478 EQ PUSH2 0x515 JUMPI DUP1 PUSH4 0x9578615E EQ PUSH2 0x545 JUMPI PUSH2 0x1F9 JUMP JUMPDEST DUP1 PUSH4 0x63F86584 EQ PUSH2 0x441 JUMPI DUP1 PUSH4 0x72F2F93A EQ PUSH2 0x45F JUMPI DUP1 PUSH4 0x7B8A20E2 EQ PUSH2 0x48F JUMPI DUP1 PUSH4 0x7DEFA920 EQ PUSH2 0x4AD JUMPI PUSH2 0x1F9 JUMP JUMPDEST DUP1 PUSH4 0x26782247 GT PUSH2 0x190 JUMPI DUP1 PUSH4 0x475B6F98 GT PUSH2 0x15F JUMPI DUP1 PUSH4 0x475B6F98 EQ PUSH2 0x3A9 JUMPI DUP1 PUSH4 0x48016224 EQ PUSH2 0x3D9 JUMPI DUP1 PUSH4 0x4FFE6AE2 EQ PUSH2 0x409 JUMPI DUP1 PUSH4 0x58DCF85E EQ PUSH2 0x425 JUMPI PUSH2 0x1F9 JUMP JUMPDEST DUP1 PUSH4 0x26782247 EQ PUSH2 0x31F JUMPI DUP1 PUSH4 0x2BF210DC EQ PUSH2 0x33D JUMPI DUP1 PUSH4 0x305207B0 EQ PUSH2 0x35B JUMPI DUP1 PUSH4 0x4138D167 EQ PUSH2 0x379 JUMPI PUSH2 0x1F9 JUMP JUMPDEST DUP1 PUSH4 0x147BF6C4 GT PUSH2 0x1CC JUMPI DUP1 PUSH4 0x147BF6C4 EQ PUSH2 0x285 JUMPI DUP1 PUSH4 0x17082AE0 EQ PUSH2 0x2A1 JUMPI DUP1 PUSH4 0x20FC4881 EQ PUSH2 0x2D1 JUMPI DUP1 PUSH4 0x229EC452 EQ PUSH2 0x301 JUMPI PUSH2 0x1F9 JUMP JUMPDEST DUP1 PUSH4 0x92B3740 EQ PUSH2 0x1FD JUMPI DUP1 PUSH4 0xA7A0B69 EQ PUSH2 0x22D JUMPI DUP1 PUSH4 0xE18B681 EQ PUSH2 0x25D JUMPI DUP1 PUSH4 0xFD19668 EQ PUSH2 0x267 JUMPI JUMPDEST PUSH0 PUSH0 REVERT JUMPDEST PUSH2 0x217 PUSH1 0x4 DUP1 CALLDATASIZE SUB DUP2 ADD SWAP1 PUSH2 0x212 SWAP2 SWAP1 PUSH2 0x3AC9 JUMP JUMPDEST PUSH2 0x6B3 JUMP JUMPDEST PUSH1 0x40 MLOAD PUSH2 0x224 SWAP2 SWAP1 PUSH2 0x3E04 JUMP JUMPDEST PUSH1 0x40 MLOAD DUP1 SWAP2 SUB SWAP1 RETURN JUMPDEST PUSH2 0x247 PUSH1 0x4 DUP1 CALLDATASIZE SUB DUP2 ADD SWAP1 PUSH2 0x242 SWAP2 SWAP1 PUSH2 0x3FA6 JUMP JUMPDEST PUSH2 0xA56 JUMP JUMPDEST PUSH1 0x40 MLOAD PUSH2 0x254 SWAP2 SWAP1 PUSH2 0x4064 JUMP JUMPDEST PUSH1 0x40 MLOAD DUP1 SWAP2 SUB SWAP1 RETURN JUMPDEST PUSH2 0x265 PUSH2 0xDB1 JUMP JUMPDEST STOP JUMPDEST PUSH2 0x26F PUSH2 0xEFB JUMP JUMPDEST PUSH1 0x40 MLOAD PUSH2 0x27C SWAP2 SWAP1 PUSH2 0x4064 JUMP JUMPDEST PUSH1 0x40 MLOAD DUP1 SWAP2 SUB SWAP1 RETURN JUMPDEST PUSH2 0x29F PUSH1 0x4 DUP1 CALLDATASIZE SUB DUP2 ADD SWAP1 PUSH2 0x29A SWAP2 SWAP1 PUSH2 0x40A7 JUMP JUMPDEST PUSH2 0xF04 JUMP JUMPDEST STOP JUMPDEST PUSH2 0x2BB PUSH1 0x4 DUP1 CALLDATASIZE SUB DUP2 ADD SWAP1 PUSH2 0x2B6 SWAP2 SWAP1 PUSH2 0x40D2 JUMP JUMPDEST PUSH2 0xFF7 JUMP JUMPDEST PUSH1 0x40 MLOAD PUSH2 0x2C8 SWAP2 SWAP1 PUSH2 0x42E6 JUMP JUMPDEST PUSH1 0x40 MLOAD DUP1 SWAP2 SUB SWAP1 RETURN JUMPDEST PUSH2 0x2EB PUSH1 0x4 DUP1 CALLDATASIZE SUB DUP2 ADD SWAP1 PUSH2 0x2E6 SWAP2 SWAP1 PUSH2 0x3AC9 JUMP JUMPDEST PUSH2 0x1372 JUMP JUMPDEST PUSH1 0x40 MLOAD PUSH2 0x2F8 SWAP2 SWAP1 PUSH2 0x43BA JUMP JUMPDEST PUSH1 0x40 MLOAD DUP1 SWAP2 SUB SWAP1 RETURN JUMPDEST PUSH2 0x309 PUSH2 0x15C6 JUMP JUMPDEST PUSH1 0x40 MLOAD PUSH2 0x316 SWAP2 SWAP1 PUSH2 0x4064 JUMP JUMPDEST PUSH1 0x40 MLOAD DUP1 SWAP2 SUB SWAP1 RETURN JUMPDEST PUSH2 0x327 PUSH2 0x15CF JUMP JUMPDEST PUSH1 0x40 MLOAD PUSH2 0x334 SWAP2 SWAP1 PUSH2 0x43E9 JUMP JUMPDEST PUSH1 0x40 MLOAD DUP1 SWAP2 SUB SWAP1 RETURN JUMPDEST PUSH2 0x345 PUSH2 0x15F4 JUMP JUMPDEST PUSH1 0x40 MLOAD PUSH2 0x352 SWAP2 SWAP1 PUSH2 0x4411 JUMP JUMPDEST PUSH1 0x40 MLOAD DUP1 SWAP2 SUB SWAP1 RETURN JUMPDEST PUSH2 0x363 PUSH2 0x1618 JUMP JUMPDEST PUSH1 0x40 MLOAD PUSH2 0x370 SWAP2 SWAP1 PUSH2 0x4064 JUMP JUMPDEST PUSH1 0x40 MLOAD DUP1 SWAP2 SUB SWAP1 RETURN JUMPDEST PUSH2 0x393 PUSH1 0x4 DUP1 CALLDATASIZE SUB DUP2 ADD SWAP1 PUSH2 0x38E SWAP2 SWAP1 PUSH2 0x40A7 JUMP JUMPDEST PUSH2 0x161D JUMP JUMPDEST PUSH1 0x40 MLOAD PUSH2 0x3A0 SWAP2 SWAP1 PUSH2 0x44EA JUMP JUMPDEST PUSH1 0x40 MLOAD DUP1 SWAP2 SUB SWAP1 RETURN JUMPDEST PUSH2 0x3C3 PUSH1 0x4 DUP1 CALLDATASIZE SUB DUP2 ADD SWAP1 PUSH2 0x3BE SWAP2 SWAP1 PUSH2 0x4534 JUMP JUMPDEST PUSH2 0x183C JUMP JUMPDEST PUSH1 0x40 MLOAD PUSH2 0x3D0 SWAP2 SWAP1 PUSH2 0x4064 JUMP JUMPDEST PUSH1 0x40 MLOAD DUP1 SWAP2 SUB SWAP1 RETURN JUMPDEST PUSH2 0x3F3 PUSH1 0x4 DUP1 CALLDATASIZE SUB DUP2 ADD SWAP1 PUSH2 0x3EE SWAP2 SWAP1 PUSH2 0x40D2 JUMP JUMPDEST PUSH2 0x1AE9 JUMP JUMPDEST PUSH1 0x40 MLOAD PUSH2 0x400 SWAP2 SWAP1 PUSH2 0x4799 JUMP JUMPDEST PUSH1 0x40 MLOAD DUP1 SWAP2 SUB SWAP1 RETURN JUMPDEST PUSH2 0x423 PUSH1 0x4 DUP1 CALLDATASIZE SUB DUP2 ADD SWAP1 PUSH2 0x41E SWAP2 SWAP1 PUSH2 0x3AC9 JUMP JUMPDEST PUSH2 0x1DE4 JUMP JUMPDEST STOP JUMPDEST PUSH2 0x43F PUSH1 0x4 DUP1 CALLDATASIZE SUB DUP2 ADD SWAP1 PUSH2 0x43A SWAP2 SWAP1 PUSH2 0x40A7 JUMP JUMPDEST PUSH2 0x1E9A JUMP JUMPDEST STOP JUMPDEST PUSH2 0x449 PUSH2 0x200F JUMP JUMPDEST PUSH1 0x40 MLOAD PUSH2 0x456 SWAP2 SWAP1 PUSH2 0x4064 JUMP JUMPDEST PUSH1 0x40 MLOAD DUP1 SWAP2 SUB SWAP1 RETURN JUMPDEST PUSH2 0x479 PUSH1 0x4 DUP1 CALLDATASIZE SUB DUP2 ADD SWAP1 PUSH2 0x474 SWAP2 SWAP1 PUSH2 0x40A7 JUMP JUMPDEST PUSH2 0x2014 JUMP JUMPDEST PUSH1 0x40 MLOAD PUSH2 0x486 SWAP2 SWAP1 PUSH2 0x4825 JUMP JUMPDEST PUSH1 0x40 MLOAD DUP1 SWAP2 SUB SWAP1 RETURN JUMPDEST PUSH2 0x497 PUSH2 0x20A7 JUMP JUMPDEST PUSH1 0x40 MLOAD PUSH2 0x4A4 SWAP2 SWAP1 PUSH2 0x4411 JUMP JUMPDEST PUSH1 0x40 MLOAD DUP1 SWAP2 SUB SWAP1 RETURN JUMPDEST PUSH2 0x4C7 PUSH1 0x4 DUP1 CALLDATASIZE SUB DUP2 ADD SWAP1 PUSH2 0x4C2 SWAP2 SWAP1 PUSH2 0x4868 JUMP JUMPDEST PUSH2 0x20AC JUMP JUMPDEST STOP JUMPDEST PUSH2 0x4E3 PUSH1 0x4 DUP1 CALLDATASIZE SUB DUP2 ADD SWAP1 PUSH2 0x4DE SWAP2 SWAP1 PUSH2 0x3AC9 JUMP JUMPDEST PUSH2 0x2280 JUMP JUMPDEST STOP JUMPDEST PUSH2 0x4FF PUSH1 0x4 DUP1 CALLDATASIZE SUB DUP2 ADD SWAP1 PUSH2 0x4FA SWAP2 SWAP1 PUSH2 0x3AC9 JUMP JUMPDEST PUSH2 0x24F1 JUMP JUMPDEST PUSH1 0x40 MLOAD PUSH2 0x50C SWAP2 SWAP1 PUSH2 0x42E6 JUMP JUMPDEST PUSH1 0x40 MLOAD DUP1 SWAP2 SUB SWAP1 RETURN JUMPDEST PUSH2 0x52F PUSH1 0x4 DUP1 CALLDATASIZE SUB DUP2 ADD SWAP1 PUSH2 0x52A SWAP2 SWAP1 PUSH2 0x3AC9 JUMP JUMPDEST PUSH2 0x27C5 JUMP JUMPDEST PUSH1 0x40 MLOAD PUSH2 0x53C SWAP2 SWAP1 PUSH2 0x48B5 JUMP JUMPDEST PUSH1 0x40 MLOAD DUP1 SWAP2 SUB SWAP1 RETURN JUMPDEST PUSH2 0x55F PUSH1 0x4 DUP1 CALLDATASIZE SUB DUP2 ADD SWAP1 PUSH2 0x55A SWAP2 SWAP1 PUSH2 0x3AC9 JUMP JUMPDEST PUSH2 0x27EE JUMP JUMPDEST PUSH1 0x40 MLOAD PUSH2 0x56C SWAP2 SWAP1 PUSH2 0x4967 JUMP JUMPDEST PUSH1 0x40 MLOAD DUP1 SWAP2 SUB SWAP1 RETURN JUMPDEST PUSH2 0x58F PUSH1 0x4 DUP1 CALLDATASIZE SUB DUP2 ADD SWAP1 PUSH2 0x58A SWAP2 SWAP1 PUSH2 0x3AC9 JUMP JUMPDEST PUSH2 0x29C2 JUMP JUMPDEST PUSH1 0x40 MLOAD PUSH2 0x59C SWAP2 SWAP1 PUSH2 0x4799 JUMP JUMPDEST PUSH1 0x40 MLOAD DUP1 SWAP2 SUB SWAP1 RETURN JUMPDEST PUSH2 0x5AD PUSH2 0x2C16 JUMP JUMPDEST PUSH1 0x40 MLOAD PUSH2 0x5BA SWAP2 SWAP1 PUSH2 0x4411 JUMP JUMPDEST PUSH1 0x40 MLOAD DUP1 SWAP2 SUB SWAP1 RETURN JUMPDEST PUSH2 0x5DD PUSH1 0x4 DUP1 CALLDATASIZE SUB DUP2 ADD SWAP1 PUSH2 0x5D8 SWAP2 SWAP1 PUSH2 0x3AC9 JUMP JUMPDEST PUSH2 0x2C1B JUMP JUMPDEST PUSH1 0x40 MLOAD PUSH2 0x5EA SWAP2 SWAP1 PUSH2 0x48B5 JUMP JUMPDEST PUSH1 0x40 MLOAD DUP1 SWAP2 SUB SWAP1 RETURN JUMPDEST PUSH2 0x60D PUSH1 0x4 DUP1 CALLDATASIZE SUB DUP2 ADD SWAP1 PUSH2 0x608 SWAP2 SWAP1 PUSH2 0x49AA JUMP JUMPDEST PUSH2 0x2D11 JUMP JUMPDEST STOP JUMPDEST PUSH2 0x617 PUSH2 0x3005 JUMP JUMPDEST PUSH1 0x40 MLOAD PUSH2 0x624 SWAP2 SWAP1 PUSH2 0x4064 JUMP JUMPDEST PUSH1 0x40 MLOAD DUP1 SWAP2 SUB SWAP1 RETURN JUMPDEST PUSH2 0x647 PUSH1 0x4 DUP1 CALLDATASIZE SUB DUP2 ADD SWAP1 PUSH2 0x642 SWAP2 SWAP1 PUSH2 0x4A69 JUMP JUMPDEST PUSH2 0x300E JUMP JUMPDEST PUSH1 0x40 MLOAD PUSH2 0x654 SWAP2 SWAP1 PUSH2 0x4064 JUMP JUMPDEST PUSH1 0x40 MLOAD DUP1 SWAP2 SUB SWAP1 RETURN JUMPDEST PUSH2 0x665 PUSH2 0x30C5 JUMP JUMPDEST PUSH1 0x40 MLOAD PUSH2 0x672 SWAP2 SWAP1 PUSH2 0x43E9 JUMP JUMPDEST PUSH1 0x40 MLOAD DUP1 SWAP2 SUB SWAP1 RETURN JUMPDEST PUSH2 0x695 PUSH1 0x4 DUP1 CALLDATASIZE SUB DUP2 ADD SWAP1 PUSH2 0x690 SWAP2 SWAP1 PUSH2 0x40A7 JUMP JUMPDEST PUSH2 0x30E9 JUMP JUMPDEST STOP JUMPDEST PUSH2 0x6B1 PUSH1 0x4 DUP1 CALLDATASIZE SUB DUP2 ADD SWAP1 PUSH2 0x6AC SWAP2 SWAP1 PUSH2 0x3AC9 JUMP JUMPDEST PUSH2 0x325C JUMP JUMPDEST STOP JUMPDEST PUSH2 0x6BB PUSH2 0x38CD JUMP JUMPDEST PUSH1 0x5 PUSH0 DUP4 DUP2 MSTORE PUSH1 0x20 ADD SWAP1 DUP2 MSTORE PUSH1 0x20 ADD PUSH0 KECCAK256 PUSH1 0x40 MLOAD DUP1 PUSH2 0x180 ADD PUSH1 0x40 MSTORE SWAP1 DUP2 PUSH0 DUP3 ADD SLOAD DUP2 MSTORE PUSH1 0x20 ADD PUSH1 0x1 DUP3 ADD PUSH0 SWAP1 SLOAD SWAP1 PUSH2 0x100 EXP SWAP1 DIV PUSH20 0xFFFFFFFFFFFFFFFFFFFFFFFFFFFFFFFFFFFFFFFF AND PUSH20 0xFFFFFFFFFFFFFFFFFFFFFFFFFFFFFFFFFFFFFFFF AND PUSH20 0xFFFFFFFFFFFFFFFFFFFFFFFFFFFFFFFFFFFFFFFF AND DUP2 MSTORE PUSH1 0x20 ADD PUSH1 0x2 DUP3 ADD PUSH0 SWAP1 SLOAD SWAP1 PUSH2 0x100 EXP SWAP1 DIV PUSH20 0xFFFFFFFFFFFFFFFFFFFFFFFFFFFFFFFFFFFFFFFF AND PUSH20 0xFFFFFFFFFFFFFFFFFFFFFFFFFFFFFFFFFFFFFFFF AND PUSH20 0xFFFFFFFFFFFFFFFFFFFFFFFFFFFFFFFFFFFFFFFF AND DUP2 MSTORE PUSH1 0x20 ADD PUSH1 0x3 DUP3 ADD DUP1 SLOAD PUSH2 0x79B SWAP1 PUSH2 0x4B02 JUMP JUMPDEST DUP1 PUSH1 0x1F ADD PUSH1 0x20 DUP1 SWAP2 DIV MUL PUSH1 0x20 ADD PUSH1 0x40 MLOAD SWAP1 DUP2 ADD PUSH1 0x40 MSTORE DUP1 SWAP3 SWAP2 SWAP1 DUP2 DUP2 MSTORE PUSH1 0x20 ADD DUP3 DUP1 SLOAD PUSH2 0x7C7 SWAP1 PUSH2 0x4B02 JUMP JUMPDEST DUP1 ISZERO PUSH2 0x812 JUMPI DUP1 PUSH1 0x1F LT PUSH2 0x7E9 JUMPI PUSH2 0x100 DUP1 DUP4 SLOAD DIV MUL DUP4 MSTORE SWAP2 PUSH1 0x20 ADD SWAP2 PUSH2 0x812 JUMP JUMPDEST DUP3 ADD SWAP2 SWAP1 PUSH0 MSTORE PUSH1 0x20 PUSH0 KECCAK256 SWAP1 JUMPDEST DUP2 SLOAD DUP2 MSTORE SWAP1 PUSH1 0x1 ADD SWAP1 PUSH1 0x20 ADD DUP1 DUP4 GT PUSH2 0x7F5 JUMPI DUP3 SWAP1 SUB PUSH1 0x1F AND DUP3 ADD SWAP2 JUMPDEST POP POP POP POP POP DUP2 MSTORE PUSH1 0x20 ADD PUSH1 0x4 DUP3 ADD DUP1 SLOAD PUSH2 0x82B SWAP1 PUSH2 0x4B02 JUMP JUMPDEST DUP1 PUSH1 0x1F ADD PUSH1 0x20 DUP1 SWAP2 DIV MUL PUSH1 0x20 ADD PUSH1 0x40 MLOAD SWAP1 DUP2 ADD PUSH1 0x40 MSTORE DUP1 SWAP3 SWAP2 SWAP1 DUP2 DUP2 MSTORE PUSH1 0x20 ADD DUP3 DUP1 SLOAD PUSH2 0x857 SWAP1 PUSH2 0x4B02 JUMP JUMPDEST DUP1 ISZERO PUSH2 0x8A2 JUMPI DUP1 PUSH1 0x1F LT PUSH2 0x879 JUMPI PUSH2 0x100 DUP1 DUP4 SLOAD DIV MUL DUP4 MSTORE SWAP2 PUSH1 0x20 ADD SWAP2 PUSH2 0x8A2 JUMP JUMPDEST DUP3 ADD SWAP2 SWAP1 PUSH0 MSTORE PUSH1 0x20 PUSH0 KECCAK256 SWAP1 JUMPDEST DUP2 SLOAD DUP2 MSTORE SWAP1 PUSH1 0x1 ADD SWAP1 PUSH1 0x20 ADD DUP1 DUP4 GT PUSH2 0x885 JUMPI DUP3 SWAP1 SUB PUSH1 0x1F AND DUP3 ADD SWAP2 JUMPDEST POP POP POP POP POP DUP2 MSTORE PUSH1 0x20 ADD PUSH1 0x5 DUP3 ADD DUP1 SLOAD PUSH2 0x8BB SWAP1 PUSH2 0x4B02 JUMP JUMPDEST DUP1 PUSH1 0x1F ADD PUSH1 0x20 DUP1 SWAP2 DIV MUL PUSH1 0x20 ADD PUSH1 0x40 MLOAD SWAP1 DUP2 ADD PUSH1 0x40 MSTORE DUP1 SWAP3 SWAP2 SWAP1 DUP2 DUP2 MSTORE PUSH1 0x20 ADD DUP3 DUP1 SLOAD PUSH2 0x8E7 SWAP1 PUSH2 0x4B02 JUMP JUMPDEST DUP1 ISZERO PUSH2 0x932 JUMPI DUP1 PUSH1 0x1F LT PUSH2 0x909 JUMPI PUSH2 0x100 DUP1 DUP4 SLOAD DIV MUL DUP4 MSTORE SWAP2 PUSH1 0x20 ADD SWAP2 PUSH2 0x932 JUMP JUMPDEST DUP3 ADD SWAP2 SWAP1 PUSH0 MSTORE PUSH1 0x20 PUSH0 KECCAK256 SWAP1 JUMPDEST DUP2 SLOAD DUP2 MSTORE SWAP1 PUSH1 0x1 ADD SWAP1 PUSH1 0x20 ADD DUP1 DUP4 GT PUSH2 0x915 JUMPI DUP3 SWAP1 SUB PUSH1 0x1F AND DUP3 ADD SWAP2 JUMPDEST POP POP POP POP POP DUP2 MSTORE PUSH1 0x20 ADD PUSH1 0x6 DUP3 ADD SLOAD DUP2 MSTORE PUSH1 0x20 ADD PUSH1 0x7 DUP3 ADD SLOAD DUP2 MSTORE PUSH1 0x20 ADD PUSH1 0x8 DUP3 ADD PUSH0 SWAP1 SLOAD SWAP1 PUSH2 0x100 EXP SWAP1 DIV PUSH1 0xFF AND PUSH1 0x6 DUP2 GT ISZERO PUSH2 0x973 JUMPI PUSH2 0x972 PUSH2 0x3BB2 JUMP JUMPDEST JUMPDEST PUSH1 0x6 DUP2 GT ISZERO PUSH2 0x985 JUMPI PUSH2 0x984 PUSH2 0x3BB2 JUMP JUMPDEST JUMPDEST DUP2 MSTORE PUSH1 0x20 ADD PUSH1 0x9 DUP3 ADD DUP1 SLOAD DUP1 PUSH1 0x20 MUL PUSH1 0x20 ADD PUSH1 0x40 MLOAD SWAP1 DUP2 ADD PUSH1 0x40 MSTORE DUP1 SWAP3 SWAP2 SWAP1 DUP2 DUP2 MSTORE PUSH1 0x20 ADD DUP3 DUP1 SLOAD DUP1 ISZERO PUSH2 0x9D6 JUMPI PUSH1 0x20 MUL DUP3 ADD SWAP2 SWAP1 PUSH0 MSTORE PUSH1 0x20 PUSH0 KECCAK256 SWAP1 JUMPDEST DUP2 SLOAD DUP2 MSTORE PUSH1 0x20 ADD SWAP1 PUSH1 0x1 ADD SWAP1 DUP1 DUP4 GT PUSH2 0x9C2 JUMPI JUMPDEST POP POP POP POP POP DUP2 MSTORE PUSH1 0x20 ADD PUSH1 0xA DUP3 ADD DUP1 SLOAD DUP1 PUSH1 0x20 MUL PUSH1 0x20 ADD PUSH1 0x40 MLOAD SWAP1 DUP2 ADD PUSH1 0x40 MSTORE DUP1 SWAP3 SWAP2 SWAP1 DUP2 DUP2 MSTORE PUSH1 0x20 ADD DUP3 DUP1 SLOAD DUP1 ISZERO PUSH2 0xA2C JUMPI PUSH1 0x20 MUL DUP3 ADD SWAP2 SWAP1 PUSH0 MSTORE PUSH1 0x20 PUSH0 KECCAK256 SWAP1 JUMPDEST DUP2 SLOAD DUP2 MSTORE PUSH1 0x20 ADD SWAP1 PUSH1 0x1 ADD SWAP1 DUP1 DUP4 GT PUSH2 0xA18 JUMPI JUMPDEST POP POP POP POP POP DUP2 MSTORE PUSH1 0x20 ADD PUSH1 0xB DUP3 ADD PUSH0 SWAP1 SLOAD SWAP1 PUSH2 0x100 EXP SWAP1 DIV PUSH1 0xFF AND ISZERO ISZERO ISZERO ISZERO DUP2 MSTORE POP POP SWAP1 POP SWAP2 SWAP1 POP JUMP JUMPDEST PUSH0 PUSH2 0xA5F PUSH2 0x3431 JUMP JUMPDEST DUP6 PUSH2 0xA69 DUP2 PUSH2 0x34B6 JUMP JUMPDEST PUSH1 0xA PUSH0 CALLER PUSH20 0xFFFFFFFFFFFFFFFFFFFFFFFFFFFFFFFFFFFFFFFF AND PUSH20 0xFFFFFFFFFFFFFFFFFFFFFFFFFFFFFFFFFFFFFFFF AND DUP2 MSTORE PUSH1 0x20 ADD SWAP1 DUP2 MSTORE PUSH1 0x20 ADD PUSH0 KECCAK256 PUSH0 DUP9 DUP2 MSTORE PUSH1 0x20 ADD SWAP1 DUP2 MSTORE PUSH1 0x20 ADD PUSH0 KECCAK256 PUSH0 SWAP1 SLOAD SWAP1 PUSH2 0x100 EXP SWAP1 DIV PUSH1 0xFF AND PUSH2 0xAF8 JUMPI PUSH1 0x40 MLOAD PUSH32 0xD40C3D2100000000000000000000000000000000000000000000000000000000 DUP2 MSTORE PUSH1 0x4 ADD PUSH1 0x40 MLOAD DUP1 SWAP2 SUB SWAP1 REVERT JUMPDEST PUSH0 PUSH1 0x5 PUSH0 DUP10 DUP2 MSTORE PUSH1 0x20 ADD SWAP1 DUP2 MSTORE PUSH1 0x20 ADD PUSH0 KECCAK256 SWAP1 POP PUSH1 0xC8 DUP2 PUSH1 0x9 ADD DUP1 SLOAD SWAP1 POP LT PUSH2 0xB4D JUMPI PUSH1 0x40 MLOAD PUSH32 0x3CA72E7800000000000000000000000000000000000000000000000000000000 DUP2 MSTORE PUSH1 0x4 ADD PUSH1 0x40 MLOAD DUP1 SWAP2 SUB SWAP1 REVERT JUMPDEST PUSH0 PUSH1 0x3 PUSH0 DUP2 SLOAD DUP1 SWAP3 SWAP2 SWAP1 PUSH2 0xB60 SWAP1 PUSH2 0x4B5F JUMP JUMPDEST SWAP2 SWAP1 POP SSTORE SWAP1 POP PUSH1 0x40 MLOAD DUP1 PUSH2 0x100 ADD PUSH1 0x40 MSTORE DUP1 DUP3 DUP2 MSTORE PUSH1 0x20 ADD DUP11 DUP2 MSTORE PUSH1 0x20 ADD CALLER PUSH20 0xFFFFFFFFFFFFFFFFFFFFFFFFFFFFFFFFFFFFFFFF AND DUP2 MSTORE PUSH1 0x20 ADD DUP10 DUP2 MSTORE PUSH1 0x20 ADD DUP9 PUSH1 0x4 DUP2 GT ISZERO PUSH2 0xBB3 JUMPI PUSH2 0xBB2 PUSH2 0x3BB2 JUMP JUMPDEST JUMPDEST DUP2 MSTORE PUSH1 0x20 ADD TIMESTAMP DUP2 MSTORE PUSH1 0x20 ADD DUP8 DUP2 MSTORE PUSH1 0x20 ADD DUP7 DUP2 MSTORE POP PUSH1 0x6 PUSH0 DUP4 DUP2 MSTORE PUSH1 0x20 ADD SWAP1 DUP2 MSTORE PUSH1 0x20 ADD PUSH0 KECCAK256 PUSH0 DUP3 ADD MLOAD DUP2 PUSH0 ADD SSTORE PUSH1 0x20 DUP3 ADD MLOAD DUP2 PUSH1 0x1 ADD SSTORE PUSH1 0x40 DUP3 ADD MLOAD DUP2 PUSH1 0x2 ADD PUSH0 PUSH2 0x100 EXP DUP2 SLOAD DUP2 PUSH20 0xFFFFFFFFFFFFFFFFFFFFFFFFFFFFFFFFFFFFFFFF MUL NOT AND SWAP1 DUP4 PUSH20 0xFFFFFFFFFFFFFFFFFFFFFFFFFFFFFFFFFFFFFFFF AND MUL OR SWAP1 SSTORE POP PUSH1 0x60 DUP3 ADD MLOAD DUP2 PUSH1 0x3 ADD SWAP1 DUP2 PUSH2 0xC46 SWAP2 SWAP1 PUSH2 0x4D46 JUMP JUMPDEST POP PUSH1 0x80 DUP3 ADD MLOAD DUP2 PUSH1 0x4 ADD PUSH0 PUSH2 0x100 EXP DUP2 SLOAD DUP2 PUSH1 0xFF MUL NOT AND SWAP1 DUP4 PUSH1 0x4 DUP2 GT ISZERO PUSH2 0xC71 JUMPI PUSH2 0xC70 PUSH2 0x3BB2 JUMP JUMPDEST JUMPDEST MUL OR SWAP1 SSTORE POP PUSH1 0xA0 DUP3 ADD MLOAD DUP2 PUSH1 0x5 ADD SSTORE PUSH1 0xC0 DUP3 ADD MLOAD DUP2 PUSH1 0x6 ADD SWAP1 DUP2 PUSH2 0xC95 SWAP2 SWAP1 PUSH2 0x4D46 JUMP JUMPDEST POP PUSH1 0xE0 DUP3 ADD MLOAD DUP2 PUSH1 0x7 ADD SSTORE SWAP1 POP POP DUP2 PUSH1 0x9 ADD DUP2 SWAP1 DUP1 PUSH1 0x1 DUP2 SLOAD ADD DUP1 DUP3 SSTORE DUP1 SWAP2 POP POP PUSH1 0x1 SWAP1 SUB SWAP1 PUSH0 MSTORE PUSH1 0x20 PUSH0 KECCAK256 ADD PUSH0 SWAP1 SWAP2 SWAP1 SWAP2 SWAP1 SWAP2 POP SSTORE DUP2 PUSH1 0xB ADD PUSH0 SWAP1 SLOAD SWAP1 PUSH2 0x100 EXP SWAP1 DIV PUSH1 0xFF AND DUP1 ISZERO PUSH2 0xD08 JUMPI POP PUSH32 0x8000000000000000000000000000000000000000000000000000000000000000 DUP6 EQ ISZERO JUMPDEST DUP1 ISZERO PUSH2 0xD1F JUMPI POP PUSH1 0x50 DUP6 SGT DUP1 PUSH2 0xD1E JUMPI POP PUSH1 0x14 DUP6 SLT JUMPDEST JUMPDEST ISZERO PUSH2 0xD67 JUMPI PUSH2 0xD65 DUP10 PUSH1 0x3 PUSH1 0x40 MLOAD DUP1 PUSH1 0x40 ADD PUSH1 0x40 MSTORE DUP1 PUSH1 0x18 DUP2 MSTORE PUSH1 0x20 ADD PUSH32 0x54656D7065726174757265206F7574206F662072616E67650000000000000000 DUP2 MSTORE POP PUSH2 0x350B JUMP JUMPDEST POP JUMPDEST DUP9 DUP2 PUSH32 0x529E5C9E24A307575814835CF69244181F51BC2AE08B95B8C8459D652A7EE9CF DUP10 CALLER PUSH1 0x40 MLOAD PUSH2 0xD9A SWAP3 SWAP2 SWAP1 PUSH2 0x4E24 JUMP JUMPDEST PUSH1 0x40 MLOAD DUP1 SWAP2 SUB SWAP1 LOG3 DUP1 SWAP4 POP POP POP POP SWAP6 SWAP5 POP POP POP POP POP JUMP JUMPDEST PUSH1 0x1 PUSH0 SWAP1 SLOAD SWAP1 PUSH2 0x100 EXP SWAP1 DIV PUSH20 0xFFFFFFFFFFFFFFFFFFFFFFFFFFFFFFFFFFFFFFFF AND PUSH20 0xFFFFFFFFFFFFFFFFFFFFFFFFFFFFFFFFFFFFFFFF AND CALLER PUSH20 0xFFFFFFFFFFFFFFFFFFFFFFFFFFFFFFFFFFFFFFFF AND EQ PUSH2 0xE37 JUMPI PUSH1 0x40 MLOAD PUSH32 0x58D9A1B00000000000000000000000000000000000000000000000000000000 DUP2 MSTORE PUSH1 0x4 ADD PUSH1 0x40 MLOAD DUP1 SWAP2 SUB SWAP1 REVERT JUMPDEST CALLER PUSH0 PUSH0 PUSH2 0x100 EXP DUP2 SLOAD DUP2 PUSH20 0xFFFFFFFFFFFFFFFFFFFFFFFFFFFFFFFFFFFFFFFF MUL NOT AND SWAP1 DUP4 PUSH20 0xFFFFFFFFFFFFFFFFFFFFFFFFFFFFFFFFFFFFFFFF AND MUL OR SWAP1 SSTORE POP PUSH0 PUSH1 0x1 PUSH0 PUSH2 0x100 EXP DUP2 SLOAD DUP2 PUSH20 0xFFFFFFFFFFFFFFFFFFFFFFFFFFFFFFFFFFFFFFFF MUL NOT AND SWAP1 DUP4 PUSH20 0xFFFFFFFFFFFFFFFFFFFFFFFFFFFFFFFFFFFFFFFF AND MUL OR SWAP1 SSTORE POP CALLER PUSH20 0xFFFFFFFFFFFFFFFFFFFFFFFFFFFFFFFFFFFFFFFF AND PUSH32 0x24A7C28D8EDC5CCD4EF428EBC1DCE34762FE38B7FDCCA1F3F20C818F04DEB156 PUSH1 0x40 MLOAD PUSH1 0x40 MLOAD DUP1 SWAP2 SUB SWAP1 LOG2 JUMP JUMPDEST PUSH0 PUSH1 0x4 SLOAD SWAP1 POP SWAP1 JUMP JUMPDEST PUSH2 0xF0C PUSH2 0x371F JUMP JUMPDEST PUSH0 PUSH20 0xFFFFFFFFFFFFFFFFFFFFFFFFFFFFFFFFFFFFFFFF AND DUP2 PUSH20 0xFFFFFFFFFFFFFFFFFFFFFFFFFFFFFFFFFFFFFFFF AND SUB PUSH2 0xF71 JUMPI PUSH1 0x40 MLOAD PUSH32 0xE6C4247B00000000000000000000000000000000000000000000000000000000 DUP2 MSTORE PUSH1 0x4 ADD PUSH1 0x40 MLOAD DUP1 SWAP2 SUB SWAP1 REVERT JUMPDEST DUP1 PUSH1 0x1 PUSH0 PUSH2 0x100 EXP DUP2 SLOAD DUP2 PUSH20 0xFFFFFFFFFFFFFFFFFFFFFFFFFFFFFFFFFFFFFFFF MUL NOT AND SWAP1 DUP4 PUSH20 0xFFFFFFFFFFFFFFFFFFFFFFFFFFFFFFFFFFFFFFFF AND MUL OR SWAP1 SSTORE POP DUP1 PUSH20 0xFFFFFFFFFFFFFFFFFFFFFFFFFFFFFFFFFFFFFFFF AND PUSH32 0xD3695F12C05BEA129B5971FED99014A4EFD003A3A8B45D6952B74FBD31D85D8A PUSH1 0x40 MLOAD PUSH1 0x40 MLOAD DUP1 SWAP2 SUB SWAP1 LOG2 POP JUMP JUMPDEST PUSH1 0x60 DUP4 PUSH2 0x1003 DUP2 PUSH2 0x34B6 JUMP JUMPDEST PUSH0 PUSH1 0x5 PUSH0 DUP8 DUP2 MSTORE PUSH1 0x20 ADD SWAP1 DUP2 MSTORE PUSH1 0x20 ADD PUSH0 KECCAK256 PUSH1 0x9 ADD SWAP1 POP PUSH0 DUP2 DUP1 SLOAD SWAP1 POP SWAP1 POP DUP1 DUP7 LT PUSH2 0x1086 JUMPI PUSH0 PUSH8 0xFFFFFFFFFFFFFFFF DUP2 GT ISZERO PUSH2 0x1043 JUMPI PUSH2 0x1042 PUSH2 0x3E2C JUMP JUMPDEST JUMPDEST PUSH1 0x40 MLOAD SWAP1 DUP1 DUP3 MSTORE DUP1 PUSH1 0x20 MUL PUSH1 0x20 ADD DUP3 ADD PUSH1 0x40 MSTORE DUP1 ISZERO PUSH2 0x107C JUMPI DUP2 PUSH1 0x20 ADD JUMPDEST PUSH2 0x1069 PUSH2 0x3967 JUMP JUMPDEST DUP2 MSTORE PUSH1 0x20 ADD SWAP1 PUSH1 0x1 SWAP1 SUB SWAP1 DUP2 PUSH2 0x1061 JUMPI SWAP1 POP JUMPDEST POP SWAP4 POP POP POP PUSH2 0x136A JUMP JUMPDEST PUSH0 DUP2 DUP7 DUP9 PUSH2 0x1094 SWAP2 SWAP1 PUSH2 0x4E4B JUMP JUMPDEST GT PUSH2 0x10AA JUMPI DUP6 DUP8 PUSH2 0x10A5 SWAP2 SWAP1 PUSH2 0x4E4B JUMP JUMPDEST PUSH2 0x10AC JUMP JUMPDEST DUP2 JUMPDEST SWAP1 POP PUSH0 DUP8 DUP3 PUSH2 0x10BB SWAP2 SWAP1 PUSH2 0x4E7E JUMP JUMPDEST PUSH8 0xFFFFFFFFFFFFFFFF DUP2 GT ISZERO PUSH2 0x10D4 JUMPI PUSH2 0x10D3 PUSH2 0x3E2C JUMP JUMPDEST JUMPDEST PUSH1 0x40 MLOAD SWAP1 DUP1 DUP3 MSTORE DUP1 PUSH1 0x20 MUL PUSH1 0x20 ADD DUP3 ADD PUSH1 0x40 MSTORE DUP1 ISZERO PUSH2 0x110D JUMPI DUP2 PUSH1 0x20 ADD JUMPDEST PUSH2 0x10FA PUSH2 0x3967 JUMP JUMPDEST DUP2 MSTORE PUSH1 0x20 ADD SWAP1 PUSH1 0x1 SWAP1 SUB SWAP1 DUP2 PUSH2 0x10F2 JUMPI SWAP1 POP JUMPDEST POP SWAP1 POP PUSH0 DUP9 SWAP1 POP JUMPDEST DUP3 DUP2 LT ISZERO PUSH2 0x1361 JUMPI PUSH1 0x6 PUSH0 DUP7 DUP4 DUP2 SLOAD DUP2 LT PUSH2 0x1133 JUMPI PUSH2 0x1132 PUSH2 0x4EB1 JUMP JUMPDEST JUMPDEST SWAP1 PUSH0 MSTORE PUSH1 0x20 PUSH0 KECCAK256 ADD SLOAD DUP2 MSTORE PUSH1 0x20 ADD SWAP1 DUP2 MSTORE PUSH1 0x20 ADD PUSH0 KECCAK256 PUSH1 0x40 MLOAD DUP1 PUSH2 0x100 ADD PUSH1 0x40 MSTORE SWAP1 DUP2 PUSH0 DUP3 ADD SLOAD DUP2 MSTORE PUSH1 0x20 ADD PUSH1 0x1 DUP3 ADD SLOAD DUP2 MSTORE PUSH1 0x20 ADD PUSH1 0x2 DUP3 ADD PUSH0 SWAP1 SLOAD SWAP1 PUSH2 0x100 EXP SWAP1 DIV PUSH20 0xFFFFFFFFFFFFFFFFFFFFFFFFFFFFFFFFFFFFFFFF AND PUSH20 0xFFFFFFFFFFFFFFFFFFFFFFFFFFFFFFFFFFFFFFFF AND PUSH20 0xFFFFFFFFFFFFFFFFFFFFFFFFFFFFFFFFFFFFFFFF AND DUP2 MSTORE PUSH1 0x20 ADD PUSH1 0x3 DUP3 ADD DUP1 SLOAD PUSH2 0x11CD SWAP1 PUSH2 0x4B02 JUMP JUMPDEST DUP1 PUSH1 0x1F ADD PUSH1 0x20 DUP1 SWAP2 DIV MUL PUSH1 0x20 ADD PUSH1 0x40 MLOAD SWAP1 DUP2 ADD PUSH1 0x40 MSTORE DUP1 SWAP3 SWAP2 SWAP1 DUP2 DUP2 MSTORE PUSH1 0x20 ADD DUP3 DUP1 SLOAD PUSH2 0x11F9 SWAP1 PUSH2 0x4B02 JUMP JUMPDEST DUP1 ISZERO PUSH2 0x1244 JUMPI DUP1 PUSH1 0x1F LT PUSH2 0x121B JUMPI PUSH2 0x100 DUP1 DUP4 SLOAD DIV MUL DUP4 MSTORE SWAP2 PUSH1 0x20 ADD SWAP2 PUSH2 0x1244 JUMP JUMPDEST DUP3 ADD SWAP2 SWAP1 PUSH0 MSTORE PUSH1 0x20 PUSH0 KECCAK256 SWAP1 JUMPDEST DUP2 SLOAD DUP2 MSTORE SWAP1 PUSH1 0x1 ADD SWAP1 PUSH1 0x20 ADD DUP1 DUP4 GT PUSH2 0x1227 JUMPI DUP3 SWAP1 SUB PUSH1 0x1F AND DUP3 ADD SWAP2 JUMPDEST POP POP POP POP POP DUP2 MSTORE PUSH1 0x20 ADD PUSH1 0x4 DUP3 ADD PUSH0 SWAP1 SLOAD SWAP1 PUSH2 0x100 EXP SWAP1 DIV PUSH1 0xFF AND PUSH1 0x4 DUP2 GT ISZERO PUSH2 0x1271 JUMPI PUSH2 0x1270 PUSH2 0x3BB2 JUMP JUMPDEST JUMPDEST PUSH1 0x4 DUP2 GT ISZERO PUSH2 0x1283 JUMPI PUSH2 0x1282 PUSH2 0x3BB2 JUMP JUMPDEST JUMPDEST DUP2 MSTORE PUSH1 0x20 ADD PUSH1 0x5 DUP3 ADD SLOAD DUP2 MSTORE PUSH1 0x20 ADD PUSH1 0x6 DUP3 ADD DUP1 SLOAD PUSH2 0x12A1 SWAP1 PUSH2 0x4B02 JUMP JUMPDEST DUP1 PUSH1 0x1F ADD PUSH1 0x20 DUP1 SWAP2 DIV MUL PUSH1 0x20 ADD PUSH1 0x40 MLOAD SWAP1 DUP2 ADD PUSH1 0x40 MSTORE DUP1 SWAP3 SWAP2 SWAP1 DUP2 DUP2 MSTORE PUSH1 0x20 ADD DUP3 DUP1 SLOAD PUSH2 0x12CD SWAP1 PUSH2 0x4B02 JUMP JUMPDEST DUP1 ISZERO PUSH2 0x1318 JUMPI DUP1 PUSH1 0x1F LT PUSH2 0x12EF JUMPI PUSH2 0x100 DUP1 DUP4 SLOAD DIV MUL DUP4 MSTORE SWAP2 PUSH1 0x20 ADD SWAP2 PUSH2 0x1318 JUMP JUMPDEST DUP3 ADD SWAP2 SWAP1 PUSH0 MSTORE PUSH1 0x20 PUSH0 KECCAK256 SWAP1 JUMPDEST DUP2 SLOAD DUP2 MSTORE SWAP1 PUSH1 0x1 ADD SWAP1 PUSH1 0x20 ADD DUP1 DUP4 GT PUSH2 0x12FB JUMPI DUP3 SWAP1 SUB PUSH1 0x1F AND DUP3 ADD SWAP2 JUMPDEST POP POP POP POP POP DUP2 MSTORE PUSH1 0x20 ADD PUSH1 0x7 DUP3 ADD SLOAD DUP2 MSTORE POP POP DUP3 DUP11 DUP4 PUSH2 0x1338 SWAP2 SWAP1 PUSH2 0x4E7E JUMP JUMPDEST DUP2 MLOAD DUP2 LT PUSH2 0x1349 JUMPI PUSH2 0x1348 PUSH2 0x4EB1 JUMP JUMPDEST JUMPDEST PUSH1 0x20 MUL PUSH1 0x20 ADD ADD DUP2 SWAP1 MSTORE POP DUP1 DUP1 PUSH1 0x1 ADD SWAP2 POP POP PUSH2 0x1115 JUMP JUMPDEST POP DUP1 SWAP6 POP POP POP POP POP JUMPDEST POP SWAP4 SWAP3 POP POP POP JUMP JUMPDEST PUSH2 0x137A PUSH2 0x3967 JUMP JUMPDEST PUSH0 DUP3 EQ DUP1 PUSH2 0x138A JUMPI POP PUSH1 0x3 SLOAD DUP3 LT ISZERO JUMPDEST ISZERO PUSH2 0x13CC JUMPI DUP2 PUSH1 0x40 MLOAD PUSH32 0x22BC9CAA00000000000000000000000000000000000000000000000000000000 DUP2 MSTORE PUSH1 0x4 ADD PUSH2 0x13C3 SWAP2 SWAP1 PUSH2 0x4064 JUMP JUMPDEST PUSH1 0x40 MLOAD DUP1 SWAP2 SUB SWAP1 REVERT JUMPDEST PUSH1 0x6 PUSH0 DUP4 DUP2 MSTORE PUSH1 0x20 ADD SWAP1 DUP2 MSTORE PUSH1 0x20 ADD PUSH0 KECCAK256 PUSH1 0x40 MLOAD DUP1 PUSH2 0x100 ADD PUSH1 0x40 MSTORE SWAP1 DUP2 PUSH0 DUP3 ADD SLOAD DUP2 MSTORE PUSH1 0x20 ADD PUSH1 0x1 DUP3 ADD SLOAD DUP2 MSTORE PUSH1 0x20 ADD PUSH1 0x2 DUP3 ADD PUSH0 SWAP1 SLOAD SWAP1 PUSH2 0x100 EXP SWAP1 DIV PUSH20 0xFFFFFFFFFFFFFFFFFFFFFFFFFFFFFFFFFFFFFFFF AND PUSH20 0xFFFFFFFFFFFFFFFFFFFFFFFFFFFFFFFFFFFFFFFF AND PUSH20 0xFFFFFFFFFFFFFFFFFFFFFFFFFFFFFFFFFFFFFFFF AND DUP2 MSTORE PUSH1 0x20 ADD PUSH1 0x3 DUP3 ADD DUP1 SLOAD PUSH2 0x1461 SWAP1 PUSH2 0x4B02 JUMP JUMPDEST DUP1 PUSH1 0x1F ADD PUSH1 0x20 DUP1 SWAP2 DIV MUL PUSH1 0x20 ADD PUSH1 0x40 MLOAD SWAP1 DUP2 ADD PUSH1 0x40 MSTORE DUP1 SWAP3 SWAP2 SWAP1 DUP2 DUP2 MSTORE PUSH1 0x20 ADD DUP3 DUP1 SLOAD PUSH2 0x148D SWAP1 PUSH2 0x4B02 JUMP JUMPDEST DUP1 ISZERO PUSH2 0x14D8 JUMPI DUP1 PUSH1 0x1F LT PUSH2 0x14AF JUMPI PUSH2 0x100 DUP1 DUP4 SLOAD DIV MUL DUP4 MSTORE SWAP2 PUSH1 0x20 ADD SWAP2 PUSH2 0x14D8 JUMP JUMPDEST DUP3 ADD SWAP2 SWAP1 PUSH0 MSTORE PUSH1 0x20 PUSH0 KECCAK256 SWAP1 JUMPDEST DUP2 SLOAD DUP2 MSTORE SWAP1 PUSH1 0x1 ADD SWAP1 PUSH1 0x20 ADD DUP1 DUP4 GT PUSH2 0x14BB JUMPI DUP3 SWAP1 SUB PUSH1 0x1F AND DUP3 ADD SWAP2 JUMPDEST POP POP POP POP POP DUP2 MSTORE PUSH1 0x20 ADD PUSH1 0x4 DUP3 ADD PUSH0 SWAP1 SLOAD SWAP1 PUSH2 0x100 EXP SWAP1 DIV PUSH1 0xFF AND PUSH1 0x4 DUP2 GT ISZERO PUSH2 0x1505 JUMPI PUSH2 0x1504 PUSH2 0x3BB2 JUMP JUMPDEST JUMPDEST PUSH1 0x4 DUP2 GT ISZERO PUSH2 0x1517 JUMPI PUSH2 0x1516 PUSH2 0x3BB2 JUMP JUMPDEST JUMPDEST DUP2 MSTORE PUSH1 0x20 ADD PUSH1 0x5 DUP3 ADD SLOAD DUP2 MSTORE PUSH1 0x20 ADD PUSH1 0x6 DUP3 ADD DUP1 SLOAD PUSH2 0x1535 SWAP1 PUSH2 0x4B02 JUMP JUMPDEST DUP1 PUSH1 0x1F ADD PUSH1 0x20 DUP1 SWAP2 DIV MUL PUSH1 0x20 ADD PUSH1 0x40 MLOAD SWAP1 DUP2 ADD PUSH1 0x40 MSTORE DUP1 SWAP3 SWAP2 SWAP1 DUP2 DUP2 MSTORE PUSH1 0x20 ADD DUP3 DUP1 SLOAD PUSH2 0x1561 SWAP1 PUSH2 0x4B02 JUMP JUMPDEST DUP1 ISZERO PUSH2 0x15AC JUMPI DUP1 PUSH1 0x1F LT PUSH2 0x1583 JUMPI PUSH2 0x100 DUP1 DUP4 SLOAD DIV MUL DUP4 MSTORE SWAP2 PUSH1 0x20 ADD SWAP2 PUSH2 0x15AC JUMP JUMPDEST DUP3 ADD SWAP2 SWAP1 PUSH0 MSTORE PUSH1 0x20 PUSH0 KECCAK256 SWAP1 JUMPDEST DUP2 SLOAD DUP2 MSTORE SWAP1 PUSH1 0x1 ADD SWAP1 PUSH1 0x20 ADD DUP1 DUP4 GT PUSH2 0x158F JUMPI DUP3 SWAP1 SUB PUSH1 0x1F AND DUP3 ADD SWAP2 JUMPDEST POP POP POP POP POP DUP2 MSTORE PUSH1 0x20 ADD PUSH1 0x7 DUP3 ADD SLOAD DUP2 MSTORE POP POP SWAP1 POP SWAP2 SWAP1 POP JUMP JUMPDEST PUSH0 PUSH1 0x3 SLOAD SWAP1 POP SWAP1 JUMP JUMPDEST PUSH1 0x1 PUSH0 SWAP1 SLOAD SWAP1 PUSH2 0x100 EXP SWAP1 DIV PUSH20 0xFFFFFFFFFFFFFFFFFFFFFFFFFFFFFFFFFFFFFFFF AND DUP2 JUMP JUMPDEST PUSH32 0x8000000000000000000000000000000000000000000000000000000000000000 DUP2 JUMP JUMPDEST PUSH1 0x32 DUP2 JUMP JUMPDEST PUSH2 0x1625 PUSH2 0x39CE JUMP JUMPDEST PUSH1 0x8 PUSH0 DUP4 PUSH20 0xFFFFFFFFFFFFFFFFFFFFFFFFFFFFFFFFFFFFFFFF AND PUSH20 0xFFFFFFFFFFFFFFFFFFFFFFFFFFFFFFFFFFFFFFFF AND DUP2 MSTORE PUSH1 0x20 ADD SWAP1 DUP2 MSTORE PUSH1 0x20 ADD PUSH0 KECCAK256 PUSH1 0x40 MLOAD DUP1 PUSH1 0xA0 ADD PUSH1 0x40 MSTORE SWAP1 DUP2 PUSH0 DUP3 ADD PUSH0 SWAP1 SLOAD SWAP1 PUSH2 0x100 EXP SWAP1 DIV PUSH20 0xFFFFFFFFFFFFFFFFFFFFFFFFFFFFFFFFFFFFFFFF AND PUSH20 0xFFFFFFFFFFFFFFFFFFFFFFFFFFFFFFFFFFFFFFFF AND PUSH20 0xFFFFFFFFFFFFFFFFFFFFFFFFFFFFFFFFFFFFFFFF AND DUP2 MSTORE PUSH1 0x20 ADD PUSH1 0x1 DUP3 ADD DUP1 SLOAD PUSH2 0x16D1 SWAP1 PUSH2 0x4B02 JUMP JUMPDEST DUP1 PUSH1 0x1F ADD PUSH1 0x20 DUP1 SWAP2 DIV MUL PUSH1 0x20 ADD PUSH1 0x40 MLOAD SWAP1 DUP2 ADD PUSH1 0x40 MSTORE DUP1 SWAP3 SWAP2 SWAP1 DUP2 DUP2 MSTORE PUSH1 0x20 ADD DUP3 DUP1 SLOAD PUSH2 0x16FD SWAP1 PUSH2 0x4B02 JUMP JUMPDEST DUP1 ISZERO PUSH2 0x1748 JUMPI DUP1 PUSH1 0x1F LT PUSH2 0x171F JUMPI PUSH2 0x100 DUP1 DUP4 SLOAD DIV MUL DUP4 MSTORE SWAP2 PUSH1 0x20 ADD SWAP2 PUSH2 0x1748 JUMP JUMPDEST DUP3 ADD SWAP2 SWAP1 PUSH0 MSTORE PUSH1 0x20 PUSH0 KECCAK256 SWAP1 JUMPDEST DUP2 SLOAD DUP2 MSTORE SWAP1 PUSH1 0x1 ADD SWAP1 PUSH1 0x20 ADD DUP1 DUP4 GT PUSH2 0x172B JUMPI DUP3 SWAP1 SUB PUSH1 0x1F AND DUP3 ADD SWAP2 JUMPDEST POP POP POP POP POP DUP2 MSTORE PUSH1 0x20 ADD PUSH1 0x2 DUP3 ADD PUSH0 SWAP1 SLOAD SWAP1 PUSH2 0x100 EXP SWAP1 DIV PUSH1 0xFF AND PUSH1 0x5 DUP2 GT ISZERO PUSH2 0x1775 JUMPI PUSH2 0x1774 PUSH2 0x3BB2 JUMP JUMPDEST JUMPDEST PUSH1 0x5 DUP2 GT ISZERO PUSH2 0x1787 JUMPI PUSH2 0x1786 PUSH2 0x3BB2 JUMP JUMPDEST JUMPDEST DUP2 MSTORE PUSH1 0x20 ADD PUSH1 0x3 DUP3 ADD DUP1 SLOAD PUSH2 0x179B SWAP1 PUSH2 0x4B02 JUMP JUMPDEST DUP1 PUSH1 0x1F ADD PUSH1 0x20 DUP1 SWAP2 DIV MUL PUSH1 0x20 ADD PUSH1 0x40 MLOAD SWAP1 DUP2 ADD PUSH1 0x40 MSTORE DUP1 SWAP3 SWAP2 SWAP1 DUP2 DUP2 MSTORE PUSH1 0x20 ADD DUP3 DUP1 SLOAD PUSH2 0x17C7 SWAP1 PUSH2 0x4B02 JUMP JUMPDEST DUP1 ISZERO PUSH2 0x1812 JUMPI DUP1 PUSH1 0x1F LT PUSH2 0x17E9 JUMPI PUSH2 0x100 DUP1 DUP4 SLOAD DIV MUL DUP4 MSTORE SWAP2 PUSH1 0x20 ADD SWAP2 PUSH2 0x1812 JUMP JUMPDEST DUP3 ADD SWAP2 SWAP1 PUSH0 MSTORE PUSH1 0x20 PUSH0 KECCAK256 SWAP1 JUMPDEST DUP2 SLOAD DUP2 MSTORE SWAP1 PUSH1 0x1 ADD SWAP1 PUSH1 0x20 ADD DUP1 DUP4 GT PUSH2 0x17F5 JUMPI DUP3 SWAP1 SUB PUSH1 0x1F AND DUP3 ADD SWAP2 JUMPDEST POP POP POP POP POP DUP2 MSTORE PUSH1 0x20 ADD PUSH1 0x4 DUP3 ADD PUSH0 SWAP1 SLOAD SWAP1 PUSH2 0x100 EXP SWAP1 DIV PUSH1 0xFF AND ISZERO ISZERO ISZERO ISZERO DUP2 MSTORE POP POP SWAP1 POP SWAP2 SWAP1 POP JUMP JUMPDEST PUSH0 PUSH2 0x1845 PUSH2 0x3431 JUMP JUMPDEST PUSH1 0x1 PUSH1 0x5 DUP2 GT ISZERO PUSH2 0x1859 JUMPI PUSH2 0x1858 PUSH2 0x3BB2 JUMP JUMPDEST JUMPDEST PUSH1 0x8 PUSH0 CALLER PUSH20 0xFFFFFFFFFFFFFFFFFFFFFFFFFFFFFFFFFFFFFFFF AND PUSH20 0xFFFFFFFFFFFFFFFFFFFFFFFFFFFFFFFFFFFFFFFF AND DUP2 MSTORE PUSH1 0x20 ADD SWAP1 DUP2 MSTORE PUSH1 0x20 ADD PUSH0 KECCAK256 PUSH1 0x2 ADD PUSH0 SWAP1 SLOAD SWAP1 PUSH2 0x100 EXP SWAP1 DIV PUSH1 0xFF AND PUSH1 0x5 DUP2 GT ISZERO PUSH2 0x18B8 JUMPI PUSH2 0x18B7 PUSH2 0x3BB2 JUMP JUMPDEST JUMPDEST EQ PUSH2 0x18EF JUMPI PUSH1 0x40 MLOAD PUSH32 0xF5B4341500000000000000000000000000000000000000000000000000000000 DUP2 MSTORE PUSH1 0x4 ADD PUSH1 0x40 MLOAD DUP1 SWAP2 SUB SWAP1 REVERT JUMPDEST PUSH0 PUSH1 0x2 PUSH0 DUP2 SLOAD DUP1 SWAP3 SWAP2 SWAP1 PUSH2 0x1902 SWAP1 PUSH2 0x4B5F JUMP JUMPDEST SWAP2 SWAP1 POP SSTORE SWAP1 POP PUSH0 PUSH1 0x5 PUSH0 DUP4 DUP2 MSTORE PUSH1 0x20 ADD SWAP1 DUP2 MSTORE PUSH1 0x20 ADD PUSH0 KECCAK256 SWAP1 POP DUP2 DUP2 PUSH0 ADD DUP2 SWAP1 SSTORE POP CALLER DUP2 PUSH1 0x1 ADD PUSH0 PUSH2 0x100 EXP DUP2 SLOAD DUP2 PUSH20 0xFFFFFFFFFFFFFFFFFFFFFFFFFFFFFFFFFFFFFFFF MUL NOT AND SWAP1 DUP4 PUSH20 0xFFFFFFFFFFFFFFFFFFFFFFFFFFFFFFFFFFFFFFFF AND MUL OR SWAP1 SSTORE POP DUP8 DUP2 PUSH1 0x2 ADD PUSH0 PUSH2 0x100 EXP DUP2 SLOAD DUP2 PUSH20 0xFFFFFFFFFFFFFFFFFFFFFFFFFFFFFFFFFFFFFFFF MUL NOT AND SWAP1 DUP4 PUSH20 0xFFFFFFFFFFFFFFFFFFFFFFFFFFFFFFFFFFFFFFFF AND MUL OR SWAP1 SSTORE POP DUP7 DUP2 PUSH1 0x3 ADD SWAP1 DUP2 PUSH2 0x19B9 SWAP2 SWAP1 PUSH2 0x4D46 JUMP JUMPDEST POP DUP6 DUP2 PUSH1 0x4 ADD SWAP1 DUP2 PUSH2 0x19CB SWAP2 SWAP1 PUSH2 0x4D46 JUMP JUMPDEST POP DUP5 DUP2 PUSH1 0x5 ADD SWAP1 DUP2 PUSH2 0x19DD SWAP2 SWAP1 PUSH2 0x4D46 JUMP JUMPDEST POP TIMESTAMP DUP2 PUSH1 0x6 ADD DUP2 SWAP1 SSTORE POP PUSH0 DUP2 PUSH1 0x8 ADD PUSH0 PUSH2 0x100 EXP DUP2 SLOAD DUP2 PUSH1 0xFF MUL NOT AND SWAP1 DUP4 PUSH1 0x6 DUP2 GT ISZERO PUSH2 0x1A0D JUMPI PUSH2 0x1A0C PUSH2 0x3BB2 JUMP JUMPDEST JUMPDEST MUL OR SWAP1 SSTORE POP DUP4 DUP2 PUSH1 0xB ADD PUSH0 PUSH2 0x100 EXP DUP2 SLOAD DUP2 PUSH1 0xFF MUL NOT AND SWAP1 DUP4 ISZERO ISZERO MUL OR SWAP1 SSTORE POP PUSH2 0x1A37 CALLER DUP4 PUSH2 0x37A6 JUMP JUMPDEST PUSH0 PUSH20 0xFFFFFFFFFFFFFFFFFFFFFFFFFFFFFFFFFFFFFFFF AND DUP9 PUSH20 0xFFFFFFFFFFFFFFFFFFFFFFFFFFFFFFFFFFFFFFFF AND EQ PUSH2 0x1A75 JUMPI PUSH2 0x1A74 DUP9 DUP4 PUSH2 0x37A6 JUMP JUMPDEST JUMPDEST DUP8 PUSH20 0xFFFFFFFFFFFFFFFFFFFFFFFFFFFFFFFFFFFFFFFF AND CALLER PUSH20 0xFFFFFFFFFFFFFFFFFFFFFFFFFFFFFFFFFFFFFFFF AND DUP4 PUSH32 0x8FB6B855D6CBDF201F2FCAADBF8C38D36168FF7D2CA865CB2599ABCD5A060E8F DUP11 PUSH1 0x40 MLOAD PUSH2 0x1AD3 SWAP2 SWAP1 PUSH2 0x4F26 JUMP JUMPDEST PUSH1 0x40 MLOAD DUP1 SWAP2 SUB SWAP1 LOG4 DUP2 SWAP3 POP POP POP SWAP6 SWAP5 POP POP POP POP POP JUMP JUMPDEST PUSH1 0x60 DUP4 PUSH2 0x1AF5 DUP2 PUSH2 0x34B6 JUMP JUMPDEST PUSH0 PUSH1 0x5 PUSH0 DUP8 DUP2 MSTORE PUSH1 0x20 ADD SWAP1 DUP2 MSTORE PUSH1 0x20 ADD PUSH0 KECCAK256 PUSH1 0xA ADD SWAP1 POP PUSH0 DUP2 DUP1 SLOAD SWAP1 POP SWAP1 POP DUP1 DUP7 LT PUSH2 0x1B78 JUMPI PUSH0 PUSH8 0xFFFFFFFFFFFFFFFF DUP2 GT ISZERO PUSH2 0x1B35 JUMPI PUSH2 0x1B34 PUSH2 0x3E2C JUMP JUMPDEST JUMPDEST PUSH1 0x40 MLOAD SWAP1 DUP1 DUP3 MSTORE DUP1 PUSH1 0x20 MUL PUSH1 0x20 ADD DUP3 ADD PUSH1 0x40 MSTORE DUP1 ISZERO PUSH2 0x1B6E JUMPI DUP2 PUSH1 0x20 ADD JUMPDEST PUSH2 0x1B5B PUSH2 0x3A24 JUMP JUMPDEST DUP2 MSTORE PUSH1 0x20 ADD SWAP1 PUSH1 0x1 SWAP1 SUB SWAP1 DUP2 PUSH2 0x1B53 JUMPI SWAP1 POP JUMPDEST POP SWAP4 POP POP POP PUSH2 0x1DDC JUMP JUMPDEST PUSH0 DUP2 DUP7 DUP9 PUSH2 0x1B86 SWAP2 SWAP1 PUSH2 0x4E4B JUMP JUMPDEST GT PUSH2 0x1B9C JUMPI DUP6 DUP8 PUSH2 0x1B97 SWAP2 SWAP1 PUSH2 0x4E4B JUMP JUMPDEST PUSH2 0x1B9E JUMP JUMPDEST DUP2 JUMPDEST SWAP1 POP PUSH0 DUP8 DUP3 PUSH2 0x1BAD SWAP2 SWAP1 PUSH2 0x4E7E JUMP JUMPDEST PUSH8 0xFFFFFFFFFFFFFFFF DUP2 GT ISZERO PUSH2 0x1BC6 JUMPI PUSH2 0x1BC5 PUSH2 0x3E2C JUMP JUMPDEST JUMPDEST PUSH1 0x40 MLOAD SWAP1 DUP1 DUP3 MSTORE DUP1 PUSH1 0x20 MUL PUSH1 0x20 ADD DUP3 ADD PUSH1 0x40 MSTORE DUP1 ISZERO PUSH2 0x1BFF JUMPI DUP2 PUSH1 0x20 ADD JUMPDEST PUSH2 0x1BEC PUSH2 0x3A24 JUMP JUMPDEST DUP2 MSTORE PUSH1 0x20 ADD SWAP1 PUSH1 0x1 SWAP1 SUB SWAP1 DUP2 PUSH2 0x1BE4 JUMPI SWAP1 POP JUMPDEST POP SWAP1 POP PUSH0 DUP9 SWAP1 POP JUMPDEST DUP3 DUP2 LT ISZERO PUSH2 0x1DD3 JUMPI PUSH1 0x7 PUSH0 DUP7 DUP4 DUP2 SLOAD DUP2 LT PUSH2 0x1C25 JUMPI PUSH2 0x1C24 PUSH2 0x4EB1 JUMP JUMPDEST JUMPDEST SWAP1 PUSH0 MSTORE PUSH1 0x20 PUSH0 KECCAK256 ADD SLOAD DUP2 MSTORE PUSH1 0x20 ADD SWAP1 DUP2 MSTORE PUSH1 0x20 ADD PUSH0 KECCAK256 PUSH1 0x40 MLOAD DUP1 PUSH1 0xE0 ADD PUSH1 0x40 MSTORE SWAP1 DUP2 PUSH0 DUP3 ADD SLOAD DUP2 MSTORE PUSH1 0x20 ADD PUSH1 0x1 DUP3 ADD SLOAD DUP2 MSTORE PUSH1 0x20 ADD PUSH1 0x2 DUP3 ADD PUSH0 SWAP1 SLOAD SWAP1 PUSH2 0x100 EXP SWAP1 DIV PUSH1 0xFF AND PUSH1 0x4 DUP2 GT ISZERO PUSH2 0x1C7D JUMPI PUSH2 0x1C7C PUSH2 0x3BB2 JUMP JUMPDEST JUMPDEST PUSH1 0x4 DUP2 GT ISZERO PUSH2 0x1C8F JUMPI PUSH2 0x1C8E PUSH2 0x3BB2 JUMP JUMPDEST JUMPDEST DUP2 MSTORE PUSH1 0x20 ADD PUSH1 0x2 DUP3 ADD PUSH1 0x1 SWAP1 SLOAD SWAP1 PUSH2 0x100 EXP SWAP1 DIV PUSH20 0xFFFFFFFFFFFFFFFFFFFFFFFFFFFFFFFFFFFFFFFF AND PUSH20 0xFFFFFFFFFFFFFFFFFFFFFFFFFFFFFFFFFFFFFFFF AND PUSH20 0xFFFFFFFFFFFFFFFFFFFFFFFFFFFFFFFFFFFFFFFF AND DUP2 MSTORE PUSH1 0x20 ADD PUSH1 0x3 DUP3 ADD DUP1 SLOAD PUSH2 0x1CF9 SWAP1 PUSH2 0x4B02 JUMP JUMPDEST DUP1 PUSH1 0x1F ADD PUSH1 0x20 DUP1 SWAP2 DIV MUL PUSH1 0x20 ADD PUSH1 0x40 MLOAD SWAP1 DUP2 ADD PUSH1 0x40 MSTORE DUP1 SWAP3 SWAP2 SWAP1 DUP2 DUP2 MSTORE PUSH1 0x20 ADD DUP3 DUP1 SLOAD PUSH2 0x1D25 SWAP1 PUSH2 0x4B02 JUMP JUMPDEST DUP1 ISZERO PUSH2 0x1D70 JUMPI DUP1 PUSH1 0x1F LT PUSH2 0x1D47 JUMPI PUSH2 0x100 DUP1 DUP4 SLOAD DIV MUL DUP4 MSTORE SWAP2 PUSH1 0x20 ADD SWAP2 PUSH2 0x1D70 JUMP JUMPDEST DUP3 ADD SWAP2 SWAP1 PUSH0 MSTORE PUSH1 0x20 PUSH0 KECCAK256 SWAP1 JUMPDEST DUP2 SLOAD DUP2 MSTORE SWAP1 PUSH1 0x1 ADD SWAP1 PUSH1 0x20 ADD DUP1 DUP4 GT PUSH2 0x1D53 JUMPI DUP3 SWAP1 SUB PUSH1 0x1F AND DUP3 ADD SWAP2 JUMPDEST POP POP POP POP POP DUP2 MSTORE PUSH1 0x20 ADD PUSH1 0x4 DUP3 ADD SLOAD DUP2 MSTORE PUSH1 0x20 ADD PUSH1 0x5 DUP3 ADD PUSH0 SWAP1 SLOAD SWAP1 PUSH2 0x100 EXP SWAP1 DIV PUSH1 0xFF AND ISZERO ISZERO ISZERO ISZERO DUP2 MSTORE POP POP DUP3 DUP11 DUP4 PUSH2 0x1DAA SWAP2 SWAP1 PUSH2 0x4E7E JUMP JUMPDEST DUP2 MLOAD DUP2 LT PUSH2 0x1DBB JUMPI PUSH2 0x1DBA PUSH2 0x4EB1 JUMP JUMPDEST JUMPDEST PUSH1 0x20 MUL PUSH1 0x20 ADD ADD DUP2 SWAP1 MSTORE POP DUP1 DUP1 PUSH1 0x1 ADD SWAP2 POP POP PUSH2 0x1C07 JUMP JUMPDEST POP DUP1 SWAP6 POP POP POP POP POP JUMPDEST POP SWAP4 SWAP3 POP POP POP JUMP JUMPDEST PUSH2 0x1DEC PUSH2 0x371F JUMP JUMPDEST PUSH0 DUP2 EQ DUP1 PUSH2 0x1DFC JUMPI POP PUSH1 0x4 SLOAD DUP2 LT ISZERO JUMPDEST ISZERO PUSH2 0x1E3E JUMPI DUP1 PUSH1 0x40 MLOAD PUSH32 0xAE30D3B000000000000000000000000000000000000000000000000000000000 DUP2 MSTORE PUSH1 0x4 ADD PUSH2 0x1E35 SWAP2 SWAP1 PUSH2 0x4064 JUMP JUMPDEST PUSH1 0x40 MLOAD DUP1 SWAP2 SUB SWAP1 REVERT JUMPDEST PUSH1 0x1 PUSH1 0x7 PUSH0 DUP4 DUP2 MSTORE PUSH1 0x20 ADD SWAP1 DUP2 MSTORE PUSH1 0x20 ADD PUSH0 KECCAK256 PUSH1 0x5 ADD PUSH0 PUSH2 0x100 EXP DUP2 SLOAD DUP2 PUSH1 0xFF MUL NOT AND SWAP1 DUP4 ISZERO ISZERO MUL OR SWAP1 SSTORE POP DUP1 PUSH32 0xF83AE0ADE2D9004BC0030405BDD3336F9D9B97530BCF44CCE99CE02C95641B77 PUSH1 0x40 MLOAD PUSH1 0x40 MLOAD DUP1 SWAP2 SUB SWAP1 LOG2 POP JUMP JUMPDEST PUSH2 0x1EA2 PUSH2 0x371F JUMP JUMPDEST PUSH0 PUSH20 0xFFFFFFFFFFFFFFFFFFFFFFFFFFFFFFFFFFFFFFFF AND PUSH1 0x8 PUSH0 DUP4 PUSH20 0xFFFFFFFFFFFFFFFFFFFFFFFFFFFFFFFFFFFFFFFF AND PUSH20 0xFFFFFFFFFFFFFFFFFFFFFFFFFFFFFFFFFFFFFFFF AND DUP2 MSTORE PUSH1 0x20 ADD SWAP1 DUP2 MSTORE PUSH1 0x20 ADD PUSH0 KECCAK256 PUSH0 ADD PUSH0 SWAP1 SLOAD SWAP1 PUSH2 0x100 EXP SWAP1 DIV PUSH20 0xFFFFFFFFFFFFFFFFFFFFFFFFFFFFFFFFFFFFFFFF AND PUSH20 0xFFFFFFFFFFFFFFFFFFFFFFFFFFFFFFFFFFFFFFFF AND SUB PUSH2 0x1F65 JUMPI PUSH1 0x40 MLOAD PUSH32 0x6F46A36500000000000000000000000000000000000000000000000000000000 DUP2 MSTORE PUSH1 0x4 ADD PUSH1 0x40 MLOAD DUP1 SWAP2 SUB SWAP1 REVERT JUMPDEST PUSH1 0x1 PUSH1 0x8 PUSH0 DUP4 PUSH20 0xFFFFFFFFFFFFFFFFFFFFFFFFFFFFFFFFFFFFFFFF AND PUSH20 0xFFFFFFFFFFFFFFFFFFFFFFFFFFFFFFFFFFFFFFFF AND DUP2 MSTORE PUSH1 0x20 ADD SWAP1 DUP2 MSTORE PUSH1 0x20 ADD PUSH0 KECCAK256 PUSH1 0x4 ADD PUSH0 PUSH2 0x100 EXP DUP2 SLOAD DUP2 PUSH1 0xFF MUL NOT AND SWAP1 DUP4 ISZERO ISZERO MUL OR SWAP1 SSTORE POP DUP1 PUSH20 0xFFFFFFFFFFFFFFFFFFFFFFFFFFFFFFFFFFFFFFFF AND PUSH32 0x7D434F3BFFE7DB5F776C1C2B3B22E492788BDFBD071E9AA176F096970EA88933 PUSH1 0x1 PUSH1 0x40 MLOAD PUSH2 0x2004 SWAP2 SWAP1 PUSH2 0x48B5 JUMP JUMPDEST PUSH1 0x40 MLOAD DUP1 SWAP2 SUB SWAP1 LOG2 POP JUMP JUMPDEST PUSH1 0xC8 DUP2 JUMP JUMPDEST PUSH1 0x60 PUSH1 0x9 PUSH0 DUP4 PUSH20 0xFFFFFFFFFFFFFFFFFFFFFFFFFFFFFFFFFFFFFFFF AND PUSH20 0xFFFFFFFFFFFFFFFFFFFFFFFFFFFFFFFFFFFFFFFF AND DUP2 MSTORE PUSH1 0x20 ADD SWAP1 DUP2 MSTORE PUSH1 0x20 ADD PUSH0 KECCAK256 DUP1 SLOAD DUP1 PUSH1 0x20 MUL PUSH1 0x20 ADD PUSH1 0x40 MLOAD SWAP1 DUP2 ADD PUSH1 0x40 MSTORE DUP1 SWAP3 SWAP2 SWAP1 DUP2 DUP2 MSTORE PUSH1 0x20 ADD DUP3 DUP1 SLOAD DUP1 ISZERO PUSH2 0x209B JUMPI PUSH1 0x20 MUL DUP3 ADD SWAP2 SWAP1 PUSH0 MSTORE PUSH1 0x20 PUSH0 KECCAK256 SWAP1 JUMPDEST DUP2 SLOAD DUP2 MSTORE PUSH1 0x20 ADD SWAP1 PUSH1 0x1 ADD SWAP1 DUP1 DUP4 GT PUSH2 0x2087 JUMPI JUMPDEST POP POP POP POP POP SWAP1 POP SWAP2 SWAP1 POP JUMP JUMPDEST PUSH1 0x50 DUP2 JUMP JUMPDEST PUSH2 0x20B4 PUSH2 0x3431 JUMP JUMPDEST DUP2 PUSH2 0x20BE DUP2 PUSH2 0x34B6 JUMP JUMPDEST PUSH0 PUSH1 0x8 PUSH0 CALLER PUSH20 0xFFFFFFFFFFFFFFFFFFFFFFFFFFFFFFFFFFFFFFFF AND PUSH20 0xFFFFFFFFFFFFFFFFFFFFFFFFFFFFFFFFFFFFFFFF AND DUP2 MSTORE PUSH1 0x20 ADD SWAP1 DUP2 MSTORE PUSH1 0x20 ADD PUSH0 KECCAK256 PUSH1 0x2 ADD PUSH0 SWAP1 SLOAD SWAP1 PUSH2 0x100 EXP SWAP1 DIV PUSH1 0xFF AND SWAP1 POP PUSH1 0x2 PUSH1 0x5 DUP2 GT ISZERO PUSH2 0x2122 JUMPI PUSH2 0x2121 PUSH2 0x3BB2 JUMP JUMPDEST JUMPDEST DUP2 PUSH1 0x5 DUP2 GT ISZERO PUSH2 0x2135 JUMPI PUSH2 0x2134 PUSH2 0x3BB2 JUMP JUMPDEST JUMPDEST EQ ISZERO DUP1 ISZERO PUSH2 0x2168 JUMPI POP PUSH1 0x3 PUSH1 0x5 DUP2 GT ISZERO PUSH2 0x2152 JUMPI PUSH2 0x2151 PUSH2 0x3BB2 JUMP JUMPDEST JUMPDEST DUP2 PUSH1 0x5 DUP2 GT ISZERO PUSH2 0x2165 JUMPI PUSH2 0x2164 PUSH2 0x3BB2 JUMP JUMPDEST JUMPDEST EQ ISZERO JUMPDEST ISZERO PUSH2 0x219F JUMPI PUSH1 0x40 MLOAD PUSH32 0xEF92A56B00000000000000000000000000000000000000000000000000000000 DUP2 MSTORE PUSH1 0x4 ADD PUSH1 0x40 MLOAD DUP1 SWAP2 SUB SWAP1 REVERT JUMPDEST PUSH1 0x4 PUSH1 0x6 DUP2 GT ISZERO PUSH2 0x21B3 JUMPI PUSH2 0x21B2 PUSH2 0x3BB2 JUMP JUMPDEST JUMPDEST DUP4 PUSH1 0x6 DUP2 GT ISZERO PUSH2 0x21C6 JUMPI PUSH2 0x21C5 PUSH2 0x3BB2 JUMP JUMPDEST JUMPDEST SUB PUSH2 0x21FD JUMPI PUSH1 0x40 MLOAD PUSH32 0x9E96BB6900000000000000000000000000000000000000000000000000000000 DUP2 MSTORE PUSH1 0x4 ADD PUSH1 0x40 MLOAD DUP1 SWAP2 SUB SWAP1 REVERT JUMPDEST DUP3 PUSH1 0x5 PUSH0 DUP7 DUP2 MSTORE PUSH1 0x20 ADD SWAP1 DUP2 MSTORE PUSH1 0x20 ADD PUSH0 KECCAK256 PUSH1 0x8 ADD PUSH0 PUSH2 0x100 EXP DUP2 SLOAD DUP2 PUSH1 0xFF MUL NOT AND SWAP1 DUP4 PUSH1 0x6 DUP2 GT ISZERO PUSH2 0x2233 JUMPI PUSH2 0x2232 PUSH2 0x3BB2 JUMP JUMPDEST JUMPDEST MUL OR SWAP1 SSTORE POP PUSH2 0x2242 CALLER DUP6 PUSH2 0x37A6 JUMP JUMPDEST DUP4 PUSH32 0x7C1C93F72F29B8A1FC6FC85EED990D133B1FFAC80C962B521ABB12F38F2FF9AF DUP5 PUSH1 0x40 MLOAD PUSH2 0x2272 SWAP2 SWAP1 PUSH2 0x4F55 JUMP JUMPDEST PUSH1 0x40 MLOAD DUP1 SWAP2 SUB SWAP1 LOG2 POP POP POP POP JUMP JUMPDEST DUP1 PUSH2 0x228A DUP2 PUSH2 0x34B6 JUMP JUMPDEST PUSH0 PUSH1 0x5 PUSH0 DUP5 DUP2 MSTORE PUSH1 0x20 ADD SWAP1 DUP2 MSTORE PUSH1 0x20 ADD PUSH0 KECCAK256 SWAP1 POP DUP1 PUSH1 0x1 ADD PUSH0 SWAP1 SLOAD SWAP1 PUSH2 0x100 EXP SWAP1 DIV PUSH20 0xFFFFFFFFFFFFFFFFFFFFFFFFFFFFFFFFFFFFFFFF AND PUSH20 0xFFFFFFFFFFFFFFFFFFFFFFFFFFFFFFFFFFFFFFFF AND CALLER PUSH20 0xFFFFFFFFFFFFFFFFFFFFFFFFFFFFFFFFFFFFFFFF AND EQ PUSH2 0x2326 JUMPI PUSH1 0x40 MLOAD PUSH32 0x3F77EA3E00000000000000000000000000000000000000000000000000000000 DUP2 MSTORE PUSH1 0x4 ADD PUSH1 0x40 MLOAD DUP1 SWAP2 SUB SWAP1 REVERT JUMPDEST PUSH0 DUP2 PUSH1 0x8 ADD PUSH0 SWAP1 SLOAD SWAP1 PUSH2 0x100 EXP SWAP1 DIV PUSH1 0xFF AND SWAP1 POP PUSH1 0x4 PUSH1 0x6 DUP2 GT ISZERO PUSH2 0x234E JUMPI PUSH2 0x234D PUSH2 0x3BB2 JUMP JUMPDEST JUMPDEST DUP2 PUSH1 0x6 DUP2 GT ISZERO PUSH2 0x2361 JUMPI PUSH2 0x2360 PUSH2 0x3BB2 JUMP JUMPDEST JUMPDEST EQ DUP1 PUSH2 0x2391 JUMPI POP PUSH1 0x5 PUSH1 0x6 DUP2 GT ISZERO PUSH2 0x237C JUMPI PUSH2 0x237B PUSH2 0x3BB2 JUMP JUMPDEST JUMPDEST DUP2 PUSH1 0x6 DUP2 GT ISZERO PUSH2 0x238F JUMPI PUSH2 0x238E PUSH2 0x3BB2 JUMP JUMPDEST JUMPDEST EQ JUMPDEST DUP1 PUSH2 0x23BF JUMPI POP PUSH1 0x6 DUP1 DUP2 GT ISZERO PUSH2 0x23AA JUMPI PUSH2 0x23A9 PUSH2 0x3BB2 JUMP JUMPDEST JUMPDEST DUP2 PUSH1 0x6 DUP2 GT ISZERO PUSH2 0x23BD JUMPI PUSH2 0x23BC PUSH2 0x3BB2 JUMP JUMPDEST JUMPDEST EQ JUMPDEST ISZERO PUSH2 0x23F6 JUMPI PUSH1 0x40 MLOAD PUSH32 0x8B167A5000000000000000000000000000000000000000000000000000000000 DUP2 MSTORE PUSH1 0x4 ADD PUSH1 0x40 MLOAD DUP1 SWAP2 SUB SWAP1 REVERT JUMPDEST PUSH0 PUSH1 0x6 DUP2 GT ISZERO PUSH2 0x2409 JUMPI PUSH2 0x2408 PUSH2 0x3BB2 JUMP JUMPDEST JUMPDEST DUP2 PUSH1 0x6 DUP2 GT ISZERO PUSH2 0x241C JUMPI PUSH2 0x241B PUSH2 0x3BB2 JUMP JUMPDEST JUMPDEST EQ ISZERO DUP1 ISZERO PUSH2 0x244F JUMPI POP PUSH1 0x2 PUSH1 0x6 DUP2 GT ISZERO PUSH2 0x2439 JUMPI PUSH2 0x2438 PUSH2 0x3BB2 JUMP JUMPDEST JUMPDEST DUP2 PUSH1 0x6 DUP2 GT ISZERO PUSH2 0x244C JUMPI PUSH2 0x244B PUSH2 0x3BB2 JUMP JUMPDEST JUMPDEST EQ ISZERO JUMPDEST ISZERO PUSH2 0x2486 JUMPI PUSH1 0x40 MLOAD PUSH32 0xB86C1B1C00000000000000000000000000000000000000000000000000000000 DUP2 MSTORE PUSH1 0x4 ADD PUSH1 0x40 MLOAD DUP1 SWAP2 SUB SWAP1 REVERT JUMPDEST PUSH1 0x6 DUP3 PUSH1 0x8 ADD PUSH0 PUSH2 0x100 EXP DUP2 SLOAD DUP2 PUSH1 0xFF MUL NOT AND SWAP1 DUP4 PUSH1 0x6 DUP2 GT ISZERO PUSH2 0x24AD JUMPI PUSH2 0x24AC PUSH2 0x3BB2 JUMP JUMPDEST JUMPDEST MUL OR SWAP1 SSTORE POP DUP4 PUSH32 0x7C1C93F72F29B8A1FC6FC85EED990D133B1FFAC80C962B521ABB12F38F2FF9AF PUSH1 0x6 PUSH1 0x40 MLOAD PUSH2 0x24E3 SWAP2 SWAP1 PUSH2 0x4F55 JUMP JUMPDEST PUSH1 0x40 MLOAD DUP1 SWAP2 SUB SWAP1 LOG2 POP POP POP POP JUMP JUMPDEST PUSH1 0x60 DUP2 PUSH2 0x24FD DUP2 PUSH2 0x34B6 JUMP JUMPDEST PUSH0 PUSH1 0x5 PUSH0 DUP6 DUP2 MSTORE PUSH1 0x20 ADD SWAP1 DUP2 MSTORE PUSH1 0x20 ADD PUSH0 KECCAK256 PUSH1 0x9 ADD SWAP1 POP PUSH0 DUP2 DUP1 SLOAD SWAP1 POP PUSH8 0xFFFFFFFFFFFFFFFF DUP2 GT ISZERO PUSH2 0x2533 JUMPI PUSH2 0x2532 PUSH2 0x3E2C JUMP JUMPDEST JUMPDEST PUSH1 0x40 MLOAD SWAP1 DUP1 DUP3 MSTORE DUP1 PUSH1 0x20 MUL PUSH1 0x20 ADD DUP3 ADD PUSH1 0x40 MSTORE DUP1 ISZERO PUSH2 0x256C JUMPI DUP2 PUSH1 0x20 ADD JUMPDEST PUSH2 0x2559 PUSH2 0x3967 JUMP JUMPDEST DUP2 MSTORE PUSH1 0x20 ADD SWAP1 PUSH1 0x1 SWAP1 SUB SWAP1 DUP2 PUSH2 0x2551 JUMPI SWAP1 POP JUMPDEST POP SWAP1 POP PUSH0 PUSH0 SWAP1 POP JUMPDEST DUP3 DUP1 SLOAD SWAP1 POP DUP2 LT ISZERO PUSH2 0x27B9 JUMPI PUSH1 0x6 PUSH0 DUP5 DUP4 DUP2 SLOAD DUP2 LT PUSH2 0x2596 JUMPI PUSH2 0x2595 PUSH2 0x4EB1 JUMP JUMPDEST JUMPDEST SWAP1 PUSH0 MSTORE PUSH1 0x20 PUSH0 KECCAK256 ADD SLOAD DUP2 MSTORE PUSH1 0x20 ADD SWAP1 DUP2 MSTORE PUSH1 0x20 ADD PUSH0 KECCAK256 PUSH1 0x40 MLOAD DUP1 PUSH2 0x100 ADD PUSH1 0x40 MSTORE SWAP1 DUP2 PUSH0 DUP3 ADD SLOAD DUP2 MSTORE PUSH1 0x20 ADD PUSH1 0x1 DUP3 ADD SLOAD DUP2 MSTORE PUSH1 0x20 ADD PUSH1 0x2 DUP3 ADD PUSH0 SWAP1 SLOAD SWAP1 PUSH2 0x100 EXP SWAP1 DIV PUSH20 0xFFFFFFFFFFFFFFFFFFFFFFFFFFFFFFFFFFFFFFFF AND PUSH20 0xFFFFFFFFFFFFFFFFFFFFFFFFFFFFFFFFFFFFFFFF AND PUSH20 0xFFFFFFFFFFFFFFFFFFFFFFFFFFFFFFFFFFFFFFFF AND DUP2 MSTORE PUSH1 0x20 ADD PUSH1 0x3 DUP3 ADD DUP1 SLOAD PUSH2 0x2630 SWAP1 PUSH2 0x4B02 JUMP JUMPDEST DUP1 PUSH1 0x1F ADD PUSH1 0x20 DUP1 SWAP2 DIV MUL PUSH1 0x20 ADD PUSH1 0x40 MLOAD SWAP1 DUP2 ADD PUSH1 0x40 MSTORE DUP1 SWAP3 SWAP2 SWAP1 DUP2 DUP2 MSTORE PUSH1 0x20 ADD DUP3 DUP1 SLOAD PUSH2 0x265C SWAP1 PUSH2 0x4B02 JUMP JUMPDEST DUP1 ISZERO PUSH2 0x26A7 JUMPI DUP1 PUSH1 0x1F LT PUSH2 0x267E JUMPI PUSH2 0x100 DUP1 DUP4 SLOAD DIV MUL DUP4 MSTORE SWAP2 PUSH1 0x20 ADD SWAP2 PUSH2 0x26A7 JUMP JUMPDEST DUP3 ADD SWAP2 SWAP1 PUSH0 MSTORE PUSH1 0x20 PUSH0 KECCAK256 SWAP1 JUMPDEST DUP2 SLOAD DUP2 MSTORE SWAP1 PUSH1 0x1 ADD SWAP1 PUSH1 0x20 ADD DUP1 DUP4 GT PUSH2 0x268A JUMPI DUP3 SWAP1 SUB PUSH1 0x1F AND DUP3 ADD SWAP2 JUMPDEST POP POP POP POP POP DUP2 MSTORE PUSH1 0x20 ADD PUSH1 0x4 DUP3 ADD PUSH0 SWAP1 SLOAD SWAP1 PUSH2 0x100 EXP SWAP1 DIV PUSH1 0xFF AND PUSH1 0x4 DUP2 GT ISZERO PUSH2 0x26D4 JUMPI PUSH2 0x26D3 PUSH2 0x3BB2 JUMP JUMPDEST JUMPDEST PUSH1 0x4 DUP2 GT ISZERO PUSH2 0x26E6 JUMPI PUSH2 0x26E5 PUSH2 0x3BB2 JUMP JUMPDEST JUMPDEST DUP2 MSTORE PUSH1 0x20 ADD PUSH1 0x5 DUP3 ADD SLOAD DUP2 MSTORE PUSH1 0x20 ADD PUSH1 0x6 DUP3 ADD DUP1 SLOAD PUSH2 0x2704 SWAP1 PUSH2 0x4B02 JUMP JUMPDEST DUP1 PUSH1 0x1F ADD PUSH1 0x20 DUP1 SWAP2 DIV MUL PUSH1 0x20 ADD PUSH1 0x40 MLOAD SWAP1 DUP2 ADD PUSH1 0x40 MSTORE DUP1 SWAP3 SWAP2 SWAP1 DUP2 DUP2 MSTORE PUSH1 0x20 ADD DUP3 DUP1 SLOAD PUSH2 0x2730 SWAP1 PUSH2 0x4B02 JUMP JUMPDEST DUP1 ISZERO PUSH2 0x277B JUMPI DUP1 PUSH1 0x1F LT PUSH2 0x2752 JUMPI PUSH2 0x100 DUP1 DUP4 SLOAD DIV MUL DUP4 MSTORE SWAP2 PUSH1 0x20 ADD SWAP2 PUSH2 0x277B JUMP JUMPDEST DUP3 ADD SWAP2 SWAP1 PUSH0 MSTORE PUSH1 0x20 PUSH0 KECCAK256 SWAP1 JUMPDEST DUP2 SLOAD DUP2 MSTORE SWAP1 PUSH1 0x1 ADD SWAP1 PUSH1 0x20 ADD DUP1 DUP4 GT PUSH2 0x275E JUMPI DUP3 SWAP1 SUB PUSH1 0x1F AND DUP3 ADD SWAP2 JUMPDEST POP POP POP POP POP DUP2 MSTORE PUSH1 0x20 ADD PUSH1 0x7 DUP3 ADD SLOAD DUP2 MSTORE POP POP DUP3 DUP3 DUP2 MLOAD DUP2 LT PUSH2 0x27A1 JUMPI PUSH2 0x27A0 PUSH2 0x4EB1 JUMP JUMPDEST JUMPDEST PUSH1 0x20 MUL PUSH1 0x20 ADD ADD DUP2 SWAP1 MSTORE POP DUP1 DUP1 PUSH1 0x1 ADD SWAP2 POP POP PUSH2 0x2574 JUMP JUMPDEST POP DUP1 SWAP4 POP POP POP POP SWAP2 SWAP1 POP JUMP JUMPDEST PUSH0 PUSH1 0x7 PUSH0 DUP4 DUP2 MSTORE PUSH1 0x20 ADD SWAP1 DUP2 MSTORE PUSH1 0x20 ADD PUSH0 KECCAK256 PUSH1 0x5 ADD PUSH0 SWAP1 SLOAD SWAP1 PUSH2 0x100 EXP SWAP1 DIV PUSH1 0xFF AND SWAP1 POP SWAP2 SWAP1 POP JUMP JUMPDEST PUSH2 0x27F6 PUSH2 0x3A24 JUMP JUMPDEST PUSH0 DUP3 EQ DUP1 PUSH2 0x2806 JUMPI POP PUSH1 0x4 SLOAD DUP3 LT ISZERO JUMPDEST ISZERO PUSH2 0x2848 JUMPI DUP2 PUSH1 0x40 MLOAD PUSH32 0xAE30D3B000000000000000000000000000000000000000000000000000000000 DUP2 MSTORE PUSH1 0x4 ADD PUSH2 0x283F SWAP2 SWAP1 PUSH2 0x4064 JUMP JUMPDEST PUSH1 0x40 MLOAD DUP1 SWAP2 SUB SWAP1 REVERT JUMPDEST PUSH1 0x7 PUSH0 DUP4 DUP2 MSTORE PUSH1 0x20 ADD SWAP1 DUP2 MSTORE PUSH1 0x20 ADD PUSH0 KECCAK256 PUSH1 0x40 MLOAD DUP1 PUSH1 0xE0 ADD PUSH1 0x40 MSTORE SWAP1 DUP2 PUSH0 DUP3 ADD SLOAD DUP2 MSTORE PUSH1 0x20 ADD PUSH1 0x1 DUP3 ADD SLOAD DUP2 MSTORE PUSH1 0x20 ADD PUSH1 0x2 DUP3 ADD PUSH0 SWAP1 SLOAD SWAP1 PUSH2 0x100 EXP SWAP1 DIV PUSH1 0xFF AND PUSH1 0x4 DUP2 GT ISZERO PUSH2 0x289B JUMPI PUSH2 0x289A PUSH2 0x3BB2 JUMP JUMPDEST JUMPDEST PUSH1 0x4 DUP2 GT ISZERO PUSH2 0x28AD JUMPI PUSH2 0x28AC PUSH2 0x3BB2 JUMP JUMPDEST JUMPDEST DUP2 MSTORE PUSH1 0x20 ADD PUSH1 0x2 DUP3 ADD PUSH1 0x1 SWAP1 SLOAD SWAP1 PUSH2 0x100 EXP SWAP1 DIV PUSH20 0xFFFFFFFFFFFFFFFFFFFFFFFFFFFFFFFFFFFFFFFF AND PUSH20 0xFFFFFFFFFFFFFFFFFFFFFFFFFFFFFFFFFFFFFFFF AND PUSH20 0xFFFFFFFFFFFFFFFFFFFFFFFFFFFFFFFFFFFFFFFF AND DUP2 MSTORE PUSH1 0x20 ADD PUSH1 0x3 DUP3 ADD DUP1 SLOAD PUSH2 0x2917 SWAP1 PUSH2 0x4B02 JUMP JUMPDEST DUP1 PUSH1 0x1F ADD PUSH1 0x20 DUP1 SWAP2 DIV MUL PUSH1 0x20 ADD PUSH1 0x40 MLOAD SWAP1 DUP2 ADD PUSH1 0x40 MSTORE DUP1 SWAP3 SWAP2 SWAP1 DUP2 DUP2 MSTORE PUSH1 0x20 ADD DUP3 DUP1 SLOAD PUSH2 0x2943 SWAP1 PUSH2 0x4B02 JUMP JUMPDEST DUP1 ISZERO PUSH2 0x298E JUMPI DUP1 PUSH1 0x1F LT PUSH2 0x2965 JUMPI PUSH2 0x100 DUP1 DUP4 SLOAD DIV MUL DUP4 MSTORE SWAP2 PUSH1 0x20 ADD SWAP2 PUSH2 0x298E JUMP JUMPDEST DUP3 ADD SWAP2 SWAP1 PUSH0 MSTORE PUSH1 0x20 PUSH0 KECCAK256 SWAP1 JUMPDEST DUP2 SLOAD DUP2 MSTORE SWAP1 PUSH1 0x1 ADD SWAP1 PUSH1 0x20 ADD DUP1 DUP4 GT PUSH2 0x2971 JUMPI DUP3 SWAP1 SUB PUSH1 0x1F AND DUP3 ADD SWAP2 JUMPDEST POP POP POP POP POP DUP2 MSTORE PUSH1 0x20 ADD PUSH1 0x4 DUP3 ADD SLOAD DUP2 MSTORE PUSH1 0x20 ADD PUSH1 0x5 DUP3 ADD PUSH0 SWAP1 SLOAD SWAP1 PUSH2 0x100 EXP SWAP1 DIV PUSH1 0xFF AND ISZERO ISZERO ISZERO ISZERO DUP2 MSTORE POP POP SWAP1 POP SWAP2 SWAP1 POP JUMP JUMPDEST PUSH1 0x60 DUP2 PUSH2 0x29CE DUP2 PUSH2 0x34B6 JUMP JUMPDEST PUSH0 PUSH1 0x5 PUSH0 DUP6 DUP2 MSTORE PUSH1 0x20 ADD SWAP1 DUP2 MSTORE PUSH1 0x20 ADD PUSH0 KECCAK256 PUSH1 0xA ADD SWAP1 POP PUSH0 DUP2 DUP1 SLOAD SWAP1 POP PUSH8 0xFFFFFFFFFFFFFFFF DUP2 GT ISZERO PUSH2 0x2A04 JUMPI PUSH2 0x2A03 PUSH2 0x3E2C JUMP JUMPDEST JUMPDEST PUSH1 0x40 MLOAD SWAP1 DUP1 DUP3 MSTORE DUP1 PUSH1 0x20 MUL PUSH1 0x20 ADD DUP3 ADD PUSH1 0x40 MSTORE DUP1 ISZERO PUSH2 0x2A3D JUMPI DUP2 PUSH1 0x20 ADD JUMPDEST PUSH2 0x2A2A PUSH2 0x3A24 JUMP JUMPDEST DUP2 MSTORE PUSH1 0x20 ADD SWAP1 PUSH1 0x1 SWAP1 SUB SWAP1 DUP2 PUSH2 0x2A22 JUMPI SWAP1 POP JUMPDEST POP SWAP1 POP PUSH0 PUSH0 SWAP1 POP JUMPDEST DUP3 DUP1 SLOAD SWAP1 POP DUP2 LT ISZERO PUSH2 0x2C0A JUMPI PUSH1 0x7 PUSH0 DUP5 DUP4 DUP2 SLOAD DUP2 LT PUSH2 0x2A67 JUMPI PUSH2 0x2A66 PUSH2 0x4EB1 JUMP JUMPDEST JUMPDEST SWAP1 PUSH0 MSTORE PUSH1 0x20 PUSH0 KECCAK256 ADD SLOAD DUP2 MSTORE PUSH1 0x20 ADD SWAP1 DUP2 MSTORE PUSH1 0x20 ADD PUSH0 KECCAK256 PUSH1 0x40 MLOAD DUP1 PUSH1 0xE0 ADD PUSH1 0x40 MSTORE SWAP1 DUP2 PUSH0 DUP3 ADD SLOAD DUP2 MSTORE PUSH1 0x20 ADD PUSH1 0x1 DUP3 ADD SLOAD DUP2 MSTORE PUSH1 0x20 ADD PUSH1 0x2 DUP3 ADD PUSH0 SWAP1 SLOAD SWAP1 PUSH2 0x100 EXP SWAP1 DIV PUSH1 0xFF AND PUSH1 0x4 DUP2 GT ISZERO PUSH2 0x2ABF JUMPI PUSH2 0x2ABE PUSH2 0x3BB2 JUMP JUMPDEST JUMPDEST PUSH1 0x4 DUP2 GT ISZERO PUSH2 0x2AD1 JUMPI PUSH2 0x2AD0 PUSH2 0x3BB2 JUMP JUMPDEST JUMPDEST DUP2 MSTORE PUSH1 0x20 ADD PUSH1 0x2 DUP3 ADD PUSH1 0x1 SWAP1 SLOAD SWAP1 PUSH2 0x100 EXP SWAP1 DIV PUSH20 0xFFFFFFFFFFFFFFFFFFFFFFFFFFFFFFFFFFFFFFFF AND PUSH20 0xFFFFFFFFFFFFFFFFFFFFFFFFFFFFFFFFFFFFFFFF AND PUSH20 0xFFFFFFFFFFFFFFFFFFFFFFFFFFFFFFFFFFFFFFFF AND DUP2 MSTORE PUSH1 0x20 ADD PUSH1 0x3 DUP3 ADD DUP1 SLOAD PUSH2 0x2B3B SWAP1 PUSH2 0x4B02 JUMP JUMPDEST DUP1 PUSH1 0x1F ADD PUSH1 0x20 DUP1 SWAP2 DIV MUL PUSH1 0x20 ADD PUSH1 0x40 MLOAD SWAP1 DUP2 ADD PUSH1 0x40 MSTORE DUP1 SWAP3 SWAP2 SWAP1 DUP2 DUP2 MSTORE PUSH1 0x20 ADD DUP3 DUP1 SLOAD PUSH2 0x2B67 SWAP1 PUSH2 0x4B02 JUMP JUMPDEST DUP1 ISZERO PUSH2 0x2BB2 JUMPI DUP1 PUSH1 0x1F LT PUSH2 0x2B89 JUMPI PUSH2 0x100 DUP1 DUP4 SLOAD DIV MUL DUP4 MSTORE SWAP2 PUSH1 0x20 ADD SWAP2 PUSH2 0x2BB2 JUMP JUMPDEST DUP3 ADD SWAP2 SWAP1 PUSH0 MSTORE PUSH1 0x20 PUSH0 KECCAK256 SWAP1 JUMPDEST DUP2 SLOAD DUP2 MSTORE SWAP1 PUSH1 0x1 ADD SWAP1 PUSH1 0x20 ADD DUP1 DUP4 GT PUSH2 0x2B95 JUMPI DUP3 SWAP1 SUB PUSH1 0x1F AND DUP3 ADD SWAP2 JUMPDEST POP POP POP POP POP DUP2 MSTORE PUSH1 0x20 ADD PUSH1 0x4 DUP3 ADD SLOAD DUP2 MSTORE PUSH1 0x20 ADD PUSH1 0x5 DUP3 ADD PUSH0 SWAP1 SLOAD SWAP1 PUSH2 0x100 EXP SWAP1 DIV PUSH1 0xFF AND ISZERO ISZERO ISZERO ISZERO DUP2 MSTORE POP POP DUP3 DUP3 DUP2 MLOAD DUP2 LT PUSH2 0x2BF2 JUMPI PUSH2 0x2BF1 PUSH2 0x4EB1 JUMP JUMPDEST JUMPDEST PUSH1 0x20 MUL PUSH1 0x20 ADD ADD DUP2 SWAP1 MSTORE POP DUP1 DUP1 PUSH1 0x1 ADD SWAP2 POP POP PUSH2 0x2A45 JUMP JUMPDEST POP DUP1 SWAP4 POP POP POP POP SWAP2 SWAP1 POP JUMP JUMPDEST PUSH1 0x14 DUP2 JUMP JUMPDEST PUSH0 DUP2 PUSH2 0x2C26 DUP2 PUSH2 0x34B6 JUMP JUMPDEST PUSH0 PUSH1 0x5 PUSH0 DUP6 DUP2 MSTORE PUSH1 0x20 ADD SWAP1 DUP2 MSTORE PUSH1 0x20 ADD PUSH0 KECCAK256 SWAP1 POP DUP1 PUSH1 0xB ADD PUSH0 SWAP1 SLOAD SWAP1 PUSH2 0x100 EXP SWAP1 DIV PUSH1 0xFF AND PUSH2 0x2C59 JUMPI PUSH1 0x1 SWAP3 POP POP PUSH2 0x2D0B JUMP JUMPDEST PUSH0 DUP2 PUSH1 0x9 ADD DUP1 SLOAD SWAP1 POP SWAP1 POP PUSH0 PUSH0 SWAP1 POP JUMPDEST DUP2 DUP2 LT ISZERO PUSH2 0x2D03 JUMPI PUSH0 PUSH1 0x6 PUSH0 DUP6 PUSH1 0x9 ADD DUP5 DUP2 SLOAD DUP2 LT PUSH2 0x2C8B JUMPI PUSH2 0x2C8A PUSH2 0x4EB1 JUMP JUMPDEST JUMPDEST SWAP1 PUSH0 MSTORE PUSH1 0x20 PUSH0 KECCAK256 ADD SLOAD DUP2 MSTORE PUSH1 0x20 ADD SWAP1 DUP2 MSTORE PUSH1 0x20 ADD PUSH0 KECCAK256 PUSH1 0x7 ADD SLOAD SWAP1 POP PUSH32 0x8000000000000000000000000000000000000000000000000000000000000000 DUP2 SUB PUSH2 0x2CD4 JUMPI POP PUSH2 0x2CF6 JUMP JUMPDEST PUSH1 0x50 DUP2 SGT DUP1 PUSH2 0x2CE3 JUMPI POP PUSH1 0x14 DUP2 SLT JUMPDEST ISZERO PUSH2 0x2CF4 JUMPI PUSH0 SWAP6 POP POP POP POP POP PUSH2 0x2D0B JUMP JUMPDEST POP JUMPDEST DUP1 DUP1 PUSH1 0x1 ADD SWAP2 POP POP PUSH2 0x2C69 JUMP JUMPDEST POP PUSH1 0x1 SWAP4 POP POP POP JUMPDEST POP SWAP2 SWAP1 POP JUMP JUMPDEST PUSH2 0x2D19 PUSH2 0x371F JUMP JUMPDEST PUSH0 PUSH20 0xFFFFFFFFFFFFFFFFFFFFFFFFFFFFFFFFFFFFFFFF AND DUP2 PUSH20 0xFFFFFFFFFFFFFFFFFFFFFFFFFFFFFFFFFFFFFFFF AND SUB PUSH2 0x2D7E JUMPI PUSH1 0x40 MLOAD PUSH32 0xE6C4247B00000000000000000000000000000000000000000000000000000000 DUP2 MSTORE PUSH1 0x4 ADD PUSH1 0x40 MLOAD DUP1 SWAP2 SUB SWAP1 REVERT JUMPDEST PUSH1 0x8 PUSH0 DUP3 PUSH20 0xFFFFFFFFFFFFFFFFFFFFFFFFFFFFFFFFFFFFFFFF AND PUSH20 0xFFFFFFFFFFFFFFFFFFFFFFFFFFFFFFFFFFFFFFFF AND DUP2 MSTORE PUSH1 0x20 ADD SWAP1 DUP2 MSTORE PUSH1 0x20 ADD PUSH0 KECCAK256 PUSH1 0x4 ADD PUSH0 SWAP1 SLOAD SWAP1 PUSH2 0x100 EXP SWAP1 DIV PUSH1 0xFF AND ISZERO PUSH2 0x2E02 JUMPI PUSH1 0x40 MLOAD PUSH32 0x7CA2767C00000000000000000000000000000000000000000000000000000000 DUP2 MSTORE PUSH1 0x4 ADD PUSH1 0x40 MLOAD DUP1 SWAP2 SUB SWAP1 REVERT JUMPDEST PUSH0 PUSH1 0x5 DUP2 GT ISZERO PUSH2 0x2E15 JUMPI PUSH2 0x2E14 PUSH2 0x3BB2 JUMP JUMPDEST JUMPDEST DUP4 PUSH1 0x5 DUP2 GT ISZERO PUSH2 0x2E28 JUMPI PUSH2 0x2E27 PUSH2 0x3BB2 JUMP JUMPDEST JUMPDEST SUB PUSH2 0x2E5F JUMPI PUSH1 0x40 MLOAD PUSH32 0xD954416A00000000000000000000000000000000000000000000000000000000 DUP2 MSTORE PUSH1 0x4 ADD PUSH1 0x40 MLOAD DUP1 SWAP2 SUB SWAP1 REVERT JUMPDEST PUSH1 0x40 MLOAD DUP1 PUSH1 0xA0 ADD PUSH1 0x40 MSTORE DUP1 DUP3 PUSH20 0xFFFFFFFFFFFFFFFFFFFFFFFFFFFFFFFFFFFFFFFF AND DUP2 MSTORE PUSH1 0x20 ADD DUP6 DUP2 MSTORE PUSH1 0x20 ADD DUP5 PUSH1 0x5 DUP2 GT ISZERO PUSH2 0x2E9F JUMPI PUSH2 0x2E9E PUSH2 0x3BB2 JUMP JUMPDEST JUMPDEST DUP2 MSTORE PUSH1 0x20 ADD DUP4 DUP2 MSTORE PUSH1 0x20 ADD PUSH1 0x1 ISZERO ISZERO DUP2 MSTORE POP PUSH1 0x8 PUSH0 DUP4 PUSH20 0xFFFFFFFFFFFFFFFFFFFFFFFFFFFFFFFFFFFFFFFF AND PUSH20 0xFFFFFFFFFFFFFFFFFFFFFFFFFFFFFFFFFFFFFFFF AND DUP2 MSTORE PUSH1 0x20 ADD SWAP1 DUP2 MSTORE PUSH1 0x20 ADD PUSH0 KECCAK256 PUSH0 DUP3 ADD MLOAD DUP2 PUSH0 ADD PUSH0 PUSH2 0x100 EXP DUP2 SLOAD DUP2 PUSH20 0xFFFFFFFFFFFFFFFFFFFFFFFFFFFFFFFFFFFFFFFF MUL NOT AND SWAP1 DUP4 PUSH20 0xFFFFFFFFFFFFFFFFFFFFFFFFFFFFFFFFFFFFFFFF AND MUL OR SWAP1 SSTORE POP PUSH1 0x20 DUP3 ADD MLOAD DUP2 PUSH1 0x1 ADD SWAP1 DUP2 PUSH2 0x2F47 SWAP2 SWAP1 PUSH2 0x4D46 JUMP JUMPDEST POP PUSH1 0x40 DUP3 ADD MLOAD DUP2 PUSH1 0x2 ADD PUSH0 PUSH2 0x100 EXP DUP2 SLOAD DUP2 PUSH1 0xFF MUL NOT AND SWAP1 DUP4 PUSH1 0x5 DUP2 GT ISZERO PUSH2 0x2F72 JUMPI PUSH2 0x2F71 PUSH2 0x3BB2 JUMP JUMPDEST JUMPDEST MUL OR SWAP1 SSTORE POP PUSH1 0x60 DUP3 ADD MLOAD DUP2 PUSH1 0x3 ADD SWAP1 DUP2 PUSH2 0x2F8C SWAP2 SWAP1 PUSH2 0x4D46 JUMP JUMPDEST POP PUSH1 0x80 DUP3 ADD MLOAD DUP2 PUSH1 0x4 ADD PUSH0 PUSH2 0x100 EXP DUP2 SLOAD DUP2 PUSH1 0xFF MUL NOT AND SWAP1 DUP4 ISZERO ISZERO MUL OR SWAP1 SSTORE POP SWAP1 POP POP DUP1 PUSH20 0xFFFFFFFFFFFFFFFFFFFFFFFFFFFFFFFFFFFFFFFF AND PUSH32 0xC9A31DE765ABE70445345802BEE3C96554CA063AB257E3888D498ACCB859FABC DUP6 DUP6 PUSH1 0x40 MLOAD PUSH2 0x2FF7 SWAP3 SWAP2 SWAP1 PUSH2 0x4F7D JUMP JUMPDEST PUSH1 0x40 MLOAD DUP1 SWAP2 SUB SWAP1 LOG2 POP POP POP POP JUMP JUMPDEST PUSH0 PUSH1 0x2 SLOAD SWAP1 POP SWAP1 JUMP JUMPDEST PUSH0 PUSH2 0x3017 PUSH2 0x3431 JUMP JUMPDEST DUP4 PUSH2 0x3021 DUP2 PUSH2 0x34B6 JUMP JUMPDEST PUSH1 0xA PUSH0 CALLER PUSH20 0xFFFFFFFFFFFFFFFFFFFFFFFFFFFFFFFFFFFFFFFF AND PUSH20 0xFFFFFFFFFFFFFFFFFFFFFFFFFFFFFFFFFFFFFFFF AND DUP2 MSTORE PUSH1 0x20 ADD SWAP1 DUP2 MSTORE PUSH1 0x20 ADD PUSH0 KECCAK256 PUSH0 DUP7 DUP2 MSTORE PUSH1 0x20 ADD SWAP1 DUP2 MSTORE PUSH1 0x20 ADD PUSH0 KECCAK256 PUSH0 SWAP1 SLOAD SWAP1 PUSH2 0x100 EXP SWAP1 DIV PUSH1 0xFF AND PUSH2 0x30B0 JUMPI PUSH1 0x40 MLOAD PUSH32 0xD40C3D2100000000000000000000000000000000000000000000000000000000 DUP2 MSTORE PUSH1 0x4 ADD PUSH1 0x40 MLOAD DUP1 SWAP2 SUB SWAP1 REVERT JUMPDEST PUSH2 0x30BB DUP6 DUP6 DUP6 PUSH2 0x350B JUMP JUMPDEST SWAP2 POP POP SWAP4 SWAP3 POP POP POP JUMP JUMPDEST PUSH0 PUSH0 SWAP1 SLOAD SWAP1 PUSH2 0x100 EXP SWAP1 DIV PUSH20 0xFFFFFFFFFFFFFFFFFFFFFFFFFFFFFFFFFFFFFFFF AND DUP2 JUMP JUMPDEST PUSH2 0x30F1 PUSH2 0x371F JUMP JUMPDEST PUSH0 PUSH20 0xFFFFFFFFFFFFFFFFFFFFFFFFFFFFFFFFFFFFFFFF AND PUSH1 0x8 PUSH0 DUP4 PUSH20 0xFFFFFFFFFFFFFFFFFFFFFFFFFFFFFFFFFFFFFFFF AND PUSH20 0xFFFFFFFFFFFFFFFFFFFFFFFFFFFFFFFFFFFFFFFF AND DUP2 MSTORE PUSH1 0x20 ADD SWAP1 DUP2 MSTORE PUSH1 0x20 ADD PUSH0 KECCAK256 PUSH0 ADD PUSH0 SWAP1 SLOAD SWAP1 PUSH2 0x100 EXP SWAP1 DIV PUSH20 0xFFFFFFFFFFFFFFFFFFFFFFFFFFFFFFFFFFFFFFFF AND PUSH20 0xFFFFFFFFFFFFFFFFFFFFFFFFFFFFFFFFFFFFFFFF AND SUB PUSH2 0x31B4 JUMPI PUSH1 0x40 MLOAD PUSH32 0x6F46A36500000000000000000000000000000000000000000000000000000000 DUP2 MSTORE PUSH1 0x4 ADD PUSH1 0x40 MLOAD DUP1 SWAP2 SUB SWAP1 REVERT JUMPDEST PUSH0 PUSH1 0x8 PUSH0 DUP4 PUSH20 0xFFFFFFFFFFFFFFFFFFFFFFFFFFFFFFFFFFFFFFFF AND PUSH20 0xFFFFFFFFFFFFFFFFFFFFFFFFFFFFFFFFFFFFFFFF AND DUP2 MSTORE PUSH1 0x20 ADD SWAP1 DUP2 MSTORE PUSH1 0x20 ADD PUSH0 KECCAK256 PUSH1 0x4 ADD PUSH0 PUSH2 0x100 EXP DUP2 SLOAD DUP2 PUSH1 0xFF MUL NOT AND SWAP1 DUP4 ISZERO ISZERO MUL OR SWAP1 SSTORE POP DUP1 PUSH20 0xFFFFFFFFFFFFFFFFFFFFFFFFFFFFFFFFFFFFFFFF AND PUSH32 0x7D434F3BFFE7DB5F776C1C2B3B22E492788BDFBD071E9AA176F096970EA88933 PUSH0 PUSH1 0x40 MLOAD PUSH2 0x3251 SWAP2 SWAP1 PUSH2 0x48B5 JUMP JUMPDEST PUSH1 0x40 MLOAD DUP1 SWAP2 SUB SWAP1 LOG2 POP JUMP JUMPDEST DUP1 PUSH2 0x3266 DUP2 PUSH2 0x34B6 JUMP JUMPDEST PUSH0 PUSH1 0x5 PUSH0 DUP5 DUP2 MSTORE PUSH1 0x20 ADD SWAP1 DUP2 MSTORE PUSH1 0x20 ADD PUSH0 KECCAK256 SWAP1 POP DUP1 PUSH1 0x2 ADD PUSH0 SWAP1 SLOAD SWAP1 PUSH2 0x100 EXP SWAP1 DIV PUSH20 0xFFFFFFFFFFFFFFFFFFFFFFFFFFFFFFFFFFFFFFFF AND PUSH20 0xFFFFFFFFFFFFFFFFFFFFFFFFFFFFFFFFFFFFFFFF AND CALLER PUSH20 0xFFFFFFFFFFFFFFFFFFFFFFFFFFFFFFFFFFFFFFFF AND EQ PUSH2 0x3301 JUMPI PUSH1 0x40 MLOAD PUSH31 0x7B024000000000000000000000000000000000000000000000000000000000 DUP2 MSTORE PUSH1 0x4 ADD PUSH1 0x40 MLOAD DUP1 SWAP2 SUB SWAP1 REVERT JUMPDEST PUSH1 0x4 PUSH1 0x6 DUP2 GT ISZERO PUSH2 0x3315 JUMPI PUSH2 0x3314 PUSH2 0x3BB2 JUMP JUMPDEST JUMPDEST DUP2 PUSH1 0x8 ADD PUSH0 SWAP1 SLOAD SWAP1 PUSH2 0x100 EXP SWAP1 DIV PUSH1 0xFF AND PUSH1 0x6 DUP2 GT ISZERO PUSH2 0x3338 JUMPI PUSH2 0x3337 PUSH2 0x3BB2 JUMP JUMPDEST JUMPDEST SUB PUSH2 0x336F JUMPI PUSH1 0x40 MLOAD PUSH32 0xB9F7965300000000000000000000000000000000000000000000000000000000 DUP2 MSTORE PUSH1 0x4 ADD PUSH1 0x40 MLOAD DUP1 SWAP2 SUB SWAP1 REVERT JUMPDEST PUSH1 0x4 DUP2 PUSH1 0x8 ADD PUSH0 PUSH2 0x100 EXP DUP2 SLOAD DUP2 PUSH1 0xFF MUL NOT AND SWAP1 DUP4 PUSH1 0x6 DUP2 GT ISZERO PUSH2 0x3396 JUMPI PUSH2 0x3395 PUSH2 0x3BB2 JUMP JUMPDEST JUMPDEST MUL OR SWAP1 SSTORE POP TIMESTAMP DUP2 PUSH1 0x7 ADD DUP2 SWAP1 SSTORE POP DUP3 PUSH32 0x7C1C93F72F29B8A1FC6FC85EED990D133B1FFAC80C962B521ABB12F38F2FF9AF PUSH1 0x4 PUSH1 0x40 MLOAD PUSH2 0x33D5 SWAP2 SWAP1 PUSH2 0x4F55 JUMP JUMPDEST PUSH1 0x40 MLOAD DUP1 SWAP2 SUB SWAP1 LOG2 CALLER PUSH20 0xFFFFFFFFFFFFFFFFFFFFFFFFFFFFFFFFFFFFFFFF AND DUP4 PUSH32 0x2F4A952729DB32131CB3D658CC231127E0CE7E50F83508ECE9A49C985F2384D0 TIMESTAMP PUSH1 0x40 MLOAD PUSH2 0x3424 SWAP2 SWAP1 PUSH2 0x4064 JUMP JUMPDEST PUSH1 0x40 MLOAD DUP1 SWAP2 SUB SWAP1 LOG3 POP POP POP JUMP JUMPDEST PUSH1 0x8 PUSH0 CALLER PUSH20 0xFFFFFFFFFFFFFFFFFFFFFFFFFFFFFFFFFFFFFFFF AND PUSH20 0xFFFFFFFFFFFFFFFFFFFFFFFFFFFFFFFFFFFFFFFF AND DUP2 MSTORE PUSH1 0x20 ADD SWAP1 DUP2 MSTORE PUSH1 0x20 ADD PUSH0 KECCAK256 PUSH1 0x4 ADD PUSH0 SWAP1 SLOAD SWAP1 PUSH2 0x100 EXP SWAP1 DIV PUSH1 0xFF AND PUSH2 0x34B4 JUMPI PUSH1 0x40 MLOAD PUSH32 0x2A718CEB00000000000000000000000000000000000000000000000000000000 DUP2 MSTORE PUSH1 0x4 ADD PUSH1 0x40 MLOAD DUP1 SWAP2 SUB SWAP1 REVERT JUMPDEST JUMP JUMPDEST PUSH0 DUP2 EQ DUP1 PUSH2 0x34C6 JUMPI POP PUSH1 0x2 SLOAD DUP2 LT ISZERO JUMPDEST ISZERO PUSH2 0x3508 JUMPI DUP1 PUSH1 0x40 MLOAD PUSH32 0x84E54A2400000000000000000000000000000000000000000000000000000000 DUP2 MSTORE PUSH1 0x4 ADD PUSH2 0x34FF SWAP2 SWAP1 PUSH2 0x4064 JUMP JUMPDEST PUSH1 0x40 MLOAD DUP1 SWAP2 SUB SWAP1 REVERT JUMPDEST POP JUMP JUMPDEST PUSH0 PUSH0 PUSH1 0x5 PUSH0 DUP7 DUP2 MSTORE PUSH1 0x20 ADD SWAP1 DUP2 MSTORE PUSH1 0x20 ADD PUSH0 KECCAK256 SWAP1 POP PUSH1 0x32 DUP2 PUSH1 0xA ADD DUP1 SLOAD SWAP1 POP LT PUSH2 0x3561 JUMPI PUSH1 0x40 MLOAD PUSH32 0xCDB7A76C00000000000000000000000000000000000000000000000000000000 DUP2 MSTORE PUSH1 0x4 ADD PUSH1 0x40 MLOAD DUP1 SWAP2 SUB SWAP1 REVERT JUMPDEST PUSH0 PUSH1 0x4 PUSH0 DUP2 SLOAD DUP1 SWAP3 SWAP2 SWAP1 PUSH2 0x3574 SWAP1 PUSH2 0x4B5F JUMP JUMPDEST SWAP2 SWAP1 POP SSTORE SWAP1 POP PUSH1 0x40 MLOAD DUP1 PUSH1 0xE0 ADD PUSH1 0x40 MSTORE DUP1 DUP3 DUP2 MSTORE PUSH1 0x20 ADD DUP8 DUP2 MSTORE PUSH1 0x20 ADD DUP7 PUSH1 0x4 DUP2 GT ISZERO PUSH2 0x35A4 JUMPI PUSH2 0x35A3 PUSH2 0x3BB2 JUMP JUMPDEST JUMPDEST DUP2 MSTORE PUSH1 0x20 ADD CALLER PUSH20 0xFFFFFFFFFFFFFFFFFFFFFFFFFFFFFFFFFFFFFFFF AND DUP2 MSTORE PUSH1 0x20 ADD DUP6 DUP2 MSTORE PUSH1 0x20 ADD TIMESTAMP DUP2 MSTORE PUSH1 0x20 ADD PUSH0 ISZERO ISZERO DUP2 MSTORE POP PUSH1 0x7 PUSH0 DUP4 DUP2 MSTORE PUSH1 0x20 ADD SWAP1 DUP2 MSTORE PUSH1 0x20 ADD PUSH0 KECCAK256 PUSH0 DUP3 ADD MLOAD DUP2 PUSH0 ADD SSTORE PUSH1 0x20 DUP3 ADD MLOAD DUP2 PUSH1 0x1 ADD SSTORE PUSH1 0x40 DUP3 ADD MLOAD DUP2 PUSH1 0x2 ADD PUSH0 PUSH2 0x100 EXP DUP2 SLOAD DUP2 PUSH1 0xFF MUL NOT AND SWAP1 DUP4 PUSH1 0x4 DUP2 GT ISZERO PUSH2 0x3624 JUMPI PUSH2 0x3623 PUSH2 0x3BB2 JUMP JUMPDEST JUMPDEST MUL OR SWAP1 SSTORE POP PUSH1 0x60 DUP3 ADD MLOAD DUP2 PUSH1 0x2 ADD PUSH1 0x1 PUSH2 0x100 EXP DUP2 SLOAD DUP2 PUSH20 0xFFFFFFFFFFFFFFFFFFFFFFFFFFFFFFFFFFFFFFFF MUL NOT AND SWAP1 DUP4 PUSH20 0xFFFFFFFFFFFFFFFFFFFFFFFFFFFFFFFFFFFFFFFF AND MUL OR SWAP1 SSTORE POP PUSH1 0x80 DUP3 ADD MLOAD DUP2 PUSH1 0x3 ADD SWAP1 DUP2 PUSH2 0x3685 SWAP2 SWAP1 PUSH2 0x4D46 JUMP JUMPDEST POP PUSH1 0xA0 DUP3 ADD MLOAD DUP2 PUSH1 0x4 ADD SSTORE PUSH1 0xC0 DUP3 ADD MLOAD DUP2 PUSH1 0x5 ADD PUSH0 PUSH2 0x100 EXP DUP2 SLOAD DUP2 PUSH1 0xFF MUL NOT AND SWAP1 DUP4 ISZERO ISZERO MUL OR SWAP1 SSTORE POP SWAP1 POP POP DUP2 PUSH1 0xA ADD DUP2 SWAP1 DUP1 PUSH1 0x1 DUP2 SLOAD ADD DUP1 DUP3 SSTORE DUP1 SWAP2 POP POP PUSH1 0x1 SWAP1 SUB SWAP1 PUSH0 MSTORE PUSH1 0x20 PUSH0 KECCAK256 ADD PUSH0 SWAP1 SWAP2 SWAP1 SWAP2 SWAP1 SWAP2 POP SSTORE DUP6 DUP2 PUSH32 0xC2C9D0FA5CAECEA68B9EC6ACA764014B01764F779D8A510F0D0D6796B76B7C83 DUP8 PUSH1 0x40 MLOAD PUSH2 0x370B SWAP2 SWAP1 PUSH2 0x4FBA JUMP JUMPDEST PUSH1 0x40 MLOAD DUP1 SWAP2 SUB SWAP1 LOG3 DUP1 SWAP3 POP POP POP SWAP4 SWAP3 POP POP POP JUMP JUMPDEST PUSH0 PUSH0 SWAP1 SLOAD SWAP1 PUSH2 0x100 EXP SWAP1 DIV PUSH20 0xFFFFFFFFFFFFFFFFFFFFFFFFFFFFFFFFFFFFFFFF AND PUSH20 0xFFFFFFFFFFFFFFFFFFFFFFFFFFFFFFFFFFFFFFFF AND CALLER PUSH20 0xFFFFFFFFFFFFFFFFFFFFFFFFFFFFFFFFFFFFFFFF AND EQ PUSH2 0x37A4 JUMPI PUSH1 0x40 MLOAD PUSH32 0x4755657900000000000000000000000000000000000000000000000000000000 DUP2 MSTORE PUSH1 0x4 ADD PUSH1 0x40 MLOAD DUP1 SWAP2 SUB SWAP1 REVERT JUMPDEST JUMP JUMPDEST PUSH1 0xA PUSH0 DUP4 PUSH20 0xFFFFFFFFFFFFFFFFFFFFFFFFFFFFFFFFFFFFFFFF AND PUSH20 0xFFFFFFFFFFFFFFFFFFFFFFFFFFFFFFFFFFFFFFFF AND DUP2 MSTORE PUSH1 0x20 ADD SWAP1 DUP2 MSTORE PUSH1 0x20 ADD PUSH0 KECCAK256 PUSH0 DUP3 DUP2 MSTORE PUSH1 0x20 ADD SWAP1 DUP2 MSTORE PUSH1 0x20 ADD PUSH0 KECCAK256 PUSH0 SWAP1 SLOAD SWAP1 PUSH2 0x100 EXP SWAP1 DIV PUSH1 0xFF AND PUSH2 0x38C9 JUMPI PUSH1 0x1 PUSH1 0xA PUSH0 DUP5 PUSH20 0xFFFFFFFFFFFFFFFFFFFFFFFFFFFFFFFFFFFFFFFF AND PUSH20 0xFFFFFFFFFFFFFFFFFFFFFFFFFFFFFFFFFFFFFFFF AND DUP2 MSTORE PUSH1 0x20 ADD SWAP1 DUP2 MSTORE PUSH1 0x20 ADD PUSH0 KECCAK256 PUSH0 DUP4 DUP2 MSTORE PUSH1 0x20 ADD SWAP1 DUP2 MSTORE PUSH1 0x20 ADD PUSH0 KECCAK256 PUSH0 PUSH2 0x100 EXP DUP2 SLOAD DUP2 PUSH1 0xFF MUL NOT AND SWAP1 DUP4 ISZERO ISZERO MUL OR SWAP1 SSTORE POP PUSH1 0x9 PUSH0 DUP4 PUSH20 0xFFFFFFFFFFFFFFFFFFFFFFFFFFFFFFFFFFFFFFFF AND PUSH20 0xFFFFFFFFFFFFFFFFFFFFFFFFFFFFFFFFFFFFFFFF AND DUP2 MSTORE PUSH1 0x20 ADD SWAP1 DUP2 MSTORE PUSH1 0x20 ADD PUSH0 KECCAK256 DUP2 SWAP1 DUP1 PUSH1 0x1 DUP2 SLOAD ADD DUP1 DUP3 SSTORE DUP1 SWAP2 POP POP PUSH1 0x1 SWAP1 SUB SWAP1 PUSH0 MSTORE PUSH1 0x20 PUSH0 KECCAK256 ADD PUSH0 SWAP1 SWAP2 SWAP1 SWAP2 SWAP1 SWAP2 POP SSTORE JUMPDEST POP POP JUMP JUMPDEST PUSH1 0x40 MLOAD DUP1 PUSH2 0x180 ADD PUSH1 0x40 MSTORE DUP1 PUSH0 DUP2 MSTORE PUSH1 0x20 ADD PUSH0 PUSH20 0xFFFFFFFFFFFFFFFFFFFFFFFFFFFFFFFFFFFFFFFF AND DUP2 MSTORE PUSH1 0x20 ADD PUSH0 PUSH20 0xFFFFFFFFFFFFFFFFFFFFFFFFFFFFFFFFFFFFFFFF AND DUP2 MSTORE PUSH1 0x20 ADD PUSH1 0x60 DUP2 MSTORE PUSH1 0x20 ADD PUSH1 0x60 DUP2 MSTORE PUSH1 0x20 ADD PUSH1 0x60 DUP2 MSTORE PUSH1 0x20 ADD PUSH0 DUP2 MSTORE PUSH1 0x20 ADD PUSH0 DUP2 MSTORE PUSH1 0x20 ADD PUSH0 PUSH1 0x6 DUP2 GT ISZERO PUSH2 0x394B JUMPI PUSH2 0x394A PUSH2 0x3BB2 JUMP JUMPDEST JUMPDEST DUP2 MSTORE PUSH1 0x20 ADD PUSH1 0x60 DUP2 MSTORE PUSH1 0x20 ADD PUSH1 0x60 DUP2 MSTORE PUSH1 0x20 ADD PUSH0 ISZERO ISZERO DUP2 MSTORE POP SWAP1 JUMP JUMPDEST PUSH1 0x40 MLOAD DUP1 PUSH2 0x100 ADD PUSH1 0x40 MSTORE DUP1 PUSH0 DUP2 MSTORE PUSH1 0x20 ADD PUSH0 DUP2 MSTORE PUSH1 0x20 ADD PUSH0 PUSH20 0xFFFFFFFFFFFFFFFFFFFFFFFFFFFFFFFFFFFFFFFF AND DUP2 MSTORE PUSH1 0x20 ADD PUSH1 0x60 DUP2 MSTORE PUSH1 0x20 ADD PUSH0 PUSH1 0x4 DUP2 GT ISZERO PUSH2 0x39B5 JUMPI PUSH2 0x39B4 PUSH2 0x3BB2 JUMP JUMPDEST JUMPDEST DUP2 MSTORE PUSH1 0x20 ADD PUSH0 DUP2 MSTORE PUSH1 0x20 ADD PUSH1 0x60 DUP2 MSTORE PUSH1 0x20 ADD PUSH0 DUP2 MSTORE POP SWAP1 JUMP JUMPDEST PUSH1 0x40 MLOAD DUP1 PUSH1 0xA0 ADD PUSH1 0x40 MSTORE DUP1 PUSH0 PUSH20 0xFFFFFFFFFFFFFFFFFFFFFFFFFFFFFFFFFFFFFFFF AND DUP2 MSTORE PUSH1 0x20 ADD PUSH1 0x60 DUP2 MSTORE PUSH1 0x20 ADD PUSH0 PUSH1 0x5 DUP2 GT ISZERO PUSH2 0x3A0F JUMPI PUSH2 0x3A0E PUSH2 0x3BB2 JUMP JUMPDEST JUMPDEST DUP2 MSTORE PUSH1 0x20 ADD PUSH1 0x60 DUP2 MSTORE PUSH1 0x20 ADD PUSH0 ISZERO ISZERO DUP2 MSTORE POP SWAP1 JUMP JUMPDEST PUSH1 0x40 MLOAD DUP1 PUSH1 0xE0 ADD PUSH1 0x40 MSTORE DUP1 PUSH0 DUP2 MSTORE PUSH1 0x20 ADD PUSH0 DUP2 MSTORE PUSH1 0x20 ADD PUSH0 PUSH1 0x4 DUP2 GT ISZERO PUSH2 0x3A4E JUMPI PUSH2 0x3A4D PUSH2 0x3BB2 JUMP JUMPDEST JUMPDEST DUP2 MSTORE PUSH1 0x20 ADD PUSH0 PUSH20 0xFFFFFFFFFFFFFFFFFFFFFFFFFFFFFFFFFFFFFFFF AND DUP2 MSTORE PUSH1 0x20 ADD PUSH1 0x60 DUP2 MSTORE PUSH1 0x20 ADD PUSH0 DUP2 MSTORE PUSH1 0x20 ADD PUSH0 ISZERO ISZERO DUP2 MSTORE POP SWAP1 JUMP JUMPDEST PUSH0 PUSH1 0x40 MLOAD SWAP1 POP SWAP1 JUMP JUMPDEST PUSH0 PUSH0 REVERT JUMPDEST PUSH0 PUSH0 REVERT JUMPDEST PUSH0 DUP2 SWAP1 POP SWAP2 SWAP1 POP JUMP JUMPDEST PUSH2 0x3AA8 DUP2 PUSH2 0x3A96 JUMP JUMPDEST DUP2 EQ PUSH2 0x3AB2 JUMPI PUSH0 PUSH0 REVERT JUMPDEST POP JUMP JUMPDEST PUSH0 DUP2 CALLDATALOAD SWAP1 POP PUSH2 0x3AC3 DUP2 PUSH2 0x3A9F JUMP JUMPDEST SWAP3 SWAP2 POP POP JUMP JUMPDEST PUSH0 PUSH1 0x20 DUP3 DUP5 SUB SLT ISZERO PUSH2 0x3ADE JUMPI PUSH2 0x3ADD PUSH2 0x3A8E JUMP JUMPDEST JUMPDEST PUSH0 PUSH2 0x3AEB DUP5 DUP3 DUP6 ADD PUSH2 0x3AB5 JUMP JUMPDEST SWAP2 POP POP SWAP3 SWAP2 POP POP JUMP JUMPDEST PUSH2 0x3AFD DUP2 PUSH2 0x3A96 JUMP JUMPDEST DUP3 MSTORE POP POP JUMP JUMPDEST PUSH0 PUSH20 0xFFFFFFFFFFFFFFFFFFFFFFFFFFFFFFFFFFFFFFFF DUP3 AND SWAP1 POP SWAP2 SWAP1 POP JUMP JUMPDEST PUSH0 PUSH2 0x3B2C DUP3 PUSH2 0x3B03 JUMP JUMPDEST SWAP1 POP SWAP2 SWAP1 POP JUMP JUMPDEST PUSH2 0x3B3C DUP2 PUSH2 0x3B22 JUMP JUMPDEST DUP3 MSTORE POP POP JUMP JUMPDEST PUSH0 DUP2 MLOAD SWAP1 POP SWAP2 SWAP1 POP JUMP JUMPDEST PUSH0 DUP3 DUP3 MSTORE PUSH1 0x20 DUP3 ADD SWAP1 POP SWAP3 SWAP2 POP POP JUMP JUMPDEST DUP3 DUP2 DUP4 MCOPY PUSH0 DUP4 DUP4 ADD MSTORE POP POP POP JUMP JUMPDEST PUSH0 PUSH1 0x1F NOT PUSH1 0x1F DUP4 ADD AND SWAP1 POP SWAP2 SWAP1 POP JUMP JUMPDEST PUSH0 PUSH2 0x3B84 DUP3 PUSH2 0x3B42 JUMP JUMPDEST PUSH2 0x3B8E DUP2 DUP6 PUSH2 0x3B4C JUMP JUMPDEST SWAP4 POP PUSH2 0x3B9E DUP2 DUP6 PUSH1 0x20 DUP7 ADD PUSH2 0x3B5C JUMP JUMPDEST PUSH2 0x3BA7 DUP2 PUSH2 0x3B6A JUMP JUMPDEST DUP5 ADD SWAP2 POP POP SWAP3 SWAP2 POP POP JUMP JUMPDEST PUSH32 0x4E487B7100000000000000000000000000000000000000000000000000000000 PUSH0 MSTORE PUSH1 0x21 PUSH1 0x4 MSTORE PUSH1 0x24 PUSH0 REVERT JUMPDEST PUSH1 0x7 DUP2 LT PUSH2 0x3BF0 JUMPI PUSH2 0x3BEF PUSH2 0x3BB2 JUMP JUMPDEST JUMPDEST POP JUMP JUMPDEST PUSH0 DUP2 SWAP1 POP PUSH2 0x3C00 DUP3 PUSH2 0x3BDF JUMP JUMPDEST SWAP2 SWAP1 POP JUMP JUMPDEST PUSH0 PUSH2 0x3C0F DUP3 PUSH2 0x3BF3 JUMP JUMPDEST SWAP1 POP SWAP2 SWAP1 POP JUMP JUMPDEST PUSH2 0x3C1F DUP2 PUSH2 0x3C05 JUMP JUMPDEST DUP3 MSTORE POP POP JUMP JUMPDEST PUSH0 DUP2 MLOAD SWAP1 POP SWAP2 SWAP1 POP JUMP JUMPDEST PUSH0 DUP3 DUP3 MSTORE PUSH1 0x20 DUP3 ADD SWAP1 POP SWAP3 SWAP2 POP POP JUMP JUMPDEST PUSH0 DUP2 SWAP1 POP PUSH1 0x20 DUP3 ADD SWAP1 POP SWAP2 SWAP1 POP JUMP JUMPDEST PUSH0 PUSH2 0x3C59 DUP4 DUP4 PUSH2 0x3AF4 JUMP JUMPDEST PUSH1 0x20 DUP4 ADD SWAP1 POP SWAP3 SWAP2 POP POP JUMP JUMPDEST PUSH0 PUSH1 0x20 DUP3 ADD SWAP1 POP SWAP2 SWAP1 POP JUMP JUMPDEST PUSH0 PUSH2 0x3C7B DUP3 PUSH2 0x3C25 JUMP JUMPDEST PUSH2 0x3C85 DUP2 DUP6 PUSH2 0x3C2F JUMP JUMPDEST SWAP4 POP PUSH2 0x3C90 DUP4 PUSH2 0x3C3F JUMP JUMPDEST DUP1 PUSH0 JUMPDEST DUP4 DUP2 LT ISZERO PUSH2 0x3CC0 JUMPI DUP2 MLOAD PUSH2 0x3CA7 DUP9 DUP3 PUSH2 0x3C4E JUMP JUMPDEST SWAP8 POP PUSH2 0x3CB2 DUP4 PUSH2 0x3C65 JUMP JUMPDEST SWAP3 POP POP PUSH1 0x1 DUP2 ADD SWAP1 POP PUSH2 0x3C93 JUMP JUMPDEST POP DUP6 SWAP4 POP POP POP POP SWAP3 SWAP2 POP POP JUMP JUMPDEST PUSH0 DUP2 ISZERO ISZERO SWAP1 POP SWAP2 SWAP1 POP JUMP JUMPDEST PUSH2 0x3CE1 DUP2 PUSH2 0x3CCD JUMP JUMPDEST DUP3 MSTORE POP POP JUMP JUMPDEST PUSH0 PUSH2 0x180 DUP4 ADD PUSH0 DUP4 ADD MLOAD PUSH2 0x3CFD PUSH0 DUP7 ADD DUP3 PUSH2 0x3AF4 JUMP JUMPDEST POP PUSH1 0x20 DUP4 ADD MLOAD PUSH2 0x3D10 PUSH1 0x20 DUP7 ADD DUP3 PUSH2 0x3B33 JUMP JUMPDEST POP PUSH1 0x40 DUP4 ADD MLOAD PUSH2 0x3D23 PUSH1 0x40 DUP7 ADD DUP3 PUSH2 0x3B33 JUMP JUMPDEST POP PUSH1 0x60 DUP4 ADD MLOAD DUP5 DUP3 SUB PUSH1 0x60 DUP7 ADD MSTORE PUSH2 0x3D3B DUP3 DUP3 PUSH2 0x3B7A JUMP JUMPDEST SWAP2 POP POP PUSH1 0x80 DUP4 ADD MLOAD DUP5 DUP3 SUB PUSH1 0x80 DUP7 ADD MSTORE PUSH2 0x3D55 DUP3 DUP3 PUSH2 0x3B7A JUMP JUMPDEST SWAP2 POP POP PUSH1 0xA0 DUP4 ADD MLOAD DUP5 DUP3 SUB PUSH1 0xA0 DUP7 ADD MSTORE PUSH2 0x3D6F DUP3 DUP3 PUSH2 0x3B7A JUMP JUMPDEST SWAP2 POP POP PUSH1 0xC0 DUP4 ADD MLOAD PUSH2 0x3D84 PUSH1 0xC0 DUP7 ADD DUP3 PUSH2 0x3AF4 JUMP JUMPDEST POP PUSH1 0xE0 DUP4 ADD MLOAD PUSH2 0x3D97 PUSH1 0xE0 DUP7 ADD DUP3 PUSH2 0x3AF4 JUMP JUMPDEST POP PUSH2 0x100 DUP4 ADD MLOAD PUSH2 0x3DAC PUSH2 0x100 DUP7 ADD DUP3 PUSH2 0x3C16 JUMP JUMPDEST POP PUSH2 0x120 DUP4 ADD MLOAD DUP5 DUP3 SUB PUSH2 0x120 DUP7 ADD MSTORE PUSH2 0x3DC6 DUP3 DUP3 PUSH2 0x3C71 JUMP JUMPDEST SWAP2 POP POP PUSH2 0x140 DUP4 ADD MLOAD DUP5 DUP3 SUB PUSH2 0x140 DUP7 ADD MSTORE PUSH2 0x3DE2 DUP3 DUP3 PUSH2 0x3C71 JUMP JUMPDEST SWAP2 POP POP PUSH2 0x160 DUP4 ADD MLOAD PUSH2 0x3DF9 PUSH2 0x160 DUP7 ADD DUP3 PUSH2 0x3CD8 JUMP JUMPDEST POP DUP1 SWAP2 POP POP SWAP3 SWAP2 POP POP JUMP JUMPDEST PUSH0 PUSH1 0x20 DUP3 ADD SWAP1 POP DUP2 DUP2 SUB PUSH0 DUP4 ADD MSTORE PUSH2 0x3E1C DUP2 DUP5 PUSH2 0x3CE7 JUMP JUMPDEST SWAP1 POP SWAP3 SWAP2 POP POP JUMP JUMPDEST PUSH0 PUSH0 REVERT JUMPDEST PUSH0 PUSH0 REVERT JUMPDEST PUSH32 0x4E487B7100000000000000000000000000000000000000000000000000000000 PUSH0 MSTORE PUSH1 0x41 PUSH1 0x4 MSTORE PUSH1 0x24 PUSH0 REVERT JUMPDEST PUSH2 0x3E62 DUP3 PUSH2 0x3B6A JUMP JUMPDEST DUP2 ADD DUP2 DUP2 LT PUSH8 0xFFFFFFFFFFFFFFFF DUP3 GT OR ISZERO PUSH2 0x3E81 JUMPI PUSH2 0x3E80 PUSH2 0x3E2C JUMP JUMPDEST JUMPDEST DUP1 PUSH1 0x40 MSTORE POP POP POP JUMP JUMPDEST PUSH0 PUSH2 0x3E93 PUSH2 0x3A85 JUMP JUMPDEST SWAP1 POP PUSH2 0x3E9F DUP3 DUP3 PUSH2 0x3E59 JUMP JUMPDEST SWAP2 SWAP1 POP JUMP JUMPDEST PUSH0 PUSH8 0xFFFFFFFFFFFFFFFF DUP3 GT ISZERO PUSH2 0x3EBE JUMPI PUSH2 0x3EBD PUSH2 0x3E2C JUMP JUMPDEST JUMPDEST PUSH2 0x3EC7 DUP3 PUSH2 0x3B6A JUMP JUMPDEST SWAP1 POP PUSH1 0x20 DUP2 ADD SWAP1 POP SWAP2 SWAP1 POP JUMP JUMPDEST DUP3 DUP2 DUP4 CALLDATACOPY PUSH0 DUP4 DUP4 ADD MSTORE POP POP POP JUMP JUMPDEST PUSH0 PUSH2 0x3EF4 PUSH2 0x3EEF DUP5 PUSH2 0x3EA4 JUMP JUMPDEST PUSH2 0x3E8A JUMP JUMPDEST SWAP1 POP DUP3 DUP2 MSTORE PUSH1 0x20 DUP2 ADD DUP5 DUP5 DUP5 ADD GT ISZERO PUSH2 0x3F10 JUMPI PUSH2 0x3F0F PUSH2 0x3E28 JUMP JUMPDEST JUMPDEST PUSH2 0x3F1B DUP5 DUP3 DUP6 PUSH2 0x3ED4 JUMP JUMPDEST POP SWAP4 SWAP3 POP POP POP JUMP JUMPDEST PUSH0 DUP3 PUSH1 0x1F DUP4 ADD SLT PUSH2 0x3F37 JUMPI PUSH2 0x3F36 PUSH2 0x3E24 JUMP JUMPDEST JUMPDEST DUP2 CALLDATALOAD PUSH2 0x3F47 DUP5 DUP3 PUSH1 0x20 DUP7 ADD PUSH2 0x3EE2 JUMP JUMPDEST SWAP2 POP POP SWAP3 SWAP2 POP POP JUMP JUMPDEST PUSH1 0x5 DUP2 LT PUSH2 0x3F5C JUMPI PUSH0 PUSH0 REVERT JUMPDEST POP JUMP JUMPDEST PUSH0 DUP2 CALLDATALOAD SWAP1 POP PUSH2 0x3F6D DUP2 PUSH2 0x3F50 JUMP JUMPDEST SWAP3 SWAP2 POP POP JUMP JUMPDEST PUSH0 DUP2 SWAP1 POP SWAP2 SWAP1 POP JUMP JUMPDEST PUSH2 0x3F85 DUP2 PUSH2 0x3F73 JUMP JUMPDEST DUP2 EQ PUSH2 0x3F8F JUMPI PUSH0 PUSH0 REVERT JUMPDEST POP JUMP JUMPDEST PUSH0 DUP2 CALLDATALOAD SWAP1 POP PUSH2 0x3FA0 DUP2 PUSH2 0x3F7C JUMP JUMPDEST SWAP3 SWAP2 POP POP JUMP JUMPDEST PUSH0 PUSH0 PUSH0 PUSH0 PUSH0 PUSH1 0xA0 DUP7 DUP9 SUB SLT ISZERO PUSH2 0x3FBF JUMPI PUSH2 0x3FBE PUSH2 0x3A8E JUMP JUMPDEST JUMPDEST PUSH0 PUSH2 0x3FCC DUP9 DUP3 DUP10 ADD PUSH2 0x3AB5 JUMP JUMPDEST SWAP6 POP POP PUSH1 0x20 DUP7 ADD CALLDATALOAD PUSH8 0xFFFFFFFFFFFFFFFF DUP2 GT ISZERO PUSH2 0x3FED JUMPI PUSH2 0x3FEC PUSH2 0x3A92 JUMP JUMPDEST JUMPDEST PUSH2 0x3FF9 DUP9 DUP3 DUP10 ADD PUSH2 0x3F23 JUMP JUMPDEST SWAP5 POP POP PUSH1 0x40 PUSH2 0x400A DUP9 DUP3 DUP10 ADD PUSH2 0x3F5F JUMP JUMPDEST SWAP4 POP POP PUSH1 0x60 DUP7 ADD CALLDATALOAD PUSH8 0xFFFFFFFFFFFFFFFF DUP2 GT ISZERO PUSH2 0x402B JUMPI PUSH2 0x402A PUSH2 0x3A92 JUMP JUMPDEST JUMPDEST PUSH2 0x4037 DUP9 DUP3 DUP10 ADD PUSH2 0x3F23 JUMP JUMPDEST SWAP3 POP POP PUSH1 0x80 PUSH2 0x4048 DUP9 DUP3 DUP10 ADD PUSH2 0x3F92 JUMP JUMPDEST SWAP2 POP POP SWAP3 SWAP6 POP SWAP3 SWAP6 SWAP1 SWAP4 POP JUMP JUMPDEST PUSH2 0x405E DUP2 PUSH2 0x3A96 JUMP JUMPDEST DUP3 MSTORE POP POP JUMP JUMPDEST PUSH0 PUSH1 0x20 DUP3 ADD SWAP1 POP PUSH2 0x4077 PUSH0 DUP4 ADD DUP5 PUSH2 0x4055 JUMP JUMPDEST SWAP3 SWAP2 POP POP JUMP JUMPDEST PUSH2 0x4086 DUP2 PUSH2 0x3B22 JUMP JUMPDEST DUP2 EQ PUSH2 0x4090 JUMPI PUSH0 PUSH0 REVERT JUMPDEST POP JUMP JUMPDEST PUSH0 DUP2 CALLDATALOAD SWAP1 POP PUSH2 0x40A1 DUP2 PUSH2 0x407D JUMP JUMPDEST SWAP3 SWAP2 POP POP JUMP JUMPDEST PUSH0 PUSH1 0x20 DUP3 DUP5 SUB SLT ISZERO PUSH2 0x40BC JUMPI PUSH2 0x40BB PUSH2 0x3A8E JUMP JUMPDEST JUMPDEST PUSH0 PUSH2 0x40C9 DUP5 DUP3 DUP6 ADD PUSH2 0x4093 JUMP JUMPDEST SWAP2 POP POP SWAP3 SWAP2 POP POP JUMP JUMPDEST PUSH0 PUSH0 PUSH0 PUSH1 0x60 DUP5 DUP7 SUB SLT ISZERO PUSH2 0x40E9 JUMPI PUSH2 0x40E8 PUSH2 0x3A8E JUMP JUMPDEST JUMPDEST PUSH0 PUSH2 0x40F6 DUP7 DUP3 DUP8 ADD PUSH2 0x3AB5 JUMP JUMPDEST SWAP4 POP POP PUSH1 0x20 PUSH2 0x4107 DUP7 DUP3 DUP8 ADD PUSH2 0x3AB5 JUMP JUMPDEST SWAP3 POP POP PUSH1 0x40 PUSH2 0x4118 DUP7 DUP3 DUP8 ADD PUSH2 0x3AB5 JUMP JUMPDEST SWAP2 POP POP SWAP3 POP SWAP3 POP SWAP3 JUMP JUMPDEST PUSH0 DUP2 MLOAD SWAP1 POP SWAP2 SWAP1 POP JUMP JUMPDEST PUSH0 DUP3 DUP3 MSTORE PUSH1 0x20 DUP3 ADD SWAP1 POP SWAP3 SWAP2 POP POP JUMP JUMPDEST PUSH0 DUP2 SWAP1 POP PUSH1 0x20 DUP3 ADD SWAP1 POP SWAP2 SWAP1 POP JUMP JUMPDEST PUSH1 0x5 DUP2 LT PUSH2 0x415C JUMPI PUSH2 0x415B PUSH2 0x3BB2 JUMP JUMPDEST JUMPDEST POP JUMP JUMPDEST PUSH0 DUP2 SWAP1 POP PUSH2 0x416C DUP3 PUSH2 0x414B JUMP JUMPDEST SWAP2 SWAP1 POP JUMP JUMPDEST PUSH0 PUSH2 0x417B DUP3 PUSH2 0x415F JUMP JUMPDEST SWAP1 POP SWAP2 SWAP1 POP JUMP JUMPDEST PUSH2 0x418B DUP2 PUSH2 0x4171 JUMP JUMPDEST DUP3 MSTORE POP POP JUMP JUMPDEST PUSH2 0x419A DUP2 PUSH2 0x3F73 JUMP JUMPDEST DUP3 MSTORE POP POP JUMP JUMPDEST PUSH0 PUSH2 0x100 DUP4 ADD PUSH0 DUP4 ADD MLOAD PUSH2 0x41B6 PUSH0 DUP7 ADD DUP3 PUSH2 0x3AF4 JUMP JUMPDEST POP PUSH1 0x20 DUP4 ADD MLOAD PUSH2 0x41C9 PUSH1 0x20 DUP7 ADD DUP3 PUSH2 0x3AF4 JUMP JUMPDEST POP PUSH1 0x40 DUP4 ADD MLOAD PUSH2 0x41DC PUSH1 0x40 DUP7 ADD DUP3 PUSH2 0x3B33 JUMP JUMPDEST POP PUSH1 0x60 DUP4 ADD MLOAD DUP5 DUP3 SUB PUSH1 0x60 DUP7 ADD MSTORE PUSH2 0x41F4 DUP3 DUP3 PUSH2 0x3B7A JUMP JUMPDEST SWAP2 POP POP PUSH1 0x80 DUP4 ADD MLOAD PUSH2 0x4209 PUSH1 0x80 DUP7 ADD DUP3 PUSH2 0x4182 JUMP JUMPDEST POP PUSH1 0xA0 DUP4 ADD MLOAD PUSH2 0x421C PUSH1 0xA0 DUP7 ADD DUP3 PUSH2 0x3AF4 JUMP JUMPDEST POP PUSH1 0xC0 DUP4 ADD MLOAD DUP5 DUP3 SUB PUSH1 0xC0 DUP7 ADD MSTORE PUSH2 0x4234 DUP3 DUP3 PUSH2 0x3B7A JUMP JUMPDEST SWAP2 POP POP PUSH1 0xE0 DUP4 ADD MLOAD PUSH2 0x4249 PUSH1 0xE0 DUP7 ADD DUP3 PUSH2 0x4191 JUMP JUMPDEST POP DUP1 SWAP2 POP POP SWAP3 SWAP2 POP POP JUMP JUMPDEST PUSH0 PUSH2 0x425F DUP4 DUP4 PUSH2 0x41A0 JUMP JUMPDEST SWAP1 POP SWAP3 SWAP2 POP POP JUMP JUMPDEST PUSH0 PUSH1 0x20 DUP3 ADD SWAP1 POP SWAP2 SWAP1 POP JUMP JUMPDEST PUSH0 PUSH2 0x427D DUP3 PUSH2 0x4122 JUMP JUMPDEST PUSH2 0x4287 DUP2 DUP6 PUSH2 0x412C JUMP JUMPDEST SWAP4 POP DUP4 PUSH1 0x20 DUP3 MUL DUP6 ADD PUSH2 0x4299 DUP6 PUSH2 0x413C JUMP JUMPDEST DUP1 PUSH0 JUMPDEST DUP6 DUP2 LT ISZERO PUSH2 0x42D4 JUMPI DUP5 DUP5 SUB DUP10 MSTORE DUP2 MLOAD PUSH2 0x42B5 DUP6 DUP3 PUSH2 0x4254 JUMP JUMPDEST SWAP5 POP PUSH2 0x42C0 DUP4 PUSH2 0x4267 JUMP JUMPDEST SWAP3 POP PUSH1 0x20 DUP11 ADD SWAP10 POP POP PUSH1 0x1 DUP2 ADD SWAP1 POP PUSH2 0x429C JUMP JUMPDEST POP DUP3 SWAP8 POP DUP8 SWAP6 POP POP POP POP POP POP SWAP3 SWAP2 POP POP JUMP JUMPDEST PUSH0 PUSH1 0x20 DUP3 ADD SWAP1 POP DUP2 DUP2 SUB PUSH0 DUP4 ADD MSTORE PUSH2 0x42FE DUP2 DUP5 PUSH2 0x4273 JUMP JUMPDEST SWAP1 POP SWAP3 SWAP2 POP POP JUMP JUMPDEST PUSH0 PUSH2 0x100 DUP4 ADD PUSH0 DUP4 ADD MLOAD PUSH2 0x431C PUSH0 DUP7 ADD DUP3 PUSH2 0x3AF4 JUMP JUMPDEST POP PUSH1 0x20 DUP4 ADD MLOAD PUSH2 0x432F PUSH1 0x20 DUP7 ADD DUP3 PUSH2 0x3AF4 JUMP JUMPDEST POP PUSH1 0x40 DUP4 ADD MLOAD PUSH2 0x4342 PUSH1 0x40 DUP7 ADD DUP3 PUSH2 0x3B33 JUMP JUMPDEST POP PUSH1 0x60 DUP4 ADD MLOAD DUP5 DUP3 SUB PUSH1 0x60 DUP7 ADD MSTORE PUSH2 0x435A DUP3 DUP3 PUSH2 0x3B7A JUMP JUMPDEST SWAP2 POP POP PUSH1 0x80 DUP4 ADD MLOAD PUSH2 0x436F PUSH1 0x80 DUP7 ADD DUP3 PUSH2 0x4182 JUMP JUMPDEST POP PUSH1 0xA0 DUP4 ADD MLOAD PUSH2 0x4382 PUSH1 0xA0 DUP7 ADD DUP3 PUSH2 0x3AF4 JUMP JUMPDEST POP PUSH1 0xC0 DUP4 ADD MLOAD DUP5 DUP3 SUB PUSH1 0xC0 DUP7 ADD MSTORE PUSH2 0x439A DUP3 DUP3 PUSH2 0x3B7A JUMP JUMPDEST SWAP2 POP POP PUSH1 0xE0 DUP4 ADD MLOAD PUSH2 0x43AF PUSH1 0xE0 DUP7 ADD DUP3 PUSH2 0x4191 JUMP JUMPDEST POP DUP1 SWAP2 POP POP SWAP3 SWAP2 POP POP JUMP JUMPDEST PUSH0 PUSH1 0x20 DUP3 ADD SWAP1 POP DUP2 DUP2 SUB PUSH0 DUP4 ADD MSTORE PUSH2 0x43D2 DUP2 DUP5 PUSH2 0x4306 JUMP JUMPDEST SWAP1 POP SWAP3 SWAP2 POP POP JUMP JUMPDEST PUSH2 0x43E3 DUP2 PUSH2 0x3B22 JUMP JUMPDEST DUP3 MSTORE POP POP JUMP JUMPDEST PUSH0 PUSH1 0x20 DUP3 ADD SWAP1 POP PUSH2 0x43FC PUSH0 DUP4 ADD DUP5 PUSH2 0x43DA JUMP JUMPDEST SWAP3 SWAP2 POP POP JUMP JUMPDEST PUSH2 0x440B DUP2 PUSH2 0x3F73 JUMP JUMPDEST DUP3 MSTORE POP POP JUMP JUMPDEST PUSH0 PUSH1 0x20 DUP3 ADD SWAP1 POP PUSH2 0x4424 PUSH0 DUP4 ADD DUP5 PUSH2 0x4402 JUMP JUMPDEST SWAP3 SWAP2 POP POP JUMP JUMPDEST PUSH1 0x6 DUP2 LT PUSH2 0x443B JUMPI PUSH2 0x443A PUSH2 0x3BB2 JUMP JUMPDEST JUMPDEST POP JUMP JUMPDEST PUSH0 DUP2 SWAP1 POP PUSH2 0x444B DUP3 PUSH2 0x442A JUMP JUMPDEST SWAP2 SWAP1 POP JUMP JUMPDEST PUSH0 PUSH2 0x445A DUP3 PUSH2 0x443E JUMP JUMPDEST SWAP1 POP SWAP2 SWAP1 POP JUMP JUMPDEST PUSH2 0x446A DUP2 PUSH2 0x4450 JUMP JUMPDEST DUP3 MSTORE POP POP JUMP JUMPDEST PUSH0 PUSH1 0xA0 DUP4 ADD PUSH0 DUP4 ADD MLOAD PUSH2 0x4485 PUSH0 DUP7 ADD DUP3 PUSH2 0x3B33 JUMP JUMPDEST POP PUSH1 0x20 DUP4 ADD MLOAD DUP5 DUP3 SUB PUSH1 0x20 DUP7 ADD MSTORE PUSH2 0x449D DUP3 DUP3 PUSH2 0x3B7A JUMP JUMPDEST SWAP2 POP POP PUSH1 0x40 DUP4 ADD MLOAD PUSH2 0x44B2 PUSH1 0x40 DUP7 ADD DUP3 PUSH2 0x4461 JUMP JUMPDEST POP PUSH1 0x60 DUP4 ADD MLOAD DUP5 DUP3 SUB PUSH1 0x60 DUP7 ADD MSTORE PUSH2 0x44CA DUP3 DUP3 PUSH2 0x3B7A JUMP JUMPDEST SWAP2 POP POP PUSH1 0x80 DUP4 ADD MLOAD PUSH2 0x44DF PUSH1 0x80 DUP7 ADD DUP3 PUSH2 0x3CD8 JUMP JUMPDEST POP DUP1 SWAP2 POP POP SWAP3 SWAP2 POP POP JUMP JUMPDEST PUSH0 PUSH1 0x20 DUP3 ADD SWAP1 POP DUP2 DUP2 SUB PUSH0 DUP4 ADD MSTORE PUSH2 0x4502 DUP2 DUP5 PUSH2 0x4470 JUMP JUMPDEST SWAP1 POP SWAP3 SWAP2 POP POP JUMP JUMPDEST PUSH2 0x4513 DUP2 PUSH2 0x3CCD JUMP JUMPDEST DUP2 EQ PUSH2 0x451D JUMPI PUSH0 PUSH0 REVERT JUMPDEST POP JUMP JUMPDEST PUSH0 DUP2 CALLDATALOAD SWAP1 POP PUSH2 0x452E DUP2 PUSH2 0x450A JUMP JUMPDEST SWAP3 SWAP2 POP POP JUMP JUMPDEST PUSH0 PUSH0 PUSH0 PUSH0 PUSH0 PUSH1 0xA0 DUP7 DUP9 SUB SLT ISZERO PUSH2 0x454D JUMPI PUSH2 0x454C PUSH2 0x3A8E JUMP JUMPDEST JUMPDEST PUSH0 PUSH2 0x455A DUP9 DUP3 DUP10 ADD PUSH2 0x4093 JUMP JUMPDEST SWAP6 POP POP PUSH1 0x20 DUP7 ADD CALLDATALOAD PUSH8 0xFFFFFFFFFFFFFFFF DUP2 GT ISZERO PUSH2 0x457B JUMPI PUSH2 0x457A PUSH2 0x3A92 JUMP JUMPDEST JUMPDEST PUSH2 0x4587 DUP9 DUP3 DUP10 ADD PUSH2 0x3F23 JUMP JUMPDEST SWAP5 POP POP PUSH1 0x40 DUP7 ADD CALLDATALOAD PUSH8 0xFFFFFFFFFFFFFFFF DUP2 GT ISZERO PUSH2 0x45A8 JUMPI PUSH2 0x45A7 PUSH2 0x3A92 JUMP JUMPDEST JUMPDEST PUSH2 0x45B4 DUP9 DUP3 DUP10 ADD PUSH2 0x3F23 JUMP JUMPDEST SWAP4 POP POP PUSH1 0x60 DUP7 ADD CALLDATALOAD PUSH8 0xFFFFFFFFFFFFFFFF DUP2 GT ISZERO PUSH2 0x45D5 JUMPI PUSH2 0x45D4 PUSH2 0x3A92 JUMP JUMPDEST JUMPDEST PUSH2 0x45E1 DUP9 DUP3 DUP10 ADD PUSH2 0x3F23 JUMP JUMPDEST SWAP3 POP POP PUSH1 0x80 PUSH2 0x45F2 DUP9 DUP3 DUP10 ADD PUSH2 0x4520 JUMP JUMPDEST SWAP2 POP POP SWAP3 SWAP6 POP SWAP3 SWAP6 SWAP1 SWAP4 POP JUMP JUMPDEST PUSH0 DUP2 MLOAD SWAP1 POP SWAP2 SWAP1 POP JUMP JUMPDEST PUSH0 DUP3 DUP3 MSTORE PUSH1 0x20 DUP3 ADD SWAP1 POP SWAP3 SWAP2 POP POP JUMP JUMPDEST PUSH0 DUP2 SWAP1 POP PUSH1 0x20 DUP3 ADD SWAP1 POP SWAP2 SWAP1 POP JUMP JUMPDEST PUSH1 0x5 DUP2 LT PUSH2 0x4639 JUMPI PUSH2 0x4638 PUSH2 0x3BB2 JUMP JUMPDEST JUMPDEST POP JUMP JUMPDEST PUSH0 DUP2 SWAP1 POP PUSH2 0x4649 DUP3 PUSH2 0x4628 JUMP JUMPDEST SWAP2 SWAP1 POP JUMP JUMPDEST PUSH0 PUSH2 0x4658 DUP3 PUSH2 0x463C JUMP JUMPDEST SWAP1 POP SWAP2 SWAP1 POP JUMP JUMPDEST PUSH2 0x4668 DUP2 PUSH2 0x464E JUMP JUMPDEST DUP3 MSTORE POP POP JUMP JUMPDEST PUSH0 PUSH1 0xE0 DUP4 ADD PUSH0 DUP4 ADD MLOAD PUSH2 0x4683 PUSH0 DUP7 ADD DUP3 PUSH2 0x3AF4 JUMP JUMPDEST POP PUSH1 0x20 DUP4 ADD MLOAD PUSH2 0x4696 PUSH1 0x20 DUP7 ADD DUP3 PUSH2 0x3AF4 JUMP JUMPDEST POP PUSH1 0x40 DUP4 ADD MLOAD PUSH2 0x46A9 PUSH1 0x40 DUP7 ADD DUP3 PUSH2 0x465F JUMP JUMPDEST POP PUSH1 0x60 DUP4 ADD MLOAD PUSH2 0x46BC PUSH1 0x60 DUP7 ADD DUP3 PUSH2 0x3B33 JUMP JUMPDEST POP PUSH1 0x80 DUP4 ADD MLOAD DUP5 DUP3 SUB PUSH1 0x80 DUP7 ADD MSTORE PUSH2 0x46D4 DUP3 DUP3 PUSH2 0x3B7A JUMP JUMPDEST SWAP2 POP POP PUSH1 0xA0 DUP4 ADD MLOAD PUSH2 0x46E9 PUSH1 0xA0 DUP7 ADD DUP3 PUSH2 0x3AF4 JUMP JUMPDEST POP PUSH1 0xC0 DUP4 ADD MLOAD PUSH2 0x46FC PUSH1 0xC0 DUP7 ADD DUP3 PUSH2 0x3CD8 JUMP JUMPDEST POP DUP1 SWAP2 POP POP SWAP3 SWAP2 POP POP JUMP JUMPDEST PUSH0 PUSH2 0x4712 DUP4 DUP4 PUSH2 0x466E JUMP JUMPDEST SWAP1 POP SWAP3 SWAP2 POP POP JUMP JUMPDEST PUSH0 PUSH1 0x20 DUP3 ADD SWAP1 POP SWAP2 SWAP1 POP JUMP JUMPDEST PUSH0 PUSH2 0x4730 DUP3 PUSH2 0x45FF JUMP JUMPDEST PUSH2 0x473A DUP2 DUP6 PUSH2 0x4609 JUMP JUMPDEST SWAP4 POP DUP4 PUSH1 0x20 DUP3 MUL DUP6 ADD PUSH2 0x474C DUP6 PUSH2 0x4619 JUMP JUMPDEST DUP1 PUSH0 JUMPDEST DUP6 DUP2 LT ISZERO PUSH2 0x4787 JUMPI DUP5 DUP5 SUB DUP10 MSTORE DUP2 MLOAD PUSH2 0x4768 DUP6 DUP3 PUSH2 0x4707 JUMP JUMPDEST SWAP5 POP PUSH2 0x4773 DUP4 PUSH2 0x471A JUMP JUMPDEST SWAP3 POP PUSH1 0x20 DUP11 ADD SWAP10 POP POP PUSH1 0x1 DUP2 ADD SWAP1 POP PUSH2 0x474F JUMP JUMPDEST POP DUP3 SWAP8 POP DUP8 SWAP6 POP POP POP POP POP POP SWAP3 SWAP2 POP POP JUMP JUMPDEST PUSH0 PUSH1 0x20 DUP3 ADD SWAP1 POP DUP2 DUP2 SUB PUSH0 DUP4 ADD MSTORE PUSH2 0x47B1 DUP2 DUP5 PUSH2 0x4726 JUMP JUMPDEST SWAP1 POP SWAP3 SWAP2 POP POP JUMP JUMPDEST PUSH0 DUP3 DUP3 MSTORE PUSH1 0x20 DUP3 ADD SWAP1 POP SWAP3 SWAP2 POP POP JUMP JUMPDEST PUSH0 PUSH2 0x47D3 DUP3 PUSH2 0x3C25 JUMP JUMPDEST PUSH2 0x47DD DUP2 DUP6 PUSH2 0x47B9 JUMP JUMPDEST SWAP4 POP PUSH2 0x47E8 DUP4 PUSH2 0x3C3F JUMP JUMPDEST DUP1 PUSH0 JUMPDEST DUP4 DUP2 LT ISZERO PUSH2 0x4818 JUMPI DUP2 MLOAD PUSH2 0x47FF DUP9 DUP3 PUSH2 0x3C4E JUMP JUMPDEST SWAP8 POP PUSH2 0x480A DUP4 PUSH2 0x3C65 JUMP JUMPDEST SWAP3 POP POP PUSH1 0x1 DUP2 ADD SWAP1 POP PUSH2 0x47EB JUMP JUMPDEST POP DUP6 SWAP4 POP POP POP POP SWAP3 SWAP2 POP POP JUMP JUMPDEST PUSH0 PUSH1 0x20 DUP3 ADD SWAP1 POP DUP2 DUP2 SUB PUSH0 DUP4 ADD MSTORE PUSH2 0x483D DUP2 DUP5 PUSH2 0x47C9 JUMP JUMPDEST SWAP1 POP SWAP3 SWAP2 POP POP JUMP JUMPDEST PUSH1 0x7 DUP2 LT PUSH2 0x4851 JUMPI PUSH0 PUSH0 REVERT JUMPDEST POP JUMP JUMPDEST PUSH0 DUP2 CALLDATALOAD SWAP1 POP PUSH2 0x4862 DUP2 PUSH2 0x4845 JUMP JUMPDEST SWAP3 SWAP2 POP POP JUMP JUMPDEST PUSH0 PUSH0 PUSH1 0x40 DUP4 DUP6 SUB SLT ISZERO PUSH2 0x487E JUMPI PUSH2 0x487D PUSH2 0x3A8E JUMP JUMPDEST JUMPDEST PUSH0 PUSH2 0x488B DUP6 DUP3 DUP7 ADD PUSH2 0x3AB5 JUMP JUMPDEST SWAP3 POP POP PUSH1 0x20 PUSH2 0x489C DUP6 DUP3 DUP7 ADD PUSH2 0x4854 JUMP JUMPDEST SWAP2 POP POP SWAP3 POP SWAP3 SWAP1 POP JUMP JUMPDEST PUSH2 0x48AF DUP2 PUSH2 0x3CCD JUMP JUMPDEST DUP3 MSTORE POP POP JUMP JUMPDEST PUSH0 PUSH1 0x20 DUP3 ADD SWAP1 POP PUSH2 0x48C8 PUSH0 DUP4 ADD DUP5 PUSH2 0x48A6 JUMP JUMPDEST SWAP3 SWAP2 POP POP JUMP JUMPDEST PUSH0 PUSH1 0xE0 DUP4 ADD PUSH0 DUP4 ADD MLOAD PUSH2 0x48E3 PUSH0 DUP7 ADD DUP3 PUSH2 0x3AF4 JUMP JUMPDEST POP PUSH1 0x20 DUP4 ADD MLOAD PUSH2 0x48F6 PUSH1 0x20 DUP7 ADD DUP3 PUSH2 0x3AF4 JUMP JUMPDEST POP PUSH1 0x40 DUP4 ADD MLOAD PUSH2 0x4909 PUSH1 0x40 DUP7 ADD DUP3 PUSH2 0x465F JUMP JUMPDEST POP PUSH1 0x60 DUP4 ADD MLOAD PUSH2 0x491C PUSH1 0x60 DUP7 ADD DUP3 PUSH2 0x3B33 JUMP JUMPDEST POP PUSH1 0x80 DUP4 ADD MLOAD DUP5 DUP3 SUB PUSH1 0x80 DUP7 ADD MSTORE PUSH2 0x4934 DUP3 DUP3 PUSH2 0x3B7A JUMP JUMPDEST SWAP2 POP POP PUSH1 0xA0 DUP4 ADD MLOAD PUSH2 0x4949 PUSH1 0xA0 DUP7 ADD DUP3 PUSH2 0x3AF4 JUMP JUMPDEST POP PUSH1 0xC0 DUP4 ADD MLOAD PUSH2 0x495C PUSH1 0xC0 DUP7 ADD DUP3 PUSH2 0x3CD8 JUMP JUMPDEST POP DUP1 SWAP2 POP POP SWAP3 SWAP2 POP POP JUMP JUMPDEST PUSH0 PUSH1 0x20 DUP3 ADD SWAP1 POP DUP2 DUP2 SUB PUSH0 DUP4 ADD MSTORE PUSH2 0x497F DUP2 DUP5 PUSH2 0x48CE JUMP JUMPDEST SWAP1 POP SWAP3 SWAP2 POP POP JUMP JUMPDEST PUSH1 0x6 DUP2 LT PUSH2 0x4993 JUMPI PUSH0 PUSH0 REVERT JUMPDEST POP JUMP JUMPDEST PUSH0 DUP2 CALLDATALOAD SWAP1 POP PUSH2 0x49A4 DUP2 PUSH2 0x4987 JUMP JUMPDEST SWAP3 SWAP2 POP POP JUMP JUMPDEST PUSH0 PUSH0 PUSH0 PUSH0 PUSH1 0x80 DUP6 DUP8 SUB SLT ISZERO PUSH2 0x49C2 JUMPI PUSH2 0x49C1 PUSH2 0x3A8E JUMP JUMPDEST JUMPDEST PUSH0 DUP6 ADD CALLDATALOAD PUSH8 0xFFFFFFFFFFFFFFFF DUP2 GT ISZERO PUSH2 0x49DF JUMPI PUSH2 0x49DE PUSH2 0x3A92 JUMP JUMPDEST JUMPDEST PUSH2 0x49EB DUP8 DUP3 DUP9 ADD PUSH2 0x3F23 JUMP JUMPDEST SWAP5 POP POP PUSH1 0x20 PUSH2 0x49FC DUP8 DUP3 DUP9 ADD PUSH2 0x4996 JUMP JUMPDEST SWAP4 POP POP PUSH1 0x40 DUP6 ADD CALLDATALOAD PUSH8 0xFFFFFFFFFFFFFFFF DUP2 GT ISZERO PUSH2 0x4A1D JUMPI PUSH2 0x4A1C PUSH2 0x3A92 JUMP JUMPDEST JUMPDEST PUSH2 0x4A29 DUP8 DUP3 DUP9 ADD PUSH2 0x3F23 JUMP JUMPDEST SWAP3 POP POP PUSH1 0x60 PUSH2 0x4A3A DUP8 DUP3 DUP9 ADD PUSH2 0x4093 JUMP JUMPDEST SWAP2 POP POP SWAP3 SWAP6 SWAP2 SWAP5 POP SWAP3 POP JUMP JUMPDEST PUSH1 0x5 DUP2 LT PUSH2 0x4A52 JUMPI PUSH0 PUSH0 REVERT JUMPDEST POP JUMP JUMPDEST PUSH0 DUP2 CALLDATALOAD SWAP1 POP PUSH2 0x4A63 DUP2 PUSH2 0x4A46 JUMP JUMPDEST SWAP3 SWAP2 POP POP JUMP JUMPDEST PUSH0 PUSH0 PUSH0 PUSH1 0x60 DUP5 DUP7 SUB SLT ISZERO PUSH2 0x4A80 JUMPI PUSH2 0x4A7F PUSH2 0x3A8E JUMP JUMPDEST JUMPDEST PUSH0 PUSH2 0x4A8D DUP7 DUP3 DUP8 ADD PUSH2 0x3AB5 JUMP JUMPDEST SWAP4 POP POP PUSH1 0x20 PUSH2 0x4A9E DUP7 DUP3 DUP8 ADD PUSH2 0x4A55 JUMP JUMPDEST SWAP3 POP POP PUSH1 0x40 DUP5 ADD CALLDATALOAD PUSH8 0xFFFFFFFFFFFFFFFF DUP2 GT ISZERO PUSH2 0x4ABF JUMPI PUSH2 0x4ABE PUSH2 0x3A92 JUMP JUMPDEST JUMPDEST PUSH2 0x4ACB DUP7 DUP3 DUP8 ADD PUSH2 0x3F23 JUMP JUMPDEST SWAP2 POP POP SWAP3 POP SWAP3 POP SWAP3 JUMP JUMPDEST PUSH32 0x4E487B7100000000000000000000000000000000000000000000000000000000 PUSH0 MSTORE PUSH1 0x22 PUSH1 0x4 MSTORE PUSH1 0x24 PUSH0 REVERT JUMPDEST PUSH0 PUSH1 0x2 DUP3 DIV SWAP1 POP PUSH1 0x1 DUP3 AND DUP1 PUSH2 0x4B19 JUMPI PUSH1 0x7F DUP3 AND SWAP2 POP JUMPDEST PUSH1 0x20 DUP3 LT DUP2 SUB PUSH2 0x4B2C JUMPI PUSH2 0x4B2B PUSH2 0x4AD5 JUMP JUMPDEST JUMPDEST POP SWAP2 SWAP1 POP JUMP JUMPDEST PUSH32 0x4E487B7100000000000000000000000000000000000000000000000000000000 PUSH0 MSTORE PUSH1 0x11 PUSH1 0x4 MSTORE PUSH1 0x24 PUSH0 REVERT JUMPDEST PUSH0 PUSH2 0x4B69 DUP3 PUSH2 0x3A96 JUMP JUMPDEST SWAP2 POP PUSH32 0xFFFFFFFFFFFFFFFFFFFFFFFFFFFFFFFFFFFFFFFFFFFFFFFFFFFFFFFFFFFFFFFF DUP3 SUB PUSH2 0x4B9B JUMPI PUSH2 0x4B9A PUSH2 0x4B32 JUMP JUMPDEST JUMPDEST PUSH1 0x1 DUP3 ADD SWAP1 POP SWAP2 SWAP1 POP JUMP JUMPDEST PUSH0 DUP2 SWAP1 POP DUP2 PUSH0 MSTORE PUSH1 0x20 PUSH0 KECCAK256 SWAP1 POP SWAP2 SWAP1 POP JUMP JUMPDEST PUSH0 PUSH1 0x20 PUSH1 0x1F DUP4 ADD DIV SWAP1 POP SWAP2 SWAP1 POP JUMP JUMPDEST PUSH0 DUP3 DUP3 SHL SWAP1 POP SWAP3 SWAP2 POP POP JUMP JUMPDEST PUSH0 PUSH1 0x8 DUP4 MUL PUSH2 0x4C02 PUSH32 0xFFFFFFFFFFFFFFFFFFFFFFFFFFFFFFFFFFFFFFFFFFFFFFFFFFFFFFFFFFFFFFFF DUP3 PUSH2 0x4BC7 JUMP JUMPDEST PUSH2 0x4C0C DUP7 DUP4 PUSH2 0x4BC7 JUMP JUMPDEST SWAP6 POP DUP1 NOT DUP5 AND SWAP4 POP DUP1 DUP7 AND DUP5 OR SWAP3 POP POP POP SWAP4 SWAP3 POP POP POP JUMP JUMPDEST PUSH0 DUP2 SWAP1 POP SWAP2 SWAP1 POP JUMP JUMPDEST PUSH0 PUSH2 0x4C47 PUSH2 0x4C42 PUSH2 0x4C3D DUP5 PUSH2 0x3A96 JUMP JUMPDEST PUSH2 0x4C24 JUMP JUMPDEST PUSH2 0x3A96 JUMP JUMPDEST SWAP1 POP SWAP2 SWAP1 POP JUMP JUMPDEST PUSH0 DUP2 SWAP1 POP SWAP2 SWAP1 POP JUMP JUMPDEST PUSH2 0x4C60 DUP4 PUSH2 0x4C2D JUMP JUMPDEST PUSH2 0x4C74 PUSH2 0x4C6C DUP3 PUSH2 0x4C4E JUMP JUMPDEST DUP5 DUP5 SLOAD PUSH2 0x4BD3 JUMP JUMPDEST DUP3 SSTORE POP POP POP POP JUMP JUMPDEST PUSH0 PUSH0 SWAP1 POP SWAP1 JUMP JUMPDEST PUSH2 0x4C8B PUSH2 0x4C7C JUMP JUMPDEST PUSH2 0x4C96 DUP2 DUP5 DUP5 PUSH2 0x4C57 JUMP JUMPDEST POP POP POP JUMP JUMPDEST JUMPDEST DUP2 DUP2 LT ISZERO PUSH2 0x4CB9 JUMPI PUSH2 0x4CAE PUSH0 DUP3 PUSH2 0x4C83 JUMP JUMPDEST PUSH1 0x1 DUP2 ADD SWAP1 POP PUSH2 0x4C9C JUMP JUMPDEST POP POP JUMP JUMPDEST PUSH1 0x1F DUP3 GT ISZERO PUSH2 0x4CFE JUMPI PUSH2 0x4CCF DUP2 PUSH2 0x4BA6 JUMP JUMPDEST PUSH2 0x4CD8 DUP5 PUSH2 0x4BB8 JUMP JUMPDEST DUP2 ADD PUSH1 0x20 DUP6 LT ISZERO PUSH2 0x4CE7 JUMPI DUP2 SWAP1 POP JUMPDEST PUSH2 0x4CFB PUSH2 0x4CF3 DUP6 PUSH2 0x4BB8 JUMP JUMPDEST DUP4 ADD DUP3 PUSH2 0x4C9B JUMP JUMPDEST POP POP JUMPDEST POP POP POP JUMP JUMPDEST PUSH0 DUP3 DUP3 SHR SWAP1 POP SWAP3 SWAP2 POP POP JUMP JUMPDEST PUSH0 PUSH2 0x4D1E PUSH0 NOT DUP5 PUSH1 0x8 MUL PUSH2 0x4D03 JUMP JUMPDEST NOT DUP1 DUP4 AND SWAP2 POP POP SWAP3 SWAP2 POP POP JUMP JUMPDEST PUSH0 PUSH2 0x4D36 DUP4 DUP4 PUSH2 0x4D0F JUMP JUMPDEST SWAP2 POP DUP3 PUSH1 0x2 MUL DUP3 OR SWAP1 POP SWAP3 SWAP2 POP POP JUMP JUMPDEST PUSH2 0x4D4F DUP3 PUSH2 0x3B42 JUMP JUMPDEST PUSH8 0xFFFFFFFFFFFFFFFF DUP2 GT ISZERO PUSH2 0x4D68 JUMPI PUSH2 0x4D67 PUSH2 0x3E2C JUMP JUMPDEST JUMPDEST PUSH2 0x4D72 DUP3 SLOAD PUSH2 0x4B02 JUMP JUMPDEST PUSH2 0x4D7D DUP3 DUP3 DUP6 PUSH2 0x4CBD JUMP JUMPDEST PUSH0 PUSH1 0x20 SWAP1 POP PUSH1 0x1F DUP4 GT PUSH1 0x1 DUP2 EQ PUSH2 0x4DAE JUMPI PUSH0 DUP5 ISZERO PUSH2 0x4D9C JUMPI DUP3 DUP8 ADD MLOAD SWAP1 POP JUMPDEST PUSH2 0x4DA6 DUP6 DUP3 PUSH2 0x4D2B JUMP JUMPDEST DUP7 SSTORE POP PUSH2 0x4E0D JUMP JUMPDEST PUSH1 0x1F NOT DUP5 AND PUSH2 0x4DBC DUP7 PUSH2 0x4BA6 JUMP JUMPDEST PUSH0 JUMPDEST DUP3 DUP2 LT ISZERO PUSH2 0x4DE3 JUMPI DUP5 DUP10 ADD MLOAD DUP3 SSTORE PUSH1 0x1 DUP3 ADD SWAP2 POP PUSH1 0x20 DUP6 ADD SWAP5 POP PUSH1 0x20 DUP2 ADD SWAP1 POP PUSH2 0x4DBE JUMP JUMPDEST DUP7 DUP4 LT ISZERO PUSH2 0x4E00 JUMPI DUP5 DUP10 ADD MLOAD PUSH2 0x4DFC PUSH1 0x1F DUP10 AND DUP3 PUSH2 0x4D0F JUMP JUMPDEST DUP4 SSTORE POP JUMPDEST PUSH1 0x1 PUSH1 0x2 DUP9 MUL ADD DUP9 SSTORE POP POP POP JUMPDEST POP POP POP POP POP POP JUMP JUMPDEST PUSH2 0x4E1E DUP2 PUSH2 0x4171 JUMP JUMPDEST DUP3 MSTORE POP POP JUMP JUMPDEST PUSH0 PUSH1 0x40 DUP3 ADD SWAP1 POP PUSH2 0x4E37 PUSH0 DUP4 ADD DUP6 PUSH2 0x4E15 JUMP JUMPDEST PUSH2 0x4E44 PUSH1 0x20 DUP4 ADD DUP5 PUSH2 0x43DA JUMP JUMPDEST SWAP4 SWAP3 POP POP POP JUMP JUMPDEST PUSH0 PUSH2 0x4E55 DUP3 PUSH2 0x3A96 JUMP JUMPDEST SWAP2 POP PUSH2 0x4E60 DUP4 PUSH2 0x3A96 JUMP JUMPDEST SWAP3 POP DUP3 DUP3 ADD SWAP1 POP DUP1 DUP3 GT ISZERO PUSH2 0x4E78 JUMPI PUSH2 0x4E77 PUSH2 0x4B32 JUMP JUMPDEST JUMPDEST SWAP3 SWAP2 POP POP JUMP JUMPDEST PUSH0 PUSH2 0x4E88 DUP3 PUSH2 0x3A96 JUMP JUMPDEST SWAP2 POP PUSH2 0x4E93 DUP4 PUSH2 0x3A96 JUMP JUMPDEST SWAP3 POP DUP3 DUP3 SUB SWAP1 POP DUP2 DUP2 GT ISZERO PUSH2 0x4EAB JUMPI PUSH2 0x4EAA PUSH2 0x4B32 JUMP JUMPDEST JUMPDEST SWAP3 SWAP2 POP POP JUMP JUMPDEST PUSH32 0x4E487B7100000000000000000000000000000000000000000000000000000000 PUSH0 MSTORE PUSH1 0x32 PUSH1 0x4 MSTORE PUSH1 0x24 PUSH0 REVERT JUMPDEST PUSH0 DUP3 DUP3 MSTORE PUSH1 0x20 DUP3 ADD SWAP1 POP SWAP3 SWAP2 POP POP JUMP JUMPDEST PUSH0 PUSH2 0x4EF8 DUP3 PUSH2 0x3B42 JUMP JUMPDEST PUSH2 0x4F02 DUP2 DUP6 PUSH2 0x4EDE JUMP JUMPDEST SWAP4 POP PUSH2 0x4F12 DUP2 DUP6 PUSH1 0x20 DUP7 ADD PUSH2 0x3B5C JUMP JUMPDEST PUSH2 0x4F1B DUP2 PUSH2 0x3B6A JUMP JUMPDEST DUP5 ADD SWAP2 POP POP SWAP3 SWAP2 POP POP JUMP JUMPDEST PUSH0 PUSH1 0x20 DUP3 ADD SWAP1 POP DUP2 DUP2 SUB PUSH0 DUP4 ADD MSTORE PUSH2 0x4F3E DUP2 DUP5 PUSH2 0x4EEE JUMP JUMPDEST SWAP1 POP SWAP3 SWAP2 POP POP JUMP JUMPDEST PUSH2 0x4F4F DUP2 PUSH2 0x3C05 JUMP JUMPDEST DUP3 MSTORE POP POP JUMP JUMPDEST PUSH0 PUSH1 0x20 DUP3 ADD SWAP1 POP PUSH2 0x4F68 PUSH0 DUP4 ADD DUP5 PUSH2 0x4F46 JUMP JUMPDEST SWAP3 SWAP2 POP POP JUMP JUMPDEST PUSH2 0x4F77 DUP2 PUSH2 0x4450 JUMP JUMPDEST DUP3 MSTORE POP POP JUMP JUMPDEST PUSH0 PUSH1 0x40 DUP3 ADD SWAP1 POP DUP2 DUP2 SUB PUSH0 DUP4 ADD MSTORE PUSH2 0x4F95 DUP2 DUP6 PUSH2 0x4EEE JUMP JUMPDEST SWAP1 POP PUSH2 0x4FA4 PUSH1 0x20 DUP4 ADD DUP5 PUSH2 0x4F6E JUMP JUMPDEST SWAP4 SWAP3 POP POP POP JUMP JUMPDEST PUSH2 0x4FB4 DUP2 PUSH2 0x464E JUMP JUMPDEST DUP3 MSTORE POP POP JUMP JUMPDEST PUSH0 PUSH1 0x20 DUP3 ADD SWAP1 POP PUSH2 0x4FCD PUSH0 DUP4 ADD DUP5 PUSH2 0x4FAB JUMP JUMPDEST SWAP3 SWAP2 POP POP JUMP INVALID LOG2 PUSH5 0x6970667358 0x22 SLT KECCAK256 0xD7 0x23 PUSH20 0x3061EC33D601312CDEB52EF1A96965E527A1D61A STOP ADDRESS MOD LOG4 0x28 0xF7 0x2E 0xB7 JUMPDEST PUSH5 0x736F6C6343 STOP ADDMOD 0x1E STOP CALLER "
		},
		"gasEstimates": {
			"creation": {
				"codeDepositCost": "4097800",
				"executionCost": "95279",
				"totalCost": "4193079"
			},
			"external": {
				"COLD_CHAIN_TEMP_MAX()": "415",
				"COLD_CHAIN_TEMP_MIN()": "392",
				"MAX_CHECKPOINTS_PER_SHIPMENT()": "371",
				"MAX_INCIDENTS_PER_SHIPMENT()": "415",
				"TEMPERATURE_NOT_SET()": "393",
				"acceptAdmin()": "52092",
				"admin()": "2595",
				"cancelShipment(uint256)": "infinite",
				"confirmDelivery(uint256)": "infinite",
				"createShipment(address,string,string,string,bool)": "infinite",
				"deactivateActor(address)": "30949",
				"getActor(address)": "infinite",
				"getActorShipments(address)": "infinite",
				"getAllShipmentCheckpoints(uint256)": "infinite",
				"getAllShipmentIncidents(uint256)": "infinite",
				"getCheckpoint(uint256)": "infinite",
				"getIncident(uint256)": "infinite",
				"getShipment(uint256)": "infinite",
				"getShipmentCheckpoints(uint256,uint256,uint256)": "infinite",
				"getShipmentIncidents(uint256,uint256,uint256)": "infinite",
				"isIncidentResolved(uint256)": "2905",
				"nextCheckpointId()": "2544",
				"nextIncidentId()": "2545",
				"nextShipmentId()": "2476",
				"pendingAdmin()": "2554",
				"proposeAdmin(address)": "28148",
				"reactivateActor(address)": "30952",
				"recordCheckpoint(uint256,string,uint8,string,int256)": "infinite",
				"registerActor(string,uint8,string,address)": "infinite",
				"reportIncident(uint256,uint8,string)": "infinite",
				"resolveIncident(uint256)": "infinite",
				"updateShipmentStatus(uint256,uint8)": "infinite",
				"verifyTemperatureCompliance(uint256)": "infinite"
			},
			"internal": {
				"_addActorShipment(address,uint256)": "73273",
				"_createIncident(uint256,enum LogisticsTracking.IncidentType,string memory)": "infinite",
				"_onlyActiveActor()": "infinite",
				"_onlyAdmin()": "infinite",
				"_shipmentExists(uint256)": "infinite"
			}
		},
		"methodIdentifiers": {
			"COLD_CHAIN_TEMP_MAX()": "7b8a20e2",
			"COLD_CHAIN_TEMP_MIN()": "a54a6ee4",
			"MAX_CHECKPOINTS_PER_SHIPMENT()": "63f86584",
			"MAX_INCIDENTS_PER_SHIPMENT()": "305207b0",
			"TEMPERATURE_NOT_SET()": "2bf210dc",
			"acceptAdmin()": "0e18b681",
			"admin()": "f851a440",
			"cancelShipment(uint256)": "7faa7bc7",
			"confirmDelivery(uint256)": "fd84cb97",
			"createShipment(address,string,string,string,bool)": "475b6f98",
			"deactivateActor(address)": "fc436695",
			"getActor(address)": "4138d167",
			"getActorShipments(address)": "72f2f93a",
			"getAllShipmentCheckpoints(uint256)": "8d70861e",
			"getAllShipmentIncidents(uint256)": "9b4adf4e",
			"getCheckpoint(uint256)": "20fc4881",
			"getIncident(uint256)": "9578615e",
			"getShipment(uint256)": "092b3740",
			"getShipmentCheckpoints(uint256,uint256,uint256)": "17082ae0",
			"getShipmentIncidents(uint256,uint256,uint256)": "48016224",
			"isIncidentResolved(uint256)": "925d3478",
			"nextCheckpointId()": "229ec452",
			"nextIncidentId()": "0fd19668",
			"nextShipmentId()": "b9a3a68c",
			"pendingAdmin()": "26782247",
			"proposeAdmin(address)": "147bf6c4",
			"reactivateActor(address)": "58dcf85e",
			"recordCheckpoint(uint256,string,uint8,string,int256)": "0a7a0b69",
			"registerActor(string,uint8,string,address)": "b7fa3c2a",
			"reportIncident(uint256,uint8,string)": "e570c367",
			"resolveIncident(uint256)": "4ffe6ae2",
			"updateShipmentStatus(uint256,uint8)": "7defa920",
			"verifyTemperatureCompliance(uint256)": "af56a428"
		}
	},
	"abi": [
		{
			"inputs": [],
			"stateMutability": "nonpayable",
			"type": "constructor"
		},
		{
			"inputs": [],
			"name": "ActorDoesNotExist",
			"type": "error"
		},
		{
			"inputs": [],
			"name": "ActorInactive",
			"type": "error"
		},
		{
			"inputs": [],
			"name": "ActorNotAssignedToShipment",
			"type": "error"
		},
		{
			"inputs": [],
			"name": "AlreadyClosedShipment",
			"type": "error"
		},
		{
			"inputs": [],
			"name": "AlreadyDelivered",
			"type": "error"
		},
		{
			"inputs": [],
			"name": "AlreadyRegisteredAndActive",
			"type": "error"
		},
		{
			"inputs": [],
			"name": "CannotCancelAfterTransit",
			"type": "error"
		},
		{
			"inputs": [],
			"name": "CannotSetDeliveredDirectly",
			"type": "error"
		},
		{
			"inputs": [
				{
					"internalType": "uint256",
					"name": "id",
					"type": "uint256"
				}
			],
			"name": "CheckpointNotFound",
			"type": "error"
		},
		{
			"inputs": [
				{
					"internalType": "uint256",
					"name": "id",
					"type": "uint256"
				}
			],
			"name": "IncidentNotFound",
			"type": "error"
		},
		{
			"inputs": [],
			"name": "InvalidAddress",
			"type": "error"
		},
		{
			"inputs": [],
			"name": "InvalidRole",
			"type": "error"
		},
		{
			"inputs": [],
			"name": "MaxCheckpointsReached",
			"type": "error"
		},
		{
			"inputs": [],
			"name": "MaxIncidentsReached",
			"type": "error"
		},
		{
			"inputs": [],
			"name": "NotPendingAdmin",
			"type": "error"
		},
		{
			"inputs": [],
			"name": "OnlyAdmin",
			"type": "error"
		},
		{
			"inputs": [],
			"name": "OnlyCarrierOrHub",
			"type": "error"
		},
		{
			"inputs": [],
			"name": "OnlyRecipientCanConfirm",
			"type": "error"
		},
		{
			"inputs": [],
			"name": "OnlySenderCanCancel",
			"type": "error"
		},
		{
			"inputs": [],
			"name": "OnlySendersCanCreate",
			"type": "error"
		},
		{
			"inputs": [],
			"name": "PaginationOffsetOutOfBounds",
			"type": "error"
		},
		{
			"inputs": [
				{
					"internalType": "uint256",
					"name": "id",
					"type": "uint256"
				}
			],
			"name": "ShipmentNotFound",
			"type": "error"
		},
		{
			"anonymous": false,
			"inputs": [
				{
					"indexed": true,
					"internalType": "address",
					"name": "actorAddress",
					"type": "address"
				},
				{
					"indexed": false,
					"internalType": "string",
					"name": "name",
					"type": "string"
				},
				{
					"indexed": false,
					"internalType": "enum LogisticsTracking.ActorRole",
					"name": "role",
					"type": "uint8"
				}
			],
			"name": "ActorRegistered",
			"type": "event"
		},
		{
			"anonymous": false,
			"inputs": [
				{
					"indexed": true,
					"internalType": "address",
					"name": "actorAddress",
					"type": "address"
				},
				{
					"indexed": false,
					"internalType": "bool",
					"name": "isActive",
					"type": "bool"
				}
			],
			"name": "ActorStatusChanged",
			"type": "event"
		},
		{
			"anonymous": false,
			"inputs": [
				{
					"indexed": true,
					"internalType": "address",
					"name": "newAdmin",
					"type": "address"
				}
			],
			"name": "AdminTransferAccepted",
			"type": "event"
		},
		{
			"anonymous": false,
			"inputs": [
				{
					"indexed": true,
					"internalType": "address",
					"name": "proposedAdmin",
					"type": "address"
				}
			],
			"name": "AdminTransferProposed",
			"type": "event"
		},
		{
			"anonymous": false,
			"inputs": [
				{
					"indexed": true,
					"internalType": "uint256",
					"name": "checkpointId",
					"type": "uint256"
				},
				{
					"indexed": true,
					"internalType": "uint256",
					"name": "shipmentId",
					"type": "uint256"
				},
				{
					"indexed": false,
					"internalType": "enum LogisticsTracking.CheckpointType",
					"name": "checkpointType",
					"type": "uint8"
				},
				{
					"indexed": false,
					"internalType": "address",
					"name": "actor",
					"type": "address"
				}
			],
			"name": "CheckpointRecorded",
			"type": "event"
		},
		{
			"anonymous": false,
			"inputs": [
				{
					"indexed": true,
					"internalType": "uint256",
					"name": "shipmentId",
					"type": "uint256"
				},
				{
					"indexed": true,
					"internalType": "address",
					"name": "recipient",
					"type": "address"
				},
				{
					"indexed": false,
					"internalType": "uint256",
					"name": "timestamp",
					"type": "uint256"
				}
			],
			"name": "DeliveryConfirmed",
			"type": "event"
		},
		{
			"anonymous": false,
			"inputs": [
				{
					"indexed": true,
					"internalType": "uint256",
					"name": "incidentId",
					"type": "uint256"
				},
				{
					"indexed": true,
					"internalType": "uint256",
					"name": "shipmentId",
					"type": "uint256"
				},
				{
					"indexed": false,
					"internalType": "enum LogisticsTracking.IncidentType",
					"name": "incidentType",
					"type": "uint8"
				}
			],
			"name": "IncidentReported",
			"type": "event"
		},
		{
			"anonymous": false,
			"inputs": [
				{
					"indexed": true,
					"internalType": "uint256",
					"name": "incidentId",
					"type": "uint256"
				}
			],
			"name": "IncidentResolved",
			"type": "event"
		},
		{
			"anonymous": false,
			"inputs": [
				{
					"indexed": true,
					"internalType": "uint256",
					"name": "shipmentId",
					"type": "uint256"
				},
				{
					"indexed": true,
					"internalType": "address",
					"name": "sender",
					"type": "address"
				},
				{
					"indexed": true,
					"internalType": "address",
					"name": "recipient",
					"type": "address"
				},
				{
					"indexed": false,
					"internalType": "string",
					"name": "product",
					"type": "string"
				}
			],
			"name": "ShipmentCreated",
			"type": "event"
		},
		{
			"anonymous": false,
			"inputs": [
				{
					"indexed": true,
					"internalType": "uint256",
					"name": "shipmentId",
					"type": "uint256"
				},
				{
					"indexed": false,
					"internalType": "enum LogisticsTracking.ShipmentStatus",
					"name": "newStatus",
					"type": "uint8"
				}
			],
			"name": "ShipmentStatusChanged",
			"type": "event"
		},
		{
			"inputs": [],
			"name": "COLD_CHAIN_TEMP_MAX",
			"outputs": [
				{
					"internalType": "int256",
					"name": "",
					"type": "int256"
				}
			],
			"stateMutability": "view",
			"type": "function"
		},
		{
			"inputs": [],
			"name": "COLD_CHAIN_TEMP_MIN",
			"outputs": [
				{
					"internalType": "int256",
					"name": "",
					"type": "int256"
				}
			],
			"stateMutability": "view",
			"type": "function"
		},
		{
			"inputs": [],
			"name": "MAX_CHECKPOINTS_PER_SHIPMENT",
			"outputs": [
				{
					"internalType": "uint256",
					"name": "",
					"type": "uint256"
				}
			],
			"stateMutability": "view",
			"type": "function"
		},
		{
			"inputs": [],
			"name": "MAX_INCIDENTS_PER_SHIPMENT",
			"outputs": [
				{
					"internalType": "uint256",
					"name": "",
					"type": "uint256"
				}
			],
			"stateMutability": "view",
			"type": "function"
		},
		{
			"inputs": [],
			"name": "TEMPERATURE_NOT_SET",
			"outputs": [
				{
					"internalType": "int256",
					"name": "",
					"type": "int256"
				}
			],
			"stateMutability": "view",
			"type": "function"
		},
		{
			"inputs": [],
			"name": "acceptAdmin",
			"outputs": [],
			"stateMutability": "nonpayable",
			"type": "function"
		},
		{
			"inputs": [],
			"name": "admin",
			"outputs": [
				{
					"internalType": "address",
					"name": "",
					"type": "address"
				}
			],
			"stateMutability": "view",
			"type": "function"
		},
		{
			"inputs": [
				{
					"internalType": "uint256",
					"name": "_shipmentId",
					"type": "uint256"
				}
			],
			"name": "cancelShipment",
			"outputs": [],
			"stateMutability": "nonpayable",
			"type": "function"
		},
		{
			"inputs": [
				{
					"internalType": "uint256",
					"name": "_shipmentId",
					"type": "uint256"
				}
			],
			"name": "confirmDelivery",
			"outputs": [],
			"stateMutability": "nonpayable",
			"type": "function"
		},
		{
			"inputs": [
				{
					"internalType": "address",
					"name": "_recipient",
					"type": "address"
				},
				{
					"internalType": "string",
					"name": "_product",
					"type": "string"
				},
				{
					"internalType": "string",
					"name": "_origin",
					"type": "string"
				},
				{
					"internalType": "string",
					"name": "_destination",
					"type": "string"
				},
				{
					"internalType": "bool",
					"name": "_requiresColdChain",
					"type": "bool"
				}
			],
			"name": "createShipment",
			"outputs": [
				{
					"internalType": "uint256",
					"name": "",
					"type": "uint256"
				}
			],
			"stateMutability": "nonpayable",
			"type": "function"
		},
		{
			"inputs": [
				{
					"internalType": "address",
					"name": "_actorAddress",
					"type": "address"
				}
			],
			"name": "deactivateActor",
			"outputs": [],
			"stateMutability": "nonpayable",
			"type": "function"
		},
		{
			"inputs": [
				{
					"internalType": "address",
					"name": "_actorAddress",
					"type": "address"
				}
			],
			"name": "getActor",
			"outputs": [
				{
					"components": [
						{
							"internalType": "address",
							"name": "actorAddress",
							"type": "address"
						},
						{
							"internalType": "string",
							"name": "name",
							"type": "string"
						},
						{
							"internalType": "enum LogisticsTracking.ActorRole",
							"name": "role",
							"type": "uint8"
						},
						{
							"internalType": "string",
							"name": "location",
							"type": "string"
						},
						{
							"internalType": "bool",
							"name": "isActive",
							"type": "bool"
						}
					],
					"internalType": "struct LogisticsTracking.Actor",
					"name": "",
					"type": "tuple"
				}
			],
			"stateMutability": "view",
			"type": "function"
		},
		{
			"inputs": [
				{
					"internalType": "address",
					"name": "_actor",
					"type": "address"
				}
			],
			"name": "getActorShipments",
			"outputs": [
				{
					"internalType": "uint256[]",
					"name": "",
					"type": "uint256[]"
				}
			],
			"stateMutability": "view",
			"type": "function"
		},
		{
			"inputs": [
				{
					"internalType": "uint256",
					"name": "_id",
					"type": "uint256"
				}
			],
			"name": "getAllShipmentCheckpoints",
			"outputs": [
				{
					"components": [
						{
							"internalType": "uint256",
							"name": "id",
							"type": "uint256"
						},
						{
							"internalType": "uint256",
							"name": "shipmentId",
							"type": "uint256"
						},
						{
							"internalType": "address",
							"name": "actor",
							"type": "address"
						},
						{
							"internalType": "string",
							"name": "location",
							"type": "string"
						},
						{
							"internalType": "enum LogisticsTracking.CheckpointType",
							"name": "checkpointType",
							"type": "uint8"
						},
						{
							"internalType": "uint256",
							"name": "timestamp",
							"type": "uint256"
						},
						{
							"internalType": "string",
							"name": "notes",
							"type": "string"
						},
						{
							"internalType": "int256",
							"name": "temperature",
							"type": "int256"
						}
					],
					"internalType": "struct LogisticsTracking.Checkpoint[]",
					"name": "",
					"type": "tuple[]"
				}
			],
			"stateMutability": "view",
			"type": "function"
		},
		{
			"inputs": [
				{
					"internalType": "uint256",
					"name": "_shipmentId",
					"type": "uint256"
				}
			],
			"name": "getAllShipmentIncidents",
			"outputs": [
				{
					"components": [
						{
							"internalType": "uint256",
							"name": "id",
							"type": "uint256"
						},
						{
							"internalType": "uint256",
							"name": "shipmentId",
							"type": "uint256"
						},
						{
							"internalType": "enum LogisticsTracking.IncidentType",
							"name": "incidentType",
							"type": "uint8"
						},
						{
							"internalType": "address",
							"name": "reporter",
							"type": "address"
						},
						{
							"internalType": "string",
							"name": "description",
							"type": "string"
						},
						{
							"internalType": "uint256",
							"name": "timestamp",
							"type": "uint256"
						},
						{
							"internalType": "bool",
							"name": "resolved",
							"type": "bool"
						}
					],
					"internalType": "struct LogisticsTracking.Incident[]",
					"name": "",
					"type": "tuple[]"
				}
			],
			"stateMutability": "view",
			"type": "function"
		},
		{
			"inputs": [
				{
					"internalType": "uint256",
					"name": "_checkpointId",
					"type": "uint256"
				}
			],
			"name": "getCheckpoint",
			"outputs": [
				{
					"components": [
						{
							"internalType": "uint256",
							"name": "id",
							"type": "uint256"
						},
						{
							"internalType": "uint256",
							"name": "shipmentId",
							"type": "uint256"
						},
						{
							"internalType": "address",
							"name": "actor",
							"type": "address"
						},
						{
							"internalType": "string",
							"name": "location",
							"type": "string"
						},
						{
							"internalType": "enum LogisticsTracking.CheckpointType",
							"name": "checkpointType",
							"type": "uint8"
						},
						{
							"internalType": "uint256",
							"name": "timestamp",
							"type": "uint256"
						},
						{
							"internalType": "string",
							"name": "notes",
							"type": "string"
						},
						{
							"internalType": "int256",
							"name": "temperature",
							"type": "int256"
						}
					],
					"internalType": "struct LogisticsTracking.Checkpoint",
					"name": "",
					"type": "tuple"
				}
			],
			"stateMutability": "view",
			"type": "function"
		},
		{
			"inputs": [
				{
					"internalType": "uint256",
					"name": "_incidentId",
					"type": "uint256"
				}
			],
			"name": "getIncident",
			"outputs": [
				{
					"components": [
						{
							"internalType": "uint256",
							"name": "id",
							"type": "uint256"
						},
						{
							"internalType": "uint256",
							"name": "shipmentId",
							"type": "uint256"
						},
						{
							"internalType": "enum LogisticsTracking.IncidentType",
							"name": "incidentType",
							"type": "uint8"
						},
						{
							"internalType": "address",
							"name": "reporter",
							"type": "address"
						},
						{
							"internalType": "string",
							"name": "description",
							"type": "string"
						},
						{
							"internalType": "uint256",
							"name": "timestamp",
							"type": "uint256"
						},
						{
							"internalType": "bool",
							"name": "resolved",
							"type": "bool"
						}
					],
					"internalType": "struct LogisticsTracking.Incident",
					"name": "",
					"type": "tuple"
				}
			],
			"stateMutability": "view",
			"type": "function"
		},
		{
			"inputs": [
				{
					"internalType": "uint256",
					"name": "_id",
					"type": "uint256"
				}
			],
			"name": "getShipment",
			"outputs": [
				{
					"components": [
						{
							"internalType": "uint256",
							"name": "id",
							"type": "uint256"
						},
						{
							"internalType": "address",
							"name": "sender",
							"type": "address"
						},
						{
							"internalType": "address",
							"name": "recipient",
							"type": "address"
						},
						{
							"internalType": "string",
							"name": "product",
							"type": "string"
						},
						{
							"internalType": "string",
							"name": "origin",
							"type": "string"
						},
						{
							"internalType": "string",
							"name": "destination",
							"type": "string"
						},
						{
							"internalType": "uint256",
							"name": "dateCreated",
							"type": "uint256"
						},
						{
							"internalType": "uint256",
							"name": "dateDelivered",
							"type": "uint256"
						},
						{
							"internalType": "enum LogisticsTracking.ShipmentStatus",
							"name": "status",
							"type": "uint8"
						},
						{
							"internalType": "uint256[]",
							"name": "checkpointIds",
							"type": "uint256[]"
						},
						{
							"internalType": "uint256[]",
							"name": "incidentIds",
							"type": "uint256[]"
						},
						{
							"internalType": "bool",
							"name": "requiresColdChain",
							"type": "bool"
						}
					],
					"internalType": "struct LogisticsTracking.Shipment",
					"name": "",
					"type": "tuple"
				}
			],
			"stateMutability": "view",
			"type": "function"
		},
		{
			"inputs": [
				{
					"internalType": "uint256",
					"name": "_id",
					"type": "uint256"
				},
				{
					"internalType": "uint256",
					"name": "_offset",
					"type": "uint256"
				},
				{
					"internalType": "uint256",
					"name": "_limit",
					"type": "uint256"
				}
			],
			"name": "getShipmentCheckpoints",
			"outputs": [
				{
					"components": [
						{
							"internalType": "uint256",
							"name": "id",
							"type": "uint256"
						},
						{
							"internalType": "uint256",
							"name": "shipmentId",
							"type": "uint256"
						},
						{
							"internalType": "address",
							"name": "actor",
							"type": "address"
						},
						{
							"internalType": "string",
							"name": "location",
							"type": "string"
						},
						{
							"internalType": "enum LogisticsTracking.CheckpointType",
							"name": "checkpointType",
							"type": "uint8"
						},
						{
							"internalType": "uint256",
							"name": "timestamp",
							"type": "uint256"
						},
						{
							"internalType": "string",
							"name": "notes",
							"type": "string"
						},
						{
							"internalType": "int256",
							"name": "temperature",
							"type": "int256"
						}
					],
					"internalType": "struct LogisticsTracking.Checkpoint[]",
					"name": "",
					"type": "tuple[]"
				}
			],
			"stateMutability": "view",
			"type": "function"
		},
		{
			"inputs": [
				{
					"internalType": "uint256",
					"name": "_shipmentId",
					"type": "uint256"
				},
				{
					"internalType": "uint256",
					"name": "_offset",
					"type": "uint256"
				},
				{
					"internalType": "uint256",
					"name": "_limit",
					"type": "uint256"
				}
			],
			"name": "getShipmentIncidents",
			"outputs": [
				{
					"components": [
						{
							"internalType": "uint256",
							"name": "id",
							"type": "uint256"
						},
						{
							"internalType": "uint256",
							"name": "shipmentId",
							"type": "uint256"
						},
						{
							"internalType": "enum LogisticsTracking.IncidentType",
							"name": "incidentType",
							"type": "uint8"
						},
						{
							"internalType": "address",
							"name": "reporter",
							"type": "address"
						},
						{
							"internalType": "string",
							"name": "description",
							"type": "string"
						},
						{
							"internalType": "uint256",
							"name": "timestamp",
							"type": "uint256"
						},
						{
							"internalType": "bool",
							"name": "resolved",
							"type": "bool"
						}
					],
					"internalType": "struct LogisticsTracking.Incident[]",
					"name": "",
					"type": "tuple[]"
				}
			],
			"stateMutability": "view",
			"type": "function"
		},
		{
			"inputs": [
				{
					"internalType": "uint256",
					"name": "_incidentId",
					"type": "uint256"
				}
			],
			"name": "isIncidentResolved",
			"outputs": [
				{
					"internalType": "bool",
					"name": "",
					"type": "bool"
				}
			],
			"stateMutability": "view",
			"type": "function"
		},
		{
			"inputs": [],
			"name": "nextCheckpointId",
			"outputs": [
				{
					"internalType": "uint256",
					"name": "",
					"type": "uint256"
				}
			],
			"stateMutability": "view",
			"type": "function"
		},
		{
			"inputs": [],
			"name": "nextIncidentId",
			"outputs": [
				{
					"internalType": "uint256",
					"name": "",
					"type": "uint256"
				}
			],
			"stateMutability": "view",
			"type": "function"
		},
		{
			"inputs": [],
			"name": "nextShipmentId",
			"outputs": [
				{
					"internalType": "uint256",
					"name": "",
					"type": "uint256"
				}
			],
			"stateMutability": "view",
			"type": "function"
		},
		{
			"inputs": [],
			"name": "pendingAdmin",
			"outputs": [
				{
					"internalType": "address",
					"name": "",
					"type": "address"
				}
			],
			"stateMutability": "view",
			"type": "function"
		},
		{
			"inputs": [
				{
					"internalType": "address",
					"name": "_newAdmin",
					"type": "address"
				}
			],
			"name": "proposeAdmin",
			"outputs": [],
			"stateMutability": "nonpayable",
			"type": "function"
		},
		{
			"inputs": [
				{
					"internalType": "address",
					"name": "_actorAddress",
					"type": "address"
				}
			],
			"name": "reactivateActor",
			"outputs": [],
			"stateMutability": "nonpayable",
			"type": "function"
		},
		{
			"inputs": [
				{
					"internalType": "uint256",
					"name": "_shipmentId",
					"type": "uint256"
				},
				{
					"internalType": "string",
					"name": "_location",
					"type": "string"
				},
				{
					"internalType": "enum LogisticsTracking.CheckpointType",
					"name": "_checkpointType",
					"type": "uint8"
				},
				{
					"internalType": "string",
					"name": "_notes",
					"type": "string"
				},
				{
					"internalType": "int256",
					"name": "_temperature",
					"type": "int256"
				}
			],
			"name": "recordCheckpoint",
			"outputs": [
				{
					"internalType": "uint256",
					"name": "",
					"type": "uint256"
				}
			],
			"stateMutability": "nonpayable",
			"type": "function"
		},
		{
			"inputs": [
				{
					"internalType": "string",
					"name": "_name",
					"type": "string"
				},
				{
					"internalType": "enum LogisticsTracking.ActorRole",
					"name": "_role",
					"type": "uint8"
				},
				{
					"internalType": "string",
					"name": "_location",
					"type": "string"
				},
				{
					"internalType": "address",
					"name": "_actorAddress",
					"type": "address"
				}
			],
			"name": "registerActor",
			"outputs": [],
			"stateMutability": "nonpayable",
			"type": "function"
		},
		{
			"inputs": [
				{
					"internalType": "uint256",
					"name": "_shipmentId",
					"type": "uint256"
				},
				{
					"internalType": "enum LogisticsTracking.IncidentType",
					"name": "_type",
					"type": "uint8"
				},
				{
					"internalType": "string",
					"name": "_desc",
					"type": "string"
				}
			],
			"name": "reportIncident",
			"outputs": [
				{
					"internalType": "uint256",
					"name": "",
					"type": "uint256"
				}
			],
			"stateMutability": "nonpayable",
			"type": "function"
		},
		{
			"inputs": [
				{
					"internalType": "uint256",
					"name": "_incidentId",
					"type": "uint256"
				}
			],
			"name": "resolveIncident",
			"outputs": [],
			"stateMutability": "nonpayable",
			"type": "function"
		},
		{
			"inputs": [
				{
					"internalType": "uint256",
					"name": "_shipmentId",
					"type": "uint256"
				},
				{
					"internalType": "enum LogisticsTracking.ShipmentStatus",
					"name": "_newStatus",
					"type": "uint8"
				}
			],
			"name": "updateShipmentStatus",
			"outputs": [],
			"stateMutability": "nonpayable",
			"type": "function"
		},
		{
			"inputs": [
				{
					"internalType": "uint256",
					"name": "_shipmentId",
					"type": "uint256"
				}
			],
			"name": "verifyTemperatureCompliance",
			"outputs": [
				{
					"internalType": "bool",
					"name": "",
					"type": "bool"
				}
			],
			"stateMutability": "view",
			"type": "function"
		}
	]
}