{
	"data": {
		"bytecode": {
			"linkReferences": {},
			"object": "6080604052600160025560016003556001600455348015601d575f5ffd5b50335f5f6101000a81548173ffffffffffffffffffffffffffffffffffffffff021916908373ffffffffffffffffffffffffffffffffffffffff1602179055506155908061006a5f395ff3fe608060405234801561000f575f5ffd5b5060043610610204575f3560e01c806372f2f93a116101185780639b4adf4e116100ab578063b9a3a68c1161007a578063b9a3a68c14610636578063e570c36714610654578063f851a44014610684578063fc436695146106a2578063fd84cb97146106be57610204565b80639b4adf4e1461059c578063a54a6ee4146105cc578063af56a428146105ea578063b7fa3c2a1461061a57610204565b80637faa7bc7116100e75780637faa7bc7146104f05780638d70861e1461050c578063925d34781461053c5780639578615e1461056c57610204565b806372f2f93a1461046a57806375829def1461049a5780637b8a20e2146104b65780637defa920146104d457610204565b8063267822471161019b578063475b6f981161016a578063475b6f98146103b457806348016224146103e457806358dcf85e146104145780635e6b20861461043057806363f865841461044c57610204565b8063267822471461032a5780632bf210dc14610348578063305207b0146103665780634138d1671461038457610204565b8063147bf6c4116101d7578063147bf6c41461029057806317082ae0146102ac57806320fc4881146102dc578063229ec4521461030c57610204565b8063092b3740146102085780630a7a0b69146102385780630e18b681146102685780630fd1966814610272575b5f5ffd5b610222600480360381019061021d9190613e3b565b6106da565b60405161022f9190614176565b60405180910390f35b610252600480360381019061024d9190614318565b610a7d565b60405161025f91906143d6565b60405180910390f35b610270610dd8565b005b61027a610f22565b60405161028791906143d6565b60405180910390f35b6102aa60048036038101906102a59190614419565b610f2b565b005b6102c660048036038101906102c19190614444565b61101e565b6040516102d39190614658565b60405180910390f35b6102f660048036038101906102f19190613e3b565b611399565b604051610303919061472c565b60405180910390f35b6103146115ed565b60405161032191906143d6565b60405180910390f35b6103326115f6565b60405161033f919061475b565b60405180910390f35b61035061161b565b60405161035d9190614783565b60405180910390f35b61036e61163f565b60405161037b91906143d6565b60405180910390f35b61039e60048036038101906103999190614419565b611644565b6040516103ab919061485c565b60405180910390f35b6103ce60048036038101906103c991906148a6565b611863565b6040516103db91906143d6565b60405180910390f35b6103fe60048036038101906103f99190614444565b611b10565b60405161040b9190614b26565b60405180910390f35b61042e60048036038101906104299190614419565b611e9c565b005b61044a60048036038101906104459190614ba3565b612011565b005b6104546120fa565b60405161046191906143d6565b60405180910390f35b610484600480360381019061047f9190614419565b6120ff565b6040516104919190614c6c565b60405180910390f35b6104b460048036038101906104af9190614419565b612192565b005b6104be6122c4565b6040516104cb9190614783565b60405180910390f35b6104ee60048036038101906104e99190614caf565b6122c9565b005b61050a60048036038101906105059190613e3b565b61249d565b005b61052660048036038101906105219190613e3b565b61270e565b6040516105339190614658565b60405180910390f35b61055660048036038101906105519190613e3b565b6129e2565b6040516105639190614cfc565b60405180910390f35b61058660048036038101906105819190613e3b565b612a0b565b6040516105939190614dc9565b60405180910390f35b6105b660048036038101906105b19190613e3b565b612c70565b6040516105c39190614b26565b60405180910390f35b6105d4612f55565b6040516105e19190614783565b60405180910390f35b61060460048036038101906105ff9190613e3b565b612f5a565b6040516106119190614cfc565b60405180910390f35b610634600480360381019061062f9190614e0c565b613050565b005b61063e613344565b60405161064b91906143d6565b60405180910390f35b61066e60048036038101906106699190614ecb565b61334d565b60405161067b91906143d6565b60405180910390f35b61068c613404565b604051610699919061475b565b60405180910390f35b6106bc60048036038101906106b79190614419565b613428565b005b6106d860048036038101906106d39190613e3b565b61359b565b005b6106e2613c37565b60055f8381526020019081526020015f20604051806101800160405290815f8201548152602001600182015f9054906101000a900473ffffffffffffffffffffffffffffffffffffffff1673ffffffffffffffffffffffffffffffffffffffff1673ffffffffffffffffffffffffffffffffffffffff168152602001600282015f9054906101000a900473ffffffffffffffffffffffffffffffffffffffff1673ffffffffffffffffffffffffffffffffffffffff1673ffffffffffffffffffffffffffffffffffffffff1681526020016003820180546107c290614f64565b80601f01602080910402602001604051908101604052809291908181526020018280546107ee90614f64565b80156108395780601f1061081057610100808354040283529160200191610839565b820191905f5260205f20905b81548152906001019060200180831161081c57829003601f168201915b5050505050815260200160048201805461085290614f64565b80601f016020809104026020016040519081016040528092919081815260200182805461087e90614f64565b80156108c95780601f106108a0576101008083540402835291602001916108c9565b820191905f5260205f20905b8154815290600101906020018083116108ac57829003601f168201915b505050505081526020016005820180546108e290614f64565b80601f016020809104026020016040519081016040528092919081815260200182805461090e90614f64565b80156109595780601f1061093057610100808354040283529160200191610959565b820191905f5260205f20905b81548152906001019060200180831161093c57829003601f168201915b505050505081526020016006820154815260200160078201548152602001600882015f9054906101000a900460ff16600681111561099a57610999613f24565b5b60068111156109ac576109ab613f24565b5b8152602001600982018054806020026020016040519081016040528092919081815260200182805480156109fd57602002820191905f5260205f20905b8154815260200190600101908083116109e9575b50505050508152602001600a8201805480602002602001604051908101604052809291908181526020018280548015610a5357602002820191905f5260205f20905b815481526020019060010190808311610a3f575b50505050508152602001600b82015f9054906101000a900460ff1615151515815250509050919050565b5f610a86613770565b85610a90816137f5565b600a5f3373ffffffffffffffffffffffffffffffffffffffff1673ffffffffffffffffffffffffffffffffffffffff1681526020019081526020015f205f8881526020019081526020015f205f9054906101000a900460ff16610b1f576040517fd40c3d2100000000000000000000000000000000000000000000000000000000815260040160405180910390fd5b5f60055f8981526020019081526020015f20905060c8816009018054905010610b74576040517f3ca72e7800000000000000000000000000000000000000000000000000000000815260040160405180910390fd5b5f60035f815480929190610b8790614fc1565b9190505590506040518061010001604052808281526020018a81526020013373ffffffffffffffffffffffffffffffffffffffff168152602001898152602001886004811115610bda57610bd9613f24565b5b81526020014281526020018781526020018681525060065f8381526020019081526020015f205f820151815f0155602082015181600101556040820151816002015f6101000a81548173ffffffffffffffffffffffffffffffffffffffff021916908373ffffffffffffffffffffffffffffffffffffffff1602179055506060820151816003019081610c6d91906151a8565b506080820151816004015f6101000a81548160ff02191690836004811115610c9857610c97613f24565b5b021790555060a0820151816005015560c0820151816006019081610cbc91906151a8565b5060e082015181600701559050508160090181908060018154018082558091505060019003905f5260205f20015f909190919091505581600b015f9054906101000a900460ff168015610d2f57507f80000000000000000000000000000000000000000000000000000000000000008514155b8015610d4657506050851380610d455750601485125b5b15610d8e57610d8c8960036040518060400160405280601881526020017f54656d7065726174757265206f7574206f662072616e6765000000000000000081525061384a565b505b88817f529e5c9e24a307575814835cf69244181f51bc2ae08b95b8c8459d652a7ee9cf8933604051610dc1929190615286565b60405180910390a380935050505095945050505050565b60015f9054906101000a900473ffffffffffffffffffffffffffffffffffffffff1673ffffffffffffffffffffffffffffffffffffffff163373ffffffffffffffffffffffffffffffffffffffff1614610e5e576040517f058d9a1b00000000000000000000000000000000000000000000000000000000815260040160405180910390fd5b335f5f6101000a81548173ffffffffffffffffffffffffffffffffffffffff021916908373ffffffffffffffffffffffffffffffffffffffff1602179055505f60015f6101000a81548173ffffffffffffffffffffffffffffffffffffffff021916908373ffffffffffffffffffffffffffffffffffffffff1602179055503373ffffffffffffffffffffffffffffffffffffffff167f24a7c28d8edc5ccd4ef428ebc1dce34762fe38b7fdcca1f3f20c818f04deb15660405160405180910390a2565b5f600454905090565b610f33613a89565b5f73ffffffffffffffffffffffffffffffffffffffff168173ffffffffffffffffffffffffffffffffffffffff1603610f98576040517fe6c4247b00000000000000000000000000000000000000000000000000000000815260040160405180910390fd5b8060015f6101000a81548173ffffffffffffffffffffffffffffffffffffffff021916908373ffffffffffffffffffffffffffffffffffffffff1602179055508073ffffffffffffffffffffffffffffffffffffffff167fd3695f12c05bea129b5971fed99014a4efd003a3a8b45d6952b74fbd31d85d8a60405160405180910390a250565b60608361102a816137f5565b5f60055f8781526020019081526020015f2060090190505f818054905090508086106110ad575f67ffffffffffffffff81111561106a5761106961419e565b5b6040519080825280602002602001820160405280156110a357816020015b611090613cd1565b8152602001906001900390816110885790505b5093505050611391565b5f8186886110bb91906152ad565b116110d15785876110cc91906152ad565b6110d3565b815b90505f87826110e291906152e0565b67ffffffffffffffff8111156110fb576110fa61419e565b5b60405190808252806020026020018201604052801561113457816020015b611121613cd1565b8152602001906001900390816111195790505b5090505f8890505b828110156113885760065f86838154811061115a57611159615313565b5b905f5260205f20015481526020019081526020015f20604051806101000160405290815f820154815260200160018201548152602001600282015f9054906101000a900473ffffffffffffffffffffffffffffffffffffffff1673ffffffffffffffffffffffffffffffffffffffff1673ffffffffffffffffffffffffffffffffffffffff1681526020016003820180546111f490614f64565b80601f016020809104026020016040519081016040528092919081815260200182805461122090614f64565b801561126b5780601f106112425761010080835404028352916020019161126b565b820191905f5260205f20905b81548152906001019060200180831161124e57829003601f168201915b50505050508152602001600482015f9054906101000a900460ff16600481111561129857611297613f24565b5b60048111156112aa576112a9613f24565b5b8152602001600582015481526020016006820180546112c890614f64565b80601f01602080910402602001604051908101604052809291908181526020018280546112f490614f64565b801561133f5780601f106113165761010080835404028352916020019161133f565b820191905f5260205f20905b81548152906001019060200180831161132257829003601f168201915b50505050508152602001600782015481525050828a8361135f91906152e0565b815181106113705761136f615313565b5b6020026020010181905250808060010191505061113c565b50809550505050505b509392505050565b6113a1613cd1565b5f8214806113b157506003548210155b156113f357816040517f22bc9caa0000000000000000000000000000000000000000000000000000000081526004016113ea91906143d6565b60405180910390fd5b60065f8381526020019081526020015f20604051806101000160405290815f820154815260200160018201548152602001600282015f9054906101000a900473ffffffffffffffffffffffffffffffffffffffff1673ffffffffffffffffffffffffffffffffffffffff1673ffffffffffffffffffffffffffffffffffffffff16815260200160038201805461148890614f64565b80601f01602080910402602001604051908101604052809291908181526020018280546114b490614f64565b80156114ff5780601f106114d6576101008083540402835291602001916114ff565b820191905f5260205f20905b8154815290600101906020018083116114e257829003601f168201915b50505050508152602001600482015f9054906101000a900460ff16600481111561152c5761152b613f24565b5b600481111561153e5761153d613f24565b5b81526020016005820154815260200160068201805461155c90614f64565b80601f016020809104026020016040519081016040528092919081815260200182805461158890614f64565b80156115d35780601f106115aa576101008083540402835291602001916115d3565b820191905f5260205f20905b8154815290600101906020018083116115b657829003601f168201915b505050505081526020016007820154815250509050919050565b5f600354905090565b60015f9054906101000a900473ffffffffffffffffffffffffffffffffffffffff1681565b7f800000000000000000000000000000000000000000000000000000000000000081565b603281565b61164c613d38565b60085f8373ffffffffffffffffffffffffffffffffffffffff1673ffffffffffffffffffffffffffffffffffffffff1681526020019081526020015f206040518060a00160405290815f82015f9054906101000a900473ffffffffffffffffffffffffffffffffffffffff1673ffffffffffffffffffffffffffffffffffffffff1673ffffffffffffffffffffffffffffffffffffffff1681526020016001820180546116f890614f64565b80601f016020809104026020016040519081016040528092919081815260200182805461172490614f64565b801561176f5780601f106117465761010080835404028352916020019161176f565b820191905f5260205f20905b81548152906001019060200180831161175257829003601f168201915b50505050508152602001600282015f9054906101000a900460ff16600581111561179c5761179b613f24565b5b60058111156117ae576117ad613f24565b5b81526020016003820180546117c290614f64565b80601f01602080910402602001604051908101604052809291908181526020018280546117ee90614f64565b80156118395780601f1061181057610100808354040283529160200191611839565b820191905f5260205f20905b81548152906001019060200180831161181c57829003601f168201915b50505050508152602001600482015f9054906101000a900460ff1615151515815250509050919050565b5f61186c613770565b600160058111156118805761187f613f24565b5b60085f3373ffffffffffffffffffffffffffffffffffffffff1673ffffffffffffffffffffffffffffffffffffffff1681526020019081526020015f206002015f9054906101000a900460ff1660058111156118df576118de613f24565b5b14611916576040517ff5b4341500000000000000000000000000000000000000000000000000000000815260040160405180910390fd5b5f60025f81548092919061192990614fc1565b9190505590505f60055f8381526020019081526020015f20905081815f018190555033816001015f6101000a81548173ffffffffffffffffffffffffffffffffffffffff021916908373ffffffffffffffffffffffffffffffffffffffff16021790555087816002015f6101000a81548173ffffffffffffffffffffffffffffffffffffffff021916908373ffffffffffffffffffffffffffffffffffffffff160217905550868160030190816119e091906151a8565b50858160040190816119f291906151a8565b5084816005019081611a0491906151a8565b504281600601819055505f816008015f6101000a81548160ff02191690836006811115611a3457611a33613f24565b5b02179055508381600b015f6101000a81548160ff021916908315150217905550611a5e3383613b10565b5f73ffffffffffffffffffffffffffffffffffffffff168873ffffffffffffffffffffffffffffffffffffffff1614611a9c57611a9b8883613b10565b5b8773ffffffffffffffffffffffffffffffffffffffff163373ffffffffffffffffffffffffffffffffffffffff16837f8fb6b855d6cbdf201f2fcaadbf8c38d36168ff7d2ca865cb2599abcd5a060e8f8a604051611afa9190615388565b60405180910390a4819250505095945050505050565b606083611b1c816137f5565b5f60055f8781526020019081526020015f20600a0190505f81805490509050808610611b9f575f67ffffffffffffffff811115611b5c57611b5b61419e565b5b604051908082528060200260200182016040528015611b9557816020015b611b82613d8e565b815260200190600190039081611b7a5790505b5093505050611e94565b5f818688611bad91906152ad565b11611bc3578587611bbe91906152ad565b611bc5565b815b90505f8782611bd491906152e0565b67ffffffffffffffff811115611bed57611bec61419e565b5b604051908082528060200260200182016040528015611c2657816020015b611c13613d8e565b815260200190600190039081611c0b5790505b5090505f8890505b82811015611e8b5760075f868381548110611c4c57611c4b615313565b5b905f5260205f20015481526020019081526020015f20604051806101000160405290815f820154815260200160018201548152602001600282015f9054906101000a900460ff166004811115611ca557611ca4613f24565b5b6004811115611cb757611cb6613f24565b5b81526020016002820160019054906101000a900473ffffffffffffffffffffffffffffffffffffffff1673ffffffffffffffffffffffffffffffffffffffff1673ffffffffffffffffffffffffffffffffffffffff168152602001600382018054611d2190614f64565b80601f0160208091040260200160405190810160405280929190818152602001828054611d4d90614f64565b8015611d985780601f10611d6f57610100808354040283529160200191611d98565b820191905f5260205f20905b815481529060010190602001808311611d7b57829003601f168201915b5050505050815260200160048201548152602001600582015f9054906101000a900460ff16151515158152602001600682018054611dd590614f64565b80601f0160208091040260200160405190810160405280929190818152602001828054611e0190614f64565b8015611e4c5780601f10611e2357610100808354040283529160200191611e4c565b820191905f5260205f20905b815481529060010190602001808311611e2f57829003601f168201915b505050505081525050828a83611e6291906152e0565b81518110611e7357611e72615313565b5b60200260200101819052508080600101915050611c2e565b50809550505050505b509392505050565b611ea4613a89565b5f73ffffffffffffffffffffffffffffffffffffffff1660085f8373ffffffffffffffffffffffffffffffffffffffff1673ffffffffffffffffffffffffffffffffffffffff1681526020019081526020015f205f015f9054906101000a900473ffffffffffffffffffffffffffffffffffffffff1673ffffffffffffffffffffffffffffffffffffffff1603611f67576040517f6f46a36500000000000000000000000000000000000000000000000000000000815260040160405180910390fd5b600160085f8373ffffffffffffffffffffffffffffffffffffffff1673ffffffffffffffffffffffffffffffffffffffff1681526020019081526020015f206004015f6101000a81548160ff0219169083151502179055508073ffffffffffffffffffffffffffffffffffffffff167f7d434f3bffe7db5f776c1c2b3b22e492788bdfbd071e9aa176f096970ea8893360016040516120069190614cfc565b60405180910390a250565b612019613a89565b5f83148061202957506004548310155b1561206b57826040517fae30d3b000000000000000000000000000000000000000000000000000000000815260040161206291906143d6565b60405180910390fd5b600160075f8581526020019081526020015f206005015f6101000a81548160ff021916908315150217905550818160075f8681526020019081526020015f2060060191826120ba9291906153b2565b50827f0428bfb0046d8263eac6b65dfccaecbcc6ad51c0a25f224d1f936ab94490029b83836040516120ed9291906154ab565b60405180910390a2505050565b60c881565b606060095f8373ffffffffffffffffffffffffffffffffffffffff1673ffffffffffffffffffffffffffffffffffffffff1681526020019081526020015f2080548060200260200160405190810160405280929190818152602001828054801561218657602002820191905f5260205f20905b815481526020019060010190808311612172575b50505050509050919050565b61219a613a89565b5f73ffffffffffffffffffffffffffffffffffffffff168173ffffffffffffffffffffffffffffffffffffffff16036121ff576040517fe6c4247b00000000000000000000000000000000000000000000000000000000815260040160405180910390fd5b805f5f6101000a81548173ffffffffffffffffffffffffffffffffffffffff021916908373ffffffffffffffffffffffffffffffffffffffff1602179055505f60015f6101000a81548173ffffffffffffffffffffffffffffffffffffffff021916908373ffffffffffffffffffffffffffffffffffffffff1602179055508073ffffffffffffffffffffffffffffffffffffffff167f24a7c28d8edc5ccd4ef428ebc1dce34762fe38b7fdcca1f3f20c818f04deb15660405160405180910390a250565b605081565b6122d1613770565b816122db816137f5565b5f60085f3373ffffffffffffffffffffffffffffffffffffffff1673ffffffffffffffffffffffffffffffffffffffff1681526020019081526020015f206002015f9054906101000a900460ff1690506002600581111561233f5761233e613f24565b5b81600581111561235257612351613f24565b5b1415801561238557506003600581111561236f5761236e613f24565b5b81600581111561238257612381613f24565b5b14155b156123bc576040517fef92a56b00000000000000000000000000000000000000000000000000000000815260040160405180910390fd5b600460068111156123d0576123cf613f24565b5b8360068111156123e3576123e2613f24565b5b0361241a576040517f9e96bb6900000000000000000000000000000000000000000000000000000000815260040160405180910390fd5b8260055f8681526020019081526020015f206008015f6101000a81548160ff021916908360068111156124505761244f613f24565b5b021790555061245f3385613b10565b837f7c1c93f72f29b8a1fc6fc85eed990d133b1ffac80c962b521abb12f38f2ff9af8460405161248f91906154dc565b60405180910390a250505050565b806124a7816137f5565b5f60055f8481526020019081526020015f209050806001015f9054906101000a900473ffffffffffffffffffffffffffffffffffffffff1673ffffffffffffffffffffffffffffffffffffffff163373ffffffffffffffffffffffffffffffffffffffff1614612543576040517f3f77ea3e00000000000000000000000000000000000000000000000000000000815260040160405180910390fd5b5f816008015f9054906101000a900460ff1690506004600681111561256b5761256a613f24565b5b81600681111561257e5761257d613f24565b5b14806125ae57506005600681111561259957612598613f24565b5b8160068111156125ac576125ab613f24565b5b145b806125dc57506006808111156125c7576125c6613f24565b5b8160068111156125da576125d9613f24565b5b145b15612613576040517f8b167a5000000000000000000000000000000000000000000000000000000000815260040160405180910390fd5b5f600681111561262657612625613f24565b5b81600681111561263957612638613f24565b5b1415801561266c57506002600681111561265657612655613f24565b5b81600681111561266957612668613f24565b5b14155b156126a3576040517fb86c1b1c00000000000000000000000000000000000000000000000000000000815260040160405180910390fd5b6006826008015f6101000a81548160ff021916908360068111156126ca576126c9613f24565b5b0217905550837f7c1c93f72f29b8a1fc6fc85eed990d133b1ffac80c962b521abb12f38f2ff9af600660405161270091906154dc565b60405180910390a250505050565b60608161271a816137f5565b5f60055f8581526020019081526020015f2060090190505f818054905067ffffffffffffffff8111156127505761274f61419e565b5b60405190808252806020026020018201604052801561278957816020015b612776613cd1565b81526020019060019003908161276e5790505b5090505f5f90505b82805490508110156129d65760065f8483815481106127b3576127b2615313565b5b905f5260205f20015481526020019081526020015f20604051806101000160405290815f820154815260200160018201548152602001600282015f9054906101000a900473ffffffffffffffffffffffffffffffffffffffff1673ffffffffffffffffffffffffffffffffffffffff1673ffffffffffffffffffffffffffffffffffffffff16815260200160038201805461284d90614f64565b80601f016020809104026020016040519081016040528092919081815260200182805461287990614f64565b80156128c45780601f1061289b576101008083540402835291602001916128c4565b820191905f5260205f20905b8154815290600101906020018083116128a757829003601f168201915b50505050508152602001600482015f9054906101000a900460ff1660048111156128f1576128f0613f24565b5b600481111561290357612902613f24565b5b81526020016005820154815260200160068201805461292190614f64565b80601f016020809104026020016040519081016040528092919081815260200182805461294d90614f64565b80156129985780601f1061296f57610100808354040283529160200191612998565b820191905f5260205f20905b81548152906001019060200180831161297b57829003601f168201915b505050505081526020016007820154815250508282815181106129be576129bd615313565b5b60200260200101819052508080600101915050612791565b50809350505050919050565b5f60075f8381526020019081526020015f206005015f9054906101000a900460ff169050919050565b612a13613d8e565b5f821480612a2357506004548210155b15612a6557816040517fae30d3b0000000000000000000000000000000000000000000000000000000008152600401612a5c91906143d6565b60405180910390fd5b60075f8381526020019081526020015f20604051806101000160405290815f820154815260200160018201548152602001600282015f9054906101000a900460ff166004811115612ab957612ab8613f24565b5b6004811115612acb57612aca613f24565b5b81526020016002820160019054906101000a900473ffffffffffffffffffffffffffffffffffffffff1673ffffffffffffffffffffffffffffffffffffffff1673ffffffffffffffffffffffffffffffffffffffff168152602001600382018054612b3590614f64565b80601f0160208091040260200160405190810160405280929190818152602001828054612b6190614f64565b8015612bac5780601f10612b8357610100808354040283529160200191612bac565b820191905f5260205f20905b815481529060010190602001808311612b8f57829003601f168201915b5050505050815260200160048201548152602001600582015f9054906101000a900460ff16151515158152602001600682018054612be990614f64565b80601f0160208091040260200160405190810160405280929190818152602001828054612c1590614f64565b8015612c605780601f10612c3757610100808354040283529160200191612c60565b820191905f5260205f20905b815481529060010190602001808311612c4357829003601f168201915b5050505050815250509050919050565b606081612c7c816137f5565b5f60055f8581526020019081526020015f20600a0190505f818054905067ffffffffffffffff811115612cb257612cb161419e565b5b604051908082528060200260200182016040528015612ceb57816020015b612cd8613d8e565b815260200190600190039081612cd05790505b5090505f5f90505b8280549050811015612f495760075f848381548110612d1557612d14615313565b5b905f5260205f20015481526020019081526020015f20604051806101000160405290815f820154815260200160018201548152602001600282015f9054906101000a900460ff166004811115612d6e57612d6d613f24565b5b6004811115612d8057612d7f613f24565b5b81526020016002820160019054906101000a900473ffffffffffffffffffffffffffffffffffffffff1673ffffffffffffffffffffffffffffffffffffffff1673ffffffffffffffffffffffffffffffffffffffff168152602001600382018054612dea90614f64565b80601f0160208091040260200160405190810160405280929190818152602001828054612e1690614f64565b8015612e615780601f10612e3857610100808354040283529160200191612e61565b820191905f5260205f20905b815481529060010190602001808311612e4457829003601f168201915b5050505050815260200160048201548152602001600582015f9054906101000a900460ff16151515158152602001600682018054612e9e90614f64565b80601f0160208091040260200160405190810160405280929190818152602001828054612eca90614f64565b8015612f155780601f10612eec57610100808354040283529160200191612f15565b820191905f5260205f20905b815481529060010190602001808311612ef857829003601f168201915b505050505081525050828281518110612f3157612f30615313565b5b60200260200101819052508080600101915050612cf3565b50809350505050919050565b601481565b5f81612f65816137f5565b5f60055f8581526020019081526020015f20905080600b015f9054906101000a900460ff16612f9857600192505061304a565b5f816009018054905090505f5f90505b81811015613042575f60065f856009018481548110612fca57612fc9615313565b5b905f5260205f20015481526020019081526020015f206007015490507f800000000000000000000000000000000000000000000000000000000000000081036130135750613035565b60508113806130225750601481125b15613033575f95505050505061304a565b505b8080600101915050612fa8565b506001935050505b50919050565b613058613a89565b5f73ffffffffffffffffffffffffffffffffffffffff168173ffffffffffffffffffffffffffffffffffffffff16036130bd576040517fe6c4247b00000000000000000000000000000000000000000000000000000000815260040160405180910390fd5b60085f8273ffffffffffffffffffffffffffffffffffffffff1673ffffffffffffffffffffffffffffffffffffffff1681526020019081526020015f206004015f9054906101000a900460ff1615613141576040517f7ca2767c00000000000000000000000000000000000000000000000000000000815260040160405180910390fd5b5f600581111561315457613153613f24565b5b83600581111561316757613166613f24565b5b0361319e576040517fd954416a00000000000000000000000000000000000000000000000000000000815260040160405180910390fd5b6040518060a001604052808273ffffffffffffffffffffffffffffffffffffffff1681526020018581526020018460058111156131de576131dd613f24565b5b81526020018381526020016001151581525060085f8373ffffffffffffffffffffffffffffffffffffffff1673ffffffffffffffffffffffffffffffffffffffff1681526020019081526020015f205f820151815f015f6101000a81548173ffffffffffffffffffffffffffffffffffffffff021916908373ffffffffffffffffffffffffffffffffffffffff160217905550602082015181600101908161328691906151a8565b506040820151816002015f6101000a81548160ff021916908360058111156132b1576132b0613f24565b5b021790555060608201518160030190816132cb91906151a8565b506080820151816004015f6101000a81548160ff0219169083151502179055509050508073ffffffffffffffffffffffffffffffffffffffff167fc9a31de765abe70445345802bee3c96554ca063ab257e3888d498accb859fabc8585604051613336929190615504565b60405180910390a250505050565b5f600254905090565b5f613356613770565b83613360816137f5565b600a5f3373ffffffffffffffffffffffffffffffffffffffff1673ffffffffffffffffffffffffffffffffffffffff1681526020019081526020015f205f8681526020019081526020015f205f9054906101000a900460ff166133ef576040517fd40c3d2100000000000000000000000000000000000000000000000000000000815260040160405180910390fd5b6133fa85858561384a565b9150509392505050565b5f5f9054906101000a900473ffffffffffffffffffffffffffffffffffffffff1681565b613430613a89565b5f73ffffffffffffffffffffffffffffffffffffffff1660085f8373ffffffffffffffffffffffffffffffffffffffff1673ffffffffffffffffffffffffffffffffffffffff1681526020019081526020015f205f015f9054906101000a900473ffffffffffffffffffffffffffffffffffffffff1673ffffffffffffffffffffffffffffffffffffffff16036134f3576040517f6f46a36500000000000000000000000000000000000000000000000000000000815260040160405180910390fd5b5f60085f8373ffffffffffffffffffffffffffffffffffffffff1673ffffffffffffffffffffffffffffffffffffffff1681526020019081526020015f206004015f6101000a81548160ff0219169083151502179055508073ffffffffffffffffffffffffffffffffffffffff167f7d434f3bffe7db5f776c1c2b3b22e492788bdfbd071e9aa176f096970ea889335f6040516135909190614cfc565b60405180910390a250565b806135a5816137f5565b5f60055f8481526020019081526020015f209050806002015f9054906101000a900473ffffffffffffffffffffffffffffffffffffffff1673ffffffffffffffffffffffffffffffffffffffff163373ffffffffffffffffffffffffffffffffffffffff1614613640576040517e7b024000000000000000000000000000000000000000000000000000000000815260040160405180910390fd5b6004600681111561365457613653613f24565b5b816008015f9054906101000a900460ff16600681111561367757613676613f24565b5b036136ae576040517fb9f7965300000000000000000000000000000000000000000000000000000000815260040160405180910390fd5b6004816008015f6101000a81548160ff021916908360068111156136d5576136d4613f24565b5b0217905550428160070181905550827f7c1c93f72f29b8a1fc6fc85eed990d133b1ffac80c962b521abb12f38f2ff9af600460405161371491906154dc565b60405180910390a23373ffffffffffffffffffffffffffffffffffffffff16837f2f4a952729db32131cb3d658cc231127e0ce7e50f83508ece9a49c985f2384d04260405161376391906143d6565b60405180910390a3505050565b60085f3373ffffffffffffffffffffffffffffffffffffffff1673ffffffffffffffffffffffffffffffffffffffff1681526020019081526020015f206004015f9054906101000a900460ff166137f3576040517f2a718ceb00000000000000000000000000000000000000000000000000000000815260040160405180910390fd5b565b5f81148061380557506002548110155b1561384757806040517f84e54a2400000000000000000000000000000000000000000000000000000000815260040161383e91906143d6565b60405180910390fd5b50565b5f5f60055f8681526020019081526020015f209050603281600a0180549050106138a0576040517fcdb7a76c00000000000000000000000000000000000000000000000000000000815260040160405180910390fd5b5f60045f8154809291906138b390614fc1565b9190505590506040518061010001604052808281526020018781526020018660048111156138e4576138e3613f24565b5b81526020013373ffffffffffffffffffffffffffffffffffffffff1681526020018581526020014281526020015f1515815260200160405180602001604052805f81525081525060075f8381526020019081526020015f205f820151815f0155602082015181600101556040820151816002015f6101000a81548160ff0219169083600481111561397857613977613f24565b5b021790555060608201518160020160016101000a81548173ffffffffffffffffffffffffffffffffffffffff021916908373ffffffffffffffffffffffffffffffffffffffff16021790555060808201518160030190816139d991906151a8565b5060a0820151816004015560c0820151816005015f6101000a81548160ff02191690831515021790555060e0820151816006019081613a1891906151a8565b5090505081600a0181908060018154018082558091505060019003905f5260205f20015f909190919091505585817fc2c9d0fa5caecea68b9ec6aca764014b01764f779d8a510f0d0d6796b76b7c8387604051613a759190615541565b60405180910390a380925050509392505050565b5f5f9054906101000a900473ffffffffffffffffffffffffffffffffffffffff1673ffffffffffffffffffffffffffffffffffffffff163373ffffffffffffffffffffffffffffffffffffffff1614613b0e576040517f4755657900000000000000000000000000000000000000000000000000000000815260040160405180910390fd5b565b600a5f8373ffffffffffffffffffffffffffffffffffffffff1673ffffffffffffffffffffffffffffffffffffffff1681526020019081526020015f205f8281526020019081526020015f205f9054906101000a900460ff16613c33576001600a5f8473ffffffffffffffffffffffffffffffffffffffff1673ffffffffffffffffffffffffffffffffffffffff1681526020019081526020015f205f8381526020019081526020015f205f6101000a81548160ff02191690831515021790555060095f8373ffffffffffffffffffffffffffffffffffffffff1673ffffffffffffffffffffffffffffffffffffffff1681526020019081526020015f2081908060018154018082558091505060019003905f5260205f20015f90919091909150555b5050565b6040518061018001604052805f81526020015f73ffffffffffffffffffffffffffffffffffffffff1681526020015f73ffffffffffffffffffffffffffffffffffffffff1681526020016060815260200160608152602001606081526020015f81526020015f81526020015f6006811115613cb557613cb4613f24565b5b815260200160608152602001606081526020015f151581525090565b6040518061010001604052805f81526020015f81526020015f73ffffffffffffffffffffffffffffffffffffffff168152602001606081526020015f6004811115613d1f57613d1e613f24565b5b81526020015f8152602001606081526020015f81525090565b6040518060a001604052805f73ffffffffffffffffffffffffffffffffffffffff168152602001606081526020015f6005811115613d7957613d78613f24565b5b8152602001606081526020015f151581525090565b6040518061010001604052805f81526020015f81526020015f6004811115613db957613db8613f24565b5b81526020015f73ffffffffffffffffffffffffffffffffffffffff168152602001606081526020015f81526020015f15158152602001606081525090565b5f604051905090565b5f5ffd5b5f5ffd5b5f819050919050565b613e1a81613e08565b8114613e24575f5ffd5b50565b5f81359050613e3581613e11565b92915050565b5f60208284031215613e5057613e4f613e00565b5b5f613e5d84828501613e27565b91505092915050565b613e6f81613e08565b82525050565b5f73ffffffffffffffffffffffffffffffffffffffff82169050919050565b5f613e9e82613e75565b9050919050565b613eae81613e94565b82525050565b5f81519050919050565b5f82825260208201905092915050565b8281835e5f83830152505050565b5f601f19601f8301169050919050565b5f613ef682613eb4565b613f008185613ebe565b9350613f10818560208601613ece565b613f1981613edc565b840191505092915050565b7f4e487b71000000000000000000000000000000000000000000000000000000005f52602160045260245ffd5b60078110613f6257613f61613f24565b5b50565b5f819050613f7282613f51565b919050565b5f613f8182613f65565b9050919050565b613f9181613f77565b82525050565b5f81519050919050565b5f82825260208201905092915050565b5f819050602082019050919050565b5f613fcb8383613e66565b60208301905092915050565b5f602082019050919050565b5f613fed82613f97565b613ff78185613fa1565b935061400283613fb1565b805f5b838110156140325781516140198882613fc0565b975061402483613fd7565b925050600181019050614005565b5085935050505092915050565b5f8115159050919050565b6140538161403f565b82525050565b5f61018083015f83015161406f5f860182613e66565b5060208301516140826020860182613ea5565b5060408301516140956040860182613ea5565b50606083015184820360608601526140ad8282613eec565b915050608083015184820360808601526140c78282613eec565b91505060a083015184820360a08601526140e18282613eec565b91505060c08301516140f660c0860182613e66565b5060e083015161410960e0860182613e66565b5061010083015161411e610100860182613f88565b506101208301518482036101208601526141388282613fe3565b9150506101408301518482036101408601526141548282613fe3565b91505061016083015161416b61016086018261404a565b508091505092915050565b5f6020820190508181035f83015261418e8184614059565b905092915050565b5f5ffd5b5f5ffd5b7f4e487b71000000000000000000000000000000000000000000000000000000005f52604160045260245ffd5b6141d482613edc565b810181811067ffffffffffffffff821117156141f3576141f261419e565b5b80604052505050565b5f614205613df7565b905061421182826141cb565b919050565b5f67ffffffffffffffff8211156142305761422f61419e565b5b61423982613edc565b9050602081019050919050565b828183375f83830152505050565b5f61426661426184614216565b6141fc565b9050828152602081018484840111156142825761428161419a565b5b61428d848285614246565b509392505050565b5f82601f8301126142a9576142a8614196565b5b81356142b9848260208601614254565b91505092915050565b600581106142ce575f5ffd5b50565b5f813590506142df816142c2565b92915050565b5f819050919050565b6142f7816142e5565b8114614301575f5ffd5b50565b5f81359050614312816142ee565b92915050565b5f5f5f5f5f60a0868803121561433157614330613e00565b5b5f61433e88828901613e27565b955050602086013567ffffffffffffffff81111561435f5761435e613e04565b5b61436b88828901614295565b945050604061437c888289016142d1565b935050606086013567ffffffffffffffff81111561439d5761439c613e04565b5b6143a988828901614295565b92505060806143ba88828901614304565b9150509295509295909350565b6143d081613e08565b82525050565b5f6020820190506143e95f8301846143c7565b92915050565b6143f881613e94565b8114614402575f5ffd5b50565b5f81359050614413816143ef565b92915050565b5f6020828403121561442e5761442d613e00565b5b5f61443b84828501614405565b91505092915050565b5f5f5f6060848603121561445b5761445a613e00565b5b5f61446886828701613e27565b935050602061447986828701613e27565b925050604061448a86828701613e27565b9150509250925092565b5f81519050919050565b5f82825260208201905092915050565b5f819050602082019050919050565b600581106144ce576144cd613f24565b5b50565b5f8190506144de826144bd565b919050565b5f6144ed826144d1565b9050919050565b6144fd816144e3565b82525050565b61450c816142e5565b82525050565b5f61010083015f8301516145285f860182613e66565b50602083015161453b6020860182613e66565b50604083015161454e6040860182613ea5565b50606083015184820360608601526145668282613eec565b915050608083015161457b60808601826144f4565b5060a083015161458e60a0860182613e66565b5060c083015184820360c08601526145a68282613eec565b91505060e08301516145bb60e0860182614503565b508091505092915050565b5f6145d18383614512565b905092915050565b5f602082019050919050565b5f6145ef82614494565b6145f9818561449e565b93508360208202850161460b856144ae565b805f5b85811015614646578484038952815161462785826145c6565b9450614632836145d9565b925060208a0199505060018101905061460e565b50829750879550505050505092915050565b5f6020820190508181035f83015261467081846145e5565b905092915050565b5f61010083015f83015161468e5f860182613e66565b5060208301516146a16020860182613e66565b5060408301516146b46040860182613ea5565b50606083015184820360608601526146cc8282613eec565b91505060808301516146e160808601826144f4565b5060a08301516146f460a0860182613e66565b5060c083015184820360c086015261470c8282613eec565b91505060e083015161472160e0860182614503565b508091505092915050565b5f6020820190508181035f8301526147448184614678565b905092915050565b61475581613e94565b82525050565b5f60208201905061476e5f83018461474c565b92915050565b61477d816142e5565b82525050565b5f6020820190506147965f830184614774565b92915050565b600681106147ad576147ac613f24565b5b50565b5f8190506147bd8261479c565b919050565b5f6147cc826147b0565b9050919050565b6147dc816147c2565b82525050565b5f60a083015f8301516147f75f860182613ea5565b506020830151848203602086015261480f8282613eec565b915050604083015161482460408601826147d3565b506060830151848203606086015261483c8282613eec565b9150506080830151614851608086018261404a565b508091505092915050565b5f6020820190508181035f83015261487481846147e2565b905092915050565b6148858161403f565b811461488f575f5ffd5b50565b5f813590506148a08161487c565b92915050565b5f5f5f5f5f60a086880312156148bf576148be613e00565b5b5f6148cc88828901614405565b955050602086013567ffffffffffffffff8111156148ed576148ec613e04565b5b6148f988828901614295565b945050604086013567ffffffffffffffff81111561491a57614919613e04565b5b61492688828901614295565b935050606086013567ffffffffffffffff81111561494757614946613e04565b5b61495388828901614295565b925050608061496488828901614892565b9150509295509295909350565b5f81519050919050565b5f82825260208201905092915050565b5f819050602082019050919050565b600581106149ab576149aa613f24565b5b50565b5f8190506149bb8261499a565b919050565b5f6149ca826149ae565b9050919050565b6149da816149c0565b82525050565b5f61010083015f8301516149f65f860182613e66565b506020830151614a096020860182613e66565b506040830151614a1c60408601826149d1565b506060830151614a2f6060860182613ea5565b5060808301518482036080860152614a478282613eec565b91505060a0830151614a5c60a0860182613e66565b5060c0830151614a6f60c086018261404a565b5060e083015184820360e0860152614a878282613eec565b9150508091505092915050565b5f614a9f83836149e0565b905092915050565b5f602082019050919050565b5f614abd82614971565b614ac7818561497b565b935083602082028501614ad98561498b565b805f5b85811015614b145784840389528151614af58582614a94565b9450614b0083614aa7565b925060208a01995050600181019050614adc565b50829750879550505050505092915050565b5f6020820190508181035f830152614b3e8184614ab3565b905092915050565b5f5ffd5b5f5ffd5b5f5f83601f840112614b6357614b62614196565b5b8235905067ffffffffffffffff811115614b8057614b7f614b46565b5b602083019150836001820283011115614b9c57614b9b614b4a565b5b9250929050565b5f5f5f60408486031215614bba57614bb9613e00565b5b5f614bc786828701613e27565b935050602084013567ffffffffffffffff811115614be857614be7613e04565b5b614bf486828701614b4e565b92509250509250925092565b5f82825260208201905092915050565b5f614c1a82613f97565b614c248185614c00565b9350614c2f83613fb1565b805f5b83811015614c5f578151614c468882613fc0565b9750614c5183613fd7565b925050600181019050614c32565b5085935050505092915050565b5f6020820190508181035f830152614c848184614c10565b905092915050565b60078110614c98575f5ffd5b50565b5f81359050614ca981614c8c565b92915050565b5f5f60408385031215614cc557614cc4613e00565b5b5f614cd285828601613e27565b9250506020614ce385828601614c9b565b9150509250929050565b614cf68161403f565b82525050565b5f602082019050614d0f5f830184614ced565b92915050565b5f61010083015f830151614d2b5f860182613e66565b506020830151614d3e6020860182613e66565b506040830151614d5160408601826149d1565b506060830151614d646060860182613ea5565b5060808301518482036080860152614d7c8282613eec565b91505060a0830151614d9160a0860182613e66565b5060c0830151614da460c086018261404a565b5060e083015184820360e0860152614dbc8282613eec565b9150508091505092915050565b5f6020820190508181035f830152614de18184614d15565b905092915050565b60068110614df5575f5ffd5b50565b5f81359050614e0681614de9565b92915050565b5f5f5f5f60808587031215614e2457614e23613e00565b5b5f85013567ffffffffffffffff811115614e4157614e40613e04565b5b614e4d87828801614295565b9450506020614e5e87828801614df8565b935050604085013567ffffffffffffffff811115614e7f57614e7e613e04565b5b614e8b87828801614295565b9250506060614e9c87828801614405565b91505092959194509250565b60058110614eb4575f5ffd5b50565b5f81359050614ec581614ea8565b92915050565b5f5f5f60608486031215614ee257614ee1613e00565b5b5f614eef86828701613e27565b9350506020614f0086828701614eb7565b925050604084013567ffffffffffffffff811115614f2157614f20613e04565b5b614f2d86828701614295565b9150509250925092565b7f4e487b71000000000000000000000000000000000000000000000000000000005f52602260045260245ffd5b5f6002820490506001821680614f7b57607f821691505b602082108103614f8e57614f8d614f37565b5b50919050565b7f4e487b71000000000000000000000000000000000000000000000000000000005f52601160045260245ffd5b5f614fcb82613e08565b91507fffffffffffffffffffffffffffffffffffffffffffffffffffffffffffffffff8203614ffd57614ffc614f94565b5b600182019050919050565b5f819050815f5260205f209050919050565b5f6020601f8301049050919050565b5f82821b905092915050565b5f600883026150647fffffffffffffffffffffffffffffffffffffffffffffffffffffffffffffffff82615029565b61506e8683615029565b95508019841693508086168417925050509392505050565b5f819050919050565b5f6150a96150a461509f84613e08565b615086565b613e08565b9050919050565b5f819050919050565b6150c28361508f565b6150d66150ce826150b0565b848454615035565b825550505050565b5f5f905090565b6150ed6150de565b6150f88184846150b9565b505050565b5b8181101561511b576151105f826150e5565b6001810190506150fe565b5050565b601f8211156151605761513181615008565b61513a8461501a565b81016020851015615149578190505b61515d6151558561501a565b8301826150fd565b50505b505050565b5f82821c905092915050565b5f6151805f1984600802615165565b1980831691505092915050565b5f6151988383615171565b9150826002028217905092915050565b6151b182613eb4565b67ffffffffffffffff8111156151ca576151c961419e565b5b6151d48254614f64565b6151df82828561511f565b5f60209050601f831160018114615210575f84156151fe578287015190505b615208858261518d565b86555061526f565b601f19841661521e86615008565b5f5b8281101561524557848901518255600182019150602085019450602081019050615220565b86831015615262578489015161525e601f891682615171565b8355505b6001600288020188555050505b505050505050565b615280816144e3565b82525050565b5f6040820190506152995f830185615277565b6152a6602083018461474c565b9392505050565b5f6152b782613e08565b91506152c283613e08565b92508282019050808211156152da576152d9614f94565b5b92915050565b5f6152ea82613e08565b91506152f583613e08565b925082820390508181111561530d5761530c614f94565b5b92915050565b7f4e487b71000000000000000000000000000000000000000000000000000000005f52603260045260245ffd5b5f82825260208201905092915050565b5f61535a82613eb4565b6153648185615340565b9350615374818560208601613ece565b61537d81613edc565b840191505092915050565b5f6020820190508181035f8301526153a08184615350565b905092915050565b5f82905092915050565b6153bc83836153a8565b67ffffffffffffffff8111156153d5576153d461419e565b5b6153df8254614f64565b6153ea82828561511f565b5f601f831160018114615417575f8415615405578287013590505b61540f858261518d565b865550615476565b601f19841661542586615008565b5f5b8281101561544c57848901358255600182019150602085019450602081019050615427565b868310156154695784890135615465601f891682615171565b8355505b6001600288020188555050505b50505050505050565b5f61548a8385615340565b9350615497838584614246565b6154a083613edc565b840190509392505050565b5f6020820190508181035f8301526154c481848661547f565b90509392505050565b6154d681613f77565b82525050565b5f6020820190506154ef5f8301846154cd565b92915050565b6154fe816147c2565b82525050565b5f6040820190508181035f83015261551c8185615350565b905061552b60208301846154f5565b9392505050565b61553b816149c0565b82525050565b5f6020820190506155545f830184615532565b9291505056fea2646970667358221220a2de70eda898528691aa9fd3f8133729528b821b389e0fcd0270d3def03859ef64736f6c634300081e0033",
			"opcodes": "PUSH1 0x80 PUSH1 0x40 MSTORE PUSH1 0x1 PUSH1 0x2 SSTORE PUSH1 0x1 PUSH1 0x3 SSTORE PUSH1 0x1 PUSH1 0x4 SSTORE CALLVALUE DUP1 ISZERO PUSH1 0x1D JUMPI PUSH0 PUSH0 REVERT JUMPDEST POP CALLER PUSH0 PUSH0 PUSH2 0x100 EXP DUP2 SLOAD DUP2 PUSH20 0xFFFFFFFFFFFFFFFFFFFFFFFFFFFFFFFFFFFFFFFF MUL NOT AND SWAP1 DUP4 PUSH20 0xFFFFFFFFFFFFFFFFFFFFFFFFFFFFFFFFFFFFFFFF AND MUL OR SWAP1 SSTORE POP PUSH2 0x5590 DUP1 PUSH2 0x6A PUSH0 CODECOPY PUSH0 RETURN INVALID PUSH1 0x80 PUSH1 0x40 MSTORE CALLVALUE DUP1 ISZERO PUSH2 0xF JUMPI PUSH0 PUSH0 REVERT JUMPDEST POP PUSH1 0x4 CALLDATASIZE LT PUSH2 0x204 JUMPI PUSH0 CALLDATALOAD PUSH1 0xE0 SHR DUP1 PUSH4 0x72F2F93A GT PUSH2 0x118 JUMPI DUP1 PUSH4 0x9B4ADF4E GT PUSH2 0xAB JUMPI DUP1 PUSH4 0xB9A3A68C GT PUSH2 0x7A JUMPI DUP1 PUSH4 0xB9A3A68C EQ PUSH2 0x636 JUMPI DUP1 PUSH4 0xE570C367 EQ PUSH2 0x654 JUMPI DUP1 PUSH4 0xF851A440 EQ PUSH2 0x684 JUMPI DUP1 PUSH4 0xFC436695 EQ PUSH2 0x6A2 JUMPI DUP1 PUSH4 0xFD84CB97 EQ PUSH2 0x6BE JUMPI PUSH2 0x204 JUMP JUMPDEST DUP1 PUSH4 0x9B4ADF4E EQ PUSH2 0x59C JUMPI DUP1 PUSH4 0xA54A6EE4 EQ PUSH2 0x5CC JUMPI DUP1 PUSH4 0xAF56A428 EQ PUSH2 0x5EA JUMPI DUP1 PUSH4 0xB7FA3C2A EQ PUSH2 0x61A JUMPI PUSH2 0x204 JUMP JUMPDEST DUP1 PUSH4 0x7FAA7BC7 GT PUSH2 0xE7 JUMPI DUP1 PUSH4 0x7FAA7BC7 EQ PUSH2 0x4F0 JUMPI DUP1 PUSH4 0x8D70861E EQ PUSH2 0x50C JUMPI DUP1 PUSH4 0x925D3478 EQ PUSH2 0x53C JUMPI DUP1 PUSH4 0x9578615E EQ PUSH2 0x56C JUMPI PUSH2 0x204 JUMP JUMPDEST DUP1 PUSH4 0x72F2F93A EQ PUSH2 0x46A JUMPI DUP1 PUSH4 0x75829DEF EQ PUSH2 0x49A JUMPI DUP1 PUSH4 0x7B8A20E2 EQ PUSH2 0x4B6 JUMPI DUP1 PUSH4 0x7DEFA920 EQ PUSH2 0x4D4 JUMPI PUSH2 0x204 JUMP JUMPDEST DUP1 PUSH4 0x26782247 GT PUSH2 0x19B JUMPI DUP1 PUSH4 0x475B6F98 GT PUSH2 0x16A JUMPI DUP1 PUSH4 0x475B6F98 EQ PUSH2 0x3B4 JUMPI DUP1 PUSH4 0x48016224 EQ PUSH2 0x3E4 JUMPI DUP1 PUSH4 0x58DCF85E EQ PUSH2 0x414 JUMPI DUP1 PUSH4 0x5E6B2086 EQ PUSH2 0x430 JUMPI DUP1 PUSH4 0x63F86584 EQ PUSH2 0x44C JUMPI PUSH2 0x204 JUMP JUMPDEST DUP1 PUSH4 0x26782247 EQ PUSH2 0x32A JUMPI DUP1 PUSH4 0x2BF210DC EQ PUSH2 0x348 JUMPI DUP1 PUSH4 0x305207B0 EQ PUSH2 0x366 JUMPI DUP1 PUSH4 0x4138D167 EQ PUSH2 0x384 JUMPI PUSH2 0x204 JUMP JUMPDEST DUP1 PUSH4 0x147BF6C4 GT PUSH2 0x1D7 JUMPI DUP1 PUSH4 0x147BF6C4 EQ PUSH2 0x290 JUMPI DUP1 PUSH4 0x17082AE0 EQ PUSH2 0x2AC JUMPI DUP1 PUSH4 0x20FC4881 EQ PUSH2 0x2DC JUMPI DUP1 PUSH4 0x229EC452 EQ PUSH2 0x30C JUMPI PUSH2 0x204 JUMP JUMPDEST DUP1 PUSH4 0x92B3740 EQ PUSH2 0x208 JUMPI DUP1 PUSH4 0xA7A0B69 EQ PUSH2 0x238 JUMPI DUP1 PUSH4 0xE18B681 EQ PUSH2 0x268 JUMPI DUP1 PUSH4 0xFD19668 EQ PUSH2 0x272 JUMPI JUMPDEST PUSH0 PUSH0 REVERT JUMPDEST PUSH2 0x222 PUSH1 0x4 DUP1 CALLDATASIZE SUB DUP2 ADD SWAP1 PUSH2 0x21D SWAP2 SWAP1 PUSH2 0x3E3B JUMP JUMPDEST PUSH2 0x6DA JUMP JUMPDEST PUSH1 0x40 MLOAD PUSH2 0x22F SWAP2 SWAP1 PUSH2 0x4176 JUMP JUMPDEST PUSH1 0x40 MLOAD DUP1 SWAP2 SUB SWAP1 RETURN JUMPDEST PUSH2 0x252 PUSH1 0x4 DUP1 CALLDATASIZE SUB DUP2 ADD SWAP1 PUSH2 0x24D SWAP2 SWAP1 PUSH2 0x4318 JUMP JUMPDEST PUSH2 0xA7D JUMP JUMPDEST PUSH1 0x40 MLOAD PUSH2 0x25F SWAP2 SWAP1 PUSH2 0x43D6 JUMP JUMPDEST PUSH1 0x40 MLOAD DUP1 SWAP2 SUB SWAP1 RETURN JUMPDEST PUSH2 0x270 PUSH2 0xDD8 JUMP JUMPDEST STOP JUMPDEST PUSH2 0x27A PUSH2 0xF22 JUMP JUMPDEST PUSH1 0x40 MLOAD PUSH2 0x287 SWAP2 SWAP1 PUSH2 0x43D6 JUMP JUMPDEST PUSH1 0x40 MLOAD DUP1 SWAP2 SUB SWAP1 RETURN JUMPDEST PUSH2 0x2AA PUSH1 0x4 DUP1 CALLDATASIZE SUB DUP2 ADD SWAP1 PUSH2 0x2A5 SWAP2 SWAP1 PUSH2 0x4419 JUMP JUMPDEST PUSH2 0xF2B JUMP JUMPDEST STOP JUMPDEST PUSH2 0x2C6 PUSH1 0x4 DUP1 CALLDATASIZE SUB DUP2 ADD SWAP1 PUSH2 0x2C1 SWAP2 SWAP1 PUSH2 0x4444 JUMP JUMPDEST PUSH2 0x101E JUMP JUMPDEST PUSH1 0x40 MLOAD PUSH2 0x2D3 SWAP2 SWAP1 PUSH2 0x4658 JUMP JUMPDEST PUSH1 0x40 MLOAD DUP1 SWAP2 SUB SWAP1 RETURN JUMPDEST PUSH2 0x2F6 PUSH1 0x4 DUP1 CALLDATASIZE SUB DUP2 ADD SWAP1 PUSH2 0x2F1 SWAP2 SWAP1 PUSH2 0x3E3B JUMP JUMPDEST PUSH2 0x1399 JUMP JUMPDEST PUSH1 0x40 MLOAD PUSH2 0x303 SWAP2 SWAP1 PUSH2 0x472C JUMP JUMPDEST PUSH1 0x40 MLOAD DUP1 SWAP2 SUB SWAP1 RETURN JUMPDEST PUSH2 0x314 PUSH2 0x15ED JUMP JUMPDEST PUSH1 0x40 MLOAD PUSH2 0x321 SWAP2 SWAP1 PUSH2 0x43D6 JUMP JUMPDEST PUSH1 0x40 MLOAD DUP1 SWAP2 SUB SWAP1 RETURN JUMPDEST PUSH2 0x332 PUSH2 0x15F6 JUMP JUMPDEST PUSH1 0x40 MLOAD PUSH2 0x33F SWAP2 SWAP1 PUSH2 0x475B JUMP JUMPDEST PUSH1 0x40 MLOAD DUP1 SWAP2 SUB SWAP1 RETURN JUMPDEST PUSH2 0x350 PUSH2 0x161B JUMP JUMPDEST PUSH1 0x40 MLOAD PUSH2 0x35D SWAP2 SWAP1 PUSH2 0x4783 JUMP JUMPDEST PUSH1 0x40 MLOAD DUP1 SWAP2 SUB SWAP1 RETURN JUMPDEST PUSH2 0x36E PUSH2 0x163F JUMP JUMPDEST PUSH1 0x40 MLOAD PUSH2 0x37B SWAP2 SWAP1 PUSH2 0x43D6 JUMP JUMPDEST PUSH1 0x40 MLOAD DUP1 SWAP2 SUB SWAP1 RETURN JUMPDEST PUSH2 0x39E PUSH1 0x4 DUP1 CALLDATASIZE SUB DUP2 ADD SWAP1 PUSH2 0x399 SWAP2 SWAP1 PUSH2 0x4419 JUMP JUMPDEST PUSH2 0x1644 JUMP JUMPDEST PUSH1 0x40 MLOAD PUSH2 0x3AB SWAP2 SWAP1 PUSH2 0x485C JUMP JUMPDEST PUSH1 0x40 MLOAD DUP1 SWAP2 SUB SWAP1 RETURN JUMPDEST PUSH2 0x3CE PUSH1 0x4 DUP1 CALLDATASIZE SUB DUP2 ADD SWAP1 PUSH2 0x3C9 SWAP2 SWAP1 PUSH2 0x48A6 JUMP JUMPDEST PUSH2 0x1863 JUMP JUMPDEST PUSH1 0x40 MLOAD PUSH2 0x3DB SWAP2 SWAP1 PUSH2 0x43D6 JUMP JUMPDEST PUSH1 0x40 MLOAD DUP1 SWAP2 SUB SWAP1 RETURN JUMPDEST PUSH2 0x3FE PUSH1 0x4 DUP1 CALLDATASIZE SUB DUP2 ADD SWAP1 PUSH2 0x3F9 SWAP2 SWAP1 PUSH2 0x4444 JUMP JUMPDEST PUSH2 0x1B10 JUMP JUMPDEST PUSH1 0x40 MLOAD PUSH2 0x40B SWAP2 SWAP1 PUSH2 0x4B26 JUMP JUMPDEST PUSH1 0x40 MLOAD DUP1 SWAP2 SUB SWAP1 RETURN JUMPDEST PUSH2 0x42E PUSH1 0x4 DUP1 CALLDATASIZE SUB DUP2 ADD SWAP1 PUSH2 0x429 SWAP2 SWAP1 PUSH2 0x4419 JUMP JUMPDEST PUSH2 0x1E9C JUMP JUMPDEST STOP JUMPDEST PUSH2 0x44A PUSH1 0x4 DUP1 CALLDATASIZE SUB DUP2 ADD SWAP1 PUSH2 0x445 SWAP2 SWAP1 PUSH2 0x4BA3 JUMP JUMPDEST PUSH2 0x2011 JUMP JUMPDEST STOP JUMPDEST PUSH2 0x454 PUSH2 0x20FA JUMP JUMPDEST PUSH1 0x40 MLOAD PUSH2 0x461 SWAP2 SWAP1 PUSH2 0x43D6 JUMP JUMPDEST PUSH1 0x40 MLOAD DUP1 SWAP2 SUB SWAP1 RETURN JUMPDEST PUSH2 0x484 PUSH1 0x4 DUP1 CALLDATASIZE SUB DUP2 ADD SWAP1 PUSH2 0x47F SWAP2 SWAP1 PUSH2 0x4419 JUMP JUMPDEST PUSH2 0x20FF JUMP JUMPDEST PUSH1 0x40 MLOAD PUSH2 0x491 SWAP2 SWAP1 PUSH2 0x4C6C JUMP JUMPDEST PUSH1 0x40 MLOAD DUP1 SWAP2 SUB SWAP1 RETURN JUMPDEST PUSH2 0x4B4 PUSH1 0x4 DUP1 CALLDATASIZE SUB DUP2 ADD SWAP1 PUSH2 0x4AF SWAP2 SWAP1 PUSH2 0x4419 JUMP JUMPDEST PUSH2 0x2192 JUMP JUMPDEST STOP JUMPDEST PUSH2 0x4BE PUSH2 0x22C4 JUMP JUMPDEST PUSH1 0x40 MLOAD PUSH2 0x4CB SWAP2 SWAP1 PUSH2 0x4783 JUMP JUMPDEST PUSH1 0x40 MLOAD DUP1 SWAP2 SUB SWAP1 RETURN JUMPDEST PUSH2 0x4EE PUSH1 0x4 DUP1 CALLDATASIZE SUB DUP2 ADD SWAP1 PUSH2 0x4E9 SWAP2 SWAP1 PUSH2 0x4CAF JUMP JUMPDEST PUSH2 0x22C9 JUMP JUMPDEST STOP JUMPDEST PUSH2 0x50A PUSH1 0x4 DUP1 CALLDATASIZE SUB DUP2 ADD SWAP1 PUSH2 0x505 SWAP2 SWAP1 PUSH2 0x3E3B JUMP JUMPDEST PUSH2 0x249D JUMP JUMPDEST STOP JUMPDEST PUSH2 0x526 PUSH1 0x4 DUP1 CALLDATASIZE SUB DUP2 ADD SWAP1 PUSH2 0x521 SWAP2 SWAP1 PUSH2 0x3E3B JUMP JUMPDEST PUSH2 0x270E JUMP JUMPDEST PUSH1 0x40 MLOAD PUSH2 0x533 SWAP2 SWAP1 PUSH2 0x4658 JUMP JUMPDEST PUSH1 0x40 MLOAD DUP1 SWAP2 SUB SWAP1 RETURN JUMPDEST PUSH2 0x556 PUSH1 0x4 DUP1 CALLDATASIZE SUB DUP2 ADD SWAP1 PUSH2 0x551 SWAP2 SWAP1 PUSH2 0x3E3B JUMP JUMPDEST PUSH2 0x29E2 JUMP JUMPDEST PUSH1 0x40 MLOAD PUSH2 0x563 SWAP2 SWAP1 PUSH2 0x4CFC JUMP JUMPDEST PUSH1 0x40 MLOAD DUP1 SWAP2 SUB SWAP1 RETURN JUMPDEST PUSH2 0x586 PUSH1 0x4 DUP1 CALLDATASIZE SUB DUP2 ADD SWAP1 PUSH2 0x581 SWAP2 SWAP1 PUSH2 0x3E3B JUMP JUMPDEST PUSH2 0x2A0B JUMP JUMPDEST PUSH1 0x40 MLOAD PUSH2 0x593 SWAP2 SWAP1 PUSH2 0x4DC9 JUMP JUMPDEST PUSH1 0x40 MLOAD DUP1 SWAP2 SUB SWAP1 RETURN JUMPDEST PUSH2 0x5B6 PUSH1 0x4 DUP1 CALLDATASIZE SUB DUP2 ADD SWAP1 PUSH2 0x5B1 SWAP2 SWAP1 PUSH2 0x3E3B JUMP JUMPDEST PUSH2 0x2C70 JUMP JUMPDEST PUSH1 0x40 MLOAD PUSH2 0x5C3 SWAP2 SWAP1 PUSH2 0x4B26 JUMP JUMPDEST PUSH1 0x40 MLOAD DUP1 SWAP2 SUB SWAP1 RETURN JUMPDEST PUSH2 0x5D4 PUSH2 0x2F55 JUMP JUMPDEST PUSH1 0x40 MLOAD PUSH2 0x5E1 SWAP2 SWAP1 PUSH2 0x4783 JUMP JUMPDEST PUSH1 0x40 MLOAD DUP1 SWAP2 SUB SWAP1 RETURN JUMPDEST PUSH2 0x604 PUSH1 0x4 DUP1 CALLDATASIZE SUB DUP2 ADD SWAP1 PUSH2 0x5FF SWAP2 SWAP1 PUSH2 0x3E3B JUMP JUMPDEST PUSH2 0x2F5A JUMP JUMPDEST PUSH1 0x40 MLOAD PUSH2 0x611 SWAP2 SWAP1 PUSH2 0x4CFC JUMP JUMPDEST PUSH1 0x40 MLOAD DUP1 SWAP2 SUB SWAP1 RETURN JUMPDEST PUSH2 0x634 PUSH1 0x4 DUP1 CALLDATASIZE SUB DUP2 ADD SWAP1 PUSH2 0x62F SWAP2 SWAP1 PUSH2 0x4E0C JUMP JUMPDEST PUSH2 0x3050 JUMP JUMPDEST STOP JUMPDEST PUSH2 0x63E PUSH2 0x3344 JUMP JUMPDEST PUSH1 0x40 MLOAD PUSH2 0x64B SWAP2 SWAP1 PUSH2 0x43D6 JUMP JUMPDEST PUSH1 0x40 MLOAD DUP1 SWAP2 SUB SWAP1 RETURN JUMPDEST PUSH2 0x66E PUSH1 0x4 DUP1 CALLDATASIZE SUB DUP2 ADD SWAP1 PUSH2 0x669 SWAP2 SWAP1 PUSH2 0x4ECB JUMP JUMPDEST PUSH2 0x334D JUMP JUMPDEST PUSH1 0x40 MLOAD PUSH2 0x67B SWAP2 SWAP1 PUSH2 0x43D6 JUMP JUMPDEST PUSH1 0x40 MLOAD DUP1 SWAP2 SUB SWAP1 RETURN JUMPDEST PUSH2 0x68C PUSH2 0x3404 JUMP JUMPDEST PUSH1 0x40 MLOAD PUSH2 0x699 SWAP2 SWAP1 PUSH2 0x475B JUMP JUMPDEST PUSH1 0x40 MLOAD DUP1 SWAP2 SUB SWAP1 RETURN JUMPDEST PUSH2 0x6BC PUSH1 0x4 DUP1 CALLDATASIZE SUB DUP2 ADD SWAP1 PUSH2 0x6B7 SWAP2 SWAP1 PUSH2 0x4419 JUMP JUMPDEST PUSH2 0x3428 JUMP JUMPDEST STOP JUMPDEST PUSH2 0x6D8 PUSH1 0x4 DUP1 CALLDATASIZE SUB DUP2 ADD SWAP1 PUSH2 0x6D3 SWAP2 SWAP1 PUSH2 0x3E3B JUMP JUMPDEST PUSH2 0x359B JUMP JUMPDEST STOP JUMPDEST PUSH2 0x6E2 PUSH2 0x3C37 JUMP JUMPDEST PUSH1 0x5 PUSH0 DUP4 DUP2 MSTORE PUSH1 0x20 ADD SWAP1 DUP2 MSTORE PUSH1 0x20 ADD PUSH0 KECCAK256 PUSH1 0x40 MLOAD DUP1 PUSH2 0x180 ADD PUSH1 0x40 MSTORE SWAP1 DUP2 PUSH0 DUP3 ADD SLOAD DUP2 MSTORE PUSH1 0x20 ADD PUSH1 0x1 DUP3 ADD PUSH0 SWAP1 SLOAD SWAP1 PUSH2 0x100 EXP SWAP1 DIV PUSH20 0xFFFFFFFFFFFFFFFFFFFFFFFFFFFFFFFFFFFFFFFF AND PUSH20 0xFFFFFFFFFFFFFFFFFFFFFFFFFFFFFFFFFFFFFFFF AND PUSH20 0xFFFFFFFFFFFFFFFFFFFFFFFFFFFFFFFFFFFFFFFF AND DUP2 MSTORE PUSH1 0x20 ADD PUSH1 0x2 DUP3 ADD PUSH0 SWAP1 SLOAD SWAP1 PUSH2 0x100 EXP SWAP1 DIV PUSH20 0xFFFFFFFFFFFFFFFFFFFFFFFFFFFFFFFFFFFFFFFF AND PUSH20 0xFFFFFFFFFFFFFFFFFFFFFFFFFFFFFFFFFFFFFFFF AND PUSH20 0xFFFFFFFFFFFFFFFFFFFFFFFFFFFFFFFFFFFFFFFF AND DUP2 MSTORE PUSH1 0x20 ADD PUSH1 0x3 DUP3 ADD DUP1 SLOAD PUSH2 0x7C2 SWAP1 PUSH2 0x4F64 JUMP JUMPDEST DUP1 PUSH1 0x1F ADD PUSH1 0x20 DUP1 SWAP2 DIV MUL PUSH1 0x20 ADD PUSH1 0x40 MLOAD SWAP1 DUP2 ADD PUSH1 0x40 MSTORE DUP1 SWAP3 SWAP2 SWAP1 DUP2 DUP2 MSTORE PUSH1 0x20 ADD DUP3 DUP1 SLOAD PUSH2 0x7EE SWAP1 PUSH2 0x4F64 JUMP JUMPDEST DUP1 ISZERO PUSH2 0x839 JUMPI DUP1 PUSH1 0x1F LT PUSH2 0x810 JUMPI PUSH2 0x100 DUP1 DUP4 SLOAD DIV MUL DUP4 MSTORE SWAP2 PUSH1 0x20 ADD SWAP2 PUSH2 0x839 JUMP JUMPDEST DUP3 ADD SWAP2 SWAP1 PUSH0 MSTORE PUSH1 0x20 PUSH0 KECCAK256 SWAP1 JUMPDEST DUP2 SLOAD DUP2 MSTORE SWAP1 PUSH1 0x1 ADD SWAP1 PUSH1 0x20 ADD DUP1 DUP4 GT PUSH2 0x81C JUMPI DUP3 SWAP1 SUB PUSH1 0x1F AND DUP3 ADD SWAP2 JUMPDEST POP POP POP POP POP DUP2 MSTORE PUSH1 0x20 ADD PUSH1 0x4 DUP3 ADD DUP1 SLOAD PUSH2 0x852 SWAP1 PUSH2 0x4F64 JUMP JUMPDEST DUP1 PUSH1 0x1F ADD PUSH1 0x20 DUP1 SWAP2 DIV MUL PUSH1 0x20 ADD PUSH1 0x40 MLOAD SWAP1 DUP2 ADD PUSH1 0x40 MSTORE DUP1 SWAP3 SWAP2 SWAP1 DUP2 DUP2 MSTORE PUSH1 0x20 ADD DUP3 DUP1 SLOAD PUSH2 0x87E SWAP1 PUSH2 0x4F64 JUMP JUMPDEST DUP1 ISZERO PUSH2 0x8C9 JUMPI DUP1 PUSH1 0x1F LT PUSH2 0x8A0 JUMPI PUSH2 0x100 DUP1 DUP4 SLOAD DIV MUL DUP4 MSTORE SWAP2 PUSH1 0x20 ADD SWAP2 PUSH2 0x8C9 JUMP JUMPDEST DUP3 ADD SWAP2 SWAP1 PUSH0 MSTORE PUSH1 0x20 PUSH0 KECCAK256 SWAP1 JUMPDEST DUP2 SLOAD DUP2 MSTORE SWAP1 PUSH1 0x1 ADD SWAP1 PUSH1 0x20 ADD DUP1 DUP4 GT PUSH2 0x8AC JUMPI DUP3 SWAP1 SUB PUSH1 0x1F AND DUP3 ADD SWAP2 JUMPDEST POP POP POP POP POP DUP2 MSTORE PUSH1 0x20 ADD PUSH1 0x5 DUP3 ADD DUP1 SLOAD PUSH2 0x8E2 SWAP1 PUSH2 0x4F64 JUMP JUMPDEST DUP1 PUSH1 0x1F ADD PUSH1 0x20 DUP1 SWAP2 DIV MUL PUSH1 0x20 ADD PUSH1 0x40 MLOAD SWAP1 DUP2 ADD PUSH1 0x40 MSTORE DUP1 SWAP3 SWAP2 SWAP1 DUP2 DUP2 MSTORE PUSH1 0x20 ADD DUP3 DUP1 SLOAD PUSH2 0x90E SWAP1 PUSH2 0x4F64 JUMP JUMPDEST DUP1 ISZERO PUSH2 0x959 JUMPI DUP1 PUSH1 0x1F LT PUSH2 0x930 JUMPI PUSH2 0x100 DUP1 DUP4 SLOAD DIV MUL DUP4 MSTORE SWAP2 PUSH1 0x20 ADD SWAP2 PUSH2 0x959 JUMP JUMPDEST DUP3 ADD SWAP2 SWAP1 PUSH0 MSTORE PUSH1 0x20 PUSH0 KECCAK256 SWAP1 JUMPDEST DUP2 SLOAD DUP2 MSTORE SWAP1 PUSH1 0x1 ADD SWAP1 PUSH1 0x20 ADD DUP1 DUP4 GT PUSH2 0x93C JUMPI DUP3 SWAP1 SUB PUSH1 0x1F AND DUP3 ADD SWAP2 JUMPDEST POP POP POP POP POP DUP2 MSTORE PUSH1 0x20 ADD PUSH1 0x6 DUP3 ADD SLOAD DUP2 MSTORE PUSH1 0x20 ADD PUSH1 0x7 DUP3 ADD SLOAD DUP2 MSTORE PUSH1 0x20 ADD PUSH1 0x8 DUP3 ADD PUSH0 SWAP1 SLOAD SWAP1 PUSH2 0x100 EXP SWAP1 DIV PUSH1 0xFF AND PUSH1 0x6 DUP2 GT ISZERO PUSH2 0x99A JUMPI PUSH2 0x999 PUSH2 0x3F24 JUMP JUMPDEST JUMPDEST PUSH1 0x6 DUP2 GT ISZERO PUSH2 0x9AC JUMPI PUSH2 0x9AB PUSH2 0x3F24 JUMP JUMPDEST JUMPDEST DUP2 MSTORE PUSH1 0x20 ADD PUSH1 0x9 DUP3 ADD DUP1 SLOAD DUP1 PUSH1 0x20 MUL PUSH1 0x20 ADD PUSH1 0x40 MLOAD SWAP1 DUP2 ADD PUSH1 0x40 MSTORE DUP1 SWAP3 SWAP2 SWAP1 DUP2 DUP2 MSTORE PUSH1 0x20 ADD DUP3 DUP1 SLOAD DUP1 ISZERO PUSH2 0x9FD JUMPI PUSH1 0x20 MUL DUP3 ADD SWAP2 SWAP1 PUSH0 MSTORE PUSH1 0x20 PUSH0 KECCAK256 SWAP1 JUMPDEST DUP2 SLOAD DUP2 MSTORE PUSH1 0x20 ADD SWAP1 PUSH1 0x1 ADD SWAP1 DUP1 DUP4 GT PUSH2 0x9E9 JUMPI JUMPDEST POP POP POP POP POP DUP2 MSTORE PUSH1 0x20 ADD PUSH1 0xA DUP3 ADD DUP1 SLOAD DUP1 PUSH1 0x20 MUL PUSH1 0x20 ADD PUSH1 0x40 MLOAD SWAP1 DUP2 ADD PUSH1 0x40 MSTORE DUP1 SWAP3 SWAP2 SWAP1 DUP2 DUP2 MSTORE PUSH1 0x20 ADD DUP3 DUP1 SLOAD DUP1 ISZERO PUSH2 0xA53 JUMPI PUSH1 0x20 MUL DUP3 ADD SWAP2 SWAP1 PUSH0 MSTORE PUSH1 0x20 PUSH0 KECCAK256 SWAP1 JUMPDEST DUP2 SLOAD DUP2 MSTORE PUSH1 0x20 ADD SWAP1 PUSH1 0x1 ADD SWAP1 DUP1 DUP4 GT PUSH2 0xA3F JUMPI JUMPDEST POP POP POP POP POP DUP2 MSTORE PUSH1 0x20 ADD PUSH1 0xB DUP3 ADD PUSH0 SWAP1 SLOAD SWAP1 PUSH2 0x100 EXP SWAP1 DIV PUSH1 0xFF AND ISZERO ISZERO ISZERO ISZERO DUP2 MSTORE POP POP SWAP1 POP SWAP2 SWAP1 POP JUMP JUMPDEST PUSH0 PUSH2 0xA86 PUSH2 0x3770 JUMP JUMPDEST DUP6 PUSH2 0xA90 DUP2 PUSH2 0x37F5 JUMP JUMPDEST PUSH1 0xA PUSH0 CALLER PUSH20 0xFFFFFFFFFFFFFFFFFFFFFFFFFFFFFFFFFFFFFFFF AND PUSH20 0xFFFFFFFFFFFFFFFFFFFFFFFFFFFFFFFFFFFFFFFF AND DUP2 MSTORE PUSH1 0x20 ADD SWAP1 DUP2 MSTORE PUSH1 0x20 ADD PUSH0 KECCAK256 PUSH0 DUP9 DUP2 MSTORE PUSH1 0x20 ADD SWAP1 DUP2 MSTORE PUSH1 0x20 ADD PUSH0 KECCAK256 PUSH0 SWAP1 SLOAD SWAP1 PUSH2 0x100 EXP SWAP1 DIV PUSH1 0xFF AND PUSH2 0xB1F JUMPI PUSH1 0x40 MLOAD PUSH32 0xD40C3D2100000000000000000000000000000000000000000000000000000000 DUP2 MSTORE PUSH1 0x4 ADD PUSH1 0x40 MLOAD DUP1 SWAP2 SUB SWAP1 REVERT JUMPDEST PUSH0 PUSH1 0x5 PUSH0 DUP10 DUP2 MSTORE PUSH1 0x20 ADD SWAP1 DUP2 MSTORE PUSH1 0x20 ADD PUSH0 KECCAK256 SWAP1 POP PUSH1 0xC8 DUP2 PUSH1 0x9 ADD DUP1 SLOAD SWAP1 POP LT PUSH2 0xB74 JUMPI PUSH1 0x40 MLOAD PUSH32 0x3CA72E7800000000000000000000000000000000000000000000000000000000 DUP2 MSTORE PUSH1 0x4 ADD PUSH1 0x40 MLOAD DUP1 SWAP2 SUB SWAP1 REVERT JUMPDEST PUSH0 PUSH1 0x3 PUSH0 DUP2 SLOAD DUP1 SWAP3 SWAP2 SWAP1 PUSH2 0xB87 SWAP1 PUSH2 0x4FC1 JUMP JUMPDEST SWAP2 SWAP1 POP SSTORE SWAP1 POP PUSH1 0x40 MLOAD DUP1 PUSH2 0x100 ADD PUSH1 0x40 MSTORE DUP1 DUP3 DUP2 MSTORE PUSH1 0x20 ADD DUP11 DUP2 MSTORE PUSH1 0x20 ADD CALLER PUSH20 0xFFFFFFFFFFFFFFFFFFFFFFFFFFFFFFFFFFFFFFFF AND DUP2 MSTORE PUSH1 0x20 ADD DUP10 DUP2 MSTORE PUSH1 0x20 ADD DUP9 PUSH1 0x4 DUP2 GT ISZERO PUSH2 0xBDA JUMPI PUSH2 0xBD9 PUSH2 0x3F24 JUMP JUMPDEST JUMPDEST DUP2 MSTORE PUSH1 0x20 ADD TIMESTAMP DUP2 MSTORE PUSH1 0x20 ADD DUP8 DUP2 MSTORE PUSH1 0x20 ADD DUP7 DUP2 MSTORE POP PUSH1 0x6 PUSH0 DUP4 DUP2 MSTORE PUSH1 0x20 ADD SWAP1 DUP2 MSTORE PUSH1 0x20 ADD PUSH0 KECCAK256 PUSH0 DUP3 ADD MLOAD DUP2 PUSH0 ADD SSTORE PUSH1 0x20 DUP3 ADD MLOAD DUP2 PUSH1 0x1 ADD SSTORE PUSH1 0x40 DUP3 ADD MLOAD DUP2 PUSH1 0x2 ADD PUSH0 PUSH2 0x100 EXP DUP2 SLOAD DUP2 PUSH20 0xFFFFFFFFFFFFFFFFFFFFFFFFFFFFFFFFFFFFFFFF MUL NOT AND SWAP1 DUP4 PUSH20 0xFFFFFFFFFFFFFFFFFFFFFFFFFFFFFFFFFFFFFFFF AND MUL OR SWAP1 SSTORE POP PUSH1 0x60 DUP3 ADD MLOAD DUP2 PUSH1 0x3 ADD SWAP1 DUP2 PUSH2 0xC6D SWAP2 SWAP1 PUSH2 0x51A8 JUMP JUMPDEST POP PUSH1 0x80 DUP3 ADD MLOAD DUP2 PUSH1 0x4 ADD PUSH0 PUSH2 0x100 EXP DUP2 SLOAD DUP2 PUSH1 0xFF MUL NOT AND SWAP1 DUP4 PUSH1 0x4 DUP2 GT ISZERO PUSH2 0xC98 JUMPI PUSH2 0xC97 PUSH2 0x3F24 JUMP JUMPDEST JUMPDEST MUL OR SWAP1 SSTORE POP PUSH1 0xA0 DUP3 ADD MLOAD DUP2 PUSH1 0x5 ADD SSTORE PUSH1 0xC0 DUP3 ADD MLOAD DUP2 PUSH1 0x6 ADD SWAP1 DUP2 PUSH2 0xCBC SWAP2 SWAP1 PUSH2 0x51A8 JUMP JUMPDEST POP PUSH1 0xE0 DUP3 ADD MLOAD DUP2 PUSH1 0x7 ADD SSTORE SWAP1 POP POP DUP2 PUSH1 0x9 ADD DUP2 SWAP1 DUP1 PUSH1 0x1 DUP2 SLOAD ADD DUP1 DUP3 SSTORE DUP1 SWAP2 POP POP PUSH1 0x1 SWAP1 SUB SWAP1 PUSH0 MSTORE PUSH1 0x20 PUSH0 KECCAK256 ADD PUSH0 SWAP1 SWAP2 SWAP1 SWAP2 SWAP1 SWAP2 POP SSTORE DUP2 PUSH1 0xB ADD PUSH0 SWAP1 SLOAD SWAP1 PUSH2 0x100 EXP SWAP1 DIV PUSH1 0xFF AND DUP1 ISZERO PUSH2 0xD2F JUMPI POP PUSH32 0x8000000000000000000000000000000000000000000000000000000000000000 DUP6 EQ ISZERO JUMPDEST DUP1 ISZERO PUSH2 0xD46 JUMPI POP PUSH1 0x50 DUP6 SGT DUP1 PUSH2 0xD45 JUMPI POP PUSH1 0x14 DUP6 SLT JUMPDEST JUMPDEST ISZERO PUSH2 0xD8E JUMPI PUSH2 0xD8C DUP10 PUSH1 0x3 PUSH1 0x40 MLOAD DUP1 PUSH1 0x40 ADD PUSH1 0x40 MSTORE DUP1 PUSH1 0x18 DUP2 MSTORE PUSH1 0x20 ADD PUSH32 0x54656D7065726174757265206F7574206F662072616E67650000000000000000 DUP2 MSTORE POP PUSH2 0x384A JUMP JUMPDEST POP JUMPDEST DUP9 DUP2 PUSH32 0x529E5C9E24A307575814835CF69244181F51BC2AE08B95B8C8459D652A7EE9CF DUP10 CALLER PUSH1 0x40 MLOAD PUSH2 0xDC1 SWAP3 SWAP2 SWAP1 PUSH2 0x5286 JUMP JUMPDEST PUSH1 0x40 MLOAD DUP1 SWAP2 SUB SWAP1 LOG3 DUP1 SWAP4 POP POP POP POP SWAP6 SWAP5 POP POP POP POP POP JUMP JUMPDEST PUSH1 0x1 PUSH0 SWAP1 SLOAD SWAP1 PUSH2 0x100 EXP SWAP1 DIV PUSH20 0xFFFFFFFFFFFFFFFFFFFFFFFFFFFFFFFFFFFFFFFF AND PUSH20 0xFFFFFFFFFFFFFFFFFFFFFFFFFFFFFFFFFFFFFFFF AND CALLER PUSH20 0xFFFFFFFFFFFFFFFFFFFFFFFFFFFFFFFFFFFFFFFF AND EQ PUSH2 0xE5E JUMPI PUSH1 0x40 MLOAD PUSH32 0x58D9A1B00000000000000000000000000000000000000000000000000000000 DUP2 MSTORE PUSH1 0x4 ADD PUSH1 0x40 MLOAD DUP1 SWAP2 SUB SWAP1 REVERT JUMPDEST CALLER PUSH0 PUSH0 PUSH2 0x100 EXP DUP2 SLOAD DUP2 PUSH20 0xFFFFFFFFFFFFFFFFFFFFFFFFFFFFFFFFFFFFFFFF MUL NOT AND SWAP1 DUP4 PUSH20 0xFFFFFFFFFFFFFFFFFFFFFFFFFFFFFFFFFFFFFFFF AND MUL OR SWAP1 SSTORE POP PUSH0 PUSH1 0x1 PUSH0 PUSH2 0x100 EXP DUP2 SLOAD DUP2 PUSH20 0xFFFFFFFFFFFFFFFFFFFFFFFFFFFFFFFFFFFFFFFF MUL NOT AND SWAP1 DUP4 PUSH20 0xFFFFFFFFFFFFFFFFFFFFFFFFFFFFFFFFFFFFFFFF AND MUL OR SWAP1 SSTORE POP CALLER PUSH20 0xFFFFFFFFFFFFFFFFFFFFFFFFFFFFFFFFFFFFFFFF AND PUSH32 0x24A7C28D8EDC5CCD4EF428EBC1DCE34762FE38B7FDCCA1F3F20C818F04DEB156 PUSH1 0x40 MLOAD PUSH1 0x40 MLOAD DUP1 SWAP2 SUB SWAP1 LOG2 JUMP JUMPDEST PUSH0 PUSH1 0x4 SLOAD SWAP1 POP SWAP1 JUMP JUMPDEST PUSH2 0xF33 PUSH2 0x3A89 JUMP JUMPDEST PUSH0 PUSH20 0xFFFFFFFFFFFFFFFFFFFFFFFFFFFFFFFFFFFFFFFF AND DUP2 PUSH20 0xFFFFFFFFFFFFFFFFFFFFFFFFFFFFFFFFFFFFFFFF AND SUB PUSH2 0xF98 JUMPI PUSH1 0x40 MLOAD PUSH32 0xE6C4247B00000000000000000000000000000000000000000000000000000000 DUP2 MSTORE PUSH1 0x4 ADD PUSH1 0x40 MLOAD DUP1 SWAP2 SUB SWAP1 REVERT JUMPDEST DUP1 PUSH1 0x1 PUSH0 PUSH2 0x100 EXP DUP2 SLOAD DUP2 PUSH20 0xFFFFFFFFFFFFFFFFFFFFFFFFFFFFFFFFFFFFFFFF MUL NOT AND SWAP1 DUP4 PUSH20 0xFFFFFFFFFFFFFFFFFFFFFFFFFFFFFFFFFFFFFFFF AND MUL OR SWAP1 SSTORE POP DUP1 PUSH20 0xFFFFFFFFFFFFFFFFFFFFFFFFFFFFFFFFFFFFFFFF AND PUSH32 0xD3695F12C05BEA129B5971FED99014A4EFD003A3A8B45D6952B74FBD31D85D8A PUSH1 0x40 MLOAD PUSH1 0x40 MLOAD DUP1 SWAP2 SUB SWAP1 LOG2 POP JUMP JUMPDEST PUSH1 0x60 DUP4 PUSH2 0x102A DUP2 PUSH2 0x37F5 JUMP JUMPDEST PUSH0 PUSH1 0x5 PUSH0 DUP8 DUP2 MSTORE PUSH1 0x20 ADD SWAP1 DUP2 MSTORE PUSH1 0x20 ADD PUSH0 KECCAK256 PUSH1 0x9 ADD SWAP1 POP PUSH0 DUP2 DUP1 SLOAD SWAP1 POP SWAP1 POP DUP1 DUP7 LT PUSH2 0x10AD JUMPI PUSH0 PUSH8 0xFFFFFFFFFFFFFFFF DUP2 GT ISZERO PUSH2 0x106A JUMPI PUSH2 0x1069 PUSH2 0x419E JUMP JUMPDEST JUMPDEST PUSH1 0x40 MLOAD SWAP1 DUP1 DUP3 MSTORE DUP1 PUSH1 0x20 MUL PUSH1 0x20 ADD DUP3 ADD PUSH1 0x40 MSTORE DUP1 ISZERO PUSH2 0x10A3 JUMPI DUP2 PUSH1 0x20 ADD JUMPDEST PUSH2 0x1090 PUSH2 0x3CD1 JUMP JUMPDEST DUP2 MSTORE PUSH1 0x20 ADD SWAP1 PUSH1 0x1 SWAP1 SUB SWAP1 DUP2 PUSH2 0x1088 JUMPI SWAP1 POP JUMPDEST POP SWAP4 POP POP POP PUSH2 0x1391 JUMP JUMPDEST PUSH0 DUP2 DUP7 DUP9 PUSH2 0x10BB SWAP2 SWAP1 PUSH2 0x52AD JUMP JUMPDEST GT PUSH2 0x10D1 JUMPI DUP6 DUP8 PUSH2 0x10CC SWAP2 SWAP1 PUSH2 0x52AD JUMP JUMPDEST PUSH2 0x10D3 JUMP JUMPDEST DUP2 JUMPDEST SWAP1 POP PUSH0 DUP8 DUP3 PUSH2 0x10E2 SWAP2 SWAP1 PUSH2 0x52E0 JUMP JUMPDEST PUSH8 0xFFFFFFFFFFFFFFFF DUP2 GT ISZERO PUSH2 0x10FB JUMPI PUSH2 0x10FA PUSH2 0x419E JUMP JUMPDEST JUMPDEST PUSH1 0x40 MLOAD SWAP1 DUP1 DUP3 MSTORE DUP1 PUSH1 0x20 MUL PUSH1 0x20 ADD DUP3 ADD PUSH1 0x40 MSTORE DUP1 ISZERO PUSH2 0x1134 JUMPI DUP2 PUSH1 0x20 ADD JUMPDEST PUSH2 0x1121 PUSH2 0x3CD1 JUMP JUMPDEST DUP2 MSTORE PUSH1 0x20 ADD SWAP1 PUSH1 0x1 SWAP1 SUB SWAP1 DUP2 PUSH2 0x1119 JUMPI SWAP1 POP JUMPDEST POP SWAP1 POP PUSH0 DUP9 SWAP1 POP JUMPDEST DUP3 DUP2 LT ISZERO PUSH2 0x1388 JUMPI PUSH1 0x6 PUSH0 DUP7 DUP4 DUP2 SLOAD DUP2 LT PUSH2 0x115A JUMPI PUSH2 0x1159 PUSH2 0x5313 JUMP JUMPDEST JUMPDEST SWAP1 PUSH0 MSTORE PUSH1 0x20 PUSH0 KECCAK256 ADD SLOAD DUP2 MSTORE PUSH1 0x20 ADD SWAP1 DUP2 MSTORE PUSH1 0x20 ADD PUSH0 KECCAK256 PUSH1 0x40 MLOAD DUP1 PUSH2 0x100 ADD PUSH1 0x40 MSTORE SWAP1 DUP2 PUSH0 DUP3 ADD SLOAD DUP2 MSTORE PUSH1 0x20 ADD PUSH1 0x1 DUP3 ADD SLOAD DUP2 MSTORE PUSH1 0x20 ADD PUSH1 0x2 DUP3 ADD PUSH0 SWAP1 SLOAD SWAP1 PUSH2 0x100 EXP SWAP1 DIV PUSH20 0xFFFFFFFFFFFFFFFFFFFFFFFFFFFFFFFFFFFFFFFF AND PUSH20 0xFFFFFFFFFFFFFFFFFFFFFFFFFFFFFFFFFFFFFFFF AND PUSH20 0xFFFFFFFFFFFFFFFFFFFFFFFFFFFFFFFFFFFFFFFF AND DUP2 MSTORE PUSH1 0x20 ADD PUSH1 0x3 DUP3 ADD DUP1 SLOAD PUSH2 0x11F4 SWAP1 PUSH2 0x4F64 JUMP JUMPDEST DUP1 PUSH1 0x1F ADD PUSH1 0x20 DUP1 SWAP2 DIV MUL PUSH1 0x20 ADD PUSH1 0x40 MLOAD SWAP1 DUP2 ADD PUSH1 0x40 MSTORE DUP1 SWAP3 SWAP2 SWAP1 DUP2 DUP2 MSTORE PUSH1 0x20 ADD DUP3 DUP1 SLOAD PUSH2 0x1220 SWAP1 PUSH2 0x4F64 JUMP JUMPDEST DUP1 ISZERO PUSH2 0x126B JUMPI DUP1 PUSH1 0x1F LT PUSH2 0x1242 JUMPI PUSH2 0x100 DUP1 DUP4 SLOAD DIV MUL DUP4 MSTORE SWAP2 PUSH1 0x20 ADD SWAP2 PUSH2 0x126B JUMP JUMPDEST DUP3 ADD SWAP2 SWAP1 PUSH0 MSTORE PUSH1 0x20 PUSH0 KECCAK256 SWAP1 JUMPDEST DUP2 SLOAD DUP2 MSTORE SWAP1 PUSH1 0x1 ADD SWAP1 PUSH1 0x20 ADD DUP1 DUP4 GT PUSH2 0x124E JUMPI DUP3 SWAP1 SUB PUSH1 0x1F AND DUP3 ADD SWAP2 JUMPDEST POP POP POP POP POP DUP2 MSTORE PUSH1 0x20 ADD PUSH1 0x4 DUP3 ADD PUSH0 SWAP1 SLOAD SWAP1 PUSH2 0x100 EXP SWAP1 DIV PUSH1 0xFF AND PUSH1 0x4 DUP2 GT ISZERO PUSH2 0x1298 JUMPI PUSH2 0x1297 PUSH2 0x3F24 JUMP JUMPDEST JUMPDEST PUSH1 0x4 DUP2 GT ISZERO PUSH2 0x12AA JUMPI PUSH2 0x12A9 PUSH2 0x3F24 JUMP JUMPDEST JUMPDEST DUP2 MSTORE PUSH1 0x20 ADD PUSH1 0x5 DUP3 ADD SLOAD DUP2 MSTORE PUSH1 0x20 ADD PUSH1 0x6 DUP3 ADD DUP1 SLOAD PUSH2 0x12C8 SWAP1 PUSH2 0x4F64 JUMP JUMPDEST DUP1 PUSH1 0x1F ADD PUSH1 0x20 DUP1 SWAP2 DIV MUL PUSH1 0x20 ADD PUSH1 0x40 MLOAD SWAP1 DUP2 ADD PUSH1 0x40 MSTORE DUP1 SWAP3 SWAP2 SWAP1 DUP2 DUP2 MSTORE PUSH1 0x20 ADD DUP3 DUP1 SLOAD PUSH2 0x12F4 SWAP1 PUSH2 0x4F64 JUMP JUMPDEST DUP1 ISZERO PUSH2 0x133F JUMPI DUP1 PUSH1 0x1F LT PUSH2 0x1316 JUMPI PUSH2 0x100 DUP1 DUP4 SLOAD DIV MUL DUP4 MSTORE SWAP2 PUSH1 0x20 ADD SWAP2 PUSH2 0x133F JUMP JUMPDEST DUP3 ADD SWAP2 SWAP1 PUSH0 MSTORE PUSH1 0x20 PUSH0 KECCAK256 SWAP1 JUMPDEST DUP2 SLOAD DUP2 MSTORE SWAP1 PUSH1 0x1 ADD SWAP1 PUSH1 0x20 ADD DUP1 DUP4 GT PUSH2 0x1322 JUMPI DUP3 SWAP1 SUB PUSH1 0x1F AND DUP3 ADD SWAP2 JUMPDEST POP POP POP POP POP DUP2 MSTORE PUSH1 0x20 ADD PUSH1 0x7 DUP3 ADD SLOAD DUP2 MSTORE POP POP DUP3 DUP11 DUP4 PUSH2 0x135F SWAP2 SWAP1 PUSH2 0x52E0 JUMP JUMPDEST DUP2 MLOAD DUP2 LT PUSH2 0x1370 JUMPI PUSH2 0x136F PUSH2 0x5313 JUMP JUMPDEST JUMPDEST PUSH1 0x20 MUL PUSH1 0x20 ADD ADD DUP2 SWAP1 MSTORE POP DUP1 DUP1 PUSH1 0x1 ADD SWAP2 POP POP PUSH2 0x113C JUMP JUMPDEST POP DUP1 SWAP6 POP POP POP POP POP JUMPDEST POP SWAP4 SWAP3 POP POP POP JUMP JUMPDEST PUSH2 0x13A1 PUSH2 0x3CD1 JUMP JUMPDEST PUSH0 DUP3 EQ DUP1 PUSH2 0x13B1 JUMPI POP PUSH1 0x3 SLOAD DUP3 LT ISZERO JUMPDEST ISZERO PUSH2 0x13F3 JUMPI DUP2 PUSH1 0x40 MLOAD PUSH32 0x22BC9CAA00000000000000000000000000000000000000000000000000000000 DUP2 MSTORE PUSH1 0x4 ADD PUSH2 0x13EA SWAP2 SWAP1 PUSH2 0x43D6 JUMP JUMPDEST PUSH1 0x40 MLOAD DUP1 SWAP2 SUB SWAP1 REVERT JUMPDEST PUSH1 0x6 PUSH0 DUP4 DUP2 MSTORE PUSH1 0x20 ADD SWAP1 DUP2 MSTORE PUSH1 0x20 ADD PUSH0 KECCAK256 PUSH1 0x40 MLOAD DUP1 PUSH2 0x100 ADD PUSH1 0x40 MSTORE SWAP1 DUP2 PUSH0 DUP3 ADD SLOAD DUP2 MSTORE PUSH1 0x20 ADD PUSH1 0x1 DUP3 ADD SLOAD DUP2 MSTORE PUSH1 0x20 ADD PUSH1 0x2 DUP3 ADD PUSH0 SWAP1 SLOAD SWAP1 PUSH2 0x100 EXP SWAP1 DIV PUSH20 0xFFFFFFFFFFFFFFFFFFFFFFFFFFFFFFFFFFFFFFFF AND PUSH20 0xFFFFFFFFFFFFFFFFFFFFFFFFFFFFFFFFFFFFFFFF AND PUSH20 0xFFFFFFFFFFFFFFFFFFFFFFFFFFFFFFFFFFFFFFFF AND DUP2 MSTORE PUSH1 0x20 ADD PUSH1 0x3 DUP3 ADD DUP1 SLOAD PUSH2 0x1488 SWAP1 PUSH2 0x4F64 JUMP JUMPDEST DUP1 PUSH1 0x1F ADD PUSH1 0x20 DUP1 SWAP2 DIV MUL PUSH1 0x20 ADD PUSH1 0x40 MLOAD SWAP1 DUP2 ADD PUSH1 0x40 MSTORE DUP1 SWAP3 SWAP2 SWAP1 DUP2 DUP2 MSTORE PUSH1 0x20 ADD DUP3 DUP1 SLOAD PUSH2 0x14B4 SWAP1 PUSH2 0x4F64 JUMP JUMPDEST DUP1 ISZERO PUSH2 0x14FF JUMPI DUP1 PUSH1 0x1F LT PUSH2 0x14D6 JUMPI PUSH2 0x100 DUP1 DUP4 SLOAD DIV MUL DUP4 MSTORE SWAP2 PUSH1 0x20 ADD SWAP2 PUSH2 0x14FF JUMP JUMPDEST DUP3 ADD SWAP2 SWAP1 PUSH0 MSTORE PUSH1 0x20 PUSH0 KECCAK256 SWAP1 JUMPDEST DUP2 SLOAD DUP2 MSTORE SWAP1 PUSH1 0x1 ADD SWAP1 PUSH1 0x20 ADD DUP1 DUP4 GT PUSH2 0x14E2 JUMPI DUP3 SWAP1 SUB PUSH1 0x1F AND DUP3 ADD SWAP2 JUMPDEST POP POP POP POP POP DUP2 MSTORE PUSH1 0x20 ADD PUSH1 0x4 DUP3 ADD PUSH0 SWAP1 SLOAD SWAP1 PUSH2 0x100 EXP SWAP1 DIV PUSH1 0xFF AND PUSH1 0x4 DUP2 GT ISZERO PUSH2 0x152C JUMPI PUSH2 0x152B PUSH2 0x3F24 JUMP JUMPDEST JUMPDEST PUSH1 0x4 DUP2 GT ISZERO PUSH2 0x153E JUMPI PUSH2 0x153D PUSH2 0x3F24 JUMP JUMPDEST JUMPDEST DUP2 MSTORE PUSH1 0x20 ADD PUSH1 0x5 DUP3 ADD SLOAD DUP2 MSTORE PUSH1 0x20 ADD PUSH1 0x6 DUP3 ADD DUP1 SLOAD PUSH2 0x155C SWAP1 PUSH2 0x4F64 JUMP JUMPDEST DUP1 PUSH1 0x1F ADD PUSH1 0x20 DUP1 SWAP2 DIV MUL PUSH1 0x20 ADD PUSH1 0x40 MLOAD SWAP1 DUP2 ADD PUSH1 0x40 MSTORE DUP1 SWAP3 SWAP2 SWAP1 DUP2 DUP2 MSTORE PUSH1 0x20 ADD DUP3 DUP1 SLOAD PUSH2 0x1588 SWAP1 PUSH2 0x4F64 JUMP JUMPDEST DUP1 ISZERO PUSH2 0x15D3 JUMPI DUP1 PUSH1 0x1F LT PUSH2 0x15AA JUMPI PUSH2 0x100 DUP1 DUP4 SLOAD DIV MUL DUP4 MSTORE SWAP2 PUSH1 0x20 ADD SWAP2 PUSH2 0x15D3 JUMP JUMPDEST DUP3 ADD SWAP2 SWAP1 PUSH0 MSTORE PUSH1 0x20 PUSH0 KECCAK256 SWAP1 JUMPDEST DUP2 SLOAD DUP2 MSTORE SWAP1 PUSH1 0x1 ADD SWAP1 PUSH1 0x20 ADD DUP1 DUP4 GT PUSH2 0x15B6 JUMPI DUP3 SWAP1 SUB PUSH1 0x1F AND DUP3 ADD SWAP2 JUMPDEST POP POP POP POP POP DUP2 MSTORE PUSH1 0x20 ADD PUSH1 0x7 DUP3 ADD SLOAD DUP2 MSTORE POP POP SWAP1 POP SWAP2 SWAP1 POP JUMP JUMPDEST PUSH0 PUSH1 0x3 SLOAD SWAP1 POP SWAP1 JUMP JUMPDEST PUSH1 0x1 PUSH0 SWAP1 SLOAD SWAP1 PUSH2 0x100 EXP SWAP1 DIV PUSH20 0xFFFFFFFFFFFFFFFFFFFFFFFFFFFFFFFFFFFFFFFF AND DUP2 JUMP JUMPDEST PUSH32 0x8000000000000000000000000000000000000000000000000000000000000000 DUP2 JUMP JUMPDEST PUSH1 0x32 DUP2 JUMP JUMPDEST PUSH2 0x164C PUSH2 0x3D38 JUMP JUMPDEST PUSH1 0x8 PUSH0 DUP4 PUSH20 0xFFFFFFFFFFFFFFFFFFFFFFFFFFFFFFFFFFFFFFFF AND PUSH20 0xFFFFFFFFFFFFFFFFFFFFFFFFFFFFFFFFFFFFFFFF AND DUP2 MSTORE PUSH1 0x20 ADD SWAP1 DUP2 MSTORE PUSH1 0x20 ADD PUSH0 KECCAK256 PUSH1 0x40 MLOAD DUP1 PUSH1 0xA0 ADD PUSH1 0x40 MSTORE SWAP1 DUP2 PUSH0 DUP3 ADD PUSH0 SWAP1 SLOAD SWAP1 PUSH2 0x100 EXP SWAP1 DIV PUSH20 0xFFFFFFFFFFFFFFFFFFFFFFFFFFFFFFFFFFFFFFFF AND PUSH20 0xFFFFFFFFFFFFFFFFFFFFFFFFFFFFFFFFFFFFFFFF AND PUSH20 0xFFFFFFFFFFFFFFFFFFFFFFFFFFFFFFFFFFFFFFFF AND DUP2 MSTORE PUSH1 0x20 ADD PUSH1 0x1 DUP3 ADD DUP1 SLOAD PUSH2 0x16F8 SWAP1 PUSH2 0x4F64 JUMP JUMPDEST DUP1 PUSH1 0x1F ADD PUSH1 0x20 DUP1 SWAP2 DIV MUL PUSH1 0x20 ADD PUSH1 0x40 MLOAD SWAP1 DUP2 ADD PUSH1 0x40 MSTORE DUP1 SWAP3 SWAP2 SWAP1 DUP2 DUP2 MSTORE PUSH1 0x20 ADD DUP3 DUP1 SLOAD PUSH2 0x1724 SWAP1 PUSH2 0x4F64 JUMP JUMPDEST DUP1 ISZERO PUSH2 0x176F JUMPI DUP1 PUSH1 0x1F LT PUSH2 0x1746 JUMPI PUSH2 0x100 DUP1 DUP4 SLOAD DIV MUL DUP4 MSTORE SWAP2 PUSH1 0x20 ADD SWAP2 PUSH2 0x176F JUMP JUMPDEST DUP3 ADD SWAP2 SWAP1 PUSH0 MSTORE PUSH1 0x20 PUSH0 KECCAK256 SWAP1 JUMPDEST DUP2 SLOAD DUP2 MSTORE SWAP1 PUSH1 0x1 ADD SWAP1 PUSH1 0x20 ADD DUP1 DUP4 GT PUSH2 0x1752 JUMPI DUP3 SWAP1 SUB PUSH1 0x1F AND DUP3 ADD SWAP2 JUMPDEST POP POP POP POP POP DUP2 MSTORE PUSH1 0x20 ADD PUSH1 0x2 DUP3 ADD PUSH0 SWAP1 SLOAD SWAP1 PUSH2 0x100 EXP SWAP1 DIV PUSH1 0xFF AND PUSH1 0x5 DUP2 GT ISZERO PUSH2 0x179C JUMPI PUSH2 0x179B PUSH2 0x3F24 JUMP JUMPDEST JUMPDEST PUSH1 0x5 DUP2 GT ISZERO PUSH2 0x17AE JUMPI PUSH2 0x17AD PUSH2 0x3F24 JUMP JUMPDEST JUMPDEST DUP2 MSTORE PUSH1 0x20 ADD PUSH1 0x3 DUP3 ADD DUP1 SLOAD PUSH2 0x17C2 SWAP1 PUSH2 0x4F64 JUMP JUMPDEST DUP1 PUSH1 0x1F ADD PUSH1 0x20 DUP1 SWAP2 DIV MUL PUSH1 0x20 ADD PUSH1 0x40 MLOAD SWAP1 DUP2 ADD PUSH1 0x40 MSTORE DUP1 SWAP3 SWAP2 SWAP1 DUP2 DUP2 MSTORE PUSH1 0x20 ADD DUP3 DUP1 SLOAD PUSH2 0x17EE SWAP1 PUSH2 0x4F64 JUMP JUMPDEST DUP1 ISZERO PUSH2 0x1839 JUMPI DUP1 PUSH1 0x1F LT PUSH2 0x1810 JUMPI PUSH2 0x100 DUP1 DUP4 SLOAD DIV MUL DUP4 MSTORE SWAP2 PUSH1 0x20 ADD SWAP2 PUSH2 0x1839 JUMP JUMPDEST DUP3 ADD SWAP2 SWAP1 PUSH0 MSTORE PUSH1 0x20 PUSH0 KECCAK256 SWAP1 JUMPDEST DUP2 SLOAD DUP2 MSTORE SWAP1 PUSH1 0x1 ADD SWAP1 PUSH1 0x20 ADD DUP1 DUP4 GT PUSH2 0x181C JUMPI DUP3 SWAP1 SUB PUSH1 0x1F AND DUP3 ADD SWAP2 JUMPDEST POP POP POP POP POP DUP2 MSTORE PUSH1 0x20 ADD PUSH1 0x4 DUP3 ADD PUSH0 SWAP1 SLOAD SWAP1 PUSH2 0x100 EXP SWAP1 DIV PUSH1 0xFF AND ISZERO ISZERO ISZERO ISZERO DUP2 MSTORE POP POP SWAP1 POP SWAP2 SWAP1 POP JUMP JUMPDEST PUSH0 PUSH2 0x186C PUSH2 0x3770 JUMP JUMPDEST PUSH1 0x1 PUSH1 0x5 DUP2 GT ISZERO PUSH2 0x1880 JUMPI PUSH2 0x187F PUSH2 0x3F24 JUMP JUMPDEST JUMPDEST PUSH1 0x8 PUSH0 CALLER PUSH20 0xFFFFFFFFFFFFFFFFFFFFFFFFFFFFFFFFFFFFFFFF AND PUSH20 0xFFFFFFFFFFFFFFFFFFFFFFFFFFFFFFFFFFFFFFFF AND DUP2 MSTORE PUSH1 0x20 ADD SWAP1 DUP2 MSTORE PUSH1 0x20 ADD PUSH0 KECCAK256 PUSH1 0x2 ADD PUSH0 SWAP1 SLOAD SWAP1 PUSH2 0x100 EXP SWAP1 DIV PUSH1 0xFF AND PUSH1 0x5 DUP2 GT ISZERO PUSH2 0x18DF JUMPI PUSH2 0x18DE PUSH2 0x3F24 JUMP JUMPDEST JUMPDEST EQ PUSH2 0x1916 JUMPI PUSH1 0x40 MLOAD PUSH32 0xF5B4341500000000000000000000000000000000000000000000000000000000 DUP2 MSTORE PUSH1 0x4 ADD PUSH1 0x40 MLOAD DUP1 SWAP2 SUB SWAP1 REVERT JUMPDEST PUSH0 PUSH1 0x2 PUSH0 DUP2 SLOAD DUP1 SWAP3 SWAP2 SWAP1 PUSH2 0x1929 SWAP1 PUSH2 0x4FC1 JUMP JUMPDEST SWAP2 SWAP1 POP SSTORE SWAP1 POP PUSH0 PUSH1 0x5 PUSH0 DUP4 DUP2 MSTORE PUSH1 0x20 ADD SWAP1 DUP2 MSTORE PUSH1 0x20 ADD PUSH0 KECCAK256 SWAP1 POP DUP2 DUP2 PUSH0 ADD DUP2 SWAP1 SSTORE POP CALLER DUP2 PUSH1 0x1 ADD PUSH0 PUSH2 0x100 EXP DUP2 SLOAD DUP2 PUSH20 0xFFFFFFFFFFFFFFFFFFFFFFFFFFFFFFFFFFFFFFFF MUL NOT AND SWAP1 DUP4 PUSH20 0xFFFFFFFFFFFFFFFFFFFFFFFFFFFFFFFFFFFFFFFF AND MUL OR SWAP1 SSTORE POP DUP8 DUP2 PUSH1 0x2 ADD PUSH0 PUSH2 0x100 EXP DUP2 SLOAD DUP2 PUSH20 0xFFFFFFFFFFFFFFFFFFFFFFFFFFFFFFFFFFFFFFFF MUL NOT AND SWAP1 DUP4 PUSH20 0xFFFFFFFFFFFFFFFFFFFFFFFFFFFFFFFFFFFFFFFF AND MUL OR SWAP1 SSTORE POP DUP7 DUP2 PUSH1 0x3 ADD SWAP1 DUP2 PUSH2 0x19E0 SWAP2 SWAP1 PUSH2 0x51A8 JUMP JUMPDEST POP DUP6 DUP2 PUSH1 0x4 ADD SWAP1 DUP2 PUSH2 0x19F2 SWAP2 SWAP1 PUSH2 0x51A8 JUMP JUMPDEST POP DUP5 DUP2 PUSH1 0x5 ADD SWAP1 DUP2 PUSH2 0x1A04 SWAP2 SWAP1 PUSH2 0x51A8 JUMP JUMPDEST POP TIMESTAMP DUP2 PUSH1 0x6 ADD DUP2 SWAP1 SSTORE POP PUSH0 DUP2 PUSH1 0x8 ADD PUSH0 PUSH2 0x100 EXP DUP2 SLOAD DUP2 PUSH1 0xFF MUL NOT AND SWAP1 DUP4 PUSH1 0x6 DUP2 GT ISZERO PUSH2 0x1A34 JUMPI PUSH2 0x1A33 PUSH2 0x3F24 JUMP JUMPDEST JUMPDEST MUL OR SWAP1 SSTORE POP DUP4 DUP2 PUSH1 0xB ADD PUSH0 PUSH2 0x100 EXP DUP2 SLOAD DUP2 PUSH1 0xFF MUL NOT AND SWAP1 DUP4 ISZERO ISZERO MUL OR SWAP1 SSTORE POP PUSH2 0x1A5E CALLER DUP4 PUSH2 0x3B10 JUMP JUMPDEST PUSH0 PUSH20 0xFFFFFFFFFFFFFFFFFFFFFFFFFFFFFFFFFFFFFFFF AND DUP9 PUSH20 0xFFFFFFFFFFFFFFFFFFFFFFFFFFFFFFFFFFFFFFFF AND EQ PUSH2 0x1A9C JUMPI PUSH2 0x1A9B DUP9 DUP4 PUSH2 0x3B10 JUMP JUMPDEST JUMPDEST DUP8 PUSH20 0xFFFFFFFFFFFFFFFFFFFFFFFFFFFFFFFFFFFFFFFF AND CALLER PUSH20 0xFFFFFFFFFFFFFFFFFFFFFFFFFFFFFFFFFFFFFFFF AND DUP4 PUSH32 0x8FB6B855D6CBDF201F2FCAADBF8C38D36168FF7D2CA865CB2599ABCD5A060E8F DUP11 PUSH1 0x40 MLOAD PUSH2 0x1AFA SWAP2 SWAP1 PUSH2 0x5388 JUMP JUMPDEST PUSH1 0x40 MLOAD DUP1 SWAP2 SUB SWAP1 LOG4 DUP2 SWAP3 POP POP POP SWAP6 SWAP5 POP POP POP POP POP JUMP JUMPDEST PUSH1 0x60 DUP4 PUSH2 0x1B1C DUP2 PUSH2 0x37F5 JUMP JUMPDEST PUSH0 PUSH1 0x5 PUSH0 DUP8 DUP2 MSTORE PUSH1 0x20 ADD SWAP1 DUP2 MSTORE PUSH1 0x20 ADD PUSH0 KECCAK256 PUSH1 0xA ADD SWAP1 POP PUSH0 DUP2 DUP1 SLOAD SWAP1 POP SWAP1 POP DUP1 DUP7 LT PUSH2 0x1B9F JUMPI PUSH0 PUSH8 0xFFFFFFFFFFFFFFFF DUP2 GT ISZERO PUSH2 0x1B5C JUMPI PUSH2 0x1B5B PUSH2 0x419E JUMP JUMPDEST JUMPDEST PUSH1 0x40 MLOAD SWAP1 DUP1 DUP3 MSTORE DUP1 PUSH1 0x20 MUL PUSH1 0x20 ADD DUP3 ADD PUSH1 0x40 MSTORE DUP1 ISZERO PUSH2 0x1B95 JUMPI DUP2 PUSH1 0x20 ADD JUMPDEST PUSH2 0x1B82 PUSH2 0x3D8E JUMP JUMPDEST DUP2 MSTORE PUSH1 0x20 ADD SWAP1 PUSH1 0x1 SWAP1 SUB SWAP1 DUP2 PUSH2 0x1B7A JUMPI SWAP1 POP JUMPDEST POP SWAP4 POP POP POP PUSH2 0x1E94 JUMP JUMPDEST PUSH0 DUP2 DUP7 DUP9 PUSH2 0x1BAD SWAP2 SWAP1 PUSH2 0x52AD JUMP JUMPDEST GT PUSH2 0x1BC3 JUMPI DUP6 DUP8 PUSH2 0x1BBE SWAP2 SWAP1 PUSH2 0x52AD JUMP JUMPDEST PUSH2 0x1BC5 JUMP JUMPDEST DUP2 JUMPDEST SWAP1 POP PUSH0 DUP8 DUP3 PUSH2 0x1BD4 SWAP2 SWAP1 PUSH2 0x52E0 JUMP JUMPDEST PUSH8 0xFFFFFFFFFFFFFFFF DUP2 GT ISZERO PUSH2 0x1BED JUMPI PUSH2 0x1BEC PUSH2 0x419E JUMP JUMPDEST JUMPDEST PUSH1 0x40 MLOAD SWAP1 DUP1 DUP3 MSTORE DUP1 PUSH1 0x20 MUL PUSH1 0x20 ADD DUP3 ADD PUSH1 0x40 MSTORE DUP1 ISZERO PUSH2 0x1C26 JUMPI DUP2 PUSH1 0x20 ADD JUMPDEST PUSH2 0x1C13 PUSH2 0x3D8E JUMP JUMPDEST DUP2 MSTORE PUSH1 0x20 ADD SWAP1 PUSH1 0x1 SWAP1 SUB SWAP1 DUP2 PUSH2 0x1C0B JUMPI SWAP1 POP JUMPDEST POP SWAP1 POP PUSH0 DUP9 SWAP1 POP JUMPDEST DUP3 DUP2 LT ISZERO PUSH2 0x1E8B JUMPI PUSH1 0x7 PUSH0 DUP7 DUP4 DUP2 SLOAD DUP2 LT PUSH2 0x1C4C JUMPI PUSH2 0x1C4B PUSH2 0x5313 JUMP JUMPDEST JUMPDEST SWAP1 PUSH0 MSTORE PUSH1 0x20 PUSH0 KECCAK256 ADD SLOAD DUP2 MSTORE PUSH1 0x20 ADD SWAP1 DUP2 MSTORE PUSH1 0x20 ADD PUSH0 KECCAK256 PUSH1 0x40 MLOAD DUP1 PUSH2 0x100 ADD PUSH1 0x40 MSTORE SWAP1 DUP2 PUSH0 DUP3 ADD SLOAD DUP2 MSTORE PUSH1 0x20 ADD PUSH1 0x1 DUP3 ADD SLOAD DUP2 MSTORE PUSH1 0x20 ADD PUSH1 0x2 DUP3 ADD PUSH0 SWAP1 SLOAD SWAP1 PUSH2 0x100 EXP SWAP1 DIV PUSH1 0xFF AND PUSH1 0x4 DUP2 GT ISZERO PUSH2 0x1CA5 JUMPI PUSH2 0x1CA4 PUSH2 0x3F24 JUMP JUMPDEST JUMPDEST PUSH1 0x4 DUP2 GT ISZERO PUSH2 0x1CB7 JUMPI PUSH2 0x1CB6 PUSH2 0x3F24 JUMP JUMPDEST JUMPDEST DUP2 MSTORE PUSH1 0x20 ADD PUSH1 0x2 DUP3 ADD PUSH1 0x1 SWAP1 SLOAD SWAP1 PUSH2 0x100 EXP SWAP1 DIV PUSH20 0xFFFFFFFFFFFFFFFFFFFFFFFFFFFFFFFFFFFFFFFF AND PUSH20 0xFFFFFFFFFFFFFFFFFFFFFFFFFFFFFFFFFFFFFFFF AND PUSH20 0xFFFFFFFFFFFFFFFFFFFFFFFFFFFFFFFFFFFFFFFF AND DUP2 MSTORE PUSH1 0x20 ADD PUSH1 0x3 DUP3 ADD DUP1 SLOAD PUSH2 0x1D21 SWAP1 PUSH2 0x4F64 JUMP JUMPDEST DUP1 PUSH1 0x1F ADD PUSH1 0x20 DUP1 SWAP2 DIV MUL PUSH1 0x20 ADD PUSH1 0x40 MLOAD SWAP1 DUP2 ADD PUSH1 0x40 MSTORE DUP1 SWAP3 SWAP2 SWAP1 DUP2 DUP2 MSTORE PUSH1 0x20 ADD DUP3 DUP1 SLOAD PUSH2 0x1D4D SWAP1 PUSH2 0x4F64 JUMP JUMPDEST DUP1 ISZERO PUSH2 0x1D98 JUMPI DUP1 PUSH1 0x1F LT PUSH2 0x1D6F JUMPI PUSH2 0x100 DUP1 DUP4 SLOAD DIV MUL DUP4 MSTORE SWAP2 PUSH1 0x20 ADD SWAP2 PUSH2 0x1D98 JUMP JUMPDEST DUP3 ADD SWAP2 SWAP1 PUSH0 MSTORE PUSH1 0x20 PUSH0 KECCAK256 SWAP1 JUMPDEST DUP2 SLOAD DUP2 MSTORE SWAP1 PUSH1 0x1 ADD SWAP1 PUSH1 0x20 ADD DUP1 DUP4 GT PUSH2 0x1D7B JUMPI DUP3 SWAP1 SUB PUSH1 0x1F AND DUP3 ADD SWAP2 JUMPDEST POP POP POP POP POP DUP2 MSTORE PUSH1 0x20 ADD PUSH1 0x4 DUP3 ADD SLOAD DUP2 MSTORE PUSH1 0x20 ADD PUSH1 0x5 DUP3 ADD PUSH0 SWAP1 SLOAD SWAP1 PUSH2 0x100 EXP SWAP1 DIV PUSH1 0xFF AND ISZERO ISZERO ISZERO ISZERO DUP2 MSTORE PUSH1 0x20 ADD PUSH1 0x6 DUP3 ADD DUP1 SLOAD PUSH2 0x1DD5 SWAP1 PUSH2 0x4F64 JUMP JUMPDEST DUP1 PUSH1 0x1F ADD PUSH1 0x20 DUP1 SWAP2 DIV MUL PUSH1 0x20 ADD PUSH1 0x40 MLOAD SWAP1 DUP2 ADD PUSH1 0x40 MSTORE DUP1 SWAP3 SWAP2 SWAP1 DUP2 DUP2 MSTORE PUSH1 0x20 ADD DUP3 DUP1 SLOAD PUSH2 0x1E01 SWAP1 PUSH2 0x4F64 JUMP JUMPDEST DUP1 ISZERO PUSH2 0x1E4C JUMPI DUP1 PUSH1 0x1F LT PUSH2 0x1E23 JUMPI PUSH2 0x100 DUP1 DUP4 SLOAD DIV MUL DUP4 MSTORE SWAP2 PUSH1 0x20 ADD SWAP2 PUSH2 0x1E4C JUMP JUMPDEST DUP3 ADD SWAP2 SWAP1 PUSH0 MSTORE PUSH1 0x20 PUSH0 KECCAK256 SWAP1 JUMPDEST DUP2 SLOAD DUP2 MSTORE SWAP1 PUSH1 0x1 ADD SWAP1 PUSH1 0x20 ADD DUP1 DUP4 GT PUSH2 0x1E2F JUMPI DUP3 SWAP1 SUB PUSH1 0x1F AND DUP3 ADD SWAP2 JUMPDEST POP POP POP POP POP DUP2 MSTORE POP POP DUP3 DUP11 DUP4 PUSH2 0x1E62 SWAP2 SWAP1 PUSH2 0x52E0 JUMP JUMPDEST DUP2 MLOAD DUP2 LT PUSH2 0x1E73 JUMPI PUSH2 0x1E72 PUSH2 0x5313 JUMP JUMPDEST JUMPDEST PUSH1 0x20 MUL PUSH1 0x20 ADD ADD DUP2 SWAP1 MSTORE POP DUP1 DUP1 PUSH1 0x1 ADD SWAP2 POP POP PUSH2 0x1C2E JUMP JUMPDEST POP DUP1 SWAP6 POP POP POP POP POP JUMPDEST POP SWAP4 SWAP3 POP POP POP JUMP JUMPDEST PUSH2 0x1EA4 PUSH2 0x3A89 JUMP JUMPDEST PUSH0 PUSH20 0xFFFFFFFFFFFFFFFFFFFFFFFFFFFFFFFFFFFFFFFF AND PUSH1 0x8 PUSH0 DUP4 PUSH20 0xFFFFFFFFFFFFFFFFFFFFFFFFFFFFFFFFFFFFFFFF AND PUSH20 0xFFFFFFFFFFFFFFFFFFFFFFFFFFFFFFFFFFFFFFFF AND DUP2 MSTORE PUSH1 0x20 ADD SWAP1 DUP2 MSTORE PUSH1 0x20 ADD PUSH0 KECCAK256 PUSH0 ADD PUSH0 SWAP1 SLOAD SWAP1 PUSH2 0x100 EXP SWAP1 DIV PUSH20 0xFFFFFFFFFFFFFFFFFFFFFFFFFFFFFFFFFFFFFFFF AND PUSH20 0xFFFFFFFFFFFFFFFFFFFFFFFFFFFFFFFFFFFFFFFF AND SUB PUSH2 0x1F67 JUMPI PUSH1 0x40 MLOAD PUSH32 0x6F46A36500000000000000000000000000000000000000000000000000000000 DUP2 MSTORE PUSH1 0x4 ADD PUSH1 0x40 MLOAD DUP1 SWAP2 SUB SWAP1 REVERT JUMPDEST PUSH1 0x1 PUSH1 0x8 PUSH0 DUP4 PUSH20 0xFFFFFFFFFFFFFFFFFFFFFFFFFFFFFFFFFFFFFFFF AND PUSH20 0xFFFFFFFFFFFFFFFFFFFFFFFFFFFFFFFFFFFFFFFF AND DUP2 MSTORE PUSH1 0x20 ADD SWAP1 DUP2 MSTORE PUSH1 0x20 ADD PUSH0 KECCAK256 PUSH1 0x4 ADD PUSH0 PUSH2 0x100 EXP DUP2 SLOAD DUP2 PUSH1 0xFF MUL NOT AND SWAP1 DUP4 ISZERO ISZERO MUL OR SWAP1 SSTORE POP DUP1 PUSH20 0xFFFFFFFFFFFFFFFFFFFFFFFFFFFFFFFFFFFFFFFF AND PUSH32 0x7D434F3BFFE7DB5F776C1C2B3B22E492788BDFBD071E9AA176F096970EA88933 PUSH1 0x1 PUSH1 0x40 MLOAD PUSH2 0x2006 SWAP2 SWAP1 PUSH2 0x4CFC JUMP JUMPDEST PUSH1 0x40 MLOAD DUP1 SWAP2 SUB SWAP1 LOG2 POP JUMP JUMPDEST PUSH2 0x2019 PUSH2 0x3A89 JUMP JUMPDEST PUSH0 DUP4 EQ DUP1 PUSH2 0x2029 JUMPI POP PUSH1 0x4 SLOAD DUP4 LT ISZERO JUMPDEST ISZERO PUSH2 0x206B JUMPI DUP3 PUSH1 0x40 MLOAD PUSH32 0xAE30D3B000000000000000000000000000000000000000000000000000000000 DUP2 MSTORE PUSH1 0x4 ADD PUSH2 0x2062 SWAP2 SWAP1 PUSH2 0x43D6 JUMP JUMPDEST PUSH1 0x40 MLOAD DUP1 SWAP2 SUB SWAP1 REVERT JUMPDEST PUSH1 0x1 PUSH1 0x7 PUSH0 DUP6 DUP2 MSTORE PUSH1 0x20 ADD SWAP1 DUP2 MSTORE PUSH1 0x20 ADD PUSH0 KECCAK256 PUSH1 0x5 ADD PUSH0 PUSH2 0x100 EXP DUP2 SLOAD DUP2 PUSH1 0xFF MUL NOT AND SWAP1 DUP4 ISZERO ISZERO MUL OR SWAP1 SSTORE POP DUP2 DUP2 PUSH1 0x7 PUSH0 DUP7 DUP2 MSTORE PUSH1 0x20 ADD SWAP1 DUP2 MSTORE PUSH1 0x20 ADD PUSH0 KECCAK256 PUSH1 0x6 ADD SWAP2 DUP3 PUSH2 0x20BA SWAP3 SWAP2 SWAP1 PUSH2 0x53B2 JUMP JUMPDEST POP DUP3 PUSH32 0x428BFB0046D8263EAC6B65DFCCAECBCC6AD51C0A25F224D1F936AB94490029B DUP4 DUP4 PUSH1 0x40 MLOAD PUSH2 0x20ED SWAP3 SWAP2 SWAP1 PUSH2 0x54AB JUMP JUMPDEST PUSH1 0x40 MLOAD DUP1 SWAP2 SUB SWAP1 LOG2 POP POP POP JUMP JUMPDEST PUSH1 0xC8 DUP2 JUMP JUMPDEST PUSH1 0x60 PUSH1 0x9 PUSH0 DUP4 PUSH20 0xFFFFFFFFFFFFFFFFFFFFFFFFFFFFFFFFFFFFFFFF AND PUSH20 0xFFFFFFFFFFFFFFFFFFFFFFFFFFFFFFFFFFFFFFFF AND DUP2 MSTORE PUSH1 0x20 ADD SWAP1 DUP2 MSTORE PUSH1 0x20 ADD PUSH0 KECCAK256 DUP1 SLOAD DUP1 PUSH1 0x20 MUL PUSH1 0x20 ADD PUSH1 0x40 MLOAD SWAP1 DUP2 ADD PUSH1 0x40 MSTORE DUP1 SWAP3 SWAP2 SWAP1 DUP2 DUP2 MSTORE PUSH1 0x20 ADD DUP3 DUP1 SLOAD DUP1 ISZERO PUSH2 0x2186 JUMPI PUSH1 0x20 MUL DUP3 ADD SWAP2 SWAP1 PUSH0 MSTORE PUSH1 0x20 PUSH0 KECCAK256 SWAP1 JUMPDEST DUP2 SLOAD DUP2 MSTORE PUSH1 0x20 ADD SWAP1 PUSH1 0x1 ADD SWAP1 DUP1 DUP4 GT PUSH2 0x2172 JUMPI JUMPDEST POP POP POP POP POP SWAP1 POP SWAP2 SWAP1 POP JUMP JUMPDEST PUSH2 0x219A PUSH2 0x3A89 JUMP JUMPDEST PUSH0 PUSH20 0xFFFFFFFFFFFFFFFFFFFFFFFFFFFFFFFFFFFFFFFF AND DUP2 PUSH20 0xFFFFFFFFFFFFFFFFFFFFFFFFFFFFFFFFFFFFFFFF AND SUB PUSH2 0x21FF JUMPI PUSH1 0x40 MLOAD PUSH32 0xE6C4247B00000000000000000000000000000000000000000000000000000000 DUP2 MSTORE PUSH1 0x4 ADD PUSH1 0x40 MLOAD DUP1 SWAP2 SUB SWAP1 REVERT JUMPDEST DUP1 PUSH0 PUSH0 PUSH2 0x100 EXP DUP2 SLOAD DUP2 PUSH20 0xFFFFFFFFFFFFFFFFFFFFFFFFFFFFFFFFFFFFFFFF MUL NOT AND SWAP1 DUP4 PUSH20 0xFFFFFFFFFFFFFFFFFFFFFFFFFFFFFFFFFFFFFFFF AND MUL OR SWAP1 SSTORE POP PUSH0 PUSH1 0x1 PUSH0 PUSH2 0x100 EXP DUP2 SLOAD DUP2 PUSH20 0xFFFFFFFFFFFFFFFFFFFFFFFFFFFFFFFFFFFFFFFF MUL NOT AND SWAP1 DUP4 PUSH20 0xFFFFFFFFFFFFFFFFFFFFFFFFFFFFFFFFFFFFFFFF AND MUL OR SWAP1 SSTORE POP DUP1 PUSH20 0xFFFFFFFFFFFFFFFFFFFFFFFFFFFFFFFFFFFFFFFF AND PUSH32 0x24A7C28D8EDC5CCD4EF428EBC1DCE34762FE38B7FDCCA1F3F20C818F04DEB156 PUSH1 0x40 MLOAD PUSH1 0x40 MLOAD DUP1 SWAP2 SUB SWAP1 LOG2 POP JUMP JUMPDEST PUSH1 0x50 DUP2 JUMP JUMPDEST PUSH2 0x22D1 PUSH2 0x3770 JUMP JUMPDEST DUP2 PUSH2 0x22DB DUP2 PUSH2 0x37F5 JUMP JUMPDEST PUSH0 PUSH1 0x8 PUSH0 CALLER PUSH20 0xFFFFFFFFFFFFFFFFFFFFFFFFFFFFFFFFFFFFFFFF AND PUSH20 0xFFFFFFFFFFFFFFFFFFFFFFFFFFFFFFFFFFFFFFFF AND DUP2 MSTORE PUSH1 0x20 ADD SWAP1 DUP2 MSTORE PUSH1 0x20 ADD PUSH0 KECCAK256 PUSH1 0x2 ADD PUSH0 SWAP1 SLOAD SWAP1 PUSH2 0x100 EXP SWAP1 DIV PUSH1 0xFF AND SWAP1 POP PUSH1 0x2 PUSH1 0x5 DUP2 GT ISZERO PUSH2 0x233F JUMPI PUSH2 0x233E PUSH2 0x3F24 JUMP JUMPDEST JUMPDEST DUP2 PUSH1 0x5 DUP2 GT ISZERO PUSH2 0x2352 JUMPI PUSH2 0x2351 PUSH2 0x3F24 JUMP JUMPDEST JUMPDEST EQ ISZERO DUP1 ISZERO PUSH2 0x2385 JUMPI POP PUSH1 0x3 PUSH1 0x5 DUP2 GT ISZERO PUSH2 0x236F JUMPI PUSH2 0x236E PUSH2 0x3F24 JUMP JUMPDEST JUMPDEST DUP2 PUSH1 0x5 DUP2 GT ISZERO PUSH2 0x2382 JUMPI PUSH2 0x2381 PUSH2 0x3F24 JUMP JUMPDEST JUMPDEST EQ ISZERO JUMPDEST ISZERO PUSH2 0x23BC JUMPI PUSH1 0x40 MLOAD PUSH32 0xEF92A56B00000000000000000000000000000000000000000000000000000000 DUP2 MSTORE PUSH1 0x4 ADD PUSH1 0x40 MLOAD DUP1 SWAP2 SUB SWAP1 REVERT JUMPDEST PUSH1 0x4 PUSH1 0x6 DUP2 GT ISZERO PUSH2 0x23D0 JUMPI PUSH2 0x23CF PUSH2 0x3F24 JUMP JUMPDEST JUMPDEST DUP4 PUSH1 0x6 DUP2 GT ISZERO PUSH2 0x23E3 JUMPI PUSH2 0x23E2 PUSH2 0x3F24 JUMP JUMPDEST JUMPDEST SUB PUSH2 0x241A JUMPI PUSH1 0x40 MLOAD PUSH32 0x9E96BB6900000000000000000000000000000000000000000000000000000000 DUP2 MSTORE PUSH1 0x4 ADD PUSH1 0x40 MLOAD DUP1 SWAP2 SUB SWAP1 REVERT JUMPDEST DUP3 PUSH1 0x5 PUSH0 DUP7 DUP2 MSTORE PUSH1 0x20 ADD SWAP1 DUP2 MSTORE PUSH1 0x20 ADD PUSH0 KECCAK256 PUSH1 0x8 ADD PUSH0 PUSH2 0x100 EXP DUP2 SLOAD DUP2 PUSH1 0xFF MUL NOT AND SWAP1 DUP4 PUSH1 0x6 DUP2 GT ISZERO PUSH2 0x2450 JUMPI PUSH2 0x244F PUSH2 0x3F24 JUMP JUMPDEST JUMPDEST MUL OR SWAP1 SSTORE POP PUSH2 0x245F CALLER DUP6 PUSH2 0x3B10 JUMP JUMPDEST DUP4 PUSH32 0x7C1C93F72F29B8A1FC6FC85EED990D133B1FFAC80C962B521ABB12F38F2FF9AF DUP5 PUSH1 0x40 MLOAD PUSH2 0x248F SWAP2 SWAP1 PUSH2 0x54DC JUMP JUMPDEST PUSH1 0x40 MLOAD DUP1 SWAP2 SUB SWAP1 LOG2 POP POP POP POP JUMP JUMPDEST DUP1 PUSH2 0x24A7 DUP2 PUSH2 0x37F5 JUMP JUMPDEST PUSH0 PUSH1 0x5 PUSH0 DUP5 DUP2 MSTORE PUSH1 0x20 ADD SWAP1 DUP2 MSTORE PUSH1 0x20 ADD PUSH0 KECCAK256 SWAP1 POP DUP1 PUSH1 0x1 ADD PUSH0 SWAP1 SLOAD SWAP1 PUSH2 0x100 EXP SWAP1 DIV PUSH20 0xFFFFFFFFFFFFFFFFFFFFFFFFFFFFFFFFFFFFFFFF AND PUSH20 0xFFFFFFFFFFFFFFFFFFFFFFFFFFFFFFFFFFFFFFFF AND CALLER PUSH20 0xFFFFFFFFFFFFFFFFFFFFFFFFFFFFFFFFFFFFFFFF AND EQ PUSH2 0x2543 JUMPI PUSH1 0x40 MLOAD PUSH32 0x3F77EA3E00000000000000000000000000000000000000000000000000000000 DUP2 MSTORE PUSH1 0x4 ADD PUSH1 0x40 MLOAD DUP1 SWAP2 SUB SWAP1 REVERT JUMPDEST PUSH0 DUP2 PUSH1 0x8 ADD PUSH0 SWAP1 SLOAD SWAP1 PUSH2 0x100 EXP SWAP1 DIV PUSH1 0xFF AND SWAP1 POP PUSH1 0x4 PUSH1 0x6 DUP2 GT ISZERO PUSH2 0x256B JUMPI PUSH2 0x256A PUSH2 0x3F24 JUMP JUMPDEST JUMPDEST DUP2 PUSH1 0x6 DUP2 GT ISZERO PUSH2 0x257E JUMPI PUSH2 0x257D PUSH2 0x3F24 JUMP JUMPDEST JUMPDEST EQ DUP1 PUSH2 0x25AE JUMPI POP PUSH1 0x5 PUSH1 0x6 DUP2 GT ISZERO PUSH2 0x2599 JUMPI PUSH2 0x2598 PUSH2 0x3F24 JUMP JUMPDEST JUMPDEST DUP2 PUSH1 0x6 DUP2 GT ISZERO PUSH2 0x25AC JUMPI PUSH2 0x25AB PUSH2 0x3F24 JUMP JUMPDEST JUMPDEST EQ JUMPDEST DUP1 PUSH2 0x25DC JUMPI POP PUSH1 0x6 DUP1 DUP2 GT ISZERO PUSH2 0x25C7 JUMPI PUSH2 0x25C6 PUSH2 0x3F24 JUMP JUMPDEST JUMPDEST DUP2 PUSH1 0x6 DUP2 GT ISZERO PUSH2 0x25DA JUMPI PUSH2 0x25D9 PUSH2 0x3F24 JUMP JUMPDEST JUMPDEST EQ JUMPDEST ISZERO PUSH2 0x2613 JUMPI PUSH1 0x40 MLOAD PUSH32 0x8B167A5000000000000000000000000000000000000000000000000000000000 DUP2 MSTORE PUSH1 0x4 ADD PUSH1 0x40 MLOAD DUP1 SWAP2 SUB SWAP1 REVERT JUMPDEST PUSH0 PUSH1 0x6 DUP2 GT ISZERO PUSH2 0x2626 JUMPI PUSH2 0x2625 PUSH2 0x3F24 JUMP JUMPDEST JUMPDEST DUP2 PUSH1 0x6 DUP2 GT ISZERO PUSH2 0x2639 JUMPI PUSH2 0x2638 PUSH2 0x3F24 JUMP JUMPDEST JUMPDEST EQ ISZERO DUP1 ISZERO PUSH2 0x266C JUMPI POP PUSH1 0x2 PUSH1 0x6 DUP2 GT ISZERO PUSH2 0x2656 JUMPI PUSH2 0x2655 PUSH2 0x3F24 JUMP JUMPDEST JUMPDEST DUP2 PUSH1 0x6 DUP2 GT ISZERO PUSH2 0x2669 JUMPI PUSH2 0x2668 PUSH2 0x3F24 JUMP JUMPDEST JUMPDEST EQ ISZERO JUMPDEST ISZERO PUSH2 0x26A3 JUMPI PUSH1 0x40 MLOAD PUSH32 0xB86C1B1C00000000000000000000000000000000000000000000000000000000 DUP2 MSTORE PUSH1 0x4 ADD PUSH1 0x40 MLOAD DUP1 SWAP2 SUB SWAP1 REVERT JUMPDEST PUSH1 0x6 DUP3 PUSH1 0x8 ADD PUSH0 PUSH2 0x100 EXP DUP2 SLOAD DUP2 PUSH1 0xFF MUL NOT AND SWAP1 DUP4 PUSH1 0x6 DUP2 GT ISZERO PUSH2 0x26CA JUMPI PUSH2 0x26C9 PUSH2 0x3F24 JUMP JUMPDEST JUMPDEST MUL OR SWAP1 SSTORE POP DUP4 PUSH32 0x7C1C93F72F29B8A1FC6FC85EED990D133B1FFAC80C962B521ABB12F38F2FF9AF PUSH1 0x6 PUSH1 0x40 MLOAD PUSH2 0x2700 SWAP2 SWAP1 PUSH2 0x54DC JUMP JUMPDEST PUSH1 0x40 MLOAD DUP1 SWAP2 SUB SWAP1 LOG2 POP POP POP POP JUMP JUMPDEST PUSH1 0x60 DUP2 PUSH2 0x271A DUP2 PUSH2 0x37F5 JUMP JUMPDEST PUSH0 PUSH1 0x5 PUSH0 DUP6 DUP2 MSTORE PUSH1 0x20 ADD SWAP1 DUP2 MSTORE PUSH1 0x20 ADD PUSH0 KECCAK256 PUSH1 0x9 ADD SWAP1 POP PUSH0 DUP2 DUP1 SLOAD SWAP1 POP PUSH8 0xFFFFFFFFFFFFFFFF DUP2 GT ISZERO PUSH2 0x2750 JUMPI PUSH2 0x274F PUSH2 0x419E JUMP JUMPDEST JUMPDEST PUSH1 0x40 MLOAD SWAP1 DUP1 DUP3 MSTORE DUP1 PUSH1 0x20 MUL PUSH1 0x20 ADD DUP3 ADD PUSH1 0x40 MSTORE DUP1 ISZERO PUSH2 0x2789 JUMPI DUP2 PUSH1 0x20 ADD JUMPDEST PUSH2 0x2776 PUSH2 0x3CD1 JUMP JUMPDEST DUP2 MSTORE PUSH1 0x20 ADD SWAP1 PUSH1 0x1 SWAP1 SUB SWAP1 DUP2 PUSH2 0x276E JUMPI SWAP1 POP JUMPDEST POP SWAP1 POP PUSH0 PUSH0 SWAP1 POP JUMPDEST DUP3 DUP1 SLOAD SWAP1 POP DUP2 LT ISZERO PUSH2 0x29D6 JUMPI PUSH1 0x6 PUSH0 DUP5 DUP4 DUP2 SLOAD DUP2 LT PUSH2 0x27B3 JUMPI PUSH2 0x27B2 PUSH2 0x5313 JUMP JUMPDEST JUMPDEST SWAP1 PUSH0 MSTORE PUSH1 0x20 PUSH0 KECCAK256 ADD SLOAD DUP2 MSTORE PUSH1 0x20 ADD SWAP1 DUP2 MSTORE PUSH1 0x20 ADD PUSH0 KECCAK256 PUSH1 0x40 MLOAD DUP1 PUSH2 0x100 ADD PUSH1 0x40 MSTORE SWAP1 DUP2 PUSH0 DUP3 ADD SLOAD DUP2 MSTORE PUSH1 0x20 ADD PUSH1 0x1 DUP3 ADD SLOAD DUP2 MSTORE PUSH1 0x20 ADD PUSH1 0x2 DUP3 ADD PUSH0 SWAP1 SLOAD SWAP1 PUSH2 0x100 EXP SWAP1 DIV PUSH20 0xFFFFFFFFFFFFFFFFFFFFFFFFFFFFFFFFFFFFFFFF AND PUSH20 0xFFFFFFFFFFFFFFFFFFFFFFFFFFFFFFFFFFFFFFFF AND PUSH20 0xFFFFFFFFFFFFFFFFFFFFFFFFFFFFFFFFFFFFFFFF AND DUP2 MSTORE PUSH1 0x20 ADD PUSH1 0x3 DUP3 ADD DUP1 SLOAD PUSH2 0x284D SWAP1 PUSH2 0x4F64 JUMP JUMPDEST DUP1 PUSH1 0x1F ADD PUSH1 0x20 DUP1 SWAP2 DIV MUL PUSH1 0x20 ADD PUSH1 0x40 MLOAD SWAP1 DUP2 ADD PUSH1 0x40 MSTORE DUP1 SWAP3 SWAP2 SWAP1 DUP2 DUP2 MSTORE PUSH1 0x20 ADD DUP3 DUP1 SLOAD PUSH2 0x2879 SWAP1 PUSH2 0x4F64 JUMP JUMPDEST DUP1 ISZERO PUSH2 0x28C4 JUMPI DUP1 PUSH1 0x1F LT PUSH2 0x289B JUMPI PUSH2 0x100 DUP1 DUP4 SLOAD DIV MUL DUP4 MSTORE SWAP2 PUSH1 0x20 ADD SWAP2 PUSH2 0x28C4 JUMP JUMPDEST DUP3 ADD SWAP2 SWAP1 PUSH0 MSTORE PUSH1 0x20 PUSH0 KECCAK256 SWAP1 JUMPDEST DUP2 SLOAD DUP2 MSTORE SWAP1 PUSH1 0x1 ADD SWAP1 PUSH1 0x20 ADD DUP1 DUP4 GT PUSH2 0x28A7 JUMPI DUP3 SWAP1 SUB PUSH1 0x1F AND DUP3 ADD SWAP2 JUMPDEST POP POP POP POP POP DUP2 MSTORE PUSH1 0x20 ADD PUSH1 0x4 DUP3 ADD PUSH0 SWAP1 SLOAD SWAP1 PUSH2 0x100 EXP SWAP1 DIV PUSH1 0xFF AND PUSH1 0x4 DUP2 GT ISZERO PUSH2 0x28F1 JUMPI PUSH2 0x28F0 PUSH2 0x3F24 JUMP JUMPDEST JUMPDEST PUSH1 0x4 DUP2 GT ISZERO PUSH2 0x2903 JUMPI PUSH2 0x2902 PUSH2 0x3F24 JUMP JUMPDEST JUMPDEST DUP2 MSTORE PUSH1 0x20 ADD PUSH1 0x5 DUP3 ADD SLOAD DUP2 MSTORE PUSH1 0x20 ADD PUSH1 0x6 DUP3 ADD DUP1 SLOAD PUSH2 0x2921 SWAP1 PUSH2 0x4F64 JUMP JUMPDEST DUP1 PUSH1 0x1F ADD PUSH1 0x20 DUP1 SWAP2 DIV MUL PUSH1 0x20 ADD PUSH1 0x40 MLOAD SWAP1 DUP2 ADD PUSH1 0x40 MSTORE DUP1 SWAP3 SWAP2 SWAP1 DUP2 DUP2 MSTORE PUSH1 0x20 ADD DUP3 DUP1 SLOAD PUSH2 0x294D SWAP1 PUSH2 0x4F64 JUMP JUMPDEST DUP1 ISZERO PUSH2 0x2998 JUMPI DUP1 PUSH1 0x1F LT PUSH2 0x296F JUMPI PUSH2 0x100 DUP1 DUP4 SLOAD DIV MUL DUP4 MSTORE SWAP2 PUSH1 0x20 ADD SWAP2 PUSH2 0x2998 JUMP JUMPDEST DUP3 ADD SWAP2 SWAP1 PUSH0 MSTORE PUSH1 0x20 PUSH0 KECCAK256 SWAP1 JUMPDEST DUP2 SLOAD DUP2 MSTORE SWAP1 PUSH1 0x1 ADD SWAP1 PUSH1 0x20 ADD DUP1 DUP4 GT PUSH2 0x297B JUMPI DUP3 SWAP1 SUB PUSH1 0x1F AND DUP3 ADD SWAP2 JUMPDEST POP POP POP POP POP DUP2 MSTORE PUSH1 0x20 ADD PUSH1 0x7 DUP3 ADD SLOAD DUP2 MSTORE POP POP DUP3 DUP3 DUP2 MLOAD DUP2 LT PUSH2 0x29BE JUMPI PUSH2 0x29BD PUSH2 0x5313 JUMP JUMPDEST JUMPDEST PUSH1 0x20 MUL PUSH1 0x20 ADD ADD DUP2 SWAP1 MSTORE POP DUP1 DUP1 PUSH1 0x1 ADD SWAP2 POP POP PUSH2 0x2791 JUMP JUMPDEST POP DUP1 SWAP4 POP POP POP POP SWAP2 SWAP1 POP JUMP JUMPDEST PUSH0 PUSH1 0x7 PUSH0 DUP4 DUP2 MSTORE PUSH1 0x20 ADD SWAP1 DUP2 MSTORE PUSH1 0x20 ADD PUSH0 KECCAK256 PUSH1 0x5 ADD PUSH0 SWAP1 SLOAD SWAP1 PUSH2 0x100 EXP SWAP1 DIV PUSH1 0xFF AND SWAP1 POP SWAP2 SWAP1 POP JUMP JUMPDEST PUSH2 0x2A13 PUSH2 0x3D8E JUMP JUMPDEST PUSH0 DUP3 EQ DUP1 PUSH2 0x2A23 JUMPI POP PUSH1 0x4 SLOAD DUP3 LT ISZERO JUMPDEST ISZERO PUSH2 0x2A65 JUMPI DUP2 PUSH1 0x40 MLOAD PUSH32 0xAE30D3B000000000000000000000000000000000000000000000000000000000 DUP2 MSTORE PUSH1 0x4 ADD PUSH2 0x2A5C SWAP2 SWAP1 PUSH2 0x43D6 JUMP JUMPDEST PUSH1 0x40 MLOAD DUP1 SWAP2 SUB SWAP1 REVERT JUMPDEST PUSH1 0x7 PUSH0 DUP4 DUP2 MSTORE PUSH1 0x20 ADD SWAP1 DUP2 MSTORE PUSH1 0x20 ADD PUSH0 KECCAK256 PUSH1 0x40 MLOAD DUP1 PUSH2 0x100 ADD PUSH1 0x40 MSTORE SWAP1 DUP2 PUSH0 DUP3 ADD SLOAD DUP2 MSTORE PUSH1 0x20 ADD PUSH1 0x1 DUP3 ADD SLOAD DUP2 MSTORE PUSH1 0x20 ADD PUSH1 0x2 DUP3 ADD PUSH0 SWAP1 SLOAD SWAP1 PUSH2 0x100 EXP SWAP1 DIV PUSH1 0xFF AND PUSH1 0x4 DUP2 GT ISZERO PUSH2 0x2AB9 JUMPI PUSH2 0x2AB8 PUSH2 0x3F24 JUMP JUMPDEST JUMPDEST PUSH1 0x4 DUP2 GT ISZERO PUSH2 0x2ACB JUMPI PUSH2 0x2ACA PUSH2 0x3F24 JUMP JUMPDEST JUMPDEST DUP2 MSTORE PUSH1 0x20 ADD PUSH1 0x2 DUP3 ADD PUSH1 0x1 SWAP1 SLOAD SWAP1 PUSH2 0x100 EXP SWAP1 DIV PUSH20 0xFFFFFFFFFFFFFFFFFFFFFFFFFFFFFFFFFFFFFFFF AND PUSH20 0xFFFFFFFFFFFFFFFFFFFFFFFFFFFFFFFFFFFFFFFF AND PUSH20 0xFFFFFFFFFFFFFFFFFFFFFFFFFFFFFFFFFFFFFFFF AND DUP2 MSTORE PUSH1 0x20 ADD PUSH1 0x3 DUP3 ADD DUP1 SLOAD PUSH2 0x2B35 SWAP1 PUSH2 0x4F64 JUMP JUMPDEST DUP1 PUSH1 0x1F ADD PUSH1 0x20 DUP1 SWAP2 DIV MUL PUSH1 0x20 ADD PUSH1 0x40 MLOAD SWAP1 DUP2 ADD PUSH1 0x40 MSTORE DUP1 SWAP3 SWAP2 SWAP1 DUP2 DUP2 MSTORE PUSH1 0x20 ADD DUP3 DUP1 SLOAD PUSH2 0x2B61 SWAP1 PUSH2 0x4F64 JUMP JUMPDEST DUP1 ISZERO PUSH2 0x2BAC JUMPI DUP1 PUSH1 0x1F LT PUSH2 0x2B83 JUMPI PUSH2 0x100 DUP1 DUP4 SLOAD DIV MUL DUP4 MSTORE SWAP2 PUSH1 0x20 ADD SWAP2 PUSH2 0x2BAC JUMP JUMPDEST DUP3 ADD SWAP2 SWAP1 PUSH0 MSTORE PUSH1 0x20 PUSH0 KECCAK256 SWAP1 JUMPDEST DUP2 SLOAD DUP2 MSTORE SWAP1 PUSH1 0x1 ADD SWAP1 PUSH1 0x20 ADD DUP1 DUP4 GT PUSH2 0x2B8F JUMPI DUP3 SWAP1 SUB PUSH1 0x1F AND DUP3 ADD SWAP2 JUMPDEST POP POP POP POP POP DUP2 MSTORE PUSH1 0x20 ADD PUSH1 0x4 DUP3 ADD SLOAD DUP2 MSTORE PUSH1 0x20 ADD PUSH1 0x5 DUP3 ADD PUSH0 SWAP1 SLOAD SWAP1 PUSH2 0x100 EXP SWAP1 DIV PUSH1 0xFF AND ISZERO ISZERO ISZERO ISZERO DUP2 MSTORE PUSH1 0x20 ADD PUSH1 0x6 DUP3 ADD DUP1 SLOAD PUSH2 0x2BE9 SWAP1 PUSH2 0x4F64 JUMP JUMPDEST DUP1 PUSH1 0x1F ADD PUSH1 0x20 DUP1 SWAP2 DIV MUL PUSH1 0x20 ADD PUSH1 0x40 MLOAD SWAP1 DUP2 ADD PUSH1 0x40 MSTORE DUP1 SWAP3 SWAP2 SWAP1 DUP2 DUP2 MSTORE PUSH1 0x20 ADD DUP3 DUP1 SLOAD PUSH2 0x2C15 SWAP1 PUSH2 0x4F64 JUMP JUMPDEST DUP1 ISZERO PUSH2 0x2C60 JUMPI DUP1 PUSH1 0x1F LT PUSH2 0x2C37 JUMPI PUSH2 0x100 DUP1 DUP4 SLOAD DIV MUL DUP4 MSTORE SWAP2 PUSH1 0x20 ADD SWAP2 PUSH2 0x2C60 JUMP JUMPDEST DUP3 ADD SWAP2 SWAP1 PUSH0 MSTORE PUSH1 0x20 PUSH0 KECCAK256 SWAP1 JUMPDEST DUP2 SLOAD DUP2 MSTORE SWAP1 PUSH1 0x1 ADD SWAP1 PUSH1 0x20 ADD DUP1 DUP4 GT PUSH2 0x2C43 JUMPI DUP3 SWAP1 SUB PUSH1 0x1F AND DUP3 ADD SWAP2 JUMPDEST POP POP POP POP POP DUP2 MSTORE POP POP SWAP1 POP SWAP2 SWAP1 POP JUMP JUMPDEST PUSH1 0x60 DUP2 PUSH2 0x2C7C DUP2 PUSH2 0x37F5 JUMP JUMPDEST PUSH0 PUSH1 0x5 PUSH0 DUP6 DUP2 MSTORE PUSH1 0x20 ADD SWAP1 DUP2 MSTORE PUSH1 0x20 ADD PUSH0 KECCAK256 PUSH1 0xA ADD SWAP1 POP PUSH0 DUP2 DUP1 SLOAD SWAP1 POP PUSH8 0xFFFFFFFFFFFFFFFF DUP2 GT ISZERO PUSH2 0x2CB2 JUMPI PUSH2 0x2CB1 PUSH2 0x419E JUMP JUMPDEST JUMPDEST PUSH1 0x40 MLOAD SWAP1 DUP1 DUP3 MSTORE DUP1 PUSH1 0x20 MUL PUSH1 0x20 ADD DUP3 ADD PUSH1 0x40 MSTORE DUP1 ISZERO PUSH2 0x2CEB JUMPI DUP2 PUSH1 0x20 ADD JUMPDEST PUSH2 0x2CD8 PUSH2 0x3D8E JUMP JUMPDEST DUP2 MSTORE PUSH1 0x20 ADD SWAP1 PUSH1 0x1 SWAP1 SUB SWAP1 DUP2 PUSH2 0x2CD0 JUMPI SWAP1 POP JUMPDEST POP SWAP1 POP PUSH0 PUSH0 SWAP1 POP JUMPDEST DUP3 DUP1 SLOAD SWAP1 POP DUP2 LT ISZERO PUSH2 0x2F49 JUMPI PUSH1 0x7 PUSH0 DUP5 DUP4 DUP2 SLOAD DUP2 LT PUSH2 0x2D15 JUMPI PUSH2 0x2D14 PUSH2 0x5313 JUMP JUMPDEST JUMPDEST SWAP1 PUSH0 MSTORE PUSH1 0x20 PUSH0 KECCAK256 ADD SLOAD DUP2 MSTORE PUSH1 0x20 ADD SWAP1 DUP2 MSTORE PUSH1 0x20 ADD PUSH0 KECCAK256 PUSH1 0x40 MLOAD DUP1 PUSH2 0x100 ADD PUSH1 0x40 MSTORE SWAP1 DUP2 PUSH0 DUP3 ADD SLOAD DUP2 MSTORE PUSH1 0x20 ADD PUSH1 0x1 DUP3 ADD SLOAD DUP2 MSTORE PUSH1 0x20 ADD PUSH1 0x2 DUP3 ADD PUSH0 SWAP1 SLOAD SWAP1 PUSH2 0x100 EXP SWAP1 DIV PUSH1 0xFF AND PUSH1 0x4 DUP2 GT ISZERO PUSH2 0x2D6E JUMPI PUSH2 0x2D6D PUSH2 0x3F24 JUMP JUMPDEST JUMPDEST PUSH1 0x4 DUP2 GT ISZERO PUSH2 0x2D80 JUMPI PUSH2 0x2D7F PUSH2 0x3F24 JUMP JUMPDEST JUMPDEST DUP2 MSTORE PUSH1 0x20 ADD PUSH1 0x2 DUP3 ADD PUSH1 0x1 SWAP1 SLOAD SWAP1 PUSH2 0x100 EXP SWAP1 DIV PUSH20 0xFFFFFFFFFFFFFFFFFFFFFFFFFFFFFFFFFFFFFFFF AND PUSH20 0xFFFFFFFFFFFFFFFFFFFFFFFFFFFFFFFFFFFFFFFF AND PUSH20 0xFFFFFFFFFFFFFFFFFFFFFFFFFFFFFFFFFFFFFFFF AND DUP2 MSTORE PUSH1 0x20 ADD PUSH1 0x3 DUP3 ADD DUP1 SLOAD PUSH2 0x2DEA SWAP1 PUSH2 0x4F64 JUMP JUMPDEST DUP1 PUSH1 0x1F ADD PUSH1 0x20 DUP1 SWAP2 DIV MUL PUSH1 0x20 ADD PUSH1 0x40 MLOAD SWAP1 DUP2 ADD PUSH1 0x40 MSTORE DUP1 SWAP3 SWAP2 SWAP1 DUP2 DUP2 MSTORE PUSH1 0x20 ADD DUP3 DUP1 SLOAD PUSH2 0x2E16 SWAP1 PUSH2 0x4F64 JUMP JUMPDEST DUP1 ISZERO PUSH2 0x2E61 JUMPI DUP1 PUSH1 0x1F LT PUSH2 0x2E38 JUMPI PUSH2 0x100 DUP1 DUP4 SLOAD DIV MUL DUP4 MSTORE SWAP2 PUSH1 0x20 ADD SWAP2 PUSH2 0x2E61 JUMP JUMPDEST DUP3 ADD SWAP2 SWAP1 PUSH0 MSTORE PUSH1 0x20 PUSH0 KECCAK256 SWAP1 JUMPDEST DUP2 SLOAD DUP2 MSTORE SWAP1 PUSH1 0x1 ADD SWAP1 PUSH1 0x20 ADD DUP1 DUP4 GT PUSH2 0x2E44 JUMPI DUP3 SWAP1 SUB PUSH1 0x1F AND DUP3 ADD SWAP2 JUMPDEST POP POP POP POP POP DUP2 MSTORE PUSH1 0x20 ADD PUSH1 0x4 DUP3 ADD SLOAD DUP2 MSTORE PUSH1 0x20 ADD PUSH1 0x5 DUP3 ADD PUSH0 SWAP1 SLOAD SWAP1 PUSH2 0x100 EXP SWAP1 DIV PUSH1 0xFF AND ISZERO ISZERO ISZERO ISZERO DUP2 MSTORE PUSH1 0x20 ADD PUSH1 0x6 DUP3 ADD DUP1 SLOAD PUSH2 0x2E9E SWAP1 PUSH2 0x4F64 JUMP JUMPDEST DUP1 PUSH1 0x1F ADD PUSH1 0x20 DUP1 SWAP2 DIV MUL PUSH1 0x20 ADD PUSH1 0x40 MLOAD SWAP1 DUP2 ADD PUSH1 0x40 MSTORE DUP1 SWAP3 SWAP2 SWAP1 DUP2 DUP2 MSTORE PUSH1 0x20 ADD DUP3 DUP1 SLOAD PUSH2 0x2ECA SWAP1 PUSH2 0x4F64 JUMP JUMPDEST DUP1 ISZERO PUSH2 0x2F15 JUMPI DUP1 PUSH1 0x1F LT PUSH2 0x2EEC JUMPI PUSH2 0x100 DUP1 DUP4 SLOAD DIV MUL DUP4 MSTORE SWAP2 PUSH1 0x20 ADD SWAP2 PUSH2 0x2F15 JUMP JUMPDEST DUP3 ADD SWAP2 SWAP1 PUSH0 MSTORE PUSH1 0x20 PUSH0 KECCAK256 SWAP1 JUMPDEST DUP2 SLOAD DUP2 MSTORE SWAP1 PUSH1 0x1 ADD SWAP1 PUSH1 0x20 ADD DUP1 DUP4 GT PUSH2 0x2EF8 JUMPI DUP3 SWAP1 SUB PUSH1 0x1F AND DUP3 ADD SWAP2 JUMPDEST POP POP POP POP POP DUP2 MSTORE POP POP DUP3 DUP3 DUP2 MLOAD DUP2 LT PUSH2 0x2F31 JUMPI PUSH2 0x2F30 PUSH2 0x5313 JUMP JUMPDEST JUMPDEST PUSH1 0x20 MUL PUSH1 0x20 ADD ADD DUP2 SWAP1 MSTORE POP DUP1 DUP1 PUSH1 0x1 ADD SWAP2 POP POP PUSH2 0x2CF3 JUMP JUMPDEST POP DUP1 SWAP4 POP POP POP POP SWAP2 SWAP1 POP JUMP JUMPDEST PUSH1 0x14 DUP2 JUMP JUMPDEST PUSH0 DUP2 PUSH2 0x2F65 DUP2 PUSH2 0x37F5 JUMP JUMPDEST PUSH0 PUSH1 0x5 PUSH0 DUP6 DUP2 MSTORE PUSH1 0x20 ADD SWAP1 DUP2 MSTORE PUSH1 0x20 ADD PUSH0 KECCAK256 SWAP1 POP DUP1 PUSH1 0xB ADD PUSH0 SWAP1 SLOAD SWAP1 PUSH2 0x100 EXP SWAP1 DIV PUSH1 0xFF AND PUSH2 0x2F98 JUMPI PUSH1 0x1 SWAP3 POP POP PUSH2 0x304A JUMP JUMPDEST PUSH0 DUP2 PUSH1 0x9 ADD DUP1 SLOAD SWAP1 POP SWAP1 POP PUSH0 PUSH0 SWAP1 POP JUMPDEST DUP2 DUP2 LT ISZERO PUSH2 0x3042 JUMPI PUSH0 PUSH1 0x6 PUSH0 DUP6 PUSH1 0x9 ADD DUP5 DUP2 SLOAD DUP2 LT PUSH2 0x2FCA JUMPI PUSH2 0x2FC9 PUSH2 0x5313 JUMP JUMPDEST JUMPDEST SWAP1 PUSH0 MSTORE PUSH1 0x20 PUSH0 KECCAK256 ADD SLOAD DUP2 MSTORE PUSH1 0x20 ADD SWAP1 DUP2 MSTORE PUSH1 0x20 ADD PUSH0 KECCAK256 PUSH1 0x7 ADD SLOAD SWAP1 POP PUSH32 0x8000000000000000000000000000000000000000000000000000000000000000 DUP2 SUB PUSH2 0x3013 JUMPI POP PUSH2 0x3035 JUMP JUMPDEST PUSH1 0x50 DUP2 SGT DUP1 PUSH2 0x3022 JUMPI POP PUSH1 0x14 DUP2 SLT JUMPDEST ISZERO PUSH2 0x3033 JUMPI PUSH0 SWAP6 POP POP POP POP POP PUSH2 0x304A JUMP JUMPDEST POP JUMPDEST DUP1 DUP1 PUSH1 0x1 ADD SWAP2 POP POP PUSH2 0x2FA8 JUMP JUMPDEST POP PUSH1 0x1 SWAP4 POP POP POP JUMPDEST POP SWAP2 SWAP1 POP JUMP JUMPDEST PUSH2 0x3058 PUSH2 0x3A89 JUMP JUMPDEST PUSH0 PUSH20 0xFFFFFFFFFFFFFFFFFFFFFFFFFFFFFFFFFFFFFFFF AND DUP2 PUSH20 0xFFFFFFFFFFFFFFFFFFFFFFFFFFFFFFFFFFFFFFFF AND SUB PUSH2 0x30BD JUMPI PUSH1 0x40 MLOAD PUSH32 0xE6C4247B00000000000000000000000000000000000000000000000000000000 DUP2 MSTORE PUSH1 0x4 ADD PUSH1 0x40 MLOAD DUP1 SWAP2 SUB SWAP1 REVERT JUMPDEST PUSH1 0x8 PUSH0 DUP3 PUSH20 0xFFFFFFFFFFFFFFFFFFFFFFFFFFFFFFFFFFFFFFFF AND PUSH20 0xFFFFFFFFFFFFFFFFFFFFFFFFFFFFFFFFFFFFFFFF AND DUP2 MSTORE PUSH1 0x20 ADD SWAP1 DUP2 MSTORE PUSH1 0x20 ADD PUSH0 KECCAK256 PUSH1 0x4 ADD PUSH0 SWAP1 SLOAD SWAP1 PUSH2 0x100 EXP SWAP1 DIV PUSH1 0xFF AND ISZERO PUSH2 0x3141 JUMPI PUSH1 0x40 MLOAD PUSH32 0x7CA2767C00000000000000000000000000000000000000000000000000000000 DUP2 MSTORE PUSH1 0x4 ADD PUSH1 0x40 MLOAD DUP1 SWAP2 SUB SWAP1 REVERT JUMPDEST PUSH0 PUSH1 0x5 DUP2 GT ISZERO PUSH2 0x3154 JUMPI PUSH2 0x3153 PUSH2 0x3F24 JUMP JUMPDEST JUMPDEST DUP4 PUSH1 0x5 DUP2 GT ISZERO PUSH2 0x3167 JUMPI PUSH2 0x3166 PUSH2 0x3F24 JUMP JUMPDEST JUMPDEST SUB PUSH2 0x319E JUMPI PUSH1 0x40 MLOAD PUSH32 0xD954416A00000000000000000000000000000000000000000000000000000000 DUP2 MSTORE PUSH1 0x4 ADD PUSH1 0x40 MLOAD DUP1 SWAP2 SUB SWAP1 REVERT JUMPDEST PUSH1 0x40 MLOAD DUP1 PUSH1 0xA0 ADD PUSH1 0x40 MSTORE DUP1 DUP3 PUSH20 0xFFFFFFFFFFFFFFFFFFFFFFFFFFFFFFFFFFFFFFFF AND DUP2 MSTORE PUSH1 0x20 ADD DUP6 DUP2 MSTORE PUSH1 0x20 ADD DUP5 PUSH1 0x5 DUP2 GT ISZERO PUSH2 0x31DE JUMPI PUSH2 0x31DD PUSH2 0x3F24 JUMP JUMPDEST JUMPDEST DUP2 MSTORE PUSH1 0x20 ADD DUP4 DUP2 MSTORE PUSH1 0x20 ADD PUSH1 0x1 ISZERO ISZERO DUP2 MSTORE POP PUSH1 0x8 PUSH0 DUP4 PUSH20 0xFFFFFFFFFFFFFFFFFFFFFFFFFFFFFFFFFFFFFFFF AND PUSH20 0xFFFFFFFFFFFFFFFFFFFFFFFFFFFFFFFFFFFFFFFF AND DUP2 MSTORE PUSH1 0x20 ADD SWAP1 DUP2 MSTORE PUSH1 0x20 ADD PUSH0 KECCAK256 PUSH0 DUP3 ADD MLOAD DUP2 PUSH0 ADD PUSH0 PUSH2 0x100 EXP DUP2 SLOAD DUP2 PUSH20 0xFFFFFFFFFFFFFFFFFFFFFFFFFFFFFFFFFFFFFFFF MUL NOT AND SWAP1 DUP4 PUSH20 0xFFFFFFFFFFFFFFFFFFFFFFFFFFFFFFFFFFFFFFFF AND MUL OR SWAP1 SSTORE POP PUSH1 0x20 DUP3 ADD MLOAD DUP2 PUSH1 0x1 ADD SWAP1 DUP2 PUSH2 0x3286 SWAP2 SWAP1 PUSH2 0x51A8 JUMP JUMPDEST POP PUSH1 0x40 DUP3 ADD MLOAD DUP2 PUSH1 0x2 ADD PUSH0 PUSH2 0x100 EXP DUP2 SLOAD DUP2 PUSH1 0xFF MUL NOT AND SWAP1 DUP4 PUSH1 0x5 DUP2 GT ISZERO PUSH2 0x32B1 JUMPI PUSH2 0x32B0 PUSH2 0x3F24 JUMP JUMPDEST JUMPDEST MUL OR SWAP1 SSTORE POP PUSH1 0x60 DUP3 ADD MLOAD DUP2 PUSH1 0x3 ADD SWAP1 DUP2 PUSH2 0x32CB SWAP2 SWAP1 PUSH2 0x51A8 JUMP JUMPDEST POP PUSH1 0x80 DUP3 ADD MLOAD DUP2 PUSH1 0x4 ADD PUSH0 PUSH2 0x100 EXP DUP2 SLOAD DUP2 PUSH1 0xFF MUL NOT AND SWAP1 DUP4 ISZERO ISZERO MUL OR SWAP1 SSTORE POP SWAP1 POP POP DUP1 PUSH20 0xFFFFFFFFFFFFFFFFFFFFFFFFFFFFFFFFFFFFFFFF AND PUSH32 0xC9A31DE765ABE70445345802BEE3C96554CA063AB257E3888D498ACCB859FABC DUP6 DUP6 PUSH1 0x40 MLOAD PUSH2 0x3336 SWAP3 SWAP2 SWAP1 PUSH2 0x5504 JUMP JUMPDEST PUSH1 0x40 MLOAD DUP1 SWAP2 SUB SWAP1 LOG2 POP POP POP POP JUMP JUMPDEST PUSH0 PUSH1 0x2 SLOAD SWAP1 POP SWAP1 JUMP JUMPDEST PUSH0 PUSH2 0x3356 PUSH2 0x3770 JUMP JUMPDEST DUP4 PUSH2 0x3360 DUP2 PUSH2 0x37F5 JUMP JUMPDEST PUSH1 0xA PUSH0 CALLER PUSH20 0xFFFFFFFFFFFFFFFFFFFFFFFFFFFFFFFFFFFFFFFF AND PUSH20 0xFFFFFFFFFFFFFFFFFFFFFFFFFFFFFFFFFFFFFFFF AND DUP2 MSTORE PUSH1 0x20 ADD SWAP1 DUP2 MSTORE PUSH1 0x20 ADD PUSH0 KECCAK256 PUSH0 DUP7 DUP2 MSTORE PUSH1 0x20 ADD SWAP1 DUP2 MSTORE PUSH1 0x20 ADD PUSH0 KECCAK256 PUSH0 SWAP1 SLOAD SWAP1 PUSH2 0x100 EXP SWAP1 DIV PUSH1 0xFF AND PUSH2 0x33EF JUMPI PUSH1 0x40 MLOAD PUSH32 0xD40C3D2100000000000000000000000000000000000000000000000000000000 DUP2 MSTORE PUSH1 0x4 ADD PUSH1 0x40 MLOAD DUP1 SWAP2 SUB SWAP1 REVERT JUMPDEST PUSH2 0x33FA DUP6 DUP6 DUP6 PUSH2 0x384A JUMP JUMPDEST SWAP2 POP POP SWAP4 SWAP3 POP POP POP JUMP JUMPDEST PUSH0 PUSH0 SWAP1 SLOAD SWAP1 PUSH2 0x100 EXP SWAP1 DIV PUSH20 0xFFFFFFFFFFFFFFFFFFFFFFFFFFFFFFFFFFFFFFFF AND DUP2 JUMP JUMPDEST PUSH2 0x3430 PUSH2 0x3A89 JUMP JUMPDEST PUSH0 PUSH20 0xFFFFFFFFFFFFFFFFFFFFFFFFFFFFFFFFFFFFFFFF AND PUSH1 0x8 PUSH0 DUP4 PUSH20 0xFFFFFFFFFFFFFFFFFFFFFFFFFFFFFFFFFFFFFFFF AND PUSH20 0xFFFFFFFFFFFFFFFFFFFFFFFFFFFFFFFFFFFFFFFF AND DUP2 MSTORE PUSH1 0x20 ADD SWAP1 DUP2 MSTORE PUSH1 0x20 ADD PUSH0 KECCAK256 PUSH0 ADD PUSH0 SWAP1 SLOAD SWAP1 PUSH2 0x100 EXP SWAP1 DIV PUSH20 0xFFFFFFFFFFFFFFFFFFFFFFFFFFFFFFFFFFFFFFFF AND PUSH20 0xFFFFFFFFFFFFFFFFFFFFFFFFFFFFFFFFFFFFFFFF AND SUB PUSH2 0x34F3 JUMPI PUSH1 0x40 MLOAD PUSH32 0x6F46A36500000000000000000000000000000000000000000000000000000000 DUP2 MSTORE PUSH1 0x4 ADD PUSH1 0x40 MLOAD DUP1 SWAP2 SUB SWAP1 REVERT JUMPDEST PUSH0 PUSH1 0x8 PUSH0 DUP4 PUSH20 0xFFFFFFFFFFFFFFFFFFFFFFFFFFFFFFFFFFFFFFFF AND PUSH20 0xFFFFFFFFFFFFFFFFFFFFFFFFFFFFFFFFFFFFFFFF AND DUP2 MSTORE PUSH1 0x20 ADD SWAP1 DUP2 MSTORE PUSH1 0x20 ADD PUSH0 KECCAK256 PUSH1 0x4 ADD PUSH0 PUSH2 0x100 EXP DUP2 SLOAD DUP2 PUSH1 0xFF MUL NOT AND SWAP1 DUP4 ISZERO ISZERO MUL OR SWAP1 SSTORE POP DUP1 PUSH20 0xFFFFFFFFFFFFFFFFFFFFFFFFFFFFFFFFFFFFFFFF AND PUSH32 0x7D434F3BFFE7DB5F776C1C2B3B22E492788BDFBD071E9AA176F096970EA88933 PUSH0 PUSH1 0x40 MLOAD PUSH2 0x3590 SWAP2 SWAP1 PUSH2 0x4CFC JUMP JUMPDEST PUSH1 0x40 MLOAD DUP1 SWAP2 SUB SWAP1 LOG2 POP JUMP JUMPDEST DUP1 PUSH2 0x35A5 DUP2 PUSH2 0x37F5 JUMP JUMPDEST PUSH0 PUSH1 0x5 PUSH0 DUP5 DUP2 MSTORE PUSH1 0x20 ADD SWAP1 DUP2 MSTORE PUSH1 0x20 ADD PUSH0 KECCAK256 SWAP1 POP DUP1 PUSH1 0x2 ADD PUSH0 SWAP1 SLOAD SWAP1 PUSH2 0x100 EXP SWAP1 DIV PUSH20 0xFFFFFFFFFFFFFFFFFFFFFFFFFFFFFFFFFFFFFFFF AND PUSH20 0xFFFFFFFFFFFFFFFFFFFFFFFFFFFFFFFFFFFFFFFF AND CALLER PUSH20 0xFFFFFFFFFFFFFFFFFFFFFFFFFFFFFFFFFFFFFFFF AND EQ PUSH2 0x3640 JUMPI PUSH1 0x40 MLOAD PUSH31 0x7B024000000000000000000000000000000000000000000000000000000000 DUP2 MSTORE PUSH1 0x4 ADD PUSH1 0x40 MLOAD DUP1 SWAP2 SUB SWAP1 REVERT JUMPDEST PUSH1 0x4 PUSH1 0x6 DUP2 GT ISZERO PUSH2 0x3654 JUMPI PUSH2 0x3653 PUSH2 0x3F24 JUMP JUMPDEST JUMPDEST DUP2 PUSH1 0x8 ADD PUSH0 SWAP1 SLOAD SWAP1 PUSH2 0x100 EXP SWAP1 DIV PUSH1 0xFF AND PUSH1 0x6 DUP2 GT ISZERO PUSH2 0x3677 JUMPI PUSH2 0x3676 PUSH2 0x3F24 JUMP JUMPDEST JUMPDEST SUB PUSH2 0x36AE JUMPI PUSH1 0x40 MLOAD PUSH32 0xB9F7965300000000000000000000000000000000000000000000000000000000 DUP2 MSTORE PUSH1 0x4 ADD PUSH1 0x40 MLOAD DUP1 SWAP2 SUB SWAP1 REVERT JUMPDEST PUSH1 0x4 DUP2 PUSH1 0x8 ADD PUSH0 PUSH2 0x100 EXP DUP2 SLOAD DUP2 PUSH1 0xFF MUL NOT AND SWAP1 DUP4 PUSH1 0x6 DUP2 GT ISZERO PUSH2 0x36D5 JUMPI PUSH2 0x36D4 PUSH2 0x3F24 JUMP JUMPDEST JUMPDEST MUL OR SWAP1 SSTORE POP TIMESTAMP DUP2 PUSH1 0x7 ADD DUP2 SWAP1 SSTORE POP DUP3 PUSH32 0x7C1C93F72F29B8A1FC6FC85EED990D133B1FFAC80C962B521ABB12F38F2FF9AF PUSH1 0x4 PUSH1 0x40 MLOAD PUSH2 0x3714 SWAP2 SWAP1 PUSH2 0x54DC JUMP JUMPDEST PUSH1 0x40 MLOAD DUP1 SWAP2 SUB SWAP1 LOG2 CALLER PUSH20 0xFFFFFFFFFFFFFFFFFFFFFFFFFFFFFFFFFFFFFFFF AND DUP4 PUSH32 0x2F4A952729DB32131CB3D658CC231127E0CE7E50F83508ECE9A49C985F2384D0 TIMESTAMP PUSH1 0x40 MLOAD PUSH2 0x3763 SWAP2 SWAP1 PUSH2 0x43D6 JUMP JUMPDEST PUSH1 0x40 MLOAD DUP1 SWAP2 SUB SWAP1 LOG3 POP POP POP JUMP JUMPDEST PUSH1 0x8 PUSH0 CALLER PUSH20 0xFFFFFFFFFFFFFFFFFFFFFFFFFFFFFFFFFFFFFFFF AND PUSH20 0xFFFFFFFFFFFFFFFFFFFFFFFFFFFFFFFFFFFFFFFF AND DUP2 MSTORE PUSH1 0x20 ADD SWAP1 DUP2 MSTORE PUSH1 0x20 ADD PUSH0 KECCAK256 PUSH1 0x4 ADD PUSH0 SWAP1 SLOAD SWAP1 PUSH2 0x100 EXP SWAP1 DIV PUSH1 0xFF AND PUSH2 0x37F3 JUMPI PUSH1 0x40 MLOAD PUSH32 0x2A718CEB00000000000000000000000000000000000000000000000000000000 DUP2 MSTORE PUSH1 0x4 ADD PUSH1 0x40 MLOAD DUP1 SWAP2 SUB SWAP1 REVERT JUMPDEST JUMP JUMPDEST PUSH0 DUP2 EQ DUP1 PUSH2 0x3805 JUMPI POP PUSH1 0x2 SLOAD DUP2 LT ISZERO JUMPDEST ISZERO PUSH2 0x3847 JUMPI DUP1 PUSH1 0x40 MLOAD PUSH32 0x84E54A2400000000000000000000000000000000000000000000000000000000 DUP2 MSTORE PUSH1 0x4 ADD PUSH2 0x383E SWAP2 SWAP1 PUSH2 0x43D6 JUMP JUMPDEST PUSH1 0x40 MLOAD DUP1 SWAP2 SUB SWAP1 REVERT JUMPDEST POP JUMP JUMPDEST PUSH0 PUSH0 PUSH1 0x5 PUSH0 DUP7 DUP2 MSTORE PUSH1 0x20 ADD SWAP1 DUP2 MSTORE PUSH1 0x20 ADD PUSH0 KECCAK256 SWAP1 POP PUSH1 0x32 DUP2 PUSH1 0xA ADD DUP1 SLOAD SWAP1 POP LT PUSH2 0x38A0 JUMPI PUSH1 0x40 MLOAD PUSH32 0xCDB7A76C00000000000000000000000000000000000000000000000000000000 DUP2 MSTORE PUSH1 0x4 ADD PUSH1 0x40 MLOAD DUP1 SWAP2 SUB SWAP1 REVERT JUMPDEST PUSH0 PUSH1 0x4 PUSH0 DUP2 SLOAD DUP1 SWAP3 SWAP2 SWAP1 PUSH2 0x38B3 SWAP1 PUSH2 0x4FC1 JUMP JUMPDEST SWAP2 SWAP1 POP SSTORE SWAP1 POP PUSH1 0x40 MLOAD DUP1 PUSH2 0x100 ADD PUSH1 0x40 MSTORE DUP1 DUP3 DUP2 MSTORE PUSH1 0x20 ADD DUP8 DUP2 MSTORE PUSH1 0x20 ADD DUP7 PUSH1 0x4 DUP2 GT ISZERO PUSH2 0x38E4 JUMPI PUSH2 0x38E3 PUSH2 0x3F24 JUMP JUMPDEST JUMPDEST DUP2 MSTORE PUSH1 0x20 ADD CALLER PUSH20 0xFFFFFFFFFFFFFFFFFFFFFFFFFFFFFFFFFFFFFFFF AND DUP2 MSTORE PUSH1 0x20 ADD DUP6 DUP2 MSTORE PUSH1 0x20 ADD TIMESTAMP DUP2 MSTORE PUSH1 0x20 ADD PUSH0 ISZERO ISZERO DUP2 MSTORE PUSH1 0x20 ADD PUSH1 0x40 MLOAD DUP1 PUSH1 0x20 ADD PUSH1 0x40 MSTORE DUP1 PUSH0 DUP2 MSTORE POP DUP2 MSTORE POP PUSH1 0x7 PUSH0 DUP4 DUP2 MSTORE PUSH1 0x20 ADD SWAP1 DUP2 MSTORE PUSH1 0x20 ADD PUSH0 KECCAK256 PUSH0 DUP3 ADD MLOAD DUP2 PUSH0 ADD SSTORE PUSH1 0x20 DUP3 ADD MLOAD DUP2 PUSH1 0x1 ADD SSTORE PUSH1 0x40 DUP3 ADD MLOAD DUP2 PUSH1 0x2 ADD PUSH0 PUSH2 0x100 EXP DUP2 SLOAD DUP2 PUSH1 0xFF MUL NOT AND SWAP1 DUP4 PUSH1 0x4 DUP2 GT ISZERO PUSH2 0x3978 JUMPI PUSH2 0x3977 PUSH2 0x3F24 JUMP JUMPDEST JUMPDEST MUL OR SWAP1 SSTORE POP PUSH1 0x60 DUP3 ADD MLOAD DUP2 PUSH1 0x2 ADD PUSH1 0x1 PUSH2 0x100 EXP DUP2 SLOAD DUP2 PUSH20 0xFFFFFFFFFFFFFFFFFFFFFFFFFFFFFFFFFFFFFFFF MUL NOT AND SWAP1 DUP4 PUSH20 0xFFFFFFFFFFFFFFFFFFFFFFFFFFFFFFFFFFFFFFFF AND MUL OR SWAP1 SSTORE POP PUSH1 0x80 DUP3 ADD MLOAD DUP2 PUSH1 0x3 ADD SWAP1 DUP2 PUSH2 0x39D9 SWAP2 SWAP1 PUSH2 0x51A8 JUMP JUMPDEST POP PUSH1 0xA0 DUP3 ADD MLOAD DUP2 PUSH1 0x4 ADD SSTORE PUSH1 0xC0 DUP3 ADD MLOAD DUP2 PUSH1 0x5 ADD PUSH0 PUSH2 0x100 EXP DUP2 SLOAD DUP2 PUSH1 0xFF MUL NOT AND SWAP1 DUP4 ISZERO ISZERO MUL OR SWAP1 SSTORE POP PUSH1 0xE0 DUP3 ADD MLOAD DUP2 PUSH1 0x6 ADD SWAP1 DUP2 PUSH2 0x3A18 SWAP2 SWAP1 PUSH2 0x51A8 JUMP JUMPDEST POP SWAP1 POP POP DUP2 PUSH1 0xA ADD DUP2 SWAP1 DUP1 PUSH1 0x1 DUP2 SLOAD ADD DUP1 DUP3 SSTORE DUP1 SWAP2 POP POP PUSH1 0x1 SWAP1 SUB SWAP1 PUSH0 MSTORE PUSH1 0x20 PUSH0 KECCAK256 ADD PUSH0 SWAP1 SWAP2 SWAP1 SWAP2 SWAP1 SWAP2 POP SSTORE DUP6 DUP2 PUSH32 0xC2C9D0FA5CAECEA68B9EC6ACA764014B01764F779D8A510F0D0D6796B76B7C83 DUP8 PUSH1 0x40 MLOAD PUSH2 0x3A75 SWAP2 SWAP1 PUSH2 0x5541 JUMP JUMPDEST PUSH1 0x40 MLOAD DUP1 SWAP2 SUB SWAP1 LOG3 DUP1 SWAP3 POP POP POP SWAP4 SWAP3 POP POP POP JUMP JUMPDEST PUSH0 PUSH0 SWAP1 SLOAD SWAP1 PUSH2 0x100 EXP SWAP1 DIV PUSH20 0xFFFFFFFFFFFFFFFFFFFFFFFFFFFFFFFFFFFFFFFF AND PUSH20 0xFFFFFFFFFFFFFFFFFFFFFFFFFFFFFFFFFFFFFFFF AND CALLER PUSH20 0xFFFFFFFFFFFFFFFFFFFFFFFFFFFFFFFFFFFFFFFF AND EQ PUSH2 0x3B0E JUMPI PUSH1 0x40 MLOAD PUSH32 0x4755657900000000000000000000000000000000000000000000000000000000 DUP2 MSTORE PUSH1 0x4 ADD PUSH1 0x40 MLOAD DUP1 SWAP2 SUB SWAP1 REVERT JUMPDEST JUMP JUMPDEST PUSH1 0xA PUSH0 DUP4 PUSH20 0xFFFFFFFFFFFFFFFFFFFFFFFFFFFFFFFFFFFFFFFF AND PUSH20 0xFFFFFFFFFFFFFFFFFFFFFFFFFFFFFFFFFFFFFFFF AND DUP2 MSTORE PUSH1 0x20 ADD SWAP1 DUP2 MSTORE PUSH1 0x20 ADD PUSH0 KECCAK256 PUSH0 DUP3 DUP2 MSTORE PUSH1 0x20 ADD SWAP1 DUP2 MSTORE PUSH1 0x20 ADD PUSH0 KECCAK256 PUSH0 SWAP1 SLOAD SWAP1 PUSH2 0x100 EXP SWAP1 DIV PUSH1 0xFF AND PUSH2 0x3C33 JUMPI PUSH1 0x1 PUSH1 0xA PUSH0 DUP5 PUSH20 0xFFFFFFFFFFFFFFFFFFFFFFFFFFFFFFFFFFFFFFFF AND PUSH20 0xFFFFFFFFFFFFFFFFFFFFFFFFFFFFFFFFFFFFFFFF AND DUP2 MSTORE PUSH1 0x20 ADD SWAP1 DUP2 MSTORE PUSH1 0x20 ADD PUSH0 KECCAK256 PUSH0 DUP4 DUP2 MSTORE PUSH1 0x20 ADD SWAP1 DUP2 MSTORE PUSH1 0x20 ADD PUSH0 KECCAK256 PUSH0 PUSH2 0x100 EXP DUP2 SLOAD DUP2 PUSH1 0xFF MUL NOT AND SWAP1 DUP4 ISZERO ISZERO MUL OR SWAP1 SSTORE POP PUSH1 0x9 PUSH0 DUP4 PUSH20 0xFFFFFFFFFFFFFFFFFFFFFFFFFFFFFFFFFFFFFFFF AND PUSH20 0xFFFFFFFFFFFFFFFFFFFFFFFFFFFFFFFFFFFFFFFF AND DUP2 MSTORE PUSH1 0x20 ADD SWAP1 DUP2 MSTORE PUSH1 0x20 ADD PUSH0 KECCAK256 DUP2 SWAP1 DUP1 PUSH1 0x1 DUP2 SLOAD ADD DUP1 DUP3 SSTORE DUP1 SWAP2 POP POP PUSH1 0x1 SWAP1 SUB SWAP1 PUSH0 MSTORE PUSH1 0x20 PUSH0 KECCAK256 ADD PUSH0 SWAP1 SWAP2 SWAP1 SWAP2 SWAP1 SWAP2 POP SSTORE JUMPDEST POP POP JUMP JUMPDEST PUSH1 0x40 MLOAD DUP1 PUSH2 0x180 ADD PUSH1 0x40 MSTORE DUP1 PUSH0 DUP2 MSTORE PUSH1 0x20 ADD PUSH0 PUSH20 0xFFFFFFFFFFFFFFFFFFFFFFFFFFFFFFFFFFFFFFFF AND DUP2 MSTORE PUSH1 0x20 ADD PUSH0 PUSH20 0xFFFFFFFFFFFFFFFFFFFFFFFFFFFFFFFFFFFFFFFF AND DUP2 MSTORE PUSH1 0x20 ADD PUSH1 0x60 DUP2 MSTORE PUSH1 0x20 ADD PUSH1 0x60 DUP2 MSTORE PUSH1 0x20 ADD PUSH1 0x60 DUP2 MSTORE PUSH1 0x20 ADD PUSH0 DUP2 MSTORE PUSH1 0x20 ADD PUSH0 DUP2 MSTORE PUSH1 0x20 ADD PUSH0 PUSH1 0x6 DUP2 GT ISZERO PUSH2 0x3CB5 JUMPI PUSH2 0x3CB4 PUSH2 0x3F24 JUMP JUMPDEST JUMPDEST DUP2 MSTORE PUSH1 0x20 ADD PUSH1 0x60 DUP2 MSTORE PUSH1 0x20 ADD PUSH1 0x60 DUP2 MSTORE PUSH1 0x20 ADD PUSH0 ISZERO ISZERO DUP2 MSTORE POP SWAP1 JUMP JUMPDEST PUSH1 0x40 MLOAD DUP1 PUSH2 0x100 ADD PUSH1 0x40 MSTORE DUP1 PUSH0 DUP2 MSTORE PUSH1 0x20 ADD PUSH0 DUP2 MSTORE PUSH1 0x20 ADD PUSH0 PUSH20 0xFFFFFFFFFFFFFFFFFFFFFFFFFFFFFFFFFFFFFFFF AND DUP2 MSTORE PUSH1 0x20 ADD PUSH1 0x60 DUP2 MSTORE PUSH1 0x20 ADD PUSH0 PUSH1 0x4 DUP2 GT ISZERO PUSH2 0x3D1F JUMPI PUSH2 0x3D1E PUSH2 0x3F24 JUMP JUMPDEST JUMPDEST DUP2 MSTORE PUSH1 0x20 ADD PUSH0 DUP2 MSTORE PUSH1 0x20 ADD PUSH1 0x60 DUP2 MSTORE PUSH1 0x20 ADD PUSH0 DUP2 MSTORE POP SWAP1 JUMP JUMPDEST PUSH1 0x40 MLOAD DUP1 PUSH1 0xA0 ADD PUSH1 0x40 MSTORE DUP1 PUSH0 PUSH20 0xFFFFFFFFFFFFFFFFFFFFFFFFFFFFFFFFFFFFFFFF AND DUP2 MSTORE PUSH1 0x20 ADD PUSH1 0x60 DUP2 MSTORE PUSH1 0x20 ADD PUSH0 PUSH1 0x5 DUP2 GT ISZERO PUSH2 0x3D79 JUMPI PUSH2 0x3D78 PUSH2 0x3F24 JUMP JUMPDEST JUMPDEST DUP2 MSTORE PUSH1 0x20 ADD PUSH1 0x60 DUP2 MSTORE PUSH1 0x20 ADD PUSH0 ISZERO ISZERO DUP2 MSTORE POP SWAP1 JUMP JUMPDEST PUSH1 0x40 MLOAD DUP1 PUSH2 0x100 ADD PUSH1 0x40 MSTORE DUP1 PUSH0 DUP2 MSTORE PUSH1 0x20 ADD PUSH0 DUP2 MSTORE PUSH1 0x20 ADD PUSH0 PUSH1 0x4 DUP2 GT ISZERO PUSH2 0x3DB9 JUMPI PUSH2 0x3DB8 PUSH2 0x3F24 JUMP JUMPDEST JUMPDEST DUP2 MSTORE PUSH1 0x20 ADD PUSH0 PUSH20 0xFFFFFFFFFFFFFFFFFFFFFFFFFFFFFFFFFFFFFFFF AND DUP2 MSTORE PUSH1 0x20 ADD PUSH1 0x60 DUP2 MSTORE PUSH1 0x20 ADD PUSH0 DUP2 MSTORE PUSH1 0x20 ADD PUSH0 ISZERO ISZERO DUP2 MSTORE PUSH1 0x20 ADD PUSH1 0x60 DUP2 MSTORE POP SWAP1 JUMP JUMPDEST PUSH0 PUSH1 0x40 MLOAD SWAP1 POP SWAP1 JUMP JUMPDEST PUSH0 PUSH0 REVERT JUMPDEST PUSH0 PUSH0 REVERT JUMPDEST PUSH0 DUP2 SWAP1 POP SWAP2 SWAP1 POP JUMP JUMPDEST PUSH2 0x3E1A DUP2 PUSH2 0x3E08 JUMP JUMPDEST DUP2 EQ PUSH2 0x3E24 JUMPI PUSH0 PUSH0 REVERT JUMPDEST POP JUMP JUMPDEST PUSH0 DUP2 CALLDATALOAD SWAP1 POP PUSH2 0x3E35 DUP2 PUSH2 0x3E11 JUMP JUMPDEST SWAP3 SWAP2 POP POP JUMP JUMPDEST PUSH0 PUSH1 0x20 DUP3 DUP5 SUB SLT ISZERO PUSH2 0x3E50 JUMPI PUSH2 0x3E4F PUSH2 0x3E00 JUMP JUMPDEST JUMPDEST PUSH0 PUSH2 0x3E5D DUP5 DUP3 DUP6 ADD PUSH2 0x3E27 JUMP JUMPDEST SWAP2 POP POP SWAP3 SWAP2 POP POP JUMP JUMPDEST PUSH2 0x3E6F DUP2 PUSH2 0x3E08 JUMP JUMPDEST DUP3 MSTORE POP POP JUMP JUMPDEST PUSH0 PUSH20 0xFFFFFFFFFFFFFFFFFFFFFFFFFFFFFFFFFFFFFFFF DUP3 AND SWAP1 POP SWAP2 SWAP1 POP JUMP JUMPDEST PUSH0 PUSH2 0x3E9E DUP3 PUSH2 0x3E75 JUMP JUMPDEST SWAP1 POP SWAP2 SWAP1 POP JUMP JUMPDEST PUSH2 0x3EAE DUP2 PUSH2 0x3E94 JUMP JUMPDEST DUP3 MSTORE POP POP JUMP JUMPDEST PUSH0 DUP2 MLOAD SWAP1 POP SWAP2 SWAP1 POP JUMP JUMPDEST PUSH0 DUP3 DUP3 MSTORE PUSH1 0x20 DUP3 ADD SWAP1 POP SWAP3 SWAP2 POP POP JUMP JUMPDEST DUP3 DUP2 DUP4 MCOPY PUSH0 DUP4 DUP4 ADD MSTORE POP POP POP JUMP JUMPDEST PUSH0 PUSH1 0x1F NOT PUSH1 0x1F DUP4 ADD AND SWAP1 POP SWAP2 SWAP1 POP JUMP JUMPDEST PUSH0 PUSH2 0x3EF6 DUP3 PUSH2 0x3EB4 JUMP JUMPDEST PUSH2 0x3F00 DUP2 DUP6 PUSH2 0x3EBE JUMP JUMPDEST SWAP4 POP PUSH2 0x3F10 DUP2 DUP6 PUSH1 0x20 DUP7 ADD PUSH2 0x3ECE JUMP JUMPDEST PUSH2 0x3F19 DUP2 PUSH2 0x3EDC JUMP JUMPDEST DUP5 ADD SWAP2 POP POP SWAP3 SWAP2 POP POP JUMP JUMPDEST PUSH32 0x4E487B7100000000000000000000000000000000000000000000000000000000 PUSH0 MSTORE PUSH1 0x21 PUSH1 0x4 MSTORE PUSH1 0x24 PUSH0 REVERT JUMPDEST PUSH1 0x7 DUP2 LT PUSH2 0x3F62 JUMPI PUSH2 0x3F61 PUSH2 0x3F24 JUMP JUMPDEST JUMPDEST POP JUMP JUMPDEST PUSH0 DUP2 SWAP1 POP PUSH2 0x3F72 DUP3 PUSH2 0x3F51 JUMP JUMPDEST SWAP2 SWAP1 POP JUMP JUMPDEST PUSH0 PUSH2 0x3F81 DUP3 PUSH2 0x3F65 JUMP JUMPDEST SWAP1 POP SWAP2 SWAP1 POP JUMP JUMPDEST PUSH2 0x3F91 DUP2 PUSH2 0x3F77 JUMP JUMPDEST DUP3 MSTORE POP POP JUMP JUMPDEST PUSH0 DUP2 MLOAD SWAP1 POP SWAP2 SWAP1 POP JUMP JUMPDEST PUSH0 DUP3 DUP3 MSTORE PUSH1 0x20 DUP3 ADD SWAP1 POP SWAP3 SWAP2 POP POP JUMP JUMPDEST PUSH0 DUP2 SWAP1 POP PUSH1 0x20 DUP3 ADD SWAP1 POP SWAP2 SWAP1 POP JUMP JUMPDEST PUSH0 PUSH2 0x3FCB DUP4 DUP4 PUSH2 0x3E66 JUMP JUMPDEST PUSH1 0x20 DUP4 ADD SWAP1 POP SWAP3 SWAP2 POP POP JUMP JUMPDEST PUSH0 PUSH1 0x20 DUP3 ADD SWAP1 POP SWAP2 SWAP1 POP JUMP JUMPDEST PUSH0 PUSH2 0x3FED DUP3 PUSH2 0x3F97 JUMP JUMPDEST PUSH2 0x3FF7 DUP2 DUP6 PUSH2 0x3FA1 JUMP JUMPDEST SWAP4 POP PUSH2 0x4002 DUP4 PUSH2 0x3FB1 JUMP JUMPDEST DUP1 PUSH0 JUMPDEST DUP4 DUP2 LT ISZERO PUSH2 0x4032 JUMPI DUP2 MLOAD PUSH2 0x4019 DUP9 DUP3 PUSH2 0x3FC0 JUMP JUMPDEST SWAP8 POP PUSH2 0x4024 DUP4 PUSH2 0x3FD7 JUMP JUMPDEST SWAP3 POP POP PUSH1 0x1 DUP2 ADD SWAP1 POP PUSH2 0x4005 JUMP JUMPDEST POP DUP6 SWAP4 POP POP POP POP SWAP3 SWAP2 POP POP JUMP JUMPDEST PUSH0 DUP2 ISZERO ISZERO SWAP1 POP SWAP2 SWAP1 POP JUMP JUMPDEST PUSH2 0x4053 DUP2 PUSH2 0x403F JUMP JUMPDEST DUP3 MSTORE POP POP JUMP JUMPDEST PUSH0 PUSH2 0x180 DUP4 ADD PUSH0 DUP4 ADD MLOAD PUSH2 0x406F PUSH0 DUP7 ADD DUP3 PUSH2 0x3E66 JUMP JUMPDEST POP PUSH1 0x20 DUP4 ADD MLOAD PUSH2 0x4082 PUSH1 0x20 DUP7 ADD DUP3 PUSH2 0x3EA5 JUMP JUMPDEST POP PUSH1 0x40 DUP4 ADD MLOAD PUSH2 0x4095 PUSH1 0x40 DUP7 ADD DUP3 PUSH2 0x3EA5 JUMP JUMPDEST POP PUSH1 0x60 DUP4 ADD MLOAD DUP5 DUP3 SUB PUSH1 0x60 DUP7 ADD MSTORE PUSH2 0x40AD DUP3 DUP3 PUSH2 0x3EEC JUMP JUMPDEST SWAP2 POP POP PUSH1 0x80 DUP4 ADD MLOAD DUP5 DUP3 SUB PUSH1 0x80 DUP7 ADD MSTORE PUSH2 0x40C7 DUP3 DUP3 PUSH2 0x3EEC JUMP JUMPDEST SWAP2 POP POP PUSH1 0xA0 DUP4 ADD MLOAD DUP5 DUP3 SUB PUSH1 0xA0 DUP7 ADD MSTORE PUSH2 0x40E1 DUP3 DUP3 PUSH2 0x3EEC JUMP JUMPDEST SWAP2 POP POP PUSH1 0xC0 DUP4 ADD MLOAD PUSH2 0x40F6 PUSH1 0xC0 DUP7 ADD DUP3 PUSH2 0x3E66 JUMP JUMPDEST POP PUSH1 0xE0 DUP4 ADD MLOAD PUSH2 0x4109 PUSH1 0xE0 DUP7 ADD DUP3 PUSH2 0x3E66 JUMP JUMPDEST POP PUSH2 0x100 DUP4 ADD MLOAD PUSH2 0x411E PUSH2 0x100 DUP7 ADD DUP3 PUSH2 0x3F88 JUMP JUMPDEST POP PUSH2 0x120 DUP4 ADD MLOAD DUP5 DUP3 SUB PUSH2 0x120 DUP7 ADD MSTORE PUSH2 0x4138 DUP3 DUP3 PUSH2 0x3FE3 JUMP JUMPDEST SWAP2 POP POP PUSH2 0x140 DUP4 ADD MLOAD DUP5 DUP3 SUB PUSH2 0x140 DUP7 ADD MSTORE PUSH2 0x4154 DUP3 DUP3 PUSH2 0x3FE3 JUMP JUMPDEST SWAP2 POP POP PUSH2 0x160 DUP4 ADD MLOAD PUSH2 0x416B PUSH2 0x160 DUP7 ADD DUP3 PUSH2 0x404A JUMP JUMPDEST POP DUP1 SWAP2 POP POP SWAP3 SWAP2 POP POP JUMP JUMPDEST PUSH0 PUSH1 0x20 DUP3 ADD SWAP1 POP DUP2 DUP2 SUB PUSH0 DUP4 ADD MSTORE PUSH2 0x418E DUP2 DUP5 PUSH2 0x4059 JUMP JUMPDEST SWAP1 POP SWAP3 SWAP2 POP POP JUMP JUMPDEST PUSH0 PUSH0 REVERT JUMPDEST PUSH0 PUSH0 REVERT JUMPDEST PUSH32 0x4E487B7100000000000000000000000000000000000000000000000000000000 PUSH0 MSTORE PUSH1 0x41 PUSH1 0x4 MSTORE PUSH1 0x24 PUSH0 REVERT JUMPDEST PUSH2 0x41D4 DUP3 PUSH2 0x3EDC JUMP JUMPDEST DUP2 ADD DUP2 DUP2 LT PUSH8 0xFFFFFFFFFFFFFFFF DUP3 GT OR ISZERO PUSH2 0x41F3 JUMPI PUSH2 0x41F2 PUSH2 0x419E JUMP JUMPDEST JUMPDEST DUP1 PUSH1 0x40 MSTORE POP POP POP JUMP JUMPDEST PUSH0 PUSH2 0x4205 PUSH2 0x3DF7 JUMP JUMPDEST SWAP1 POP PUSH2 0x4211 DUP3 DUP3 PUSH2 0x41CB JUMP JUMPDEST SWAP2 SWAP1 POP JUMP JUMPDEST PUSH0 PUSH8 0xFFFFFFFFFFFFFFFF DUP3 GT ISZERO PUSH2 0x4230 JUMPI PUSH2 0x422F PUSH2 0x419E JUMP JUMPDEST JUMPDEST PUSH2 0x4239 DUP3 PUSH2 0x3EDC JUMP JUMPDEST SWAP1 POP PUSH1 0x20 DUP2 ADD SWAP1 POP SWAP2 SWAP1 POP JUMP JUMPDEST DUP3 DUP2 DUP4 CALLDATACOPY PUSH0 DUP4 DUP4 ADD MSTORE POP POP POP JUMP JUMPDEST PUSH0 PUSH2 0x4266 PUSH2 0x4261 DUP5 PUSH2 0x4216 JUMP JUMPDEST PUSH2 0x41FC JUMP JUMPDEST SWAP1 POP DUP3 DUP2 MSTORE PUSH1 0x20 DUP2 ADD DUP5 DUP5 DUP5 ADD GT ISZERO PUSH2 0x4282 JUMPI PUSH2 0x4281 PUSH2 0x419A JUMP JUMPDEST JUMPDEST PUSH2 0x428D DUP5 DUP3 DUP6 PUSH2 0x4246 JUMP JUMPDEST POP SWAP4 SWAP3 POP POP POP JUMP JUMPDEST PUSH0 DUP3 PUSH1 0x1F DUP4 ADD SLT PUSH2 0x42A9 JUMPI PUSH2 0x42A8 PUSH2 0x4196 JUMP JUMPDEST JUMPDEST DUP2 CALLDATALOAD PUSH2 0x42B9 DUP5 DUP3 PUSH1 0x20 DUP7 ADD PUSH2 0x4254 JUMP JUMPDEST SWAP2 POP POP SWAP3 SWAP2 POP POP JUMP JUMPDEST PUSH1 0x5 DUP2 LT PUSH2 0x42CE JUMPI PUSH0 PUSH0 REVERT JUMPDEST POP JUMP JUMPDEST PUSH0 DUP2 CALLDATALOAD SWAP1 POP PUSH2 0x42DF DUP2 PUSH2 0x42C2 JUMP JUMPDEST SWAP3 SWAP2 POP POP JUMP JUMPDEST PUSH0 DUP2 SWAP1 POP SWAP2 SWAP1 POP JUMP JUMPDEST PUSH2 0x42F7 DUP2 PUSH2 0x42E5 JUMP JUMPDEST DUP2 EQ PUSH2 0x4301 JUMPI PUSH0 PUSH0 REVERT JUMPDEST POP JUMP JUMPDEST PUSH0 DUP2 CALLDATALOAD SWAP1 POP PUSH2 0x4312 DUP2 PUSH2 0x42EE JUMP JUMPDEST SWAP3 SWAP2 POP POP JUMP JUMPDEST PUSH0 PUSH0 PUSH0 PUSH0 PUSH0 PUSH1 0xA0 DUP7 DUP9 SUB SLT ISZERO PUSH2 0x4331 JUMPI PUSH2 0x4330 PUSH2 0x3E00 JUMP JUMPDEST JUMPDEST PUSH0 PUSH2 0x433E DUP9 DUP3 DUP10 ADD PUSH2 0x3E27 JUMP JUMPDEST SWAP6 POP POP PUSH1 0x20 DUP7 ADD CALLDATALOAD PUSH8 0xFFFFFFFFFFFFFFFF DUP2 GT ISZERO PUSH2 0x435F JUMPI PUSH2 0x435E PUSH2 0x3E04 JUMP JUMPDEST JUMPDEST PUSH2 0x436B DUP9 DUP3 DUP10 ADD PUSH2 0x4295 JUMP JUMPDEST SWAP5 POP POP PUSH1 0x40 PUSH2 0x437C DUP9 DUP3 DUP10 ADD PUSH2 0x42D1 JUMP JUMPDEST SWAP4 POP POP PUSH1 0x60 DUP7 ADD CALLDATALOAD PUSH8 0xFFFFFFFFFFFFFFFF DUP2 GT ISZERO PUSH2 0x439D JUMPI PUSH2 0x439C PUSH2 0x3E04 JUMP JUMPDEST JUMPDEST PUSH2 0x43A9 DUP9 DUP3 DUP10 ADD PUSH2 0x4295 JUMP JUMPDEST SWAP3 POP POP PUSH1 0x80 PUSH2 0x43BA DUP9 DUP3 DUP10 ADD PUSH2 0x4304 JUMP JUMPDEST SWAP2 POP POP SWAP3 SWAP6 POP SWAP3 SWAP6 SWAP1 SWAP4 POP JUMP JUMPDEST PUSH2 0x43D0 DUP2 PUSH2 0x3E08 JUMP JUMPDEST DUP3 MSTORE POP POP JUMP JUMPDEST PUSH0 PUSH1 0x20 DUP3 ADD SWAP1 POP PUSH2 0x43E9 PUSH0 DUP4 ADD DUP5 PUSH2 0x43C7 JUMP JUMPDEST SWAP3 SWAP2 POP POP JUMP JUMPDEST PUSH2 0x43F8 DUP2 PUSH2 0x3E94 JUMP JUMPDEST DUP2 EQ PUSH2 0x4402 JUMPI PUSH0 PUSH0 REVERT JUMPDEST POP JUMP JUMPDEST PUSH0 DUP2 CALLDATALOAD SWAP1 POP PUSH2 0x4413 DUP2 PUSH2 0x43EF JUMP JUMPDEST SWAP3 SWAP2 POP POP JUMP JUMPDEST PUSH0 PUSH1 0x20 DUP3 DUP5 SUB SLT ISZERO PUSH2 0x442E JUMPI PUSH2 0x442D PUSH2 0x3E00 JUMP JUMPDEST JUMPDEST PUSH0 PUSH2 0x443B DUP5 DUP3 DUP6 ADD PUSH2 0x4405 JUMP JUMPDEST SWAP2 POP POP SWAP3 SWAP2 POP POP JUMP JUMPDEST PUSH0 PUSH0 PUSH0 PUSH1 0x60 DUP5 DUP7 SUB SLT ISZERO PUSH2 0x445B JUMPI PUSH2 0x445A PUSH2 0x3E00 JUMP JUMPDEST JUMPDEST PUSH0 PUSH2 0x4468 DUP7 DUP3 DUP8 ADD PUSH2 0x3E27 JUMP JUMPDEST SWAP4 POP POP PUSH1 0x20 PUSH2 0x4479 DUP7 DUP3 DUP8 ADD PUSH2 0x3E27 JUMP JUMPDEST SWAP3 POP POP PUSH1 0x40 PUSH2 0x448A DUP7 DUP3 DUP8 ADD PUSH2 0x3E27 JUMP JUMPDEST SWAP2 POP POP SWAP3 POP SWAP3 POP SWAP3 JUMP JUMPDEST PUSH0 DUP2 MLOAD SWAP1 POP SWAP2 SWAP1 POP JUMP JUMPDEST PUSH0 DUP3 DUP3 MSTORE PUSH1 0x20 DUP3 ADD SWAP1 POP SWAP3 SWAP2 POP POP JUMP JUMPDEST PUSH0 DUP2 SWAP1 POP PUSH1 0x20 DUP3 ADD SWAP1 POP SWAP2 SWAP1 POP JUMP JUMPDEST PUSH1 0x5 DUP2 LT PUSH2 0x44CE JUMPI PUSH2 0x44CD PUSH2 0x3F24 JUMP JUMPDEST JUMPDEST POP JUMP JUMPDEST PUSH0 DUP2 SWAP1 POP PUSH2 0x44DE DUP3 PUSH2 0x44BD JUMP JUMPDEST SWAP2 SWAP1 POP JUMP JUMPDEST PUSH0 PUSH2 0x44ED DUP3 PUSH2 0x44D1 JUMP JUMPDEST SWAP1 POP SWAP2 SWAP1 POP JUMP JUMPDEST PUSH2 0x44FD DUP2 PUSH2 0x44E3 JUMP JUMPDEST DUP3 MSTORE POP POP JUMP JUMPDEST PUSH2 0x450C DUP2 PUSH2 0x42E5 JUMP JUMPDEST DUP3 MSTORE POP POP JUMP JUMPDEST PUSH0 PUSH2 0x100 DUP4 ADD PUSH0 DUP4 ADD MLOAD PUSH2 0x4528 PUSH0 DUP7 ADD DUP3 PUSH2 0x3E66 JUMP JUMPDEST POP PUSH1 0x20 DUP4 ADD MLOAD PUSH2 0x453B PUSH1 0x20 DUP7 ADD DUP3 PUSH2 0x3E66 JUMP JUMPDEST POP PUSH1 0x40 DUP4 ADD MLOAD PUSH2 0x454E PUSH1 0x40 DUP7 ADD DUP3 PUSH2 0x3EA5 JUMP JUMPDEST POP PUSH1 0x60 DUP4 ADD MLOAD DUP5 DUP3 SUB PUSH1 0x60 DUP7 ADD MSTORE PUSH2 0x4566 DUP3 DUP3 PUSH2 0x3EEC JUMP JUMPDEST SWAP2 POP POP PUSH1 0x80 DUP4 ADD MLOAD PUSH2 0x457B PUSH1 0x80 DUP7 ADD DUP3 PUSH2 0x44F4 JUMP JUMPDEST POP PUSH1 0xA0 DUP4 ADD MLOAD PUSH2 0x458E PUSH1 0xA0 DUP7 ADD DUP3 PUSH2 0x3E66 JUMP JUMPDEST POP PUSH1 0xC0 DUP4 ADD MLOAD DUP5 DUP3 SUB PUSH1 0xC0 DUP7 ADD MSTORE PUSH2 0x45A6 DUP3 DUP3 PUSH2 0x3EEC JUMP JUMPDEST SWAP2 POP POP PUSH1 0xE0 DUP4 ADD MLOAD PUSH2 0x45BB PUSH1 0xE0 DUP7 ADD DUP3 PUSH2 0x4503 JUMP JUMPDEST POP DUP1 SWAP2 POP POP SWAP3 SWAP2 POP POP JUMP JUMPDEST PUSH0 PUSH2 0x45D1 DUP4 DUP4 PUSH2 0x4512 JUMP JUMPDEST SWAP1 POP SWAP3 SWAP2 POP POP JUMP JUMPDEST PUSH0 PUSH1 0x20 DUP3 ADD SWAP1 POP SWAP2 SWAP1 POP JUMP JUMPDEST PUSH0 PUSH2 0x45EF DUP3 PUSH2 0x4494 JUMP JUMPDEST PUSH2 0x45F9 DUP2 DUP6 PUSH2 0x449E JUMP JUMPDEST SWAP4 POP DUP4 PUSH1 0x20 DUP3 MUL DUP6 ADD PUSH2 0x460B DUP6 PUSH2 0x44AE JUMP JUMPDEST DUP1 PUSH0 JUMPDEST DUP6 DUP2 LT ISZERO PUSH2 0x4646 JUMPI DUP5 DUP5 SUB DUP10 MSTORE DUP2 MLOAD PUSH2 0x4627 DUP6 DUP3 PUSH2 0x45C6 JUMP JUMPDEST SWAP5 POP PUSH2 0x4632 DUP4 PUSH2 0x45D9 JUMP JUMPDEST SWAP3 POP PUSH1 0x20 DUP11 ADD SWAP10 POP POP PUSH1 0x1 DUP2 ADD SWAP1 POP PUSH2 0x460E JUMP JUMPDEST POP DUP3 SWAP8 POP DUP8 SWAP6 POP POP POP POP POP POP SWAP3 SWAP2 POP POP JUMP JUMPDEST PUSH0 PUSH1 0x20 DUP3 ADD SWAP1 POP DUP2 DUP2 SUB PUSH0 DUP4 ADD MSTORE PUSH2 0x4670 DUP2 DUP5 PUSH2 0x45E5 JUMP JUMPDEST SWAP1 POP SWAP3 SWAP2 POP POP JUMP JUMPDEST PUSH0 PUSH2 0x100 DUP4 ADD PUSH0 DUP4 ADD MLOAD PUSH2 0x468E PUSH0 DUP7 ADD DUP3 PUSH2 0x3E66 JUMP JUMPDEST POP PUSH1 0x20 DUP4 ADD MLOAD PUSH2 0x46A1 PUSH1 0x20 DUP7 ADD DUP3 PUSH2 0x3E66 JUMP JUMPDEST POP PUSH1 0x40 DUP4 ADD MLOAD PUSH2 0x46B4 PUSH1 0x40 DUP7 ADD DUP3 PUSH2 0x3EA5 JUMP JUMPDEST POP PUSH1 0x60 DUP4 ADD MLOAD DUP5 DUP3 SUB PUSH1 0x60 DUP7 ADD MSTORE PUSH2 0x46CC DUP3 DUP3 PUSH2 0x3EEC JUMP JUMPDEST SWAP2 POP POP PUSH1 0x80 DUP4 ADD MLOAD PUSH2 0x46E1 PUSH1 0x80 DUP7 ADD DUP3 PUSH2 0x44F4 JUMP JUMPDEST POP PUSH1 0xA0 DUP4 ADD MLOAD PUSH2 0x46F4 PUSH1 0xA0 DUP7 ADD DUP3 PUSH2 0x3E66 JUMP JUMPDEST POP PUSH1 0xC0 DUP4 ADD MLOAD DUP5 DUP3 SUB PUSH1 0xC0 DUP7 ADD MSTORE PUSH2 0x470C DUP3 DUP3 PUSH2 0x3EEC JUMP JUMPDEST SWAP2 POP POP PUSH1 0xE0 DUP4 ADD MLOAD PUSH2 0x4721 PUSH1 0xE0 DUP7 ADD DUP3 PUSH2 0x4503 JUMP JUMPDEST POP DUP1 SWAP2 POP POP SWAP3 SWAP2 POP POP JUMP JUMPDEST PUSH0 PUSH1 0x20 DUP3 ADD SWAP1 POP DUP2 DUP2 SUB PUSH0 DUP4 ADD MSTORE PUSH2 0x4744 DUP2 DUP5 PUSH2 0x4678 JUMP JUMPDEST SWAP1 POP SWAP3 SWAP2 POP POP JUMP JUMPDEST PUSH2 0x4755 DUP2 PUSH2 0x3E94 JUMP JUMPDEST DUP3 MSTORE POP POP JUMP JUMPDEST PUSH0 PUSH1 0x20 DUP3 ADD SWAP1 POP PUSH2 0x476E PUSH0 DUP4 ADD DUP5 PUSH2 0x474C JUMP JUMPDEST SWAP3 SWAP2 POP POP JUMP JUMPDEST PUSH2 0x477D DUP2 PUSH2 0x42E5 JUMP JUMPDEST DUP3 MSTORE POP POP JUMP JUMPDEST PUSH0 PUSH1 0x20 DUP3 ADD SWAP1 POP PUSH2 0x4796 PUSH0 DUP4 ADD DUP5 PUSH2 0x4774 JUMP JUMPDEST SWAP3 SWAP2 POP POP JUMP JUMPDEST PUSH1 0x6 DUP2 LT PUSH2 0x47AD JUMPI PUSH2 0x47AC PUSH2 0x3F24 JUMP JUMPDEST JUMPDEST POP JUMP JUMPDEST PUSH0 DUP2 SWAP1 POP PUSH2 0x47BD DUP3 PUSH2 0x479C JUMP JUMPDEST SWAP2 SWAP1 POP JUMP JUMPDEST PUSH0 PUSH2 0x47CC DUP3 PUSH2 0x47B0 JUMP JUMPDEST SWAP1 POP SWAP2 SWAP1 POP JUMP JUMPDEST PUSH2 0x47DC DUP2 PUSH2 0x47C2 JUMP JUMPDEST DUP3 MSTORE POP POP JUMP JUMPDEST PUSH0 PUSH1 0xA0 DUP4 ADD PUSH0 DUP4 ADD MLOAD PUSH2 0x47F7 PUSH0 DUP7 ADD DUP3 PUSH2 0x3EA5 JUMP JUMPDEST POP PUSH1 0x20 DUP4 ADD MLOAD DUP5 DUP3 SUB PUSH1 0x20 DUP7 ADD MSTORE PUSH2 0x480F DUP3 DUP3 PUSH2 0x3EEC JUMP JUMPDEST SWAP2 POP POP PUSH1 0x40 DUP4 ADD MLOAD PUSH2 0x4824 PUSH1 0x40 DUP7 ADD DUP3 PUSH2 0x47D3 JUMP JUMPDEST POP PUSH1 0x60 DUP4 ADD MLOAD DUP5 DUP3 SUB PUSH1 0x60 DUP7 ADD MSTORE PUSH2 0x483C DUP3 DUP3 PUSH2 0x3EEC JUMP JUMPDEST SWAP2 POP POP PUSH1 0x80 DUP4 ADD MLOAD PUSH2 0x4851 PUSH1 0x80 DUP7 ADD DUP3 PUSH2 0x404A JUMP JUMPDEST POP DUP1 SWAP2 POP POP SWAP3 SWAP2 POP POP JUMP JUMPDEST PUSH0 PUSH1 0x20 DUP3 ADD SWAP1 POP DUP2 DUP2 SUB PUSH0 DUP4 ADD MSTORE PUSH2 0x4874 DUP2 DUP5 PUSH2 0x47E2 JUMP JUMPDEST SWAP1 POP SWAP3 SWAP2 POP POP JUMP JUMPDEST PUSH2 0x4885 DUP2 PUSH2 0x403F JUMP JUMPDEST DUP2 EQ PUSH2 0x488F JUMPI PUSH0 PUSH0 REVERT JUMPDEST POP JUMP JUMPDEST PUSH0 DUP2 CALLDATALOAD SWAP1 POP PUSH2 0x48A0 DUP2 PUSH2 0x487C JUMP JUMPDEST SWAP3 SWAP2 POP POP JUMP JUMPDEST PUSH0 PUSH0 PUSH0 PUSH0 PUSH0 PUSH1 0xA0 DUP7 DUP9 SUB SLT ISZERO PUSH2 0x48BF JUMPI PUSH2 0x48BE PUSH2 0x3E00 JUMP JUMPDEST JUMPDEST PUSH0 PUSH2 0x48CC DUP9 DUP3 DUP10 ADD PUSH2 0x4405 JUMP JUMPDEST SWAP6 POP POP PUSH1 0x20 DUP7 ADD CALLDATALOAD PUSH8 0xFFFFFFFFFFFFFFFF DUP2 GT ISZERO PUSH2 0x48ED JUMPI PUSH2 0x48EC PUSH2 0x3E04 JUMP JUMPDEST JUMPDEST PUSH2 0x48F9 DUP9 DUP3 DUP10 ADD PUSH2 0x4295 JUMP JUMPDEST SWAP5 POP POP PUSH1 0x40 DUP7 ADD CALLDATALOAD PUSH8 0xFFFFFFFFFFFFFFFF DUP2 GT ISZERO PUSH2 0x491A JUMPI PUSH2 0x4919 PUSH2 0x3E04 JUMP JUMPDEST JUMPDEST PUSH2 0x4926 DUP9 DUP3 DUP10 ADD PUSH2 0x4295 JUMP JUMPDEST SWAP4 POP POP PUSH1 0x60 DUP7 ADD CALLDATALOAD PUSH8 0xFFFFFFFFFFFFFFFF DUP2 GT ISZERO PUSH2 0x4947 JUMPI PUSH2 0x4946 PUSH2 0x3E04 JUMP JUMPDEST JUMPDEST PUSH2 0x4953 DUP9 DUP3 DUP10 ADD PUSH2 0x4295 JUMP JUMPDEST SWAP3 POP POP PUSH1 0x80 PUSH2 0x4964 DUP9 DUP3 DUP10 ADD PUSH2 0x4892 JUMP JUMPDEST SWAP2 POP POP SWAP3 SWAP6 POP SWAP3 SWAP6 SWAP1 SWAP4 POP JUMP JUMPDEST PUSH0 DUP2 MLOAD SWAP1 POP SWAP2 SWAP1 POP JUMP JUMPDEST PUSH0 DUP3 DUP3 MSTORE PUSH1 0x20 DUP3 ADD SWAP1 POP SWAP3 SWAP2 POP POP JUMP JUMPDEST PUSH0 DUP2 SWAP1 POP PUSH1 0x20 DUP3 ADD SWAP1 POP SWAP2 SWAP1 POP JUMP JUMPDEST PUSH1 0x5 DUP2 LT PUSH2 0x49AB JUMPI PUSH2 0x49AA PUSH2 0x3F24 JUMP JUMPDEST JUMPDEST POP JUMP JUMPDEST PUSH0 DUP2 SWAP1 POP PUSH2 0x49BB DUP3 PUSH2 0x499A JUMP JUMPDEST SWAP2 SWAP1 POP JUMP JUMPDEST PUSH0 PUSH2 0x49CA DUP3 PUSH2 0x49AE JUMP JUMPDEST SWAP1 POP SWAP2 SWAP1 POP JUMP JUMPDEST PUSH2 0x49DA DUP2 PUSH2 0x49C0 JUMP JUMPDEST DUP3 MSTORE POP POP JUMP JUMPDEST PUSH0 PUSH2 0x100 DUP4 ADD PUSH0 DUP4 ADD MLOAD PUSH2 0x49F6 PUSH0 DUP7 ADD DUP3 PUSH2 0x3E66 JUMP JUMPDEST POP PUSH1 0x20 DUP4 ADD MLOAD PUSH2 0x4A09 PUSH1 0x20 DUP7 ADD DUP3 PUSH2 0x3E66 JUMP JUMPDEST POP PUSH1 0x40 DUP4 ADD MLOAD PUSH2 0x4A1C PUSH1 0x40 DUP7 ADD DUP3 PUSH2 0x49D1 JUMP JUMPDEST POP PUSH1 0x60 DUP4 ADD MLOAD PUSH2 0x4A2F PUSH1 0x60 DUP7 ADD DUP3 PUSH2 0x3EA5 JUMP JUMPDEST POP PUSH1 0x80 DUP4 ADD MLOAD DUP5 DUP3 SUB PUSH1 0x80 DUP7 ADD MSTORE PUSH2 0x4A47 DUP3 DUP3 PUSH2 0x3EEC JUMP JUMPDEST SWAP2 POP POP PUSH1 0xA0 DUP4 ADD MLOAD PUSH2 0x4A5C PUSH1 0xA0 DUP7 ADD DUP3 PUSH2 0x3E66 JUMP JUMPDEST POP PUSH1 0xC0 DUP4 ADD MLOAD PUSH2 0x4A6F PUSH1 0xC0 DUP7 ADD DUP3 PUSH2 0x404A JUMP JUMPDEST POP PUSH1 0xE0 DUP4 ADD MLOAD DUP5 DUP3 SUB PUSH1 0xE0 DUP7 ADD MSTORE PUSH2 0x4A87 DUP3 DUP3 PUSH2 0x3EEC JUMP JUMPDEST SWAP2 POP POP DUP1 SWAP2 POP POP SWAP3 SWAP2 POP POP JUMP JUMPDEST PUSH0 PUSH2 0x4A9F DUP4 DUP4 PUSH2 0x49E0 JUMP JUMPDEST SWAP1 POP SWAP3 SWAP2 POP POP JUMP JUMPDEST PUSH0 PUSH1 0x20 DUP3 ADD SWAP1 POP SWAP2 SWAP1 POP JUMP JUMPDEST PUSH0 PUSH2 0x4ABD DUP3 PUSH2 0x4971 JUMP JUMPDEST PUSH2 0x4AC7 DUP2 DUP6 PUSH2 0x497B JUMP JUMPDEST SWAP4 POP DUP4 PUSH1 0x20 DUP3 MUL DUP6 ADD PUSH2 0x4AD9 DUP6 PUSH2 0x498B JUMP JUMPDEST DUP1 PUSH0 JUMPDEST DUP6 DUP2 LT ISZERO PUSH2 0x4B14 JUMPI DUP5 DUP5 SUB DUP10 MSTORE DUP2 MLOAD PUSH2 0x4AF5 DUP6 DUP3 PUSH2 0x4A94 JUMP JUMPDEST SWAP5 POP PUSH2 0x4B00 DUP4 PUSH2 0x4AA7 JUMP JUMPDEST SWAP3 POP PUSH1 0x20 DUP11 ADD SWAP10 POP POP PUSH1 0x1 DUP2 ADD SWAP1 POP PUSH2 0x4ADC JUMP JUMPDEST POP DUP3 SWAP8 POP DUP8 SWAP6 POP POP POP POP POP POP SWAP3 SWAP2 POP POP JUMP JUMPDEST PUSH0 PUSH1 0x20 DUP3 ADD SWAP1 POP DUP2 DUP2 SUB PUSH0 DUP4 ADD MSTORE PUSH2 0x4B3E DUP2 DUP5 PUSH2 0x4AB3 JUMP JUMPDEST SWAP1 POP SWAP3 SWAP2 POP POP JUMP JUMPDEST PUSH0 PUSH0 REVERT JUMPDEST PUSH0 PUSH0 REVERT JUMPDEST PUSH0 PUSH0 DUP4 PUSH1 0x1F DUP5 ADD SLT PUSH2 0x4B63 JUMPI PUSH2 0x4B62 PUSH2 0x4196 JUMP JUMPDEST JUMPDEST DUP3 CALLDATALOAD SWAP1 POP PUSH8 0xFFFFFFFFFFFFFFFF DUP2 GT ISZERO PUSH2 0x4B80 JUMPI PUSH2 0x4B7F PUSH2 0x4B46 JUMP JUMPDEST JUMPDEST PUSH1 0x20 DUP4 ADD SWAP2 POP DUP4 PUSH1 0x1 DUP3 MUL DUP4 ADD GT ISZERO PUSH2 0x4B9C JUMPI PUSH2 0x4B9B PUSH2 0x4B4A JUMP JUMPDEST JUMPDEST SWAP3 POP SWAP3 SWAP1 POP JUMP JUMPDEST PUSH0 PUSH0 PUSH0 PUSH1 0x40 DUP5 DUP7 SUB SLT ISZERO PUSH2 0x4BBA JUMPI PUSH2 0x4BB9 PUSH2 0x3E00 JUMP JUMPDEST JUMPDEST PUSH0 PUSH2 0x4BC7 DUP7 DUP3 DUP8 ADD PUSH2 0x3E27 JUMP JUMPDEST SWAP4 POP POP PUSH1 0x20 DUP5 ADD CALLDATALOAD PUSH8 0xFFFFFFFFFFFFFFFF DUP2 GT ISZERO PUSH2 0x4BE8 JUMPI PUSH2 0x4BE7 PUSH2 0x3E04 JUMP JUMPDEST JUMPDEST PUSH2 0x4BF4 DUP7 DUP3 DUP8 ADD PUSH2 0x4B4E JUMP JUMPDEST SWAP3 POP SWAP3 POP POP SWAP3 POP SWAP3 POP SWAP3 JUMP JUMPDEST PUSH0 DUP3 DUP3 MSTORE PUSH1 0x20 DUP3 ADD SWAP1 POP SWAP3 SWAP2 POP POP JUMP JUMPDEST PUSH0 PUSH2 0x4C1A DUP3 PUSH2 0x3F97 JUMP JUMPDEST PUSH2 0x4C24 DUP2 DUP6 PUSH2 0x4C00 JUMP JUMPDEST SWAP4 POP PUSH2 0x4C2F DUP4 PUSH2 0x3FB1 JUMP JUMPDEST DUP1 PUSH0 JUMPDEST DUP4 DUP2 LT ISZERO PUSH2 0x4C5F JUMPI DUP2 MLOAD PUSH2 0x4C46 DUP9 DUP3 PUSH2 0x3FC0 JUMP JUMPDEST SWAP8 POP PUSH2 0x4C51 DUP4 PUSH2 0x3FD7 JUMP JUMPDEST SWAP3 POP POP PUSH1 0x1 DUP2 ADD SWAP1 POP PUSH2 0x4C32 JUMP JUMPDEST POP DUP6 SWAP4 POP POP POP POP SWAP3 SWAP2 POP POP JUMP JUMPDEST PUSH0 PUSH1 0x20 DUP3 ADD SWAP1 POP DUP2 DUP2 SUB PUSH0 DUP4 ADD MSTORE PUSH2 0x4C84 DUP2 DUP5 PUSH2 0x4C10 JUMP JUMPDEST SWAP1 POP SWAP3 SWAP2 POP POP JUMP JUMPDEST PUSH1 0x7 DUP2 LT PUSH2 0x4C98 JUMPI PUSH0 PUSH0 REVERT JUMPDEST POP JUMP JUMPDEST PUSH0 DUP2 CALLDATALOAD SWAP1 POP PUSH2 0x4CA9 DUP2 PUSH2 0x4C8C JUMP JUMPDEST SWAP3 SWAP2 POP POP JUMP JUMPDEST PUSH0 PUSH0 PUSH1 0x40 DUP4 DUP6 SUB SLT ISZERO PUSH2 0x4CC5 JUMPI PUSH2 0x4CC4 PUSH2 0x3E00 JUMP JUMPDEST JUMPDEST PUSH0 PUSH2 0x4CD2 DUP6 DUP3 DUP7 ADD PUSH2 0x3E27 JUMP JUMPDEST SWAP3 POP POP PUSH1 0x20 PUSH2 0x4CE3 DUP6 DUP3 DUP7 ADD PUSH2 0x4C9B JUMP JUMPDEST SWAP2 POP POP SWAP3 POP SWAP3 SWAP1 POP JUMP JUMPDEST PUSH2 0x4CF6 DUP2 PUSH2 0x403F JUMP JUMPDEST DUP3 MSTORE POP POP JUMP JUMPDEST PUSH0 PUSH1 0x20 DUP3 ADD SWAP1 POP PUSH2 0x4D0F PUSH0 DUP4 ADD DUP5 PUSH2 0x4CED JUMP JUMPDEST SWAP3 SWAP2 POP POP JUMP JUMPDEST PUSH0 PUSH2 0x100 DUP4 ADD PUSH0 DUP4 ADD MLOAD PUSH2 0x4D2B PUSH0 DUP7 ADD DUP3 PUSH2 0x3E66 JUMP JUMPDEST POP PUSH1 0x20 DUP4 ADD MLOAD PUSH2 0x4D3E PUSH1 0x20 DUP7 ADD DUP3 PUSH2 0x3E66 JUMP JUMPDEST POP PUSH1 0x40 DUP4 ADD MLOAD PUSH2 0x4D51 PUSH1 0x40 DUP7 ADD DUP3 PUSH2 0x49D1 JUMP JUMPDEST POP PUSH1 0x60 DUP4 ADD MLOAD PUSH2 0x4D64 PUSH1 0x60 DUP7 ADD DUP3 PUSH2 0x3EA5 JUMP JUMPDEST POP PUSH1 0x80 DUP4 ADD MLOAD DUP5 DUP3 SUB PUSH1 0x80 DUP7 ADD MSTORE PUSH2 0x4D7C DUP3 DUP3 PUSH2 0x3EEC JUMP JUMPDEST SWAP2 POP POP PUSH1 0xA0 DUP4 ADD MLOAD PUSH2 0x4D91 PUSH1 0xA0 DUP7 ADD DUP3 PUSH2 0x3E66 JUMP JUMPDEST POP PUSH1 0xC0 DUP4 ADD MLOAD PUSH2 0x4DA4 PUSH1 0xC0 DUP7 ADD DUP3 PUSH2 0x404A JUMP JUMPDEST POP PUSH1 0xE0 DUP4 ADD MLOAD DUP5 DUP3 SUB PUSH1 0xE0 DUP7 ADD MSTORE PUSH2 0x4DBC DUP3 DUP3 PUSH2 0x3EEC JUMP JUMPDEST SWAP2 POP POP DUP1 SWAP2 POP POP SWAP3 SWAP2 POP POP JUMP JUMPDEST PUSH0 PUSH1 0x20 DUP3 ADD SWAP1 POP DUP2 DUP2 SUB PUSH0 DUP4 ADD MSTORE PUSH2 0x4DE1 DUP2 DUP5 PUSH2 0x4D15 JUMP JUMPDEST SWAP1 POP SWAP3 SWAP2 POP POP JUMP JUMPDEST PUSH1 0x6 DUP2 LT PUSH2 0x4DF5 JUMPI PUSH0 PUSH0 REVERT JUMPDEST POP JUMP JUMPDEST PUSH0 DUP2 CALLDATALOAD SWAP1 POP PUSH2 0x4E06 DUP2 PUSH2 0x4DE9 JUMP JUMPDEST SWAP3 SWAP2 POP POP JUMP JUMPDEST PUSH0 PUSH0 PUSH0 PUSH0 PUSH1 0x80 DUP6 DUP8 SUB SLT ISZERO PUSH2 0x4E24 JUMPI PUSH2 0x4E23 PUSH2 0x3E00 JUMP JUMPDEST JUMPDEST PUSH0 DUP6 ADD CALLDATALOAD PUSH8 0xFFFFFFFFFFFFFFFF DUP2 GT ISZERO PUSH2 0x4E41 JUMPI PUSH2 0x4E40 PUSH2 0x3E04 JUMP JUMPDEST JUMPDEST PUSH2 0x4E4D DUP8 DUP3 DUP9 ADD PUSH2 0x4295 JUMP JUMPDEST SWAP5 POP POP PUSH1 0x20 PUSH2 0x4E5E DUP8 DUP3 DUP9 ADD PUSH2 0x4DF8 JUMP JUMPDEST SWAP4 POP POP PUSH1 0x40 DUP6 ADD CALLDATALOAD PUSH8 0xFFFFFFFFFFFFFFFF DUP2 GT ISZERO PUSH2 0x4E7F JUMPI PUSH2 0x4E7E PUSH2 0x3E04 JUMP JUMPDEST JUMPDEST PUSH2 0x4E8B DUP8 DUP3 DUP9 ADD PUSH2 0x4295 JUMP JUMPDEST SWAP3 POP POP PUSH1 0x60 PUSH2 0x4E9C DUP8 DUP3 DUP9 ADD PUSH2 0x4405 JUMP JUMPDEST SWAP2 POP POP SWAP3 SWAP6 SWAP2 SWAP5 POP SWAP3 POP JUMP JUMPDEST PUSH1 0x5 DUP2 LT PUSH2 0x4EB4 JUMPI PUSH0 PUSH0 REVERT JUMPDEST POP JUMP JUMPDEST PUSH0 DUP2 CALLDATALOAD SWAP1 POP PUSH2 0x4EC5 DUP2 PUSH2 0x4EA8 JUMP JUMPDEST SWAP3 SWAP2 POP POP JUMP JUMPDEST PUSH0 PUSH0 PUSH0 PUSH1 0x60 DUP5 DUP7 SUB SLT ISZERO PUSH2 0x4EE2 JUMPI PUSH2 0x4EE1 PUSH2 0x3E00 JUMP JUMPDEST JUMPDEST PUSH0 PUSH2 0x4EEF DUP7 DUP3 DUP8 ADD PUSH2 0x3E27 JUMP JUMPDEST SWAP4 POP POP PUSH1 0x20 PUSH2 0x4F00 DUP7 DUP3 DUP8 ADD PUSH2 0x4EB7 JUMP JUMPDEST SWAP3 POP POP PUSH1 0x40 DUP5 ADD CALLDATALOAD PUSH8 0xFFFFFFFFFFFFFFFF DUP2 GT ISZERO PUSH2 0x4F21 JUMPI PUSH2 0x4F20 PUSH2 0x3E04 JUMP JUMPDEST JUMPDEST PUSH2 0x4F2D DUP7 DUP3 DUP8 ADD PUSH2 0x4295 JUMP JUMPDEST SWAP2 POP POP SWAP3 POP SWAP3 POP SWAP3 JUMP JUMPDEST PUSH32 0x4E487B7100000000000000000000000000000000000000000000000000000000 PUSH0 MSTORE PUSH1 0x22 PUSH1 0x4 MSTORE PUSH1 0x24 PUSH0 REVERT JUMPDEST PUSH0 PUSH1 0x2 DUP3 DIV SWAP1 POP PUSH1 0x1 DUP3 AND DUP1 PUSH2 0x4F7B JUMPI PUSH1 0x7F DUP3 AND SWAP2 POP JUMPDEST PUSH1 0x20 DUP3 LT DUP2 SUB PUSH2 0x4F8E JUMPI PUSH2 0x4F8D PUSH2 0x4F37 JUMP JUMPDEST JUMPDEST POP SWAP2 SWAP1 POP JUMP JUMPDEST PUSH32 0x4E487B7100000000000000000000000000000000000000000000000000000000 PUSH0 MSTORE PUSH1 0x11 PUSH1 0x4 MSTORE PUSH1 0x24 PUSH0 REVERT JUMPDEST PUSH0 PUSH2 0x4FCB DUP3 PUSH2 0x3E08 JUMP JUMPDEST SWAP2 POP PUSH32 0xFFFFFFFFFFFFFFFFFFFFFFFFFFFFFFFFFFFFFFFFFFFFFFFFFFFFFFFFFFFFFFFF DUP3 SUB PUSH2 0x4FFD JUMPI PUSH2 0x4FFC PUSH2 0x4F94 JUMP JUMPDEST JUMPDEST PUSH1 0x1 DUP3 ADD SWAP1 POP SWAP2 SWAP1 POP JUMP JUMPDEST PUSH0 DUP2 SWAP1 POP DUP2 PUSH0 MSTORE PUSH1 0x20 PUSH0 KECCAK256 SWAP1 POP SWAP2 SWAP1 POP JUMP JUMPDEST PUSH0 PUSH1 0x20 PUSH1 0x1F DUP4 ADD DIV SWAP1 POP SWAP2 SWAP1 POP JUMP JUMPDEST PUSH0 DUP3 DUP3 SHL SWAP1 POP SWAP3 SWAP2 POP POP JUMP JUMPDEST PUSH0 PUSH1 0x8 DUP4 MUL PUSH2 0x5064 PUSH32 0xFFFFFFFFFFFFFFFFFFFFFFFFFFFFFFFFFFFFFFFFFFFFFFFFFFFFFFFFFFFFFFFF DUP3 PUSH2 0x5029 JUMP JUMPDEST PUSH2 0x506E DUP7 DUP4 PUSH2 0x5029 JUMP JUMPDEST SWAP6 POP DUP1 NOT DUP5 AND SWAP4 POP DUP1 DUP7 AND DUP5 OR SWAP3 POP POP POP SWAP4 SWAP3 POP POP POP JUMP JUMPDEST PUSH0 DUP2 SWAP1 POP SWAP2 SWAP1 POP JUMP JUMPDEST PUSH0 PUSH2 0x50A9 PUSH2 0x50A4 PUSH2 0x509F DUP5 PUSH2 0x3E08 JUMP JUMPDEST PUSH2 0x5086 JUMP JUMPDEST PUSH2 0x3E08 JUMP JUMPDEST SWAP1 POP SWAP2 SWAP1 POP JUMP JUMPDEST PUSH0 DUP2 SWAP1 POP SWAP2 SWAP1 POP JUMP JUMPDEST PUSH2 0x50C2 DUP4 PUSH2 0x508F JUMP JUMPDEST PUSH2 0x50D6 PUSH2 0x50CE DUP3 PUSH2 0x50B0 JUMP JUMPDEST DUP5 DUP5 SLOAD PUSH2 0x5035 JUMP JUMPDEST DUP3 SSTORE POP POP POP POP JUMP JUMPDEST PUSH0 PUSH0 SWAP1 POP SWAP1 JUMP JUMPDEST PUSH2 0x50ED PUSH2 0x50DE JUMP JUMPDEST PUSH2 0x50F8 DUP2 DUP5 DUP5 PUSH2 0x50B9 JUMP JUMPDEST POP POP POP JUMP JUMPDEST JUMPDEST DUP2 DUP2 LT ISZERO PUSH2 0x511B JUMPI PUSH2 0x5110 PUSH0 DUP3 PUSH2 0x50E5 JUMP JUMPDEST PUSH1 0x1 DUP2 ADD SWAP1 POP PUSH2 0x50FE JUMP JUMPDEST POP POP JUMP JUMPDEST PUSH1 0x1F DUP3 GT ISZERO PUSH2 0x5160 JUMPI PUSH2 0x5131 DUP2 PUSH2 0x5008 JUMP JUMPDEST PUSH2 0x513A DUP5 PUSH2 0x501A JUMP JUMPDEST DUP2 ADD PUSH1 0x20 DUP6 LT ISZERO PUSH2 0x5149 JUMPI DUP2 SWAP1 POP JUMPDEST PUSH2 0x515D PUSH2 0x5155 DUP6 PUSH2 0x501A JUMP JUMPDEST DUP4 ADD DUP3 PUSH2 0x50FD JUMP JUMPDEST POP POP JUMPDEST POP POP POP JUMP JUMPDEST PUSH0 DUP3 DUP3 SHR SWAP1 POP SWAP3 SWAP2 POP POP JUMP JUMPDEST PUSH0 PUSH2 0x5180 PUSH0 NOT DUP5 PUSH1 0x8 MUL PUSH2 0x5165 JUMP JUMPDEST NOT DUP1 DUP4 AND SWAP2 POP POP SWAP3 SWAP2 POP POP JUMP JUMPDEST PUSH0 PUSH2 0x5198 DUP4 DUP4 PUSH2 0x5171 JUMP JUMPDEST SWAP2 POP DUP3 PUSH1 0x2 MUL DUP3 OR SWAP1 POP SWAP3 SWAP2 POP POP JUMP JUMPDEST PUSH2 0x51B1 DUP3 PUSH2 0x3EB4 JUMP JUMPDEST PUSH8 0xFFFFFFFFFFFFFFFF DUP2 GT ISZERO PUSH2 0x51CA JUMPI PUSH2 0x51C9 PUSH2 0x419E JUMP JUMPDEST JUMPDEST PUSH2 0x51D4 DUP3 SLOAD PUSH2 0x4F64 JUMP JUMPDEST PUSH2 0x51DF DUP3 DUP3 DUP6 PUSH2 0x511F JUMP JUMPDEST PUSH0 PUSH1 0x20 SWAP1 POP PUSH1 0x1F DUP4 GT PUSH1 0x1 DUP2 EQ PUSH2 0x5210 JUMPI PUSH0 DUP5 ISZERO PUSH2 0x51FE JUMPI DUP3 DUP8 ADD MLOAD SWAP1 POP JUMPDEST PUSH2 0x5208 DUP6 DUP3 PUSH2 0x518D JUMP JUMPDEST DUP7 SSTORE POP PUSH2 0x526F JUMP JUMPDEST PUSH1 0x1F NOT DUP5 AND PUSH2 0x521E DUP7 PUSH2 0x5008 JUMP JUMPDEST PUSH0 JUMPDEST DUP3 DUP2 LT ISZERO PUSH2 0x5245 JUMPI DUP5 DUP10 ADD MLOAD DUP3 SSTORE PUSH1 0x1 DUP3 ADD SWAP2 POP PUSH1 0x20 DUP6 ADD SWAP5 POP PUSH1 0x20 DUP2 ADD SWAP1 POP PUSH2 0x5220 JUMP JUMPDEST DUP7 DUP4 LT ISZERO PUSH2 0x5262 JUMPI DUP5 DUP10 ADD MLOAD PUSH2 0x525E PUSH1 0x1F DUP10 AND DUP3 PUSH2 0x5171 JUMP JUMPDEST DUP4 SSTORE POP JUMPDEST PUSH1 0x1 PUSH1 0x2 DUP9 MUL ADD DUP9 SSTORE POP POP POP JUMPDEST POP POP POP POP POP POP JUMP JUMPDEST PUSH2 0x5280 DUP2 PUSH2 0x44E3 JUMP JUMPDEST DUP3 MSTORE POP POP JUMP JUMPDEST PUSH0 PUSH1 0x40 DUP3 ADD SWAP1 POP PUSH2 0x5299 PUSH0 DUP4 ADD DUP6 PUSH2 0x5277 JUMP JUMPDEST PUSH2 0x52A6 PUSH1 0x20 DUP4 ADD DUP5 PUSH2 0x474C JUMP JUMPDEST SWAP4 SWAP3 POP POP POP JUMP JUMPDEST PUSH0 PUSH2 0x52B7 DUP3 PUSH2 0x3E08 JUMP JUMPDEST SWAP2 POP PUSH2 0x52C2 DUP4 PUSH2 0x3E08 JUMP JUMPDEST SWAP3 POP DUP3 DUP3 ADD SWAP1 POP DUP1 DUP3 GT ISZERO PUSH2 0x52DA JUMPI PUSH2 0x52D9 PUSH2 0x4F94 JUMP JUMPDEST JUMPDEST SWAP3 SWAP2 POP POP JUMP JUMPDEST PUSH0 PUSH2 0x52EA DUP3 PUSH2 0x3E08 JUMP JUMPDEST SWAP2 POP PUSH2 0x52F5 DUP4 PUSH2 0x3E08 JUMP JUMPDEST SWAP3 POP DUP3 DUP3 SUB SWAP1 POP DUP2 DUP2 GT ISZERO PUSH2 0x530D JUMPI PUSH2 0x530C PUSH2 0x4F94 JUMP JUMPDEST JUMPDEST SWAP3 SWAP2 POP POP JUMP JUMPDEST PUSH32 0x4E487B7100000000000000000000000000000000000000000000000000000000 PUSH0 MSTORE PUSH1 0x32 PUSH1 0x4 MSTORE PUSH1 0x24 PUSH0 REVERT JUMPDEST PUSH0 DUP3 DUP3 MSTORE PUSH1 0x20 DUP3 ADD SWAP1 POP SWAP3 SWAP2 POP POP JUMP JUMPDEST PUSH0 PUSH2 0x535A DUP3 PUSH2 0x3EB4 JUMP JUMPDEST PUSH2 0x5364 DUP2 DUP6 PUSH2 0x5340 JUMP JUMPDEST SWAP4 POP PUSH2 0x5374 DUP2 DUP6 PUSH1 0x20 DUP7 ADD PUSH2 0x3ECE JUMP JUMPDEST PUSH2 0x537D DUP2 PUSH2 0x3EDC JUMP JUMPDEST DUP5 ADD SWAP2 POP POP SWAP3 SWAP2 POP POP JUMP JUMPDEST PUSH0 PUSH1 0x20 DUP3 ADD SWAP1 POP DUP2 DUP2 SUB PUSH0 DUP4 ADD MSTORE PUSH2 0x53A0 DUP2 DUP5 PUSH2 0x5350 JUMP JUMPDEST SWAP1 POP SWAP3 SWAP2 POP POP JUMP JUMPDEST PUSH0 DUP3 SWAP1 POP SWAP3 SWAP2 POP POP JUMP JUMPDEST PUSH2 0x53BC DUP4 DUP4 PUSH2 0x53A8 JUMP JUMPDEST PUSH8 0xFFFFFFFFFFFFFFFF DUP2 GT ISZERO PUSH2 0x53D5 JUMPI PUSH2 0x53D4 PUSH2 0x419E JUMP JUMPDEST JUMPDEST PUSH2 0x53DF DUP3 SLOAD PUSH2 0x4F64 JUMP JUMPDEST PUSH2 0x53EA DUP3 DUP3 DUP6 PUSH2 0x511F JUMP JUMPDEST PUSH0 PUSH1 0x1F DUP4 GT PUSH1 0x1 DUP2 EQ PUSH2 0x5417 JUMPI PUSH0 DUP5 ISZERO PUSH2 0x5405 JUMPI DUP3 DUP8 ADD CALLDATALOAD SWAP1 POP JUMPDEST PUSH2 0x540F DUP6 DUP3 PUSH2 0x518D JUMP JUMPDEST DUP7 SSTORE POP PUSH2 0x5476 JUMP JUMPDEST PUSH1 0x1F NOT DUP5 AND PUSH2 0x5425 DUP7 PUSH2 0x5008 JUMP JUMPDEST PUSH0 JUMPDEST DUP3 DUP2 LT ISZERO PUSH2 0x544C JUMPI DUP5 DUP10 ADD CALLDATALOAD DUP3 SSTORE PUSH1 0x1 DUP3 ADD SWAP2 POP PUSH1 0x20 DUP6 ADD SWAP5 POP PUSH1 0x20 DUP2 ADD SWAP1 POP PUSH2 0x5427 JUMP JUMPDEST DUP7 DUP4 LT ISZERO PUSH2 0x5469 JUMPI DUP5 DUP10 ADD CALLDATALOAD PUSH2 0x5465 PUSH1 0x1F DUP10 AND DUP3 PUSH2 0x5171 JUMP JUMPDEST DUP4 SSTORE POP JUMPDEST PUSH1 0x1 PUSH1 0x2 DUP9 MUL ADD DUP9 SSTORE POP POP POP JUMPDEST POP POP POP POP POP POP POP JUMP JUMPDEST PUSH0 PUSH2 0x548A DUP4 DUP6 PUSH2 0x5340 JUMP JUMPDEST SWAP4 POP PUSH2 0x5497 DUP4 DUP6 DUP5 PUSH2 0x4246 JUMP JUMPDEST PUSH2 0x54A0 DUP4 PUSH2 0x3EDC JUMP JUMPDEST DUP5 ADD SWAP1 POP SWAP4 SWAP3 POP POP POP JUMP JUMPDEST PUSH0 PUSH1 0x20 DUP3 ADD SWAP1 POP DUP2 DUP2 SUB PUSH0 DUP4 ADD MSTORE PUSH2 0x54C4 DUP2 DUP5 DUP7 PUSH2 0x547F JUMP JUMPDEST SWAP1 POP SWAP4 SWAP3 POP POP POP JUMP JUMPDEST PUSH2 0x54D6 DUP2 PUSH2 0x3F77 JUMP JUMPDEST DUP3 MSTORE POP POP JUMP JUMPDEST PUSH0 PUSH1 0x20 DUP3 ADD SWAP1 POP PUSH2 0x54EF PUSH0 DUP4 ADD DUP5 PUSH2 0x54CD JUMP JUMPDEST SWAP3 SWAP2 POP POP JUMP JUMPDEST PUSH2 0x54FE DUP2 PUSH2 0x47C2 JUMP JUMPDEST DUP3 MSTORE POP POP JUMP JUMPDEST PUSH0 PUSH1 0x40 DUP3 ADD SWAP1 POP DUP2 DUP2 SUB PUSH0 DUP4 ADD MSTORE PUSH2 0x551C DUP2 DUP6 PUSH2 0x5350 JUMP JUMPDEST SWAP1 POP PUSH2 0x552B PUSH1 0x20 DUP4 ADD DUP5 PUSH2 0x54F5 JUMP JUMPDEST SWAP4 SWAP3 POP POP POP JUMP JUMPDEST PUSH2 0x553B DUP2 PUSH2 0x49C0 JUMP JUMPDEST DUP3 MSTORE POP POP JUMP JUMPDEST PUSH0 PUSH1 0x20 DUP3 ADD SWAP1 POP PUSH2 0x5554 PUSH0 DUP4 ADD DUP5 PUSH2 0x5532 JUMP JUMPDEST SWAP3 SWAP2 POP POP JUMP INVALID LOG2 PUSH5 0x6970667358 0x22 SLT KECCAK256 LOG2 0xDE PUSH17 0xEDA898528691AA9FD3F8133729528B821B CODESIZE SWAP15 0xF 0xCD MUL PUSH17 0xD3DEF03859EF64736F6C634300081E0033 "
		},
		"gasEstimates": {
			"creation": {
				"codeDepositCost": "4380800",
				"executionCost": "95657",
				"totalCost": "4476457"
			},
			"external": {
				"COLD_CHAIN_TEMP_MAX()": "415",
				"COLD_CHAIN_TEMP_MIN()": "392",
				"MAX_CHECKPOINTS_PER_SHIPMENT()": "458",
				"MAX_INCIDENTS_PER_SHIPMENT()": "415",
				"TEMPERATURE_NOT_SET()": "393",
				"acceptAdmin()": "52092",
				"admin()": "2595",
				"cancelShipment(uint256)": "infinite",
				"confirmDelivery(uint256)": "infinite",
				"createShipment(address,string,string,string,bool)": "infinite",
				"deactivateActor(address)": "30949",
				"getActor(address)": "infinite",
				"getActorShipments(address)": "infinite",
				"getAllShipmentCheckpoints(uint256)": "infinite",
				"getAllShipmentIncidents(uint256)": "infinite",
				"getCheckpoint(uint256)": "infinite",
				"getIncident(uint256)": "infinite",
				"getShipment(uint256)": "infinite",
				"getShipmentCheckpoints(uint256,uint256,uint256)": "infinite",
				"getShipmentIncidents(uint256,uint256,uint256)": "infinite",
				"isIncidentResolved(uint256)": "2905",
				"nextCheckpointId()": "2544",
				"nextIncidentId()": "2545",
				"nextShipmentId()": "2476",
				"pendingAdmin()": "2554",
				"proposeAdmin(address)": "28148",
				"reactivateActor(address)": "30930",
				"recordCheckpoint(uint256,string,uint8,string,int256)": "infinite",
				"registerActor(string,uint8,string,address)": "infinite",
				"reportIncident(uint256,uint8,string)": "infinite",
				"resolveIncident(uint256,string)": "infinite",
				"transferAdmin(address)": "52434",
				"updateShipmentStatus(uint256,uint8)": "infinite",
				"verifyTemperatureCompliance(uint256)": "infinite"
			},
			"internal": {
				"_addActorShipment(address,uint256)": "73273",
				"_createIncident(uint256,enum LogisticsTracking.IncidentType,string memory)": "infinite",
				"_onlyActiveActor()": "infinite",
				"_onlyAdmin()": "infinite",
				"_shipmentExists(uint256)": "infinite"
			}
		},
		"methodIdentifiers": {
			"COLD_CHAIN_TEMP_MAX()": "7b8a20e2",
			"COLD_CHAIN_TEMP_MIN()": "a54a6ee4",
			"MAX_CHECKPOINTS_PER_SHIPMENT()": "63f86584",
			"MAX_INCIDENTS_PER_SHIPMENT()": "305207b0",
			"TEMPERATURE_NOT_SET()": "2bf210dc",
			"acceptAdmin()": "0e18b681",
			"admin()": "f851a440",
			"cancelShipment(uint256)": "7faa7bc7",
			"confirmDelivery(uint256)": "fd84cb97",
			"createShipment(address,string,string,string,bool)": "475b6f98",
			"deactivateActor(address)": "fc436695",
			"getActor(address)": "4138d167",
			"getActorShipments(address)": "72f2f93a",
			"getAllShipmentCheckpoints(uint256)": "8d70861e",
			"getAllShipmentIncidents(uint256)": "9b4adf4e",
			"getCheckpoint(uint256)": "20fc4881",
			"getIncident(uint256)": "9578615e",
			"getShipment(uint256)": "092b3740",
			"getShipmentCheckpoints(uint256,uint256,uint256)": "17082ae0",
			"getShipmentIncidents(uint256,uint256,uint256)": "48016224",
			"isIncidentResolved(uint256)": "925d3478",
			"nextCheckpointId()": "229ec452",
			"nextIncidentId()": "0fd19668",
			"nextShipmentId()": "b9a3a68c",
			"pendingAdmin()": "26782247",
			"proposeAdmin(address)": "147bf6c4",
			"reactivateActor(address)": "58dcf85e",
			"recordCheckpoint(uint256,string,uint8,string,int256)": "0a7a0b69",
			"registerActor(string,uint8,string,address)": "b7fa3c2a",
			"reportIncident(uint256,uint8,string)": "e570c367",
			"resolveIncident(uint256,string)": "5e6b2086",
			"transferAdmin(address)": "75829def",
			"updateShipmentStatus(uint256,uint8)": "7defa920",
			"verifyTemperatureCompliance(uint256)": "af56a428"
		}
	},
	"abi": [
		{
			"inputs": [],
			"stateMutability": "nonpayable",
			"type": "constructor"
		},
		{
			"inputs": [],
			"name": "ActorDoesNotExist",
			"type": "error"
		},
		{
			"inputs": [],
			"name": "ActorInactive",
			"type": "error"
		},
		{
			"inputs": [],
			"name": "ActorNotAssignedToShipment",
			"type": "error"
		},
		{
			"inputs": [],
			"name": "AlreadyClosedShipment",
			"type": "error"
		},
		{
			"inputs": [],
			"name": "AlreadyDelivered",
			"type": "error"
		},
		{
			"inputs": [],
			"name": "AlreadyRegisteredAndActive",
			"type": "error"
		},
		{
			"inputs": [],
			"name": "CannotCancelAfterTransit",
			"type": "error"
		},
		{
			"inputs": [],
			"name": "CannotSetDeliveredDirectly",
			"type": "error"
		},
		{
			"inputs": [
				{
					"internalType": "uint256",
					"name": "id",
					"type": "uint256"
				}
			],
			"name": "CheckpointNotFound",
			"type": "error"
		},
		{
			"inputs": [
				{
					"internalType": "uint256",
					"name": "id",
					"type": "uint256"
				}
			],
			"name": "IncidentNotFound",
			"type": "error"
		},
		{
			"inputs": [],
			"name": "InvalidAddress",
			"type": "error"
		},
		{
			"inputs": [],
			"name": "InvalidRole",
			"type": "error"
		},
		{
			"inputs": [],
			"name": "MaxCheckpointsReached",
			"type": "error"
		},
		{
			"inputs": [],
			"name": "MaxIncidentsReached",
			"type": "error"
		},
		{
			"inputs": [],
			"name": "NotPendingAdmin",
			"type": "error"
		},
		{
			"inputs": [],
			"name": "OnlyAdmin",
			"type": "error"
		},
		{
			"inputs": [],
			"name": "OnlyCarrierOrHub",
			"type": "error"
		},
		{
			"inputs": [],
			"name": "OnlyRecipientCanConfirm",
			"type": "error"
		},
		{
			"inputs": [],
			"name": "OnlySenderCanCancel",
			"type": "error"
		},
		{
			"inputs": [],
			"name": "OnlySendersCanCreate",
			"type": "error"
		},
		{
			"inputs": [
				{
					"internalType": "uint256",
					"name": "id",
					"type": "uint256"
				}
			],
			"name": "ShipmentNotFound",
			"type": "error"
		},
		{
			"anonymous": false,
			"inputs": [
				{
					"indexed": true,
					"internalType": "address",
					"name": "actorAddress",
					"type": "address"
				},
				{
					"indexed": false,
					"internalType": "string",
					"name": "name",
					"type": "string"
				},
				{
					"indexed": false,
					"internalType": "enum LogisticsTracking.ActorRole",
					"name": "role",
					"type": "uint8"
				}
			],
			"name": "ActorRegistered",
			"type": "event"
		},
		{
			"anonymous": false,
			"inputs": [
				{
					"indexed": true,
					"internalType": "address",
					"name": "actorAddress",
					"type": "address"
				},
				{
					"indexed": false,
					"internalType": "bool",
					"name": "isActive",
					"type": "bool"
				}
			],
			"name": "ActorStatusChanged",
			"type": "event"
		},
		{
			"anonymous": false,
			"inputs": [
				{
					"indexed": true,
					"internalType": "address",
					"name": "newAdmin",
					"type": "address"
				}
			],
			"name": "AdminTransferAccepted",
			"type": "event"
		},
		{
			"anonymous": false,
			"inputs": [
				{
					"indexed": true,
					"internalType": "address",
					"name": "proposedAdmin",
					"type": "address"
				}
			],
			"name": "AdminTransferProposed",
			"type": "event"
		},
		{
			"anonymous": false,
			"inputs": [
				{
					"indexed": true,
					"internalType": "uint256",
					"name": "checkpointId",
					"type": "uint256"
				},
				{
					"indexed": true,
					"internalType": "uint256",
					"name": "shipmentId",
					"type": "uint256"
				},
				{
					"indexed": false,
					"internalType": "enum LogisticsTracking.CheckpointType",
					"name": "checkpointType",
					"type": "uint8"
				},
				{
					"indexed": false,
					"internalType": "address",
					"name": "actor",
					"type": "address"
				}
			],
			"name": "CheckpointRecorded",
			"type": "event"
		},
		{
			"anonymous": false,
			"inputs": [
				{
					"indexed": true,
					"internalType": "uint256",
					"name": "shipmentId",
					"type": "uint256"
				},
				{
					"indexed": true,
					"internalType": "address",
					"name": "recipient",
					"type": "address"
				},
				{
					"indexed": false,
					"internalType": "uint256",
					"name": "timestamp",
					"type": "uint256"
				}
			],
			"name": "DeliveryConfirmed",
			"type": "event"
		},
		{
			"anonymous": false,
			"inputs": [
				{
					"indexed": true,
					"internalType": "uint256",
					"name": "incidentId",
					"type": "uint256"
				},
				{
					"indexed": true,
					"internalType": "uint256",
					"name": "shipmentId",
					"type": "uint256"
				},
				{
					"indexed": false,
					"internalType": "enum LogisticsTracking.IncidentType",
					"name": "incidentType",
					"type": "uint8"
				}
			],
			"name": "IncidentReported",
			"type": "event"
		},
		{
			"anonymous": false,
			"inputs": [
				{
					"indexed": true,
					"internalType": "uint256",
					"name": "incidentId",
					"type": "uint256"
				},
				{
					"indexed": false,
					"internalType": "string",
					"name": "resolutionNote",
					"type": "string"
				}
			],
			"name": "IncidentResolved",
			"type": "event"
		},
		{
			"anonymous": false,
			"inputs": [
				{
					"indexed": true,
					"internalType": "uint256",
					"name": "shipmentId",
					"type": "uint256"
				},
				{
					"indexed": true,
					"internalType": "address",
					"name": "sender",
					"type": "address"
				},
				{
					"indexed": true,
					"internalType": "address",
					"name": "recipient",
					"type": "address"
				},
				{
					"indexed": false,
					"internalType": "string",
					"name": "product",
					"type": "string"
				}
			],
			"name": "ShipmentCreated",
			"type": "event"
		},
		{
			"anonymous": false,
			"inputs": [
				{
					"indexed": true,
					"internalType": "uint256",
					"name": "shipmentId",
					"type": "uint256"
				},
				{
					"indexed": false,
					"internalType": "enum LogisticsTracking.ShipmentStatus",
					"name": "newStatus",
					"type": "uint8"
				}
			],
			"name": "ShipmentStatusChanged",
			"type": "event"
		},
		{
			"inputs": [],
			"name": "COLD_CHAIN_TEMP_MAX",
			"outputs": [
				{
					"internalType": "int256",
					"name": "",
					"type": "int256"
				}
			],
			"stateMutability": "view",
			"type": "function"
		},
		{
			"inputs": [],
			"name": "COLD_CHAIN_TEMP_MIN",
			"outputs": [
				{
					"internalType": "int256",
					"name": "",
					"type": "int256"
				}
			],
			"stateMutability": "view",
			"type": "function"
		},
		{
			"inputs": [],
			"name": "MAX_CHECKPOINTS_PER_SHIPMENT",
			"outputs": [
				{
					"internalType": "uint256",
					"name": "",
					"type": "uint256"
				}
			],
			"stateMutability": "view",
			"type": "function"
		},
		{
			"inputs": [],
			"name": "MAX_INCIDENTS_PER_SHIPMENT",
			"outputs": [
				{
					"internalType": "uint256",
					"name": "",
					"type": "uint256"
				}
			],
			"stateMutability": "view",
			"type": "function"
		},
		{
			"inputs": [],
			"name": "TEMPERATURE_NOT_SET",
			"outputs": [
				{
					"internalType": "int256",
					"name": "",
					"type": "int256"
				}
			],
			"stateMutability": "view",
			"type": "function"
		},
		{
			"inputs": [],
			"name": "acceptAdmin",
			"outputs": [],
			"stateMutability": "nonpayable",
			"type": "function"
		},
		{
			"inputs": [],
			"name": "admin",
			"outputs": [
				{
					"internalType": "address",
					"name": "",
					"type": "address"
				}
			],
			"stateMutability": "view",
			"type": "function"
		},
		{
			"inputs": [
				{
					"internalType": "uint256",
					"name": "_shipmentId",
					"type": "uint256"
				}
			],
			"name": "cancelShipment",
			"outputs": [],
			"stateMutability": "nonpayable",
			"type": "function"
		},
		{
			"inputs": [
				{
					"internalType": "uint256",
					"name": "_shipmentId",
					"type": "uint256"
				}
			],
			"name": "confirmDelivery",
			"outputs": [],
			"stateMutability": "nonpayable",
			"type": "function"
		},
		{
			"inputs": [
				{
					"internalType": "address",
					"name": "_recipient",
					"type": "address"
				},
				{
					"internalType": "string",
					"name": "_product",
					"type": "string"
				},
				{
					"internalType": "string",
					"name": "_origin",
					"type": "string"
				},
				{
					"internalType": "string",
					"name": "_destination",
					"type": "string"
				},
				{
					"internalType": "bool",
					"name": "_requiresColdChain",
					"type": "bool"
				}
			],
			"name": "createShipment",
			"outputs": [
				{
					"internalType": "uint256",
					"name": "",
					"type": "uint256"
				}
			],
			"stateMutability": "nonpayable",
			"type": "function"
		},
		{
			"inputs": [
				{
					"internalType": "address",
					"name": "_actorAddress",
					"type": "address"
				}
			],
			"name": "deactivateActor",
			"outputs": [],
			"stateMutability": "nonpayable",
			"type": "function"
		},
		{
			"inputs": [
				{
					"internalType": "address",
					"name": "_actorAddress",
					"type": "address"
				}
			],
			"name": "getActor",
			"outputs": [
				{
					"components": [
						{
							"internalType": "address",
							"name": "actorAddress",
							"type": "address"
						},
						{
							"internalType": "string",
							"name": "name",
							"type": "string"
						},
						{
							"internalType": "enum LogisticsTracking.ActorRole",
							"name": "role",
							"type": "uint8"
						},
						{
							"internalType": "string",
							"name": "location",
							"type": "string"
						},
						{
							"internalType": "bool",
							"name": "isActive",
							"type": "bool"
						}
					],
					"internalType": "struct LogisticsTracking.Actor",
					"name": "",
					"type": "tuple"
				}
			],
			"stateMutability": "view",
			"type": "function"
		},
		{
			"inputs": [
				{
					"internalType": "address",
					"name": "_actor",
					"type": "address"
				}
			],
			"name": "getActorShipments",
			"outputs": [
				{
					"internalType": "uint256[]",
					"name": "",
					"type": "uint256[]"
				}
			],
			"stateMutability": "view",
			"type": "function"
		},
		{
			"inputs": [
				{
					"internalType": "uint256",
					"name": "_id",
					"type": "uint256"
				}
			],
			"name": "getAllShipmentCheckpoints",
			"outputs": [
				{
					"components": [
						{
							"internalType": "uint256",
							"name": "id",
							"type": "uint256"
						},
						{
							"internalType": "uint256",
							"name": "shipmentId",
							"type": "uint256"
						},
						{
							"internalType": "address",
							"name": "actor",
							"type": "address"
						},
						{
							"internalType": "string",
							"name": "location",
							"type": "string"
						},
						{
							"internalType": "enum LogisticsTracking.CheckpointType",
							"name": "checkpointType",
							"type": "uint8"
						},
						{
							"internalType": "uint256",
							"name": "timestamp",
							"type": "uint256"
						},
						{
							"internalType": "string",
							"name": "notes",
							"type": "string"
						},
						{
							"internalType": "int256",
							"name": "temperature",
							"type": "int256"
						}
					],
					"internalType": "struct LogisticsTracking.Checkpoint[]",
					"name": "",
					"type": "tuple[]"
				}
			],
			"stateMutability": "view",
			"type": "function"
		},
		{
			"inputs": [
				{
					"internalType": "uint256",
					"name": "_shipmentId",
					"type": "uint256"
				}
			],
			"name": "getAllShipmentIncidents",
			"outputs": [
				{
					"components": [
						{
							"internalType": "uint256",
							"name": "id",
							"type": "uint256"
						},
						{
							"internalType": "uint256",
							"name": "shipmentId",
							"type": "uint256"
						},
						{
							"internalType": "enum LogisticsTracking.IncidentType",
							"name": "incidentType",
							"type": "uint8"
						},
						{
							"internalType": "address",
							"name": "reporter",
							"type": "address"
						},
						{
							"internalType": "string",
							"name": "description",
							"type": "string"
						},
						{
							"internalType": "uint256",
							"name": "timestamp",
							"type": "uint256"
						},
						{
							"internalType": "bool",
							"name": "resolved",
							"type": "bool"
						},
						{
							"internalType": "string",
							"name": "resolutionNote",
							"type": "string"
						}
					],
					"internalType": "struct LogisticsTracking.Incident[]",
					"name": "",
					"type": "tuple[]"
				}
			],
			"stateMutability": "view",
			"type": "function"
		},
		{
			"inputs": [
				{
					"internalType": "uint256",
					"name": "_checkpointId",
					"type": "uint256"
				}
			],
			"name": "getCheckpoint",
			"outputs": [
				{
					"components": [
						{
							"internalType": "uint256",
							"name": "id",
							"type": "uint256"
						},
						{
							"internalType": "uint256",
							"name": "shipmentId",
							"type": "uint256"
						},
						{
							"internalType": "address",
							"name": "actor",
							"type": "address"
						},
						{
							"internalType": "string",
							"name": "location",
							"type": "string"
						},
						{
							"internalType": "enum LogisticsTracking.CheckpointType",
							"name": "checkpointType",
							"type": "uint8"
						},
						{
							"internalType": "uint256",
							"name": "timestamp",
							"type": "uint256"
						},
						{
							"internalType": "string",
							"name": "notes",
							"type": "string"
						},
						{
							"internalType": "int256",
							"name": "temperature",
							"type": "int256"
						}
					],
					"internalType": "struct LogisticsTracking.Checkpoint",
					"name": "",
					"type": "tuple"
				}
			],
			"stateMutability": "view",
			"type": "function"
		},
		{
			"inputs": [
				{
					"internalType": "uint256",
					"name": "_incidentId",
					"type": "uint256"
				}
			],
			"name": "getIncident",
			"outputs": [
				{
					"components": [
						{
							"internalType": "uint256",
							"name": "id",
							"type": "uint256"
						},
						{
							"internalType": "uint256",
							"name": "shipmentId",
							"type": "uint256"
						},
						{
							"internalType": "enum LogisticsTracking.IncidentType",
							"name": "incidentType",
							"type": "uint8"
						},
						{
							"internalType": "address",
							"name": "reporter",
							"type": "address"
						},
						{
							"internalType": "string",
							"name": "description",
							"type": "string"
						},
						{
							"internalType": "uint256",
							"name": "timestamp",
							"type": "uint256"
						},
						{
							"internalType": "bool",
							"name": "resolved",
							"type": "bool"
						},
						{
							"internalType": "string",
							"name": "resolutionNote",
							"type": "string"
						}
					],
					"internalType": "struct LogisticsTracking.Incident",
					"name": "",
					"type": "tuple"
				}
			],
			"stateMutability": "view",
			"type": "function"
		},
		{
			"inputs": [
				{
					"internalType": "uint256",
					"name": "_id",
					"type": "uint256"
				}
			],
			"name": "getShipment",
			"outputs": [
				{
					"components": [
						{
							"internalType": "uint256",
							"name": "id",
							"type": "uint256"
						},
						{
							"internalType": "address",
							"name": "sender",
							"type": "address"
						},
						{
							"internalType": "address",
							"name": "recipient",
							"type": "address"
						},
						{
							"internalType": "string",
							"name": "product",
							"type": "string"
						},
						{
							"internalType": "string",
							"name": "origin",
							"type": "string"
						},
						{
							"internalType": "string",
							"name": "destination",
							"type": "string"
						},
						{
							"internalType": "uint256",
							"name": "dateCreated",
							"type": "uint256"
						},
						{
							"internalType": "uint256",
							"name": "dateDelivered",
							"type": "uint256"
						},
						{
							"internalType": "enum LogisticsTracking.ShipmentStatus",
							"name": "status",
							"type": "uint8"
						},
						{
							"internalType": "uint256[]",
							"name": "checkpointIds",
							"type": "uint256[]"
						},
						{
							"internalType": "uint256[]",
							"name": "incidentIds",
							"type": "uint256[]"
						},
						{
							"internalType": "bool",
							"name": "requiresColdChain",
							"type": "bool"
						}
					],
					"internalType": "struct LogisticsTracking.Shipment",
					"name": "",
					"type": "tuple"
				}
			],
			"stateMutability": "view",
			"type": "function"
		},
		{
			"inputs": [
				{
					"internalType": "uint256",
					"name": "_id",
					"type": "uint256"
				},
				{
					"internalType": "uint256",
					"name": "_offset",
					"type": "uint256"
				},
				{
					"internalType": "uint256",
					"name": "_limit",
					"type": "uint256"
				}
			],
			"name": "getShipmentCheckpoints",
			"outputs": [
				{
					"components": [
						{
							"internalType": "uint256",
							"name": "id",
							"type": "uint256"
						},
						{
							"internalType": "uint256",
							"name": "shipmentId",
							"type": "uint256"
						},
						{
							"internalType": "address",
							"name": "actor",
							"type": "address"
						},
						{
							"internalType": "string",
							"name": "location",
							"type": "string"
						},
						{
							"internalType": "enum LogisticsTracking.CheckpointType",
							"name": "checkpointType",
							"type": "uint8"
						},
						{
							"internalType": "uint256",
							"name": "timestamp",
							"type": "uint256"
						},
						{
							"internalType": "string",
							"name": "notes",
							"type": "string"
						},
						{
							"internalType": "int256",
							"name": "temperature",
							"type": "int256"
						}
					],
					"internalType": "struct LogisticsTracking.Checkpoint[]",
					"name": "",
					"type": "tuple[]"
				}
			],
			"stateMutability": "view",
			"type": "function"
		},
		{
			"inputs": [
				{
					"internalType": "uint256",
					"name": "_shipmentId",
					"type": "uint256"
				},
				{
					"internalType": "uint256",
					"name": "_offset",
					"type": "uint256"
				},
				{
					"internalType": "uint256",
					"name": "_limit",
					"type": "uint256"
				}
			],
			"name": "getShipmentIncidents",
			"outputs": [
				{
					"components": [
						{
							"internalType": "uint256",
							"name": "id",
							"type": "uint256"
						},
						{
							"internalType": "uint256",
							"name": "shipmentId",
							"type": "uint256"
						},
						{
							"internalType": "enum LogisticsTracking.IncidentType",
							"name": "incidentType",
							"type": "uint8"
						},
						{
							"internalType": "address",
							"name": "reporter",
							"type": "address"
						},
						{
							"internalType": "string",
							"name": "description",
							"type": "string"
						},
						{
							"internalType": "uint256",
							"name": "timestamp",
							"type": "uint256"
						},
						{
							"internalType": "bool",
							"name": "resolved",
							"type": "bool"
						},
						{
							"internalType": "string",
							"name": "resolutionNote",
							"type": "string"
						}
					],
					"internalType": "struct LogisticsTracking.Incident[]",
					"name": "",
					"type": "tuple[]"
				}
			],
			"stateMutability": "view",
			"type": "function"
		},
		{
			"inputs": [
				{
					"internalType": "uint256",
					"name": "_incidentId",
					"type": "uint256"
				}
			],
			"name": "isIncidentResolved",
			"outputs": [
				{
					"internalType": "bool",
					"name": "",
					"type": "bool"
				}
			],
			"stateMutability": "view",
			"type": "function"
		},
		{
			"inputs": [],
			"name": "nextCheckpointId",
			"outputs": [
				{
					"internalType": "uint256",
					"name": "",
					"type": "uint256"
				}
			],
			"stateMutability": "view",
			"type": "function"
		},
		{
			"inputs": [],
			"name": "nextIncidentId",
			"outputs": [
				{
					"internalType": "uint256",
					"name": "",
					"type": "uint256"
				}
			],
			"stateMutability": "view",
			"type": "function"
		},
		{
			"inputs": [],
			"name": "nextShipmentId",
			"outputs": [
				{
					"internalType": "uint256",
					"name": "",
					"type": "uint256"
				}
			],
			"stateMutability": "view",
			"type": "function"
		},
		{
			"inputs": [],
			"name": "pendingAdmin",
			"outputs": [
				{
					"internalType": "address",
					"name": "",
					"type": "address"
				}
			],
			"stateMutability": "view",
			"type": "function"
		},
		{
			"inputs": [
				{
					"internalType": "address",
					"name": "_newAdmin",
					"type": "address"
				}
			],
			"name": "proposeAdmin",
			"outputs": [],
			"stateMutability": "nonpayable",
			"type": "function"
		},
		{
			"inputs": [
				{
					"internalType": "address",
					"name": "_actorAddress",
					"type": "address"
				}
			],
			"name": "reactivateActor",
			"outputs": [],
			"stateMutability": "nonpayable",
			"type": "function"
		},
		{
			"inputs": [
				{
					"internalType": "uint256",
					"name": "_shipmentId",
					"type": "uint256"
				},
				{
					"internalType": "string",
					"name": "_location",
					"type": "string"
				},
				{
					"internalType": "enum LogisticsTracking.CheckpointType",
					"name": "_checkpointType",
					"type": "uint8"
				},
				{
					"internalType": "string",
					"name": "_notes",
					"type": "string"
				},
				{
					"internalType": "int256",
					"name": "_temperature",
					"type": "int256"
				}
			],
			"name": "recordCheckpoint",
			"outputs": [
				{
					"internalType": "uint256",
					"name": "",
					"type": "uint256"
				}
			],
			"stateMutability": "nonpayable",
			"type": "function"
		},
		{
			"inputs": [
				{
					"internalType": "string",
					"name": "_name",
					"type": "string"
				},
				{
					"internalType": "enum LogisticsTracking.ActorRole",
					"name": "_role",
					"type": "uint8"
				},
				{
					"internalType": "string",
					"name": "_location",
					"type": "string"
				},
				{
					"internalType": "address",
					"name": "_actorAddress",
					"type": "address"
				}
			],
			"name": "registerActor",
			"outputs": [],
			"stateMutability": "nonpayable",
			"type": "function"
		},
		{
			"inputs": [
				{
					"internalType": "uint256",
					"name": "_shipmentId",
					"type": "uint256"
				},
				{
					"internalType": "enum LogisticsTracking.IncidentType",
					"name": "_type",
					"type": "uint8"
				},
				{
					"internalType": "string",
					"name": "_desc",
					"type": "string"
				}
			],
			"name": "reportIncident",
			"outputs": [
				{
					"internalType": "uint256",
					"name": "",
					"type": "uint256"
				}
			],
			"stateMutability": "nonpayable",
			"type": "function"
		},
		{
			"inputs": [
				{
					"internalType": "uint256",
					"name": "_incidentId",
					"type": "uint256"
				},
				{
					"internalType": "string",
					"name": "_resolutionNote",
					"type": "string"
				}
			],
			"name": "resolveIncident",
			"outputs": [],
			"stateMutability": "nonpayable",
			"type": "function"
		},
		{
			"inputs": [
				{
					"internalType": "address",
					"name": "_newAdmin",
					"type": "address"
				}
			],
			"name": "transferAdmin",
			"outputs": [],
			"stateMutability": "nonpayable",
			"type": "function"
		},
		{
			"inputs": [
				{
					"internalType": "uint256",
					"name": "_shipmentId",
					"type": "uint256"
				},
				{
					"internalType": "enum LogisticsTracking.ShipmentStatus",
					"name": "_newStatus",
					"type": "uint8"
				}
			],
			"name": "updateShipmentStatus",
			"outputs": [],
			"stateMutability": "nonpayable",
			"type": "function"
		},
		{
			"inputs": [
				{
					"internalType": "uint256",
					"name": "_shipmentId",
					"type": "uint256"
				}
			],
			"name": "verifyTemperatureCompliance",
			"outputs": [
				{
					"internalType": "bool",
					"name": "",
					"type": "bool"
				}
			],
			"stateMutability": "view",
			"type": "function"
		}
	]
}