{
	"data": {
		"bytecode": {
			"linkReferences": {},
			"object": "6080604052600160025560016003556001600455348015601d575f5ffd5b50335f5f6101000a81548173ffffffffffffffffffffffffffffffffffffffff021916908373ffffffffffffffffffffffffffffffffffffffff1602179055506151628061006a5f395ff3fe608060405234801561000f575f5ffd5b5060043610610204575f3560e01c806372f2f93a116101185780639b4adf4e116100ab578063b9a3a68c1161007a578063b9a3a68c14610636578063e570c36714610654578063f851a44014610684578063fc436695146106a2578063fd84cb97146106be57610204565b80639b4adf4e1461059c578063a54a6ee4146105cc578063af56a428146105ea578063b7fa3c2a1461061a57610204565b80637faa7bc7116100e75780637faa7bc7146104f05780638d70861e1461050c578063925d34781461053c5780639578615e1461056c57610204565b806372f2f93a1461046a57806375829def1461049a5780637b8a20e2146104b65780637defa920146104d457610204565b8063267822471161019b578063475b6f981161016a578063475b6f98146103b457806348016224146103e45780634ffe6ae21461041457806358dcf85e1461043057806363f865841461044c57610204565b8063267822471461032a5780632bf210dc14610348578063305207b0146103665780634138d1671461038457610204565b8063147bf6c4116101d7578063147bf6c41461029057806317082ae0146102ac57806320fc4881146102dc578063229ec4521461030c57610204565b8063092b3740146102085780630a7a0b69146102385780630e18b681146102685780630fd1966814610272575b5f5ffd5b610222600480360381019061021d9190613c22565b6106da565b60405161022f9190613f5d565b60405180910390f35b610252600480360381019061024d91906140ff565b610a7d565b60405161025f91906141bd565b60405180910390f35b610270610dd8565b005b61027a610f22565b60405161028791906141bd565b60405180910390f35b6102aa60048036038101906102a59190614200565b610f2b565b005b6102c660048036038101906102c1919061422b565b61101e565b6040516102d3919061443f565b60405180910390f35b6102f660048036038101906102f19190613c22565b611399565b6040516103039190614513565b60405180910390f35b6103146115ed565b60405161032191906141bd565b60405180910390f35b6103326115f6565b60405161033f9190614542565b60405180910390f35b61035061161b565b60405161035d919061456a565b60405180910390f35b61036e61163f565b60405161037b91906141bd565b60405180910390f35b61039e60048036038101906103999190614200565b611644565b6040516103ab9190614643565b60405180910390f35b6103ce60048036038101906103c9919061468d565b611863565b6040516103db91906141bd565b60405180910390f35b6103fe60048036038101906103f9919061422b565b611b10565b60405161040b91906148f2565b60405180910390f35b61042e60048036038101906104299190613c22565b611e0b565b005b61044a60048036038101906104459190614200565b611ec1565b005b610454612036565b60405161046191906141bd565b60405180910390f35b610484600480360381019061047f9190614200565b61203b565b604051610491919061497e565b60405180910390f35b6104b460048036038101906104af9190614200565b6120ce565b005b6104be612200565b6040516104cb919061456a565b60405180910390f35b6104ee60048036038101906104e991906149c1565b612205565b005b61050a60048036038101906105059190613c22565b6123d9565b005b61052660048036038101906105219190613c22565b61264a565b604051610533919061443f565b60405180910390f35b61055660048036038101906105519190613c22565b61291e565b6040516105639190614a0e565b60405180910390f35b61058660048036038101906105819190613c22565b612947565b6040516105939190614ac0565b60405180910390f35b6105b660048036038101906105b19190613c22565b612b1b565b6040516105c391906148f2565b60405180910390f35b6105d4612d6f565b6040516105e1919061456a565b60405180910390f35b61060460048036038101906105ff9190613c22565b612d74565b6040516106119190614a0e565b60405180910390f35b610634600480360381019061062f9190614b03565b612e6a565b005b61063e61315e565b60405161064b91906141bd565b60405180910390f35b61066e60048036038101906106699190614bc2565b613167565b60405161067b91906141bd565b60405180910390f35b61068c61321e565b6040516106999190614542565b60405180910390f35b6106bc60048036038101906106b79190614200565b613242565b005b6106d860048036038101906106d39190613c22565b6133b5565b005b6106e2613a26565b60055f8381526020019081526020015f20604051806101800160405290815f8201548152602001600182015f9054906101000a900473ffffffffffffffffffffffffffffffffffffffff1673ffffffffffffffffffffffffffffffffffffffff1673ffffffffffffffffffffffffffffffffffffffff168152602001600282015f9054906101000a900473ffffffffffffffffffffffffffffffffffffffff1673ffffffffffffffffffffffffffffffffffffffff1673ffffffffffffffffffffffffffffffffffffffff1681526020016003820180546107c290614c5b565b80601f01602080910402602001604051908101604052809291908181526020018280546107ee90614c5b565b80156108395780601f1061081057610100808354040283529160200191610839565b820191905f5260205f20905b81548152906001019060200180831161081c57829003601f168201915b5050505050815260200160048201805461085290614c5b565b80601f016020809104026020016040519081016040528092919081815260200182805461087e90614c5b565b80156108c95780601f106108a0576101008083540402835291602001916108c9565b820191905f5260205f20905b8154815290600101906020018083116108ac57829003601f168201915b505050505081526020016005820180546108e290614c5b565b80601f016020809104026020016040519081016040528092919081815260200182805461090e90614c5b565b80156109595780601f1061093057610100808354040283529160200191610959565b820191905f5260205f20905b81548152906001019060200180831161093c57829003601f168201915b505050505081526020016006820154815260200160078201548152602001600882015f9054906101000a900460ff16600681111561099a57610999613d0b565b5b60068111156109ac576109ab613d0b565b5b8152602001600982018054806020026020016040519081016040528092919081815260200182805480156109fd57602002820191905f5260205f20905b8154815260200190600101908083116109e9575b50505050508152602001600a8201805480602002602001604051908101604052809291908181526020018280548015610a5357602002820191905f5260205f20905b815481526020019060010190808311610a3f575b50505050508152602001600b82015f9054906101000a900460ff1615151515815250509050919050565b5f610a8661358a565b85610a908161360f565b600a5f3373ffffffffffffffffffffffffffffffffffffffff1673ffffffffffffffffffffffffffffffffffffffff1681526020019081526020015f205f8881526020019081526020015f205f9054906101000a900460ff16610b1f576040517fd40c3d2100000000000000000000000000000000000000000000000000000000815260040160405180910390fd5b5f60055f8981526020019081526020015f20905060c8816009018054905010610b74576040517f3ca72e7800000000000000000000000000000000000000000000000000000000815260040160405180910390fd5b5f60035f815480929190610b8790614cb8565b9190505590506040518061010001604052808281526020018a81526020013373ffffffffffffffffffffffffffffffffffffffff168152602001898152602001886004811115610bda57610bd9613d0b565b5b81526020014281526020018781526020018681525060065f8381526020019081526020015f205f820151815f0155602082015181600101556040820151816002015f6101000a81548173ffffffffffffffffffffffffffffffffffffffff021916908373ffffffffffffffffffffffffffffffffffffffff1602179055506060820151816003019081610c6d9190614e9f565b506080820151816004015f6101000a81548160ff02191690836004811115610c9857610c97613d0b565b5b021790555060a0820151816005015560c0820151816006019081610cbc9190614e9f565b5060e082015181600701559050508160090181908060018154018082558091505060019003905f5260205f20015f909190919091505581600b015f9054906101000a900460ff168015610d2f57507f80000000000000000000000000000000000000000000000000000000000000008514155b8015610d4657506050851380610d455750601485125b5b15610d8e57610d8c8960036040518060400160405280601881526020017f54656d7065726174757265206f7574206f662072616e67650000000000000000815250613664565b505b88817f529e5c9e24a307575814835cf69244181f51bc2ae08b95b8c8459d652a7ee9cf8933604051610dc1929190614f7d565b60405180910390a380935050505095945050505050565b60015f9054906101000a900473ffffffffffffffffffffffffffffffffffffffff1673ffffffffffffffffffffffffffffffffffffffff163373ffffffffffffffffffffffffffffffffffffffff1614610e5e576040517f058d9a1b00000000000000000000000000000000000000000000000000000000815260040160405180910390fd5b335f5f6101000a81548173ffffffffffffffffffffffffffffffffffffffff021916908373ffffffffffffffffffffffffffffffffffffffff1602179055505f60015f6101000a81548173ffffffffffffffffffffffffffffffffffffffff021916908373ffffffffffffffffffffffffffffffffffffffff1602179055503373ffffffffffffffffffffffffffffffffffffffff167f24a7c28d8edc5ccd4ef428ebc1dce34762fe38b7fdcca1f3f20c818f04deb15660405160405180910390a2565b5f600454905090565b610f33613878565b5f73ffffffffffffffffffffffffffffffffffffffff168173ffffffffffffffffffffffffffffffffffffffff1603610f98576040517fe6c4247b00000000000000000000000000000000000000000000000000000000815260040160405180910390fd5b8060015f6101000a81548173ffffffffffffffffffffffffffffffffffffffff021916908373ffffffffffffffffffffffffffffffffffffffff1602179055508073ffffffffffffffffffffffffffffffffffffffff167fd3695f12c05bea129b5971fed99014a4efd003a3a8b45d6952b74fbd31d85d8a60405160405180910390a250565b60608361102a8161360f565b5f60055f8781526020019081526020015f2060090190505f818054905090508086106110ad575f67ffffffffffffffff81111561106a57611069613f85565b5b6040519080825280602002602001820160405280156110a357816020015b611090613ac0565b8152602001906001900390816110885790505b5093505050611391565b5f8186886110bb9190614fa4565b116110d15785876110cc9190614fa4565b6110d3565b815b90505f87826110e29190614fd7565b67ffffffffffffffff8111156110fb576110fa613f85565b5b60405190808252806020026020018201604052801561113457816020015b611121613ac0565b8152602001906001900390816111195790505b5090505f8890505b828110156113885760065f86838154811061115a5761115961500a565b5b905f5260205f20015481526020019081526020015f20604051806101000160405290815f820154815260200160018201548152602001600282015f9054906101000a900473ffffffffffffffffffffffffffffffffffffffff1673ffffffffffffffffffffffffffffffffffffffff1673ffffffffffffffffffffffffffffffffffffffff1681526020016003820180546111f490614c5b565b80601f016020809104026020016040519081016040528092919081815260200182805461122090614c5b565b801561126b5780601f106112425761010080835404028352916020019161126b565b820191905f5260205f20905b81548152906001019060200180831161124e57829003601f168201915b50505050508152602001600482015f9054906101000a900460ff16600481111561129857611297613d0b565b5b60048111156112aa576112a9613d0b565b5b8152602001600582015481526020016006820180546112c890614c5b565b80601f01602080910402602001604051908101604052809291908181526020018280546112f490614c5b565b801561133f5780601f106113165761010080835404028352916020019161133f565b820191905f5260205f20905b81548152906001019060200180831161132257829003601f168201915b50505050508152602001600782015481525050828a8361135f9190614fd7565b815181106113705761136f61500a565b5b6020026020010181905250808060010191505061113c565b50809550505050505b509392505050565b6113a1613ac0565b5f8214806113b157506003548210155b156113f357816040517f22bc9caa0000000000000000000000000000000000000000000000000000000081526004016113ea91906141bd565b60405180910390fd5b60065f8381526020019081526020015f20604051806101000160405290815f820154815260200160018201548152602001600282015f9054906101000a900473ffffffffffffffffffffffffffffffffffffffff1673ffffffffffffffffffffffffffffffffffffffff1673ffffffffffffffffffffffffffffffffffffffff16815260200160038201805461148890614c5b565b80601f01602080910402602001604051908101604052809291908181526020018280546114b490614c5b565b80156114ff5780601f106114d6576101008083540402835291602001916114ff565b820191905f5260205f20905b8154815290600101906020018083116114e257829003601f168201915b50505050508152602001600482015f9054906101000a900460ff16600481111561152c5761152b613d0b565b5b600481111561153e5761153d613d0b565b5b81526020016005820154815260200160068201805461155c90614c5b565b80601f016020809104026020016040519081016040528092919081815260200182805461158890614c5b565b80156115d35780601f106115aa576101008083540402835291602001916115d3565b820191905f5260205f20905b8154815290600101906020018083116115b657829003601f168201915b505050505081526020016007820154815250509050919050565b5f600354905090565b60015f9054906101000a900473ffffffffffffffffffffffffffffffffffffffff1681565b7f800000000000000000000000000000000000000000000000000000000000000081565b603281565b61164c613b27565b60085f8373ffffffffffffffffffffffffffffffffffffffff1673ffffffffffffffffffffffffffffffffffffffff1681526020019081526020015f206040518060a00160405290815f82015f9054906101000a900473ffffffffffffffffffffffffffffffffffffffff1673ffffffffffffffffffffffffffffffffffffffff1673ffffffffffffffffffffffffffffffffffffffff1681526020016001820180546116f890614c5b565b80601f016020809104026020016040519081016040528092919081815260200182805461172490614c5b565b801561176f5780601f106117465761010080835404028352916020019161176f565b820191905f5260205f20905b81548152906001019060200180831161175257829003601f168201915b50505050508152602001600282015f9054906101000a900460ff16600581111561179c5761179b613d0b565b5b60058111156117ae576117ad613d0b565b5b81526020016003820180546117c290614c5b565b80601f01602080910402602001604051908101604052809291908181526020018280546117ee90614c5b565b80156118395780601f1061181057610100808354040283529160200191611839565b820191905f5260205f20905b81548152906001019060200180831161181c57829003601f168201915b50505050508152602001600482015f9054906101000a900460ff1615151515815250509050919050565b5f61186c61358a565b600160058111156118805761187f613d0b565b5b60085f3373ffffffffffffffffffffffffffffffffffffffff1673ffffffffffffffffffffffffffffffffffffffff1681526020019081526020015f206002015f9054906101000a900460ff1660058111156118df576118de613d0b565b5b14611916576040517ff5b4341500000000000000000000000000000000000000000000000000000000815260040160405180910390fd5b5f60025f81548092919061192990614cb8565b9190505590505f60055f8381526020019081526020015f20905081815f018190555033816001015f6101000a81548173ffffffffffffffffffffffffffffffffffffffff021916908373ffffffffffffffffffffffffffffffffffffffff16021790555087816002015f6101000a81548173ffffffffffffffffffffffffffffffffffffffff021916908373ffffffffffffffffffffffffffffffffffffffff160217905550868160030190816119e09190614e9f565b50858160040190816119f29190614e9f565b5084816005019081611a049190614e9f565b504281600601819055505f816008015f6101000a81548160ff02191690836006811115611a3457611a33613d0b565b5b02179055508381600b015f6101000a81548160ff021916908315150217905550611a5e33836138ff565b5f73ffffffffffffffffffffffffffffffffffffffff168873ffffffffffffffffffffffffffffffffffffffff1614611a9c57611a9b88836138ff565b5b8773ffffffffffffffffffffffffffffffffffffffff163373ffffffffffffffffffffffffffffffffffffffff16837f8fb6b855d6cbdf201f2fcaadbf8c38d36168ff7d2ca865cb2599abcd5a060e8f8a604051611afa919061507f565b60405180910390a4819250505095945050505050565b606083611b1c8161360f565b5f60055f8781526020019081526020015f20600a0190505f81805490509050808610611b9f575f67ffffffffffffffff811115611b5c57611b5b613f85565b5b604051908082528060200260200182016040528015611b9557816020015b611b82613b7d565b815260200190600190039081611b7a5790505b5093505050611e03565b5f818688611bad9190614fa4565b11611bc3578587611bbe9190614fa4565b611bc5565b815b90505f8782611bd49190614fd7565b67ffffffffffffffff811115611bed57611bec613f85565b5b604051908082528060200260200182016040528015611c2657816020015b611c13613b7d565b815260200190600190039081611c0b5790505b5090505f8890505b82811015611dfa5760075f868381548110611c4c57611c4b61500a565b5b905f5260205f20015481526020019081526020015f206040518060e00160405290815f820154815260200160018201548152602001600282015f9054906101000a900460ff166004811115611ca457611ca3613d0b565b5b6004811115611cb657611cb5613d0b565b5b81526020016002820160019054906101000a900473ffffffffffffffffffffffffffffffffffffffff1673ffffffffffffffffffffffffffffffffffffffff1673ffffffffffffffffffffffffffffffffffffffff168152602001600382018054611d2090614c5b565b80601f0160208091040260200160405190810160405280929190818152602001828054611d4c90614c5b565b8015611d975780601f10611d6e57610100808354040283529160200191611d97565b820191905f5260205f20905b815481529060010190602001808311611d7a57829003601f168201915b5050505050815260200160048201548152602001600582015f9054906101000a900460ff161515151581525050828a83611dd19190614fd7565b81518110611de257611de161500a565b5b60200260200101819052508080600101915050611c2e565b50809550505050505b509392505050565b611e13613878565b5f811480611e2357506004548110155b15611e6557806040517fae30d3b0000000000000000000000000000000000000000000000000000000008152600401611e5c91906141bd565b60405180910390fd5b600160075f8381526020019081526020015f206005015f6101000a81548160ff021916908315150217905550807ff83ae0ade2d9004bc0030405bdd3336f9d9b97530bcf44cce99ce02c95641b7760405160405180910390a250565b611ec9613878565b5f73ffffffffffffffffffffffffffffffffffffffff1660085f8373ffffffffffffffffffffffffffffffffffffffff1673ffffffffffffffffffffffffffffffffffffffff1681526020019081526020015f205f015f9054906101000a900473ffffffffffffffffffffffffffffffffffffffff1673ffffffffffffffffffffffffffffffffffffffff1603611f8c576040517f6f46a36500000000000000000000000000000000000000000000000000000000815260040160405180910390fd5b600160085f8373ffffffffffffffffffffffffffffffffffffffff1673ffffffffffffffffffffffffffffffffffffffff1681526020019081526020015f206004015f6101000a81548160ff0219169083151502179055508073ffffffffffffffffffffffffffffffffffffffff167f7d434f3bffe7db5f776c1c2b3b22e492788bdfbd071e9aa176f096970ea88933600160405161202b9190614a0e565b60405180910390a250565b60c881565b606060095f8373ffffffffffffffffffffffffffffffffffffffff1673ffffffffffffffffffffffffffffffffffffffff1681526020019081526020015f208054806020026020016040519081016040528092919081815260200182805480156120c257602002820191905f5260205f20905b8154815260200190600101908083116120ae575b50505050509050919050565b6120d6613878565b5f73ffffffffffffffffffffffffffffffffffffffff168173ffffffffffffffffffffffffffffffffffffffff160361213b576040517fe6c4247b00000000000000000000000000000000000000000000000000000000815260040160405180910390fd5b805f5f6101000a81548173ffffffffffffffffffffffffffffffffffffffff021916908373ffffffffffffffffffffffffffffffffffffffff1602179055505f60015f6101000a81548173ffffffffffffffffffffffffffffffffffffffff021916908373ffffffffffffffffffffffffffffffffffffffff1602179055508073ffffffffffffffffffffffffffffffffffffffff167f24a7c28d8edc5ccd4ef428ebc1dce34762fe38b7fdcca1f3f20c818f04deb15660405160405180910390a250565b605081565b61220d61358a565b816122178161360f565b5f60085f3373ffffffffffffffffffffffffffffffffffffffff1673ffffffffffffffffffffffffffffffffffffffff1681526020019081526020015f206002015f9054906101000a900460ff1690506002600581111561227b5761227a613d0b565b5b81600581111561228e5761228d613d0b565b5b141580156122c15750600360058111156122ab576122aa613d0b565b5b8160058111156122be576122bd613d0b565b5b14155b156122f8576040517fef92a56b00000000000000000000000000000000000000000000000000000000815260040160405180910390fd5b6004600681111561230c5761230b613d0b565b5b83600681111561231f5761231e613d0b565b5b03612356576040517f9e96bb6900000000000000000000000000000000000000000000000000000000815260040160405180910390fd5b8260055f8681526020019081526020015f206008015f6101000a81548160ff0219169083600681111561238c5761238b613d0b565b5b021790555061239b33856138ff565b837f7c1c93f72f29b8a1fc6fc85eed990d133b1ffac80c962b521abb12f38f2ff9af846040516123cb91906150ae565b60405180910390a250505050565b806123e38161360f565b5f60055f8481526020019081526020015f209050806001015f9054906101000a900473ffffffffffffffffffffffffffffffffffffffff1673ffffffffffffffffffffffffffffffffffffffff163373ffffffffffffffffffffffffffffffffffffffff161461247f576040517f3f77ea3e00000000000000000000000000000000000000000000000000000000815260040160405180910390fd5b5f816008015f9054906101000a900460ff169050600460068111156124a7576124a6613d0b565b5b8160068111156124ba576124b9613d0b565b5b14806124ea5750600560068111156124d5576124d4613d0b565b5b8160068111156124e8576124e7613d0b565b5b145b80612518575060068081111561250357612502613d0b565b5b81600681111561251657612515613d0b565b5b145b1561254f576040517f8b167a5000000000000000000000000000000000000000000000000000000000815260040160405180910390fd5b5f600681111561256257612561613d0b565b5b81600681111561257557612574613d0b565b5b141580156125a857506002600681111561259257612591613d0b565b5b8160068111156125a5576125a4613d0b565b5b14155b156125df576040517fb86c1b1c00000000000000000000000000000000000000000000000000000000815260040160405180910390fd5b6006826008015f6101000a81548160ff0219169083600681111561260657612605613d0b565b5b0217905550837f7c1c93f72f29b8a1fc6fc85eed990d133b1ffac80c962b521abb12f38f2ff9af600660405161263c91906150ae565b60405180910390a250505050565b6060816126568161360f565b5f60055f8581526020019081526020015f2060090190505f818054905067ffffffffffffffff81111561268c5761268b613f85565b5b6040519080825280602002602001820160405280156126c557816020015b6126b2613ac0565b8152602001906001900390816126aa5790505b5090505f5f90505b82805490508110156129125760065f8483815481106126ef576126ee61500a565b5b905f5260205f20015481526020019081526020015f20604051806101000160405290815f820154815260200160018201548152602001600282015f9054906101000a900473ffffffffffffffffffffffffffffffffffffffff1673ffffffffffffffffffffffffffffffffffffffff1673ffffffffffffffffffffffffffffffffffffffff16815260200160038201805461278990614c5b565b80601f01602080910402602001604051908101604052809291908181526020018280546127b590614c5b565b80156128005780601f106127d757610100808354040283529160200191612800565b820191905f5260205f20905b8154815290600101906020018083116127e357829003601f168201915b50505050508152602001600482015f9054906101000a900460ff16600481111561282d5761282c613d0b565b5b600481111561283f5761283e613d0b565b5b81526020016005820154815260200160068201805461285d90614c5b565b80601f016020809104026020016040519081016040528092919081815260200182805461288990614c5b565b80156128d45780601f106128ab576101008083540402835291602001916128d4565b820191905f5260205f20905b8154815290600101906020018083116128b757829003601f168201915b505050505081526020016007820154815250508282815181106128fa576128f961500a565b5b602002602001018190525080806001019150506126cd565b50809350505050919050565b5f60075f8381526020019081526020015f206005015f9054906101000a900460ff169050919050565b61294f613b7d565b5f82148061295f57506004548210155b156129a157816040517fae30d3b000000000000000000000000000000000000000000000000000000000815260040161299891906141bd565b60405180910390fd5b60075f8381526020019081526020015f206040518060e00160405290815f820154815260200160018201548152602001600282015f9054906101000a900460ff1660048111156129f4576129f3613d0b565b5b6004811115612a0657612a05613d0b565b5b81526020016002820160019054906101000a900473ffffffffffffffffffffffffffffffffffffffff1673ffffffffffffffffffffffffffffffffffffffff1673ffffffffffffffffffffffffffffffffffffffff168152602001600382018054612a7090614c5b565b80601f0160208091040260200160405190810160405280929190818152602001828054612a9c90614c5b565b8015612ae75780601f10612abe57610100808354040283529160200191612ae7565b820191905f5260205f20905b815481529060010190602001808311612aca57829003601f168201915b5050505050815260200160048201548152602001600582015f9054906101000a900460ff1615151515815250509050919050565b606081612b278161360f565b5f60055f8581526020019081526020015f20600a0190505f818054905067ffffffffffffffff811115612b5d57612b5c613f85565b5b604051908082528060200260200182016040528015612b9657816020015b612b83613b7d565b815260200190600190039081612b7b5790505b5090505f5f90505b8280549050811015612d635760075f848381548110612bc057612bbf61500a565b5b905f5260205f20015481526020019081526020015f206040518060e00160405290815f820154815260200160018201548152602001600282015f9054906101000a900460ff166004811115612c1857612c17613d0b565b5b6004811115612c2a57612c29613d0b565b5b81526020016002820160019054906101000a900473ffffffffffffffffffffffffffffffffffffffff1673ffffffffffffffffffffffffffffffffffffffff1673ffffffffffffffffffffffffffffffffffffffff168152602001600382018054612c9490614c5b565b80601f0160208091040260200160405190810160405280929190818152602001828054612cc090614c5b565b8015612d0b5780601f10612ce257610100808354040283529160200191612d0b565b820191905f5260205f20905b815481529060010190602001808311612cee57829003601f168201915b5050505050815260200160048201548152602001600582015f9054906101000a900460ff161515151581525050828281518110612d4b57612d4a61500a565b5b60200260200101819052508080600101915050612b9e565b50809350505050919050565b601481565b5f81612d7f8161360f565b5f60055f8581526020019081526020015f20905080600b015f9054906101000a900460ff16612db2576001925050612e64565b5f816009018054905090505f5f90505b81811015612e5c575f60065f856009018481548110612de457612de361500a565b5b905f5260205f20015481526020019081526020015f206007015490507f80000000000000000000000000000000000000000000000000000000000000008103612e2d5750612e4f565b6050811380612e3c5750601481125b15612e4d575f955050505050612e64565b505b8080600101915050612dc2565b506001935050505b50919050565b612e72613878565b5f73ffffffffffffffffffffffffffffffffffffffff168173ffffffffffffffffffffffffffffffffffffffff1603612ed7576040517fe6c4247b00000000000000000000000000000000000000000000000000000000815260040160405180910390fd5b60085f8273ffffffffffffffffffffffffffffffffffffffff1673ffffffffffffffffffffffffffffffffffffffff1681526020019081526020015f206004015f9054906101000a900460ff1615612f5b576040517f7ca2767c00000000000000000000000000000000000000000000000000000000815260040160405180910390fd5b5f6005811115612f6e57612f6d613d0b565b5b836005811115612f8157612f80613d0b565b5b03612fb8576040517fd954416a00000000000000000000000000000000000000000000000000000000815260040160405180910390fd5b6040518060a001604052808273ffffffffffffffffffffffffffffffffffffffff168152602001858152602001846005811115612ff857612ff7613d0b565b5b81526020018381526020016001151581525060085f8373ffffffffffffffffffffffffffffffffffffffff1673ffffffffffffffffffffffffffffffffffffffff1681526020019081526020015f205f820151815f015f6101000a81548173ffffffffffffffffffffffffffffffffffffffff021916908373ffffffffffffffffffffffffffffffffffffffff16021790555060208201518160010190816130a09190614e9f565b506040820151816002015f6101000a81548160ff021916908360058111156130cb576130ca613d0b565b5b021790555060608201518160030190816130e59190614e9f565b506080820151816004015f6101000a81548160ff0219169083151502179055509050508073ffffffffffffffffffffffffffffffffffffffff167fc9a31de765abe70445345802bee3c96554ca063ab257e3888d498accb859fabc85856040516131509291906150d6565b60405180910390a250505050565b5f600254905090565b5f61317061358a565b8361317a8161360f565b600a5f3373ffffffffffffffffffffffffffffffffffffffff1673ffffffffffffffffffffffffffffffffffffffff1681526020019081526020015f205f8681526020019081526020015f205f9054906101000a900460ff16613209576040517fd40c3d2100000000000000000000000000000000000000000000000000000000815260040160405180910390fd5b613214858585613664565b9150509392505050565b5f5f9054906101000a900473ffffffffffffffffffffffffffffffffffffffff1681565b61324a613878565b5f73ffffffffffffffffffffffffffffffffffffffff1660085f8373ffffffffffffffffffffffffffffffffffffffff1673ffffffffffffffffffffffffffffffffffffffff1681526020019081526020015f205f015f9054906101000a900473ffffffffffffffffffffffffffffffffffffffff1673ffffffffffffffffffffffffffffffffffffffff160361330d576040517f6f46a36500000000000000000000000000000000000000000000000000000000815260040160405180910390fd5b5f60085f8373ffffffffffffffffffffffffffffffffffffffff1673ffffffffffffffffffffffffffffffffffffffff1681526020019081526020015f206004015f6101000a81548160ff0219169083151502179055508073ffffffffffffffffffffffffffffffffffffffff167f7d434f3bffe7db5f776c1c2b3b22e492788bdfbd071e9aa176f096970ea889335f6040516133aa9190614a0e565b60405180910390a250565b806133bf8161360f565b5f60055f8481526020019081526020015f209050806002015f9054906101000a900473ffffffffffffffffffffffffffffffffffffffff1673ffffffffffffffffffffffffffffffffffffffff163373ffffffffffffffffffffffffffffffffffffffff161461345a576040517e7b024000000000000000000000000000000000000000000000000000000000815260040160405180910390fd5b6004600681111561346e5761346d613d0b565b5b816008015f9054906101000a900460ff16600681111561349157613490613d0b565b5b036134c8576040517fb9f7965300000000000000000000000000000000000000000000000000000000815260040160405180910390fd5b6004816008015f6101000a81548160ff021916908360068111156134ef576134ee613d0b565b5b0217905550428160070181905550827f7c1c93f72f29b8a1fc6fc85eed990d133b1ffac80c962b521abb12f38f2ff9af600460405161352e91906150ae565b60405180910390a23373ffffffffffffffffffffffffffffffffffffffff16837f2f4a952729db32131cb3d658cc231127e0ce7e50f83508ece9a49c985f2384d04260405161357d91906141bd565b60405180910390a3505050565b60085f3373ffffffffffffffffffffffffffffffffffffffff1673ffffffffffffffffffffffffffffffffffffffff1681526020019081526020015f206004015f9054906101000a900460ff1661360d576040517f2a718ceb00000000000000000000000000000000000000000000000000000000815260040160405180910390fd5b565b5f81148061361f57506002548110155b1561366157806040517f84e54a2400000000000000000000000000000000000000000000000000000000815260040161365891906141bd565b60405180910390fd5b50565b5f5f60055f8681526020019081526020015f209050603281600a0180549050106136ba576040517fcdb7a76c00000000000000000000000000000000000000000000000000000000815260040160405180910390fd5b5f60045f8154809291906136cd90614cb8565b9190505590506040518060e001604052808281526020018781526020018660048111156136fd576136fc613d0b565b5b81526020013373ffffffffffffffffffffffffffffffffffffffff1681526020018581526020014281526020015f151581525060075f8381526020019081526020015f205f820151815f0155602082015181600101556040820151816002015f6101000a81548160ff0219169083600481111561377d5761377c613d0b565b5b021790555060608201518160020160016101000a81548173ffffffffffffffffffffffffffffffffffffffff021916908373ffffffffffffffffffffffffffffffffffffffff16021790555060808201518160030190816137de9190614e9f565b5060a0820151816004015560c0820151816005015f6101000a81548160ff02191690831515021790555090505081600a0181908060018154018082558091505060019003905f5260205f20015f909190919091505585817fc2c9d0fa5caecea68b9ec6aca764014b01764f779d8a510f0d0d6796b76b7c83876040516138649190615113565b60405180910390a380925050509392505050565b5f5f9054906101000a900473ffffffffffffffffffffffffffffffffffffffff1673ffffffffffffffffffffffffffffffffffffffff163373ffffffffffffffffffffffffffffffffffffffff16146138fd576040517f4755657900000000000000000000000000000000000000000000000000000000815260040160405180910390fd5b565b600a5f8373ffffffffffffffffffffffffffffffffffffffff1673ffffffffffffffffffffffffffffffffffffffff1681526020019081526020015f205f8281526020019081526020015f205f9054906101000a900460ff16613a22576001600a5f8473ffffffffffffffffffffffffffffffffffffffff1673ffffffffffffffffffffffffffffffffffffffff1681526020019081526020015f205f8381526020019081526020015f205f6101000a81548160ff02191690831515021790555060095f8373ffffffffffffffffffffffffffffffffffffffff1673ffffffffffffffffffffffffffffffffffffffff1681526020019081526020015f2081908060018154018082558091505060019003905f5260205f20015f90919091909150555b5050565b6040518061018001604052805f81526020015f73ffffffffffffffffffffffffffffffffffffffff1681526020015f73ffffffffffffffffffffffffffffffffffffffff1681526020016060815260200160608152602001606081526020015f81526020015f81526020015f6006811115613aa457613aa3613d0b565b5b815260200160608152602001606081526020015f151581525090565b6040518061010001604052805f81526020015f81526020015f73ffffffffffffffffffffffffffffffffffffffff168152602001606081526020015f6004811115613b0e57613b0d613d0b565b5b81526020015f8152602001606081526020015f81525090565b6040518060a001604052805f73ffffffffffffffffffffffffffffffffffffffff168152602001606081526020015f6005811115613b6857613b67613d0b565b5b8152602001606081526020015f151581525090565b6040518060e001604052805f81526020015f81526020015f6004811115613ba757613ba6613d0b565b5b81526020015f73ffffffffffffffffffffffffffffffffffffffff168152602001606081526020015f81526020015f151581525090565b5f604051905090565b5f5ffd5b5f5ffd5b5f819050919050565b613c0181613bef565b8114613c0b575f5ffd5b50565b5f81359050613c1c81613bf8565b92915050565b5f60208284031215613c3757613c36613be7565b5b5f613c4484828501613c0e565b91505092915050565b613c5681613bef565b82525050565b5f73ffffffffffffffffffffffffffffffffffffffff82169050919050565b5f613c8582613c5c565b9050919050565b613c9581613c7b565b82525050565b5f81519050919050565b5f82825260208201905092915050565b8281835e5f83830152505050565b5f601f19601f8301169050919050565b5f613cdd82613c9b565b613ce78185613ca5565b9350613cf7818560208601613cb5565b613d0081613cc3565b840191505092915050565b7f4e487b71000000000000000000000000000000000000000000000000000000005f52602160045260245ffd5b60078110613d4957613d48613d0b565b5b50565b5f819050613d5982613d38565b919050565b5f613d6882613d4c565b9050919050565b613d7881613d5e565b82525050565b5f81519050919050565b5f82825260208201905092915050565b5f819050602082019050919050565b5f613db28383613c4d565b60208301905092915050565b5f602082019050919050565b5f613dd482613d7e565b613dde8185613d88565b9350613de983613d98565b805f5b83811015613e19578151613e008882613da7565b9750613e0b83613dbe565b925050600181019050613dec565b5085935050505092915050565b5f8115159050919050565b613e3a81613e26565b82525050565b5f61018083015f830151613e565f860182613c4d565b506020830151613e696020860182613c8c565b506040830151613e7c6040860182613c8c565b5060608301518482036060860152613e948282613cd3565b91505060808301518482036080860152613eae8282613cd3565b91505060a083015184820360a0860152613ec88282613cd3565b91505060c0830151613edd60c0860182613c4d565b5060e0830151613ef060e0860182613c4d565b50610100830151613f05610100860182613d6f565b50610120830151848203610120860152613f1f8282613dca565b915050610140830151848203610140860152613f3b8282613dca565b915050610160830151613f52610160860182613e31565b508091505092915050565b5f6020820190508181035f830152613f758184613e40565b905092915050565b5f5ffd5b5f5ffd5b7f4e487b71000000000000000000000000000000000000000000000000000000005f52604160045260245ffd5b613fbb82613cc3565b810181811067ffffffffffffffff82111715613fda57613fd9613f85565b5b80604052505050565b5f613fec613bde565b9050613ff88282613fb2565b919050565b5f67ffffffffffffffff82111561401757614016613f85565b5b61402082613cc3565b9050602081019050919050565b828183375f83830152505050565b5f61404d61404884613ffd565b613fe3565b90508281526020810184848401111561406957614068613f81565b5b61407484828561402d565b509392505050565b5f82601f8301126140905761408f613f7d565b5b81356140a084826020860161403b565b91505092915050565b600581106140b5575f5ffd5b50565b5f813590506140c6816140a9565b92915050565b5f819050919050565b6140de816140cc565b81146140e8575f5ffd5b50565b5f813590506140f9816140d5565b92915050565b5f5f5f5f5f60a0868803121561411857614117613be7565b5b5f61412588828901613c0e565b955050602086013567ffffffffffffffff81111561414657614145613beb565b5b6141528882890161407c565b9450506040614163888289016140b8565b935050606086013567ffffffffffffffff81111561418457614183613beb565b5b6141908882890161407c565b92505060806141a1888289016140eb565b9150509295509295909350565b6141b781613bef565b82525050565b5f6020820190506141d05f8301846141ae565b92915050565b6141df81613c7b565b81146141e9575f5ffd5b50565b5f813590506141fa816141d6565b92915050565b5f6020828403121561421557614214613be7565b5b5f614222848285016141ec565b91505092915050565b5f5f5f6060848603121561424257614241613be7565b5b5f61424f86828701613c0e565b935050602061426086828701613c0e565b925050604061427186828701613c0e565b9150509250925092565b5f81519050919050565b5f82825260208201905092915050565b5f819050602082019050919050565b600581106142b5576142b4613d0b565b5b50565b5f8190506142c5826142a4565b919050565b5f6142d4826142b8565b9050919050565b6142e4816142ca565b82525050565b6142f3816140cc565b82525050565b5f61010083015f83015161430f5f860182613c4d565b5060208301516143226020860182613c4d565b5060408301516143356040860182613c8c565b506060830151848203606086015261434d8282613cd3565b915050608083015161436260808601826142db565b5060a083015161437560a0860182613c4d565b5060c083015184820360c086015261438d8282613cd3565b91505060e08301516143a260e08601826142ea565b508091505092915050565b5f6143b883836142f9565b905092915050565b5f602082019050919050565b5f6143d68261427b565b6143e08185614285565b9350836020820285016143f285614295565b805f5b8581101561442d578484038952815161440e85826143ad565b9450614419836143c0565b925060208a019950506001810190506143f5565b50829750879550505050505092915050565b5f6020820190508181035f83015261445781846143cc565b905092915050565b5f61010083015f8301516144755f860182613c4d565b5060208301516144886020860182613c4d565b50604083015161449b6040860182613c8c565b50606083015184820360608601526144b38282613cd3565b91505060808301516144c860808601826142db565b5060a08301516144db60a0860182613c4d565b5060c083015184820360c08601526144f38282613cd3565b91505060e083015161450860e08601826142ea565b508091505092915050565b5f6020820190508181035f83015261452b818461445f565b905092915050565b61453c81613c7b565b82525050565b5f6020820190506145555f830184614533565b92915050565b614564816140cc565b82525050565b5f60208201905061457d5f83018461455b565b92915050565b6006811061459457614593613d0b565b5b50565b5f8190506145a482614583565b919050565b5f6145b382614597565b9050919050565b6145c3816145a9565b82525050565b5f60a083015f8301516145de5f860182613c8c565b50602083015184820360208601526145f68282613cd3565b915050604083015161460b60408601826145ba565b50606083015184820360608601526146238282613cd3565b91505060808301516146386080860182613e31565b508091505092915050565b5f6020820190508181035f83015261465b81846145c9565b905092915050565b61466c81613e26565b8114614676575f5ffd5b50565b5f8135905061468781614663565b92915050565b5f5f5f5f5f60a086880312156146a6576146a5613be7565b5b5f6146b3888289016141ec565b955050602086013567ffffffffffffffff8111156146d4576146d3613beb565b5b6146e08882890161407c565b945050604086013567ffffffffffffffff81111561470157614700613beb565b5b61470d8882890161407c565b935050606086013567ffffffffffffffff81111561472e5761472d613beb565b5b61473a8882890161407c565b925050608061474b88828901614679565b9150509295509295909350565b5f81519050919050565b5f82825260208201905092915050565b5f819050602082019050919050565b6005811061479257614791613d0b565b5b50565b5f8190506147a282614781565b919050565b5f6147b182614795565b9050919050565b6147c1816147a7565b82525050565b5f60e083015f8301516147dc5f860182613c4d565b5060208301516147ef6020860182613c4d565b50604083015161480260408601826147b8565b5060608301516148156060860182613c8c565b506080830151848203608086015261482d8282613cd3565b91505060a083015161484260a0860182613c4d565b5060c083015161485560c0860182613e31565b508091505092915050565b5f61486b83836147c7565b905092915050565b5f602082019050919050565b5f61488982614758565b6148938185614762565b9350836020820285016148a585614772565b805f5b858110156148e057848403895281516148c18582614860565b94506148cc83614873565b925060208a019950506001810190506148a8565b50829750879550505050505092915050565b5f6020820190508181035f83015261490a818461487f565b905092915050565b5f82825260208201905092915050565b5f61492c82613d7e565b6149368185614912565b935061494183613d98565b805f5b838110156149715781516149588882613da7565b975061496383613dbe565b925050600181019050614944565b5085935050505092915050565b5f6020820190508181035f8301526149968184614922565b905092915050565b600781106149aa575f5ffd5b50565b5f813590506149bb8161499e565b92915050565b5f5f604083850312156149d7576149d6613be7565b5b5f6149e485828601613c0e565b92505060206149f5858286016149ad565b9150509250929050565b614a0881613e26565b82525050565b5f602082019050614a215f8301846149ff565b92915050565b5f60e083015f830151614a3c5f860182613c4d565b506020830151614a4f6020860182613c4d565b506040830151614a6260408601826147b8565b506060830151614a756060860182613c8c565b5060808301518482036080860152614a8d8282613cd3565b91505060a0830151614aa260a0860182613c4d565b5060c0830151614ab560c0860182613e31565b508091505092915050565b5f6020820190508181035f830152614ad88184614a27565b905092915050565b60068110614aec575f5ffd5b50565b5f81359050614afd81614ae0565b92915050565b5f5f5f5f60808587031215614b1b57614b1a613be7565b5b5f85013567ffffffffffffffff811115614b3857614b37613beb565b5b614b448782880161407c565b9450506020614b5587828801614aef565b935050604085013567ffffffffffffffff811115614b7657614b75613beb565b5b614b828782880161407c565b9250506060614b93878288016141ec565b91505092959194509250565b60058110614bab575f5ffd5b50565b5f81359050614bbc81614b9f565b92915050565b5f5f5f60608486031215614bd957614bd8613be7565b5b5f614be686828701613c0e565b9350506020614bf786828701614bae565b925050604084013567ffffffffffffffff811115614c1857614c17613beb565b5b614c248682870161407c565b9150509250925092565b7f4e487b71000000000000000000000000000000000000000000000000000000005f52602260045260245ffd5b5f6002820490506001821680614c7257607f821691505b602082108103614c8557614c84614c2e565b5b50919050565b7f4e487b71000000000000000000000000000000000000000000000000000000005f52601160045260245ffd5b5f614cc282613bef565b91507fffffffffffffffffffffffffffffffffffffffffffffffffffffffffffffffff8203614cf457614cf3614c8b565b5b600182019050919050565b5f819050815f5260205f209050919050565b5f6020601f8301049050919050565b5f82821b905092915050565b5f60088302614d5b7fffffffffffffffffffffffffffffffffffffffffffffffffffffffffffffffff82614d20565b614d658683614d20565b95508019841693508086168417925050509392505050565b5f819050919050565b5f614da0614d9b614d9684613bef565b614d7d565b613bef565b9050919050565b5f819050919050565b614db983614d86565b614dcd614dc582614da7565b848454614d2c565b825550505050565b5f5f905090565b614de4614dd5565b614def818484614db0565b505050565b5b81811015614e1257614e075f82614ddc565b600181019050614df5565b5050565b601f821115614e5757614e2881614cff565b614e3184614d11565b81016020851015614e40578190505b614e54614e4c85614d11565b830182614df4565b50505b505050565b5f82821c905092915050565b5f614e775f1984600802614e5c565b1980831691505092915050565b5f614e8f8383614e68565b9150826002028217905092915050565b614ea882613c9b565b67ffffffffffffffff811115614ec157614ec0613f85565b5b614ecb8254614c5b565b614ed6828285614e16565b5f60209050601f831160018114614f07575f8415614ef5578287015190505b614eff8582614e84565b865550614f66565b601f198416614f1586614cff565b5f5b82811015614f3c57848901518255600182019150602085019450602081019050614f17565b86831015614f595784890151614f55601f891682614e68565b8355505b6001600288020188555050505b505050505050565b614f77816142ca565b82525050565b5f604082019050614f905f830185614f6e565b614f9d6020830184614533565b9392505050565b5f614fae82613bef565b9150614fb983613bef565b9250828201905080821115614fd157614fd0614c8b565b5b92915050565b5f614fe182613bef565b9150614fec83613bef565b925082820390508181111561500457615003614c8b565b5b92915050565b7f4e487b71000000000000000000000000000000000000000000000000000000005f52603260045260245ffd5b5f82825260208201905092915050565b5f61505182613c9b565b61505b8185615037565b935061506b818560208601613cb5565b61507481613cc3565b840191505092915050565b5f6020820190508181035f8301526150978184615047565b905092915050565b6150a881613d5e565b82525050565b5f6020820190506150c15f83018461509f565b92915050565b6150d0816145a9565b82525050565b5f6040820190508181035f8301526150ee8185615047565b90506150fd60208301846150c7565b9392505050565b61510d816147a7565b82525050565b5f6020820190506151265f830184615104565b9291505056fea264697066735822122036445629043fff83a4f5f3c44b2f1b84c9fd1a4e8fb5a94b49627afca91810ed64736f6c634300081e0033",
			"opcodes": "PUSH1 0x80 PUSH1 0x40 MSTORE PUSH1 0x1 PUSH1 0x2 SSTORE PUSH1 0x1 PUSH1 0x3 SSTORE PUSH1 0x1 PUSH1 0x4 SSTORE CALLVALUE DUP1 ISZERO PUSH1 0x1D JUMPI PUSH0 PUSH0 REVERT JUMPDEST POP CALLER PUSH0 PUSH0 PUSH2 0x100 EXP DUP2 SLOAD DUP2 PUSH20 0xFFFFFFFFFFFFFFFFFFFFFFFFFFFFFFFFFFFFFFFF MUL NOT AND SWAP1 DUP4 PUSH20 0xFFFFFFFFFFFFFFFFFFFFFFFFFFFFFFFFFFFFFFFF AND MUL OR SWAP1 SSTORE POP PUSH2 0x5162 DUP1 PUSH2 0x6A PUSH0 CODECOPY PUSH0 RETURN INVALID PUSH1 0x80 PUSH1 0x40 MSTORE CALLVALUE DUP1 ISZERO PUSH2 0xF JUMPI PUSH0 PUSH0 REVERT JUMPDEST POP PUSH1 0x4 CALLDATASIZE LT PUSH2 0x204 JUMPI PUSH0 CALLDATALOAD PUSH1 0xE0 SHR DUP1 PUSH4 0x72F2F93A GT PUSH2 0x118 JUMPI DUP1 PUSH4 0x9B4ADF4E GT PUSH2 0xAB JUMPI DUP1 PUSH4 0xB9A3A68C GT PUSH2 0x7A JUMPI DUP1 PUSH4 0xB9A3A68C EQ PUSH2 0x636 JUMPI DUP1 PUSH4 0xE570C367 EQ PUSH2 0x654 JUMPI DUP1 PUSH4 0xF851A440 EQ PUSH2 0x684 JUMPI DUP1 PUSH4 0xFC436695 EQ PUSH2 0x6A2 JUMPI DUP1 PUSH4 0xFD84CB97 EQ PUSH2 0x6BE JUMPI PUSH2 0x204 JUMP JUMPDEST DUP1 PUSH4 0x9B4ADF4E EQ PUSH2 0x59C JUMPI DUP1 PUSH4 0xA54A6EE4 EQ PUSH2 0x5CC JUMPI DUP1 PUSH4 0xAF56A428 EQ PUSH2 0x5EA JUMPI DUP1 PUSH4 0xB7FA3C2A EQ PUSH2 0x61A JUMPI PUSH2 0x204 JUMP JUMPDEST DUP1 PUSH4 0x7FAA7BC7 GT PUSH2 0xE7 JUMPI DUP1 PUSH4 0x7FAA7BC7 EQ PUSH2 0x4F0 JUMPI DUP1 PUSH4 0x8D70861E EQ PUSH2 0x50C JUMPI DUP1 PUSH4 0x925D3478 EQ PUSH2 0x53C JUMPI DUP1 PUSH4 0x9578615E EQ PUSH2 0x56C JUMPI PUSH2 0x204 JUMP JUMPDEST DUP1 PUSH4 0x72F2F93A EQ PUSH2 0x46A JUMPI DUP1 PUSH4 0x75829DEF EQ PUSH2 0x49A JUMPI DUP1 PUSH4 0x7B8A20E2 EQ PUSH2 0x4B6 JUMPI DUP1 PUSH4 0x7DEFA920 EQ PUSH2 0x4D4 JUMPI PUSH2 0x204 JUMP JUMPDEST DUP1 PUSH4 0x26782247 GT PUSH2 0x19B JUMPI DUP1 PUSH4 0x475B6F98 GT PUSH2 0x16A JUMPI DUP1 PUSH4 0x475B6F98 EQ PUSH2 0x3B4 JUMPI DUP1 PUSH4 0x48016224 EQ PUSH2 0x3E4 JUMPI DUP1 PUSH4 0x4FFE6AE2 EQ PUSH2 0x414 JUMPI DUP1 PUSH4 0x58DCF85E EQ PUSH2 0x430 JUMPI DUP1 PUSH4 0x63F86584 EQ PUSH2 0x44C JUMPI PUSH2 0x204 JUMP JUMPDEST DUP1 PUSH4 0x26782247 EQ PUSH2 0x32A JUMPI DUP1 PUSH4 0x2BF210DC EQ PUSH2 0x348 JUMPI DUP1 PUSH4 0x305207B0 EQ PUSH2 0x366 JUMPI DUP1 PUSH4 0x4138D167 EQ PUSH2 0x384 JUMPI PUSH2 0x204 JUMP JUMPDEST DUP1 PUSH4 0x147BF6C4 GT PUSH2 0x1D7 JUMPI DUP1 PUSH4 0x147BF6C4 EQ PUSH2 0x290 JUMPI DUP1 PUSH4 0x17082AE0 EQ PUSH2 0x2AC JUMPI DUP1 PUSH4 0x20FC4881 EQ PUSH2 0x2DC JUMPI DUP1 PUSH4 0x229EC452 EQ PUSH2 0x30C JUMPI PUSH2 0x204 JUMP JUMPDEST DUP1 PUSH4 0x92B3740 EQ PUSH2 0x208 JUMPI DUP1 PUSH4 0xA7A0B69 EQ PUSH2 0x238 JUMPI DUP1 PUSH4 0xE18B681 EQ PUSH2 0x268 JUMPI DUP1 PUSH4 0xFD19668 EQ PUSH2 0x272 JUMPI JUMPDEST PUSH0 PUSH0 REVERT JUMPDEST PUSH2 0x222 PUSH1 0x4 DUP1 CALLDATASIZE SUB DUP2 ADD SWAP1 PUSH2 0x21D SWAP2 SWAP1 PUSH2 0x3C22 JUMP JUMPDEST PUSH2 0x6DA JUMP JUMPDEST PUSH1 0x40 MLOAD PUSH2 0x22F SWAP2 SWAP1 PUSH2 0x3F5D JUMP JUMPDEST PUSH1 0x40 MLOAD DUP1 SWAP2 SUB SWAP1 RETURN JUMPDEST PUSH2 0x252 PUSH1 0x4 DUP1 CALLDATASIZE SUB DUP2 ADD SWAP1 PUSH2 0x24D SWAP2 SWAP1 PUSH2 0x40FF JUMP JUMPDEST PUSH2 0xA7D JUMP JUMPDEST PUSH1 0x40 MLOAD PUSH2 0x25F SWAP2 SWAP1 PUSH2 0x41BD JUMP JUMPDEST PUSH1 0x40 MLOAD DUP1 SWAP2 SUB SWAP1 RETURN JUMPDEST PUSH2 0x270 PUSH2 0xDD8 JUMP JUMPDEST STOP JUMPDEST PUSH2 0x27A PUSH2 0xF22 JUMP JUMPDEST PUSH1 0x40 MLOAD PUSH2 0x287 SWAP2 SWAP1 PUSH2 0x41BD JUMP JUMPDEST PUSH1 0x40 MLOAD DUP1 SWAP2 SUB SWAP1 RETURN JUMPDEST PUSH2 0x2AA PUSH1 0x4 DUP1 CALLDATASIZE SUB DUP2 ADD SWAP1 PUSH2 0x2A5 SWAP2 SWAP1 PUSH2 0x4200 JUMP JUMPDEST PUSH2 0xF2B JUMP JUMPDEST STOP JUMPDEST PUSH2 0x2C6 PUSH1 0x4 DUP1 CALLDATASIZE SUB DUP2 ADD SWAP1 PUSH2 0x2C1 SWAP2 SWAP1 PUSH2 0x422B JUMP JUMPDEST PUSH2 0x101E JUMP JUMPDEST PUSH1 0x40 MLOAD PUSH2 0x2D3 SWAP2 SWAP1 PUSH2 0x443F JUMP JUMPDEST PUSH1 0x40 MLOAD DUP1 SWAP2 SUB SWAP1 RETURN JUMPDEST PUSH2 0x2F6 PUSH1 0x4 DUP1 CALLDATASIZE SUB DUP2 ADD SWAP1 PUSH2 0x2F1 SWAP2 SWAP1 PUSH2 0x3C22 JUMP JUMPDEST PUSH2 0x1399 JUMP JUMPDEST PUSH1 0x40 MLOAD PUSH2 0x303 SWAP2 SWAP1 PUSH2 0x4513 JUMP JUMPDEST PUSH1 0x40 MLOAD DUP1 SWAP2 SUB SWAP1 RETURN JUMPDEST PUSH2 0x314 PUSH2 0x15ED JUMP JUMPDEST PUSH1 0x40 MLOAD PUSH2 0x321 SWAP2 SWAP1 PUSH2 0x41BD JUMP JUMPDEST PUSH1 0x40 MLOAD DUP1 SWAP2 SUB SWAP1 RETURN JUMPDEST PUSH2 0x332 PUSH2 0x15F6 JUMP JUMPDEST PUSH1 0x40 MLOAD PUSH2 0x33F SWAP2 SWAP1 PUSH2 0x4542 JUMP JUMPDEST PUSH1 0x40 MLOAD DUP1 SWAP2 SUB SWAP1 RETURN JUMPDEST PUSH2 0x350 PUSH2 0x161B JUMP JUMPDEST PUSH1 0x40 MLOAD PUSH2 0x35D SWAP2 SWAP1 PUSH2 0x456A JUMP JUMPDEST PUSH1 0x40 MLOAD DUP1 SWAP2 SUB SWAP1 RETURN JUMPDEST PUSH2 0x36E PUSH2 0x163F JUMP JUMPDEST PUSH1 0x40 MLOAD PUSH2 0x37B SWAP2 SWAP1 PUSH2 0x41BD JUMP JUMPDEST PUSH1 0x40 MLOAD DUP1 SWAP2 SUB SWAP1 RETURN JUMPDEST PUSH2 0x39E PUSH1 0x4 DUP1 CALLDATASIZE SUB DUP2 ADD SWAP1 PUSH2 0x399 SWAP2 SWAP1 PUSH2 0x4200 JUMP JUMPDEST PUSH2 0x1644 JUMP JUMPDEST PUSH1 0x40 MLOAD PUSH2 0x3AB SWAP2 SWAP1 PUSH2 0x4643 JUMP JUMPDEST PUSH1 0x40 MLOAD DUP1 SWAP2 SUB SWAP1 RETURN JUMPDEST PUSH2 0x3CE PUSH1 0x4 DUP1 CALLDATASIZE SUB DUP2 ADD SWAP1 PUSH2 0x3C9 SWAP2 SWAP1 PUSH2 0x468D JUMP JUMPDEST PUSH2 0x1863 JUMP JUMPDEST PUSH1 0x40 MLOAD PUSH2 0x3DB SWAP2 SWAP1 PUSH2 0x41BD JUMP JUMPDEST PUSH1 0x40 MLOAD DUP1 SWAP2 SUB SWAP1 RETURN JUMPDEST PUSH2 0x3FE PUSH1 0x4 DUP1 CALLDATASIZE SUB DUP2 ADD SWAP1 PUSH2 0x3F9 SWAP2 SWAP1 PUSH2 0x422B JUMP JUMPDEST PUSH2 0x1B10 JUMP JUMPDEST PUSH1 0x40 MLOAD PUSH2 0x40B SWAP2 SWAP1 PUSH2 0x48F2 JUMP JUMPDEST PUSH1 0x40 MLOAD DUP1 SWAP2 SUB SWAP1 RETURN JUMPDEST PUSH2 0x42E PUSH1 0x4 DUP1 CALLDATASIZE SUB DUP2 ADD SWAP1 PUSH2 0x429 SWAP2 SWAP1 PUSH2 0x3C22 JUMP JUMPDEST PUSH2 0x1E0B JUMP JUMPDEST STOP JUMPDEST PUSH2 0x44A PUSH1 0x4 DUP1 CALLDATASIZE SUB DUP2 ADD SWAP1 PUSH2 0x445 SWAP2 SWAP1 PUSH2 0x4200 JUMP JUMPDEST PUSH2 0x1EC1 JUMP JUMPDEST STOP JUMPDEST PUSH2 0x454 PUSH2 0x2036 JUMP JUMPDEST PUSH1 0x40 MLOAD PUSH2 0x461 SWAP2 SWAP1 PUSH2 0x41BD JUMP JUMPDEST PUSH1 0x40 MLOAD DUP1 SWAP2 SUB SWAP1 RETURN JUMPDEST PUSH2 0x484 PUSH1 0x4 DUP1 CALLDATASIZE SUB DUP2 ADD SWAP1 PUSH2 0x47F SWAP2 SWAP1 PUSH2 0x4200 JUMP JUMPDEST PUSH2 0x203B JUMP JUMPDEST PUSH1 0x40 MLOAD PUSH2 0x491 SWAP2 SWAP1 PUSH2 0x497E JUMP JUMPDEST PUSH1 0x40 MLOAD DUP1 SWAP2 SUB SWAP1 RETURN JUMPDEST PUSH2 0x4B4 PUSH1 0x4 DUP1 CALLDATASIZE SUB DUP2 ADD SWAP1 PUSH2 0x4AF SWAP2 SWAP1 PUSH2 0x4200 JUMP JUMPDEST PUSH2 0x20CE JUMP JUMPDEST STOP JUMPDEST PUSH2 0x4BE PUSH2 0x2200 JUMP JUMPDEST PUSH1 0x40 MLOAD PUSH2 0x4CB SWAP2 SWAP1 PUSH2 0x456A JUMP JUMPDEST PUSH1 0x40 MLOAD DUP1 SWAP2 SUB SWAP1 RETURN JUMPDEST PUSH2 0x4EE PUSH1 0x4 DUP1 CALLDATASIZE SUB DUP2 ADD SWAP1 PUSH2 0x4E9 SWAP2 SWAP1 PUSH2 0x49C1 JUMP JUMPDEST PUSH2 0x2205 JUMP JUMPDEST STOP JUMPDEST PUSH2 0x50A PUSH1 0x4 DUP1 CALLDATASIZE SUB DUP2 ADD SWAP1 PUSH2 0x505 SWAP2 SWAP1 PUSH2 0x3C22 JUMP JUMPDEST PUSH2 0x23D9 JUMP JUMPDEST STOP JUMPDEST PUSH2 0x526 PUSH1 0x4 DUP1 CALLDATASIZE SUB DUP2 ADD SWAP1 PUSH2 0x521 SWAP2 SWAP1 PUSH2 0x3C22 JUMP JUMPDEST PUSH2 0x264A JUMP JUMPDEST PUSH1 0x40 MLOAD PUSH2 0x533 SWAP2 SWAP1 PUSH2 0x443F JUMP JUMPDEST PUSH1 0x40 MLOAD DUP1 SWAP2 SUB SWAP1 RETURN JUMPDEST PUSH2 0x556 PUSH1 0x4 DUP1 CALLDATASIZE SUB DUP2 ADD SWAP1 PUSH2 0x551 SWAP2 SWAP1 PUSH2 0x3C22 JUMP JUMPDEST PUSH2 0x291E JUMP JUMPDEST PUSH1 0x40 MLOAD PUSH2 0x563 SWAP2 SWAP1 PUSH2 0x4A0E JUMP JUMPDEST PUSH1 0x40 MLOAD DUP1 SWAP2 SUB SWAP1 RETURN JUMPDEST PUSH2 0x586 PUSH1 0x4 DUP1 CALLDATASIZE SUB DUP2 ADD SWAP1 PUSH2 0x581 SWAP2 SWAP1 PUSH2 0x3C22 JUMP JUMPDEST PUSH2 0x2947 JUMP JUMPDEST PUSH1 0x40 MLOAD PUSH2 0x593 SWAP2 SWAP1 PUSH2 0x4AC0 JUMP JUMPDEST PUSH1 0x40 MLOAD DUP1 SWAP2 SUB SWAP1 RETURN JUMPDEST PUSH2 0x5B6 PUSH1 0x4 DUP1 CALLDATASIZE SUB DUP2 ADD SWAP1 PUSH2 0x5B1 SWAP2 SWAP1 PUSH2 0x3C22 JUMP JUMPDEST PUSH2 0x2B1B JUMP JUMPDEST PUSH1 0x40 MLOAD PUSH2 0x5C3 SWAP2 SWAP1 PUSH2 0x48F2 JUMP JUMPDEST PUSH1 0x40 MLOAD DUP1 SWAP2 SUB SWAP1 RETURN JUMPDEST PUSH2 0x5D4 PUSH2 0x2D6F JUMP JUMPDEST PUSH1 0x40 MLOAD PUSH2 0x5E1 SWAP2 SWAP1 PUSH2 0x456A JUMP JUMPDEST PUSH1 0x40 MLOAD DUP1 SWAP2 SUB SWAP1 RETURN JUMPDEST PUSH2 0x604 PUSH1 0x4 DUP1 CALLDATASIZE SUB DUP2 ADD SWAP1 PUSH2 0x5FF SWAP2 SWAP1 PUSH2 0x3C22 JUMP JUMPDEST PUSH2 0x2D74 JUMP JUMPDEST PUSH1 0x40 MLOAD PUSH2 0x611 SWAP2 SWAP1 PUSH2 0x4A0E JUMP JUMPDEST PUSH1 0x40 MLOAD DUP1 SWAP2 SUB SWAP1 RETURN JUMPDEST PUSH2 0x634 PUSH1 0x4 DUP1 CALLDATASIZE SUB DUP2 ADD SWAP1 PUSH2 0x62F SWAP2 SWAP1 PUSH2 0x4B03 JUMP JUMPDEST PUSH2 0x2E6A JUMP JUMPDEST STOP JUMPDEST PUSH2 0x63E PUSH2 0x315E JUMP JUMPDEST PUSH1 0x40 MLOAD PUSH2 0x64B SWAP2 SWAP1 PUSH2 0x41BD JUMP JUMPDEST PUSH1 0x40 MLOAD DUP1 SWAP2 SUB SWAP1 RETURN JUMPDEST PUSH2 0x66E PUSH1 0x4 DUP1 CALLDATASIZE SUB DUP2 ADD SWAP1 PUSH2 0x669 SWAP2 SWAP1 PUSH2 0x4BC2 JUMP JUMPDEST PUSH2 0x3167 JUMP JUMPDEST PUSH1 0x40 MLOAD PUSH2 0x67B SWAP2 SWAP1 PUSH2 0x41BD JUMP JUMPDEST PUSH1 0x40 MLOAD DUP1 SWAP2 SUB SWAP1 RETURN JUMPDEST PUSH2 0x68C PUSH2 0x321E JUMP JUMPDEST PUSH1 0x40 MLOAD PUSH2 0x699 SWAP2 SWAP1 PUSH2 0x4542 JUMP JUMPDEST PUSH1 0x40 MLOAD DUP1 SWAP2 SUB SWAP1 RETURN JUMPDEST PUSH2 0x6BC PUSH1 0x4 DUP1 CALLDATASIZE SUB DUP2 ADD SWAP1 PUSH2 0x6B7 SWAP2 SWAP1 PUSH2 0x4200 JUMP JUMPDEST PUSH2 0x3242 JUMP JUMPDEST STOP JUMPDEST PUSH2 0x6D8 PUSH1 0x4 DUP1 CALLDATASIZE SUB DUP2 ADD SWAP1 PUSH2 0x6D3 SWAP2 SWAP1 PUSH2 0x3C22 JUMP JUMPDEST PUSH2 0x33B5 JUMP JUMPDEST STOP JUMPDEST PUSH2 0x6E2 PUSH2 0x3A26 JUMP JUMPDEST PUSH1 0x5 PUSH0 DUP4 DUP2 MSTORE PUSH1 0x20 ADD SWAP1 DUP2 MSTORE PUSH1 0x20 ADD PUSH0 KECCAK256 PUSH1 0x40 MLOAD DUP1 PUSH2 0x180 ADD PUSH1 0x40 MSTORE SWAP1 DUP2 PUSH0 DUP3 ADD SLOAD DUP2 MSTORE PUSH1 0x20 ADD PUSH1 0x1 DUP3 ADD PUSH0 SWAP1 SLOAD SWAP1 PUSH2 0x100 EXP SWAP1 DIV PUSH20 0xFFFFFFFFFFFFFFFFFFFFFFFFFFFFFFFFFFFFFFFF AND PUSH20 0xFFFFFFFFFFFFFFFFFFFFFFFFFFFFFFFFFFFFFFFF AND PUSH20 0xFFFFFFFFFFFFFFFFFFFFFFFFFFFFFFFFFFFFFFFF AND DUP2 MSTORE PUSH1 0x20 ADD PUSH1 0x2 DUP3 ADD PUSH0 SWAP1 SLOAD SWAP1 PUSH2 0x100 EXP SWAP1 DIV PUSH20 0xFFFFFFFFFFFFFFFFFFFFFFFFFFFFFFFFFFFFFFFF AND PUSH20 0xFFFFFFFFFFFFFFFFFFFFFFFFFFFFFFFFFFFFFFFF AND PUSH20 0xFFFFFFFFFFFFFFFFFFFFFFFFFFFFFFFFFFFFFFFF AND DUP2 MSTORE PUSH1 0x20 ADD PUSH1 0x3 DUP3 ADD DUP1 SLOAD PUSH2 0x7C2 SWAP1 PUSH2 0x4C5B JUMP JUMPDEST DUP1 PUSH1 0x1F ADD PUSH1 0x20 DUP1 SWAP2 DIV MUL PUSH1 0x20 ADD PUSH1 0x40 MLOAD SWAP1 DUP2 ADD PUSH1 0x40 MSTORE DUP1 SWAP3 SWAP2 SWAP1 DUP2 DUP2 MSTORE PUSH1 0x20 ADD DUP3 DUP1 SLOAD PUSH2 0x7EE SWAP1 PUSH2 0x4C5B JUMP JUMPDEST DUP1 ISZERO PUSH2 0x839 JUMPI DUP1 PUSH1 0x1F LT PUSH2 0x810 JUMPI PUSH2 0x100 DUP1 DUP4 SLOAD DIV MUL DUP4 MSTORE SWAP2 PUSH1 0x20 ADD SWAP2 PUSH2 0x839 JUMP JUMPDEST DUP3 ADD SWAP2 SWAP1 PUSH0 MSTORE PUSH1 0x20 PUSH0 KECCAK256 SWAP1 JUMPDEST DUP2 SLOAD DUP2 MSTORE SWAP1 PUSH1 0x1 ADD SWAP1 PUSH1 0x20 ADD DUP1 DUP4 GT PUSH2 0x81C JUMPI DUP3 SWAP1 SUB PUSH1 0x1F AND DUP3 ADD SWAP2 JUMPDEST POP POP POP POP POP DUP2 MSTORE PUSH1 0x20 ADD PUSH1 0x4 DUP3 ADD DUP1 SLOAD PUSH2 0x852 SWAP1 PUSH2 0x4C5B JUMP JUMPDEST DUP1 PUSH1 0x1F ADD PUSH1 0x20 DUP1 SWAP2 DIV MUL PUSH1 0x20 ADD PUSH1 0x40 MLOAD SWAP1 DUP2 ADD PUSH1 0x40 MSTORE DUP1 SWAP3 SWAP2 SWAP1 DUP2 DUP2 MSTORE PUSH1 0x20 ADD DUP3 DUP1 SLOAD PUSH2 0x87E SWAP1 PUSH2 0x4C5B JUMP JUMPDEST DUP1 ISZERO PUSH2 0x8C9 JUMPI DUP1 PUSH1 0x1F LT PUSH2 0x8A0 JUMPI PUSH2 0x100 DUP1 DUP4 SLOAD DIV MUL DUP4 MSTORE SWAP2 PUSH1 0x20 ADD SWAP2 PUSH2 0x8C9 JUMP JUMPDEST DUP3 ADD SWAP2 SWAP1 PUSH0 MSTORE PUSH1 0x20 PUSH0 KECCAK256 SWAP1 JUMPDEST DUP2 SLOAD DUP2 MSTORE SWAP1 PUSH1 0x1 ADD SWAP1 PUSH1 0x20 ADD DUP1 DUP4 GT PUSH2 0x8AC JUMPI DUP3 SWAP1 SUB PUSH1 0x1F AND DUP3 ADD SWAP2 JUMPDEST POP POP POP POP POP DUP2 MSTORE PUSH1 0x20 ADD PUSH1 0x5 DUP3 ADD DUP1 SLOAD PUSH2 0x8E2 SWAP1 PUSH2 0x4C5B JUMP JUMPDEST DUP1 PUSH1 0x1F ADD PUSH1 0x20 DUP1 SWAP2 DIV MUL PUSH1 0x20 ADD PUSH1 0x40 MLOAD SWAP1 DUP2 ADD PUSH1 0x40 MSTORE DUP1 SWAP3 SWAP2 SWAP1 DUP2 DUP2 MSTORE PUSH1 0x20 ADD DUP3 DUP1 SLOAD PUSH2 0x90E SWAP1 PUSH2 0x4C5B JUMP JUMPDEST DUP1 ISZERO PUSH2 0x959 JUMPI DUP1 PUSH1 0x1F LT PUSH2 0x930 JUMPI PUSH2 0x100 DUP1 DUP4 SLOAD DIV MUL DUP4 MSTORE SWAP2 PUSH1 0x20 ADD SWAP2 PUSH2 0x959 JUMP JUMPDEST DUP3 ADD SWAP2 SWAP1 PUSH0 MSTORE PUSH1 0x20 PUSH0 KECCAK256 SWAP1 JUMPDEST DUP2 SLOAD DUP2 MSTORE SWAP1 PUSH1 0x1 ADD SWAP1 PUSH1 0x20 ADD DUP1 DUP4 GT PUSH2 0x93C JUMPI DUP3 SWAP1 SUB PUSH1 0x1F AND DUP3 ADD SWAP2 JUMPDEST POP POP POP POP POP DUP2 MSTORE PUSH1 0x20 ADD PUSH1 0x6 DUP3 ADD SLOAD DUP2 MSTORE PUSH1 0x20 ADD PUSH1 0x7 DUP3 ADD SLOAD DUP2 MSTORE PUSH1 0x20 ADD PUSH1 0x8 DUP3 ADD PUSH0 SWAP1 SLOAD SWAP1 PUSH2 0x100 EXP SWAP1 DIV PUSH1 0xFF AND PUSH1 0x6 DUP2 GT ISZERO PUSH2 0x99A JUMPI PUSH2 0x999 PUSH2 0x3D0B JUMP JUMPDEST JUMPDEST PUSH1 0x6 DUP2 GT ISZERO PUSH2 0x9AC JUMPI PUSH2 0x9AB PUSH2 0x3D0B JUMP JUMPDEST JUMPDEST DUP2 MSTORE PUSH1 0x20 ADD PUSH1 0x9 DUP3 ADD DUP1 SLOAD DUP1 PUSH1 0x20 MUL PUSH1 0x20 ADD PUSH1 0x40 MLOAD SWAP1 DUP2 ADD PUSH1 0x40 MSTORE DUP1 SWAP3 SWAP2 SWAP1 DUP2 DUP2 MSTORE PUSH1 0x20 ADD DUP3 DUP1 SLOAD DUP1 ISZERO PUSH2 0x9FD JUMPI PUSH1 0x20 MUL DUP3 ADD SWAP2 SWAP1 PUSH0 MSTORE PUSH1 0x20 PUSH0 KECCAK256 SWAP1 JUMPDEST DUP2 SLOAD DUP2 MSTORE PUSH1 0x20 ADD SWAP1 PUSH1 0x1 ADD SWAP1 DUP1 DUP4 GT PUSH2 0x9E9 JUMPI JUMPDEST POP POP POP POP POP DUP2 MSTORE PUSH1 0x20 ADD PUSH1 0xA DUP3 ADD DUP1 SLOAD DUP1 PUSH1 0x20 MUL PUSH1 0x20 ADD PUSH1 0x40 MLOAD SWAP1 DUP2 ADD PUSH1 0x40 MSTORE DUP1 SWAP3 SWAP2 SWAP1 DUP2 DUP2 MSTORE PUSH1 0x20 ADD DUP3 DUP1 SLOAD DUP1 ISZERO PUSH2 0xA53 JUMPI PUSH1 0x20 MUL DUP3 ADD SWAP2 SWAP1 PUSH0 MSTORE PUSH1 0x20 PUSH0 KECCAK256 SWAP1 JUMPDEST DUP2 SLOAD DUP2 MSTORE PUSH1 0x20 ADD SWAP1 PUSH1 0x1 ADD SWAP1 DUP1 DUP4 GT PUSH2 0xA3F JUMPI JUMPDEST POP POP POP POP POP DUP2 MSTORE PUSH1 0x20 ADD PUSH1 0xB DUP3 ADD PUSH0 SWAP1 SLOAD SWAP1 PUSH2 0x100 EXP SWAP1 DIV PUSH1 0xFF AND ISZERO ISZERO ISZERO ISZERO DUP2 MSTORE POP POP SWAP1 POP SWAP2 SWAP1 POP JUMP JUMPDEST PUSH0 PUSH2 0xA86 PUSH2 0x358A JUMP JUMPDEST DUP6 PUSH2 0xA90 DUP2 PUSH2 0x360F JUMP JUMPDEST PUSH1 0xA PUSH0 CALLER PUSH20 0xFFFFFFFFFFFFFFFFFFFFFFFFFFFFFFFFFFFFFFFF AND PUSH20 0xFFFFFFFFFFFFFFFFFFFFFFFFFFFFFFFFFFFFFFFF AND DUP2 MSTORE PUSH1 0x20 ADD SWAP1 DUP2 MSTORE PUSH1 0x20 ADD PUSH0 KECCAK256 PUSH0 DUP9 DUP2 MSTORE PUSH1 0x20 ADD SWAP1 DUP2 MSTORE PUSH1 0x20 ADD PUSH0 KECCAK256 PUSH0 SWAP1 SLOAD SWAP1 PUSH2 0x100 EXP SWAP1 DIV PUSH1 0xFF AND PUSH2 0xB1F JUMPI PUSH1 0x40 MLOAD PUSH32 0xD40C3D2100000000000000000000000000000000000000000000000000000000 DUP2 MSTORE PUSH1 0x4 ADD PUSH1 0x40 MLOAD DUP1 SWAP2 SUB SWAP1 REVERT JUMPDEST PUSH0 PUSH1 0x5 PUSH0 DUP10 DUP2 MSTORE PUSH1 0x20 ADD SWAP1 DUP2 MSTORE PUSH1 0x20 ADD PUSH0 KECCAK256 SWAP1 POP PUSH1 0xC8 DUP2 PUSH1 0x9 ADD DUP1 SLOAD SWAP1 POP LT PUSH2 0xB74 JUMPI PUSH1 0x40 MLOAD PUSH32 0x3CA72E7800000000000000000000000000000000000000000000000000000000 DUP2 MSTORE PUSH1 0x4 ADD PUSH1 0x40 MLOAD DUP1 SWAP2 SUB SWAP1 REVERT JUMPDEST PUSH0 PUSH1 0x3 PUSH0 DUP2 SLOAD DUP1 SWAP3 SWAP2 SWAP1 PUSH2 0xB87 SWAP1 PUSH2 0x4CB8 JUMP JUMPDEST SWAP2 SWAP1 POP SSTORE SWAP1 POP PUSH1 0x40 MLOAD DUP1 PUSH2 0x100 ADD PUSH1 0x40 MSTORE DUP1 DUP3 DUP2 MSTORE PUSH1 0x20 ADD DUP11 DUP2 MSTORE PUSH1 0x20 ADD CALLER PUSH20 0xFFFFFFFFFFFFFFFFFFFFFFFFFFFFFFFFFFFFFFFF AND DUP2 MSTORE PUSH1 0x20 ADD DUP10 DUP2 MSTORE PUSH1 0x20 ADD DUP9 PUSH1 0x4 DUP2 GT ISZERO PUSH2 0xBDA JUMPI PUSH2 0xBD9 PUSH2 0x3D0B JUMP JUMPDEST JUMPDEST DUP2 MSTORE PUSH1 0x20 ADD TIMESTAMP DUP2 MSTORE PUSH1 0x20 ADD DUP8 DUP2 MSTORE PUSH1 0x20 ADD DUP7 DUP2 MSTORE POP PUSH1 0x6 PUSH0 DUP4 DUP2 MSTORE PUSH1 0x20 ADD SWAP1 DUP2 MSTORE PUSH1 0x20 ADD PUSH0 KECCAK256 PUSH0 DUP3 ADD MLOAD DUP2 PUSH0 ADD SSTORE PUSH1 0x20 DUP3 ADD MLOAD DUP2 PUSH1 0x1 ADD SSTORE PUSH1 0x40 DUP3 ADD MLOAD DUP2 PUSH1 0x2 ADD PUSH0 PUSH2 0x100 EXP DUP2 SLOAD DUP2 PUSH20 0xFFFFFFFFFFFFFFFFFFFFFFFFFFFFFFFFFFFFFFFF MUL NOT AND SWAP1 DUP4 PUSH20 0xFFFFFFFFFFFFFFFFFFFFFFFFFFFFFFFFFFFFFFFF AND MUL OR SWAP1 SSTORE POP PUSH1 0x60 DUP3 ADD MLOAD DUP2 PUSH1 0x3 ADD SWAP1 DUP2 PUSH2 0xC6D SWAP2 SWAP1 PUSH2 0x4E9F JUMP JUMPDEST POP PUSH1 0x80 DUP3 ADD MLOAD DUP2 PUSH1 0x4 ADD PUSH0 PUSH2 0x100 EXP DUP2 SLOAD DUP2 PUSH1 0xFF MUL NOT AND SWAP1 DUP4 PUSH1 0x4 DUP2 GT ISZERO PUSH2 0xC98 JUMPI PUSH2 0xC97 PUSH2 0x3D0B JUMP JUMPDEST JUMPDEST MUL OR SWAP1 SSTORE POP PUSH1 0xA0 DUP3 ADD MLOAD DUP2 PUSH1 0x5 ADD SSTORE PUSH1 0xC0 DUP3 ADD MLOAD DUP2 PUSH1 0x6 ADD SWAP1 DUP2 PUSH2 0xCBC SWAP2 SWAP1 PUSH2 0x4E9F JUMP JUMPDEST POP PUSH1 0xE0 DUP3 ADD MLOAD DUP2 PUSH1 0x7 ADD SSTORE SWAP1 POP POP DUP2 PUSH1 0x9 ADD DUP2 SWAP1 DUP1 PUSH1 0x1 DUP2 SLOAD ADD DUP1 DUP3 SSTORE DUP1 SWAP2 POP POP PUSH1 0x1 SWAP1 SUB SWAP1 PUSH0 MSTORE PUSH1 0x20 PUSH0 KECCAK256 ADD PUSH0 SWAP1 SWAP2 SWAP1 SWAP2 SWAP1 SWAP2 POP SSTORE DUP2 PUSH1 0xB ADD PUSH0 SWAP1 SLOAD SWAP1 PUSH2 0x100 EXP SWAP1 DIV PUSH1 0xFF AND DUP1 ISZERO PUSH2 0xD2F JUMPI POP PUSH32 0x8000000000000000000000000000000000000000000000000000000000000000 DUP6 EQ ISZERO JUMPDEST DUP1 ISZERO PUSH2 0xD46 JUMPI POP PUSH1 0x50 DUP6 SGT DUP1 PUSH2 0xD45 JUMPI POP PUSH1 0x14 DUP6 SLT JUMPDEST JUMPDEST ISZERO PUSH2 0xD8E JUMPI PUSH2 0xD8C DUP10 PUSH1 0x3 PUSH1 0x40 MLOAD DUP1 PUSH1 0x40 ADD PUSH1 0x40 MSTORE DUP1 PUSH1 0x18 DUP2 MSTORE PUSH1 0x20 ADD PUSH32 0x54656D7065726174757265206F7574206F662072616E67650000000000000000 DUP2 MSTORE POP PUSH2 0x3664 JUMP JUMPDEST POP JUMPDEST DUP9 DUP2 PUSH32 0x529E5C9E24A307575814835CF69244181F51BC2AE08B95B8C8459D652A7EE9CF DUP10 CALLER PUSH1 0x40 MLOAD PUSH2 0xDC1 SWAP3 SWAP2 SWAP1 PUSH2 0x4F7D JUMP JUMPDEST PUSH1 0x40 MLOAD DUP1 SWAP2 SUB SWAP1 LOG3 DUP1 SWAP4 POP POP POP POP SWAP6 SWAP5 POP POP POP POP POP JUMP JUMPDEST PUSH1 0x1 PUSH0 SWAP1 SLOAD SWAP1 PUSH2 0x100 EXP SWAP1 DIV PUSH20 0xFFFFFFFFFFFFFFFFFFFFFFFFFFFFFFFFFFFFFFFF AND PUSH20 0xFFFFFFFFFFFFFFFFFFFFFFFFFFFFFFFFFFFFFFFF AND CALLER PUSH20 0xFFFFFFFFFFFFFFFFFFFFFFFFFFFFFFFFFFFFFFFF AND EQ PUSH2 0xE5E JUMPI PUSH1 0x40 MLOAD PUSH32 0x58D9A1B00000000000000000000000000000000000000000000000000000000 DUP2 MSTORE PUSH1 0x4 ADD PUSH1 0x40 MLOAD DUP1 SWAP2 SUB SWAP1 REVERT JUMPDEST CALLER PUSH0 PUSH0 PUSH2 0x100 EXP DUP2 SLOAD DUP2 PUSH20 0xFFFFFFFFFFFFFFFFFFFFFFFFFFFFFFFFFFFFFFFF MUL NOT AND SWAP1 DUP4 PUSH20 0xFFFFFFFFFFFFFFFFFFFFFFFFFFFFFFFFFFFFFFFF AND MUL OR SWAP1 SSTORE POP PUSH0 PUSH1 0x1 PUSH0 PUSH2 0x100 EXP DUP2 SLOAD DUP2 PUSH20 0xFFFFFFFFFFFFFFFFFFFFFFFFFFFFFFFFFFFFFFFF MUL NOT AND SWAP1 DUP4 PUSH20 0xFFFFFFFFFFFFFFFFFFFFFFFFFFFFFFFFFFFFFFFF AND MUL OR SWAP1 SSTORE POP CALLER PUSH20 0xFFFFFFFFFFFFFFFFFFFFFFFFFFFFFFFFFFFFFFFF AND PUSH32 0x24A7C28D8EDC5CCD4EF428EBC1DCE34762FE38B7FDCCA1F3F20C818F04DEB156 PUSH1 0x40 MLOAD PUSH1 0x40 MLOAD DUP1 SWAP2 SUB SWAP1 LOG2 JUMP JUMPDEST PUSH0 PUSH1 0x4 SLOAD SWAP1 POP SWAP1 JUMP JUMPDEST PUSH2 0xF33 PUSH2 0x3878 JUMP JUMPDEST PUSH0 PUSH20 0xFFFFFFFFFFFFFFFFFFFFFFFFFFFFFFFFFFFFFFFF AND DUP2 PUSH20 0xFFFFFFFFFFFFFFFFFFFFFFFFFFFFFFFFFFFFFFFF AND SUB PUSH2 0xF98 JUMPI PUSH1 0x40 MLOAD PUSH32 0xE6C4247B00000000000000000000000000000000000000000000000000000000 DUP2 MSTORE PUSH1 0x4 ADD PUSH1 0x40 MLOAD DUP1 SWAP2 SUB SWAP1 REVERT JUMPDEST DUP1 PUSH1 0x1 PUSH0 PUSH2 0x100 EXP DUP2 SLOAD DUP2 PUSH20 0xFFFFFFFFFFFFFFFFFFFFFFFFFFFFFFFFFFFFFFFF MUL NOT AND SWAP1 DUP4 PUSH20 0xFFFFFFFFFFFFFFFFFFFFFFFFFFFFFFFFFFFFFFFF AND MUL OR SWAP1 SSTORE POP DUP1 PUSH20 0xFFFFFFFFFFFFFFFFFFFFFFFFFFFFFFFFFFFFFFFF AND PUSH32 0xD3695F12C05BEA129B5971FED99014A4EFD003A3A8B45D6952B74FBD31D85D8A PUSH1 0x40 MLOAD PUSH1 0x40 MLOAD DUP1 SWAP2 SUB SWAP1 LOG2 POP JUMP JUMPDEST PUSH1 0x60 DUP4 PUSH2 0x102A DUP2 PUSH2 0x360F JUMP JUMPDEST PUSH0 PUSH1 0x5 PUSH0 DUP8 DUP2 MSTORE PUSH1 0x20 ADD SWAP1 DUP2 MSTORE PUSH1 0x20 ADD PUSH0 KECCAK256 PUSH1 0x9 ADD SWAP1 POP PUSH0 DUP2 DUP1 SLOAD SWAP1 POP SWAP1 POP DUP1 DUP7 LT PUSH2 0x10AD JUMPI PUSH0 PUSH8 0xFFFFFFFFFFFFFFFF DUP2 GT ISZERO PUSH2 0x106A JUMPI PUSH2 0x1069 PUSH2 0x3F85 JUMP JUMPDEST JUMPDEST PUSH1 0x40 MLOAD SWAP1 DUP1 DUP3 MSTORE DUP1 PUSH1 0x20 MUL PUSH1 0x20 ADD DUP3 ADD PUSH1 0x40 MSTORE DUP1 ISZERO PUSH2 0x10A3 JUMPI DUP2 PUSH1 0x20 ADD JUMPDEST PUSH2 0x1090 PUSH2 0x3AC0 JUMP JUMPDEST DUP2 MSTORE PUSH1 0x20 ADD SWAP1 PUSH1 0x1 SWAP1 SUB SWAP1 DUP2 PUSH2 0x1088 JUMPI SWAP1 POP JUMPDEST POP SWAP4 POP POP POP PUSH2 0x1391 JUMP JUMPDEST PUSH0 DUP2 DUP7 DUP9 PUSH2 0x10BB SWAP2 SWAP1 PUSH2 0x4FA4 JUMP JUMPDEST GT PUSH2 0x10D1 JUMPI DUP6 DUP8 PUSH2 0x10CC SWAP2 SWAP1 PUSH2 0x4FA4 JUMP JUMPDEST PUSH2 0x10D3 JUMP JUMPDEST DUP2 JUMPDEST SWAP1 POP PUSH0 DUP8 DUP3 PUSH2 0x10E2 SWAP2 SWAP1 PUSH2 0x4FD7 JUMP JUMPDEST PUSH8 0xFFFFFFFFFFFFFFFF DUP2 GT ISZERO PUSH2 0x10FB JUMPI PUSH2 0x10FA PUSH2 0x3F85 JUMP JUMPDEST JUMPDEST PUSH1 0x40 MLOAD SWAP1 DUP1 DUP3 MSTORE DUP1 PUSH1 0x20 MUL PUSH1 0x20 ADD DUP3 ADD PUSH1 0x40 MSTORE DUP1 ISZERO PUSH2 0x1134 JUMPI DUP2 PUSH1 0x20 ADD JUMPDEST PUSH2 0x1121 PUSH2 0x3AC0 JUMP JUMPDEST DUP2 MSTORE PUSH1 0x20 ADD SWAP1 PUSH1 0x1 SWAP1 SUB SWAP1 DUP2 PUSH2 0x1119 JUMPI SWAP1 POP JUMPDEST POP SWAP1 POP PUSH0 DUP9 SWAP1 POP JUMPDEST DUP3 DUP2 LT ISZERO PUSH2 0x1388 JUMPI PUSH1 0x6 PUSH0 DUP7 DUP4 DUP2 SLOAD DUP2 LT PUSH2 0x115A JUMPI PUSH2 0x1159 PUSH2 0x500A JUMP JUMPDEST JUMPDEST SWAP1 PUSH0 MSTORE PUSH1 0x20 PUSH0 KECCAK256 ADD SLOAD DUP2 MSTORE PUSH1 0x20 ADD SWAP1 DUP2 MSTORE PUSH1 0x20 ADD PUSH0 KECCAK256 PUSH1 0x40 MLOAD DUP1 PUSH2 0x100 ADD PUSH1 0x40 MSTORE SWAP1 DUP2 PUSH0 DUP3 ADD SLOAD DUP2 MSTORE PUSH1 0x20 ADD PUSH1 0x1 DUP3 ADD SLOAD DUP2 MSTORE PUSH1 0x20 ADD PUSH1 0x2 DUP3 ADD PUSH0 SWAP1 SLOAD SWAP1 PUSH2 0x100 EXP SWAP1 DIV PUSH20 0xFFFFFFFFFFFFFFFFFFFFFFFFFFFFFFFFFFFFFFFF AND PUSH20 0xFFFFFFFFFFFFFFFFFFFFFFFFFFFFFFFFFFFFFFFF AND PUSH20 0xFFFFFFFFFFFFFFFFFFFFFFFFFFFFFFFFFFFFFFFF AND DUP2 MSTORE PUSH1 0x20 ADD PUSH1 0x3 DUP3 ADD DUP1 SLOAD PUSH2 0x11F4 SWAP1 PUSH2 0x4C5B JUMP JUMPDEST DUP1 PUSH1 0x1F ADD PUSH1 0x20 DUP1 SWAP2 DIV MUL PUSH1 0x20 ADD PUSH1 0x40 MLOAD SWAP1 DUP2 ADD PUSH1 0x40 MSTORE DUP1 SWAP3 SWAP2 SWAP1 DUP2 DUP2 MSTORE PUSH1 0x20 ADD DUP3 DUP1 SLOAD PUSH2 0x1220 SWAP1 PUSH2 0x4C5B JUMP JUMPDEST DUP1 ISZERO PUSH2 0x126B JUMPI DUP1 PUSH1 0x1F LT PUSH2 0x1242 JUMPI PUSH2 0x100 DUP1 DUP4 SLOAD DIV MUL DUP4 MSTORE SWAP2 PUSH1 0x20 ADD SWAP2 PUSH2 0x126B JUMP JUMPDEST DUP3 ADD SWAP2 SWAP1 PUSH0 MSTORE PUSH1 0x20 PUSH0 KECCAK256 SWAP1 JUMPDEST DUP2 SLOAD DUP2 MSTORE SWAP1 PUSH1 0x1 ADD SWAP1 PUSH1 0x20 ADD DUP1 DUP4 GT PUSH2 0x124E JUMPI DUP3 SWAP1 SUB PUSH1 0x1F AND DUP3 ADD SWAP2 JUMPDEST POP POP POP POP POP DUP2 MSTORE PUSH1 0x20 ADD PUSH1 0x4 DUP3 ADD PUSH0 SWAP1 SLOAD SWAP1 PUSH2 0x100 EXP SWAP1 DIV PUSH1 0xFF AND PUSH1 0x4 DUP2 GT ISZERO PUSH2 0x1298 JUMPI PUSH2 0x1297 PUSH2 0x3D0B JUMP JUMPDEST JUMPDEST PUSH1 0x4 DUP2 GT ISZERO PUSH2 0x12AA JUMPI PUSH2 0x12A9 PUSH2 0x3D0B JUMP JUMPDEST JUMPDEST DUP2 MSTORE PUSH1 0x20 ADD PUSH1 0x5 DUP3 ADD SLOAD DUP2 MSTORE PUSH1 0x20 ADD PUSH1 0x6 DUP3 ADD DUP1 SLOAD PUSH2 0x12C8 SWAP1 PUSH2 0x4C5B JUMP JUMPDEST DUP1 PUSH1 0x1F ADD PUSH1 0x20 DUP1 SWAP2 DIV MUL PUSH1 0x20 ADD PUSH1 0x40 MLOAD SWAP1 DUP2 ADD PUSH1 0x40 MSTORE DUP1 SWAP3 SWAP2 SWAP1 DUP2 DUP2 MSTORE PUSH1 0x20 ADD DUP3 DUP1 SLOAD PUSH2 0x12F4 SWAP1 PUSH2 0x4C5B JUMP JUMPDEST DUP1 ISZERO PUSH2 0x133F JUMPI DUP1 PUSH1 0x1F LT PUSH2 0x1316 JUMPI PUSH2 0x100 DUP1 DUP4 SLOAD DIV MUL DUP4 MSTORE SWAP2 PUSH1 0x20 ADD SWAP2 PUSH2 0x133F JUMP JUMPDEST DUP3 ADD SWAP2 SWAP1 PUSH0 MSTORE PUSH1 0x20 PUSH0 KECCAK256 SWAP1 JUMPDEST DUP2 SLOAD DUP2 MSTORE SWAP1 PUSH1 0x1 ADD SWAP1 PUSH1 0x20 ADD DUP1 DUP4 GT PUSH2 0x1322 JUMPI DUP3 SWAP1 SUB PUSH1 0x1F AND DUP3 ADD SWAP2 JUMPDEST POP POP POP POP POP DUP2 MSTORE PUSH1 0x20 ADD PUSH1 0x7 DUP3 ADD SLOAD DUP2 MSTORE POP POP DUP3 DUP11 DUP4 PUSH2 0x135F SWAP2 SWAP1 PUSH2 0x4FD7 JUMP JUMPDEST DUP2 MLOAD DUP2 LT PUSH2 0x1370 JUMPI PUSH2 0x136F PUSH2 0x500A JUMP JUMPDEST JUMPDEST PUSH1 0x20 MUL PUSH1 0x20 ADD ADD DUP2 SWAP1 MSTORE POP DUP1 DUP1 PUSH1 0x1 ADD SWAP2 POP POP PUSH2 0x113C JUMP JUMPDEST POP DUP1 SWAP6 POP POP POP POP POP JUMPDEST POP SWAP4 SWAP3 POP POP POP JUMP JUMPDEST PUSH2 0x13A1 PUSH2 0x3AC0 JUMP JUMPDEST PUSH0 DUP3 EQ DUP1 PUSH2 0x13B1 JUMPI POP PUSH1 0x3 SLOAD DUP3 LT ISZERO JUMPDEST ISZERO PUSH2 0x13F3 JUMPI DUP2 PUSH1 0x40 MLOAD PUSH32 0x22BC9CAA00000000000000000000000000000000000000000000000000000000 DUP2 MSTORE PUSH1 0x4 ADD PUSH2 0x13EA SWAP2 SWAP1 PUSH2 0x41BD JUMP JUMPDEST PUSH1 0x40 MLOAD DUP1 SWAP2 SUB SWAP1 REVERT JUMPDEST PUSH1 0x6 PUSH0 DUP4 DUP2 MSTORE PUSH1 0x20 ADD SWAP1 DUP2 MSTORE PUSH1 0x20 ADD PUSH0 KECCAK256 PUSH1 0x40 MLOAD DUP1 PUSH2 0x100 ADD PUSH1 0x40 MSTORE SWAP1 DUP2 PUSH0 DUP3 ADD SLOAD DUP2 MSTORE PUSH1 0x20 ADD PUSH1 0x1 DUP3 ADD SLOAD DUP2 MSTORE PUSH1 0x20 ADD PUSH1 0x2 DUP3 ADD PUSH0 SWAP1 SLOAD SWAP1 PUSH2 0x100 EXP SWAP1 DIV PUSH20 0xFFFFFFFFFFFFFFFFFFFFFFFFFFFFFFFFFFFFFFFF AND PUSH20 0xFFFFFFFFFFFFFFFFFFFFFFFFFFFFFFFFFFFFFFFF AND PUSH20 0xFFFFFFFFFFFFFFFFFFFFFFFFFFFFFFFFFFFFFFFF AND DUP2 MSTORE PUSH1 0x20 ADD PUSH1 0x3 DUP3 ADD DUP1 SLOAD PUSH2 0x1488 SWAP1 PUSH2 0x4C5B JUMP JUMPDEST DUP1 PUSH1 0x1F ADD PUSH1 0x20 DUP1 SWAP2 DIV MUL PUSH1 0x20 ADD PUSH1 0x40 MLOAD SWAP1 DUP2 ADD PUSH1 0x40 MSTORE DUP1 SWAP3 SWAP2 SWAP1 DUP2 DUP2 MSTORE PUSH1 0x20 ADD DUP3 DUP1 SLOAD PUSH2 0x14B4 SWAP1 PUSH2 0x4C5B JUMP JUMPDEST DUP1 ISZERO PUSH2 0x14FF JUMPI DUP1 PUSH1 0x1F LT PUSH2 0x14D6 JUMPI PUSH2 0x100 DUP1 DUP4 SLOAD DIV MUL DUP4 MSTORE SWAP2 PUSH1 0x20 ADD SWAP2 PUSH2 0x14FF JUMP JUMPDEST DUP3 ADD SWAP2 SWAP1 PUSH0 MSTORE PUSH1 0x20 PUSH0 KECCAK256 SWAP1 JUMPDEST DUP2 SLOAD DUP2 MSTORE SWAP1 PUSH1 0x1 ADD SWAP1 PUSH1 0x20 ADD DUP1 DUP4 GT PUSH2 0x14E2 JUMPI DUP3 SWAP1 SUB PUSH1 0x1F AND DUP3 ADD SWAP2 JUMPDEST POP POP POP POP POP DUP2 MSTORE PUSH1 0x20 ADD PUSH1 0x4 DUP3 ADD PUSH0 SWAP1 SLOAD SWAP1 PUSH2 0x100 EXP SWAP1 DIV PUSH1 0xFF AND PUSH1 0x4 DUP2 GT ISZERO PUSH2 0x152C JUMPI PUSH2 0x152B PUSH2 0x3D0B JUMP JUMPDEST JUMPDEST PUSH1 0x4 DUP2 GT ISZERO PUSH2 0x153E JUMPI PUSH2 0x153D PUSH2 0x3D0B JUMP JUMPDEST JUMPDEST DUP2 MSTORE PUSH1 0x20 ADD PUSH1 0x5 DUP3 ADD SLOAD DUP2 MSTORE PUSH1 0x20 ADD PUSH1 0x6 DUP3 ADD DUP1 SLOAD PUSH2 0x155C SWAP1 PUSH2 0x4C5B JUMP JUMPDEST DUP1 PUSH1 0x1F ADD PUSH1 0x20 DUP1 SWAP2 DIV MUL PUSH1 0x20 ADD PUSH1 0x40 MLOAD SWAP1 DUP2 ADD PUSH1 0x40 MSTORE DUP1 SWAP3 SWAP2 SWAP1 DUP2 DUP2 MSTORE PUSH1 0x20 ADD DUP3 DUP1 SLOAD PUSH2 0x1588 SWAP1 PUSH2 0x4C5B JUMP JUMPDEST DUP1 ISZERO PUSH2 0x15D3 JUMPI DUP1 PUSH1 0x1F LT PUSH2 0x15AA JUMPI PUSH2 0x100 DUP1 DUP4 SLOAD DIV MUL DUP4 MSTORE SWAP2 PUSH1 0x20 ADD SWAP2 PUSH2 0x15D3 JUMP JUMPDEST DUP3 ADD SWAP2 SWAP1 PUSH0 MSTORE PUSH1 0x20 PUSH0 KECCAK256 SWAP1 JUMPDEST DUP2 SLOAD DUP2 MSTORE SWAP1 PUSH1 0x1 ADD SWAP1 PUSH1 0x20 ADD DUP1 DUP4 GT PUSH2 0x15B6 JUMPI DUP3 SWAP1 SUB PUSH1 0x1F AND DUP3 ADD SWAP2 JUMPDEST POP POP POP POP POP DUP2 MSTORE PUSH1 0x20 ADD PUSH1 0x7 DUP3 ADD SLOAD DUP2 MSTORE POP POP SWAP1 POP SWAP2 SWAP1 POP JUMP JUMPDEST PUSH0 PUSH1 0x3 SLOAD SWAP1 POP SWAP1 JUMP JUMPDEST PUSH1 0x1 PUSH0 SWAP1 SLOAD SWAP1 PUSH2 0x100 EXP SWAP1 DIV PUSH20 0xFFFFFFFFFFFFFFFFFFFFFFFFFFFFFFFFFFFFFFFF AND DUP2 JUMP JUMPDEST PUSH32 0x8000000000000000000000000000000000000000000000000000000000000000 DUP2 JUMP JUMPDEST PUSH1 0x32 DUP2 JUMP JUMPDEST PUSH2 0x164C PUSH2 0x3B27 JUMP JUMPDEST PUSH1 0x8 PUSH0 DUP4 PUSH20 0xFFFFFFFFFFFFFFFFFFFFFFFFFFFFFFFFFFFFFFFF AND PUSH20 0xFFFFFFFFFFFFFFFFFFFFFFFFFFFFFFFFFFFFFFFF AND DUP2 MSTORE PUSH1 0x20 ADD SWAP1 DUP2 MSTORE PUSH1 0x20 ADD PUSH0 KECCAK256 PUSH1 0x40 MLOAD DUP1 PUSH1 0xA0 ADD PUSH1 0x40 MSTORE SWAP1 DUP2 PUSH0 DUP3 ADD PUSH0 SWAP1 SLOAD SWAP1 PUSH2 0x100 EXP SWAP1 DIV PUSH20 0xFFFFFFFFFFFFFFFFFFFFFFFFFFFFFFFFFFFFFFFF AND PUSH20 0xFFFFFFFFFFFFFFFFFFFFFFFFFFFFFFFFFFFFFFFF AND PUSH20 0xFFFFFFFFFFFFFFFFFFFFFFFFFFFFFFFFFFFFFFFF AND DUP2 MSTORE PUSH1 0x20 ADD PUSH1 0x1 DUP3 ADD DUP1 SLOAD PUSH2 0x16F8 SWAP1 PUSH2 0x4C5B JUMP JUMPDEST DUP1 PUSH1 0x1F ADD PUSH1 0x20 DUP1 SWAP2 DIV MUL PUSH1 0x20 ADD PUSH1 0x40 MLOAD SWAP1 DUP2 ADD PUSH1 0x40 MSTORE DUP1 SWAP3 SWAP2 SWAP1 DUP2 DUP2 MSTORE PUSH1 0x20 ADD DUP3 DUP1 SLOAD PUSH2 0x1724 SWAP1 PUSH2 0x4C5B JUMP JUMPDEST DUP1 ISZERO PUSH2 0x176F JUMPI DUP1 PUSH1 0x1F LT PUSH2 0x1746 JUMPI PUSH2 0x100 DUP1 DUP4 SLOAD DIV MUL DUP4 MSTORE SWAP2 PUSH1 0x20 ADD SWAP2 PUSH2 0x176F JUMP JUMPDEST DUP3 ADD SWAP2 SWAP1 PUSH0 MSTORE PUSH1 0x20 PUSH0 KECCAK256 SWAP1 JUMPDEST DUP2 SLOAD DUP2 MSTORE SWAP1 PUSH1 0x1 ADD SWAP1 PUSH1 0x20 ADD DUP1 DUP4 GT PUSH2 0x1752 JUMPI DUP3 SWAP1 SUB PUSH1 0x1F AND DUP3 ADD SWAP2 JUMPDEST POP POP POP POP POP DUP2 MSTORE PUSH1 0x20 ADD PUSH1 0x2 DUP3 ADD PUSH0 SWAP1 SLOAD SWAP1 PUSH2 0x100 EXP SWAP1 DIV PUSH1 0xFF AND PUSH1 0x5 DUP2 GT ISZERO PUSH2 0x179C JUMPI PUSH2 0x179B PUSH2 0x3D0B JUMP JUMPDEST JUMPDEST PUSH1 0x5 DUP2 GT ISZERO PUSH2 0x17AE JUMPI PUSH2 0x17AD PUSH2 0x3D0B JUMP JUMPDEST JUMPDEST DUP2 MSTORE PUSH1 0x20 ADD PUSH1 0x3 DUP3 ADD DUP1 SLOAD PUSH2 0x17C2 SWAP1 PUSH2 0x4C5B JUMP JUMPDEST DUP1 PUSH1 0x1F ADD PUSH1 0x20 DUP1 SWAP2 DIV MUL PUSH1 0x20 ADD PUSH1 0x40 MLOAD SWAP1 DUP2 ADD PUSH1 0x40 MSTORE DUP1 SWAP3 SWAP2 SWAP1 DUP2 DUP2 MSTORE PUSH1 0x20 ADD DUP3 DUP1 SLOAD PUSH2 0x17EE SWAP1 PUSH2 0x4C5B JUMP JUMPDEST DUP1 ISZERO PUSH2 0x1839 JUMPI DUP1 PUSH1 0x1F LT PUSH2 0x1810 JUMPI PUSH2 0x100 DUP1 DUP4 SLOAD DIV MUL DUP4 MSTORE SWAP2 PUSH1 0x20 ADD SWAP2 PUSH2 0x1839 JUMP JUMPDEST DUP3 ADD SWAP2 SWAP1 PUSH0 MSTORE PUSH1 0x20 PUSH0 KECCAK256 SWAP1 JUMPDEST DUP2 SLOAD DUP2 MSTORE SWAP1 PUSH1 0x1 ADD SWAP1 PUSH1 0x20 ADD DUP1 DUP4 GT PUSH2 0x181C JUMPI DUP3 SWAP1 SUB PUSH1 0x1F AND DUP3 ADD SWAP2 JUMPDEST POP POP POP POP POP DUP2 MSTORE PUSH1 0x20 ADD PUSH1 0x4 DUP3 ADD PUSH0 SWAP1 SLOAD SWAP1 PUSH2 0x100 EXP SWAP1 DIV PUSH1 0xFF AND ISZERO ISZERO ISZERO ISZERO DUP2 MSTORE POP POP SWAP1 POP SWAP2 SWAP1 POP JUMP JUMPDEST PUSH0 PUSH2 0x186C PUSH2 0x358A JUMP JUMPDEST PUSH1 0x1 PUSH1 0x5 DUP2 GT ISZERO PUSH2 0x1880 JUMPI PUSH2 0x187F PUSH2 0x3D0B JUMP JUMPDEST JUMPDEST PUSH1 0x8 PUSH0 CALLER PUSH20 0xFFFFFFFFFFFFFFFFFFFFFFFFFFFFFFFFFFFFFFFF AND PUSH20 0xFFFFFFFFFFFFFFFFFFFFFFFFFFFFFFFFFFFFFFFF AND DUP2 MSTORE PUSH1 0x20 ADD SWAP1 DUP2 MSTORE PUSH1 0x20 ADD PUSH0 KECCAK256 PUSH1 0x2 ADD PUSH0 SWAP1 SLOAD SWAP1 PUSH2 0x100 EXP SWAP1 DIV PUSH1 0xFF AND PUSH1 0x5 DUP2 GT ISZERO PUSH2 0x18DF JUMPI PUSH2 0x18DE PUSH2 0x3D0B JUMP JUMPDEST JUMPDEST EQ PUSH2 0x1916 JUMPI PUSH1 0x40 MLOAD PUSH32 0xF5B4341500000000000000000000000000000000000000000000000000000000 DUP2 MSTORE PUSH1 0x4 ADD PUSH1 0x40 MLOAD DUP1 SWAP2 SUB SWAP1 REVERT JUMPDEST PUSH0 PUSH1 0x2 PUSH0 DUP2 SLOAD DUP1 SWAP3 SWAP2 SWAP1 PUSH2 0x1929 SWAP1 PUSH2 0x4CB8 JUMP JUMPDEST SWAP2 SWAP1 POP SSTORE SWAP1 POP PUSH0 PUSH1 0x5 PUSH0 DUP4 DUP2 MSTORE PUSH1 0x20 ADD SWAP1 DUP2 MSTORE PUSH1 0x20 ADD PUSH0 KECCAK256 SWAP1 POP DUP2 DUP2 PUSH0 ADD DUP2 SWAP1 SSTORE POP CALLER DUP2 PUSH1 0x1 ADD PUSH0 PUSH2 0x100 EXP DUP2 SLOAD DUP2 PUSH20 0xFFFFFFFFFFFFFFFFFFFFFFFFFFFFFFFFFFFFFFFF MUL NOT AND SWAP1 DUP4 PUSH20 0xFFFFFFFFFFFFFFFFFFFFFFFFFFFFFFFFFFFFFFFF AND MUL OR SWAP1 SSTORE POP DUP8 DUP2 PUSH1 0x2 ADD PUSH0 PUSH2 0x100 EXP DUP2 SLOAD DUP2 PUSH20 0xFFFFFFFFFFFFFFFFFFFFFFFFFFFFFFFFFFFFFFFF MUL NOT AND SWAP1 DUP4 PUSH20 0xFFFFFFFFFFFFFFFFFFFFFFFFFFFFFFFFFFFFFFFF AND MUL OR SWAP1 SSTORE POP DUP7 DUP2 PUSH1 0x3 ADD SWAP1 DUP2 PUSH2 0x19E0 SWAP2 SWAP1 PUSH2 0x4E9F JUMP JUMPDEST POP DUP6 DUP2 PUSH1 0x4 ADD SWAP1 DUP2 PUSH2 0x19F2 SWAP2 SWAP1 PUSH2 0x4E9F JUMP JUMPDEST POP DUP5 DUP2 PUSH1 0x5 ADD SWAP1 DUP2 PUSH2 0x1A04 SWAP2 SWAP1 PUSH2 0x4E9F JUMP JUMPDEST POP TIMESTAMP DUP2 PUSH1 0x6 ADD DUP2 SWAP1 SSTORE POP PUSH0 DUP2 PUSH1 0x8 ADD PUSH0 PUSH2 0x100 EXP DUP2 SLOAD DUP2 PUSH1 0xFF MUL NOT AND SWAP1 DUP4 PUSH1 0x6 DUP2 GT ISZERO PUSH2 0x1A34 JUMPI PUSH2 0x1A33 PUSH2 0x3D0B JUMP JUMPDEST JUMPDEST MUL OR SWAP1 SSTORE POP DUP4 DUP2 PUSH1 0xB ADD PUSH0 PUSH2 0x100 EXP DUP2 SLOAD DUP2 PUSH1 0xFF MUL NOT AND SWAP1 DUP4 ISZERO ISZERO MUL OR SWAP1 SSTORE POP PUSH2 0x1A5E CALLER DUP4 PUSH2 0x38FF JUMP JUMPDEST PUSH0 PUSH20 0xFFFFFFFFFFFFFFFFFFFFFFFFFFFFFFFFFFFFFFFF AND DUP9 PUSH20 0xFFFFFFFFFFFFFFFFFFFFFFFFFFFFFFFFFFFFFFFF AND EQ PUSH2 0x1A9C JUMPI PUSH2 0x1A9B DUP9 DUP4 PUSH2 0x38FF JUMP JUMPDEST JUMPDEST DUP8 PUSH20 0xFFFFFFFFFFFFFFFFFFFFFFFFFFFFFFFFFFFFFFFF AND CALLER PUSH20 0xFFFFFFFFFFFFFFFFFFFFFFFFFFFFFFFFFFFFFFFF AND DUP4 PUSH32 0x8FB6B855D6CBDF201F2FCAADBF8C38D36168FF7D2CA865CB2599ABCD5A060E8F DUP11 PUSH1 0x40 MLOAD PUSH2 0x1AFA SWAP2 SWAP1 PUSH2 0x507F JUMP JUMPDEST PUSH1 0x40 MLOAD DUP1 SWAP2 SUB SWAP1 LOG4 DUP2 SWAP3 POP POP POP SWAP6 SWAP5 POP POP POP POP POP JUMP JUMPDEST PUSH1 0x60 DUP4 PUSH2 0x1B1C DUP2 PUSH2 0x360F JUMP JUMPDEST PUSH0 PUSH1 0x5 PUSH0 DUP8 DUP2 MSTORE PUSH1 0x20 ADD SWAP1 DUP2 MSTORE PUSH1 0x20 ADD PUSH0 KECCAK256 PUSH1 0xA ADD SWAP1 POP PUSH0 DUP2 DUP1 SLOAD SWAP1 POP SWAP1 POP DUP1 DUP7 LT PUSH2 0x1B9F JUMPI PUSH0 PUSH8 0xFFFFFFFFFFFFFFFF DUP2 GT ISZERO PUSH2 0x1B5C JUMPI PUSH2 0x1B5B PUSH2 0x3F85 JUMP JUMPDEST JUMPDEST PUSH1 0x40 MLOAD SWAP1 DUP1 DUP3 MSTORE DUP1 PUSH1 0x20 MUL PUSH1 0x20 ADD DUP3 ADD PUSH1 0x40 MSTORE DUP1 ISZERO PUSH2 0x1B95 JUMPI DUP2 PUSH1 0x20 ADD JUMPDEST PUSH2 0x1B82 PUSH2 0x3B7D JUMP JUMPDEST DUP2 MSTORE PUSH1 0x20 ADD SWAP1 PUSH1 0x1 SWAP1 SUB SWAP1 DUP2 PUSH2 0x1B7A JUMPI SWAP1 POP JUMPDEST POP SWAP4 POP POP POP PUSH2 0x1E03 JUMP JUMPDEST PUSH0 DUP2 DUP7 DUP9 PUSH2 0x1BAD SWAP2 SWAP1 PUSH2 0x4FA4 JUMP JUMPDEST GT PUSH2 0x1BC3 JUMPI DUP6 DUP8 PUSH2 0x1BBE SWAP2 SWAP1 PUSH2 0x4FA4 JUMP JUMPDEST PUSH2 0x1BC5 JUMP JUMPDEST DUP2 JUMPDEST SWAP1 POP PUSH0 DUP8 DUP3 PUSH2 0x1BD4 SWAP2 SWAP1 PUSH2 0x4FD7 JUMP JUMPDEST PUSH8 0xFFFFFFFFFFFFFFFF DUP2 GT ISZERO PUSH2 0x1BED JUMPI PUSH2 0x1BEC PUSH2 0x3F85 JUMP JUMPDEST JUMPDEST PUSH1 0x40 MLOAD SWAP1 DUP1 DUP3 MSTORE DUP1 PUSH1 0x20 MUL PUSH1 0x20 ADD DUP3 ADD PUSH1 0x40 MSTORE DUP1 ISZERO PUSH2 0x1C26 JUMPI DUP2 PUSH1 0x20 ADD JUMPDEST PUSH2 0x1C13 PUSH2 0x3B7D JUMP JUMPDEST DUP2 MSTORE PUSH1 0x20 ADD SWAP1 PUSH1 0x1 SWAP1 SUB SWAP1 DUP2 PUSH2 0x1C0B JUMPI SWAP1 POP JUMPDEST POP SWAP1 POP PUSH0 DUP9 SWAP1 POP JUMPDEST DUP3 DUP2 LT ISZERO PUSH2 0x1DFA JUMPI PUSH1 0x7 PUSH0 DUP7 DUP4 DUP2 SLOAD DUP2 LT PUSH2 0x1C4C JUMPI PUSH2 0x1C4B PUSH2 0x500A JUMP JUMPDEST JUMPDEST SWAP1 PUSH0 MSTORE PUSH1 0x20 PUSH0 KECCAK256 ADD SLOAD DUP2 MSTORE PUSH1 0x20 ADD SWAP1 DUP2 MSTORE PUSH1 0x20 ADD PUSH0 KECCAK256 PUSH1 0x40 MLOAD DUP1 PUSH1 0xE0 ADD PUSH1 0x40 MSTORE SWAP1 DUP2 PUSH0 DUP3 ADD SLOAD DUP2 MSTORE PUSH1 0x20 ADD PUSH1 0x1 DUP3 ADD SLOAD DUP2 MSTORE PUSH1 0x20 ADD PUSH1 0x2 DUP3 ADD PUSH0 SWAP1 SLOAD SWAP1 PUSH2 0x100 EXP SWAP1 DIV PUSH1 0xFF AND PUSH1 0x4 DUP2 GT ISZERO PUSH2 0x1CA4 JUMPI PUSH2 0x1CA3 PUSH2 0x3D0B JUMP JUMPDEST JUMPDEST PUSH1 0x4 DUP2 GT ISZERO PUSH2 0x1CB6 JUMPI PUSH2 0x1CB5 PUSH2 0x3D0B JUMP JUMPDEST JUMPDEST DUP2 MSTORE PUSH1 0x20 ADD PUSH1 0x2 DUP3 ADD PUSH1 0x1 SWAP1 SLOAD SWAP1 PUSH2 0x100 EXP SWAP1 DIV PUSH20 0xFFFFFFFFFFFFFFFFFFFFFFFFFFFFFFFFFFFFFFFF AND PUSH20 0xFFFFFFFFFFFFFFFFFFFFFFFFFFFFFFFFFFFFFFFF AND PUSH20 0xFFFFFFFFFFFFFFFFFFFFFFFFFFFFFFFFFFFFFFFF AND DUP2 MSTORE PUSH1 0x20 ADD PUSH1 0x3 DUP3 ADD DUP1 SLOAD PUSH2 0x1D20 SWAP1 PUSH2 0x4C5B JUMP JUMPDEST DUP1 PUSH1 0x1F ADD PUSH1 0x20 DUP1 SWAP2 DIV MUL PUSH1 0x20 ADD PUSH1 0x40 MLOAD SWAP1 DUP2 ADD PUSH1 0x40 MSTORE DUP1 SWAP3 SWAP2 SWAP1 DUP2 DUP2 MSTORE PUSH1 0x20 ADD DUP3 DUP1 SLOAD PUSH2 0x1D4C SWAP1 PUSH2 0x4C5B JUMP JUMPDEST DUP1 ISZERO PUSH2 0x1D97 JUMPI DUP1 PUSH1 0x1F LT PUSH2 0x1D6E JUMPI PUSH2 0x100 DUP1 DUP4 SLOAD DIV MUL DUP4 MSTORE SWAP2 PUSH1 0x20 ADD SWAP2 PUSH2 0x1D97 JUMP JUMPDEST DUP3 ADD SWAP2 SWAP1 PUSH0 MSTORE PUSH1 0x20 PUSH0 KECCAK256 SWAP1 JUMPDEST DUP2 SLOAD DUP2 MSTORE SWAP1 PUSH1 0x1 ADD SWAP1 PUSH1 0x20 ADD DUP1 DUP4 GT PUSH2 0x1D7A JUMPI DUP3 SWAP1 SUB PUSH1 0x1F AND DUP3 ADD SWAP2 JUMPDEST POP POP POP POP POP DUP2 MSTORE PUSH1 0x20 ADD PUSH1 0x4 DUP3 ADD SLOAD DUP2 MSTORE PUSH1 0x20 ADD PUSH1 0x5 DUP3 ADD PUSH0 SWAP1 SLOAD SWAP1 PUSH2 0x100 EXP SWAP1 DIV PUSH1 0xFF AND ISZERO ISZERO ISZERO ISZERO DUP2 MSTORE POP POP DUP3 DUP11 DUP4 PUSH2 0x1DD1 SWAP2 SWAP1 PUSH2 0x4FD7 JUMP JUMPDEST DUP2 MLOAD DUP2 LT PUSH2 0x1DE2 JUMPI PUSH2 0x1DE1 PUSH2 0x500A JUMP JUMPDEST JUMPDEST PUSH1 0x20 MUL PUSH1 0x20 ADD ADD DUP2 SWAP1 MSTORE POP DUP1 DUP1 PUSH1 0x1 ADD SWAP2 POP POP PUSH2 0x1C2E JUMP JUMPDEST POP DUP1 SWAP6 POP POP POP POP POP JUMPDEST POP SWAP4 SWAP3 POP POP POP JUMP JUMPDEST PUSH2 0x1E13 PUSH2 0x3878 JUMP JUMPDEST PUSH0 DUP2 EQ DUP1 PUSH2 0x1E23 JUMPI POP PUSH1 0x4 SLOAD DUP2 LT ISZERO JUMPDEST ISZERO PUSH2 0x1E65 JUMPI DUP1 PUSH1 0x40 MLOAD PUSH32 0xAE30D3B000000000000000000000000000000000000000000000000000000000 DUP2 MSTORE PUSH1 0x4 ADD PUSH2 0x1E5C SWAP2 SWAP1 PUSH2 0x41BD JUMP JUMPDEST PUSH1 0x40 MLOAD DUP1 SWAP2 SUB SWAP1 REVERT JUMPDEST PUSH1 0x1 PUSH1 0x7 PUSH0 DUP4 DUP2 MSTORE PUSH1 0x20 ADD SWAP1 DUP2 MSTORE PUSH1 0x20 ADD PUSH0 KECCAK256 PUSH1 0x5 ADD PUSH0 PUSH2 0x100 EXP DUP2 SLOAD DUP2 PUSH1 0xFF MUL NOT AND SWAP1 DUP4 ISZERO ISZERO MUL OR SWAP1 SSTORE POP DUP1 PUSH32 0xF83AE0ADE2D9004BC0030405BDD3336F9D9B97530BCF44CCE99CE02C95641B77 PUSH1 0x40 MLOAD PUSH1 0x40 MLOAD DUP1 SWAP2 SUB SWAP1 LOG2 POP JUMP JUMPDEST PUSH2 0x1EC9 PUSH2 0x3878 JUMP JUMPDEST PUSH0 PUSH20 0xFFFFFFFFFFFFFFFFFFFFFFFFFFFFFFFFFFFFFFFF AND PUSH1 0x8 PUSH0 DUP4 PUSH20 0xFFFFFFFFFFFFFFFFFFFFFFFFFFFFFFFFFFFFFFFF AND PUSH20 0xFFFFFFFFFFFFFFFFFFFFFFFFFFFFFFFFFFFFFFFF AND DUP2 MSTORE PUSH1 0x20 ADD SWAP1 DUP2 MSTORE PUSH1 0x20 ADD PUSH0 KECCAK256 PUSH0 ADD PUSH0 SWAP1 SLOAD SWAP1 PUSH2 0x100 EXP SWAP1 DIV PUSH20 0xFFFFFFFFFFFFFFFFFFFFFFFFFFFFFFFFFFFFFFFF AND PUSH20 0xFFFFFFFFFFFFFFFFFFFFFFFFFFFFFFFFFFFFFFFF AND SUB PUSH2 0x1F8C JUMPI PUSH1 0x40 MLOAD PUSH32 0x6F46A36500000000000000000000000000000000000000000000000000000000 DUP2 MSTORE PUSH1 0x4 ADD PUSH1 0x40 MLOAD DUP1 SWAP2 SUB SWAP1 REVERT JUMPDEST PUSH1 0x1 PUSH1 0x8 PUSH0 DUP4 PUSH20 0xFFFFFFFFFFFFFFFFFFFFFFFFFFFFFFFFFFFFFFFF AND PUSH20 0xFFFFFFFFFFFFFFFFFFFFFFFFFFFFFFFFFFFFFFFF AND DUP2 MSTORE PUSH1 0x20 ADD SWAP1 DUP2 MSTORE PUSH1 0x20 ADD PUSH0 KECCAK256 PUSH1 0x4 ADD PUSH0 PUSH2 0x100 EXP DUP2 SLOAD DUP2 PUSH1 0xFF MUL NOT AND SWAP1 DUP4 ISZERO ISZERO MUL OR SWAP1 SSTORE POP DUP1 PUSH20 0xFFFFFFFFFFFFFFFFFFFFFFFFFFFFFFFFFFFFFFFF AND PUSH32 0x7D434F3BFFE7DB5F776C1C2B3B22E492788BDFBD071E9AA176F096970EA88933 PUSH1 0x1 PUSH1 0x40 MLOAD PUSH2 0x202B SWAP2 SWAP1 PUSH2 0x4A0E JUMP JUMPDEST PUSH1 0x40 MLOAD DUP1 SWAP2 SUB SWAP1 LOG2 POP JUMP JUMPDEST PUSH1 0xC8 DUP2 JUMP JUMPDEST PUSH1 0x60 PUSH1 0x9 PUSH0 DUP4 PUSH20 0xFFFFFFFFFFFFFFFFFFFFFFFFFFFFFFFFFFFFFFFF AND PUSH20 0xFFFFFFFFFFFFFFFFFFFFFFFFFFFFFFFFFFFFFFFF AND DUP2 MSTORE PUSH1 0x20 ADD SWAP1 DUP2 MSTORE PUSH1 0x20 ADD PUSH0 KECCAK256 DUP1 SLOAD DUP1 PUSH1 0x20 MUL PUSH1 0x20 ADD PUSH1 0x40 MLOAD SWAP1 DUP2 ADD PUSH1 0x40 MSTORE DUP1 SWAP3 SWAP2 SWAP1 DUP2 DUP2 MSTORE PUSH1 0x20 ADD DUP3 DUP1 SLOAD DUP1 ISZERO PUSH2 0x20C2 JUMPI PUSH1 0x20 MUL DUP3 ADD SWAP2 SWAP1 PUSH0 MSTORE PUSH1 0x20 PUSH0 KECCAK256 SWAP1 JUMPDEST DUP2 SLOAD DUP2 MSTORE PUSH1 0x20 ADD SWAP1 PUSH1 0x1 ADD SWAP1 DUP1 DUP4 GT PUSH2 0x20AE JUMPI JUMPDEST POP POP POP POP POP SWAP1 POP SWAP2 SWAP1 POP JUMP JUMPDEST PUSH2 0x20D6 PUSH2 0x3878 JUMP JUMPDEST PUSH0 PUSH20 0xFFFFFFFFFFFFFFFFFFFFFFFFFFFFFFFFFFFFFFFF AND DUP2 PUSH20 0xFFFFFFFFFFFFFFFFFFFFFFFFFFFFFFFFFFFFFFFF AND SUB PUSH2 0x213B JUMPI PUSH1 0x40 MLOAD PUSH32 0xE6C4247B00000000000000000000000000000000000000000000000000000000 DUP2 MSTORE PUSH1 0x4 ADD PUSH1 0x40 MLOAD DUP1 SWAP2 SUB SWAP1 REVERT JUMPDEST DUP1 PUSH0 PUSH0 PUSH2 0x100 EXP DUP2 SLOAD DUP2 PUSH20 0xFFFFFFFFFFFFFFFFFFFFFFFFFFFFFFFFFFFFFFFF MUL NOT AND SWAP1 DUP4 PUSH20 0xFFFFFFFFFFFFFFFFFFFFFFFFFFFFFFFFFFFFFFFF AND MUL OR SWAP1 SSTORE POP PUSH0 PUSH1 0x1 PUSH0 PUSH2 0x100 EXP DUP2 SLOAD DUP2 PUSH20 0xFFFFFFFFFFFFFFFFFFFFFFFFFFFFFFFFFFFFFFFF MUL NOT AND SWAP1 DUP4 PUSH20 0xFFFFFFFFFFFFFFFFFFFFFFFFFFFFFFFFFFFFFFFF AND MUL OR SWAP1 SSTORE POP DUP1 PUSH20 0xFFFFFFFFFFFFFFFFFFFFFFFFFFFFFFFFFFFFFFFF AND PUSH32 0x24A7C28D8EDC5CCD4EF428EBC1DCE34762FE38B7FDCCA1F3F20C818F04DEB156 PUSH1 0x40 MLOAD PUSH1 0x40 MLOAD DUP1 SWAP2 SUB SWAP1 LOG2 POP JUMP JUMPDEST PUSH1 0x50 DUP2 JUMP JUMPDEST PUSH2 0x220D PUSH2 0x358A JUMP JUMPDEST DUP2 PUSH2 0x2217 DUP2 PUSH2 0x360F JUMP JUMPDEST PUSH0 PUSH1 0x8 PUSH0 CALLER PUSH20 0xFFFFFFFFFFFFFFFFFFFFFFFFFFFFFFFFFFFFFFFF AND PUSH20 0xFFFFFFFFFFFFFFFFFFFFFFFFFFFFFFFFFFFFFFFF AND DUP2 MSTORE PUSH1 0x20 ADD SWAP1 DUP2 MSTORE PUSH1 0x20 ADD PUSH0 KECCAK256 PUSH1 0x2 ADD PUSH0 SWAP1 SLOAD SWAP1 PUSH2 0x100 EXP SWAP1 DIV PUSH1 0xFF AND SWAP1 POP PUSH1 0x2 PUSH1 0x5 DUP2 GT ISZERO PUSH2 0x227B JUMPI PUSH2 0x227A PUSH2 0x3D0B JUMP JUMPDEST JUMPDEST DUP2 PUSH1 0x5 DUP2 GT ISZERO PUSH2 0x228E JUMPI PUSH2 0x228D PUSH2 0x3D0B JUMP JUMPDEST JUMPDEST EQ ISZERO DUP1 ISZERO PUSH2 0x22C1 JUMPI POP PUSH1 0x3 PUSH1 0x5 DUP2 GT ISZERO PUSH2 0x22AB JUMPI PUSH2 0x22AA PUSH2 0x3D0B JUMP JUMPDEST JUMPDEST DUP2 PUSH1 0x5 DUP2 GT ISZERO PUSH2 0x22BE JUMPI PUSH2 0x22BD PUSH2 0x3D0B JUMP JUMPDEST JUMPDEST EQ ISZERO JUMPDEST ISZERO PUSH2 0x22F8 JUMPI PUSH1 0x40 MLOAD PUSH32 0xEF92A56B00000000000000000000000000000000000000000000000000000000 DUP2 MSTORE PUSH1 0x4 ADD PUSH1 0x40 MLOAD DUP1 SWAP2 SUB SWAP1 REVERT JUMPDEST PUSH1 0x4 PUSH1 0x6 DUP2 GT ISZERO PUSH2 0x230C JUMPI PUSH2 0x230B PUSH2 0x3D0B JUMP JUMPDEST JUMPDEST DUP4 PUSH1 0x6 DUP2 GT ISZERO PUSH2 0x231F JUMPI PUSH2 0x231E PUSH2 0x3D0B JUMP JUMPDEST JUMPDEST SUB PUSH2 0x2356 JUMPI PUSH1 0x40 MLOAD PUSH32 0x9E96BB6900000000000000000000000000000000000000000000000000000000 DUP2 MSTORE PUSH1 0x4 ADD PUSH1 0x40 MLOAD DUP1 SWAP2 SUB SWAP1 REVERT JUMPDEST DUP3 PUSH1 0x5 PUSH0 DUP7 DUP2 MSTORE PUSH1 0x20 ADD SWAP1 DUP2 MSTORE PUSH1 0x20 ADD PUSH0 KECCAK256 PUSH1 0x8 ADD PUSH0 PUSH2 0x100 EXP DUP2 SLOAD DUP2 PUSH1 0xFF MUL NOT AND SWAP1 DUP4 PUSH1 0x6 DUP2 GT ISZERO PUSH2 0x238C JUMPI PUSH2 0x238B PUSH2 0x3D0B JUMP JUMPDEST JUMPDEST MUL OR SWAP1 SSTORE POP PUSH2 0x239B CALLER DUP6 PUSH2 0x38FF JUMP JUMPDEST DUP4 PUSH32 0x7C1C93F72F29B8A1FC6FC85EED990D133B1FFAC80C962B521ABB12F38F2FF9AF DUP5 PUSH1 0x40 MLOAD PUSH2 0x23CB SWAP2 SWAP1 PUSH2 0x50AE JUMP JUMPDEST PUSH1 0x40 MLOAD DUP1 SWAP2 SUB SWAP1 LOG2 POP POP POP POP JUMP JUMPDEST DUP1 PUSH2 0x23E3 DUP2 PUSH2 0x360F JUMP JUMPDEST PUSH0 PUSH1 0x5 PUSH0 DUP5 DUP2 MSTORE PUSH1 0x20 ADD SWAP1 DUP2 MSTORE PUSH1 0x20 ADD PUSH0 KECCAK256 SWAP1 POP DUP1 PUSH1 0x1 ADD PUSH0 SWAP1 SLOAD SWAP1 PUSH2 0x100 EXP SWAP1 DIV PUSH20 0xFFFFFFFFFFFFFFFFFFFFFFFFFFFFFFFFFFFFFFFF AND PUSH20 0xFFFFFFFFFFFFFFFFFFFFFFFFFFFFFFFFFFFFFFFF AND CALLER PUSH20 0xFFFFFFFFFFFFFFFFFFFFFFFFFFFFFFFFFFFFFFFF AND EQ PUSH2 0x247F JUMPI PUSH1 0x40 MLOAD PUSH32 0x3F77EA3E00000000000000000000000000000000000000000000000000000000 DUP2 MSTORE PUSH1 0x4 ADD PUSH1 0x40 MLOAD DUP1 SWAP2 SUB SWAP1 REVERT JUMPDEST PUSH0 DUP2 PUSH1 0x8 ADD PUSH0 SWAP1 SLOAD SWAP1 PUSH2 0x100 EXP SWAP1 DIV PUSH1 0xFF AND SWAP1 POP PUSH1 0x4 PUSH1 0x6 DUP2 GT ISZERO PUSH2 0x24A7 JUMPI PUSH2 0x24A6 PUSH2 0x3D0B JUMP JUMPDEST JUMPDEST DUP2 PUSH1 0x6 DUP2 GT ISZERO PUSH2 0x24BA JUMPI PUSH2 0x24B9 PUSH2 0x3D0B JUMP JUMPDEST JUMPDEST EQ DUP1 PUSH2 0x24EA JUMPI POP PUSH1 0x5 PUSH1 0x6 DUP2 GT ISZERO PUSH2 0x24D5 JUMPI PUSH2 0x24D4 PUSH2 0x3D0B JUMP JUMPDEST JUMPDEST DUP2 PUSH1 0x6 DUP2 GT ISZERO PUSH2 0x24E8 JUMPI PUSH2 0x24E7 PUSH2 0x3D0B JUMP JUMPDEST JUMPDEST EQ JUMPDEST DUP1 PUSH2 0x2518 JUMPI POP PUSH1 0x6 DUP1 DUP2 GT ISZERO PUSH2 0x2503 JUMPI PUSH2 0x2502 PUSH2 0x3D0B JUMP JUMPDEST JUMPDEST DUP2 PUSH1 0x6 DUP2 GT ISZERO PUSH2 0x2516 JUMPI PUSH2 0x2515 PUSH2 0x3D0B JUMP JUMPDEST JUMPDEST EQ JUMPDEST ISZERO PUSH2 0x254F JUMPI PUSH1 0x40 MLOAD PUSH32 0x8B167A5000000000000000000000000000000000000000000000000000000000 DUP2 MSTORE PUSH1 0x4 ADD PUSH1 0x40 MLOAD DUP1 SWAP2 SUB SWAP1 REVERT JUMPDEST PUSH0 PUSH1 0x6 DUP2 GT ISZERO PUSH2 0x2562 JUMPI PUSH2 0x2561 PUSH2 0x3D0B JUMP JUMPDEST JUMPDEST DUP2 PUSH1 0x6 DUP2 GT ISZERO PUSH2 0x2575 JUMPI PUSH2 0x2574 PUSH2 0x3D0B JUMP JUMPDEST JUMPDEST EQ ISZERO DUP1 ISZERO PUSH2 0x25A8 JUMPI POP PUSH1 0x2 PUSH1 0x6 DUP2 GT ISZERO PUSH2 0x2592 JUMPI PUSH2 0x2591 PUSH2 0x3D0B JUMP JUMPDEST JUMPDEST DUP2 PUSH1 0x6 DUP2 GT ISZERO PUSH2 0x25A5 JUMPI PUSH2 0x25A4 PUSH2 0x3D0B JUMP JUMPDEST JUMPDEST EQ ISZERO JUMPDEST ISZERO PUSH2 0x25DF JUMPI PUSH1 0x40 MLOAD PUSH32 0xB86C1B1C00000000000000000000000000000000000000000000000000000000 DUP2 MSTORE PUSH1 0x4 ADD PUSH1 0x40 MLOAD DUP1 SWAP2 SUB SWAP1 REVERT JUMPDEST PUSH1 0x6 DUP3 PUSH1 0x8 ADD PUSH0 PUSH2 0x100 EXP DUP2 SLOAD DUP2 PUSH1 0xFF MUL NOT AND SWAP1 DUP4 PUSH1 0x6 DUP2 GT ISZERO PUSH2 0x2606 JUMPI PUSH2 0x2605 PUSH2 0x3D0B JUMP JUMPDEST JUMPDEST MUL OR SWAP1 SSTORE POP DUP4 PUSH32 0x7C1C93F72F29B8A1FC6FC85EED990D133B1FFAC80C962B521ABB12F38F2FF9AF PUSH1 0x6 PUSH1 0x40 MLOAD PUSH2 0x263C SWAP2 SWAP1 PUSH2 0x50AE JUMP JUMPDEST PUSH1 0x40 MLOAD DUP1 SWAP2 SUB SWAP1 LOG2 POP POP POP POP JUMP JUMPDEST PUSH1 0x60 DUP2 PUSH2 0x2656 DUP2 PUSH2 0x360F JUMP JUMPDEST PUSH0 PUSH1 0x5 PUSH0 DUP6 DUP2 MSTORE PUSH1 0x20 ADD SWAP1 DUP2 MSTORE PUSH1 0x20 ADD PUSH0 KECCAK256 PUSH1 0x9 ADD SWAP1 POP PUSH0 DUP2 DUP1 SLOAD SWAP1 POP PUSH8 0xFFFFFFFFFFFFFFFF DUP2 GT ISZERO PUSH2 0x268C JUMPI PUSH2 0x268B PUSH2 0x3F85 JUMP JUMPDEST JUMPDEST PUSH1 0x40 MLOAD SWAP1 DUP1 DUP3 MSTORE DUP1 PUSH1 0x20 MUL PUSH1 0x20 ADD DUP3 ADD PUSH1 0x40 MSTORE DUP1 ISZERO PUSH2 0x26C5 JUMPI DUP2 PUSH1 0x20 ADD JUMPDEST PUSH2 0x26B2 PUSH2 0x3AC0 JUMP JUMPDEST DUP2 MSTORE PUSH1 0x20 ADD SWAP1 PUSH1 0x1 SWAP1 SUB SWAP1 DUP2 PUSH2 0x26AA JUMPI SWAP1 POP JUMPDEST POP SWAP1 POP PUSH0 PUSH0 SWAP1 POP JUMPDEST DUP3 DUP1 SLOAD SWAP1 POP DUP2 LT ISZERO PUSH2 0x2912 JUMPI PUSH1 0x6 PUSH0 DUP5 DUP4 DUP2 SLOAD DUP2 LT PUSH2 0x26EF JUMPI PUSH2 0x26EE PUSH2 0x500A JUMP JUMPDEST JUMPDEST SWAP1 PUSH0 MSTORE PUSH1 0x20 PUSH0 KECCAK256 ADD SLOAD DUP2 MSTORE PUSH1 0x20 ADD SWAP1 DUP2 MSTORE PUSH1 0x20 ADD PUSH0 KECCAK256 PUSH1 0x40 MLOAD DUP1 PUSH2 0x100 ADD PUSH1 0x40 MSTORE SWAP1 DUP2 PUSH0 DUP3 ADD SLOAD DUP2 MSTORE PUSH1 0x20 ADD PUSH1 0x1 DUP3 ADD SLOAD DUP2 MSTORE PUSH1 0x20 ADD PUSH1 0x2 DUP3 ADD PUSH0 SWAP1 SLOAD SWAP1 PUSH2 0x100 EXP SWAP1 DIV PUSH20 0xFFFFFFFFFFFFFFFFFFFFFFFFFFFFFFFFFFFFFFFF AND PUSH20 0xFFFFFFFFFFFFFFFFFFFFFFFFFFFFFFFFFFFFFFFF AND PUSH20 0xFFFFFFFFFFFFFFFFFFFFFFFFFFFFFFFFFFFFFFFF AND DUP2 MSTORE PUSH1 0x20 ADD PUSH1 0x3 DUP3 ADD DUP1 SLOAD PUSH2 0x2789 SWAP1 PUSH2 0x4C5B JUMP JUMPDEST DUP1 PUSH1 0x1F ADD PUSH1 0x20 DUP1 SWAP2 DIV MUL PUSH1 0x20 ADD PUSH1 0x40 MLOAD SWAP1 DUP2 ADD PUSH1 0x40 MSTORE DUP1 SWAP3 SWAP2 SWAP1 DUP2 DUP2 MSTORE PUSH1 0x20 ADD DUP3 DUP1 SLOAD PUSH2 0x27B5 SWAP1 PUSH2 0x4C5B JUMP JUMPDEST DUP1 ISZERO PUSH2 0x2800 JUMPI DUP1 PUSH1 0x1F LT PUSH2 0x27D7 JUMPI PUSH2 0x100 DUP1 DUP4 SLOAD DIV MUL DUP4 MSTORE SWAP2 PUSH1 0x20 ADD SWAP2 PUSH2 0x2800 JUMP JUMPDEST DUP3 ADD SWAP2 SWAP1 PUSH0 MSTORE PUSH1 0x20 PUSH0 KECCAK256 SWAP1 JUMPDEST DUP2 SLOAD DUP2 MSTORE SWAP1 PUSH1 0x1 ADD SWAP1 PUSH1 0x20 ADD DUP1 DUP4 GT PUSH2 0x27E3 JUMPI DUP3 SWAP1 SUB PUSH1 0x1F AND DUP3 ADD SWAP2 JUMPDEST POP POP POP POP POP DUP2 MSTORE PUSH1 0x20 ADD PUSH1 0x4 DUP3 ADD PUSH0 SWAP1 SLOAD SWAP1 PUSH2 0x100 EXP SWAP1 DIV PUSH1 0xFF AND PUSH1 0x4 DUP2 GT ISZERO PUSH2 0x282D JUMPI PUSH2 0x282C PUSH2 0x3D0B JUMP JUMPDEST JUMPDEST PUSH1 0x4 DUP2 GT ISZERO PUSH2 0x283F JUMPI PUSH2 0x283E PUSH2 0x3D0B JUMP JUMPDEST JUMPDEST DUP2 MSTORE PUSH1 0x20 ADD PUSH1 0x5 DUP3 ADD SLOAD DUP2 MSTORE PUSH1 0x20 ADD PUSH1 0x6 DUP3 ADD DUP1 SLOAD PUSH2 0x285D SWAP1 PUSH2 0x4C5B JUMP JUMPDEST DUP1 PUSH1 0x1F ADD PUSH1 0x20 DUP1 SWAP2 DIV MUL PUSH1 0x20 ADD PUSH1 0x40 MLOAD SWAP1 DUP2 ADD PUSH1 0x40 MSTORE DUP1 SWAP3 SWAP2 SWAP1 DUP2 DUP2 MSTORE PUSH1 0x20 ADD DUP3 DUP1 SLOAD PUSH2 0x2889 SWAP1 PUSH2 0x4C5B JUMP JUMPDEST DUP1 ISZERO PUSH2 0x28D4 JUMPI DUP1 PUSH1 0x1F LT PUSH2 0x28AB JUMPI PUSH2 0x100 DUP1 DUP4 SLOAD DIV MUL DUP4 MSTORE SWAP2 PUSH1 0x20 ADD SWAP2 PUSH2 0x28D4 JUMP JUMPDEST DUP3 ADD SWAP2 SWAP1 PUSH0 MSTORE PUSH1 0x20 PUSH0 KECCAK256 SWAP1 JUMPDEST DUP2 SLOAD DUP2 MSTORE SWAP1 PUSH1 0x1 ADD SWAP1 PUSH1 0x20 ADD DUP1 DUP4 GT PUSH2 0x28B7 JUMPI DUP3 SWAP1 SUB PUSH1 0x1F AND DUP3 ADD SWAP2 JUMPDEST POP POP POP POP POP DUP2 MSTORE PUSH1 0x20 ADD PUSH1 0x7 DUP3 ADD SLOAD DUP2 MSTORE POP POP DUP3 DUP3 DUP2 MLOAD DUP2 LT PUSH2 0x28FA JUMPI PUSH2 0x28F9 PUSH2 0x500A JUMP JUMPDEST JUMPDEST PUSH1 0x20 MUL PUSH1 0x20 ADD ADD DUP2 SWAP1 MSTORE POP DUP1 DUP1 PUSH1 0x1 ADD SWAP2 POP POP PUSH2 0x26CD JUMP JUMPDEST POP DUP1 SWAP4 POP POP POP POP SWAP2 SWAP1 POP JUMP JUMPDEST PUSH0 PUSH1 0x7 PUSH0 DUP4 DUP2 MSTORE PUSH1 0x20 ADD SWAP1 DUP2 MSTORE PUSH1 0x20 ADD PUSH0 KECCAK256 PUSH1 0x5 ADD PUSH0 SWAP1 SLOAD SWAP1 PUSH2 0x100 EXP SWAP1 DIV PUSH1 0xFF AND SWAP1 POP SWAP2 SWAP1 POP JUMP JUMPDEST PUSH2 0x294F PUSH2 0x3B7D JUMP JUMPDEST PUSH0 DUP3 EQ DUP1 PUSH2 0x295F JUMPI POP PUSH1 0x4 SLOAD DUP3 LT ISZERO JUMPDEST ISZERO PUSH2 0x29A1 JUMPI DUP2 PUSH1 0x40 MLOAD PUSH32 0xAE30D3B000000000000000000000000000000000000000000000000000000000 DUP2 MSTORE PUSH1 0x4 ADD PUSH2 0x2998 SWAP2 SWAP1 PUSH2 0x41BD JUMP JUMPDEST PUSH1 0x40 MLOAD DUP1 SWAP2 SUB SWAP1 REVERT JUMPDEST PUSH1 0x7 PUSH0 DUP4 DUP2 MSTORE PUSH1 0x20 ADD SWAP1 DUP2 MSTORE PUSH1 0x20 ADD PUSH0 KECCAK256 PUSH1 0x40 MLOAD DUP1 PUSH1 0xE0 ADD PUSH1 0x40 MSTORE SWAP1 DUP2 PUSH0 DUP3 ADD SLOAD DUP2 MSTORE PUSH1 0x20 ADD PUSH1 0x1 DUP3 ADD SLOAD DUP2 MSTORE PUSH1 0x20 ADD PUSH1 0x2 DUP3 ADD PUSH0 SWAP1 SLOAD SWAP1 PUSH2 0x100 EXP SWAP1 DIV PUSH1 0xFF AND PUSH1 0x4 DUP2 GT ISZERO PUSH2 0x29F4 JUMPI PUSH2 0x29F3 PUSH2 0x3D0B JUMP JUMPDEST JUMPDEST PUSH1 0x4 DUP2 GT ISZERO PUSH2 0x2A06 JUMPI PUSH2 0x2A05 PUSH2 0x3D0B JUMP JUMPDEST JUMPDEST DUP2 MSTORE PUSH1 0x20 ADD PUSH1 0x2 DUP3 ADD PUSH1 0x1 SWAP1 SLOAD SWAP1 PUSH2 0x100 EXP SWAP1 DIV PUSH20 0xFFFFFFFFFFFFFFFFFFFFFFFFFFFFFFFFFFFFFFFF AND PUSH20 0xFFFFFFFFFFFFFFFFFFFFFFFFFFFFFFFFFFFFFFFF AND PUSH20 0xFFFFFFFFFFFFFFFFFFFFFFFFFFFFFFFFFFFFFFFF AND DUP2 MSTORE PUSH1 0x20 ADD PUSH1 0x3 DUP3 ADD DUP1 SLOAD PUSH2 0x2A70 SWAP1 PUSH2 0x4C5B JUMP JUMPDEST DUP1 PUSH1 0x1F ADD PUSH1 0x20 DUP1 SWAP2 DIV MUL PUSH1 0x20 ADD PUSH1 0x40 MLOAD SWAP1 DUP2 ADD PUSH1 0x40 MSTORE DUP1 SWAP3 SWAP2 SWAP1 DUP2 DUP2 MSTORE PUSH1 0x20 ADD DUP3 DUP1 SLOAD PUSH2 0x2A9C SWAP1 PUSH2 0x4C5B JUMP JUMPDEST DUP1 ISZERO PUSH2 0x2AE7 JUMPI DUP1 PUSH1 0x1F LT PUSH2 0x2ABE JUMPI PUSH2 0x100 DUP1 DUP4 SLOAD DIV MUL DUP4 MSTORE SWAP2 PUSH1 0x20 ADD SWAP2 PUSH2 0x2AE7 JUMP JUMPDEST DUP3 ADD SWAP2 SWAP1 PUSH0 MSTORE PUSH1 0x20 PUSH0 KECCAK256 SWAP1 JUMPDEST DUP2 SLOAD DUP2 MSTORE SWAP1 PUSH1 0x1 ADD SWAP1 PUSH1 0x20 ADD DUP1 DUP4 GT PUSH2 0x2ACA JUMPI DUP3 SWAP1 SUB PUSH1 0x1F AND DUP3 ADD SWAP2 JUMPDEST POP POP POP POP POP DUP2 MSTORE PUSH1 0x20 ADD PUSH1 0x4 DUP3 ADD SLOAD DUP2 MSTORE PUSH1 0x20 ADD PUSH1 0x5 DUP3 ADD PUSH0 SWAP1 SLOAD SWAP1 PUSH2 0x100 EXP SWAP1 DIV PUSH1 0xFF AND ISZERO ISZERO ISZERO ISZERO DUP2 MSTORE POP POP SWAP1 POP SWAP2 SWAP1 POP JUMP JUMPDEST PUSH1 0x60 DUP2 PUSH2 0x2B27 DUP2 PUSH2 0x360F JUMP JUMPDEST PUSH0 PUSH1 0x5 PUSH0 DUP6 DUP2 MSTORE PUSH1 0x20 ADD SWAP1 DUP2 MSTORE PUSH1 0x20 ADD PUSH0 KECCAK256 PUSH1 0xA ADD SWAP1 POP PUSH0 DUP2 DUP1 SLOAD SWAP1 POP PUSH8 0xFFFFFFFFFFFFFFFF DUP2 GT ISZERO PUSH2 0x2B5D JUMPI PUSH2 0x2B5C PUSH2 0x3F85 JUMP JUMPDEST JUMPDEST PUSH1 0x40 MLOAD SWAP1 DUP1 DUP3 MSTORE DUP1 PUSH1 0x20 MUL PUSH1 0x20 ADD DUP3 ADD PUSH1 0x40 MSTORE DUP1 ISZERO PUSH2 0x2B96 JUMPI DUP2 PUSH1 0x20 ADD JUMPDEST PUSH2 0x2B83 PUSH2 0x3B7D JUMP JUMPDEST DUP2 MSTORE PUSH1 0x20 ADD SWAP1 PUSH1 0x1 SWAP1 SUB SWAP1 DUP2 PUSH2 0x2B7B JUMPI SWAP1 POP JUMPDEST POP SWAP1 POP PUSH0 PUSH0 SWAP1 POP JUMPDEST DUP3 DUP1 SLOAD SWAP1 POP DUP2 LT ISZERO PUSH2 0x2D63 JUMPI PUSH1 0x7 PUSH0 DUP5 DUP4 DUP2 SLOAD DUP2 LT PUSH2 0x2BC0 JUMPI PUSH2 0x2BBF PUSH2 0x500A JUMP JUMPDEST JUMPDEST SWAP1 PUSH0 MSTORE PUSH1 0x20 PUSH0 KECCAK256 ADD SLOAD DUP2 MSTORE PUSH1 0x20 ADD SWAP1 DUP2 MSTORE PUSH1 0x20 ADD PUSH0 KECCAK256 PUSH1 0x40 MLOAD DUP1 PUSH1 0xE0 ADD PUSH1 0x40 MSTORE SWAP1 DUP2 PUSH0 DUP3 ADD SLOAD DUP2 MSTORE PUSH1 0x20 ADD PUSH1 0x1 DUP3 ADD SLOAD DUP2 MSTORE PUSH1 0x20 ADD PUSH1 0x2 DUP3 ADD PUSH0 SWAP1 SLOAD SWAP1 PUSH2 0x100 EXP SWAP1 DIV PUSH1 0xFF AND PUSH1 0x4 DUP2 GT ISZERO PUSH2 0x2C18 JUMPI PUSH2 0x2C17 PUSH2 0x3D0B JUMP JUMPDEST JUMPDEST PUSH1 0x4 DUP2 GT ISZERO PUSH2 0x2C2A JUMPI PUSH2 0x2C29 PUSH2 0x3D0B JUMP JUMPDEST JUMPDEST DUP2 MSTORE PUSH1 0x20 ADD PUSH1 0x2 DUP3 ADD PUSH1 0x1 SWAP1 SLOAD SWAP1 PUSH2 0x100 EXP SWAP1 DIV PUSH20 0xFFFFFFFFFFFFFFFFFFFFFFFFFFFFFFFFFFFFFFFF AND PUSH20 0xFFFFFFFFFFFFFFFFFFFFFFFFFFFFFFFFFFFFFFFF AND PUSH20 0xFFFFFFFFFFFFFFFFFFFFFFFFFFFFFFFFFFFFFFFF AND DUP2 MSTORE PUSH1 0x20 ADD PUSH1 0x3 DUP3 ADD DUP1 SLOAD PUSH2 0x2C94 SWAP1 PUSH2 0x4C5B JUMP JUMPDEST DUP1 PUSH1 0x1F ADD PUSH1 0x20 DUP1 SWAP2 DIV MUL PUSH1 0x20 ADD PUSH1 0x40 MLOAD SWAP1 DUP2 ADD PUSH1 0x40 MSTORE DUP1 SWAP3 SWAP2 SWAP1 DUP2 DUP2 MSTORE PUSH1 0x20 ADD DUP3 DUP1 SLOAD PUSH2 0x2CC0 SWAP1 PUSH2 0x4C5B JUMP JUMPDEST DUP1 ISZERO PUSH2 0x2D0B JUMPI DUP1 PUSH1 0x1F LT PUSH2 0x2CE2 JUMPI PUSH2 0x100 DUP1 DUP4 SLOAD DIV MUL DUP4 MSTORE SWAP2 PUSH1 0x20 ADD SWAP2 PUSH2 0x2D0B JUMP JUMPDEST DUP3 ADD SWAP2 SWAP1 PUSH0 MSTORE PUSH1 0x20 PUSH0 KECCAK256 SWAP1 JUMPDEST DUP2 SLOAD DUP2 MSTORE SWAP1 PUSH1 0x1 ADD SWAP1 PUSH1 0x20 ADD DUP1 DUP4 GT PUSH2 0x2CEE JUMPI DUP3 SWAP1 SUB PUSH1 0x1F AND DUP3 ADD SWAP2 JUMPDEST POP POP POP POP POP DUP2 MSTORE PUSH1 0x20 ADD PUSH1 0x4 DUP3 ADD SLOAD DUP2 MSTORE PUSH1 0x20 ADD PUSH1 0x5 DUP3 ADD PUSH0 SWAP1 SLOAD SWAP1 PUSH2 0x100 EXP SWAP1 DIV PUSH1 0xFF AND ISZERO ISZERO ISZERO ISZERO DUP2 MSTORE POP POP DUP3 DUP3 DUP2 MLOAD DUP2 LT PUSH2 0x2D4B JUMPI PUSH2 0x2D4A PUSH2 0x500A JUMP JUMPDEST JUMPDEST PUSH1 0x20 MUL PUSH1 0x20 ADD ADD DUP2 SWAP1 MSTORE POP DUP1 DUP1 PUSH1 0x1 ADD SWAP2 POP POP PUSH2 0x2B9E JUMP JUMPDEST POP DUP1 SWAP4 POP POP POP POP SWAP2 SWAP1 POP JUMP JUMPDEST PUSH1 0x14 DUP2 JUMP JUMPDEST PUSH0 DUP2 PUSH2 0x2D7F DUP2 PUSH2 0x360F JUMP JUMPDEST PUSH0 PUSH1 0x5 PUSH0 DUP6 DUP2 MSTORE PUSH1 0x20 ADD SWAP1 DUP2 MSTORE PUSH1 0x20 ADD PUSH0 KECCAK256 SWAP1 POP DUP1 PUSH1 0xB ADD PUSH0 SWAP1 SLOAD SWAP1 PUSH2 0x100 EXP SWAP1 DIV PUSH1 0xFF AND PUSH2 0x2DB2 JUMPI PUSH1 0x1 SWAP3 POP POP PUSH2 0x2E64 JUMP JUMPDEST PUSH0 DUP2 PUSH1 0x9 ADD DUP1 SLOAD SWAP1 POP SWAP1 POP PUSH0 PUSH0 SWAP1 POP JUMPDEST DUP2 DUP2 LT ISZERO PUSH2 0x2E5C JUMPI PUSH0 PUSH1 0x6 PUSH0 DUP6 PUSH1 0x9 ADD DUP5 DUP2 SLOAD DUP2 LT PUSH2 0x2DE4 JUMPI PUSH2 0x2DE3 PUSH2 0x500A JUMP JUMPDEST JUMPDEST SWAP1 PUSH0 MSTORE PUSH1 0x20 PUSH0 KECCAK256 ADD SLOAD DUP2 MSTORE PUSH1 0x20 ADD SWAP1 DUP2 MSTORE PUSH1 0x20 ADD PUSH0 KECCAK256 PUSH1 0x7 ADD SLOAD SWAP1 POP PUSH32 0x8000000000000000000000000000000000000000000000000000000000000000 DUP2 SUB PUSH2 0x2E2D JUMPI POP PUSH2 0x2E4F JUMP JUMPDEST PUSH1 0x50 DUP2 SGT DUP1 PUSH2 0x2E3C JUMPI POP PUSH1 0x14 DUP2 SLT JUMPDEST ISZERO PUSH2 0x2E4D JUMPI PUSH0 SWAP6 POP POP POP POP POP PUSH2 0x2E64 JUMP JUMPDEST POP JUMPDEST DUP1 DUP1 PUSH1 0x1 ADD SWAP2 POP POP PUSH2 0x2DC2 JUMP JUMPDEST POP PUSH1 0x1 SWAP4 POP POP POP JUMPDEST POP SWAP2 SWAP1 POP JUMP JUMPDEST PUSH2 0x2E72 PUSH2 0x3878 JUMP JUMPDEST PUSH0 PUSH20 0xFFFFFFFFFFFFFFFFFFFFFFFFFFFFFFFFFFFFFFFF AND DUP2 PUSH20 0xFFFFFFFFFFFFFFFFFFFFFFFFFFFFFFFFFFFFFFFF AND SUB PUSH2 0x2ED7 JUMPI PUSH1 0x40 MLOAD PUSH32 0xE6C4247B00000000000000000000000000000000000000000000000000000000 DUP2 MSTORE PUSH1 0x4 ADD PUSH1 0x40 MLOAD DUP1 SWAP2 SUB SWAP1 REVERT JUMPDEST PUSH1 0x8 PUSH0 DUP3 PUSH20 0xFFFFFFFFFFFFFFFFFFFFFFFFFFFFFFFFFFFFFFFF AND PUSH20 0xFFFFFFFFFFFFFFFFFFFFFFFFFFFFFFFFFFFFFFFF AND DUP2 MSTORE PUSH1 0x20 ADD SWAP1 DUP2 MSTORE PUSH1 0x20 ADD PUSH0 KECCAK256 PUSH1 0x4 ADD PUSH0 SWAP1 SLOAD SWAP1 PUSH2 0x100 EXP SWAP1 DIV PUSH1 0xFF AND ISZERO PUSH2 0x2F5B JUMPI PUSH1 0x40 MLOAD PUSH32 0x7CA2767C00000000000000000000000000000000000000000000000000000000 DUP2 MSTORE PUSH1 0x4 ADD PUSH1 0x40 MLOAD DUP1 SWAP2 SUB SWAP1 REVERT JUMPDEST PUSH0 PUSH1 0x5 DUP2 GT ISZERO PUSH2 0x2F6E JUMPI PUSH2 0x2F6D PUSH2 0x3D0B JUMP JUMPDEST JUMPDEST DUP4 PUSH1 0x5 DUP2 GT ISZERO PUSH2 0x2F81 JUMPI PUSH2 0x2F80 PUSH2 0x3D0B JUMP JUMPDEST JUMPDEST SUB PUSH2 0x2FB8 JUMPI PUSH1 0x40 MLOAD PUSH32 0xD954416A00000000000000000000000000000000000000000000000000000000 DUP2 MSTORE PUSH1 0x4 ADD PUSH1 0x40 MLOAD DUP1 SWAP2 SUB SWAP1 REVERT JUMPDEST PUSH1 0x40 MLOAD DUP1 PUSH1 0xA0 ADD PUSH1 0x40 MSTORE DUP1 DUP3 PUSH20 0xFFFFFFFFFFFFFFFFFFFFFFFFFFFFFFFFFFFFFFFF AND DUP2 MSTORE PUSH1 0x20 ADD DUP6 DUP2 MSTORE PUSH1 0x20 ADD DUP5 PUSH1 0x5 DUP2 GT ISZERO PUSH2 0x2FF8 JUMPI PUSH2 0x2FF7 PUSH2 0x3D0B JUMP JUMPDEST JUMPDEST DUP2 MSTORE PUSH1 0x20 ADD DUP4 DUP2 MSTORE PUSH1 0x20 ADD PUSH1 0x1 ISZERO ISZERO DUP2 MSTORE POP PUSH1 0x8 PUSH0 DUP4 PUSH20 0xFFFFFFFFFFFFFFFFFFFFFFFFFFFFFFFFFFFFFFFF AND PUSH20 0xFFFFFFFFFFFFFFFFFFFFFFFFFFFFFFFFFFFFFFFF AND DUP2 MSTORE PUSH1 0x20 ADD SWAP1 DUP2 MSTORE PUSH1 0x20 ADD PUSH0 KECCAK256 PUSH0 DUP3 ADD MLOAD DUP2 PUSH0 ADD PUSH0 PUSH2 0x100 EXP DUP2 SLOAD DUP2 PUSH20 0xFFFFFFFFFFFFFFFFFFFFFFFFFFFFFFFFFFFFFFFF MUL NOT AND SWAP1 DUP4 PUSH20 0xFFFFFFFFFFFFFFFFFFFFFFFFFFFFFFFFFFFFFFFF AND MUL OR SWAP1 SSTORE POP PUSH1 0x20 DUP3 ADD MLOAD DUP2 PUSH1 0x1 ADD SWAP1 DUP2 PUSH2 0x30A0 SWAP2 SWAP1 PUSH2 0x4E9F JUMP JUMPDEST POP PUSH1 0x40 DUP3 ADD MLOAD DUP2 PUSH1 0x2 ADD PUSH0 PUSH2 0x100 EXP DUP2 SLOAD DUP2 PUSH1 0xFF MUL NOT AND SWAP1 DUP4 PUSH1 0x5 DUP2 GT ISZERO PUSH2 0x30CB JUMPI PUSH2 0x30CA PUSH2 0x3D0B JUMP JUMPDEST JUMPDEST MUL OR SWAP1 SSTORE POP PUSH1 0x60 DUP3 ADD MLOAD DUP2 PUSH1 0x3 ADD SWAP1 DUP2 PUSH2 0x30E5 SWAP2 SWAP1 PUSH2 0x4E9F JUMP JUMPDEST POP PUSH1 0x80 DUP3 ADD MLOAD DUP2 PUSH1 0x4 ADD PUSH0 PUSH2 0x100 EXP DUP2 SLOAD DUP2 PUSH1 0xFF MUL NOT AND SWAP1 DUP4 ISZERO ISZERO MUL OR SWAP1 SSTORE POP SWAP1 POP POP DUP1 PUSH20 0xFFFFFFFFFFFFFFFFFFFFFFFFFFFFFFFFFFFFFFFF AND PUSH32 0xC9A31DE765ABE70445345802BEE3C96554CA063AB257E3888D498ACCB859FABC DUP6 DUP6 PUSH1 0x40 MLOAD PUSH2 0x3150 SWAP3 SWAP2 SWAP1 PUSH2 0x50D6 JUMP JUMPDEST PUSH1 0x40 MLOAD DUP1 SWAP2 SUB SWAP1 LOG2 POP POP POP POP JUMP JUMPDEST PUSH0 PUSH1 0x2 SLOAD SWAP1 POP SWAP1 JUMP JUMPDEST PUSH0 PUSH2 0x3170 PUSH2 0x358A JUMP JUMPDEST DUP4 PUSH2 0x317A DUP2 PUSH2 0x360F JUMP JUMPDEST PUSH1 0xA PUSH0 CALLER PUSH20 0xFFFFFFFFFFFFFFFFFFFFFFFFFFFFFFFFFFFFFFFF AND PUSH20 0xFFFFFFFFFFFFFFFFFFFFFFFFFFFFFFFFFFFFFFFF AND DUP2 MSTORE PUSH1 0x20 ADD SWAP1 DUP2 MSTORE PUSH1 0x20 ADD PUSH0 KECCAK256 PUSH0 DUP7 DUP2 MSTORE PUSH1 0x20 ADD SWAP1 DUP2 MSTORE PUSH1 0x20 ADD PUSH0 KECCAK256 PUSH0 SWAP1 SLOAD SWAP1 PUSH2 0x100 EXP SWAP1 DIV PUSH1 0xFF AND PUSH2 0x3209 JUMPI PUSH1 0x40 MLOAD PUSH32 0xD40C3D2100000000000000000000000000000000000000000000000000000000 DUP2 MSTORE PUSH1 0x4 ADD PUSH1 0x40 MLOAD DUP1 SWAP2 SUB SWAP1 REVERT JUMPDEST PUSH2 0x3214 DUP6 DUP6 DUP6 PUSH2 0x3664 JUMP JUMPDEST SWAP2 POP POP SWAP4 SWAP3 POP POP POP JUMP JUMPDEST PUSH0 PUSH0 SWAP1 SLOAD SWAP1 PUSH2 0x100 EXP SWAP1 DIV PUSH20 0xFFFFFFFFFFFFFFFFFFFFFFFFFFFFFFFFFFFFFFFF AND DUP2 JUMP JUMPDEST PUSH2 0x324A PUSH2 0x3878 JUMP JUMPDEST PUSH0 PUSH20 0xFFFFFFFFFFFFFFFFFFFFFFFFFFFFFFFFFFFFFFFF AND PUSH1 0x8 PUSH0 DUP4 PUSH20 0xFFFFFFFFFFFFFFFFFFFFFFFFFFFFFFFFFFFFFFFF AND PUSH20 0xFFFFFFFFFFFFFFFFFFFFFFFFFFFFFFFFFFFFFFFF AND DUP2 MSTORE PUSH1 0x20 ADD SWAP1 DUP2 MSTORE PUSH1 0x20 ADD PUSH0 KECCAK256 PUSH0 ADD PUSH0 SWAP1 SLOAD SWAP1 PUSH2 0x100 EXP SWAP1 DIV PUSH20 0xFFFFFFFFFFFFFFFFFFFFFFFFFFFFFFFFFFFFFFFF AND PUSH20 0xFFFFFFFFFFFFFFFFFFFFFFFFFFFFFFFFFFFFFFFF AND SUB PUSH2 0x330D JUMPI PUSH1 0x40 MLOAD PUSH32 0x6F46A36500000000000000000000000000000000000000000000000000000000 DUP2 MSTORE PUSH1 0x4 ADD PUSH1 0x40 MLOAD DUP1 SWAP2 SUB SWAP1 REVERT JUMPDEST PUSH0 PUSH1 0x8 PUSH0 DUP4 PUSH20 0xFFFFFFFFFFFFFFFFFFFFFFFFFFFFFFFFFFFFFFFF AND PUSH20 0xFFFFFFFFFFFFFFFFFFFFFFFFFFFFFFFFFFFFFFFF AND DUP2 MSTORE PUSH1 0x20 ADD SWAP1 DUP2 MSTORE PUSH1 0x20 ADD PUSH0 KECCAK256 PUSH1 0x4 ADD PUSH0 PUSH2 0x100 EXP DUP2 SLOAD DUP2 PUSH1 0xFF MUL NOT AND SWAP1 DUP4 ISZERO ISZERO MUL OR SWAP1 SSTORE POP DUP1 PUSH20 0xFFFFFFFFFFFFFFFFFFFFFFFFFFFFFFFFFFFFFFFF AND PUSH32 0x7D434F3BFFE7DB5F776C1C2B3B22E492788BDFBD071E9AA176F096970EA88933 PUSH0 PUSH1 0x40 MLOAD PUSH2 0x33AA SWAP2 SWAP1 PUSH2 0x4A0E JUMP JUMPDEST PUSH1 0x40 MLOAD DUP1 SWAP2 SUB SWAP1 LOG2 POP JUMP JUMPDEST DUP1 PUSH2 0x33BF DUP2 PUSH2 0x360F JUMP JUMPDEST PUSH0 PUSH1 0x5 PUSH0 DUP5 DUP2 MSTORE PUSH1 0x20 ADD SWAP1 DUP2 MSTORE PUSH1 0x20 ADD PUSH0 KECCAK256 SWAP1 POP DUP1 PUSH1 0x2 ADD PUSH0 SWAP1 SLOAD SWAP1 PUSH2 0x100 EXP SWAP1 DIV PUSH20 0xFFFFFFFFFFFFFFFFFFFFFFFFFFFFFFFFFFFFFFFF AND PUSH20 0xFFFFFFFFFFFFFFFFFFFFFFFFFFFFFFFFFFFFFFFF AND CALLER PUSH20 0xFFFFFFFFFFFFFFFFFFFFFFFFFFFFFFFFFFFFFFFF AND EQ PUSH2 0x345A JUMPI PUSH1 0x40 MLOAD PUSH31 0x7B024000000000000000000000000000000000000000000000000000000000 DUP2 MSTORE PUSH1 0x4 ADD PUSH1 0x40 MLOAD DUP1 SWAP2 SUB SWAP1 REVERT JUMPDEST PUSH1 0x4 PUSH1 0x6 DUP2 GT ISZERO PUSH2 0x346E JUMPI PUSH2 0x346D PUSH2 0x3D0B JUMP JUMPDEST JUMPDEST DUP2 PUSH1 0x8 ADD PUSH0 SWAP1 SLOAD SWAP1 PUSH2 0x100 EXP SWAP1 DIV PUSH1 0xFF AND PUSH1 0x6 DUP2 GT ISZERO PUSH2 0x3491 JUMPI PUSH2 0x3490 PUSH2 0x3D0B JUMP JUMPDEST JUMPDEST SUB PUSH2 0x34C8 JUMPI PUSH1 0x40 MLOAD PUSH32 0xB9F7965300000000000000000000000000000000000000000000000000000000 DUP2 MSTORE PUSH1 0x4 ADD PUSH1 0x40 MLOAD DUP1 SWAP2 SUB SWAP1 REVERT JUMPDEST PUSH1 0x4 DUP2 PUSH1 0x8 ADD PUSH0 PUSH2 0x100 EXP DUP2 SLOAD DUP2 PUSH1 0xFF MUL NOT AND SWAP1 DUP4 PUSH1 0x6 DUP2 GT ISZERO PUSH2 0x34EF JUMPI PUSH2 0x34EE PUSH2 0x3D0B JUMP JUMPDEST JUMPDEST MUL OR SWAP1 SSTORE POP TIMESTAMP DUP2 PUSH1 0x7 ADD DUP2 SWAP1 SSTORE POP DUP3 PUSH32 0x7C1C93F72F29B8A1FC6FC85EED990D133B1FFAC80C962B521ABB12F38F2FF9AF PUSH1 0x4 PUSH1 0x40 MLOAD PUSH2 0x352E SWAP2 SWAP1 PUSH2 0x50AE JUMP JUMPDEST PUSH1 0x40 MLOAD DUP1 SWAP2 SUB SWAP1 LOG2 CALLER PUSH20 0xFFFFFFFFFFFFFFFFFFFFFFFFFFFFFFFFFFFFFFFF AND DUP4 PUSH32 0x2F4A952729DB32131CB3D658CC231127E0CE7E50F83508ECE9A49C985F2384D0 TIMESTAMP PUSH1 0x40 MLOAD PUSH2 0x357D SWAP2 SWAP1 PUSH2 0x41BD JUMP JUMPDEST PUSH1 0x40 MLOAD DUP1 SWAP2 SUB SWAP1 LOG3 POP POP POP JUMP JUMPDEST PUSH1 0x8 PUSH0 CALLER PUSH20 0xFFFFFFFFFFFFFFFFFFFFFFFFFFFFFFFFFFFFFFFF AND PUSH20 0xFFFFFFFFFFFFFFFFFFFFFFFFFFFFFFFFFFFFFFFF AND DUP2 MSTORE PUSH1 0x20 ADD SWAP1 DUP2 MSTORE PUSH1 0x20 ADD PUSH0 KECCAK256 PUSH1 0x4 ADD PUSH0 SWAP1 SLOAD SWAP1 PUSH2 0x100 EXP SWAP1 DIV PUSH1 0xFF AND PUSH2 0x360D JUMPI PUSH1 0x40 MLOAD PUSH32 0x2A718CEB00000000000000000000000000000000000000000000000000000000 DUP2 MSTORE PUSH1 0x4 ADD PUSH1 0x40 MLOAD DUP1 SWAP2 SUB SWAP1 REVERT JUMPDEST JUMP JUMPDEST PUSH0 DUP2 EQ DUP1 PUSH2 0x361F JUMPI POP PUSH1 0x2 SLOAD DUP2 LT ISZERO JUMPDEST ISZERO PUSH2 0x3661 JUMPI DUP1 PUSH1 0x40 MLOAD PUSH32 0x84E54A2400000000000000000000000000000000000000000000000000000000 DUP2 MSTORE PUSH1 0x4 ADD PUSH2 0x3658 SWAP2 SWAP1 PUSH2 0x41BD JUMP JUMPDEST PUSH1 0x40 MLOAD DUP1 SWAP2 SUB SWAP1 REVERT JUMPDEST POP JUMP JUMPDEST PUSH0 PUSH0 PUSH1 0x5 PUSH0 DUP7 DUP2 MSTORE PUSH1 0x20 ADD SWAP1 DUP2 MSTORE PUSH1 0x20 ADD PUSH0 KECCAK256 SWAP1 POP PUSH1 0x32 DUP2 PUSH1 0xA ADD DUP1 SLOAD SWAP1 POP LT PUSH2 0x36BA JUMPI PUSH1 0x40 MLOAD PUSH32 0xCDB7A76C00000000000000000000000000000000000000000000000000000000 DUP2 MSTORE PUSH1 0x4 ADD PUSH1 0x40 MLOAD DUP1 SWAP2 SUB SWAP1 REVERT JUMPDEST PUSH0 PUSH1 0x4 PUSH0 DUP2 SLOAD DUP1 SWAP3 SWAP2 SWAP1 PUSH2 0x36CD SWAP1 PUSH2 0x4CB8 JUMP JUMPDEST SWAP2 SWAP1 POP SSTORE SWAP1 POP PUSH1 0x40 MLOAD DUP1 PUSH1 0xE0 ADD PUSH1 0x40 MSTORE DUP1 DUP3 DUP2 MSTORE PUSH1 0x20 ADD DUP8 DUP2 MSTORE PUSH1 0x20 ADD DUP7 PUSH1 0x4 DUP2 GT ISZERO PUSH2 0x36FD JUMPI PUSH2 0x36FC PUSH2 0x3D0B JUMP JUMPDEST JUMPDEST DUP2 MSTORE PUSH1 0x20 ADD CALLER PUSH20 0xFFFFFFFFFFFFFFFFFFFFFFFFFFFFFFFFFFFFFFFF AND DUP2 MSTORE PUSH1 0x20 ADD DUP6 DUP2 MSTORE PUSH1 0x20 ADD TIMESTAMP DUP2 MSTORE PUSH1 0x20 ADD PUSH0 ISZERO ISZERO DUP2 MSTORE POP PUSH1 0x7 PUSH0 DUP4 DUP2 MSTORE PUSH1 0x20 ADD SWAP1 DUP2 MSTORE PUSH1 0x20 ADD PUSH0 KECCAK256 PUSH0 DUP3 ADD MLOAD DUP2 PUSH0 ADD SSTORE PUSH1 0x20 DUP3 ADD MLOAD DUP2 PUSH1 0x1 ADD SSTORE PUSH1 0x40 DUP3 ADD MLOAD DUP2 PUSH1 0x2 ADD PUSH0 PUSH2 0x100 EXP DUP2 SLOAD DUP2 PUSH1 0xFF MUL NOT AND SWAP1 DUP4 PUSH1 0x4 DUP2 GT ISZERO PUSH2 0x377D JUMPI PUSH2 0x377C PUSH2 0x3D0B JUMP JUMPDEST JUMPDEST MUL OR SWAP1 SSTORE POP PUSH1 0x60 DUP3 ADD MLOAD DUP2 PUSH1 0x2 ADD PUSH1 0x1 PUSH2 0x100 EXP DUP2 SLOAD DUP2 PUSH20 0xFFFFFFFFFFFFFFFFFFFFFFFFFFFFFFFFFFFFFFFF MUL NOT AND SWAP1 DUP4 PUSH20 0xFFFFFFFFFFFFFFFFFFFFFFFFFFFFFFFFFFFFFFFF AND MUL OR SWAP1 SSTORE POP PUSH1 0x80 DUP3 ADD MLOAD DUP2 PUSH1 0x3 ADD SWAP1 DUP2 PUSH2 0x37DE SWAP2 SWAP1 PUSH2 0x4E9F JUMP JUMPDEST POP PUSH1 0xA0 DUP3 ADD MLOAD DUP2 PUSH1 0x4 ADD SSTORE PUSH1 0xC0 DUP3 ADD MLOAD DUP2 PUSH1 0x5 ADD PUSH0 PUSH2 0x100 EXP DUP2 SLOAD DUP2 PUSH1 0xFF MUL NOT AND SWAP1 DUP4 ISZERO ISZERO MUL OR SWAP1 SSTORE POP SWAP1 POP POP DUP2 PUSH1 0xA ADD DUP2 SWAP1 DUP1 PUSH1 0x1 DUP2 SLOAD ADD DUP1 DUP3 SSTORE DUP1 SWAP2 POP POP PUSH1 0x1 SWAP1 SUB SWAP1 PUSH0 MSTORE PUSH1 0x20 PUSH0 KECCAK256 ADD PUSH0 SWAP1 SWAP2 SWAP1 SWAP2 SWAP1 SWAP2 POP SSTORE DUP6 DUP2 PUSH32 0xC2C9D0FA5CAECEA68B9EC6ACA764014B01764F779D8A510F0D0D6796B76B7C83 DUP8 PUSH1 0x40 MLOAD PUSH2 0x3864 SWAP2 SWAP1 PUSH2 0x5113 JUMP JUMPDEST PUSH1 0x40 MLOAD DUP1 SWAP2 SUB SWAP1 LOG3 DUP1 SWAP3 POP POP POP SWAP4 SWAP3 POP POP POP JUMP JUMPDEST PUSH0 PUSH0 SWAP1 SLOAD SWAP1 PUSH2 0x100 EXP SWAP1 DIV PUSH20 0xFFFFFFFFFFFFFFFFFFFFFFFFFFFFFFFFFFFFFFFF AND PUSH20 0xFFFFFFFFFFFFFFFFFFFFFFFFFFFFFFFFFFFFFFFF AND CALLER PUSH20 0xFFFFFFFFFFFFFFFFFFFFFFFFFFFFFFFFFFFFFFFF AND EQ PUSH2 0x38FD JUMPI PUSH1 0x40 MLOAD PUSH32 0x4755657900000000000000000000000000000000000000000000000000000000 DUP2 MSTORE PUSH1 0x4 ADD PUSH1 0x40 MLOAD DUP1 SWAP2 SUB SWAP1 REVERT JUMPDEST JUMP JUMPDEST PUSH1 0xA PUSH0 DUP4 PUSH20 0xFFFFFFFFFFFFFFFFFFFFFFFFFFFFFFFFFFFFFFFF AND PUSH20 0xFFFFFFFFFFFFFFFFFFFFFFFFFFFFFFFFFFFFFFFF AND DUP2 MSTORE PUSH1 0x20 ADD SWAP1 DUP2 MSTORE PUSH1 0x20 ADD PUSH0 KECCAK256 PUSH0 DUP3 DUP2 MSTORE PUSH1 0x20 ADD SWAP1 DUP2 MSTORE PUSH1 0x20 ADD PUSH0 KECCAK256 PUSH0 SWAP1 SLOAD SWAP1 PUSH2 0x100 EXP SWAP1 DIV PUSH1 0xFF AND PUSH2 0x3A22 JUMPI PUSH1 0x1 PUSH1 0xA PUSH0 DUP5 PUSH20 0xFFFFFFFFFFFFFFFFFFFFFFFFFFFFFFFFFFFFFFFF AND PUSH20 0xFFFFFFFFFFFFFFFFFFFFFFFFFFFFFFFFFFFFFFFF AND DUP2 MSTORE PUSH1 0x20 ADD SWAP1 DUP2 MSTORE PUSH1 0x20 ADD PUSH0 KECCAK256 PUSH0 DUP4 DUP2 MSTORE PUSH1 0x20 ADD SWAP1 DUP2 MSTORE PUSH1 0x20 ADD PUSH0 KECCAK256 PUSH0 PUSH2 0x100 EXP DUP2 SLOAD DUP2 PUSH1 0xFF MUL NOT AND SWAP1 DUP4 ISZERO ISZERO MUL OR SWAP1 SSTORE POP PUSH1 0x9 PUSH0 DUP4 PUSH20 0xFFFFFFFFFFFFFFFFFFFFFFFFFFFFFFFFFFFFFFFF AND PUSH20 0xFFFFFFFFFFFFFFFFFFFFFFFFFFFFFFFFFFFFFFFF AND DUP2 MSTORE PUSH1 0x20 ADD SWAP1 DUP2 MSTORE PUSH1 0x20 ADD PUSH0 KECCAK256 DUP2 SWAP1 DUP1 PUSH1 0x1 DUP2 SLOAD ADD DUP1 DUP3 SSTORE DUP1 SWAP2 POP POP PUSH1 0x1 SWAP1 SUB SWAP1 PUSH0 MSTORE PUSH1 0x20 PUSH0 KECCAK256 ADD PUSH0 SWAP1 SWAP2 SWAP1 SWAP2 SWAP1 SWAP2 POP SSTORE JUMPDEST POP POP JUMP JUMPDEST PUSH1 0x40 MLOAD DUP1 PUSH2 0x180 ADD PUSH1 0x40 MSTORE DUP1 PUSH0 DUP2 MSTORE PUSH1 0x20 ADD PUSH0 PUSH20 0xFFFFFFFFFFFFFFFFFFFFFFFFFFFFFFFFFFFFFFFF AND DUP2 MSTORE PUSH1 0x20 ADD PUSH0 PUSH20 0xFFFFFFFFFFFFFFFFFFFFFFFFFFFFFFFFFFFFFFFF AND DUP2 MSTORE PUSH1 0x20 ADD PUSH1 0x60 DUP2 MSTORE PUSH1 0x20 ADD PUSH1 0x60 DUP2 MSTORE PUSH1 0x20 ADD PUSH1 0x60 DUP2 MSTORE PUSH1 0x20 ADD PUSH0 DUP2 MSTORE PUSH1 0x20 ADD PUSH0 DUP2 MSTORE PUSH1 0x20 ADD PUSH0 PUSH1 0x6 DUP2 GT ISZERO PUSH2 0x3AA4 JUMPI PUSH2 0x3AA3 PUSH2 0x3D0B JUMP JUMPDEST JUMPDEST DUP2 MSTORE PUSH1 0x20 ADD PUSH1 0x60 DUP2 MSTORE PUSH1 0x20 ADD PUSH1 0x60 DUP2 MSTORE PUSH1 0x20 ADD PUSH0 ISZERO ISZERO DUP2 MSTORE POP SWAP1 JUMP JUMPDEST PUSH1 0x40 MLOAD DUP1 PUSH2 0x100 ADD PUSH1 0x40 MSTORE DUP1 PUSH0 DUP2 MSTORE PUSH1 0x20 ADD PUSH0 DUP2 MSTORE PUSH1 0x20 ADD PUSH0 PUSH20 0xFFFFFFFFFFFFFFFFFFFFFFFFFFFFFFFFFFFFFFFF AND DUP2 MSTORE PUSH1 0x20 ADD PUSH1 0x60 DUP2 MSTORE PUSH1 0x20 ADD PUSH0 PUSH1 0x4 DUP2 GT ISZERO PUSH2 0x3B0E JUMPI PUSH2 0x3B0D PUSH2 0x3D0B JUMP JUMPDEST JUMPDEST DUP2 MSTORE PUSH1 0x20 ADD PUSH0 DUP2 MSTORE PUSH1 0x20 ADD PUSH1 0x60 DUP2 MSTORE PUSH1 0x20 ADD PUSH0 DUP2 MSTORE POP SWAP1 JUMP JUMPDEST PUSH1 0x40 MLOAD DUP1 PUSH1 0xA0 ADD PUSH1 0x40 MSTORE DUP1 PUSH0 PUSH20 0xFFFFFFFFFFFFFFFFFFFFFFFFFFFFFFFFFFFFFFFF AND DUP2 MSTORE PUSH1 0x20 ADD PUSH1 0x60 DUP2 MSTORE PUSH1 0x20 ADD PUSH0 PUSH1 0x5 DUP2 GT ISZERO PUSH2 0x3B68 JUMPI PUSH2 0x3B67 PUSH2 0x3D0B JUMP JUMPDEST JUMPDEST DUP2 MSTORE PUSH1 0x20 ADD PUSH1 0x60 DUP2 MSTORE PUSH1 0x20 ADD PUSH0 ISZERO ISZERO DUP2 MSTORE POP SWAP1 JUMP JUMPDEST PUSH1 0x40 MLOAD DUP1 PUSH1 0xE0 ADD PUSH1 0x40 MSTORE DUP1 PUSH0 DUP2 MSTORE PUSH1 0x20 ADD PUSH0 DUP2 MSTORE PUSH1 0x20 ADD PUSH0 PUSH1 0x4 DUP2 GT ISZERO PUSH2 0x3BA7 JUMPI PUSH2 0x3BA6 PUSH2 0x3D0B JUMP JUMPDEST JUMPDEST DUP2 MSTORE PUSH1 0x20 ADD PUSH0 PUSH20 0xFFFFFFFFFFFFFFFFFFFFFFFFFFFFFFFFFFFFFFFF AND DUP2 MSTORE PUSH1 0x20 ADD PUSH1 0x60 DUP2 MSTORE PUSH1 0x20 ADD PUSH0 DUP2 MSTORE PUSH1 0x20 ADD PUSH0 ISZERO ISZERO DUP2 MSTORE POP SWAP1 JUMP JUMPDEST PUSH0 PUSH1 0x40 MLOAD SWAP1 POP SWAP1 JUMP JUMPDEST PUSH0 PUSH0 REVERT JUMPDEST PUSH0 PUSH0 REVERT JUMPDEST PUSH0 DUP2 SWAP1 POP SWAP2 SWAP1 POP JUMP JUMPDEST PUSH2 0x3C01 DUP2 PUSH2 0x3BEF JUMP JUMPDEST DUP2 EQ PUSH2 0x3C0B JUMPI PUSH0 PUSH0 REVERT JUMPDEST POP JUMP JUMPDEST PUSH0 DUP2 CALLDATALOAD SWAP1 POP PUSH2 0x3C1C DUP2 PUSH2 0x3BF8 JUMP JUMPDEST SWAP3 SWAP2 POP POP JUMP JUMPDEST PUSH0 PUSH1 0x20 DUP3 DUP5 SUB SLT ISZERO PUSH2 0x3C37 JUMPI PUSH2 0x3C36 PUSH2 0x3BE7 JUMP JUMPDEST JUMPDEST PUSH0 PUSH2 0x3C44 DUP5 DUP3 DUP6 ADD PUSH2 0x3C0E JUMP JUMPDEST SWAP2 POP POP SWAP3 SWAP2 POP POP JUMP JUMPDEST PUSH2 0x3C56 DUP2 PUSH2 0x3BEF JUMP JUMPDEST DUP3 MSTORE POP POP JUMP JUMPDEST PUSH0 PUSH20 0xFFFFFFFFFFFFFFFFFFFFFFFFFFFFFFFFFFFFFFFF DUP3 AND SWAP1 POP SWAP2 SWAP1 POP JUMP JUMPDEST PUSH0 PUSH2 0x3C85 DUP3 PUSH2 0x3C5C JUMP JUMPDEST SWAP1 POP SWAP2 SWAP1 POP JUMP JUMPDEST PUSH2 0x3C95 DUP2 PUSH2 0x3C7B JUMP JUMPDEST DUP3 MSTORE POP POP JUMP JUMPDEST PUSH0 DUP2 MLOAD SWAP1 POP SWAP2 SWAP1 POP JUMP JUMPDEST PUSH0 DUP3 DUP3 MSTORE PUSH1 0x20 DUP3 ADD SWAP1 POP SWAP3 SWAP2 POP POP JUMP JUMPDEST DUP3 DUP2 DUP4 MCOPY PUSH0 DUP4 DUP4 ADD MSTORE POP POP POP JUMP JUMPDEST PUSH0 PUSH1 0x1F NOT PUSH1 0x1F DUP4 ADD AND SWAP1 POP SWAP2 SWAP1 POP JUMP JUMPDEST PUSH0 PUSH2 0x3CDD DUP3 PUSH2 0x3C9B JUMP JUMPDEST PUSH2 0x3CE7 DUP2 DUP6 PUSH2 0x3CA5 JUMP JUMPDEST SWAP4 POP PUSH2 0x3CF7 DUP2 DUP6 PUSH1 0x20 DUP7 ADD PUSH2 0x3CB5 JUMP JUMPDEST PUSH2 0x3D00 DUP2 PUSH2 0x3CC3 JUMP JUMPDEST DUP5 ADD SWAP2 POP POP SWAP3 SWAP2 POP POP JUMP JUMPDEST PUSH32 0x4E487B7100000000000000000000000000000000000000000000000000000000 PUSH0 MSTORE PUSH1 0x21 PUSH1 0x4 MSTORE PUSH1 0x24 PUSH0 REVERT JUMPDEST PUSH1 0x7 DUP2 LT PUSH2 0x3D49 JUMPI PUSH2 0x3D48 PUSH2 0x3D0B JUMP JUMPDEST JUMPDEST POP JUMP JUMPDEST PUSH0 DUP2 SWAP1 POP PUSH2 0x3D59 DUP3 PUSH2 0x3D38 JUMP JUMPDEST SWAP2 SWAP1 POP JUMP JUMPDEST PUSH0 PUSH2 0x3D68 DUP3 PUSH2 0x3D4C JUMP JUMPDEST SWAP1 POP SWAP2 SWAP1 POP JUMP JUMPDEST PUSH2 0x3D78 DUP2 PUSH2 0x3D5E JUMP JUMPDEST DUP3 MSTORE POP POP JUMP JUMPDEST PUSH0 DUP2 MLOAD SWAP1 POP SWAP2 SWAP1 POP JUMP JUMPDEST PUSH0 DUP3 DUP3 MSTORE PUSH1 0x20 DUP3 ADD SWAP1 POP SWAP3 SWAP2 POP POP JUMP JUMPDEST PUSH0 DUP2 SWAP1 POP PUSH1 0x20 DUP3 ADD SWAP1 POP SWAP2 SWAP1 POP JUMP JUMPDEST PUSH0 PUSH2 0x3DB2 DUP4 DUP4 PUSH2 0x3C4D JUMP JUMPDEST PUSH1 0x20 DUP4 ADD SWAP1 POP SWAP3 SWAP2 POP POP JUMP JUMPDEST PUSH0 PUSH1 0x20 DUP3 ADD SWAP1 POP SWAP2 SWAP1 POP JUMP JUMPDEST PUSH0 PUSH2 0x3DD4 DUP3 PUSH2 0x3D7E JUMP JUMPDEST PUSH2 0x3DDE DUP2 DUP6 PUSH2 0x3D88 JUMP JUMPDEST SWAP4 POP PUSH2 0x3DE9 DUP4 PUSH2 0x3D98 JUMP JUMPDEST DUP1 PUSH0 JUMPDEST DUP4 DUP2 LT ISZERO PUSH2 0x3E19 JUMPI DUP2 MLOAD PUSH2 0x3E00 DUP9 DUP3 PUSH2 0x3DA7 JUMP JUMPDEST SWAP8 POP PUSH2 0x3E0B DUP4 PUSH2 0x3DBE JUMP JUMPDEST SWAP3 POP POP PUSH1 0x1 DUP2 ADD SWAP1 POP PUSH2 0x3DEC JUMP JUMPDEST POP DUP6 SWAP4 POP POP POP POP SWAP3 SWAP2 POP POP JUMP JUMPDEST PUSH0 DUP2 ISZERO ISZERO SWAP1 POP SWAP2 SWAP1 POP JUMP JUMPDEST PUSH2 0x3E3A DUP2 PUSH2 0x3E26 JUMP JUMPDEST DUP3 MSTORE POP POP JUMP JUMPDEST PUSH0 PUSH2 0x180 DUP4 ADD PUSH0 DUP4 ADD MLOAD PUSH2 0x3E56 PUSH0 DUP7 ADD DUP3 PUSH2 0x3C4D JUMP JUMPDEST POP PUSH1 0x20 DUP4 ADD MLOAD PUSH2 0x3E69 PUSH1 0x20 DUP7 ADD DUP3 PUSH2 0x3C8C JUMP JUMPDEST POP PUSH1 0x40 DUP4 ADD MLOAD PUSH2 0x3E7C PUSH1 0x40 DUP7 ADD DUP3 PUSH2 0x3C8C JUMP JUMPDEST POP PUSH1 0x60 DUP4 ADD MLOAD DUP5 DUP3 SUB PUSH1 0x60 DUP7 ADD MSTORE PUSH2 0x3E94 DUP3 DUP3 PUSH2 0x3CD3 JUMP JUMPDEST SWAP2 POP POP PUSH1 0x80 DUP4 ADD MLOAD DUP5 DUP3 SUB PUSH1 0x80 DUP7 ADD MSTORE PUSH2 0x3EAE DUP3 DUP3 PUSH2 0x3CD3 JUMP JUMPDEST SWAP2 POP POP PUSH1 0xA0 DUP4 ADD MLOAD DUP5 DUP3 SUB PUSH1 0xA0 DUP7 ADD MSTORE PUSH2 0x3EC8 DUP3 DUP3 PUSH2 0x3CD3 JUMP JUMPDEST SWAP2 POP POP PUSH1 0xC0 DUP4 ADD MLOAD PUSH2 0x3EDD PUSH1 0xC0 DUP7 ADD DUP3 PUSH2 0x3C4D JUMP JUMPDEST POP PUSH1 0xE0 DUP4 ADD MLOAD PUSH2 0x3EF0 PUSH1 0xE0 DUP7 ADD DUP3 PUSH2 0x3C4D JUMP JUMPDEST POP PUSH2 0x100 DUP4 ADD MLOAD PUSH2 0x3F05 PUSH2 0x100 DUP7 ADD DUP3 PUSH2 0x3D6F JUMP JUMPDEST POP PUSH2 0x120 DUP4 ADD MLOAD DUP5 DUP3 SUB PUSH2 0x120 DUP7 ADD MSTORE PUSH2 0x3F1F DUP3 DUP3 PUSH2 0x3DCA JUMP JUMPDEST SWAP2 POP POP PUSH2 0x140 DUP4 ADD MLOAD DUP5 DUP3 SUB PUSH2 0x140 DUP7 ADD MSTORE PUSH2 0x3F3B DUP3 DUP3 PUSH2 0x3DCA JUMP JUMPDEST SWAP2 POP POP PUSH2 0x160 DUP4 ADD MLOAD PUSH2 0x3F52 PUSH2 0x160 DUP7 ADD DUP3 PUSH2 0x3E31 JUMP JUMPDEST POP DUP1 SWAP2 POP POP SWAP3 SWAP2 POP POP JUMP JUMPDEST PUSH0 PUSH1 0x20 DUP3 ADD SWAP1 POP DUP2 DUP2 SUB PUSH0 DUP4 ADD MSTORE PUSH2 0x3F75 DUP2 DUP5 PUSH2 0x3E40 JUMP JUMPDEST SWAP1 POP SWAP3 SWAP2 POP POP JUMP JUMPDEST PUSH0 PUSH0 REVERT JUMPDEST PUSH0 PUSH0 REVERT JUMPDEST PUSH32 0x4E487B7100000000000000000000000000000000000000000000000000000000 PUSH0 MSTORE PUSH1 0x41 PUSH1 0x4 MSTORE PUSH1 0x24 PUSH0 REVERT JUMPDEST PUSH2 0x3FBB DUP3 PUSH2 0x3CC3 JUMP JUMPDEST DUP2 ADD DUP2 DUP2 LT PUSH8 0xFFFFFFFFFFFFFFFF DUP3 GT OR ISZERO PUSH2 0x3FDA JUMPI PUSH2 0x3FD9 PUSH2 0x3F85 JUMP JUMPDEST JUMPDEST DUP1 PUSH1 0x40 MSTORE POP POP POP JUMP JUMPDEST PUSH0 PUSH2 0x3FEC PUSH2 0x3BDE JUMP JUMPDEST SWAP1 POP PUSH2 0x3FF8 DUP3 DUP3 PUSH2 0x3FB2 JUMP JUMPDEST SWAP2 SWAP1 POP JUMP JUMPDEST PUSH0 PUSH8 0xFFFFFFFFFFFFFFFF DUP3 GT ISZERO PUSH2 0x4017 JUMPI PUSH2 0x4016 PUSH2 0x3F85 JUMP JUMPDEST JUMPDEST PUSH2 0x4020 DUP3 PUSH2 0x3CC3 JUMP JUMPDEST SWAP1 POP PUSH1 0x20 DUP2 ADD SWAP1 POP SWAP2 SWAP1 POP JUMP JUMPDEST DUP3 DUP2 DUP4 CALLDATACOPY PUSH0 DUP4 DUP4 ADD MSTORE POP POP POP JUMP JUMPDEST PUSH0 PUSH2 0x404D PUSH2 0x4048 DUP5 PUSH2 0x3FFD JUMP JUMPDEST PUSH2 0x3FE3 JUMP JUMPDEST SWAP1 POP DUP3 DUP2 MSTORE PUSH1 0x20 DUP2 ADD DUP5 DUP5 DUP5 ADD GT ISZERO PUSH2 0x4069 JUMPI PUSH2 0x4068 PUSH2 0x3F81 JUMP JUMPDEST JUMPDEST PUSH2 0x4074 DUP5 DUP3 DUP6 PUSH2 0x402D JUMP JUMPDEST POP SWAP4 SWAP3 POP POP POP JUMP JUMPDEST PUSH0 DUP3 PUSH1 0x1F DUP4 ADD SLT PUSH2 0x4090 JUMPI PUSH2 0x408F PUSH2 0x3F7D JUMP JUMPDEST JUMPDEST DUP2 CALLDATALOAD PUSH2 0x40A0 DUP5 DUP3 PUSH1 0x20 DUP7 ADD PUSH2 0x403B JUMP JUMPDEST SWAP2 POP POP SWAP3 SWAP2 POP POP JUMP JUMPDEST PUSH1 0x5 DUP2 LT PUSH2 0x40B5 JUMPI PUSH0 PUSH0 REVERT JUMPDEST POP JUMP JUMPDEST PUSH0 DUP2 CALLDATALOAD SWAP1 POP PUSH2 0x40C6 DUP2 PUSH2 0x40A9 JUMP JUMPDEST SWAP3 SWAP2 POP POP JUMP JUMPDEST PUSH0 DUP2 SWAP1 POP SWAP2 SWAP1 POP JUMP JUMPDEST PUSH2 0x40DE DUP2 PUSH2 0x40CC JUMP JUMPDEST DUP2 EQ PUSH2 0x40E8 JUMPI PUSH0 PUSH0 REVERT JUMPDEST POP JUMP JUMPDEST PUSH0 DUP2 CALLDATALOAD SWAP1 POP PUSH2 0x40F9 DUP2 PUSH2 0x40D5 JUMP JUMPDEST SWAP3 SWAP2 POP POP JUMP JUMPDEST PUSH0 PUSH0 PUSH0 PUSH0 PUSH0 PUSH1 0xA0 DUP7 DUP9 SUB SLT ISZERO PUSH2 0x4118 JUMPI PUSH2 0x4117 PUSH2 0x3BE7 JUMP JUMPDEST JUMPDEST PUSH0 PUSH2 0x4125 DUP9 DUP3 DUP10 ADD PUSH2 0x3C0E JUMP JUMPDEST SWAP6 POP POP PUSH1 0x20 DUP7 ADD CALLDATALOAD PUSH8 0xFFFFFFFFFFFFFFFF DUP2 GT ISZERO PUSH2 0x4146 JUMPI PUSH2 0x4145 PUSH2 0x3BEB JUMP JUMPDEST JUMPDEST PUSH2 0x4152 DUP9 DUP3 DUP10 ADD PUSH2 0x407C JUMP JUMPDEST SWAP5 POP POP PUSH1 0x40 PUSH2 0x4163 DUP9 DUP3 DUP10 ADD PUSH2 0x40B8 JUMP JUMPDEST SWAP4 POP POP PUSH1 0x60 DUP7 ADD CALLDATALOAD PUSH8 0xFFFFFFFFFFFFFFFF DUP2 GT ISZERO PUSH2 0x4184 JUMPI PUSH2 0x4183 PUSH2 0x3BEB JUMP JUMPDEST JUMPDEST PUSH2 0x4190 DUP9 DUP3 DUP10 ADD PUSH2 0x407C JUMP JUMPDEST SWAP3 POP POP PUSH1 0x80 PUSH2 0x41A1 DUP9 DUP3 DUP10 ADD PUSH2 0x40EB JUMP JUMPDEST SWAP2 POP POP SWAP3 SWAP6 POP SWAP3 SWAP6 SWAP1 SWAP4 POP JUMP JUMPDEST PUSH2 0x41B7 DUP2 PUSH2 0x3BEF JUMP JUMPDEST DUP3 MSTORE POP POP JUMP JUMPDEST PUSH0 PUSH1 0x20 DUP3 ADD SWAP1 POP PUSH2 0x41D0 PUSH0 DUP4 ADD DUP5 PUSH2 0x41AE JUMP JUMPDEST SWAP3 SWAP2 POP POP JUMP JUMPDEST PUSH2 0x41DF DUP2 PUSH2 0x3C7B JUMP JUMPDEST DUP2 EQ PUSH2 0x41E9 JUMPI PUSH0 PUSH0 REVERT JUMPDEST POP JUMP JUMPDEST PUSH0 DUP2 CALLDATALOAD SWAP1 POP PUSH2 0x41FA DUP2 PUSH2 0x41D6 JUMP JUMPDEST SWAP3 SWAP2 POP POP JUMP JUMPDEST PUSH0 PUSH1 0x20 DUP3 DUP5 SUB SLT ISZERO PUSH2 0x4215 JUMPI PUSH2 0x4214 PUSH2 0x3BE7 JUMP JUMPDEST JUMPDEST PUSH0 PUSH2 0x4222 DUP5 DUP3 DUP6 ADD PUSH2 0x41EC JUMP JUMPDEST SWAP2 POP POP SWAP3 SWAP2 POP POP JUMP JUMPDEST PUSH0 PUSH0 PUSH0 PUSH1 0x60 DUP5 DUP7 SUB SLT ISZERO PUSH2 0x4242 JUMPI PUSH2 0x4241 PUSH2 0x3BE7 JUMP JUMPDEST JUMPDEST PUSH0 PUSH2 0x424F DUP7 DUP3 DUP8 ADD PUSH2 0x3C0E JUMP JUMPDEST SWAP4 POP POP PUSH1 0x20 PUSH2 0x4260 DUP7 DUP3 DUP8 ADD PUSH2 0x3C0E JUMP JUMPDEST SWAP3 POP POP PUSH1 0x40 PUSH2 0x4271 DUP7 DUP3 DUP8 ADD PUSH2 0x3C0E JUMP JUMPDEST SWAP2 POP POP SWAP3 POP SWAP3 POP SWAP3 JUMP JUMPDEST PUSH0 DUP2 MLOAD SWAP1 POP SWAP2 SWAP1 POP JUMP JUMPDEST PUSH0 DUP3 DUP3 MSTORE PUSH1 0x20 DUP3 ADD SWAP1 POP SWAP3 SWAP2 POP POP JUMP JUMPDEST PUSH0 DUP2 SWAP1 POP PUSH1 0x20 DUP3 ADD SWAP1 POP SWAP2 SWAP1 POP JUMP JUMPDEST PUSH1 0x5 DUP2 LT PUSH2 0x42B5 JUMPI PUSH2 0x42B4 PUSH2 0x3D0B JUMP JUMPDEST JUMPDEST POP JUMP JUMPDEST PUSH0 DUP2 SWAP1 POP PUSH2 0x42C5 DUP3 PUSH2 0x42A4 JUMP JUMPDEST SWAP2 SWAP1 POP JUMP JUMPDEST PUSH0 PUSH2 0x42D4 DUP3 PUSH2 0x42B8 JUMP JUMPDEST SWAP1 POP SWAP2 SWAP1 POP JUMP JUMPDEST PUSH2 0x42E4 DUP2 PUSH2 0x42CA JUMP JUMPDEST DUP3 MSTORE POP POP JUMP JUMPDEST PUSH2 0x42F3 DUP2 PUSH2 0x40CC JUMP JUMPDEST DUP3 MSTORE POP POP JUMP JUMPDEST PUSH0 PUSH2 0x100 DUP4 ADD PUSH0 DUP4 ADD MLOAD PUSH2 0x430F PUSH0 DUP7 ADD DUP3 PUSH2 0x3C4D JUMP JUMPDEST POP PUSH1 0x20 DUP4 ADD MLOAD PUSH2 0x4322 PUSH1 0x20 DUP7 ADD DUP3 PUSH2 0x3C4D JUMP JUMPDEST POP PUSH1 0x40 DUP4 ADD MLOAD PUSH2 0x4335 PUSH1 0x40 DUP7 ADD DUP3 PUSH2 0x3C8C JUMP JUMPDEST POP PUSH1 0x60 DUP4 ADD MLOAD DUP5 DUP3 SUB PUSH1 0x60 DUP7 ADD MSTORE PUSH2 0x434D DUP3 DUP3 PUSH2 0x3CD3 JUMP JUMPDEST SWAP2 POP POP PUSH1 0x80 DUP4 ADD MLOAD PUSH2 0x4362 PUSH1 0x80 DUP7 ADD DUP3 PUSH2 0x42DB JUMP JUMPDEST POP PUSH1 0xA0 DUP4 ADD MLOAD PUSH2 0x4375 PUSH1 0xA0 DUP7 ADD DUP3 PUSH2 0x3C4D JUMP JUMPDEST POP PUSH1 0xC0 DUP4 ADD MLOAD DUP5 DUP3 SUB PUSH1 0xC0 DUP7 ADD MSTORE PUSH2 0x438D DUP3 DUP3 PUSH2 0x3CD3 JUMP JUMPDEST SWAP2 POP POP PUSH1 0xE0 DUP4 ADD MLOAD PUSH2 0x43A2 PUSH1 0xE0 DUP7 ADD DUP3 PUSH2 0x42EA JUMP JUMPDEST POP DUP1 SWAP2 POP POP SWAP3 SWAP2 POP POP JUMP JUMPDEST PUSH0 PUSH2 0x43B8 DUP4 DUP4 PUSH2 0x42F9 JUMP JUMPDEST SWAP1 POP SWAP3 SWAP2 POP POP JUMP JUMPDEST PUSH0 PUSH1 0x20 DUP3 ADD SWAP1 POP SWAP2 SWAP1 POP JUMP JUMPDEST PUSH0 PUSH2 0x43D6 DUP3 PUSH2 0x427B JUMP JUMPDEST PUSH2 0x43E0 DUP2 DUP6 PUSH2 0x4285 JUMP JUMPDEST SWAP4 POP DUP4 PUSH1 0x20 DUP3 MUL DUP6 ADD PUSH2 0x43F2 DUP6 PUSH2 0x4295 JUMP JUMPDEST DUP1 PUSH0 JUMPDEST DUP6 DUP2 LT ISZERO PUSH2 0x442D JUMPI DUP5 DUP5 SUB DUP10 MSTORE DUP2 MLOAD PUSH2 0x440E DUP6 DUP3 PUSH2 0x43AD JUMP JUMPDEST SWAP5 POP PUSH2 0x4419 DUP4 PUSH2 0x43C0 JUMP JUMPDEST SWAP3 POP PUSH1 0x20 DUP11 ADD SWAP10 POP POP PUSH1 0x1 DUP2 ADD SWAP1 POP PUSH2 0x43F5 JUMP JUMPDEST POP DUP3 SWAP8 POP DUP8 SWAP6 POP POP POP POP POP POP SWAP3 SWAP2 POP POP JUMP JUMPDEST PUSH0 PUSH1 0x20 DUP3 ADD SWAP1 POP DUP2 DUP2 SUB PUSH0 DUP4 ADD MSTORE PUSH2 0x4457 DUP2 DUP5 PUSH2 0x43CC JUMP JUMPDEST SWAP1 POP SWAP3 SWAP2 POP POP JUMP JUMPDEST PUSH0 PUSH2 0x100 DUP4 ADD PUSH0 DUP4 ADD MLOAD PUSH2 0x4475 PUSH0 DUP7 ADD DUP3 PUSH2 0x3C4D JUMP JUMPDEST POP PUSH1 0x20 DUP4 ADD MLOAD PUSH2 0x4488 PUSH1 0x20 DUP7 ADD DUP3 PUSH2 0x3C4D JUMP JUMPDEST POP PUSH1 0x40 DUP4 ADD MLOAD PUSH2 0x449B PUSH1 0x40 DUP7 ADD DUP3 PUSH2 0x3C8C JUMP JUMPDEST POP PUSH1 0x60 DUP4 ADD MLOAD DUP5 DUP3 SUB PUSH1 0x60 DUP7 ADD MSTORE PUSH2 0x44B3 DUP3 DUP3 PUSH2 0x3CD3 JUMP JUMPDEST SWAP2 POP POP PUSH1 0x80 DUP4 ADD MLOAD PUSH2 0x44C8 PUSH1 0x80 DUP7 ADD DUP3 PUSH2 0x42DB JUMP JUMPDEST POP PUSH1 0xA0 DUP4 ADD MLOAD PUSH2 0x44DB PUSH1 0xA0 DUP7 ADD DUP3 PUSH2 0x3C4D JUMP JUMPDEST POP PUSH1 0xC0 DUP4 ADD MLOAD DUP5 DUP3 SUB PUSH1 0xC0 DUP7 ADD MSTORE PUSH2 0x44F3 DUP3 DUP3 PUSH2 0x3CD3 JUMP JUMPDEST SWAP2 POP POP PUSH1 0xE0 DUP4 ADD MLOAD PUSH2 0x4508 PUSH1 0xE0 DUP7 ADD DUP3 PUSH2 0x42EA JUMP JUMPDEST POP DUP1 SWAP2 POP POP SWAP3 SWAP2 POP POP JUMP JUMPDEST PUSH0 PUSH1 0x20 DUP3 ADD SWAP1 POP DUP2 DUP2 SUB PUSH0 DUP4 ADD MSTORE PUSH2 0x452B DUP2 DUP5 PUSH2 0x445F JUMP JUMPDEST SWAP1 POP SWAP3 SWAP2 POP POP JUMP JUMPDEST PUSH2 0x453C DUP2 PUSH2 0x3C7B JUMP JUMPDEST DUP3 MSTORE POP POP JUMP JUMPDEST PUSH0 PUSH1 0x20 DUP3 ADD SWAP1 POP PUSH2 0x4555 PUSH0 DUP4 ADD DUP5 PUSH2 0x4533 JUMP JUMPDEST SWAP3 SWAP2 POP POP JUMP JUMPDEST PUSH2 0x4564 DUP2 PUSH2 0x40CC JUMP JUMPDEST DUP3 MSTORE POP POP JUMP JUMPDEST PUSH0 PUSH1 0x20 DUP3 ADD SWAP1 POP PUSH2 0x457D PUSH0 DUP4 ADD DUP5 PUSH2 0x455B JUMP JUMPDEST SWAP3 SWAP2 POP POP JUMP JUMPDEST PUSH1 0x6 DUP2 LT PUSH2 0x4594 JUMPI PUSH2 0x4593 PUSH2 0x3D0B JUMP JUMPDEST JUMPDEST POP JUMP JUMPDEST PUSH0 DUP2 SWAP1 POP PUSH2 0x45A4 DUP3 PUSH2 0x4583 JUMP JUMPDEST SWAP2 SWAP1 POP JUMP JUMPDEST PUSH0 PUSH2 0x45B3 DUP3 PUSH2 0x4597 JUMP JUMPDEST SWAP1 POP SWAP2 SWAP1 POP JUMP JUMPDEST PUSH2 0x45C3 DUP2 PUSH2 0x45A9 JUMP JUMPDEST DUP3 MSTORE POP POP JUMP JUMPDEST PUSH0 PUSH1 0xA0 DUP4 ADD PUSH0 DUP4 ADD MLOAD PUSH2 0x45DE PUSH0 DUP7 ADD DUP3 PUSH2 0x3C8C JUMP JUMPDEST POP PUSH1 0x20 DUP4 ADD MLOAD DUP5 DUP3 SUB PUSH1 0x20 DUP7 ADD MSTORE PUSH2 0x45F6 DUP3 DUP3 PUSH2 0x3CD3 JUMP JUMPDEST SWAP2 POP POP PUSH1 0x40 DUP4 ADD MLOAD PUSH2 0x460B PUSH1 0x40 DUP7 ADD DUP3 PUSH2 0x45BA JUMP JUMPDEST POP PUSH1 0x60 DUP4 ADD MLOAD DUP5 DUP3 SUB PUSH1 0x60 DUP7 ADD MSTORE PUSH2 0x4623 DUP3 DUP3 PUSH2 0x3CD3 JUMP JUMPDEST SWAP2 POP POP PUSH1 0x80 DUP4 ADD MLOAD PUSH2 0x4638 PUSH1 0x80 DUP7 ADD DUP3 PUSH2 0x3E31 JUMP JUMPDEST POP DUP1 SWAP2 POP POP SWAP3 SWAP2 POP POP JUMP JUMPDEST PUSH0 PUSH1 0x20 DUP3 ADD SWAP1 POP DUP2 DUP2 SUB PUSH0 DUP4 ADD MSTORE PUSH2 0x465B DUP2 DUP5 PUSH2 0x45C9 JUMP JUMPDEST SWAP1 POP SWAP3 SWAP2 POP POP JUMP JUMPDEST PUSH2 0x466C DUP2 PUSH2 0x3E26 JUMP JUMPDEST DUP2 EQ PUSH2 0x4676 JUMPI PUSH0 PUSH0 REVERT JUMPDEST POP JUMP JUMPDEST PUSH0 DUP2 CALLDATALOAD SWAP1 POP PUSH2 0x4687 DUP2 PUSH2 0x4663 JUMP JUMPDEST SWAP3 SWAP2 POP POP JUMP JUMPDEST PUSH0 PUSH0 PUSH0 PUSH0 PUSH0 PUSH1 0xA0 DUP7 DUP9 SUB SLT ISZERO PUSH2 0x46A6 JUMPI PUSH2 0x46A5 PUSH2 0x3BE7 JUMP JUMPDEST JUMPDEST PUSH0 PUSH2 0x46B3 DUP9 DUP3 DUP10 ADD PUSH2 0x41EC JUMP JUMPDEST SWAP6 POP POP PUSH1 0x20 DUP7 ADD CALLDATALOAD PUSH8 0xFFFFFFFFFFFFFFFF DUP2 GT ISZERO PUSH2 0x46D4 JUMPI PUSH2 0x46D3 PUSH2 0x3BEB JUMP JUMPDEST JUMPDEST PUSH2 0x46E0 DUP9 DUP3 DUP10 ADD PUSH2 0x407C JUMP JUMPDEST SWAP5 POP POP PUSH1 0x40 DUP7 ADD CALLDATALOAD PUSH8 0xFFFFFFFFFFFFFFFF DUP2 GT ISZERO PUSH2 0x4701 JUMPI PUSH2 0x4700 PUSH2 0x3BEB JUMP JUMPDEST JUMPDEST PUSH2 0x470D DUP9 DUP3 DUP10 ADD PUSH2 0x407C JUMP JUMPDEST SWAP4 POP POP PUSH1 0x60 DUP7 ADD CALLDATALOAD PUSH8 0xFFFFFFFFFFFFFFFF DUP2 GT ISZERO PUSH2 0x472E JUMPI PUSH2 0x472D PUSH2 0x3BEB JUMP JUMPDEST JUMPDEST PUSH2 0x473A DUP9 DUP3 DUP10 ADD PUSH2 0x407C JUMP JUMPDEST SWAP3 POP POP PUSH1 0x80 PUSH2 0x474B DUP9 DUP3 DUP10 ADD PUSH2 0x4679 JUMP JUMPDEST SWAP2 POP POP SWAP3 SWAP6 POP SWAP3 SWAP6 SWAP1 SWAP4 POP JUMP JUMPDEST PUSH0 DUP2 MLOAD SWAP1 POP SWAP2 SWAP1 POP JUMP JUMPDEST PUSH0 DUP3 DUP3 MSTORE PUSH1 0x20 DUP3 ADD SWAP1 POP SWAP3 SWAP2 POP POP JUMP JUMPDEST PUSH0 DUP2 SWAP1 POP PUSH1 0x20 DUP3 ADD SWAP1 POP SWAP2 SWAP1 POP JUMP JUMPDEST PUSH1 0x5 DUP2 LT PUSH2 0x4792 JUMPI PUSH2 0x4791 PUSH2 0x3D0B JUMP JUMPDEST JUMPDEST POP JUMP JUMPDEST PUSH0 DUP2 SWAP1 POP PUSH2 0x47A2 DUP3 PUSH2 0x4781 JUMP JUMPDEST SWAP2 SWAP1 POP JUMP JUMPDEST PUSH0 PUSH2 0x47B1 DUP3 PUSH2 0x4795 JUMP JUMPDEST SWAP1 POP SWAP2 SWAP1 POP JUMP JUMPDEST PUSH2 0x47C1 DUP2 PUSH2 0x47A7 JUMP JUMPDEST DUP3 MSTORE POP POP JUMP JUMPDEST PUSH0 PUSH1 0xE0 DUP4 ADD PUSH0 DUP4 ADD MLOAD PUSH2 0x47DC PUSH0 DUP7 ADD DUP3 PUSH2 0x3C4D JUMP JUMPDEST POP PUSH1 0x20 DUP4 ADD MLOAD PUSH2 0x47EF PUSH1 0x20 DUP7 ADD DUP3 PUSH2 0x3C4D JUMP JUMPDEST POP PUSH1 0x40 DUP4 ADD MLOAD PUSH2 0x4802 PUSH1 0x40 DUP7 ADD DUP3 PUSH2 0x47B8 JUMP JUMPDEST POP PUSH1 0x60 DUP4 ADD MLOAD PUSH2 0x4815 PUSH1 0x60 DUP7 ADD DUP3 PUSH2 0x3C8C JUMP JUMPDEST POP PUSH1 0x80 DUP4 ADD MLOAD DUP5 DUP3 SUB PUSH1 0x80 DUP7 ADD MSTORE PUSH2 0x482D DUP3 DUP3 PUSH2 0x3CD3 JUMP JUMPDEST SWAP2 POP POP PUSH1 0xA0 DUP4 ADD MLOAD PUSH2 0x4842 PUSH1 0xA0 DUP7 ADD DUP3 PUSH2 0x3C4D JUMP JUMPDEST POP PUSH1 0xC0 DUP4 ADD MLOAD PUSH2 0x4855 PUSH1 0xC0 DUP7 ADD DUP3 PUSH2 0x3E31 JUMP JUMPDEST POP DUP1 SWAP2 POP POP SWAP3 SWAP2 POP POP JUMP JUMPDEST PUSH0 PUSH2 0x486B DUP4 DUP4 PUSH2 0x47C7 JUMP JUMPDEST SWAP1 POP SWAP3 SWAP2 POP POP JUMP JUMPDEST PUSH0 PUSH1 0x20 DUP3 ADD SWAP1 POP SWAP2 SWAP1 POP JUMP JUMPDEST PUSH0 PUSH2 0x4889 DUP3 PUSH2 0x4758 JUMP JUMPDEST PUSH2 0x4893 DUP2 DUP6 PUSH2 0x4762 JUMP JUMPDEST SWAP4 POP DUP4 PUSH1 0x20 DUP3 MUL DUP6 ADD PUSH2 0x48A5 DUP6 PUSH2 0x4772 JUMP JUMPDEST DUP1 PUSH0 JUMPDEST DUP6 DUP2 LT ISZERO PUSH2 0x48E0 JUMPI DUP5 DUP5 SUB DUP10 MSTORE DUP2 MLOAD PUSH2 0x48C1 DUP6 DUP3 PUSH2 0x4860 JUMP JUMPDEST SWAP5 POP PUSH2 0x48CC DUP4 PUSH2 0x4873 JUMP JUMPDEST SWAP3 POP PUSH1 0x20 DUP11 ADD SWAP10 POP POP PUSH1 0x1 DUP2 ADD SWAP1 POP PUSH2 0x48A8 JUMP JUMPDEST POP DUP3 SWAP8 POP DUP8 SWAP6 POP POP POP POP POP POP SWAP3 SWAP2 POP POP JUMP JUMPDEST PUSH0 PUSH1 0x20 DUP3 ADD SWAP1 POP DUP2 DUP2 SUB PUSH0 DUP4 ADD MSTORE PUSH2 0x490A DUP2 DUP5 PUSH2 0x487F JUMP JUMPDEST SWAP1 POP SWAP3 SWAP2 POP POP JUMP JUMPDEST PUSH0 DUP3 DUP3 MSTORE PUSH1 0x20 DUP3 ADD SWAP1 POP SWAP3 SWAP2 POP POP JUMP JUMPDEST PUSH0 PUSH2 0x492C DUP3 PUSH2 0x3D7E JUMP JUMPDEST PUSH2 0x4936 DUP2 DUP6 PUSH2 0x4912 JUMP JUMPDEST SWAP4 POP PUSH2 0x4941 DUP4 PUSH2 0x3D98 JUMP JUMPDEST DUP1 PUSH0 JUMPDEST DUP4 DUP2 LT ISZERO PUSH2 0x4971 JUMPI DUP2 MLOAD PUSH2 0x4958 DUP9 DUP3 PUSH2 0x3DA7 JUMP JUMPDEST SWAP8 POP PUSH2 0x4963 DUP4 PUSH2 0x3DBE JUMP JUMPDEST SWAP3 POP POP PUSH1 0x1 DUP2 ADD SWAP1 POP PUSH2 0x4944 JUMP JUMPDEST POP DUP6 SWAP4 POP POP POP POP SWAP3 SWAP2 POP POP JUMP JUMPDEST PUSH0 PUSH1 0x20 DUP3 ADD SWAP1 POP DUP2 DUP2 SUB PUSH0 DUP4 ADD MSTORE PUSH2 0x4996 DUP2 DUP5 PUSH2 0x4922 JUMP JUMPDEST SWAP1 POP SWAP3 SWAP2 POP POP JUMP JUMPDEST PUSH1 0x7 DUP2 LT PUSH2 0x49AA JUMPI PUSH0 PUSH0 REVERT JUMPDEST POP JUMP JUMPDEST PUSH0 DUP2 CALLDATALOAD SWAP1 POP PUSH2 0x49BB DUP2 PUSH2 0x499E JUMP JUMPDEST SWAP3 SWAP2 POP POP JUMP JUMPDEST PUSH0 PUSH0 PUSH1 0x40 DUP4 DUP6 SUB SLT ISZERO PUSH2 0x49D7 JUMPI PUSH2 0x49D6 PUSH2 0x3BE7 JUMP JUMPDEST JUMPDEST PUSH0 PUSH2 0x49E4 DUP6 DUP3 DUP7 ADD PUSH2 0x3C0E JUMP JUMPDEST SWAP3 POP POP PUSH1 0x20 PUSH2 0x49F5 DUP6 DUP3 DUP7 ADD PUSH2 0x49AD JUMP JUMPDEST SWAP2 POP POP SWAP3 POP SWAP3 SWAP1 POP JUMP JUMPDEST PUSH2 0x4A08 DUP2 PUSH2 0x3E26 JUMP JUMPDEST DUP3 MSTORE POP POP JUMP JUMPDEST PUSH0 PUSH1 0x20 DUP3 ADD SWAP1 POP PUSH2 0x4A21 PUSH0 DUP4 ADD DUP5 PUSH2 0x49FF JUMP JUMPDEST SWAP3 SWAP2 POP POP JUMP JUMPDEST PUSH0 PUSH1 0xE0 DUP4 ADD PUSH0 DUP4 ADD MLOAD PUSH2 0x4A3C PUSH0 DUP7 ADD DUP3 PUSH2 0x3C4D JUMP JUMPDEST POP PUSH1 0x20 DUP4 ADD MLOAD PUSH2 0x4A4F PUSH1 0x20 DUP7 ADD DUP3 PUSH2 0x3C4D JUMP JUMPDEST POP PUSH1 0x40 DUP4 ADD MLOAD PUSH2 0x4A62 PUSH1 0x40 DUP7 ADD DUP3 PUSH2 0x47B8 JUMP JUMPDEST POP PUSH1 0x60 DUP4 ADD MLOAD PUSH2 0x4A75 PUSH1 0x60 DUP7 ADD DUP3 PUSH2 0x3C8C JUMP JUMPDEST POP PUSH1 0x80 DUP4 ADD MLOAD DUP5 DUP3 SUB PUSH1 0x80 DUP7 ADD MSTORE PUSH2 0x4A8D DUP3 DUP3 PUSH2 0x3CD3 JUMP JUMPDEST SWAP2 POP POP PUSH1 0xA0 DUP4 ADD MLOAD PUSH2 0x4AA2 PUSH1 0xA0 DUP7 ADD DUP3 PUSH2 0x3C4D JUMP JUMPDEST POP PUSH1 0xC0 DUP4 ADD MLOAD PUSH2 0x4AB5 PUSH1 0xC0 DUP7 ADD DUP3 PUSH2 0x3E31 JUMP JUMPDEST POP DUP1 SWAP2 POP POP SWAP3 SWAP2 POP POP JUMP JUMPDEST PUSH0 PUSH1 0x20 DUP3 ADD SWAP1 POP DUP2 DUP2 SUB PUSH0 DUP4 ADD MSTORE PUSH2 0x4AD8 DUP2 DUP5 PUSH2 0x4A27 JUMP JUMPDEST SWAP1 POP SWAP3 SWAP2 POP POP JUMP JUMPDEST PUSH1 0x6 DUP2 LT PUSH2 0x4AEC JUMPI PUSH0 PUSH0 REVERT JUMPDEST POP JUMP JUMPDEST PUSH0 DUP2 CALLDATALOAD SWAP1 POP PUSH2 0x4AFD DUP2 PUSH2 0x4AE0 JUMP JUMPDEST SWAP3 SWAP2 POP POP JUMP JUMPDEST PUSH0 PUSH0 PUSH0 PUSH0 PUSH1 0x80 DUP6 DUP8 SUB SLT ISZERO PUSH2 0x4B1B JUMPI PUSH2 0x4B1A PUSH2 0x3BE7 JUMP JUMPDEST JUMPDEST PUSH0 DUP6 ADD CALLDATALOAD PUSH8 0xFFFFFFFFFFFFFFFF DUP2 GT ISZERO PUSH2 0x4B38 JUMPI PUSH2 0x4B37 PUSH2 0x3BEB JUMP JUMPDEST JUMPDEST PUSH2 0x4B44 DUP8 DUP3 DUP9 ADD PUSH2 0x407C JUMP JUMPDEST SWAP5 POP POP PUSH1 0x20 PUSH2 0x4B55 DUP8 DUP3 DUP9 ADD PUSH2 0x4AEF JUMP JUMPDEST SWAP4 POP POP PUSH1 0x40 DUP6 ADD CALLDATALOAD PUSH8 0xFFFFFFFFFFFFFFFF DUP2 GT ISZERO PUSH2 0x4B76 JUMPI PUSH2 0x4B75 PUSH2 0x3BEB JUMP JUMPDEST JUMPDEST PUSH2 0x4B82 DUP8 DUP3 DUP9 ADD PUSH2 0x407C JUMP JUMPDEST SWAP3 POP POP PUSH1 0x60 PUSH2 0x4B93 DUP8 DUP3 DUP9 ADD PUSH2 0x41EC JUMP JUMPDEST SWAP2 POP POP SWAP3 SWAP6 SWAP2 SWAP5 POP SWAP3 POP JUMP JUMPDEST PUSH1 0x5 DUP2 LT PUSH2 0x4BAB JUMPI PUSH0 PUSH0 REVERT JUMPDEST POP JUMP JUMPDEST PUSH0 DUP2 CALLDATALOAD SWAP1 POP PUSH2 0x4BBC DUP2 PUSH2 0x4B9F JUMP JUMPDEST SWAP3 SWAP2 POP POP JUMP JUMPDEST PUSH0 PUSH0 PUSH0 PUSH1 0x60 DUP5 DUP7 SUB SLT ISZERO PUSH2 0x4BD9 JUMPI PUSH2 0x4BD8 PUSH2 0x3BE7 JUMP JUMPDEST JUMPDEST PUSH0 PUSH2 0x4BE6 DUP7 DUP3 DUP8 ADD PUSH2 0x3C0E JUMP JUMPDEST SWAP4 POP POP PUSH1 0x20 PUSH2 0x4BF7 DUP7 DUP3 DUP8 ADD PUSH2 0x4BAE JUMP JUMPDEST SWAP3 POP POP PUSH1 0x40 DUP5 ADD CALLDATALOAD PUSH8 0xFFFFFFFFFFFFFFFF DUP2 GT ISZERO PUSH2 0x4C18 JUMPI PUSH2 0x4C17 PUSH2 0x3BEB JUMP JUMPDEST JUMPDEST PUSH2 0x4C24 DUP7 DUP3 DUP8 ADD PUSH2 0x407C JUMP JUMPDEST SWAP2 POP POP SWAP3 POP SWAP3 POP SWAP3 JUMP JUMPDEST PUSH32 0x4E487B7100000000000000000000000000000000000000000000000000000000 PUSH0 MSTORE PUSH1 0x22 PUSH1 0x4 MSTORE PUSH1 0x24 PUSH0 REVERT JUMPDEST PUSH0 PUSH1 0x2 DUP3 DIV SWAP1 POP PUSH1 0x1 DUP3 AND DUP1 PUSH2 0x4C72 JUMPI PUSH1 0x7F DUP3 AND SWAP2 POP JUMPDEST PUSH1 0x20 DUP3 LT DUP2 SUB PUSH2 0x4C85 JUMPI PUSH2 0x4C84 PUSH2 0x4C2E JUMP JUMPDEST JUMPDEST POP SWAP2 SWAP1 POP JUMP JUMPDEST PUSH32 0x4E487B7100000000000000000000000000000000000000000000000000000000 PUSH0 MSTORE PUSH1 0x11 PUSH1 0x4 MSTORE PUSH1 0x24 PUSH0 REVERT JUMPDEST PUSH0 PUSH2 0x4CC2 DUP3 PUSH2 0x3BEF JUMP JUMPDEST SWAP2 POP PUSH32 0xFFFFFFFFFFFFFFFFFFFFFFFFFFFFFFFFFFFFFFFFFFFFFFFFFFFFFFFFFFFFFFFF DUP3 SUB PUSH2 0x4CF4 JUMPI PUSH2 0x4CF3 PUSH2 0x4C8B JUMP JUMPDEST JUMPDEST PUSH1 0x1 DUP3 ADD SWAP1 POP SWAP2 SWAP1 POP JUMP JUMPDEST PUSH0 DUP2 SWAP1 POP DUP2 PUSH0 MSTORE PUSH1 0x20 PUSH0 KECCAK256 SWAP1 POP SWAP2 SWAP1 POP JUMP JUMPDEST PUSH0 PUSH1 0x20 PUSH1 0x1F DUP4 ADD DIV SWAP1 POP SWAP2 SWAP1 POP JUMP JUMPDEST PUSH0 DUP3 DUP3 SHL SWAP1 POP SWAP3 SWAP2 POP POP JUMP JUMPDEST PUSH0 PUSH1 0x8 DUP4 MUL PUSH2 0x4D5B PUSH32 0xFFFFFFFFFFFFFFFFFFFFFFFFFFFFFFFFFFFFFFFFFFFFFFFFFFFFFFFFFFFFFFFF DUP3 PUSH2 0x4D20 JUMP JUMPDEST PUSH2 0x4D65 DUP7 DUP4 PUSH2 0x4D20 JUMP JUMPDEST SWAP6 POP DUP1 NOT DUP5 AND SWAP4 POP DUP1 DUP7 AND DUP5 OR SWAP3 POP POP POP SWAP4 SWAP3 POP POP POP JUMP JUMPDEST PUSH0 DUP2 SWAP1 POP SWAP2 SWAP1 POP JUMP JUMPDEST PUSH0 PUSH2 0x4DA0 PUSH2 0x4D9B PUSH2 0x4D96 DUP5 PUSH2 0x3BEF JUMP JUMPDEST PUSH2 0x4D7D JUMP JUMPDEST PUSH2 0x3BEF JUMP JUMPDEST SWAP1 POP SWAP2 SWAP1 POP JUMP JUMPDEST PUSH0 DUP2 SWAP1 POP SWAP2 SWAP1 POP JUMP JUMPDEST PUSH2 0x4DB9 DUP4 PUSH2 0x4D86 JUMP JUMPDEST PUSH2 0x4DCD PUSH2 0x4DC5 DUP3 PUSH2 0x4DA7 JUMP JUMPDEST DUP5 DUP5 SLOAD PUSH2 0x4D2C JUMP JUMPDEST DUP3 SSTORE POP POP POP POP JUMP JUMPDEST PUSH0 PUSH0 SWAP1 POP SWAP1 JUMP JUMPDEST PUSH2 0x4DE4 PUSH2 0x4DD5 JUMP JUMPDEST PUSH2 0x4DEF DUP2 DUP5 DUP5 PUSH2 0x4DB0 JUMP JUMPDEST POP POP POP JUMP JUMPDEST JUMPDEST DUP2 DUP2 LT ISZERO PUSH2 0x4E12 JUMPI PUSH2 0x4E07 PUSH0 DUP3 PUSH2 0x4DDC JUMP JUMPDEST PUSH1 0x1 DUP2 ADD SWAP1 POP PUSH2 0x4DF5 JUMP JUMPDEST POP POP JUMP JUMPDEST PUSH1 0x1F DUP3 GT ISZERO PUSH2 0x4E57 JUMPI PUSH2 0x4E28 DUP2 PUSH2 0x4CFF JUMP JUMPDEST PUSH2 0x4E31 DUP5 PUSH2 0x4D11 JUMP JUMPDEST DUP2 ADD PUSH1 0x20 DUP6 LT ISZERO PUSH2 0x4E40 JUMPI DUP2 SWAP1 POP JUMPDEST PUSH2 0x4E54 PUSH2 0x4E4C DUP6 PUSH2 0x4D11 JUMP JUMPDEST DUP4 ADD DUP3 PUSH2 0x4DF4 JUMP JUMPDEST POP POP JUMPDEST POP POP POP JUMP JUMPDEST PUSH0 DUP3 DUP3 SHR SWAP1 POP SWAP3 SWAP2 POP POP JUMP JUMPDEST PUSH0 PUSH2 0x4E77 PUSH0 NOT DUP5 PUSH1 0x8 MUL PUSH2 0x4E5C JUMP JUMPDEST NOT DUP1 DUP4 AND SWAP2 POP POP SWAP3 SWAP2 POP POP JUMP JUMPDEST PUSH0 PUSH2 0x4E8F DUP4 DUP4 PUSH2 0x4E68 JUMP JUMPDEST SWAP2 POP DUP3 PUSH1 0x2 MUL DUP3 OR SWAP1 POP SWAP3 SWAP2 POP POP JUMP JUMPDEST PUSH2 0x4EA8 DUP3 PUSH2 0x3C9B JUMP JUMPDEST PUSH8 0xFFFFFFFFFFFFFFFF DUP2 GT ISZERO PUSH2 0x4EC1 JUMPI PUSH2 0x4EC0 PUSH2 0x3F85 JUMP JUMPDEST JUMPDEST PUSH2 0x4ECB DUP3 SLOAD PUSH2 0x4C5B JUMP JUMPDEST PUSH2 0x4ED6 DUP3 DUP3 DUP6 PUSH2 0x4E16 JUMP JUMPDEST PUSH0 PUSH1 0x20 SWAP1 POP PUSH1 0x1F DUP4 GT PUSH1 0x1 DUP2 EQ PUSH2 0x4F07 JUMPI PUSH0 DUP5 ISZERO PUSH2 0x4EF5 JUMPI DUP3 DUP8 ADD MLOAD SWAP1 POP JUMPDEST PUSH2 0x4EFF DUP6 DUP3 PUSH2 0x4E84 JUMP JUMPDEST DUP7 SSTORE POP PUSH2 0x4F66 JUMP JUMPDEST PUSH1 0x1F NOT DUP5 AND PUSH2 0x4F15 DUP7 PUSH2 0x4CFF JUMP JUMPDEST PUSH0 JUMPDEST DUP3 DUP2 LT ISZERO PUSH2 0x4F3C JUMPI DUP5 DUP10 ADD MLOAD DUP3 SSTORE PUSH1 0x1 DUP3 ADD SWAP2 POP PUSH1 0x20 DUP6 ADD SWAP5 POP PUSH1 0x20 DUP2 ADD SWAP1 POP PUSH2 0x4F17 JUMP JUMPDEST DUP7 DUP4 LT ISZERO PUSH2 0x4F59 JUMPI DUP5 DUP10 ADD MLOAD PUSH2 0x4F55 PUSH1 0x1F DUP10 AND DUP3 PUSH2 0x4E68 JUMP JUMPDEST DUP4 SSTORE POP JUMPDEST PUSH1 0x1 PUSH1 0x2 DUP9 MUL ADD DUP9 SSTORE POP POP POP JUMPDEST POP POP POP POP POP POP JUMP JUMPDEST PUSH2 0x4F77 DUP2 PUSH2 0x42CA JUMP JUMPDEST DUP3 MSTORE POP POP JUMP JUMPDEST PUSH0 PUSH1 0x40 DUP3 ADD SWAP1 POP PUSH2 0x4F90 PUSH0 DUP4 ADD DUP6 PUSH2 0x4F6E JUMP JUMPDEST PUSH2 0x4F9D PUSH1 0x20 DUP4 ADD DUP5 PUSH2 0x4533 JUMP JUMPDEST SWAP4 SWAP3 POP POP POP JUMP JUMPDEST PUSH0 PUSH2 0x4FAE DUP3 PUSH2 0x3BEF JUMP JUMPDEST SWAP2 POP PUSH2 0x4FB9 DUP4 PUSH2 0x3BEF JUMP JUMPDEST SWAP3 POP DUP3 DUP3 ADD SWAP1 POP DUP1 DUP3 GT ISZERO PUSH2 0x4FD1 JUMPI PUSH2 0x4FD0 PUSH2 0x4C8B JUMP JUMPDEST JUMPDEST SWAP3 SWAP2 POP POP JUMP JUMPDEST PUSH0 PUSH2 0x4FE1 DUP3 PUSH2 0x3BEF JUMP JUMPDEST SWAP2 POP PUSH2 0x4FEC DUP4 PUSH2 0x3BEF JUMP JUMPDEST SWAP3 POP DUP3 DUP3 SUB SWAP1 POP DUP2 DUP2 GT ISZERO PUSH2 0x5004 JUMPI PUSH2 0x5003 PUSH2 0x4C8B JUMP JUMPDEST JUMPDEST SWAP3 SWAP2 POP POP JUMP JUMPDEST PUSH32 0x4E487B7100000000000000000000000000000000000000000000000000000000 PUSH0 MSTORE PUSH1 0x32 PUSH1 0x4 MSTORE PUSH1 0x24 PUSH0 REVERT JUMPDEST PUSH0 DUP3 DUP3 MSTORE PUSH1 0x20 DUP3 ADD SWAP1 POP SWAP3 SWAP2 POP POP JUMP JUMPDEST PUSH0 PUSH2 0x5051 DUP3 PUSH2 0x3C9B JUMP JUMPDEST PUSH2 0x505B DUP2 DUP6 PUSH2 0x5037 JUMP JUMPDEST SWAP4 POP PUSH2 0x506B DUP2 DUP6 PUSH1 0x20 DUP7 ADD PUSH2 0x3CB5 JUMP JUMPDEST PUSH2 0x5074 DUP2 PUSH2 0x3CC3 JUMP JUMPDEST DUP5 ADD SWAP2 POP POP SWAP3 SWAP2 POP POP JUMP JUMPDEST PUSH0 PUSH1 0x20 DUP3 ADD SWAP1 POP DUP2 DUP2 SUB PUSH0 DUP4 ADD MSTORE PUSH2 0x5097 DUP2 DUP5 PUSH2 0x5047 JUMP JUMPDEST SWAP1 POP SWAP3 SWAP2 POP POP JUMP JUMPDEST PUSH2 0x50A8 DUP2 PUSH2 0x3D5E JUMP JUMPDEST DUP3 MSTORE POP POP JUMP JUMPDEST PUSH0 PUSH1 0x20 DUP3 ADD SWAP1 POP PUSH2 0x50C1 PUSH0 DUP4 ADD DUP5 PUSH2 0x509F JUMP JUMPDEST SWAP3 SWAP2 POP POP JUMP JUMPDEST PUSH2 0x50D0 DUP2 PUSH2 0x45A9 JUMP JUMPDEST DUP3 MSTORE POP POP JUMP JUMPDEST PUSH0 PUSH1 0x40 DUP3 ADD SWAP1 POP DUP2 DUP2 SUB PUSH0 DUP4 ADD MSTORE PUSH2 0x50EE DUP2 DUP6 PUSH2 0x5047 JUMP JUMPDEST SWAP1 POP PUSH2 0x50FD PUSH1 0x20 DUP4 ADD DUP5 PUSH2 0x50C7 JUMP JUMPDEST SWAP4 SWAP3 POP POP POP JUMP JUMPDEST PUSH2 0x510D DUP2 PUSH2 0x47A7 JUMP JUMPDEST DUP3 MSTORE POP POP JUMP JUMPDEST PUSH0 PUSH1 0x20 DUP3 ADD SWAP1 POP PUSH2 0x5126 PUSH0 DUP4 ADD DUP5 PUSH2 0x5104 JUMP JUMPDEST SWAP3 SWAP2 POP POP JUMP INVALID LOG2 PUSH5 0x6970667358 0x22 SLT KECCAK256 CALLDATASIZE PREVRANDAO JUMP 0x29 DIV EXTCODEHASH SELFDESTRUCT DUP4 LOG4 CREATE2 RETURN 0xC4 0x4B 0x2F SHL DUP5 0xC9 REVERT BYTE 0x4E DUP16 0xB5 0xA9 0x4B BLOBHASH PUSH3 0x7AFCA9 XOR LT 0xED PUSH5 0x736F6C6343 STOP ADDMOD 0x1E STOP CALLER "
		},
		"gasEstimates": {
			"creation": {
				"codeDepositCost": "4166800",
				"executionCost": "95373",
				"totalCost": "4262173"
			},
			"external": {
				"COLD_CHAIN_TEMP_MAX()": "415",
				"COLD_CHAIN_TEMP_MIN()": "392",
				"MAX_CHECKPOINTS_PER_SHIPMENT()": "458",
				"MAX_INCIDENTS_PER_SHIPMENT()": "415",
				"TEMPERATURE_NOT_SET()": "393",
				"acceptAdmin()": "52092",
				"admin()": "2595",
				"cancelShipment(uint256)": "infinite",
				"confirmDelivery(uint256)": "infinite",
				"createShipment(address,string,string,string,bool)": "infinite",
				"deactivateActor(address)": "30949",
				"getActor(address)": "infinite",
				"getActorShipments(address)": "infinite",
				"getAllShipmentCheckpoints(uint256)": "infinite",
				"getAllShipmentIncidents(uint256)": "infinite",
				"getCheckpoint(uint256)": "infinite",
				"getIncident(uint256)": "infinite",
				"getShipment(uint256)": "infinite",
				"getShipmentCheckpoints(uint256,uint256,uint256)": "infinite",
				"getShipmentIncidents(uint256,uint256,uint256)": "infinite",
				"isIncidentResolved(uint256)": "2905",
				"nextCheckpointId()": "2544",
				"nextIncidentId()": "2545",
				"nextShipmentId()": "2476",
				"pendingAdmin()": "2554",
				"proposeAdmin(address)": "28148",
				"reactivateActor(address)": "30952",
				"recordCheckpoint(uint256,string,uint8,string,int256)": "infinite",
				"registerActor(string,uint8,string,address)": "infinite",
				"reportIncident(uint256,uint8,string)": "infinite",
				"resolveIncident(uint256)": "infinite",
				"transferAdmin(address)": "52434",
				"updateShipmentStatus(uint256,uint8)": "infinite",
				"verifyTemperatureCompliance(uint256)": "infinite"
			},
			"internal": {
				"_addActorShipment(address,uint256)": "73273",
				"_createIncident(uint256,enum LogisticsTracking.IncidentType,string memory)": "infinite",
				"_onlyActiveActor()": "infinite",
				"_onlyAdmin()": "infinite",
				"_shipmentExists(uint256)": "infinite"
			}
		},
		"methodIdentifiers": {
			"COLD_CHAIN_TEMP_MAX()": "7b8a20e2",
			"COLD_CHAIN_TEMP_MIN()": "a54a6ee4",
			"MAX_CHECKPOINTS_PER_SHIPMENT()": "63f86584",
			"MAX_INCIDENTS_PER_SHIPMENT()": "305207b0",
			"TEMPERATURE_NOT_SET()": "2bf210dc",
			"acceptAdmin()": "0e18b681",
			"admin()": "f851a440",
			"cancelShipment(uint256)": "7faa7bc7",
			"confirmDelivery(uint256)": "fd84cb97",
			"createShipment(address,string,string,string,bool)": "475b6f98",
			"deactivateActor(address)": "fc436695",
			"getActor(address)": "4138d167",
			"getActorShipments(address)": "72f2f93a",
			"getAllShipmentCheckpoints(uint256)": "8d70861e",
			"getAllShipmentIncidents(uint256)": "9b4adf4e",
			"getCheckpoint(uint256)": "20fc4881",
			"getIncident(uint256)": "9578615e",
			"getShipment(uint256)": "092b3740",
			"getShipmentCheckpoints(uint256,uint256,uint256)": "17082ae0",
			"getShipmentIncidents(uint256,uint256,uint256)": "48016224",
			"isIncidentResolved(uint256)": "925d3478",
			"nextCheckpointId()": "229ec452",
			"nextIncidentId()": "0fd19668",
			"nextShipmentId()": "b9a3a68c",
			"pendingAdmin()": "26782247",
			"proposeAdmin(address)": "147bf6c4",
			"reactivateActor(address)": "58dcf85e",
			"recordCheckpoint(uint256,string,uint8,string,int256)": "0a7a0b69",
			"registerActor(string,uint8,string,address)": "b7fa3c2a",
			"reportIncident(uint256,uint8,string)": "e570c367",
			"resolveIncident(uint256)": "4ffe6ae2",
			"transferAdmin(address)": "75829def",
			"updateShipmentStatus(uint256,uint8)": "7defa920",
			"verifyTemperatureCompliance(uint256)": "af56a428"
		}
	},
	"abi": [
		{
			"inputs": [],
			"stateMutability": "nonpayable",
			"type": "constructor"
		},
		{
			"inputs": [],
			"name": "ActorDoesNotExist",
			"type": "error"
		},
		{
			"inputs": [],
			"name": "ActorInactive",
			"type": "error"
		},
		{
			"inputs": [],
			"name": "ActorNotAssignedToShipment",
			"type": "error"
		},
		{
			"inputs": [],
			"name": "AlreadyClosedShipment",
			"type": "error"
		},
		{
			"inputs": [],
			"name": "AlreadyDelivered",
			"type": "error"
		},
		{
			"inputs": [],
			"name": "AlreadyRegisteredAndActive",
			"type": "error"
		},
		{
			"inputs": [],
			"name": "CannotCancelAfterTransit",
			"type": "error"
		},
		{
			"inputs": [],
			"name": "CannotSetDeliveredDirectly",
			"type": "error"
		},
		{
			"inputs": [
				{
					"internalType": "uint256",
					"name": "id",
					"type": "uint256"
				}
			],
			"name": "CheckpointNotFound",
			"type": "error"
		},
		{
			"inputs": [
				{
					"internalType": "uint256",
					"name": "id",
					"type": "uint256"
				}
			],
			"name": "IncidentNotFound",
			"type": "error"
		},
		{
			"inputs": [],
			"name": "InvalidAddress",
			"type": "error"
		},
		{
			"inputs": [],
			"name": "InvalidRole",
			"type": "error"
		},
		{
			"inputs": [],
			"name": "MaxCheckpointsReached",
			"type": "error"
		},
		{
			"inputs": [],
			"name": "MaxIncidentsReached",
			"type": "error"
		},
		{
			"inputs": [],
			"name": "NotPendingAdmin",
			"type": "error"
		},
		{
			"inputs": [],
			"name": "OnlyAdmin",
			"type": "error"
		},
		{
			"inputs": [],
			"name": "OnlyCarrierOrHub",
			"type": "error"
		},
		{
			"inputs": [],
			"name": "OnlyRecipientCanConfirm",
			"type": "error"
		},
		{
			"inputs": [],
			"name": "OnlySenderCanCancel",
			"type": "error"
		},
		{
			"inputs": [],
			"name": "OnlySendersCanCreate",
			"type": "error"
		},
		{
			"inputs": [
				{
					"internalType": "uint256",
					"name": "id",
					"type": "uint256"
				}
			],
			"name": "ShipmentNotFound",
			"type": "error"
		},
		{
			"anonymous": false,
			"inputs": [
				{
					"indexed": true,
					"internalType": "address",
					"name": "actorAddress",
					"type": "address"
				},
				{
					"indexed": false,
					"internalType": "string",
					"name": "name",
					"type": "string"
				},
				{
					"indexed": false,
					"internalType": "enum LogisticsTracking.ActorRole",
					"name": "role",
					"type": "uint8"
				}
			],
			"name": "ActorRegistered",
			"type": "event"
		},
		{
			"anonymous": false,
			"inputs": [
				{
					"indexed": true,
					"internalType": "address",
					"name": "actorAddress",
					"type": "address"
				},
				{
					"indexed": false,
					"internalType": "bool",
					"name": "isActive",
					"type": "bool"
				}
			],
			"name": "ActorStatusChanged",
			"type": "event"
		},
		{
			"anonymous": false,
			"inputs": [
				{
					"indexed": true,
					"internalType": "address",
					"name": "newAdmin",
					"type": "address"
				}
			],
			"name": "AdminTransferAccepted",
			"type": "event"
		},
		{
			"anonymous": false,
			"inputs": [
				{
					"indexed": true,
					"internalType": "address",
					"name": "proposedAdmin",
					"type": "address"
				}
			],
			"name": "AdminTransferProposed",
			"type": "event"
		},
		{
			"anonymous": false,
			"inputs": [
				{
					"indexed": true,
					"internalType": "uint256",
					"name": "checkpointId",
					"type": "uint256"
				},
				{
					"indexed": true,
					"internalType": "uint256",
					"name": "shipmentId",
					"type": "uint256"
				},
				{
					"indexed": false,
					"internalType": "enum LogisticsTracking.CheckpointType",
					"name": "checkpointType",
					"type": "uint8"
				},
				{
					"indexed": false,
					"internalType": "address",
					"name": "actor",
					"type": "address"
				}
			],
			"name": "CheckpointRecorded",
			"type": "event"
		},
		{
			"anonymous": false,
			"inputs": [
				{
					"indexed": true,
					"internalType": "uint256",
					"name": "shipmentId",
					"type": "uint256"
				},
				{
					"indexed": true,
					"internalType": "address",
					"name": "recipient",
					"type": "address"
				},
				{
					"indexed": false,
					"internalType": "uint256",
					"name": "timestamp",
					"type": "uint256"
				}
			],
			"name": "DeliveryConfirmed",
			"type": "event"
		},
		{
			"anonymous": false,
			"inputs": [
				{
					"indexed": true,
					"internalType": "uint256",
					"name": "incidentId",
					"type": "uint256"
				},
				{
					"indexed": true,
					"internalType": "uint256",
					"name": "shipmentId",
					"type": "uint256"
				},
				{
					"indexed": false,
					"internalType": "enum LogisticsTracking.IncidentType",
					"name": "incidentType",
					"type": "uint8"
				}
			],
			"name": "IncidentReported",
			"type": "event"
		},
		{
			"anonymous": false,
			"inputs": [
				{
					"indexed": true,
					"internalType": "uint256",
					"name": "incidentId",
					"type": "uint256"
				}
			],
			"name": "IncidentResolved",
			"type": "event"
		},
		{
			"anonymous": false,
			"inputs": [
				{
					"indexed": true,
					"internalType": "uint256",
					"name": "shipmentId",
					"type": "uint256"
				},
				{
					"indexed": true,
					"internalType": "address",
					"name": "sender",
					"type": "address"
				},
				{
					"indexed": true,
					"internalType": "address",
					"name": "recipient",
					"type": "address"
				},
				{
					"indexed": false,
					"internalType": "string",
					"name": "product",
					"type": "string"
				}
			],
			"name": "ShipmentCreated",
			"type": "event"
		},
		{
			"anonymous": false,
			"inputs": [
				{
					"indexed": true,
					"internalType": "uint256",
					"name": "shipmentId",
					"type": "uint256"
				},
				{
					"indexed": false,
					"internalType": "enum LogisticsTracking.ShipmentStatus",
					"name": "newStatus",
					"type": "uint8"
				}
			],
			"name": "ShipmentStatusChanged",
			"type": "event"
		},
		{
			"inputs": [],
			"name": "COLD_CHAIN_TEMP_MAX",
			"outputs": [
				{
					"internalType": "int256",
					"name": "",
					"type": "int256"
				}
			],
			"stateMutability": "view",
			"type": "function"
		},
		{
			"inputs": [],
			"name": "COLD_CHAIN_TEMP_MIN",
			"outputs": [
				{
					"internalType": "int256",
					"name": "",
					"type": "int256"
				}
			],
			"stateMutability": "view",
			"type": "function"
		},
		{
			"inputs": [],
			"name": "MAX_CHECKPOINTS_PER_SHIPMENT",
			"outputs": [
				{
					"internalType": "uint256",
					"name": "",
					"type": "uint256"
				}
			],
			"stateMutability": "view",
			"type": "function"
		},
		{
			"inputs": [],
			"name": "MAX_INCIDENTS_PER_SHIPMENT",
			"outputs": [
				{
					"internalType": "uint256",
					"name": "",
					"type": "uint256"
				}
			],
			"stateMutability": "view",
			"type": "function"
		},
		{
			"inputs": [],
			"name": "TEMPERATURE_NOT_SET",
			"outputs": [
				{
					"internalType": "int256",
					"name": "",
					"type": "int256"
				}
			],
			"stateMutability": "view",
			"type": "function"
		},
		{
			"inputs": [],
			"name": "acceptAdmin",
			"outputs": [],
			"stateMutability": "nonpayable",
			"type": "function"
		},
		{
			"inputs": [],
			"name": "admin",
			"outputs": [
				{
					"internalType": "address",
					"name": "",
					"type": "address"
				}
			],
			"stateMutability": "view",
			"type": "function"
		},
		{
			"inputs": [
				{
					"internalType": "uint256",
					"name": "_shipmentId",
					"type": "uint256"
				}
			],
			"name": "cancelShipment",
			"outputs": [],
			"stateMutability": "nonpayable",
			"type": "function"
		},
		{
			"inputs": [
				{
					"internalType": "uint256",
					"name": "_shipmentId",
					"type": "uint256"
				}
			],
			"name": "confirmDelivery",
			"outputs": [],
			"stateMutability": "nonpayable",
			"type": "function"
		},
		{
			"inputs": [
				{
					"internalType": "address",
					"name": "_recipient",
					"type": "address"
				},
				{
					"internalType": "string",
					"name": "_product",
					"type": "string"
				},
				{
					"internalType": "string",
					"name": "_origin",
					"type": "string"
				},
				{
					"internalType": "string",
					"name": "_destination",
					"type": "string"
				},
				{
					"internalType": "bool",
					"name": "_requiresColdChain",
					"type": "bool"
				}
			],
			"name": "createShipment",
			"outputs": [
				{
					"internalType": "uint256",
					"name": "",
					"type": "uint256"
				}
			],
			"stateMutability": "nonpayable",
			"type": "function"
		},
		{
			"inputs": [
				{
					"internalType": "address",
					"name": "_actorAddress",
					"type": "address"
				}
			],
			"name": "deactivateActor",
			"outputs": [],
			"stateMutability": "nonpayable",
			"type": "function"
		},
		{
			"inputs": [
				{
					"internalType": "address",
					"name": "_actorAddress",
					"type": "address"
				}
			],
			"name": "getActor",
			"outputs": [
				{
					"components": [
						{
							"internalType": "address",
							"name": "actorAddress",
							"type": "address"
						},
						{
							"internalType": "string",
							"name": "name",
							"type": "string"
						},
						{
							"internalType": "enum LogisticsTracking.ActorRole",
							"name": "role",
							"type": "uint8"
						},
						{
							"internalType": "string",
							"name": "location",
							"type": "string"
						},
						{
							"internalType": "bool",
							"name": "isActive",
							"type": "bool"
						}
					],
					"internalType": "struct LogisticsTracking.Actor",
					"name": "",
					"type": "tuple"
				}
			],
			"stateMutability": "view",
			"type": "function"
		},
		{
			"inputs": [
				{
					"internalType": "address",
					"name": "_actor",
					"type": "address"
				}
			],
			"name": "getActorShipments",
			"outputs": [
				{
					"internalType": "uint256[]",
					"name": "",
					"type": "uint256[]"
				}
			],
			"stateMutability": "view",
			"type": "function"
		},
		{
			"inputs": [
				{
					"internalType": "uint256",
					"name": "_id",
					"type": "uint256"
				}
			],
			"name": "getAllShipmentCheckpoints",
			"outputs": [
				{
					"components": [
						{
							"internalType": "uint256",
							"name": "id",
							"type": "uint256"
						},
						{
							"internalType": "uint256",
							"name": "shipmentId",
							"type": "uint256"
						},
						{
							"internalType": "address",
							"name": "actor",
							"type": "address"
						},
						{
							"internalType": "string",
							"name": "location",
							"type": "string"
						},
						{
							"internalType": "enum LogisticsTracking.CheckpointType",
							"name": "checkpointType",
							"type": "uint8"
						},
						{
							"internalType": "uint256",
							"name": "timestamp",
							"type": "uint256"
						},
						{
							"internalType": "string",
							"name": "notes",
							"type": "string"
						},
						{
							"internalType": "int256",
							"name": "temperature",
							"type": "int256"
						}
					],
					"internalType": "struct LogisticsTracking.Checkpoint[]",
					"name": "",
					"type": "tuple[]"
				}
			],
			"stateMutability": "view",
			"type": "function"
		},
		{
			"inputs": [
				{
					"internalType": "uint256",
					"name": "_shipmentId",
					"type": "uint256"
				}
			],
			"name": "getAllShipmentIncidents",
			"outputs": [
				{
					"components": [
						{
							"internalType": "uint256",
							"name": "id",
							"type": "uint256"
						},
						{
							"internalType": "uint256",
							"name": "shipmentId",
							"type": "uint256"
						},
						{
							"internalType": "enum LogisticsTracking.IncidentType",
							"name": "incidentType",
							"type": "uint8"
						},
						{
							"internalType": "address",
							"name": "reporter",
							"type": "address"
						},
						{
							"internalType": "string",
							"name": "description",
							"type": "string"
						},
						{
							"internalType": "uint256",
							"name": "timestamp",
							"type": "uint256"
						},
						{
							"internalType": "bool",
							"name": "resolved",
							"type": "bool"
						}
					],
					"internalType": "struct LogisticsTracking.Incident[]",
					"name": "",
					"type": "tuple[]"
				}
			],
			"stateMutability": "view",
			"type": "function"
		},
		{
			"inputs": [
				{
					"internalType": "uint256",
					"name": "_checkpointId",
					"type": "uint256"
				}
			],
			"name": "getCheckpoint",
			"outputs": [
				{
					"components": [
						{
							"internalType": "uint256",
							"name": "id",
							"type": "uint256"
						},
						{
							"internalType": "uint256",
							"name": "shipmentId",
							"type": "uint256"
						},
						{
							"internalType": "address",
							"name": "actor",
							"type": "address"
						},
						{
							"internalType": "string",
							"name": "location",
							"type": "string"
						},
						{
							"internalType": "enum LogisticsTracking.CheckpointType",
							"name": "checkpointType",
							"type": "uint8"
						},
						{
							"internalType": "uint256",
							"name": "timestamp",
							"type": "uint256"
						},
						{
							"internalType": "string",
							"name": "notes",
							"type": "string"
						},
						{
							"internalType": "int256",
							"name": "temperature",
							"type": "int256"
						}
					],
					"internalType": "struct LogisticsTracking.Checkpoint",
					"name": "",
					"type": "tuple"
				}
			],
			"stateMutability": "view",
			"type": "function"
		},
		{
			"inputs": [
				{
					"internalType": "uint256",
					"name": "_incidentId",
					"type": "uint256"
				}
			],
			"name": "getIncident",
			"outputs": [
				{
					"components": [
						{
							"internalType": "uint256",
							"name": "id",
							"type": "uint256"
						},
						{
							"internalType": "uint256",
							"name": "shipmentId",
							"type": "uint256"
						},
						{
							"internalType": "enum LogisticsTracking.IncidentType",
							"name": "incidentType",
							"type": "uint8"
						},
						{
							"internalType": "address",
							"name": "reporter",
							"type": "address"
						},
						{
							"internalType": "string",
							"name": "description",
							"type": "string"
						},
						{
							"internalType": "uint256",
							"name": "timestamp",
							"type": "uint256"
						},
						{
							"internalType": "bool",
							"name": "resolved",
							"type": "bool"
						}
					],
					"internalType": "struct LogisticsTracking.Incident",
					"name": "",
					"type": "tuple"
				}
			],
			"stateMutability": "view",
			"type": "function"
		},
		{
			"inputs": [
				{
					"internalType": "uint256",
					"name": "_id",
					"type": "uint256"
				}
			],
			"name": "getShipment",
			"outputs": [
				{
					"components": [
						{
							"internalType": "uint256",
							"name": "id",
							"type": "uint256"
						},
						{
							"internalType": "address",
							"name": "sender",
							"type": "address"
						},
						{
							"internalType": "address",
							"name": "recipient",
							"type": "address"
						},
						{
							"internalType": "string",
							"name": "product",
							"type": "string"
						},
						{
							"internalType": "string",
							"name": "origin",
							"type": "string"
						},
						{
							"internalType": "string",
							"name": "destination",
							"type": "string"
						},
						{
							"internalType": "uint256",
							"name": "dateCreated",
							"type": "uint256"
						},
						{
							"internalType": "uint256",
							"name": "dateDelivered",
							"type": "uint256"
						},
						{
							"internalType": "enum LogisticsTracking.ShipmentStatus",
							"name": "status",
							"type": "uint8"
						},
						{
							"internalType": "uint256[]",
							"name": "checkpointIds",
							"type": "uint256[]"
						},
						{
							"internalType": "uint256[]",
							"name": "incidentIds",
							"type": "uint256[]"
						},
						{
							"internalType": "bool",
							"name": "requiresColdChain",
							"type": "bool"
						}
					],
					"internalType": "struct LogisticsTracking.Shipment",
					"name": "",
					"type": "tuple"
				}
			],
			"stateMutability": "view",
			"type": "function"
		},
		{
			"inputs": [
				{
					"internalType": "uint256",
					"name": "_id",
					"type": "uint256"
				},
				{
					"internalType": "uint256",
					"name": "_offset",
					"type": "uint256"
				},
				{
					"internalType": "uint256",
					"name": "_limit",
					"type": "uint256"
				}
			],
			"name": "getShipmentCheckpoints",
			"outputs": [
				{
					"components": [
						{
							"internalType": "uint256",
							"name": "id",
							"type": "uint256"
						},
						{
							"internalType": "uint256",
							"name": "shipmentId",
							"type": "uint256"
						},
						{
							"internalType": "address",
							"name": "actor",
							"type": "address"
						},
						{
							"internalType": "string",
							"name": "location",
							"type": "string"
						},
						{
							"internalType": "enum LogisticsTracking.CheckpointType",
							"name": "checkpointType",
							"type": "uint8"
						},
						{
							"internalType": "uint256",
							"name": "timestamp",
							"type": "uint256"
						},
						{
							"internalType": "string",
							"name": "notes",
							"type": "string"
						},
						{
							"internalType": "int256",
							"name": "temperature",
							"type": "int256"
						}
					],
					"internalType": "struct LogisticsTracking.Checkpoint[]",
					"name": "",
					"type": "tuple[]"
				}
			],
			"stateMutability": "view",
			"type": "function"
		},
		{
			"inputs": [
				{
					"internalType": "uint256",
					"name": "_shipmentId",
					"type": "uint256"
				},
				{
					"internalType": "uint256",
					"name": "_offset",
					"type": "uint256"
				},
				{
					"internalType": "uint256",
					"name": "_limit",
					"type": "uint256"
				}
			],
			"name": "getShipmentIncidents",
			"outputs": [
				{
					"components": [
						{
							"internalType": "uint256",
							"name": "id",
							"type": "uint256"
						},
						{
							"internalType": "uint256",
							"name": "shipmentId",
							"type": "uint256"
						},
						{
							"internalType": "enum LogisticsTracking.IncidentType",
							"name": "incidentType",
							"type": "uint8"
						},
						{
							"internalType": "address",
							"name": "reporter",
							"type": "address"
						},
						{
							"internalType": "string",
							"name": "description",
							"type": "string"
						},
						{
							"internalType": "uint256",
							"name": "timestamp",
							"type": "uint256"
						},
						{
							"internalType": "bool",
							"name": "resolved",
							"type": "bool"
						}
					],
					"internalType": "struct LogisticsTracking.Incident[]",
					"name": "",
					"type": "tuple[]"
				}
			],
			"stateMutability": "view",
			"type": "function"
		},
		{
			"inputs": [
				{
					"internalType": "uint256",
					"name": "_incidentId",
					"type": "uint256"
				}
			],
			"name": "isIncidentResolved",
			"outputs": [
				{
					"internalType": "bool",
					"name": "",
					"type": "bool"
				}
			],
			"stateMutability": "view",
			"type": "function"
		},
		{
			"inputs": [],
			"name": "nextCheckpointId",
			"outputs": [
				{
					"internalType": "uint256",
					"name": "",
					"type": "uint256"
				}
			],
			"stateMutability": "view",
			"type": "function"
		},
		{
			"inputs": [],
			"name": "nextIncidentId",
			"outputs": [
				{
					"internalType": "uint256",
					"name": "",
					"type": "uint256"
				}
			],
			"stateMutability": "view",
			"type": "function"
		},
		{
			"inputs": [],
			"name": "nextShipmentId",
			"outputs": [
				{
					"internalType": "uint256",
					"name": "",
					"type": "uint256"
				}
			],
			"stateMutability": "view",
			"type": "function"
		},
		{
			"inputs": [],
			"name": "pendingAdmin",
			"outputs": [
				{
					"internalType": "address",
					"name": "",
					"type": "address"
				}
			],
			"stateMutability": "view",
			"type": "function"
		},
		{
			"inputs": [
				{
					"internalType": "address",
					"name": "_newAdmin",
					"type": "address"
				}
			],
			"name": "proposeAdmin",
			"outputs": [],
			"stateMutability": "nonpayable",
			"type": "function"
		},
		{
			"inputs": [
				{
					"internalType": "address",
					"name": "_actorAddress",
					"type": "address"
				}
			],
			"name": "reactivateActor",
			"outputs": [],
			"stateMutability": "nonpayable",
			"type": "function"
		},
		{
			"inputs": [
				{
					"internalType": "uint256",
					"name": "_shipmentId",
					"type": "uint256"
				},
				{
					"internalType": "string",
					"name": "_location",
					"type": "string"
				},
				{
					"internalType": "enum LogisticsTracking.CheckpointType",
					"name": "_checkpointType",
					"type": "uint8"
				},
				{
					"internalType": "string",
					"name": "_notes",
					"type": "string"
				},
				{
					"internalType": "int256",
					"name": "_temperature",
					"type": "int256"
				}
			],
			"name": "recordCheckpoint",
			"outputs": [
				{
					"internalType": "uint256",
					"name": "",
					"type": "uint256"
				}
			],
			"stateMutability": "nonpayable",
			"type": "function"
		},
		{
			"inputs": [
				{
					"internalType": "string",
					"name": "_name",
					"type": "string"
				},
				{
					"internalType": "enum LogisticsTracking.ActorRole",
					"name": "_role",
					"type": "uint8"
				},
				{
					"internalType": "string",
					"name": "_location",
					"type": "string"
				},
				{
					"internalType": "address",
					"name": "_actorAddress",
					"type": "address"
				}
			],
			"name": "registerActor",
			"outputs": [],
			"stateMutability": "nonpayable",
			"type": "function"
		},
		{
			"inputs": [
				{
					"internalType": "uint256",
					"name": "_shipmentId",
					"type": "uint256"
				},
				{
					"internalType": "enum LogisticsTracking.IncidentType",
					"name": "_type",
					"type": "uint8"
				},
				{
					"internalType": "string",
					"name": "_desc",
					"type": "string"
				}
			],
			"name": "reportIncident",
			"outputs": [
				{
					"internalType": "uint256",
					"name": "",
					"type": "uint256"
				}
			],
			"stateMutability": "nonpayable",
			"type": "function"
		},
		{
			"inputs": [
				{
					"internalType": "uint256",
					"name": "_incidentId",
					"type": "uint256"
				}
			],
			"name": "resolveIncident",
			"outputs": [],
			"stateMutability": "nonpayable",
			"type": "function"
		},
		{
			"inputs": [
				{
					"internalType": "address",
					"name": "_newAdmin",
					"type": "address"
				}
			],
			"name": "transferAdmin",
			"outputs": [],
			"stateMutability": "nonpayable",
			"type": "function"
		},
		{
			"inputs": [
				{
					"internalType": "uint256",
					"name": "_shipmentId",
					"type": "uint256"
				},
				{
					"internalType": "enum LogisticsTracking.ShipmentStatus",
					"name": "_newStatus",
					"type": "uint8"
				}
			],
			"name": "updateShipmentStatus",
			"outputs": [],
			"stateMutability": "nonpayable",
			"type": "function"
		},
		{
			"inputs": [
				{
					"internalType": "uint256",
					"name": "_shipmentId",
					"type": "uint256"
				}
			],
			"name": "verifyTemperatureCompliance",
			"outputs": [
				{
					"internalType": "bool",
					"name": "",
					"type": "bool"
				}
			],
			"stateMutability": "view",
			"type": "function"
		}
	]
}